{
	"Code-hardhat-ethersJs/contracts/MyTokenMarket.sol": {
		"MyTokenMarket": {
			"abi": [
				{
					"inputs": [],
					"stateMutability": "nonpayable",
					"type": "constructor"
				},
				{
					"inputs": [
						{
							"internalType": "uint256",
							"name": "amountMyTokenDesired",
							"type": "uint256"
						}
					],
					"name": "addLiquidity",
					"outputs": [
						{
							"internalType": "uint256",
							"name": "amountOfLp",
							"type": "uint256"
						}
					],
					"stateMutability": "payable",
					"type": "function"
				},
				{
					"inputs": [
						{
							"internalType": "uint256",
							"name": "amountOutMin",
							"type": "uint256"
						}
					],
					"name": "buyExactTokenByETH",
					"outputs": [],
					"stateMutability": "payable",
					"type": "function"
				},
				{
					"inputs": [
						{
							"internalType": "uint256",
							"name": "pid",
							"type": "uint256"
						},
						{
							"internalType": "uint256",
							"name": "amount",
							"type": "uint256"
						}
					],
					"name": "depositToMasterChef",
					"outputs": [],
					"stateMutability": "nonpayable",
					"type": "function"
				},
				{
					"inputs": [
						{
							"internalType": "uint256",
							"name": "pid",
							"type": "uint256"
						},
						{
							"internalType": "address",
							"name": "user",
							"type": "address"
						}
					],
					"name": "withdraw",
					"outputs": [],
					"stateMutability": "nonpayable",
					"type": "function"
				}
			],
			"devdoc": {
				"kind": "dev",
				"methods": {},
				"version": 1
			},
			"evm": {
				"assembly": "    /* \"Code-hardhat-ethersJs/contracts/MyTokenMarket.sol\":264:3341  contract MyTokenMarket{... */\n  mstore(0x40, 0x80)\n    /* \"Code-hardhat-ethersJs/contracts/MyTokenMarket.sol\":537:579  0x7a250d5630B4cF539739dF2C5dAcb4c659F2488D */\n  0x7a250d5630b4cf539739df2c5dacb4c659f2488d\n    /* \"Code-hardhat-ethersJs/contracts/MyTokenMarket.sol\":516:579  address uv2address = 0x7a250d5630B4cF539739dF2C5dAcb4c659F2488D */\n  0x00\n  dup1\n  0x0100\n  exp\n  dup2\n  sload\n  dup2\n  0xffffffffffffffffffffffffffffffffffffffff\n  mul\n  not\n  and\n  swap1\n  dup4\n  0xffffffffffffffffffffffffffffffffffffffff\n  and\n  mul\n  or\n  swap1\n  sstore\n  pop\n    /* \"Code-hardhat-ethersJs/contracts/MyTokenMarket.sol\":607:649  0xc778417E063141139Fce010982780140Aa0cD5Ab */\n  0xc778417e063141139fce010982780140aa0cd5ab\n    /* \"Code-hardhat-ethersJs/contracts/MyTokenMarket.sol\":585:649  address wethaddress = 0xc778417E063141139Fce010982780140Aa0cD5Ab */\n  0x01\n  exp(0x0100, 0x00)\n  dup2\n  sload\n  dup2\n  0xffffffffffffffffffffffffffffffffffffffff\n  mul\n  not\n  and\n  swap1\n  dup4\n  0xffffffffffffffffffffffffffffffffffffffff\n  and\n  mul\n  or\n  swap1\n  sstore\n  pop\n    /* \"Code-hardhat-ethersJs/contracts/MyTokenMarket.sol\":680:722  0x549F978C19a5AC86D906052639E317B57724ef44 */\n  0x549f978c19a5ac86d906052639e317b57724ef44\n    /* \"Code-hardhat-ethersJs/contracts/MyTokenMarket.sol\":655:722  address mytokenaddress = 0x549F978C19a5AC86D906052639E317B57724ef44 */\n  0x02\n  exp(0x0100, 0x00)\n  dup2\n  sload\n  dup2\n  0xffffffffffffffffffffffffffffffffffffffff\n  mul\n  not\n  and\n  swap1\n  dup4\n  0xffffffffffffffffffffffffffffffffffffffff\n  and\n  mul\n  or\n  swap1\n  sstore\n  pop\n    /* \"Code-hardhat-ethersJs/contracts/MyTokenMarket.sol\":751:793  0xf42A08C0EA66ee4A474336087A6C17E9EA6c9dE9 */\n  0xf42a08c0ea66ee4a474336087a6c17e9ea6c9de9\n    /* \"Code-hardhat-ethersJs/contracts/MyTokenMarket.sol\":728:793  address sushiaddress = 0xf42A08C0EA66ee4A474336087A6C17E9EA6c9dE9 */\n  0x03\n  exp(0x0100, 0x00)\n  dup2\n  sload\n  dup2\n  0xffffffffffffffffffffffffffffffffffffffff\n  mul\n  not\n  and\n  swap1\n  dup4\n  0xffffffffffffffffffffffffffffffffffffffff\n  and\n  mul\n  or\n  swap1\n  sstore\n  pop\n    /* \"Code-hardhat-ethersJs/contracts/MyTokenMarket.sol\":827:869  0xd9DFA8c6b37cfDF16668fE0465896f4A1B9b2c4F */\n  0xd9dfa8c6b37cfdf16668fe0465896f4a1b9b2c4f\n    /* \"Code-hardhat-ethersJs/contracts/MyTokenMarket.sol\":799:869  address masterchefaddress = 0xd9DFA8c6b37cfDF16668fE0465896f4A1B9b2c4F */\n  0x04\n  exp(0x0100, 0x00)\n  dup2\n  sload\n  dup2\n  0xffffffffffffffffffffffffffffffffffffffff\n  mul\n  not\n  and\n  swap1\n  dup4\n  0xffffffffffffffffffffffffffffffffffffffff\n  and\n  mul\n  or\n  swap1\n  sstore\n  pop\n    /* \"Code-hardhat-ethersJs/contracts/MyTokenMarket.sol\":925:935  uv2address */\n  0x00\n  dup1\n  sload\n  swap1\n  0x0100\n  exp\n  swap1\n  div\n  0xffffffffffffffffffffffffffffffffffffffff\n  and\n    /* \"Code-hardhat-ethersJs/contracts/MyTokenMarket.sol\":875:936  IUniswapV2Router02 uv2router = IUniswapV2Router02(uv2address) */\n  0x05\n  exp(0x0100, 0x00)\n  dup2\n  sload\n  dup2\n  0xffffffffffffffffffffffffffffffffffffffff\n  mul\n  not\n  and\n  swap1\n  dup4\n  0xffffffffffffffffffffffffffffffffffffffff\n  and\n  mul\n  or\n  swap1\n  sstore\n  pop\n    /* \"Code-hardhat-ethersJs/contracts/MyTokenMarket.sol\":965:979  mytokenaddress */\n  0x02\n  0x00\n  swap1\n  sload\n  swap1\n  0x0100\n  exp\n  swap1\n  div\n  0xffffffffffffffffffffffffffffffffffffffff\n  and\n    /* \"Code-hardhat-ethersJs/contracts/MyTokenMarket.sol\":942:980  IERC20 mtoken = IERC20(mytokenaddress) */\n  0x06\n  exp(0x0100, 0x00)\n  dup2\n  sload\n  dup2\n  0xffffffffffffffffffffffffffffffffffffffff\n  mul\n  not\n  and\n  swap1\n  dup4\n  0xffffffffffffffffffffffffffffffffffffffff\n  and\n  mul\n  or\n  swap1\n  sstore\n  pop\n    /* \"Code-hardhat-ethersJs/contracts/MyTokenMarket.sol\":1023:1040  masterchefaddress */\n  0x04\n  0x00\n  swap1\n  sload\n  swap1\n  0x0100\n  exp\n  swap1\n  div\n  0xffffffffffffffffffffffffffffffffffffffff\n  and\n    /* \"Code-hardhat-ethersJs/contracts/MyTokenMarket.sol\":986:1041  IMasterChef masterChef = IMasterChef(masterchefaddress) */\n  0x07\n  exp(0x0100, 0x00)\n  dup2\n  sload\n  dup2\n  0xffffffffffffffffffffffffffffffffffffffff\n  mul\n  not\n  and\n  swap1\n  dup4\n  0xffffffffffffffffffffffffffffffffffffffff\n  and\n  mul\n  or\n  swap1\n  sstore\n  pop\n    /* \"Code-hardhat-ethersJs/contracts/MyTokenMarket.sol\":1047:1067  constructor(){... */\n  callvalue\n  dup1\n  iszero\n  tag_1\n  jumpi\n  0x00\n  dup1\n  revert\ntag_1:\n  pop\n    /* \"Code-hardhat-ethersJs/contracts/MyTokenMarket.sol\":264:3341  contract MyTokenMarket{... */\n  dataSize(sub_0)\n  dup1\n  dataOffset(sub_0)\n  0x00\n  codecopy\n  0x00\n  return\nstop\n\nsub_0: assembly {\n        /* \"Code-hardhat-ethersJs/contracts/MyTokenMarket.sol\":264:3341  contract MyTokenMarket{... */\n      mstore(0x40, 0x80)\n      jumpi(tag_1, lt(calldatasize, 0x04))\n      shr(0xe0, calldataload(0x00))\n      dup1\n      0xf714ce\n      eq\n      tag_2\n      jumpi\n      dup1\n      0x51c6590a\n      eq\n      tag_3\n      jumpi\n      dup1\n      0x881e7a97\n      eq\n      tag_4\n      jumpi\n      dup1\n      0xa93f74e0\n      eq\n      tag_5\n      jumpi\n    tag_1:\n      0x00\n      dup1\n      revert\n        /* \"Code-hardhat-ethersJs/contracts/MyTokenMarket.sol\":2988:3337  function withdraw(uint256 pid,address user)public{... */\n    tag_2:\n      callvalue\n      dup1\n      iszero\n      tag_6\n      jumpi\n      0x00\n      dup1\n      revert\n    tag_6:\n      pop\n      tag_7\n      0x04\n      dup1\n      calldatasize\n      sub\n      dup2\n      add\n      swap1\n      tag_8\n      swap2\n      swap1\n      tag_9\n      jump\t// in\n    tag_8:\n      tag_10\n      jump\t// in\n    tag_7:\n      stop\n        /* \"Code-hardhat-ethersJs/contracts/MyTokenMarket.sol\":1606:2146  function addLiquidity(... */\n    tag_3:\n      tag_11\n      0x04\n      dup1\n      calldatasize\n      sub\n      dup2\n      add\n      swap1\n      tag_12\n      swap2\n      swap1\n      tag_13\n      jump\t// in\n    tag_12:\n      tag_14\n      jump\t// in\n    tag_11:\n      mload(0x40)\n      tag_15\n      swap2\n      swap1\n      tag_16\n      jump\t// in\n    tag_15:\n      mload(0x40)\n      dup1\n      swap2\n      sub\n      swap1\n      return\n        /* \"Code-hardhat-ethersJs/contracts/MyTokenMarket.sol\":2397:2650  function depositToMasterChef(uint256 pid, uint256 amount)public{... */\n    tag_4:\n      callvalue\n      dup1\n      iszero\n      tag_17\n      jumpi\n      0x00\n      dup1\n      revert\n    tag_17:\n      pop\n      tag_18\n      0x04\n      dup1\n      calldatasize\n      sub\n      dup2\n      add\n      swap1\n      tag_19\n      swap2\n      swap1\n      tag_20\n      jump\t// in\n    tag_19:\n      tag_21\n      jump\t// in\n    tag_18:\n      stop\n        /* \"Code-hardhat-ethersJs/contracts/MyTokenMarket.sol\":2657:2981  function buyExactTokenByETH(uint amountOutMin)public payable{... */\n    tag_5:\n      tag_22\n      0x04\n      dup1\n      calldatasize\n      sub\n      dup2\n      add\n      swap1\n      tag_23\n      swap2\n      swap1\n      tag_13\n      jump\t// in\n    tag_23:\n      tag_24\n      jump\t// in\n    tag_22:\n      stop\n        /* \"Code-hardhat-ethersJs/contracts/MyTokenMarket.sol\":2988:3337  function withdraw(uint256 pid,address user)public{... */\n    tag_10:\n        /* \"Code-hardhat-ethersJs/contracts/MyTokenMarket.sol\":3047:3083  IMasterChef.UserInfo memory userInfo */\n      0x00\n        /* \"Code-hardhat-ethersJs/contracts/MyTokenMarket.sol\":3086:3096  masterChef */\n      0x07\n      0x00\n      swap1\n      sload\n      swap1\n      0x0100\n      exp\n      swap1\n      div\n      0xffffffffffffffffffffffffffffffffffffffff\n      and\n        /* \"Code-hardhat-ethersJs/contracts/MyTokenMarket.sol\":3086:3105  masterChef.userInfo */\n      0xffffffffffffffffffffffffffffffffffffffff\n      and\n      0x1959a002\n        /* \"Code-hardhat-ethersJs/contracts/MyTokenMarket.sol\":3106:3110  user */\n      dup4\n        /* \"Code-hardhat-ethersJs/contracts/MyTokenMarket.sol\":3086:3111  masterChef.userInfo(user) */\n      mload(0x40)\n      dup3\n      0xffffffff\n      and\n      0xe0\n      shl\n      dup2\n      mstore\n      0x04\n      add\n      tag_26\n      swap2\n      swap1\n      tag_27\n      jump\t// in\n    tag_26:\n      0x40\n      dup1\n      mload\n      dup1\n      dup4\n      sub\n      dup2\n      dup7\n      gas\n      staticcall\n      iszero\n      dup1\n      iszero\n      tag_29\n      jumpi\n      returndatasize\n      0x00\n      dup1\n      returndatacopy\n      revert(0x00, returndatasize)\n    tag_29:\n      pop\n      pop\n      pop\n      pop\n      mload(0x40)\n      returndatasize\n      not(0x1f)\n      0x1f\n      dup3\n      add\n      and\n      dup3\n      add\n      dup1\n      0x40\n      mstore\n      pop\n      dup2\n      add\n      swap1\n      tag_30\n      swap2\n      swap1\n      tag_31\n      jump\t// in\n    tag_30:\n        /* \"Code-hardhat-ethersJs/contracts/MyTokenMarket.sol\":3047:3111  IMasterChef.UserInfo memory userInfo = masterChef.userInfo(user) */\n      swap1\n      pop\n        /* \"Code-hardhat-ethersJs/contracts/MyTokenMarket.sol\":3197:3207  masterChef */\n      0x07\n      0x00\n      swap1\n      sload\n      swap1\n      0x0100\n      exp\n      swap1\n      div\n      0xffffffffffffffffffffffffffffffffffffffff\n      and\n        /* \"Code-hardhat-ethersJs/contracts/MyTokenMarket.sol\":3197:3216  masterChef.withdraw */\n      0xffffffffffffffffffffffffffffffffffffffff\n      and\n      0x441a3e70\n        /* \"Code-hardhat-ethersJs/contracts/MyTokenMarket.sol\":3217:3220  pid */\n      dup5\n        /* \"Code-hardhat-ethersJs/contracts/MyTokenMarket.sol\":3221:3229  userInfo */\n      dup4\n        /* \"Code-hardhat-ethersJs/contracts/MyTokenMarket.sol\":3221:3236  userInfo.amount */\n      0x00\n      add\n      mload\n        /* \"Code-hardhat-ethersJs/contracts/MyTokenMarket.sol\":3197:3237  masterChef.withdraw(pid,userInfo.amount) */\n      mload(0x40)\n      dup4\n      0xffffffff\n      and\n      0xe0\n      shl\n      dup2\n      mstore\n      0x04\n      add\n      tag_32\n      swap3\n      swap2\n      swap1\n      tag_33\n      jump\t// in\n    tag_32:\n      0x00\n      mload(0x40)\n      dup1\n      dup4\n      sub\n      dup2\n      0x00\n      dup8\n      dup1\n      extcodesize\n      iszero\n      dup1\n      iszero\n      tag_34\n      jumpi\n      0x00\n      dup1\n      revert\n    tag_34:\n      pop\n      gas\n      call\n      iszero\n      dup1\n      iszero\n      tag_36\n      jumpi\n      returndatasize\n      0x00\n      dup1\n      returndatacopy\n      revert(0x00, returndatasize)\n    tag_36:\n      pop\n      pop\n      pop\n      pop\n        /* \"Code-hardhat-ethersJs/contracts/MyTokenMarket.sol\":3037:3337  {... */\n      pop\n        /* \"Code-hardhat-ethersJs/contracts/MyTokenMarket.sol\":2988:3337  function withdraw(uint256 pid,address user)public{... */\n      pop\n      pop\n      jump\t// out\n        /* \"Code-hardhat-ethersJs/contracts/MyTokenMarket.sol\":1606:2146  function addLiquidity(... */\n    tag_14:\n        /* \"Code-hardhat-ethersJs/contracts/MyTokenMarket.sol\":1694:1712  uint256 amountOfLp */\n      0x00\n        /* \"Code-hardhat-ethersJs/contracts/MyTokenMarket.sol\":1761:1767  mtoken */\n      0x06\n      0x00\n      swap1\n      sload\n      swap1\n      0x0100\n      exp\n      swap1\n      div\n      0xffffffffffffffffffffffffffffffffffffffff\n      and\n        /* \"Code-hardhat-ethersJs/contracts/MyTokenMarket.sol\":1761:1775  mtoken.approve */\n      0xffffffffffffffffffffffffffffffffffffffff\n      and\n      0x095ea7b3\n        /* \"Code-hardhat-ethersJs/contracts/MyTokenMarket.sol\":1784:1793  uv2router */\n      0x05\n      0x00\n      swap1\n      sload\n      swap1\n      0x0100\n      exp\n      swap1\n      div\n      0xffffffffffffffffffffffffffffffffffffffff\n      and\n        /* \"Code-hardhat-ethersJs/contracts/MyTokenMarket.sol\":1796:1816  amountMyTokenDesired */\n      dup5\n        /* \"Code-hardhat-ethersJs/contracts/MyTokenMarket.sol\":1761:1817  mtoken.approve(address(uv2router), amountMyTokenDesired) */\n      mload(0x40)\n      dup4\n      0xffffffff\n      and\n      0xe0\n      shl\n      dup2\n      mstore\n      0x04\n      add\n      tag_38\n      swap3\n      swap2\n      swap1\n      tag_39\n      jump\t// in\n    tag_38:\n      0x20\n      mload(0x40)\n      dup1\n      dup4\n      sub\n      dup2\n      0x00\n      dup8\n      gas\n      call\n      iszero\n      dup1\n      iszero\n      tag_41\n      jumpi\n      returndatasize\n      0x00\n      dup1\n      returndatacopy\n      revert(0x00, returndatasize)\n    tag_41:\n      pop\n      pop\n      pop\n      pop\n      mload(0x40)\n      returndatasize\n      not(0x1f)\n      0x1f\n      dup3\n      add\n      and\n      dup3\n      add\n      dup1\n      0x40\n      mstore\n      pop\n      dup2\n      add\n      swap1\n      tag_42\n      swap2\n      swap1\n      tag_43\n      jump\t// in\n    tag_42:\n      pop\n        /* \"Code-hardhat-ethersJs/contracts/MyTokenMarket.sol\":1827:1839  bool success */\n      0x00\n        /* \"Code-hardhat-ethersJs/contracts/MyTokenMarket.sol\":1842:1848  mtoken */\n      0x06\n      0x00\n      swap1\n      sload\n      swap1\n      0x0100\n      exp\n      swap1\n      div\n      0xffffffffffffffffffffffffffffffffffffffff\n      and\n        /* \"Code-hardhat-ethersJs/contracts/MyTokenMarket.sol\":1842:1861  mtoken.transferFrom */\n      0xffffffffffffffffffffffffffffffffffffffff\n      and\n      0x23b872dd\n        /* \"Code-hardhat-ethersJs/contracts/MyTokenMarket.sol\":1862:1872  msg.sender */\n      caller\n        /* \"Code-hardhat-ethersJs/contracts/MyTokenMarket.sol\":1882:1886  this */\n      address\n        /* \"Code-hardhat-ethersJs/contracts/MyTokenMarket.sol\":1889:1909  amountMyTokenDesired */\n      dup7\n        /* \"Code-hardhat-ethersJs/contracts/MyTokenMarket.sol\":1842:1910  mtoken.transferFrom(msg.sender, address(this), amountMyTokenDesired) */\n      mload(0x40)\n      dup5\n      0xffffffff\n      and\n      0xe0\n      shl\n      dup2\n      mstore\n      0x04\n      add\n      tag_44\n      swap4\n      swap3\n      swap2\n      swap1\n      tag_45\n      jump\t// in\n    tag_44:\n      0x20\n      mload(0x40)\n      dup1\n      dup4\n      sub\n      dup2\n      0x00\n      dup8\n      gas\n      call\n      iszero\n      dup1\n      iszero\n      tag_47\n      jumpi\n      returndatasize\n      0x00\n      dup1\n      returndatacopy\n      revert(0x00, returndatasize)\n    tag_47:\n      pop\n      pop\n      pop\n      pop\n      mload(0x40)\n      returndatasize\n      not(0x1f)\n      0x1f\n      dup3\n      add\n      and\n      dup3\n      add\n      dup1\n      0x40\n      mstore\n      pop\n      dup2\n      add\n      swap1\n      tag_48\n      swap2\n      swap1\n      tag_43\n      jump\t// in\n    tag_48:\n        /* \"Code-hardhat-ethersJs/contracts/MyTokenMarket.sol\":1827:1910  bool success = mtoken.transferFrom(msg.sender, address(this), amountMyTokenDesired) */\n      swap1\n      pop\n        /* \"Code-hardhat-ethersJs/contracts/MyTokenMarket.sol\":1928:1935  success */\n      dup1\n        /* \"Code-hardhat-ethersJs/contracts/MyTokenMarket.sol\":1920:1962  require(success, \"mtoken transfer error!\") */\n      tag_49\n      jumpi\n      mload(0x40)\n      0x08c379a000000000000000000000000000000000000000000000000000000000\n      dup2\n      mstore\n      0x04\n      add\n      tag_50\n      swap1\n      tag_51\n      jump\t// in\n    tag_50:\n      mload(0x40)\n      dup1\n      swap2\n      sub\n      swap1\n      revert\n    tag_49:\n        /* \"Code-hardhat-ethersJs/contracts/MyTokenMarket.sol\":1973:1989  uint amountToken */\n      0x00\n        /* \"Code-hardhat-ethersJs/contracts/MyTokenMarket.sol\":1995:2004  uv2router */\n      0x05\n      0x00\n      swap1\n      sload\n      swap1\n      0x0100\n      exp\n      swap1\n      div\n      0xffffffffffffffffffffffffffffffffffffffff\n      and\n        /* \"Code-hardhat-ethersJs/contracts/MyTokenMarket.sol\":1995:2020  uv2router.addLiquidityETH */\n      0xffffffffffffffffffffffffffffffffffffffff\n      and\n      0xf305d719\n        /* \"Code-hardhat-ethersJs/contracts/MyTokenMarket.sol\":2028:2037  msg.value */\n      callvalue\n        /* \"Code-hardhat-ethersJs/contracts/MyTokenMarket.sol\":2040:2054  mytokenaddress */\n      0x02\n      0x00\n      swap1\n      sload\n      swap1\n      0x0100\n      exp\n      swap1\n      div\n      0xffffffffffffffffffffffffffffffffffffffff\n      and\n        /* \"Code-hardhat-ethersJs/contracts/MyTokenMarket.sol\":2056:2076  amountMyTokenDesired */\n      dup8\n        /* \"Code-hardhat-ethersJs/contracts/MyTokenMarket.sol\":2078:2079  0 */\n      0x00\n        /* \"Code-hardhat-ethersJs/contracts/MyTokenMarket.sol\":2081:2082  0 */\n      dup1\n        /* \"Code-hardhat-ethersJs/contracts/MyTokenMarket.sol\":2084:2094  msg.sender */\n      caller\n        /* \"Code-hardhat-ethersJs/contracts/MyTokenMarket.sol\":2095:2110  block.timestamp */\n      timestamp\n        /* \"Code-hardhat-ethersJs/contracts/MyTokenMarket.sol\":1995:2111  uv2router.addLiquidityETH{value: msg.value}( mytokenaddress, amountMyTokenDesired, 0, 0, msg.sender,block.timestamp) */\n      mload(0x40)\n      dup9\n      0xffffffff\n      and\n      0xe0\n      shl\n      dup2\n      mstore\n      0x04\n      add\n      tag_52\n      swap7\n      swap6\n      swap5\n      swap4\n      swap3\n      swap2\n      swap1\n      tag_53\n      jump\t// in\n    tag_52:\n      0x60\n      mload(0x40)\n      dup1\n      dup4\n      sub\n      dup2\n      dup6\n      dup9\n      gas\n      call\n      iszero\n      dup1\n      iszero\n      tag_55\n      jumpi\n      returndatasize\n      0x00\n      dup1\n      returndatacopy\n      revert(0x00, returndatasize)\n    tag_55:\n      pop\n      pop\n      pop\n      pop\n      pop\n      mload(0x40)\n      returndatasize\n      not(0x1f)\n      0x1f\n      dup3\n      add\n      and\n      dup3\n      add\n      dup1\n      0x40\n      mstore\n      pop\n      dup2\n      add\n      swap1\n      tag_56\n      swap2\n      swap1\n      tag_57\n      jump\t// in\n    tag_56:\n        /* \"Code-hardhat-ethersJs/contracts/MyTokenMarket.sol\":1972:2111  (uint amountToken,,) = uv2router.addLiquidityETH{value: msg.value}( mytokenaddress, amountMyTokenDesired, 0, 0, msg.sender,block.timestamp) */\n      pop\n      pop\n      swap1\n      pop\n        /* \"Code-hardhat-ethersJs/contracts/MyTokenMarket.sol\":2128:2139  amountToken */\n      dup1\n        /* \"Code-hardhat-ethersJs/contracts/MyTokenMarket.sol\":2121:2139  return amountToken */\n      swap3\n      pop\n      pop\n      pop\n        /* \"Code-hardhat-ethersJs/contracts/MyTokenMarket.sol\":1606:2146  function addLiquidity(... */\n      swap2\n      swap1\n      pop\n      jump\t// out\n        /* \"Code-hardhat-ethersJs/contracts/MyTokenMarket.sol\":2397:2650  function depositToMasterChef(uint256 pid, uint256 amount)public{... */\n    tag_21:\n        /* \"Code-hardhat-ethersJs/contracts/MyTokenMarket.sol\":2613:2623  masterChef */\n      0x07\n      0x00\n      swap1\n      sload\n      swap1\n      0x0100\n      exp\n      swap1\n      div\n      0xffffffffffffffffffffffffffffffffffffffff\n      and\n        /* \"Code-hardhat-ethersJs/contracts/MyTokenMarket.sol\":2613:2631  masterChef.deposit */\n      0xffffffffffffffffffffffffffffffffffffffff\n      and\n      0xe2bbb158\n        /* \"Code-hardhat-ethersJs/contracts/MyTokenMarket.sol\":2632:2635  pid */\n      dup4\n        /* \"Code-hardhat-ethersJs/contracts/MyTokenMarket.sol\":2636:2642  amount */\n      dup4\n        /* \"Code-hardhat-ethersJs/contracts/MyTokenMarket.sol\":2613:2643  masterChef.deposit(pid,amount) */\n      mload(0x40)\n      dup4\n      0xffffffff\n      and\n      0xe0\n      shl\n      dup2\n      mstore\n      0x04\n      add\n      tag_59\n      swap3\n      swap2\n      swap1\n      tag_33\n      jump\t// in\n    tag_59:\n      0x00\n      mload(0x40)\n      dup1\n      dup4\n      sub\n      dup2\n      0x00\n      dup8\n      dup1\n      extcodesize\n      iszero\n      dup1\n      iszero\n      tag_60\n      jumpi\n      0x00\n      dup1\n      revert\n    tag_60:\n      pop\n      gas\n      call\n      iszero\n      dup1\n      iszero\n      tag_62\n      jumpi\n      returndatasize\n      0x00\n      dup1\n      returndatacopy\n      revert(0x00, returndatasize)\n    tag_62:\n      pop\n      pop\n      pop\n      pop\n        /* \"Code-hardhat-ethersJs/contracts/MyTokenMarket.sol\":2397:2650  function depositToMasterChef(uint256 pid, uint256 amount)public{... */\n      pop\n      pop\n      jump\t// out\n        /* \"Code-hardhat-ethersJs/contracts/MyTokenMarket.sol\":2657:2981  function buyExactTokenByETH(uint amountOutMin)public payable{... */\n    tag_24:\n        /* \"Code-hardhat-ethersJs/contracts/MyTokenMarket.sol\":2731:2752  address[] memory path */\n      0x00\n        /* \"Code-hardhat-ethersJs/contracts/MyTokenMarket.sol\":2769:2770  2 */\n      0x02\n        /* \"Code-hardhat-ethersJs/contracts/MyTokenMarket.sol\":2755:2771  new address[](2) */\n      0xffffffffffffffff\n      dup2\n      gt\n      iszero\n      tag_64\n      jumpi\n      tag_65\n      tag_66\n      jump\t// in\n    tag_65:\n    tag_64:\n      mload(0x40)\n      swap1\n      dup1\n      dup3\n      mstore\n      dup1\n      0x20\n      mul\n      0x20\n      add\n      dup3\n      add\n      0x40\n      mstore\n      dup1\n      iszero\n      tag_67\n      jumpi\n      dup2\n      0x20\n      add\n      0x20\n      dup3\n      mul\n      dup1\n      calldatasize\n      dup4\n      calldatacopy\n      dup1\n      dup3\n      add\n      swap2\n      pop\n      pop\n      swap1\n      pop\n    tag_67:\n      pop\n        /* \"Code-hardhat-ethersJs/contracts/MyTokenMarket.sol\":2731:2771  address[] memory path = new address[](2) */\n      swap1\n      pop\n        /* \"Code-hardhat-ethersJs/contracts/MyTokenMarket.sol\":2803:2814  wethaddress */\n      0x01\n      0x00\n      swap1\n      sload\n      swap1\n      0x0100\n      exp\n      swap1\n      div\n      0xffffffffffffffffffffffffffffffffffffffff\n      and\n        /* \"Code-hardhat-ethersJs/contracts/MyTokenMarket.sol\":2785:2789  path */\n      dup2\n        /* \"Code-hardhat-ethersJs/contracts/MyTokenMarket.sol\":2790:2791  0 */\n      0x00\n        /* \"Code-hardhat-ethersJs/contracts/MyTokenMarket.sol\":2785:2792  path[0] */\n      dup2\n      mload\n      dup2\n      lt\n      tag_68\n      jumpi\n      tag_69\n      tag_70\n      jump\t// in\n    tag_69:\n    tag_68:\n      0x20\n      mul\n      0x20\n      add\n      add\n        /* \"Code-hardhat-ethersJs/contracts/MyTokenMarket.sol\":2785:2815  path[0] = address(wethaddress) */\n      swap1\n      0xffffffffffffffffffffffffffffffffffffffff\n      and\n      swap1\n      dup2\n      0xffffffffffffffffffffffffffffffffffffffff\n      and\n      dup2\n      mstore\n      pop\n      pop\n        /* \"Code-hardhat-ethersJs/contracts/MyTokenMarket.sol\":2847:2861  mytokenaddress */\n      0x02\n      0x00\n      swap1\n      sload\n      swap1\n      0x0100\n      exp\n      swap1\n      div\n      0xffffffffffffffffffffffffffffffffffffffff\n      and\n        /* \"Code-hardhat-ethersJs/contracts/MyTokenMarket.sol\":2829:2833  path */\n      dup2\n        /* \"Code-hardhat-ethersJs/contracts/MyTokenMarket.sol\":2834:2835  1 */\n      0x01\n        /* \"Code-hardhat-ethersJs/contracts/MyTokenMarket.sol\":2829:2836  path[1] */\n      dup2\n      mload\n      dup2\n      lt\n      tag_71\n      jumpi\n      tag_72\n      tag_70\n      jump\t// in\n    tag_72:\n    tag_71:\n      0x20\n      mul\n      0x20\n      add\n      add\n        /* \"Code-hardhat-ethersJs/contracts/MyTokenMarket.sol\":2829:2862  path[1] = address(mytokenaddress) */\n      swap1\n      0xffffffffffffffffffffffffffffffffffffffff\n      and\n      swap1\n      dup2\n      0xffffffffffffffffffffffffffffffffffffffff\n      and\n      dup2\n      mstore\n      pop\n      pop\n        /* \"Code-hardhat-ethersJs/contracts/MyTokenMarket.sol\":2876:2885  uv2router */\n      0x05\n      0x00\n      swap1\n      sload\n      swap1\n      0x0100\n      exp\n      swap1\n      div\n      0xffffffffffffffffffffffffffffffffffffffff\n      and\n        /* \"Code-hardhat-ethersJs/contracts/MyTokenMarket.sol\":2876:2907  uv2router.swapExactETHForTokens */\n      0xffffffffffffffffffffffffffffffffffffffff\n      and\n      0x7ff36ab5\n        /* \"Code-hardhat-ethersJs/contracts/MyTokenMarket.sol\":2915:2924  msg.value */\n      callvalue\n        /* \"Code-hardhat-ethersJs/contracts/MyTokenMarket.sol\":2926:2938  amountOutMin */\n      dup5\n        /* \"Code-hardhat-ethersJs/contracts/MyTokenMarket.sol\":2940:2944  path */\n      dup5\n        /* \"Code-hardhat-ethersJs/contracts/MyTokenMarket.sol\":2946:2956  msg.sender */\n      caller\n        /* \"Code-hardhat-ethersJs/contracts/MyTokenMarket.sol\":2958:2973  block.timestamp */\n      timestamp\n        /* \"Code-hardhat-ethersJs/contracts/MyTokenMarket.sol\":2876:2974  uv2router.swapExactETHForTokens{value: msg.value}(amountOutMin, path, msg.sender, block.timestamp) */\n      mload(0x40)\n      dup7\n      0xffffffff\n      and\n      0xe0\n      shl\n      dup2\n      mstore\n      0x04\n      add\n      tag_73\n      swap5\n      swap4\n      swap3\n      swap2\n      swap1\n      tag_74\n      jump\t// in\n    tag_73:\n      0x00\n      mload(0x40)\n      dup1\n      dup4\n      sub\n      dup2\n      dup6\n      dup9\n      gas\n      call\n      iszero\n      dup1\n      iszero\n      tag_76\n      jumpi\n      returndatasize\n      0x00\n      dup1\n      returndatacopy\n      revert(0x00, returndatasize)\n    tag_76:\n      pop\n      pop\n      pop\n      pop\n      pop\n      mload(0x40)\n      returndatasize\n      0x00\n      dup3\n      returndatacopy\n      returndatasize\n      not(0x1f)\n      0x1f\n      dup3\n      add\n      and\n      dup3\n      add\n      dup1\n      0x40\n      mstore\n      pop\n      dup2\n      add\n      swap1\n      tag_77\n      swap2\n      swap1\n      tag_78\n      jump\t// in\n    tag_77:\n      pop\n        /* \"Code-hardhat-ethersJs/contracts/MyTokenMarket.sol\":2717:2981  {... */\n      pop\n        /* \"Code-hardhat-ethersJs/contracts/MyTokenMarket.sol\":2657:2981  function buyExactTokenByETH(uint amountOutMin)public payable{... */\n      pop\n      jump\t// out\n        /* \"#utility.yul\":7:82   */\n    tag_79:\n        /* \"#utility.yul\":40:46   */\n      0x00\n        /* \"#utility.yul\":73:75   */\n      0x40\n        /* \"#utility.yul\":67:76   */\n      mload\n        /* \"#utility.yul\":57:76   */\n      swap1\n      pop\n        /* \"#utility.yul\":7:82   */\n      swap1\n      jump\t// out\n        /* \"#utility.yul\":88:205   */\n    tag_80:\n        /* \"#utility.yul\":197:198   */\n      0x00\n        /* \"#utility.yul\":194:195   */\n      dup1\n        /* \"#utility.yul\":187:199   */\n      revert\n        /* \"#utility.yul\":211:328   */\n    tag_81:\n        /* \"#utility.yul\":320:321   */\n      0x00\n        /* \"#utility.yul\":317:318   */\n      dup1\n        /* \"#utility.yul\":310:322   */\n      revert\n        /* \"#utility.yul\":334:411   */\n    tag_82:\n        /* \"#utility.yul\":371:378   */\n      0x00\n        /* \"#utility.yul\":400:405   */\n      dup2\n        /* \"#utility.yul\":389:405   */\n      swap1\n      pop\n        /* \"#utility.yul\":334:411   */\n      swap2\n      swap1\n      pop\n      jump\t// out\n        /* \"#utility.yul\":417:539   */\n    tag_83:\n        /* \"#utility.yul\":490:514   */\n      tag_126\n        /* \"#utility.yul\":508:513   */\n      dup2\n        /* \"#utility.yul\":490:514   */\n      tag_82\n      jump\t// in\n    tag_126:\n        /* \"#utility.yul\":483:488   */\n      dup2\n        /* \"#utility.yul\":480:515   */\n      eq\n        /* \"#utility.yul\":470:533   */\n      tag_127\n      jumpi\n        /* \"#utility.yul\":529:530   */\n      0x00\n        /* \"#utility.yul\":526:527   */\n      dup1\n        /* \"#utility.yul\":519:531   */\n      revert\n        /* \"#utility.yul\":470:533   */\n    tag_127:\n        /* \"#utility.yul\":417:539   */\n      pop\n      jump\t// out\n        /* \"#utility.yul\":545:684   */\n    tag_84:\n        /* \"#utility.yul\":591:596   */\n      0x00\n        /* \"#utility.yul\":629:635   */\n      dup2\n        /* \"#utility.yul\":616:636   */\n      calldataload\n        /* \"#utility.yul\":607:636   */\n      swap1\n      pop\n        /* \"#utility.yul\":645:678   */\n      tag_129\n        /* \"#utility.yul\":672:677   */\n      dup2\n        /* \"#utility.yul\":645:678   */\n      tag_83\n      jump\t// in\n    tag_129:\n        /* \"#utility.yul\":545:684   */\n      swap3\n      swap2\n      pop\n      pop\n      jump\t// out\n        /* \"#utility.yul\":690:816   */\n    tag_85:\n        /* \"#utility.yul\":727:734   */\n      0x00\n        /* \"#utility.yul\":767:809   */\n      0xffffffffffffffffffffffffffffffffffffffff\n        /* \"#utility.yul\":760:765   */\n      dup3\n        /* \"#utility.yul\":756:810   */\n      and\n        /* \"#utility.yul\":745:810   */\n      swap1\n      pop\n        /* \"#utility.yul\":690:816   */\n      swap2\n      swap1\n      pop\n      jump\t// out\n        /* \"#utility.yul\":822:918   */\n    tag_86:\n        /* \"#utility.yul\":859:866   */\n      0x00\n        /* \"#utility.yul\":888:912   */\n      tag_132\n        /* \"#utility.yul\":906:911   */\n      dup3\n        /* \"#utility.yul\":888:912   */\n      tag_85\n      jump\t// in\n    tag_132:\n        /* \"#utility.yul\":877:912   */\n      swap1\n      pop\n        /* \"#utility.yul\":822:918   */\n      swap2\n      swap1\n      pop\n      jump\t// out\n        /* \"#utility.yul\":924:1046   */\n    tag_87:\n        /* \"#utility.yul\":997:1021   */\n      tag_134\n        /* \"#utility.yul\":1015:1020   */\n      dup2\n        /* \"#utility.yul\":997:1021   */\n      tag_86\n      jump\t// in\n    tag_134:\n        /* \"#utility.yul\":990:995   */\n      dup2\n        /* \"#utility.yul\":987:1022   */\n      eq\n        /* \"#utility.yul\":977:1040   */\n      tag_135\n      jumpi\n        /* \"#utility.yul\":1036:1037   */\n      0x00\n        /* \"#utility.yul\":1033:1034   */\n      dup1\n        /* \"#utility.yul\":1026:1038   */\n      revert\n        /* \"#utility.yul\":977:1040   */\n    tag_135:\n        /* \"#utility.yul\":924:1046   */\n      pop\n      jump\t// out\n        /* \"#utility.yul\":1052:1191   */\n    tag_88:\n        /* \"#utility.yul\":1098:1103   */\n      0x00\n        /* \"#utility.yul\":1136:1142   */\n      dup2\n        /* \"#utility.yul\":1123:1143   */\n      calldataload\n        /* \"#utility.yul\":1114:1143   */\n      swap1\n      pop\n        /* \"#utility.yul\":1152:1185   */\n      tag_137\n        /* \"#utility.yul\":1179:1184   */\n      dup2\n        /* \"#utility.yul\":1152:1185   */\n      tag_87\n      jump\t// in\n    tag_137:\n        /* \"#utility.yul\":1052:1191   */\n      swap3\n      swap2\n      pop\n      pop\n      jump\t// out\n        /* \"#utility.yul\":1197:1671   */\n    tag_9:\n        /* \"#utility.yul\":1265:1271   */\n      0x00\n        /* \"#utility.yul\":1273:1279   */\n      dup1\n        /* \"#utility.yul\":1322:1324   */\n      0x40\n        /* \"#utility.yul\":1310:1319   */\n      dup4\n        /* \"#utility.yul\":1301:1308   */\n      dup6\n        /* \"#utility.yul\":1297:1320   */\n      sub\n        /* \"#utility.yul\":1293:1325   */\n      slt\n        /* \"#utility.yul\":1290:1409   */\n      iszero\n      tag_139\n      jumpi\n        /* \"#utility.yul\":1328:1407   */\n      tag_140\n      tag_80\n      jump\t// in\n    tag_140:\n        /* \"#utility.yul\":1290:1409   */\n    tag_139:\n        /* \"#utility.yul\":1448:1449   */\n      0x00\n        /* \"#utility.yul\":1473:1526   */\n      tag_141\n        /* \"#utility.yul\":1518:1525   */\n      dup6\n        /* \"#utility.yul\":1509:1515   */\n      dup3\n        /* \"#utility.yul\":1498:1507   */\n      dup7\n        /* \"#utility.yul\":1494:1516   */\n      add\n        /* \"#utility.yul\":1473:1526   */\n      tag_84\n      jump\t// in\n    tag_141:\n        /* \"#utility.yul\":1463:1526   */\n      swap3\n      pop\n        /* \"#utility.yul\":1419:1536   */\n      pop\n        /* \"#utility.yul\":1575:1577   */\n      0x20\n        /* \"#utility.yul\":1601:1654   */\n      tag_142\n        /* \"#utility.yul\":1646:1653   */\n      dup6\n        /* \"#utility.yul\":1637:1643   */\n      dup3\n        /* \"#utility.yul\":1626:1635   */\n      dup7\n        /* \"#utility.yul\":1622:1644   */\n      add\n        /* \"#utility.yul\":1601:1654   */\n      tag_88\n      jump\t// in\n    tag_142:\n        /* \"#utility.yul\":1591:1654   */\n      swap2\n      pop\n        /* \"#utility.yul\":1546:1664   */\n      pop\n        /* \"#utility.yul\":1197:1671   */\n      swap3\n      pop\n      swap3\n      swap1\n      pop\n      jump\t// out\n        /* \"#utility.yul\":1677:2006   */\n    tag_13:\n        /* \"#utility.yul\":1736:1742   */\n      0x00\n        /* \"#utility.yul\":1785:1787   */\n      0x20\n        /* \"#utility.yul\":1773:1782   */\n      dup3\n        /* \"#utility.yul\":1764:1771   */\n      dup5\n        /* \"#utility.yul\":1760:1783   */\n      sub\n        /* \"#utility.yul\":1756:1788   */\n      slt\n        /* \"#utility.yul\":1753:1872   */\n      iszero\n      tag_144\n      jumpi\n        /* \"#utility.yul\":1791:1870   */\n      tag_145\n      tag_80\n      jump\t// in\n    tag_145:\n        /* \"#utility.yul\":1753:1872   */\n    tag_144:\n        /* \"#utility.yul\":1911:1912   */\n      0x00\n        /* \"#utility.yul\":1936:1989   */\n      tag_146\n        /* \"#utility.yul\":1981:1988   */\n      dup5\n        /* \"#utility.yul\":1972:1978   */\n      dup3\n        /* \"#utility.yul\":1961:1970   */\n      dup6\n        /* \"#utility.yul\":1957:1979   */\n      add\n        /* \"#utility.yul\":1936:1989   */\n      tag_84\n      jump\t// in\n    tag_146:\n        /* \"#utility.yul\":1926:1989   */\n      swap2\n      pop\n        /* \"#utility.yul\":1882:1999   */\n      pop\n        /* \"#utility.yul\":1677:2006   */\n      swap3\n      swap2\n      pop\n      pop\n      jump\t// out\n        /* \"#utility.yul\":2012:2130   */\n    tag_89:\n        /* \"#utility.yul\":2099:2123   */\n      tag_148\n        /* \"#utility.yul\":2117:2122   */\n      dup2\n        /* \"#utility.yul\":2099:2123   */\n      tag_82\n      jump\t// in\n    tag_148:\n        /* \"#utility.yul\":2094:2097   */\n      dup3\n        /* \"#utility.yul\":2087:2124   */\n      mstore\n        /* \"#utility.yul\":2012:2130   */\n      pop\n      pop\n      jump\t// out\n        /* \"#utility.yul\":2136:2358   */\n    tag_16:\n        /* \"#utility.yul\":2229:2233   */\n      0x00\n        /* \"#utility.yul\":2267:2269   */\n      0x20\n        /* \"#utility.yul\":2256:2265   */\n      dup3\n        /* \"#utility.yul\":2252:2270   */\n      add\n        /* \"#utility.yul\":2244:2270   */\n      swap1\n      pop\n        /* \"#utility.yul\":2280:2351   */\n      tag_150\n        /* \"#utility.yul\":2348:2349   */\n      0x00\n        /* \"#utility.yul\":2337:2346   */\n      dup4\n        /* \"#utility.yul\":2333:2350   */\n      add\n        /* \"#utility.yul\":2324:2330   */\n      dup5\n        /* \"#utility.yul\":2280:2351   */\n      tag_89\n      jump\t// in\n    tag_150:\n        /* \"#utility.yul\":2136:2358   */\n      swap3\n      swap2\n      pop\n      pop\n      jump\t// out\n        /* \"#utility.yul\":2364:2838   */\n    tag_20:\n        /* \"#utility.yul\":2432:2438   */\n      0x00\n        /* \"#utility.yul\":2440:2446   */\n      dup1\n        /* \"#utility.yul\":2489:2491   */\n      0x40\n        /* \"#utility.yul\":2477:2486   */\n      dup4\n        /* \"#utility.yul\":2468:2475   */\n      dup6\n        /* \"#utility.yul\":2464:2487   */\n      sub\n        /* \"#utility.yul\":2460:2492   */\n      slt\n        /* \"#utility.yul\":2457:2576   */\n      iszero\n      tag_152\n      jumpi\n        /* \"#utility.yul\":2495:2574   */\n      tag_153\n      tag_80\n      jump\t// in\n    tag_153:\n        /* \"#utility.yul\":2457:2576   */\n    tag_152:\n        /* \"#utility.yul\":2615:2616   */\n      0x00\n        /* \"#utility.yul\":2640:2693   */\n      tag_154\n        /* \"#utility.yul\":2685:2692   */\n      dup6\n        /* \"#utility.yul\":2676:2682   */\n      dup3\n        /* \"#utility.yul\":2665:2674   */\n      dup7\n        /* \"#utility.yul\":2661:2683   */\n      add\n        /* \"#utility.yul\":2640:2693   */\n      tag_84\n      jump\t// in\n    tag_154:\n        /* \"#utility.yul\":2630:2693   */\n      swap3\n      pop\n        /* \"#utility.yul\":2586:2703   */\n      pop\n        /* \"#utility.yul\":2742:2744   */\n      0x20\n        /* \"#utility.yul\":2768:2821   */\n      tag_155\n        /* \"#utility.yul\":2813:2820   */\n      dup6\n        /* \"#utility.yul\":2804:2810   */\n      dup3\n        /* \"#utility.yul\":2793:2802   */\n      dup7\n        /* \"#utility.yul\":2789:2811   */\n      add\n        /* \"#utility.yul\":2768:2821   */\n      tag_84\n      jump\t// in\n    tag_155:\n        /* \"#utility.yul\":2758:2821   */\n      swap2\n      pop\n        /* \"#utility.yul\":2713:2831   */\n      pop\n        /* \"#utility.yul\":2364:2838   */\n      swap3\n      pop\n      swap3\n      swap1\n      pop\n      jump\t// out\n        /* \"#utility.yul\":2844:2962   */\n    tag_90:\n        /* \"#utility.yul\":2931:2955   */\n      tag_157\n        /* \"#utility.yul\":2949:2954   */\n      dup2\n        /* \"#utility.yul\":2931:2955   */\n      tag_86\n      jump\t// in\n    tag_157:\n        /* \"#utility.yul\":2926:2929   */\n      dup3\n        /* \"#utility.yul\":2919:2956   */\n      mstore\n        /* \"#utility.yul\":2844:2962   */\n      pop\n      pop\n      jump\t// out\n        /* \"#utility.yul\":2968:3190   */\n    tag_27:\n        /* \"#utility.yul\":3061:3065   */\n      0x00\n        /* \"#utility.yul\":3099:3101   */\n      0x20\n        /* \"#utility.yul\":3088:3097   */\n      dup3\n        /* \"#utility.yul\":3084:3102   */\n      add\n        /* \"#utility.yul\":3076:3102   */\n      swap1\n      pop\n        /* \"#utility.yul\":3112:3183   */\n      tag_159\n        /* \"#utility.yul\":3180:3181   */\n      0x00\n        /* \"#utility.yul\":3169:3178   */\n      dup4\n        /* \"#utility.yul\":3165:3182   */\n      add\n        /* \"#utility.yul\":3156:3162   */\n      dup5\n        /* \"#utility.yul\":3112:3183   */\n      tag_90\n      jump\t// in\n    tag_159:\n        /* \"#utility.yul\":2968:3190   */\n      swap3\n      swap2\n      pop\n      pop\n      jump\t// out\n        /* \"#utility.yul\":3196:3313   */\n    tag_91:\n        /* \"#utility.yul\":3305:3306   */\n      0x00\n        /* \"#utility.yul\":3302:3303   */\n      dup1\n        /* \"#utility.yul\":3295:3307   */\n      revert\n        /* \"#utility.yul\":3319:3421   */\n    tag_92:\n        /* \"#utility.yul\":3360:3366   */\n      0x00\n        /* \"#utility.yul\":3411:3413   */\n      0x1f\n        /* \"#utility.yul\":3407:3414   */\n      not\n        /* \"#utility.yul\":3402:3404   */\n      0x1f\n        /* \"#utility.yul\":3395:3400   */\n      dup4\n        /* \"#utility.yul\":3391:3405   */\n      add\n        /* \"#utility.yul\":3387:3415   */\n      and\n        /* \"#utility.yul\":3377:3415   */\n      swap1\n      pop\n        /* \"#utility.yul\":3319:3421   */\n      swap2\n      swap1\n      pop\n      jump\t// out\n        /* \"#utility.yul\":3427:3607   */\n    tag_66:\n        /* \"#utility.yul\":3475:3552   */\n      0x4e487b7100000000000000000000000000000000000000000000000000000000\n        /* \"#utility.yul\":3472:3473   */\n      0x00\n        /* \"#utility.yul\":3465:3553   */\n      mstore\n        /* \"#utility.yul\":3572:3576   */\n      0x41\n        /* \"#utility.yul\":3569:3570   */\n      0x04\n        /* \"#utility.yul\":3562:3577   */\n      mstore\n        /* \"#utility.yul\":3596:3600   */\n      0x24\n        /* \"#utility.yul\":3593:3594   */\n      0x00\n        /* \"#utility.yul\":3586:3601   */\n      revert\n        /* \"#utility.yul\":3613:3894   */\n    tag_93:\n        /* \"#utility.yul\":3696:3723   */\n      tag_164\n        /* \"#utility.yul\":3718:3722   */\n      dup3\n        /* \"#utility.yul\":3696:3723   */\n      tag_92\n      jump\t// in\n    tag_164:\n        /* \"#utility.yul\":3688:3694   */\n      dup2\n        /* \"#utility.yul\":3684:3724   */\n      add\n        /* \"#utility.yul\":3826:3832   */\n      dup2\n        /* \"#utility.yul\":3814:3824   */\n      dup2\n        /* \"#utility.yul\":3811:3833   */\n      lt\n        /* \"#utility.yul\":3790:3808   */\n      0xffffffffffffffff\n        /* \"#utility.yul\":3778:3788   */\n      dup3\n        /* \"#utility.yul\":3775:3809   */\n      gt\n        /* \"#utility.yul\":3772:3834   */\n      or\n        /* \"#utility.yul\":3769:3857   */\n      iszero\n      tag_165\n      jumpi\n        /* \"#utility.yul\":3837:3855   */\n      tag_166\n      tag_66\n      jump\t// in\n    tag_166:\n        /* \"#utility.yul\":3769:3857   */\n    tag_165:\n        /* \"#utility.yul\":3877:3887   */\n      dup1\n        /* \"#utility.yul\":3873:3875   */\n      0x40\n        /* \"#utility.yul\":3866:3888   */\n      mstore\n        /* \"#utility.yul\":3656:3894   */\n      pop\n        /* \"#utility.yul\":3613:3894   */\n      pop\n      pop\n      jump\t// out\n        /* \"#utility.yul\":3900:4029   */\n    tag_94:\n        /* \"#utility.yul\":3934:3940   */\n      0x00\n        /* \"#utility.yul\":3961:3981   */\n      tag_168\n      tag_79\n      jump\t// in\n    tag_168:\n        /* \"#utility.yul\":3951:3981   */\n      swap1\n      pop\n        /* \"#utility.yul\":3990:4023   */\n      tag_169\n        /* \"#utility.yul\":4018:4022   */\n      dup3\n        /* \"#utility.yul\":4010:4016   */\n      dup3\n        /* \"#utility.yul\":3990:4023   */\n      tag_93\n      jump\t// in\n    tag_169:\n        /* \"#utility.yul\":3900:4029   */\n      swap2\n      swap1\n      pop\n      jump\t// out\n        /* \"#utility.yul\":4158:4301   */\n    tag_96:\n        /* \"#utility.yul\":4215:4220   */\n      0x00\n        /* \"#utility.yul\":4246:4252   */\n      dup2\n        /* \"#utility.yul\":4240:4253   */\n      mload\n        /* \"#utility.yul\":4231:4253   */\n      swap1\n      pop\n        /* \"#utility.yul\":4262:4295   */\n      tag_172\n        /* \"#utility.yul\":4289:4294   */\n      dup2\n        /* \"#utility.yul\":4262:4295   */\n      tag_83\n      jump\t// in\n    tag_172:\n        /* \"#utility.yul\":4158:4301   */\n      swap3\n      swap2\n      pop\n      pop\n      jump\t// out\n        /* \"#utility.yul\":4342:4957   */\n    tag_97:\n        /* \"#utility.yul\":4427:4432   */\n      0x00\n        /* \"#utility.yul\":4471:4475   */\n      0x40\n        /* \"#utility.yul\":4459:4468   */\n      dup3\n        /* \"#utility.yul\":4454:4457   */\n      dup5\n        /* \"#utility.yul\":4450:4469   */\n      sub\n        /* \"#utility.yul\":4446:4476   */\n      slt\n        /* \"#utility.yul\":4443:4560   */\n      iszero\n      tag_174\n      jumpi\n        /* \"#utility.yul\":4479:4558   */\n      tag_175\n      tag_91\n      jump\t// in\n    tag_175:\n        /* \"#utility.yul\":4443:4560   */\n    tag_174:\n        /* \"#utility.yul\":4578:4599   */\n      tag_176\n        /* \"#utility.yul\":4594:4598   */\n      0x40\n        /* \"#utility.yul\":4578:4599   */\n      tag_94\n      jump\t// in\n    tag_176:\n        /* \"#utility.yul\":4569:4599   */\n      swap1\n      pop\n        /* \"#utility.yul\":4660:4661   */\n      0x00\n        /* \"#utility.yul\":4700:4760   */\n      tag_177\n        /* \"#utility.yul\":4756:4759   */\n      dup5\n        /* \"#utility.yul\":4747:4753   */\n      dup3\n        /* \"#utility.yul\":4736:4745   */\n      dup6\n        /* \"#utility.yul\":4732:4754   */\n      add\n        /* \"#utility.yul\":4700:4760   */\n      tag_96\n      jump\t// in\n    tag_177:\n        /* \"#utility.yul\":4693:4697   */\n      0x00\n        /* \"#utility.yul\":4686:4691   */\n      dup4\n        /* \"#utility.yul\":4682:4698   */\n      add\n        /* \"#utility.yul\":4675:4761   */\n      mstore\n        /* \"#utility.yul\":4609:4772   */\n      pop\n        /* \"#utility.yul\":4837:4839   */\n      0x20\n        /* \"#utility.yul\":4878:4938   */\n      tag_178\n        /* \"#utility.yul\":4934:4937   */\n      dup5\n        /* \"#utility.yul\":4925:4931   */\n      dup3\n        /* \"#utility.yul\":4914:4923   */\n      dup6\n        /* \"#utility.yul\":4910:4932   */\n      add\n        /* \"#utility.yul\":4878:4938   */\n      tag_96\n      jump\t// in\n    tag_178:\n        /* \"#utility.yul\":4871:4875   */\n      0x20\n        /* \"#utility.yul\":4864:4869   */\n      dup4\n        /* \"#utility.yul\":4860:4876   */\n      add\n        /* \"#utility.yul\":4853:4939   */\n      mstore\n        /* \"#utility.yul\":4782:4950   */\n      pop\n        /* \"#utility.yul\":4342:4957   */\n      swap3\n      swap2\n      pop\n      pop\n      jump\t// out\n        /* \"#utility.yul\":4963:5364   */\n    tag_31:\n        /* \"#utility.yul\":5058:5064   */\n      0x00\n        /* \"#utility.yul\":5107:5109   */\n      0x40\n        /* \"#utility.yul\":5095:5104   */\n      dup3\n        /* \"#utility.yul\":5086:5093   */\n      dup5\n        /* \"#utility.yul\":5082:5105   */\n      sub\n        /* \"#utility.yul\":5078:5110   */\n      slt\n        /* \"#utility.yul\":5075:5194   */\n      iszero\n      tag_180\n      jumpi\n        /* \"#utility.yul\":5113:5192   */\n      tag_181\n      tag_80\n      jump\t// in\n    tag_181:\n        /* \"#utility.yul\":5075:5194   */\n    tag_180:\n        /* \"#utility.yul\":5233:5234   */\n      0x00\n        /* \"#utility.yul\":5258:5347   */\n      tag_182\n        /* \"#utility.yul\":5339:5346   */\n      dup5\n        /* \"#utility.yul\":5330:5336   */\n      dup3\n        /* \"#utility.yul\":5319:5328   */\n      dup6\n        /* \"#utility.yul\":5315:5337   */\n      add\n        /* \"#utility.yul\":5258:5347   */\n      tag_97\n      jump\t// in\n    tag_182:\n        /* \"#utility.yul\":5248:5347   */\n      swap2\n      pop\n        /* \"#utility.yul\":5204:5357   */\n      pop\n        /* \"#utility.yul\":4963:5364   */\n      swap3\n      swap2\n      pop\n      pop\n      jump\t// out\n        /* \"#utility.yul\":5370:5702   */\n    tag_33:\n        /* \"#utility.yul\":5491:5495   */\n      0x00\n        /* \"#utility.yul\":5529:5531   */\n      0x40\n        /* \"#utility.yul\":5518:5527   */\n      dup3\n        /* \"#utility.yul\":5514:5532   */\n      add\n        /* \"#utility.yul\":5506:5532   */\n      swap1\n      pop\n        /* \"#utility.yul\":5542:5613   */\n      tag_184\n        /* \"#utility.yul\":5610:5611   */\n      0x00\n        /* \"#utility.yul\":5599:5608   */\n      dup4\n        /* \"#utility.yul\":5595:5612   */\n      add\n        /* \"#utility.yul\":5586:5592   */\n      dup6\n        /* \"#utility.yul\":5542:5613   */\n      tag_89\n      jump\t// in\n    tag_184:\n        /* \"#utility.yul\":5623:5695   */\n      tag_185\n        /* \"#utility.yul\":5691:5693   */\n      0x20\n        /* \"#utility.yul\":5680:5689   */\n      dup4\n        /* \"#utility.yul\":5676:5694   */\n      add\n        /* \"#utility.yul\":5667:5673   */\n      dup5\n        /* \"#utility.yul\":5623:5695   */\n      tag_89\n      jump\t// in\n    tag_185:\n        /* \"#utility.yul\":5370:5702   */\n      swap4\n      swap3\n      pop\n      pop\n      pop\n      jump\t// out\n        /* \"#utility.yul\":5708:6040   */\n    tag_39:\n        /* \"#utility.yul\":5829:5833   */\n      0x00\n        /* \"#utility.yul\":5867:5869   */\n      0x40\n        /* \"#utility.yul\":5856:5865   */\n      dup3\n        /* \"#utility.yul\":5852:5870   */\n      add\n        /* \"#utility.yul\":5844:5870   */\n      swap1\n      pop\n        /* \"#utility.yul\":5880:5951   */\n      tag_187\n        /* \"#utility.yul\":5948:5949   */\n      0x00\n        /* \"#utility.yul\":5937:5946   */\n      dup4\n        /* \"#utility.yul\":5933:5950   */\n      add\n        /* \"#utility.yul\":5924:5930   */\n      dup6\n        /* \"#utility.yul\":5880:5951   */\n      tag_90\n      jump\t// in\n    tag_187:\n        /* \"#utility.yul\":5961:6033   */\n      tag_188\n        /* \"#utility.yul\":6029:6031   */\n      0x20\n        /* \"#utility.yul\":6018:6027   */\n      dup4\n        /* \"#utility.yul\":6014:6032   */\n      add\n        /* \"#utility.yul\":6005:6011   */\n      dup5\n        /* \"#utility.yul\":5961:6033   */\n      tag_89\n      jump\t// in\n    tag_188:\n        /* \"#utility.yul\":5708:6040   */\n      swap4\n      swap3\n      pop\n      pop\n      pop\n      jump\t// out\n        /* \"#utility.yul\":6046:6136   */\n    tag_98:\n        /* \"#utility.yul\":6080:6087   */\n      0x00\n        /* \"#utility.yul\":6123:6128   */\n      dup2\n        /* \"#utility.yul\":6116:6129   */\n      iszero\n        /* \"#utility.yul\":6109:6130   */\n      iszero\n        /* \"#utility.yul\":6098:6130   */\n      swap1\n      pop\n        /* \"#utility.yul\":6046:6136   */\n      swap2\n      swap1\n      pop\n      jump\t// out\n        /* \"#utility.yul\":6142:6258   */\n    tag_99:\n        /* \"#utility.yul\":6212:6233   */\n      tag_191\n        /* \"#utility.yul\":6227:6232   */\n      dup2\n        /* \"#utility.yul\":6212:6233   */\n      tag_98\n      jump\t// in\n    tag_191:\n        /* \"#utility.yul\":6205:6210   */\n      dup2\n        /* \"#utility.yul\":6202:6234   */\n      eq\n        /* \"#utility.yul\":6192:6252   */\n      tag_192\n      jumpi\n        /* \"#utility.yul\":6248:6249   */\n      0x00\n        /* \"#utility.yul\":6245:6246   */\n      dup1\n        /* \"#utility.yul\":6238:6250   */\n      revert\n        /* \"#utility.yul\":6192:6252   */\n    tag_192:\n        /* \"#utility.yul\":6142:6258   */\n      pop\n      jump\t// out\n        /* \"#utility.yul\":6264:6401   */\n    tag_100:\n        /* \"#utility.yul\":6318:6323   */\n      0x00\n        /* \"#utility.yul\":6349:6355   */\n      dup2\n        /* \"#utility.yul\":6343:6356   */\n      mload\n        /* \"#utility.yul\":6334:6356   */\n      swap1\n      pop\n        /* \"#utility.yul\":6365:6395   */\n      tag_194\n        /* \"#utility.yul\":6389:6394   */\n      dup2\n        /* \"#utility.yul\":6365:6395   */\n      tag_99\n      jump\t// in\n    tag_194:\n        /* \"#utility.yul\":6264:6401   */\n      swap3\n      swap2\n      pop\n      pop\n      jump\t// out\n        /* \"#utility.yul\":6407:6752   */\n    tag_43:\n        /* \"#utility.yul\":6474:6480   */\n      0x00\n        /* \"#utility.yul\":6523:6525   */\n      0x20\n        /* \"#utility.yul\":6511:6520   */\n      dup3\n        /* \"#utility.yul\":6502:6509   */\n      dup5\n        /* \"#utility.yul\":6498:6521   */\n      sub\n        /* \"#utility.yul\":6494:6526   */\n      slt\n        /* \"#utility.yul\":6491:6610   */\n      iszero\n      tag_196\n      jumpi\n        /* \"#utility.yul\":6529:6608   */\n      tag_197\n      tag_80\n      jump\t// in\n    tag_197:\n        /* \"#utility.yul\":6491:6610   */\n    tag_196:\n        /* \"#utility.yul\":6649:6650   */\n      0x00\n        /* \"#utility.yul\":6674:6735   */\n      tag_198\n        /* \"#utility.yul\":6727:6734   */\n      dup5\n        /* \"#utility.yul\":6718:6724   */\n      dup3\n        /* \"#utility.yul\":6707:6716   */\n      dup6\n        /* \"#utility.yul\":6703:6725   */\n      add\n        /* \"#utility.yul\":6674:6735   */\n      tag_100\n      jump\t// in\n    tag_198:\n        /* \"#utility.yul\":6664:6735   */\n      swap2\n      pop\n        /* \"#utility.yul\":6620:6745   */\n      pop\n        /* \"#utility.yul\":6407:6752   */\n      swap3\n      swap2\n      pop\n      pop\n      jump\t// out\n        /* \"#utility.yul\":6758:7200   */\n    tag_45:\n        /* \"#utility.yul\":6907:6911   */\n      0x00\n        /* \"#utility.yul\":6945:6947   */\n      0x60\n        /* \"#utility.yul\":6934:6943   */\n      dup3\n        /* \"#utility.yul\":6930:6948   */\n      add\n        /* \"#utility.yul\":6922:6948   */\n      swap1\n      pop\n        /* \"#utility.yul\":6958:7029   */\n      tag_200\n        /* \"#utility.yul\":7026:7027   */\n      0x00\n        /* \"#utility.yul\":7015:7024   */\n      dup4\n        /* \"#utility.yul\":7011:7028   */\n      add\n        /* \"#utility.yul\":7002:7008   */\n      dup7\n        /* \"#utility.yul\":6958:7029   */\n      tag_90\n      jump\t// in\n    tag_200:\n        /* \"#utility.yul\":7039:7111   */\n      tag_201\n        /* \"#utility.yul\":7107:7109   */\n      0x20\n        /* \"#utility.yul\":7096:7105   */\n      dup4\n        /* \"#utility.yul\":7092:7110   */\n      add\n        /* \"#utility.yul\":7083:7089   */\n      dup6\n        /* \"#utility.yul\":7039:7111   */\n      tag_90\n      jump\t// in\n    tag_201:\n        /* \"#utility.yul\":7121:7193   */\n      tag_202\n        /* \"#utility.yul\":7189:7191   */\n      0x40\n        /* \"#utility.yul\":7178:7187   */\n      dup4\n        /* \"#utility.yul\":7174:7192   */\n      add\n        /* \"#utility.yul\":7165:7171   */\n      dup5\n        /* \"#utility.yul\":7121:7193   */\n      tag_89\n      jump\t// in\n    tag_202:\n        /* \"#utility.yul\":6758:7200   */\n      swap5\n      swap4\n      pop\n      pop\n      pop\n      pop\n      jump\t// out\n        /* \"#utility.yul\":7206:7375   */\n    tag_101:\n        /* \"#utility.yul\":7290:7301   */\n      0x00\n        /* \"#utility.yul\":7324:7330   */\n      dup3\n        /* \"#utility.yul\":7319:7322   */\n      dup3\n        /* \"#utility.yul\":7312:7331   */\n      mstore\n        /* \"#utility.yul\":7364:7368   */\n      0x20\n        /* \"#utility.yul\":7359:7362   */\n      dup3\n        /* \"#utility.yul\":7355:7369   */\n      add\n        /* \"#utility.yul\":7340:7369   */\n      swap1\n      pop\n        /* \"#utility.yul\":7206:7375   */\n      swap3\n      swap2\n      pop\n      pop\n      jump\t// out\n        /* \"#utility.yul\":7381:7553   */\n    tag_102:\n        /* \"#utility.yul\":7521:7545   */\n      0x6d746f6b656e207472616e73666572206572726f722100000000000000000000\n        /* \"#utility.yul\":7517:7518   */\n      0x00\n        /* \"#utility.yul\":7509:7515   */\n      dup3\n        /* \"#utility.yul\":7505:7519   */\n      add\n        /* \"#utility.yul\":7498:7546   */\n      mstore\n        /* \"#utility.yul\":7381:7553   */\n      pop\n      jump\t// out\n        /* \"#utility.yul\":7559:7925   */\n    tag_103:\n        /* \"#utility.yul\":7701:7704   */\n      0x00\n        /* \"#utility.yul\":7722:7789   */\n      tag_206\n        /* \"#utility.yul\":7786:7788   */\n      0x16\n        /* \"#utility.yul\":7781:7784   */\n      dup4\n        /* \"#utility.yul\":7722:7789   */\n      tag_101\n      jump\t// in\n    tag_206:\n        /* \"#utility.yul\":7715:7789   */\n      swap2\n      pop\n        /* \"#utility.yul\":7798:7891   */\n      tag_207\n        /* \"#utility.yul\":7887:7890   */\n      dup3\n        /* \"#utility.yul\":7798:7891   */\n      tag_102\n      jump\t// in\n    tag_207:\n        /* \"#utility.yul\":7916:7918   */\n      0x20\n        /* \"#utility.yul\":7911:7914   */\n      dup3\n        /* \"#utility.yul\":7907:7919   */\n      add\n        /* \"#utility.yul\":7900:7919   */\n      swap1\n      pop\n        /* \"#utility.yul\":7559:7925   */\n      swap2\n      swap1\n      pop\n      jump\t// out\n        /* \"#utility.yul\":7931:8350   */\n    tag_51:\n        /* \"#utility.yul\":8097:8101   */\n      0x00\n        /* \"#utility.yul\":8135:8137   */\n      0x20\n        /* \"#utility.yul\":8124:8133   */\n      dup3\n        /* \"#utility.yul\":8120:8138   */\n      add\n        /* \"#utility.yul\":8112:8138   */\n      swap1\n      pop\n        /* \"#utility.yul\":8184:8193   */\n      dup2\n        /* \"#utility.yul\":8178:8182   */\n      dup2\n        /* \"#utility.yul\":8174:8194   */\n      sub\n        /* \"#utility.yul\":8170:8171   */\n      0x00\n        /* \"#utility.yul\":8159:8168   */\n      dup4\n        /* \"#utility.yul\":8155:8172   */\n      add\n        /* \"#utility.yul\":8148:8195   */\n      mstore\n        /* \"#utility.yul\":8212:8343   */\n      tag_209\n        /* \"#utility.yul\":8338:8342   */\n      dup2\n        /* \"#utility.yul\":8212:8343   */\n      tag_103\n      jump\t// in\n    tag_209:\n        /* \"#utility.yul\":8204:8343   */\n      swap1\n      pop\n        /* \"#utility.yul\":7931:8350   */\n      swap2\n      swap1\n      pop\n      jump\t// out\n        /* \"#utility.yul\":8356:8441   */\n    tag_104:\n        /* \"#utility.yul\":8401:8408   */\n      0x00\n        /* \"#utility.yul\":8430:8435   */\n      dup2\n        /* \"#utility.yul\":8419:8435   */\n      swap1\n      pop\n        /* \"#utility.yul\":8356:8441   */\n      swap2\n      swap1\n      pop\n      jump\t// out\n        /* \"#utility.yul\":8447:8507   */\n    tag_105:\n        /* \"#utility.yul\":8475:8478   */\n      0x00\n        /* \"#utility.yul\":8496:8501   */\n      dup2\n        /* \"#utility.yul\":8489:8501   */\n      swap1\n      pop\n        /* \"#utility.yul\":8447:8507   */\n      swap2\n      swap1\n      pop\n      jump\t// out\n        /* \"#utility.yul\":8513:8671   */\n    tag_106:\n        /* \"#utility.yul\":8571:8580   */\n      0x00\n        /* \"#utility.yul\":8604:8665   */\n      tag_213\n        /* \"#utility.yul\":8622:8664   */\n      tag_214\n        /* \"#utility.yul\":8631:8663   */\n      tag_215\n        /* \"#utility.yul\":8657:8662   */\n      dup5\n        /* \"#utility.yul\":8631:8663   */\n      tag_104\n      jump\t// in\n    tag_215:\n        /* \"#utility.yul\":8622:8664   */\n      tag_105\n      jump\t// in\n    tag_214:\n        /* \"#utility.yul\":8604:8665   */\n      tag_82\n      jump\t// in\n    tag_213:\n        /* \"#utility.yul\":8591:8665   */\n      swap1\n      pop\n        /* \"#utility.yul\":8513:8671   */\n      swap2\n      swap1\n      pop\n      jump\t// out\n        /* \"#utility.yul\":8677:8824   */\n    tag_107:\n        /* \"#utility.yul\":8772:8817   */\n      tag_217\n        /* \"#utility.yul\":8811:8816   */\n      dup2\n        /* \"#utility.yul\":8772:8817   */\n      tag_106\n      jump\t// in\n    tag_217:\n        /* \"#utility.yul\":8767:8770   */\n      dup3\n        /* \"#utility.yul\":8760:8818   */\n      mstore\n        /* \"#utility.yul\":8677:8824   */\n      pop\n      pop\n      jump\t// out\n        /* \"#utility.yul\":8830:9637   */\n    tag_53:\n        /* \"#utility.yul\":9079:9083   */\n      0x00\n        /* \"#utility.yul\":9117:9120   */\n      0xc0\n        /* \"#utility.yul\":9106:9115   */\n      dup3\n        /* \"#utility.yul\":9102:9121   */\n      add\n        /* \"#utility.yul\":9094:9121   */\n      swap1\n      pop\n        /* \"#utility.yul\":9131:9202   */\n      tag_219\n        /* \"#utility.yul\":9199:9200   */\n      0x00\n        /* \"#utility.yul\":9188:9197   */\n      dup4\n        /* \"#utility.yul\":9184:9201   */\n      add\n        /* \"#utility.yul\":9175:9181   */\n      dup10\n        /* \"#utility.yul\":9131:9202   */\n      tag_90\n      jump\t// in\n    tag_219:\n        /* \"#utility.yul\":9212:9284   */\n      tag_220\n        /* \"#utility.yul\":9280:9282   */\n      0x20\n        /* \"#utility.yul\":9269:9278   */\n      dup4\n        /* \"#utility.yul\":9265:9283   */\n      add\n        /* \"#utility.yul\":9256:9262   */\n      dup9\n        /* \"#utility.yul\":9212:9284   */\n      tag_89\n      jump\t// in\n    tag_220:\n        /* \"#utility.yul\":9294:9374   */\n      tag_221\n        /* \"#utility.yul\":9370:9372   */\n      0x40\n        /* \"#utility.yul\":9359:9368   */\n      dup4\n        /* \"#utility.yul\":9355:9373   */\n      add\n        /* \"#utility.yul\":9346:9352   */\n      dup8\n        /* \"#utility.yul\":9294:9374   */\n      tag_107\n      jump\t// in\n    tag_221:\n        /* \"#utility.yul\":9384:9464   */\n      tag_222\n        /* \"#utility.yul\":9460:9462   */\n      0x60\n        /* \"#utility.yul\":9449:9458   */\n      dup4\n        /* \"#utility.yul\":9445:9463   */\n      add\n        /* \"#utility.yul\":9436:9442   */\n      dup7\n        /* \"#utility.yul\":9384:9464   */\n      tag_107\n      jump\t// in\n    tag_222:\n        /* \"#utility.yul\":9474:9547   */\n      tag_223\n        /* \"#utility.yul\":9542:9545   */\n      0x80\n        /* \"#utility.yul\":9531:9540   */\n      dup4\n        /* \"#utility.yul\":9527:9546   */\n      add\n        /* \"#utility.yul\":9518:9524   */\n      dup6\n        /* \"#utility.yul\":9474:9547   */\n      tag_90\n      jump\t// in\n    tag_223:\n        /* \"#utility.yul\":9557:9630   */\n      tag_224\n        /* \"#utility.yul\":9625:9628   */\n      0xa0\n        /* \"#utility.yul\":9614:9623   */\n      dup4\n        /* \"#utility.yul\":9610:9629   */\n      add\n        /* \"#utility.yul\":9601:9607   */\n      dup5\n        /* \"#utility.yul\":9557:9630   */\n      tag_89\n      jump\t// in\n    tag_224:\n        /* \"#utility.yul\":8830:9637   */\n      swap8\n      swap7\n      pop\n      pop\n      pop\n      pop\n      pop\n      pop\n      pop\n      jump\t// out\n        /* \"#utility.yul\":9643:10306   */\n    tag_57:\n        /* \"#utility.yul\":9731:9737   */\n      0x00\n        /* \"#utility.yul\":9739:9745   */\n      dup1\n        /* \"#utility.yul\":9747:9753   */\n      0x00\n        /* \"#utility.yul\":9796:9798   */\n      0x60\n        /* \"#utility.yul\":9784:9793   */\n      dup5\n        /* \"#utility.yul\":9775:9782   */\n      dup7\n        /* \"#utility.yul\":9771:9794   */\n      sub\n        /* \"#utility.yul\":9767:9799   */\n      slt\n        /* \"#utility.yul\":9764:9883   */\n      iszero\n      tag_226\n      jumpi\n        /* \"#utility.yul\":9802:9881   */\n      tag_227\n      tag_80\n      jump\t// in\n    tag_227:\n        /* \"#utility.yul\":9764:9883   */\n    tag_226:\n        /* \"#utility.yul\":9922:9923   */\n      0x00\n        /* \"#utility.yul\":9947:10011   */\n      tag_228\n        /* \"#utility.yul\":10003:10010   */\n      dup7\n        /* \"#utility.yul\":9994:10000   */\n      dup3\n        /* \"#utility.yul\":9983:9992   */\n      dup8\n        /* \"#utility.yul\":9979:10001   */\n      add\n        /* \"#utility.yul\":9947:10011   */\n      tag_96\n      jump\t// in\n    tag_228:\n        /* \"#utility.yul\":9937:10011   */\n      swap4\n      pop\n        /* \"#utility.yul\":9893:10021   */\n      pop\n        /* \"#utility.yul\":10060:10062   */\n      0x20\n        /* \"#utility.yul\":10086:10150   */\n      tag_229\n        /* \"#utility.yul\":10142:10149   */\n      dup7\n        /* \"#utility.yul\":10133:10139   */\n      dup3\n        /* \"#utility.yul\":10122:10131   */\n      dup8\n        /* \"#utility.yul\":10118:10140   */\n      add\n        /* \"#utility.yul\":10086:10150   */\n      tag_96\n      jump\t// in\n    tag_229:\n        /* \"#utility.yul\":10076:10150   */\n      swap3\n      pop\n        /* \"#utility.yul\":10031:10160   */\n      pop\n        /* \"#utility.yul\":10199:10201   */\n      0x40\n        /* \"#utility.yul\":10225:10289   */\n      tag_230\n        /* \"#utility.yul\":10281:10288   */\n      dup7\n        /* \"#utility.yul\":10272:10278   */\n      dup3\n        /* \"#utility.yul\":10261:10270   */\n      dup8\n        /* \"#utility.yul\":10257:10279   */\n      add\n        /* \"#utility.yul\":10225:10289   */\n      tag_96\n      jump\t// in\n    tag_230:\n        /* \"#utility.yul\":10215:10289   */\n      swap2\n      pop\n        /* \"#utility.yul\":10170:10299   */\n      pop\n        /* \"#utility.yul\":9643:10306   */\n      swap3\n      pop\n      swap3\n      pop\n      swap3\n      jump\t// out\n        /* \"#utility.yul\":10312:10492   */\n    tag_70:\n        /* \"#utility.yul\":10360:10437   */\n      0x4e487b7100000000000000000000000000000000000000000000000000000000\n        /* \"#utility.yul\":10357:10358   */\n      0x00\n        /* \"#utility.yul\":10350:10438   */\n      mstore\n        /* \"#utility.yul\":10457:10461   */\n      0x32\n        /* \"#utility.yul\":10454:10455   */\n      0x04\n        /* \"#utility.yul\":10447:10462   */\n      mstore\n        /* \"#utility.yul\":10481:10485   */\n      0x24\n        /* \"#utility.yul\":10478:10479   */\n      0x00\n        /* \"#utility.yul\":10471:10486   */\n      revert\n        /* \"#utility.yul\":10498:10612   */\n    tag_108:\n        /* \"#utility.yul\":10565:10571   */\n      0x00\n        /* \"#utility.yul\":10599:10604   */\n      dup2\n        /* \"#utility.yul\":10593:10605   */\n      mload\n        /* \"#utility.yul\":10583:10605   */\n      swap1\n      pop\n        /* \"#utility.yul\":10498:10612   */\n      swap2\n      swap1\n      pop\n      jump\t// out\n        /* \"#utility.yul\":10618:10802   */\n    tag_109:\n        /* \"#utility.yul\":10717:10728   */\n      0x00\n        /* \"#utility.yul\":10751:10757   */\n      dup3\n        /* \"#utility.yul\":10746:10749   */\n      dup3\n        /* \"#utility.yul\":10739:10758   */\n      mstore\n        /* \"#utility.yul\":10791:10795   */\n      0x20\n        /* \"#utility.yul\":10786:10789   */\n      dup3\n        /* \"#utility.yul\":10782:10796   */\n      add\n        /* \"#utility.yul\":10767:10796   */\n      swap1\n      pop\n        /* \"#utility.yul\":10618:10802   */\n      swap3\n      swap2\n      pop\n      pop\n      jump\t// out\n        /* \"#utility.yul\":10808:10940   */\n    tag_110:\n        /* \"#utility.yul\":10875:10879   */\n      0x00\n        /* \"#utility.yul\":10898:10901   */\n      dup2\n        /* \"#utility.yul\":10890:10901   */\n      swap1\n      pop\n        /* \"#utility.yul\":10928:10932   */\n      0x20\n        /* \"#utility.yul\":10923:10926   */\n      dup3\n        /* \"#utility.yul\":10919:10933   */\n      add\n        /* \"#utility.yul\":10911:10933   */\n      swap1\n      pop\n        /* \"#utility.yul\":10808:10940   */\n      swap2\n      swap1\n      pop\n      jump\t// out\n        /* \"#utility.yul\":10946:11054   */\n    tag_111:\n        /* \"#utility.yul\":11023:11047   */\n      tag_236\n        /* \"#utility.yul\":11041:11046   */\n      dup2\n        /* \"#utility.yul\":11023:11047   */\n      tag_86\n      jump\t// in\n    tag_236:\n        /* \"#utility.yul\":11018:11021   */\n      dup3\n        /* \"#utility.yul\":11011:11048   */\n      mstore\n        /* \"#utility.yul\":10946:11054   */\n      pop\n      pop\n      jump\t// out\n        /* \"#utility.yul\":11060:11239   */\n    tag_112:\n        /* \"#utility.yul\":11129:11139   */\n      0x00\n        /* \"#utility.yul\":11150:11196   */\n      tag_238\n        /* \"#utility.yul\":11192:11195   */\n      dup4\n        /* \"#utility.yul\":11184:11190   */\n      dup4\n        /* \"#utility.yul\":11150:11196   */\n      tag_111\n      jump\t// in\n    tag_238:\n        /* \"#utility.yul\":11228:11232   */\n      0x20\n        /* \"#utility.yul\":11223:11226   */\n      dup4\n        /* \"#utility.yul\":11219:11233   */\n      add\n        /* \"#utility.yul\":11205:11233   */\n      swap1\n      pop\n        /* \"#utility.yul\":11060:11239   */\n      swap3\n      swap2\n      pop\n      pop\n      jump\t// out\n        /* \"#utility.yul\":11245:11358   */\n    tag_113:\n        /* \"#utility.yul\":11315:11319   */\n      0x00\n        /* \"#utility.yul\":11347:11351   */\n      0x20\n        /* \"#utility.yul\":11342:11345   */\n      dup3\n        /* \"#utility.yul\":11338:11352   */\n      add\n        /* \"#utility.yul\":11330:11352   */\n      swap1\n      pop\n        /* \"#utility.yul\":11245:11358   */\n      swap2\n      swap1\n      pop\n      jump\t// out\n        /* \"#utility.yul\":11394:12126   */\n    tag_114:\n        /* \"#utility.yul\":11513:11516   */\n      0x00\n        /* \"#utility.yul\":11542:11596   */\n      tag_241\n        /* \"#utility.yul\":11590:11595   */\n      dup3\n        /* \"#utility.yul\":11542:11596   */\n      tag_108\n      jump\t// in\n    tag_241:\n        /* \"#utility.yul\":11612:11698   */\n      tag_242\n        /* \"#utility.yul\":11691:11697   */\n      dup2\n        /* \"#utility.yul\":11686:11689   */\n      dup6\n        /* \"#utility.yul\":11612:11698   */\n      tag_109\n      jump\t// in\n    tag_242:\n        /* \"#utility.yul\":11605:11698   */\n      swap4\n      pop\n        /* \"#utility.yul\":11722:11778   */\n      tag_243\n        /* \"#utility.yul\":11772:11777   */\n      dup4\n        /* \"#utility.yul\":11722:11778   */\n      tag_110\n      jump\t// in\n    tag_243:\n        /* \"#utility.yul\":11801:11808   */\n      dup1\n        /* \"#utility.yul\":11832:11833   */\n      0x00\n        /* \"#utility.yul\":11817:12101   */\n    tag_244:\n        /* \"#utility.yul\":11842:11848   */\n      dup4\n        /* \"#utility.yul\":11839:11840   */\n      dup2\n        /* \"#utility.yul\":11836:11849   */\n      lt\n        /* \"#utility.yul\":11817:12101   */\n      iszero\n      tag_246\n      jumpi\n        /* \"#utility.yul\":11918:11924   */\n      dup2\n        /* \"#utility.yul\":11912:11925   */\n      mload\n        /* \"#utility.yul\":11945:12008   */\n      tag_247\n        /* \"#utility.yul\":12004:12007   */\n      dup9\n        /* \"#utility.yul\":11989:12002   */\n      dup3\n        /* \"#utility.yul\":11945:12008   */\n      tag_112\n      jump\t// in\n    tag_247:\n        /* \"#utility.yul\":11938:12008   */\n      swap8\n      pop\n        /* \"#utility.yul\":12031:12091   */\n      tag_248\n        /* \"#utility.yul\":12084:12090   */\n      dup4\n        /* \"#utility.yul\":12031:12091   */\n      tag_113\n      jump\t// in\n    tag_248:\n        /* \"#utility.yul\":12021:12091   */\n      swap3\n      pop\n        /* \"#utility.yul\":11877:12101   */\n      pop\n        /* \"#utility.yul\":11864:11865   */\n      0x01\n        /* \"#utility.yul\":11861:11862   */\n      dup2\n        /* \"#utility.yul\":11857:11866   */\n      add\n        /* \"#utility.yul\":11852:11866   */\n      swap1\n      pop\n        /* \"#utility.yul\":11817:12101   */\n      jump(tag_244)\n    tag_246:\n        /* \"#utility.yul\":11821:11835   */\n      pop\n        /* \"#utility.yul\":12117:12120   */\n      dup6\n        /* \"#utility.yul\":12110:12120   */\n      swap4\n      pop\n        /* \"#utility.yul\":11518:12126   */\n      pop\n      pop\n      pop\n        /* \"#utility.yul\":11394:12126   */\n      swap3\n      swap2\n      pop\n      pop\n      jump\t// out\n        /* \"#utility.yul\":12132:12836   */\n    tag_74:\n        /* \"#utility.yul\":12359:12363   */\n      0x00\n        /* \"#utility.yul\":12397:12400   */\n      0x80\n        /* \"#utility.yul\":12386:12395   */\n      dup3\n        /* \"#utility.yul\":12382:12401   */\n      add\n        /* \"#utility.yul\":12374:12401   */\n      swap1\n      pop\n        /* \"#utility.yul\":12411:12482   */\n      tag_250\n        /* \"#utility.yul\":12479:12480   */\n      0x00\n        /* \"#utility.yul\":12468:12477   */\n      dup4\n        /* \"#utility.yul\":12464:12481   */\n      add\n        /* \"#utility.yul\":12455:12461   */\n      dup8\n        /* \"#utility.yul\":12411:12482   */\n      tag_89\n      jump\t// in\n    tag_250:\n        /* \"#utility.yul\":12529:12538   */\n      dup2\n        /* \"#utility.yul\":12523:12527   */\n      dup2\n        /* \"#utility.yul\":12519:12539   */\n      sub\n        /* \"#utility.yul\":12514:12516   */\n      0x20\n        /* \"#utility.yul\":12503:12512   */\n      dup4\n        /* \"#utility.yul\":12499:12517   */\n      add\n        /* \"#utility.yul\":12492:12540   */\n      mstore\n        /* \"#utility.yul\":12557:12665   */\n      tag_251\n        /* \"#utility.yul\":12660:12664   */\n      dup2\n        /* \"#utility.yul\":12651:12657   */\n      dup7\n        /* \"#utility.yul\":12557:12665   */\n      tag_114\n      jump\t// in\n    tag_251:\n        /* \"#utility.yul\":12549:12665   */\n      swap1\n      pop\n        /* \"#utility.yul\":12675:12747   */\n      tag_252\n        /* \"#utility.yul\":12743:12745   */\n      0x40\n        /* \"#utility.yul\":12732:12741   */\n      dup4\n        /* \"#utility.yul\":12728:12746   */\n      add\n        /* \"#utility.yul\":12719:12725   */\n      dup6\n        /* \"#utility.yul\":12675:12747   */\n      tag_90\n      jump\t// in\n    tag_252:\n        /* \"#utility.yul\":12757:12829   */\n      tag_253\n        /* \"#utility.yul\":12825:12827   */\n      0x60\n        /* \"#utility.yul\":12814:12823   */\n      dup4\n        /* \"#utility.yul\":12810:12828   */\n      add\n        /* \"#utility.yul\":12801:12807   */\n      dup5\n        /* \"#utility.yul\":12757:12829   */\n      tag_89\n      jump\t// in\n    tag_253:\n        /* \"#utility.yul\":12132:12836   */\n      swap6\n      swap5\n      pop\n      pop\n      pop\n      pop\n      pop\n      jump\t// out\n        /* \"#utility.yul\":12842:12959   */\n    tag_115:\n        /* \"#utility.yul\":12951:12952   */\n      0x00\n        /* \"#utility.yul\":12948:12949   */\n      dup1\n        /* \"#utility.yul\":12941:12953   */\n      revert\n        /* \"#utility.yul\":12965:13276   */\n    tag_116:\n        /* \"#utility.yul\":13042:13046   */\n      0x00\n        /* \"#utility.yul\":13132:13150   */\n      0xffffffffffffffff\n        /* \"#utility.yul\":13124:13130   */\n      dup3\n        /* \"#utility.yul\":13121:13151   */\n      gt\n        /* \"#utility.yul\":13118:13174   */\n      iszero\n      tag_256\n      jumpi\n        /* \"#utility.yul\":13154:13172   */\n      tag_257\n      tag_66\n      jump\t// in\n    tag_257:\n        /* \"#utility.yul\":13118:13174   */\n    tag_256:\n        /* \"#utility.yul\":13204:13208   */\n      0x20\n        /* \"#utility.yul\":13196:13202   */\n      dup3\n        /* \"#utility.yul\":13192:13209   */\n      mul\n        /* \"#utility.yul\":13184:13209   */\n      swap1\n      pop\n        /* \"#utility.yul\":13264:13268   */\n      0x20\n        /* \"#utility.yul\":13258:13262   */\n      dup2\n        /* \"#utility.yul\":13254:13269   */\n      add\n        /* \"#utility.yul\":13246:13269   */\n      swap1\n      pop\n        /* \"#utility.yul\":12965:13276   */\n      swap2\n      swap1\n      pop\n      jump\t// out\n        /* \"#utility.yul\":13282:13399   */\n    tag_117:\n        /* \"#utility.yul\":13391:13392   */\n      0x00\n        /* \"#utility.yul\":13388:13389   */\n      dup1\n        /* \"#utility.yul\":13381:13393   */\n      revert\n        /* \"#utility.yul\":13422:14154   */\n    tag_118:\n        /* \"#utility.yul\":13529:13534   */\n      0x00\n        /* \"#utility.yul\":13554:13635   */\n      tag_260\n        /* \"#utility.yul\":13570:13634   */\n      tag_261\n        /* \"#utility.yul\":13627:13633   */\n      dup5\n        /* \"#utility.yul\":13570:13634   */\n      tag_116\n      jump\t// in\n    tag_261:\n        /* \"#utility.yul\":13554:13635   */\n      tag_94\n      jump\t// in\n    tag_260:\n        /* \"#utility.yul\":13545:13635   */\n      swap1\n      pop\n        /* \"#utility.yul\":13655:13660   */\n      dup1\n        /* \"#utility.yul\":13684:13690   */\n      dup4\n        /* \"#utility.yul\":13677:13682   */\n      dup3\n        /* \"#utility.yul\":13670:13691   */\n      mstore\n        /* \"#utility.yul\":13718:13722   */\n      0x20\n        /* \"#utility.yul\":13711:13716   */\n      dup3\n        /* \"#utility.yul\":13707:13723   */\n      add\n        /* \"#utility.yul\":13700:13723   */\n      swap1\n      pop\n        /* \"#utility.yul\":13771:13775   */\n      0x20\n        /* \"#utility.yul\":13763:13769   */\n      dup5\n        /* \"#utility.yul\":13759:13776   */\n      mul\n        /* \"#utility.yul\":13751:13757   */\n      dup4\n        /* \"#utility.yul\":13747:13777   */\n      add\n        /* \"#utility.yul\":13800:13803   */\n      dup6\n        /* \"#utility.yul\":13792:13798   */\n      dup2\n        /* \"#utility.yul\":13789:13804   */\n      gt\n        /* \"#utility.yul\":13786:13908   */\n      iszero\n      tag_262\n      jumpi\n        /* \"#utility.yul\":13819:13898   */\n      tag_263\n      tag_117\n      jump\t// in\n    tag_263:\n        /* \"#utility.yul\":13786:13908   */\n    tag_262:\n        /* \"#utility.yul\":13934:13940   */\n      dup4\n        /* \"#utility.yul\":13917:14148   */\n    tag_264:\n        /* \"#utility.yul\":13951:13957   */\n      dup2\n        /* \"#utility.yul\":13946:13949   */\n      dup2\n        /* \"#utility.yul\":13943:13958   */\n      lt\n        /* \"#utility.yul\":13917:14148   */\n      iszero\n      tag_266\n      jumpi\n        /* \"#utility.yul\":14026:14029   */\n      dup1\n        /* \"#utility.yul\":14055:14103   */\n      tag_267\n        /* \"#utility.yul\":14099:14102   */\n      dup9\n        /* \"#utility.yul\":14087:14097   */\n      dup3\n        /* \"#utility.yul\":14055:14103   */\n      tag_96\n      jump\t// in\n    tag_267:\n        /* \"#utility.yul\":14050:14053   */\n      dup5\n        /* \"#utility.yul\":14043:14104   */\n      mstore\n        /* \"#utility.yul\":14133:14137   */\n      0x20\n        /* \"#utility.yul\":14128:14131   */\n      dup5\n        /* \"#utility.yul\":14124:14138   */\n      add\n        /* \"#utility.yul\":14117:14138   */\n      swap4\n      pop\n        /* \"#utility.yul\":13993:14148   */\n      pop\n        /* \"#utility.yul\":13977:13981   */\n      0x20\n        /* \"#utility.yul\":13972:13975   */\n      dup2\n        /* \"#utility.yul\":13968:13982   */\n      add\n        /* \"#utility.yul\":13961:13982   */\n      swap1\n      pop\n        /* \"#utility.yul\":13917:14148   */\n      jump(tag_264)\n    tag_266:\n        /* \"#utility.yul\":13921:13942   */\n      pop\n        /* \"#utility.yul\":13535:14154   */\n      pop\n      pop\n        /* \"#utility.yul\":13422:14154   */\n      swap4\n      swap3\n      pop\n      pop\n      pop\n      jump\t// out\n        /* \"#utility.yul\":14177:14562   */\n    tag_119:\n        /* \"#utility.yul\":14259:14264   */\n      0x00\n        /* \"#utility.yul\":14308:14311   */\n      dup3\n        /* \"#utility.yul\":14301:14305   */\n      0x1f\n        /* \"#utility.yul\":14293:14299   */\n      dup4\n        /* \"#utility.yul\":14289:14306   */\n      add\n        /* \"#utility.yul\":14285:14312   */\n      slt\n        /* \"#utility.yul\":14275:14397   */\n      tag_269\n      jumpi\n        /* \"#utility.yul\":14316:14395   */\n      tag_270\n      tag_115\n      jump\t// in\n    tag_270:\n        /* \"#utility.yul\":14275:14397   */\n    tag_269:\n        /* \"#utility.yul\":14426:14432   */\n      dup2\n        /* \"#utility.yul\":14420:14433   */\n      mload\n        /* \"#utility.yul\":14451:14556   */\n      tag_271\n        /* \"#utility.yul\":14552:14555   */\n      dup5\n        /* \"#utility.yul\":14544:14550   */\n      dup3\n        /* \"#utility.yul\":14537:14541   */\n      0x20\n        /* \"#utility.yul\":14529:14535   */\n      dup7\n        /* \"#utility.yul\":14525:14542   */\n      add\n        /* \"#utility.yul\":14451:14556   */\n      tag_118\n      jump\t// in\n    tag_271:\n        /* \"#utility.yul\":14442:14556   */\n      swap2\n      pop\n        /* \"#utility.yul\":14265:14562   */\n      pop\n        /* \"#utility.yul\":14177:14562   */\n      swap3\n      swap2\n      pop\n      pop\n      jump\t// out\n        /* \"#utility.yul\":14568:15122   */\n    tag_78:\n        /* \"#utility.yul\":14663:14669   */\n      0x00\n        /* \"#utility.yul\":14712:14714   */\n      0x20\n        /* \"#utility.yul\":14700:14709   */\n      dup3\n        /* \"#utility.yul\":14691:14698   */\n      dup5\n        /* \"#utility.yul\":14687:14710   */\n      sub\n        /* \"#utility.yul\":14683:14715   */\n      slt\n        /* \"#utility.yul\":14680:14799   */\n      iszero\n      tag_273\n      jumpi\n        /* \"#utility.yul\":14718:14797   */\n      tag_274\n      tag_80\n      jump\t// in\n    tag_274:\n        /* \"#utility.yul\":14680:14799   */\n    tag_273:\n        /* \"#utility.yul\":14859:14860   */\n      0x00\n        /* \"#utility.yul\":14848:14857   */\n      dup3\n        /* \"#utility.yul\":14844:14861   */\n      add\n        /* \"#utility.yul\":14838:14862   */\n      mload\n        /* \"#utility.yul\":14889:14907   */\n      0xffffffffffffffff\n        /* \"#utility.yul\":14881:14887   */\n      dup2\n        /* \"#utility.yul\":14878:14908   */\n      gt\n        /* \"#utility.yul\":14875:14992   */\n      iszero\n      tag_275\n      jumpi\n        /* \"#utility.yul\":14911:14990   */\n      tag_276\n      tag_81\n      jump\t// in\n    tag_276:\n        /* \"#utility.yul\":14875:14992   */\n    tag_275:\n        /* \"#utility.yul\":15016:15105   */\n      tag_277\n        /* \"#utility.yul\":15097:15104   */\n      dup5\n        /* \"#utility.yul\":15088:15094   */\n      dup3\n        /* \"#utility.yul\":15077:15086   */\n      dup6\n        /* \"#utility.yul\":15073:15095   */\n      add\n        /* \"#utility.yul\":15016:15105   */\n      tag_119\n      jump\t// in\n    tag_277:\n        /* \"#utility.yul\":15006:15105   */\n      swap2\n      pop\n        /* \"#utility.yul\":14809:15115   */\n      pop\n        /* \"#utility.yul\":14568:15122   */\n      swap3\n      swap2\n      pop\n      pop\n      jump\t// out\n\n    auxdata: 0xa26469706673582212202b94b6a78af4c6b62e1b3f40c8bb636dec43d64af8b32dcb12614e776a84f44a64736f6c634300080d0033\n}\n",
				"bytecode": {
					"linkReferences": {},
					"object": "6080604052737a250d5630b4cf539739df2c5dacb4c659f2488d6000806101000a81548173ffffffffffffffffffffffffffffffffffffffff021916908373ffffffffffffffffffffffffffffffffffffffff16021790555073c778417e063141139fce010982780140aa0cd5ab600160006101000a81548173ffffffffffffffffffffffffffffffffffffffff021916908373ffffffffffffffffffffffffffffffffffffffff16021790555073549f978c19a5ac86d906052639e317b57724ef44600260006101000a81548173ffffffffffffffffffffffffffffffffffffffff021916908373ffffffffffffffffffffffffffffffffffffffff16021790555073f42a08c0ea66ee4a474336087a6c17e9ea6c9de9600360006101000a81548173ffffffffffffffffffffffffffffffffffffffff021916908373ffffffffffffffffffffffffffffffffffffffff16021790555073d9dfa8c6b37cfdf16668fe0465896f4a1b9b2c4f600460006101000a81548173ffffffffffffffffffffffffffffffffffffffff021916908373ffffffffffffffffffffffffffffffffffffffff16021790555060008054906101000a900473ffffffffffffffffffffffffffffffffffffffff16600560006101000a81548173ffffffffffffffffffffffffffffffffffffffff021916908373ffffffffffffffffffffffffffffffffffffffff160217905550600260009054906101000a900473ffffffffffffffffffffffffffffffffffffffff16600660006101000a81548173ffffffffffffffffffffffffffffffffffffffff021916908373ffffffffffffffffffffffffffffffffffffffff160217905550600460009054906101000a900473ffffffffffffffffffffffffffffffffffffffff16600760006101000a81548173ffffffffffffffffffffffffffffffffffffffff021916908373ffffffffffffffffffffffffffffffffffffffff1602179055503480156102df57600080fd5b50610ec6806102ef6000396000f3fe60806040526004361061003e5760003560e01c8062f714ce1461004357806351c6590a1461006c578063881e7a971461009c578063a93f74e0146100c5575b600080fd5b34801561004f57600080fd5b5061006a600480360381019061006591906107b9565b6100e1565b005b610086600480360381019061008191906107f9565b610218565b6040516100939190610835565b60405180910390f35b3480156100a857600080fd5b506100c360048036038101906100be9190610850565b61049f565b005b6100df60048036038101906100da91906107f9565b610532565b005b6000600760009054906101000a900473ffffffffffffffffffffffffffffffffffffffff1673ffffffffffffffffffffffffffffffffffffffff16631959a002836040518263ffffffff1660e01b815260040161013e919061089f565b6040805180830381865afa15801561015a573d6000803e3d6000fd5b505050506040513d601f19601f8201168201806040525081019061017e91906109b0565b9050600760009054906101000a900473ffffffffffffffffffffffffffffffffffffffff1673ffffffffffffffffffffffffffffffffffffffff1663441a3e708483600001516040518363ffffffff1660e01b81526004016101e19291906109dd565b600060405180830381600087803b1580156101fb57600080fd5b505af115801561020f573d6000803e3d6000fd5b50505050505050565b6000600660009054906101000a900473ffffffffffffffffffffffffffffffffffffffff1673ffffffffffffffffffffffffffffffffffffffff1663095ea7b3600560009054906101000a900473ffffffffffffffffffffffffffffffffffffffff16846040518363ffffffff1660e01b8152600401610299929190610a06565b6020604051808303816000875af11580156102b8573d6000803e3d6000fd5b505050506040513d601f19601f820116820180604052508101906102dc9190610a67565b506000600660009054906101000a900473ffffffffffffffffffffffffffffffffffffffff1673ffffffffffffffffffffffffffffffffffffffff166323b872dd3330866040518463ffffffff1660e01b815260040161033e93929190610a94565b6020604051808303816000875af115801561035d573d6000803e3d6000fd5b505050506040513d601f19601f820116820180604052508101906103819190610a67565b9050806103c3576040517f08c379a00000000000000000000000000000000000000000000000000000000081526004016103ba90610b28565b60405180910390fd5b6000600560009054906101000a900473ffffffffffffffffffffffffffffffffffffffff1673ffffffffffffffffffffffffffffffffffffffff1663f305d71934600260009054906101000a900473ffffffffffffffffffffffffffffffffffffffff168760008033426040518863ffffffff1660e01b815260040161044e96959493929190610b8d565b60606040518083038185885af115801561046c573d6000803e3d6000fd5b50505050506040513d601f19601f820116820180604052508101906104919190610bee565b505090508092505050919050565b600760009054906101000a900473ffffffffffffffffffffffffffffffffffffffff1673ffffffffffffffffffffffffffffffffffffffff1663e2bbb15883836040518363ffffffff1660e01b81526004016104fc9291906109dd565b600060405180830381600087803b15801561051657600080fd5b505af115801561052a573d6000803e3d6000fd5b505050505050565b6000600267ffffffffffffffff81111561054f5761054e6108d0565b5b60405190808252806020026020018201604052801561057d5781602001602082028036833780820191505090505b509050600160009054906101000a900473ffffffffffffffffffffffffffffffffffffffff16816000815181106105b7576105b6610c41565b5b602002602001019073ffffffffffffffffffffffffffffffffffffffff16908173ffffffffffffffffffffffffffffffffffffffff1681525050600260009054906101000a900473ffffffffffffffffffffffffffffffffffffffff168160018151811061062857610627610c41565b5b602002602001019073ffffffffffffffffffffffffffffffffffffffff16908173ffffffffffffffffffffffffffffffffffffffff1681525050600560009054906101000a900473ffffffffffffffffffffffffffffffffffffffff1673ffffffffffffffffffffffffffffffffffffffff16637ff36ab534848433426040518663ffffffff1660e01b81526004016106c49493929190610d2e565b60006040518083038185885af11580156106e2573d6000803e3d6000fd5b50505050506040513d6000823e3d601f19601f8201168201806040525081019061070c9190610e47565b505050565b6000604051905090565b600080fd5b600080fd5b6000819050919050565b61073881610725565b811461074357600080fd5b50565b6000813590506107558161072f565b92915050565b600073ffffffffffffffffffffffffffffffffffffffff82169050919050565b60006107868261075b565b9050919050565b6107968161077b565b81146107a157600080fd5b50565b6000813590506107b38161078d565b92915050565b600080604083850312156107d0576107cf61071b565b5b60006107de85828601610746565b92505060206107ef858286016107a4565b9150509250929050565b60006020828403121561080f5761080e61071b565b5b600061081d84828501610746565b91505092915050565b61082f81610725565b82525050565b600060208201905061084a6000830184610826565b92915050565b600080604083850312156108675761086661071b565b5b600061087585828601610746565b925050602061088685828601610746565b9150509250929050565b6108998161077b565b82525050565b60006020820190506108b46000830184610890565b92915050565b600080fd5b6000601f19601f8301169050919050565b7f4e487b7100000000000000000000000000000000000000000000000000000000600052604160045260246000fd5b610908826108bf565b810181811067ffffffffffffffff82111715610927576109266108d0565b5b80604052505050565b600061093a610711565b905061094682826108ff565b919050565b60008151905061095a8161072f565b92915050565b600060408284031215610976576109756108ba565b5b6109806040610930565b905060006109908482850161094b565b60008301525060206109a48482850161094b565b60208301525092915050565b6000604082840312156109c6576109c561071b565b5b60006109d484828501610960565b91505092915050565b60006040820190506109f26000830185610826565b6109ff6020830184610826565b9392505050565b6000604082019050610a1b6000830185610890565b610a286020830184610826565b9392505050565b60008115159050919050565b610a4481610a2f565b8114610a4f57600080fd5b50565b600081519050610a6181610a3b565b92915050565b600060208284031215610a7d57610a7c61071b565b5b6000610a8b84828501610a52565b91505092915050565b6000606082019050610aa96000830186610890565b610ab66020830185610890565b610ac36040830184610826565b949350505050565b600082825260208201905092915050565b7f6d746f6b656e207472616e73666572206572726f722100000000000000000000600082015250565b6000610b12601683610acb565b9150610b1d82610adc565b602082019050919050565b60006020820190508181036000830152610b4181610b05565b9050919050565b6000819050919050565b6000819050919050565b6000610b77610b72610b6d84610b48565b610b52565b610725565b9050919050565b610b8781610b5c565b82525050565b600060c082019050610ba26000830189610890565b610baf6020830188610826565b610bbc6040830187610b7e565b610bc96060830186610b7e565b610bd66080830185610890565b610be360a0830184610826565b979650505050505050565b600080600060608486031215610c0757610c0661071b565b5b6000610c158682870161094b565b9350506020610c268682870161094b565b9250506040610c378682870161094b565b9150509250925092565b7f4e487b7100000000000000000000000000000000000000000000000000000000600052603260045260246000fd5b600081519050919050565b600082825260208201905092915050565b6000819050602082019050919050565b610ca58161077b565b82525050565b6000610cb78383610c9c565b60208301905092915050565b6000602082019050919050565b6000610cdb82610c70565b610ce58185610c7b565b9350610cf083610c8c565b8060005b83811015610d21578151610d088882610cab565b9750610d1383610cc3565b925050600181019050610cf4565b5085935050505092915050565b6000608082019050610d436000830187610826565b8181036020830152610d558186610cd0565b9050610d646040830185610890565b610d716060830184610826565b95945050505050565b600080fd5b600067ffffffffffffffff821115610d9a57610d996108d0565b5b602082029050602081019050919050565b600080fd5b6000610dc3610dbe84610d7f565b610930565b90508083825260208201905060208402830185811115610de657610de5610dab565b5b835b81811015610e0f5780610dfb888261094b565b845260208401935050602081019050610de8565b5050509392505050565b600082601f830112610e2e57610e2d610d7a565b5b8151610e3e848260208601610db0565b91505092915050565b600060208284031215610e5d57610e5c61071b565b5b600082015167ffffffffffffffff811115610e7b57610e7a610720565b5b610e8784828501610e19565b9150509291505056fea26469706673582212202b94b6a78af4c6b62e1b3f40c8bb636dec43d64af8b32dcb12614e776a84f44a64736f6c634300080d0033",
					"opcodes": "PUSH1 0x80 PUSH1 0x40 MSTORE PUSH20 0x7A250D5630B4CF539739DF2C5DACB4C659F2488D PUSH1 0x0 DUP1 PUSH2 0x100 EXP DUP2 SLOAD DUP2 PUSH20 0xFFFFFFFFFFFFFFFFFFFFFFFFFFFFFFFFFFFFFFFF MUL NOT AND SWAP1 DUP4 PUSH20 0xFFFFFFFFFFFFFFFFFFFFFFFFFFFFFFFFFFFFFFFF AND MUL OR SWAP1 SSTORE POP PUSH20 0xC778417E063141139FCE010982780140AA0CD5AB PUSH1 0x1 PUSH1 0x0 PUSH2 0x100 EXP DUP2 SLOAD DUP2 PUSH20 0xFFFFFFFFFFFFFFFFFFFFFFFFFFFFFFFFFFFFFFFF MUL NOT AND SWAP1 DUP4 PUSH20 0xFFFFFFFFFFFFFFFFFFFFFFFFFFFFFFFFFFFFFFFF AND MUL OR SWAP1 SSTORE POP PUSH20 0x549F978C19A5AC86D906052639E317B57724EF44 PUSH1 0x2 PUSH1 0x0 PUSH2 0x100 EXP DUP2 SLOAD DUP2 PUSH20 0xFFFFFFFFFFFFFFFFFFFFFFFFFFFFFFFFFFFFFFFF MUL NOT AND SWAP1 DUP4 PUSH20 0xFFFFFFFFFFFFFFFFFFFFFFFFFFFFFFFFFFFFFFFF AND MUL OR SWAP1 SSTORE POP PUSH20 0xF42A08C0EA66EE4A474336087A6C17E9EA6C9DE9 PUSH1 0x3 PUSH1 0x0 PUSH2 0x100 EXP DUP2 SLOAD DUP2 PUSH20 0xFFFFFFFFFFFFFFFFFFFFFFFFFFFFFFFFFFFFFFFF MUL NOT AND SWAP1 DUP4 PUSH20 0xFFFFFFFFFFFFFFFFFFFFFFFFFFFFFFFFFFFFFFFF AND MUL OR SWAP1 SSTORE POP PUSH20 0xD9DFA8C6B37CFDF16668FE0465896F4A1B9B2C4F PUSH1 0x4 PUSH1 0x0 PUSH2 0x100 EXP DUP2 SLOAD DUP2 PUSH20 0xFFFFFFFFFFFFFFFFFFFFFFFFFFFFFFFFFFFFFFFF MUL NOT AND SWAP1 DUP4 PUSH20 0xFFFFFFFFFFFFFFFFFFFFFFFFFFFFFFFFFFFFFFFF AND MUL OR SWAP1 SSTORE POP PUSH1 0x0 DUP1 SLOAD SWAP1 PUSH2 0x100 EXP SWAP1 DIV PUSH20 0xFFFFFFFFFFFFFFFFFFFFFFFFFFFFFFFFFFFFFFFF AND PUSH1 0x5 PUSH1 0x0 PUSH2 0x100 EXP DUP2 SLOAD DUP2 PUSH20 0xFFFFFFFFFFFFFFFFFFFFFFFFFFFFFFFFFFFFFFFF MUL NOT AND SWAP1 DUP4 PUSH20 0xFFFFFFFFFFFFFFFFFFFFFFFFFFFFFFFFFFFFFFFF AND MUL OR SWAP1 SSTORE POP PUSH1 0x2 PUSH1 0x0 SWAP1 SLOAD SWAP1 PUSH2 0x100 EXP SWAP1 DIV PUSH20 0xFFFFFFFFFFFFFFFFFFFFFFFFFFFFFFFFFFFFFFFF AND PUSH1 0x6 PUSH1 0x0 PUSH2 0x100 EXP DUP2 SLOAD DUP2 PUSH20 0xFFFFFFFFFFFFFFFFFFFFFFFFFFFFFFFFFFFFFFFF MUL NOT AND SWAP1 DUP4 PUSH20 0xFFFFFFFFFFFFFFFFFFFFFFFFFFFFFFFFFFFFFFFF AND MUL OR SWAP1 SSTORE POP PUSH1 0x4 PUSH1 0x0 SWAP1 SLOAD SWAP1 PUSH2 0x100 EXP SWAP1 DIV PUSH20 0xFFFFFFFFFFFFFFFFFFFFFFFFFFFFFFFFFFFFFFFF AND PUSH1 0x7 PUSH1 0x0 PUSH2 0x100 EXP DUP2 SLOAD DUP2 PUSH20 0xFFFFFFFFFFFFFFFFFFFFFFFFFFFFFFFFFFFFFFFF MUL NOT AND SWAP1 DUP4 PUSH20 0xFFFFFFFFFFFFFFFFFFFFFFFFFFFFFFFFFFFFFFFF AND MUL OR SWAP1 SSTORE POP CALLVALUE DUP1 ISZERO PUSH2 0x2DF JUMPI PUSH1 0x0 DUP1 REVERT JUMPDEST POP PUSH2 0xEC6 DUP1 PUSH2 0x2EF PUSH1 0x0 CODECOPY PUSH1 0x0 RETURN INVALID PUSH1 0x80 PUSH1 0x40 MSTORE PUSH1 0x4 CALLDATASIZE LT PUSH2 0x3E JUMPI PUSH1 0x0 CALLDATALOAD PUSH1 0xE0 SHR DUP1 PUSH3 0xF714CE EQ PUSH2 0x43 JUMPI DUP1 PUSH4 0x51C6590A EQ PUSH2 0x6C JUMPI DUP1 PUSH4 0x881E7A97 EQ PUSH2 0x9C JUMPI DUP1 PUSH4 0xA93F74E0 EQ PUSH2 0xC5 JUMPI JUMPDEST PUSH1 0x0 DUP1 REVERT JUMPDEST CALLVALUE DUP1 ISZERO PUSH2 0x4F JUMPI PUSH1 0x0 DUP1 REVERT JUMPDEST POP PUSH2 0x6A PUSH1 0x4 DUP1 CALLDATASIZE SUB DUP2 ADD SWAP1 PUSH2 0x65 SWAP2 SWAP1 PUSH2 0x7B9 JUMP JUMPDEST PUSH2 0xE1 JUMP JUMPDEST STOP JUMPDEST PUSH2 0x86 PUSH1 0x4 DUP1 CALLDATASIZE SUB DUP2 ADD SWAP1 PUSH2 0x81 SWAP2 SWAP1 PUSH2 0x7F9 JUMP JUMPDEST PUSH2 0x218 JUMP JUMPDEST PUSH1 0x40 MLOAD PUSH2 0x93 SWAP2 SWAP1 PUSH2 0x835 JUMP JUMPDEST PUSH1 0x40 MLOAD DUP1 SWAP2 SUB SWAP1 RETURN JUMPDEST CALLVALUE DUP1 ISZERO PUSH2 0xA8 JUMPI PUSH1 0x0 DUP1 REVERT JUMPDEST POP PUSH2 0xC3 PUSH1 0x4 DUP1 CALLDATASIZE SUB DUP2 ADD SWAP1 PUSH2 0xBE SWAP2 SWAP1 PUSH2 0x850 JUMP JUMPDEST PUSH2 0x49F JUMP JUMPDEST STOP JUMPDEST PUSH2 0xDF PUSH1 0x4 DUP1 CALLDATASIZE SUB DUP2 ADD SWAP1 PUSH2 0xDA SWAP2 SWAP1 PUSH2 0x7F9 JUMP JUMPDEST PUSH2 0x532 JUMP JUMPDEST STOP JUMPDEST PUSH1 0x0 PUSH1 0x7 PUSH1 0x0 SWAP1 SLOAD SWAP1 PUSH2 0x100 EXP SWAP1 DIV PUSH20 0xFFFFFFFFFFFFFFFFFFFFFFFFFFFFFFFFFFFFFFFF AND PUSH20 0xFFFFFFFFFFFFFFFFFFFFFFFFFFFFFFFFFFFFFFFF AND PUSH4 0x1959A002 DUP4 PUSH1 0x40 MLOAD DUP3 PUSH4 0xFFFFFFFF AND PUSH1 0xE0 SHL DUP2 MSTORE PUSH1 0x4 ADD PUSH2 0x13E SWAP2 SWAP1 PUSH2 0x89F JUMP JUMPDEST PUSH1 0x40 DUP1 MLOAD DUP1 DUP4 SUB DUP2 DUP7 GAS STATICCALL ISZERO DUP1 ISZERO PUSH2 0x15A JUMPI RETURNDATASIZE PUSH1 0x0 DUP1 RETURNDATACOPY RETURNDATASIZE PUSH1 0x0 REVERT JUMPDEST POP POP POP POP PUSH1 0x40 MLOAD RETURNDATASIZE PUSH1 0x1F NOT PUSH1 0x1F DUP3 ADD AND DUP3 ADD DUP1 PUSH1 0x40 MSTORE POP DUP2 ADD SWAP1 PUSH2 0x17E SWAP2 SWAP1 PUSH2 0x9B0 JUMP JUMPDEST SWAP1 POP PUSH1 0x7 PUSH1 0x0 SWAP1 SLOAD SWAP1 PUSH2 0x100 EXP SWAP1 DIV PUSH20 0xFFFFFFFFFFFFFFFFFFFFFFFFFFFFFFFFFFFFFFFF AND PUSH20 0xFFFFFFFFFFFFFFFFFFFFFFFFFFFFFFFFFFFFFFFF AND PUSH4 0x441A3E70 DUP5 DUP4 PUSH1 0x0 ADD MLOAD PUSH1 0x40 MLOAD DUP4 PUSH4 0xFFFFFFFF AND PUSH1 0xE0 SHL DUP2 MSTORE PUSH1 0x4 ADD PUSH2 0x1E1 SWAP3 SWAP2 SWAP1 PUSH2 0x9DD JUMP JUMPDEST PUSH1 0x0 PUSH1 0x40 MLOAD DUP1 DUP4 SUB DUP2 PUSH1 0x0 DUP8 DUP1 EXTCODESIZE ISZERO DUP1 ISZERO PUSH2 0x1FB JUMPI PUSH1 0x0 DUP1 REVERT JUMPDEST POP GAS CALL ISZERO DUP1 ISZERO PUSH2 0x20F JUMPI RETURNDATASIZE PUSH1 0x0 DUP1 RETURNDATACOPY RETURNDATASIZE PUSH1 0x0 REVERT JUMPDEST POP POP POP POP POP POP POP JUMP JUMPDEST PUSH1 0x0 PUSH1 0x6 PUSH1 0x0 SWAP1 SLOAD SWAP1 PUSH2 0x100 EXP SWAP1 DIV PUSH20 0xFFFFFFFFFFFFFFFFFFFFFFFFFFFFFFFFFFFFFFFF AND PUSH20 0xFFFFFFFFFFFFFFFFFFFFFFFFFFFFFFFFFFFFFFFF AND PUSH4 0x95EA7B3 PUSH1 0x5 PUSH1 0x0 SWAP1 SLOAD SWAP1 PUSH2 0x100 EXP SWAP1 DIV PUSH20 0xFFFFFFFFFFFFFFFFFFFFFFFFFFFFFFFFFFFFFFFF AND DUP5 PUSH1 0x40 MLOAD DUP4 PUSH4 0xFFFFFFFF AND PUSH1 0xE0 SHL DUP2 MSTORE PUSH1 0x4 ADD PUSH2 0x299 SWAP3 SWAP2 SWAP1 PUSH2 0xA06 JUMP JUMPDEST PUSH1 0x20 PUSH1 0x40 MLOAD DUP1 DUP4 SUB DUP2 PUSH1 0x0 DUP8 GAS CALL ISZERO DUP1 ISZERO PUSH2 0x2B8 JUMPI RETURNDATASIZE PUSH1 0x0 DUP1 RETURNDATACOPY RETURNDATASIZE PUSH1 0x0 REVERT JUMPDEST POP POP POP POP PUSH1 0x40 MLOAD RETURNDATASIZE PUSH1 0x1F NOT PUSH1 0x1F DUP3 ADD AND DUP3 ADD DUP1 PUSH1 0x40 MSTORE POP DUP2 ADD SWAP1 PUSH2 0x2DC SWAP2 SWAP1 PUSH2 0xA67 JUMP JUMPDEST POP PUSH1 0x0 PUSH1 0x6 PUSH1 0x0 SWAP1 SLOAD SWAP1 PUSH2 0x100 EXP SWAP1 DIV PUSH20 0xFFFFFFFFFFFFFFFFFFFFFFFFFFFFFFFFFFFFFFFF AND PUSH20 0xFFFFFFFFFFFFFFFFFFFFFFFFFFFFFFFFFFFFFFFF AND PUSH4 0x23B872DD CALLER ADDRESS DUP7 PUSH1 0x40 MLOAD DUP5 PUSH4 0xFFFFFFFF AND PUSH1 0xE0 SHL DUP2 MSTORE PUSH1 0x4 ADD PUSH2 0x33E SWAP4 SWAP3 SWAP2 SWAP1 PUSH2 0xA94 JUMP JUMPDEST PUSH1 0x20 PUSH1 0x40 MLOAD DUP1 DUP4 SUB DUP2 PUSH1 0x0 DUP8 GAS CALL ISZERO DUP1 ISZERO PUSH2 0x35D JUMPI RETURNDATASIZE PUSH1 0x0 DUP1 RETURNDATACOPY RETURNDATASIZE PUSH1 0x0 REVERT JUMPDEST POP POP POP POP PUSH1 0x40 MLOAD RETURNDATASIZE PUSH1 0x1F NOT PUSH1 0x1F DUP3 ADD AND DUP3 ADD DUP1 PUSH1 0x40 MSTORE POP DUP2 ADD SWAP1 PUSH2 0x381 SWAP2 SWAP1 PUSH2 0xA67 JUMP JUMPDEST SWAP1 POP DUP1 PUSH2 0x3C3 JUMPI PUSH1 0x40 MLOAD PUSH32 0x8C379A000000000000000000000000000000000000000000000000000000000 DUP2 MSTORE PUSH1 0x4 ADD PUSH2 0x3BA SWAP1 PUSH2 0xB28 JUMP JUMPDEST PUSH1 0x40 MLOAD DUP1 SWAP2 SUB SWAP1 REVERT JUMPDEST PUSH1 0x0 PUSH1 0x5 PUSH1 0x0 SWAP1 SLOAD SWAP1 PUSH2 0x100 EXP SWAP1 DIV PUSH20 0xFFFFFFFFFFFFFFFFFFFFFFFFFFFFFFFFFFFFFFFF AND PUSH20 0xFFFFFFFFFFFFFFFFFFFFFFFFFFFFFFFFFFFFFFFF AND PUSH4 0xF305D719 CALLVALUE PUSH1 0x2 PUSH1 0x0 SWAP1 SLOAD SWAP1 PUSH2 0x100 EXP SWAP1 DIV PUSH20 0xFFFFFFFFFFFFFFFFFFFFFFFFFFFFFFFFFFFFFFFF AND DUP8 PUSH1 0x0 DUP1 CALLER TIMESTAMP PUSH1 0x40 MLOAD DUP9 PUSH4 0xFFFFFFFF AND PUSH1 0xE0 SHL DUP2 MSTORE PUSH1 0x4 ADD PUSH2 0x44E SWAP7 SWAP6 SWAP5 SWAP4 SWAP3 SWAP2 SWAP1 PUSH2 0xB8D JUMP JUMPDEST PUSH1 0x60 PUSH1 0x40 MLOAD DUP1 DUP4 SUB DUP2 DUP6 DUP9 GAS CALL ISZERO DUP1 ISZERO PUSH2 0x46C JUMPI RETURNDATASIZE PUSH1 0x0 DUP1 RETURNDATACOPY RETURNDATASIZE PUSH1 0x0 REVERT JUMPDEST POP POP POP POP POP PUSH1 0x40 MLOAD RETURNDATASIZE PUSH1 0x1F NOT PUSH1 0x1F DUP3 ADD AND DUP3 ADD DUP1 PUSH1 0x40 MSTORE POP DUP2 ADD SWAP1 PUSH2 0x491 SWAP2 SWAP1 PUSH2 0xBEE JUMP JUMPDEST POP POP SWAP1 POP DUP1 SWAP3 POP POP POP SWAP2 SWAP1 POP JUMP JUMPDEST PUSH1 0x7 PUSH1 0x0 SWAP1 SLOAD SWAP1 PUSH2 0x100 EXP SWAP1 DIV PUSH20 0xFFFFFFFFFFFFFFFFFFFFFFFFFFFFFFFFFFFFFFFF AND PUSH20 0xFFFFFFFFFFFFFFFFFFFFFFFFFFFFFFFFFFFFFFFF AND PUSH4 0xE2BBB158 DUP4 DUP4 PUSH1 0x40 MLOAD DUP4 PUSH4 0xFFFFFFFF AND PUSH1 0xE0 SHL DUP2 MSTORE PUSH1 0x4 ADD PUSH2 0x4FC SWAP3 SWAP2 SWAP1 PUSH2 0x9DD JUMP JUMPDEST PUSH1 0x0 PUSH1 0x40 MLOAD DUP1 DUP4 SUB DUP2 PUSH1 0x0 DUP8 DUP1 EXTCODESIZE ISZERO DUP1 ISZERO PUSH2 0x516 JUMPI PUSH1 0x0 DUP1 REVERT JUMPDEST POP GAS CALL ISZERO DUP1 ISZERO PUSH2 0x52A JUMPI RETURNDATASIZE PUSH1 0x0 DUP1 RETURNDATACOPY RETURNDATASIZE PUSH1 0x0 REVERT JUMPDEST POP POP POP POP POP POP JUMP JUMPDEST PUSH1 0x0 PUSH1 0x2 PUSH8 0xFFFFFFFFFFFFFFFF DUP2 GT ISZERO PUSH2 0x54F JUMPI PUSH2 0x54E PUSH2 0x8D0 JUMP JUMPDEST JUMPDEST PUSH1 0x40 MLOAD SWAP1 DUP1 DUP3 MSTORE DUP1 PUSH1 0x20 MUL PUSH1 0x20 ADD DUP3 ADD PUSH1 0x40 MSTORE DUP1 ISZERO PUSH2 0x57D JUMPI DUP2 PUSH1 0x20 ADD PUSH1 0x20 DUP3 MUL DUP1 CALLDATASIZE DUP4 CALLDATACOPY DUP1 DUP3 ADD SWAP2 POP POP SWAP1 POP JUMPDEST POP SWAP1 POP PUSH1 0x1 PUSH1 0x0 SWAP1 SLOAD SWAP1 PUSH2 0x100 EXP SWAP1 DIV PUSH20 0xFFFFFFFFFFFFFFFFFFFFFFFFFFFFFFFFFFFFFFFF AND DUP2 PUSH1 0x0 DUP2 MLOAD DUP2 LT PUSH2 0x5B7 JUMPI PUSH2 0x5B6 PUSH2 0xC41 JUMP JUMPDEST JUMPDEST PUSH1 0x20 MUL PUSH1 0x20 ADD ADD SWAP1 PUSH20 0xFFFFFFFFFFFFFFFFFFFFFFFFFFFFFFFFFFFFFFFF AND SWAP1 DUP2 PUSH20 0xFFFFFFFFFFFFFFFFFFFFFFFFFFFFFFFFFFFFFFFF AND DUP2 MSTORE POP POP PUSH1 0x2 PUSH1 0x0 SWAP1 SLOAD SWAP1 PUSH2 0x100 EXP SWAP1 DIV PUSH20 0xFFFFFFFFFFFFFFFFFFFFFFFFFFFFFFFFFFFFFFFF AND DUP2 PUSH1 0x1 DUP2 MLOAD DUP2 LT PUSH2 0x628 JUMPI PUSH2 0x627 PUSH2 0xC41 JUMP JUMPDEST JUMPDEST PUSH1 0x20 MUL PUSH1 0x20 ADD ADD SWAP1 PUSH20 0xFFFFFFFFFFFFFFFFFFFFFFFFFFFFFFFFFFFFFFFF AND SWAP1 DUP2 PUSH20 0xFFFFFFFFFFFFFFFFFFFFFFFFFFFFFFFFFFFFFFFF AND DUP2 MSTORE POP POP PUSH1 0x5 PUSH1 0x0 SWAP1 SLOAD SWAP1 PUSH2 0x100 EXP SWAP1 DIV PUSH20 0xFFFFFFFFFFFFFFFFFFFFFFFFFFFFFFFFFFFFFFFF AND PUSH20 0xFFFFFFFFFFFFFFFFFFFFFFFFFFFFFFFFFFFFFFFF AND PUSH4 0x7FF36AB5 CALLVALUE DUP5 DUP5 CALLER TIMESTAMP PUSH1 0x40 MLOAD DUP7 PUSH4 0xFFFFFFFF AND PUSH1 0xE0 SHL DUP2 MSTORE PUSH1 0x4 ADD PUSH2 0x6C4 SWAP5 SWAP4 SWAP3 SWAP2 SWAP1 PUSH2 0xD2E JUMP JUMPDEST PUSH1 0x0 PUSH1 0x40 MLOAD DUP1 DUP4 SUB DUP2 DUP6 DUP9 GAS CALL ISZERO DUP1 ISZERO PUSH2 0x6E2 JUMPI RETURNDATASIZE PUSH1 0x0 DUP1 RETURNDATACOPY RETURNDATASIZE PUSH1 0x0 REVERT JUMPDEST POP POP POP POP POP PUSH1 0x40 MLOAD RETURNDATASIZE PUSH1 0x0 DUP3 RETURNDATACOPY RETURNDATASIZE PUSH1 0x1F NOT PUSH1 0x1F DUP3 ADD AND DUP3 ADD DUP1 PUSH1 0x40 MSTORE POP DUP2 ADD SWAP1 PUSH2 0x70C SWAP2 SWAP1 PUSH2 0xE47 JUMP JUMPDEST POP POP POP JUMP JUMPDEST PUSH1 0x0 PUSH1 0x40 MLOAD SWAP1 POP SWAP1 JUMP JUMPDEST PUSH1 0x0 DUP1 REVERT JUMPDEST PUSH1 0x0 DUP1 REVERT JUMPDEST PUSH1 0x0 DUP2 SWAP1 POP SWAP2 SWAP1 POP JUMP JUMPDEST PUSH2 0x738 DUP2 PUSH2 0x725 JUMP JUMPDEST DUP2 EQ PUSH2 0x743 JUMPI PUSH1 0x0 DUP1 REVERT JUMPDEST POP JUMP JUMPDEST PUSH1 0x0 DUP2 CALLDATALOAD SWAP1 POP PUSH2 0x755 DUP2 PUSH2 0x72F JUMP JUMPDEST SWAP3 SWAP2 POP POP JUMP JUMPDEST PUSH1 0x0 PUSH20 0xFFFFFFFFFFFFFFFFFFFFFFFFFFFFFFFFFFFFFFFF DUP3 AND SWAP1 POP SWAP2 SWAP1 POP JUMP JUMPDEST PUSH1 0x0 PUSH2 0x786 DUP3 PUSH2 0x75B JUMP JUMPDEST SWAP1 POP SWAP2 SWAP1 POP JUMP JUMPDEST PUSH2 0x796 DUP2 PUSH2 0x77B JUMP JUMPDEST DUP2 EQ PUSH2 0x7A1 JUMPI PUSH1 0x0 DUP1 REVERT JUMPDEST POP JUMP JUMPDEST PUSH1 0x0 DUP2 CALLDATALOAD SWAP1 POP PUSH2 0x7B3 DUP2 PUSH2 0x78D JUMP JUMPDEST SWAP3 SWAP2 POP POP JUMP JUMPDEST PUSH1 0x0 DUP1 PUSH1 0x40 DUP4 DUP6 SUB SLT ISZERO PUSH2 0x7D0 JUMPI PUSH2 0x7CF PUSH2 0x71B JUMP JUMPDEST JUMPDEST PUSH1 0x0 PUSH2 0x7DE DUP6 DUP3 DUP7 ADD PUSH2 0x746 JUMP JUMPDEST SWAP3 POP POP PUSH1 0x20 PUSH2 0x7EF DUP6 DUP3 DUP7 ADD PUSH2 0x7A4 JUMP JUMPDEST SWAP2 POP POP SWAP3 POP SWAP3 SWAP1 POP JUMP JUMPDEST PUSH1 0x0 PUSH1 0x20 DUP3 DUP5 SUB SLT ISZERO PUSH2 0x80F JUMPI PUSH2 0x80E PUSH2 0x71B JUMP JUMPDEST JUMPDEST PUSH1 0x0 PUSH2 0x81D DUP5 DUP3 DUP6 ADD PUSH2 0x746 JUMP JUMPDEST SWAP2 POP POP SWAP3 SWAP2 POP POP JUMP JUMPDEST PUSH2 0x82F DUP2 PUSH2 0x725 JUMP JUMPDEST DUP3 MSTORE POP POP JUMP JUMPDEST PUSH1 0x0 PUSH1 0x20 DUP3 ADD SWAP1 POP PUSH2 0x84A PUSH1 0x0 DUP4 ADD DUP5 PUSH2 0x826 JUMP JUMPDEST SWAP3 SWAP2 POP POP JUMP JUMPDEST PUSH1 0x0 DUP1 PUSH1 0x40 DUP4 DUP6 SUB SLT ISZERO PUSH2 0x867 JUMPI PUSH2 0x866 PUSH2 0x71B JUMP JUMPDEST JUMPDEST PUSH1 0x0 PUSH2 0x875 DUP6 DUP3 DUP7 ADD PUSH2 0x746 JUMP JUMPDEST SWAP3 POP POP PUSH1 0x20 PUSH2 0x886 DUP6 DUP3 DUP7 ADD PUSH2 0x746 JUMP JUMPDEST SWAP2 POP POP SWAP3 POP SWAP3 SWAP1 POP JUMP JUMPDEST PUSH2 0x899 DUP2 PUSH2 0x77B JUMP JUMPDEST DUP3 MSTORE POP POP JUMP JUMPDEST PUSH1 0x0 PUSH1 0x20 DUP3 ADD SWAP1 POP PUSH2 0x8B4 PUSH1 0x0 DUP4 ADD DUP5 PUSH2 0x890 JUMP JUMPDEST SWAP3 SWAP2 POP POP JUMP JUMPDEST PUSH1 0x0 DUP1 REVERT JUMPDEST PUSH1 0x0 PUSH1 0x1F NOT PUSH1 0x1F DUP4 ADD AND SWAP1 POP SWAP2 SWAP1 POP JUMP JUMPDEST PUSH32 0x4E487B7100000000000000000000000000000000000000000000000000000000 PUSH1 0x0 MSTORE PUSH1 0x41 PUSH1 0x4 MSTORE PUSH1 0x24 PUSH1 0x0 REVERT JUMPDEST PUSH2 0x908 DUP3 PUSH2 0x8BF JUMP JUMPDEST DUP2 ADD DUP2 DUP2 LT PUSH8 0xFFFFFFFFFFFFFFFF DUP3 GT OR ISZERO PUSH2 0x927 JUMPI PUSH2 0x926 PUSH2 0x8D0 JUMP JUMPDEST JUMPDEST DUP1 PUSH1 0x40 MSTORE POP POP POP JUMP JUMPDEST PUSH1 0x0 PUSH2 0x93A PUSH2 0x711 JUMP JUMPDEST SWAP1 POP PUSH2 0x946 DUP3 DUP3 PUSH2 0x8FF JUMP JUMPDEST SWAP2 SWAP1 POP JUMP JUMPDEST PUSH1 0x0 DUP2 MLOAD SWAP1 POP PUSH2 0x95A DUP2 PUSH2 0x72F JUMP JUMPDEST SWAP3 SWAP2 POP POP JUMP JUMPDEST PUSH1 0x0 PUSH1 0x40 DUP3 DUP5 SUB SLT ISZERO PUSH2 0x976 JUMPI PUSH2 0x975 PUSH2 0x8BA JUMP JUMPDEST JUMPDEST PUSH2 0x980 PUSH1 0x40 PUSH2 0x930 JUMP JUMPDEST SWAP1 POP PUSH1 0x0 PUSH2 0x990 DUP5 DUP3 DUP6 ADD PUSH2 0x94B JUMP JUMPDEST PUSH1 0x0 DUP4 ADD MSTORE POP PUSH1 0x20 PUSH2 0x9A4 DUP5 DUP3 DUP6 ADD PUSH2 0x94B JUMP JUMPDEST PUSH1 0x20 DUP4 ADD MSTORE POP SWAP3 SWAP2 POP POP JUMP JUMPDEST PUSH1 0x0 PUSH1 0x40 DUP3 DUP5 SUB SLT ISZERO PUSH2 0x9C6 JUMPI PUSH2 0x9C5 PUSH2 0x71B JUMP JUMPDEST JUMPDEST PUSH1 0x0 PUSH2 0x9D4 DUP5 DUP3 DUP6 ADD PUSH2 0x960 JUMP JUMPDEST SWAP2 POP POP SWAP3 SWAP2 POP POP JUMP JUMPDEST PUSH1 0x0 PUSH1 0x40 DUP3 ADD SWAP1 POP PUSH2 0x9F2 PUSH1 0x0 DUP4 ADD DUP6 PUSH2 0x826 JUMP JUMPDEST PUSH2 0x9FF PUSH1 0x20 DUP4 ADD DUP5 PUSH2 0x826 JUMP JUMPDEST SWAP4 SWAP3 POP POP POP JUMP JUMPDEST PUSH1 0x0 PUSH1 0x40 DUP3 ADD SWAP1 POP PUSH2 0xA1B PUSH1 0x0 DUP4 ADD DUP6 PUSH2 0x890 JUMP JUMPDEST PUSH2 0xA28 PUSH1 0x20 DUP4 ADD DUP5 PUSH2 0x826 JUMP JUMPDEST SWAP4 SWAP3 POP POP POP JUMP JUMPDEST PUSH1 0x0 DUP2 ISZERO ISZERO SWAP1 POP SWAP2 SWAP1 POP JUMP JUMPDEST PUSH2 0xA44 DUP2 PUSH2 0xA2F JUMP JUMPDEST DUP2 EQ PUSH2 0xA4F JUMPI PUSH1 0x0 DUP1 REVERT JUMPDEST POP JUMP JUMPDEST PUSH1 0x0 DUP2 MLOAD SWAP1 POP PUSH2 0xA61 DUP2 PUSH2 0xA3B JUMP JUMPDEST SWAP3 SWAP2 POP POP JUMP JUMPDEST PUSH1 0x0 PUSH1 0x20 DUP3 DUP5 SUB SLT ISZERO PUSH2 0xA7D JUMPI PUSH2 0xA7C PUSH2 0x71B JUMP JUMPDEST JUMPDEST PUSH1 0x0 PUSH2 0xA8B DUP5 DUP3 DUP6 ADD PUSH2 0xA52 JUMP JUMPDEST SWAP2 POP POP SWAP3 SWAP2 POP POP JUMP JUMPDEST PUSH1 0x0 PUSH1 0x60 DUP3 ADD SWAP1 POP PUSH2 0xAA9 PUSH1 0x0 DUP4 ADD DUP7 PUSH2 0x890 JUMP JUMPDEST PUSH2 0xAB6 PUSH1 0x20 DUP4 ADD DUP6 PUSH2 0x890 JUMP JUMPDEST PUSH2 0xAC3 PUSH1 0x40 DUP4 ADD DUP5 PUSH2 0x826 JUMP JUMPDEST SWAP5 SWAP4 POP POP POP POP JUMP JUMPDEST PUSH1 0x0 DUP3 DUP3 MSTORE PUSH1 0x20 DUP3 ADD SWAP1 POP SWAP3 SWAP2 POP POP JUMP JUMPDEST PUSH32 0x6D746F6B656E207472616E73666572206572726F722100000000000000000000 PUSH1 0x0 DUP3 ADD MSTORE POP JUMP JUMPDEST PUSH1 0x0 PUSH2 0xB12 PUSH1 0x16 DUP4 PUSH2 0xACB JUMP JUMPDEST SWAP2 POP PUSH2 0xB1D DUP3 PUSH2 0xADC JUMP JUMPDEST PUSH1 0x20 DUP3 ADD SWAP1 POP SWAP2 SWAP1 POP JUMP JUMPDEST PUSH1 0x0 PUSH1 0x20 DUP3 ADD SWAP1 POP DUP2 DUP2 SUB PUSH1 0x0 DUP4 ADD MSTORE PUSH2 0xB41 DUP2 PUSH2 0xB05 JUMP JUMPDEST SWAP1 POP SWAP2 SWAP1 POP JUMP JUMPDEST PUSH1 0x0 DUP2 SWAP1 POP SWAP2 SWAP1 POP JUMP JUMPDEST PUSH1 0x0 DUP2 SWAP1 POP SWAP2 SWAP1 POP JUMP JUMPDEST PUSH1 0x0 PUSH2 0xB77 PUSH2 0xB72 PUSH2 0xB6D DUP5 PUSH2 0xB48 JUMP JUMPDEST PUSH2 0xB52 JUMP JUMPDEST PUSH2 0x725 JUMP JUMPDEST SWAP1 POP SWAP2 SWAP1 POP JUMP JUMPDEST PUSH2 0xB87 DUP2 PUSH2 0xB5C JUMP JUMPDEST DUP3 MSTORE POP POP JUMP JUMPDEST PUSH1 0x0 PUSH1 0xC0 DUP3 ADD SWAP1 POP PUSH2 0xBA2 PUSH1 0x0 DUP4 ADD DUP10 PUSH2 0x890 JUMP JUMPDEST PUSH2 0xBAF PUSH1 0x20 DUP4 ADD DUP9 PUSH2 0x826 JUMP JUMPDEST PUSH2 0xBBC PUSH1 0x40 DUP4 ADD DUP8 PUSH2 0xB7E JUMP JUMPDEST PUSH2 0xBC9 PUSH1 0x60 DUP4 ADD DUP7 PUSH2 0xB7E JUMP JUMPDEST PUSH2 0xBD6 PUSH1 0x80 DUP4 ADD DUP6 PUSH2 0x890 JUMP JUMPDEST PUSH2 0xBE3 PUSH1 0xA0 DUP4 ADD DUP5 PUSH2 0x826 JUMP JUMPDEST SWAP8 SWAP7 POP POP POP POP POP POP POP JUMP JUMPDEST PUSH1 0x0 DUP1 PUSH1 0x0 PUSH1 0x60 DUP5 DUP7 SUB SLT ISZERO PUSH2 0xC07 JUMPI PUSH2 0xC06 PUSH2 0x71B JUMP JUMPDEST JUMPDEST PUSH1 0x0 PUSH2 0xC15 DUP7 DUP3 DUP8 ADD PUSH2 0x94B JUMP JUMPDEST SWAP4 POP POP PUSH1 0x20 PUSH2 0xC26 DUP7 DUP3 DUP8 ADD PUSH2 0x94B JUMP JUMPDEST SWAP3 POP POP PUSH1 0x40 PUSH2 0xC37 DUP7 DUP3 DUP8 ADD PUSH2 0x94B JUMP JUMPDEST SWAP2 POP POP SWAP3 POP SWAP3 POP SWAP3 JUMP JUMPDEST PUSH32 0x4E487B7100000000000000000000000000000000000000000000000000000000 PUSH1 0x0 MSTORE PUSH1 0x32 PUSH1 0x4 MSTORE PUSH1 0x24 PUSH1 0x0 REVERT JUMPDEST PUSH1 0x0 DUP2 MLOAD SWAP1 POP SWAP2 SWAP1 POP JUMP JUMPDEST PUSH1 0x0 DUP3 DUP3 MSTORE PUSH1 0x20 DUP3 ADD SWAP1 POP SWAP3 SWAP2 POP POP JUMP JUMPDEST PUSH1 0x0 DUP2 SWAP1 POP PUSH1 0x20 DUP3 ADD SWAP1 POP SWAP2 SWAP1 POP JUMP JUMPDEST PUSH2 0xCA5 DUP2 PUSH2 0x77B JUMP JUMPDEST DUP3 MSTORE POP POP JUMP JUMPDEST PUSH1 0x0 PUSH2 0xCB7 DUP4 DUP4 PUSH2 0xC9C JUMP JUMPDEST PUSH1 0x20 DUP4 ADD SWAP1 POP SWAP3 SWAP2 POP POP JUMP JUMPDEST PUSH1 0x0 PUSH1 0x20 DUP3 ADD SWAP1 POP SWAP2 SWAP1 POP JUMP JUMPDEST PUSH1 0x0 PUSH2 0xCDB DUP3 PUSH2 0xC70 JUMP JUMPDEST PUSH2 0xCE5 DUP2 DUP6 PUSH2 0xC7B JUMP JUMPDEST SWAP4 POP PUSH2 0xCF0 DUP4 PUSH2 0xC8C JUMP JUMPDEST DUP1 PUSH1 0x0 JUMPDEST DUP4 DUP2 LT ISZERO PUSH2 0xD21 JUMPI DUP2 MLOAD PUSH2 0xD08 DUP9 DUP3 PUSH2 0xCAB JUMP JUMPDEST SWAP8 POP PUSH2 0xD13 DUP4 PUSH2 0xCC3 JUMP JUMPDEST SWAP3 POP POP PUSH1 0x1 DUP2 ADD SWAP1 POP PUSH2 0xCF4 JUMP JUMPDEST POP DUP6 SWAP4 POP POP POP POP SWAP3 SWAP2 POP POP JUMP JUMPDEST PUSH1 0x0 PUSH1 0x80 DUP3 ADD SWAP1 POP PUSH2 0xD43 PUSH1 0x0 DUP4 ADD DUP8 PUSH2 0x826 JUMP JUMPDEST DUP2 DUP2 SUB PUSH1 0x20 DUP4 ADD MSTORE PUSH2 0xD55 DUP2 DUP7 PUSH2 0xCD0 JUMP JUMPDEST SWAP1 POP PUSH2 0xD64 PUSH1 0x40 DUP4 ADD DUP6 PUSH2 0x890 JUMP JUMPDEST PUSH2 0xD71 PUSH1 0x60 DUP4 ADD DUP5 PUSH2 0x826 JUMP JUMPDEST SWAP6 SWAP5 POP POP POP POP POP JUMP JUMPDEST PUSH1 0x0 DUP1 REVERT JUMPDEST PUSH1 0x0 PUSH8 0xFFFFFFFFFFFFFFFF DUP3 GT ISZERO PUSH2 0xD9A JUMPI PUSH2 0xD99 PUSH2 0x8D0 JUMP JUMPDEST JUMPDEST PUSH1 0x20 DUP3 MUL SWAP1 POP PUSH1 0x20 DUP2 ADD SWAP1 POP SWAP2 SWAP1 POP JUMP JUMPDEST PUSH1 0x0 DUP1 REVERT JUMPDEST PUSH1 0x0 PUSH2 0xDC3 PUSH2 0xDBE DUP5 PUSH2 0xD7F JUMP JUMPDEST PUSH2 0x930 JUMP JUMPDEST SWAP1 POP DUP1 DUP4 DUP3 MSTORE PUSH1 0x20 DUP3 ADD SWAP1 POP PUSH1 0x20 DUP5 MUL DUP4 ADD DUP6 DUP2 GT ISZERO PUSH2 0xDE6 JUMPI PUSH2 0xDE5 PUSH2 0xDAB JUMP JUMPDEST JUMPDEST DUP4 JUMPDEST DUP2 DUP2 LT ISZERO PUSH2 0xE0F JUMPI DUP1 PUSH2 0xDFB DUP9 DUP3 PUSH2 0x94B JUMP JUMPDEST DUP5 MSTORE PUSH1 0x20 DUP5 ADD SWAP4 POP POP PUSH1 0x20 DUP2 ADD SWAP1 POP PUSH2 0xDE8 JUMP JUMPDEST POP POP POP SWAP4 SWAP3 POP POP POP JUMP JUMPDEST PUSH1 0x0 DUP3 PUSH1 0x1F DUP4 ADD SLT PUSH2 0xE2E JUMPI PUSH2 0xE2D PUSH2 0xD7A JUMP JUMPDEST JUMPDEST DUP2 MLOAD PUSH2 0xE3E DUP5 DUP3 PUSH1 0x20 DUP7 ADD PUSH2 0xDB0 JUMP JUMPDEST SWAP2 POP POP SWAP3 SWAP2 POP POP JUMP JUMPDEST PUSH1 0x0 PUSH1 0x20 DUP3 DUP5 SUB SLT ISZERO PUSH2 0xE5D JUMPI PUSH2 0xE5C PUSH2 0x71B JUMP JUMPDEST JUMPDEST PUSH1 0x0 DUP3 ADD MLOAD PUSH8 0xFFFFFFFFFFFFFFFF DUP2 GT ISZERO PUSH2 0xE7B JUMPI PUSH2 0xE7A PUSH2 0x720 JUMP JUMPDEST JUMPDEST PUSH2 0xE87 DUP5 DUP3 DUP6 ADD PUSH2 0xE19 JUMP JUMPDEST SWAP2 POP POP SWAP3 SWAP2 POP POP JUMP INVALID LOG2 PUSH5 0x6970667358 0x22 SLT KECCAK256 0x2B SWAP5 0xB6 0xA7 DUP11 DELEGATECALL 0xC6 0xB6 0x2E SHL EXTCODEHASH BLOCKHASH 0xC8 0xBB PUSH4 0x6DEC43D6 0x4A 0xF8 0xB3 0x2D 0xCB SLT PUSH2 0x4E77 PUSH11 0x84F44A64736F6C63430008 0xD STOP CALLER "
				},
				"gasEstimates": {
					"creation": {
						"codeDepositCost": "756400",
						"executionCost": "201333",
						"totalCost": "957733"
					},
					"external": {
						"addLiquidity(uint256)": "infinite",
						"buyExactTokenByETH(uint256)": "infinite",
						"depositToMasterChef(uint256,uint256)": "infinite",
						"withdraw(uint256,address)": "infinite"
					}
				},
				"methodIdentifiers": {
					"addLiquidity(uint256)": "51c6590a",
					"buyExactTokenByETH(uint256)": "a93f74e0",
					"depositToMasterChef(uint256,uint256)": "881e7a97",
					"withdraw(uint256,address)": "00f714ce"
				}
			},
			"userdoc": {
				"kind": "user",
				"methods": {},
				"version": 1
			}
		}
	}
}