{
	"Code-hardhat-ethersJs/contracts/MyTokenMarket.sol": {
		"MyTokenMarket": {
			"abi": [
				{
					"inputs": [],
					"stateMutability": "nonpayable",
					"type": "constructor"
				},
				{
					"inputs": [
						{
							"internalType": "uint256",
							"name": "amountMyTokenDesired",
							"type": "uint256"
						},
						{
							"internalType": "uint256",
							"name": "amountMyTokenMin",
							"type": "uint256"
						},
						{
							"internalType": "uint256",
							"name": "amountETHMin",
							"type": "uint256"
						},
						{
							"internalType": "uint256",
							"name": "pid",
							"type": "uint256"
						}
					],
					"name": "addLiquidity",
					"outputs": [],
					"stateMutability": "payable",
					"type": "function"
				},
				{
					"inputs": [
						{
							"internalType": "uint256",
							"name": "amountOutMin",
							"type": "uint256"
						}
					],
					"name": "buyExactTokenByETH",
					"outputs": [],
					"stateMutability": "payable",
					"type": "function"
				},
				{
					"inputs": [
						{
							"internalType": "uint256",
							"name": "pid",
							"type": "uint256"
						},
						{
							"internalType": "uint256",
							"name": "amount",
							"type": "uint256"
						}
					],
					"name": "depositToMasterChef",
					"outputs": [],
					"stateMutability": "nonpayable",
					"type": "function"
				},
				{
					"inputs": [
						{
							"internalType": "uint256",
							"name": "pid",
							"type": "uint256"
						}
					],
					"name": "withdraw",
					"outputs": [],
					"stateMutability": "nonpayable",
					"type": "function"
				}
			],
			"devdoc": {
				"kind": "dev",
				"methods": {},
				"version": 1
			},
			"evm": {
				"assembly": "    /* \"Code-hardhat-ethersJs/contracts/MyTokenMarket.sol\":264:2532  contract MyTokenMarket{... */\n  mstore(0x40, 0x80)\n    /* \"Code-hardhat-ethersJs/contracts/MyTokenMarket.sol\":537:579  0x7a250d5630B4cF539739dF2C5dAcb4c659F2488D */\n  0x7a250d5630b4cf539739df2c5dacb4c659f2488d\n    /* \"Code-hardhat-ethersJs/contracts/MyTokenMarket.sol\":516:579  address uv2address = 0x7a250d5630B4cF539739dF2C5dAcb4c659F2488D */\n  0x00\n  dup1\n  0x0100\n  exp\n  dup2\n  sload\n  dup2\n  0xffffffffffffffffffffffffffffffffffffffff\n  mul\n  not\n  and\n  swap1\n  dup4\n  0xffffffffffffffffffffffffffffffffffffffff\n  and\n  mul\n  or\n  swap1\n  sstore\n  pop\n    /* \"Code-hardhat-ethersJs/contracts/MyTokenMarket.sol\":607:649  0xc778417E063141139Fce010982780140Aa0cD5Ab */\n  0xc778417e063141139fce010982780140aa0cd5ab\n    /* \"Code-hardhat-ethersJs/contracts/MyTokenMarket.sol\":585:649  address wethaddress = 0xc778417E063141139Fce010982780140Aa0cD5Ab */\n  0x01\n  exp(0x0100, 0x00)\n  dup2\n  sload\n  dup2\n  0xffffffffffffffffffffffffffffffffffffffff\n  mul\n  not\n  and\n  swap1\n  dup4\n  0xffffffffffffffffffffffffffffffffffffffff\n  and\n  mul\n  or\n  swap1\n  sstore\n  pop\n    /* \"Code-hardhat-ethersJs/contracts/MyTokenMarket.sol\":680:722  0x549F978C19a5AC86D906052639E317B57724ef44 */\n  0x549f978c19a5ac86d906052639e317b57724ef44\n    /* \"Code-hardhat-ethersJs/contracts/MyTokenMarket.sol\":655:722  address mytokenaddress = 0x549F978C19a5AC86D906052639E317B57724ef44 */\n  0x02\n  exp(0x0100, 0x00)\n  dup2\n  sload\n  dup2\n  0xffffffffffffffffffffffffffffffffffffffff\n  mul\n  not\n  and\n  swap1\n  dup4\n  0xffffffffffffffffffffffffffffffffffffffff\n  and\n  mul\n  or\n  swap1\n  sstore\n  pop\n    /* \"Code-hardhat-ethersJs/contracts/MyTokenMarket.sol\":751:793  0xf42A08C0EA66ee4A474336087A6C17E9EA6c9dE9 */\n  0xf42a08c0ea66ee4a474336087a6c17e9ea6c9de9\n    /* \"Code-hardhat-ethersJs/contracts/MyTokenMarket.sol\":728:793  address sushiaddress = 0xf42A08C0EA66ee4A474336087A6C17E9EA6c9dE9 */\n  0x03\n  exp(0x0100, 0x00)\n  dup2\n  sload\n  dup2\n  0xffffffffffffffffffffffffffffffffffffffff\n  mul\n  not\n  and\n  swap1\n  dup4\n  0xffffffffffffffffffffffffffffffffffffffff\n  and\n  mul\n  or\n  swap1\n  sstore\n  pop\n    /* \"Code-hardhat-ethersJs/contracts/MyTokenMarket.sol\":827:869  0xd9DFA8c6b37cfDF16668fE0465896f4A1B9b2c4F */\n  0xd9dfa8c6b37cfdf16668fe0465896f4a1b9b2c4f\n    /* \"Code-hardhat-ethersJs/contracts/MyTokenMarket.sol\":799:869  address masterchefaddress = 0xd9DFA8c6b37cfDF16668fE0465896f4A1B9b2c4F */\n  0x04\n  exp(0x0100, 0x00)\n  dup2\n  sload\n  dup2\n  0xffffffffffffffffffffffffffffffffffffffff\n  mul\n  not\n  and\n  swap1\n  dup4\n  0xffffffffffffffffffffffffffffffffffffffff\n  and\n  mul\n  or\n  swap1\n  sstore\n  pop\n    /* \"Code-hardhat-ethersJs/contracts/MyTokenMarket.sol\":925:935  uv2address */\n  0x00\n  dup1\n  sload\n  swap1\n  0x0100\n  exp\n  swap1\n  div\n  0xffffffffffffffffffffffffffffffffffffffff\n  and\n    /* \"Code-hardhat-ethersJs/contracts/MyTokenMarket.sol\":875:936  IUniswapV2Router02 uv2router = IUniswapV2Router02(uv2address) */\n  0x05\n  exp(0x0100, 0x00)\n  dup2\n  sload\n  dup2\n  0xffffffffffffffffffffffffffffffffffffffff\n  mul\n  not\n  and\n  swap1\n  dup4\n  0xffffffffffffffffffffffffffffffffffffffff\n  and\n  mul\n  or\n  swap1\n  sstore\n  pop\n    /* \"Code-hardhat-ethersJs/contracts/MyTokenMarket.sol\":965:979  mytokenaddress */\n  0x02\n  0x00\n  swap1\n  sload\n  swap1\n  0x0100\n  exp\n  swap1\n  div\n  0xffffffffffffffffffffffffffffffffffffffff\n  and\n    /* \"Code-hardhat-ethersJs/contracts/MyTokenMarket.sol\":942:980  IERC20 mtoken = IERC20(mytokenaddress) */\n  0x06\n  exp(0x0100, 0x00)\n  dup2\n  sload\n  dup2\n  0xffffffffffffffffffffffffffffffffffffffff\n  mul\n  not\n  and\n  swap1\n  dup4\n  0xffffffffffffffffffffffffffffffffffffffff\n  and\n  mul\n  or\n  swap1\n  sstore\n  pop\n    /* \"Code-hardhat-ethersJs/contracts/MyTokenMarket.sol\":1023:1040  masterchefaddress */\n  0x04\n  0x00\n  swap1\n  sload\n  swap1\n  0x0100\n  exp\n  swap1\n  div\n  0xffffffffffffffffffffffffffffffffffffffff\n  and\n    /* \"Code-hardhat-ethersJs/contracts/MyTokenMarket.sol\":986:1041  IMasterChef masterChef = IMasterChef(masterchefaddress) */\n  0x07\n  exp(0x0100, 0x00)\n  dup2\n  sload\n  dup2\n  0xffffffffffffffffffffffffffffffffffffffff\n  mul\n  not\n  and\n  swap1\n  dup4\n  0xffffffffffffffffffffffffffffffffffffffff\n  and\n  mul\n  or\n  swap1\n  sstore\n  pop\n    /* \"Code-hardhat-ethersJs/contracts/MyTokenMarket.sol\":1047:1067  constructor(){... */\n  callvalue\n  dup1\n  iszero\n  tag_1\n  jumpi\n  0x00\n  dup1\n  revert\ntag_1:\n  pop\n    /* \"Code-hardhat-ethersJs/contracts/MyTokenMarket.sol\":264:2532  contract MyTokenMarket{... */\n  dataSize(sub_0)\n  dup1\n  dataOffset(sub_0)\n  0x00\n  codecopy\n  0x00\n  return\nstop\n\nsub_0: assembly {\n        /* \"Code-hardhat-ethersJs/contracts/MyTokenMarket.sol\":264:2532  contract MyTokenMarket{... */\n      mstore(0x40, 0x80)\n      jumpi(tag_1, lt(calldatasize, 0x04))\n      shr(0xe0, calldataload(0x00))\n      dup1\n      0x2e1a7d4d\n      eq\n      tag_2\n      jumpi\n      dup1\n      0x881e7a97\n      eq\n      tag_3\n      jumpi\n      dup1\n      0xa93f74e0\n      eq\n      tag_4\n      jumpi\n      dup1\n      0xaebf3e41\n      eq\n      tag_5\n      jumpi\n    tag_1:\n      0x00\n      dup1\n      revert\n        /* \"Code-hardhat-ethersJs/contracts/MyTokenMarket.sol\":2355:2528  function withdraw(uint256 pid)public{... */\n    tag_2:\n      callvalue\n      dup1\n      iszero\n      tag_6\n      jumpi\n      0x00\n      dup1\n      revert\n    tag_6:\n      pop\n      tag_7\n      0x04\n      dup1\n      calldatasize\n      sub\n      dup2\n      add\n      swap1\n      tag_8\n      swap2\n      swap1\n      tag_9\n      jump\t// in\n    tag_8:\n      tag_10\n      jump\t// in\n    tag_7:\n      stop\n        /* \"Code-hardhat-ethersJs/contracts/MyTokenMarket.sol\":1907:1987  function depositToMasterChef(uint256 pid, uint256 amount)public{... */\n    tag_3:\n      callvalue\n      dup1\n      iszero\n      tag_11\n      jumpi\n      0x00\n      dup1\n      revert\n    tag_11:\n      pop\n      tag_12\n      0x04\n      dup1\n      calldatasize\n      sub\n      dup2\n      add\n      swap1\n      tag_13\n      swap2\n      swap1\n      tag_14\n      jump\t// in\n    tag_13:\n      tag_15\n      jump\t// in\n    tag_12:\n      stop\n        /* \"Code-hardhat-ethersJs/contracts/MyTokenMarket.sol\":1994:2318  function buyExactTokenByETH(uint amountOutMin)public payable{... */\n    tag_4:\n      tag_16\n      0x04\n      dup1\n      calldatasize\n      sub\n      dup2\n      add\n      swap1\n      tag_17\n      swap2\n      swap1\n      tag_9\n      jump\t// in\n    tag_17:\n      tag_18\n      jump\t// in\n    tag_16:\n      stop\n        /* \"Code-hardhat-ethersJs/contracts/MyTokenMarket.sol\":1074:1901  function addLiquidity(... */\n    tag_5:\n      tag_19\n      0x04\n      dup1\n      calldatasize\n      sub\n      dup2\n      add\n      swap1\n      tag_20\n      swap2\n      swap1\n      tag_21\n      jump\t// in\n    tag_20:\n      tag_22\n      jump\t// in\n    tag_19:\n      stop\n        /* \"Code-hardhat-ethersJs/contracts/MyTokenMarket.sol\":2355:2528  function withdraw(uint256 pid)public{... */\n    tag_10:\n        /* \"Code-hardhat-ethersJs/contracts/MyTokenMarket.sol\":2401:2437  IMasterChef.UserInfo memory userInfo */\n      0x00\n        /* \"Code-hardhat-ethersJs/contracts/MyTokenMarket.sol\":2440:2450  masterChef */\n      0x07\n      0x00\n      swap1\n      sload\n      swap1\n      0x0100\n      exp\n      swap1\n      div\n      0xffffffffffffffffffffffffffffffffffffffff\n      and\n        /* \"Code-hardhat-ethersJs/contracts/MyTokenMarket.sol\":2440:2459  masterChef.userInfo */\n      0xffffffffffffffffffffffffffffffffffffffff\n      and\n      0x1959a002\n        /* \"Code-hardhat-ethersJs/contracts/MyTokenMarket.sol\":2460:2470  msg.sender */\n      caller\n        /* \"Code-hardhat-ethersJs/contracts/MyTokenMarket.sol\":2440:2471  masterChef.userInfo(msg.sender) */\n      mload(0x40)\n      dup3\n      0xffffffff\n      and\n      0xe0\n      shl\n      dup2\n      mstore\n      0x04\n      add\n      tag_24\n      swap2\n      swap1\n      tag_25\n      jump\t// in\n    tag_24:\n      0x40\n      dup1\n      mload\n      dup1\n      dup4\n      sub\n      dup2\n      dup7\n      gas\n      staticcall\n      iszero\n      dup1\n      iszero\n      tag_27\n      jumpi\n      returndatasize\n      0x00\n      dup1\n      returndatacopy\n      revert(0x00, returndatasize)\n    tag_27:\n      pop\n      pop\n      pop\n      pop\n      mload(0x40)\n      returndatasize\n      not(0x1f)\n      0x1f\n      dup3\n      add\n      and\n      dup3\n      add\n      dup1\n      0x40\n      mstore\n      pop\n      dup2\n      add\n      swap1\n      tag_28\n      swap2\n      swap1\n      tag_29\n      jump\t// in\n    tag_28:\n        /* \"Code-hardhat-ethersJs/contracts/MyTokenMarket.sol\":2401:2471  IMasterChef.UserInfo memory userInfo = masterChef.userInfo(msg.sender) */\n      swap1\n      pop\n        /* \"Code-hardhat-ethersJs/contracts/MyTokenMarket.sol\":2481:2491  masterChef */\n      0x07\n      0x00\n      swap1\n      sload\n      swap1\n      0x0100\n      exp\n      swap1\n      div\n      0xffffffffffffffffffffffffffffffffffffffff\n      and\n        /* \"Code-hardhat-ethersJs/contracts/MyTokenMarket.sol\":2481:2500  masterChef.withdraw */\n      0xffffffffffffffffffffffffffffffffffffffff\n      and\n      0x441a3e70\n        /* \"Code-hardhat-ethersJs/contracts/MyTokenMarket.sol\":2501:2504  pid */\n      dup4\n        /* \"Code-hardhat-ethersJs/contracts/MyTokenMarket.sol\":2505:2513  userInfo */\n      dup4\n        /* \"Code-hardhat-ethersJs/contracts/MyTokenMarket.sol\":2505:2520  userInfo.amount */\n      0x00\n      add\n      mload\n        /* \"Code-hardhat-ethersJs/contracts/MyTokenMarket.sol\":2481:2521  masterChef.withdraw(pid,userInfo.amount) */\n      mload(0x40)\n      dup4\n      0xffffffff\n      and\n      0xe0\n      shl\n      dup2\n      mstore\n      0x04\n      add\n      tag_30\n      swap3\n      swap2\n      swap1\n      tag_31\n      jump\t// in\n    tag_30:\n      0x00\n      mload(0x40)\n      dup1\n      dup4\n      sub\n      dup2\n      0x00\n      dup8\n      dup1\n      extcodesize\n      iszero\n      dup1\n      iszero\n      tag_32\n      jumpi\n      0x00\n      dup1\n      revert\n    tag_32:\n      pop\n      gas\n      call\n      iszero\n      dup1\n      iszero\n      tag_34\n      jumpi\n      returndatasize\n      0x00\n      dup1\n      returndatacopy\n      revert(0x00, returndatasize)\n    tag_34:\n      pop\n      pop\n      pop\n      pop\n        /* \"Code-hardhat-ethersJs/contracts/MyTokenMarket.sol\":2391:2528  {... */\n      pop\n        /* \"Code-hardhat-ethersJs/contracts/MyTokenMarket.sol\":2355:2528  function withdraw(uint256 pid)public{... */\n      pop\n      jump\t// out\n        /* \"Code-hardhat-ethersJs/contracts/MyTokenMarket.sol\":1907:1987  function depositToMasterChef(uint256 pid, uint256 amount)public{... */\n    tag_15:\n      pop\n      pop\n      jump\t// out\n        /* \"Code-hardhat-ethersJs/contracts/MyTokenMarket.sol\":1994:2318  function buyExactTokenByETH(uint amountOutMin)public payable{... */\n    tag_18:\n        /* \"Code-hardhat-ethersJs/contracts/MyTokenMarket.sol\":2068:2089  address[] memory path */\n      0x00\n        /* \"Code-hardhat-ethersJs/contracts/MyTokenMarket.sol\":2106:2107  2 */\n      0x02\n        /* \"Code-hardhat-ethersJs/contracts/MyTokenMarket.sol\":2092:2108  new address[](2) */\n      0xffffffffffffffff\n      dup2\n      gt\n      iszero\n      tag_37\n      jumpi\n      tag_38\n      tag_39\n      jump\t// in\n    tag_38:\n    tag_37:\n      mload(0x40)\n      swap1\n      dup1\n      dup3\n      mstore\n      dup1\n      0x20\n      mul\n      0x20\n      add\n      dup3\n      add\n      0x40\n      mstore\n      dup1\n      iszero\n      tag_40\n      jumpi\n      dup2\n      0x20\n      add\n      0x20\n      dup3\n      mul\n      dup1\n      calldatasize\n      dup4\n      calldatacopy\n      dup1\n      dup3\n      add\n      swap2\n      pop\n      pop\n      swap1\n      pop\n    tag_40:\n      pop\n        /* \"Code-hardhat-ethersJs/contracts/MyTokenMarket.sol\":2068:2108  address[] memory path = new address[](2) */\n      swap1\n      pop\n        /* \"Code-hardhat-ethersJs/contracts/MyTokenMarket.sol\":2140:2151  wethaddress */\n      0x01\n      0x00\n      swap1\n      sload\n      swap1\n      0x0100\n      exp\n      swap1\n      div\n      0xffffffffffffffffffffffffffffffffffffffff\n      and\n        /* \"Code-hardhat-ethersJs/contracts/MyTokenMarket.sol\":2122:2126  path */\n      dup2\n        /* \"Code-hardhat-ethersJs/contracts/MyTokenMarket.sol\":2127:2128  0 */\n      0x00\n        /* \"Code-hardhat-ethersJs/contracts/MyTokenMarket.sol\":2122:2129  path[0] */\n      dup2\n      mload\n      dup2\n      lt\n      tag_41\n      jumpi\n      tag_42\n      tag_43\n      jump\t// in\n    tag_42:\n    tag_41:\n      0x20\n      mul\n      0x20\n      add\n      add\n        /* \"Code-hardhat-ethersJs/contracts/MyTokenMarket.sol\":2122:2152  path[0] = address(wethaddress) */\n      swap1\n      0xffffffffffffffffffffffffffffffffffffffff\n      and\n      swap1\n      dup2\n      0xffffffffffffffffffffffffffffffffffffffff\n      and\n      dup2\n      mstore\n      pop\n      pop\n        /* \"Code-hardhat-ethersJs/contracts/MyTokenMarket.sol\":2184:2198  mytokenaddress */\n      0x02\n      0x00\n      swap1\n      sload\n      swap1\n      0x0100\n      exp\n      swap1\n      div\n      0xffffffffffffffffffffffffffffffffffffffff\n      and\n        /* \"Code-hardhat-ethersJs/contracts/MyTokenMarket.sol\":2166:2170  path */\n      dup2\n        /* \"Code-hardhat-ethersJs/contracts/MyTokenMarket.sol\":2171:2172  1 */\n      0x01\n        /* \"Code-hardhat-ethersJs/contracts/MyTokenMarket.sol\":2166:2173  path[1] */\n      dup2\n      mload\n      dup2\n      lt\n      tag_44\n      jumpi\n      tag_45\n      tag_43\n      jump\t// in\n    tag_45:\n    tag_44:\n      0x20\n      mul\n      0x20\n      add\n      add\n        /* \"Code-hardhat-ethersJs/contracts/MyTokenMarket.sol\":2166:2199  path[1] = address(mytokenaddress) */\n      swap1\n      0xffffffffffffffffffffffffffffffffffffffff\n      and\n      swap1\n      dup2\n      0xffffffffffffffffffffffffffffffffffffffff\n      and\n      dup2\n      mstore\n      pop\n      pop\n        /* \"Code-hardhat-ethersJs/contracts/MyTokenMarket.sol\":2213:2222  uv2router */\n      0x05\n      0x00\n      swap1\n      sload\n      swap1\n      0x0100\n      exp\n      swap1\n      div\n      0xffffffffffffffffffffffffffffffffffffffff\n      and\n        /* \"Code-hardhat-ethersJs/contracts/MyTokenMarket.sol\":2213:2244  uv2router.swapExactETHForTokens */\n      0xffffffffffffffffffffffffffffffffffffffff\n      and\n      0x7ff36ab5\n        /* \"Code-hardhat-ethersJs/contracts/MyTokenMarket.sol\":2252:2261  msg.value */\n      callvalue\n        /* \"Code-hardhat-ethersJs/contracts/MyTokenMarket.sol\":2263:2275  amountOutMin */\n      dup5\n        /* \"Code-hardhat-ethersJs/contracts/MyTokenMarket.sol\":2277:2281  path */\n      dup5\n        /* \"Code-hardhat-ethersJs/contracts/MyTokenMarket.sol\":2283:2293  msg.sender */\n      caller\n        /* \"Code-hardhat-ethersJs/contracts/MyTokenMarket.sol\":2295:2310  block.timestamp */\n      timestamp\n        /* \"Code-hardhat-ethersJs/contracts/MyTokenMarket.sol\":2213:2311  uv2router.swapExactETHForTokens{value: msg.value}(amountOutMin, path, msg.sender, block.timestamp) */\n      mload(0x40)\n      dup7\n      0xffffffff\n      and\n      0xe0\n      shl\n      dup2\n      mstore\n      0x04\n      add\n      tag_46\n      swap5\n      swap4\n      swap3\n      swap2\n      swap1\n      tag_47\n      jump\t// in\n    tag_46:\n      0x00\n      mload(0x40)\n      dup1\n      dup4\n      sub\n      dup2\n      dup6\n      dup9\n      gas\n      call\n      iszero\n      dup1\n      iszero\n      tag_49\n      jumpi\n      returndatasize\n      0x00\n      dup1\n      returndatacopy\n      revert(0x00, returndatasize)\n    tag_49:\n      pop\n      pop\n      pop\n      pop\n      pop\n      mload(0x40)\n      returndatasize\n      0x00\n      dup3\n      returndatacopy\n      returndatasize\n      not(0x1f)\n      0x1f\n      dup3\n      add\n      and\n      dup3\n      add\n      dup1\n      0x40\n      mstore\n      pop\n      dup2\n      add\n      swap1\n      tag_50\n      swap2\n      swap1\n      tag_51\n      jump\t// in\n    tag_50:\n      pop\n        /* \"Code-hardhat-ethersJs/contracts/MyTokenMarket.sol\":2054:2318  {... */\n      pop\n        /* \"Code-hardhat-ethersJs/contracts/MyTokenMarket.sol\":1994:2318  function buyExactTokenByETH(uint amountOutMin)public payable{... */\n      pop\n      jump\t// out\n        /* \"Code-hardhat-ethersJs/contracts/MyTokenMarket.sol\":1074:1901  function addLiquidity(... */\n    tag_22:\n        /* \"Code-hardhat-ethersJs/contracts/MyTokenMarket.sol\":1281:1287  mtoken */\n      0x06\n      0x00\n      swap1\n      sload\n      swap1\n      0x0100\n      exp\n      swap1\n      div\n      0xffffffffffffffffffffffffffffffffffffffff\n      and\n        /* \"Code-hardhat-ethersJs/contracts/MyTokenMarket.sol\":1281:1295  mtoken.approve */\n      0xffffffffffffffffffffffffffffffffffffffff\n      and\n      0x095ea7b3\n        /* \"Code-hardhat-ethersJs/contracts/MyTokenMarket.sol\":1304:1313  uv2router */\n      0x05\n      0x00\n      swap1\n      sload\n      swap1\n      0x0100\n      exp\n      swap1\n      div\n      0xffffffffffffffffffffffffffffffffffffffff\n      and\n        /* \"Code-hardhat-ethersJs/contracts/MyTokenMarket.sol\":1316:1336  amountMyTokenDesired */\n      dup7\n        /* \"Code-hardhat-ethersJs/contracts/MyTokenMarket.sol\":1281:1337  mtoken.approve(address(uv2router), amountMyTokenDesired) */\n      mload(0x40)\n      dup4\n      0xffffffff\n      and\n      0xe0\n      shl\n      dup2\n      mstore\n      0x04\n      add\n      tag_53\n      swap3\n      swap2\n      swap1\n      tag_54\n      jump\t// in\n    tag_53:\n      0x20\n      mload(0x40)\n      dup1\n      dup4\n      sub\n      dup2\n      0x00\n      dup8\n      gas\n      call\n      iszero\n      dup1\n      iszero\n      tag_56\n      jumpi\n      returndatasize\n      0x00\n      dup1\n      returndatacopy\n      revert(0x00, returndatasize)\n    tag_56:\n      pop\n      pop\n      pop\n      pop\n      mload(0x40)\n      returndatasize\n      not(0x1f)\n      0x1f\n      dup3\n      add\n      and\n      dup3\n      add\n      dup1\n      0x40\n      mstore\n      pop\n      dup2\n      add\n      swap1\n      tag_57\n      swap2\n      swap1\n      tag_58\n      jump\t// in\n    tag_57:\n      pop\n        /* \"Code-hardhat-ethersJs/contracts/MyTokenMarket.sol\":1347:1359  bool success */\n      0x00\n        /* \"Code-hardhat-ethersJs/contracts/MyTokenMarket.sol\":1362:1368  mtoken */\n      0x06\n      0x00\n      swap1\n      sload\n      swap1\n      0x0100\n      exp\n      swap1\n      div\n      0xffffffffffffffffffffffffffffffffffffffff\n      and\n        /* \"Code-hardhat-ethersJs/contracts/MyTokenMarket.sol\":1362:1381  mtoken.transferFrom */\n      0xffffffffffffffffffffffffffffffffffffffff\n      and\n      0x23b872dd\n        /* \"Code-hardhat-ethersJs/contracts/MyTokenMarket.sol\":1382:1392  msg.sender */\n      caller\n        /* \"Code-hardhat-ethersJs/contracts/MyTokenMarket.sol\":1402:1406  this */\n      address\n        /* \"Code-hardhat-ethersJs/contracts/MyTokenMarket.sol\":1409:1429  amountMyTokenDesired */\n      dup9\n        /* \"Code-hardhat-ethersJs/contracts/MyTokenMarket.sol\":1362:1430  mtoken.transferFrom(msg.sender, address(this), amountMyTokenDesired) */\n      mload(0x40)\n      dup5\n      0xffffffff\n      and\n      0xe0\n      shl\n      dup2\n      mstore\n      0x04\n      add\n      tag_59\n      swap4\n      swap3\n      swap2\n      swap1\n      tag_60\n      jump\t// in\n    tag_59:\n      0x20\n      mload(0x40)\n      dup1\n      dup4\n      sub\n      dup2\n      0x00\n      dup8\n      gas\n      call\n      iszero\n      dup1\n      iszero\n      tag_62\n      jumpi\n      returndatasize\n      0x00\n      dup1\n      returndatacopy\n      revert(0x00, returndatasize)\n    tag_62:\n      pop\n      pop\n      pop\n      pop\n      mload(0x40)\n      returndatasize\n      not(0x1f)\n      0x1f\n      dup3\n      add\n      and\n      dup3\n      add\n      dup1\n      0x40\n      mstore\n      pop\n      dup2\n      add\n      swap1\n      tag_63\n      swap2\n      swap1\n      tag_58\n      jump\t// in\n    tag_63:\n        /* \"Code-hardhat-ethersJs/contracts/MyTokenMarket.sol\":1347:1430  bool success = mtoken.transferFrom(msg.sender, address(this), amountMyTokenDesired) */\n      swap1\n      pop\n        /* \"Code-hardhat-ethersJs/contracts/MyTokenMarket.sol\":1448:1455  success */\n      dup1\n        /* \"Code-hardhat-ethersJs/contracts/MyTokenMarket.sol\":1440:1482  require(success, \"mtoken transfer error!\") */\n      tag_64\n      jumpi\n      mload(0x40)\n      0x08c379a000000000000000000000000000000000000000000000000000000000\n      dup2\n      mstore\n      0x04\n      add\n      tag_65\n      swap1\n      tag_66\n      jump\t// in\n    tag_65:\n      mload(0x40)\n      dup1\n      swap2\n      sub\n      swap1\n      revert\n    tag_64:\n        /* \"Code-hardhat-ethersJs/contracts/MyTokenMarket.sol\":1512:1524  amountETHMin */\n      dup3\n        /* \"Code-hardhat-ethersJs/contracts/MyTokenMarket.sol\":1500:1509  msg.value */\n      callvalue\n        /* \"Code-hardhat-ethersJs/contracts/MyTokenMarket.sol\":1500:1524  msg.value > amountETHMin */\n      gt\n        /* \"Code-hardhat-ethersJs/contracts/MyTokenMarket.sol\":1492:1571  require(msg.value > amountETHMin, \"msg.value should biggger than amountETHMin\") */\n      tag_67\n      jumpi\n      mload(0x40)\n      0x08c379a000000000000000000000000000000000000000000000000000000000\n      dup2\n      mstore\n      0x04\n      add\n      tag_68\n      swap1\n      tag_69\n      jump\t// in\n    tag_68:\n      mload(0x40)\n      dup1\n      swap2\n      sub\n      swap1\n      revert\n    tag_67:\n        /* \"Code-hardhat-ethersJs/contracts/MyTokenMarket.sol\":1582:1598  uint amountToken */\n      0x00\n        /* \"Code-hardhat-ethersJs/contracts/MyTokenMarket.sol\":1604:1613  uv2router */\n      0x05\n      0x00\n      swap1\n      sload\n      swap1\n      0x0100\n      exp\n      swap1\n      div\n      0xffffffffffffffffffffffffffffffffffffffff\n      and\n        /* \"Code-hardhat-ethersJs/contracts/MyTokenMarket.sol\":1604:1629  uv2router.addLiquidityETH */\n      0xffffffffffffffffffffffffffffffffffffffff\n      and\n      0xf305d719\n        /* \"Code-hardhat-ethersJs/contracts/MyTokenMarket.sol\":1637:1646  msg.value */\n      callvalue\n        /* \"Code-hardhat-ethersJs/contracts/MyTokenMarket.sol\":1649:1663  mytokenaddress */\n      0x02\n      0x00\n      swap1\n      sload\n      swap1\n      0x0100\n      exp\n      swap1\n      div\n      0xffffffffffffffffffffffffffffffffffffffff\n      and\n        /* \"Code-hardhat-ethersJs/contracts/MyTokenMarket.sol\":1665:1685  amountMyTokenDesired */\n      dup10\n        /* \"Code-hardhat-ethersJs/contracts/MyTokenMarket.sol\":1687:1703  amountMyTokenMin */\n      dup10\n        /* \"Code-hardhat-ethersJs/contracts/MyTokenMarket.sol\":1705:1717  amountETHMin */\n      dup10\n        /* \"Code-hardhat-ethersJs/contracts/MyTokenMarket.sol\":1719:1729  msg.sender */\n      caller\n        /* \"Code-hardhat-ethersJs/contracts/MyTokenMarket.sol\":1730:1745  block.timestamp */\n      timestamp\n        /* \"Code-hardhat-ethersJs/contracts/MyTokenMarket.sol\":1604:1746  uv2router.addLiquidityETH{value: msg.value}( mytokenaddress, amountMyTokenDesired, amountMyTokenMin, amountETHMin, msg.sender,block.timestamp) */\n      mload(0x40)\n      dup9\n      0xffffffff\n      and\n      0xe0\n      shl\n      dup2\n      mstore\n      0x04\n      add\n      tag_70\n      swap7\n      swap6\n      swap5\n      swap4\n      swap3\n      swap2\n      swap1\n      tag_71\n      jump\t// in\n    tag_70:\n      0x60\n      mload(0x40)\n      dup1\n      dup4\n      sub\n      dup2\n      dup6\n      dup9\n      gas\n      call\n      iszero\n      dup1\n      iszero\n      tag_73\n      jumpi\n      returndatasize\n      0x00\n      dup1\n      returndatacopy\n      revert(0x00, returndatasize)\n    tag_73:\n      pop\n      pop\n      pop\n      pop\n      pop\n      mload(0x40)\n      returndatasize\n      not(0x1f)\n      0x1f\n      dup3\n      add\n      and\n      dup3\n      add\n      dup1\n      0x40\n      mstore\n      pop\n      dup2\n      add\n      swap1\n      tag_74\n      swap2\n      swap1\n      tag_75\n      jump\t// in\n    tag_74:\n        /* \"Code-hardhat-ethersJs/contracts/MyTokenMarket.sol\":1581:1746  (uint amountToken,,) = uv2router.addLiquidityETH{value: msg.value}( mytokenaddress, amountMyTokenDesired, amountMyTokenMin, amountETHMin, msg.sender,block.timestamp) */\n      pop\n      pop\n      swap1\n      pop\n        /* \"Code-hardhat-ethersJs/contracts/MyTokenMarket.sol\":1794:1800  mtoken */\n      0x06\n      0x00\n      swap1\n      sload\n      swap1\n      0x0100\n      exp\n      swap1\n      div\n      0xffffffffffffffffffffffffffffffffffffffff\n      and\n        /* \"Code-hardhat-ethersJs/contracts/MyTokenMarket.sol\":1794:1808  mtoken.approve */\n      0xffffffffffffffffffffffffffffffffffffffff\n      and\n      0x095ea7b3\n        /* \"Code-hardhat-ethersJs/contracts/MyTokenMarket.sol\":1809:1826  masterchefaddress */\n      0x04\n      0x00\n      swap1\n      sload\n      swap1\n      0x0100\n      exp\n      swap1\n      div\n      0xffffffffffffffffffffffffffffffffffffffff\n      and\n        /* \"Code-hardhat-ethersJs/contracts/MyTokenMarket.sol\":1828:1848  amountMyTokenDesired */\n      dup9\n        /* \"Code-hardhat-ethersJs/contracts/MyTokenMarket.sol\":1794:1849  mtoken.approve(masterchefaddress, amountMyTokenDesired) */\n      mload(0x40)\n      dup4\n      0xffffffff\n      and\n      0xe0\n      shl\n      dup2\n      mstore\n      0x04\n      add\n      tag_76\n      swap3\n      swap2\n      swap1\n      tag_54\n      jump\t// in\n    tag_76:\n      0x20\n      mload(0x40)\n      dup1\n      dup4\n      sub\n      dup2\n      0x00\n      dup8\n      gas\n      call\n      iszero\n      dup1\n      iszero\n      tag_78\n      jumpi\n      returndatasize\n      0x00\n      dup1\n      returndatacopy\n      revert(0x00, returndatasize)\n    tag_78:\n      pop\n      pop\n      pop\n      pop\n      mload(0x40)\n      returndatasize\n      not(0x1f)\n      0x1f\n      dup3\n      add\n      and\n      dup3\n      add\n      dup1\n      0x40\n      mstore\n      pop\n      dup2\n      add\n      swap1\n      tag_79\n      swap2\n      swap1\n      tag_58\n      jump\t// in\n    tag_79:\n      pop\n        /* \"Code-hardhat-ethersJs/contracts/MyTokenMarket.sol\":1859:1869  masterChef */\n      0x07\n      0x00\n      swap1\n      sload\n      swap1\n      0x0100\n      exp\n      swap1\n      div\n      0xffffffffffffffffffffffffffffffffffffffff\n      and\n        /* \"Code-hardhat-ethersJs/contracts/MyTokenMarket.sol\":1859:1877  masterChef.deposit */\n      0xffffffffffffffffffffffffffffffffffffffff\n      and\n      0xe2bbb158\n        /* \"Code-hardhat-ethersJs/contracts/MyTokenMarket.sol\":1878:1881  pid */\n      dup5\n        /* \"Code-hardhat-ethersJs/contracts/MyTokenMarket.sol\":1882:1893  amountToken */\n      dup4\n        /* \"Code-hardhat-ethersJs/contracts/MyTokenMarket.sol\":1859:1894  masterChef.deposit(pid,amountToken) */\n      mload(0x40)\n      dup4\n      0xffffffff\n      and\n      0xe0\n      shl\n      dup2\n      mstore\n      0x04\n      add\n      tag_80\n      swap3\n      swap2\n      swap1\n      tag_31\n      jump\t// in\n    tag_80:\n      0x00\n      mload(0x40)\n      dup1\n      dup4\n      sub\n      dup2\n      0x00\n      dup8\n      dup1\n      extcodesize\n      iszero\n      dup1\n      iszero\n      tag_81\n      jumpi\n      0x00\n      dup1\n      revert\n    tag_81:\n      pop\n      gas\n      call\n      iszero\n      dup1\n      iszero\n      tag_83\n      jumpi\n      returndatasize\n      0x00\n      dup1\n      returndatacopy\n      revert(0x00, returndatasize)\n    tag_83:\n      pop\n      pop\n      pop\n      pop\n        /* \"Code-hardhat-ethersJs/contracts/MyTokenMarket.sol\":1233:1901  {... */\n      pop\n      pop\n        /* \"Code-hardhat-ethersJs/contracts/MyTokenMarket.sol\":1074:1901  function addLiquidity(... */\n      pop\n      pop\n      pop\n      pop\n      jump\t// out\n        /* \"#utility.yul\":7:82   */\n    tag_84:\n        /* \"#utility.yul\":40:46   */\n      0x00\n        /* \"#utility.yul\":73:75   */\n      0x40\n        /* \"#utility.yul\":67:76   */\n      mload\n        /* \"#utility.yul\":57:76   */\n      swap1\n      pop\n        /* \"#utility.yul\":7:82   */\n      swap1\n      jump\t// out\n        /* \"#utility.yul\":88:205   */\n    tag_85:\n        /* \"#utility.yul\":197:198   */\n      0x00\n        /* \"#utility.yul\":194:195   */\n      dup1\n        /* \"#utility.yul\":187:199   */\n      revert\n        /* \"#utility.yul\":211:328   */\n    tag_86:\n        /* \"#utility.yul\":320:321   */\n      0x00\n        /* \"#utility.yul\":317:318   */\n      dup1\n        /* \"#utility.yul\":310:322   */\n      revert\n        /* \"#utility.yul\":334:411   */\n    tag_87:\n        /* \"#utility.yul\":371:378   */\n      0x00\n        /* \"#utility.yul\":400:405   */\n      dup2\n        /* \"#utility.yul\":389:405   */\n      swap1\n      pop\n        /* \"#utility.yul\":334:411   */\n      swap2\n      swap1\n      pop\n      jump\t// out\n        /* \"#utility.yul\":417:539   */\n    tag_88:\n        /* \"#utility.yul\":490:514   */\n      tag_127\n        /* \"#utility.yul\":508:513   */\n      dup2\n        /* \"#utility.yul\":490:514   */\n      tag_87\n      jump\t// in\n    tag_127:\n        /* \"#utility.yul\":483:488   */\n      dup2\n        /* \"#utility.yul\":480:515   */\n      eq\n        /* \"#utility.yul\":470:533   */\n      tag_128\n      jumpi\n        /* \"#utility.yul\":529:530   */\n      0x00\n        /* \"#utility.yul\":526:527   */\n      dup1\n        /* \"#utility.yul\":519:531   */\n      revert\n        /* \"#utility.yul\":470:533   */\n    tag_128:\n        /* \"#utility.yul\":417:539   */\n      pop\n      jump\t// out\n        /* \"#utility.yul\":545:684   */\n    tag_89:\n        /* \"#utility.yul\":591:596   */\n      0x00\n        /* \"#utility.yul\":629:635   */\n      dup2\n        /* \"#utility.yul\":616:636   */\n      calldataload\n        /* \"#utility.yul\":607:636   */\n      swap1\n      pop\n        /* \"#utility.yul\":645:678   */\n      tag_130\n        /* \"#utility.yul\":672:677   */\n      dup2\n        /* \"#utility.yul\":645:678   */\n      tag_88\n      jump\t// in\n    tag_130:\n        /* \"#utility.yul\":545:684   */\n      swap3\n      swap2\n      pop\n      pop\n      jump\t// out\n        /* \"#utility.yul\":690:1019   */\n    tag_9:\n        /* \"#utility.yul\":749:755   */\n      0x00\n        /* \"#utility.yul\":798:800   */\n      0x20\n        /* \"#utility.yul\":786:795   */\n      dup3\n        /* \"#utility.yul\":777:784   */\n      dup5\n        /* \"#utility.yul\":773:796   */\n      sub\n        /* \"#utility.yul\":769:801   */\n      slt\n        /* \"#utility.yul\":766:885   */\n      iszero\n      tag_132\n      jumpi\n        /* \"#utility.yul\":804:883   */\n      tag_133\n      tag_85\n      jump\t// in\n    tag_133:\n        /* \"#utility.yul\":766:885   */\n    tag_132:\n        /* \"#utility.yul\":924:925   */\n      0x00\n        /* \"#utility.yul\":949:1002   */\n      tag_134\n        /* \"#utility.yul\":994:1001   */\n      dup5\n        /* \"#utility.yul\":985:991   */\n      dup3\n        /* \"#utility.yul\":974:983   */\n      dup6\n        /* \"#utility.yul\":970:992   */\n      add\n        /* \"#utility.yul\":949:1002   */\n      tag_89\n      jump\t// in\n    tag_134:\n        /* \"#utility.yul\":939:1002   */\n      swap2\n      pop\n        /* \"#utility.yul\":895:1012   */\n      pop\n        /* \"#utility.yul\":690:1019   */\n      swap3\n      swap2\n      pop\n      pop\n      jump\t// out\n        /* \"#utility.yul\":1025:1499   */\n    tag_14:\n        /* \"#utility.yul\":1093:1099   */\n      0x00\n        /* \"#utility.yul\":1101:1107   */\n      dup1\n        /* \"#utility.yul\":1150:1152   */\n      0x40\n        /* \"#utility.yul\":1138:1147   */\n      dup4\n        /* \"#utility.yul\":1129:1136   */\n      dup6\n        /* \"#utility.yul\":1125:1148   */\n      sub\n        /* \"#utility.yul\":1121:1153   */\n      slt\n        /* \"#utility.yul\":1118:1237   */\n      iszero\n      tag_136\n      jumpi\n        /* \"#utility.yul\":1156:1235   */\n      tag_137\n      tag_85\n      jump\t// in\n    tag_137:\n        /* \"#utility.yul\":1118:1237   */\n    tag_136:\n        /* \"#utility.yul\":1276:1277   */\n      0x00\n        /* \"#utility.yul\":1301:1354   */\n      tag_138\n        /* \"#utility.yul\":1346:1353   */\n      dup6\n        /* \"#utility.yul\":1337:1343   */\n      dup3\n        /* \"#utility.yul\":1326:1335   */\n      dup7\n        /* \"#utility.yul\":1322:1344   */\n      add\n        /* \"#utility.yul\":1301:1354   */\n      tag_89\n      jump\t// in\n    tag_138:\n        /* \"#utility.yul\":1291:1354   */\n      swap3\n      pop\n        /* \"#utility.yul\":1247:1364   */\n      pop\n        /* \"#utility.yul\":1403:1405   */\n      0x20\n        /* \"#utility.yul\":1429:1482   */\n      tag_139\n        /* \"#utility.yul\":1474:1481   */\n      dup6\n        /* \"#utility.yul\":1465:1471   */\n      dup3\n        /* \"#utility.yul\":1454:1463   */\n      dup7\n        /* \"#utility.yul\":1450:1472   */\n      add\n        /* \"#utility.yul\":1429:1482   */\n      tag_89\n      jump\t// in\n    tag_139:\n        /* \"#utility.yul\":1419:1482   */\n      swap2\n      pop\n        /* \"#utility.yul\":1374:1492   */\n      pop\n        /* \"#utility.yul\":1025:1499   */\n      swap3\n      pop\n      swap3\n      swap1\n      pop\n      jump\t// out\n        /* \"#utility.yul\":1505:2270   */\n    tag_21:\n        /* \"#utility.yul\":1591:1597   */\n      0x00\n        /* \"#utility.yul\":1599:1605   */\n      dup1\n        /* \"#utility.yul\":1607:1613   */\n      0x00\n        /* \"#utility.yul\":1615:1621   */\n      dup1\n        /* \"#utility.yul\":1664:1667   */\n      0x80\n        /* \"#utility.yul\":1652:1661   */\n      dup6\n        /* \"#utility.yul\":1643:1650   */\n      dup8\n        /* \"#utility.yul\":1639:1662   */\n      sub\n        /* \"#utility.yul\":1635:1668   */\n      slt\n        /* \"#utility.yul\":1632:1752   */\n      iszero\n      tag_141\n      jumpi\n        /* \"#utility.yul\":1671:1750   */\n      tag_142\n      tag_85\n      jump\t// in\n    tag_142:\n        /* \"#utility.yul\":1632:1752   */\n    tag_141:\n        /* \"#utility.yul\":1791:1792   */\n      0x00\n        /* \"#utility.yul\":1816:1869   */\n      tag_143\n        /* \"#utility.yul\":1861:1868   */\n      dup8\n        /* \"#utility.yul\":1852:1858   */\n      dup3\n        /* \"#utility.yul\":1841:1850   */\n      dup9\n        /* \"#utility.yul\":1837:1859   */\n      add\n        /* \"#utility.yul\":1816:1869   */\n      tag_89\n      jump\t// in\n    tag_143:\n        /* \"#utility.yul\":1806:1869   */\n      swap5\n      pop\n        /* \"#utility.yul\":1762:1879   */\n      pop\n        /* \"#utility.yul\":1918:1920   */\n      0x20\n        /* \"#utility.yul\":1944:1997   */\n      tag_144\n        /* \"#utility.yul\":1989:1996   */\n      dup8\n        /* \"#utility.yul\":1980:1986   */\n      dup3\n        /* \"#utility.yul\":1969:1978   */\n      dup9\n        /* \"#utility.yul\":1965:1987   */\n      add\n        /* \"#utility.yul\":1944:1997   */\n      tag_89\n      jump\t// in\n    tag_144:\n        /* \"#utility.yul\":1934:1997   */\n      swap4\n      pop\n        /* \"#utility.yul\":1889:2007   */\n      pop\n        /* \"#utility.yul\":2046:2048   */\n      0x40\n        /* \"#utility.yul\":2072:2125   */\n      tag_145\n        /* \"#utility.yul\":2117:2124   */\n      dup8\n        /* \"#utility.yul\":2108:2114   */\n      dup3\n        /* \"#utility.yul\":2097:2106   */\n      dup9\n        /* \"#utility.yul\":2093:2115   */\n      add\n        /* \"#utility.yul\":2072:2125   */\n      tag_89\n      jump\t// in\n    tag_145:\n        /* \"#utility.yul\":2062:2125   */\n      swap3\n      pop\n        /* \"#utility.yul\":2017:2135   */\n      pop\n        /* \"#utility.yul\":2174:2176   */\n      0x60\n        /* \"#utility.yul\":2200:2253   */\n      tag_146\n        /* \"#utility.yul\":2245:2252   */\n      dup8\n        /* \"#utility.yul\":2236:2242   */\n      dup3\n        /* \"#utility.yul\":2225:2234   */\n      dup9\n        /* \"#utility.yul\":2221:2243   */\n      add\n        /* \"#utility.yul\":2200:2253   */\n      tag_89\n      jump\t// in\n    tag_146:\n        /* \"#utility.yul\":2190:2253   */\n      swap2\n      pop\n        /* \"#utility.yul\":2145:2263   */\n      pop\n        /* \"#utility.yul\":1505:2270   */\n      swap3\n      swap6\n      swap2\n      swap5\n      pop\n      swap3\n      pop\n      jump\t// out\n        /* \"#utility.yul\":2276:2402   */\n    tag_90:\n        /* \"#utility.yul\":2313:2320   */\n      0x00\n        /* \"#utility.yul\":2353:2395   */\n      0xffffffffffffffffffffffffffffffffffffffff\n        /* \"#utility.yul\":2346:2351   */\n      dup3\n        /* \"#utility.yul\":2342:2396   */\n      and\n        /* \"#utility.yul\":2331:2396   */\n      swap1\n      pop\n        /* \"#utility.yul\":2276:2402   */\n      swap2\n      swap1\n      pop\n      jump\t// out\n        /* \"#utility.yul\":2408:2504   */\n    tag_91:\n        /* \"#utility.yul\":2445:2452   */\n      0x00\n        /* \"#utility.yul\":2474:2498   */\n      tag_149\n        /* \"#utility.yul\":2492:2497   */\n      dup3\n        /* \"#utility.yul\":2474:2498   */\n      tag_90\n      jump\t// in\n    tag_149:\n        /* \"#utility.yul\":2463:2498   */\n      swap1\n      pop\n        /* \"#utility.yul\":2408:2504   */\n      swap2\n      swap1\n      pop\n      jump\t// out\n        /* \"#utility.yul\":2510:2628   */\n    tag_92:\n        /* \"#utility.yul\":2597:2621   */\n      tag_151\n        /* \"#utility.yul\":2615:2620   */\n      dup2\n        /* \"#utility.yul\":2597:2621   */\n      tag_91\n      jump\t// in\n    tag_151:\n        /* \"#utility.yul\":2592:2595   */\n      dup3\n        /* \"#utility.yul\":2585:2622   */\n      mstore\n        /* \"#utility.yul\":2510:2628   */\n      pop\n      pop\n      jump\t// out\n        /* \"#utility.yul\":2634:2856   */\n    tag_25:\n        /* \"#utility.yul\":2727:2731   */\n      0x00\n        /* \"#utility.yul\":2765:2767   */\n      0x20\n        /* \"#utility.yul\":2754:2763   */\n      dup3\n        /* \"#utility.yul\":2750:2768   */\n      add\n        /* \"#utility.yul\":2742:2768   */\n      swap1\n      pop\n        /* \"#utility.yul\":2778:2849   */\n      tag_153\n        /* \"#utility.yul\":2846:2847   */\n      0x00\n        /* \"#utility.yul\":2835:2844   */\n      dup4\n        /* \"#utility.yul\":2831:2848   */\n      add\n        /* \"#utility.yul\":2822:2828   */\n      dup5\n        /* \"#utility.yul\":2778:2849   */\n      tag_92\n      jump\t// in\n    tag_153:\n        /* \"#utility.yul\":2634:2856   */\n      swap3\n      swap2\n      pop\n      pop\n      jump\t// out\n        /* \"#utility.yul\":2862:2979   */\n    tag_93:\n        /* \"#utility.yul\":2971:2972   */\n      0x00\n        /* \"#utility.yul\":2968:2969   */\n      dup1\n        /* \"#utility.yul\":2961:2973   */\n      revert\n        /* \"#utility.yul\":2985:3087   */\n    tag_94:\n        /* \"#utility.yul\":3026:3032   */\n      0x00\n        /* \"#utility.yul\":3077:3079   */\n      0x1f\n        /* \"#utility.yul\":3073:3080   */\n      not\n        /* \"#utility.yul\":3068:3070   */\n      0x1f\n        /* \"#utility.yul\":3061:3066   */\n      dup4\n        /* \"#utility.yul\":3057:3071   */\n      add\n        /* \"#utility.yul\":3053:3081   */\n      and\n        /* \"#utility.yul\":3043:3081   */\n      swap1\n      pop\n        /* \"#utility.yul\":2985:3087   */\n      swap2\n      swap1\n      pop\n      jump\t// out\n        /* \"#utility.yul\":3093:3273   */\n    tag_39:\n        /* \"#utility.yul\":3141:3218   */\n      0x4e487b7100000000000000000000000000000000000000000000000000000000\n        /* \"#utility.yul\":3138:3139   */\n      0x00\n        /* \"#utility.yul\":3131:3219   */\n      mstore\n        /* \"#utility.yul\":3238:3242   */\n      0x41\n        /* \"#utility.yul\":3235:3236   */\n      0x04\n        /* \"#utility.yul\":3228:3243   */\n      mstore\n        /* \"#utility.yul\":3262:3266   */\n      0x24\n        /* \"#utility.yul\":3259:3260   */\n      0x00\n        /* \"#utility.yul\":3252:3267   */\n      revert\n        /* \"#utility.yul\":3279:3560   */\n    tag_95:\n        /* \"#utility.yul\":3362:3389   */\n      tag_158\n        /* \"#utility.yul\":3384:3388   */\n      dup3\n        /* \"#utility.yul\":3362:3389   */\n      tag_94\n      jump\t// in\n    tag_158:\n        /* \"#utility.yul\":3354:3360   */\n      dup2\n        /* \"#utility.yul\":3350:3390   */\n      add\n        /* \"#utility.yul\":3492:3498   */\n      dup2\n        /* \"#utility.yul\":3480:3490   */\n      dup2\n        /* \"#utility.yul\":3477:3499   */\n      lt\n        /* \"#utility.yul\":3456:3474   */\n      0xffffffffffffffff\n        /* \"#utility.yul\":3444:3454   */\n      dup3\n        /* \"#utility.yul\":3441:3475   */\n      gt\n        /* \"#utility.yul\":3438:3500   */\n      or\n        /* \"#utility.yul\":3435:3523   */\n      iszero\n      tag_159\n      jumpi\n        /* \"#utility.yul\":3503:3521   */\n      tag_160\n      tag_39\n      jump\t// in\n    tag_160:\n        /* \"#utility.yul\":3435:3523   */\n    tag_159:\n        /* \"#utility.yul\":3543:3553   */\n      dup1\n        /* \"#utility.yul\":3539:3541   */\n      0x40\n        /* \"#utility.yul\":3532:3554   */\n      mstore\n        /* \"#utility.yul\":3322:3560   */\n      pop\n        /* \"#utility.yul\":3279:3560   */\n      pop\n      pop\n      jump\t// out\n        /* \"#utility.yul\":3566:3695   */\n    tag_96:\n        /* \"#utility.yul\":3600:3606   */\n      0x00\n        /* \"#utility.yul\":3627:3647   */\n      tag_162\n      tag_84\n      jump\t// in\n    tag_162:\n        /* \"#utility.yul\":3617:3647   */\n      swap1\n      pop\n        /* \"#utility.yul\":3656:3689   */\n      tag_163\n        /* \"#utility.yul\":3684:3688   */\n      dup3\n        /* \"#utility.yul\":3676:3682   */\n      dup3\n        /* \"#utility.yul\":3656:3689   */\n      tag_95\n      jump\t// in\n    tag_163:\n        /* \"#utility.yul\":3566:3695   */\n      swap2\n      swap1\n      pop\n      jump\t// out\n        /* \"#utility.yul\":3824:3967   */\n    tag_98:\n        /* \"#utility.yul\":3881:3886   */\n      0x00\n        /* \"#utility.yul\":3912:3918   */\n      dup2\n        /* \"#utility.yul\":3906:3919   */\n      mload\n        /* \"#utility.yul\":3897:3919   */\n      swap1\n      pop\n        /* \"#utility.yul\":3928:3961   */\n      tag_166\n        /* \"#utility.yul\":3955:3960   */\n      dup2\n        /* \"#utility.yul\":3928:3961   */\n      tag_88\n      jump\t// in\n    tag_166:\n        /* \"#utility.yul\":3824:3967   */\n      swap3\n      swap2\n      pop\n      pop\n      jump\t// out\n        /* \"#utility.yul\":4008:4623   */\n    tag_99:\n        /* \"#utility.yul\":4093:4098   */\n      0x00\n        /* \"#utility.yul\":4137:4141   */\n      0x40\n        /* \"#utility.yul\":4125:4134   */\n      dup3\n        /* \"#utility.yul\":4120:4123   */\n      dup5\n        /* \"#utility.yul\":4116:4135   */\n      sub\n        /* \"#utility.yul\":4112:4142   */\n      slt\n        /* \"#utility.yul\":4109:4226   */\n      iszero\n      tag_168\n      jumpi\n        /* \"#utility.yul\":4145:4224   */\n      tag_169\n      tag_93\n      jump\t// in\n    tag_169:\n        /* \"#utility.yul\":4109:4226   */\n    tag_168:\n        /* \"#utility.yul\":4244:4265   */\n      tag_170\n        /* \"#utility.yul\":4260:4264   */\n      0x40\n        /* \"#utility.yul\":4244:4265   */\n      tag_96\n      jump\t// in\n    tag_170:\n        /* \"#utility.yul\":4235:4265   */\n      swap1\n      pop\n        /* \"#utility.yul\":4326:4327   */\n      0x00\n        /* \"#utility.yul\":4366:4426   */\n      tag_171\n        /* \"#utility.yul\":4422:4425   */\n      dup5\n        /* \"#utility.yul\":4413:4419   */\n      dup3\n        /* \"#utility.yul\":4402:4411   */\n      dup6\n        /* \"#utility.yul\":4398:4420   */\n      add\n        /* \"#utility.yul\":4366:4426   */\n      tag_98\n      jump\t// in\n    tag_171:\n        /* \"#utility.yul\":4359:4363   */\n      0x00\n        /* \"#utility.yul\":4352:4357   */\n      dup4\n        /* \"#utility.yul\":4348:4364   */\n      add\n        /* \"#utility.yul\":4341:4427   */\n      mstore\n        /* \"#utility.yul\":4275:4438   */\n      pop\n        /* \"#utility.yul\":4503:4505   */\n      0x20\n        /* \"#utility.yul\":4544:4604   */\n      tag_172\n        /* \"#utility.yul\":4600:4603   */\n      dup5\n        /* \"#utility.yul\":4591:4597   */\n      dup3\n        /* \"#utility.yul\":4580:4589   */\n      dup6\n        /* \"#utility.yul\":4576:4598   */\n      add\n        /* \"#utility.yul\":4544:4604   */\n      tag_98\n      jump\t// in\n    tag_172:\n        /* \"#utility.yul\":4537:4541   */\n      0x20\n        /* \"#utility.yul\":4530:4535   */\n      dup4\n        /* \"#utility.yul\":4526:4542   */\n      add\n        /* \"#utility.yul\":4519:4605   */\n      mstore\n        /* \"#utility.yul\":4448:4616   */\n      pop\n        /* \"#utility.yul\":4008:4623   */\n      swap3\n      swap2\n      pop\n      pop\n      jump\t// out\n        /* \"#utility.yul\":4629:5030   */\n    tag_29:\n        /* \"#utility.yul\":4724:4730   */\n      0x00\n        /* \"#utility.yul\":4773:4775   */\n      0x40\n        /* \"#utility.yul\":4761:4770   */\n      dup3\n        /* \"#utility.yul\":4752:4759   */\n      dup5\n        /* \"#utility.yul\":4748:4771   */\n      sub\n        /* \"#utility.yul\":4744:4776   */\n      slt\n        /* \"#utility.yul\":4741:4860   */\n      iszero\n      tag_174\n      jumpi\n        /* \"#utility.yul\":4779:4858   */\n      tag_175\n      tag_85\n      jump\t// in\n    tag_175:\n        /* \"#utility.yul\":4741:4860   */\n    tag_174:\n        /* \"#utility.yul\":4899:4900   */\n      0x00\n        /* \"#utility.yul\":4924:5013   */\n      tag_176\n        /* \"#utility.yul\":5005:5012   */\n      dup5\n        /* \"#utility.yul\":4996:5002   */\n      dup3\n        /* \"#utility.yul\":4985:4994   */\n      dup6\n        /* \"#utility.yul\":4981:5003   */\n      add\n        /* \"#utility.yul\":4924:5013   */\n      tag_99\n      jump\t// in\n    tag_176:\n        /* \"#utility.yul\":4914:5013   */\n      swap2\n      pop\n        /* \"#utility.yul\":4870:5023   */\n      pop\n        /* \"#utility.yul\":4629:5030   */\n      swap3\n      swap2\n      pop\n      pop\n      jump\t// out\n        /* \"#utility.yul\":5036:5154   */\n    tag_100:\n        /* \"#utility.yul\":5123:5147   */\n      tag_178\n        /* \"#utility.yul\":5141:5146   */\n      dup2\n        /* \"#utility.yul\":5123:5147   */\n      tag_87\n      jump\t// in\n    tag_178:\n        /* \"#utility.yul\":5118:5121   */\n      dup3\n        /* \"#utility.yul\":5111:5148   */\n      mstore\n        /* \"#utility.yul\":5036:5154   */\n      pop\n      pop\n      jump\t// out\n        /* \"#utility.yul\":5160:5492   */\n    tag_31:\n        /* \"#utility.yul\":5281:5285   */\n      0x00\n        /* \"#utility.yul\":5319:5321   */\n      0x40\n        /* \"#utility.yul\":5308:5317   */\n      dup3\n        /* \"#utility.yul\":5304:5322   */\n      add\n        /* \"#utility.yul\":5296:5322   */\n      swap1\n      pop\n        /* \"#utility.yul\":5332:5403   */\n      tag_180\n        /* \"#utility.yul\":5400:5401   */\n      0x00\n        /* \"#utility.yul\":5389:5398   */\n      dup4\n        /* \"#utility.yul\":5385:5402   */\n      add\n        /* \"#utility.yul\":5376:5382   */\n      dup6\n        /* \"#utility.yul\":5332:5403   */\n      tag_100\n      jump\t// in\n    tag_180:\n        /* \"#utility.yul\":5413:5485   */\n      tag_181\n        /* \"#utility.yul\":5481:5483   */\n      0x20\n        /* \"#utility.yul\":5470:5479   */\n      dup4\n        /* \"#utility.yul\":5466:5484   */\n      add\n        /* \"#utility.yul\":5457:5463   */\n      dup5\n        /* \"#utility.yul\":5413:5485   */\n      tag_100\n      jump\t// in\n    tag_181:\n        /* \"#utility.yul\":5160:5492   */\n      swap4\n      swap3\n      pop\n      pop\n      pop\n      jump\t// out\n        /* \"#utility.yul\":5498:5678   */\n    tag_43:\n        /* \"#utility.yul\":5546:5623   */\n      0x4e487b7100000000000000000000000000000000000000000000000000000000\n        /* \"#utility.yul\":5543:5544   */\n      0x00\n        /* \"#utility.yul\":5536:5624   */\n      mstore\n        /* \"#utility.yul\":5643:5647   */\n      0x32\n        /* \"#utility.yul\":5640:5641   */\n      0x04\n        /* \"#utility.yul\":5633:5648   */\n      mstore\n        /* \"#utility.yul\":5667:5671   */\n      0x24\n        /* \"#utility.yul\":5664:5665   */\n      0x00\n        /* \"#utility.yul\":5657:5672   */\n      revert\n        /* \"#utility.yul\":5684:5798   */\n    tag_101:\n        /* \"#utility.yul\":5751:5757   */\n      0x00\n        /* \"#utility.yul\":5785:5790   */\n      dup2\n        /* \"#utility.yul\":5779:5791   */\n      mload\n        /* \"#utility.yul\":5769:5791   */\n      swap1\n      pop\n        /* \"#utility.yul\":5684:5798   */\n      swap2\n      swap1\n      pop\n      jump\t// out\n        /* \"#utility.yul\":5804:5988   */\n    tag_102:\n        /* \"#utility.yul\":5903:5914   */\n      0x00\n        /* \"#utility.yul\":5937:5943   */\n      dup3\n        /* \"#utility.yul\":5932:5935   */\n      dup3\n        /* \"#utility.yul\":5925:5944   */\n      mstore\n        /* \"#utility.yul\":5977:5981   */\n      0x20\n        /* \"#utility.yul\":5972:5975   */\n      dup3\n        /* \"#utility.yul\":5968:5982   */\n      add\n        /* \"#utility.yul\":5953:5982   */\n      swap1\n      pop\n        /* \"#utility.yul\":5804:5988   */\n      swap3\n      swap2\n      pop\n      pop\n      jump\t// out\n        /* \"#utility.yul\":5994:6126   */\n    tag_103:\n        /* \"#utility.yul\":6061:6065   */\n      0x00\n        /* \"#utility.yul\":6084:6087   */\n      dup2\n        /* \"#utility.yul\":6076:6087   */\n      swap1\n      pop\n        /* \"#utility.yul\":6114:6118   */\n      0x20\n        /* \"#utility.yul\":6109:6112   */\n      dup3\n        /* \"#utility.yul\":6105:6119   */\n      add\n        /* \"#utility.yul\":6097:6119   */\n      swap1\n      pop\n        /* \"#utility.yul\":5994:6126   */\n      swap2\n      swap1\n      pop\n      jump\t// out\n        /* \"#utility.yul\":6132:6240   */\n    tag_104:\n        /* \"#utility.yul\":6209:6233   */\n      tag_187\n        /* \"#utility.yul\":6227:6232   */\n      dup2\n        /* \"#utility.yul\":6209:6233   */\n      tag_91\n      jump\t// in\n    tag_187:\n        /* \"#utility.yul\":6204:6207   */\n      dup3\n        /* \"#utility.yul\":6197:6234   */\n      mstore\n        /* \"#utility.yul\":6132:6240   */\n      pop\n      pop\n      jump\t// out\n        /* \"#utility.yul\":6246:6425   */\n    tag_105:\n        /* \"#utility.yul\":6315:6325   */\n      0x00\n        /* \"#utility.yul\":6336:6382   */\n      tag_189\n        /* \"#utility.yul\":6378:6381   */\n      dup4\n        /* \"#utility.yul\":6370:6376   */\n      dup4\n        /* \"#utility.yul\":6336:6382   */\n      tag_104\n      jump\t// in\n    tag_189:\n        /* \"#utility.yul\":6414:6418   */\n      0x20\n        /* \"#utility.yul\":6409:6412   */\n      dup4\n        /* \"#utility.yul\":6405:6419   */\n      add\n        /* \"#utility.yul\":6391:6419   */\n      swap1\n      pop\n        /* \"#utility.yul\":6246:6425   */\n      swap3\n      swap2\n      pop\n      pop\n      jump\t// out\n        /* \"#utility.yul\":6431:6544   */\n    tag_106:\n        /* \"#utility.yul\":6501:6505   */\n      0x00\n        /* \"#utility.yul\":6533:6537   */\n      0x20\n        /* \"#utility.yul\":6528:6531   */\n      dup3\n        /* \"#utility.yul\":6524:6538   */\n      add\n        /* \"#utility.yul\":6516:6538   */\n      swap1\n      pop\n        /* \"#utility.yul\":6431:6544   */\n      swap2\n      swap1\n      pop\n      jump\t// out\n        /* \"#utility.yul\":6580:7312   */\n    tag_107:\n        /* \"#utility.yul\":6699:6702   */\n      0x00\n        /* \"#utility.yul\":6728:6782   */\n      tag_192\n        /* \"#utility.yul\":6776:6781   */\n      dup3\n        /* \"#utility.yul\":6728:6782   */\n      tag_101\n      jump\t// in\n    tag_192:\n        /* \"#utility.yul\":6798:6884   */\n      tag_193\n        /* \"#utility.yul\":6877:6883   */\n      dup2\n        /* \"#utility.yul\":6872:6875   */\n      dup6\n        /* \"#utility.yul\":6798:6884   */\n      tag_102\n      jump\t// in\n    tag_193:\n        /* \"#utility.yul\":6791:6884   */\n      swap4\n      pop\n        /* \"#utility.yul\":6908:6964   */\n      tag_194\n        /* \"#utility.yul\":6958:6963   */\n      dup4\n        /* \"#utility.yul\":6908:6964   */\n      tag_103\n      jump\t// in\n    tag_194:\n        /* \"#utility.yul\":6987:6994   */\n      dup1\n        /* \"#utility.yul\":7018:7019   */\n      0x00\n        /* \"#utility.yul\":7003:7287   */\n    tag_195:\n        /* \"#utility.yul\":7028:7034   */\n      dup4\n        /* \"#utility.yul\":7025:7026   */\n      dup2\n        /* \"#utility.yul\":7022:7035   */\n      lt\n        /* \"#utility.yul\":7003:7287   */\n      iszero\n      tag_197\n      jumpi\n        /* \"#utility.yul\":7104:7110   */\n      dup2\n        /* \"#utility.yul\":7098:7111   */\n      mload\n        /* \"#utility.yul\":7131:7194   */\n      tag_198\n        /* \"#utility.yul\":7190:7193   */\n      dup9\n        /* \"#utility.yul\":7175:7188   */\n      dup3\n        /* \"#utility.yul\":7131:7194   */\n      tag_105\n      jump\t// in\n    tag_198:\n        /* \"#utility.yul\":7124:7194   */\n      swap8\n      pop\n        /* \"#utility.yul\":7217:7277   */\n      tag_199\n        /* \"#utility.yul\":7270:7276   */\n      dup4\n        /* \"#utility.yul\":7217:7277   */\n      tag_106\n      jump\t// in\n    tag_199:\n        /* \"#utility.yul\":7207:7277   */\n      swap3\n      pop\n        /* \"#utility.yul\":7063:7287   */\n      pop\n        /* \"#utility.yul\":7050:7051   */\n      0x01\n        /* \"#utility.yul\":7047:7048   */\n      dup2\n        /* \"#utility.yul\":7043:7052   */\n      add\n        /* \"#utility.yul\":7038:7052   */\n      swap1\n      pop\n        /* \"#utility.yul\":7003:7287   */\n      jump(tag_195)\n    tag_197:\n        /* \"#utility.yul\":7007:7021   */\n      pop\n        /* \"#utility.yul\":7303:7306   */\n      dup6\n        /* \"#utility.yul\":7296:7306   */\n      swap4\n      pop\n        /* \"#utility.yul\":6704:7312   */\n      pop\n      pop\n      pop\n        /* \"#utility.yul\":6580:7312   */\n      swap3\n      swap2\n      pop\n      pop\n      jump\t// out\n        /* \"#utility.yul\":7318:8022   */\n    tag_47:\n        /* \"#utility.yul\":7545:7549   */\n      0x00\n        /* \"#utility.yul\":7583:7586   */\n      0x80\n        /* \"#utility.yul\":7572:7581   */\n      dup3\n        /* \"#utility.yul\":7568:7587   */\n      add\n        /* \"#utility.yul\":7560:7587   */\n      swap1\n      pop\n        /* \"#utility.yul\":7597:7668   */\n      tag_201\n        /* \"#utility.yul\":7665:7666   */\n      0x00\n        /* \"#utility.yul\":7654:7663   */\n      dup4\n        /* \"#utility.yul\":7650:7667   */\n      add\n        /* \"#utility.yul\":7641:7647   */\n      dup8\n        /* \"#utility.yul\":7597:7668   */\n      tag_100\n      jump\t// in\n    tag_201:\n        /* \"#utility.yul\":7715:7724   */\n      dup2\n        /* \"#utility.yul\":7709:7713   */\n      dup2\n        /* \"#utility.yul\":7705:7725   */\n      sub\n        /* \"#utility.yul\":7700:7702   */\n      0x20\n        /* \"#utility.yul\":7689:7698   */\n      dup4\n        /* \"#utility.yul\":7685:7703   */\n      add\n        /* \"#utility.yul\":7678:7726   */\n      mstore\n        /* \"#utility.yul\":7743:7851   */\n      tag_202\n        /* \"#utility.yul\":7846:7850   */\n      dup2\n        /* \"#utility.yul\":7837:7843   */\n      dup7\n        /* \"#utility.yul\":7743:7851   */\n      tag_107\n      jump\t// in\n    tag_202:\n        /* \"#utility.yul\":7735:7851   */\n      swap1\n      pop\n        /* \"#utility.yul\":7861:7933   */\n      tag_203\n        /* \"#utility.yul\":7929:7931   */\n      0x40\n        /* \"#utility.yul\":7918:7927   */\n      dup4\n        /* \"#utility.yul\":7914:7932   */\n      add\n        /* \"#utility.yul\":7905:7911   */\n      dup6\n        /* \"#utility.yul\":7861:7933   */\n      tag_92\n      jump\t// in\n    tag_203:\n        /* \"#utility.yul\":7943:8015   */\n      tag_204\n        /* \"#utility.yul\":8011:8013   */\n      0x60\n        /* \"#utility.yul\":8000:8009   */\n      dup4\n        /* \"#utility.yul\":7996:8014   */\n      add\n        /* \"#utility.yul\":7987:7993   */\n      dup5\n        /* \"#utility.yul\":7943:8015   */\n      tag_100\n      jump\t// in\n    tag_204:\n        /* \"#utility.yul\":7318:8022   */\n      swap6\n      swap5\n      pop\n      pop\n      pop\n      pop\n      pop\n      jump\t// out\n        /* \"#utility.yul\":8028:8145   */\n    tag_108:\n        /* \"#utility.yul\":8137:8138   */\n      0x00\n        /* \"#utility.yul\":8134:8135   */\n      dup1\n        /* \"#utility.yul\":8127:8139   */\n      revert\n        /* \"#utility.yul\":8151:8462   */\n    tag_109:\n        /* \"#utility.yul\":8228:8232   */\n      0x00\n        /* \"#utility.yul\":8318:8336   */\n      0xffffffffffffffff\n        /* \"#utility.yul\":8310:8316   */\n      dup3\n        /* \"#utility.yul\":8307:8337   */\n      gt\n        /* \"#utility.yul\":8304:8360   */\n      iszero\n      tag_207\n      jumpi\n        /* \"#utility.yul\":8340:8358   */\n      tag_208\n      tag_39\n      jump\t// in\n    tag_208:\n        /* \"#utility.yul\":8304:8360   */\n    tag_207:\n        /* \"#utility.yul\":8390:8394   */\n      0x20\n        /* \"#utility.yul\":8382:8388   */\n      dup3\n        /* \"#utility.yul\":8378:8395   */\n      mul\n        /* \"#utility.yul\":8370:8395   */\n      swap1\n      pop\n        /* \"#utility.yul\":8450:8454   */\n      0x20\n        /* \"#utility.yul\":8444:8448   */\n      dup2\n        /* \"#utility.yul\":8440:8455   */\n      add\n        /* \"#utility.yul\":8432:8455   */\n      swap1\n      pop\n        /* \"#utility.yul\":8151:8462   */\n      swap2\n      swap1\n      pop\n      jump\t// out\n        /* \"#utility.yul\":8468:8585   */\n    tag_110:\n        /* \"#utility.yul\":8577:8578   */\n      0x00\n        /* \"#utility.yul\":8574:8575   */\n      dup1\n        /* \"#utility.yul\":8567:8579   */\n      revert\n        /* \"#utility.yul\":8608:9340   */\n    tag_111:\n        /* \"#utility.yul\":8715:8720   */\n      0x00\n        /* \"#utility.yul\":8740:8821   */\n      tag_211\n        /* \"#utility.yul\":8756:8820   */\n      tag_212\n        /* \"#utility.yul\":8813:8819   */\n      dup5\n        /* \"#utility.yul\":8756:8820   */\n      tag_109\n      jump\t// in\n    tag_212:\n        /* \"#utility.yul\":8740:8821   */\n      tag_96\n      jump\t// in\n    tag_211:\n        /* \"#utility.yul\":8731:8821   */\n      swap1\n      pop\n        /* \"#utility.yul\":8841:8846   */\n      dup1\n        /* \"#utility.yul\":8870:8876   */\n      dup4\n        /* \"#utility.yul\":8863:8868   */\n      dup3\n        /* \"#utility.yul\":8856:8877   */\n      mstore\n        /* \"#utility.yul\":8904:8908   */\n      0x20\n        /* \"#utility.yul\":8897:8902   */\n      dup3\n        /* \"#utility.yul\":8893:8909   */\n      add\n        /* \"#utility.yul\":8886:8909   */\n      swap1\n      pop\n        /* \"#utility.yul\":8957:8961   */\n      0x20\n        /* \"#utility.yul\":8949:8955   */\n      dup5\n        /* \"#utility.yul\":8945:8962   */\n      mul\n        /* \"#utility.yul\":8937:8943   */\n      dup4\n        /* \"#utility.yul\":8933:8963   */\n      add\n        /* \"#utility.yul\":8986:8989   */\n      dup6\n        /* \"#utility.yul\":8978:8984   */\n      dup2\n        /* \"#utility.yul\":8975:8990   */\n      gt\n        /* \"#utility.yul\":8972:9094   */\n      iszero\n      tag_213\n      jumpi\n        /* \"#utility.yul\":9005:9084   */\n      tag_214\n      tag_110\n      jump\t// in\n    tag_214:\n        /* \"#utility.yul\":8972:9094   */\n    tag_213:\n        /* \"#utility.yul\":9120:9126   */\n      dup4\n        /* \"#utility.yul\":9103:9334   */\n    tag_215:\n        /* \"#utility.yul\":9137:9143   */\n      dup2\n        /* \"#utility.yul\":9132:9135   */\n      dup2\n        /* \"#utility.yul\":9129:9144   */\n      lt\n        /* \"#utility.yul\":9103:9334   */\n      iszero\n      tag_217\n      jumpi\n        /* \"#utility.yul\":9212:9215   */\n      dup1\n        /* \"#utility.yul\":9241:9289   */\n      tag_218\n        /* \"#utility.yul\":9285:9288   */\n      dup9\n        /* \"#utility.yul\":9273:9283   */\n      dup3\n        /* \"#utility.yul\":9241:9289   */\n      tag_98\n      jump\t// in\n    tag_218:\n        /* \"#utility.yul\":9236:9239   */\n      dup5\n        /* \"#utility.yul\":9229:9290   */\n      mstore\n        /* \"#utility.yul\":9319:9323   */\n      0x20\n        /* \"#utility.yul\":9314:9317   */\n      dup5\n        /* \"#utility.yul\":9310:9324   */\n      add\n        /* \"#utility.yul\":9303:9324   */\n      swap4\n      pop\n        /* \"#utility.yul\":9179:9334   */\n      pop\n        /* \"#utility.yul\":9163:9167   */\n      0x20\n        /* \"#utility.yul\":9158:9161   */\n      dup2\n        /* \"#utility.yul\":9154:9168   */\n      add\n        /* \"#utility.yul\":9147:9168   */\n      swap1\n      pop\n        /* \"#utility.yul\":9103:9334   */\n      jump(tag_215)\n    tag_217:\n        /* \"#utility.yul\":9107:9128   */\n      pop\n        /* \"#utility.yul\":8721:9340   */\n      pop\n      pop\n        /* \"#utility.yul\":8608:9340   */\n      swap4\n      swap3\n      pop\n      pop\n      pop\n      jump\t// out\n        /* \"#utility.yul\":9363:9748   */\n    tag_112:\n        /* \"#utility.yul\":9445:9450   */\n      0x00\n        /* \"#utility.yul\":9494:9497   */\n      dup3\n        /* \"#utility.yul\":9487:9491   */\n      0x1f\n        /* \"#utility.yul\":9479:9485   */\n      dup4\n        /* \"#utility.yul\":9475:9492   */\n      add\n        /* \"#utility.yul\":9471:9498   */\n      slt\n        /* \"#utility.yul\":9461:9583   */\n      tag_220\n      jumpi\n        /* \"#utility.yul\":9502:9581   */\n      tag_221\n      tag_108\n      jump\t// in\n    tag_221:\n        /* \"#utility.yul\":9461:9583   */\n    tag_220:\n        /* \"#utility.yul\":9612:9618   */\n      dup2\n        /* \"#utility.yul\":9606:9619   */\n      mload\n        /* \"#utility.yul\":9637:9742   */\n      tag_222\n        /* \"#utility.yul\":9738:9741   */\n      dup5\n        /* \"#utility.yul\":9730:9736   */\n      dup3\n        /* \"#utility.yul\":9723:9727   */\n      0x20\n        /* \"#utility.yul\":9715:9721   */\n      dup7\n        /* \"#utility.yul\":9711:9728   */\n      add\n        /* \"#utility.yul\":9637:9742   */\n      tag_111\n      jump\t// in\n    tag_222:\n        /* \"#utility.yul\":9628:9742   */\n      swap2\n      pop\n        /* \"#utility.yul\":9451:9748   */\n      pop\n        /* \"#utility.yul\":9363:9748   */\n      swap3\n      swap2\n      pop\n      pop\n      jump\t// out\n        /* \"#utility.yul\":9754:10308   */\n    tag_51:\n        /* \"#utility.yul\":9849:9855   */\n      0x00\n        /* \"#utility.yul\":9898:9900   */\n      0x20\n        /* \"#utility.yul\":9886:9895   */\n      dup3\n        /* \"#utility.yul\":9877:9884   */\n      dup5\n        /* \"#utility.yul\":9873:9896   */\n      sub\n        /* \"#utility.yul\":9869:9901   */\n      slt\n        /* \"#utility.yul\":9866:9985   */\n      iszero\n      tag_224\n      jumpi\n        /* \"#utility.yul\":9904:9983   */\n      tag_225\n      tag_85\n      jump\t// in\n    tag_225:\n        /* \"#utility.yul\":9866:9985   */\n    tag_224:\n        /* \"#utility.yul\":10045:10046   */\n      0x00\n        /* \"#utility.yul\":10034:10043   */\n      dup3\n        /* \"#utility.yul\":10030:10047   */\n      add\n        /* \"#utility.yul\":10024:10048   */\n      mload\n        /* \"#utility.yul\":10075:10093   */\n      0xffffffffffffffff\n        /* \"#utility.yul\":10067:10073   */\n      dup2\n        /* \"#utility.yul\":10064:10094   */\n      gt\n        /* \"#utility.yul\":10061:10178   */\n      iszero\n      tag_226\n      jumpi\n        /* \"#utility.yul\":10097:10176   */\n      tag_227\n      tag_86\n      jump\t// in\n    tag_227:\n        /* \"#utility.yul\":10061:10178   */\n    tag_226:\n        /* \"#utility.yul\":10202:10291   */\n      tag_228\n        /* \"#utility.yul\":10283:10290   */\n      dup5\n        /* \"#utility.yul\":10274:10280   */\n      dup3\n        /* \"#utility.yul\":10263:10272   */\n      dup6\n        /* \"#utility.yul\":10259:10281   */\n      add\n        /* \"#utility.yul\":10202:10291   */\n      tag_112\n      jump\t// in\n    tag_228:\n        /* \"#utility.yul\":10192:10291   */\n      swap2\n      pop\n        /* \"#utility.yul\":9995:10301   */\n      pop\n        /* \"#utility.yul\":9754:10308   */\n      swap3\n      swap2\n      pop\n      pop\n      jump\t// out\n        /* \"#utility.yul\":10314:10646   */\n    tag_54:\n        /* \"#utility.yul\":10435:10439   */\n      0x00\n        /* \"#utility.yul\":10473:10475   */\n      0x40\n        /* \"#utility.yul\":10462:10471   */\n      dup3\n        /* \"#utility.yul\":10458:10476   */\n      add\n        /* \"#utility.yul\":10450:10476   */\n      swap1\n      pop\n        /* \"#utility.yul\":10486:10557   */\n      tag_230\n        /* \"#utility.yul\":10554:10555   */\n      0x00\n        /* \"#utility.yul\":10543:10552   */\n      dup4\n        /* \"#utility.yul\":10539:10556   */\n      add\n        /* \"#utility.yul\":10530:10536   */\n      dup6\n        /* \"#utility.yul\":10486:10557   */\n      tag_92\n      jump\t// in\n    tag_230:\n        /* \"#utility.yul\":10567:10639   */\n      tag_231\n        /* \"#utility.yul\":10635:10637   */\n      0x20\n        /* \"#utility.yul\":10624:10633   */\n      dup4\n        /* \"#utility.yul\":10620:10638   */\n      add\n        /* \"#utility.yul\":10611:10617   */\n      dup5\n        /* \"#utility.yul\":10567:10639   */\n      tag_100\n      jump\t// in\n    tag_231:\n        /* \"#utility.yul\":10314:10646   */\n      swap4\n      swap3\n      pop\n      pop\n      pop\n      jump\t// out\n        /* \"#utility.yul\":10652:10742   */\n    tag_113:\n        /* \"#utility.yul\":10686:10693   */\n      0x00\n        /* \"#utility.yul\":10729:10734   */\n      dup2\n        /* \"#utility.yul\":10722:10735   */\n      iszero\n        /* \"#utility.yul\":10715:10736   */\n      iszero\n        /* \"#utility.yul\":10704:10736   */\n      swap1\n      pop\n        /* \"#utility.yul\":10652:10742   */\n      swap2\n      swap1\n      pop\n      jump\t// out\n        /* \"#utility.yul\":10748:10864   */\n    tag_114:\n        /* \"#utility.yul\":10818:10839   */\n      tag_234\n        /* \"#utility.yul\":10833:10838   */\n      dup2\n        /* \"#utility.yul\":10818:10839   */\n      tag_113\n      jump\t// in\n    tag_234:\n        /* \"#utility.yul\":10811:10816   */\n      dup2\n        /* \"#utility.yul\":10808:10840   */\n      eq\n        /* \"#utility.yul\":10798:10858   */\n      tag_235\n      jumpi\n        /* \"#utility.yul\":10854:10855   */\n      0x00\n        /* \"#utility.yul\":10851:10852   */\n      dup1\n        /* \"#utility.yul\":10844:10856   */\n      revert\n        /* \"#utility.yul\":10798:10858   */\n    tag_235:\n        /* \"#utility.yul\":10748:10864   */\n      pop\n      jump\t// out\n        /* \"#utility.yul\":10870:11007   */\n    tag_115:\n        /* \"#utility.yul\":10924:10929   */\n      0x00\n        /* \"#utility.yul\":10955:10961   */\n      dup2\n        /* \"#utility.yul\":10949:10962   */\n      mload\n        /* \"#utility.yul\":10940:10962   */\n      swap1\n      pop\n        /* \"#utility.yul\":10971:11001   */\n      tag_237\n        /* \"#utility.yul\":10995:11000   */\n      dup2\n        /* \"#utility.yul\":10971:11001   */\n      tag_114\n      jump\t// in\n    tag_237:\n        /* \"#utility.yul\":10870:11007   */\n      swap3\n      swap2\n      pop\n      pop\n      jump\t// out\n        /* \"#utility.yul\":11013:11358   */\n    tag_58:\n        /* \"#utility.yul\":11080:11086   */\n      0x00\n        /* \"#utility.yul\":11129:11131   */\n      0x20\n        /* \"#utility.yul\":11117:11126   */\n      dup3\n        /* \"#utility.yul\":11108:11115   */\n      dup5\n        /* \"#utility.yul\":11104:11127   */\n      sub\n        /* \"#utility.yul\":11100:11132   */\n      slt\n        /* \"#utility.yul\":11097:11216   */\n      iszero\n      tag_239\n      jumpi\n        /* \"#utility.yul\":11135:11214   */\n      tag_240\n      tag_85\n      jump\t// in\n    tag_240:\n        /* \"#utility.yul\":11097:11216   */\n    tag_239:\n        /* \"#utility.yul\":11255:11256   */\n      0x00\n        /* \"#utility.yul\":11280:11341   */\n      tag_241\n        /* \"#utility.yul\":11333:11340   */\n      dup5\n        /* \"#utility.yul\":11324:11330   */\n      dup3\n        /* \"#utility.yul\":11313:11322   */\n      dup6\n        /* \"#utility.yul\":11309:11331   */\n      add\n        /* \"#utility.yul\":11280:11341   */\n      tag_115\n      jump\t// in\n    tag_241:\n        /* \"#utility.yul\":11270:11341   */\n      swap2\n      pop\n        /* \"#utility.yul\":11226:11351   */\n      pop\n        /* \"#utility.yul\":11013:11358   */\n      swap3\n      swap2\n      pop\n      pop\n      jump\t// out\n        /* \"#utility.yul\":11364:11806   */\n    tag_60:\n        /* \"#utility.yul\":11513:11517   */\n      0x00\n        /* \"#utility.yul\":11551:11553   */\n      0x60\n        /* \"#utility.yul\":11540:11549   */\n      dup3\n        /* \"#utility.yul\":11536:11554   */\n      add\n        /* \"#utility.yul\":11528:11554   */\n      swap1\n      pop\n        /* \"#utility.yul\":11564:11635   */\n      tag_243\n        /* \"#utility.yul\":11632:11633   */\n      0x00\n        /* \"#utility.yul\":11621:11630   */\n      dup4\n        /* \"#utility.yul\":11617:11634   */\n      add\n        /* \"#utility.yul\":11608:11614   */\n      dup7\n        /* \"#utility.yul\":11564:11635   */\n      tag_92\n      jump\t// in\n    tag_243:\n        /* \"#utility.yul\":11645:11717   */\n      tag_244\n        /* \"#utility.yul\":11713:11715   */\n      0x20\n        /* \"#utility.yul\":11702:11711   */\n      dup4\n        /* \"#utility.yul\":11698:11716   */\n      add\n        /* \"#utility.yul\":11689:11695   */\n      dup6\n        /* \"#utility.yul\":11645:11717   */\n      tag_92\n      jump\t// in\n    tag_244:\n        /* \"#utility.yul\":11727:11799   */\n      tag_245\n        /* \"#utility.yul\":11795:11797   */\n      0x40\n        /* \"#utility.yul\":11784:11793   */\n      dup4\n        /* \"#utility.yul\":11780:11798   */\n      add\n        /* \"#utility.yul\":11771:11777   */\n      dup5\n        /* \"#utility.yul\":11727:11799   */\n      tag_100\n      jump\t// in\n    tag_245:\n        /* \"#utility.yul\":11364:11806   */\n      swap5\n      swap4\n      pop\n      pop\n      pop\n      pop\n      jump\t// out\n        /* \"#utility.yul\":11812:11981   */\n    tag_116:\n        /* \"#utility.yul\":11896:11907   */\n      0x00\n        /* \"#utility.yul\":11930:11936   */\n      dup3\n        /* \"#utility.yul\":11925:11928   */\n      dup3\n        /* \"#utility.yul\":11918:11937   */\n      mstore\n        /* \"#utility.yul\":11970:11974   */\n      0x20\n        /* \"#utility.yul\":11965:11968   */\n      dup3\n        /* \"#utility.yul\":11961:11975   */\n      add\n        /* \"#utility.yul\":11946:11975   */\n      swap1\n      pop\n        /* \"#utility.yul\":11812:11981   */\n      swap3\n      swap2\n      pop\n      pop\n      jump\t// out\n        /* \"#utility.yul\":11987:12159   */\n    tag_117:\n        /* \"#utility.yul\":12127:12151   */\n      0x6d746f6b656e207472616e73666572206572726f722100000000000000000000\n        /* \"#utility.yul\":12123:12124   */\n      0x00\n        /* \"#utility.yul\":12115:12121   */\n      dup3\n        /* \"#utility.yul\":12111:12125   */\n      add\n        /* \"#utility.yul\":12104:12152   */\n      mstore\n        /* \"#utility.yul\":11987:12159   */\n      pop\n      jump\t// out\n        /* \"#utility.yul\":12165:12531   */\n    tag_118:\n        /* \"#utility.yul\":12307:12310   */\n      0x00\n        /* \"#utility.yul\":12328:12395   */\n      tag_249\n        /* \"#utility.yul\":12392:12394   */\n      0x16\n        /* \"#utility.yul\":12387:12390   */\n      dup4\n        /* \"#utility.yul\":12328:12395   */\n      tag_116\n      jump\t// in\n    tag_249:\n        /* \"#utility.yul\":12321:12395   */\n      swap2\n      pop\n        /* \"#utility.yul\":12404:12497   */\n      tag_250\n        /* \"#utility.yul\":12493:12496   */\n      dup3\n        /* \"#utility.yul\":12404:12497   */\n      tag_117\n      jump\t// in\n    tag_250:\n        /* \"#utility.yul\":12522:12524   */\n      0x20\n        /* \"#utility.yul\":12517:12520   */\n      dup3\n        /* \"#utility.yul\":12513:12525   */\n      add\n        /* \"#utility.yul\":12506:12525   */\n      swap1\n      pop\n        /* \"#utility.yul\":12165:12531   */\n      swap2\n      swap1\n      pop\n      jump\t// out\n        /* \"#utility.yul\":12537:12956   */\n    tag_66:\n        /* \"#utility.yul\":12703:12707   */\n      0x00\n        /* \"#utility.yul\":12741:12743   */\n      0x20\n        /* \"#utility.yul\":12730:12739   */\n      dup3\n        /* \"#utility.yul\":12726:12744   */\n      add\n        /* \"#utility.yul\":12718:12744   */\n      swap1\n      pop\n        /* \"#utility.yul\":12790:12799   */\n      dup2\n        /* \"#utility.yul\":12784:12788   */\n      dup2\n        /* \"#utility.yul\":12780:12800   */\n      sub\n        /* \"#utility.yul\":12776:12777   */\n      0x00\n        /* \"#utility.yul\":12765:12774   */\n      dup4\n        /* \"#utility.yul\":12761:12778   */\n      add\n        /* \"#utility.yul\":12754:12801   */\n      mstore\n        /* \"#utility.yul\":12818:12949   */\n      tag_252\n        /* \"#utility.yul\":12944:12948   */\n      dup2\n        /* \"#utility.yul\":12818:12949   */\n      tag_118\n      jump\t// in\n    tag_252:\n        /* \"#utility.yul\":12810:12949   */\n      swap1\n      pop\n        /* \"#utility.yul\":12537:12956   */\n      swap2\n      swap1\n      pop\n      jump\t// out\n        /* \"#utility.yul\":12962:13191   */\n    tag_119:\n        /* \"#utility.yul\":13102:13136   */\n      0x6d73672e76616c75652073686f756c642062696767676572207468616e20616d\n        /* \"#utility.yul\":13098:13099   */\n      0x00\n        /* \"#utility.yul\":13090:13096   */\n      dup3\n        /* \"#utility.yul\":13086:13100   */\n      add\n        /* \"#utility.yul\":13079:13137   */\n      mstore\n        /* \"#utility.yul\":13171:13183   */\n      0x6f756e744554484d696e00000000000000000000000000000000000000000000\n        /* \"#utility.yul\":13166:13168   */\n      0x20\n        /* \"#utility.yul\":13158:13164   */\n      dup3\n        /* \"#utility.yul\":13154:13169   */\n      add\n        /* \"#utility.yul\":13147:13184   */\n      mstore\n        /* \"#utility.yul\":12962:13191   */\n      pop\n      jump\t// out\n        /* \"#utility.yul\":13197:13563   */\n    tag_120:\n        /* \"#utility.yul\":13339:13342   */\n      0x00\n        /* \"#utility.yul\":13360:13427   */\n      tag_255\n        /* \"#utility.yul\":13424:13426   */\n      0x2a\n        /* \"#utility.yul\":13419:13422   */\n      dup4\n        /* \"#utility.yul\":13360:13427   */\n      tag_116\n      jump\t// in\n    tag_255:\n        /* \"#utility.yul\":13353:13427   */\n      swap2\n      pop\n        /* \"#utility.yul\":13436:13529   */\n      tag_256\n        /* \"#utility.yul\":13525:13528   */\n      dup3\n        /* \"#utility.yul\":13436:13529   */\n      tag_119\n      jump\t// in\n    tag_256:\n        /* \"#utility.yul\":13554:13556   */\n      0x40\n        /* \"#utility.yul\":13549:13552   */\n      dup3\n        /* \"#utility.yul\":13545:13557   */\n      add\n        /* \"#utility.yul\":13538:13557   */\n      swap1\n      pop\n        /* \"#utility.yul\":13197:13563   */\n      swap2\n      swap1\n      pop\n      jump\t// out\n        /* \"#utility.yul\":13569:13988   */\n    tag_69:\n        /* \"#utility.yul\":13735:13739   */\n      0x00\n        /* \"#utility.yul\":13773:13775   */\n      0x20\n        /* \"#utility.yul\":13762:13771   */\n      dup3\n        /* \"#utility.yul\":13758:13776   */\n      add\n        /* \"#utility.yul\":13750:13776   */\n      swap1\n      pop\n        /* \"#utility.yul\":13822:13831   */\n      dup2\n        /* \"#utility.yul\":13816:13820   */\n      dup2\n        /* \"#utility.yul\":13812:13832   */\n      sub\n        /* \"#utility.yul\":13808:13809   */\n      0x00\n        /* \"#utility.yul\":13797:13806   */\n      dup4\n        /* \"#utility.yul\":13793:13810   */\n      add\n        /* \"#utility.yul\":13786:13833   */\n      mstore\n        /* \"#utility.yul\":13850:13981   */\n      tag_258\n        /* \"#utility.yul\":13976:13980   */\n      dup2\n        /* \"#utility.yul\":13850:13981   */\n      tag_120\n      jump\t// in\n    tag_258:\n        /* \"#utility.yul\":13842:13981   */\n      swap1\n      pop\n        /* \"#utility.yul\":13569:13988   */\n      swap2\n      swap1\n      pop\n      jump\t// out\n        /* \"#utility.yul\":13994:14769   */\n    tag_71:\n        /* \"#utility.yul\":14227:14231   */\n      0x00\n        /* \"#utility.yul\":14265:14268   */\n      0xc0\n        /* \"#utility.yul\":14254:14263   */\n      dup3\n        /* \"#utility.yul\":14250:14269   */\n      add\n        /* \"#utility.yul\":14242:14269   */\n      swap1\n      pop\n        /* \"#utility.yul\":14279:14350   */\n      tag_260\n        /* \"#utility.yul\":14347:14348   */\n      0x00\n        /* \"#utility.yul\":14336:14345   */\n      dup4\n        /* \"#utility.yul\":14332:14349   */\n      add\n        /* \"#utility.yul\":14323:14329   */\n      dup10\n        /* \"#utility.yul\":14279:14350   */\n      tag_92\n      jump\t// in\n    tag_260:\n        /* \"#utility.yul\":14360:14432   */\n      tag_261\n        /* \"#utility.yul\":14428:14430   */\n      0x20\n        /* \"#utility.yul\":14417:14426   */\n      dup4\n        /* \"#utility.yul\":14413:14431   */\n      add\n        /* \"#utility.yul\":14404:14410   */\n      dup9\n        /* \"#utility.yul\":14360:14432   */\n      tag_100\n      jump\t// in\n    tag_261:\n        /* \"#utility.yul\":14442:14514   */\n      tag_262\n        /* \"#utility.yul\":14510:14512   */\n      0x40\n        /* \"#utility.yul\":14499:14508   */\n      dup4\n        /* \"#utility.yul\":14495:14513   */\n      add\n        /* \"#utility.yul\":14486:14492   */\n      dup8\n        /* \"#utility.yul\":14442:14514   */\n      tag_100\n      jump\t// in\n    tag_262:\n        /* \"#utility.yul\":14524:14596   */\n      tag_263\n        /* \"#utility.yul\":14592:14594   */\n      0x60\n        /* \"#utility.yul\":14581:14590   */\n      dup4\n        /* \"#utility.yul\":14577:14595   */\n      add\n        /* \"#utility.yul\":14568:14574   */\n      dup7\n        /* \"#utility.yul\":14524:14596   */\n      tag_100\n      jump\t// in\n    tag_263:\n        /* \"#utility.yul\":14606:14679   */\n      tag_264\n        /* \"#utility.yul\":14674:14677   */\n      0x80\n        /* \"#utility.yul\":14663:14672   */\n      dup4\n        /* \"#utility.yul\":14659:14678   */\n      add\n        /* \"#utility.yul\":14650:14656   */\n      dup6\n        /* \"#utility.yul\":14606:14679   */\n      tag_92\n      jump\t// in\n    tag_264:\n        /* \"#utility.yul\":14689:14762   */\n      tag_265\n        /* \"#utility.yul\":14757:14760   */\n      0xa0\n        /* \"#utility.yul\":14746:14755   */\n      dup4\n        /* \"#utility.yul\":14742:14761   */\n      add\n        /* \"#utility.yul\":14733:14739   */\n      dup5\n        /* \"#utility.yul\":14689:14762   */\n      tag_100\n      jump\t// in\n    tag_265:\n        /* \"#utility.yul\":13994:14769   */\n      swap8\n      swap7\n      pop\n      pop\n      pop\n      pop\n      pop\n      pop\n      pop\n      jump\t// out\n        /* \"#utility.yul\":14775:15438   */\n    tag_75:\n        /* \"#utility.yul\":14863:14869   */\n      0x00\n        /* \"#utility.yul\":14871:14877   */\n      dup1\n        /* \"#utility.yul\":14879:14885   */\n      0x00\n        /* \"#utility.yul\":14928:14930   */\n      0x60\n        /* \"#utility.yul\":14916:14925   */\n      dup5\n        /* \"#utility.yul\":14907:14914   */\n      dup7\n        /* \"#utility.yul\":14903:14926   */\n      sub\n        /* \"#utility.yul\":14899:14931   */\n      slt\n        /* \"#utility.yul\":14896:15015   */\n      iszero\n      tag_267\n      jumpi\n        /* \"#utility.yul\":14934:15013   */\n      tag_268\n      tag_85\n      jump\t// in\n    tag_268:\n        /* \"#utility.yul\":14896:15015   */\n    tag_267:\n        /* \"#utility.yul\":15054:15055   */\n      0x00\n        /* \"#utility.yul\":15079:15143   */\n      tag_269\n        /* \"#utility.yul\":15135:15142   */\n      dup7\n        /* \"#utility.yul\":15126:15132   */\n      dup3\n        /* \"#utility.yul\":15115:15124   */\n      dup8\n        /* \"#utility.yul\":15111:15133   */\n      add\n        /* \"#utility.yul\":15079:15143   */\n      tag_98\n      jump\t// in\n    tag_269:\n        /* \"#utility.yul\":15069:15143   */\n      swap4\n      pop\n        /* \"#utility.yul\":15025:15153   */\n      pop\n        /* \"#utility.yul\":15192:15194   */\n      0x20\n        /* \"#utility.yul\":15218:15282   */\n      tag_270\n        /* \"#utility.yul\":15274:15281   */\n      dup7\n        /* \"#utility.yul\":15265:15271   */\n      dup3\n        /* \"#utility.yul\":15254:15263   */\n      dup8\n        /* \"#utility.yul\":15250:15272   */\n      add\n        /* \"#utility.yul\":15218:15282   */\n      tag_98\n      jump\t// in\n    tag_270:\n        /* \"#utility.yul\":15208:15282   */\n      swap3\n      pop\n        /* \"#utility.yul\":15163:15292   */\n      pop\n        /* \"#utility.yul\":15331:15333   */\n      0x40\n        /* \"#utility.yul\":15357:15421   */\n      tag_271\n        /* \"#utility.yul\":15413:15420   */\n      dup7\n        /* \"#utility.yul\":15404:15410   */\n      dup3\n        /* \"#utility.yul\":15393:15402   */\n      dup8\n        /* \"#utility.yul\":15389:15411   */\n      add\n        /* \"#utility.yul\":15357:15421   */\n      tag_98\n      jump\t// in\n    tag_271:\n        /* \"#utility.yul\":15347:15421   */\n      swap2\n      pop\n        /* \"#utility.yul\":15302:15431   */\n      pop\n        /* \"#utility.yul\":14775:15438   */\n      swap3\n      pop\n      swap3\n      pop\n      swap3\n      jump\t// out\n\n    auxdata: 0xa26469706673582212204b97041fa170cdaf279e516c4ab014bedacf2865b2a5e19013637217ab0021cf64736f6c634300080d0033\n}\n",
				"bytecode": {
					"linkReferences": {},
					"object": "6080604052737a250d5630b4cf539739df2c5dacb4c659f2488d6000806101000a81548173ffffffffffffffffffffffffffffffffffffffff021916908373ffffffffffffffffffffffffffffffffffffffff16021790555073c778417e063141139fce010982780140aa0cd5ab600160006101000a81548173ffffffffffffffffffffffffffffffffffffffff021916908373ffffffffffffffffffffffffffffffffffffffff16021790555073549f978c19a5ac86d906052639e317b57724ef44600260006101000a81548173ffffffffffffffffffffffffffffffffffffffff021916908373ffffffffffffffffffffffffffffffffffffffff16021790555073f42a08c0ea66ee4a474336087a6c17e9ea6c9de9600360006101000a81548173ffffffffffffffffffffffffffffffffffffffff021916908373ffffffffffffffffffffffffffffffffffffffff16021790555073d9dfa8c6b37cfdf16668fe0465896f4a1b9b2c4f600460006101000a81548173ffffffffffffffffffffffffffffffffffffffff021916908373ffffffffffffffffffffffffffffffffffffffff16021790555060008054906101000a900473ffffffffffffffffffffffffffffffffffffffff16600560006101000a81548173ffffffffffffffffffffffffffffffffffffffff021916908373ffffffffffffffffffffffffffffffffffffffff160217905550600260009054906101000a900473ffffffffffffffffffffffffffffffffffffffff16600660006101000a81548173ffffffffffffffffffffffffffffffffffffffff021916908373ffffffffffffffffffffffffffffffffffffffff160217905550600460009054906101000a900473ffffffffffffffffffffffffffffffffffffffff16600760006101000a81548173ffffffffffffffffffffffffffffffffffffffff021916908373ffffffffffffffffffffffffffffffffffffffff1602179055503480156102df57600080fd5b50610fdf806102ef6000396000f3fe60806040526004361061003f5760003560e01c80632e1a7d4d14610044578063881e7a971461006d578063a93f74e014610096578063aebf3e41146100b2575b600080fd5b34801561005057600080fd5b5061006b60048036038101906100669190610847565b6100ce565b005b34801561007957600080fd5b50610094600480360381019061008f9190610874565b610204565b005b6100b060048036038101906100ab9190610847565b610208565b005b6100cc60048036038101906100c791906108b4565b6103e7565b005b6000600760009054906101000a900473ffffffffffffffffffffffffffffffffffffffff1673ffffffffffffffffffffffffffffffffffffffff16631959a002336040518263ffffffff1660e01b815260040161012b919061095c565b6040805180830381865afa158015610147573d6000803e3d6000fd5b505050506040513d601f19601f8201168201806040525081019061016b9190610a6d565b9050600760009054906101000a900473ffffffffffffffffffffffffffffffffffffffff1673ffffffffffffffffffffffffffffffffffffffff1663441a3e708383600001516040518363ffffffff1660e01b81526004016101ce929190610aa9565b600060405180830381600087803b1580156101e857600080fd5b505af11580156101fc573d6000803e3d6000fd5b505050505050565b5050565b6000600267ffffffffffffffff8111156102255761022461098d565b5b6040519080825280602002602001820160405280156102535781602001602082028036833780820191505090505b509050600160009054906101000a900473ffffffffffffffffffffffffffffffffffffffff168160008151811061028d5761028c610ad2565b5b602002602001019073ffffffffffffffffffffffffffffffffffffffff16908173ffffffffffffffffffffffffffffffffffffffff1681525050600260009054906101000a900473ffffffffffffffffffffffffffffffffffffffff16816001815181106102fe576102fd610ad2565b5b602002602001019073ffffffffffffffffffffffffffffffffffffffff16908173ffffffffffffffffffffffffffffffffffffffff1681525050600560009054906101000a900473ffffffffffffffffffffffffffffffffffffffff1673ffffffffffffffffffffffffffffffffffffffff16637ff36ab534848433426040518663ffffffff1660e01b815260040161039a9493929190610bbf565b60006040518083038185885af11580156103b8573d6000803e3d6000fd5b50505050506040513d6000823e3d601f19601f820116820180604052508101906103e29190610cd8565b505050565b600660009054906101000a900473ffffffffffffffffffffffffffffffffffffffff1673ffffffffffffffffffffffffffffffffffffffff1663095ea7b3600560009054906101000a900473ffffffffffffffffffffffffffffffffffffffff16866040518363ffffffff1660e01b8152600401610466929190610d21565b6020604051808303816000875af1158015610485573d6000803e3d6000fd5b505050506040513d601f19601f820116820180604052508101906104a99190610d82565b506000600660009054906101000a900473ffffffffffffffffffffffffffffffffffffffff1673ffffffffffffffffffffffffffffffffffffffff166323b872dd3330886040518463ffffffff1660e01b815260040161050b93929190610daf565b6020604051808303816000875af115801561052a573d6000803e3d6000fd5b505050506040513d601f19601f8201168201806040525081019061054e9190610d82565b905080610590576040517f08c379a000000000000000000000000000000000000000000000000000000000815260040161058790610e43565b60405180910390fd5b8234116105d2576040517f08c379a00000000000000000000000000000000000000000000000000000000081526004016105c990610ed5565b60405180910390fd5b6000600560009054906101000a900473ffffffffffffffffffffffffffffffffffffffff1673ffffffffffffffffffffffffffffffffffffffff1663f305d71934600260009054906101000a900473ffffffffffffffffffffffffffffffffffffffff1689898933426040518863ffffffff1660e01b815260040161065c96959493929190610ef5565b60606040518083038185885af115801561067a573d6000803e3d6000fd5b50505050506040513d601f19601f8201168201806040525081019061069f9190610f56565b50509050600660009054906101000a900473ffffffffffffffffffffffffffffffffffffffff1673ffffffffffffffffffffffffffffffffffffffff1663095ea7b3600460009054906101000a900473ffffffffffffffffffffffffffffffffffffffff16886040518363ffffffff1660e01b8152600401610722929190610d21565b6020604051808303816000875af1158015610741573d6000803e3d6000fd5b505050506040513d601f19601f820116820180604052508101906107659190610d82565b50600760009054906101000a900473ffffffffffffffffffffffffffffffffffffffff1673ffffffffffffffffffffffffffffffffffffffff1663e2bbb15884836040518363ffffffff1660e01b81526004016107c3929190610aa9565b600060405180830381600087803b1580156107dd57600080fd5b505af11580156107f1573d6000803e3d6000fd5b50505050505050505050565b6000604051905090565b600080fd5b600080fd5b6000819050919050565b61082481610811565b811461082f57600080fd5b50565b6000813590506108418161081b565b92915050565b60006020828403121561085d5761085c610807565b5b600061086b84828501610832565b91505092915050565b6000806040838503121561088b5761088a610807565b5b600061089985828601610832565b92505060206108aa85828601610832565b9150509250929050565b600080600080608085870312156108ce576108cd610807565b5b60006108dc87828801610832565b94505060206108ed87828801610832565b93505060406108fe87828801610832565b925050606061090f87828801610832565b91505092959194509250565b600073ffffffffffffffffffffffffffffffffffffffff82169050919050565b60006109468261091b565b9050919050565b6109568161093b565b82525050565b6000602082019050610971600083018461094d565b92915050565b600080fd5b6000601f19601f8301169050919050565b7f4e487b7100000000000000000000000000000000000000000000000000000000600052604160045260246000fd5b6109c58261097c565b810181811067ffffffffffffffff821117156109e4576109e361098d565b5b80604052505050565b60006109f76107fd565b9050610a0382826109bc565b919050565b600081519050610a178161081b565b92915050565b600060408284031215610a3357610a32610977565b5b610a3d60406109ed565b90506000610a4d84828501610a08565b6000830152506020610a6184828501610a08565b60208301525092915050565b600060408284031215610a8357610a82610807565b5b6000610a9184828501610a1d565b91505092915050565b610aa381610811565b82525050565b6000604082019050610abe6000830185610a9a565b610acb6020830184610a9a565b9392505050565b7f4e487b7100000000000000000000000000000000000000000000000000000000600052603260045260246000fd5b600081519050919050565b600082825260208201905092915050565b6000819050602082019050919050565b610b368161093b565b82525050565b6000610b488383610b2d565b60208301905092915050565b6000602082019050919050565b6000610b6c82610b01565b610b768185610b0c565b9350610b8183610b1d565b8060005b83811015610bb2578151610b998882610b3c565b9750610ba483610b54565b925050600181019050610b85565b5085935050505092915050565b6000608082019050610bd46000830187610a9a565b8181036020830152610be68186610b61565b9050610bf5604083018561094d565b610c026060830184610a9a565b95945050505050565b600080fd5b600067ffffffffffffffff821115610c2b57610c2a61098d565b5b602082029050602081019050919050565b600080fd5b6000610c54610c4f84610c10565b6109ed565b90508083825260208201905060208402830185811115610c7757610c76610c3c565b5b835b81811015610ca05780610c8c8882610a08565b845260208401935050602081019050610c79565b5050509392505050565b600082601f830112610cbf57610cbe610c0b565b5b8151610ccf848260208601610c41565b91505092915050565b600060208284031215610cee57610ced610807565b5b600082015167ffffffffffffffff811115610d0c57610d0b61080c565b5b610d1884828501610caa565b91505092915050565b6000604082019050610d36600083018561094d565b610d436020830184610a9a565b9392505050565b60008115159050919050565b610d5f81610d4a565b8114610d6a57600080fd5b50565b600081519050610d7c81610d56565b92915050565b600060208284031215610d9857610d97610807565b5b6000610da684828501610d6d565b91505092915050565b6000606082019050610dc4600083018661094d565b610dd1602083018561094d565b610dde6040830184610a9a565b949350505050565b600082825260208201905092915050565b7f6d746f6b656e207472616e73666572206572726f722100000000000000000000600082015250565b6000610e2d601683610de6565b9150610e3882610df7565b602082019050919050565b60006020820190508181036000830152610e5c81610e20565b9050919050565b7f6d73672e76616c75652073686f756c642062696767676572207468616e20616d60008201527f6f756e744554484d696e00000000000000000000000000000000000000000000602082015250565b6000610ebf602a83610de6565b9150610eca82610e63565b604082019050919050565b60006020820190508181036000830152610eee81610eb2565b9050919050565b600060c082019050610f0a600083018961094d565b610f176020830188610a9a565b610f246040830187610a9a565b610f316060830186610a9a565b610f3e608083018561094d565b610f4b60a0830184610a9a565b979650505050505050565b600080600060608486031215610f6f57610f6e610807565b5b6000610f7d86828701610a08565b9350506020610f8e86828701610a08565b9250506040610f9f86828701610a08565b915050925092509256fea26469706673582212204b97041fa170cdaf279e516c4ab014bedacf2865b2a5e19013637217ab0021cf64736f6c634300080d0033",
					"opcodes": "PUSH1 0x80 PUSH1 0x40 MSTORE PUSH20 0x7A250D5630B4CF539739DF2C5DACB4C659F2488D PUSH1 0x0 DUP1 PUSH2 0x100 EXP DUP2 SLOAD DUP2 PUSH20 0xFFFFFFFFFFFFFFFFFFFFFFFFFFFFFFFFFFFFFFFF MUL NOT AND SWAP1 DUP4 PUSH20 0xFFFFFFFFFFFFFFFFFFFFFFFFFFFFFFFFFFFFFFFF AND MUL OR SWAP1 SSTORE POP PUSH20 0xC778417E063141139FCE010982780140AA0CD5AB PUSH1 0x1 PUSH1 0x0 PUSH2 0x100 EXP DUP2 SLOAD DUP2 PUSH20 0xFFFFFFFFFFFFFFFFFFFFFFFFFFFFFFFFFFFFFFFF MUL NOT AND SWAP1 DUP4 PUSH20 0xFFFFFFFFFFFFFFFFFFFFFFFFFFFFFFFFFFFFFFFF AND MUL OR SWAP1 SSTORE POP PUSH20 0x549F978C19A5AC86D906052639E317B57724EF44 PUSH1 0x2 PUSH1 0x0 PUSH2 0x100 EXP DUP2 SLOAD DUP2 PUSH20 0xFFFFFFFFFFFFFFFFFFFFFFFFFFFFFFFFFFFFFFFF MUL NOT AND SWAP1 DUP4 PUSH20 0xFFFFFFFFFFFFFFFFFFFFFFFFFFFFFFFFFFFFFFFF AND MUL OR SWAP1 SSTORE POP PUSH20 0xF42A08C0EA66EE4A474336087A6C17E9EA6C9DE9 PUSH1 0x3 PUSH1 0x0 PUSH2 0x100 EXP DUP2 SLOAD DUP2 PUSH20 0xFFFFFFFFFFFFFFFFFFFFFFFFFFFFFFFFFFFFFFFF MUL NOT AND SWAP1 DUP4 PUSH20 0xFFFFFFFFFFFFFFFFFFFFFFFFFFFFFFFFFFFFFFFF AND MUL OR SWAP1 SSTORE POP PUSH20 0xD9DFA8C6B37CFDF16668FE0465896F4A1B9B2C4F PUSH1 0x4 PUSH1 0x0 PUSH2 0x100 EXP DUP2 SLOAD DUP2 PUSH20 0xFFFFFFFFFFFFFFFFFFFFFFFFFFFFFFFFFFFFFFFF MUL NOT AND SWAP1 DUP4 PUSH20 0xFFFFFFFFFFFFFFFFFFFFFFFFFFFFFFFFFFFFFFFF AND MUL OR SWAP1 SSTORE POP PUSH1 0x0 DUP1 SLOAD SWAP1 PUSH2 0x100 EXP SWAP1 DIV PUSH20 0xFFFFFFFFFFFFFFFFFFFFFFFFFFFFFFFFFFFFFFFF AND PUSH1 0x5 PUSH1 0x0 PUSH2 0x100 EXP DUP2 SLOAD DUP2 PUSH20 0xFFFFFFFFFFFFFFFFFFFFFFFFFFFFFFFFFFFFFFFF MUL NOT AND SWAP1 DUP4 PUSH20 0xFFFFFFFFFFFFFFFFFFFFFFFFFFFFFFFFFFFFFFFF AND MUL OR SWAP1 SSTORE POP PUSH1 0x2 PUSH1 0x0 SWAP1 SLOAD SWAP1 PUSH2 0x100 EXP SWAP1 DIV PUSH20 0xFFFFFFFFFFFFFFFFFFFFFFFFFFFFFFFFFFFFFFFF AND PUSH1 0x6 PUSH1 0x0 PUSH2 0x100 EXP DUP2 SLOAD DUP2 PUSH20 0xFFFFFFFFFFFFFFFFFFFFFFFFFFFFFFFFFFFFFFFF MUL NOT AND SWAP1 DUP4 PUSH20 0xFFFFFFFFFFFFFFFFFFFFFFFFFFFFFFFFFFFFFFFF AND MUL OR SWAP1 SSTORE POP PUSH1 0x4 PUSH1 0x0 SWAP1 SLOAD SWAP1 PUSH2 0x100 EXP SWAP1 DIV PUSH20 0xFFFFFFFFFFFFFFFFFFFFFFFFFFFFFFFFFFFFFFFF AND PUSH1 0x7 PUSH1 0x0 PUSH2 0x100 EXP DUP2 SLOAD DUP2 PUSH20 0xFFFFFFFFFFFFFFFFFFFFFFFFFFFFFFFFFFFFFFFF MUL NOT AND SWAP1 DUP4 PUSH20 0xFFFFFFFFFFFFFFFFFFFFFFFFFFFFFFFFFFFFFFFF AND MUL OR SWAP1 SSTORE POP CALLVALUE DUP1 ISZERO PUSH2 0x2DF JUMPI PUSH1 0x0 DUP1 REVERT JUMPDEST POP PUSH2 0xFDF DUP1 PUSH2 0x2EF PUSH1 0x0 CODECOPY PUSH1 0x0 RETURN INVALID PUSH1 0x80 PUSH1 0x40 MSTORE PUSH1 0x4 CALLDATASIZE LT PUSH2 0x3F JUMPI PUSH1 0x0 CALLDATALOAD PUSH1 0xE0 SHR DUP1 PUSH4 0x2E1A7D4D EQ PUSH2 0x44 JUMPI DUP1 PUSH4 0x881E7A97 EQ PUSH2 0x6D JUMPI DUP1 PUSH4 0xA93F74E0 EQ PUSH2 0x96 JUMPI DUP1 PUSH4 0xAEBF3E41 EQ PUSH2 0xB2 JUMPI JUMPDEST PUSH1 0x0 DUP1 REVERT JUMPDEST CALLVALUE DUP1 ISZERO PUSH2 0x50 JUMPI PUSH1 0x0 DUP1 REVERT JUMPDEST POP PUSH2 0x6B PUSH1 0x4 DUP1 CALLDATASIZE SUB DUP2 ADD SWAP1 PUSH2 0x66 SWAP2 SWAP1 PUSH2 0x847 JUMP JUMPDEST PUSH2 0xCE JUMP JUMPDEST STOP JUMPDEST CALLVALUE DUP1 ISZERO PUSH2 0x79 JUMPI PUSH1 0x0 DUP1 REVERT JUMPDEST POP PUSH2 0x94 PUSH1 0x4 DUP1 CALLDATASIZE SUB DUP2 ADD SWAP1 PUSH2 0x8F SWAP2 SWAP1 PUSH2 0x874 JUMP JUMPDEST PUSH2 0x204 JUMP JUMPDEST STOP JUMPDEST PUSH2 0xB0 PUSH1 0x4 DUP1 CALLDATASIZE SUB DUP2 ADD SWAP1 PUSH2 0xAB SWAP2 SWAP1 PUSH2 0x847 JUMP JUMPDEST PUSH2 0x208 JUMP JUMPDEST STOP JUMPDEST PUSH2 0xCC PUSH1 0x4 DUP1 CALLDATASIZE SUB DUP2 ADD SWAP1 PUSH2 0xC7 SWAP2 SWAP1 PUSH2 0x8B4 JUMP JUMPDEST PUSH2 0x3E7 JUMP JUMPDEST STOP JUMPDEST PUSH1 0x0 PUSH1 0x7 PUSH1 0x0 SWAP1 SLOAD SWAP1 PUSH2 0x100 EXP SWAP1 DIV PUSH20 0xFFFFFFFFFFFFFFFFFFFFFFFFFFFFFFFFFFFFFFFF AND PUSH20 0xFFFFFFFFFFFFFFFFFFFFFFFFFFFFFFFFFFFFFFFF AND PUSH4 0x1959A002 CALLER PUSH1 0x40 MLOAD DUP3 PUSH4 0xFFFFFFFF AND PUSH1 0xE0 SHL DUP2 MSTORE PUSH1 0x4 ADD PUSH2 0x12B SWAP2 SWAP1 PUSH2 0x95C JUMP JUMPDEST PUSH1 0x40 DUP1 MLOAD DUP1 DUP4 SUB DUP2 DUP7 GAS STATICCALL ISZERO DUP1 ISZERO PUSH2 0x147 JUMPI RETURNDATASIZE PUSH1 0x0 DUP1 RETURNDATACOPY RETURNDATASIZE PUSH1 0x0 REVERT JUMPDEST POP POP POP POP PUSH1 0x40 MLOAD RETURNDATASIZE PUSH1 0x1F NOT PUSH1 0x1F DUP3 ADD AND DUP3 ADD DUP1 PUSH1 0x40 MSTORE POP DUP2 ADD SWAP1 PUSH2 0x16B SWAP2 SWAP1 PUSH2 0xA6D JUMP JUMPDEST SWAP1 POP PUSH1 0x7 PUSH1 0x0 SWAP1 SLOAD SWAP1 PUSH2 0x100 EXP SWAP1 DIV PUSH20 0xFFFFFFFFFFFFFFFFFFFFFFFFFFFFFFFFFFFFFFFF AND PUSH20 0xFFFFFFFFFFFFFFFFFFFFFFFFFFFFFFFFFFFFFFFF AND PUSH4 0x441A3E70 DUP4 DUP4 PUSH1 0x0 ADD MLOAD PUSH1 0x40 MLOAD DUP4 PUSH4 0xFFFFFFFF AND PUSH1 0xE0 SHL DUP2 MSTORE PUSH1 0x4 ADD PUSH2 0x1CE SWAP3 SWAP2 SWAP1 PUSH2 0xAA9 JUMP JUMPDEST PUSH1 0x0 PUSH1 0x40 MLOAD DUP1 DUP4 SUB DUP2 PUSH1 0x0 DUP8 DUP1 EXTCODESIZE ISZERO DUP1 ISZERO PUSH2 0x1E8 JUMPI PUSH1 0x0 DUP1 REVERT JUMPDEST POP GAS CALL ISZERO DUP1 ISZERO PUSH2 0x1FC JUMPI RETURNDATASIZE PUSH1 0x0 DUP1 RETURNDATACOPY RETURNDATASIZE PUSH1 0x0 REVERT JUMPDEST POP POP POP POP POP POP JUMP JUMPDEST POP POP JUMP JUMPDEST PUSH1 0x0 PUSH1 0x2 PUSH8 0xFFFFFFFFFFFFFFFF DUP2 GT ISZERO PUSH2 0x225 JUMPI PUSH2 0x224 PUSH2 0x98D JUMP JUMPDEST JUMPDEST PUSH1 0x40 MLOAD SWAP1 DUP1 DUP3 MSTORE DUP1 PUSH1 0x20 MUL PUSH1 0x20 ADD DUP3 ADD PUSH1 0x40 MSTORE DUP1 ISZERO PUSH2 0x253 JUMPI DUP2 PUSH1 0x20 ADD PUSH1 0x20 DUP3 MUL DUP1 CALLDATASIZE DUP4 CALLDATACOPY DUP1 DUP3 ADD SWAP2 POP POP SWAP1 POP JUMPDEST POP SWAP1 POP PUSH1 0x1 PUSH1 0x0 SWAP1 SLOAD SWAP1 PUSH2 0x100 EXP SWAP1 DIV PUSH20 0xFFFFFFFFFFFFFFFFFFFFFFFFFFFFFFFFFFFFFFFF AND DUP2 PUSH1 0x0 DUP2 MLOAD DUP2 LT PUSH2 0x28D JUMPI PUSH2 0x28C PUSH2 0xAD2 JUMP JUMPDEST JUMPDEST PUSH1 0x20 MUL PUSH1 0x20 ADD ADD SWAP1 PUSH20 0xFFFFFFFFFFFFFFFFFFFFFFFFFFFFFFFFFFFFFFFF AND SWAP1 DUP2 PUSH20 0xFFFFFFFFFFFFFFFFFFFFFFFFFFFFFFFFFFFFFFFF AND DUP2 MSTORE POP POP PUSH1 0x2 PUSH1 0x0 SWAP1 SLOAD SWAP1 PUSH2 0x100 EXP SWAP1 DIV PUSH20 0xFFFFFFFFFFFFFFFFFFFFFFFFFFFFFFFFFFFFFFFF AND DUP2 PUSH1 0x1 DUP2 MLOAD DUP2 LT PUSH2 0x2FE JUMPI PUSH2 0x2FD PUSH2 0xAD2 JUMP JUMPDEST JUMPDEST PUSH1 0x20 MUL PUSH1 0x20 ADD ADD SWAP1 PUSH20 0xFFFFFFFFFFFFFFFFFFFFFFFFFFFFFFFFFFFFFFFF AND SWAP1 DUP2 PUSH20 0xFFFFFFFFFFFFFFFFFFFFFFFFFFFFFFFFFFFFFFFF AND DUP2 MSTORE POP POP PUSH1 0x5 PUSH1 0x0 SWAP1 SLOAD SWAP1 PUSH2 0x100 EXP SWAP1 DIV PUSH20 0xFFFFFFFFFFFFFFFFFFFFFFFFFFFFFFFFFFFFFFFF AND PUSH20 0xFFFFFFFFFFFFFFFFFFFFFFFFFFFFFFFFFFFFFFFF AND PUSH4 0x7FF36AB5 CALLVALUE DUP5 DUP5 CALLER TIMESTAMP PUSH1 0x40 MLOAD DUP7 PUSH4 0xFFFFFFFF AND PUSH1 0xE0 SHL DUP2 MSTORE PUSH1 0x4 ADD PUSH2 0x39A SWAP5 SWAP4 SWAP3 SWAP2 SWAP1 PUSH2 0xBBF JUMP JUMPDEST PUSH1 0x0 PUSH1 0x40 MLOAD DUP1 DUP4 SUB DUP2 DUP6 DUP9 GAS CALL ISZERO DUP1 ISZERO PUSH2 0x3B8 JUMPI RETURNDATASIZE PUSH1 0x0 DUP1 RETURNDATACOPY RETURNDATASIZE PUSH1 0x0 REVERT JUMPDEST POP POP POP POP POP PUSH1 0x40 MLOAD RETURNDATASIZE PUSH1 0x0 DUP3 RETURNDATACOPY RETURNDATASIZE PUSH1 0x1F NOT PUSH1 0x1F DUP3 ADD AND DUP3 ADD DUP1 PUSH1 0x40 MSTORE POP DUP2 ADD SWAP1 PUSH2 0x3E2 SWAP2 SWAP1 PUSH2 0xCD8 JUMP JUMPDEST POP POP POP JUMP JUMPDEST PUSH1 0x6 PUSH1 0x0 SWAP1 SLOAD SWAP1 PUSH2 0x100 EXP SWAP1 DIV PUSH20 0xFFFFFFFFFFFFFFFFFFFFFFFFFFFFFFFFFFFFFFFF AND PUSH20 0xFFFFFFFFFFFFFFFFFFFFFFFFFFFFFFFFFFFFFFFF AND PUSH4 0x95EA7B3 PUSH1 0x5 PUSH1 0x0 SWAP1 SLOAD SWAP1 PUSH2 0x100 EXP SWAP1 DIV PUSH20 0xFFFFFFFFFFFFFFFFFFFFFFFFFFFFFFFFFFFFFFFF AND DUP7 PUSH1 0x40 MLOAD DUP4 PUSH4 0xFFFFFFFF AND PUSH1 0xE0 SHL DUP2 MSTORE PUSH1 0x4 ADD PUSH2 0x466 SWAP3 SWAP2 SWAP1 PUSH2 0xD21 JUMP JUMPDEST PUSH1 0x20 PUSH1 0x40 MLOAD DUP1 DUP4 SUB DUP2 PUSH1 0x0 DUP8 GAS CALL ISZERO DUP1 ISZERO PUSH2 0x485 JUMPI RETURNDATASIZE PUSH1 0x0 DUP1 RETURNDATACOPY RETURNDATASIZE PUSH1 0x0 REVERT JUMPDEST POP POP POP POP PUSH1 0x40 MLOAD RETURNDATASIZE PUSH1 0x1F NOT PUSH1 0x1F DUP3 ADD AND DUP3 ADD DUP1 PUSH1 0x40 MSTORE POP DUP2 ADD SWAP1 PUSH2 0x4A9 SWAP2 SWAP1 PUSH2 0xD82 JUMP JUMPDEST POP PUSH1 0x0 PUSH1 0x6 PUSH1 0x0 SWAP1 SLOAD SWAP1 PUSH2 0x100 EXP SWAP1 DIV PUSH20 0xFFFFFFFFFFFFFFFFFFFFFFFFFFFFFFFFFFFFFFFF AND PUSH20 0xFFFFFFFFFFFFFFFFFFFFFFFFFFFFFFFFFFFFFFFF AND PUSH4 0x23B872DD CALLER ADDRESS DUP9 PUSH1 0x40 MLOAD DUP5 PUSH4 0xFFFFFFFF AND PUSH1 0xE0 SHL DUP2 MSTORE PUSH1 0x4 ADD PUSH2 0x50B SWAP4 SWAP3 SWAP2 SWAP1 PUSH2 0xDAF JUMP JUMPDEST PUSH1 0x20 PUSH1 0x40 MLOAD DUP1 DUP4 SUB DUP2 PUSH1 0x0 DUP8 GAS CALL ISZERO DUP1 ISZERO PUSH2 0x52A JUMPI RETURNDATASIZE PUSH1 0x0 DUP1 RETURNDATACOPY RETURNDATASIZE PUSH1 0x0 REVERT JUMPDEST POP POP POP POP PUSH1 0x40 MLOAD RETURNDATASIZE PUSH1 0x1F NOT PUSH1 0x1F DUP3 ADD AND DUP3 ADD DUP1 PUSH1 0x40 MSTORE POP DUP2 ADD SWAP1 PUSH2 0x54E SWAP2 SWAP1 PUSH2 0xD82 JUMP JUMPDEST SWAP1 POP DUP1 PUSH2 0x590 JUMPI PUSH1 0x40 MLOAD PUSH32 0x8C379A000000000000000000000000000000000000000000000000000000000 DUP2 MSTORE PUSH1 0x4 ADD PUSH2 0x587 SWAP1 PUSH2 0xE43 JUMP JUMPDEST PUSH1 0x40 MLOAD DUP1 SWAP2 SUB SWAP1 REVERT JUMPDEST DUP3 CALLVALUE GT PUSH2 0x5D2 JUMPI PUSH1 0x40 MLOAD PUSH32 0x8C379A000000000000000000000000000000000000000000000000000000000 DUP2 MSTORE PUSH1 0x4 ADD PUSH2 0x5C9 SWAP1 PUSH2 0xED5 JUMP JUMPDEST PUSH1 0x40 MLOAD DUP1 SWAP2 SUB SWAP1 REVERT JUMPDEST PUSH1 0x0 PUSH1 0x5 PUSH1 0x0 SWAP1 SLOAD SWAP1 PUSH2 0x100 EXP SWAP1 DIV PUSH20 0xFFFFFFFFFFFFFFFFFFFFFFFFFFFFFFFFFFFFFFFF AND PUSH20 0xFFFFFFFFFFFFFFFFFFFFFFFFFFFFFFFFFFFFFFFF AND PUSH4 0xF305D719 CALLVALUE PUSH1 0x2 PUSH1 0x0 SWAP1 SLOAD SWAP1 PUSH2 0x100 EXP SWAP1 DIV PUSH20 0xFFFFFFFFFFFFFFFFFFFFFFFFFFFFFFFFFFFFFFFF AND DUP10 DUP10 DUP10 CALLER TIMESTAMP PUSH1 0x40 MLOAD DUP9 PUSH4 0xFFFFFFFF AND PUSH1 0xE0 SHL DUP2 MSTORE PUSH1 0x4 ADD PUSH2 0x65C SWAP7 SWAP6 SWAP5 SWAP4 SWAP3 SWAP2 SWAP1 PUSH2 0xEF5 JUMP JUMPDEST PUSH1 0x60 PUSH1 0x40 MLOAD DUP1 DUP4 SUB DUP2 DUP6 DUP9 GAS CALL ISZERO DUP1 ISZERO PUSH2 0x67A JUMPI RETURNDATASIZE PUSH1 0x0 DUP1 RETURNDATACOPY RETURNDATASIZE PUSH1 0x0 REVERT JUMPDEST POP POP POP POP POP PUSH1 0x40 MLOAD RETURNDATASIZE PUSH1 0x1F NOT PUSH1 0x1F DUP3 ADD AND DUP3 ADD DUP1 PUSH1 0x40 MSTORE POP DUP2 ADD SWAP1 PUSH2 0x69F SWAP2 SWAP1 PUSH2 0xF56 JUMP JUMPDEST POP POP SWAP1 POP PUSH1 0x6 PUSH1 0x0 SWAP1 SLOAD SWAP1 PUSH2 0x100 EXP SWAP1 DIV PUSH20 0xFFFFFFFFFFFFFFFFFFFFFFFFFFFFFFFFFFFFFFFF AND PUSH20 0xFFFFFFFFFFFFFFFFFFFFFFFFFFFFFFFFFFFFFFFF AND PUSH4 0x95EA7B3 PUSH1 0x4 PUSH1 0x0 SWAP1 SLOAD SWAP1 PUSH2 0x100 EXP SWAP1 DIV PUSH20 0xFFFFFFFFFFFFFFFFFFFFFFFFFFFFFFFFFFFFFFFF AND DUP9 PUSH1 0x40 MLOAD DUP4 PUSH4 0xFFFFFFFF AND PUSH1 0xE0 SHL DUP2 MSTORE PUSH1 0x4 ADD PUSH2 0x722 SWAP3 SWAP2 SWAP1 PUSH2 0xD21 JUMP JUMPDEST PUSH1 0x20 PUSH1 0x40 MLOAD DUP1 DUP4 SUB DUP2 PUSH1 0x0 DUP8 GAS CALL ISZERO DUP1 ISZERO PUSH2 0x741 JUMPI RETURNDATASIZE PUSH1 0x0 DUP1 RETURNDATACOPY RETURNDATASIZE PUSH1 0x0 REVERT JUMPDEST POP POP POP POP PUSH1 0x40 MLOAD RETURNDATASIZE PUSH1 0x1F NOT PUSH1 0x1F DUP3 ADD AND DUP3 ADD DUP1 PUSH1 0x40 MSTORE POP DUP2 ADD SWAP1 PUSH2 0x765 SWAP2 SWAP1 PUSH2 0xD82 JUMP JUMPDEST POP PUSH1 0x7 PUSH1 0x0 SWAP1 SLOAD SWAP1 PUSH2 0x100 EXP SWAP1 DIV PUSH20 0xFFFFFFFFFFFFFFFFFFFFFFFFFFFFFFFFFFFFFFFF AND PUSH20 0xFFFFFFFFFFFFFFFFFFFFFFFFFFFFFFFFFFFFFFFF AND PUSH4 0xE2BBB158 DUP5 DUP4 PUSH1 0x40 MLOAD DUP4 PUSH4 0xFFFFFFFF AND PUSH1 0xE0 SHL DUP2 MSTORE PUSH1 0x4 ADD PUSH2 0x7C3 SWAP3 SWAP2 SWAP1 PUSH2 0xAA9 JUMP JUMPDEST PUSH1 0x0 PUSH1 0x40 MLOAD DUP1 DUP4 SUB DUP2 PUSH1 0x0 DUP8 DUP1 EXTCODESIZE ISZERO DUP1 ISZERO PUSH2 0x7DD JUMPI PUSH1 0x0 DUP1 REVERT JUMPDEST POP GAS CALL ISZERO DUP1 ISZERO PUSH2 0x7F1 JUMPI RETURNDATASIZE PUSH1 0x0 DUP1 RETURNDATACOPY RETURNDATASIZE PUSH1 0x0 REVERT JUMPDEST POP POP POP POP POP POP POP POP POP POP JUMP JUMPDEST PUSH1 0x0 PUSH1 0x40 MLOAD SWAP1 POP SWAP1 JUMP JUMPDEST PUSH1 0x0 DUP1 REVERT JUMPDEST PUSH1 0x0 DUP1 REVERT JUMPDEST PUSH1 0x0 DUP2 SWAP1 POP SWAP2 SWAP1 POP JUMP JUMPDEST PUSH2 0x824 DUP2 PUSH2 0x811 JUMP JUMPDEST DUP2 EQ PUSH2 0x82F JUMPI PUSH1 0x0 DUP1 REVERT JUMPDEST POP JUMP JUMPDEST PUSH1 0x0 DUP2 CALLDATALOAD SWAP1 POP PUSH2 0x841 DUP2 PUSH2 0x81B JUMP JUMPDEST SWAP3 SWAP2 POP POP JUMP JUMPDEST PUSH1 0x0 PUSH1 0x20 DUP3 DUP5 SUB SLT ISZERO PUSH2 0x85D JUMPI PUSH2 0x85C PUSH2 0x807 JUMP JUMPDEST JUMPDEST PUSH1 0x0 PUSH2 0x86B DUP5 DUP3 DUP6 ADD PUSH2 0x832 JUMP JUMPDEST SWAP2 POP POP SWAP3 SWAP2 POP POP JUMP JUMPDEST PUSH1 0x0 DUP1 PUSH1 0x40 DUP4 DUP6 SUB SLT ISZERO PUSH2 0x88B JUMPI PUSH2 0x88A PUSH2 0x807 JUMP JUMPDEST JUMPDEST PUSH1 0x0 PUSH2 0x899 DUP6 DUP3 DUP7 ADD PUSH2 0x832 JUMP JUMPDEST SWAP3 POP POP PUSH1 0x20 PUSH2 0x8AA DUP6 DUP3 DUP7 ADD PUSH2 0x832 JUMP JUMPDEST SWAP2 POP POP SWAP3 POP SWAP3 SWAP1 POP JUMP JUMPDEST PUSH1 0x0 DUP1 PUSH1 0x0 DUP1 PUSH1 0x80 DUP6 DUP8 SUB SLT ISZERO PUSH2 0x8CE JUMPI PUSH2 0x8CD PUSH2 0x807 JUMP JUMPDEST JUMPDEST PUSH1 0x0 PUSH2 0x8DC DUP8 DUP3 DUP9 ADD PUSH2 0x832 JUMP JUMPDEST SWAP5 POP POP PUSH1 0x20 PUSH2 0x8ED DUP8 DUP3 DUP9 ADD PUSH2 0x832 JUMP JUMPDEST SWAP4 POP POP PUSH1 0x40 PUSH2 0x8FE DUP8 DUP3 DUP9 ADD PUSH2 0x832 JUMP JUMPDEST SWAP3 POP POP PUSH1 0x60 PUSH2 0x90F DUP8 DUP3 DUP9 ADD PUSH2 0x832 JUMP JUMPDEST SWAP2 POP POP SWAP3 SWAP6 SWAP2 SWAP5 POP SWAP3 POP JUMP JUMPDEST PUSH1 0x0 PUSH20 0xFFFFFFFFFFFFFFFFFFFFFFFFFFFFFFFFFFFFFFFF DUP3 AND SWAP1 POP SWAP2 SWAP1 POP JUMP JUMPDEST PUSH1 0x0 PUSH2 0x946 DUP3 PUSH2 0x91B JUMP JUMPDEST SWAP1 POP SWAP2 SWAP1 POP JUMP JUMPDEST PUSH2 0x956 DUP2 PUSH2 0x93B JUMP JUMPDEST DUP3 MSTORE POP POP JUMP JUMPDEST PUSH1 0x0 PUSH1 0x20 DUP3 ADD SWAP1 POP PUSH2 0x971 PUSH1 0x0 DUP4 ADD DUP5 PUSH2 0x94D JUMP JUMPDEST SWAP3 SWAP2 POP POP JUMP JUMPDEST PUSH1 0x0 DUP1 REVERT JUMPDEST PUSH1 0x0 PUSH1 0x1F NOT PUSH1 0x1F DUP4 ADD AND SWAP1 POP SWAP2 SWAP1 POP JUMP JUMPDEST PUSH32 0x4E487B7100000000000000000000000000000000000000000000000000000000 PUSH1 0x0 MSTORE PUSH1 0x41 PUSH1 0x4 MSTORE PUSH1 0x24 PUSH1 0x0 REVERT JUMPDEST PUSH2 0x9C5 DUP3 PUSH2 0x97C JUMP JUMPDEST DUP2 ADD DUP2 DUP2 LT PUSH8 0xFFFFFFFFFFFFFFFF DUP3 GT OR ISZERO PUSH2 0x9E4 JUMPI PUSH2 0x9E3 PUSH2 0x98D JUMP JUMPDEST JUMPDEST DUP1 PUSH1 0x40 MSTORE POP POP POP JUMP JUMPDEST PUSH1 0x0 PUSH2 0x9F7 PUSH2 0x7FD JUMP JUMPDEST SWAP1 POP PUSH2 0xA03 DUP3 DUP3 PUSH2 0x9BC JUMP JUMPDEST SWAP2 SWAP1 POP JUMP JUMPDEST PUSH1 0x0 DUP2 MLOAD SWAP1 POP PUSH2 0xA17 DUP2 PUSH2 0x81B JUMP JUMPDEST SWAP3 SWAP2 POP POP JUMP JUMPDEST PUSH1 0x0 PUSH1 0x40 DUP3 DUP5 SUB SLT ISZERO PUSH2 0xA33 JUMPI PUSH2 0xA32 PUSH2 0x977 JUMP JUMPDEST JUMPDEST PUSH2 0xA3D PUSH1 0x40 PUSH2 0x9ED JUMP JUMPDEST SWAP1 POP PUSH1 0x0 PUSH2 0xA4D DUP5 DUP3 DUP6 ADD PUSH2 0xA08 JUMP JUMPDEST PUSH1 0x0 DUP4 ADD MSTORE POP PUSH1 0x20 PUSH2 0xA61 DUP5 DUP3 DUP6 ADD PUSH2 0xA08 JUMP JUMPDEST PUSH1 0x20 DUP4 ADD MSTORE POP SWAP3 SWAP2 POP POP JUMP JUMPDEST PUSH1 0x0 PUSH1 0x40 DUP3 DUP5 SUB SLT ISZERO PUSH2 0xA83 JUMPI PUSH2 0xA82 PUSH2 0x807 JUMP JUMPDEST JUMPDEST PUSH1 0x0 PUSH2 0xA91 DUP5 DUP3 DUP6 ADD PUSH2 0xA1D JUMP JUMPDEST SWAP2 POP POP SWAP3 SWAP2 POP POP JUMP JUMPDEST PUSH2 0xAA3 DUP2 PUSH2 0x811 JUMP JUMPDEST DUP3 MSTORE POP POP JUMP JUMPDEST PUSH1 0x0 PUSH1 0x40 DUP3 ADD SWAP1 POP PUSH2 0xABE PUSH1 0x0 DUP4 ADD DUP6 PUSH2 0xA9A JUMP JUMPDEST PUSH2 0xACB PUSH1 0x20 DUP4 ADD DUP5 PUSH2 0xA9A JUMP JUMPDEST SWAP4 SWAP3 POP POP POP JUMP JUMPDEST PUSH32 0x4E487B7100000000000000000000000000000000000000000000000000000000 PUSH1 0x0 MSTORE PUSH1 0x32 PUSH1 0x4 MSTORE PUSH1 0x24 PUSH1 0x0 REVERT JUMPDEST PUSH1 0x0 DUP2 MLOAD SWAP1 POP SWAP2 SWAP1 POP JUMP JUMPDEST PUSH1 0x0 DUP3 DUP3 MSTORE PUSH1 0x20 DUP3 ADD SWAP1 POP SWAP3 SWAP2 POP POP JUMP JUMPDEST PUSH1 0x0 DUP2 SWAP1 POP PUSH1 0x20 DUP3 ADD SWAP1 POP SWAP2 SWAP1 POP JUMP JUMPDEST PUSH2 0xB36 DUP2 PUSH2 0x93B JUMP JUMPDEST DUP3 MSTORE POP POP JUMP JUMPDEST PUSH1 0x0 PUSH2 0xB48 DUP4 DUP4 PUSH2 0xB2D JUMP JUMPDEST PUSH1 0x20 DUP4 ADD SWAP1 POP SWAP3 SWAP2 POP POP JUMP JUMPDEST PUSH1 0x0 PUSH1 0x20 DUP3 ADD SWAP1 POP SWAP2 SWAP1 POP JUMP JUMPDEST PUSH1 0x0 PUSH2 0xB6C DUP3 PUSH2 0xB01 JUMP JUMPDEST PUSH2 0xB76 DUP2 DUP6 PUSH2 0xB0C JUMP JUMPDEST SWAP4 POP PUSH2 0xB81 DUP4 PUSH2 0xB1D JUMP JUMPDEST DUP1 PUSH1 0x0 JUMPDEST DUP4 DUP2 LT ISZERO PUSH2 0xBB2 JUMPI DUP2 MLOAD PUSH2 0xB99 DUP9 DUP3 PUSH2 0xB3C JUMP JUMPDEST SWAP8 POP PUSH2 0xBA4 DUP4 PUSH2 0xB54 JUMP JUMPDEST SWAP3 POP POP PUSH1 0x1 DUP2 ADD SWAP1 POP PUSH2 0xB85 JUMP JUMPDEST POP DUP6 SWAP4 POP POP POP POP SWAP3 SWAP2 POP POP JUMP JUMPDEST PUSH1 0x0 PUSH1 0x80 DUP3 ADD SWAP1 POP PUSH2 0xBD4 PUSH1 0x0 DUP4 ADD DUP8 PUSH2 0xA9A JUMP JUMPDEST DUP2 DUP2 SUB PUSH1 0x20 DUP4 ADD MSTORE PUSH2 0xBE6 DUP2 DUP7 PUSH2 0xB61 JUMP JUMPDEST SWAP1 POP PUSH2 0xBF5 PUSH1 0x40 DUP4 ADD DUP6 PUSH2 0x94D JUMP JUMPDEST PUSH2 0xC02 PUSH1 0x60 DUP4 ADD DUP5 PUSH2 0xA9A JUMP JUMPDEST SWAP6 SWAP5 POP POP POP POP POP JUMP JUMPDEST PUSH1 0x0 DUP1 REVERT JUMPDEST PUSH1 0x0 PUSH8 0xFFFFFFFFFFFFFFFF DUP3 GT ISZERO PUSH2 0xC2B JUMPI PUSH2 0xC2A PUSH2 0x98D JUMP JUMPDEST JUMPDEST PUSH1 0x20 DUP3 MUL SWAP1 POP PUSH1 0x20 DUP2 ADD SWAP1 POP SWAP2 SWAP1 POP JUMP JUMPDEST PUSH1 0x0 DUP1 REVERT JUMPDEST PUSH1 0x0 PUSH2 0xC54 PUSH2 0xC4F DUP5 PUSH2 0xC10 JUMP JUMPDEST PUSH2 0x9ED JUMP JUMPDEST SWAP1 POP DUP1 DUP4 DUP3 MSTORE PUSH1 0x20 DUP3 ADD SWAP1 POP PUSH1 0x20 DUP5 MUL DUP4 ADD DUP6 DUP2 GT ISZERO PUSH2 0xC77 JUMPI PUSH2 0xC76 PUSH2 0xC3C JUMP JUMPDEST JUMPDEST DUP4 JUMPDEST DUP2 DUP2 LT ISZERO PUSH2 0xCA0 JUMPI DUP1 PUSH2 0xC8C DUP9 DUP3 PUSH2 0xA08 JUMP JUMPDEST DUP5 MSTORE PUSH1 0x20 DUP5 ADD SWAP4 POP POP PUSH1 0x20 DUP2 ADD SWAP1 POP PUSH2 0xC79 JUMP JUMPDEST POP POP POP SWAP4 SWAP3 POP POP POP JUMP JUMPDEST PUSH1 0x0 DUP3 PUSH1 0x1F DUP4 ADD SLT PUSH2 0xCBF JUMPI PUSH2 0xCBE PUSH2 0xC0B JUMP JUMPDEST JUMPDEST DUP2 MLOAD PUSH2 0xCCF DUP5 DUP3 PUSH1 0x20 DUP7 ADD PUSH2 0xC41 JUMP JUMPDEST SWAP2 POP POP SWAP3 SWAP2 POP POP JUMP JUMPDEST PUSH1 0x0 PUSH1 0x20 DUP3 DUP5 SUB SLT ISZERO PUSH2 0xCEE JUMPI PUSH2 0xCED PUSH2 0x807 JUMP JUMPDEST JUMPDEST PUSH1 0x0 DUP3 ADD MLOAD PUSH8 0xFFFFFFFFFFFFFFFF DUP2 GT ISZERO PUSH2 0xD0C JUMPI PUSH2 0xD0B PUSH2 0x80C JUMP JUMPDEST JUMPDEST PUSH2 0xD18 DUP5 DUP3 DUP6 ADD PUSH2 0xCAA JUMP JUMPDEST SWAP2 POP POP SWAP3 SWAP2 POP POP JUMP JUMPDEST PUSH1 0x0 PUSH1 0x40 DUP3 ADD SWAP1 POP PUSH2 0xD36 PUSH1 0x0 DUP4 ADD DUP6 PUSH2 0x94D JUMP JUMPDEST PUSH2 0xD43 PUSH1 0x20 DUP4 ADD DUP5 PUSH2 0xA9A JUMP JUMPDEST SWAP4 SWAP3 POP POP POP JUMP JUMPDEST PUSH1 0x0 DUP2 ISZERO ISZERO SWAP1 POP SWAP2 SWAP1 POP JUMP JUMPDEST PUSH2 0xD5F DUP2 PUSH2 0xD4A JUMP JUMPDEST DUP2 EQ PUSH2 0xD6A JUMPI PUSH1 0x0 DUP1 REVERT JUMPDEST POP JUMP JUMPDEST PUSH1 0x0 DUP2 MLOAD SWAP1 POP PUSH2 0xD7C DUP2 PUSH2 0xD56 JUMP JUMPDEST SWAP3 SWAP2 POP POP JUMP JUMPDEST PUSH1 0x0 PUSH1 0x20 DUP3 DUP5 SUB SLT ISZERO PUSH2 0xD98 JUMPI PUSH2 0xD97 PUSH2 0x807 JUMP JUMPDEST JUMPDEST PUSH1 0x0 PUSH2 0xDA6 DUP5 DUP3 DUP6 ADD PUSH2 0xD6D JUMP JUMPDEST SWAP2 POP POP SWAP3 SWAP2 POP POP JUMP JUMPDEST PUSH1 0x0 PUSH1 0x60 DUP3 ADD SWAP1 POP PUSH2 0xDC4 PUSH1 0x0 DUP4 ADD DUP7 PUSH2 0x94D JUMP JUMPDEST PUSH2 0xDD1 PUSH1 0x20 DUP4 ADD DUP6 PUSH2 0x94D JUMP JUMPDEST PUSH2 0xDDE PUSH1 0x40 DUP4 ADD DUP5 PUSH2 0xA9A JUMP JUMPDEST SWAP5 SWAP4 POP POP POP POP JUMP JUMPDEST PUSH1 0x0 DUP3 DUP3 MSTORE PUSH1 0x20 DUP3 ADD SWAP1 POP SWAP3 SWAP2 POP POP JUMP JUMPDEST PUSH32 0x6D746F6B656E207472616E73666572206572726F722100000000000000000000 PUSH1 0x0 DUP3 ADD MSTORE POP JUMP JUMPDEST PUSH1 0x0 PUSH2 0xE2D PUSH1 0x16 DUP4 PUSH2 0xDE6 JUMP JUMPDEST SWAP2 POP PUSH2 0xE38 DUP3 PUSH2 0xDF7 JUMP JUMPDEST PUSH1 0x20 DUP3 ADD SWAP1 POP SWAP2 SWAP1 POP JUMP JUMPDEST PUSH1 0x0 PUSH1 0x20 DUP3 ADD SWAP1 POP DUP2 DUP2 SUB PUSH1 0x0 DUP4 ADD MSTORE PUSH2 0xE5C DUP2 PUSH2 0xE20 JUMP JUMPDEST SWAP1 POP SWAP2 SWAP1 POP JUMP JUMPDEST PUSH32 0x6D73672E76616C75652073686F756C642062696767676572207468616E20616D PUSH1 0x0 DUP3 ADD MSTORE PUSH32 0x6F756E744554484D696E00000000000000000000000000000000000000000000 PUSH1 0x20 DUP3 ADD MSTORE POP JUMP JUMPDEST PUSH1 0x0 PUSH2 0xEBF PUSH1 0x2A DUP4 PUSH2 0xDE6 JUMP JUMPDEST SWAP2 POP PUSH2 0xECA DUP3 PUSH2 0xE63 JUMP JUMPDEST PUSH1 0x40 DUP3 ADD SWAP1 POP SWAP2 SWAP1 POP JUMP JUMPDEST PUSH1 0x0 PUSH1 0x20 DUP3 ADD SWAP1 POP DUP2 DUP2 SUB PUSH1 0x0 DUP4 ADD MSTORE PUSH2 0xEEE DUP2 PUSH2 0xEB2 JUMP JUMPDEST SWAP1 POP SWAP2 SWAP1 POP JUMP JUMPDEST PUSH1 0x0 PUSH1 0xC0 DUP3 ADD SWAP1 POP PUSH2 0xF0A PUSH1 0x0 DUP4 ADD DUP10 PUSH2 0x94D JUMP JUMPDEST PUSH2 0xF17 PUSH1 0x20 DUP4 ADD DUP9 PUSH2 0xA9A JUMP JUMPDEST PUSH2 0xF24 PUSH1 0x40 DUP4 ADD DUP8 PUSH2 0xA9A JUMP JUMPDEST PUSH2 0xF31 PUSH1 0x60 DUP4 ADD DUP7 PUSH2 0xA9A JUMP JUMPDEST PUSH2 0xF3E PUSH1 0x80 DUP4 ADD DUP6 PUSH2 0x94D JUMP JUMPDEST PUSH2 0xF4B PUSH1 0xA0 DUP4 ADD DUP5 PUSH2 0xA9A JUMP JUMPDEST SWAP8 SWAP7 POP POP POP POP POP POP POP JUMP JUMPDEST PUSH1 0x0 DUP1 PUSH1 0x0 PUSH1 0x60 DUP5 DUP7 SUB SLT ISZERO PUSH2 0xF6F JUMPI PUSH2 0xF6E PUSH2 0x807 JUMP JUMPDEST JUMPDEST PUSH1 0x0 PUSH2 0xF7D DUP7 DUP3 DUP8 ADD PUSH2 0xA08 JUMP JUMPDEST SWAP4 POP POP PUSH1 0x20 PUSH2 0xF8E DUP7 DUP3 DUP8 ADD PUSH2 0xA08 JUMP JUMPDEST SWAP3 POP POP PUSH1 0x40 PUSH2 0xF9F DUP7 DUP3 DUP8 ADD PUSH2 0xA08 JUMP JUMPDEST SWAP2 POP POP SWAP3 POP SWAP3 POP SWAP3 JUMP INVALID LOG2 PUSH5 0x6970667358 0x22 SLT KECCAK256 0x4B SWAP8 DIV 0x1F LOG1 PUSH17 0xCDAF279E516C4AB014BEDACF2865B2A5E1 SWAP1 SGT PUSH4 0x7217AB00 0x21 0xCF PUSH5 0x736F6C6343 STOP ADDMOD 0xD STOP CALLER "
				},
				"gasEstimates": {
					"creation": {
						"codeDepositCost": "812600",
						"executionCost": "201385",
						"totalCost": "1013985"
					},
					"external": {
						"addLiquidity(uint256,uint256,uint256,uint256)": "infinite",
						"buyExactTokenByETH(uint256)": "infinite",
						"depositToMasterChef(uint256,uint256)": "infinite",
						"withdraw(uint256)": "infinite"
					}
				},
				"methodIdentifiers": {
					"addLiquidity(uint256,uint256,uint256,uint256)": "aebf3e41",
					"buyExactTokenByETH(uint256)": "a93f74e0",
					"depositToMasterChef(uint256,uint256)": "881e7a97",
					"withdraw(uint256)": "2e1a7d4d"
				}
			},
			"userdoc": {
				"kind": "user",
				"methods": {},
				"version": 1
			}
		}
	}
}