{
	"Code-hardhat-ethersJs/contracts/MyTokenMarket.sol": {
		"MyTokenMarket": {
			"abi": [
				{
					"inputs": [],
					"stateMutability": "nonpayable",
					"type": "constructor"
				},
				{
					"inputs": [
						{
							"internalType": "uint256",
							"name": "amountMyTokenDesired",
							"type": "uint256"
						}
					],
					"name": "addLiquidity",
					"outputs": [
						{
							"internalType": "uint256",
							"name": "amountOfLp",
							"type": "uint256"
						}
					],
					"stateMutability": "payable",
					"type": "function"
				},
				{
					"inputs": [
						{
							"internalType": "uint256",
							"name": "amountOutMin",
							"type": "uint256"
						}
					],
					"name": "buyExactTokenByETH",
					"outputs": [],
					"stateMutability": "payable",
					"type": "function"
				},
				{
					"inputs": [
						{
							"internalType": "address",
							"name": "lpAddress",
							"type": "address"
						},
						{
							"internalType": "uint256",
							"name": "pid",
							"type": "uint256"
						},
						{
							"internalType": "uint256",
							"name": "amount",
							"type": "uint256"
						}
					],
					"name": "depositToMasterChef",
					"outputs": [],
					"stateMutability": "nonpayable",
					"type": "function"
				},
				{
					"inputs": [
						{
							"internalType": "uint256",
							"name": "pid",
							"type": "uint256"
						},
						{
							"internalType": "address",
							"name": "user",
							"type": "address"
						}
					],
					"name": "withdraw",
					"outputs": [],
					"stateMutability": "nonpayable",
					"type": "function"
				}
			],
			"devdoc": {
				"kind": "dev",
				"methods": {},
				"version": 1
			},
			"evm": {
				"assembly": "    /* \"Code-hardhat-ethersJs/contracts/MyTokenMarket.sol\":264:3359  contract MyTokenMarket{... */\n  mstore(0x40, 0x80)\n    /* \"Code-hardhat-ethersJs/contracts/MyTokenMarket.sol\":537:579  0x7a250d5630B4cF539739dF2C5dAcb4c659F2488D */\n  0x7a250d5630b4cf539739df2c5dacb4c659f2488d\n    /* \"Code-hardhat-ethersJs/contracts/MyTokenMarket.sol\":516:579  address uv2address = 0x7a250d5630B4cF539739dF2C5dAcb4c659F2488D */\n  0x00\n  dup1\n  0x0100\n  exp\n  dup2\n  sload\n  dup2\n  0xffffffffffffffffffffffffffffffffffffffff\n  mul\n  not\n  and\n  swap1\n  dup4\n  0xffffffffffffffffffffffffffffffffffffffff\n  and\n  mul\n  or\n  swap1\n  sstore\n  pop\n    /* \"Code-hardhat-ethersJs/contracts/MyTokenMarket.sol\":607:649  0xc778417E063141139Fce010982780140Aa0cD5Ab */\n  0xc778417e063141139fce010982780140aa0cd5ab\n    /* \"Code-hardhat-ethersJs/contracts/MyTokenMarket.sol\":585:649  address wethaddress = 0xc778417E063141139Fce010982780140Aa0cD5Ab */\n  0x01\n  exp(0x0100, 0x00)\n  dup2\n  sload\n  dup2\n  0xffffffffffffffffffffffffffffffffffffffff\n  mul\n  not\n  and\n  swap1\n  dup4\n  0xffffffffffffffffffffffffffffffffffffffff\n  and\n  mul\n  or\n  swap1\n  sstore\n  pop\n    /* \"Code-hardhat-ethersJs/contracts/MyTokenMarket.sol\":680:722  0x549F978C19a5AC86D906052639E317B57724ef44 */\n  0x549f978c19a5ac86d906052639e317b57724ef44\n    /* \"Code-hardhat-ethersJs/contracts/MyTokenMarket.sol\":655:722  address mytokenaddress = 0x549F978C19a5AC86D906052639E317B57724ef44 */\n  0x02\n  exp(0x0100, 0x00)\n  dup2\n  sload\n  dup2\n  0xffffffffffffffffffffffffffffffffffffffff\n  mul\n  not\n  and\n  swap1\n  dup4\n  0xffffffffffffffffffffffffffffffffffffffff\n  and\n  mul\n  or\n  swap1\n  sstore\n  pop\n    /* \"Code-hardhat-ethersJs/contracts/MyTokenMarket.sol\":751:793  0xf42A08C0EA66ee4A474336087A6C17E9EA6c9dE9 */\n  0xf42a08c0ea66ee4a474336087a6c17e9ea6c9de9\n    /* \"Code-hardhat-ethersJs/contracts/MyTokenMarket.sol\":728:793  address sushiaddress = 0xf42A08C0EA66ee4A474336087A6C17E9EA6c9dE9 */\n  0x03\n  exp(0x0100, 0x00)\n  dup2\n  sload\n  dup2\n  0xffffffffffffffffffffffffffffffffffffffff\n  mul\n  not\n  and\n  swap1\n  dup4\n  0xffffffffffffffffffffffffffffffffffffffff\n  and\n  mul\n  or\n  swap1\n  sstore\n  pop\n    /* \"Code-hardhat-ethersJs/contracts/MyTokenMarket.sol\":827:869  0xd9DFA8c6b37cfDF16668fE0465896f4A1B9b2c4F */\n  0xd9dfa8c6b37cfdf16668fe0465896f4a1b9b2c4f\n    /* \"Code-hardhat-ethersJs/contracts/MyTokenMarket.sol\":799:869  address masterchefaddress = 0xd9DFA8c6b37cfDF16668fE0465896f4A1B9b2c4F */\n  0x04\n  exp(0x0100, 0x00)\n  dup2\n  sload\n  dup2\n  0xffffffffffffffffffffffffffffffffffffffff\n  mul\n  not\n  and\n  swap1\n  dup4\n  0xffffffffffffffffffffffffffffffffffffffff\n  and\n  mul\n  or\n  swap1\n  sstore\n  pop\n    /* \"Code-hardhat-ethersJs/contracts/MyTokenMarket.sol\":925:935  uv2address */\n  0x00\n  dup1\n  sload\n  swap1\n  0x0100\n  exp\n  swap1\n  div\n  0xffffffffffffffffffffffffffffffffffffffff\n  and\n    /* \"Code-hardhat-ethersJs/contracts/MyTokenMarket.sol\":875:936  IUniswapV2Router02 uv2router = IUniswapV2Router02(uv2address) */\n  0x05\n  exp(0x0100, 0x00)\n  dup2\n  sload\n  dup2\n  0xffffffffffffffffffffffffffffffffffffffff\n  mul\n  not\n  and\n  swap1\n  dup4\n  0xffffffffffffffffffffffffffffffffffffffff\n  and\n  mul\n  or\n  swap1\n  sstore\n  pop\n    /* \"Code-hardhat-ethersJs/contracts/MyTokenMarket.sol\":965:979  mytokenaddress */\n  0x02\n  0x00\n  swap1\n  sload\n  swap1\n  0x0100\n  exp\n  swap1\n  div\n  0xffffffffffffffffffffffffffffffffffffffff\n  and\n    /* \"Code-hardhat-ethersJs/contracts/MyTokenMarket.sol\":942:980  IERC20 mtoken = IERC20(mytokenaddress) */\n  0x06\n  exp(0x0100, 0x00)\n  dup2\n  sload\n  dup2\n  0xffffffffffffffffffffffffffffffffffffffff\n  mul\n  not\n  and\n  swap1\n  dup4\n  0xffffffffffffffffffffffffffffffffffffffff\n  and\n  mul\n  or\n  swap1\n  sstore\n  pop\n    /* \"Code-hardhat-ethersJs/contracts/MyTokenMarket.sol\":1023:1040  masterchefaddress */\n  0x04\n  0x00\n  swap1\n  sload\n  swap1\n  0x0100\n  exp\n  swap1\n  div\n  0xffffffffffffffffffffffffffffffffffffffff\n  and\n    /* \"Code-hardhat-ethersJs/contracts/MyTokenMarket.sol\":986:1041  IMasterChef masterChef = IMasterChef(masterchefaddress) */\n  0x07\n  exp(0x0100, 0x00)\n  dup2\n  sload\n  dup2\n  0xffffffffffffffffffffffffffffffffffffffff\n  mul\n  not\n  and\n  swap1\n  dup4\n  0xffffffffffffffffffffffffffffffffffffffff\n  and\n  mul\n  or\n  swap1\n  sstore\n  pop\n    /* \"Code-hardhat-ethersJs/contracts/MyTokenMarket.sol\":1047:1067  constructor(){... */\n  callvalue\n  dup1\n  iszero\n  tag_1\n  jumpi\n  0x00\n  dup1\n  revert\ntag_1:\n  pop\n    /* \"Code-hardhat-ethersJs/contracts/MyTokenMarket.sol\":264:3359  contract MyTokenMarket{... */\n  dataSize(sub_0)\n  dup1\n  dataOffset(sub_0)\n  0x00\n  codecopy\n  0x00\n  return\nstop\n\nsub_0: assembly {\n        /* \"Code-hardhat-ethersJs/contracts/MyTokenMarket.sol\":264:3359  contract MyTokenMarket{... */\n      mstore(0x40, 0x80)\n      jumpi(tag_1, lt(calldatasize, 0x04))\n      shr(0xe0, calldataload(0x00))\n      dup1\n      0xf714ce\n      eq\n      tag_2\n      jumpi\n      dup1\n      0x51c6590a\n      eq\n      tag_3\n      jumpi\n      dup1\n      0xa93f74e0\n      eq\n      tag_4\n      jumpi\n      dup1\n      0xfc55d2bf\n      eq\n      tag_5\n      jumpi\n    tag_1:\n      0x00\n      dup1\n      revert\n        /* \"Code-hardhat-ethersJs/contracts/MyTokenMarket.sol\":3006:3355  function withdraw(uint256 pid,address user)public{... */\n    tag_2:\n      callvalue\n      dup1\n      iszero\n      tag_6\n      jumpi\n      0x00\n      dup1\n      revert\n    tag_6:\n      pop\n      tag_7\n      0x04\n      dup1\n      calldatasize\n      sub\n      dup2\n      add\n      swap1\n      tag_8\n      swap2\n      swap1\n      tag_9\n      jump\t// in\n    tag_8:\n      tag_10\n      jump\t// in\n    tag_7:\n      stop\n        /* \"Code-hardhat-ethersJs/contracts/MyTokenMarket.sol\":1606:2146  function addLiquidity(... */\n    tag_3:\n      tag_11\n      0x04\n      dup1\n      calldatasize\n      sub\n      dup2\n      add\n      swap1\n      tag_12\n      swap2\n      swap1\n      tag_13\n      jump\t// in\n    tag_12:\n      tag_14\n      jump\t// in\n    tag_11:\n      mload(0x40)\n      tag_15\n      swap2\n      swap1\n      tag_16\n      jump\t// in\n    tag_15:\n      mload(0x40)\n      dup1\n      swap2\n      sub\n      swap1\n      return\n        /* \"Code-hardhat-ethersJs/contracts/MyTokenMarket.sol\":2675:2999  function buyExactTokenByETH(uint amountOutMin)public payable{... */\n    tag_4:\n      tag_17\n      0x04\n      dup1\n      calldatasize\n      sub\n      dup2\n      add\n      swap1\n      tag_18\n      swap2\n      swap1\n      tag_13\n      jump\t// in\n    tag_18:\n      tag_19\n      jump\t// in\n    tag_17:\n      stop\n        /* \"Code-hardhat-ethersJs/contracts/MyTokenMarket.sol\":2397:2668  function depositToMasterChef(address lpAddress,uint256 pid, uint256 amount)public{... */\n    tag_5:\n      callvalue\n      dup1\n      iszero\n      tag_20\n      jumpi\n      0x00\n      dup1\n      revert\n    tag_20:\n      pop\n      tag_21\n      0x04\n      dup1\n      calldatasize\n      sub\n      dup2\n      add\n      swap1\n      tag_22\n      swap2\n      swap1\n      tag_23\n      jump\t// in\n    tag_22:\n      tag_24\n      jump\t// in\n    tag_21:\n      stop\n        /* \"Code-hardhat-ethersJs/contracts/MyTokenMarket.sol\":3006:3355  function withdraw(uint256 pid,address user)public{... */\n    tag_10:\n        /* \"Code-hardhat-ethersJs/contracts/MyTokenMarket.sol\":3065:3101  IMasterChef.UserInfo memory userInfo */\n      0x00\n        /* \"Code-hardhat-ethersJs/contracts/MyTokenMarket.sol\":3104:3114  masterChef */\n      0x07\n      0x00\n      swap1\n      sload\n      swap1\n      0x0100\n      exp\n      swap1\n      div\n      0xffffffffffffffffffffffffffffffffffffffff\n      and\n        /* \"Code-hardhat-ethersJs/contracts/MyTokenMarket.sol\":3104:3123  masterChef.userInfo */\n      0xffffffffffffffffffffffffffffffffffffffff\n      and\n      0x1959a002\n        /* \"Code-hardhat-ethersJs/contracts/MyTokenMarket.sol\":3124:3128  user */\n      dup4\n        /* \"Code-hardhat-ethersJs/contracts/MyTokenMarket.sol\":3104:3129  masterChef.userInfo(user) */\n      mload(0x40)\n      dup3\n      0xffffffff\n      and\n      0xe0\n      shl\n      dup2\n      mstore\n      0x04\n      add\n      tag_26\n      swap2\n      swap1\n      tag_27\n      jump\t// in\n    tag_26:\n      0x40\n      dup1\n      mload\n      dup1\n      dup4\n      sub\n      dup2\n      dup7\n      gas\n      staticcall\n      iszero\n      dup1\n      iszero\n      tag_29\n      jumpi\n      returndatasize\n      0x00\n      dup1\n      returndatacopy\n      revert(0x00, returndatasize)\n    tag_29:\n      pop\n      pop\n      pop\n      pop\n      mload(0x40)\n      returndatasize\n      not(0x1f)\n      0x1f\n      dup3\n      add\n      and\n      dup3\n      add\n      dup1\n      0x40\n      mstore\n      pop\n      dup2\n      add\n      swap1\n      tag_30\n      swap2\n      swap1\n      tag_31\n      jump\t// in\n    tag_30:\n        /* \"Code-hardhat-ethersJs/contracts/MyTokenMarket.sol\":3065:3129  IMasterChef.UserInfo memory userInfo = masterChef.userInfo(user) */\n      swap1\n      pop\n        /* \"Code-hardhat-ethersJs/contracts/MyTokenMarket.sol\":3215:3225  masterChef */\n      0x07\n      0x00\n      swap1\n      sload\n      swap1\n      0x0100\n      exp\n      swap1\n      div\n      0xffffffffffffffffffffffffffffffffffffffff\n      and\n        /* \"Code-hardhat-ethersJs/contracts/MyTokenMarket.sol\":3215:3234  masterChef.withdraw */\n      0xffffffffffffffffffffffffffffffffffffffff\n      and\n      0x441a3e70\n        /* \"Code-hardhat-ethersJs/contracts/MyTokenMarket.sol\":3235:3238  pid */\n      dup5\n        /* \"Code-hardhat-ethersJs/contracts/MyTokenMarket.sol\":3239:3247  userInfo */\n      dup4\n        /* \"Code-hardhat-ethersJs/contracts/MyTokenMarket.sol\":3239:3254  userInfo.amount */\n      0x00\n      add\n      mload\n        /* \"Code-hardhat-ethersJs/contracts/MyTokenMarket.sol\":3215:3255  masterChef.withdraw(pid,userInfo.amount) */\n      mload(0x40)\n      dup4\n      0xffffffff\n      and\n      0xe0\n      shl\n      dup2\n      mstore\n      0x04\n      add\n      tag_32\n      swap3\n      swap2\n      swap1\n      tag_33\n      jump\t// in\n    tag_32:\n      0x00\n      mload(0x40)\n      dup1\n      dup4\n      sub\n      dup2\n      0x00\n      dup8\n      dup1\n      extcodesize\n      iszero\n      dup1\n      iszero\n      tag_34\n      jumpi\n      0x00\n      dup1\n      revert\n    tag_34:\n      pop\n      gas\n      call\n      iszero\n      dup1\n      iszero\n      tag_36\n      jumpi\n      returndatasize\n      0x00\n      dup1\n      returndatacopy\n      revert(0x00, returndatasize)\n    tag_36:\n      pop\n      pop\n      pop\n      pop\n        /* \"Code-hardhat-ethersJs/contracts/MyTokenMarket.sol\":3055:3355  {... */\n      pop\n        /* \"Code-hardhat-ethersJs/contracts/MyTokenMarket.sol\":3006:3355  function withdraw(uint256 pid,address user)public{... */\n      pop\n      pop\n      jump\t// out\n        /* \"Code-hardhat-ethersJs/contracts/MyTokenMarket.sol\":1606:2146  function addLiquidity(... */\n    tag_14:\n        /* \"Code-hardhat-ethersJs/contracts/MyTokenMarket.sol\":1694:1712  uint256 amountOfLp */\n      0x00\n        /* \"Code-hardhat-ethersJs/contracts/MyTokenMarket.sol\":1761:1767  mtoken */\n      0x06\n      0x00\n      swap1\n      sload\n      swap1\n      0x0100\n      exp\n      swap1\n      div\n      0xffffffffffffffffffffffffffffffffffffffff\n      and\n        /* \"Code-hardhat-ethersJs/contracts/MyTokenMarket.sol\":1761:1775  mtoken.approve */\n      0xffffffffffffffffffffffffffffffffffffffff\n      and\n      0x095ea7b3\n        /* \"Code-hardhat-ethersJs/contracts/MyTokenMarket.sol\":1784:1793  uv2router */\n      0x05\n      0x00\n      swap1\n      sload\n      swap1\n      0x0100\n      exp\n      swap1\n      div\n      0xffffffffffffffffffffffffffffffffffffffff\n      and\n        /* \"Code-hardhat-ethersJs/contracts/MyTokenMarket.sol\":1796:1816  amountMyTokenDesired */\n      dup5\n        /* \"Code-hardhat-ethersJs/contracts/MyTokenMarket.sol\":1761:1817  mtoken.approve(address(uv2router), amountMyTokenDesired) */\n      mload(0x40)\n      dup4\n      0xffffffff\n      and\n      0xe0\n      shl\n      dup2\n      mstore\n      0x04\n      add\n      tag_38\n      swap3\n      swap2\n      swap1\n      tag_39\n      jump\t// in\n    tag_38:\n      0x20\n      mload(0x40)\n      dup1\n      dup4\n      sub\n      dup2\n      0x00\n      dup8\n      gas\n      call\n      iszero\n      dup1\n      iszero\n      tag_41\n      jumpi\n      returndatasize\n      0x00\n      dup1\n      returndatacopy\n      revert(0x00, returndatasize)\n    tag_41:\n      pop\n      pop\n      pop\n      pop\n      mload(0x40)\n      returndatasize\n      not(0x1f)\n      0x1f\n      dup3\n      add\n      and\n      dup3\n      add\n      dup1\n      0x40\n      mstore\n      pop\n      dup2\n      add\n      swap1\n      tag_42\n      swap2\n      swap1\n      tag_43\n      jump\t// in\n    tag_42:\n      pop\n        /* \"Code-hardhat-ethersJs/contracts/MyTokenMarket.sol\":1827:1839  bool success */\n      0x00\n        /* \"Code-hardhat-ethersJs/contracts/MyTokenMarket.sol\":1842:1848  mtoken */\n      0x06\n      0x00\n      swap1\n      sload\n      swap1\n      0x0100\n      exp\n      swap1\n      div\n      0xffffffffffffffffffffffffffffffffffffffff\n      and\n        /* \"Code-hardhat-ethersJs/contracts/MyTokenMarket.sol\":1842:1861  mtoken.transferFrom */\n      0xffffffffffffffffffffffffffffffffffffffff\n      and\n      0x23b872dd\n        /* \"Code-hardhat-ethersJs/contracts/MyTokenMarket.sol\":1862:1872  msg.sender */\n      caller\n        /* \"Code-hardhat-ethersJs/contracts/MyTokenMarket.sol\":1882:1886  this */\n      address\n        /* \"Code-hardhat-ethersJs/contracts/MyTokenMarket.sol\":1889:1909  amountMyTokenDesired */\n      dup7\n        /* \"Code-hardhat-ethersJs/contracts/MyTokenMarket.sol\":1842:1910  mtoken.transferFrom(msg.sender, address(this), amountMyTokenDesired) */\n      mload(0x40)\n      dup5\n      0xffffffff\n      and\n      0xe0\n      shl\n      dup2\n      mstore\n      0x04\n      add\n      tag_44\n      swap4\n      swap3\n      swap2\n      swap1\n      tag_45\n      jump\t// in\n    tag_44:\n      0x20\n      mload(0x40)\n      dup1\n      dup4\n      sub\n      dup2\n      0x00\n      dup8\n      gas\n      call\n      iszero\n      dup1\n      iszero\n      tag_47\n      jumpi\n      returndatasize\n      0x00\n      dup1\n      returndatacopy\n      revert(0x00, returndatasize)\n    tag_47:\n      pop\n      pop\n      pop\n      pop\n      mload(0x40)\n      returndatasize\n      not(0x1f)\n      0x1f\n      dup3\n      add\n      and\n      dup3\n      add\n      dup1\n      0x40\n      mstore\n      pop\n      dup2\n      add\n      swap1\n      tag_48\n      swap2\n      swap1\n      tag_43\n      jump\t// in\n    tag_48:\n        /* \"Code-hardhat-ethersJs/contracts/MyTokenMarket.sol\":1827:1910  bool success = mtoken.transferFrom(msg.sender, address(this), amountMyTokenDesired) */\n      swap1\n      pop\n        /* \"Code-hardhat-ethersJs/contracts/MyTokenMarket.sol\":1928:1935  success */\n      dup1\n        /* \"Code-hardhat-ethersJs/contracts/MyTokenMarket.sol\":1920:1962  require(success, \"mtoken transfer error!\") */\n      tag_49\n      jumpi\n      mload(0x40)\n      0x08c379a000000000000000000000000000000000000000000000000000000000\n      dup2\n      mstore\n      0x04\n      add\n      tag_50\n      swap1\n      tag_51\n      jump\t// in\n    tag_50:\n      mload(0x40)\n      dup1\n      swap2\n      sub\n      swap1\n      revert\n    tag_49:\n        /* \"Code-hardhat-ethersJs/contracts/MyTokenMarket.sol\":1973:1989  uint amountToken */\n      0x00\n        /* \"Code-hardhat-ethersJs/contracts/MyTokenMarket.sol\":1995:2004  uv2router */\n      0x05\n      0x00\n      swap1\n      sload\n      swap1\n      0x0100\n      exp\n      swap1\n      div\n      0xffffffffffffffffffffffffffffffffffffffff\n      and\n        /* \"Code-hardhat-ethersJs/contracts/MyTokenMarket.sol\":1995:2020  uv2router.addLiquidityETH */\n      0xffffffffffffffffffffffffffffffffffffffff\n      and\n      0xf305d719\n        /* \"Code-hardhat-ethersJs/contracts/MyTokenMarket.sol\":2028:2037  msg.value */\n      callvalue\n        /* \"Code-hardhat-ethersJs/contracts/MyTokenMarket.sol\":2040:2054  mytokenaddress */\n      0x02\n      0x00\n      swap1\n      sload\n      swap1\n      0x0100\n      exp\n      swap1\n      div\n      0xffffffffffffffffffffffffffffffffffffffff\n      and\n        /* \"Code-hardhat-ethersJs/contracts/MyTokenMarket.sol\":2056:2076  amountMyTokenDesired */\n      dup8\n        /* \"Code-hardhat-ethersJs/contracts/MyTokenMarket.sol\":2078:2079  0 */\n      0x00\n        /* \"Code-hardhat-ethersJs/contracts/MyTokenMarket.sol\":2081:2082  0 */\n      dup1\n        /* \"Code-hardhat-ethersJs/contracts/MyTokenMarket.sol\":2084:2094  msg.sender */\n      caller\n        /* \"Code-hardhat-ethersJs/contracts/MyTokenMarket.sol\":2095:2110  block.timestamp */\n      timestamp\n        /* \"Code-hardhat-ethersJs/contracts/MyTokenMarket.sol\":1995:2111  uv2router.addLiquidityETH{value: msg.value}( mytokenaddress, amountMyTokenDesired, 0, 0, msg.sender,block.timestamp) */\n      mload(0x40)\n      dup9\n      0xffffffff\n      and\n      0xe0\n      shl\n      dup2\n      mstore\n      0x04\n      add\n      tag_52\n      swap7\n      swap6\n      swap5\n      swap4\n      swap3\n      swap2\n      swap1\n      tag_53\n      jump\t// in\n    tag_52:\n      0x60\n      mload(0x40)\n      dup1\n      dup4\n      sub\n      dup2\n      dup6\n      dup9\n      gas\n      call\n      iszero\n      dup1\n      iszero\n      tag_55\n      jumpi\n      returndatasize\n      0x00\n      dup1\n      returndatacopy\n      revert(0x00, returndatasize)\n    tag_55:\n      pop\n      pop\n      pop\n      pop\n      pop\n      mload(0x40)\n      returndatasize\n      not(0x1f)\n      0x1f\n      dup3\n      add\n      and\n      dup3\n      add\n      dup1\n      0x40\n      mstore\n      pop\n      dup2\n      add\n      swap1\n      tag_56\n      swap2\n      swap1\n      tag_57\n      jump\t// in\n    tag_56:\n        /* \"Code-hardhat-ethersJs/contracts/MyTokenMarket.sol\":1972:2111  (uint amountToken,,) = uv2router.addLiquidityETH{value: msg.value}( mytokenaddress, amountMyTokenDesired, 0, 0, msg.sender,block.timestamp) */\n      pop\n      pop\n      swap1\n      pop\n        /* \"Code-hardhat-ethersJs/contracts/MyTokenMarket.sol\":2128:2139  amountToken */\n      dup1\n        /* \"Code-hardhat-ethersJs/contracts/MyTokenMarket.sol\":2121:2139  return amountToken */\n      swap3\n      pop\n      pop\n      pop\n        /* \"Code-hardhat-ethersJs/contracts/MyTokenMarket.sol\":1606:2146  function addLiquidity(... */\n      swap2\n      swap1\n      pop\n      jump\t// out\n        /* \"Code-hardhat-ethersJs/contracts/MyTokenMarket.sol\":2675:2999  function buyExactTokenByETH(uint amountOutMin)public payable{... */\n    tag_19:\n        /* \"Code-hardhat-ethersJs/contracts/MyTokenMarket.sol\":2749:2770  address[] memory path */\n      0x00\n        /* \"Code-hardhat-ethersJs/contracts/MyTokenMarket.sol\":2787:2788  2 */\n      0x02\n        /* \"Code-hardhat-ethersJs/contracts/MyTokenMarket.sol\":2773:2789  new address[](2) */\n      0xffffffffffffffff\n      dup2\n      gt\n      iszero\n      tag_59\n      jumpi\n      tag_60\n      tag_61\n      jump\t// in\n    tag_60:\n    tag_59:\n      mload(0x40)\n      swap1\n      dup1\n      dup3\n      mstore\n      dup1\n      0x20\n      mul\n      0x20\n      add\n      dup3\n      add\n      0x40\n      mstore\n      dup1\n      iszero\n      tag_62\n      jumpi\n      dup2\n      0x20\n      add\n      0x20\n      dup3\n      mul\n      dup1\n      calldatasize\n      dup4\n      calldatacopy\n      dup1\n      dup3\n      add\n      swap2\n      pop\n      pop\n      swap1\n      pop\n    tag_62:\n      pop\n        /* \"Code-hardhat-ethersJs/contracts/MyTokenMarket.sol\":2749:2789  address[] memory path = new address[](2) */\n      swap1\n      pop\n        /* \"Code-hardhat-ethersJs/contracts/MyTokenMarket.sol\":2821:2832  wethaddress */\n      0x01\n      0x00\n      swap1\n      sload\n      swap1\n      0x0100\n      exp\n      swap1\n      div\n      0xffffffffffffffffffffffffffffffffffffffff\n      and\n        /* \"Code-hardhat-ethersJs/contracts/MyTokenMarket.sol\":2803:2807  path */\n      dup2\n        /* \"Code-hardhat-ethersJs/contracts/MyTokenMarket.sol\":2808:2809  0 */\n      0x00\n        /* \"Code-hardhat-ethersJs/contracts/MyTokenMarket.sol\":2803:2810  path[0] */\n      dup2\n      mload\n      dup2\n      lt\n      tag_63\n      jumpi\n      tag_64\n      tag_65\n      jump\t// in\n    tag_64:\n    tag_63:\n      0x20\n      mul\n      0x20\n      add\n      add\n        /* \"Code-hardhat-ethersJs/contracts/MyTokenMarket.sol\":2803:2833  path[0] = address(wethaddress) */\n      swap1\n      0xffffffffffffffffffffffffffffffffffffffff\n      and\n      swap1\n      dup2\n      0xffffffffffffffffffffffffffffffffffffffff\n      and\n      dup2\n      mstore\n      pop\n      pop\n        /* \"Code-hardhat-ethersJs/contracts/MyTokenMarket.sol\":2865:2879  mytokenaddress */\n      0x02\n      0x00\n      swap1\n      sload\n      swap1\n      0x0100\n      exp\n      swap1\n      div\n      0xffffffffffffffffffffffffffffffffffffffff\n      and\n        /* \"Code-hardhat-ethersJs/contracts/MyTokenMarket.sol\":2847:2851  path */\n      dup2\n        /* \"Code-hardhat-ethersJs/contracts/MyTokenMarket.sol\":2852:2853  1 */\n      0x01\n        /* \"Code-hardhat-ethersJs/contracts/MyTokenMarket.sol\":2847:2854  path[1] */\n      dup2\n      mload\n      dup2\n      lt\n      tag_66\n      jumpi\n      tag_67\n      tag_65\n      jump\t// in\n    tag_67:\n    tag_66:\n      0x20\n      mul\n      0x20\n      add\n      add\n        /* \"Code-hardhat-ethersJs/contracts/MyTokenMarket.sol\":2847:2880  path[1] = address(mytokenaddress) */\n      swap1\n      0xffffffffffffffffffffffffffffffffffffffff\n      and\n      swap1\n      dup2\n      0xffffffffffffffffffffffffffffffffffffffff\n      and\n      dup2\n      mstore\n      pop\n      pop\n        /* \"Code-hardhat-ethersJs/contracts/MyTokenMarket.sol\":2894:2903  uv2router */\n      0x05\n      0x00\n      swap1\n      sload\n      swap1\n      0x0100\n      exp\n      swap1\n      div\n      0xffffffffffffffffffffffffffffffffffffffff\n      and\n        /* \"Code-hardhat-ethersJs/contracts/MyTokenMarket.sol\":2894:2925  uv2router.swapExactETHForTokens */\n      0xffffffffffffffffffffffffffffffffffffffff\n      and\n      0x7ff36ab5\n        /* \"Code-hardhat-ethersJs/contracts/MyTokenMarket.sol\":2933:2942  msg.value */\n      callvalue\n        /* \"Code-hardhat-ethersJs/contracts/MyTokenMarket.sol\":2944:2956  amountOutMin */\n      dup5\n        /* \"Code-hardhat-ethersJs/contracts/MyTokenMarket.sol\":2958:2962  path */\n      dup5\n        /* \"Code-hardhat-ethersJs/contracts/MyTokenMarket.sol\":2964:2974  msg.sender */\n      caller\n        /* \"Code-hardhat-ethersJs/contracts/MyTokenMarket.sol\":2976:2991  block.timestamp */\n      timestamp\n        /* \"Code-hardhat-ethersJs/contracts/MyTokenMarket.sol\":2894:2992  uv2router.swapExactETHForTokens{value: msg.value}(amountOutMin, path, msg.sender, block.timestamp) */\n      mload(0x40)\n      dup7\n      0xffffffff\n      and\n      0xe0\n      shl\n      dup2\n      mstore\n      0x04\n      add\n      tag_68\n      swap5\n      swap4\n      swap3\n      swap2\n      swap1\n      tag_69\n      jump\t// in\n    tag_68:\n      0x00\n      mload(0x40)\n      dup1\n      dup4\n      sub\n      dup2\n      dup6\n      dup9\n      gas\n      call\n      iszero\n      dup1\n      iszero\n      tag_71\n      jumpi\n      returndatasize\n      0x00\n      dup1\n      returndatacopy\n      revert(0x00, returndatasize)\n    tag_71:\n      pop\n      pop\n      pop\n      pop\n      pop\n      mload(0x40)\n      returndatasize\n      0x00\n      dup3\n      returndatacopy\n      returndatasize\n      not(0x1f)\n      0x1f\n      dup3\n      add\n      and\n      dup3\n      add\n      dup1\n      0x40\n      mstore\n      pop\n      dup2\n      add\n      swap1\n      tag_72\n      swap2\n      swap1\n      tag_73\n      jump\t// in\n    tag_72:\n      pop\n        /* \"Code-hardhat-ethersJs/contracts/MyTokenMarket.sol\":2735:2999  {... */\n      pop\n        /* \"Code-hardhat-ethersJs/contracts/MyTokenMarket.sol\":2675:2999  function buyExactTokenByETH(uint amountOutMin)public payable{... */\n      pop\n      jump\t// out\n        /* \"Code-hardhat-ethersJs/contracts/MyTokenMarket.sol\":2397:2668  function depositToMasterChef(address lpAddress,uint256 pid, uint256 amount)public{... */\n    tag_24:\n        /* \"Code-hardhat-ethersJs/contracts/MyTokenMarket.sol\":2631:2641  masterChef */\n      0x07\n      0x00\n      swap1\n      sload\n      swap1\n      0x0100\n      exp\n      swap1\n      div\n      0xffffffffffffffffffffffffffffffffffffffff\n      and\n        /* \"Code-hardhat-ethersJs/contracts/MyTokenMarket.sol\":2631:2649  masterChef.deposit */\n      0xffffffffffffffffffffffffffffffffffffffff\n      and\n      0xe2bbb158\n        /* \"Code-hardhat-ethersJs/contracts/MyTokenMarket.sol\":2650:2653  pid */\n      dup4\n        /* \"Code-hardhat-ethersJs/contracts/MyTokenMarket.sol\":2654:2660  amount */\n      dup4\n        /* \"Code-hardhat-ethersJs/contracts/MyTokenMarket.sol\":2631:2661  masterChef.deposit(pid,amount) */\n      mload(0x40)\n      dup4\n      0xffffffff\n      and\n      0xe0\n      shl\n      dup2\n      mstore\n      0x04\n      add\n      tag_75\n      swap3\n      swap2\n      swap1\n      tag_33\n      jump\t// in\n    tag_75:\n      0x00\n      mload(0x40)\n      dup1\n      dup4\n      sub\n      dup2\n      0x00\n      dup8\n      dup1\n      extcodesize\n      iszero\n      dup1\n      iszero\n      tag_76\n      jumpi\n      0x00\n      dup1\n      revert\n    tag_76:\n      pop\n      gas\n      call\n      iszero\n      dup1\n      iszero\n      tag_78\n      jumpi\n      returndatasize\n      0x00\n      dup1\n      returndatacopy\n      revert(0x00, returndatasize)\n    tag_78:\n      pop\n      pop\n      pop\n      pop\n        /* \"Code-hardhat-ethersJs/contracts/MyTokenMarket.sol\":2397:2668  function depositToMasterChef(address lpAddress,uint256 pid, uint256 amount)public{... */\n      pop\n      pop\n      pop\n      jump\t// out\n        /* \"#utility.yul\":7:82   */\n    tag_79:\n        /* \"#utility.yul\":40:46   */\n      0x00\n        /* \"#utility.yul\":73:75   */\n      0x40\n        /* \"#utility.yul\":67:76   */\n      mload\n        /* \"#utility.yul\":57:76   */\n      swap1\n      pop\n        /* \"#utility.yul\":7:82   */\n      swap1\n      jump\t// out\n        /* \"#utility.yul\":88:205   */\n    tag_80:\n        /* \"#utility.yul\":197:198   */\n      0x00\n        /* \"#utility.yul\":194:195   */\n      dup1\n        /* \"#utility.yul\":187:199   */\n      revert\n        /* \"#utility.yul\":211:328   */\n    tag_81:\n        /* \"#utility.yul\":320:321   */\n      0x00\n        /* \"#utility.yul\":317:318   */\n      dup1\n        /* \"#utility.yul\":310:322   */\n      revert\n        /* \"#utility.yul\":334:411   */\n    tag_82:\n        /* \"#utility.yul\":371:378   */\n      0x00\n        /* \"#utility.yul\":400:405   */\n      dup2\n        /* \"#utility.yul\":389:405   */\n      swap1\n      pop\n        /* \"#utility.yul\":334:411   */\n      swap2\n      swap1\n      pop\n      jump\t// out\n        /* \"#utility.yul\":417:539   */\n    tag_83:\n        /* \"#utility.yul\":490:514   */\n      tag_126\n        /* \"#utility.yul\":508:513   */\n      dup2\n        /* \"#utility.yul\":490:514   */\n      tag_82\n      jump\t// in\n    tag_126:\n        /* \"#utility.yul\":483:488   */\n      dup2\n        /* \"#utility.yul\":480:515   */\n      eq\n        /* \"#utility.yul\":470:533   */\n      tag_127\n      jumpi\n        /* \"#utility.yul\":529:530   */\n      0x00\n        /* \"#utility.yul\":526:527   */\n      dup1\n        /* \"#utility.yul\":519:531   */\n      revert\n        /* \"#utility.yul\":470:533   */\n    tag_127:\n        /* \"#utility.yul\":417:539   */\n      pop\n      jump\t// out\n        /* \"#utility.yul\":545:684   */\n    tag_84:\n        /* \"#utility.yul\":591:596   */\n      0x00\n        /* \"#utility.yul\":629:635   */\n      dup2\n        /* \"#utility.yul\":616:636   */\n      calldataload\n        /* \"#utility.yul\":607:636   */\n      swap1\n      pop\n        /* \"#utility.yul\":645:678   */\n      tag_129\n        /* \"#utility.yul\":672:677   */\n      dup2\n        /* \"#utility.yul\":645:678   */\n      tag_83\n      jump\t// in\n    tag_129:\n        /* \"#utility.yul\":545:684   */\n      swap3\n      swap2\n      pop\n      pop\n      jump\t// out\n        /* \"#utility.yul\":690:816   */\n    tag_85:\n        /* \"#utility.yul\":727:734   */\n      0x00\n        /* \"#utility.yul\":767:809   */\n      0xffffffffffffffffffffffffffffffffffffffff\n        /* \"#utility.yul\":760:765   */\n      dup3\n        /* \"#utility.yul\":756:810   */\n      and\n        /* \"#utility.yul\":745:810   */\n      swap1\n      pop\n        /* \"#utility.yul\":690:816   */\n      swap2\n      swap1\n      pop\n      jump\t// out\n        /* \"#utility.yul\":822:918   */\n    tag_86:\n        /* \"#utility.yul\":859:866   */\n      0x00\n        /* \"#utility.yul\":888:912   */\n      tag_132\n        /* \"#utility.yul\":906:911   */\n      dup3\n        /* \"#utility.yul\":888:912   */\n      tag_85\n      jump\t// in\n    tag_132:\n        /* \"#utility.yul\":877:912   */\n      swap1\n      pop\n        /* \"#utility.yul\":822:918   */\n      swap2\n      swap1\n      pop\n      jump\t// out\n        /* \"#utility.yul\":924:1046   */\n    tag_87:\n        /* \"#utility.yul\":997:1021   */\n      tag_134\n        /* \"#utility.yul\":1015:1020   */\n      dup2\n        /* \"#utility.yul\":997:1021   */\n      tag_86\n      jump\t// in\n    tag_134:\n        /* \"#utility.yul\":990:995   */\n      dup2\n        /* \"#utility.yul\":987:1022   */\n      eq\n        /* \"#utility.yul\":977:1040   */\n      tag_135\n      jumpi\n        /* \"#utility.yul\":1036:1037   */\n      0x00\n        /* \"#utility.yul\":1033:1034   */\n      dup1\n        /* \"#utility.yul\":1026:1038   */\n      revert\n        /* \"#utility.yul\":977:1040   */\n    tag_135:\n        /* \"#utility.yul\":924:1046   */\n      pop\n      jump\t// out\n        /* \"#utility.yul\":1052:1191   */\n    tag_88:\n        /* \"#utility.yul\":1098:1103   */\n      0x00\n        /* \"#utility.yul\":1136:1142   */\n      dup2\n        /* \"#utility.yul\":1123:1143   */\n      calldataload\n        /* \"#utility.yul\":1114:1143   */\n      swap1\n      pop\n        /* \"#utility.yul\":1152:1185   */\n      tag_137\n        /* \"#utility.yul\":1179:1184   */\n      dup2\n        /* \"#utility.yul\":1152:1185   */\n      tag_87\n      jump\t// in\n    tag_137:\n        /* \"#utility.yul\":1052:1191   */\n      swap3\n      swap2\n      pop\n      pop\n      jump\t// out\n        /* \"#utility.yul\":1197:1671   */\n    tag_9:\n        /* \"#utility.yul\":1265:1271   */\n      0x00\n        /* \"#utility.yul\":1273:1279   */\n      dup1\n        /* \"#utility.yul\":1322:1324   */\n      0x40\n        /* \"#utility.yul\":1310:1319   */\n      dup4\n        /* \"#utility.yul\":1301:1308   */\n      dup6\n        /* \"#utility.yul\":1297:1320   */\n      sub\n        /* \"#utility.yul\":1293:1325   */\n      slt\n        /* \"#utility.yul\":1290:1409   */\n      iszero\n      tag_139\n      jumpi\n        /* \"#utility.yul\":1328:1407   */\n      tag_140\n      tag_80\n      jump\t// in\n    tag_140:\n        /* \"#utility.yul\":1290:1409   */\n    tag_139:\n        /* \"#utility.yul\":1448:1449   */\n      0x00\n        /* \"#utility.yul\":1473:1526   */\n      tag_141\n        /* \"#utility.yul\":1518:1525   */\n      dup6\n        /* \"#utility.yul\":1509:1515   */\n      dup3\n        /* \"#utility.yul\":1498:1507   */\n      dup7\n        /* \"#utility.yul\":1494:1516   */\n      add\n        /* \"#utility.yul\":1473:1526   */\n      tag_84\n      jump\t// in\n    tag_141:\n        /* \"#utility.yul\":1463:1526   */\n      swap3\n      pop\n        /* \"#utility.yul\":1419:1536   */\n      pop\n        /* \"#utility.yul\":1575:1577   */\n      0x20\n        /* \"#utility.yul\":1601:1654   */\n      tag_142\n        /* \"#utility.yul\":1646:1653   */\n      dup6\n        /* \"#utility.yul\":1637:1643   */\n      dup3\n        /* \"#utility.yul\":1626:1635   */\n      dup7\n        /* \"#utility.yul\":1622:1644   */\n      add\n        /* \"#utility.yul\":1601:1654   */\n      tag_88\n      jump\t// in\n    tag_142:\n        /* \"#utility.yul\":1591:1654   */\n      swap2\n      pop\n        /* \"#utility.yul\":1546:1664   */\n      pop\n        /* \"#utility.yul\":1197:1671   */\n      swap3\n      pop\n      swap3\n      swap1\n      pop\n      jump\t// out\n        /* \"#utility.yul\":1677:2006   */\n    tag_13:\n        /* \"#utility.yul\":1736:1742   */\n      0x00\n        /* \"#utility.yul\":1785:1787   */\n      0x20\n        /* \"#utility.yul\":1773:1782   */\n      dup3\n        /* \"#utility.yul\":1764:1771   */\n      dup5\n        /* \"#utility.yul\":1760:1783   */\n      sub\n        /* \"#utility.yul\":1756:1788   */\n      slt\n        /* \"#utility.yul\":1753:1872   */\n      iszero\n      tag_144\n      jumpi\n        /* \"#utility.yul\":1791:1870   */\n      tag_145\n      tag_80\n      jump\t// in\n    tag_145:\n        /* \"#utility.yul\":1753:1872   */\n    tag_144:\n        /* \"#utility.yul\":1911:1912   */\n      0x00\n        /* \"#utility.yul\":1936:1989   */\n      tag_146\n        /* \"#utility.yul\":1981:1988   */\n      dup5\n        /* \"#utility.yul\":1972:1978   */\n      dup3\n        /* \"#utility.yul\":1961:1970   */\n      dup6\n        /* \"#utility.yul\":1957:1979   */\n      add\n        /* \"#utility.yul\":1936:1989   */\n      tag_84\n      jump\t// in\n    tag_146:\n        /* \"#utility.yul\":1926:1989   */\n      swap2\n      pop\n        /* \"#utility.yul\":1882:1999   */\n      pop\n        /* \"#utility.yul\":1677:2006   */\n      swap3\n      swap2\n      pop\n      pop\n      jump\t// out\n        /* \"#utility.yul\":2012:2130   */\n    tag_89:\n        /* \"#utility.yul\":2099:2123   */\n      tag_148\n        /* \"#utility.yul\":2117:2122   */\n      dup2\n        /* \"#utility.yul\":2099:2123   */\n      tag_82\n      jump\t// in\n    tag_148:\n        /* \"#utility.yul\":2094:2097   */\n      dup3\n        /* \"#utility.yul\":2087:2124   */\n      mstore\n        /* \"#utility.yul\":2012:2130   */\n      pop\n      pop\n      jump\t// out\n        /* \"#utility.yul\":2136:2358   */\n    tag_16:\n        /* \"#utility.yul\":2229:2233   */\n      0x00\n        /* \"#utility.yul\":2267:2269   */\n      0x20\n        /* \"#utility.yul\":2256:2265   */\n      dup3\n        /* \"#utility.yul\":2252:2270   */\n      add\n        /* \"#utility.yul\":2244:2270   */\n      swap1\n      pop\n        /* \"#utility.yul\":2280:2351   */\n      tag_150\n        /* \"#utility.yul\":2348:2349   */\n      0x00\n        /* \"#utility.yul\":2337:2346   */\n      dup4\n        /* \"#utility.yul\":2333:2350   */\n      add\n        /* \"#utility.yul\":2324:2330   */\n      dup5\n        /* \"#utility.yul\":2280:2351   */\n      tag_89\n      jump\t// in\n    tag_150:\n        /* \"#utility.yul\":2136:2358   */\n      swap3\n      swap2\n      pop\n      pop\n      jump\t// out\n        /* \"#utility.yul\":2364:2983   */\n    tag_23:\n        /* \"#utility.yul\":2441:2447   */\n      0x00\n        /* \"#utility.yul\":2449:2455   */\n      dup1\n        /* \"#utility.yul\":2457:2463   */\n      0x00\n        /* \"#utility.yul\":2506:2508   */\n      0x60\n        /* \"#utility.yul\":2494:2503   */\n      dup5\n        /* \"#utility.yul\":2485:2492   */\n      dup7\n        /* \"#utility.yul\":2481:2504   */\n      sub\n        /* \"#utility.yul\":2477:2509   */\n      slt\n        /* \"#utility.yul\":2474:2593   */\n      iszero\n      tag_152\n      jumpi\n        /* \"#utility.yul\":2512:2591   */\n      tag_153\n      tag_80\n      jump\t// in\n    tag_153:\n        /* \"#utility.yul\":2474:2593   */\n    tag_152:\n        /* \"#utility.yul\":2632:2633   */\n      0x00\n        /* \"#utility.yul\":2657:2710   */\n      tag_154\n        /* \"#utility.yul\":2702:2709   */\n      dup7\n        /* \"#utility.yul\":2693:2699   */\n      dup3\n        /* \"#utility.yul\":2682:2691   */\n      dup8\n        /* \"#utility.yul\":2678:2700   */\n      add\n        /* \"#utility.yul\":2657:2710   */\n      tag_88\n      jump\t// in\n    tag_154:\n        /* \"#utility.yul\":2647:2710   */\n      swap4\n      pop\n        /* \"#utility.yul\":2603:2720   */\n      pop\n        /* \"#utility.yul\":2759:2761   */\n      0x20\n        /* \"#utility.yul\":2785:2838   */\n      tag_155\n        /* \"#utility.yul\":2830:2837   */\n      dup7\n        /* \"#utility.yul\":2821:2827   */\n      dup3\n        /* \"#utility.yul\":2810:2819   */\n      dup8\n        /* \"#utility.yul\":2806:2828   */\n      add\n        /* \"#utility.yul\":2785:2838   */\n      tag_84\n      jump\t// in\n    tag_155:\n        /* \"#utility.yul\":2775:2838   */\n      swap3\n      pop\n        /* \"#utility.yul\":2730:2848   */\n      pop\n        /* \"#utility.yul\":2887:2889   */\n      0x40\n        /* \"#utility.yul\":2913:2966   */\n      tag_156\n        /* \"#utility.yul\":2958:2965   */\n      dup7\n        /* \"#utility.yul\":2949:2955   */\n      dup3\n        /* \"#utility.yul\":2938:2947   */\n      dup8\n        /* \"#utility.yul\":2934:2956   */\n      add\n        /* \"#utility.yul\":2913:2966   */\n      tag_84\n      jump\t// in\n    tag_156:\n        /* \"#utility.yul\":2903:2966   */\n      swap2\n      pop\n        /* \"#utility.yul\":2858:2976   */\n      pop\n        /* \"#utility.yul\":2364:2983   */\n      swap3\n      pop\n      swap3\n      pop\n      swap3\n      jump\t// out\n        /* \"#utility.yul\":2989:3107   */\n    tag_90:\n        /* \"#utility.yul\":3076:3100   */\n      tag_158\n        /* \"#utility.yul\":3094:3099   */\n      dup2\n        /* \"#utility.yul\":3076:3100   */\n      tag_86\n      jump\t// in\n    tag_158:\n        /* \"#utility.yul\":3071:3074   */\n      dup3\n        /* \"#utility.yul\":3064:3101   */\n      mstore\n        /* \"#utility.yul\":2989:3107   */\n      pop\n      pop\n      jump\t// out\n        /* \"#utility.yul\":3113:3335   */\n    tag_27:\n        /* \"#utility.yul\":3206:3210   */\n      0x00\n        /* \"#utility.yul\":3244:3246   */\n      0x20\n        /* \"#utility.yul\":3233:3242   */\n      dup3\n        /* \"#utility.yul\":3229:3247   */\n      add\n        /* \"#utility.yul\":3221:3247   */\n      swap1\n      pop\n        /* \"#utility.yul\":3257:3328   */\n      tag_160\n        /* \"#utility.yul\":3325:3326   */\n      0x00\n        /* \"#utility.yul\":3314:3323   */\n      dup4\n        /* \"#utility.yul\":3310:3327   */\n      add\n        /* \"#utility.yul\":3301:3307   */\n      dup5\n        /* \"#utility.yul\":3257:3328   */\n      tag_90\n      jump\t// in\n    tag_160:\n        /* \"#utility.yul\":3113:3335   */\n      swap3\n      swap2\n      pop\n      pop\n      jump\t// out\n        /* \"#utility.yul\":3341:3458   */\n    tag_91:\n        /* \"#utility.yul\":3450:3451   */\n      0x00\n        /* \"#utility.yul\":3447:3448   */\n      dup1\n        /* \"#utility.yul\":3440:3452   */\n      revert\n        /* \"#utility.yul\":3464:3566   */\n    tag_92:\n        /* \"#utility.yul\":3505:3511   */\n      0x00\n        /* \"#utility.yul\":3556:3558   */\n      0x1f\n        /* \"#utility.yul\":3552:3559   */\n      not\n        /* \"#utility.yul\":3547:3549   */\n      0x1f\n        /* \"#utility.yul\":3540:3545   */\n      dup4\n        /* \"#utility.yul\":3536:3550   */\n      add\n        /* \"#utility.yul\":3532:3560   */\n      and\n        /* \"#utility.yul\":3522:3560   */\n      swap1\n      pop\n        /* \"#utility.yul\":3464:3566   */\n      swap2\n      swap1\n      pop\n      jump\t// out\n        /* \"#utility.yul\":3572:3752   */\n    tag_61:\n        /* \"#utility.yul\":3620:3697   */\n      0x4e487b7100000000000000000000000000000000000000000000000000000000\n        /* \"#utility.yul\":3617:3618   */\n      0x00\n        /* \"#utility.yul\":3610:3698   */\n      mstore\n        /* \"#utility.yul\":3717:3721   */\n      0x41\n        /* \"#utility.yul\":3714:3715   */\n      0x04\n        /* \"#utility.yul\":3707:3722   */\n      mstore\n        /* \"#utility.yul\":3741:3745   */\n      0x24\n        /* \"#utility.yul\":3738:3739   */\n      0x00\n        /* \"#utility.yul\":3731:3746   */\n      revert\n        /* \"#utility.yul\":3758:4039   */\n    tag_93:\n        /* \"#utility.yul\":3841:3868   */\n      tag_165\n        /* \"#utility.yul\":3863:3867   */\n      dup3\n        /* \"#utility.yul\":3841:3868   */\n      tag_92\n      jump\t// in\n    tag_165:\n        /* \"#utility.yul\":3833:3839   */\n      dup2\n        /* \"#utility.yul\":3829:3869   */\n      add\n        /* \"#utility.yul\":3971:3977   */\n      dup2\n        /* \"#utility.yul\":3959:3969   */\n      dup2\n        /* \"#utility.yul\":3956:3978   */\n      lt\n        /* \"#utility.yul\":3935:3953   */\n      0xffffffffffffffff\n        /* \"#utility.yul\":3923:3933   */\n      dup3\n        /* \"#utility.yul\":3920:3954   */\n      gt\n        /* \"#utility.yul\":3917:3979   */\n      or\n        /* \"#utility.yul\":3914:4002   */\n      iszero\n      tag_166\n      jumpi\n        /* \"#utility.yul\":3982:4000   */\n      tag_167\n      tag_61\n      jump\t// in\n    tag_167:\n        /* \"#utility.yul\":3914:4002   */\n    tag_166:\n        /* \"#utility.yul\":4022:4032   */\n      dup1\n        /* \"#utility.yul\":4018:4020   */\n      0x40\n        /* \"#utility.yul\":4011:4033   */\n      mstore\n        /* \"#utility.yul\":3801:4039   */\n      pop\n        /* \"#utility.yul\":3758:4039   */\n      pop\n      pop\n      jump\t// out\n        /* \"#utility.yul\":4045:4174   */\n    tag_94:\n        /* \"#utility.yul\":4079:4085   */\n      0x00\n        /* \"#utility.yul\":4106:4126   */\n      tag_169\n      tag_79\n      jump\t// in\n    tag_169:\n        /* \"#utility.yul\":4096:4126   */\n      swap1\n      pop\n        /* \"#utility.yul\":4135:4168   */\n      tag_170\n        /* \"#utility.yul\":4163:4167   */\n      dup3\n        /* \"#utility.yul\":4155:4161   */\n      dup3\n        /* \"#utility.yul\":4135:4168   */\n      tag_93\n      jump\t// in\n    tag_170:\n        /* \"#utility.yul\":4045:4174   */\n      swap2\n      swap1\n      pop\n      jump\t// out\n        /* \"#utility.yul\":4303:4446   */\n    tag_96:\n        /* \"#utility.yul\":4360:4365   */\n      0x00\n        /* \"#utility.yul\":4391:4397   */\n      dup2\n        /* \"#utility.yul\":4385:4398   */\n      mload\n        /* \"#utility.yul\":4376:4398   */\n      swap1\n      pop\n        /* \"#utility.yul\":4407:4440   */\n      tag_173\n        /* \"#utility.yul\":4434:4439   */\n      dup2\n        /* \"#utility.yul\":4407:4440   */\n      tag_83\n      jump\t// in\n    tag_173:\n        /* \"#utility.yul\":4303:4446   */\n      swap3\n      swap2\n      pop\n      pop\n      jump\t// out\n        /* \"#utility.yul\":4487:5102   */\n    tag_97:\n        /* \"#utility.yul\":4572:4577   */\n      0x00\n        /* \"#utility.yul\":4616:4620   */\n      0x40\n        /* \"#utility.yul\":4604:4613   */\n      dup3\n        /* \"#utility.yul\":4599:4602   */\n      dup5\n        /* \"#utility.yul\":4595:4614   */\n      sub\n        /* \"#utility.yul\":4591:4621   */\n      slt\n        /* \"#utility.yul\":4588:4705   */\n      iszero\n      tag_175\n      jumpi\n        /* \"#utility.yul\":4624:4703   */\n      tag_176\n      tag_91\n      jump\t// in\n    tag_176:\n        /* \"#utility.yul\":4588:4705   */\n    tag_175:\n        /* \"#utility.yul\":4723:4744   */\n      tag_177\n        /* \"#utility.yul\":4739:4743   */\n      0x40\n        /* \"#utility.yul\":4723:4744   */\n      tag_94\n      jump\t// in\n    tag_177:\n        /* \"#utility.yul\":4714:4744   */\n      swap1\n      pop\n        /* \"#utility.yul\":4805:4806   */\n      0x00\n        /* \"#utility.yul\":4845:4905   */\n      tag_178\n        /* \"#utility.yul\":4901:4904   */\n      dup5\n        /* \"#utility.yul\":4892:4898   */\n      dup3\n        /* \"#utility.yul\":4881:4890   */\n      dup6\n        /* \"#utility.yul\":4877:4899   */\n      add\n        /* \"#utility.yul\":4845:4905   */\n      tag_96\n      jump\t// in\n    tag_178:\n        /* \"#utility.yul\":4838:4842   */\n      0x00\n        /* \"#utility.yul\":4831:4836   */\n      dup4\n        /* \"#utility.yul\":4827:4843   */\n      add\n        /* \"#utility.yul\":4820:4906   */\n      mstore\n        /* \"#utility.yul\":4754:4917   */\n      pop\n        /* \"#utility.yul\":4982:4984   */\n      0x20\n        /* \"#utility.yul\":5023:5083   */\n      tag_179\n        /* \"#utility.yul\":5079:5082   */\n      dup5\n        /* \"#utility.yul\":5070:5076   */\n      dup3\n        /* \"#utility.yul\":5059:5068   */\n      dup6\n        /* \"#utility.yul\":5055:5077   */\n      add\n        /* \"#utility.yul\":5023:5083   */\n      tag_96\n      jump\t// in\n    tag_179:\n        /* \"#utility.yul\":5016:5020   */\n      0x20\n        /* \"#utility.yul\":5009:5014   */\n      dup4\n        /* \"#utility.yul\":5005:5021   */\n      add\n        /* \"#utility.yul\":4998:5084   */\n      mstore\n        /* \"#utility.yul\":4927:5095   */\n      pop\n        /* \"#utility.yul\":4487:5102   */\n      swap3\n      swap2\n      pop\n      pop\n      jump\t// out\n        /* \"#utility.yul\":5108:5509   */\n    tag_31:\n        /* \"#utility.yul\":5203:5209   */\n      0x00\n        /* \"#utility.yul\":5252:5254   */\n      0x40\n        /* \"#utility.yul\":5240:5249   */\n      dup3\n        /* \"#utility.yul\":5231:5238   */\n      dup5\n        /* \"#utility.yul\":5227:5250   */\n      sub\n        /* \"#utility.yul\":5223:5255   */\n      slt\n        /* \"#utility.yul\":5220:5339   */\n      iszero\n      tag_181\n      jumpi\n        /* \"#utility.yul\":5258:5337   */\n      tag_182\n      tag_80\n      jump\t// in\n    tag_182:\n        /* \"#utility.yul\":5220:5339   */\n    tag_181:\n        /* \"#utility.yul\":5378:5379   */\n      0x00\n        /* \"#utility.yul\":5403:5492   */\n      tag_183\n        /* \"#utility.yul\":5484:5491   */\n      dup5\n        /* \"#utility.yul\":5475:5481   */\n      dup3\n        /* \"#utility.yul\":5464:5473   */\n      dup6\n        /* \"#utility.yul\":5460:5482   */\n      add\n        /* \"#utility.yul\":5403:5492   */\n      tag_97\n      jump\t// in\n    tag_183:\n        /* \"#utility.yul\":5393:5492   */\n      swap2\n      pop\n        /* \"#utility.yul\":5349:5502   */\n      pop\n        /* \"#utility.yul\":5108:5509   */\n      swap3\n      swap2\n      pop\n      pop\n      jump\t// out\n        /* \"#utility.yul\":5515:5847   */\n    tag_33:\n        /* \"#utility.yul\":5636:5640   */\n      0x00\n        /* \"#utility.yul\":5674:5676   */\n      0x40\n        /* \"#utility.yul\":5663:5672   */\n      dup3\n        /* \"#utility.yul\":5659:5677   */\n      add\n        /* \"#utility.yul\":5651:5677   */\n      swap1\n      pop\n        /* \"#utility.yul\":5687:5758   */\n      tag_185\n        /* \"#utility.yul\":5755:5756   */\n      0x00\n        /* \"#utility.yul\":5744:5753   */\n      dup4\n        /* \"#utility.yul\":5740:5757   */\n      add\n        /* \"#utility.yul\":5731:5737   */\n      dup6\n        /* \"#utility.yul\":5687:5758   */\n      tag_89\n      jump\t// in\n    tag_185:\n        /* \"#utility.yul\":5768:5840   */\n      tag_186\n        /* \"#utility.yul\":5836:5838   */\n      0x20\n        /* \"#utility.yul\":5825:5834   */\n      dup4\n        /* \"#utility.yul\":5821:5839   */\n      add\n        /* \"#utility.yul\":5812:5818   */\n      dup5\n        /* \"#utility.yul\":5768:5840   */\n      tag_89\n      jump\t// in\n    tag_186:\n        /* \"#utility.yul\":5515:5847   */\n      swap4\n      swap3\n      pop\n      pop\n      pop\n      jump\t// out\n        /* \"#utility.yul\":5853:6185   */\n    tag_39:\n        /* \"#utility.yul\":5974:5978   */\n      0x00\n        /* \"#utility.yul\":6012:6014   */\n      0x40\n        /* \"#utility.yul\":6001:6010   */\n      dup3\n        /* \"#utility.yul\":5997:6015   */\n      add\n        /* \"#utility.yul\":5989:6015   */\n      swap1\n      pop\n        /* \"#utility.yul\":6025:6096   */\n      tag_188\n        /* \"#utility.yul\":6093:6094   */\n      0x00\n        /* \"#utility.yul\":6082:6091   */\n      dup4\n        /* \"#utility.yul\":6078:6095   */\n      add\n        /* \"#utility.yul\":6069:6075   */\n      dup6\n        /* \"#utility.yul\":6025:6096   */\n      tag_90\n      jump\t// in\n    tag_188:\n        /* \"#utility.yul\":6106:6178   */\n      tag_189\n        /* \"#utility.yul\":6174:6176   */\n      0x20\n        /* \"#utility.yul\":6163:6172   */\n      dup4\n        /* \"#utility.yul\":6159:6177   */\n      add\n        /* \"#utility.yul\":6150:6156   */\n      dup5\n        /* \"#utility.yul\":6106:6178   */\n      tag_89\n      jump\t// in\n    tag_189:\n        /* \"#utility.yul\":5853:6185   */\n      swap4\n      swap3\n      pop\n      pop\n      pop\n      jump\t// out\n        /* \"#utility.yul\":6191:6281   */\n    tag_98:\n        /* \"#utility.yul\":6225:6232   */\n      0x00\n        /* \"#utility.yul\":6268:6273   */\n      dup2\n        /* \"#utility.yul\":6261:6274   */\n      iszero\n        /* \"#utility.yul\":6254:6275   */\n      iszero\n        /* \"#utility.yul\":6243:6275   */\n      swap1\n      pop\n        /* \"#utility.yul\":6191:6281   */\n      swap2\n      swap1\n      pop\n      jump\t// out\n        /* \"#utility.yul\":6287:6403   */\n    tag_99:\n        /* \"#utility.yul\":6357:6378   */\n      tag_192\n        /* \"#utility.yul\":6372:6377   */\n      dup2\n        /* \"#utility.yul\":6357:6378   */\n      tag_98\n      jump\t// in\n    tag_192:\n        /* \"#utility.yul\":6350:6355   */\n      dup2\n        /* \"#utility.yul\":6347:6379   */\n      eq\n        /* \"#utility.yul\":6337:6397   */\n      tag_193\n      jumpi\n        /* \"#utility.yul\":6393:6394   */\n      0x00\n        /* \"#utility.yul\":6390:6391   */\n      dup1\n        /* \"#utility.yul\":6383:6395   */\n      revert\n        /* \"#utility.yul\":6337:6397   */\n    tag_193:\n        /* \"#utility.yul\":6287:6403   */\n      pop\n      jump\t// out\n        /* \"#utility.yul\":6409:6546   */\n    tag_100:\n        /* \"#utility.yul\":6463:6468   */\n      0x00\n        /* \"#utility.yul\":6494:6500   */\n      dup2\n        /* \"#utility.yul\":6488:6501   */\n      mload\n        /* \"#utility.yul\":6479:6501   */\n      swap1\n      pop\n        /* \"#utility.yul\":6510:6540   */\n      tag_195\n        /* \"#utility.yul\":6534:6539   */\n      dup2\n        /* \"#utility.yul\":6510:6540   */\n      tag_99\n      jump\t// in\n    tag_195:\n        /* \"#utility.yul\":6409:6546   */\n      swap3\n      swap2\n      pop\n      pop\n      jump\t// out\n        /* \"#utility.yul\":6552:6897   */\n    tag_43:\n        /* \"#utility.yul\":6619:6625   */\n      0x00\n        /* \"#utility.yul\":6668:6670   */\n      0x20\n        /* \"#utility.yul\":6656:6665   */\n      dup3\n        /* \"#utility.yul\":6647:6654   */\n      dup5\n        /* \"#utility.yul\":6643:6666   */\n      sub\n        /* \"#utility.yul\":6639:6671   */\n      slt\n        /* \"#utility.yul\":6636:6755   */\n      iszero\n      tag_197\n      jumpi\n        /* \"#utility.yul\":6674:6753   */\n      tag_198\n      tag_80\n      jump\t// in\n    tag_198:\n        /* \"#utility.yul\":6636:6755   */\n    tag_197:\n        /* \"#utility.yul\":6794:6795   */\n      0x00\n        /* \"#utility.yul\":6819:6880   */\n      tag_199\n        /* \"#utility.yul\":6872:6879   */\n      dup5\n        /* \"#utility.yul\":6863:6869   */\n      dup3\n        /* \"#utility.yul\":6852:6861   */\n      dup6\n        /* \"#utility.yul\":6848:6870   */\n      add\n        /* \"#utility.yul\":6819:6880   */\n      tag_100\n      jump\t// in\n    tag_199:\n        /* \"#utility.yul\":6809:6880   */\n      swap2\n      pop\n        /* \"#utility.yul\":6765:6890   */\n      pop\n        /* \"#utility.yul\":6552:6897   */\n      swap3\n      swap2\n      pop\n      pop\n      jump\t// out\n        /* \"#utility.yul\":6903:7345   */\n    tag_45:\n        /* \"#utility.yul\":7052:7056   */\n      0x00\n        /* \"#utility.yul\":7090:7092   */\n      0x60\n        /* \"#utility.yul\":7079:7088   */\n      dup3\n        /* \"#utility.yul\":7075:7093   */\n      add\n        /* \"#utility.yul\":7067:7093   */\n      swap1\n      pop\n        /* \"#utility.yul\":7103:7174   */\n      tag_201\n        /* \"#utility.yul\":7171:7172   */\n      0x00\n        /* \"#utility.yul\":7160:7169   */\n      dup4\n        /* \"#utility.yul\":7156:7173   */\n      add\n        /* \"#utility.yul\":7147:7153   */\n      dup7\n        /* \"#utility.yul\":7103:7174   */\n      tag_90\n      jump\t// in\n    tag_201:\n        /* \"#utility.yul\":7184:7256   */\n      tag_202\n        /* \"#utility.yul\":7252:7254   */\n      0x20\n        /* \"#utility.yul\":7241:7250   */\n      dup4\n        /* \"#utility.yul\":7237:7255   */\n      add\n        /* \"#utility.yul\":7228:7234   */\n      dup6\n        /* \"#utility.yul\":7184:7256   */\n      tag_90\n      jump\t// in\n    tag_202:\n        /* \"#utility.yul\":7266:7338   */\n      tag_203\n        /* \"#utility.yul\":7334:7336   */\n      0x40\n        /* \"#utility.yul\":7323:7332   */\n      dup4\n        /* \"#utility.yul\":7319:7337   */\n      add\n        /* \"#utility.yul\":7310:7316   */\n      dup5\n        /* \"#utility.yul\":7266:7338   */\n      tag_89\n      jump\t// in\n    tag_203:\n        /* \"#utility.yul\":6903:7345   */\n      swap5\n      swap4\n      pop\n      pop\n      pop\n      pop\n      jump\t// out\n        /* \"#utility.yul\":7351:7520   */\n    tag_101:\n        /* \"#utility.yul\":7435:7446   */\n      0x00\n        /* \"#utility.yul\":7469:7475   */\n      dup3\n        /* \"#utility.yul\":7464:7467   */\n      dup3\n        /* \"#utility.yul\":7457:7476   */\n      mstore\n        /* \"#utility.yul\":7509:7513   */\n      0x20\n        /* \"#utility.yul\":7504:7507   */\n      dup3\n        /* \"#utility.yul\":7500:7514   */\n      add\n        /* \"#utility.yul\":7485:7514   */\n      swap1\n      pop\n        /* \"#utility.yul\":7351:7520   */\n      swap3\n      swap2\n      pop\n      pop\n      jump\t// out\n        /* \"#utility.yul\":7526:7698   */\n    tag_102:\n        /* \"#utility.yul\":7666:7690   */\n      0x6d746f6b656e207472616e73666572206572726f722100000000000000000000\n        /* \"#utility.yul\":7662:7663   */\n      0x00\n        /* \"#utility.yul\":7654:7660   */\n      dup3\n        /* \"#utility.yul\":7650:7664   */\n      add\n        /* \"#utility.yul\":7643:7691   */\n      mstore\n        /* \"#utility.yul\":7526:7698   */\n      pop\n      jump\t// out\n        /* \"#utility.yul\":7704:8070   */\n    tag_103:\n        /* \"#utility.yul\":7846:7849   */\n      0x00\n        /* \"#utility.yul\":7867:7934   */\n      tag_207\n        /* \"#utility.yul\":7931:7933   */\n      0x16\n        /* \"#utility.yul\":7926:7929   */\n      dup4\n        /* \"#utility.yul\":7867:7934   */\n      tag_101\n      jump\t// in\n    tag_207:\n        /* \"#utility.yul\":7860:7934   */\n      swap2\n      pop\n        /* \"#utility.yul\":7943:8036   */\n      tag_208\n        /* \"#utility.yul\":8032:8035   */\n      dup3\n        /* \"#utility.yul\":7943:8036   */\n      tag_102\n      jump\t// in\n    tag_208:\n        /* \"#utility.yul\":8061:8063   */\n      0x20\n        /* \"#utility.yul\":8056:8059   */\n      dup3\n        /* \"#utility.yul\":8052:8064   */\n      add\n        /* \"#utility.yul\":8045:8064   */\n      swap1\n      pop\n        /* \"#utility.yul\":7704:8070   */\n      swap2\n      swap1\n      pop\n      jump\t// out\n        /* \"#utility.yul\":8076:8495   */\n    tag_51:\n        /* \"#utility.yul\":8242:8246   */\n      0x00\n        /* \"#utility.yul\":8280:8282   */\n      0x20\n        /* \"#utility.yul\":8269:8278   */\n      dup3\n        /* \"#utility.yul\":8265:8283   */\n      add\n        /* \"#utility.yul\":8257:8283   */\n      swap1\n      pop\n        /* \"#utility.yul\":8329:8338   */\n      dup2\n        /* \"#utility.yul\":8323:8327   */\n      dup2\n        /* \"#utility.yul\":8319:8339   */\n      sub\n        /* \"#utility.yul\":8315:8316   */\n      0x00\n        /* \"#utility.yul\":8304:8313   */\n      dup4\n        /* \"#utility.yul\":8300:8317   */\n      add\n        /* \"#utility.yul\":8293:8340   */\n      mstore\n        /* \"#utility.yul\":8357:8488   */\n      tag_210\n        /* \"#utility.yul\":8483:8487   */\n      dup2\n        /* \"#utility.yul\":8357:8488   */\n      tag_103\n      jump\t// in\n    tag_210:\n        /* \"#utility.yul\":8349:8488   */\n      swap1\n      pop\n        /* \"#utility.yul\":8076:8495   */\n      swap2\n      swap1\n      pop\n      jump\t// out\n        /* \"#utility.yul\":8501:8586   */\n    tag_104:\n        /* \"#utility.yul\":8546:8553   */\n      0x00\n        /* \"#utility.yul\":8575:8580   */\n      dup2\n        /* \"#utility.yul\":8564:8580   */\n      swap1\n      pop\n        /* \"#utility.yul\":8501:8586   */\n      swap2\n      swap1\n      pop\n      jump\t// out\n        /* \"#utility.yul\":8592:8652   */\n    tag_105:\n        /* \"#utility.yul\":8620:8623   */\n      0x00\n        /* \"#utility.yul\":8641:8646   */\n      dup2\n        /* \"#utility.yul\":8634:8646   */\n      swap1\n      pop\n        /* \"#utility.yul\":8592:8652   */\n      swap2\n      swap1\n      pop\n      jump\t// out\n        /* \"#utility.yul\":8658:8816   */\n    tag_106:\n        /* \"#utility.yul\":8716:8725   */\n      0x00\n        /* \"#utility.yul\":8749:8810   */\n      tag_214\n        /* \"#utility.yul\":8767:8809   */\n      tag_215\n        /* \"#utility.yul\":8776:8808   */\n      tag_216\n        /* \"#utility.yul\":8802:8807   */\n      dup5\n        /* \"#utility.yul\":8776:8808   */\n      tag_104\n      jump\t// in\n    tag_216:\n        /* \"#utility.yul\":8767:8809   */\n      tag_105\n      jump\t// in\n    tag_215:\n        /* \"#utility.yul\":8749:8810   */\n      tag_82\n      jump\t// in\n    tag_214:\n        /* \"#utility.yul\":8736:8810   */\n      swap1\n      pop\n        /* \"#utility.yul\":8658:8816   */\n      swap2\n      swap1\n      pop\n      jump\t// out\n        /* \"#utility.yul\":8822:8969   */\n    tag_107:\n        /* \"#utility.yul\":8917:8962   */\n      tag_218\n        /* \"#utility.yul\":8956:8961   */\n      dup2\n        /* \"#utility.yul\":8917:8962   */\n      tag_106\n      jump\t// in\n    tag_218:\n        /* \"#utility.yul\":8912:8915   */\n      dup3\n        /* \"#utility.yul\":8905:8963   */\n      mstore\n        /* \"#utility.yul\":8822:8969   */\n      pop\n      pop\n      jump\t// out\n        /* \"#utility.yul\":8975:9782   */\n    tag_53:\n        /* \"#utility.yul\":9224:9228   */\n      0x00\n        /* \"#utility.yul\":9262:9265   */\n      0xc0\n        /* \"#utility.yul\":9251:9260   */\n      dup3\n        /* \"#utility.yul\":9247:9266   */\n      add\n        /* \"#utility.yul\":9239:9266   */\n      swap1\n      pop\n        /* \"#utility.yul\":9276:9347   */\n      tag_220\n        /* \"#utility.yul\":9344:9345   */\n      0x00\n        /* \"#utility.yul\":9333:9342   */\n      dup4\n        /* \"#utility.yul\":9329:9346   */\n      add\n        /* \"#utility.yul\":9320:9326   */\n      dup10\n        /* \"#utility.yul\":9276:9347   */\n      tag_90\n      jump\t// in\n    tag_220:\n        /* \"#utility.yul\":9357:9429   */\n      tag_221\n        /* \"#utility.yul\":9425:9427   */\n      0x20\n        /* \"#utility.yul\":9414:9423   */\n      dup4\n        /* \"#utility.yul\":9410:9428   */\n      add\n        /* \"#utility.yul\":9401:9407   */\n      dup9\n        /* \"#utility.yul\":9357:9429   */\n      tag_89\n      jump\t// in\n    tag_221:\n        /* \"#utility.yul\":9439:9519   */\n      tag_222\n        /* \"#utility.yul\":9515:9517   */\n      0x40\n        /* \"#utility.yul\":9504:9513   */\n      dup4\n        /* \"#utility.yul\":9500:9518   */\n      add\n        /* \"#utility.yul\":9491:9497   */\n      dup8\n        /* \"#utility.yul\":9439:9519   */\n      tag_107\n      jump\t// in\n    tag_222:\n        /* \"#utility.yul\":9529:9609   */\n      tag_223\n        /* \"#utility.yul\":9605:9607   */\n      0x60\n        /* \"#utility.yul\":9594:9603   */\n      dup4\n        /* \"#utility.yul\":9590:9608   */\n      add\n        /* \"#utility.yul\":9581:9587   */\n      dup7\n        /* \"#utility.yul\":9529:9609   */\n      tag_107\n      jump\t// in\n    tag_223:\n        /* \"#utility.yul\":9619:9692   */\n      tag_224\n        /* \"#utility.yul\":9687:9690   */\n      0x80\n        /* \"#utility.yul\":9676:9685   */\n      dup4\n        /* \"#utility.yul\":9672:9691   */\n      add\n        /* \"#utility.yul\":9663:9669   */\n      dup6\n        /* \"#utility.yul\":9619:9692   */\n      tag_90\n      jump\t// in\n    tag_224:\n        /* \"#utility.yul\":9702:9775   */\n      tag_225\n        /* \"#utility.yul\":9770:9773   */\n      0xa0\n        /* \"#utility.yul\":9759:9768   */\n      dup4\n        /* \"#utility.yul\":9755:9774   */\n      add\n        /* \"#utility.yul\":9746:9752   */\n      dup5\n        /* \"#utility.yul\":9702:9775   */\n      tag_89\n      jump\t// in\n    tag_225:\n        /* \"#utility.yul\":8975:9782   */\n      swap8\n      swap7\n      pop\n      pop\n      pop\n      pop\n      pop\n      pop\n      pop\n      jump\t// out\n        /* \"#utility.yul\":9788:10451   */\n    tag_57:\n        /* \"#utility.yul\":9876:9882   */\n      0x00\n        /* \"#utility.yul\":9884:9890   */\n      dup1\n        /* \"#utility.yul\":9892:9898   */\n      0x00\n        /* \"#utility.yul\":9941:9943   */\n      0x60\n        /* \"#utility.yul\":9929:9938   */\n      dup5\n        /* \"#utility.yul\":9920:9927   */\n      dup7\n        /* \"#utility.yul\":9916:9939   */\n      sub\n        /* \"#utility.yul\":9912:9944   */\n      slt\n        /* \"#utility.yul\":9909:10028   */\n      iszero\n      tag_227\n      jumpi\n        /* \"#utility.yul\":9947:10026   */\n      tag_228\n      tag_80\n      jump\t// in\n    tag_228:\n        /* \"#utility.yul\":9909:10028   */\n    tag_227:\n        /* \"#utility.yul\":10067:10068   */\n      0x00\n        /* \"#utility.yul\":10092:10156   */\n      tag_229\n        /* \"#utility.yul\":10148:10155   */\n      dup7\n        /* \"#utility.yul\":10139:10145   */\n      dup3\n        /* \"#utility.yul\":10128:10137   */\n      dup8\n        /* \"#utility.yul\":10124:10146   */\n      add\n        /* \"#utility.yul\":10092:10156   */\n      tag_96\n      jump\t// in\n    tag_229:\n        /* \"#utility.yul\":10082:10156   */\n      swap4\n      pop\n        /* \"#utility.yul\":10038:10166   */\n      pop\n        /* \"#utility.yul\":10205:10207   */\n      0x20\n        /* \"#utility.yul\":10231:10295   */\n      tag_230\n        /* \"#utility.yul\":10287:10294   */\n      dup7\n        /* \"#utility.yul\":10278:10284   */\n      dup3\n        /* \"#utility.yul\":10267:10276   */\n      dup8\n        /* \"#utility.yul\":10263:10285   */\n      add\n        /* \"#utility.yul\":10231:10295   */\n      tag_96\n      jump\t// in\n    tag_230:\n        /* \"#utility.yul\":10221:10295   */\n      swap3\n      pop\n        /* \"#utility.yul\":10176:10305   */\n      pop\n        /* \"#utility.yul\":10344:10346   */\n      0x40\n        /* \"#utility.yul\":10370:10434   */\n      tag_231\n        /* \"#utility.yul\":10426:10433   */\n      dup7\n        /* \"#utility.yul\":10417:10423   */\n      dup3\n        /* \"#utility.yul\":10406:10415   */\n      dup8\n        /* \"#utility.yul\":10402:10424   */\n      add\n        /* \"#utility.yul\":10370:10434   */\n      tag_96\n      jump\t// in\n    tag_231:\n        /* \"#utility.yul\":10360:10434   */\n      swap2\n      pop\n        /* \"#utility.yul\":10315:10444   */\n      pop\n        /* \"#utility.yul\":9788:10451   */\n      swap3\n      pop\n      swap3\n      pop\n      swap3\n      jump\t// out\n        /* \"#utility.yul\":10457:10637   */\n    tag_65:\n        /* \"#utility.yul\":10505:10582   */\n      0x4e487b7100000000000000000000000000000000000000000000000000000000\n        /* \"#utility.yul\":10502:10503   */\n      0x00\n        /* \"#utility.yul\":10495:10583   */\n      mstore\n        /* \"#utility.yul\":10602:10606   */\n      0x32\n        /* \"#utility.yul\":10599:10600   */\n      0x04\n        /* \"#utility.yul\":10592:10607   */\n      mstore\n        /* \"#utility.yul\":10626:10630   */\n      0x24\n        /* \"#utility.yul\":10623:10624   */\n      0x00\n        /* \"#utility.yul\":10616:10631   */\n      revert\n        /* \"#utility.yul\":10643:10757   */\n    tag_108:\n        /* \"#utility.yul\":10710:10716   */\n      0x00\n        /* \"#utility.yul\":10744:10749   */\n      dup2\n        /* \"#utility.yul\":10738:10750   */\n      mload\n        /* \"#utility.yul\":10728:10750   */\n      swap1\n      pop\n        /* \"#utility.yul\":10643:10757   */\n      swap2\n      swap1\n      pop\n      jump\t// out\n        /* \"#utility.yul\":10763:10947   */\n    tag_109:\n        /* \"#utility.yul\":10862:10873   */\n      0x00\n        /* \"#utility.yul\":10896:10902   */\n      dup3\n        /* \"#utility.yul\":10891:10894   */\n      dup3\n        /* \"#utility.yul\":10884:10903   */\n      mstore\n        /* \"#utility.yul\":10936:10940   */\n      0x20\n        /* \"#utility.yul\":10931:10934   */\n      dup3\n        /* \"#utility.yul\":10927:10941   */\n      add\n        /* \"#utility.yul\":10912:10941   */\n      swap1\n      pop\n        /* \"#utility.yul\":10763:10947   */\n      swap3\n      swap2\n      pop\n      pop\n      jump\t// out\n        /* \"#utility.yul\":10953:11085   */\n    tag_110:\n        /* \"#utility.yul\":11020:11024   */\n      0x00\n        /* \"#utility.yul\":11043:11046   */\n      dup2\n        /* \"#utility.yul\":11035:11046   */\n      swap1\n      pop\n        /* \"#utility.yul\":11073:11077   */\n      0x20\n        /* \"#utility.yul\":11068:11071   */\n      dup3\n        /* \"#utility.yul\":11064:11078   */\n      add\n        /* \"#utility.yul\":11056:11078   */\n      swap1\n      pop\n        /* \"#utility.yul\":10953:11085   */\n      swap2\n      swap1\n      pop\n      jump\t// out\n        /* \"#utility.yul\":11091:11199   */\n    tag_111:\n        /* \"#utility.yul\":11168:11192   */\n      tag_237\n        /* \"#utility.yul\":11186:11191   */\n      dup2\n        /* \"#utility.yul\":11168:11192   */\n      tag_86\n      jump\t// in\n    tag_237:\n        /* \"#utility.yul\":11163:11166   */\n      dup3\n        /* \"#utility.yul\":11156:11193   */\n      mstore\n        /* \"#utility.yul\":11091:11199   */\n      pop\n      pop\n      jump\t// out\n        /* \"#utility.yul\":11205:11384   */\n    tag_112:\n        /* \"#utility.yul\":11274:11284   */\n      0x00\n        /* \"#utility.yul\":11295:11341   */\n      tag_239\n        /* \"#utility.yul\":11337:11340   */\n      dup4\n        /* \"#utility.yul\":11329:11335   */\n      dup4\n        /* \"#utility.yul\":11295:11341   */\n      tag_111\n      jump\t// in\n    tag_239:\n        /* \"#utility.yul\":11373:11377   */\n      0x20\n        /* \"#utility.yul\":11368:11371   */\n      dup4\n        /* \"#utility.yul\":11364:11378   */\n      add\n        /* \"#utility.yul\":11350:11378   */\n      swap1\n      pop\n        /* \"#utility.yul\":11205:11384   */\n      swap3\n      swap2\n      pop\n      pop\n      jump\t// out\n        /* \"#utility.yul\":11390:11503   */\n    tag_113:\n        /* \"#utility.yul\":11460:11464   */\n      0x00\n        /* \"#utility.yul\":11492:11496   */\n      0x20\n        /* \"#utility.yul\":11487:11490   */\n      dup3\n        /* \"#utility.yul\":11483:11497   */\n      add\n        /* \"#utility.yul\":11475:11497   */\n      swap1\n      pop\n        /* \"#utility.yul\":11390:11503   */\n      swap2\n      swap1\n      pop\n      jump\t// out\n        /* \"#utility.yul\":11539:12271   */\n    tag_114:\n        /* \"#utility.yul\":11658:11661   */\n      0x00\n        /* \"#utility.yul\":11687:11741   */\n      tag_242\n        /* \"#utility.yul\":11735:11740   */\n      dup3\n        /* \"#utility.yul\":11687:11741   */\n      tag_108\n      jump\t// in\n    tag_242:\n        /* \"#utility.yul\":11757:11843   */\n      tag_243\n        /* \"#utility.yul\":11836:11842   */\n      dup2\n        /* \"#utility.yul\":11831:11834   */\n      dup6\n        /* \"#utility.yul\":11757:11843   */\n      tag_109\n      jump\t// in\n    tag_243:\n        /* \"#utility.yul\":11750:11843   */\n      swap4\n      pop\n        /* \"#utility.yul\":11867:11923   */\n      tag_244\n        /* \"#utility.yul\":11917:11922   */\n      dup4\n        /* \"#utility.yul\":11867:11923   */\n      tag_110\n      jump\t// in\n    tag_244:\n        /* \"#utility.yul\":11946:11953   */\n      dup1\n        /* \"#utility.yul\":11977:11978   */\n      0x00\n        /* \"#utility.yul\":11962:12246   */\n    tag_245:\n        /* \"#utility.yul\":11987:11993   */\n      dup4\n        /* \"#utility.yul\":11984:11985   */\n      dup2\n        /* \"#utility.yul\":11981:11994   */\n      lt\n        /* \"#utility.yul\":11962:12246   */\n      iszero\n      tag_247\n      jumpi\n        /* \"#utility.yul\":12063:12069   */\n      dup2\n        /* \"#utility.yul\":12057:12070   */\n      mload\n        /* \"#utility.yul\":12090:12153   */\n      tag_248\n        /* \"#utility.yul\":12149:12152   */\n      dup9\n        /* \"#utility.yul\":12134:12147   */\n      dup3\n        /* \"#utility.yul\":12090:12153   */\n      tag_112\n      jump\t// in\n    tag_248:\n        /* \"#utility.yul\":12083:12153   */\n      swap8\n      pop\n        /* \"#utility.yul\":12176:12236   */\n      tag_249\n        /* \"#utility.yul\":12229:12235   */\n      dup4\n        /* \"#utility.yul\":12176:12236   */\n      tag_113\n      jump\t// in\n    tag_249:\n        /* \"#utility.yul\":12166:12236   */\n      swap3\n      pop\n        /* \"#utility.yul\":12022:12246   */\n      pop\n        /* \"#utility.yul\":12009:12010   */\n      0x01\n        /* \"#utility.yul\":12006:12007   */\n      dup2\n        /* \"#utility.yul\":12002:12011   */\n      add\n        /* \"#utility.yul\":11997:12011   */\n      swap1\n      pop\n        /* \"#utility.yul\":11962:12246   */\n      jump(tag_245)\n    tag_247:\n        /* \"#utility.yul\":11966:11980   */\n      pop\n        /* \"#utility.yul\":12262:12265   */\n      dup6\n        /* \"#utility.yul\":12255:12265   */\n      swap4\n      pop\n        /* \"#utility.yul\":11663:12271   */\n      pop\n      pop\n      pop\n        /* \"#utility.yul\":11539:12271   */\n      swap3\n      swap2\n      pop\n      pop\n      jump\t// out\n        /* \"#utility.yul\":12277:12981   */\n    tag_69:\n        /* \"#utility.yul\":12504:12508   */\n      0x00\n        /* \"#utility.yul\":12542:12545   */\n      0x80\n        /* \"#utility.yul\":12531:12540   */\n      dup3\n        /* \"#utility.yul\":12527:12546   */\n      add\n        /* \"#utility.yul\":12519:12546   */\n      swap1\n      pop\n        /* \"#utility.yul\":12556:12627   */\n      tag_251\n        /* \"#utility.yul\":12624:12625   */\n      0x00\n        /* \"#utility.yul\":12613:12622   */\n      dup4\n        /* \"#utility.yul\":12609:12626   */\n      add\n        /* \"#utility.yul\":12600:12606   */\n      dup8\n        /* \"#utility.yul\":12556:12627   */\n      tag_89\n      jump\t// in\n    tag_251:\n        /* \"#utility.yul\":12674:12683   */\n      dup2\n        /* \"#utility.yul\":12668:12672   */\n      dup2\n        /* \"#utility.yul\":12664:12684   */\n      sub\n        /* \"#utility.yul\":12659:12661   */\n      0x20\n        /* \"#utility.yul\":12648:12657   */\n      dup4\n        /* \"#utility.yul\":12644:12662   */\n      add\n        /* \"#utility.yul\":12637:12685   */\n      mstore\n        /* \"#utility.yul\":12702:12810   */\n      tag_252\n        /* \"#utility.yul\":12805:12809   */\n      dup2\n        /* \"#utility.yul\":12796:12802   */\n      dup7\n        /* \"#utility.yul\":12702:12810   */\n      tag_114\n      jump\t// in\n    tag_252:\n        /* \"#utility.yul\":12694:12810   */\n      swap1\n      pop\n        /* \"#utility.yul\":12820:12892   */\n      tag_253\n        /* \"#utility.yul\":12888:12890   */\n      0x40\n        /* \"#utility.yul\":12877:12886   */\n      dup4\n        /* \"#utility.yul\":12873:12891   */\n      add\n        /* \"#utility.yul\":12864:12870   */\n      dup6\n        /* \"#utility.yul\":12820:12892   */\n      tag_90\n      jump\t// in\n    tag_253:\n        /* \"#utility.yul\":12902:12974   */\n      tag_254\n        /* \"#utility.yul\":12970:12972   */\n      0x60\n        /* \"#utility.yul\":12959:12968   */\n      dup4\n        /* \"#utility.yul\":12955:12973   */\n      add\n        /* \"#utility.yul\":12946:12952   */\n      dup5\n        /* \"#utility.yul\":12902:12974   */\n      tag_89\n      jump\t// in\n    tag_254:\n        /* \"#utility.yul\":12277:12981   */\n      swap6\n      swap5\n      pop\n      pop\n      pop\n      pop\n      pop\n      jump\t// out\n        /* \"#utility.yul\":12987:13104   */\n    tag_115:\n        /* \"#utility.yul\":13096:13097   */\n      0x00\n        /* \"#utility.yul\":13093:13094   */\n      dup1\n        /* \"#utility.yul\":13086:13098   */\n      revert\n        /* \"#utility.yul\":13110:13421   */\n    tag_116:\n        /* \"#utility.yul\":13187:13191   */\n      0x00\n        /* \"#utility.yul\":13277:13295   */\n      0xffffffffffffffff\n        /* \"#utility.yul\":13269:13275   */\n      dup3\n        /* \"#utility.yul\":13266:13296   */\n      gt\n        /* \"#utility.yul\":13263:13319   */\n      iszero\n      tag_257\n      jumpi\n        /* \"#utility.yul\":13299:13317   */\n      tag_258\n      tag_61\n      jump\t// in\n    tag_258:\n        /* \"#utility.yul\":13263:13319   */\n    tag_257:\n        /* \"#utility.yul\":13349:13353   */\n      0x20\n        /* \"#utility.yul\":13341:13347   */\n      dup3\n        /* \"#utility.yul\":13337:13354   */\n      mul\n        /* \"#utility.yul\":13329:13354   */\n      swap1\n      pop\n        /* \"#utility.yul\":13409:13413   */\n      0x20\n        /* \"#utility.yul\":13403:13407   */\n      dup2\n        /* \"#utility.yul\":13399:13414   */\n      add\n        /* \"#utility.yul\":13391:13414   */\n      swap1\n      pop\n        /* \"#utility.yul\":13110:13421   */\n      swap2\n      swap1\n      pop\n      jump\t// out\n        /* \"#utility.yul\":13427:13544   */\n    tag_117:\n        /* \"#utility.yul\":13536:13537   */\n      0x00\n        /* \"#utility.yul\":13533:13534   */\n      dup1\n        /* \"#utility.yul\":13526:13538   */\n      revert\n        /* \"#utility.yul\":13567:14299   */\n    tag_118:\n        /* \"#utility.yul\":13674:13679   */\n      0x00\n        /* \"#utility.yul\":13699:13780   */\n      tag_261\n        /* \"#utility.yul\":13715:13779   */\n      tag_262\n        /* \"#utility.yul\":13772:13778   */\n      dup5\n        /* \"#utility.yul\":13715:13779   */\n      tag_116\n      jump\t// in\n    tag_262:\n        /* \"#utility.yul\":13699:13780   */\n      tag_94\n      jump\t// in\n    tag_261:\n        /* \"#utility.yul\":13690:13780   */\n      swap1\n      pop\n        /* \"#utility.yul\":13800:13805   */\n      dup1\n        /* \"#utility.yul\":13829:13835   */\n      dup4\n        /* \"#utility.yul\":13822:13827   */\n      dup3\n        /* \"#utility.yul\":13815:13836   */\n      mstore\n        /* \"#utility.yul\":13863:13867   */\n      0x20\n        /* \"#utility.yul\":13856:13861   */\n      dup3\n        /* \"#utility.yul\":13852:13868   */\n      add\n        /* \"#utility.yul\":13845:13868   */\n      swap1\n      pop\n        /* \"#utility.yul\":13916:13920   */\n      0x20\n        /* \"#utility.yul\":13908:13914   */\n      dup5\n        /* \"#utility.yul\":13904:13921   */\n      mul\n        /* \"#utility.yul\":13896:13902   */\n      dup4\n        /* \"#utility.yul\":13892:13922   */\n      add\n        /* \"#utility.yul\":13945:13948   */\n      dup6\n        /* \"#utility.yul\":13937:13943   */\n      dup2\n        /* \"#utility.yul\":13934:13949   */\n      gt\n        /* \"#utility.yul\":13931:14053   */\n      iszero\n      tag_263\n      jumpi\n        /* \"#utility.yul\":13964:14043   */\n      tag_264\n      tag_117\n      jump\t// in\n    tag_264:\n        /* \"#utility.yul\":13931:14053   */\n    tag_263:\n        /* \"#utility.yul\":14079:14085   */\n      dup4\n        /* \"#utility.yul\":14062:14293   */\n    tag_265:\n        /* \"#utility.yul\":14096:14102   */\n      dup2\n        /* \"#utility.yul\":14091:14094   */\n      dup2\n        /* \"#utility.yul\":14088:14103   */\n      lt\n        /* \"#utility.yul\":14062:14293   */\n      iszero\n      tag_267\n      jumpi\n        /* \"#utility.yul\":14171:14174   */\n      dup1\n        /* \"#utility.yul\":14200:14248   */\n      tag_268\n        /* \"#utility.yul\":14244:14247   */\n      dup9\n        /* \"#utility.yul\":14232:14242   */\n      dup3\n        /* \"#utility.yul\":14200:14248   */\n      tag_96\n      jump\t// in\n    tag_268:\n        /* \"#utility.yul\":14195:14198   */\n      dup5\n        /* \"#utility.yul\":14188:14249   */\n      mstore\n        /* \"#utility.yul\":14278:14282   */\n      0x20\n        /* \"#utility.yul\":14273:14276   */\n      dup5\n        /* \"#utility.yul\":14269:14283   */\n      add\n        /* \"#utility.yul\":14262:14283   */\n      swap4\n      pop\n        /* \"#utility.yul\":14138:14293   */\n      pop\n        /* \"#utility.yul\":14122:14126   */\n      0x20\n        /* \"#utility.yul\":14117:14120   */\n      dup2\n        /* \"#utility.yul\":14113:14127   */\n      add\n        /* \"#utility.yul\":14106:14127   */\n      swap1\n      pop\n        /* \"#utility.yul\":14062:14293   */\n      jump(tag_265)\n    tag_267:\n        /* \"#utility.yul\":14066:14087   */\n      pop\n        /* \"#utility.yul\":13680:14299   */\n      pop\n      pop\n        /* \"#utility.yul\":13567:14299   */\n      swap4\n      swap3\n      pop\n      pop\n      pop\n      jump\t// out\n        /* \"#utility.yul\":14322:14707   */\n    tag_119:\n        /* \"#utility.yul\":14404:14409   */\n      0x00\n        /* \"#utility.yul\":14453:14456   */\n      dup3\n        /* \"#utility.yul\":14446:14450   */\n      0x1f\n        /* \"#utility.yul\":14438:14444   */\n      dup4\n        /* \"#utility.yul\":14434:14451   */\n      add\n        /* \"#utility.yul\":14430:14457   */\n      slt\n        /* \"#utility.yul\":14420:14542   */\n      tag_270\n      jumpi\n        /* \"#utility.yul\":14461:14540   */\n      tag_271\n      tag_115\n      jump\t// in\n    tag_271:\n        /* \"#utility.yul\":14420:14542   */\n    tag_270:\n        /* \"#utility.yul\":14571:14577   */\n      dup2\n        /* \"#utility.yul\":14565:14578   */\n      mload\n        /* \"#utility.yul\":14596:14701   */\n      tag_272\n        /* \"#utility.yul\":14697:14700   */\n      dup5\n        /* \"#utility.yul\":14689:14695   */\n      dup3\n        /* \"#utility.yul\":14682:14686   */\n      0x20\n        /* \"#utility.yul\":14674:14680   */\n      dup7\n        /* \"#utility.yul\":14670:14687   */\n      add\n        /* \"#utility.yul\":14596:14701   */\n      tag_118\n      jump\t// in\n    tag_272:\n        /* \"#utility.yul\":14587:14701   */\n      swap2\n      pop\n        /* \"#utility.yul\":14410:14707   */\n      pop\n        /* \"#utility.yul\":14322:14707   */\n      swap3\n      swap2\n      pop\n      pop\n      jump\t// out\n        /* \"#utility.yul\":14713:15267   */\n    tag_73:\n        /* \"#utility.yul\":14808:14814   */\n      0x00\n        /* \"#utility.yul\":14857:14859   */\n      0x20\n        /* \"#utility.yul\":14845:14854   */\n      dup3\n        /* \"#utility.yul\":14836:14843   */\n      dup5\n        /* \"#utility.yul\":14832:14855   */\n      sub\n        /* \"#utility.yul\":14828:14860   */\n      slt\n        /* \"#utility.yul\":14825:14944   */\n      iszero\n      tag_274\n      jumpi\n        /* \"#utility.yul\":14863:14942   */\n      tag_275\n      tag_80\n      jump\t// in\n    tag_275:\n        /* \"#utility.yul\":14825:14944   */\n    tag_274:\n        /* \"#utility.yul\":15004:15005   */\n      0x00\n        /* \"#utility.yul\":14993:15002   */\n      dup3\n        /* \"#utility.yul\":14989:15006   */\n      add\n        /* \"#utility.yul\":14983:15007   */\n      mload\n        /* \"#utility.yul\":15034:15052   */\n      0xffffffffffffffff\n        /* \"#utility.yul\":15026:15032   */\n      dup2\n        /* \"#utility.yul\":15023:15053   */\n      gt\n        /* \"#utility.yul\":15020:15137   */\n      iszero\n      tag_276\n      jumpi\n        /* \"#utility.yul\":15056:15135   */\n      tag_277\n      tag_81\n      jump\t// in\n    tag_277:\n        /* \"#utility.yul\":15020:15137   */\n    tag_276:\n        /* \"#utility.yul\":15161:15250   */\n      tag_278\n        /* \"#utility.yul\":15242:15249   */\n      dup5\n        /* \"#utility.yul\":15233:15239   */\n      dup3\n        /* \"#utility.yul\":15222:15231   */\n      dup6\n        /* \"#utility.yul\":15218:15240   */\n      add\n        /* \"#utility.yul\":15161:15250   */\n      tag_119\n      jump\t// in\n    tag_278:\n        /* \"#utility.yul\":15151:15250   */\n      swap2\n      pop\n        /* \"#utility.yul\":14954:15260   */\n      pop\n        /* \"#utility.yul\":14713:15267   */\n      swap3\n      swap2\n      pop\n      pop\n      jump\t// out\n\n    auxdata: 0xa2646970667358221220e3fd1f1328e935a3da6524447e446a3a49ddcab38622345ab5f616d939faa1a464736f6c634300080d0033\n}\n",
				"bytecode": {
					"linkReferences": {},
					"object": "6080604052737a250d5630b4cf539739df2c5dacb4c659f2488d6000806101000a81548173ffffffffffffffffffffffffffffffffffffffff021916908373ffffffffffffffffffffffffffffffffffffffff16021790555073c778417e063141139fce010982780140aa0cd5ab600160006101000a81548173ffffffffffffffffffffffffffffffffffffffff021916908373ffffffffffffffffffffffffffffffffffffffff16021790555073549f978c19a5ac86d906052639e317b57724ef44600260006101000a81548173ffffffffffffffffffffffffffffffffffffffff021916908373ffffffffffffffffffffffffffffffffffffffff16021790555073f42a08c0ea66ee4a474336087a6c17e9ea6c9de9600360006101000a81548173ffffffffffffffffffffffffffffffffffffffff021916908373ffffffffffffffffffffffffffffffffffffffff16021790555073d9dfa8c6b37cfdf16668fe0465896f4a1b9b2c4f600460006101000a81548173ffffffffffffffffffffffffffffffffffffffff021916908373ffffffffffffffffffffffffffffffffffffffff16021790555060008054906101000a900473ffffffffffffffffffffffffffffffffffffffff16600560006101000a81548173ffffffffffffffffffffffffffffffffffffffff021916908373ffffffffffffffffffffffffffffffffffffffff160217905550600260009054906101000a900473ffffffffffffffffffffffffffffffffffffffff16600660006101000a81548173ffffffffffffffffffffffffffffffffffffffff021916908373ffffffffffffffffffffffffffffffffffffffff160217905550600460009054906101000a900473ffffffffffffffffffffffffffffffffffffffff16600760006101000a81548173ffffffffffffffffffffffffffffffffffffffff021916908373ffffffffffffffffffffffffffffffffffffffff1602179055503480156102df57600080fd5b50610eda806102ef6000396000f3fe60806040526004361061003e5760003560e01c8062f714ce1461004357806351c6590a1461006c578063a93f74e01461009c578063fc55d2bf146100b8575b600080fd5b34801561004f57600080fd5b5061006a600480360381019061006591906107ba565b6100e1565b005b610086600480360381019061008191906107fa565b610218565b6040516100939190610836565b60405180910390f35b6100b660048036038101906100b191906107fa565b61049f565b005b3480156100c457600080fd5b506100df60048036038101906100da9190610851565b61067e565b005b6000600760009054906101000a900473ffffffffffffffffffffffffffffffffffffffff1673ffffffffffffffffffffffffffffffffffffffff16631959a002836040518263ffffffff1660e01b815260040161013e91906108b3565b6040805180830381865afa15801561015a573d6000803e3d6000fd5b505050506040513d601f19601f8201168201806040525081019061017e91906109c4565b9050600760009054906101000a900473ffffffffffffffffffffffffffffffffffffffff1673ffffffffffffffffffffffffffffffffffffffff1663441a3e708483600001516040518363ffffffff1660e01b81526004016101e19291906109f1565b600060405180830381600087803b1580156101fb57600080fd5b505af115801561020f573d6000803e3d6000fd5b50505050505050565b6000600660009054906101000a900473ffffffffffffffffffffffffffffffffffffffff1673ffffffffffffffffffffffffffffffffffffffff1663095ea7b3600560009054906101000a900473ffffffffffffffffffffffffffffffffffffffff16846040518363ffffffff1660e01b8152600401610299929190610a1a565b6020604051808303816000875af11580156102b8573d6000803e3d6000fd5b505050506040513d601f19601f820116820180604052508101906102dc9190610a7b565b506000600660009054906101000a900473ffffffffffffffffffffffffffffffffffffffff1673ffffffffffffffffffffffffffffffffffffffff166323b872dd3330866040518463ffffffff1660e01b815260040161033e93929190610aa8565b6020604051808303816000875af115801561035d573d6000803e3d6000fd5b505050506040513d601f19601f820116820180604052508101906103819190610a7b565b9050806103c3576040517f08c379a00000000000000000000000000000000000000000000000000000000081526004016103ba90610b3c565b60405180910390fd5b6000600560009054906101000a900473ffffffffffffffffffffffffffffffffffffffff1673ffffffffffffffffffffffffffffffffffffffff1663f305d71934600260009054906101000a900473ffffffffffffffffffffffffffffffffffffffff168760008033426040518863ffffffff1660e01b815260040161044e96959493929190610ba1565b60606040518083038185885af115801561046c573d6000803e3d6000fd5b50505050506040513d601f19601f820116820180604052508101906104919190610c02565b505090508092505050919050565b6000600267ffffffffffffffff8111156104bc576104bb6108e4565b5b6040519080825280602002602001820160405280156104ea5781602001602082028036833780820191505090505b509050600160009054906101000a900473ffffffffffffffffffffffffffffffffffffffff168160008151811061052457610523610c55565b5b602002602001019073ffffffffffffffffffffffffffffffffffffffff16908173ffffffffffffffffffffffffffffffffffffffff1681525050600260009054906101000a900473ffffffffffffffffffffffffffffffffffffffff168160018151811061059557610594610c55565b5b602002602001019073ffffffffffffffffffffffffffffffffffffffff16908173ffffffffffffffffffffffffffffffffffffffff1681525050600560009054906101000a900473ffffffffffffffffffffffffffffffffffffffff1673ffffffffffffffffffffffffffffffffffffffff16637ff36ab534848433426040518663ffffffff1660e01b81526004016106319493929190610d42565b60006040518083038185885af115801561064f573d6000803e3d6000fd5b50505050506040513d6000823e3d601f19601f820116820180604052508101906106799190610e5b565b505050565b600760009054906101000a900473ffffffffffffffffffffffffffffffffffffffff1673ffffffffffffffffffffffffffffffffffffffff1663e2bbb15883836040518363ffffffff1660e01b81526004016106db9291906109f1565b600060405180830381600087803b1580156106f557600080fd5b505af1158015610709573d6000803e3d6000fd5b50505050505050565b6000604051905090565b600080fd5b600080fd5b6000819050919050565b61073981610726565b811461074457600080fd5b50565b60008135905061075681610730565b92915050565b600073ffffffffffffffffffffffffffffffffffffffff82169050919050565b60006107878261075c565b9050919050565b6107978161077c565b81146107a257600080fd5b50565b6000813590506107b48161078e565b92915050565b600080604083850312156107d1576107d061071c565b5b60006107df85828601610747565b92505060206107f0858286016107a5565b9150509250929050565b6000602082840312156108105761080f61071c565b5b600061081e84828501610747565b91505092915050565b61083081610726565b82525050565b600060208201905061084b6000830184610827565b92915050565b60008060006060848603121561086a5761086961071c565b5b6000610878868287016107a5565b935050602061088986828701610747565b925050604061089a86828701610747565b9150509250925092565b6108ad8161077c565b82525050565b60006020820190506108c860008301846108a4565b92915050565b600080fd5b6000601f19601f8301169050919050565b7f4e487b7100000000000000000000000000000000000000000000000000000000600052604160045260246000fd5b61091c826108d3565b810181811067ffffffffffffffff8211171561093b5761093a6108e4565b5b80604052505050565b600061094e610712565b905061095a8282610913565b919050565b60008151905061096e81610730565b92915050565b60006040828403121561098a576109896108ce565b5b6109946040610944565b905060006109a48482850161095f565b60008301525060206109b88482850161095f565b60208301525092915050565b6000604082840312156109da576109d961071c565b5b60006109e884828501610974565b91505092915050565b6000604082019050610a066000830185610827565b610a136020830184610827565b9392505050565b6000604082019050610a2f60008301856108a4565b610a3c6020830184610827565b9392505050565b60008115159050919050565b610a5881610a43565b8114610a6357600080fd5b50565b600081519050610a7581610a4f565b92915050565b600060208284031215610a9157610a9061071c565b5b6000610a9f84828501610a66565b91505092915050565b6000606082019050610abd60008301866108a4565b610aca60208301856108a4565b610ad76040830184610827565b949350505050565b600082825260208201905092915050565b7f6d746f6b656e207472616e73666572206572726f722100000000000000000000600082015250565b6000610b26601683610adf565b9150610b3182610af0565b602082019050919050565b60006020820190508181036000830152610b5581610b19565b9050919050565b6000819050919050565b6000819050919050565b6000610b8b610b86610b8184610b5c565b610b66565b610726565b9050919050565b610b9b81610b70565b82525050565b600060c082019050610bb660008301896108a4565b610bc36020830188610827565b610bd06040830187610b92565b610bdd6060830186610b92565b610bea60808301856108a4565b610bf760a0830184610827565b979650505050505050565b600080600060608486031215610c1b57610c1a61071c565b5b6000610c298682870161095f565b9350506020610c3a8682870161095f565b9250506040610c4b8682870161095f565b9150509250925092565b7f4e487b7100000000000000000000000000000000000000000000000000000000600052603260045260246000fd5b600081519050919050565b600082825260208201905092915050565b6000819050602082019050919050565b610cb98161077c565b82525050565b6000610ccb8383610cb0565b60208301905092915050565b6000602082019050919050565b6000610cef82610c84565b610cf98185610c8f565b9350610d0483610ca0565b8060005b83811015610d35578151610d1c8882610cbf565b9750610d2783610cd7565b925050600181019050610d08565b5085935050505092915050565b6000608082019050610d576000830187610827565b8181036020830152610d698186610ce4565b9050610d7860408301856108a4565b610d856060830184610827565b95945050505050565b600080fd5b600067ffffffffffffffff821115610dae57610dad6108e4565b5b602082029050602081019050919050565b600080fd5b6000610dd7610dd284610d93565b610944565b90508083825260208201905060208402830185811115610dfa57610df9610dbf565b5b835b81811015610e235780610e0f888261095f565b845260208401935050602081019050610dfc565b5050509392505050565b600082601f830112610e4257610e41610d8e565b5b8151610e52848260208601610dc4565b91505092915050565b600060208284031215610e7157610e7061071c565b5b600082015167ffffffffffffffff811115610e8f57610e8e610721565b5b610e9b84828501610e2d565b9150509291505056fea2646970667358221220e3fd1f1328e935a3da6524447e446a3a49ddcab38622345ab5f616d939faa1a464736f6c634300080d0033",
					"opcodes": "PUSH1 0x80 PUSH1 0x40 MSTORE PUSH20 0x7A250D5630B4CF539739DF2C5DACB4C659F2488D PUSH1 0x0 DUP1 PUSH2 0x100 EXP DUP2 SLOAD DUP2 PUSH20 0xFFFFFFFFFFFFFFFFFFFFFFFFFFFFFFFFFFFFFFFF MUL NOT AND SWAP1 DUP4 PUSH20 0xFFFFFFFFFFFFFFFFFFFFFFFFFFFFFFFFFFFFFFFF AND MUL OR SWAP1 SSTORE POP PUSH20 0xC778417E063141139FCE010982780140AA0CD5AB PUSH1 0x1 PUSH1 0x0 PUSH2 0x100 EXP DUP2 SLOAD DUP2 PUSH20 0xFFFFFFFFFFFFFFFFFFFFFFFFFFFFFFFFFFFFFFFF MUL NOT AND SWAP1 DUP4 PUSH20 0xFFFFFFFFFFFFFFFFFFFFFFFFFFFFFFFFFFFFFFFF AND MUL OR SWAP1 SSTORE POP PUSH20 0x549F978C19A5AC86D906052639E317B57724EF44 PUSH1 0x2 PUSH1 0x0 PUSH2 0x100 EXP DUP2 SLOAD DUP2 PUSH20 0xFFFFFFFFFFFFFFFFFFFFFFFFFFFFFFFFFFFFFFFF MUL NOT AND SWAP1 DUP4 PUSH20 0xFFFFFFFFFFFFFFFFFFFFFFFFFFFFFFFFFFFFFFFF AND MUL OR SWAP1 SSTORE POP PUSH20 0xF42A08C0EA66EE4A474336087A6C17E9EA6C9DE9 PUSH1 0x3 PUSH1 0x0 PUSH2 0x100 EXP DUP2 SLOAD DUP2 PUSH20 0xFFFFFFFFFFFFFFFFFFFFFFFFFFFFFFFFFFFFFFFF MUL NOT AND SWAP1 DUP4 PUSH20 0xFFFFFFFFFFFFFFFFFFFFFFFFFFFFFFFFFFFFFFFF AND MUL OR SWAP1 SSTORE POP PUSH20 0xD9DFA8C6B37CFDF16668FE0465896F4A1B9B2C4F PUSH1 0x4 PUSH1 0x0 PUSH2 0x100 EXP DUP2 SLOAD DUP2 PUSH20 0xFFFFFFFFFFFFFFFFFFFFFFFFFFFFFFFFFFFFFFFF MUL NOT AND SWAP1 DUP4 PUSH20 0xFFFFFFFFFFFFFFFFFFFFFFFFFFFFFFFFFFFFFFFF AND MUL OR SWAP1 SSTORE POP PUSH1 0x0 DUP1 SLOAD SWAP1 PUSH2 0x100 EXP SWAP1 DIV PUSH20 0xFFFFFFFFFFFFFFFFFFFFFFFFFFFFFFFFFFFFFFFF AND PUSH1 0x5 PUSH1 0x0 PUSH2 0x100 EXP DUP2 SLOAD DUP2 PUSH20 0xFFFFFFFFFFFFFFFFFFFFFFFFFFFFFFFFFFFFFFFF MUL NOT AND SWAP1 DUP4 PUSH20 0xFFFFFFFFFFFFFFFFFFFFFFFFFFFFFFFFFFFFFFFF AND MUL OR SWAP1 SSTORE POP PUSH1 0x2 PUSH1 0x0 SWAP1 SLOAD SWAP1 PUSH2 0x100 EXP SWAP1 DIV PUSH20 0xFFFFFFFFFFFFFFFFFFFFFFFFFFFFFFFFFFFFFFFF AND PUSH1 0x6 PUSH1 0x0 PUSH2 0x100 EXP DUP2 SLOAD DUP2 PUSH20 0xFFFFFFFFFFFFFFFFFFFFFFFFFFFFFFFFFFFFFFFF MUL NOT AND SWAP1 DUP4 PUSH20 0xFFFFFFFFFFFFFFFFFFFFFFFFFFFFFFFFFFFFFFFF AND MUL OR SWAP1 SSTORE POP PUSH1 0x4 PUSH1 0x0 SWAP1 SLOAD SWAP1 PUSH2 0x100 EXP SWAP1 DIV PUSH20 0xFFFFFFFFFFFFFFFFFFFFFFFFFFFFFFFFFFFFFFFF AND PUSH1 0x7 PUSH1 0x0 PUSH2 0x100 EXP DUP2 SLOAD DUP2 PUSH20 0xFFFFFFFFFFFFFFFFFFFFFFFFFFFFFFFFFFFFFFFF MUL NOT AND SWAP1 DUP4 PUSH20 0xFFFFFFFFFFFFFFFFFFFFFFFFFFFFFFFFFFFFFFFF AND MUL OR SWAP1 SSTORE POP CALLVALUE DUP1 ISZERO PUSH2 0x2DF JUMPI PUSH1 0x0 DUP1 REVERT JUMPDEST POP PUSH2 0xEDA DUP1 PUSH2 0x2EF PUSH1 0x0 CODECOPY PUSH1 0x0 RETURN INVALID PUSH1 0x80 PUSH1 0x40 MSTORE PUSH1 0x4 CALLDATASIZE LT PUSH2 0x3E JUMPI PUSH1 0x0 CALLDATALOAD PUSH1 0xE0 SHR DUP1 PUSH3 0xF714CE EQ PUSH2 0x43 JUMPI DUP1 PUSH4 0x51C6590A EQ PUSH2 0x6C JUMPI DUP1 PUSH4 0xA93F74E0 EQ PUSH2 0x9C JUMPI DUP1 PUSH4 0xFC55D2BF EQ PUSH2 0xB8 JUMPI JUMPDEST PUSH1 0x0 DUP1 REVERT JUMPDEST CALLVALUE DUP1 ISZERO PUSH2 0x4F JUMPI PUSH1 0x0 DUP1 REVERT JUMPDEST POP PUSH2 0x6A PUSH1 0x4 DUP1 CALLDATASIZE SUB DUP2 ADD SWAP1 PUSH2 0x65 SWAP2 SWAP1 PUSH2 0x7BA JUMP JUMPDEST PUSH2 0xE1 JUMP JUMPDEST STOP JUMPDEST PUSH2 0x86 PUSH1 0x4 DUP1 CALLDATASIZE SUB DUP2 ADD SWAP1 PUSH2 0x81 SWAP2 SWAP1 PUSH2 0x7FA JUMP JUMPDEST PUSH2 0x218 JUMP JUMPDEST PUSH1 0x40 MLOAD PUSH2 0x93 SWAP2 SWAP1 PUSH2 0x836 JUMP JUMPDEST PUSH1 0x40 MLOAD DUP1 SWAP2 SUB SWAP1 RETURN JUMPDEST PUSH2 0xB6 PUSH1 0x4 DUP1 CALLDATASIZE SUB DUP2 ADD SWAP1 PUSH2 0xB1 SWAP2 SWAP1 PUSH2 0x7FA JUMP JUMPDEST PUSH2 0x49F JUMP JUMPDEST STOP JUMPDEST CALLVALUE DUP1 ISZERO PUSH2 0xC4 JUMPI PUSH1 0x0 DUP1 REVERT JUMPDEST POP PUSH2 0xDF PUSH1 0x4 DUP1 CALLDATASIZE SUB DUP2 ADD SWAP1 PUSH2 0xDA SWAP2 SWAP1 PUSH2 0x851 JUMP JUMPDEST PUSH2 0x67E JUMP JUMPDEST STOP JUMPDEST PUSH1 0x0 PUSH1 0x7 PUSH1 0x0 SWAP1 SLOAD SWAP1 PUSH2 0x100 EXP SWAP1 DIV PUSH20 0xFFFFFFFFFFFFFFFFFFFFFFFFFFFFFFFFFFFFFFFF AND PUSH20 0xFFFFFFFFFFFFFFFFFFFFFFFFFFFFFFFFFFFFFFFF AND PUSH4 0x1959A002 DUP4 PUSH1 0x40 MLOAD DUP3 PUSH4 0xFFFFFFFF AND PUSH1 0xE0 SHL DUP2 MSTORE PUSH1 0x4 ADD PUSH2 0x13E SWAP2 SWAP1 PUSH2 0x8B3 JUMP JUMPDEST PUSH1 0x40 DUP1 MLOAD DUP1 DUP4 SUB DUP2 DUP7 GAS STATICCALL ISZERO DUP1 ISZERO PUSH2 0x15A JUMPI RETURNDATASIZE PUSH1 0x0 DUP1 RETURNDATACOPY RETURNDATASIZE PUSH1 0x0 REVERT JUMPDEST POP POP POP POP PUSH1 0x40 MLOAD RETURNDATASIZE PUSH1 0x1F NOT PUSH1 0x1F DUP3 ADD AND DUP3 ADD DUP1 PUSH1 0x40 MSTORE POP DUP2 ADD SWAP1 PUSH2 0x17E SWAP2 SWAP1 PUSH2 0x9C4 JUMP JUMPDEST SWAP1 POP PUSH1 0x7 PUSH1 0x0 SWAP1 SLOAD SWAP1 PUSH2 0x100 EXP SWAP1 DIV PUSH20 0xFFFFFFFFFFFFFFFFFFFFFFFFFFFFFFFFFFFFFFFF AND PUSH20 0xFFFFFFFFFFFFFFFFFFFFFFFFFFFFFFFFFFFFFFFF AND PUSH4 0x441A3E70 DUP5 DUP4 PUSH1 0x0 ADD MLOAD PUSH1 0x40 MLOAD DUP4 PUSH4 0xFFFFFFFF AND PUSH1 0xE0 SHL DUP2 MSTORE PUSH1 0x4 ADD PUSH2 0x1E1 SWAP3 SWAP2 SWAP1 PUSH2 0x9F1 JUMP JUMPDEST PUSH1 0x0 PUSH1 0x40 MLOAD DUP1 DUP4 SUB DUP2 PUSH1 0x0 DUP8 DUP1 EXTCODESIZE ISZERO DUP1 ISZERO PUSH2 0x1FB JUMPI PUSH1 0x0 DUP1 REVERT JUMPDEST POP GAS CALL ISZERO DUP1 ISZERO PUSH2 0x20F JUMPI RETURNDATASIZE PUSH1 0x0 DUP1 RETURNDATACOPY RETURNDATASIZE PUSH1 0x0 REVERT JUMPDEST POP POP POP POP POP POP POP JUMP JUMPDEST PUSH1 0x0 PUSH1 0x6 PUSH1 0x0 SWAP1 SLOAD SWAP1 PUSH2 0x100 EXP SWAP1 DIV PUSH20 0xFFFFFFFFFFFFFFFFFFFFFFFFFFFFFFFFFFFFFFFF AND PUSH20 0xFFFFFFFFFFFFFFFFFFFFFFFFFFFFFFFFFFFFFFFF AND PUSH4 0x95EA7B3 PUSH1 0x5 PUSH1 0x0 SWAP1 SLOAD SWAP1 PUSH2 0x100 EXP SWAP1 DIV PUSH20 0xFFFFFFFFFFFFFFFFFFFFFFFFFFFFFFFFFFFFFFFF AND DUP5 PUSH1 0x40 MLOAD DUP4 PUSH4 0xFFFFFFFF AND PUSH1 0xE0 SHL DUP2 MSTORE PUSH1 0x4 ADD PUSH2 0x299 SWAP3 SWAP2 SWAP1 PUSH2 0xA1A JUMP JUMPDEST PUSH1 0x20 PUSH1 0x40 MLOAD DUP1 DUP4 SUB DUP2 PUSH1 0x0 DUP8 GAS CALL ISZERO DUP1 ISZERO PUSH2 0x2B8 JUMPI RETURNDATASIZE PUSH1 0x0 DUP1 RETURNDATACOPY RETURNDATASIZE PUSH1 0x0 REVERT JUMPDEST POP POP POP POP PUSH1 0x40 MLOAD RETURNDATASIZE PUSH1 0x1F NOT PUSH1 0x1F DUP3 ADD AND DUP3 ADD DUP1 PUSH1 0x40 MSTORE POP DUP2 ADD SWAP1 PUSH2 0x2DC SWAP2 SWAP1 PUSH2 0xA7B JUMP JUMPDEST POP PUSH1 0x0 PUSH1 0x6 PUSH1 0x0 SWAP1 SLOAD SWAP1 PUSH2 0x100 EXP SWAP1 DIV PUSH20 0xFFFFFFFFFFFFFFFFFFFFFFFFFFFFFFFFFFFFFFFF AND PUSH20 0xFFFFFFFFFFFFFFFFFFFFFFFFFFFFFFFFFFFFFFFF AND PUSH4 0x23B872DD CALLER ADDRESS DUP7 PUSH1 0x40 MLOAD DUP5 PUSH4 0xFFFFFFFF AND PUSH1 0xE0 SHL DUP2 MSTORE PUSH1 0x4 ADD PUSH2 0x33E SWAP4 SWAP3 SWAP2 SWAP1 PUSH2 0xAA8 JUMP JUMPDEST PUSH1 0x20 PUSH1 0x40 MLOAD DUP1 DUP4 SUB DUP2 PUSH1 0x0 DUP8 GAS CALL ISZERO DUP1 ISZERO PUSH2 0x35D JUMPI RETURNDATASIZE PUSH1 0x0 DUP1 RETURNDATACOPY RETURNDATASIZE PUSH1 0x0 REVERT JUMPDEST POP POP POP POP PUSH1 0x40 MLOAD RETURNDATASIZE PUSH1 0x1F NOT PUSH1 0x1F DUP3 ADD AND DUP3 ADD DUP1 PUSH1 0x40 MSTORE POP DUP2 ADD SWAP1 PUSH2 0x381 SWAP2 SWAP1 PUSH2 0xA7B JUMP JUMPDEST SWAP1 POP DUP1 PUSH2 0x3C3 JUMPI PUSH1 0x40 MLOAD PUSH32 0x8C379A000000000000000000000000000000000000000000000000000000000 DUP2 MSTORE PUSH1 0x4 ADD PUSH2 0x3BA SWAP1 PUSH2 0xB3C JUMP JUMPDEST PUSH1 0x40 MLOAD DUP1 SWAP2 SUB SWAP1 REVERT JUMPDEST PUSH1 0x0 PUSH1 0x5 PUSH1 0x0 SWAP1 SLOAD SWAP1 PUSH2 0x100 EXP SWAP1 DIV PUSH20 0xFFFFFFFFFFFFFFFFFFFFFFFFFFFFFFFFFFFFFFFF AND PUSH20 0xFFFFFFFFFFFFFFFFFFFFFFFFFFFFFFFFFFFFFFFF AND PUSH4 0xF305D719 CALLVALUE PUSH1 0x2 PUSH1 0x0 SWAP1 SLOAD SWAP1 PUSH2 0x100 EXP SWAP1 DIV PUSH20 0xFFFFFFFFFFFFFFFFFFFFFFFFFFFFFFFFFFFFFFFF AND DUP8 PUSH1 0x0 DUP1 CALLER TIMESTAMP PUSH1 0x40 MLOAD DUP9 PUSH4 0xFFFFFFFF AND PUSH1 0xE0 SHL DUP2 MSTORE PUSH1 0x4 ADD PUSH2 0x44E SWAP7 SWAP6 SWAP5 SWAP4 SWAP3 SWAP2 SWAP1 PUSH2 0xBA1 JUMP JUMPDEST PUSH1 0x60 PUSH1 0x40 MLOAD DUP1 DUP4 SUB DUP2 DUP6 DUP9 GAS CALL ISZERO DUP1 ISZERO PUSH2 0x46C JUMPI RETURNDATASIZE PUSH1 0x0 DUP1 RETURNDATACOPY RETURNDATASIZE PUSH1 0x0 REVERT JUMPDEST POP POP POP POP POP PUSH1 0x40 MLOAD RETURNDATASIZE PUSH1 0x1F NOT PUSH1 0x1F DUP3 ADD AND DUP3 ADD DUP1 PUSH1 0x40 MSTORE POP DUP2 ADD SWAP1 PUSH2 0x491 SWAP2 SWAP1 PUSH2 0xC02 JUMP JUMPDEST POP POP SWAP1 POP DUP1 SWAP3 POP POP POP SWAP2 SWAP1 POP JUMP JUMPDEST PUSH1 0x0 PUSH1 0x2 PUSH8 0xFFFFFFFFFFFFFFFF DUP2 GT ISZERO PUSH2 0x4BC JUMPI PUSH2 0x4BB PUSH2 0x8E4 JUMP JUMPDEST JUMPDEST PUSH1 0x40 MLOAD SWAP1 DUP1 DUP3 MSTORE DUP1 PUSH1 0x20 MUL PUSH1 0x20 ADD DUP3 ADD PUSH1 0x40 MSTORE DUP1 ISZERO PUSH2 0x4EA JUMPI DUP2 PUSH1 0x20 ADD PUSH1 0x20 DUP3 MUL DUP1 CALLDATASIZE DUP4 CALLDATACOPY DUP1 DUP3 ADD SWAP2 POP POP SWAP1 POP JUMPDEST POP SWAP1 POP PUSH1 0x1 PUSH1 0x0 SWAP1 SLOAD SWAP1 PUSH2 0x100 EXP SWAP1 DIV PUSH20 0xFFFFFFFFFFFFFFFFFFFFFFFFFFFFFFFFFFFFFFFF AND DUP2 PUSH1 0x0 DUP2 MLOAD DUP2 LT PUSH2 0x524 JUMPI PUSH2 0x523 PUSH2 0xC55 JUMP JUMPDEST JUMPDEST PUSH1 0x20 MUL PUSH1 0x20 ADD ADD SWAP1 PUSH20 0xFFFFFFFFFFFFFFFFFFFFFFFFFFFFFFFFFFFFFFFF AND SWAP1 DUP2 PUSH20 0xFFFFFFFFFFFFFFFFFFFFFFFFFFFFFFFFFFFFFFFF AND DUP2 MSTORE POP POP PUSH1 0x2 PUSH1 0x0 SWAP1 SLOAD SWAP1 PUSH2 0x100 EXP SWAP1 DIV PUSH20 0xFFFFFFFFFFFFFFFFFFFFFFFFFFFFFFFFFFFFFFFF AND DUP2 PUSH1 0x1 DUP2 MLOAD DUP2 LT PUSH2 0x595 JUMPI PUSH2 0x594 PUSH2 0xC55 JUMP JUMPDEST JUMPDEST PUSH1 0x20 MUL PUSH1 0x20 ADD ADD SWAP1 PUSH20 0xFFFFFFFFFFFFFFFFFFFFFFFFFFFFFFFFFFFFFFFF AND SWAP1 DUP2 PUSH20 0xFFFFFFFFFFFFFFFFFFFFFFFFFFFFFFFFFFFFFFFF AND DUP2 MSTORE POP POP PUSH1 0x5 PUSH1 0x0 SWAP1 SLOAD SWAP1 PUSH2 0x100 EXP SWAP1 DIV PUSH20 0xFFFFFFFFFFFFFFFFFFFFFFFFFFFFFFFFFFFFFFFF AND PUSH20 0xFFFFFFFFFFFFFFFFFFFFFFFFFFFFFFFFFFFFFFFF AND PUSH4 0x7FF36AB5 CALLVALUE DUP5 DUP5 CALLER TIMESTAMP PUSH1 0x40 MLOAD DUP7 PUSH4 0xFFFFFFFF AND PUSH1 0xE0 SHL DUP2 MSTORE PUSH1 0x4 ADD PUSH2 0x631 SWAP5 SWAP4 SWAP3 SWAP2 SWAP1 PUSH2 0xD42 JUMP JUMPDEST PUSH1 0x0 PUSH1 0x40 MLOAD DUP1 DUP4 SUB DUP2 DUP6 DUP9 GAS CALL ISZERO DUP1 ISZERO PUSH2 0x64F JUMPI RETURNDATASIZE PUSH1 0x0 DUP1 RETURNDATACOPY RETURNDATASIZE PUSH1 0x0 REVERT JUMPDEST POP POP POP POP POP PUSH1 0x40 MLOAD RETURNDATASIZE PUSH1 0x0 DUP3 RETURNDATACOPY RETURNDATASIZE PUSH1 0x1F NOT PUSH1 0x1F DUP3 ADD AND DUP3 ADD DUP1 PUSH1 0x40 MSTORE POP DUP2 ADD SWAP1 PUSH2 0x679 SWAP2 SWAP1 PUSH2 0xE5B JUMP JUMPDEST POP POP POP JUMP JUMPDEST PUSH1 0x7 PUSH1 0x0 SWAP1 SLOAD SWAP1 PUSH2 0x100 EXP SWAP1 DIV PUSH20 0xFFFFFFFFFFFFFFFFFFFFFFFFFFFFFFFFFFFFFFFF AND PUSH20 0xFFFFFFFFFFFFFFFFFFFFFFFFFFFFFFFFFFFFFFFF AND PUSH4 0xE2BBB158 DUP4 DUP4 PUSH1 0x40 MLOAD DUP4 PUSH4 0xFFFFFFFF AND PUSH1 0xE0 SHL DUP2 MSTORE PUSH1 0x4 ADD PUSH2 0x6DB SWAP3 SWAP2 SWAP1 PUSH2 0x9F1 JUMP JUMPDEST PUSH1 0x0 PUSH1 0x40 MLOAD DUP1 DUP4 SUB DUP2 PUSH1 0x0 DUP8 DUP1 EXTCODESIZE ISZERO DUP1 ISZERO PUSH2 0x6F5 JUMPI PUSH1 0x0 DUP1 REVERT JUMPDEST POP GAS CALL ISZERO DUP1 ISZERO PUSH2 0x709 JUMPI RETURNDATASIZE PUSH1 0x0 DUP1 RETURNDATACOPY RETURNDATASIZE PUSH1 0x0 REVERT JUMPDEST POP POP POP POP POP POP POP JUMP JUMPDEST PUSH1 0x0 PUSH1 0x40 MLOAD SWAP1 POP SWAP1 JUMP JUMPDEST PUSH1 0x0 DUP1 REVERT JUMPDEST PUSH1 0x0 DUP1 REVERT JUMPDEST PUSH1 0x0 DUP2 SWAP1 POP SWAP2 SWAP1 POP JUMP JUMPDEST PUSH2 0x739 DUP2 PUSH2 0x726 JUMP JUMPDEST DUP2 EQ PUSH2 0x744 JUMPI PUSH1 0x0 DUP1 REVERT JUMPDEST POP JUMP JUMPDEST PUSH1 0x0 DUP2 CALLDATALOAD SWAP1 POP PUSH2 0x756 DUP2 PUSH2 0x730 JUMP JUMPDEST SWAP3 SWAP2 POP POP JUMP JUMPDEST PUSH1 0x0 PUSH20 0xFFFFFFFFFFFFFFFFFFFFFFFFFFFFFFFFFFFFFFFF DUP3 AND SWAP1 POP SWAP2 SWAP1 POP JUMP JUMPDEST PUSH1 0x0 PUSH2 0x787 DUP3 PUSH2 0x75C JUMP JUMPDEST SWAP1 POP SWAP2 SWAP1 POP JUMP JUMPDEST PUSH2 0x797 DUP2 PUSH2 0x77C JUMP JUMPDEST DUP2 EQ PUSH2 0x7A2 JUMPI PUSH1 0x0 DUP1 REVERT JUMPDEST POP JUMP JUMPDEST PUSH1 0x0 DUP2 CALLDATALOAD SWAP1 POP PUSH2 0x7B4 DUP2 PUSH2 0x78E JUMP JUMPDEST SWAP3 SWAP2 POP POP JUMP JUMPDEST PUSH1 0x0 DUP1 PUSH1 0x40 DUP4 DUP6 SUB SLT ISZERO PUSH2 0x7D1 JUMPI PUSH2 0x7D0 PUSH2 0x71C JUMP JUMPDEST JUMPDEST PUSH1 0x0 PUSH2 0x7DF DUP6 DUP3 DUP7 ADD PUSH2 0x747 JUMP JUMPDEST SWAP3 POP POP PUSH1 0x20 PUSH2 0x7F0 DUP6 DUP3 DUP7 ADD PUSH2 0x7A5 JUMP JUMPDEST SWAP2 POP POP SWAP3 POP SWAP3 SWAP1 POP JUMP JUMPDEST PUSH1 0x0 PUSH1 0x20 DUP3 DUP5 SUB SLT ISZERO PUSH2 0x810 JUMPI PUSH2 0x80F PUSH2 0x71C JUMP JUMPDEST JUMPDEST PUSH1 0x0 PUSH2 0x81E DUP5 DUP3 DUP6 ADD PUSH2 0x747 JUMP JUMPDEST SWAP2 POP POP SWAP3 SWAP2 POP POP JUMP JUMPDEST PUSH2 0x830 DUP2 PUSH2 0x726 JUMP JUMPDEST DUP3 MSTORE POP POP JUMP JUMPDEST PUSH1 0x0 PUSH1 0x20 DUP3 ADD SWAP1 POP PUSH2 0x84B PUSH1 0x0 DUP4 ADD DUP5 PUSH2 0x827 JUMP JUMPDEST SWAP3 SWAP2 POP POP JUMP JUMPDEST PUSH1 0x0 DUP1 PUSH1 0x0 PUSH1 0x60 DUP5 DUP7 SUB SLT ISZERO PUSH2 0x86A JUMPI PUSH2 0x869 PUSH2 0x71C JUMP JUMPDEST JUMPDEST PUSH1 0x0 PUSH2 0x878 DUP7 DUP3 DUP8 ADD PUSH2 0x7A5 JUMP JUMPDEST SWAP4 POP POP PUSH1 0x20 PUSH2 0x889 DUP7 DUP3 DUP8 ADD PUSH2 0x747 JUMP JUMPDEST SWAP3 POP POP PUSH1 0x40 PUSH2 0x89A DUP7 DUP3 DUP8 ADD PUSH2 0x747 JUMP JUMPDEST SWAP2 POP POP SWAP3 POP SWAP3 POP SWAP3 JUMP JUMPDEST PUSH2 0x8AD DUP2 PUSH2 0x77C JUMP JUMPDEST DUP3 MSTORE POP POP JUMP JUMPDEST PUSH1 0x0 PUSH1 0x20 DUP3 ADD SWAP1 POP PUSH2 0x8C8 PUSH1 0x0 DUP4 ADD DUP5 PUSH2 0x8A4 JUMP JUMPDEST SWAP3 SWAP2 POP POP JUMP JUMPDEST PUSH1 0x0 DUP1 REVERT JUMPDEST PUSH1 0x0 PUSH1 0x1F NOT PUSH1 0x1F DUP4 ADD AND SWAP1 POP SWAP2 SWAP1 POP JUMP JUMPDEST PUSH32 0x4E487B7100000000000000000000000000000000000000000000000000000000 PUSH1 0x0 MSTORE PUSH1 0x41 PUSH1 0x4 MSTORE PUSH1 0x24 PUSH1 0x0 REVERT JUMPDEST PUSH2 0x91C DUP3 PUSH2 0x8D3 JUMP JUMPDEST DUP2 ADD DUP2 DUP2 LT PUSH8 0xFFFFFFFFFFFFFFFF DUP3 GT OR ISZERO PUSH2 0x93B JUMPI PUSH2 0x93A PUSH2 0x8E4 JUMP JUMPDEST JUMPDEST DUP1 PUSH1 0x40 MSTORE POP POP POP JUMP JUMPDEST PUSH1 0x0 PUSH2 0x94E PUSH2 0x712 JUMP JUMPDEST SWAP1 POP PUSH2 0x95A DUP3 DUP3 PUSH2 0x913 JUMP JUMPDEST SWAP2 SWAP1 POP JUMP JUMPDEST PUSH1 0x0 DUP2 MLOAD SWAP1 POP PUSH2 0x96E DUP2 PUSH2 0x730 JUMP JUMPDEST SWAP3 SWAP2 POP POP JUMP JUMPDEST PUSH1 0x0 PUSH1 0x40 DUP3 DUP5 SUB SLT ISZERO PUSH2 0x98A JUMPI PUSH2 0x989 PUSH2 0x8CE JUMP JUMPDEST JUMPDEST PUSH2 0x994 PUSH1 0x40 PUSH2 0x944 JUMP JUMPDEST SWAP1 POP PUSH1 0x0 PUSH2 0x9A4 DUP5 DUP3 DUP6 ADD PUSH2 0x95F JUMP JUMPDEST PUSH1 0x0 DUP4 ADD MSTORE POP PUSH1 0x20 PUSH2 0x9B8 DUP5 DUP3 DUP6 ADD PUSH2 0x95F JUMP JUMPDEST PUSH1 0x20 DUP4 ADD MSTORE POP SWAP3 SWAP2 POP POP JUMP JUMPDEST PUSH1 0x0 PUSH1 0x40 DUP3 DUP5 SUB SLT ISZERO PUSH2 0x9DA JUMPI PUSH2 0x9D9 PUSH2 0x71C JUMP JUMPDEST JUMPDEST PUSH1 0x0 PUSH2 0x9E8 DUP5 DUP3 DUP6 ADD PUSH2 0x974 JUMP JUMPDEST SWAP2 POP POP SWAP3 SWAP2 POP POP JUMP JUMPDEST PUSH1 0x0 PUSH1 0x40 DUP3 ADD SWAP1 POP PUSH2 0xA06 PUSH1 0x0 DUP4 ADD DUP6 PUSH2 0x827 JUMP JUMPDEST PUSH2 0xA13 PUSH1 0x20 DUP4 ADD DUP5 PUSH2 0x827 JUMP JUMPDEST SWAP4 SWAP3 POP POP POP JUMP JUMPDEST PUSH1 0x0 PUSH1 0x40 DUP3 ADD SWAP1 POP PUSH2 0xA2F PUSH1 0x0 DUP4 ADD DUP6 PUSH2 0x8A4 JUMP JUMPDEST PUSH2 0xA3C PUSH1 0x20 DUP4 ADD DUP5 PUSH2 0x827 JUMP JUMPDEST SWAP4 SWAP3 POP POP POP JUMP JUMPDEST PUSH1 0x0 DUP2 ISZERO ISZERO SWAP1 POP SWAP2 SWAP1 POP JUMP JUMPDEST PUSH2 0xA58 DUP2 PUSH2 0xA43 JUMP JUMPDEST DUP2 EQ PUSH2 0xA63 JUMPI PUSH1 0x0 DUP1 REVERT JUMPDEST POP JUMP JUMPDEST PUSH1 0x0 DUP2 MLOAD SWAP1 POP PUSH2 0xA75 DUP2 PUSH2 0xA4F JUMP JUMPDEST SWAP3 SWAP2 POP POP JUMP JUMPDEST PUSH1 0x0 PUSH1 0x20 DUP3 DUP5 SUB SLT ISZERO PUSH2 0xA91 JUMPI PUSH2 0xA90 PUSH2 0x71C JUMP JUMPDEST JUMPDEST PUSH1 0x0 PUSH2 0xA9F DUP5 DUP3 DUP6 ADD PUSH2 0xA66 JUMP JUMPDEST SWAP2 POP POP SWAP3 SWAP2 POP POP JUMP JUMPDEST PUSH1 0x0 PUSH1 0x60 DUP3 ADD SWAP1 POP PUSH2 0xABD PUSH1 0x0 DUP4 ADD DUP7 PUSH2 0x8A4 JUMP JUMPDEST PUSH2 0xACA PUSH1 0x20 DUP4 ADD DUP6 PUSH2 0x8A4 JUMP JUMPDEST PUSH2 0xAD7 PUSH1 0x40 DUP4 ADD DUP5 PUSH2 0x827 JUMP JUMPDEST SWAP5 SWAP4 POP POP POP POP JUMP JUMPDEST PUSH1 0x0 DUP3 DUP3 MSTORE PUSH1 0x20 DUP3 ADD SWAP1 POP SWAP3 SWAP2 POP POP JUMP JUMPDEST PUSH32 0x6D746F6B656E207472616E73666572206572726F722100000000000000000000 PUSH1 0x0 DUP3 ADD MSTORE POP JUMP JUMPDEST PUSH1 0x0 PUSH2 0xB26 PUSH1 0x16 DUP4 PUSH2 0xADF JUMP JUMPDEST SWAP2 POP PUSH2 0xB31 DUP3 PUSH2 0xAF0 JUMP JUMPDEST PUSH1 0x20 DUP3 ADD SWAP1 POP SWAP2 SWAP1 POP JUMP JUMPDEST PUSH1 0x0 PUSH1 0x20 DUP3 ADD SWAP1 POP DUP2 DUP2 SUB PUSH1 0x0 DUP4 ADD MSTORE PUSH2 0xB55 DUP2 PUSH2 0xB19 JUMP JUMPDEST SWAP1 POP SWAP2 SWAP1 POP JUMP JUMPDEST PUSH1 0x0 DUP2 SWAP1 POP SWAP2 SWAP1 POP JUMP JUMPDEST PUSH1 0x0 DUP2 SWAP1 POP SWAP2 SWAP1 POP JUMP JUMPDEST PUSH1 0x0 PUSH2 0xB8B PUSH2 0xB86 PUSH2 0xB81 DUP5 PUSH2 0xB5C JUMP JUMPDEST PUSH2 0xB66 JUMP JUMPDEST PUSH2 0x726 JUMP JUMPDEST SWAP1 POP SWAP2 SWAP1 POP JUMP JUMPDEST PUSH2 0xB9B DUP2 PUSH2 0xB70 JUMP JUMPDEST DUP3 MSTORE POP POP JUMP JUMPDEST PUSH1 0x0 PUSH1 0xC0 DUP3 ADD SWAP1 POP PUSH2 0xBB6 PUSH1 0x0 DUP4 ADD DUP10 PUSH2 0x8A4 JUMP JUMPDEST PUSH2 0xBC3 PUSH1 0x20 DUP4 ADD DUP9 PUSH2 0x827 JUMP JUMPDEST PUSH2 0xBD0 PUSH1 0x40 DUP4 ADD DUP8 PUSH2 0xB92 JUMP JUMPDEST PUSH2 0xBDD PUSH1 0x60 DUP4 ADD DUP7 PUSH2 0xB92 JUMP JUMPDEST PUSH2 0xBEA PUSH1 0x80 DUP4 ADD DUP6 PUSH2 0x8A4 JUMP JUMPDEST PUSH2 0xBF7 PUSH1 0xA0 DUP4 ADD DUP5 PUSH2 0x827 JUMP JUMPDEST SWAP8 SWAP7 POP POP POP POP POP POP POP JUMP JUMPDEST PUSH1 0x0 DUP1 PUSH1 0x0 PUSH1 0x60 DUP5 DUP7 SUB SLT ISZERO PUSH2 0xC1B JUMPI PUSH2 0xC1A PUSH2 0x71C JUMP JUMPDEST JUMPDEST PUSH1 0x0 PUSH2 0xC29 DUP7 DUP3 DUP8 ADD PUSH2 0x95F JUMP JUMPDEST SWAP4 POP POP PUSH1 0x20 PUSH2 0xC3A DUP7 DUP3 DUP8 ADD PUSH2 0x95F JUMP JUMPDEST SWAP3 POP POP PUSH1 0x40 PUSH2 0xC4B DUP7 DUP3 DUP8 ADD PUSH2 0x95F JUMP JUMPDEST SWAP2 POP POP SWAP3 POP SWAP3 POP SWAP3 JUMP JUMPDEST PUSH32 0x4E487B7100000000000000000000000000000000000000000000000000000000 PUSH1 0x0 MSTORE PUSH1 0x32 PUSH1 0x4 MSTORE PUSH1 0x24 PUSH1 0x0 REVERT JUMPDEST PUSH1 0x0 DUP2 MLOAD SWAP1 POP SWAP2 SWAP1 POP JUMP JUMPDEST PUSH1 0x0 DUP3 DUP3 MSTORE PUSH1 0x20 DUP3 ADD SWAP1 POP SWAP3 SWAP2 POP POP JUMP JUMPDEST PUSH1 0x0 DUP2 SWAP1 POP PUSH1 0x20 DUP3 ADD SWAP1 POP SWAP2 SWAP1 POP JUMP JUMPDEST PUSH2 0xCB9 DUP2 PUSH2 0x77C JUMP JUMPDEST DUP3 MSTORE POP POP JUMP JUMPDEST PUSH1 0x0 PUSH2 0xCCB DUP4 DUP4 PUSH2 0xCB0 JUMP JUMPDEST PUSH1 0x20 DUP4 ADD SWAP1 POP SWAP3 SWAP2 POP POP JUMP JUMPDEST PUSH1 0x0 PUSH1 0x20 DUP3 ADD SWAP1 POP SWAP2 SWAP1 POP JUMP JUMPDEST PUSH1 0x0 PUSH2 0xCEF DUP3 PUSH2 0xC84 JUMP JUMPDEST PUSH2 0xCF9 DUP2 DUP6 PUSH2 0xC8F JUMP JUMPDEST SWAP4 POP PUSH2 0xD04 DUP4 PUSH2 0xCA0 JUMP JUMPDEST DUP1 PUSH1 0x0 JUMPDEST DUP4 DUP2 LT ISZERO PUSH2 0xD35 JUMPI DUP2 MLOAD PUSH2 0xD1C DUP9 DUP3 PUSH2 0xCBF JUMP JUMPDEST SWAP8 POP PUSH2 0xD27 DUP4 PUSH2 0xCD7 JUMP JUMPDEST SWAP3 POP POP PUSH1 0x1 DUP2 ADD SWAP1 POP PUSH2 0xD08 JUMP JUMPDEST POP DUP6 SWAP4 POP POP POP POP SWAP3 SWAP2 POP POP JUMP JUMPDEST PUSH1 0x0 PUSH1 0x80 DUP3 ADD SWAP1 POP PUSH2 0xD57 PUSH1 0x0 DUP4 ADD DUP8 PUSH2 0x827 JUMP JUMPDEST DUP2 DUP2 SUB PUSH1 0x20 DUP4 ADD MSTORE PUSH2 0xD69 DUP2 DUP7 PUSH2 0xCE4 JUMP JUMPDEST SWAP1 POP PUSH2 0xD78 PUSH1 0x40 DUP4 ADD DUP6 PUSH2 0x8A4 JUMP JUMPDEST PUSH2 0xD85 PUSH1 0x60 DUP4 ADD DUP5 PUSH2 0x827 JUMP JUMPDEST SWAP6 SWAP5 POP POP POP POP POP JUMP JUMPDEST PUSH1 0x0 DUP1 REVERT JUMPDEST PUSH1 0x0 PUSH8 0xFFFFFFFFFFFFFFFF DUP3 GT ISZERO PUSH2 0xDAE JUMPI PUSH2 0xDAD PUSH2 0x8E4 JUMP JUMPDEST JUMPDEST PUSH1 0x20 DUP3 MUL SWAP1 POP PUSH1 0x20 DUP2 ADD SWAP1 POP SWAP2 SWAP1 POP JUMP JUMPDEST PUSH1 0x0 DUP1 REVERT JUMPDEST PUSH1 0x0 PUSH2 0xDD7 PUSH2 0xDD2 DUP5 PUSH2 0xD93 JUMP JUMPDEST PUSH2 0x944 JUMP JUMPDEST SWAP1 POP DUP1 DUP4 DUP3 MSTORE PUSH1 0x20 DUP3 ADD SWAP1 POP PUSH1 0x20 DUP5 MUL DUP4 ADD DUP6 DUP2 GT ISZERO PUSH2 0xDFA JUMPI PUSH2 0xDF9 PUSH2 0xDBF JUMP JUMPDEST JUMPDEST DUP4 JUMPDEST DUP2 DUP2 LT ISZERO PUSH2 0xE23 JUMPI DUP1 PUSH2 0xE0F DUP9 DUP3 PUSH2 0x95F JUMP JUMPDEST DUP5 MSTORE PUSH1 0x20 DUP5 ADD SWAP4 POP POP PUSH1 0x20 DUP2 ADD SWAP1 POP PUSH2 0xDFC JUMP JUMPDEST POP POP POP SWAP4 SWAP3 POP POP POP JUMP JUMPDEST PUSH1 0x0 DUP3 PUSH1 0x1F DUP4 ADD SLT PUSH2 0xE42 JUMPI PUSH2 0xE41 PUSH2 0xD8E JUMP JUMPDEST JUMPDEST DUP2 MLOAD PUSH2 0xE52 DUP5 DUP3 PUSH1 0x20 DUP7 ADD PUSH2 0xDC4 JUMP JUMPDEST SWAP2 POP POP SWAP3 SWAP2 POP POP JUMP JUMPDEST PUSH1 0x0 PUSH1 0x20 DUP3 DUP5 SUB SLT ISZERO PUSH2 0xE71 JUMPI PUSH2 0xE70 PUSH2 0x71C JUMP JUMPDEST JUMPDEST PUSH1 0x0 DUP3 ADD MLOAD PUSH8 0xFFFFFFFFFFFFFFFF DUP2 GT ISZERO PUSH2 0xE8F JUMPI PUSH2 0xE8E PUSH2 0x721 JUMP JUMPDEST JUMPDEST PUSH2 0xE9B DUP5 DUP3 DUP6 ADD PUSH2 0xE2D JUMP JUMPDEST SWAP2 POP POP SWAP3 SWAP2 POP POP JUMP INVALID LOG2 PUSH5 0x6970667358 0x22 SLT KECCAK256 0xE3 REVERT 0x1F SGT 0x28 0xE9 CALLDATALOAD LOG3 0xDA PUSH6 0x24447E446A3A 0x49 0xDD 0xCA 0xB3 DUP7 0x22 CALLVALUE GAS 0xB5 0xF6 AND 0xD9 CODECOPY STATICCALL LOG1 LOG4 PUSH5 0x736F6C6343 STOP ADDMOD 0xD STOP CALLER "
				},
				"gasEstimates": {
					"creation": {
						"codeDepositCost": "760400",
						"executionCost": "201333",
						"totalCost": "961733"
					},
					"external": {
						"addLiquidity(uint256)": "infinite",
						"buyExactTokenByETH(uint256)": "infinite",
						"depositToMasterChef(address,uint256,uint256)": "infinite",
						"withdraw(uint256,address)": "infinite"
					}
				},
				"methodIdentifiers": {
					"addLiquidity(uint256)": "51c6590a",
					"buyExactTokenByETH(uint256)": "a93f74e0",
					"depositToMasterChef(address,uint256,uint256)": "fc55d2bf",
					"withdraw(uint256,address)": "00f714ce"
				}
			},
			"userdoc": {
				"kind": "user",
				"methods": {},
				"version": 1
			}
		}
	}
}