{
	"Code-hardhat-ethersJs/contracts/MyTokenMarket.sol": {
		"MyTokenMarket": {
			"abi": [
				{
					"inputs": [],
					"stateMutability": "nonpayable",
					"type": "constructor"
				},
				{
					"inputs": [
						{
							"internalType": "uint256",
							"name": "amountMyTokenDesired",
							"type": "uint256"
						},
						{
							"internalType": "uint256",
							"name": "amountMyTokenMin",
							"type": "uint256"
						},
						{
							"internalType": "uint256",
							"name": "amountETHMin",
							"type": "uint256"
						}
					],
					"name": "addLiquidity",
					"outputs": [],
					"stateMutability": "payable",
					"type": "function"
				},
				{
					"inputs": [
						{
							"internalType": "uint256",
							"name": "amountOutMin",
							"type": "uint256"
						}
					],
					"name": "buyExactTokenByETH",
					"outputs": [],
					"stateMutability": "payable",
					"type": "function"
				},
				{
					"inputs": [
						{
							"internalType": "address",
							"name": "lpAddress",
							"type": "address"
						},
						{
							"internalType": "uint256",
							"name": "pid",
							"type": "uint256"
						},
						{
							"internalType": "uint256",
							"name": "amount",
							"type": "uint256"
						}
					],
					"name": "depositToMasterChef",
					"outputs": [],
					"stateMutability": "nonpayable",
					"type": "function"
				},
				{
					"inputs": [
						{
							"internalType": "uint256",
							"name": "pid",
							"type": "uint256"
						}
					],
					"name": "withdraw",
					"outputs": [],
					"stateMutability": "nonpayable",
					"type": "function"
				}
			],
			"devdoc": {
				"kind": "dev",
				"methods": {},
				"version": 1
			},
			"evm": {
				"assembly": "    /* \"Code-hardhat-ethersJs/contracts/MyTokenMarket.sol\":264:2520  contract MyTokenMarket{... */\n  mstore(0x40, 0x80)\n    /* \"Code-hardhat-ethersJs/contracts/MyTokenMarket.sol\":537:579  0x7a250d5630B4cF539739dF2C5dAcb4c659F2488D */\n  0x7a250d5630b4cf539739df2c5dacb4c659f2488d\n    /* \"Code-hardhat-ethersJs/contracts/MyTokenMarket.sol\":516:579  address uv2address = 0x7a250d5630B4cF539739dF2C5dAcb4c659F2488D */\n  0x00\n  dup1\n  0x0100\n  exp\n  dup2\n  sload\n  dup2\n  0xffffffffffffffffffffffffffffffffffffffff\n  mul\n  not\n  and\n  swap1\n  dup4\n  0xffffffffffffffffffffffffffffffffffffffff\n  and\n  mul\n  or\n  swap1\n  sstore\n  pop\n    /* \"Code-hardhat-ethersJs/contracts/MyTokenMarket.sol\":607:649  0xc778417E063141139Fce010982780140Aa0cD5Ab */\n  0xc778417e063141139fce010982780140aa0cd5ab\n    /* \"Code-hardhat-ethersJs/contracts/MyTokenMarket.sol\":585:649  address wethaddress = 0xc778417E063141139Fce010982780140Aa0cD5Ab */\n  0x01\n  exp(0x0100, 0x00)\n  dup2\n  sload\n  dup2\n  0xffffffffffffffffffffffffffffffffffffffff\n  mul\n  not\n  and\n  swap1\n  dup4\n  0xffffffffffffffffffffffffffffffffffffffff\n  and\n  mul\n  or\n  swap1\n  sstore\n  pop\n    /* \"Code-hardhat-ethersJs/contracts/MyTokenMarket.sol\":680:722  0x549F978C19a5AC86D906052639E317B57724ef44 */\n  0x549f978c19a5ac86d906052639e317b57724ef44\n    /* \"Code-hardhat-ethersJs/contracts/MyTokenMarket.sol\":655:722  address mytokenaddress = 0x549F978C19a5AC86D906052639E317B57724ef44 */\n  0x02\n  exp(0x0100, 0x00)\n  dup2\n  sload\n  dup2\n  0xffffffffffffffffffffffffffffffffffffffff\n  mul\n  not\n  and\n  swap1\n  dup4\n  0xffffffffffffffffffffffffffffffffffffffff\n  and\n  mul\n  or\n  swap1\n  sstore\n  pop\n    /* \"Code-hardhat-ethersJs/contracts/MyTokenMarket.sol\":751:793  0xf42A08C0EA66ee4A474336087A6C17E9EA6c9dE9 */\n  0xf42a08c0ea66ee4a474336087a6c17e9ea6c9de9\n    /* \"Code-hardhat-ethersJs/contracts/MyTokenMarket.sol\":728:793  address sushiaddress = 0xf42A08C0EA66ee4A474336087A6C17E9EA6c9dE9 */\n  0x03\n  exp(0x0100, 0x00)\n  dup2\n  sload\n  dup2\n  0xffffffffffffffffffffffffffffffffffffffff\n  mul\n  not\n  and\n  swap1\n  dup4\n  0xffffffffffffffffffffffffffffffffffffffff\n  and\n  mul\n  or\n  swap1\n  sstore\n  pop\n    /* \"Code-hardhat-ethersJs/contracts/MyTokenMarket.sol\":827:869  0xd9DFA8c6b37cfDF16668fE0465896f4A1B9b2c4F */\n  0xd9dfa8c6b37cfdf16668fe0465896f4a1b9b2c4f\n    /* \"Code-hardhat-ethersJs/contracts/MyTokenMarket.sol\":799:869  address masterchefaddress = 0xd9DFA8c6b37cfDF16668fE0465896f4A1B9b2c4F */\n  0x04\n  exp(0x0100, 0x00)\n  dup2\n  sload\n  dup2\n  0xffffffffffffffffffffffffffffffffffffffff\n  mul\n  not\n  and\n  swap1\n  dup4\n  0xffffffffffffffffffffffffffffffffffffffff\n  and\n  mul\n  or\n  swap1\n  sstore\n  pop\n    /* \"Code-hardhat-ethersJs/contracts/MyTokenMarket.sol\":925:935  uv2address */\n  0x00\n  dup1\n  sload\n  swap1\n  0x0100\n  exp\n  swap1\n  div\n  0xffffffffffffffffffffffffffffffffffffffff\n  and\n    /* \"Code-hardhat-ethersJs/contracts/MyTokenMarket.sol\":875:936  IUniswapV2Router02 uv2router = IUniswapV2Router02(uv2address) */\n  0x05\n  exp(0x0100, 0x00)\n  dup2\n  sload\n  dup2\n  0xffffffffffffffffffffffffffffffffffffffff\n  mul\n  not\n  and\n  swap1\n  dup4\n  0xffffffffffffffffffffffffffffffffffffffff\n  and\n  mul\n  or\n  swap1\n  sstore\n  pop\n    /* \"Code-hardhat-ethersJs/contracts/MyTokenMarket.sol\":965:979  mytokenaddress */\n  0x02\n  0x00\n  swap1\n  sload\n  swap1\n  0x0100\n  exp\n  swap1\n  div\n  0xffffffffffffffffffffffffffffffffffffffff\n  and\n    /* \"Code-hardhat-ethersJs/contracts/MyTokenMarket.sol\":942:980  IERC20 mtoken = IERC20(mytokenaddress) */\n  0x06\n  exp(0x0100, 0x00)\n  dup2\n  sload\n  dup2\n  0xffffffffffffffffffffffffffffffffffffffff\n  mul\n  not\n  and\n  swap1\n  dup4\n  0xffffffffffffffffffffffffffffffffffffffff\n  and\n  mul\n  or\n  swap1\n  sstore\n  pop\n    /* \"Code-hardhat-ethersJs/contracts/MyTokenMarket.sol\":1023:1040  masterchefaddress */\n  0x04\n  0x00\n  swap1\n  sload\n  swap1\n  0x0100\n  exp\n  swap1\n  div\n  0xffffffffffffffffffffffffffffffffffffffff\n  and\n    /* \"Code-hardhat-ethersJs/contracts/MyTokenMarket.sol\":986:1041  IMasterChef masterChef = IMasterChef(masterchefaddress) */\n  0x07\n  exp(0x0100, 0x00)\n  dup2\n  sload\n  dup2\n  0xffffffffffffffffffffffffffffffffffffffff\n  mul\n  not\n  and\n  swap1\n  dup4\n  0xffffffffffffffffffffffffffffffffffffffff\n  and\n  mul\n  or\n  swap1\n  sstore\n  pop\n    /* \"Code-hardhat-ethersJs/contracts/MyTokenMarket.sol\":1047:1067  constructor(){... */\n  callvalue\n  dup1\n  iszero\n  tag_1\n  jumpi\n  0x00\n  dup1\n  revert\ntag_1:\n  pop\n    /* \"Code-hardhat-ethersJs/contracts/MyTokenMarket.sol\":264:2520  contract MyTokenMarket{... */\n  dataSize(sub_0)\n  dup1\n  dataOffset(sub_0)\n  0x00\n  codecopy\n  0x00\n  return\nstop\n\nsub_0: assembly {\n        /* \"Code-hardhat-ethersJs/contracts/MyTokenMarket.sol\":264:2520  contract MyTokenMarket{... */\n      mstore(0x40, 0x80)\n      jumpi(tag_1, lt(calldatasize, 0x04))\n      shr(0xe0, calldataload(0x00))\n      dup1\n      0x2e1a7d4d\n      eq\n      tag_2\n      jumpi\n      dup1\n      0x422f1043\n      eq\n      tag_3\n      jumpi\n      dup1\n      0xa93f74e0\n      eq\n      tag_4\n      jumpi\n      dup1\n      0xfc55d2bf\n      eq\n      tag_5\n      jumpi\n    tag_1:\n      0x00\n      dup1\n      revert\n        /* \"Code-hardhat-ethersJs/contracts/MyTokenMarket.sol\":2343:2516  function withdraw(uint256 pid)public{... */\n    tag_2:\n      callvalue\n      dup1\n      iszero\n      tag_6\n      jumpi\n      0x00\n      dup1\n      revert\n    tag_6:\n      pop\n      tag_7\n      0x04\n      dup1\n      calldatasize\n      sub\n      dup2\n      add\n      swap1\n      tag_8\n      swap2\n      swap1\n      tag_9\n      jump\t// in\n    tag_8:\n      tag_10\n      jump\t// in\n    tag_7:\n      stop\n        /* \"Code-hardhat-ethersJs/contracts/MyTokenMarket.sol\":1074:1741  function addLiquidity(... */\n    tag_3:\n      tag_11\n      0x04\n      dup1\n      calldatasize\n      sub\n      dup2\n      add\n      swap1\n      tag_12\n      swap2\n      swap1\n      tag_13\n      jump\t// in\n    tag_12:\n      tag_14\n      jump\t// in\n    tag_11:\n      stop\n        /* \"Code-hardhat-ethersJs/contracts/MyTokenMarket.sol\":1982:2306  function buyExactTokenByETH(uint amountOutMin)public payable{... */\n    tag_4:\n      tag_15\n      0x04\n      dup1\n      calldatasize\n      sub\n      dup2\n      add\n      swap1\n      tag_16\n      swap2\n      swap1\n      tag_9\n      jump\t// in\n    tag_16:\n      tag_17\n      jump\t// in\n    tag_15:\n      stop\n        /* \"Code-hardhat-ethersJs/contracts/MyTokenMarket.sol\":1747:1975  function depositToMasterChef(address lpAddress,uint256 pid, uint256 amount)public{... */\n    tag_5:\n      callvalue\n      dup1\n      iszero\n      tag_18\n      jumpi\n      0x00\n      dup1\n      revert\n    tag_18:\n      pop\n      tag_19\n      0x04\n      dup1\n      calldatasize\n      sub\n      dup2\n      add\n      swap1\n      tag_20\n      swap2\n      swap1\n      tag_21\n      jump\t// in\n    tag_20:\n      tag_22\n      jump\t// in\n    tag_19:\n      stop\n        /* \"Code-hardhat-ethersJs/contracts/MyTokenMarket.sol\":2343:2516  function withdraw(uint256 pid)public{... */\n    tag_10:\n        /* \"Code-hardhat-ethersJs/contracts/MyTokenMarket.sol\":2389:2425  IMasterChef.UserInfo memory userInfo */\n      0x00\n        /* \"Code-hardhat-ethersJs/contracts/MyTokenMarket.sol\":2428:2438  masterChef */\n      0x07\n      0x00\n      swap1\n      sload\n      swap1\n      0x0100\n      exp\n      swap1\n      div\n      0xffffffffffffffffffffffffffffffffffffffff\n      and\n        /* \"Code-hardhat-ethersJs/contracts/MyTokenMarket.sol\":2428:2447  masterChef.userInfo */\n      0xffffffffffffffffffffffffffffffffffffffff\n      and\n      0x1959a002\n        /* \"Code-hardhat-ethersJs/contracts/MyTokenMarket.sol\":2448:2458  msg.sender */\n      caller\n        /* \"Code-hardhat-ethersJs/contracts/MyTokenMarket.sol\":2428:2459  masterChef.userInfo(msg.sender) */\n      mload(0x40)\n      dup3\n      0xffffffff\n      and\n      0xe0\n      shl\n      dup2\n      mstore\n      0x04\n      add\n      tag_24\n      swap2\n      swap1\n      tag_25\n      jump\t// in\n    tag_24:\n      0x40\n      dup1\n      mload\n      dup1\n      dup4\n      sub\n      dup2\n      dup7\n      gas\n      staticcall\n      iszero\n      dup1\n      iszero\n      tag_27\n      jumpi\n      returndatasize\n      0x00\n      dup1\n      returndatacopy\n      revert(0x00, returndatasize)\n    tag_27:\n      pop\n      pop\n      pop\n      pop\n      mload(0x40)\n      returndatasize\n      not(0x1f)\n      0x1f\n      dup3\n      add\n      and\n      dup3\n      add\n      dup1\n      0x40\n      mstore\n      pop\n      dup2\n      add\n      swap1\n      tag_28\n      swap2\n      swap1\n      tag_29\n      jump\t// in\n    tag_28:\n        /* \"Code-hardhat-ethersJs/contracts/MyTokenMarket.sol\":2389:2459  IMasterChef.UserInfo memory userInfo = masterChef.userInfo(msg.sender) */\n      swap1\n      pop\n        /* \"Code-hardhat-ethersJs/contracts/MyTokenMarket.sol\":2469:2479  masterChef */\n      0x07\n      0x00\n      swap1\n      sload\n      swap1\n      0x0100\n      exp\n      swap1\n      div\n      0xffffffffffffffffffffffffffffffffffffffff\n      and\n        /* \"Code-hardhat-ethersJs/contracts/MyTokenMarket.sol\":2469:2488  masterChef.withdraw */\n      0xffffffffffffffffffffffffffffffffffffffff\n      and\n      0x441a3e70\n        /* \"Code-hardhat-ethersJs/contracts/MyTokenMarket.sol\":2489:2492  pid */\n      dup4\n        /* \"Code-hardhat-ethersJs/contracts/MyTokenMarket.sol\":2493:2501  userInfo */\n      dup4\n        /* \"Code-hardhat-ethersJs/contracts/MyTokenMarket.sol\":2493:2508  userInfo.amount */\n      0x00\n      add\n      mload\n        /* \"Code-hardhat-ethersJs/contracts/MyTokenMarket.sol\":2469:2509  masterChef.withdraw(pid,userInfo.amount) */\n      mload(0x40)\n      dup4\n      0xffffffff\n      and\n      0xe0\n      shl\n      dup2\n      mstore\n      0x04\n      add\n      tag_30\n      swap3\n      swap2\n      swap1\n      tag_31\n      jump\t// in\n    tag_30:\n      0x00\n      mload(0x40)\n      dup1\n      dup4\n      sub\n      dup2\n      0x00\n      dup8\n      dup1\n      extcodesize\n      iszero\n      dup1\n      iszero\n      tag_32\n      jumpi\n      0x00\n      dup1\n      revert\n    tag_32:\n      pop\n      gas\n      call\n      iszero\n      dup1\n      iszero\n      tag_34\n      jumpi\n      returndatasize\n      0x00\n      dup1\n      returndatacopy\n      revert(0x00, returndatasize)\n    tag_34:\n      pop\n      pop\n      pop\n      pop\n        /* \"Code-hardhat-ethersJs/contracts/MyTokenMarket.sol\":2379:2516  {... */\n      pop\n        /* \"Code-hardhat-ethersJs/contracts/MyTokenMarket.sol\":2343:2516  function withdraw(uint256 pid)public{... */\n      pop\n      jump\t// out\n        /* \"Code-hardhat-ethersJs/contracts/MyTokenMarket.sol\":1074:1741  function addLiquidity(... */\n    tag_14:\n        /* \"Code-hardhat-ethersJs/contracts/MyTokenMarket.sol\":1260:1266  mtoken */\n      0x06\n      0x00\n      swap1\n      sload\n      swap1\n      0x0100\n      exp\n      swap1\n      div\n      0xffffffffffffffffffffffffffffffffffffffff\n      and\n        /* \"Code-hardhat-ethersJs/contracts/MyTokenMarket.sol\":1260:1274  mtoken.approve */\n      0xffffffffffffffffffffffffffffffffffffffff\n      and\n      0x095ea7b3\n        /* \"Code-hardhat-ethersJs/contracts/MyTokenMarket.sol\":1283:1292  uv2router */\n      0x05\n      0x00\n      swap1\n      sload\n      swap1\n      0x0100\n      exp\n      swap1\n      div\n      0xffffffffffffffffffffffffffffffffffffffff\n      and\n        /* \"Code-hardhat-ethersJs/contracts/MyTokenMarket.sol\":1295:1315  amountMyTokenDesired */\n      dup6\n        /* \"Code-hardhat-ethersJs/contracts/MyTokenMarket.sol\":1260:1316  mtoken.approve(address(uv2router), amountMyTokenDesired) */\n      mload(0x40)\n      dup4\n      0xffffffff\n      and\n      0xe0\n      shl\n      dup2\n      mstore\n      0x04\n      add\n      tag_36\n      swap3\n      swap2\n      swap1\n      tag_37\n      jump\t// in\n    tag_36:\n      0x20\n      mload(0x40)\n      dup1\n      dup4\n      sub\n      dup2\n      0x00\n      dup8\n      gas\n      call\n      iszero\n      dup1\n      iszero\n      tag_39\n      jumpi\n      returndatasize\n      0x00\n      dup1\n      returndatacopy\n      revert(0x00, returndatasize)\n    tag_39:\n      pop\n      pop\n      pop\n      pop\n      mload(0x40)\n      returndatasize\n      not(0x1f)\n      0x1f\n      dup3\n      add\n      and\n      dup3\n      add\n      dup1\n      0x40\n      mstore\n      pop\n      dup2\n      add\n      swap1\n      tag_40\n      swap2\n      swap1\n      tag_41\n      jump\t// in\n    tag_40:\n      pop\n        /* \"Code-hardhat-ethersJs/contracts/MyTokenMarket.sol\":1326:1338  bool success */\n      0x00\n        /* \"Code-hardhat-ethersJs/contracts/MyTokenMarket.sol\":1341:1347  mtoken */\n      0x06\n      0x00\n      swap1\n      sload\n      swap1\n      0x0100\n      exp\n      swap1\n      div\n      0xffffffffffffffffffffffffffffffffffffffff\n      and\n        /* \"Code-hardhat-ethersJs/contracts/MyTokenMarket.sol\":1341:1360  mtoken.transferFrom */\n      0xffffffffffffffffffffffffffffffffffffffff\n      and\n      0x23b872dd\n        /* \"Code-hardhat-ethersJs/contracts/MyTokenMarket.sol\":1361:1371  msg.sender */\n      caller\n        /* \"Code-hardhat-ethersJs/contracts/MyTokenMarket.sol\":1381:1385  this */\n      address\n        /* \"Code-hardhat-ethersJs/contracts/MyTokenMarket.sol\":1388:1408  amountMyTokenDesired */\n      dup8\n        /* \"Code-hardhat-ethersJs/contracts/MyTokenMarket.sol\":1341:1409  mtoken.transferFrom(msg.sender, address(this), amountMyTokenDesired) */\n      mload(0x40)\n      dup5\n      0xffffffff\n      and\n      0xe0\n      shl\n      dup2\n      mstore\n      0x04\n      add\n      tag_42\n      swap4\n      swap3\n      swap2\n      swap1\n      tag_43\n      jump\t// in\n    tag_42:\n      0x20\n      mload(0x40)\n      dup1\n      dup4\n      sub\n      dup2\n      0x00\n      dup8\n      gas\n      call\n      iszero\n      dup1\n      iszero\n      tag_45\n      jumpi\n      returndatasize\n      0x00\n      dup1\n      returndatacopy\n      revert(0x00, returndatasize)\n    tag_45:\n      pop\n      pop\n      pop\n      pop\n      mload(0x40)\n      returndatasize\n      not(0x1f)\n      0x1f\n      dup3\n      add\n      and\n      dup3\n      add\n      dup1\n      0x40\n      mstore\n      pop\n      dup2\n      add\n      swap1\n      tag_46\n      swap2\n      swap1\n      tag_41\n      jump\t// in\n    tag_46:\n        /* \"Code-hardhat-ethersJs/contracts/MyTokenMarket.sol\":1326:1409  bool success = mtoken.transferFrom(msg.sender, address(this), amountMyTokenDesired) */\n      swap1\n      pop\n        /* \"Code-hardhat-ethersJs/contracts/MyTokenMarket.sol\":1427:1434  success */\n      dup1\n        /* \"Code-hardhat-ethersJs/contracts/MyTokenMarket.sol\":1419:1461  require(success, \"mtoken transfer error!\") */\n      tag_47\n      jumpi\n      mload(0x40)\n      0x08c379a000000000000000000000000000000000000000000000000000000000\n      dup2\n      mstore\n      0x04\n      add\n      tag_48\n      swap1\n      tag_49\n      jump\t// in\n    tag_48:\n      mload(0x40)\n      dup1\n      swap2\n      sub\n      swap1\n      revert\n    tag_47:\n        /* \"Code-hardhat-ethersJs/contracts/MyTokenMarket.sol\":1491:1503  amountETHMin */\n      dup2\n        /* \"Code-hardhat-ethersJs/contracts/MyTokenMarket.sol\":1479:1488  msg.value */\n      callvalue\n        /* \"Code-hardhat-ethersJs/contracts/MyTokenMarket.sol\":1479:1503  msg.value > amountETHMin */\n      gt\n        /* \"Code-hardhat-ethersJs/contracts/MyTokenMarket.sol\":1471:1550  require(msg.value > amountETHMin, \"msg.value should biggger than amountETHMin\") */\n      tag_50\n      jumpi\n      mload(0x40)\n      0x08c379a000000000000000000000000000000000000000000000000000000000\n      dup2\n      mstore\n      0x04\n      add\n      tag_51\n      swap1\n      tag_52\n      jump\t// in\n    tag_51:\n      mload(0x40)\n      dup1\n      swap2\n      sub\n      swap1\n      revert\n    tag_50:\n        /* \"Code-hardhat-ethersJs/contracts/MyTokenMarket.sol\":1561:1577  uint amountToken */\n      0x00\n        /* \"Code-hardhat-ethersJs/contracts/MyTokenMarket.sol\":1583:1592  uv2router */\n      0x05\n      0x00\n      swap1\n      sload\n      swap1\n      0x0100\n      exp\n      swap1\n      div\n      0xffffffffffffffffffffffffffffffffffffffff\n      and\n        /* \"Code-hardhat-ethersJs/contracts/MyTokenMarket.sol\":1583:1608  uv2router.addLiquidityETH */\n      0xffffffffffffffffffffffffffffffffffffffff\n      and\n      0xf305d719\n        /* \"Code-hardhat-ethersJs/contracts/MyTokenMarket.sol\":1616:1625  msg.value */\n      callvalue\n        /* \"Code-hardhat-ethersJs/contracts/MyTokenMarket.sol\":1628:1642  mytokenaddress */\n      0x02\n      0x00\n      swap1\n      sload\n      swap1\n      0x0100\n      exp\n      swap1\n      div\n      0xffffffffffffffffffffffffffffffffffffffff\n      and\n        /* \"Code-hardhat-ethersJs/contracts/MyTokenMarket.sol\":1644:1664  amountMyTokenDesired */\n      dup9\n        /* \"Code-hardhat-ethersJs/contracts/MyTokenMarket.sol\":1666:1682  amountMyTokenMin */\n      dup9\n        /* \"Code-hardhat-ethersJs/contracts/MyTokenMarket.sol\":1684:1696  amountETHMin */\n      dup9\n        /* \"Code-hardhat-ethersJs/contracts/MyTokenMarket.sol\":1698:1708  msg.sender */\n      caller\n        /* \"Code-hardhat-ethersJs/contracts/MyTokenMarket.sol\":1709:1724  block.timestamp */\n      timestamp\n        /* \"Code-hardhat-ethersJs/contracts/MyTokenMarket.sol\":1583:1725  uv2router.addLiquidityETH{value: msg.value}( mytokenaddress, amountMyTokenDesired, amountMyTokenMin, amountETHMin, msg.sender,block.timestamp) */\n      mload(0x40)\n      dup9\n      0xffffffff\n      and\n      0xe0\n      shl\n      dup2\n      mstore\n      0x04\n      add\n      tag_53\n      swap7\n      swap6\n      swap5\n      swap4\n      swap3\n      swap2\n      swap1\n      tag_54\n      jump\t// in\n    tag_53:\n      0x60\n      mload(0x40)\n      dup1\n      dup4\n      sub\n      dup2\n      dup6\n      dup9\n      gas\n      call\n      iszero\n      dup1\n      iszero\n      tag_56\n      jumpi\n      returndatasize\n      0x00\n      dup1\n      returndatacopy\n      revert(0x00, returndatasize)\n    tag_56:\n      pop\n      pop\n      pop\n      pop\n      pop\n      mload(0x40)\n      returndatasize\n      not(0x1f)\n      0x1f\n      dup3\n      add\n      and\n      dup3\n      add\n      dup1\n      0x40\n      mstore\n      pop\n      dup2\n      add\n      swap1\n      tag_57\n      swap2\n      swap1\n      tag_58\n      jump\t// in\n    tag_57:\n        /* \"Code-hardhat-ethersJs/contracts/MyTokenMarket.sol\":1560:1725  (uint amountToken,,) = uv2router.addLiquidityETH{value: msg.value}( mytokenaddress, amountMyTokenDesired, amountMyTokenMin, amountETHMin, msg.sender,block.timestamp) */\n      pop\n      pop\n      swap1\n      pop\n        /* \"Code-hardhat-ethersJs/contracts/MyTokenMarket.sol\":1212:1741  {... */\n      pop\n      pop\n        /* \"Code-hardhat-ethersJs/contracts/MyTokenMarket.sol\":1074:1741  function addLiquidity(... */\n      pop\n      pop\n      pop\n      jump\t// out\n        /* \"Code-hardhat-ethersJs/contracts/MyTokenMarket.sol\":1982:2306  function buyExactTokenByETH(uint amountOutMin)public payable{... */\n    tag_17:\n        /* \"Code-hardhat-ethersJs/contracts/MyTokenMarket.sol\":2056:2077  address[] memory path */\n      0x00\n        /* \"Code-hardhat-ethersJs/contracts/MyTokenMarket.sol\":2094:2095  2 */\n      0x02\n        /* \"Code-hardhat-ethersJs/contracts/MyTokenMarket.sol\":2080:2096  new address[](2) */\n      0xffffffffffffffff\n      dup2\n      gt\n      iszero\n      tag_60\n      jumpi\n      tag_61\n      tag_62\n      jump\t// in\n    tag_61:\n    tag_60:\n      mload(0x40)\n      swap1\n      dup1\n      dup3\n      mstore\n      dup1\n      0x20\n      mul\n      0x20\n      add\n      dup3\n      add\n      0x40\n      mstore\n      dup1\n      iszero\n      tag_63\n      jumpi\n      dup2\n      0x20\n      add\n      0x20\n      dup3\n      mul\n      dup1\n      calldatasize\n      dup4\n      calldatacopy\n      dup1\n      dup3\n      add\n      swap2\n      pop\n      pop\n      swap1\n      pop\n    tag_63:\n      pop\n        /* \"Code-hardhat-ethersJs/contracts/MyTokenMarket.sol\":2056:2096  address[] memory path = new address[](2) */\n      swap1\n      pop\n        /* \"Code-hardhat-ethersJs/contracts/MyTokenMarket.sol\":2128:2139  wethaddress */\n      0x01\n      0x00\n      swap1\n      sload\n      swap1\n      0x0100\n      exp\n      swap1\n      div\n      0xffffffffffffffffffffffffffffffffffffffff\n      and\n        /* \"Code-hardhat-ethersJs/contracts/MyTokenMarket.sol\":2110:2114  path */\n      dup2\n        /* \"Code-hardhat-ethersJs/contracts/MyTokenMarket.sol\":2115:2116  0 */\n      0x00\n        /* \"Code-hardhat-ethersJs/contracts/MyTokenMarket.sol\":2110:2117  path[0] */\n      dup2\n      mload\n      dup2\n      lt\n      tag_64\n      jumpi\n      tag_65\n      tag_66\n      jump\t// in\n    tag_65:\n    tag_64:\n      0x20\n      mul\n      0x20\n      add\n      add\n        /* \"Code-hardhat-ethersJs/contracts/MyTokenMarket.sol\":2110:2140  path[0] = address(wethaddress) */\n      swap1\n      0xffffffffffffffffffffffffffffffffffffffff\n      and\n      swap1\n      dup2\n      0xffffffffffffffffffffffffffffffffffffffff\n      and\n      dup2\n      mstore\n      pop\n      pop\n        /* \"Code-hardhat-ethersJs/contracts/MyTokenMarket.sol\":2172:2186  mytokenaddress */\n      0x02\n      0x00\n      swap1\n      sload\n      swap1\n      0x0100\n      exp\n      swap1\n      div\n      0xffffffffffffffffffffffffffffffffffffffff\n      and\n        /* \"Code-hardhat-ethersJs/contracts/MyTokenMarket.sol\":2154:2158  path */\n      dup2\n        /* \"Code-hardhat-ethersJs/contracts/MyTokenMarket.sol\":2159:2160  1 */\n      0x01\n        /* \"Code-hardhat-ethersJs/contracts/MyTokenMarket.sol\":2154:2161  path[1] */\n      dup2\n      mload\n      dup2\n      lt\n      tag_67\n      jumpi\n      tag_68\n      tag_66\n      jump\t// in\n    tag_68:\n    tag_67:\n      0x20\n      mul\n      0x20\n      add\n      add\n        /* \"Code-hardhat-ethersJs/contracts/MyTokenMarket.sol\":2154:2187  path[1] = address(mytokenaddress) */\n      swap1\n      0xffffffffffffffffffffffffffffffffffffffff\n      and\n      swap1\n      dup2\n      0xffffffffffffffffffffffffffffffffffffffff\n      and\n      dup2\n      mstore\n      pop\n      pop\n        /* \"Code-hardhat-ethersJs/contracts/MyTokenMarket.sol\":2201:2210  uv2router */\n      0x05\n      0x00\n      swap1\n      sload\n      swap1\n      0x0100\n      exp\n      swap1\n      div\n      0xffffffffffffffffffffffffffffffffffffffff\n      and\n        /* \"Code-hardhat-ethersJs/contracts/MyTokenMarket.sol\":2201:2232  uv2router.swapExactETHForTokens */\n      0xffffffffffffffffffffffffffffffffffffffff\n      and\n      0x7ff36ab5\n        /* \"Code-hardhat-ethersJs/contracts/MyTokenMarket.sol\":2240:2249  msg.value */\n      callvalue\n        /* \"Code-hardhat-ethersJs/contracts/MyTokenMarket.sol\":2251:2263  amountOutMin */\n      dup5\n        /* \"Code-hardhat-ethersJs/contracts/MyTokenMarket.sol\":2265:2269  path */\n      dup5\n        /* \"Code-hardhat-ethersJs/contracts/MyTokenMarket.sol\":2271:2281  msg.sender */\n      caller\n        /* \"Code-hardhat-ethersJs/contracts/MyTokenMarket.sol\":2283:2298  block.timestamp */\n      timestamp\n        /* \"Code-hardhat-ethersJs/contracts/MyTokenMarket.sol\":2201:2299  uv2router.swapExactETHForTokens{value: msg.value}(amountOutMin, path, msg.sender, block.timestamp) */\n      mload(0x40)\n      dup7\n      0xffffffff\n      and\n      0xe0\n      shl\n      dup2\n      mstore\n      0x04\n      add\n      tag_69\n      swap5\n      swap4\n      swap3\n      swap2\n      swap1\n      tag_70\n      jump\t// in\n    tag_69:\n      0x00\n      mload(0x40)\n      dup1\n      dup4\n      sub\n      dup2\n      dup6\n      dup9\n      gas\n      call\n      iszero\n      dup1\n      iszero\n      tag_72\n      jumpi\n      returndatasize\n      0x00\n      dup1\n      returndatacopy\n      revert(0x00, returndatasize)\n    tag_72:\n      pop\n      pop\n      pop\n      pop\n      pop\n      mload(0x40)\n      returndatasize\n      0x00\n      dup3\n      returndatacopy\n      returndatasize\n      not(0x1f)\n      0x1f\n      dup3\n      add\n      and\n      dup3\n      add\n      dup1\n      0x40\n      mstore\n      pop\n      dup2\n      add\n      swap1\n      tag_73\n      swap2\n      swap1\n      tag_74\n      jump\t// in\n    tag_73:\n      pop\n        /* \"Code-hardhat-ethersJs/contracts/MyTokenMarket.sol\":2042:2306  {... */\n      pop\n        /* \"Code-hardhat-ethersJs/contracts/MyTokenMarket.sol\":1982:2306  function buyExactTokenByETH(uint amountOutMin)public payable{... */\n      pop\n      jump\t// out\n        /* \"Code-hardhat-ethersJs/contracts/MyTokenMarket.sol\":1747:1975  function depositToMasterChef(address lpAddress,uint256 pid, uint256 amount)public{... */\n    tag_22:\n        /* \"Code-hardhat-ethersJs/contracts/MyTokenMarket.sol\":1883:1892  lpAddress */\n      dup3\n        /* \"Code-hardhat-ethersJs/contracts/MyTokenMarket.sol\":1876:1901  IERC20(lpAddress).approve */\n      0xffffffffffffffffffffffffffffffffffffffff\n      and\n      0x095ea7b3\n        /* \"Code-hardhat-ethersJs/contracts/MyTokenMarket.sol\":1902:1919  masterchefaddress */\n      0x04\n      0x00\n      swap1\n      sload\n      swap1\n      0x0100\n      exp\n      swap1\n      div\n      0xffffffffffffffffffffffffffffffffffffffff\n      and\n        /* \"Code-hardhat-ethersJs/contracts/MyTokenMarket.sol\":1921:1927  amount */\n      dup4\n        /* \"Code-hardhat-ethersJs/contracts/MyTokenMarket.sol\":1876:1928  IERC20(lpAddress).approve(masterchefaddress, amount) */\n      mload(0x40)\n      dup4\n      0xffffffff\n      and\n      0xe0\n      shl\n      dup2\n      mstore\n      0x04\n      add\n      tag_76\n      swap3\n      swap2\n      swap1\n      tag_37\n      jump\t// in\n    tag_76:\n      0x20\n      mload(0x40)\n      dup1\n      dup4\n      sub\n      dup2\n      0x00\n      dup8\n      gas\n      call\n      iszero\n      dup1\n      iszero\n      tag_78\n      jumpi\n      returndatasize\n      0x00\n      dup1\n      returndatacopy\n      revert(0x00, returndatasize)\n    tag_78:\n      pop\n      pop\n      pop\n      pop\n      mload(0x40)\n      returndatasize\n      not(0x1f)\n      0x1f\n      dup3\n      add\n      and\n      dup3\n      add\n      dup1\n      0x40\n      mstore\n      pop\n      dup2\n      add\n      swap1\n      tag_79\n      swap2\n      swap1\n      tag_41\n      jump\t// in\n    tag_79:\n      pop\n        /* \"Code-hardhat-ethersJs/contracts/MyTokenMarket.sol\":1938:1948  masterChef */\n      0x07\n      0x00\n      swap1\n      sload\n      swap1\n      0x0100\n      exp\n      swap1\n      div\n      0xffffffffffffffffffffffffffffffffffffffff\n      and\n        /* \"Code-hardhat-ethersJs/contracts/MyTokenMarket.sol\":1938:1956  masterChef.deposit */\n      0xffffffffffffffffffffffffffffffffffffffff\n      and\n      0xe2bbb158\n        /* \"Code-hardhat-ethersJs/contracts/MyTokenMarket.sol\":1957:1960  pid */\n      dup4\n        /* \"Code-hardhat-ethersJs/contracts/MyTokenMarket.sol\":1961:1967  amount */\n      dup4\n        /* \"Code-hardhat-ethersJs/contracts/MyTokenMarket.sol\":1938:1968  masterChef.deposit(pid,amount) */\n      mload(0x40)\n      dup4\n      0xffffffff\n      and\n      0xe0\n      shl\n      dup2\n      mstore\n      0x04\n      add\n      tag_80\n      swap3\n      swap2\n      swap1\n      tag_31\n      jump\t// in\n    tag_80:\n      0x00\n      mload(0x40)\n      dup1\n      dup4\n      sub\n      dup2\n      0x00\n      dup8\n      dup1\n      extcodesize\n      iszero\n      dup1\n      iszero\n      tag_81\n      jumpi\n      0x00\n      dup1\n      revert\n    tag_81:\n      pop\n      gas\n      call\n      iszero\n      dup1\n      iszero\n      tag_83\n      jumpi\n      returndatasize\n      0x00\n      dup1\n      returndatacopy\n      revert(0x00, returndatasize)\n    tag_83:\n      pop\n      pop\n      pop\n      pop\n        /* \"Code-hardhat-ethersJs/contracts/MyTokenMarket.sol\":1747:1975  function depositToMasterChef(address lpAddress,uint256 pid, uint256 amount)public{... */\n      pop\n      pop\n      pop\n      jump\t// out\n        /* \"#utility.yul\":7:82   */\n    tag_84:\n        /* \"#utility.yul\":40:46   */\n      0x00\n        /* \"#utility.yul\":73:75   */\n      0x40\n        /* \"#utility.yul\":67:76   */\n      mload\n        /* \"#utility.yul\":57:76   */\n      swap1\n      pop\n        /* \"#utility.yul\":7:82   */\n      swap1\n      jump\t// out\n        /* \"#utility.yul\":88:205   */\n    tag_85:\n        /* \"#utility.yul\":197:198   */\n      0x00\n        /* \"#utility.yul\":194:195   */\n      dup1\n        /* \"#utility.yul\":187:199   */\n      revert\n        /* \"#utility.yul\":211:328   */\n    tag_86:\n        /* \"#utility.yul\":320:321   */\n      0x00\n        /* \"#utility.yul\":317:318   */\n      dup1\n        /* \"#utility.yul\":310:322   */\n      revert\n        /* \"#utility.yul\":334:411   */\n    tag_87:\n        /* \"#utility.yul\":371:378   */\n      0x00\n        /* \"#utility.yul\":400:405   */\n      dup2\n        /* \"#utility.yul\":389:405   */\n      swap1\n      pop\n        /* \"#utility.yul\":334:411   */\n      swap2\n      swap1\n      pop\n      jump\t// out\n        /* \"#utility.yul\":417:539   */\n    tag_88:\n        /* \"#utility.yul\":490:514   */\n      tag_129\n        /* \"#utility.yul\":508:513   */\n      dup2\n        /* \"#utility.yul\":490:514   */\n      tag_87\n      jump\t// in\n    tag_129:\n        /* \"#utility.yul\":483:488   */\n      dup2\n        /* \"#utility.yul\":480:515   */\n      eq\n        /* \"#utility.yul\":470:533   */\n      tag_130\n      jumpi\n        /* \"#utility.yul\":529:530   */\n      0x00\n        /* \"#utility.yul\":526:527   */\n      dup1\n        /* \"#utility.yul\":519:531   */\n      revert\n        /* \"#utility.yul\":470:533   */\n    tag_130:\n        /* \"#utility.yul\":417:539   */\n      pop\n      jump\t// out\n        /* \"#utility.yul\":545:684   */\n    tag_89:\n        /* \"#utility.yul\":591:596   */\n      0x00\n        /* \"#utility.yul\":629:635   */\n      dup2\n        /* \"#utility.yul\":616:636   */\n      calldataload\n        /* \"#utility.yul\":607:636   */\n      swap1\n      pop\n        /* \"#utility.yul\":645:678   */\n      tag_132\n        /* \"#utility.yul\":672:677   */\n      dup2\n        /* \"#utility.yul\":645:678   */\n      tag_88\n      jump\t// in\n    tag_132:\n        /* \"#utility.yul\":545:684   */\n      swap3\n      swap2\n      pop\n      pop\n      jump\t// out\n        /* \"#utility.yul\":690:1019   */\n    tag_9:\n        /* \"#utility.yul\":749:755   */\n      0x00\n        /* \"#utility.yul\":798:800   */\n      0x20\n        /* \"#utility.yul\":786:795   */\n      dup3\n        /* \"#utility.yul\":777:784   */\n      dup5\n        /* \"#utility.yul\":773:796   */\n      sub\n        /* \"#utility.yul\":769:801   */\n      slt\n        /* \"#utility.yul\":766:885   */\n      iszero\n      tag_134\n      jumpi\n        /* \"#utility.yul\":804:883   */\n      tag_135\n      tag_85\n      jump\t// in\n    tag_135:\n        /* \"#utility.yul\":766:885   */\n    tag_134:\n        /* \"#utility.yul\":924:925   */\n      0x00\n        /* \"#utility.yul\":949:1002   */\n      tag_136\n        /* \"#utility.yul\":994:1001   */\n      dup5\n        /* \"#utility.yul\":985:991   */\n      dup3\n        /* \"#utility.yul\":974:983   */\n      dup6\n        /* \"#utility.yul\":970:992   */\n      add\n        /* \"#utility.yul\":949:1002   */\n      tag_89\n      jump\t// in\n    tag_136:\n        /* \"#utility.yul\":939:1002   */\n      swap2\n      pop\n        /* \"#utility.yul\":895:1012   */\n      pop\n        /* \"#utility.yul\":690:1019   */\n      swap3\n      swap2\n      pop\n      pop\n      jump\t// out\n        /* \"#utility.yul\":1025:1644   */\n    tag_13:\n        /* \"#utility.yul\":1102:1108   */\n      0x00\n        /* \"#utility.yul\":1110:1116   */\n      dup1\n        /* \"#utility.yul\":1118:1124   */\n      0x00\n        /* \"#utility.yul\":1167:1169   */\n      0x60\n        /* \"#utility.yul\":1155:1164   */\n      dup5\n        /* \"#utility.yul\":1146:1153   */\n      dup7\n        /* \"#utility.yul\":1142:1165   */\n      sub\n        /* \"#utility.yul\":1138:1170   */\n      slt\n        /* \"#utility.yul\":1135:1254   */\n      iszero\n      tag_138\n      jumpi\n        /* \"#utility.yul\":1173:1252   */\n      tag_139\n      tag_85\n      jump\t// in\n    tag_139:\n        /* \"#utility.yul\":1135:1254   */\n    tag_138:\n        /* \"#utility.yul\":1293:1294   */\n      0x00\n        /* \"#utility.yul\":1318:1371   */\n      tag_140\n        /* \"#utility.yul\":1363:1370   */\n      dup7\n        /* \"#utility.yul\":1354:1360   */\n      dup3\n        /* \"#utility.yul\":1343:1352   */\n      dup8\n        /* \"#utility.yul\":1339:1361   */\n      add\n        /* \"#utility.yul\":1318:1371   */\n      tag_89\n      jump\t// in\n    tag_140:\n        /* \"#utility.yul\":1308:1371   */\n      swap4\n      pop\n        /* \"#utility.yul\":1264:1381   */\n      pop\n        /* \"#utility.yul\":1420:1422   */\n      0x20\n        /* \"#utility.yul\":1446:1499   */\n      tag_141\n        /* \"#utility.yul\":1491:1498   */\n      dup7\n        /* \"#utility.yul\":1482:1488   */\n      dup3\n        /* \"#utility.yul\":1471:1480   */\n      dup8\n        /* \"#utility.yul\":1467:1489   */\n      add\n        /* \"#utility.yul\":1446:1499   */\n      tag_89\n      jump\t// in\n    tag_141:\n        /* \"#utility.yul\":1436:1499   */\n      swap3\n      pop\n        /* \"#utility.yul\":1391:1509   */\n      pop\n        /* \"#utility.yul\":1548:1550   */\n      0x40\n        /* \"#utility.yul\":1574:1627   */\n      tag_142\n        /* \"#utility.yul\":1619:1626   */\n      dup7\n        /* \"#utility.yul\":1610:1616   */\n      dup3\n        /* \"#utility.yul\":1599:1608   */\n      dup8\n        /* \"#utility.yul\":1595:1617   */\n      add\n        /* \"#utility.yul\":1574:1627   */\n      tag_89\n      jump\t// in\n    tag_142:\n        /* \"#utility.yul\":1564:1627   */\n      swap2\n      pop\n        /* \"#utility.yul\":1519:1637   */\n      pop\n        /* \"#utility.yul\":1025:1644   */\n      swap3\n      pop\n      swap3\n      pop\n      swap3\n      jump\t// out\n        /* \"#utility.yul\":1650:1776   */\n    tag_90:\n        /* \"#utility.yul\":1687:1694   */\n      0x00\n        /* \"#utility.yul\":1727:1769   */\n      0xffffffffffffffffffffffffffffffffffffffff\n        /* \"#utility.yul\":1720:1725   */\n      dup3\n        /* \"#utility.yul\":1716:1770   */\n      and\n        /* \"#utility.yul\":1705:1770   */\n      swap1\n      pop\n        /* \"#utility.yul\":1650:1776   */\n      swap2\n      swap1\n      pop\n      jump\t// out\n        /* \"#utility.yul\":1782:1878   */\n    tag_91:\n        /* \"#utility.yul\":1819:1826   */\n      0x00\n        /* \"#utility.yul\":1848:1872   */\n      tag_145\n        /* \"#utility.yul\":1866:1871   */\n      dup3\n        /* \"#utility.yul\":1848:1872   */\n      tag_90\n      jump\t// in\n    tag_145:\n        /* \"#utility.yul\":1837:1872   */\n      swap1\n      pop\n        /* \"#utility.yul\":1782:1878   */\n      swap2\n      swap1\n      pop\n      jump\t// out\n        /* \"#utility.yul\":1884:2006   */\n    tag_92:\n        /* \"#utility.yul\":1957:1981   */\n      tag_147\n        /* \"#utility.yul\":1975:1980   */\n      dup2\n        /* \"#utility.yul\":1957:1981   */\n      tag_91\n      jump\t// in\n    tag_147:\n        /* \"#utility.yul\":1950:1955   */\n      dup2\n        /* \"#utility.yul\":1947:1982   */\n      eq\n        /* \"#utility.yul\":1937:2000   */\n      tag_148\n      jumpi\n        /* \"#utility.yul\":1996:1997   */\n      0x00\n        /* \"#utility.yul\":1993:1994   */\n      dup1\n        /* \"#utility.yul\":1986:1998   */\n      revert\n        /* \"#utility.yul\":1937:2000   */\n    tag_148:\n        /* \"#utility.yul\":1884:2006   */\n      pop\n      jump\t// out\n        /* \"#utility.yul\":2012:2151   */\n    tag_93:\n        /* \"#utility.yul\":2058:2063   */\n      0x00\n        /* \"#utility.yul\":2096:2102   */\n      dup2\n        /* \"#utility.yul\":2083:2103   */\n      calldataload\n        /* \"#utility.yul\":2074:2103   */\n      swap1\n      pop\n        /* \"#utility.yul\":2112:2145   */\n      tag_150\n        /* \"#utility.yul\":2139:2144   */\n      dup2\n        /* \"#utility.yul\":2112:2145   */\n      tag_92\n      jump\t// in\n    tag_150:\n        /* \"#utility.yul\":2012:2151   */\n      swap3\n      swap2\n      pop\n      pop\n      jump\t// out\n        /* \"#utility.yul\":2157:2776   */\n    tag_21:\n        /* \"#utility.yul\":2234:2240   */\n      0x00\n        /* \"#utility.yul\":2242:2248   */\n      dup1\n        /* \"#utility.yul\":2250:2256   */\n      0x00\n        /* \"#utility.yul\":2299:2301   */\n      0x60\n        /* \"#utility.yul\":2287:2296   */\n      dup5\n        /* \"#utility.yul\":2278:2285   */\n      dup7\n        /* \"#utility.yul\":2274:2297   */\n      sub\n        /* \"#utility.yul\":2270:2302   */\n      slt\n        /* \"#utility.yul\":2267:2386   */\n      iszero\n      tag_152\n      jumpi\n        /* \"#utility.yul\":2305:2384   */\n      tag_153\n      tag_85\n      jump\t// in\n    tag_153:\n        /* \"#utility.yul\":2267:2386   */\n    tag_152:\n        /* \"#utility.yul\":2425:2426   */\n      0x00\n        /* \"#utility.yul\":2450:2503   */\n      tag_154\n        /* \"#utility.yul\":2495:2502   */\n      dup7\n        /* \"#utility.yul\":2486:2492   */\n      dup3\n        /* \"#utility.yul\":2475:2484   */\n      dup8\n        /* \"#utility.yul\":2471:2493   */\n      add\n        /* \"#utility.yul\":2450:2503   */\n      tag_93\n      jump\t// in\n    tag_154:\n        /* \"#utility.yul\":2440:2503   */\n      swap4\n      pop\n        /* \"#utility.yul\":2396:2513   */\n      pop\n        /* \"#utility.yul\":2552:2554   */\n      0x20\n        /* \"#utility.yul\":2578:2631   */\n      tag_155\n        /* \"#utility.yul\":2623:2630   */\n      dup7\n        /* \"#utility.yul\":2614:2620   */\n      dup3\n        /* \"#utility.yul\":2603:2612   */\n      dup8\n        /* \"#utility.yul\":2599:2621   */\n      add\n        /* \"#utility.yul\":2578:2631   */\n      tag_89\n      jump\t// in\n    tag_155:\n        /* \"#utility.yul\":2568:2631   */\n      swap3\n      pop\n        /* \"#utility.yul\":2523:2641   */\n      pop\n        /* \"#utility.yul\":2680:2682   */\n      0x40\n        /* \"#utility.yul\":2706:2759   */\n      tag_156\n        /* \"#utility.yul\":2751:2758   */\n      dup7\n        /* \"#utility.yul\":2742:2748   */\n      dup3\n        /* \"#utility.yul\":2731:2740   */\n      dup8\n        /* \"#utility.yul\":2727:2749   */\n      add\n        /* \"#utility.yul\":2706:2759   */\n      tag_89\n      jump\t// in\n    tag_156:\n        /* \"#utility.yul\":2696:2759   */\n      swap2\n      pop\n        /* \"#utility.yul\":2651:2769   */\n      pop\n        /* \"#utility.yul\":2157:2776   */\n      swap3\n      pop\n      swap3\n      pop\n      swap3\n      jump\t// out\n        /* \"#utility.yul\":2782:2900   */\n    tag_94:\n        /* \"#utility.yul\":2869:2893   */\n      tag_158\n        /* \"#utility.yul\":2887:2892   */\n      dup2\n        /* \"#utility.yul\":2869:2893   */\n      tag_91\n      jump\t// in\n    tag_158:\n        /* \"#utility.yul\":2864:2867   */\n      dup3\n        /* \"#utility.yul\":2857:2894   */\n      mstore\n        /* \"#utility.yul\":2782:2900   */\n      pop\n      pop\n      jump\t// out\n        /* \"#utility.yul\":2906:3128   */\n    tag_25:\n        /* \"#utility.yul\":2999:3003   */\n      0x00\n        /* \"#utility.yul\":3037:3039   */\n      0x20\n        /* \"#utility.yul\":3026:3035   */\n      dup3\n        /* \"#utility.yul\":3022:3040   */\n      add\n        /* \"#utility.yul\":3014:3040   */\n      swap1\n      pop\n        /* \"#utility.yul\":3050:3121   */\n      tag_160\n        /* \"#utility.yul\":3118:3119   */\n      0x00\n        /* \"#utility.yul\":3107:3116   */\n      dup4\n        /* \"#utility.yul\":3103:3120   */\n      add\n        /* \"#utility.yul\":3094:3100   */\n      dup5\n        /* \"#utility.yul\":3050:3121   */\n      tag_94\n      jump\t// in\n    tag_160:\n        /* \"#utility.yul\":2906:3128   */\n      swap3\n      swap2\n      pop\n      pop\n      jump\t// out\n        /* \"#utility.yul\":3134:3251   */\n    tag_95:\n        /* \"#utility.yul\":3243:3244   */\n      0x00\n        /* \"#utility.yul\":3240:3241   */\n      dup1\n        /* \"#utility.yul\":3233:3245   */\n      revert\n        /* \"#utility.yul\":3257:3359   */\n    tag_96:\n        /* \"#utility.yul\":3298:3304   */\n      0x00\n        /* \"#utility.yul\":3349:3351   */\n      0x1f\n        /* \"#utility.yul\":3345:3352   */\n      not\n        /* \"#utility.yul\":3340:3342   */\n      0x1f\n        /* \"#utility.yul\":3333:3338   */\n      dup4\n        /* \"#utility.yul\":3329:3343   */\n      add\n        /* \"#utility.yul\":3325:3353   */\n      and\n        /* \"#utility.yul\":3315:3353   */\n      swap1\n      pop\n        /* \"#utility.yul\":3257:3359   */\n      swap2\n      swap1\n      pop\n      jump\t// out\n        /* \"#utility.yul\":3365:3545   */\n    tag_62:\n        /* \"#utility.yul\":3413:3490   */\n      0x4e487b7100000000000000000000000000000000000000000000000000000000\n        /* \"#utility.yul\":3410:3411   */\n      0x00\n        /* \"#utility.yul\":3403:3491   */\n      mstore\n        /* \"#utility.yul\":3510:3514   */\n      0x41\n        /* \"#utility.yul\":3507:3508   */\n      0x04\n        /* \"#utility.yul\":3500:3515   */\n      mstore\n        /* \"#utility.yul\":3534:3538   */\n      0x24\n        /* \"#utility.yul\":3531:3532   */\n      0x00\n        /* \"#utility.yul\":3524:3539   */\n      revert\n        /* \"#utility.yul\":3551:3832   */\n    tag_97:\n        /* \"#utility.yul\":3634:3661   */\n      tag_165\n        /* \"#utility.yul\":3656:3660   */\n      dup3\n        /* \"#utility.yul\":3634:3661   */\n      tag_96\n      jump\t// in\n    tag_165:\n        /* \"#utility.yul\":3626:3632   */\n      dup2\n        /* \"#utility.yul\":3622:3662   */\n      add\n        /* \"#utility.yul\":3764:3770   */\n      dup2\n        /* \"#utility.yul\":3752:3762   */\n      dup2\n        /* \"#utility.yul\":3749:3771   */\n      lt\n        /* \"#utility.yul\":3728:3746   */\n      0xffffffffffffffff\n        /* \"#utility.yul\":3716:3726   */\n      dup3\n        /* \"#utility.yul\":3713:3747   */\n      gt\n        /* \"#utility.yul\":3710:3772   */\n      or\n        /* \"#utility.yul\":3707:3795   */\n      iszero\n      tag_166\n      jumpi\n        /* \"#utility.yul\":3775:3793   */\n      tag_167\n      tag_62\n      jump\t// in\n    tag_167:\n        /* \"#utility.yul\":3707:3795   */\n    tag_166:\n        /* \"#utility.yul\":3815:3825   */\n      dup1\n        /* \"#utility.yul\":3811:3813   */\n      0x40\n        /* \"#utility.yul\":3804:3826   */\n      mstore\n        /* \"#utility.yul\":3594:3832   */\n      pop\n        /* \"#utility.yul\":3551:3832   */\n      pop\n      pop\n      jump\t// out\n        /* \"#utility.yul\":3838:3967   */\n    tag_98:\n        /* \"#utility.yul\":3872:3878   */\n      0x00\n        /* \"#utility.yul\":3899:3919   */\n      tag_169\n      tag_84\n      jump\t// in\n    tag_169:\n        /* \"#utility.yul\":3889:3919   */\n      swap1\n      pop\n        /* \"#utility.yul\":3928:3961   */\n      tag_170\n        /* \"#utility.yul\":3956:3960   */\n      dup3\n        /* \"#utility.yul\":3948:3954   */\n      dup3\n        /* \"#utility.yul\":3928:3961   */\n      tag_97\n      jump\t// in\n    tag_170:\n        /* \"#utility.yul\":3838:3967   */\n      swap2\n      swap1\n      pop\n      jump\t// out\n        /* \"#utility.yul\":4096:4239   */\n    tag_100:\n        /* \"#utility.yul\":4153:4158   */\n      0x00\n        /* \"#utility.yul\":4184:4190   */\n      dup2\n        /* \"#utility.yul\":4178:4191   */\n      mload\n        /* \"#utility.yul\":4169:4191   */\n      swap1\n      pop\n        /* \"#utility.yul\":4200:4233   */\n      tag_173\n        /* \"#utility.yul\":4227:4232   */\n      dup2\n        /* \"#utility.yul\":4200:4233   */\n      tag_88\n      jump\t// in\n    tag_173:\n        /* \"#utility.yul\":4096:4239   */\n      swap3\n      swap2\n      pop\n      pop\n      jump\t// out\n        /* \"#utility.yul\":4280:4895   */\n    tag_101:\n        /* \"#utility.yul\":4365:4370   */\n      0x00\n        /* \"#utility.yul\":4409:4413   */\n      0x40\n        /* \"#utility.yul\":4397:4406   */\n      dup3\n        /* \"#utility.yul\":4392:4395   */\n      dup5\n        /* \"#utility.yul\":4388:4407   */\n      sub\n        /* \"#utility.yul\":4384:4414   */\n      slt\n        /* \"#utility.yul\":4381:4498   */\n      iszero\n      tag_175\n      jumpi\n        /* \"#utility.yul\":4417:4496   */\n      tag_176\n      tag_95\n      jump\t// in\n    tag_176:\n        /* \"#utility.yul\":4381:4498   */\n    tag_175:\n        /* \"#utility.yul\":4516:4537   */\n      tag_177\n        /* \"#utility.yul\":4532:4536   */\n      0x40\n        /* \"#utility.yul\":4516:4537   */\n      tag_98\n      jump\t// in\n    tag_177:\n        /* \"#utility.yul\":4507:4537   */\n      swap1\n      pop\n        /* \"#utility.yul\":4598:4599   */\n      0x00\n        /* \"#utility.yul\":4638:4698   */\n      tag_178\n        /* \"#utility.yul\":4694:4697   */\n      dup5\n        /* \"#utility.yul\":4685:4691   */\n      dup3\n        /* \"#utility.yul\":4674:4683   */\n      dup6\n        /* \"#utility.yul\":4670:4692   */\n      add\n        /* \"#utility.yul\":4638:4698   */\n      tag_100\n      jump\t// in\n    tag_178:\n        /* \"#utility.yul\":4631:4635   */\n      0x00\n        /* \"#utility.yul\":4624:4629   */\n      dup4\n        /* \"#utility.yul\":4620:4636   */\n      add\n        /* \"#utility.yul\":4613:4699   */\n      mstore\n        /* \"#utility.yul\":4547:4710   */\n      pop\n        /* \"#utility.yul\":4775:4777   */\n      0x20\n        /* \"#utility.yul\":4816:4876   */\n      tag_179\n        /* \"#utility.yul\":4872:4875   */\n      dup5\n        /* \"#utility.yul\":4863:4869   */\n      dup3\n        /* \"#utility.yul\":4852:4861   */\n      dup6\n        /* \"#utility.yul\":4848:4870   */\n      add\n        /* \"#utility.yul\":4816:4876   */\n      tag_100\n      jump\t// in\n    tag_179:\n        /* \"#utility.yul\":4809:4813   */\n      0x20\n        /* \"#utility.yul\":4802:4807   */\n      dup4\n        /* \"#utility.yul\":4798:4814   */\n      add\n        /* \"#utility.yul\":4791:4877   */\n      mstore\n        /* \"#utility.yul\":4720:4888   */\n      pop\n        /* \"#utility.yul\":4280:4895   */\n      swap3\n      swap2\n      pop\n      pop\n      jump\t// out\n        /* \"#utility.yul\":4901:5302   */\n    tag_29:\n        /* \"#utility.yul\":4996:5002   */\n      0x00\n        /* \"#utility.yul\":5045:5047   */\n      0x40\n        /* \"#utility.yul\":5033:5042   */\n      dup3\n        /* \"#utility.yul\":5024:5031   */\n      dup5\n        /* \"#utility.yul\":5020:5043   */\n      sub\n        /* \"#utility.yul\":5016:5048   */\n      slt\n        /* \"#utility.yul\":5013:5132   */\n      iszero\n      tag_181\n      jumpi\n        /* \"#utility.yul\":5051:5130   */\n      tag_182\n      tag_85\n      jump\t// in\n    tag_182:\n        /* \"#utility.yul\":5013:5132   */\n    tag_181:\n        /* \"#utility.yul\":5171:5172   */\n      0x00\n        /* \"#utility.yul\":5196:5285   */\n      tag_183\n        /* \"#utility.yul\":5277:5284   */\n      dup5\n        /* \"#utility.yul\":5268:5274   */\n      dup3\n        /* \"#utility.yul\":5257:5266   */\n      dup6\n        /* \"#utility.yul\":5253:5275   */\n      add\n        /* \"#utility.yul\":5196:5285   */\n      tag_101\n      jump\t// in\n    tag_183:\n        /* \"#utility.yul\":5186:5285   */\n      swap2\n      pop\n        /* \"#utility.yul\":5142:5295   */\n      pop\n        /* \"#utility.yul\":4901:5302   */\n      swap3\n      swap2\n      pop\n      pop\n      jump\t// out\n        /* \"#utility.yul\":5308:5426   */\n    tag_102:\n        /* \"#utility.yul\":5395:5419   */\n      tag_185\n        /* \"#utility.yul\":5413:5418   */\n      dup2\n        /* \"#utility.yul\":5395:5419   */\n      tag_87\n      jump\t// in\n    tag_185:\n        /* \"#utility.yul\":5390:5393   */\n      dup3\n        /* \"#utility.yul\":5383:5420   */\n      mstore\n        /* \"#utility.yul\":5308:5426   */\n      pop\n      pop\n      jump\t// out\n        /* \"#utility.yul\":5432:5764   */\n    tag_31:\n        /* \"#utility.yul\":5553:5557   */\n      0x00\n        /* \"#utility.yul\":5591:5593   */\n      0x40\n        /* \"#utility.yul\":5580:5589   */\n      dup3\n        /* \"#utility.yul\":5576:5594   */\n      add\n        /* \"#utility.yul\":5568:5594   */\n      swap1\n      pop\n        /* \"#utility.yul\":5604:5675   */\n      tag_187\n        /* \"#utility.yul\":5672:5673   */\n      0x00\n        /* \"#utility.yul\":5661:5670   */\n      dup4\n        /* \"#utility.yul\":5657:5674   */\n      add\n        /* \"#utility.yul\":5648:5654   */\n      dup6\n        /* \"#utility.yul\":5604:5675   */\n      tag_102\n      jump\t// in\n    tag_187:\n        /* \"#utility.yul\":5685:5757   */\n      tag_188\n        /* \"#utility.yul\":5753:5755   */\n      0x20\n        /* \"#utility.yul\":5742:5751   */\n      dup4\n        /* \"#utility.yul\":5738:5756   */\n      add\n        /* \"#utility.yul\":5729:5735   */\n      dup5\n        /* \"#utility.yul\":5685:5757   */\n      tag_102\n      jump\t// in\n    tag_188:\n        /* \"#utility.yul\":5432:5764   */\n      swap4\n      swap3\n      pop\n      pop\n      pop\n      jump\t// out\n        /* \"#utility.yul\":5770:6102   */\n    tag_37:\n        /* \"#utility.yul\":5891:5895   */\n      0x00\n        /* \"#utility.yul\":5929:5931   */\n      0x40\n        /* \"#utility.yul\":5918:5927   */\n      dup3\n        /* \"#utility.yul\":5914:5932   */\n      add\n        /* \"#utility.yul\":5906:5932   */\n      swap1\n      pop\n        /* \"#utility.yul\":5942:6013   */\n      tag_190\n        /* \"#utility.yul\":6010:6011   */\n      0x00\n        /* \"#utility.yul\":5999:6008   */\n      dup4\n        /* \"#utility.yul\":5995:6012   */\n      add\n        /* \"#utility.yul\":5986:5992   */\n      dup6\n        /* \"#utility.yul\":5942:6013   */\n      tag_94\n      jump\t// in\n    tag_190:\n        /* \"#utility.yul\":6023:6095   */\n      tag_191\n        /* \"#utility.yul\":6091:6093   */\n      0x20\n        /* \"#utility.yul\":6080:6089   */\n      dup4\n        /* \"#utility.yul\":6076:6094   */\n      add\n        /* \"#utility.yul\":6067:6073   */\n      dup5\n        /* \"#utility.yul\":6023:6095   */\n      tag_102\n      jump\t// in\n    tag_191:\n        /* \"#utility.yul\":5770:6102   */\n      swap4\n      swap3\n      pop\n      pop\n      pop\n      jump\t// out\n        /* \"#utility.yul\":6108:6198   */\n    tag_103:\n        /* \"#utility.yul\":6142:6149   */\n      0x00\n        /* \"#utility.yul\":6185:6190   */\n      dup2\n        /* \"#utility.yul\":6178:6191   */\n      iszero\n        /* \"#utility.yul\":6171:6192   */\n      iszero\n        /* \"#utility.yul\":6160:6192   */\n      swap1\n      pop\n        /* \"#utility.yul\":6108:6198   */\n      swap2\n      swap1\n      pop\n      jump\t// out\n        /* \"#utility.yul\":6204:6320   */\n    tag_104:\n        /* \"#utility.yul\":6274:6295   */\n      tag_194\n        /* \"#utility.yul\":6289:6294   */\n      dup2\n        /* \"#utility.yul\":6274:6295   */\n      tag_103\n      jump\t// in\n    tag_194:\n        /* \"#utility.yul\":6267:6272   */\n      dup2\n        /* \"#utility.yul\":6264:6296   */\n      eq\n        /* \"#utility.yul\":6254:6314   */\n      tag_195\n      jumpi\n        /* \"#utility.yul\":6310:6311   */\n      0x00\n        /* \"#utility.yul\":6307:6308   */\n      dup1\n        /* \"#utility.yul\":6300:6312   */\n      revert\n        /* \"#utility.yul\":6254:6314   */\n    tag_195:\n        /* \"#utility.yul\":6204:6320   */\n      pop\n      jump\t// out\n        /* \"#utility.yul\":6326:6463   */\n    tag_105:\n        /* \"#utility.yul\":6380:6385   */\n      0x00\n        /* \"#utility.yul\":6411:6417   */\n      dup2\n        /* \"#utility.yul\":6405:6418   */\n      mload\n        /* \"#utility.yul\":6396:6418   */\n      swap1\n      pop\n        /* \"#utility.yul\":6427:6457   */\n      tag_197\n        /* \"#utility.yul\":6451:6456   */\n      dup2\n        /* \"#utility.yul\":6427:6457   */\n      tag_104\n      jump\t// in\n    tag_197:\n        /* \"#utility.yul\":6326:6463   */\n      swap3\n      swap2\n      pop\n      pop\n      jump\t// out\n        /* \"#utility.yul\":6469:6814   */\n    tag_41:\n        /* \"#utility.yul\":6536:6542   */\n      0x00\n        /* \"#utility.yul\":6585:6587   */\n      0x20\n        /* \"#utility.yul\":6573:6582   */\n      dup3\n        /* \"#utility.yul\":6564:6571   */\n      dup5\n        /* \"#utility.yul\":6560:6583   */\n      sub\n        /* \"#utility.yul\":6556:6588   */\n      slt\n        /* \"#utility.yul\":6553:6672   */\n      iszero\n      tag_199\n      jumpi\n        /* \"#utility.yul\":6591:6670   */\n      tag_200\n      tag_85\n      jump\t// in\n    tag_200:\n        /* \"#utility.yul\":6553:6672   */\n    tag_199:\n        /* \"#utility.yul\":6711:6712   */\n      0x00\n        /* \"#utility.yul\":6736:6797   */\n      tag_201\n        /* \"#utility.yul\":6789:6796   */\n      dup5\n        /* \"#utility.yul\":6780:6786   */\n      dup3\n        /* \"#utility.yul\":6769:6778   */\n      dup6\n        /* \"#utility.yul\":6765:6787   */\n      add\n        /* \"#utility.yul\":6736:6797   */\n      tag_105\n      jump\t// in\n    tag_201:\n        /* \"#utility.yul\":6726:6797   */\n      swap2\n      pop\n        /* \"#utility.yul\":6682:6807   */\n      pop\n        /* \"#utility.yul\":6469:6814   */\n      swap3\n      swap2\n      pop\n      pop\n      jump\t// out\n        /* \"#utility.yul\":6820:7262   */\n    tag_43:\n        /* \"#utility.yul\":6969:6973   */\n      0x00\n        /* \"#utility.yul\":7007:7009   */\n      0x60\n        /* \"#utility.yul\":6996:7005   */\n      dup3\n        /* \"#utility.yul\":6992:7010   */\n      add\n        /* \"#utility.yul\":6984:7010   */\n      swap1\n      pop\n        /* \"#utility.yul\":7020:7091   */\n      tag_203\n        /* \"#utility.yul\":7088:7089   */\n      0x00\n        /* \"#utility.yul\":7077:7086   */\n      dup4\n        /* \"#utility.yul\":7073:7090   */\n      add\n        /* \"#utility.yul\":7064:7070   */\n      dup7\n        /* \"#utility.yul\":7020:7091   */\n      tag_94\n      jump\t// in\n    tag_203:\n        /* \"#utility.yul\":7101:7173   */\n      tag_204\n        /* \"#utility.yul\":7169:7171   */\n      0x20\n        /* \"#utility.yul\":7158:7167   */\n      dup4\n        /* \"#utility.yul\":7154:7172   */\n      add\n        /* \"#utility.yul\":7145:7151   */\n      dup6\n        /* \"#utility.yul\":7101:7173   */\n      tag_94\n      jump\t// in\n    tag_204:\n        /* \"#utility.yul\":7183:7255   */\n      tag_205\n        /* \"#utility.yul\":7251:7253   */\n      0x40\n        /* \"#utility.yul\":7240:7249   */\n      dup4\n        /* \"#utility.yul\":7236:7254   */\n      add\n        /* \"#utility.yul\":7227:7233   */\n      dup5\n        /* \"#utility.yul\":7183:7255   */\n      tag_102\n      jump\t// in\n    tag_205:\n        /* \"#utility.yul\":6820:7262   */\n      swap5\n      swap4\n      pop\n      pop\n      pop\n      pop\n      jump\t// out\n        /* \"#utility.yul\":7268:7437   */\n    tag_106:\n        /* \"#utility.yul\":7352:7363   */\n      0x00\n        /* \"#utility.yul\":7386:7392   */\n      dup3\n        /* \"#utility.yul\":7381:7384   */\n      dup3\n        /* \"#utility.yul\":7374:7393   */\n      mstore\n        /* \"#utility.yul\":7426:7430   */\n      0x20\n        /* \"#utility.yul\":7421:7424   */\n      dup3\n        /* \"#utility.yul\":7417:7431   */\n      add\n        /* \"#utility.yul\":7402:7431   */\n      swap1\n      pop\n        /* \"#utility.yul\":7268:7437   */\n      swap3\n      swap2\n      pop\n      pop\n      jump\t// out\n        /* \"#utility.yul\":7443:7615   */\n    tag_107:\n        /* \"#utility.yul\":7583:7607   */\n      0x6d746f6b656e207472616e73666572206572726f722100000000000000000000\n        /* \"#utility.yul\":7579:7580   */\n      0x00\n        /* \"#utility.yul\":7571:7577   */\n      dup3\n        /* \"#utility.yul\":7567:7581   */\n      add\n        /* \"#utility.yul\":7560:7608   */\n      mstore\n        /* \"#utility.yul\":7443:7615   */\n      pop\n      jump\t// out\n        /* \"#utility.yul\":7621:7987   */\n    tag_108:\n        /* \"#utility.yul\":7763:7766   */\n      0x00\n        /* \"#utility.yul\":7784:7851   */\n      tag_209\n        /* \"#utility.yul\":7848:7850   */\n      0x16\n        /* \"#utility.yul\":7843:7846   */\n      dup4\n        /* \"#utility.yul\":7784:7851   */\n      tag_106\n      jump\t// in\n    tag_209:\n        /* \"#utility.yul\":7777:7851   */\n      swap2\n      pop\n        /* \"#utility.yul\":7860:7953   */\n      tag_210\n        /* \"#utility.yul\":7949:7952   */\n      dup3\n        /* \"#utility.yul\":7860:7953   */\n      tag_107\n      jump\t// in\n    tag_210:\n        /* \"#utility.yul\":7978:7980   */\n      0x20\n        /* \"#utility.yul\":7973:7976   */\n      dup3\n        /* \"#utility.yul\":7969:7981   */\n      add\n        /* \"#utility.yul\":7962:7981   */\n      swap1\n      pop\n        /* \"#utility.yul\":7621:7987   */\n      swap2\n      swap1\n      pop\n      jump\t// out\n        /* \"#utility.yul\":7993:8412   */\n    tag_49:\n        /* \"#utility.yul\":8159:8163   */\n      0x00\n        /* \"#utility.yul\":8197:8199   */\n      0x20\n        /* \"#utility.yul\":8186:8195   */\n      dup3\n        /* \"#utility.yul\":8182:8200   */\n      add\n        /* \"#utility.yul\":8174:8200   */\n      swap1\n      pop\n        /* \"#utility.yul\":8246:8255   */\n      dup2\n        /* \"#utility.yul\":8240:8244   */\n      dup2\n        /* \"#utility.yul\":8236:8256   */\n      sub\n        /* \"#utility.yul\":8232:8233   */\n      0x00\n        /* \"#utility.yul\":8221:8230   */\n      dup4\n        /* \"#utility.yul\":8217:8234   */\n      add\n        /* \"#utility.yul\":8210:8257   */\n      mstore\n        /* \"#utility.yul\":8274:8405   */\n      tag_212\n        /* \"#utility.yul\":8400:8404   */\n      dup2\n        /* \"#utility.yul\":8274:8405   */\n      tag_108\n      jump\t// in\n    tag_212:\n        /* \"#utility.yul\":8266:8405   */\n      swap1\n      pop\n        /* \"#utility.yul\":7993:8412   */\n      swap2\n      swap1\n      pop\n      jump\t// out\n        /* \"#utility.yul\":8418:8647   */\n    tag_109:\n        /* \"#utility.yul\":8558:8592   */\n      0x6d73672e76616c75652073686f756c642062696767676572207468616e20616d\n        /* \"#utility.yul\":8554:8555   */\n      0x00\n        /* \"#utility.yul\":8546:8552   */\n      dup3\n        /* \"#utility.yul\":8542:8556   */\n      add\n        /* \"#utility.yul\":8535:8593   */\n      mstore\n        /* \"#utility.yul\":8627:8639   */\n      0x6f756e744554484d696e00000000000000000000000000000000000000000000\n        /* \"#utility.yul\":8622:8624   */\n      0x20\n        /* \"#utility.yul\":8614:8620   */\n      dup3\n        /* \"#utility.yul\":8610:8625   */\n      add\n        /* \"#utility.yul\":8603:8640   */\n      mstore\n        /* \"#utility.yul\":8418:8647   */\n      pop\n      jump\t// out\n        /* \"#utility.yul\":8653:9019   */\n    tag_110:\n        /* \"#utility.yul\":8795:8798   */\n      0x00\n        /* \"#utility.yul\":8816:8883   */\n      tag_215\n        /* \"#utility.yul\":8880:8882   */\n      0x2a\n        /* \"#utility.yul\":8875:8878   */\n      dup4\n        /* \"#utility.yul\":8816:8883   */\n      tag_106\n      jump\t// in\n    tag_215:\n        /* \"#utility.yul\":8809:8883   */\n      swap2\n      pop\n        /* \"#utility.yul\":8892:8985   */\n      tag_216\n        /* \"#utility.yul\":8981:8984   */\n      dup3\n        /* \"#utility.yul\":8892:8985   */\n      tag_109\n      jump\t// in\n    tag_216:\n        /* \"#utility.yul\":9010:9012   */\n      0x40\n        /* \"#utility.yul\":9005:9008   */\n      dup3\n        /* \"#utility.yul\":9001:9013   */\n      add\n        /* \"#utility.yul\":8994:9013   */\n      swap1\n      pop\n        /* \"#utility.yul\":8653:9019   */\n      swap2\n      swap1\n      pop\n      jump\t// out\n        /* \"#utility.yul\":9025:9444   */\n    tag_52:\n        /* \"#utility.yul\":9191:9195   */\n      0x00\n        /* \"#utility.yul\":9229:9231   */\n      0x20\n        /* \"#utility.yul\":9218:9227   */\n      dup3\n        /* \"#utility.yul\":9214:9232   */\n      add\n        /* \"#utility.yul\":9206:9232   */\n      swap1\n      pop\n        /* \"#utility.yul\":9278:9287   */\n      dup2\n        /* \"#utility.yul\":9272:9276   */\n      dup2\n        /* \"#utility.yul\":9268:9288   */\n      sub\n        /* \"#utility.yul\":9264:9265   */\n      0x00\n        /* \"#utility.yul\":9253:9262   */\n      dup4\n        /* \"#utility.yul\":9249:9266   */\n      add\n        /* \"#utility.yul\":9242:9289   */\n      mstore\n        /* \"#utility.yul\":9306:9437   */\n      tag_218\n        /* \"#utility.yul\":9432:9436   */\n      dup2\n        /* \"#utility.yul\":9306:9437   */\n      tag_110\n      jump\t// in\n    tag_218:\n        /* \"#utility.yul\":9298:9437   */\n      swap1\n      pop\n        /* \"#utility.yul\":9025:9444   */\n      swap2\n      swap1\n      pop\n      jump\t// out\n        /* \"#utility.yul\":9450:10225   */\n    tag_54:\n        /* \"#utility.yul\":9683:9687   */\n      0x00\n        /* \"#utility.yul\":9721:9724   */\n      0xc0\n        /* \"#utility.yul\":9710:9719   */\n      dup3\n        /* \"#utility.yul\":9706:9725   */\n      add\n        /* \"#utility.yul\":9698:9725   */\n      swap1\n      pop\n        /* \"#utility.yul\":9735:9806   */\n      tag_220\n        /* \"#utility.yul\":9803:9804   */\n      0x00\n        /* \"#utility.yul\":9792:9801   */\n      dup4\n        /* \"#utility.yul\":9788:9805   */\n      add\n        /* \"#utility.yul\":9779:9785   */\n      dup10\n        /* \"#utility.yul\":9735:9806   */\n      tag_94\n      jump\t// in\n    tag_220:\n        /* \"#utility.yul\":9816:9888   */\n      tag_221\n        /* \"#utility.yul\":9884:9886   */\n      0x20\n        /* \"#utility.yul\":9873:9882   */\n      dup4\n        /* \"#utility.yul\":9869:9887   */\n      add\n        /* \"#utility.yul\":9860:9866   */\n      dup9\n        /* \"#utility.yul\":9816:9888   */\n      tag_102\n      jump\t// in\n    tag_221:\n        /* \"#utility.yul\":9898:9970   */\n      tag_222\n        /* \"#utility.yul\":9966:9968   */\n      0x40\n        /* \"#utility.yul\":9955:9964   */\n      dup4\n        /* \"#utility.yul\":9951:9969   */\n      add\n        /* \"#utility.yul\":9942:9948   */\n      dup8\n        /* \"#utility.yul\":9898:9970   */\n      tag_102\n      jump\t// in\n    tag_222:\n        /* \"#utility.yul\":9980:10052   */\n      tag_223\n        /* \"#utility.yul\":10048:10050   */\n      0x60\n        /* \"#utility.yul\":10037:10046   */\n      dup4\n        /* \"#utility.yul\":10033:10051   */\n      add\n        /* \"#utility.yul\":10024:10030   */\n      dup7\n        /* \"#utility.yul\":9980:10052   */\n      tag_102\n      jump\t// in\n    tag_223:\n        /* \"#utility.yul\":10062:10135   */\n      tag_224\n        /* \"#utility.yul\":10130:10133   */\n      0x80\n        /* \"#utility.yul\":10119:10128   */\n      dup4\n        /* \"#utility.yul\":10115:10134   */\n      add\n        /* \"#utility.yul\":10106:10112   */\n      dup6\n        /* \"#utility.yul\":10062:10135   */\n      tag_94\n      jump\t// in\n    tag_224:\n        /* \"#utility.yul\":10145:10218   */\n      tag_225\n        /* \"#utility.yul\":10213:10216   */\n      0xa0\n        /* \"#utility.yul\":10202:10211   */\n      dup4\n        /* \"#utility.yul\":10198:10217   */\n      add\n        /* \"#utility.yul\":10189:10195   */\n      dup5\n        /* \"#utility.yul\":10145:10218   */\n      tag_102\n      jump\t// in\n    tag_225:\n        /* \"#utility.yul\":9450:10225   */\n      swap8\n      swap7\n      pop\n      pop\n      pop\n      pop\n      pop\n      pop\n      pop\n      jump\t// out\n        /* \"#utility.yul\":10231:10894   */\n    tag_58:\n        /* \"#utility.yul\":10319:10325   */\n      0x00\n        /* \"#utility.yul\":10327:10333   */\n      dup1\n        /* \"#utility.yul\":10335:10341   */\n      0x00\n        /* \"#utility.yul\":10384:10386   */\n      0x60\n        /* \"#utility.yul\":10372:10381   */\n      dup5\n        /* \"#utility.yul\":10363:10370   */\n      dup7\n        /* \"#utility.yul\":10359:10382   */\n      sub\n        /* \"#utility.yul\":10355:10387   */\n      slt\n        /* \"#utility.yul\":10352:10471   */\n      iszero\n      tag_227\n      jumpi\n        /* \"#utility.yul\":10390:10469   */\n      tag_228\n      tag_85\n      jump\t// in\n    tag_228:\n        /* \"#utility.yul\":10352:10471   */\n    tag_227:\n        /* \"#utility.yul\":10510:10511   */\n      0x00\n        /* \"#utility.yul\":10535:10599   */\n      tag_229\n        /* \"#utility.yul\":10591:10598   */\n      dup7\n        /* \"#utility.yul\":10582:10588   */\n      dup3\n        /* \"#utility.yul\":10571:10580   */\n      dup8\n        /* \"#utility.yul\":10567:10589   */\n      add\n        /* \"#utility.yul\":10535:10599   */\n      tag_100\n      jump\t// in\n    tag_229:\n        /* \"#utility.yul\":10525:10599   */\n      swap4\n      pop\n        /* \"#utility.yul\":10481:10609   */\n      pop\n        /* \"#utility.yul\":10648:10650   */\n      0x20\n        /* \"#utility.yul\":10674:10738   */\n      tag_230\n        /* \"#utility.yul\":10730:10737   */\n      dup7\n        /* \"#utility.yul\":10721:10727   */\n      dup3\n        /* \"#utility.yul\":10710:10719   */\n      dup8\n        /* \"#utility.yul\":10706:10728   */\n      add\n        /* \"#utility.yul\":10674:10738   */\n      tag_100\n      jump\t// in\n    tag_230:\n        /* \"#utility.yul\":10664:10738   */\n      swap3\n      pop\n        /* \"#utility.yul\":10619:10748   */\n      pop\n        /* \"#utility.yul\":10787:10789   */\n      0x40\n        /* \"#utility.yul\":10813:10877   */\n      tag_231\n        /* \"#utility.yul\":10869:10876   */\n      dup7\n        /* \"#utility.yul\":10860:10866   */\n      dup3\n        /* \"#utility.yul\":10849:10858   */\n      dup8\n        /* \"#utility.yul\":10845:10867   */\n      add\n        /* \"#utility.yul\":10813:10877   */\n      tag_100\n      jump\t// in\n    tag_231:\n        /* \"#utility.yul\":10803:10877   */\n      swap2\n      pop\n        /* \"#utility.yul\":10758:10887   */\n      pop\n        /* \"#utility.yul\":10231:10894   */\n      swap3\n      pop\n      swap3\n      pop\n      swap3\n      jump\t// out\n        /* \"#utility.yul\":10900:11080   */\n    tag_66:\n        /* \"#utility.yul\":10948:11025   */\n      0x4e487b7100000000000000000000000000000000000000000000000000000000\n        /* \"#utility.yul\":10945:10946   */\n      0x00\n        /* \"#utility.yul\":10938:11026   */\n      mstore\n        /* \"#utility.yul\":11045:11049   */\n      0x32\n        /* \"#utility.yul\":11042:11043   */\n      0x04\n        /* \"#utility.yul\":11035:11050   */\n      mstore\n        /* \"#utility.yul\":11069:11073   */\n      0x24\n        /* \"#utility.yul\":11066:11067   */\n      0x00\n        /* \"#utility.yul\":11059:11074   */\n      revert\n        /* \"#utility.yul\":11086:11200   */\n    tag_111:\n        /* \"#utility.yul\":11153:11159   */\n      0x00\n        /* \"#utility.yul\":11187:11192   */\n      dup2\n        /* \"#utility.yul\":11181:11193   */\n      mload\n        /* \"#utility.yul\":11171:11193   */\n      swap1\n      pop\n        /* \"#utility.yul\":11086:11200   */\n      swap2\n      swap1\n      pop\n      jump\t// out\n        /* \"#utility.yul\":11206:11390   */\n    tag_112:\n        /* \"#utility.yul\":11305:11316   */\n      0x00\n        /* \"#utility.yul\":11339:11345   */\n      dup3\n        /* \"#utility.yul\":11334:11337   */\n      dup3\n        /* \"#utility.yul\":11327:11346   */\n      mstore\n        /* \"#utility.yul\":11379:11383   */\n      0x20\n        /* \"#utility.yul\":11374:11377   */\n      dup3\n        /* \"#utility.yul\":11370:11384   */\n      add\n        /* \"#utility.yul\":11355:11384   */\n      swap1\n      pop\n        /* \"#utility.yul\":11206:11390   */\n      swap3\n      swap2\n      pop\n      pop\n      jump\t// out\n        /* \"#utility.yul\":11396:11528   */\n    tag_113:\n        /* \"#utility.yul\":11463:11467   */\n      0x00\n        /* \"#utility.yul\":11486:11489   */\n      dup2\n        /* \"#utility.yul\":11478:11489   */\n      swap1\n      pop\n        /* \"#utility.yul\":11516:11520   */\n      0x20\n        /* \"#utility.yul\":11511:11514   */\n      dup3\n        /* \"#utility.yul\":11507:11521   */\n      add\n        /* \"#utility.yul\":11499:11521   */\n      swap1\n      pop\n        /* \"#utility.yul\":11396:11528   */\n      swap2\n      swap1\n      pop\n      jump\t// out\n        /* \"#utility.yul\":11534:11642   */\n    tag_114:\n        /* \"#utility.yul\":11611:11635   */\n      tag_237\n        /* \"#utility.yul\":11629:11634   */\n      dup2\n        /* \"#utility.yul\":11611:11635   */\n      tag_91\n      jump\t// in\n    tag_237:\n        /* \"#utility.yul\":11606:11609   */\n      dup3\n        /* \"#utility.yul\":11599:11636   */\n      mstore\n        /* \"#utility.yul\":11534:11642   */\n      pop\n      pop\n      jump\t// out\n        /* \"#utility.yul\":11648:11827   */\n    tag_115:\n        /* \"#utility.yul\":11717:11727   */\n      0x00\n        /* \"#utility.yul\":11738:11784   */\n      tag_239\n        /* \"#utility.yul\":11780:11783   */\n      dup4\n        /* \"#utility.yul\":11772:11778   */\n      dup4\n        /* \"#utility.yul\":11738:11784   */\n      tag_114\n      jump\t// in\n    tag_239:\n        /* \"#utility.yul\":11816:11820   */\n      0x20\n        /* \"#utility.yul\":11811:11814   */\n      dup4\n        /* \"#utility.yul\":11807:11821   */\n      add\n        /* \"#utility.yul\":11793:11821   */\n      swap1\n      pop\n        /* \"#utility.yul\":11648:11827   */\n      swap3\n      swap2\n      pop\n      pop\n      jump\t// out\n        /* \"#utility.yul\":11833:11946   */\n    tag_116:\n        /* \"#utility.yul\":11903:11907   */\n      0x00\n        /* \"#utility.yul\":11935:11939   */\n      0x20\n        /* \"#utility.yul\":11930:11933   */\n      dup3\n        /* \"#utility.yul\":11926:11940   */\n      add\n        /* \"#utility.yul\":11918:11940   */\n      swap1\n      pop\n        /* \"#utility.yul\":11833:11946   */\n      swap2\n      swap1\n      pop\n      jump\t// out\n        /* \"#utility.yul\":11982:12714   */\n    tag_117:\n        /* \"#utility.yul\":12101:12104   */\n      0x00\n        /* \"#utility.yul\":12130:12184   */\n      tag_242\n        /* \"#utility.yul\":12178:12183   */\n      dup3\n        /* \"#utility.yul\":12130:12184   */\n      tag_111\n      jump\t// in\n    tag_242:\n        /* \"#utility.yul\":12200:12286   */\n      tag_243\n        /* \"#utility.yul\":12279:12285   */\n      dup2\n        /* \"#utility.yul\":12274:12277   */\n      dup6\n        /* \"#utility.yul\":12200:12286   */\n      tag_112\n      jump\t// in\n    tag_243:\n        /* \"#utility.yul\":12193:12286   */\n      swap4\n      pop\n        /* \"#utility.yul\":12310:12366   */\n      tag_244\n        /* \"#utility.yul\":12360:12365   */\n      dup4\n        /* \"#utility.yul\":12310:12366   */\n      tag_113\n      jump\t// in\n    tag_244:\n        /* \"#utility.yul\":12389:12396   */\n      dup1\n        /* \"#utility.yul\":12420:12421   */\n      0x00\n        /* \"#utility.yul\":12405:12689   */\n    tag_245:\n        /* \"#utility.yul\":12430:12436   */\n      dup4\n        /* \"#utility.yul\":12427:12428   */\n      dup2\n        /* \"#utility.yul\":12424:12437   */\n      lt\n        /* \"#utility.yul\":12405:12689   */\n      iszero\n      tag_247\n      jumpi\n        /* \"#utility.yul\":12506:12512   */\n      dup2\n        /* \"#utility.yul\":12500:12513   */\n      mload\n        /* \"#utility.yul\":12533:12596   */\n      tag_248\n        /* \"#utility.yul\":12592:12595   */\n      dup9\n        /* \"#utility.yul\":12577:12590   */\n      dup3\n        /* \"#utility.yul\":12533:12596   */\n      tag_115\n      jump\t// in\n    tag_248:\n        /* \"#utility.yul\":12526:12596   */\n      swap8\n      pop\n        /* \"#utility.yul\":12619:12679   */\n      tag_249\n        /* \"#utility.yul\":12672:12678   */\n      dup4\n        /* \"#utility.yul\":12619:12679   */\n      tag_116\n      jump\t// in\n    tag_249:\n        /* \"#utility.yul\":12609:12679   */\n      swap3\n      pop\n        /* \"#utility.yul\":12465:12689   */\n      pop\n        /* \"#utility.yul\":12452:12453   */\n      0x01\n        /* \"#utility.yul\":12449:12450   */\n      dup2\n        /* \"#utility.yul\":12445:12454   */\n      add\n        /* \"#utility.yul\":12440:12454   */\n      swap1\n      pop\n        /* \"#utility.yul\":12405:12689   */\n      jump(tag_245)\n    tag_247:\n        /* \"#utility.yul\":12409:12423   */\n      pop\n        /* \"#utility.yul\":12705:12708   */\n      dup6\n        /* \"#utility.yul\":12698:12708   */\n      swap4\n      pop\n        /* \"#utility.yul\":12106:12714   */\n      pop\n      pop\n      pop\n        /* \"#utility.yul\":11982:12714   */\n      swap3\n      swap2\n      pop\n      pop\n      jump\t// out\n        /* \"#utility.yul\":12720:13424   */\n    tag_70:\n        /* \"#utility.yul\":12947:12951   */\n      0x00\n        /* \"#utility.yul\":12985:12988   */\n      0x80\n        /* \"#utility.yul\":12974:12983   */\n      dup3\n        /* \"#utility.yul\":12970:12989   */\n      add\n        /* \"#utility.yul\":12962:12989   */\n      swap1\n      pop\n        /* \"#utility.yul\":12999:13070   */\n      tag_251\n        /* \"#utility.yul\":13067:13068   */\n      0x00\n        /* \"#utility.yul\":13056:13065   */\n      dup4\n        /* \"#utility.yul\":13052:13069   */\n      add\n        /* \"#utility.yul\":13043:13049   */\n      dup8\n        /* \"#utility.yul\":12999:13070   */\n      tag_102\n      jump\t// in\n    tag_251:\n        /* \"#utility.yul\":13117:13126   */\n      dup2\n        /* \"#utility.yul\":13111:13115   */\n      dup2\n        /* \"#utility.yul\":13107:13127   */\n      sub\n        /* \"#utility.yul\":13102:13104   */\n      0x20\n        /* \"#utility.yul\":13091:13100   */\n      dup4\n        /* \"#utility.yul\":13087:13105   */\n      add\n        /* \"#utility.yul\":13080:13128   */\n      mstore\n        /* \"#utility.yul\":13145:13253   */\n      tag_252\n        /* \"#utility.yul\":13248:13252   */\n      dup2\n        /* \"#utility.yul\":13239:13245   */\n      dup7\n        /* \"#utility.yul\":13145:13253   */\n      tag_117\n      jump\t// in\n    tag_252:\n        /* \"#utility.yul\":13137:13253   */\n      swap1\n      pop\n        /* \"#utility.yul\":13263:13335   */\n      tag_253\n        /* \"#utility.yul\":13331:13333   */\n      0x40\n        /* \"#utility.yul\":13320:13329   */\n      dup4\n        /* \"#utility.yul\":13316:13334   */\n      add\n        /* \"#utility.yul\":13307:13313   */\n      dup6\n        /* \"#utility.yul\":13263:13335   */\n      tag_94\n      jump\t// in\n    tag_253:\n        /* \"#utility.yul\":13345:13417   */\n      tag_254\n        /* \"#utility.yul\":13413:13415   */\n      0x60\n        /* \"#utility.yul\":13402:13411   */\n      dup4\n        /* \"#utility.yul\":13398:13416   */\n      add\n        /* \"#utility.yul\":13389:13395   */\n      dup5\n        /* \"#utility.yul\":13345:13417   */\n      tag_102\n      jump\t// in\n    tag_254:\n        /* \"#utility.yul\":12720:13424   */\n      swap6\n      swap5\n      pop\n      pop\n      pop\n      pop\n      pop\n      jump\t// out\n        /* \"#utility.yul\":13430:13547   */\n    tag_118:\n        /* \"#utility.yul\":13539:13540   */\n      0x00\n        /* \"#utility.yul\":13536:13537   */\n      dup1\n        /* \"#utility.yul\":13529:13541   */\n      revert\n        /* \"#utility.yul\":13553:13864   */\n    tag_119:\n        /* \"#utility.yul\":13630:13634   */\n      0x00\n        /* \"#utility.yul\":13720:13738   */\n      0xffffffffffffffff\n        /* \"#utility.yul\":13712:13718   */\n      dup3\n        /* \"#utility.yul\":13709:13739   */\n      gt\n        /* \"#utility.yul\":13706:13762   */\n      iszero\n      tag_257\n      jumpi\n        /* \"#utility.yul\":13742:13760   */\n      tag_258\n      tag_62\n      jump\t// in\n    tag_258:\n        /* \"#utility.yul\":13706:13762   */\n    tag_257:\n        /* \"#utility.yul\":13792:13796   */\n      0x20\n        /* \"#utility.yul\":13784:13790   */\n      dup3\n        /* \"#utility.yul\":13780:13797   */\n      mul\n        /* \"#utility.yul\":13772:13797   */\n      swap1\n      pop\n        /* \"#utility.yul\":13852:13856   */\n      0x20\n        /* \"#utility.yul\":13846:13850   */\n      dup2\n        /* \"#utility.yul\":13842:13857   */\n      add\n        /* \"#utility.yul\":13834:13857   */\n      swap1\n      pop\n        /* \"#utility.yul\":13553:13864   */\n      swap2\n      swap1\n      pop\n      jump\t// out\n        /* \"#utility.yul\":13870:13987   */\n    tag_120:\n        /* \"#utility.yul\":13979:13980   */\n      0x00\n        /* \"#utility.yul\":13976:13977   */\n      dup1\n        /* \"#utility.yul\":13969:13981   */\n      revert\n        /* \"#utility.yul\":14010:14742   */\n    tag_121:\n        /* \"#utility.yul\":14117:14122   */\n      0x00\n        /* \"#utility.yul\":14142:14223   */\n      tag_261\n        /* \"#utility.yul\":14158:14222   */\n      tag_262\n        /* \"#utility.yul\":14215:14221   */\n      dup5\n        /* \"#utility.yul\":14158:14222   */\n      tag_119\n      jump\t// in\n    tag_262:\n        /* \"#utility.yul\":14142:14223   */\n      tag_98\n      jump\t// in\n    tag_261:\n        /* \"#utility.yul\":14133:14223   */\n      swap1\n      pop\n        /* \"#utility.yul\":14243:14248   */\n      dup1\n        /* \"#utility.yul\":14272:14278   */\n      dup4\n        /* \"#utility.yul\":14265:14270   */\n      dup3\n        /* \"#utility.yul\":14258:14279   */\n      mstore\n        /* \"#utility.yul\":14306:14310   */\n      0x20\n        /* \"#utility.yul\":14299:14304   */\n      dup3\n        /* \"#utility.yul\":14295:14311   */\n      add\n        /* \"#utility.yul\":14288:14311   */\n      swap1\n      pop\n        /* \"#utility.yul\":14359:14363   */\n      0x20\n        /* \"#utility.yul\":14351:14357   */\n      dup5\n        /* \"#utility.yul\":14347:14364   */\n      mul\n        /* \"#utility.yul\":14339:14345   */\n      dup4\n        /* \"#utility.yul\":14335:14365   */\n      add\n        /* \"#utility.yul\":14388:14391   */\n      dup6\n        /* \"#utility.yul\":14380:14386   */\n      dup2\n        /* \"#utility.yul\":14377:14392   */\n      gt\n        /* \"#utility.yul\":14374:14496   */\n      iszero\n      tag_263\n      jumpi\n        /* \"#utility.yul\":14407:14486   */\n      tag_264\n      tag_120\n      jump\t// in\n    tag_264:\n        /* \"#utility.yul\":14374:14496   */\n    tag_263:\n        /* \"#utility.yul\":14522:14528   */\n      dup4\n        /* \"#utility.yul\":14505:14736   */\n    tag_265:\n        /* \"#utility.yul\":14539:14545   */\n      dup2\n        /* \"#utility.yul\":14534:14537   */\n      dup2\n        /* \"#utility.yul\":14531:14546   */\n      lt\n        /* \"#utility.yul\":14505:14736   */\n      iszero\n      tag_267\n      jumpi\n        /* \"#utility.yul\":14614:14617   */\n      dup1\n        /* \"#utility.yul\":14643:14691   */\n      tag_268\n        /* \"#utility.yul\":14687:14690   */\n      dup9\n        /* \"#utility.yul\":14675:14685   */\n      dup3\n        /* \"#utility.yul\":14643:14691   */\n      tag_100\n      jump\t// in\n    tag_268:\n        /* \"#utility.yul\":14638:14641   */\n      dup5\n        /* \"#utility.yul\":14631:14692   */\n      mstore\n        /* \"#utility.yul\":14721:14725   */\n      0x20\n        /* \"#utility.yul\":14716:14719   */\n      dup5\n        /* \"#utility.yul\":14712:14726   */\n      add\n        /* \"#utility.yul\":14705:14726   */\n      swap4\n      pop\n        /* \"#utility.yul\":14581:14736   */\n      pop\n        /* \"#utility.yul\":14565:14569   */\n      0x20\n        /* \"#utility.yul\":14560:14563   */\n      dup2\n        /* \"#utility.yul\":14556:14570   */\n      add\n        /* \"#utility.yul\":14549:14570   */\n      swap1\n      pop\n        /* \"#utility.yul\":14505:14736   */\n      jump(tag_265)\n    tag_267:\n        /* \"#utility.yul\":14509:14530   */\n      pop\n        /* \"#utility.yul\":14123:14742   */\n      pop\n      pop\n        /* \"#utility.yul\":14010:14742   */\n      swap4\n      swap3\n      pop\n      pop\n      pop\n      jump\t// out\n        /* \"#utility.yul\":14765:15150   */\n    tag_122:\n        /* \"#utility.yul\":14847:14852   */\n      0x00\n        /* \"#utility.yul\":14896:14899   */\n      dup3\n        /* \"#utility.yul\":14889:14893   */\n      0x1f\n        /* \"#utility.yul\":14881:14887   */\n      dup4\n        /* \"#utility.yul\":14877:14894   */\n      add\n        /* \"#utility.yul\":14873:14900   */\n      slt\n        /* \"#utility.yul\":14863:14985   */\n      tag_270\n      jumpi\n        /* \"#utility.yul\":14904:14983   */\n      tag_271\n      tag_118\n      jump\t// in\n    tag_271:\n        /* \"#utility.yul\":14863:14985   */\n    tag_270:\n        /* \"#utility.yul\":15014:15020   */\n      dup2\n        /* \"#utility.yul\":15008:15021   */\n      mload\n        /* \"#utility.yul\":15039:15144   */\n      tag_272\n        /* \"#utility.yul\":15140:15143   */\n      dup5\n        /* \"#utility.yul\":15132:15138   */\n      dup3\n        /* \"#utility.yul\":15125:15129   */\n      0x20\n        /* \"#utility.yul\":15117:15123   */\n      dup7\n        /* \"#utility.yul\":15113:15130   */\n      add\n        /* \"#utility.yul\":15039:15144   */\n      tag_121\n      jump\t// in\n    tag_272:\n        /* \"#utility.yul\":15030:15144   */\n      swap2\n      pop\n        /* \"#utility.yul\":14853:15150   */\n      pop\n        /* \"#utility.yul\":14765:15150   */\n      swap3\n      swap2\n      pop\n      pop\n      jump\t// out\n        /* \"#utility.yul\":15156:15710   */\n    tag_74:\n        /* \"#utility.yul\":15251:15257   */\n      0x00\n        /* \"#utility.yul\":15300:15302   */\n      0x20\n        /* \"#utility.yul\":15288:15297   */\n      dup3\n        /* \"#utility.yul\":15279:15286   */\n      dup5\n        /* \"#utility.yul\":15275:15298   */\n      sub\n        /* \"#utility.yul\":15271:15303   */\n      slt\n        /* \"#utility.yul\":15268:15387   */\n      iszero\n      tag_274\n      jumpi\n        /* \"#utility.yul\":15306:15385   */\n      tag_275\n      tag_85\n      jump\t// in\n    tag_275:\n        /* \"#utility.yul\":15268:15387   */\n    tag_274:\n        /* \"#utility.yul\":15447:15448   */\n      0x00\n        /* \"#utility.yul\":15436:15445   */\n      dup3\n        /* \"#utility.yul\":15432:15449   */\n      add\n        /* \"#utility.yul\":15426:15450   */\n      mload\n        /* \"#utility.yul\":15477:15495   */\n      0xffffffffffffffff\n        /* \"#utility.yul\":15469:15475   */\n      dup2\n        /* \"#utility.yul\":15466:15496   */\n      gt\n        /* \"#utility.yul\":15463:15580   */\n      iszero\n      tag_276\n      jumpi\n        /* \"#utility.yul\":15499:15578   */\n      tag_277\n      tag_86\n      jump\t// in\n    tag_277:\n        /* \"#utility.yul\":15463:15580   */\n    tag_276:\n        /* \"#utility.yul\":15604:15693   */\n      tag_278\n        /* \"#utility.yul\":15685:15692   */\n      dup5\n        /* \"#utility.yul\":15676:15682   */\n      dup3\n        /* \"#utility.yul\":15665:15674   */\n      dup6\n        /* \"#utility.yul\":15661:15683   */\n      add\n        /* \"#utility.yul\":15604:15693   */\n      tag_122\n      jump\t// in\n    tag_278:\n        /* \"#utility.yul\":15594:15693   */\n      swap2\n      pop\n        /* \"#utility.yul\":15397:15703   */\n      pop\n        /* \"#utility.yul\":15156:15710   */\n      swap3\n      swap2\n      pop\n      pop\n      jump\t// out\n\n    auxdata: 0xa26469706673582212204b51098047dd9127e0ffe7428ca6cbd2cc9bfe5ff7958c09bbb7f75d233b78a964736f6c634300080d0033\n}\n",
				"bytecode": {
					"linkReferences": {},
					"object": "6080604052737a250d5630b4cf539739df2c5dacb4c659f2488d6000806101000a81548173ffffffffffffffffffffffffffffffffffffffff021916908373ffffffffffffffffffffffffffffffffffffffff16021790555073c778417e063141139fce010982780140aa0cd5ab600160006101000a81548173ffffffffffffffffffffffffffffffffffffffff021916908373ffffffffffffffffffffffffffffffffffffffff16021790555073549f978c19a5ac86d906052639e317b57724ef44600260006101000a81548173ffffffffffffffffffffffffffffffffffffffff021916908373ffffffffffffffffffffffffffffffffffffffff16021790555073f42a08c0ea66ee4a474336087a6c17e9ea6c9de9600360006101000a81548173ffffffffffffffffffffffffffffffffffffffff021916908373ffffffffffffffffffffffffffffffffffffffff16021790555073d9dfa8c6b37cfdf16668fe0465896f4a1b9b2c4f600460006101000a81548173ffffffffffffffffffffffffffffffffffffffff021916908373ffffffffffffffffffffffffffffffffffffffff16021790555060008054906101000a900473ffffffffffffffffffffffffffffffffffffffff16600560006101000a81548173ffffffffffffffffffffffffffffffffffffffff021916908373ffffffffffffffffffffffffffffffffffffffff160217905550600260009054906101000a900473ffffffffffffffffffffffffffffffffffffffff16600660006101000a81548173ffffffffffffffffffffffffffffffffffffffff021916908373ffffffffffffffffffffffffffffffffffffffff160217905550600460009054906101000a900473ffffffffffffffffffffffffffffffffffffffff16600760006101000a81548173ffffffffffffffffffffffffffffffffffffffff021916908373ffffffffffffffffffffffffffffffffffffffff1602179055503480156102df57600080fd5b50610fe8806102ef6000396000f3fe60806040526004361061003f5760003560e01c80632e1a7d4d14610044578063422f10431461006d578063a93f74e014610089578063fc55d2bf146100a5575b600080fd5b34801561005057600080fd5b5061006b60048036038101906100669190610825565b6100ce565b005b61008760048036038101906100829190610852565b610204565b005b6100a3600480360381019061009e9190610825565b6104c7565b005b3480156100b157600080fd5b506100cc60048036038101906100c79190610903565b6106a6565b005b6000600760009054906101000a900473ffffffffffffffffffffffffffffffffffffffff1673ffffffffffffffffffffffffffffffffffffffff16631959a002336040518263ffffffff1660e01b815260040161012b9190610965565b6040805180830381865afa158015610147573d6000803e3d6000fd5b505050506040513d601f19601f8201168201806040525081019061016b9190610a76565b9050600760009054906101000a900473ffffffffffffffffffffffffffffffffffffffff1673ffffffffffffffffffffffffffffffffffffffff1663441a3e708383600001516040518363ffffffff1660e01b81526004016101ce929190610ab2565b600060405180830381600087803b1580156101e857600080fd5b505af11580156101fc573d6000803e3d6000fd5b505050505050565b600660009054906101000a900473ffffffffffffffffffffffffffffffffffffffff1673ffffffffffffffffffffffffffffffffffffffff1663095ea7b3600560009054906101000a900473ffffffffffffffffffffffffffffffffffffffff16856040518363ffffffff1660e01b8152600401610283929190610adb565b6020604051808303816000875af11580156102a2573d6000803e3d6000fd5b505050506040513d601f19601f820116820180604052508101906102c69190610b3c565b506000600660009054906101000a900473ffffffffffffffffffffffffffffffffffffffff1673ffffffffffffffffffffffffffffffffffffffff166323b872dd3330876040518463ffffffff1660e01b815260040161032893929190610b69565b6020604051808303816000875af1158015610347573d6000803e3d6000fd5b505050506040513d601f19601f8201168201806040525081019061036b9190610b3c565b9050806103ad576040517f08c379a00000000000000000000000000000000000000000000000000000000081526004016103a490610bfd565b60405180910390fd5b8134116103ef576040517f08c379a00000000000000000000000000000000000000000000000000000000081526004016103e690610c8f565b60405180910390fd5b6000600560009054906101000a900473ffffffffffffffffffffffffffffffffffffffff1673ffffffffffffffffffffffffffffffffffffffff1663f305d71934600260009054906101000a900473ffffffffffffffffffffffffffffffffffffffff1688888833426040518863ffffffff1660e01b815260040161047996959493929190610caf565b60606040518083038185885af1158015610497573d6000803e3d6000fd5b50505050506040513d601f19601f820116820180604052508101906104bc9190610d10565b505090505050505050565b6000600267ffffffffffffffff8111156104e4576104e3610996565b5b6040519080825280602002602001820160405280156105125781602001602082028036833780820191505090505b509050600160009054906101000a900473ffffffffffffffffffffffffffffffffffffffff168160008151811061054c5761054b610d63565b5b602002602001019073ffffffffffffffffffffffffffffffffffffffff16908173ffffffffffffffffffffffffffffffffffffffff1681525050600260009054906101000a900473ffffffffffffffffffffffffffffffffffffffff16816001815181106105bd576105bc610d63565b5b602002602001019073ffffffffffffffffffffffffffffffffffffffff16908173ffffffffffffffffffffffffffffffffffffffff1681525050600560009054906101000a900473ffffffffffffffffffffffffffffffffffffffff1673ffffffffffffffffffffffffffffffffffffffff16637ff36ab534848433426040518663ffffffff1660e01b81526004016106599493929190610e50565b60006040518083038185885af1158015610677573d6000803e3d6000fd5b50505050506040513d6000823e3d601f19601f820116820180604052508101906106a19190610f69565b505050565b8273ffffffffffffffffffffffffffffffffffffffff1663095ea7b3600460009054906101000a900473ffffffffffffffffffffffffffffffffffffffff16836040518363ffffffff1660e01b8152600401610703929190610adb565b6020604051808303816000875af1158015610722573d6000803e3d6000fd5b505050506040513d601f19601f820116820180604052508101906107469190610b3c565b50600760009054906101000a900473ffffffffffffffffffffffffffffffffffffffff1673ffffffffffffffffffffffffffffffffffffffff1663e2bbb15883836040518363ffffffff1660e01b81526004016107a4929190610ab2565b600060405180830381600087803b1580156107be57600080fd5b505af11580156107d2573d6000803e3d6000fd5b50505050505050565b6000604051905090565b600080fd5b600080fd5b6000819050919050565b610802816107ef565b811461080d57600080fd5b50565b60008135905061081f816107f9565b92915050565b60006020828403121561083b5761083a6107e5565b5b600061084984828501610810565b91505092915050565b60008060006060848603121561086b5761086a6107e5565b5b600061087986828701610810565b935050602061088a86828701610810565b925050604061089b86828701610810565b9150509250925092565b600073ffffffffffffffffffffffffffffffffffffffff82169050919050565b60006108d0826108a5565b9050919050565b6108e0816108c5565b81146108eb57600080fd5b50565b6000813590506108fd816108d7565b92915050565b60008060006060848603121561091c5761091b6107e5565b5b600061092a868287016108ee565b935050602061093b86828701610810565b925050604061094c86828701610810565b9150509250925092565b61095f816108c5565b82525050565b600060208201905061097a6000830184610956565b92915050565b600080fd5b6000601f19601f8301169050919050565b7f4e487b7100000000000000000000000000000000000000000000000000000000600052604160045260246000fd5b6109ce82610985565b810181811067ffffffffffffffff821117156109ed576109ec610996565b5b80604052505050565b6000610a006107db565b9050610a0c82826109c5565b919050565b600081519050610a20816107f9565b92915050565b600060408284031215610a3c57610a3b610980565b5b610a4660406109f6565b90506000610a5684828501610a11565b6000830152506020610a6a84828501610a11565b60208301525092915050565b600060408284031215610a8c57610a8b6107e5565b5b6000610a9a84828501610a26565b91505092915050565b610aac816107ef565b82525050565b6000604082019050610ac76000830185610aa3565b610ad46020830184610aa3565b9392505050565b6000604082019050610af06000830185610956565b610afd6020830184610aa3565b9392505050565b60008115159050919050565b610b1981610b04565b8114610b2457600080fd5b50565b600081519050610b3681610b10565b92915050565b600060208284031215610b5257610b516107e5565b5b6000610b6084828501610b27565b91505092915050565b6000606082019050610b7e6000830186610956565b610b8b6020830185610956565b610b986040830184610aa3565b949350505050565b600082825260208201905092915050565b7f6d746f6b656e207472616e73666572206572726f722100000000000000000000600082015250565b6000610be7601683610ba0565b9150610bf282610bb1565b602082019050919050565b60006020820190508181036000830152610c1681610bda565b9050919050565b7f6d73672e76616c75652073686f756c642062696767676572207468616e20616d60008201527f6f756e744554484d696e00000000000000000000000000000000000000000000602082015250565b6000610c79602a83610ba0565b9150610c8482610c1d565b604082019050919050565b60006020820190508181036000830152610ca881610c6c565b9050919050565b600060c082019050610cc46000830189610956565b610cd16020830188610aa3565b610cde6040830187610aa3565b610ceb6060830186610aa3565b610cf86080830185610956565b610d0560a0830184610aa3565b979650505050505050565b600080600060608486031215610d2957610d286107e5565b5b6000610d3786828701610a11565b9350506020610d4886828701610a11565b9250506040610d5986828701610a11565b9150509250925092565b7f4e487b7100000000000000000000000000000000000000000000000000000000600052603260045260246000fd5b600081519050919050565b600082825260208201905092915050565b6000819050602082019050919050565b610dc7816108c5565b82525050565b6000610dd98383610dbe565b60208301905092915050565b6000602082019050919050565b6000610dfd82610d92565b610e078185610d9d565b9350610e1283610dae565b8060005b83811015610e43578151610e2a8882610dcd565b9750610e3583610de5565b925050600181019050610e16565b5085935050505092915050565b6000608082019050610e656000830187610aa3565b8181036020830152610e778186610df2565b9050610e866040830185610956565b610e936060830184610aa3565b95945050505050565b600080fd5b600067ffffffffffffffff821115610ebc57610ebb610996565b5b602082029050602081019050919050565b600080fd5b6000610ee5610ee084610ea1565b6109f6565b90508083825260208201905060208402830185811115610f0857610f07610ecd565b5b835b81811015610f315780610f1d8882610a11565b845260208401935050602081019050610f0a565b5050509392505050565b600082601f830112610f5057610f4f610e9c565b5b8151610f60848260208601610ed2565b91505092915050565b600060208284031215610f7f57610f7e6107e5565b5b600082015167ffffffffffffffff811115610f9d57610f9c6107ea565b5b610fa984828501610f3b565b9150509291505056fea26469706673582212204b51098047dd9127e0ffe7428ca6cbd2cc9bfe5ff7958c09bbb7f75d233b78a964736f6c634300080d0033",
					"opcodes": "PUSH1 0x80 PUSH1 0x40 MSTORE PUSH20 0x7A250D5630B4CF539739DF2C5DACB4C659F2488D PUSH1 0x0 DUP1 PUSH2 0x100 EXP DUP2 SLOAD DUP2 PUSH20 0xFFFFFFFFFFFFFFFFFFFFFFFFFFFFFFFFFFFFFFFF MUL NOT AND SWAP1 DUP4 PUSH20 0xFFFFFFFFFFFFFFFFFFFFFFFFFFFFFFFFFFFFFFFF AND MUL OR SWAP1 SSTORE POP PUSH20 0xC778417E063141139FCE010982780140AA0CD5AB PUSH1 0x1 PUSH1 0x0 PUSH2 0x100 EXP DUP2 SLOAD DUP2 PUSH20 0xFFFFFFFFFFFFFFFFFFFFFFFFFFFFFFFFFFFFFFFF MUL NOT AND SWAP1 DUP4 PUSH20 0xFFFFFFFFFFFFFFFFFFFFFFFFFFFFFFFFFFFFFFFF AND MUL OR SWAP1 SSTORE POP PUSH20 0x549F978C19A5AC86D906052639E317B57724EF44 PUSH1 0x2 PUSH1 0x0 PUSH2 0x100 EXP DUP2 SLOAD DUP2 PUSH20 0xFFFFFFFFFFFFFFFFFFFFFFFFFFFFFFFFFFFFFFFF MUL NOT AND SWAP1 DUP4 PUSH20 0xFFFFFFFFFFFFFFFFFFFFFFFFFFFFFFFFFFFFFFFF AND MUL OR SWAP1 SSTORE POP PUSH20 0xF42A08C0EA66EE4A474336087A6C17E9EA6C9DE9 PUSH1 0x3 PUSH1 0x0 PUSH2 0x100 EXP DUP2 SLOAD DUP2 PUSH20 0xFFFFFFFFFFFFFFFFFFFFFFFFFFFFFFFFFFFFFFFF MUL NOT AND SWAP1 DUP4 PUSH20 0xFFFFFFFFFFFFFFFFFFFFFFFFFFFFFFFFFFFFFFFF AND MUL OR SWAP1 SSTORE POP PUSH20 0xD9DFA8C6B37CFDF16668FE0465896F4A1B9B2C4F PUSH1 0x4 PUSH1 0x0 PUSH2 0x100 EXP DUP2 SLOAD DUP2 PUSH20 0xFFFFFFFFFFFFFFFFFFFFFFFFFFFFFFFFFFFFFFFF MUL NOT AND SWAP1 DUP4 PUSH20 0xFFFFFFFFFFFFFFFFFFFFFFFFFFFFFFFFFFFFFFFF AND MUL OR SWAP1 SSTORE POP PUSH1 0x0 DUP1 SLOAD SWAP1 PUSH2 0x100 EXP SWAP1 DIV PUSH20 0xFFFFFFFFFFFFFFFFFFFFFFFFFFFFFFFFFFFFFFFF AND PUSH1 0x5 PUSH1 0x0 PUSH2 0x100 EXP DUP2 SLOAD DUP2 PUSH20 0xFFFFFFFFFFFFFFFFFFFFFFFFFFFFFFFFFFFFFFFF MUL NOT AND SWAP1 DUP4 PUSH20 0xFFFFFFFFFFFFFFFFFFFFFFFFFFFFFFFFFFFFFFFF AND MUL OR SWAP1 SSTORE POP PUSH1 0x2 PUSH1 0x0 SWAP1 SLOAD SWAP1 PUSH2 0x100 EXP SWAP1 DIV PUSH20 0xFFFFFFFFFFFFFFFFFFFFFFFFFFFFFFFFFFFFFFFF AND PUSH1 0x6 PUSH1 0x0 PUSH2 0x100 EXP DUP2 SLOAD DUP2 PUSH20 0xFFFFFFFFFFFFFFFFFFFFFFFFFFFFFFFFFFFFFFFF MUL NOT AND SWAP1 DUP4 PUSH20 0xFFFFFFFFFFFFFFFFFFFFFFFFFFFFFFFFFFFFFFFF AND MUL OR SWAP1 SSTORE POP PUSH1 0x4 PUSH1 0x0 SWAP1 SLOAD SWAP1 PUSH2 0x100 EXP SWAP1 DIV PUSH20 0xFFFFFFFFFFFFFFFFFFFFFFFFFFFFFFFFFFFFFFFF AND PUSH1 0x7 PUSH1 0x0 PUSH2 0x100 EXP DUP2 SLOAD DUP2 PUSH20 0xFFFFFFFFFFFFFFFFFFFFFFFFFFFFFFFFFFFFFFFF MUL NOT AND SWAP1 DUP4 PUSH20 0xFFFFFFFFFFFFFFFFFFFFFFFFFFFFFFFFFFFFFFFF AND MUL OR SWAP1 SSTORE POP CALLVALUE DUP1 ISZERO PUSH2 0x2DF JUMPI PUSH1 0x0 DUP1 REVERT JUMPDEST POP PUSH2 0xFE8 DUP1 PUSH2 0x2EF PUSH1 0x0 CODECOPY PUSH1 0x0 RETURN INVALID PUSH1 0x80 PUSH1 0x40 MSTORE PUSH1 0x4 CALLDATASIZE LT PUSH2 0x3F JUMPI PUSH1 0x0 CALLDATALOAD PUSH1 0xE0 SHR DUP1 PUSH4 0x2E1A7D4D EQ PUSH2 0x44 JUMPI DUP1 PUSH4 0x422F1043 EQ PUSH2 0x6D JUMPI DUP1 PUSH4 0xA93F74E0 EQ PUSH2 0x89 JUMPI DUP1 PUSH4 0xFC55D2BF EQ PUSH2 0xA5 JUMPI JUMPDEST PUSH1 0x0 DUP1 REVERT JUMPDEST CALLVALUE DUP1 ISZERO PUSH2 0x50 JUMPI PUSH1 0x0 DUP1 REVERT JUMPDEST POP PUSH2 0x6B PUSH1 0x4 DUP1 CALLDATASIZE SUB DUP2 ADD SWAP1 PUSH2 0x66 SWAP2 SWAP1 PUSH2 0x825 JUMP JUMPDEST PUSH2 0xCE JUMP JUMPDEST STOP JUMPDEST PUSH2 0x87 PUSH1 0x4 DUP1 CALLDATASIZE SUB DUP2 ADD SWAP1 PUSH2 0x82 SWAP2 SWAP1 PUSH2 0x852 JUMP JUMPDEST PUSH2 0x204 JUMP JUMPDEST STOP JUMPDEST PUSH2 0xA3 PUSH1 0x4 DUP1 CALLDATASIZE SUB DUP2 ADD SWAP1 PUSH2 0x9E SWAP2 SWAP1 PUSH2 0x825 JUMP JUMPDEST PUSH2 0x4C7 JUMP JUMPDEST STOP JUMPDEST CALLVALUE DUP1 ISZERO PUSH2 0xB1 JUMPI PUSH1 0x0 DUP1 REVERT JUMPDEST POP PUSH2 0xCC PUSH1 0x4 DUP1 CALLDATASIZE SUB DUP2 ADD SWAP1 PUSH2 0xC7 SWAP2 SWAP1 PUSH2 0x903 JUMP JUMPDEST PUSH2 0x6A6 JUMP JUMPDEST STOP JUMPDEST PUSH1 0x0 PUSH1 0x7 PUSH1 0x0 SWAP1 SLOAD SWAP1 PUSH2 0x100 EXP SWAP1 DIV PUSH20 0xFFFFFFFFFFFFFFFFFFFFFFFFFFFFFFFFFFFFFFFF AND PUSH20 0xFFFFFFFFFFFFFFFFFFFFFFFFFFFFFFFFFFFFFFFF AND PUSH4 0x1959A002 CALLER PUSH1 0x40 MLOAD DUP3 PUSH4 0xFFFFFFFF AND PUSH1 0xE0 SHL DUP2 MSTORE PUSH1 0x4 ADD PUSH2 0x12B SWAP2 SWAP1 PUSH2 0x965 JUMP JUMPDEST PUSH1 0x40 DUP1 MLOAD DUP1 DUP4 SUB DUP2 DUP7 GAS STATICCALL ISZERO DUP1 ISZERO PUSH2 0x147 JUMPI RETURNDATASIZE PUSH1 0x0 DUP1 RETURNDATACOPY RETURNDATASIZE PUSH1 0x0 REVERT JUMPDEST POP POP POP POP PUSH1 0x40 MLOAD RETURNDATASIZE PUSH1 0x1F NOT PUSH1 0x1F DUP3 ADD AND DUP3 ADD DUP1 PUSH1 0x40 MSTORE POP DUP2 ADD SWAP1 PUSH2 0x16B SWAP2 SWAP1 PUSH2 0xA76 JUMP JUMPDEST SWAP1 POP PUSH1 0x7 PUSH1 0x0 SWAP1 SLOAD SWAP1 PUSH2 0x100 EXP SWAP1 DIV PUSH20 0xFFFFFFFFFFFFFFFFFFFFFFFFFFFFFFFFFFFFFFFF AND PUSH20 0xFFFFFFFFFFFFFFFFFFFFFFFFFFFFFFFFFFFFFFFF AND PUSH4 0x441A3E70 DUP4 DUP4 PUSH1 0x0 ADD MLOAD PUSH1 0x40 MLOAD DUP4 PUSH4 0xFFFFFFFF AND PUSH1 0xE0 SHL DUP2 MSTORE PUSH1 0x4 ADD PUSH2 0x1CE SWAP3 SWAP2 SWAP1 PUSH2 0xAB2 JUMP JUMPDEST PUSH1 0x0 PUSH1 0x40 MLOAD DUP1 DUP4 SUB DUP2 PUSH1 0x0 DUP8 DUP1 EXTCODESIZE ISZERO DUP1 ISZERO PUSH2 0x1E8 JUMPI PUSH1 0x0 DUP1 REVERT JUMPDEST POP GAS CALL ISZERO DUP1 ISZERO PUSH2 0x1FC JUMPI RETURNDATASIZE PUSH1 0x0 DUP1 RETURNDATACOPY RETURNDATASIZE PUSH1 0x0 REVERT JUMPDEST POP POP POP POP POP POP JUMP JUMPDEST PUSH1 0x6 PUSH1 0x0 SWAP1 SLOAD SWAP1 PUSH2 0x100 EXP SWAP1 DIV PUSH20 0xFFFFFFFFFFFFFFFFFFFFFFFFFFFFFFFFFFFFFFFF AND PUSH20 0xFFFFFFFFFFFFFFFFFFFFFFFFFFFFFFFFFFFFFFFF AND PUSH4 0x95EA7B3 PUSH1 0x5 PUSH1 0x0 SWAP1 SLOAD SWAP1 PUSH2 0x100 EXP SWAP1 DIV PUSH20 0xFFFFFFFFFFFFFFFFFFFFFFFFFFFFFFFFFFFFFFFF AND DUP6 PUSH1 0x40 MLOAD DUP4 PUSH4 0xFFFFFFFF AND PUSH1 0xE0 SHL DUP2 MSTORE PUSH1 0x4 ADD PUSH2 0x283 SWAP3 SWAP2 SWAP1 PUSH2 0xADB JUMP JUMPDEST PUSH1 0x20 PUSH1 0x40 MLOAD DUP1 DUP4 SUB DUP2 PUSH1 0x0 DUP8 GAS CALL ISZERO DUP1 ISZERO PUSH2 0x2A2 JUMPI RETURNDATASIZE PUSH1 0x0 DUP1 RETURNDATACOPY RETURNDATASIZE PUSH1 0x0 REVERT JUMPDEST POP POP POP POP PUSH1 0x40 MLOAD RETURNDATASIZE PUSH1 0x1F NOT PUSH1 0x1F DUP3 ADD AND DUP3 ADD DUP1 PUSH1 0x40 MSTORE POP DUP2 ADD SWAP1 PUSH2 0x2C6 SWAP2 SWAP1 PUSH2 0xB3C JUMP JUMPDEST POP PUSH1 0x0 PUSH1 0x6 PUSH1 0x0 SWAP1 SLOAD SWAP1 PUSH2 0x100 EXP SWAP1 DIV PUSH20 0xFFFFFFFFFFFFFFFFFFFFFFFFFFFFFFFFFFFFFFFF AND PUSH20 0xFFFFFFFFFFFFFFFFFFFFFFFFFFFFFFFFFFFFFFFF AND PUSH4 0x23B872DD CALLER ADDRESS DUP8 PUSH1 0x40 MLOAD DUP5 PUSH4 0xFFFFFFFF AND PUSH1 0xE0 SHL DUP2 MSTORE PUSH1 0x4 ADD PUSH2 0x328 SWAP4 SWAP3 SWAP2 SWAP1 PUSH2 0xB69 JUMP JUMPDEST PUSH1 0x20 PUSH1 0x40 MLOAD DUP1 DUP4 SUB DUP2 PUSH1 0x0 DUP8 GAS CALL ISZERO DUP1 ISZERO PUSH2 0x347 JUMPI RETURNDATASIZE PUSH1 0x0 DUP1 RETURNDATACOPY RETURNDATASIZE PUSH1 0x0 REVERT JUMPDEST POP POP POP POP PUSH1 0x40 MLOAD RETURNDATASIZE PUSH1 0x1F NOT PUSH1 0x1F DUP3 ADD AND DUP3 ADD DUP1 PUSH1 0x40 MSTORE POP DUP2 ADD SWAP1 PUSH2 0x36B SWAP2 SWAP1 PUSH2 0xB3C JUMP JUMPDEST SWAP1 POP DUP1 PUSH2 0x3AD JUMPI PUSH1 0x40 MLOAD PUSH32 0x8C379A000000000000000000000000000000000000000000000000000000000 DUP2 MSTORE PUSH1 0x4 ADD PUSH2 0x3A4 SWAP1 PUSH2 0xBFD JUMP JUMPDEST PUSH1 0x40 MLOAD DUP1 SWAP2 SUB SWAP1 REVERT JUMPDEST DUP2 CALLVALUE GT PUSH2 0x3EF JUMPI PUSH1 0x40 MLOAD PUSH32 0x8C379A000000000000000000000000000000000000000000000000000000000 DUP2 MSTORE PUSH1 0x4 ADD PUSH2 0x3E6 SWAP1 PUSH2 0xC8F JUMP JUMPDEST PUSH1 0x40 MLOAD DUP1 SWAP2 SUB SWAP1 REVERT JUMPDEST PUSH1 0x0 PUSH1 0x5 PUSH1 0x0 SWAP1 SLOAD SWAP1 PUSH2 0x100 EXP SWAP1 DIV PUSH20 0xFFFFFFFFFFFFFFFFFFFFFFFFFFFFFFFFFFFFFFFF AND PUSH20 0xFFFFFFFFFFFFFFFFFFFFFFFFFFFFFFFFFFFFFFFF AND PUSH4 0xF305D719 CALLVALUE PUSH1 0x2 PUSH1 0x0 SWAP1 SLOAD SWAP1 PUSH2 0x100 EXP SWAP1 DIV PUSH20 0xFFFFFFFFFFFFFFFFFFFFFFFFFFFFFFFFFFFFFFFF AND DUP9 DUP9 DUP9 CALLER TIMESTAMP PUSH1 0x40 MLOAD DUP9 PUSH4 0xFFFFFFFF AND PUSH1 0xE0 SHL DUP2 MSTORE PUSH1 0x4 ADD PUSH2 0x479 SWAP7 SWAP6 SWAP5 SWAP4 SWAP3 SWAP2 SWAP1 PUSH2 0xCAF JUMP JUMPDEST PUSH1 0x60 PUSH1 0x40 MLOAD DUP1 DUP4 SUB DUP2 DUP6 DUP9 GAS CALL ISZERO DUP1 ISZERO PUSH2 0x497 JUMPI RETURNDATASIZE PUSH1 0x0 DUP1 RETURNDATACOPY RETURNDATASIZE PUSH1 0x0 REVERT JUMPDEST POP POP POP POP POP PUSH1 0x40 MLOAD RETURNDATASIZE PUSH1 0x1F NOT PUSH1 0x1F DUP3 ADD AND DUP3 ADD DUP1 PUSH1 0x40 MSTORE POP DUP2 ADD SWAP1 PUSH2 0x4BC SWAP2 SWAP1 PUSH2 0xD10 JUMP JUMPDEST POP POP SWAP1 POP POP POP POP POP POP JUMP JUMPDEST PUSH1 0x0 PUSH1 0x2 PUSH8 0xFFFFFFFFFFFFFFFF DUP2 GT ISZERO PUSH2 0x4E4 JUMPI PUSH2 0x4E3 PUSH2 0x996 JUMP JUMPDEST JUMPDEST PUSH1 0x40 MLOAD SWAP1 DUP1 DUP3 MSTORE DUP1 PUSH1 0x20 MUL PUSH1 0x20 ADD DUP3 ADD PUSH1 0x40 MSTORE DUP1 ISZERO PUSH2 0x512 JUMPI DUP2 PUSH1 0x20 ADD PUSH1 0x20 DUP3 MUL DUP1 CALLDATASIZE DUP4 CALLDATACOPY DUP1 DUP3 ADD SWAP2 POP POP SWAP1 POP JUMPDEST POP SWAP1 POP PUSH1 0x1 PUSH1 0x0 SWAP1 SLOAD SWAP1 PUSH2 0x100 EXP SWAP1 DIV PUSH20 0xFFFFFFFFFFFFFFFFFFFFFFFFFFFFFFFFFFFFFFFF AND DUP2 PUSH1 0x0 DUP2 MLOAD DUP2 LT PUSH2 0x54C JUMPI PUSH2 0x54B PUSH2 0xD63 JUMP JUMPDEST JUMPDEST PUSH1 0x20 MUL PUSH1 0x20 ADD ADD SWAP1 PUSH20 0xFFFFFFFFFFFFFFFFFFFFFFFFFFFFFFFFFFFFFFFF AND SWAP1 DUP2 PUSH20 0xFFFFFFFFFFFFFFFFFFFFFFFFFFFFFFFFFFFFFFFF AND DUP2 MSTORE POP POP PUSH1 0x2 PUSH1 0x0 SWAP1 SLOAD SWAP1 PUSH2 0x100 EXP SWAP1 DIV PUSH20 0xFFFFFFFFFFFFFFFFFFFFFFFFFFFFFFFFFFFFFFFF AND DUP2 PUSH1 0x1 DUP2 MLOAD DUP2 LT PUSH2 0x5BD JUMPI PUSH2 0x5BC PUSH2 0xD63 JUMP JUMPDEST JUMPDEST PUSH1 0x20 MUL PUSH1 0x20 ADD ADD SWAP1 PUSH20 0xFFFFFFFFFFFFFFFFFFFFFFFFFFFFFFFFFFFFFFFF AND SWAP1 DUP2 PUSH20 0xFFFFFFFFFFFFFFFFFFFFFFFFFFFFFFFFFFFFFFFF AND DUP2 MSTORE POP POP PUSH1 0x5 PUSH1 0x0 SWAP1 SLOAD SWAP1 PUSH2 0x100 EXP SWAP1 DIV PUSH20 0xFFFFFFFFFFFFFFFFFFFFFFFFFFFFFFFFFFFFFFFF AND PUSH20 0xFFFFFFFFFFFFFFFFFFFFFFFFFFFFFFFFFFFFFFFF AND PUSH4 0x7FF36AB5 CALLVALUE DUP5 DUP5 CALLER TIMESTAMP PUSH1 0x40 MLOAD DUP7 PUSH4 0xFFFFFFFF AND PUSH1 0xE0 SHL DUP2 MSTORE PUSH1 0x4 ADD PUSH2 0x659 SWAP5 SWAP4 SWAP3 SWAP2 SWAP1 PUSH2 0xE50 JUMP JUMPDEST PUSH1 0x0 PUSH1 0x40 MLOAD DUP1 DUP4 SUB DUP2 DUP6 DUP9 GAS CALL ISZERO DUP1 ISZERO PUSH2 0x677 JUMPI RETURNDATASIZE PUSH1 0x0 DUP1 RETURNDATACOPY RETURNDATASIZE PUSH1 0x0 REVERT JUMPDEST POP POP POP POP POP PUSH1 0x40 MLOAD RETURNDATASIZE PUSH1 0x0 DUP3 RETURNDATACOPY RETURNDATASIZE PUSH1 0x1F NOT PUSH1 0x1F DUP3 ADD AND DUP3 ADD DUP1 PUSH1 0x40 MSTORE POP DUP2 ADD SWAP1 PUSH2 0x6A1 SWAP2 SWAP1 PUSH2 0xF69 JUMP JUMPDEST POP POP POP JUMP JUMPDEST DUP3 PUSH20 0xFFFFFFFFFFFFFFFFFFFFFFFFFFFFFFFFFFFFFFFF AND PUSH4 0x95EA7B3 PUSH1 0x4 PUSH1 0x0 SWAP1 SLOAD SWAP1 PUSH2 0x100 EXP SWAP1 DIV PUSH20 0xFFFFFFFFFFFFFFFFFFFFFFFFFFFFFFFFFFFFFFFF AND DUP4 PUSH1 0x40 MLOAD DUP4 PUSH4 0xFFFFFFFF AND PUSH1 0xE0 SHL DUP2 MSTORE PUSH1 0x4 ADD PUSH2 0x703 SWAP3 SWAP2 SWAP1 PUSH2 0xADB JUMP JUMPDEST PUSH1 0x20 PUSH1 0x40 MLOAD DUP1 DUP4 SUB DUP2 PUSH1 0x0 DUP8 GAS CALL ISZERO DUP1 ISZERO PUSH2 0x722 JUMPI RETURNDATASIZE PUSH1 0x0 DUP1 RETURNDATACOPY RETURNDATASIZE PUSH1 0x0 REVERT JUMPDEST POP POP POP POP PUSH1 0x40 MLOAD RETURNDATASIZE PUSH1 0x1F NOT PUSH1 0x1F DUP3 ADD AND DUP3 ADD DUP1 PUSH1 0x40 MSTORE POP DUP2 ADD SWAP1 PUSH2 0x746 SWAP2 SWAP1 PUSH2 0xB3C JUMP JUMPDEST POP PUSH1 0x7 PUSH1 0x0 SWAP1 SLOAD SWAP1 PUSH2 0x100 EXP SWAP1 DIV PUSH20 0xFFFFFFFFFFFFFFFFFFFFFFFFFFFFFFFFFFFFFFFF AND PUSH20 0xFFFFFFFFFFFFFFFFFFFFFFFFFFFFFFFFFFFFFFFF AND PUSH4 0xE2BBB158 DUP4 DUP4 PUSH1 0x40 MLOAD DUP4 PUSH4 0xFFFFFFFF AND PUSH1 0xE0 SHL DUP2 MSTORE PUSH1 0x4 ADD PUSH2 0x7A4 SWAP3 SWAP2 SWAP1 PUSH2 0xAB2 JUMP JUMPDEST PUSH1 0x0 PUSH1 0x40 MLOAD DUP1 DUP4 SUB DUP2 PUSH1 0x0 DUP8 DUP1 EXTCODESIZE ISZERO DUP1 ISZERO PUSH2 0x7BE JUMPI PUSH1 0x0 DUP1 REVERT JUMPDEST POP GAS CALL ISZERO DUP1 ISZERO PUSH2 0x7D2 JUMPI RETURNDATASIZE PUSH1 0x0 DUP1 RETURNDATACOPY RETURNDATASIZE PUSH1 0x0 REVERT JUMPDEST POP POP POP POP POP POP POP JUMP JUMPDEST PUSH1 0x0 PUSH1 0x40 MLOAD SWAP1 POP SWAP1 JUMP JUMPDEST PUSH1 0x0 DUP1 REVERT JUMPDEST PUSH1 0x0 DUP1 REVERT JUMPDEST PUSH1 0x0 DUP2 SWAP1 POP SWAP2 SWAP1 POP JUMP JUMPDEST PUSH2 0x802 DUP2 PUSH2 0x7EF JUMP JUMPDEST DUP2 EQ PUSH2 0x80D JUMPI PUSH1 0x0 DUP1 REVERT JUMPDEST POP JUMP JUMPDEST PUSH1 0x0 DUP2 CALLDATALOAD SWAP1 POP PUSH2 0x81F DUP2 PUSH2 0x7F9 JUMP JUMPDEST SWAP3 SWAP2 POP POP JUMP JUMPDEST PUSH1 0x0 PUSH1 0x20 DUP3 DUP5 SUB SLT ISZERO PUSH2 0x83B JUMPI PUSH2 0x83A PUSH2 0x7E5 JUMP JUMPDEST JUMPDEST PUSH1 0x0 PUSH2 0x849 DUP5 DUP3 DUP6 ADD PUSH2 0x810 JUMP JUMPDEST SWAP2 POP POP SWAP3 SWAP2 POP POP JUMP JUMPDEST PUSH1 0x0 DUP1 PUSH1 0x0 PUSH1 0x60 DUP5 DUP7 SUB SLT ISZERO PUSH2 0x86B JUMPI PUSH2 0x86A PUSH2 0x7E5 JUMP JUMPDEST JUMPDEST PUSH1 0x0 PUSH2 0x879 DUP7 DUP3 DUP8 ADD PUSH2 0x810 JUMP JUMPDEST SWAP4 POP POP PUSH1 0x20 PUSH2 0x88A DUP7 DUP3 DUP8 ADD PUSH2 0x810 JUMP JUMPDEST SWAP3 POP POP PUSH1 0x40 PUSH2 0x89B DUP7 DUP3 DUP8 ADD PUSH2 0x810 JUMP JUMPDEST SWAP2 POP POP SWAP3 POP SWAP3 POP SWAP3 JUMP JUMPDEST PUSH1 0x0 PUSH20 0xFFFFFFFFFFFFFFFFFFFFFFFFFFFFFFFFFFFFFFFF DUP3 AND SWAP1 POP SWAP2 SWAP1 POP JUMP JUMPDEST PUSH1 0x0 PUSH2 0x8D0 DUP3 PUSH2 0x8A5 JUMP JUMPDEST SWAP1 POP SWAP2 SWAP1 POP JUMP JUMPDEST PUSH2 0x8E0 DUP2 PUSH2 0x8C5 JUMP JUMPDEST DUP2 EQ PUSH2 0x8EB JUMPI PUSH1 0x0 DUP1 REVERT JUMPDEST POP JUMP JUMPDEST PUSH1 0x0 DUP2 CALLDATALOAD SWAP1 POP PUSH2 0x8FD DUP2 PUSH2 0x8D7 JUMP JUMPDEST SWAP3 SWAP2 POP POP JUMP JUMPDEST PUSH1 0x0 DUP1 PUSH1 0x0 PUSH1 0x60 DUP5 DUP7 SUB SLT ISZERO PUSH2 0x91C JUMPI PUSH2 0x91B PUSH2 0x7E5 JUMP JUMPDEST JUMPDEST PUSH1 0x0 PUSH2 0x92A DUP7 DUP3 DUP8 ADD PUSH2 0x8EE JUMP JUMPDEST SWAP4 POP POP PUSH1 0x20 PUSH2 0x93B DUP7 DUP3 DUP8 ADD PUSH2 0x810 JUMP JUMPDEST SWAP3 POP POP PUSH1 0x40 PUSH2 0x94C DUP7 DUP3 DUP8 ADD PUSH2 0x810 JUMP JUMPDEST SWAP2 POP POP SWAP3 POP SWAP3 POP SWAP3 JUMP JUMPDEST PUSH2 0x95F DUP2 PUSH2 0x8C5 JUMP JUMPDEST DUP3 MSTORE POP POP JUMP JUMPDEST PUSH1 0x0 PUSH1 0x20 DUP3 ADD SWAP1 POP PUSH2 0x97A PUSH1 0x0 DUP4 ADD DUP5 PUSH2 0x956 JUMP JUMPDEST SWAP3 SWAP2 POP POP JUMP JUMPDEST PUSH1 0x0 DUP1 REVERT JUMPDEST PUSH1 0x0 PUSH1 0x1F NOT PUSH1 0x1F DUP4 ADD AND SWAP1 POP SWAP2 SWAP1 POP JUMP JUMPDEST PUSH32 0x4E487B7100000000000000000000000000000000000000000000000000000000 PUSH1 0x0 MSTORE PUSH1 0x41 PUSH1 0x4 MSTORE PUSH1 0x24 PUSH1 0x0 REVERT JUMPDEST PUSH2 0x9CE DUP3 PUSH2 0x985 JUMP JUMPDEST DUP2 ADD DUP2 DUP2 LT PUSH8 0xFFFFFFFFFFFFFFFF DUP3 GT OR ISZERO PUSH2 0x9ED JUMPI PUSH2 0x9EC PUSH2 0x996 JUMP JUMPDEST JUMPDEST DUP1 PUSH1 0x40 MSTORE POP POP POP JUMP JUMPDEST PUSH1 0x0 PUSH2 0xA00 PUSH2 0x7DB JUMP JUMPDEST SWAP1 POP PUSH2 0xA0C DUP3 DUP3 PUSH2 0x9C5 JUMP JUMPDEST SWAP2 SWAP1 POP JUMP JUMPDEST PUSH1 0x0 DUP2 MLOAD SWAP1 POP PUSH2 0xA20 DUP2 PUSH2 0x7F9 JUMP JUMPDEST SWAP3 SWAP2 POP POP JUMP JUMPDEST PUSH1 0x0 PUSH1 0x40 DUP3 DUP5 SUB SLT ISZERO PUSH2 0xA3C JUMPI PUSH2 0xA3B PUSH2 0x980 JUMP JUMPDEST JUMPDEST PUSH2 0xA46 PUSH1 0x40 PUSH2 0x9F6 JUMP JUMPDEST SWAP1 POP PUSH1 0x0 PUSH2 0xA56 DUP5 DUP3 DUP6 ADD PUSH2 0xA11 JUMP JUMPDEST PUSH1 0x0 DUP4 ADD MSTORE POP PUSH1 0x20 PUSH2 0xA6A DUP5 DUP3 DUP6 ADD PUSH2 0xA11 JUMP JUMPDEST PUSH1 0x20 DUP4 ADD MSTORE POP SWAP3 SWAP2 POP POP JUMP JUMPDEST PUSH1 0x0 PUSH1 0x40 DUP3 DUP5 SUB SLT ISZERO PUSH2 0xA8C JUMPI PUSH2 0xA8B PUSH2 0x7E5 JUMP JUMPDEST JUMPDEST PUSH1 0x0 PUSH2 0xA9A DUP5 DUP3 DUP6 ADD PUSH2 0xA26 JUMP JUMPDEST SWAP2 POP POP SWAP3 SWAP2 POP POP JUMP JUMPDEST PUSH2 0xAAC DUP2 PUSH2 0x7EF JUMP JUMPDEST DUP3 MSTORE POP POP JUMP JUMPDEST PUSH1 0x0 PUSH1 0x40 DUP3 ADD SWAP1 POP PUSH2 0xAC7 PUSH1 0x0 DUP4 ADD DUP6 PUSH2 0xAA3 JUMP JUMPDEST PUSH2 0xAD4 PUSH1 0x20 DUP4 ADD DUP5 PUSH2 0xAA3 JUMP JUMPDEST SWAP4 SWAP3 POP POP POP JUMP JUMPDEST PUSH1 0x0 PUSH1 0x40 DUP3 ADD SWAP1 POP PUSH2 0xAF0 PUSH1 0x0 DUP4 ADD DUP6 PUSH2 0x956 JUMP JUMPDEST PUSH2 0xAFD PUSH1 0x20 DUP4 ADD DUP5 PUSH2 0xAA3 JUMP JUMPDEST SWAP4 SWAP3 POP POP POP JUMP JUMPDEST PUSH1 0x0 DUP2 ISZERO ISZERO SWAP1 POP SWAP2 SWAP1 POP JUMP JUMPDEST PUSH2 0xB19 DUP2 PUSH2 0xB04 JUMP JUMPDEST DUP2 EQ PUSH2 0xB24 JUMPI PUSH1 0x0 DUP1 REVERT JUMPDEST POP JUMP JUMPDEST PUSH1 0x0 DUP2 MLOAD SWAP1 POP PUSH2 0xB36 DUP2 PUSH2 0xB10 JUMP JUMPDEST SWAP3 SWAP2 POP POP JUMP JUMPDEST PUSH1 0x0 PUSH1 0x20 DUP3 DUP5 SUB SLT ISZERO PUSH2 0xB52 JUMPI PUSH2 0xB51 PUSH2 0x7E5 JUMP JUMPDEST JUMPDEST PUSH1 0x0 PUSH2 0xB60 DUP5 DUP3 DUP6 ADD PUSH2 0xB27 JUMP JUMPDEST SWAP2 POP POP SWAP3 SWAP2 POP POP JUMP JUMPDEST PUSH1 0x0 PUSH1 0x60 DUP3 ADD SWAP1 POP PUSH2 0xB7E PUSH1 0x0 DUP4 ADD DUP7 PUSH2 0x956 JUMP JUMPDEST PUSH2 0xB8B PUSH1 0x20 DUP4 ADD DUP6 PUSH2 0x956 JUMP JUMPDEST PUSH2 0xB98 PUSH1 0x40 DUP4 ADD DUP5 PUSH2 0xAA3 JUMP JUMPDEST SWAP5 SWAP4 POP POP POP POP JUMP JUMPDEST PUSH1 0x0 DUP3 DUP3 MSTORE PUSH1 0x20 DUP3 ADD SWAP1 POP SWAP3 SWAP2 POP POP JUMP JUMPDEST PUSH32 0x6D746F6B656E207472616E73666572206572726F722100000000000000000000 PUSH1 0x0 DUP3 ADD MSTORE POP JUMP JUMPDEST PUSH1 0x0 PUSH2 0xBE7 PUSH1 0x16 DUP4 PUSH2 0xBA0 JUMP JUMPDEST SWAP2 POP PUSH2 0xBF2 DUP3 PUSH2 0xBB1 JUMP JUMPDEST PUSH1 0x20 DUP3 ADD SWAP1 POP SWAP2 SWAP1 POP JUMP JUMPDEST PUSH1 0x0 PUSH1 0x20 DUP3 ADD SWAP1 POP DUP2 DUP2 SUB PUSH1 0x0 DUP4 ADD MSTORE PUSH2 0xC16 DUP2 PUSH2 0xBDA JUMP JUMPDEST SWAP1 POP SWAP2 SWAP1 POP JUMP JUMPDEST PUSH32 0x6D73672E76616C75652073686F756C642062696767676572207468616E20616D PUSH1 0x0 DUP3 ADD MSTORE PUSH32 0x6F756E744554484D696E00000000000000000000000000000000000000000000 PUSH1 0x20 DUP3 ADD MSTORE POP JUMP JUMPDEST PUSH1 0x0 PUSH2 0xC79 PUSH1 0x2A DUP4 PUSH2 0xBA0 JUMP JUMPDEST SWAP2 POP PUSH2 0xC84 DUP3 PUSH2 0xC1D JUMP JUMPDEST PUSH1 0x40 DUP3 ADD SWAP1 POP SWAP2 SWAP1 POP JUMP JUMPDEST PUSH1 0x0 PUSH1 0x20 DUP3 ADD SWAP1 POP DUP2 DUP2 SUB PUSH1 0x0 DUP4 ADD MSTORE PUSH2 0xCA8 DUP2 PUSH2 0xC6C JUMP JUMPDEST SWAP1 POP SWAP2 SWAP1 POP JUMP JUMPDEST PUSH1 0x0 PUSH1 0xC0 DUP3 ADD SWAP1 POP PUSH2 0xCC4 PUSH1 0x0 DUP4 ADD DUP10 PUSH2 0x956 JUMP JUMPDEST PUSH2 0xCD1 PUSH1 0x20 DUP4 ADD DUP9 PUSH2 0xAA3 JUMP JUMPDEST PUSH2 0xCDE PUSH1 0x40 DUP4 ADD DUP8 PUSH2 0xAA3 JUMP JUMPDEST PUSH2 0xCEB PUSH1 0x60 DUP4 ADD DUP7 PUSH2 0xAA3 JUMP JUMPDEST PUSH2 0xCF8 PUSH1 0x80 DUP4 ADD DUP6 PUSH2 0x956 JUMP JUMPDEST PUSH2 0xD05 PUSH1 0xA0 DUP4 ADD DUP5 PUSH2 0xAA3 JUMP JUMPDEST SWAP8 SWAP7 POP POP POP POP POP POP POP JUMP JUMPDEST PUSH1 0x0 DUP1 PUSH1 0x0 PUSH1 0x60 DUP5 DUP7 SUB SLT ISZERO PUSH2 0xD29 JUMPI PUSH2 0xD28 PUSH2 0x7E5 JUMP JUMPDEST JUMPDEST PUSH1 0x0 PUSH2 0xD37 DUP7 DUP3 DUP8 ADD PUSH2 0xA11 JUMP JUMPDEST SWAP4 POP POP PUSH1 0x20 PUSH2 0xD48 DUP7 DUP3 DUP8 ADD PUSH2 0xA11 JUMP JUMPDEST SWAP3 POP POP PUSH1 0x40 PUSH2 0xD59 DUP7 DUP3 DUP8 ADD PUSH2 0xA11 JUMP JUMPDEST SWAP2 POP POP SWAP3 POP SWAP3 POP SWAP3 JUMP JUMPDEST PUSH32 0x4E487B7100000000000000000000000000000000000000000000000000000000 PUSH1 0x0 MSTORE PUSH1 0x32 PUSH1 0x4 MSTORE PUSH1 0x24 PUSH1 0x0 REVERT JUMPDEST PUSH1 0x0 DUP2 MLOAD SWAP1 POP SWAP2 SWAP1 POP JUMP JUMPDEST PUSH1 0x0 DUP3 DUP3 MSTORE PUSH1 0x20 DUP3 ADD SWAP1 POP SWAP3 SWAP2 POP POP JUMP JUMPDEST PUSH1 0x0 DUP2 SWAP1 POP PUSH1 0x20 DUP3 ADD SWAP1 POP SWAP2 SWAP1 POP JUMP JUMPDEST PUSH2 0xDC7 DUP2 PUSH2 0x8C5 JUMP JUMPDEST DUP3 MSTORE POP POP JUMP JUMPDEST PUSH1 0x0 PUSH2 0xDD9 DUP4 DUP4 PUSH2 0xDBE JUMP JUMPDEST PUSH1 0x20 DUP4 ADD SWAP1 POP SWAP3 SWAP2 POP POP JUMP JUMPDEST PUSH1 0x0 PUSH1 0x20 DUP3 ADD SWAP1 POP SWAP2 SWAP1 POP JUMP JUMPDEST PUSH1 0x0 PUSH2 0xDFD DUP3 PUSH2 0xD92 JUMP JUMPDEST PUSH2 0xE07 DUP2 DUP6 PUSH2 0xD9D JUMP JUMPDEST SWAP4 POP PUSH2 0xE12 DUP4 PUSH2 0xDAE JUMP JUMPDEST DUP1 PUSH1 0x0 JUMPDEST DUP4 DUP2 LT ISZERO PUSH2 0xE43 JUMPI DUP2 MLOAD PUSH2 0xE2A DUP9 DUP3 PUSH2 0xDCD JUMP JUMPDEST SWAP8 POP PUSH2 0xE35 DUP4 PUSH2 0xDE5 JUMP JUMPDEST SWAP3 POP POP PUSH1 0x1 DUP2 ADD SWAP1 POP PUSH2 0xE16 JUMP JUMPDEST POP DUP6 SWAP4 POP POP POP POP SWAP3 SWAP2 POP POP JUMP JUMPDEST PUSH1 0x0 PUSH1 0x80 DUP3 ADD SWAP1 POP PUSH2 0xE65 PUSH1 0x0 DUP4 ADD DUP8 PUSH2 0xAA3 JUMP JUMPDEST DUP2 DUP2 SUB PUSH1 0x20 DUP4 ADD MSTORE PUSH2 0xE77 DUP2 DUP7 PUSH2 0xDF2 JUMP JUMPDEST SWAP1 POP PUSH2 0xE86 PUSH1 0x40 DUP4 ADD DUP6 PUSH2 0x956 JUMP JUMPDEST PUSH2 0xE93 PUSH1 0x60 DUP4 ADD DUP5 PUSH2 0xAA3 JUMP JUMPDEST SWAP6 SWAP5 POP POP POP POP POP JUMP JUMPDEST PUSH1 0x0 DUP1 REVERT JUMPDEST PUSH1 0x0 PUSH8 0xFFFFFFFFFFFFFFFF DUP3 GT ISZERO PUSH2 0xEBC JUMPI PUSH2 0xEBB PUSH2 0x996 JUMP JUMPDEST JUMPDEST PUSH1 0x20 DUP3 MUL SWAP1 POP PUSH1 0x20 DUP2 ADD SWAP1 POP SWAP2 SWAP1 POP JUMP JUMPDEST PUSH1 0x0 DUP1 REVERT JUMPDEST PUSH1 0x0 PUSH2 0xEE5 PUSH2 0xEE0 DUP5 PUSH2 0xEA1 JUMP JUMPDEST PUSH2 0x9F6 JUMP JUMPDEST SWAP1 POP DUP1 DUP4 DUP3 MSTORE PUSH1 0x20 DUP3 ADD SWAP1 POP PUSH1 0x20 DUP5 MUL DUP4 ADD DUP6 DUP2 GT ISZERO PUSH2 0xF08 JUMPI PUSH2 0xF07 PUSH2 0xECD JUMP JUMPDEST JUMPDEST DUP4 JUMPDEST DUP2 DUP2 LT ISZERO PUSH2 0xF31 JUMPI DUP1 PUSH2 0xF1D DUP9 DUP3 PUSH2 0xA11 JUMP JUMPDEST DUP5 MSTORE PUSH1 0x20 DUP5 ADD SWAP4 POP POP PUSH1 0x20 DUP2 ADD SWAP1 POP PUSH2 0xF0A JUMP JUMPDEST POP POP POP SWAP4 SWAP3 POP POP POP JUMP JUMPDEST PUSH1 0x0 DUP3 PUSH1 0x1F DUP4 ADD SLT PUSH2 0xF50 JUMPI PUSH2 0xF4F PUSH2 0xE9C JUMP JUMPDEST JUMPDEST DUP2 MLOAD PUSH2 0xF60 DUP5 DUP3 PUSH1 0x20 DUP7 ADD PUSH2 0xED2 JUMP JUMPDEST SWAP2 POP POP SWAP3 SWAP2 POP POP JUMP JUMPDEST PUSH1 0x0 PUSH1 0x20 DUP3 DUP5 SUB SLT ISZERO PUSH2 0xF7F JUMPI PUSH2 0xF7E PUSH2 0x7E5 JUMP JUMPDEST JUMPDEST PUSH1 0x0 DUP3 ADD MLOAD PUSH8 0xFFFFFFFFFFFFFFFF DUP2 GT ISZERO PUSH2 0xF9D JUMPI PUSH2 0xF9C PUSH2 0x7EA JUMP JUMPDEST JUMPDEST PUSH2 0xFA9 DUP5 DUP3 DUP6 ADD PUSH2 0xF3B JUMP JUMPDEST SWAP2 POP POP SWAP3 SWAP2 POP POP JUMP INVALID LOG2 PUSH5 0x6970667358 0x22 SLT KECCAK256 0x4B MLOAD MULMOD DUP1 SELFBALANCE 0xDD SWAP2 0x27 0xE0 SELFDESTRUCT 0xE7 TIMESTAMP DUP13 0xA6 0xCB 0xD2 0xCC SWAP12 INVALID 0x5F 0xF7 SWAP6 DUP13 MULMOD 0xBB 0xB7 0xF7 0x5D 0x23 EXTCODESIZE PUSH25 0xA964736F6C634300080D003300000000000000000000000000 "
				},
				"gasEstimates": {
					"creation": {
						"codeDepositCost": "814400",
						"executionCost": "201392",
						"totalCost": "1015792"
					},
					"external": {
						"addLiquidity(uint256,uint256,uint256)": "infinite",
						"buyExactTokenByETH(uint256)": "infinite",
						"depositToMasterChef(address,uint256,uint256)": "infinite",
						"withdraw(uint256)": "infinite"
					}
				},
				"methodIdentifiers": {
					"addLiquidity(uint256,uint256,uint256)": "422f1043",
					"buyExactTokenByETH(uint256)": "a93f74e0",
					"depositToMasterChef(address,uint256,uint256)": "fc55d2bf",
					"withdraw(uint256)": "2e1a7d4d"
				}
			},
			"userdoc": {
				"kind": "user",
				"methods": {},
				"version": 1
			}
		}
	}
}