{
	"Code-hardhat-ethersJs/contracts/MyTokenMarket.sol": {
		"MyTokenMarket": {
			"abi": [
				{
					"inputs": [],
					"stateMutability": "nonpayable",
					"type": "constructor"
				},
				{
					"inputs": [
						{
							"internalType": "uint256",
							"name": "amountMyTokenDesired",
							"type": "uint256"
						}
					],
					"name": "addLiquidity",
					"outputs": [
						{
							"internalType": "uint256",
							"name": "amountOfLp",
							"type": "uint256"
						}
					],
					"stateMutability": "payable",
					"type": "function"
				},
				{
					"inputs": [
						{
							"internalType": "uint256",
							"name": "amountOutMin",
							"type": "uint256"
						}
					],
					"name": "buyExactTokenByETH",
					"outputs": [],
					"stateMutability": "payable",
					"type": "function"
				},
				{
					"inputs": [
						{
							"internalType": "address",
							"name": "lpAddress",
							"type": "address"
						},
						{
							"internalType": "uint256",
							"name": "pid",
							"type": "uint256"
						},
						{
							"internalType": "uint256",
							"name": "amount",
							"type": "uint256"
						}
					],
					"name": "depositToMasterChef",
					"outputs": [],
					"stateMutability": "nonpayable",
					"type": "function"
				},
				{
					"inputs": [
						{
							"internalType": "uint256",
							"name": "pid",
							"type": "uint256"
						},
						{
							"internalType": "address",
							"name": "user",
							"type": "address"
						}
					],
					"name": "withdraw",
					"outputs": [],
					"stateMutability": "nonpayable",
					"type": "function"
				}
			],
			"devdoc": {
				"kind": "dev",
				"methods": {},
				"version": 1
			},
			"evm": {
				"assembly": "    /* \"Code-hardhat-ethersJs/contracts/MyTokenMarket.sol\":264:3356  contract MyTokenMarket{... */\n  mstore(0x40, 0x80)\n    /* \"Code-hardhat-ethersJs/contracts/MyTokenMarket.sol\":537:579  0x7a250d5630B4cF539739dF2C5dAcb4c659F2488D */\n  0x7a250d5630b4cf539739df2c5dacb4c659f2488d\n    /* \"Code-hardhat-ethersJs/contracts/MyTokenMarket.sol\":516:579  address uv2address = 0x7a250d5630B4cF539739dF2C5dAcb4c659F2488D */\n  0x00\n  dup1\n  0x0100\n  exp\n  dup2\n  sload\n  dup2\n  0xffffffffffffffffffffffffffffffffffffffff\n  mul\n  not\n  and\n  swap1\n  dup4\n  0xffffffffffffffffffffffffffffffffffffffff\n  and\n  mul\n  or\n  swap1\n  sstore\n  pop\n    /* \"Code-hardhat-ethersJs/contracts/MyTokenMarket.sol\":607:649  0xc778417E063141139Fce010982780140Aa0cD5Ab */\n  0xc778417e063141139fce010982780140aa0cd5ab\n    /* \"Code-hardhat-ethersJs/contracts/MyTokenMarket.sol\":585:649  address wethaddress = 0xc778417E063141139Fce010982780140Aa0cD5Ab */\n  0x01\n  exp(0x0100, 0x00)\n  dup2\n  sload\n  dup2\n  0xffffffffffffffffffffffffffffffffffffffff\n  mul\n  not\n  and\n  swap1\n  dup4\n  0xffffffffffffffffffffffffffffffffffffffff\n  and\n  mul\n  or\n  swap1\n  sstore\n  pop\n    /* \"Code-hardhat-ethersJs/contracts/MyTokenMarket.sol\":680:722  0x549F978C19a5AC86D906052639E317B57724ef44 */\n  0x549f978c19a5ac86d906052639e317b57724ef44\n    /* \"Code-hardhat-ethersJs/contracts/MyTokenMarket.sol\":655:722  address mytokenaddress = 0x549F978C19a5AC86D906052639E317B57724ef44 */\n  0x02\n  exp(0x0100, 0x00)\n  dup2\n  sload\n  dup2\n  0xffffffffffffffffffffffffffffffffffffffff\n  mul\n  not\n  and\n  swap1\n  dup4\n  0xffffffffffffffffffffffffffffffffffffffff\n  and\n  mul\n  or\n  swap1\n  sstore\n  pop\n    /* \"Code-hardhat-ethersJs/contracts/MyTokenMarket.sol\":751:793  0xf42A08C0EA66ee4A474336087A6C17E9EA6c9dE9 */\n  0xf42a08c0ea66ee4a474336087a6c17e9ea6c9de9\n    /* \"Code-hardhat-ethersJs/contracts/MyTokenMarket.sol\":728:793  address sushiaddress = 0xf42A08C0EA66ee4A474336087A6C17E9EA6c9dE9 */\n  0x03\n  exp(0x0100, 0x00)\n  dup2\n  sload\n  dup2\n  0xffffffffffffffffffffffffffffffffffffffff\n  mul\n  not\n  and\n  swap1\n  dup4\n  0xffffffffffffffffffffffffffffffffffffffff\n  and\n  mul\n  or\n  swap1\n  sstore\n  pop\n    /* \"Code-hardhat-ethersJs/contracts/MyTokenMarket.sol\":827:869  0xd9DFA8c6b37cfDF16668fE0465896f4A1B9b2c4F */\n  0xd9dfa8c6b37cfdf16668fe0465896f4a1b9b2c4f\n    /* \"Code-hardhat-ethersJs/contracts/MyTokenMarket.sol\":799:869  address masterchefaddress = 0xd9DFA8c6b37cfDF16668fE0465896f4A1B9b2c4F */\n  0x04\n  exp(0x0100, 0x00)\n  dup2\n  sload\n  dup2\n  0xffffffffffffffffffffffffffffffffffffffff\n  mul\n  not\n  and\n  swap1\n  dup4\n  0xffffffffffffffffffffffffffffffffffffffff\n  and\n  mul\n  or\n  swap1\n  sstore\n  pop\n    /* \"Code-hardhat-ethersJs/contracts/MyTokenMarket.sol\":925:935  uv2address */\n  0x00\n  dup1\n  sload\n  swap1\n  0x0100\n  exp\n  swap1\n  div\n  0xffffffffffffffffffffffffffffffffffffffff\n  and\n    /* \"Code-hardhat-ethersJs/contracts/MyTokenMarket.sol\":875:936  IUniswapV2Router02 uv2router = IUniswapV2Router02(uv2address) */\n  0x05\n  exp(0x0100, 0x00)\n  dup2\n  sload\n  dup2\n  0xffffffffffffffffffffffffffffffffffffffff\n  mul\n  not\n  and\n  swap1\n  dup4\n  0xffffffffffffffffffffffffffffffffffffffff\n  and\n  mul\n  or\n  swap1\n  sstore\n  pop\n    /* \"Code-hardhat-ethersJs/contracts/MyTokenMarket.sol\":965:979  mytokenaddress */\n  0x02\n  0x00\n  swap1\n  sload\n  swap1\n  0x0100\n  exp\n  swap1\n  div\n  0xffffffffffffffffffffffffffffffffffffffff\n  and\n    /* \"Code-hardhat-ethersJs/contracts/MyTokenMarket.sol\":942:980  IERC20 mtoken = IERC20(mytokenaddress) */\n  0x06\n  exp(0x0100, 0x00)\n  dup2\n  sload\n  dup2\n  0xffffffffffffffffffffffffffffffffffffffff\n  mul\n  not\n  and\n  swap1\n  dup4\n  0xffffffffffffffffffffffffffffffffffffffff\n  and\n  mul\n  or\n  swap1\n  sstore\n  pop\n    /* \"Code-hardhat-ethersJs/contracts/MyTokenMarket.sol\":1023:1040  masterchefaddress */\n  0x04\n  0x00\n  swap1\n  sload\n  swap1\n  0x0100\n  exp\n  swap1\n  div\n  0xffffffffffffffffffffffffffffffffffffffff\n  and\n    /* \"Code-hardhat-ethersJs/contracts/MyTokenMarket.sol\":986:1041  IMasterChef masterChef = IMasterChef(masterchefaddress) */\n  0x07\n  exp(0x0100, 0x00)\n  dup2\n  sload\n  dup2\n  0xffffffffffffffffffffffffffffffffffffffff\n  mul\n  not\n  and\n  swap1\n  dup4\n  0xffffffffffffffffffffffffffffffffffffffff\n  and\n  mul\n  or\n  swap1\n  sstore\n  pop\n    /* \"Code-hardhat-ethersJs/contracts/MyTokenMarket.sol\":1047:1067  constructor(){... */\n  callvalue\n  dup1\n  iszero\n  tag_1\n  jumpi\n  0x00\n  dup1\n  revert\ntag_1:\n  pop\n    /* \"Code-hardhat-ethersJs/contracts/MyTokenMarket.sol\":264:3356  contract MyTokenMarket{... */\n  dataSize(sub_0)\n  dup1\n  dataOffset(sub_0)\n  0x00\n  codecopy\n  0x00\n  return\nstop\n\nsub_0: assembly {\n        /* \"Code-hardhat-ethersJs/contracts/MyTokenMarket.sol\":264:3356  contract MyTokenMarket{... */\n      mstore(0x40, 0x80)\n      jumpi(tag_1, lt(calldatasize, 0x04))\n      shr(0xe0, calldataload(0x00))\n      dup1\n      0xf714ce\n      eq\n      tag_2\n      jumpi\n      dup1\n      0x51c6590a\n      eq\n      tag_3\n      jumpi\n      dup1\n      0xa93f74e0\n      eq\n      tag_4\n      jumpi\n      dup1\n      0xfc55d2bf\n      eq\n      tag_5\n      jumpi\n    tag_1:\n      0x00\n      dup1\n      revert\n        /* \"Code-hardhat-ethersJs/contracts/MyTokenMarket.sol\":3006:3352  function withdraw(uint256 pid,address user)public{... */\n    tag_2:\n      callvalue\n      dup1\n      iszero\n      tag_6\n      jumpi\n      0x00\n      dup1\n      revert\n    tag_6:\n      pop\n      tag_7\n      0x04\n      dup1\n      calldatasize\n      sub\n      dup2\n      add\n      swap1\n      tag_8\n      swap2\n      swap1\n      tag_9\n      jump\t// in\n    tag_8:\n      tag_10\n      jump\t// in\n    tag_7:\n      stop\n        /* \"Code-hardhat-ethersJs/contracts/MyTokenMarket.sol\":1606:2146  function addLiquidity(... */\n    tag_3:\n      tag_11\n      0x04\n      dup1\n      calldatasize\n      sub\n      dup2\n      add\n      swap1\n      tag_12\n      swap2\n      swap1\n      tag_13\n      jump\t// in\n    tag_12:\n      tag_14\n      jump\t// in\n    tag_11:\n      mload(0x40)\n      tag_15\n      swap2\n      swap1\n      tag_16\n      jump\t// in\n    tag_15:\n      mload(0x40)\n      dup1\n      swap2\n      sub\n      swap1\n      return\n        /* \"Code-hardhat-ethersJs/contracts/MyTokenMarket.sol\":2675:2999  function buyExactTokenByETH(uint amountOutMin)public payable{... */\n    tag_4:\n      tag_17\n      0x04\n      dup1\n      calldatasize\n      sub\n      dup2\n      add\n      swap1\n      tag_18\n      swap2\n      swap1\n      tag_13\n      jump\t// in\n    tag_18:\n      tag_19\n      jump\t// in\n    tag_17:\n      stop\n        /* \"Code-hardhat-ethersJs/contracts/MyTokenMarket.sol\":2397:2668  function depositToMasterChef(address lpAddress,uint256 pid, uint256 amount)public{... */\n    tag_5:\n      callvalue\n      dup1\n      iszero\n      tag_20\n      jumpi\n      0x00\n      dup1\n      revert\n    tag_20:\n      pop\n      tag_21\n      0x04\n      dup1\n      calldatasize\n      sub\n      dup2\n      add\n      swap1\n      tag_22\n      swap2\n      swap1\n      tag_23\n      jump\t// in\n    tag_22:\n      tag_24\n      jump\t// in\n    tag_21:\n      stop\n        /* \"Code-hardhat-ethersJs/contracts/MyTokenMarket.sol\":3006:3352  function withdraw(uint256 pid,address user)public{... */\n    tag_10:\n        /* \"Code-hardhat-ethersJs/contracts/MyTokenMarket.sol\":3065:3101  IMasterChef.UserInfo memory userInfo */\n      0x00\n        /* \"Code-hardhat-ethersJs/contracts/MyTokenMarket.sol\":3104:3114  masterChef */\n      0x07\n      0x00\n      swap1\n      sload\n      swap1\n      0x0100\n      exp\n      swap1\n      div\n      0xffffffffffffffffffffffffffffffffffffffff\n      and\n        /* \"Code-hardhat-ethersJs/contracts/MyTokenMarket.sol\":3104:3123  masterChef.userInfo */\n      0xffffffffffffffffffffffffffffffffffffffff\n      and\n      0x1959a002\n        /* \"Code-hardhat-ethersJs/contracts/MyTokenMarket.sol\":3124:3128  user */\n      dup4\n        /* \"Code-hardhat-ethersJs/contracts/MyTokenMarket.sol\":3104:3129  masterChef.userInfo(user) */\n      mload(0x40)\n      dup3\n      0xffffffff\n      and\n      0xe0\n      shl\n      dup2\n      mstore\n      0x04\n      add\n      tag_26\n      swap2\n      swap1\n      tag_27\n      jump\t// in\n    tag_26:\n      0x40\n      dup1\n      mload\n      dup1\n      dup4\n      sub\n      dup2\n      dup7\n      gas\n      staticcall\n      iszero\n      dup1\n      iszero\n      tag_29\n      jumpi\n      returndatasize\n      0x00\n      dup1\n      returndatacopy\n      revert(0x00, returndatasize)\n    tag_29:\n      pop\n      pop\n      pop\n      pop\n      mload(0x40)\n      returndatasize\n      not(0x1f)\n      0x1f\n      dup3\n      add\n      and\n      dup3\n      add\n      dup1\n      0x40\n      mstore\n      pop\n      dup2\n      add\n      swap1\n      tag_30\n      swap2\n      swap1\n      tag_31\n      jump\t// in\n    tag_30:\n        /* \"Code-hardhat-ethersJs/contracts/MyTokenMarket.sol\":3065:3129  IMasterChef.UserInfo memory userInfo = masterChef.userInfo(user) */\n      swap1\n      pop\n        /* \"Code-hardhat-ethersJs/contracts/MyTokenMarket.sol\":3139:3175  IMasterChef.PoolInfo memory poolInfo */\n      0x00\n        /* \"Code-hardhat-ethersJs/contracts/MyTokenMarket.sol\":3178:3188  masterChef */\n      0x07\n      0x00\n      swap1\n      sload\n      swap1\n      0x0100\n      exp\n      swap1\n      div\n      0xffffffffffffffffffffffffffffffffffffffff\n      and\n        /* \"Code-hardhat-ethersJs/contracts/MyTokenMarket.sol\":3178:3197  masterChef.poolInfo */\n      0xffffffffffffffffffffffffffffffffffffffff\n      and\n      0x1526fe27\n        /* \"Code-hardhat-ethersJs/contracts/MyTokenMarket.sol\":3198:3201  pid */\n      dup6\n        /* \"Code-hardhat-ethersJs/contracts/MyTokenMarket.sol\":3178:3202  masterChef.poolInfo(pid) */\n      mload(0x40)\n      dup3\n      0xffffffff\n      and\n      0xe0\n      shl\n      dup2\n      mstore\n      0x04\n      add\n      tag_32\n      swap2\n      swap1\n      tag_16\n      jump\t// in\n    tag_32:\n      0x80\n      mload(0x40)\n      dup1\n      dup4\n      sub\n      dup2\n      dup7\n      gas\n      staticcall\n      iszero\n      dup1\n      iszero\n      tag_34\n      jumpi\n      returndatasize\n      0x00\n      dup1\n      returndatacopy\n      revert(0x00, returndatasize)\n    tag_34:\n      pop\n      pop\n      pop\n      pop\n      mload(0x40)\n      returndatasize\n      not(0x1f)\n      0x1f\n      dup3\n      add\n      and\n      dup3\n      add\n      dup1\n      0x40\n      mstore\n      pop\n      dup2\n      add\n      swap1\n      tag_35\n      swap2\n      swap1\n      tag_36\n      jump\t// in\n    tag_35:\n        /* \"Code-hardhat-ethersJs/contracts/MyTokenMarket.sol\":3139:3202  IMasterChef.PoolInfo memory poolInfo = masterChef.poolInfo(pid) */\n      swap1\n      pop\n        /* \"Code-hardhat-ethersJs/contracts/MyTokenMarket.sol\":3212:3222  masterChef */\n      0x07\n      0x00\n      swap1\n      sload\n      swap1\n      0x0100\n      exp\n      swap1\n      div\n      0xffffffffffffffffffffffffffffffffffffffff\n      and\n        /* \"Code-hardhat-ethersJs/contracts/MyTokenMarket.sol\":3212:3231  masterChef.withdraw */\n      0xffffffffffffffffffffffffffffffffffffffff\n      and\n      0x441a3e70\n        /* \"Code-hardhat-ethersJs/contracts/MyTokenMarket.sol\":3232:3235  pid */\n      dup6\n        /* \"Code-hardhat-ethersJs/contracts/MyTokenMarket.sol\":3236:3244  userInfo */\n      dup5\n        /* \"Code-hardhat-ethersJs/contracts/MyTokenMarket.sol\":3236:3251  userInfo.amount */\n      0x00\n      add\n      mload\n        /* \"Code-hardhat-ethersJs/contracts/MyTokenMarket.sol\":3212:3252  masterChef.withdraw(pid,userInfo.amount) */\n      mload(0x40)\n      dup4\n      0xffffffff\n      and\n      0xe0\n      shl\n      dup2\n      mstore\n      0x04\n      add\n      tag_37\n      swap3\n      swap2\n      swap1\n      tag_38\n      jump\t// in\n    tag_37:\n      0x00\n      mload(0x40)\n      dup1\n      dup4\n      sub\n      dup2\n      0x00\n      dup8\n      dup1\n      extcodesize\n      iszero\n      dup1\n      iszero\n      tag_39\n      jumpi\n      0x00\n      dup1\n      revert\n    tag_39:\n      pop\n      gas\n      call\n      iszero\n      dup1\n      iszero\n      tag_41\n      jumpi\n      returndatasize\n      0x00\n      dup1\n      returndatacopy\n      revert(0x00, returndatasize)\n    tag_41:\n      pop\n      pop\n      pop\n      pop\n        /* \"Code-hardhat-ethersJs/contracts/MyTokenMarket.sol\":3055:3352  {... */\n      pop\n      pop\n        /* \"Code-hardhat-ethersJs/contracts/MyTokenMarket.sol\":3006:3352  function withdraw(uint256 pid,address user)public{... */\n      pop\n      pop\n      jump\t// out\n        /* \"Code-hardhat-ethersJs/contracts/MyTokenMarket.sol\":1606:2146  function addLiquidity(... */\n    tag_14:\n        /* \"Code-hardhat-ethersJs/contracts/MyTokenMarket.sol\":1694:1712  uint256 amountOfLp */\n      0x00\n        /* \"Code-hardhat-ethersJs/contracts/MyTokenMarket.sol\":1761:1767  mtoken */\n      0x06\n      0x00\n      swap1\n      sload\n      swap1\n      0x0100\n      exp\n      swap1\n      div\n      0xffffffffffffffffffffffffffffffffffffffff\n      and\n        /* \"Code-hardhat-ethersJs/contracts/MyTokenMarket.sol\":1761:1775  mtoken.approve */\n      0xffffffffffffffffffffffffffffffffffffffff\n      and\n      0x095ea7b3\n        /* \"Code-hardhat-ethersJs/contracts/MyTokenMarket.sol\":1784:1793  uv2router */\n      0x05\n      0x00\n      swap1\n      sload\n      swap1\n      0x0100\n      exp\n      swap1\n      div\n      0xffffffffffffffffffffffffffffffffffffffff\n      and\n        /* \"Code-hardhat-ethersJs/contracts/MyTokenMarket.sol\":1796:1816  amountMyTokenDesired */\n      dup5\n        /* \"Code-hardhat-ethersJs/contracts/MyTokenMarket.sol\":1761:1817  mtoken.approve(address(uv2router), amountMyTokenDesired) */\n      mload(0x40)\n      dup4\n      0xffffffff\n      and\n      0xe0\n      shl\n      dup2\n      mstore\n      0x04\n      add\n      tag_43\n      swap3\n      swap2\n      swap1\n      tag_44\n      jump\t// in\n    tag_43:\n      0x20\n      mload(0x40)\n      dup1\n      dup4\n      sub\n      dup2\n      0x00\n      dup8\n      gas\n      call\n      iszero\n      dup1\n      iszero\n      tag_46\n      jumpi\n      returndatasize\n      0x00\n      dup1\n      returndatacopy\n      revert(0x00, returndatasize)\n    tag_46:\n      pop\n      pop\n      pop\n      pop\n      mload(0x40)\n      returndatasize\n      not(0x1f)\n      0x1f\n      dup3\n      add\n      and\n      dup3\n      add\n      dup1\n      0x40\n      mstore\n      pop\n      dup2\n      add\n      swap1\n      tag_47\n      swap2\n      swap1\n      tag_48\n      jump\t// in\n    tag_47:\n      pop\n        /* \"Code-hardhat-ethersJs/contracts/MyTokenMarket.sol\":1827:1839  bool success */\n      0x00\n        /* \"Code-hardhat-ethersJs/contracts/MyTokenMarket.sol\":1842:1848  mtoken */\n      0x06\n      0x00\n      swap1\n      sload\n      swap1\n      0x0100\n      exp\n      swap1\n      div\n      0xffffffffffffffffffffffffffffffffffffffff\n      and\n        /* \"Code-hardhat-ethersJs/contracts/MyTokenMarket.sol\":1842:1861  mtoken.transferFrom */\n      0xffffffffffffffffffffffffffffffffffffffff\n      and\n      0x23b872dd\n        /* \"Code-hardhat-ethersJs/contracts/MyTokenMarket.sol\":1862:1872  msg.sender */\n      caller\n        /* \"Code-hardhat-ethersJs/contracts/MyTokenMarket.sol\":1882:1886  this */\n      address\n        /* \"Code-hardhat-ethersJs/contracts/MyTokenMarket.sol\":1889:1909  amountMyTokenDesired */\n      dup7\n        /* \"Code-hardhat-ethersJs/contracts/MyTokenMarket.sol\":1842:1910  mtoken.transferFrom(msg.sender, address(this), amountMyTokenDesired) */\n      mload(0x40)\n      dup5\n      0xffffffff\n      and\n      0xe0\n      shl\n      dup2\n      mstore\n      0x04\n      add\n      tag_49\n      swap4\n      swap3\n      swap2\n      swap1\n      tag_50\n      jump\t// in\n    tag_49:\n      0x20\n      mload(0x40)\n      dup1\n      dup4\n      sub\n      dup2\n      0x00\n      dup8\n      gas\n      call\n      iszero\n      dup1\n      iszero\n      tag_52\n      jumpi\n      returndatasize\n      0x00\n      dup1\n      returndatacopy\n      revert(0x00, returndatasize)\n    tag_52:\n      pop\n      pop\n      pop\n      pop\n      mload(0x40)\n      returndatasize\n      not(0x1f)\n      0x1f\n      dup3\n      add\n      and\n      dup3\n      add\n      dup1\n      0x40\n      mstore\n      pop\n      dup2\n      add\n      swap1\n      tag_53\n      swap2\n      swap1\n      tag_48\n      jump\t// in\n    tag_53:\n        /* \"Code-hardhat-ethersJs/contracts/MyTokenMarket.sol\":1827:1910  bool success = mtoken.transferFrom(msg.sender, address(this), amountMyTokenDesired) */\n      swap1\n      pop\n        /* \"Code-hardhat-ethersJs/contracts/MyTokenMarket.sol\":1928:1935  success */\n      dup1\n        /* \"Code-hardhat-ethersJs/contracts/MyTokenMarket.sol\":1920:1962  require(success, \"mtoken transfer error!\") */\n      tag_54\n      jumpi\n      mload(0x40)\n      0x08c379a000000000000000000000000000000000000000000000000000000000\n      dup2\n      mstore\n      0x04\n      add\n      tag_55\n      swap1\n      tag_56\n      jump\t// in\n    tag_55:\n      mload(0x40)\n      dup1\n      swap2\n      sub\n      swap1\n      revert\n    tag_54:\n        /* \"Code-hardhat-ethersJs/contracts/MyTokenMarket.sol\":1973:1989  uint amountToken */\n      0x00\n        /* \"Code-hardhat-ethersJs/contracts/MyTokenMarket.sol\":1995:2004  uv2router */\n      0x05\n      0x00\n      swap1\n      sload\n      swap1\n      0x0100\n      exp\n      swap1\n      div\n      0xffffffffffffffffffffffffffffffffffffffff\n      and\n        /* \"Code-hardhat-ethersJs/contracts/MyTokenMarket.sol\":1995:2020  uv2router.addLiquidityETH */\n      0xffffffffffffffffffffffffffffffffffffffff\n      and\n      0xf305d719\n        /* \"Code-hardhat-ethersJs/contracts/MyTokenMarket.sol\":2028:2037  msg.value */\n      callvalue\n        /* \"Code-hardhat-ethersJs/contracts/MyTokenMarket.sol\":2040:2054  mytokenaddress */\n      0x02\n      0x00\n      swap1\n      sload\n      swap1\n      0x0100\n      exp\n      swap1\n      div\n      0xffffffffffffffffffffffffffffffffffffffff\n      and\n        /* \"Code-hardhat-ethersJs/contracts/MyTokenMarket.sol\":2056:2076  amountMyTokenDesired */\n      dup8\n        /* \"Code-hardhat-ethersJs/contracts/MyTokenMarket.sol\":2078:2079  0 */\n      0x00\n        /* \"Code-hardhat-ethersJs/contracts/MyTokenMarket.sol\":2081:2082  0 */\n      dup1\n        /* \"Code-hardhat-ethersJs/contracts/MyTokenMarket.sol\":2084:2094  msg.sender */\n      caller\n        /* \"Code-hardhat-ethersJs/contracts/MyTokenMarket.sol\":2095:2110  block.timestamp */\n      timestamp\n        /* \"Code-hardhat-ethersJs/contracts/MyTokenMarket.sol\":1995:2111  uv2router.addLiquidityETH{value: msg.value}( mytokenaddress, amountMyTokenDesired, 0, 0, msg.sender,block.timestamp) */\n      mload(0x40)\n      dup9\n      0xffffffff\n      and\n      0xe0\n      shl\n      dup2\n      mstore\n      0x04\n      add\n      tag_57\n      swap7\n      swap6\n      swap5\n      swap4\n      swap3\n      swap2\n      swap1\n      tag_58\n      jump\t// in\n    tag_57:\n      0x60\n      mload(0x40)\n      dup1\n      dup4\n      sub\n      dup2\n      dup6\n      dup9\n      gas\n      call\n      iszero\n      dup1\n      iszero\n      tag_60\n      jumpi\n      returndatasize\n      0x00\n      dup1\n      returndatacopy\n      revert(0x00, returndatasize)\n    tag_60:\n      pop\n      pop\n      pop\n      pop\n      pop\n      mload(0x40)\n      returndatasize\n      not(0x1f)\n      0x1f\n      dup3\n      add\n      and\n      dup3\n      add\n      dup1\n      0x40\n      mstore\n      pop\n      dup2\n      add\n      swap1\n      tag_61\n      swap2\n      swap1\n      tag_62\n      jump\t// in\n    tag_61:\n        /* \"Code-hardhat-ethersJs/contracts/MyTokenMarket.sol\":1972:2111  (uint amountToken,,) = uv2router.addLiquidityETH{value: msg.value}( mytokenaddress, amountMyTokenDesired, 0, 0, msg.sender,block.timestamp) */\n      pop\n      pop\n      swap1\n      pop\n        /* \"Code-hardhat-ethersJs/contracts/MyTokenMarket.sol\":2128:2139  amountToken */\n      dup1\n        /* \"Code-hardhat-ethersJs/contracts/MyTokenMarket.sol\":2121:2139  return amountToken */\n      swap3\n      pop\n      pop\n      pop\n        /* \"Code-hardhat-ethersJs/contracts/MyTokenMarket.sol\":1606:2146  function addLiquidity(... */\n      swap2\n      swap1\n      pop\n      jump\t// out\n        /* \"Code-hardhat-ethersJs/contracts/MyTokenMarket.sol\":2675:2999  function buyExactTokenByETH(uint amountOutMin)public payable{... */\n    tag_19:\n        /* \"Code-hardhat-ethersJs/contracts/MyTokenMarket.sol\":2749:2770  address[] memory path */\n      0x00\n        /* \"Code-hardhat-ethersJs/contracts/MyTokenMarket.sol\":2787:2788  2 */\n      0x02\n        /* \"Code-hardhat-ethersJs/contracts/MyTokenMarket.sol\":2773:2789  new address[](2) */\n      0xffffffffffffffff\n      dup2\n      gt\n      iszero\n      tag_64\n      jumpi\n      tag_65\n      tag_66\n      jump\t// in\n    tag_65:\n    tag_64:\n      mload(0x40)\n      swap1\n      dup1\n      dup3\n      mstore\n      dup1\n      0x20\n      mul\n      0x20\n      add\n      dup3\n      add\n      0x40\n      mstore\n      dup1\n      iszero\n      tag_67\n      jumpi\n      dup2\n      0x20\n      add\n      0x20\n      dup3\n      mul\n      dup1\n      calldatasize\n      dup4\n      calldatacopy\n      dup1\n      dup3\n      add\n      swap2\n      pop\n      pop\n      swap1\n      pop\n    tag_67:\n      pop\n        /* \"Code-hardhat-ethersJs/contracts/MyTokenMarket.sol\":2749:2789  address[] memory path = new address[](2) */\n      swap1\n      pop\n        /* \"Code-hardhat-ethersJs/contracts/MyTokenMarket.sol\":2821:2832  wethaddress */\n      0x01\n      0x00\n      swap1\n      sload\n      swap1\n      0x0100\n      exp\n      swap1\n      div\n      0xffffffffffffffffffffffffffffffffffffffff\n      and\n        /* \"Code-hardhat-ethersJs/contracts/MyTokenMarket.sol\":2803:2807  path */\n      dup2\n        /* \"Code-hardhat-ethersJs/contracts/MyTokenMarket.sol\":2808:2809  0 */\n      0x00\n        /* \"Code-hardhat-ethersJs/contracts/MyTokenMarket.sol\":2803:2810  path[0] */\n      dup2\n      mload\n      dup2\n      lt\n      tag_68\n      jumpi\n      tag_69\n      tag_70\n      jump\t// in\n    tag_69:\n    tag_68:\n      0x20\n      mul\n      0x20\n      add\n      add\n        /* \"Code-hardhat-ethersJs/contracts/MyTokenMarket.sol\":2803:2833  path[0] = address(wethaddress) */\n      swap1\n      0xffffffffffffffffffffffffffffffffffffffff\n      and\n      swap1\n      dup2\n      0xffffffffffffffffffffffffffffffffffffffff\n      and\n      dup2\n      mstore\n      pop\n      pop\n        /* \"Code-hardhat-ethersJs/contracts/MyTokenMarket.sol\":2865:2879  mytokenaddress */\n      0x02\n      0x00\n      swap1\n      sload\n      swap1\n      0x0100\n      exp\n      swap1\n      div\n      0xffffffffffffffffffffffffffffffffffffffff\n      and\n        /* \"Code-hardhat-ethersJs/contracts/MyTokenMarket.sol\":2847:2851  path */\n      dup2\n        /* \"Code-hardhat-ethersJs/contracts/MyTokenMarket.sol\":2852:2853  1 */\n      0x01\n        /* \"Code-hardhat-ethersJs/contracts/MyTokenMarket.sol\":2847:2854  path[1] */\n      dup2\n      mload\n      dup2\n      lt\n      tag_71\n      jumpi\n      tag_72\n      tag_70\n      jump\t// in\n    tag_72:\n    tag_71:\n      0x20\n      mul\n      0x20\n      add\n      add\n        /* \"Code-hardhat-ethersJs/contracts/MyTokenMarket.sol\":2847:2880  path[1] = address(mytokenaddress) */\n      swap1\n      0xffffffffffffffffffffffffffffffffffffffff\n      and\n      swap1\n      dup2\n      0xffffffffffffffffffffffffffffffffffffffff\n      and\n      dup2\n      mstore\n      pop\n      pop\n        /* \"Code-hardhat-ethersJs/contracts/MyTokenMarket.sol\":2894:2903  uv2router */\n      0x05\n      0x00\n      swap1\n      sload\n      swap1\n      0x0100\n      exp\n      swap1\n      div\n      0xffffffffffffffffffffffffffffffffffffffff\n      and\n        /* \"Code-hardhat-ethersJs/contracts/MyTokenMarket.sol\":2894:2925  uv2router.swapExactETHForTokens */\n      0xffffffffffffffffffffffffffffffffffffffff\n      and\n      0x7ff36ab5\n        /* \"Code-hardhat-ethersJs/contracts/MyTokenMarket.sol\":2933:2942  msg.value */\n      callvalue\n        /* \"Code-hardhat-ethersJs/contracts/MyTokenMarket.sol\":2944:2956  amountOutMin */\n      dup5\n        /* \"Code-hardhat-ethersJs/contracts/MyTokenMarket.sol\":2958:2962  path */\n      dup5\n        /* \"Code-hardhat-ethersJs/contracts/MyTokenMarket.sol\":2964:2974  msg.sender */\n      caller\n        /* \"Code-hardhat-ethersJs/contracts/MyTokenMarket.sol\":2976:2991  block.timestamp */\n      timestamp\n        /* \"Code-hardhat-ethersJs/contracts/MyTokenMarket.sol\":2894:2992  uv2router.swapExactETHForTokens{value: msg.value}(amountOutMin, path, msg.sender, block.timestamp) */\n      mload(0x40)\n      dup7\n      0xffffffff\n      and\n      0xe0\n      shl\n      dup2\n      mstore\n      0x04\n      add\n      tag_73\n      swap5\n      swap4\n      swap3\n      swap2\n      swap1\n      tag_74\n      jump\t// in\n    tag_73:\n      0x00\n      mload(0x40)\n      dup1\n      dup4\n      sub\n      dup2\n      dup6\n      dup9\n      gas\n      call\n      iszero\n      dup1\n      iszero\n      tag_76\n      jumpi\n      returndatasize\n      0x00\n      dup1\n      returndatacopy\n      revert(0x00, returndatasize)\n    tag_76:\n      pop\n      pop\n      pop\n      pop\n      pop\n      mload(0x40)\n      returndatasize\n      0x00\n      dup3\n      returndatacopy\n      returndatasize\n      not(0x1f)\n      0x1f\n      dup3\n      add\n      and\n      dup3\n      add\n      dup1\n      0x40\n      mstore\n      pop\n      dup2\n      add\n      swap1\n      tag_77\n      swap2\n      swap1\n      tag_78\n      jump\t// in\n    tag_77:\n      pop\n        /* \"Code-hardhat-ethersJs/contracts/MyTokenMarket.sol\":2735:2999  {... */\n      pop\n        /* \"Code-hardhat-ethersJs/contracts/MyTokenMarket.sol\":2675:2999  function buyExactTokenByETH(uint amountOutMin)public payable{... */\n      pop\n      jump\t// out\n        /* \"Code-hardhat-ethersJs/contracts/MyTokenMarket.sol\":2397:2668  function depositToMasterChef(address lpAddress,uint256 pid, uint256 amount)public{... */\n    tag_24:\n        /* \"Code-hardhat-ethersJs/contracts/MyTokenMarket.sol\":2631:2641  masterChef */\n      0x07\n      0x00\n      swap1\n      sload\n      swap1\n      0x0100\n      exp\n      swap1\n      div\n      0xffffffffffffffffffffffffffffffffffffffff\n      and\n        /* \"Code-hardhat-ethersJs/contracts/MyTokenMarket.sol\":2631:2649  masterChef.deposit */\n      0xffffffffffffffffffffffffffffffffffffffff\n      and\n      0xe2bbb158\n        /* \"Code-hardhat-ethersJs/contracts/MyTokenMarket.sol\":2650:2653  pid */\n      dup4\n        /* \"Code-hardhat-ethersJs/contracts/MyTokenMarket.sol\":2654:2660  amount */\n      dup4\n        /* \"Code-hardhat-ethersJs/contracts/MyTokenMarket.sol\":2631:2661  masterChef.deposit(pid,amount) */\n      mload(0x40)\n      dup4\n      0xffffffff\n      and\n      0xe0\n      shl\n      dup2\n      mstore\n      0x04\n      add\n      tag_80\n      swap3\n      swap2\n      swap1\n      tag_38\n      jump\t// in\n    tag_80:\n      0x00\n      mload(0x40)\n      dup1\n      dup4\n      sub\n      dup2\n      0x00\n      dup8\n      dup1\n      extcodesize\n      iszero\n      dup1\n      iszero\n      tag_81\n      jumpi\n      0x00\n      dup1\n      revert\n    tag_81:\n      pop\n      gas\n      call\n      iszero\n      dup1\n      iszero\n      tag_83\n      jumpi\n      returndatasize\n      0x00\n      dup1\n      returndatacopy\n      revert(0x00, returndatasize)\n    tag_83:\n      pop\n      pop\n      pop\n      pop\n        /* \"Code-hardhat-ethersJs/contracts/MyTokenMarket.sol\":2397:2668  function depositToMasterChef(address lpAddress,uint256 pid, uint256 amount)public{... */\n      pop\n      pop\n      pop\n      jump\t// out\n        /* \"#utility.yul\":7:82   */\n    tag_84:\n        /* \"#utility.yul\":40:46   */\n      0x00\n        /* \"#utility.yul\":73:75   */\n      0x40\n        /* \"#utility.yul\":67:76   */\n      mload\n        /* \"#utility.yul\":57:76   */\n      swap1\n      pop\n        /* \"#utility.yul\":7:82   */\n      swap1\n      jump\t// out\n        /* \"#utility.yul\":88:205   */\n    tag_85:\n        /* \"#utility.yul\":197:198   */\n      0x00\n        /* \"#utility.yul\":194:195   */\n      dup1\n        /* \"#utility.yul\":187:199   */\n      revert\n        /* \"#utility.yul\":211:328   */\n    tag_86:\n        /* \"#utility.yul\":320:321   */\n      0x00\n        /* \"#utility.yul\":317:318   */\n      dup1\n        /* \"#utility.yul\":310:322   */\n      revert\n        /* \"#utility.yul\":334:411   */\n    tag_87:\n        /* \"#utility.yul\":371:378   */\n      0x00\n        /* \"#utility.yul\":400:405   */\n      dup2\n        /* \"#utility.yul\":389:405   */\n      swap1\n      pop\n        /* \"#utility.yul\":334:411   */\n      swap2\n      swap1\n      pop\n      jump\t// out\n        /* \"#utility.yul\":417:539   */\n    tag_88:\n        /* \"#utility.yul\":490:514   */\n      tag_135\n        /* \"#utility.yul\":508:513   */\n      dup2\n        /* \"#utility.yul\":490:514   */\n      tag_87\n      jump\t// in\n    tag_135:\n        /* \"#utility.yul\":483:488   */\n      dup2\n        /* \"#utility.yul\":480:515   */\n      eq\n        /* \"#utility.yul\":470:533   */\n      tag_136\n      jumpi\n        /* \"#utility.yul\":529:530   */\n      0x00\n        /* \"#utility.yul\":526:527   */\n      dup1\n        /* \"#utility.yul\":519:531   */\n      revert\n        /* \"#utility.yul\":470:533   */\n    tag_136:\n        /* \"#utility.yul\":417:539   */\n      pop\n      jump\t// out\n        /* \"#utility.yul\":545:684   */\n    tag_89:\n        /* \"#utility.yul\":591:596   */\n      0x00\n        /* \"#utility.yul\":629:635   */\n      dup2\n        /* \"#utility.yul\":616:636   */\n      calldataload\n        /* \"#utility.yul\":607:636   */\n      swap1\n      pop\n        /* \"#utility.yul\":645:678   */\n      tag_138\n        /* \"#utility.yul\":672:677   */\n      dup2\n        /* \"#utility.yul\":645:678   */\n      tag_88\n      jump\t// in\n    tag_138:\n        /* \"#utility.yul\":545:684   */\n      swap3\n      swap2\n      pop\n      pop\n      jump\t// out\n        /* \"#utility.yul\":690:816   */\n    tag_90:\n        /* \"#utility.yul\":727:734   */\n      0x00\n        /* \"#utility.yul\":767:809   */\n      0xffffffffffffffffffffffffffffffffffffffff\n        /* \"#utility.yul\":760:765   */\n      dup3\n        /* \"#utility.yul\":756:810   */\n      and\n        /* \"#utility.yul\":745:810   */\n      swap1\n      pop\n        /* \"#utility.yul\":690:816   */\n      swap2\n      swap1\n      pop\n      jump\t// out\n        /* \"#utility.yul\":822:918   */\n    tag_91:\n        /* \"#utility.yul\":859:866   */\n      0x00\n        /* \"#utility.yul\":888:912   */\n      tag_141\n        /* \"#utility.yul\":906:911   */\n      dup3\n        /* \"#utility.yul\":888:912   */\n      tag_90\n      jump\t// in\n    tag_141:\n        /* \"#utility.yul\":877:912   */\n      swap1\n      pop\n        /* \"#utility.yul\":822:918   */\n      swap2\n      swap1\n      pop\n      jump\t// out\n        /* \"#utility.yul\":924:1046   */\n    tag_92:\n        /* \"#utility.yul\":997:1021   */\n      tag_143\n        /* \"#utility.yul\":1015:1020   */\n      dup2\n        /* \"#utility.yul\":997:1021   */\n      tag_91\n      jump\t// in\n    tag_143:\n        /* \"#utility.yul\":990:995   */\n      dup2\n        /* \"#utility.yul\":987:1022   */\n      eq\n        /* \"#utility.yul\":977:1040   */\n      tag_144\n      jumpi\n        /* \"#utility.yul\":1036:1037   */\n      0x00\n        /* \"#utility.yul\":1033:1034   */\n      dup1\n        /* \"#utility.yul\":1026:1038   */\n      revert\n        /* \"#utility.yul\":977:1040   */\n    tag_144:\n        /* \"#utility.yul\":924:1046   */\n      pop\n      jump\t// out\n        /* \"#utility.yul\":1052:1191   */\n    tag_93:\n        /* \"#utility.yul\":1098:1103   */\n      0x00\n        /* \"#utility.yul\":1136:1142   */\n      dup2\n        /* \"#utility.yul\":1123:1143   */\n      calldataload\n        /* \"#utility.yul\":1114:1143   */\n      swap1\n      pop\n        /* \"#utility.yul\":1152:1185   */\n      tag_146\n        /* \"#utility.yul\":1179:1184   */\n      dup2\n        /* \"#utility.yul\":1152:1185   */\n      tag_92\n      jump\t// in\n    tag_146:\n        /* \"#utility.yul\":1052:1191   */\n      swap3\n      swap2\n      pop\n      pop\n      jump\t// out\n        /* \"#utility.yul\":1197:1671   */\n    tag_9:\n        /* \"#utility.yul\":1265:1271   */\n      0x00\n        /* \"#utility.yul\":1273:1279   */\n      dup1\n        /* \"#utility.yul\":1322:1324   */\n      0x40\n        /* \"#utility.yul\":1310:1319   */\n      dup4\n        /* \"#utility.yul\":1301:1308   */\n      dup6\n        /* \"#utility.yul\":1297:1320   */\n      sub\n        /* \"#utility.yul\":1293:1325   */\n      slt\n        /* \"#utility.yul\":1290:1409   */\n      iszero\n      tag_148\n      jumpi\n        /* \"#utility.yul\":1328:1407   */\n      tag_149\n      tag_85\n      jump\t// in\n    tag_149:\n        /* \"#utility.yul\":1290:1409   */\n    tag_148:\n        /* \"#utility.yul\":1448:1449   */\n      0x00\n        /* \"#utility.yul\":1473:1526   */\n      tag_150\n        /* \"#utility.yul\":1518:1525   */\n      dup6\n        /* \"#utility.yul\":1509:1515   */\n      dup3\n        /* \"#utility.yul\":1498:1507   */\n      dup7\n        /* \"#utility.yul\":1494:1516   */\n      add\n        /* \"#utility.yul\":1473:1526   */\n      tag_89\n      jump\t// in\n    tag_150:\n        /* \"#utility.yul\":1463:1526   */\n      swap3\n      pop\n        /* \"#utility.yul\":1419:1536   */\n      pop\n        /* \"#utility.yul\":1575:1577   */\n      0x20\n        /* \"#utility.yul\":1601:1654   */\n      tag_151\n        /* \"#utility.yul\":1646:1653   */\n      dup6\n        /* \"#utility.yul\":1637:1643   */\n      dup3\n        /* \"#utility.yul\":1626:1635   */\n      dup7\n        /* \"#utility.yul\":1622:1644   */\n      add\n        /* \"#utility.yul\":1601:1654   */\n      tag_93\n      jump\t// in\n    tag_151:\n        /* \"#utility.yul\":1591:1654   */\n      swap2\n      pop\n        /* \"#utility.yul\":1546:1664   */\n      pop\n        /* \"#utility.yul\":1197:1671   */\n      swap3\n      pop\n      swap3\n      swap1\n      pop\n      jump\t// out\n        /* \"#utility.yul\":1677:2006   */\n    tag_13:\n        /* \"#utility.yul\":1736:1742   */\n      0x00\n        /* \"#utility.yul\":1785:1787   */\n      0x20\n        /* \"#utility.yul\":1773:1782   */\n      dup3\n        /* \"#utility.yul\":1764:1771   */\n      dup5\n        /* \"#utility.yul\":1760:1783   */\n      sub\n        /* \"#utility.yul\":1756:1788   */\n      slt\n        /* \"#utility.yul\":1753:1872   */\n      iszero\n      tag_153\n      jumpi\n        /* \"#utility.yul\":1791:1870   */\n      tag_154\n      tag_85\n      jump\t// in\n    tag_154:\n        /* \"#utility.yul\":1753:1872   */\n    tag_153:\n        /* \"#utility.yul\":1911:1912   */\n      0x00\n        /* \"#utility.yul\":1936:1989   */\n      tag_155\n        /* \"#utility.yul\":1981:1988   */\n      dup5\n        /* \"#utility.yul\":1972:1978   */\n      dup3\n        /* \"#utility.yul\":1961:1970   */\n      dup6\n        /* \"#utility.yul\":1957:1979   */\n      add\n        /* \"#utility.yul\":1936:1989   */\n      tag_89\n      jump\t// in\n    tag_155:\n        /* \"#utility.yul\":1926:1989   */\n      swap2\n      pop\n        /* \"#utility.yul\":1882:1999   */\n      pop\n        /* \"#utility.yul\":1677:2006   */\n      swap3\n      swap2\n      pop\n      pop\n      jump\t// out\n        /* \"#utility.yul\":2012:2130   */\n    tag_94:\n        /* \"#utility.yul\":2099:2123   */\n      tag_157\n        /* \"#utility.yul\":2117:2122   */\n      dup2\n        /* \"#utility.yul\":2099:2123   */\n      tag_87\n      jump\t// in\n    tag_157:\n        /* \"#utility.yul\":2094:2097   */\n      dup3\n        /* \"#utility.yul\":2087:2124   */\n      mstore\n        /* \"#utility.yul\":2012:2130   */\n      pop\n      pop\n      jump\t// out\n        /* \"#utility.yul\":2136:2358   */\n    tag_16:\n        /* \"#utility.yul\":2229:2233   */\n      0x00\n        /* \"#utility.yul\":2267:2269   */\n      0x20\n        /* \"#utility.yul\":2256:2265   */\n      dup3\n        /* \"#utility.yul\":2252:2270   */\n      add\n        /* \"#utility.yul\":2244:2270   */\n      swap1\n      pop\n        /* \"#utility.yul\":2280:2351   */\n      tag_159\n        /* \"#utility.yul\":2348:2349   */\n      0x00\n        /* \"#utility.yul\":2337:2346   */\n      dup4\n        /* \"#utility.yul\":2333:2350   */\n      add\n        /* \"#utility.yul\":2324:2330   */\n      dup5\n        /* \"#utility.yul\":2280:2351   */\n      tag_94\n      jump\t// in\n    tag_159:\n        /* \"#utility.yul\":2136:2358   */\n      swap3\n      swap2\n      pop\n      pop\n      jump\t// out\n        /* \"#utility.yul\":2364:2983   */\n    tag_23:\n        /* \"#utility.yul\":2441:2447   */\n      0x00\n        /* \"#utility.yul\":2449:2455   */\n      dup1\n        /* \"#utility.yul\":2457:2463   */\n      0x00\n        /* \"#utility.yul\":2506:2508   */\n      0x60\n        /* \"#utility.yul\":2494:2503   */\n      dup5\n        /* \"#utility.yul\":2485:2492   */\n      dup7\n        /* \"#utility.yul\":2481:2504   */\n      sub\n        /* \"#utility.yul\":2477:2509   */\n      slt\n        /* \"#utility.yul\":2474:2593   */\n      iszero\n      tag_161\n      jumpi\n        /* \"#utility.yul\":2512:2591   */\n      tag_162\n      tag_85\n      jump\t// in\n    tag_162:\n        /* \"#utility.yul\":2474:2593   */\n    tag_161:\n        /* \"#utility.yul\":2632:2633   */\n      0x00\n        /* \"#utility.yul\":2657:2710   */\n      tag_163\n        /* \"#utility.yul\":2702:2709   */\n      dup7\n        /* \"#utility.yul\":2693:2699   */\n      dup3\n        /* \"#utility.yul\":2682:2691   */\n      dup8\n        /* \"#utility.yul\":2678:2700   */\n      add\n        /* \"#utility.yul\":2657:2710   */\n      tag_93\n      jump\t// in\n    tag_163:\n        /* \"#utility.yul\":2647:2710   */\n      swap4\n      pop\n        /* \"#utility.yul\":2603:2720   */\n      pop\n        /* \"#utility.yul\":2759:2761   */\n      0x20\n        /* \"#utility.yul\":2785:2838   */\n      tag_164\n        /* \"#utility.yul\":2830:2837   */\n      dup7\n        /* \"#utility.yul\":2821:2827   */\n      dup3\n        /* \"#utility.yul\":2810:2819   */\n      dup8\n        /* \"#utility.yul\":2806:2828   */\n      add\n        /* \"#utility.yul\":2785:2838   */\n      tag_89\n      jump\t// in\n    tag_164:\n        /* \"#utility.yul\":2775:2838   */\n      swap3\n      pop\n        /* \"#utility.yul\":2730:2848   */\n      pop\n        /* \"#utility.yul\":2887:2889   */\n      0x40\n        /* \"#utility.yul\":2913:2966   */\n      tag_165\n        /* \"#utility.yul\":2958:2965   */\n      dup7\n        /* \"#utility.yul\":2949:2955   */\n      dup3\n        /* \"#utility.yul\":2938:2947   */\n      dup8\n        /* \"#utility.yul\":2934:2956   */\n      add\n        /* \"#utility.yul\":2913:2966   */\n      tag_89\n      jump\t// in\n    tag_165:\n        /* \"#utility.yul\":2903:2966   */\n      swap2\n      pop\n        /* \"#utility.yul\":2858:2976   */\n      pop\n        /* \"#utility.yul\":2364:2983   */\n      swap3\n      pop\n      swap3\n      pop\n      swap3\n      jump\t// out\n        /* \"#utility.yul\":2989:3107   */\n    tag_95:\n        /* \"#utility.yul\":3076:3100   */\n      tag_167\n        /* \"#utility.yul\":3094:3099   */\n      dup2\n        /* \"#utility.yul\":3076:3100   */\n      tag_91\n      jump\t// in\n    tag_167:\n        /* \"#utility.yul\":3071:3074   */\n      dup3\n        /* \"#utility.yul\":3064:3101   */\n      mstore\n        /* \"#utility.yul\":2989:3107   */\n      pop\n      pop\n      jump\t// out\n        /* \"#utility.yul\":3113:3335   */\n    tag_27:\n        /* \"#utility.yul\":3206:3210   */\n      0x00\n        /* \"#utility.yul\":3244:3246   */\n      0x20\n        /* \"#utility.yul\":3233:3242   */\n      dup3\n        /* \"#utility.yul\":3229:3247   */\n      add\n        /* \"#utility.yul\":3221:3247   */\n      swap1\n      pop\n        /* \"#utility.yul\":3257:3328   */\n      tag_169\n        /* \"#utility.yul\":3325:3326   */\n      0x00\n        /* \"#utility.yul\":3314:3323   */\n      dup4\n        /* \"#utility.yul\":3310:3327   */\n      add\n        /* \"#utility.yul\":3301:3307   */\n      dup5\n        /* \"#utility.yul\":3257:3328   */\n      tag_95\n      jump\t// in\n    tag_169:\n        /* \"#utility.yul\":3113:3335   */\n      swap3\n      swap2\n      pop\n      pop\n      jump\t// out\n        /* \"#utility.yul\":3341:3458   */\n    tag_96:\n        /* \"#utility.yul\":3450:3451   */\n      0x00\n        /* \"#utility.yul\":3447:3448   */\n      dup1\n        /* \"#utility.yul\":3440:3452   */\n      revert\n        /* \"#utility.yul\":3464:3566   */\n    tag_97:\n        /* \"#utility.yul\":3505:3511   */\n      0x00\n        /* \"#utility.yul\":3556:3558   */\n      0x1f\n        /* \"#utility.yul\":3552:3559   */\n      not\n        /* \"#utility.yul\":3547:3549   */\n      0x1f\n        /* \"#utility.yul\":3540:3545   */\n      dup4\n        /* \"#utility.yul\":3536:3550   */\n      add\n        /* \"#utility.yul\":3532:3560   */\n      and\n        /* \"#utility.yul\":3522:3560   */\n      swap1\n      pop\n        /* \"#utility.yul\":3464:3566   */\n      swap2\n      swap1\n      pop\n      jump\t// out\n        /* \"#utility.yul\":3572:3752   */\n    tag_66:\n        /* \"#utility.yul\":3620:3697   */\n      0x4e487b7100000000000000000000000000000000000000000000000000000000\n        /* \"#utility.yul\":3617:3618   */\n      0x00\n        /* \"#utility.yul\":3610:3698   */\n      mstore\n        /* \"#utility.yul\":3717:3721   */\n      0x41\n        /* \"#utility.yul\":3714:3715   */\n      0x04\n        /* \"#utility.yul\":3707:3722   */\n      mstore\n        /* \"#utility.yul\":3741:3745   */\n      0x24\n        /* \"#utility.yul\":3738:3739   */\n      0x00\n        /* \"#utility.yul\":3731:3746   */\n      revert\n        /* \"#utility.yul\":3758:4039   */\n    tag_98:\n        /* \"#utility.yul\":3841:3868   */\n      tag_174\n        /* \"#utility.yul\":3863:3867   */\n      dup3\n        /* \"#utility.yul\":3841:3868   */\n      tag_97\n      jump\t// in\n    tag_174:\n        /* \"#utility.yul\":3833:3839   */\n      dup2\n        /* \"#utility.yul\":3829:3869   */\n      add\n        /* \"#utility.yul\":3971:3977   */\n      dup2\n        /* \"#utility.yul\":3959:3969   */\n      dup2\n        /* \"#utility.yul\":3956:3978   */\n      lt\n        /* \"#utility.yul\":3935:3953   */\n      0xffffffffffffffff\n        /* \"#utility.yul\":3923:3933   */\n      dup3\n        /* \"#utility.yul\":3920:3954   */\n      gt\n        /* \"#utility.yul\":3917:3979   */\n      or\n        /* \"#utility.yul\":3914:4002   */\n      iszero\n      tag_175\n      jumpi\n        /* \"#utility.yul\":3982:4000   */\n      tag_176\n      tag_66\n      jump\t// in\n    tag_176:\n        /* \"#utility.yul\":3914:4002   */\n    tag_175:\n        /* \"#utility.yul\":4022:4032   */\n      dup1\n        /* \"#utility.yul\":4018:4020   */\n      0x40\n        /* \"#utility.yul\":4011:4033   */\n      mstore\n        /* \"#utility.yul\":3801:4039   */\n      pop\n        /* \"#utility.yul\":3758:4039   */\n      pop\n      pop\n      jump\t// out\n        /* \"#utility.yul\":4045:4174   */\n    tag_99:\n        /* \"#utility.yul\":4079:4085   */\n      0x00\n        /* \"#utility.yul\":4106:4126   */\n      tag_178\n      tag_84\n      jump\t// in\n    tag_178:\n        /* \"#utility.yul\":4096:4126   */\n      swap1\n      pop\n        /* \"#utility.yul\":4135:4168   */\n      tag_179\n        /* \"#utility.yul\":4163:4167   */\n      dup3\n        /* \"#utility.yul\":4155:4161   */\n      dup3\n        /* \"#utility.yul\":4135:4168   */\n      tag_98\n      jump\t// in\n    tag_179:\n        /* \"#utility.yul\":4045:4174   */\n      swap2\n      swap1\n      pop\n      jump\t// out\n        /* \"#utility.yul\":4303:4446   */\n    tag_101:\n        /* \"#utility.yul\":4360:4365   */\n      0x00\n        /* \"#utility.yul\":4391:4397   */\n      dup2\n        /* \"#utility.yul\":4385:4398   */\n      mload\n        /* \"#utility.yul\":4376:4398   */\n      swap1\n      pop\n        /* \"#utility.yul\":4407:4440   */\n      tag_182\n        /* \"#utility.yul\":4434:4439   */\n      dup2\n        /* \"#utility.yul\":4407:4440   */\n      tag_88\n      jump\t// in\n    tag_182:\n        /* \"#utility.yul\":4303:4446   */\n      swap3\n      swap2\n      pop\n      pop\n      jump\t// out\n        /* \"#utility.yul\":4487:5102   */\n    tag_102:\n        /* \"#utility.yul\":4572:4577   */\n      0x00\n        /* \"#utility.yul\":4616:4620   */\n      0x40\n        /* \"#utility.yul\":4604:4613   */\n      dup3\n        /* \"#utility.yul\":4599:4602   */\n      dup5\n        /* \"#utility.yul\":4595:4614   */\n      sub\n        /* \"#utility.yul\":4591:4621   */\n      slt\n        /* \"#utility.yul\":4588:4705   */\n      iszero\n      tag_184\n      jumpi\n        /* \"#utility.yul\":4624:4703   */\n      tag_185\n      tag_96\n      jump\t// in\n    tag_185:\n        /* \"#utility.yul\":4588:4705   */\n    tag_184:\n        /* \"#utility.yul\":4723:4744   */\n      tag_186\n        /* \"#utility.yul\":4739:4743   */\n      0x40\n        /* \"#utility.yul\":4723:4744   */\n      tag_99\n      jump\t// in\n    tag_186:\n        /* \"#utility.yul\":4714:4744   */\n      swap1\n      pop\n        /* \"#utility.yul\":4805:4806   */\n      0x00\n        /* \"#utility.yul\":4845:4905   */\n      tag_187\n        /* \"#utility.yul\":4901:4904   */\n      dup5\n        /* \"#utility.yul\":4892:4898   */\n      dup3\n        /* \"#utility.yul\":4881:4890   */\n      dup6\n        /* \"#utility.yul\":4877:4899   */\n      add\n        /* \"#utility.yul\":4845:4905   */\n      tag_101\n      jump\t// in\n    tag_187:\n        /* \"#utility.yul\":4838:4842   */\n      0x00\n        /* \"#utility.yul\":4831:4836   */\n      dup4\n        /* \"#utility.yul\":4827:4843   */\n      add\n        /* \"#utility.yul\":4820:4906   */\n      mstore\n        /* \"#utility.yul\":4754:4917   */\n      pop\n        /* \"#utility.yul\":4982:4984   */\n      0x20\n        /* \"#utility.yul\":5023:5083   */\n      tag_188\n        /* \"#utility.yul\":5079:5082   */\n      dup5\n        /* \"#utility.yul\":5070:5076   */\n      dup3\n        /* \"#utility.yul\":5059:5068   */\n      dup6\n        /* \"#utility.yul\":5055:5077   */\n      add\n        /* \"#utility.yul\":5023:5083   */\n      tag_101\n      jump\t// in\n    tag_188:\n        /* \"#utility.yul\":5016:5020   */\n      0x20\n        /* \"#utility.yul\":5009:5014   */\n      dup4\n        /* \"#utility.yul\":5005:5021   */\n      add\n        /* \"#utility.yul\":4998:5084   */\n      mstore\n        /* \"#utility.yul\":4927:5095   */\n      pop\n        /* \"#utility.yul\":4487:5102   */\n      swap3\n      swap2\n      pop\n      pop\n      jump\t// out\n        /* \"#utility.yul\":5108:5509   */\n    tag_31:\n        /* \"#utility.yul\":5203:5209   */\n      0x00\n        /* \"#utility.yul\":5252:5254   */\n      0x40\n        /* \"#utility.yul\":5240:5249   */\n      dup3\n        /* \"#utility.yul\":5231:5238   */\n      dup5\n        /* \"#utility.yul\":5227:5250   */\n      sub\n        /* \"#utility.yul\":5223:5255   */\n      slt\n        /* \"#utility.yul\":5220:5339   */\n      iszero\n      tag_190\n      jumpi\n        /* \"#utility.yul\":5258:5337   */\n      tag_191\n      tag_85\n      jump\t// in\n    tag_191:\n        /* \"#utility.yul\":5220:5339   */\n    tag_190:\n        /* \"#utility.yul\":5378:5379   */\n      0x00\n        /* \"#utility.yul\":5403:5492   */\n      tag_192\n        /* \"#utility.yul\":5484:5491   */\n      dup5\n        /* \"#utility.yul\":5475:5481   */\n      dup3\n        /* \"#utility.yul\":5464:5473   */\n      dup6\n        /* \"#utility.yul\":5460:5482   */\n      add\n        /* \"#utility.yul\":5403:5492   */\n      tag_102\n      jump\t// in\n    tag_192:\n        /* \"#utility.yul\":5393:5492   */\n      swap2\n      pop\n        /* \"#utility.yul\":5349:5502   */\n      pop\n        /* \"#utility.yul\":5108:5509   */\n      swap3\n      swap2\n      pop\n      pop\n      jump\t// out\n        /* \"#utility.yul\":5515:5624   */\n    tag_103:\n        /* \"#utility.yul\":5565:5572   */\n      0x00\n        /* \"#utility.yul\":5594:5618   */\n      tag_194\n        /* \"#utility.yul\":5612:5617   */\n      dup3\n        /* \"#utility.yul\":5594:5618   */\n      tag_91\n      jump\t// in\n    tag_194:\n        /* \"#utility.yul\":5583:5618   */\n      swap1\n      pop\n        /* \"#utility.yul\":5515:5624   */\n      swap2\n      swap1\n      pop\n      jump\t// out\n        /* \"#utility.yul\":5630:5778   */\n    tag_104:\n        /* \"#utility.yul\":5716:5753   */\n      tag_196\n        /* \"#utility.yul\":5747:5752   */\n      dup2\n        /* \"#utility.yul\":5716:5753   */\n      tag_103\n      jump\t// in\n    tag_196:\n        /* \"#utility.yul\":5709:5714   */\n      dup2\n        /* \"#utility.yul\":5706:5754   */\n      eq\n        /* \"#utility.yul\":5696:5772   */\n      tag_197\n      jumpi\n        /* \"#utility.yul\":5768:5769   */\n      0x00\n        /* \"#utility.yul\":5765:5766   */\n      dup1\n        /* \"#utility.yul\":5758:5770   */\n      revert\n        /* \"#utility.yul\":5696:5772   */\n    tag_197:\n        /* \"#utility.yul\":5630:5778   */\n      pop\n      jump\t// out\n        /* \"#utility.yul\":5784:5953   */\n    tag_105:\n        /* \"#utility.yul\":5854:5859   */\n      0x00\n        /* \"#utility.yul\":5885:5891   */\n      dup2\n        /* \"#utility.yul\":5879:5892   */\n      mload\n        /* \"#utility.yul\":5870:5892   */\n      swap1\n      pop\n        /* \"#utility.yul\":5901:5947   */\n      tag_199\n        /* \"#utility.yul\":5941:5946   */\n      dup2\n        /* \"#utility.yul\":5901:5947   */\n      tag_104\n      jump\t// in\n    tag_199:\n        /* \"#utility.yul\":5784:5953   */\n      swap3\n      swap2\n      pop\n      pop\n      jump\t// out\n        /* \"#utility.yul\":5994:6990   */\n    tag_106:\n        /* \"#utility.yul\":6079:6084   */\n      0x00\n        /* \"#utility.yul\":6123:6127   */\n      0x80\n        /* \"#utility.yul\":6111:6120   */\n      dup3\n        /* \"#utility.yul\":6106:6109   */\n      dup5\n        /* \"#utility.yul\":6102:6121   */\n      sub\n        /* \"#utility.yul\":6098:6128   */\n      slt\n        /* \"#utility.yul\":6095:6212   */\n      iszero\n      tag_201\n      jumpi\n        /* \"#utility.yul\":6131:6210   */\n      tag_202\n      tag_96\n      jump\t// in\n    tag_202:\n        /* \"#utility.yul\":6095:6212   */\n    tag_201:\n        /* \"#utility.yul\":6230:6251   */\n      tag_203\n        /* \"#utility.yul\":6246:6250   */\n      0x80\n        /* \"#utility.yul\":6230:6251   */\n      tag_99\n      jump\t// in\n    tag_203:\n        /* \"#utility.yul\":6221:6251   */\n      swap1\n      pop\n        /* \"#utility.yul\":6313:6314   */\n      0x00\n        /* \"#utility.yul\":6353:6426   */\n      tag_204\n        /* \"#utility.yul\":6422:6425   */\n      dup5\n        /* \"#utility.yul\":6413:6419   */\n      dup3\n        /* \"#utility.yul\":6402:6411   */\n      dup6\n        /* \"#utility.yul\":6398:6420   */\n      add\n        /* \"#utility.yul\":6353:6426   */\n      tag_105\n      jump\t// in\n    tag_204:\n        /* \"#utility.yul\":6346:6350   */\n      0x00\n        /* \"#utility.yul\":6339:6344   */\n      dup4\n        /* \"#utility.yul\":6335:6351   */\n      add\n        /* \"#utility.yul\":6328:6427   */\n      mstore\n        /* \"#utility.yul\":6261:6438   */\n      pop\n        /* \"#utility.yul\":6503:6505   */\n      0x20\n        /* \"#utility.yul\":6544:6604   */\n      tag_205\n        /* \"#utility.yul\":6600:6603   */\n      dup5\n        /* \"#utility.yul\":6591:6597   */\n      dup3\n        /* \"#utility.yul\":6580:6589   */\n      dup6\n        /* \"#utility.yul\":6576:6598   */\n      add\n        /* \"#utility.yul\":6544:6604   */\n      tag_101\n      jump\t// in\n    tag_205:\n        /* \"#utility.yul\":6537:6541   */\n      0x20\n        /* \"#utility.yul\":6530:6535   */\n      dup4\n        /* \"#utility.yul\":6526:6542   */\n      add\n        /* \"#utility.yul\":6519:6605   */\n      mstore\n        /* \"#utility.yul\":6448:6616   */\n      pop\n        /* \"#utility.yul\":6686:6688   */\n      0x40\n        /* \"#utility.yul\":6727:6787   */\n      tag_206\n        /* \"#utility.yul\":6783:6786   */\n      dup5\n        /* \"#utility.yul\":6774:6780   */\n      dup3\n        /* \"#utility.yul\":6763:6772   */\n      dup6\n        /* \"#utility.yul\":6759:6781   */\n      add\n        /* \"#utility.yul\":6727:6787   */\n      tag_101\n      jump\t// in\n    tag_206:\n        /* \"#utility.yul\":6720:6724   */\n      0x40\n        /* \"#utility.yul\":6713:6718   */\n      dup4\n        /* \"#utility.yul\":6709:6725   */\n      add\n        /* \"#utility.yul\":6702:6788   */\n      mstore\n        /* \"#utility.yul\":6626:6799   */\n      pop\n        /* \"#utility.yul\":6870:6872   */\n      0x60\n        /* \"#utility.yul\":6911:6971   */\n      tag_207\n        /* \"#utility.yul\":6967:6970   */\n      dup5\n        /* \"#utility.yul\":6958:6964   */\n      dup3\n        /* \"#utility.yul\":6947:6956   */\n      dup6\n        /* \"#utility.yul\":6943:6965   */\n      add\n        /* \"#utility.yul\":6911:6971   */\n      tag_101\n      jump\t// in\n    tag_207:\n        /* \"#utility.yul\":6904:6908   */\n      0x60\n        /* \"#utility.yul\":6897:6902   */\n      dup4\n        /* \"#utility.yul\":6893:6909   */\n      add\n        /* \"#utility.yul\":6886:6972   */\n      mstore\n        /* \"#utility.yul\":6809:6983   */\n      pop\n        /* \"#utility.yul\":5994:6990   */\n      swap3\n      swap2\n      pop\n      pop\n      jump\t// out\n        /* \"#utility.yul\":6996:7398   */\n    tag_36:\n        /* \"#utility.yul\":7091:7097   */\n      0x00\n        /* \"#utility.yul\":7140:7143   */\n      0x80\n        /* \"#utility.yul\":7128:7137   */\n      dup3\n        /* \"#utility.yul\":7119:7126   */\n      dup5\n        /* \"#utility.yul\":7115:7138   */\n      sub\n        /* \"#utility.yul\":7111:7144   */\n      slt\n        /* \"#utility.yul\":7108:7228   */\n      iszero\n      tag_209\n      jumpi\n        /* \"#utility.yul\":7147:7226   */\n      tag_210\n      tag_85\n      jump\t// in\n    tag_210:\n        /* \"#utility.yul\":7108:7228   */\n    tag_209:\n        /* \"#utility.yul\":7267:7268   */\n      0x00\n        /* \"#utility.yul\":7292:7381   */\n      tag_211\n        /* \"#utility.yul\":7373:7380   */\n      dup5\n        /* \"#utility.yul\":7364:7370   */\n      dup3\n        /* \"#utility.yul\":7353:7362   */\n      dup6\n        /* \"#utility.yul\":7349:7371   */\n      add\n        /* \"#utility.yul\":7292:7381   */\n      tag_106\n      jump\t// in\n    tag_211:\n        /* \"#utility.yul\":7282:7381   */\n      swap2\n      pop\n        /* \"#utility.yul\":7238:7391   */\n      pop\n        /* \"#utility.yul\":6996:7398   */\n      swap3\n      swap2\n      pop\n      pop\n      jump\t// out\n        /* \"#utility.yul\":7404:7736   */\n    tag_38:\n        /* \"#utility.yul\":7525:7529   */\n      0x00\n        /* \"#utility.yul\":7563:7565   */\n      0x40\n        /* \"#utility.yul\":7552:7561   */\n      dup3\n        /* \"#utility.yul\":7548:7566   */\n      add\n        /* \"#utility.yul\":7540:7566   */\n      swap1\n      pop\n        /* \"#utility.yul\":7576:7647   */\n      tag_213\n        /* \"#utility.yul\":7644:7645   */\n      0x00\n        /* \"#utility.yul\":7633:7642   */\n      dup4\n        /* \"#utility.yul\":7629:7646   */\n      add\n        /* \"#utility.yul\":7620:7626   */\n      dup6\n        /* \"#utility.yul\":7576:7647   */\n      tag_94\n      jump\t// in\n    tag_213:\n        /* \"#utility.yul\":7657:7729   */\n      tag_214\n        /* \"#utility.yul\":7725:7727   */\n      0x20\n        /* \"#utility.yul\":7714:7723   */\n      dup4\n        /* \"#utility.yul\":7710:7728   */\n      add\n        /* \"#utility.yul\":7701:7707   */\n      dup5\n        /* \"#utility.yul\":7657:7729   */\n      tag_94\n      jump\t// in\n    tag_214:\n        /* \"#utility.yul\":7404:7736   */\n      swap4\n      swap3\n      pop\n      pop\n      pop\n      jump\t// out\n        /* \"#utility.yul\":7742:8074   */\n    tag_44:\n        /* \"#utility.yul\":7863:7867   */\n      0x00\n        /* \"#utility.yul\":7901:7903   */\n      0x40\n        /* \"#utility.yul\":7890:7899   */\n      dup3\n        /* \"#utility.yul\":7886:7904   */\n      add\n        /* \"#utility.yul\":7878:7904   */\n      swap1\n      pop\n        /* \"#utility.yul\":7914:7985   */\n      tag_216\n        /* \"#utility.yul\":7982:7983   */\n      0x00\n        /* \"#utility.yul\":7971:7980   */\n      dup4\n        /* \"#utility.yul\":7967:7984   */\n      add\n        /* \"#utility.yul\":7958:7964   */\n      dup6\n        /* \"#utility.yul\":7914:7985   */\n      tag_95\n      jump\t// in\n    tag_216:\n        /* \"#utility.yul\":7995:8067   */\n      tag_217\n        /* \"#utility.yul\":8063:8065   */\n      0x20\n        /* \"#utility.yul\":8052:8061   */\n      dup4\n        /* \"#utility.yul\":8048:8066   */\n      add\n        /* \"#utility.yul\":8039:8045   */\n      dup5\n        /* \"#utility.yul\":7995:8067   */\n      tag_94\n      jump\t// in\n    tag_217:\n        /* \"#utility.yul\":7742:8074   */\n      swap4\n      swap3\n      pop\n      pop\n      pop\n      jump\t// out\n        /* \"#utility.yul\":8080:8170   */\n    tag_107:\n        /* \"#utility.yul\":8114:8121   */\n      0x00\n        /* \"#utility.yul\":8157:8162   */\n      dup2\n        /* \"#utility.yul\":8150:8163   */\n      iszero\n        /* \"#utility.yul\":8143:8164   */\n      iszero\n        /* \"#utility.yul\":8132:8164   */\n      swap1\n      pop\n        /* \"#utility.yul\":8080:8170   */\n      swap2\n      swap1\n      pop\n      jump\t// out\n        /* \"#utility.yul\":8176:8292   */\n    tag_108:\n        /* \"#utility.yul\":8246:8267   */\n      tag_220\n        /* \"#utility.yul\":8261:8266   */\n      dup2\n        /* \"#utility.yul\":8246:8267   */\n      tag_107\n      jump\t// in\n    tag_220:\n        /* \"#utility.yul\":8239:8244   */\n      dup2\n        /* \"#utility.yul\":8236:8268   */\n      eq\n        /* \"#utility.yul\":8226:8286   */\n      tag_221\n      jumpi\n        /* \"#utility.yul\":8282:8283   */\n      0x00\n        /* \"#utility.yul\":8279:8280   */\n      dup1\n        /* \"#utility.yul\":8272:8284   */\n      revert\n        /* \"#utility.yul\":8226:8286   */\n    tag_221:\n        /* \"#utility.yul\":8176:8292   */\n      pop\n      jump\t// out\n        /* \"#utility.yul\":8298:8435   */\n    tag_109:\n        /* \"#utility.yul\":8352:8357   */\n      0x00\n        /* \"#utility.yul\":8383:8389   */\n      dup2\n        /* \"#utility.yul\":8377:8390   */\n      mload\n        /* \"#utility.yul\":8368:8390   */\n      swap1\n      pop\n        /* \"#utility.yul\":8399:8429   */\n      tag_223\n        /* \"#utility.yul\":8423:8428   */\n      dup2\n        /* \"#utility.yul\":8399:8429   */\n      tag_108\n      jump\t// in\n    tag_223:\n        /* \"#utility.yul\":8298:8435   */\n      swap3\n      swap2\n      pop\n      pop\n      jump\t// out\n        /* \"#utility.yul\":8441:8786   */\n    tag_48:\n        /* \"#utility.yul\":8508:8514   */\n      0x00\n        /* \"#utility.yul\":8557:8559   */\n      0x20\n        /* \"#utility.yul\":8545:8554   */\n      dup3\n        /* \"#utility.yul\":8536:8543   */\n      dup5\n        /* \"#utility.yul\":8532:8555   */\n      sub\n        /* \"#utility.yul\":8528:8560   */\n      slt\n        /* \"#utility.yul\":8525:8644   */\n      iszero\n      tag_225\n      jumpi\n        /* \"#utility.yul\":8563:8642   */\n      tag_226\n      tag_85\n      jump\t// in\n    tag_226:\n        /* \"#utility.yul\":8525:8644   */\n    tag_225:\n        /* \"#utility.yul\":8683:8684   */\n      0x00\n        /* \"#utility.yul\":8708:8769   */\n      tag_227\n        /* \"#utility.yul\":8761:8768   */\n      dup5\n        /* \"#utility.yul\":8752:8758   */\n      dup3\n        /* \"#utility.yul\":8741:8750   */\n      dup6\n        /* \"#utility.yul\":8737:8759   */\n      add\n        /* \"#utility.yul\":8708:8769   */\n      tag_109\n      jump\t// in\n    tag_227:\n        /* \"#utility.yul\":8698:8769   */\n      swap2\n      pop\n        /* \"#utility.yul\":8654:8779   */\n      pop\n        /* \"#utility.yul\":8441:8786   */\n      swap3\n      swap2\n      pop\n      pop\n      jump\t// out\n        /* \"#utility.yul\":8792:9234   */\n    tag_50:\n        /* \"#utility.yul\":8941:8945   */\n      0x00\n        /* \"#utility.yul\":8979:8981   */\n      0x60\n        /* \"#utility.yul\":8968:8977   */\n      dup3\n        /* \"#utility.yul\":8964:8982   */\n      add\n        /* \"#utility.yul\":8956:8982   */\n      swap1\n      pop\n        /* \"#utility.yul\":8992:9063   */\n      tag_229\n        /* \"#utility.yul\":9060:9061   */\n      0x00\n        /* \"#utility.yul\":9049:9058   */\n      dup4\n        /* \"#utility.yul\":9045:9062   */\n      add\n        /* \"#utility.yul\":9036:9042   */\n      dup7\n        /* \"#utility.yul\":8992:9063   */\n      tag_95\n      jump\t// in\n    tag_229:\n        /* \"#utility.yul\":9073:9145   */\n      tag_230\n        /* \"#utility.yul\":9141:9143   */\n      0x20\n        /* \"#utility.yul\":9130:9139   */\n      dup4\n        /* \"#utility.yul\":9126:9144   */\n      add\n        /* \"#utility.yul\":9117:9123   */\n      dup6\n        /* \"#utility.yul\":9073:9145   */\n      tag_95\n      jump\t// in\n    tag_230:\n        /* \"#utility.yul\":9155:9227   */\n      tag_231\n        /* \"#utility.yul\":9223:9225   */\n      0x40\n        /* \"#utility.yul\":9212:9221   */\n      dup4\n        /* \"#utility.yul\":9208:9226   */\n      add\n        /* \"#utility.yul\":9199:9205   */\n      dup5\n        /* \"#utility.yul\":9155:9227   */\n      tag_94\n      jump\t// in\n    tag_231:\n        /* \"#utility.yul\":8792:9234   */\n      swap5\n      swap4\n      pop\n      pop\n      pop\n      pop\n      jump\t// out\n        /* \"#utility.yul\":9240:9409   */\n    tag_110:\n        /* \"#utility.yul\":9324:9335   */\n      0x00\n        /* \"#utility.yul\":9358:9364   */\n      dup3\n        /* \"#utility.yul\":9353:9356   */\n      dup3\n        /* \"#utility.yul\":9346:9365   */\n      mstore\n        /* \"#utility.yul\":9398:9402   */\n      0x20\n        /* \"#utility.yul\":9393:9396   */\n      dup3\n        /* \"#utility.yul\":9389:9403   */\n      add\n        /* \"#utility.yul\":9374:9403   */\n      swap1\n      pop\n        /* \"#utility.yul\":9240:9409   */\n      swap3\n      swap2\n      pop\n      pop\n      jump\t// out\n        /* \"#utility.yul\":9415:9587   */\n    tag_111:\n        /* \"#utility.yul\":9555:9579   */\n      0x6d746f6b656e207472616e73666572206572726f722100000000000000000000\n        /* \"#utility.yul\":9551:9552   */\n      0x00\n        /* \"#utility.yul\":9543:9549   */\n      dup3\n        /* \"#utility.yul\":9539:9553   */\n      add\n        /* \"#utility.yul\":9532:9580   */\n      mstore\n        /* \"#utility.yul\":9415:9587   */\n      pop\n      jump\t// out\n        /* \"#utility.yul\":9593:9959   */\n    tag_112:\n        /* \"#utility.yul\":9735:9738   */\n      0x00\n        /* \"#utility.yul\":9756:9823   */\n      tag_235\n        /* \"#utility.yul\":9820:9822   */\n      0x16\n        /* \"#utility.yul\":9815:9818   */\n      dup4\n        /* \"#utility.yul\":9756:9823   */\n      tag_110\n      jump\t// in\n    tag_235:\n        /* \"#utility.yul\":9749:9823   */\n      swap2\n      pop\n        /* \"#utility.yul\":9832:9925   */\n      tag_236\n        /* \"#utility.yul\":9921:9924   */\n      dup3\n        /* \"#utility.yul\":9832:9925   */\n      tag_111\n      jump\t// in\n    tag_236:\n        /* \"#utility.yul\":9950:9952   */\n      0x20\n        /* \"#utility.yul\":9945:9948   */\n      dup3\n        /* \"#utility.yul\":9941:9953   */\n      add\n        /* \"#utility.yul\":9934:9953   */\n      swap1\n      pop\n        /* \"#utility.yul\":9593:9959   */\n      swap2\n      swap1\n      pop\n      jump\t// out\n        /* \"#utility.yul\":9965:10384   */\n    tag_56:\n        /* \"#utility.yul\":10131:10135   */\n      0x00\n        /* \"#utility.yul\":10169:10171   */\n      0x20\n        /* \"#utility.yul\":10158:10167   */\n      dup3\n        /* \"#utility.yul\":10154:10172   */\n      add\n        /* \"#utility.yul\":10146:10172   */\n      swap1\n      pop\n        /* \"#utility.yul\":10218:10227   */\n      dup2\n        /* \"#utility.yul\":10212:10216   */\n      dup2\n        /* \"#utility.yul\":10208:10228   */\n      sub\n        /* \"#utility.yul\":10204:10205   */\n      0x00\n        /* \"#utility.yul\":10193:10202   */\n      dup4\n        /* \"#utility.yul\":10189:10206   */\n      add\n        /* \"#utility.yul\":10182:10229   */\n      mstore\n        /* \"#utility.yul\":10246:10377   */\n      tag_238\n        /* \"#utility.yul\":10372:10376   */\n      dup2\n        /* \"#utility.yul\":10246:10377   */\n      tag_112\n      jump\t// in\n    tag_238:\n        /* \"#utility.yul\":10238:10377   */\n      swap1\n      pop\n        /* \"#utility.yul\":9965:10384   */\n      swap2\n      swap1\n      pop\n      jump\t// out\n        /* \"#utility.yul\":10390:10475   */\n    tag_113:\n        /* \"#utility.yul\":10435:10442   */\n      0x00\n        /* \"#utility.yul\":10464:10469   */\n      dup2\n        /* \"#utility.yul\":10453:10469   */\n      swap1\n      pop\n        /* \"#utility.yul\":10390:10475   */\n      swap2\n      swap1\n      pop\n      jump\t// out\n        /* \"#utility.yul\":10481:10541   */\n    tag_114:\n        /* \"#utility.yul\":10509:10512   */\n      0x00\n        /* \"#utility.yul\":10530:10535   */\n      dup2\n        /* \"#utility.yul\":10523:10535   */\n      swap1\n      pop\n        /* \"#utility.yul\":10481:10541   */\n      swap2\n      swap1\n      pop\n      jump\t// out\n        /* \"#utility.yul\":10547:10705   */\n    tag_115:\n        /* \"#utility.yul\":10605:10614   */\n      0x00\n        /* \"#utility.yul\":10638:10699   */\n      tag_242\n        /* \"#utility.yul\":10656:10698   */\n      tag_243\n        /* \"#utility.yul\":10665:10697   */\n      tag_244\n        /* \"#utility.yul\":10691:10696   */\n      dup5\n        /* \"#utility.yul\":10665:10697   */\n      tag_113\n      jump\t// in\n    tag_244:\n        /* \"#utility.yul\":10656:10698   */\n      tag_114\n      jump\t// in\n    tag_243:\n        /* \"#utility.yul\":10638:10699   */\n      tag_87\n      jump\t// in\n    tag_242:\n        /* \"#utility.yul\":10625:10699   */\n      swap1\n      pop\n        /* \"#utility.yul\":10547:10705   */\n      swap2\n      swap1\n      pop\n      jump\t// out\n        /* \"#utility.yul\":10711:10858   */\n    tag_116:\n        /* \"#utility.yul\":10806:10851   */\n      tag_246\n        /* \"#utility.yul\":10845:10850   */\n      dup2\n        /* \"#utility.yul\":10806:10851   */\n      tag_115\n      jump\t// in\n    tag_246:\n        /* \"#utility.yul\":10801:10804   */\n      dup3\n        /* \"#utility.yul\":10794:10852   */\n      mstore\n        /* \"#utility.yul\":10711:10858   */\n      pop\n      pop\n      jump\t// out\n        /* \"#utility.yul\":10864:11671   */\n    tag_58:\n        /* \"#utility.yul\":11113:11117   */\n      0x00\n        /* \"#utility.yul\":11151:11154   */\n      0xc0\n        /* \"#utility.yul\":11140:11149   */\n      dup3\n        /* \"#utility.yul\":11136:11155   */\n      add\n        /* \"#utility.yul\":11128:11155   */\n      swap1\n      pop\n        /* \"#utility.yul\":11165:11236   */\n      tag_248\n        /* \"#utility.yul\":11233:11234   */\n      0x00\n        /* \"#utility.yul\":11222:11231   */\n      dup4\n        /* \"#utility.yul\":11218:11235   */\n      add\n        /* \"#utility.yul\":11209:11215   */\n      dup10\n        /* \"#utility.yul\":11165:11236   */\n      tag_95\n      jump\t// in\n    tag_248:\n        /* \"#utility.yul\":11246:11318   */\n      tag_249\n        /* \"#utility.yul\":11314:11316   */\n      0x20\n        /* \"#utility.yul\":11303:11312   */\n      dup4\n        /* \"#utility.yul\":11299:11317   */\n      add\n        /* \"#utility.yul\":11290:11296   */\n      dup9\n        /* \"#utility.yul\":11246:11318   */\n      tag_94\n      jump\t// in\n    tag_249:\n        /* \"#utility.yul\":11328:11408   */\n      tag_250\n        /* \"#utility.yul\":11404:11406   */\n      0x40\n        /* \"#utility.yul\":11393:11402   */\n      dup4\n        /* \"#utility.yul\":11389:11407   */\n      add\n        /* \"#utility.yul\":11380:11386   */\n      dup8\n        /* \"#utility.yul\":11328:11408   */\n      tag_116\n      jump\t// in\n    tag_250:\n        /* \"#utility.yul\":11418:11498   */\n      tag_251\n        /* \"#utility.yul\":11494:11496   */\n      0x60\n        /* \"#utility.yul\":11483:11492   */\n      dup4\n        /* \"#utility.yul\":11479:11497   */\n      add\n        /* \"#utility.yul\":11470:11476   */\n      dup7\n        /* \"#utility.yul\":11418:11498   */\n      tag_116\n      jump\t// in\n    tag_251:\n        /* \"#utility.yul\":11508:11581   */\n      tag_252\n        /* \"#utility.yul\":11576:11579   */\n      0x80\n        /* \"#utility.yul\":11565:11574   */\n      dup4\n        /* \"#utility.yul\":11561:11580   */\n      add\n        /* \"#utility.yul\":11552:11558   */\n      dup6\n        /* \"#utility.yul\":11508:11581   */\n      tag_95\n      jump\t// in\n    tag_252:\n        /* \"#utility.yul\":11591:11664   */\n      tag_253\n        /* \"#utility.yul\":11659:11662   */\n      0xa0\n        /* \"#utility.yul\":11648:11657   */\n      dup4\n        /* \"#utility.yul\":11644:11663   */\n      add\n        /* \"#utility.yul\":11635:11641   */\n      dup5\n        /* \"#utility.yul\":11591:11664   */\n      tag_94\n      jump\t// in\n    tag_253:\n        /* \"#utility.yul\":10864:11671   */\n      swap8\n      swap7\n      pop\n      pop\n      pop\n      pop\n      pop\n      pop\n      pop\n      jump\t// out\n        /* \"#utility.yul\":11677:12340   */\n    tag_62:\n        /* \"#utility.yul\":11765:11771   */\n      0x00\n        /* \"#utility.yul\":11773:11779   */\n      dup1\n        /* \"#utility.yul\":11781:11787   */\n      0x00\n        /* \"#utility.yul\":11830:11832   */\n      0x60\n        /* \"#utility.yul\":11818:11827   */\n      dup5\n        /* \"#utility.yul\":11809:11816   */\n      dup7\n        /* \"#utility.yul\":11805:11828   */\n      sub\n        /* \"#utility.yul\":11801:11833   */\n      slt\n        /* \"#utility.yul\":11798:11917   */\n      iszero\n      tag_255\n      jumpi\n        /* \"#utility.yul\":11836:11915   */\n      tag_256\n      tag_85\n      jump\t// in\n    tag_256:\n        /* \"#utility.yul\":11798:11917   */\n    tag_255:\n        /* \"#utility.yul\":11956:11957   */\n      0x00\n        /* \"#utility.yul\":11981:12045   */\n      tag_257\n        /* \"#utility.yul\":12037:12044   */\n      dup7\n        /* \"#utility.yul\":12028:12034   */\n      dup3\n        /* \"#utility.yul\":12017:12026   */\n      dup8\n        /* \"#utility.yul\":12013:12035   */\n      add\n        /* \"#utility.yul\":11981:12045   */\n      tag_101\n      jump\t// in\n    tag_257:\n        /* \"#utility.yul\":11971:12045   */\n      swap4\n      pop\n        /* \"#utility.yul\":11927:12055   */\n      pop\n        /* \"#utility.yul\":12094:12096   */\n      0x20\n        /* \"#utility.yul\":12120:12184   */\n      tag_258\n        /* \"#utility.yul\":12176:12183   */\n      dup7\n        /* \"#utility.yul\":12167:12173   */\n      dup3\n        /* \"#utility.yul\":12156:12165   */\n      dup8\n        /* \"#utility.yul\":12152:12174   */\n      add\n        /* \"#utility.yul\":12120:12184   */\n      tag_101\n      jump\t// in\n    tag_258:\n        /* \"#utility.yul\":12110:12184   */\n      swap3\n      pop\n        /* \"#utility.yul\":12065:12194   */\n      pop\n        /* \"#utility.yul\":12233:12235   */\n      0x40\n        /* \"#utility.yul\":12259:12323   */\n      tag_259\n        /* \"#utility.yul\":12315:12322   */\n      dup7\n        /* \"#utility.yul\":12306:12312   */\n      dup3\n        /* \"#utility.yul\":12295:12304   */\n      dup8\n        /* \"#utility.yul\":12291:12313   */\n      add\n        /* \"#utility.yul\":12259:12323   */\n      tag_101\n      jump\t// in\n    tag_259:\n        /* \"#utility.yul\":12249:12323   */\n      swap2\n      pop\n        /* \"#utility.yul\":12204:12333   */\n      pop\n        /* \"#utility.yul\":11677:12340   */\n      swap3\n      pop\n      swap3\n      pop\n      swap3\n      jump\t// out\n        /* \"#utility.yul\":12346:12526   */\n    tag_70:\n        /* \"#utility.yul\":12394:12471   */\n      0x4e487b7100000000000000000000000000000000000000000000000000000000\n        /* \"#utility.yul\":12391:12392   */\n      0x00\n        /* \"#utility.yul\":12384:12472   */\n      mstore\n        /* \"#utility.yul\":12491:12495   */\n      0x32\n        /* \"#utility.yul\":12488:12489   */\n      0x04\n        /* \"#utility.yul\":12481:12496   */\n      mstore\n        /* \"#utility.yul\":12515:12519   */\n      0x24\n        /* \"#utility.yul\":12512:12513   */\n      0x00\n        /* \"#utility.yul\":12505:12520   */\n      revert\n        /* \"#utility.yul\":12532:12646   */\n    tag_117:\n        /* \"#utility.yul\":12599:12605   */\n      0x00\n        /* \"#utility.yul\":12633:12638   */\n      dup2\n        /* \"#utility.yul\":12627:12639   */\n      mload\n        /* \"#utility.yul\":12617:12639   */\n      swap1\n      pop\n        /* \"#utility.yul\":12532:12646   */\n      swap2\n      swap1\n      pop\n      jump\t// out\n        /* \"#utility.yul\":12652:12836   */\n    tag_118:\n        /* \"#utility.yul\":12751:12762   */\n      0x00\n        /* \"#utility.yul\":12785:12791   */\n      dup3\n        /* \"#utility.yul\":12780:12783   */\n      dup3\n        /* \"#utility.yul\":12773:12792   */\n      mstore\n        /* \"#utility.yul\":12825:12829   */\n      0x20\n        /* \"#utility.yul\":12820:12823   */\n      dup3\n        /* \"#utility.yul\":12816:12830   */\n      add\n        /* \"#utility.yul\":12801:12830   */\n      swap1\n      pop\n        /* \"#utility.yul\":12652:12836   */\n      swap3\n      swap2\n      pop\n      pop\n      jump\t// out\n        /* \"#utility.yul\":12842:12974   */\n    tag_119:\n        /* \"#utility.yul\":12909:12913   */\n      0x00\n        /* \"#utility.yul\":12932:12935   */\n      dup2\n        /* \"#utility.yul\":12924:12935   */\n      swap1\n      pop\n        /* \"#utility.yul\":12962:12966   */\n      0x20\n        /* \"#utility.yul\":12957:12960   */\n      dup3\n        /* \"#utility.yul\":12953:12967   */\n      add\n        /* \"#utility.yul\":12945:12967   */\n      swap1\n      pop\n        /* \"#utility.yul\":12842:12974   */\n      swap2\n      swap1\n      pop\n      jump\t// out\n        /* \"#utility.yul\":12980:13088   */\n    tag_120:\n        /* \"#utility.yul\":13057:13081   */\n      tag_265\n        /* \"#utility.yul\":13075:13080   */\n      dup2\n        /* \"#utility.yul\":13057:13081   */\n      tag_91\n      jump\t// in\n    tag_265:\n        /* \"#utility.yul\":13052:13055   */\n      dup3\n        /* \"#utility.yul\":13045:13082   */\n      mstore\n        /* \"#utility.yul\":12980:13088   */\n      pop\n      pop\n      jump\t// out\n        /* \"#utility.yul\":13094:13273   */\n    tag_121:\n        /* \"#utility.yul\":13163:13173   */\n      0x00\n        /* \"#utility.yul\":13184:13230   */\n      tag_267\n        /* \"#utility.yul\":13226:13229   */\n      dup4\n        /* \"#utility.yul\":13218:13224   */\n      dup4\n        /* \"#utility.yul\":13184:13230   */\n      tag_120\n      jump\t// in\n    tag_267:\n        /* \"#utility.yul\":13262:13266   */\n      0x20\n        /* \"#utility.yul\":13257:13260   */\n      dup4\n        /* \"#utility.yul\":13253:13267   */\n      add\n        /* \"#utility.yul\":13239:13267   */\n      swap1\n      pop\n        /* \"#utility.yul\":13094:13273   */\n      swap3\n      swap2\n      pop\n      pop\n      jump\t// out\n        /* \"#utility.yul\":13279:13392   */\n    tag_122:\n        /* \"#utility.yul\":13349:13353   */\n      0x00\n        /* \"#utility.yul\":13381:13385   */\n      0x20\n        /* \"#utility.yul\":13376:13379   */\n      dup3\n        /* \"#utility.yul\":13372:13386   */\n      add\n        /* \"#utility.yul\":13364:13386   */\n      swap1\n      pop\n        /* \"#utility.yul\":13279:13392   */\n      swap2\n      swap1\n      pop\n      jump\t// out\n        /* \"#utility.yul\":13428:14160   */\n    tag_123:\n        /* \"#utility.yul\":13547:13550   */\n      0x00\n        /* \"#utility.yul\":13576:13630   */\n      tag_270\n        /* \"#utility.yul\":13624:13629   */\n      dup3\n        /* \"#utility.yul\":13576:13630   */\n      tag_117\n      jump\t// in\n    tag_270:\n        /* \"#utility.yul\":13646:13732   */\n      tag_271\n        /* \"#utility.yul\":13725:13731   */\n      dup2\n        /* \"#utility.yul\":13720:13723   */\n      dup6\n        /* \"#utility.yul\":13646:13732   */\n      tag_118\n      jump\t// in\n    tag_271:\n        /* \"#utility.yul\":13639:13732   */\n      swap4\n      pop\n        /* \"#utility.yul\":13756:13812   */\n      tag_272\n        /* \"#utility.yul\":13806:13811   */\n      dup4\n        /* \"#utility.yul\":13756:13812   */\n      tag_119\n      jump\t// in\n    tag_272:\n        /* \"#utility.yul\":13835:13842   */\n      dup1\n        /* \"#utility.yul\":13866:13867   */\n      0x00\n        /* \"#utility.yul\":13851:14135   */\n    tag_273:\n        /* \"#utility.yul\":13876:13882   */\n      dup4\n        /* \"#utility.yul\":13873:13874   */\n      dup2\n        /* \"#utility.yul\":13870:13883   */\n      lt\n        /* \"#utility.yul\":13851:14135   */\n      iszero\n      tag_275\n      jumpi\n        /* \"#utility.yul\":13952:13958   */\n      dup2\n        /* \"#utility.yul\":13946:13959   */\n      mload\n        /* \"#utility.yul\":13979:14042   */\n      tag_276\n        /* \"#utility.yul\":14038:14041   */\n      dup9\n        /* \"#utility.yul\":14023:14036   */\n      dup3\n        /* \"#utility.yul\":13979:14042   */\n      tag_121\n      jump\t// in\n    tag_276:\n        /* \"#utility.yul\":13972:14042   */\n      swap8\n      pop\n        /* \"#utility.yul\":14065:14125   */\n      tag_277\n        /* \"#utility.yul\":14118:14124   */\n      dup4\n        /* \"#utility.yul\":14065:14125   */\n      tag_122\n      jump\t// in\n    tag_277:\n        /* \"#utility.yul\":14055:14125   */\n      swap3\n      pop\n        /* \"#utility.yul\":13911:14135   */\n      pop\n        /* \"#utility.yul\":13898:13899   */\n      0x01\n        /* \"#utility.yul\":13895:13896   */\n      dup2\n        /* \"#utility.yul\":13891:13900   */\n      add\n        /* \"#utility.yul\":13886:13900   */\n      swap1\n      pop\n        /* \"#utility.yul\":13851:14135   */\n      jump(tag_273)\n    tag_275:\n        /* \"#utility.yul\":13855:13869   */\n      pop\n        /* \"#utility.yul\":14151:14154   */\n      dup6\n        /* \"#utility.yul\":14144:14154   */\n      swap4\n      pop\n        /* \"#utility.yul\":13552:14160   */\n      pop\n      pop\n      pop\n        /* \"#utility.yul\":13428:14160   */\n      swap3\n      swap2\n      pop\n      pop\n      jump\t// out\n        /* \"#utility.yul\":14166:14870   */\n    tag_74:\n        /* \"#utility.yul\":14393:14397   */\n      0x00\n        /* \"#utility.yul\":14431:14434   */\n      0x80\n        /* \"#utility.yul\":14420:14429   */\n      dup3\n        /* \"#utility.yul\":14416:14435   */\n      add\n        /* \"#utility.yul\":14408:14435   */\n      swap1\n      pop\n        /* \"#utility.yul\":14445:14516   */\n      tag_279\n        /* \"#utility.yul\":14513:14514   */\n      0x00\n        /* \"#utility.yul\":14502:14511   */\n      dup4\n        /* \"#utility.yul\":14498:14515   */\n      add\n        /* \"#utility.yul\":14489:14495   */\n      dup8\n        /* \"#utility.yul\":14445:14516   */\n      tag_94\n      jump\t// in\n    tag_279:\n        /* \"#utility.yul\":14563:14572   */\n      dup2\n        /* \"#utility.yul\":14557:14561   */\n      dup2\n        /* \"#utility.yul\":14553:14573   */\n      sub\n        /* \"#utility.yul\":14548:14550   */\n      0x20\n        /* \"#utility.yul\":14537:14546   */\n      dup4\n        /* \"#utility.yul\":14533:14551   */\n      add\n        /* \"#utility.yul\":14526:14574   */\n      mstore\n        /* \"#utility.yul\":14591:14699   */\n      tag_280\n        /* \"#utility.yul\":14694:14698   */\n      dup2\n        /* \"#utility.yul\":14685:14691   */\n      dup7\n        /* \"#utility.yul\":14591:14699   */\n      tag_123\n      jump\t// in\n    tag_280:\n        /* \"#utility.yul\":14583:14699   */\n      swap1\n      pop\n        /* \"#utility.yul\":14709:14781   */\n      tag_281\n        /* \"#utility.yul\":14777:14779   */\n      0x40\n        /* \"#utility.yul\":14766:14775   */\n      dup4\n        /* \"#utility.yul\":14762:14780   */\n      add\n        /* \"#utility.yul\":14753:14759   */\n      dup6\n        /* \"#utility.yul\":14709:14781   */\n      tag_95\n      jump\t// in\n    tag_281:\n        /* \"#utility.yul\":14791:14863   */\n      tag_282\n        /* \"#utility.yul\":14859:14861   */\n      0x60\n        /* \"#utility.yul\":14848:14857   */\n      dup4\n        /* \"#utility.yul\":14844:14862   */\n      add\n        /* \"#utility.yul\":14835:14841   */\n      dup5\n        /* \"#utility.yul\":14791:14863   */\n      tag_94\n      jump\t// in\n    tag_282:\n        /* \"#utility.yul\":14166:14870   */\n      swap6\n      swap5\n      pop\n      pop\n      pop\n      pop\n      pop\n      jump\t// out\n        /* \"#utility.yul\":14876:14993   */\n    tag_124:\n        /* \"#utility.yul\":14985:14986   */\n      0x00\n        /* \"#utility.yul\":14982:14983   */\n      dup1\n        /* \"#utility.yul\":14975:14987   */\n      revert\n        /* \"#utility.yul\":14999:15310   */\n    tag_125:\n        /* \"#utility.yul\":15076:15080   */\n      0x00\n        /* \"#utility.yul\":15166:15184   */\n      0xffffffffffffffff\n        /* \"#utility.yul\":15158:15164   */\n      dup3\n        /* \"#utility.yul\":15155:15185   */\n      gt\n        /* \"#utility.yul\":15152:15208   */\n      iszero\n      tag_285\n      jumpi\n        /* \"#utility.yul\":15188:15206   */\n      tag_286\n      tag_66\n      jump\t// in\n    tag_286:\n        /* \"#utility.yul\":15152:15208   */\n    tag_285:\n        /* \"#utility.yul\":15238:15242   */\n      0x20\n        /* \"#utility.yul\":15230:15236   */\n      dup3\n        /* \"#utility.yul\":15226:15243   */\n      mul\n        /* \"#utility.yul\":15218:15243   */\n      swap1\n      pop\n        /* \"#utility.yul\":15298:15302   */\n      0x20\n        /* \"#utility.yul\":15292:15296   */\n      dup2\n        /* \"#utility.yul\":15288:15303   */\n      add\n        /* \"#utility.yul\":15280:15303   */\n      swap1\n      pop\n        /* \"#utility.yul\":14999:15310   */\n      swap2\n      swap1\n      pop\n      jump\t// out\n        /* \"#utility.yul\":15316:15433   */\n    tag_126:\n        /* \"#utility.yul\":15425:15426   */\n      0x00\n        /* \"#utility.yul\":15422:15423   */\n      dup1\n        /* \"#utility.yul\":15415:15427   */\n      revert\n        /* \"#utility.yul\":15456:16188   */\n    tag_127:\n        /* \"#utility.yul\":15563:15568   */\n      0x00\n        /* \"#utility.yul\":15588:15669   */\n      tag_289\n        /* \"#utility.yul\":15604:15668   */\n      tag_290\n        /* \"#utility.yul\":15661:15667   */\n      dup5\n        /* \"#utility.yul\":15604:15668   */\n      tag_125\n      jump\t// in\n    tag_290:\n        /* \"#utility.yul\":15588:15669   */\n      tag_99\n      jump\t// in\n    tag_289:\n        /* \"#utility.yul\":15579:15669   */\n      swap1\n      pop\n        /* \"#utility.yul\":15689:15694   */\n      dup1\n        /* \"#utility.yul\":15718:15724   */\n      dup4\n        /* \"#utility.yul\":15711:15716   */\n      dup3\n        /* \"#utility.yul\":15704:15725   */\n      mstore\n        /* \"#utility.yul\":15752:15756   */\n      0x20\n        /* \"#utility.yul\":15745:15750   */\n      dup3\n        /* \"#utility.yul\":15741:15757   */\n      add\n        /* \"#utility.yul\":15734:15757   */\n      swap1\n      pop\n        /* \"#utility.yul\":15805:15809   */\n      0x20\n        /* \"#utility.yul\":15797:15803   */\n      dup5\n        /* \"#utility.yul\":15793:15810   */\n      mul\n        /* \"#utility.yul\":15785:15791   */\n      dup4\n        /* \"#utility.yul\":15781:15811   */\n      add\n        /* \"#utility.yul\":15834:15837   */\n      dup6\n        /* \"#utility.yul\":15826:15832   */\n      dup2\n        /* \"#utility.yul\":15823:15838   */\n      gt\n        /* \"#utility.yul\":15820:15942   */\n      iszero\n      tag_291\n      jumpi\n        /* \"#utility.yul\":15853:15932   */\n      tag_292\n      tag_126\n      jump\t// in\n    tag_292:\n        /* \"#utility.yul\":15820:15942   */\n    tag_291:\n        /* \"#utility.yul\":15968:15974   */\n      dup4\n        /* \"#utility.yul\":15951:16182   */\n    tag_293:\n        /* \"#utility.yul\":15985:15991   */\n      dup2\n        /* \"#utility.yul\":15980:15983   */\n      dup2\n        /* \"#utility.yul\":15977:15992   */\n      lt\n        /* \"#utility.yul\":15951:16182   */\n      iszero\n      tag_295\n      jumpi\n        /* \"#utility.yul\":16060:16063   */\n      dup1\n        /* \"#utility.yul\":16089:16137   */\n      tag_296\n        /* \"#utility.yul\":16133:16136   */\n      dup9\n        /* \"#utility.yul\":16121:16131   */\n      dup3\n        /* \"#utility.yul\":16089:16137   */\n      tag_101\n      jump\t// in\n    tag_296:\n        /* \"#utility.yul\":16084:16087   */\n      dup5\n        /* \"#utility.yul\":16077:16138   */\n      mstore\n        /* \"#utility.yul\":16167:16171   */\n      0x20\n        /* \"#utility.yul\":16162:16165   */\n      dup5\n        /* \"#utility.yul\":16158:16172   */\n      add\n        /* \"#utility.yul\":16151:16172   */\n      swap4\n      pop\n        /* \"#utility.yul\":16027:16182   */\n      pop\n        /* \"#utility.yul\":16011:16015   */\n      0x20\n        /* \"#utility.yul\":16006:16009   */\n      dup2\n        /* \"#utility.yul\":16002:16016   */\n      add\n        /* \"#utility.yul\":15995:16016   */\n      swap1\n      pop\n        /* \"#utility.yul\":15951:16182   */\n      jump(tag_293)\n    tag_295:\n        /* \"#utility.yul\":15955:15976   */\n      pop\n        /* \"#utility.yul\":15569:16188   */\n      pop\n      pop\n        /* \"#utility.yul\":15456:16188   */\n      swap4\n      swap3\n      pop\n      pop\n      pop\n      jump\t// out\n        /* \"#utility.yul\":16211:16596   */\n    tag_128:\n        /* \"#utility.yul\":16293:16298   */\n      0x00\n        /* \"#utility.yul\":16342:16345   */\n      dup3\n        /* \"#utility.yul\":16335:16339   */\n      0x1f\n        /* \"#utility.yul\":16327:16333   */\n      dup4\n        /* \"#utility.yul\":16323:16340   */\n      add\n        /* \"#utility.yul\":16319:16346   */\n      slt\n        /* \"#utility.yul\":16309:16431   */\n      tag_298\n      jumpi\n        /* \"#utility.yul\":16350:16429   */\n      tag_299\n      tag_124\n      jump\t// in\n    tag_299:\n        /* \"#utility.yul\":16309:16431   */\n    tag_298:\n        /* \"#utility.yul\":16460:16466   */\n      dup2\n        /* \"#utility.yul\":16454:16467   */\n      mload\n        /* \"#utility.yul\":16485:16590   */\n      tag_300\n        /* \"#utility.yul\":16586:16589   */\n      dup5\n        /* \"#utility.yul\":16578:16584   */\n      dup3\n        /* \"#utility.yul\":16571:16575   */\n      0x20\n        /* \"#utility.yul\":16563:16569   */\n      dup7\n        /* \"#utility.yul\":16559:16576   */\n      add\n        /* \"#utility.yul\":16485:16590   */\n      tag_127\n      jump\t// in\n    tag_300:\n        /* \"#utility.yul\":16476:16590   */\n      swap2\n      pop\n        /* \"#utility.yul\":16299:16596   */\n      pop\n        /* \"#utility.yul\":16211:16596   */\n      swap3\n      swap2\n      pop\n      pop\n      jump\t// out\n        /* \"#utility.yul\":16602:17156   */\n    tag_78:\n        /* \"#utility.yul\":16697:16703   */\n      0x00\n        /* \"#utility.yul\":16746:16748   */\n      0x20\n        /* \"#utility.yul\":16734:16743   */\n      dup3\n        /* \"#utility.yul\":16725:16732   */\n      dup5\n        /* \"#utility.yul\":16721:16744   */\n      sub\n        /* \"#utility.yul\":16717:16749   */\n      slt\n        /* \"#utility.yul\":16714:16833   */\n      iszero\n      tag_302\n      jumpi\n        /* \"#utility.yul\":16752:16831   */\n      tag_303\n      tag_85\n      jump\t// in\n    tag_303:\n        /* \"#utility.yul\":16714:16833   */\n    tag_302:\n        /* \"#utility.yul\":16893:16894   */\n      0x00\n        /* \"#utility.yul\":16882:16891   */\n      dup3\n        /* \"#utility.yul\":16878:16895   */\n      add\n        /* \"#utility.yul\":16872:16896   */\n      mload\n        /* \"#utility.yul\":16923:16941   */\n      0xffffffffffffffff\n        /* \"#utility.yul\":16915:16921   */\n      dup2\n        /* \"#utility.yul\":16912:16942   */\n      gt\n        /* \"#utility.yul\":16909:17026   */\n      iszero\n      tag_304\n      jumpi\n        /* \"#utility.yul\":16945:17024   */\n      tag_305\n      tag_86\n      jump\t// in\n    tag_305:\n        /* \"#utility.yul\":16909:17026   */\n    tag_304:\n        /* \"#utility.yul\":17050:17139   */\n      tag_306\n        /* \"#utility.yul\":17131:17138   */\n      dup5\n        /* \"#utility.yul\":17122:17128   */\n      dup3\n        /* \"#utility.yul\":17111:17120   */\n      dup6\n        /* \"#utility.yul\":17107:17129   */\n      add\n        /* \"#utility.yul\":17050:17139   */\n      tag_128\n      jump\t// in\n    tag_306:\n        /* \"#utility.yul\":17040:17139   */\n      swap2\n      pop\n        /* \"#utility.yul\":16843:17149   */\n      pop\n        /* \"#utility.yul\":16602:17156   */\n      swap3\n      swap2\n      pop\n      pop\n      jump\t// out\n\n    auxdata: 0xa26469706673582212201586b48f40191d206407073d2dce317eb10a7ceb9cac1155c8b487023a2224c164736f6c634300080d0033\n}\n",
				"bytecode": {
					"linkReferences": {},
					"object": "6080604052737a250d5630b4cf539739df2c5dacb4c659f2488d6000806101000a81548173ffffffffffffffffffffffffffffffffffffffff021916908373ffffffffffffffffffffffffffffffffffffffff16021790555073c778417e063141139fce010982780140aa0cd5ab600160006101000a81548173ffffffffffffffffffffffffffffffffffffffff021916908373ffffffffffffffffffffffffffffffffffffffff16021790555073549f978c19a5ac86d906052639e317b57724ef44600260006101000a81548173ffffffffffffffffffffffffffffffffffffffff021916908373ffffffffffffffffffffffffffffffffffffffff16021790555073f42a08c0ea66ee4a474336087a6c17e9ea6c9de9600360006101000a81548173ffffffffffffffffffffffffffffffffffffffff021916908373ffffffffffffffffffffffffffffffffffffffff16021790555073d9dfa8c6b37cfdf16668fe0465896f4a1b9b2c4f600460006101000a81548173ffffffffffffffffffffffffffffffffffffffff021916908373ffffffffffffffffffffffffffffffffffffffff16021790555060008054906101000a900473ffffffffffffffffffffffffffffffffffffffff16600560006101000a81548173ffffffffffffffffffffffffffffffffffffffff021916908373ffffffffffffffffffffffffffffffffffffffff160217905550600260009054906101000a900473ffffffffffffffffffffffffffffffffffffffff16600660006101000a81548173ffffffffffffffffffffffffffffffffffffffff021916908373ffffffffffffffffffffffffffffffffffffffff160217905550600460009054906101000a900473ffffffffffffffffffffffffffffffffffffffff16600760006101000a81548173ffffffffffffffffffffffffffffffffffffffff021916908373ffffffffffffffffffffffffffffffffffffffff1602179055503480156102df57600080fd5b5061105e806102ef6000396000f3fe60806040526004361061003e5760003560e01c8062f714ce1461004357806351c6590a1461006c578063a93f74e01461009c578063fc55d2bf146100b8575b600080fd5b34801561004f57600080fd5b5061006a6004803603810190610065919061085b565b6100e1565b005b6100866004803603810190610081919061089b565b6102b9565b60405161009391906108d7565b60405180910390f35b6100b660048036038101906100b1919061089b565b610540565b005b3480156100c457600080fd5b506100df60048036038101906100da91906108f2565b61071f565b005b6000600760009054906101000a900473ffffffffffffffffffffffffffffffffffffffff1673ffffffffffffffffffffffffffffffffffffffff16631959a002836040518263ffffffff1660e01b815260040161013e9190610954565b6040805180830381865afa15801561015a573d6000803e3d6000fd5b505050506040513d601f19601f8201168201806040525081019061017e9190610a65565b90506000600760009054906101000a900473ffffffffffffffffffffffffffffffffffffffff1673ffffffffffffffffffffffffffffffffffffffff16631526fe27856040518263ffffffff1660e01b81526004016101dd91906108d7565b608060405180830381865afa1580156101fa573d6000803e3d6000fd5b505050506040513d601f19601f8201168201806040525081019061021e9190610b48565b9050600760009054906101000a900473ffffffffffffffffffffffffffffffffffffffff1673ffffffffffffffffffffffffffffffffffffffff1663441a3e708584600001516040518363ffffffff1660e01b8152600401610281929190610b75565b600060405180830381600087803b15801561029b57600080fd5b505af11580156102af573d6000803e3d6000fd5b5050505050505050565b6000600660009054906101000a900473ffffffffffffffffffffffffffffffffffffffff1673ffffffffffffffffffffffffffffffffffffffff1663095ea7b3600560009054906101000a900473ffffffffffffffffffffffffffffffffffffffff16846040518363ffffffff1660e01b815260040161033a929190610b9e565b6020604051808303816000875af1158015610359573d6000803e3d6000fd5b505050506040513d601f19601f8201168201806040525081019061037d9190610bff565b506000600660009054906101000a900473ffffffffffffffffffffffffffffffffffffffff1673ffffffffffffffffffffffffffffffffffffffff166323b872dd3330866040518463ffffffff1660e01b81526004016103df93929190610c2c565b6020604051808303816000875af11580156103fe573d6000803e3d6000fd5b505050506040513d601f19601f820116820180604052508101906104229190610bff565b905080610464576040517f08c379a000000000000000000000000000000000000000000000000000000000815260040161045b90610cc0565b60405180910390fd5b6000600560009054906101000a900473ffffffffffffffffffffffffffffffffffffffff1673ffffffffffffffffffffffffffffffffffffffff1663f305d71934600260009054906101000a900473ffffffffffffffffffffffffffffffffffffffff168760008033426040518863ffffffff1660e01b81526004016104ef96959493929190610d25565b60606040518083038185885af115801561050d573d6000803e3d6000fd5b50505050506040513d601f19601f820116820180604052508101906105329190610d86565b505090508092505050919050565b6000600267ffffffffffffffff81111561055d5761055c610985565b5b60405190808252806020026020018201604052801561058b5781602001602082028036833780820191505090505b509050600160009054906101000a900473ffffffffffffffffffffffffffffffffffffffff16816000815181106105c5576105c4610dd9565b5b602002602001019073ffffffffffffffffffffffffffffffffffffffff16908173ffffffffffffffffffffffffffffffffffffffff1681525050600260009054906101000a900473ffffffffffffffffffffffffffffffffffffffff168160018151811061063657610635610dd9565b5b602002602001019073ffffffffffffffffffffffffffffffffffffffff16908173ffffffffffffffffffffffffffffffffffffffff1681525050600560009054906101000a900473ffffffffffffffffffffffffffffffffffffffff1673ffffffffffffffffffffffffffffffffffffffff16637ff36ab534848433426040518663ffffffff1660e01b81526004016106d29493929190610ec6565b60006040518083038185885af11580156106f0573d6000803e3d6000fd5b50505050506040513d6000823e3d601f19601f8201168201806040525081019061071a9190610fdf565b505050565b600760009054906101000a900473ffffffffffffffffffffffffffffffffffffffff1673ffffffffffffffffffffffffffffffffffffffff1663e2bbb15883836040518363ffffffff1660e01b815260040161077c929190610b75565b600060405180830381600087803b15801561079657600080fd5b505af11580156107aa573d6000803e3d6000fd5b50505050505050565b6000604051905090565b600080fd5b600080fd5b6000819050919050565b6107da816107c7565b81146107e557600080fd5b50565b6000813590506107f7816107d1565b92915050565b600073ffffffffffffffffffffffffffffffffffffffff82169050919050565b6000610828826107fd565b9050919050565b6108388161081d565b811461084357600080fd5b50565b6000813590506108558161082f565b92915050565b60008060408385031215610872576108716107bd565b5b6000610880858286016107e8565b925050602061089185828601610846565b9150509250929050565b6000602082840312156108b1576108b06107bd565b5b60006108bf848285016107e8565b91505092915050565b6108d1816107c7565b82525050565b60006020820190506108ec60008301846108c8565b92915050565b60008060006060848603121561090b5761090a6107bd565b5b600061091986828701610846565b935050602061092a868287016107e8565b925050604061093b868287016107e8565b9150509250925092565b61094e8161081d565b82525050565b60006020820190506109696000830184610945565b92915050565b600080fd5b6000601f19601f8301169050919050565b7f4e487b7100000000000000000000000000000000000000000000000000000000600052604160045260246000fd5b6109bd82610974565b810181811067ffffffffffffffff821117156109dc576109db610985565b5b80604052505050565b60006109ef6107b3565b90506109fb82826109b4565b919050565b600081519050610a0f816107d1565b92915050565b600060408284031215610a2b57610a2a61096f565b5b610a3560406109e5565b90506000610a4584828501610a00565b6000830152506020610a5984828501610a00565b60208301525092915050565b600060408284031215610a7b57610a7a6107bd565b5b6000610a8984828501610a15565b91505092915050565b6000610a9d8261081d565b9050919050565b610aad81610a92565b8114610ab857600080fd5b50565b600081519050610aca81610aa4565b92915050565b600060808284031215610ae657610ae561096f565b5b610af060806109e5565b90506000610b0084828501610abb565b6000830152506020610b1484828501610a00565b6020830152506040610b2884828501610a00565b6040830152506060610b3c84828501610a00565b60608301525092915050565b600060808284031215610b5e57610b5d6107bd565b5b6000610b6c84828501610ad0565b91505092915050565b6000604082019050610b8a60008301856108c8565b610b9760208301846108c8565b9392505050565b6000604082019050610bb36000830185610945565b610bc060208301846108c8565b9392505050565b60008115159050919050565b610bdc81610bc7565b8114610be757600080fd5b50565b600081519050610bf981610bd3565b92915050565b600060208284031215610c1557610c146107bd565b5b6000610c2384828501610bea565b91505092915050565b6000606082019050610c416000830186610945565b610c4e6020830185610945565b610c5b60408301846108c8565b949350505050565b600082825260208201905092915050565b7f6d746f6b656e207472616e73666572206572726f722100000000000000000000600082015250565b6000610caa601683610c63565b9150610cb582610c74565b602082019050919050565b60006020820190508181036000830152610cd981610c9d565b9050919050565b6000819050919050565b6000819050919050565b6000610d0f610d0a610d0584610ce0565b610cea565b6107c7565b9050919050565b610d1f81610cf4565b82525050565b600060c082019050610d3a6000830189610945565b610d4760208301886108c8565b610d546040830187610d16565b610d616060830186610d16565b610d6e6080830185610945565b610d7b60a08301846108c8565b979650505050505050565b600080600060608486031215610d9f57610d9e6107bd565b5b6000610dad86828701610a00565b9350506020610dbe86828701610a00565b9250506040610dcf86828701610a00565b9150509250925092565b7f4e487b7100000000000000000000000000000000000000000000000000000000600052603260045260246000fd5b600081519050919050565b600082825260208201905092915050565b6000819050602082019050919050565b610e3d8161081d565b82525050565b6000610e4f8383610e34565b60208301905092915050565b6000602082019050919050565b6000610e7382610e08565b610e7d8185610e13565b9350610e8883610e24565b8060005b83811015610eb9578151610ea08882610e43565b9750610eab83610e5b565b925050600181019050610e8c565b5085935050505092915050565b6000608082019050610edb60008301876108c8565b8181036020830152610eed8186610e68565b9050610efc6040830185610945565b610f0960608301846108c8565b95945050505050565b600080fd5b600067ffffffffffffffff821115610f3257610f31610985565b5b602082029050602081019050919050565b600080fd5b6000610f5b610f5684610f17565b6109e5565b90508083825260208201905060208402830185811115610f7e57610f7d610f43565b5b835b81811015610fa75780610f938882610a00565b845260208401935050602081019050610f80565b5050509392505050565b600082601f830112610fc657610fc5610f12565b5b8151610fd6848260208601610f48565b91505092915050565b600060208284031215610ff557610ff46107bd565b5b600082015167ffffffffffffffff811115611013576110126107c2565b5b61101f84828501610fb1565b9150509291505056fea26469706673582212201586b48f40191d206407073d2dce317eb10a7ceb9cac1155c8b487023a2224c164736f6c634300080d0033",
					"opcodes": "PUSH1 0x80 PUSH1 0x40 MSTORE PUSH20 0x7A250D5630B4CF539739DF2C5DACB4C659F2488D PUSH1 0x0 DUP1 PUSH2 0x100 EXP DUP2 SLOAD DUP2 PUSH20 0xFFFFFFFFFFFFFFFFFFFFFFFFFFFFFFFFFFFFFFFF MUL NOT AND SWAP1 DUP4 PUSH20 0xFFFFFFFFFFFFFFFFFFFFFFFFFFFFFFFFFFFFFFFF AND MUL OR SWAP1 SSTORE POP PUSH20 0xC778417E063141139FCE010982780140AA0CD5AB PUSH1 0x1 PUSH1 0x0 PUSH2 0x100 EXP DUP2 SLOAD DUP2 PUSH20 0xFFFFFFFFFFFFFFFFFFFFFFFFFFFFFFFFFFFFFFFF MUL NOT AND SWAP1 DUP4 PUSH20 0xFFFFFFFFFFFFFFFFFFFFFFFFFFFFFFFFFFFFFFFF AND MUL OR SWAP1 SSTORE POP PUSH20 0x549F978C19A5AC86D906052639E317B57724EF44 PUSH1 0x2 PUSH1 0x0 PUSH2 0x100 EXP DUP2 SLOAD DUP2 PUSH20 0xFFFFFFFFFFFFFFFFFFFFFFFFFFFFFFFFFFFFFFFF MUL NOT AND SWAP1 DUP4 PUSH20 0xFFFFFFFFFFFFFFFFFFFFFFFFFFFFFFFFFFFFFFFF AND MUL OR SWAP1 SSTORE POP PUSH20 0xF42A08C0EA66EE4A474336087A6C17E9EA6C9DE9 PUSH1 0x3 PUSH1 0x0 PUSH2 0x100 EXP DUP2 SLOAD DUP2 PUSH20 0xFFFFFFFFFFFFFFFFFFFFFFFFFFFFFFFFFFFFFFFF MUL NOT AND SWAP1 DUP4 PUSH20 0xFFFFFFFFFFFFFFFFFFFFFFFFFFFFFFFFFFFFFFFF AND MUL OR SWAP1 SSTORE POP PUSH20 0xD9DFA8C6B37CFDF16668FE0465896F4A1B9B2C4F PUSH1 0x4 PUSH1 0x0 PUSH2 0x100 EXP DUP2 SLOAD DUP2 PUSH20 0xFFFFFFFFFFFFFFFFFFFFFFFFFFFFFFFFFFFFFFFF MUL NOT AND SWAP1 DUP4 PUSH20 0xFFFFFFFFFFFFFFFFFFFFFFFFFFFFFFFFFFFFFFFF AND MUL OR SWAP1 SSTORE POP PUSH1 0x0 DUP1 SLOAD SWAP1 PUSH2 0x100 EXP SWAP1 DIV PUSH20 0xFFFFFFFFFFFFFFFFFFFFFFFFFFFFFFFFFFFFFFFF AND PUSH1 0x5 PUSH1 0x0 PUSH2 0x100 EXP DUP2 SLOAD DUP2 PUSH20 0xFFFFFFFFFFFFFFFFFFFFFFFFFFFFFFFFFFFFFFFF MUL NOT AND SWAP1 DUP4 PUSH20 0xFFFFFFFFFFFFFFFFFFFFFFFFFFFFFFFFFFFFFFFF AND MUL OR SWAP1 SSTORE POP PUSH1 0x2 PUSH1 0x0 SWAP1 SLOAD SWAP1 PUSH2 0x100 EXP SWAP1 DIV PUSH20 0xFFFFFFFFFFFFFFFFFFFFFFFFFFFFFFFFFFFFFFFF AND PUSH1 0x6 PUSH1 0x0 PUSH2 0x100 EXP DUP2 SLOAD DUP2 PUSH20 0xFFFFFFFFFFFFFFFFFFFFFFFFFFFFFFFFFFFFFFFF MUL NOT AND SWAP1 DUP4 PUSH20 0xFFFFFFFFFFFFFFFFFFFFFFFFFFFFFFFFFFFFFFFF AND MUL OR SWAP1 SSTORE POP PUSH1 0x4 PUSH1 0x0 SWAP1 SLOAD SWAP1 PUSH2 0x100 EXP SWAP1 DIV PUSH20 0xFFFFFFFFFFFFFFFFFFFFFFFFFFFFFFFFFFFFFFFF AND PUSH1 0x7 PUSH1 0x0 PUSH2 0x100 EXP DUP2 SLOAD DUP2 PUSH20 0xFFFFFFFFFFFFFFFFFFFFFFFFFFFFFFFFFFFFFFFF MUL NOT AND SWAP1 DUP4 PUSH20 0xFFFFFFFFFFFFFFFFFFFFFFFFFFFFFFFFFFFFFFFF AND MUL OR SWAP1 SSTORE POP CALLVALUE DUP1 ISZERO PUSH2 0x2DF JUMPI PUSH1 0x0 DUP1 REVERT JUMPDEST POP PUSH2 0x105E DUP1 PUSH2 0x2EF PUSH1 0x0 CODECOPY PUSH1 0x0 RETURN INVALID PUSH1 0x80 PUSH1 0x40 MSTORE PUSH1 0x4 CALLDATASIZE LT PUSH2 0x3E JUMPI PUSH1 0x0 CALLDATALOAD PUSH1 0xE0 SHR DUP1 PUSH3 0xF714CE EQ PUSH2 0x43 JUMPI DUP1 PUSH4 0x51C6590A EQ PUSH2 0x6C JUMPI DUP1 PUSH4 0xA93F74E0 EQ PUSH2 0x9C JUMPI DUP1 PUSH4 0xFC55D2BF EQ PUSH2 0xB8 JUMPI JUMPDEST PUSH1 0x0 DUP1 REVERT JUMPDEST CALLVALUE DUP1 ISZERO PUSH2 0x4F JUMPI PUSH1 0x0 DUP1 REVERT JUMPDEST POP PUSH2 0x6A PUSH1 0x4 DUP1 CALLDATASIZE SUB DUP2 ADD SWAP1 PUSH2 0x65 SWAP2 SWAP1 PUSH2 0x85B JUMP JUMPDEST PUSH2 0xE1 JUMP JUMPDEST STOP JUMPDEST PUSH2 0x86 PUSH1 0x4 DUP1 CALLDATASIZE SUB DUP2 ADD SWAP1 PUSH2 0x81 SWAP2 SWAP1 PUSH2 0x89B JUMP JUMPDEST PUSH2 0x2B9 JUMP JUMPDEST PUSH1 0x40 MLOAD PUSH2 0x93 SWAP2 SWAP1 PUSH2 0x8D7 JUMP JUMPDEST PUSH1 0x40 MLOAD DUP1 SWAP2 SUB SWAP1 RETURN JUMPDEST PUSH2 0xB6 PUSH1 0x4 DUP1 CALLDATASIZE SUB DUP2 ADD SWAP1 PUSH2 0xB1 SWAP2 SWAP1 PUSH2 0x89B JUMP JUMPDEST PUSH2 0x540 JUMP JUMPDEST STOP JUMPDEST CALLVALUE DUP1 ISZERO PUSH2 0xC4 JUMPI PUSH1 0x0 DUP1 REVERT JUMPDEST POP PUSH2 0xDF PUSH1 0x4 DUP1 CALLDATASIZE SUB DUP2 ADD SWAP1 PUSH2 0xDA SWAP2 SWAP1 PUSH2 0x8F2 JUMP JUMPDEST PUSH2 0x71F JUMP JUMPDEST STOP JUMPDEST PUSH1 0x0 PUSH1 0x7 PUSH1 0x0 SWAP1 SLOAD SWAP1 PUSH2 0x100 EXP SWAP1 DIV PUSH20 0xFFFFFFFFFFFFFFFFFFFFFFFFFFFFFFFFFFFFFFFF AND PUSH20 0xFFFFFFFFFFFFFFFFFFFFFFFFFFFFFFFFFFFFFFFF AND PUSH4 0x1959A002 DUP4 PUSH1 0x40 MLOAD DUP3 PUSH4 0xFFFFFFFF AND PUSH1 0xE0 SHL DUP2 MSTORE PUSH1 0x4 ADD PUSH2 0x13E SWAP2 SWAP1 PUSH2 0x954 JUMP JUMPDEST PUSH1 0x40 DUP1 MLOAD DUP1 DUP4 SUB DUP2 DUP7 GAS STATICCALL ISZERO DUP1 ISZERO PUSH2 0x15A JUMPI RETURNDATASIZE PUSH1 0x0 DUP1 RETURNDATACOPY RETURNDATASIZE PUSH1 0x0 REVERT JUMPDEST POP POP POP POP PUSH1 0x40 MLOAD RETURNDATASIZE PUSH1 0x1F NOT PUSH1 0x1F DUP3 ADD AND DUP3 ADD DUP1 PUSH1 0x40 MSTORE POP DUP2 ADD SWAP1 PUSH2 0x17E SWAP2 SWAP1 PUSH2 0xA65 JUMP JUMPDEST SWAP1 POP PUSH1 0x0 PUSH1 0x7 PUSH1 0x0 SWAP1 SLOAD SWAP1 PUSH2 0x100 EXP SWAP1 DIV PUSH20 0xFFFFFFFFFFFFFFFFFFFFFFFFFFFFFFFFFFFFFFFF AND PUSH20 0xFFFFFFFFFFFFFFFFFFFFFFFFFFFFFFFFFFFFFFFF AND PUSH4 0x1526FE27 DUP6 PUSH1 0x40 MLOAD DUP3 PUSH4 0xFFFFFFFF AND PUSH1 0xE0 SHL DUP2 MSTORE PUSH1 0x4 ADD PUSH2 0x1DD SWAP2 SWAP1 PUSH2 0x8D7 JUMP JUMPDEST PUSH1 0x80 PUSH1 0x40 MLOAD DUP1 DUP4 SUB DUP2 DUP7 GAS STATICCALL ISZERO DUP1 ISZERO PUSH2 0x1FA JUMPI RETURNDATASIZE PUSH1 0x0 DUP1 RETURNDATACOPY RETURNDATASIZE PUSH1 0x0 REVERT JUMPDEST POP POP POP POP PUSH1 0x40 MLOAD RETURNDATASIZE PUSH1 0x1F NOT PUSH1 0x1F DUP3 ADD AND DUP3 ADD DUP1 PUSH1 0x40 MSTORE POP DUP2 ADD SWAP1 PUSH2 0x21E SWAP2 SWAP1 PUSH2 0xB48 JUMP JUMPDEST SWAP1 POP PUSH1 0x7 PUSH1 0x0 SWAP1 SLOAD SWAP1 PUSH2 0x100 EXP SWAP1 DIV PUSH20 0xFFFFFFFFFFFFFFFFFFFFFFFFFFFFFFFFFFFFFFFF AND PUSH20 0xFFFFFFFFFFFFFFFFFFFFFFFFFFFFFFFFFFFFFFFF AND PUSH4 0x441A3E70 DUP6 DUP5 PUSH1 0x0 ADD MLOAD PUSH1 0x40 MLOAD DUP4 PUSH4 0xFFFFFFFF AND PUSH1 0xE0 SHL DUP2 MSTORE PUSH1 0x4 ADD PUSH2 0x281 SWAP3 SWAP2 SWAP1 PUSH2 0xB75 JUMP JUMPDEST PUSH1 0x0 PUSH1 0x40 MLOAD DUP1 DUP4 SUB DUP2 PUSH1 0x0 DUP8 DUP1 EXTCODESIZE ISZERO DUP1 ISZERO PUSH2 0x29B JUMPI PUSH1 0x0 DUP1 REVERT JUMPDEST POP GAS CALL ISZERO DUP1 ISZERO PUSH2 0x2AF JUMPI RETURNDATASIZE PUSH1 0x0 DUP1 RETURNDATACOPY RETURNDATASIZE PUSH1 0x0 REVERT JUMPDEST POP POP POP POP POP POP POP POP JUMP JUMPDEST PUSH1 0x0 PUSH1 0x6 PUSH1 0x0 SWAP1 SLOAD SWAP1 PUSH2 0x100 EXP SWAP1 DIV PUSH20 0xFFFFFFFFFFFFFFFFFFFFFFFFFFFFFFFFFFFFFFFF AND PUSH20 0xFFFFFFFFFFFFFFFFFFFFFFFFFFFFFFFFFFFFFFFF AND PUSH4 0x95EA7B3 PUSH1 0x5 PUSH1 0x0 SWAP1 SLOAD SWAP1 PUSH2 0x100 EXP SWAP1 DIV PUSH20 0xFFFFFFFFFFFFFFFFFFFFFFFFFFFFFFFFFFFFFFFF AND DUP5 PUSH1 0x40 MLOAD DUP4 PUSH4 0xFFFFFFFF AND PUSH1 0xE0 SHL DUP2 MSTORE PUSH1 0x4 ADD PUSH2 0x33A SWAP3 SWAP2 SWAP1 PUSH2 0xB9E JUMP JUMPDEST PUSH1 0x20 PUSH1 0x40 MLOAD DUP1 DUP4 SUB DUP2 PUSH1 0x0 DUP8 GAS CALL ISZERO DUP1 ISZERO PUSH2 0x359 JUMPI RETURNDATASIZE PUSH1 0x0 DUP1 RETURNDATACOPY RETURNDATASIZE PUSH1 0x0 REVERT JUMPDEST POP POP POP POP PUSH1 0x40 MLOAD RETURNDATASIZE PUSH1 0x1F NOT PUSH1 0x1F DUP3 ADD AND DUP3 ADD DUP1 PUSH1 0x40 MSTORE POP DUP2 ADD SWAP1 PUSH2 0x37D SWAP2 SWAP1 PUSH2 0xBFF JUMP JUMPDEST POP PUSH1 0x0 PUSH1 0x6 PUSH1 0x0 SWAP1 SLOAD SWAP1 PUSH2 0x100 EXP SWAP1 DIV PUSH20 0xFFFFFFFFFFFFFFFFFFFFFFFFFFFFFFFFFFFFFFFF AND PUSH20 0xFFFFFFFFFFFFFFFFFFFFFFFFFFFFFFFFFFFFFFFF AND PUSH4 0x23B872DD CALLER ADDRESS DUP7 PUSH1 0x40 MLOAD DUP5 PUSH4 0xFFFFFFFF AND PUSH1 0xE0 SHL DUP2 MSTORE PUSH1 0x4 ADD PUSH2 0x3DF SWAP4 SWAP3 SWAP2 SWAP1 PUSH2 0xC2C JUMP JUMPDEST PUSH1 0x20 PUSH1 0x40 MLOAD DUP1 DUP4 SUB DUP2 PUSH1 0x0 DUP8 GAS CALL ISZERO DUP1 ISZERO PUSH2 0x3FE JUMPI RETURNDATASIZE PUSH1 0x0 DUP1 RETURNDATACOPY RETURNDATASIZE PUSH1 0x0 REVERT JUMPDEST POP POP POP POP PUSH1 0x40 MLOAD RETURNDATASIZE PUSH1 0x1F NOT PUSH1 0x1F DUP3 ADD AND DUP3 ADD DUP1 PUSH1 0x40 MSTORE POP DUP2 ADD SWAP1 PUSH2 0x422 SWAP2 SWAP1 PUSH2 0xBFF JUMP JUMPDEST SWAP1 POP DUP1 PUSH2 0x464 JUMPI PUSH1 0x40 MLOAD PUSH32 0x8C379A000000000000000000000000000000000000000000000000000000000 DUP2 MSTORE PUSH1 0x4 ADD PUSH2 0x45B SWAP1 PUSH2 0xCC0 JUMP JUMPDEST PUSH1 0x40 MLOAD DUP1 SWAP2 SUB SWAP1 REVERT JUMPDEST PUSH1 0x0 PUSH1 0x5 PUSH1 0x0 SWAP1 SLOAD SWAP1 PUSH2 0x100 EXP SWAP1 DIV PUSH20 0xFFFFFFFFFFFFFFFFFFFFFFFFFFFFFFFFFFFFFFFF AND PUSH20 0xFFFFFFFFFFFFFFFFFFFFFFFFFFFFFFFFFFFFFFFF AND PUSH4 0xF305D719 CALLVALUE PUSH1 0x2 PUSH1 0x0 SWAP1 SLOAD SWAP1 PUSH2 0x100 EXP SWAP1 DIV PUSH20 0xFFFFFFFFFFFFFFFFFFFFFFFFFFFFFFFFFFFFFFFF AND DUP8 PUSH1 0x0 DUP1 CALLER TIMESTAMP PUSH1 0x40 MLOAD DUP9 PUSH4 0xFFFFFFFF AND PUSH1 0xE0 SHL DUP2 MSTORE PUSH1 0x4 ADD PUSH2 0x4EF SWAP7 SWAP6 SWAP5 SWAP4 SWAP3 SWAP2 SWAP1 PUSH2 0xD25 JUMP JUMPDEST PUSH1 0x60 PUSH1 0x40 MLOAD DUP1 DUP4 SUB DUP2 DUP6 DUP9 GAS CALL ISZERO DUP1 ISZERO PUSH2 0x50D JUMPI RETURNDATASIZE PUSH1 0x0 DUP1 RETURNDATACOPY RETURNDATASIZE PUSH1 0x0 REVERT JUMPDEST POP POP POP POP POP PUSH1 0x40 MLOAD RETURNDATASIZE PUSH1 0x1F NOT PUSH1 0x1F DUP3 ADD AND DUP3 ADD DUP1 PUSH1 0x40 MSTORE POP DUP2 ADD SWAP1 PUSH2 0x532 SWAP2 SWAP1 PUSH2 0xD86 JUMP JUMPDEST POP POP SWAP1 POP DUP1 SWAP3 POP POP POP SWAP2 SWAP1 POP JUMP JUMPDEST PUSH1 0x0 PUSH1 0x2 PUSH8 0xFFFFFFFFFFFFFFFF DUP2 GT ISZERO PUSH2 0x55D JUMPI PUSH2 0x55C PUSH2 0x985 JUMP JUMPDEST JUMPDEST PUSH1 0x40 MLOAD SWAP1 DUP1 DUP3 MSTORE DUP1 PUSH1 0x20 MUL PUSH1 0x20 ADD DUP3 ADD PUSH1 0x40 MSTORE DUP1 ISZERO PUSH2 0x58B JUMPI DUP2 PUSH1 0x20 ADD PUSH1 0x20 DUP3 MUL DUP1 CALLDATASIZE DUP4 CALLDATACOPY DUP1 DUP3 ADD SWAP2 POP POP SWAP1 POP JUMPDEST POP SWAP1 POP PUSH1 0x1 PUSH1 0x0 SWAP1 SLOAD SWAP1 PUSH2 0x100 EXP SWAP1 DIV PUSH20 0xFFFFFFFFFFFFFFFFFFFFFFFFFFFFFFFFFFFFFFFF AND DUP2 PUSH1 0x0 DUP2 MLOAD DUP2 LT PUSH2 0x5C5 JUMPI PUSH2 0x5C4 PUSH2 0xDD9 JUMP JUMPDEST JUMPDEST PUSH1 0x20 MUL PUSH1 0x20 ADD ADD SWAP1 PUSH20 0xFFFFFFFFFFFFFFFFFFFFFFFFFFFFFFFFFFFFFFFF AND SWAP1 DUP2 PUSH20 0xFFFFFFFFFFFFFFFFFFFFFFFFFFFFFFFFFFFFFFFF AND DUP2 MSTORE POP POP PUSH1 0x2 PUSH1 0x0 SWAP1 SLOAD SWAP1 PUSH2 0x100 EXP SWAP1 DIV PUSH20 0xFFFFFFFFFFFFFFFFFFFFFFFFFFFFFFFFFFFFFFFF AND DUP2 PUSH1 0x1 DUP2 MLOAD DUP2 LT PUSH2 0x636 JUMPI PUSH2 0x635 PUSH2 0xDD9 JUMP JUMPDEST JUMPDEST PUSH1 0x20 MUL PUSH1 0x20 ADD ADD SWAP1 PUSH20 0xFFFFFFFFFFFFFFFFFFFFFFFFFFFFFFFFFFFFFFFF AND SWAP1 DUP2 PUSH20 0xFFFFFFFFFFFFFFFFFFFFFFFFFFFFFFFFFFFFFFFF AND DUP2 MSTORE POP POP PUSH1 0x5 PUSH1 0x0 SWAP1 SLOAD SWAP1 PUSH2 0x100 EXP SWAP1 DIV PUSH20 0xFFFFFFFFFFFFFFFFFFFFFFFFFFFFFFFFFFFFFFFF AND PUSH20 0xFFFFFFFFFFFFFFFFFFFFFFFFFFFFFFFFFFFFFFFF AND PUSH4 0x7FF36AB5 CALLVALUE DUP5 DUP5 CALLER TIMESTAMP PUSH1 0x40 MLOAD DUP7 PUSH4 0xFFFFFFFF AND PUSH1 0xE0 SHL DUP2 MSTORE PUSH1 0x4 ADD PUSH2 0x6D2 SWAP5 SWAP4 SWAP3 SWAP2 SWAP1 PUSH2 0xEC6 JUMP JUMPDEST PUSH1 0x0 PUSH1 0x40 MLOAD DUP1 DUP4 SUB DUP2 DUP6 DUP9 GAS CALL ISZERO DUP1 ISZERO PUSH2 0x6F0 JUMPI RETURNDATASIZE PUSH1 0x0 DUP1 RETURNDATACOPY RETURNDATASIZE PUSH1 0x0 REVERT JUMPDEST POP POP POP POP POP PUSH1 0x40 MLOAD RETURNDATASIZE PUSH1 0x0 DUP3 RETURNDATACOPY RETURNDATASIZE PUSH1 0x1F NOT PUSH1 0x1F DUP3 ADD AND DUP3 ADD DUP1 PUSH1 0x40 MSTORE POP DUP2 ADD SWAP1 PUSH2 0x71A SWAP2 SWAP1 PUSH2 0xFDF JUMP JUMPDEST POP POP POP JUMP JUMPDEST PUSH1 0x7 PUSH1 0x0 SWAP1 SLOAD SWAP1 PUSH2 0x100 EXP SWAP1 DIV PUSH20 0xFFFFFFFFFFFFFFFFFFFFFFFFFFFFFFFFFFFFFFFF AND PUSH20 0xFFFFFFFFFFFFFFFFFFFFFFFFFFFFFFFFFFFFFFFF AND PUSH4 0xE2BBB158 DUP4 DUP4 PUSH1 0x40 MLOAD DUP4 PUSH4 0xFFFFFFFF AND PUSH1 0xE0 SHL DUP2 MSTORE PUSH1 0x4 ADD PUSH2 0x77C SWAP3 SWAP2 SWAP1 PUSH2 0xB75 JUMP JUMPDEST PUSH1 0x0 PUSH1 0x40 MLOAD DUP1 DUP4 SUB DUP2 PUSH1 0x0 DUP8 DUP1 EXTCODESIZE ISZERO DUP1 ISZERO PUSH2 0x796 JUMPI PUSH1 0x0 DUP1 REVERT JUMPDEST POP GAS CALL ISZERO DUP1 ISZERO PUSH2 0x7AA JUMPI RETURNDATASIZE PUSH1 0x0 DUP1 RETURNDATACOPY RETURNDATASIZE PUSH1 0x0 REVERT JUMPDEST POP POP POP POP POP POP POP JUMP JUMPDEST PUSH1 0x0 PUSH1 0x40 MLOAD SWAP1 POP SWAP1 JUMP JUMPDEST PUSH1 0x0 DUP1 REVERT JUMPDEST PUSH1 0x0 DUP1 REVERT JUMPDEST PUSH1 0x0 DUP2 SWAP1 POP SWAP2 SWAP1 POP JUMP JUMPDEST PUSH2 0x7DA DUP2 PUSH2 0x7C7 JUMP JUMPDEST DUP2 EQ PUSH2 0x7E5 JUMPI PUSH1 0x0 DUP1 REVERT JUMPDEST POP JUMP JUMPDEST PUSH1 0x0 DUP2 CALLDATALOAD SWAP1 POP PUSH2 0x7F7 DUP2 PUSH2 0x7D1 JUMP JUMPDEST SWAP3 SWAP2 POP POP JUMP JUMPDEST PUSH1 0x0 PUSH20 0xFFFFFFFFFFFFFFFFFFFFFFFFFFFFFFFFFFFFFFFF DUP3 AND SWAP1 POP SWAP2 SWAP1 POP JUMP JUMPDEST PUSH1 0x0 PUSH2 0x828 DUP3 PUSH2 0x7FD JUMP JUMPDEST SWAP1 POP SWAP2 SWAP1 POP JUMP JUMPDEST PUSH2 0x838 DUP2 PUSH2 0x81D JUMP JUMPDEST DUP2 EQ PUSH2 0x843 JUMPI PUSH1 0x0 DUP1 REVERT JUMPDEST POP JUMP JUMPDEST PUSH1 0x0 DUP2 CALLDATALOAD SWAP1 POP PUSH2 0x855 DUP2 PUSH2 0x82F JUMP JUMPDEST SWAP3 SWAP2 POP POP JUMP JUMPDEST PUSH1 0x0 DUP1 PUSH1 0x40 DUP4 DUP6 SUB SLT ISZERO PUSH2 0x872 JUMPI PUSH2 0x871 PUSH2 0x7BD JUMP JUMPDEST JUMPDEST PUSH1 0x0 PUSH2 0x880 DUP6 DUP3 DUP7 ADD PUSH2 0x7E8 JUMP JUMPDEST SWAP3 POP POP PUSH1 0x20 PUSH2 0x891 DUP6 DUP3 DUP7 ADD PUSH2 0x846 JUMP JUMPDEST SWAP2 POP POP SWAP3 POP SWAP3 SWAP1 POP JUMP JUMPDEST PUSH1 0x0 PUSH1 0x20 DUP3 DUP5 SUB SLT ISZERO PUSH2 0x8B1 JUMPI PUSH2 0x8B0 PUSH2 0x7BD JUMP JUMPDEST JUMPDEST PUSH1 0x0 PUSH2 0x8BF DUP5 DUP3 DUP6 ADD PUSH2 0x7E8 JUMP JUMPDEST SWAP2 POP POP SWAP3 SWAP2 POP POP JUMP JUMPDEST PUSH2 0x8D1 DUP2 PUSH2 0x7C7 JUMP JUMPDEST DUP3 MSTORE POP POP JUMP JUMPDEST PUSH1 0x0 PUSH1 0x20 DUP3 ADD SWAP1 POP PUSH2 0x8EC PUSH1 0x0 DUP4 ADD DUP5 PUSH2 0x8C8 JUMP JUMPDEST SWAP3 SWAP2 POP POP JUMP JUMPDEST PUSH1 0x0 DUP1 PUSH1 0x0 PUSH1 0x60 DUP5 DUP7 SUB SLT ISZERO PUSH2 0x90B JUMPI PUSH2 0x90A PUSH2 0x7BD JUMP JUMPDEST JUMPDEST PUSH1 0x0 PUSH2 0x919 DUP7 DUP3 DUP8 ADD PUSH2 0x846 JUMP JUMPDEST SWAP4 POP POP PUSH1 0x20 PUSH2 0x92A DUP7 DUP3 DUP8 ADD PUSH2 0x7E8 JUMP JUMPDEST SWAP3 POP POP PUSH1 0x40 PUSH2 0x93B DUP7 DUP3 DUP8 ADD PUSH2 0x7E8 JUMP JUMPDEST SWAP2 POP POP SWAP3 POP SWAP3 POP SWAP3 JUMP JUMPDEST PUSH2 0x94E DUP2 PUSH2 0x81D JUMP JUMPDEST DUP3 MSTORE POP POP JUMP JUMPDEST PUSH1 0x0 PUSH1 0x20 DUP3 ADD SWAP1 POP PUSH2 0x969 PUSH1 0x0 DUP4 ADD DUP5 PUSH2 0x945 JUMP JUMPDEST SWAP3 SWAP2 POP POP JUMP JUMPDEST PUSH1 0x0 DUP1 REVERT JUMPDEST PUSH1 0x0 PUSH1 0x1F NOT PUSH1 0x1F DUP4 ADD AND SWAP1 POP SWAP2 SWAP1 POP JUMP JUMPDEST PUSH32 0x4E487B7100000000000000000000000000000000000000000000000000000000 PUSH1 0x0 MSTORE PUSH1 0x41 PUSH1 0x4 MSTORE PUSH1 0x24 PUSH1 0x0 REVERT JUMPDEST PUSH2 0x9BD DUP3 PUSH2 0x974 JUMP JUMPDEST DUP2 ADD DUP2 DUP2 LT PUSH8 0xFFFFFFFFFFFFFFFF DUP3 GT OR ISZERO PUSH2 0x9DC JUMPI PUSH2 0x9DB PUSH2 0x985 JUMP JUMPDEST JUMPDEST DUP1 PUSH1 0x40 MSTORE POP POP POP JUMP JUMPDEST PUSH1 0x0 PUSH2 0x9EF PUSH2 0x7B3 JUMP JUMPDEST SWAP1 POP PUSH2 0x9FB DUP3 DUP3 PUSH2 0x9B4 JUMP JUMPDEST SWAP2 SWAP1 POP JUMP JUMPDEST PUSH1 0x0 DUP2 MLOAD SWAP1 POP PUSH2 0xA0F DUP2 PUSH2 0x7D1 JUMP JUMPDEST SWAP3 SWAP2 POP POP JUMP JUMPDEST PUSH1 0x0 PUSH1 0x40 DUP3 DUP5 SUB SLT ISZERO PUSH2 0xA2B JUMPI PUSH2 0xA2A PUSH2 0x96F JUMP JUMPDEST JUMPDEST PUSH2 0xA35 PUSH1 0x40 PUSH2 0x9E5 JUMP JUMPDEST SWAP1 POP PUSH1 0x0 PUSH2 0xA45 DUP5 DUP3 DUP6 ADD PUSH2 0xA00 JUMP JUMPDEST PUSH1 0x0 DUP4 ADD MSTORE POP PUSH1 0x20 PUSH2 0xA59 DUP5 DUP3 DUP6 ADD PUSH2 0xA00 JUMP JUMPDEST PUSH1 0x20 DUP4 ADD MSTORE POP SWAP3 SWAP2 POP POP JUMP JUMPDEST PUSH1 0x0 PUSH1 0x40 DUP3 DUP5 SUB SLT ISZERO PUSH2 0xA7B JUMPI PUSH2 0xA7A PUSH2 0x7BD JUMP JUMPDEST JUMPDEST PUSH1 0x0 PUSH2 0xA89 DUP5 DUP3 DUP6 ADD PUSH2 0xA15 JUMP JUMPDEST SWAP2 POP POP SWAP3 SWAP2 POP POP JUMP JUMPDEST PUSH1 0x0 PUSH2 0xA9D DUP3 PUSH2 0x81D JUMP JUMPDEST SWAP1 POP SWAP2 SWAP1 POP JUMP JUMPDEST PUSH2 0xAAD DUP2 PUSH2 0xA92 JUMP JUMPDEST DUP2 EQ PUSH2 0xAB8 JUMPI PUSH1 0x0 DUP1 REVERT JUMPDEST POP JUMP JUMPDEST PUSH1 0x0 DUP2 MLOAD SWAP1 POP PUSH2 0xACA DUP2 PUSH2 0xAA4 JUMP JUMPDEST SWAP3 SWAP2 POP POP JUMP JUMPDEST PUSH1 0x0 PUSH1 0x80 DUP3 DUP5 SUB SLT ISZERO PUSH2 0xAE6 JUMPI PUSH2 0xAE5 PUSH2 0x96F JUMP JUMPDEST JUMPDEST PUSH2 0xAF0 PUSH1 0x80 PUSH2 0x9E5 JUMP JUMPDEST SWAP1 POP PUSH1 0x0 PUSH2 0xB00 DUP5 DUP3 DUP6 ADD PUSH2 0xABB JUMP JUMPDEST PUSH1 0x0 DUP4 ADD MSTORE POP PUSH1 0x20 PUSH2 0xB14 DUP5 DUP3 DUP6 ADD PUSH2 0xA00 JUMP JUMPDEST PUSH1 0x20 DUP4 ADD MSTORE POP PUSH1 0x40 PUSH2 0xB28 DUP5 DUP3 DUP6 ADD PUSH2 0xA00 JUMP JUMPDEST PUSH1 0x40 DUP4 ADD MSTORE POP PUSH1 0x60 PUSH2 0xB3C DUP5 DUP3 DUP6 ADD PUSH2 0xA00 JUMP JUMPDEST PUSH1 0x60 DUP4 ADD MSTORE POP SWAP3 SWAP2 POP POP JUMP JUMPDEST PUSH1 0x0 PUSH1 0x80 DUP3 DUP5 SUB SLT ISZERO PUSH2 0xB5E JUMPI PUSH2 0xB5D PUSH2 0x7BD JUMP JUMPDEST JUMPDEST PUSH1 0x0 PUSH2 0xB6C DUP5 DUP3 DUP6 ADD PUSH2 0xAD0 JUMP JUMPDEST SWAP2 POP POP SWAP3 SWAP2 POP POP JUMP JUMPDEST PUSH1 0x0 PUSH1 0x40 DUP3 ADD SWAP1 POP PUSH2 0xB8A PUSH1 0x0 DUP4 ADD DUP6 PUSH2 0x8C8 JUMP JUMPDEST PUSH2 0xB97 PUSH1 0x20 DUP4 ADD DUP5 PUSH2 0x8C8 JUMP JUMPDEST SWAP4 SWAP3 POP POP POP JUMP JUMPDEST PUSH1 0x0 PUSH1 0x40 DUP3 ADD SWAP1 POP PUSH2 0xBB3 PUSH1 0x0 DUP4 ADD DUP6 PUSH2 0x945 JUMP JUMPDEST PUSH2 0xBC0 PUSH1 0x20 DUP4 ADD DUP5 PUSH2 0x8C8 JUMP JUMPDEST SWAP4 SWAP3 POP POP POP JUMP JUMPDEST PUSH1 0x0 DUP2 ISZERO ISZERO SWAP1 POP SWAP2 SWAP1 POP JUMP JUMPDEST PUSH2 0xBDC DUP2 PUSH2 0xBC7 JUMP JUMPDEST DUP2 EQ PUSH2 0xBE7 JUMPI PUSH1 0x0 DUP1 REVERT JUMPDEST POP JUMP JUMPDEST PUSH1 0x0 DUP2 MLOAD SWAP1 POP PUSH2 0xBF9 DUP2 PUSH2 0xBD3 JUMP JUMPDEST SWAP3 SWAP2 POP POP JUMP JUMPDEST PUSH1 0x0 PUSH1 0x20 DUP3 DUP5 SUB SLT ISZERO PUSH2 0xC15 JUMPI PUSH2 0xC14 PUSH2 0x7BD JUMP JUMPDEST JUMPDEST PUSH1 0x0 PUSH2 0xC23 DUP5 DUP3 DUP6 ADD PUSH2 0xBEA JUMP JUMPDEST SWAP2 POP POP SWAP3 SWAP2 POP POP JUMP JUMPDEST PUSH1 0x0 PUSH1 0x60 DUP3 ADD SWAP1 POP PUSH2 0xC41 PUSH1 0x0 DUP4 ADD DUP7 PUSH2 0x945 JUMP JUMPDEST PUSH2 0xC4E PUSH1 0x20 DUP4 ADD DUP6 PUSH2 0x945 JUMP JUMPDEST PUSH2 0xC5B PUSH1 0x40 DUP4 ADD DUP5 PUSH2 0x8C8 JUMP JUMPDEST SWAP5 SWAP4 POP POP POP POP JUMP JUMPDEST PUSH1 0x0 DUP3 DUP3 MSTORE PUSH1 0x20 DUP3 ADD SWAP1 POP SWAP3 SWAP2 POP POP JUMP JUMPDEST PUSH32 0x6D746F6B656E207472616E73666572206572726F722100000000000000000000 PUSH1 0x0 DUP3 ADD MSTORE POP JUMP JUMPDEST PUSH1 0x0 PUSH2 0xCAA PUSH1 0x16 DUP4 PUSH2 0xC63 JUMP JUMPDEST SWAP2 POP PUSH2 0xCB5 DUP3 PUSH2 0xC74 JUMP JUMPDEST PUSH1 0x20 DUP3 ADD SWAP1 POP SWAP2 SWAP1 POP JUMP JUMPDEST PUSH1 0x0 PUSH1 0x20 DUP3 ADD SWAP1 POP DUP2 DUP2 SUB PUSH1 0x0 DUP4 ADD MSTORE PUSH2 0xCD9 DUP2 PUSH2 0xC9D JUMP JUMPDEST SWAP1 POP SWAP2 SWAP1 POP JUMP JUMPDEST PUSH1 0x0 DUP2 SWAP1 POP SWAP2 SWAP1 POP JUMP JUMPDEST PUSH1 0x0 DUP2 SWAP1 POP SWAP2 SWAP1 POP JUMP JUMPDEST PUSH1 0x0 PUSH2 0xD0F PUSH2 0xD0A PUSH2 0xD05 DUP5 PUSH2 0xCE0 JUMP JUMPDEST PUSH2 0xCEA JUMP JUMPDEST PUSH2 0x7C7 JUMP JUMPDEST SWAP1 POP SWAP2 SWAP1 POP JUMP JUMPDEST PUSH2 0xD1F DUP2 PUSH2 0xCF4 JUMP JUMPDEST DUP3 MSTORE POP POP JUMP JUMPDEST PUSH1 0x0 PUSH1 0xC0 DUP3 ADD SWAP1 POP PUSH2 0xD3A PUSH1 0x0 DUP4 ADD DUP10 PUSH2 0x945 JUMP JUMPDEST PUSH2 0xD47 PUSH1 0x20 DUP4 ADD DUP9 PUSH2 0x8C8 JUMP JUMPDEST PUSH2 0xD54 PUSH1 0x40 DUP4 ADD DUP8 PUSH2 0xD16 JUMP JUMPDEST PUSH2 0xD61 PUSH1 0x60 DUP4 ADD DUP7 PUSH2 0xD16 JUMP JUMPDEST PUSH2 0xD6E PUSH1 0x80 DUP4 ADD DUP6 PUSH2 0x945 JUMP JUMPDEST PUSH2 0xD7B PUSH1 0xA0 DUP4 ADD DUP5 PUSH2 0x8C8 JUMP JUMPDEST SWAP8 SWAP7 POP POP POP POP POP POP POP JUMP JUMPDEST PUSH1 0x0 DUP1 PUSH1 0x0 PUSH1 0x60 DUP5 DUP7 SUB SLT ISZERO PUSH2 0xD9F JUMPI PUSH2 0xD9E PUSH2 0x7BD JUMP JUMPDEST JUMPDEST PUSH1 0x0 PUSH2 0xDAD DUP7 DUP3 DUP8 ADD PUSH2 0xA00 JUMP JUMPDEST SWAP4 POP POP PUSH1 0x20 PUSH2 0xDBE DUP7 DUP3 DUP8 ADD PUSH2 0xA00 JUMP JUMPDEST SWAP3 POP POP PUSH1 0x40 PUSH2 0xDCF DUP7 DUP3 DUP8 ADD PUSH2 0xA00 JUMP JUMPDEST SWAP2 POP POP SWAP3 POP SWAP3 POP SWAP3 JUMP JUMPDEST PUSH32 0x4E487B7100000000000000000000000000000000000000000000000000000000 PUSH1 0x0 MSTORE PUSH1 0x32 PUSH1 0x4 MSTORE PUSH1 0x24 PUSH1 0x0 REVERT JUMPDEST PUSH1 0x0 DUP2 MLOAD SWAP1 POP SWAP2 SWAP1 POP JUMP JUMPDEST PUSH1 0x0 DUP3 DUP3 MSTORE PUSH1 0x20 DUP3 ADD SWAP1 POP SWAP3 SWAP2 POP POP JUMP JUMPDEST PUSH1 0x0 DUP2 SWAP1 POP PUSH1 0x20 DUP3 ADD SWAP1 POP SWAP2 SWAP1 POP JUMP JUMPDEST PUSH2 0xE3D DUP2 PUSH2 0x81D JUMP JUMPDEST DUP3 MSTORE POP POP JUMP JUMPDEST PUSH1 0x0 PUSH2 0xE4F DUP4 DUP4 PUSH2 0xE34 JUMP JUMPDEST PUSH1 0x20 DUP4 ADD SWAP1 POP SWAP3 SWAP2 POP POP JUMP JUMPDEST PUSH1 0x0 PUSH1 0x20 DUP3 ADD SWAP1 POP SWAP2 SWAP1 POP JUMP JUMPDEST PUSH1 0x0 PUSH2 0xE73 DUP3 PUSH2 0xE08 JUMP JUMPDEST PUSH2 0xE7D DUP2 DUP6 PUSH2 0xE13 JUMP JUMPDEST SWAP4 POP PUSH2 0xE88 DUP4 PUSH2 0xE24 JUMP JUMPDEST DUP1 PUSH1 0x0 JUMPDEST DUP4 DUP2 LT ISZERO PUSH2 0xEB9 JUMPI DUP2 MLOAD PUSH2 0xEA0 DUP9 DUP3 PUSH2 0xE43 JUMP JUMPDEST SWAP8 POP PUSH2 0xEAB DUP4 PUSH2 0xE5B JUMP JUMPDEST SWAP3 POP POP PUSH1 0x1 DUP2 ADD SWAP1 POP PUSH2 0xE8C JUMP JUMPDEST POP DUP6 SWAP4 POP POP POP POP SWAP3 SWAP2 POP POP JUMP JUMPDEST PUSH1 0x0 PUSH1 0x80 DUP3 ADD SWAP1 POP PUSH2 0xEDB PUSH1 0x0 DUP4 ADD DUP8 PUSH2 0x8C8 JUMP JUMPDEST DUP2 DUP2 SUB PUSH1 0x20 DUP4 ADD MSTORE PUSH2 0xEED DUP2 DUP7 PUSH2 0xE68 JUMP JUMPDEST SWAP1 POP PUSH2 0xEFC PUSH1 0x40 DUP4 ADD DUP6 PUSH2 0x945 JUMP JUMPDEST PUSH2 0xF09 PUSH1 0x60 DUP4 ADD DUP5 PUSH2 0x8C8 JUMP JUMPDEST SWAP6 SWAP5 POP POP POP POP POP JUMP JUMPDEST PUSH1 0x0 DUP1 REVERT JUMPDEST PUSH1 0x0 PUSH8 0xFFFFFFFFFFFFFFFF DUP3 GT ISZERO PUSH2 0xF32 JUMPI PUSH2 0xF31 PUSH2 0x985 JUMP JUMPDEST JUMPDEST PUSH1 0x20 DUP3 MUL SWAP1 POP PUSH1 0x20 DUP2 ADD SWAP1 POP SWAP2 SWAP1 POP JUMP JUMPDEST PUSH1 0x0 DUP1 REVERT JUMPDEST PUSH1 0x0 PUSH2 0xF5B PUSH2 0xF56 DUP5 PUSH2 0xF17 JUMP JUMPDEST PUSH2 0x9E5 JUMP JUMPDEST SWAP1 POP DUP1 DUP4 DUP3 MSTORE PUSH1 0x20 DUP3 ADD SWAP1 POP PUSH1 0x20 DUP5 MUL DUP4 ADD DUP6 DUP2 GT ISZERO PUSH2 0xF7E JUMPI PUSH2 0xF7D PUSH2 0xF43 JUMP JUMPDEST JUMPDEST DUP4 JUMPDEST DUP2 DUP2 LT ISZERO PUSH2 0xFA7 JUMPI DUP1 PUSH2 0xF93 DUP9 DUP3 PUSH2 0xA00 JUMP JUMPDEST DUP5 MSTORE PUSH1 0x20 DUP5 ADD SWAP4 POP POP PUSH1 0x20 DUP2 ADD SWAP1 POP PUSH2 0xF80 JUMP JUMPDEST POP POP POP SWAP4 SWAP3 POP POP POP JUMP JUMPDEST PUSH1 0x0 DUP3 PUSH1 0x1F DUP4 ADD SLT PUSH2 0xFC6 JUMPI PUSH2 0xFC5 PUSH2 0xF12 JUMP JUMPDEST JUMPDEST DUP2 MLOAD PUSH2 0xFD6 DUP5 DUP3 PUSH1 0x20 DUP7 ADD PUSH2 0xF48 JUMP JUMPDEST SWAP2 POP POP SWAP3 SWAP2 POP POP JUMP JUMPDEST PUSH1 0x0 PUSH1 0x20 DUP3 DUP5 SUB SLT ISZERO PUSH2 0xFF5 JUMPI PUSH2 0xFF4 PUSH2 0x7BD JUMP JUMPDEST JUMPDEST PUSH1 0x0 DUP3 ADD MLOAD PUSH8 0xFFFFFFFFFFFFFFFF DUP2 GT ISZERO PUSH2 0x1013 JUMPI PUSH2 0x1012 PUSH2 0x7C2 JUMP JUMPDEST JUMPDEST PUSH2 0x101F DUP5 DUP3 DUP6 ADD PUSH2 0xFB1 JUMP JUMPDEST SWAP2 POP POP SWAP3 SWAP2 POP POP JUMP INVALID LOG2 PUSH5 0x6970667358 0x22 SLT KECCAK256 ISZERO DUP7 0xB4 DUP16 BLOCKHASH NOT SAR KECCAK256 PUSH5 0x7073D2DCE BALANCE PUSH31 0xB10A7CEB9CAC1155C8B487023A2224C164736F6C634300080D003300000000 "
				},
				"gasEstimates": {
					"creation": {
						"codeDepositCost": "838000",
						"executionCost": "201411",
						"totalCost": "1039411"
					},
					"external": {
						"addLiquidity(uint256)": "infinite",
						"buyExactTokenByETH(uint256)": "infinite",
						"depositToMasterChef(address,uint256,uint256)": "infinite",
						"withdraw(uint256,address)": "infinite"
					}
				},
				"methodIdentifiers": {
					"addLiquidity(uint256)": "51c6590a",
					"buyExactTokenByETH(uint256)": "a93f74e0",
					"depositToMasterChef(address,uint256,uint256)": "fc55d2bf",
					"withdraw(uint256,address)": "00f714ce"
				}
			},
			"userdoc": {
				"kind": "user",
				"methods": {},
				"version": 1
			}
		}
	}
}