{
	"contracts2/V3FlashLoan.sol": {
		"V3FlashLoan": {
			"abi": [
				{
					"inputs": [
						{
							"internalType": "contract IPoolAddressesProvider",
							"name": "_address",
							"type": "address"
						}
					],
					"stateMutability": "nonpayable",
					"type": "constructor"
				},
				{
					"anonymous": false,
					"inputs": [
						{
							"indexed": true,
							"internalType": "address",
							"name": "previousOwner",
							"type": "address"
						},
						{
							"indexed": true,
							"internalType": "address",
							"name": "newOwner",
							"type": "address"
						}
					],
					"name": "OwnershipTransferred",
					"type": "event"
				},
				{
					"inputs": [],
					"name": "ADDRESSES_PROVIDER",
					"outputs": [
						{
							"internalType": "contract IPoolAddressesProvider",
							"name": "",
							"type": "address"
						}
					],
					"stateMutability": "view",
					"type": "function"
				},
				{
					"inputs": [],
					"name": "POOL",
					"outputs": [
						{
							"internalType": "contract IPool",
							"name": "",
							"type": "address"
						}
					],
					"stateMutability": "view",
					"type": "function"
				},
				{
					"inputs": [
						{
							"internalType": "address",
							"name": "asset",
							"type": "address"
						},
						{
							"internalType": "uint256",
							"name": "amount",
							"type": "uint256"
						},
						{
							"internalType": "uint256",
							"name": "premium",
							"type": "uint256"
						},
						{
							"internalType": "address",
							"name": "initiator",
							"type": "address"
						},
						{
							"internalType": "bytes",
							"name": "params",
							"type": "bytes"
						}
					],
					"name": "executeOperation",
					"outputs": [
						{
							"internalType": "bool",
							"name": "",
							"type": "bool"
						}
					],
					"stateMutability": "nonpayable",
					"type": "function"
				},
				{
					"inputs": [],
					"name": "owner",
					"outputs": [
						{
							"internalType": "address",
							"name": "",
							"type": "address"
						}
					],
					"stateMutability": "view",
					"type": "function"
				},
				{
					"inputs": [],
					"name": "renounceOwnership",
					"outputs": [],
					"stateMutability": "nonpayable",
					"type": "function"
				},
				{
					"inputs": [
						{
							"internalType": "address",
							"name": "asset1",
							"type": "address"
						},
						{
							"internalType": "uint256",
							"name": "amount1",
							"type": "uint256"
						}
					],
					"name": "startFlashLoan",
					"outputs": [],
					"stateMutability": "nonpayable",
					"type": "function"
				},
				{
					"inputs": [
						{
							"internalType": "address",
							"name": "newOwner",
							"type": "address"
						}
					],
					"name": "transferOwnership",
					"outputs": [],
					"stateMutability": "nonpayable",
					"type": "function"
				}
			],
			"devdoc": {
				"kind": "dev",
				"methods": {
					"executeOperation(address,uint256,uint256,address,bytes)": {
						"details": "Ensure that the contract can return the debt + premium, e.g., has      enough funds to repay and has approved the Pool to pull the total amount",
						"params": {
							"amount": "The amount of the flash-borrowed asset",
							"asset": "The address of the flash-borrowed asset",
							"initiator": "The address of the flashloan initiator",
							"params": "The byte-encoded params passed when initiating the flashloan",
							"premium": "The fee of the flash-borrowed asset"
						},
						"returns": {
							"_0": "True if the execution of the operation succeeds, false otherwise"
						}
					},
					"owner()": {
						"details": "Returns the address of the current owner."
					},
					"renounceOwnership()": {
						"details": "Leaves the contract without owner. It will not be possible to call `onlyOwner` functions anymore. Can only be called by the current owner. NOTE: Renouncing ownership will leave the contract without an owner, thereby removing any functionality that is only available to the owner."
					},
					"transferOwnership(address)": {
						"details": "Transfers ownership of the contract to a new account (`newOwner`). Can only be called by the current owner."
					}
				},
				"version": 1
			},
			"evm": {
				"assembly": "    /* \"contracts2/V3FlashLoan.sol\":358:1361  contract V3FlashLoan is FlashLoanSimpleReceiverBase, Ownable {... */\n  mstore(0x40, 0xc0)\n    /* \"contracts2/V3FlashLoan.sol\":426:510  constructor(IPoolAddressesProvider _address) FlashLoanSimpleReceiverBase(_address){} */\n  callvalue\n  dup1\n  iszero\n  tag_1\n  jumpi\n  0x00\n  dup1\n  revert\ntag_1:\n  pop\n  mload(0x40)\n  sub(codesize, bytecodeSize)\n  dup1\n  bytecodeSize\n  dup4\n  codecopy\n  dup2\n  dup2\n  add\n  0x40\n  mstore\n  dup2\n  add\n  swap1\n  tag_2\n  swap2\n  swap1\n  tag_3\n  jump\t// in\ntag_2:\n    /* \"contracts2/V3FlashLoan.sol\":499:507  _address */\n  dup1\n    /* \"contracts2/flashloan-lib/FlashLoanSimpleReceiverBase.sol\":648:656  provider */\n  dup1\n    /* \"contracts2/flashloan-lib/FlashLoanSimpleReceiverBase.sol\":627:656  ADDRESSES_PROVIDER = provider */\n  0xffffffffffffffffffffffffffffffffffffffff\n  and\n  0x80\n  dup2\n  0xffffffffffffffffffffffffffffffffffffffff\n  and\n  dup2\n  mstore\n  pop\n  pop\n    /* \"contracts2/flashloan-lib/FlashLoanSimpleReceiverBase.sol\":676:684  provider */\n  dup1\n    /* \"contracts2/flashloan-lib/FlashLoanSimpleReceiverBase.sol\":676:692  provider.getPool */\n  0xffffffffffffffffffffffffffffffffffffffff\n  and\n  0x026b1d5f\n    /* \"contracts2/flashloan-lib/FlashLoanSimpleReceiverBase.sol\":676:694  provider.getPool() */\n  mload(0x40)\n  dup2\n  0xffffffff\n  and\n  0xe0\n  shl\n  dup2\n  mstore\n  0x04\n  add\n  0x20\n  mload(0x40)\n  dup1\n  dup4\n  sub\n  dup2\n  dup7\n  gas\n  staticcall\n  iszero\n  dup1\n  iszero\n  tag_9\n  jumpi\n  returndatasize\n  0x00\n  dup1\n  returndatacopy\n  revert(0x00, returndatasize)\ntag_9:\n  pop\n  pop\n  pop\n  pop\n  mload(0x40)\n  returndatasize\n  not(0x1f)\n  0x1f\n  dup3\n  add\n  and\n  dup3\n  add\n  dup1\n  0x40\n  mstore\n  pop\n  dup2\n  add\n  swap1\n  tag_10\n  swap2\n  swap1\n  tag_11\n  jump\t// in\ntag_10:\n    /* \"contracts2/flashloan-lib/FlashLoanSimpleReceiverBase.sol\":663:695  POOL = IPool(provider.getPool()) */\n  0xffffffffffffffffffffffffffffffffffffffff\n  and\n  0xa0\n  dup2\n  0xffffffffffffffffffffffffffffffffffffffff\n  and\n  dup2\n  mstore\n  pop\n  pop\n    /* \"contracts2/flashloan-lib/FlashLoanSimpleReceiverBase.sol\":575:701  constructor(IPoolAddressesProvider provider) {... */\n  pop\n    /* \"@openzeppelin/contracts/access/Ownable.sol\":921:953  _transferOwnership(_msgSender()) */\n  tag_13\n    /* \"@openzeppelin/contracts/access/Ownable.sol\":940:952  _msgSender() */\n  tag_14\n    /* \"@openzeppelin/contracts/access/Ownable.sol\":940:950  _msgSender */\n  shl(0x20, tag_15)\n    /* \"@openzeppelin/contracts/access/Ownable.sol\":940:952  _msgSender() */\n  0x20\n  shr\n  jump\t// in\ntag_14:\n    /* \"@openzeppelin/contracts/access/Ownable.sol\":921:939  _transferOwnership */\n  shl(0x20, tag_16)\n    /* \"@openzeppelin/contracts/access/Ownable.sol\":921:953  _transferOwnership(_msgSender()) */\n  0x20\n  shr\n  jump\t// in\ntag_13:\n    /* \"contracts2/V3FlashLoan.sol\":426:510  constructor(IPoolAddressesProvider _address) FlashLoanSimpleReceiverBase(_address){} */\n  pop\n    /* \"contracts2/V3FlashLoan.sol\":358:1361  contract V3FlashLoan is FlashLoanSimpleReceiverBase, Ownable {... */\n  jump(tag_18)\n    /* \"@openzeppelin/contracts/utils/Context.sol\":640:736  function _msgSender() internal view virtual returns (address) {... */\ntag_15:\n    /* \"@openzeppelin/contracts/utils/Context.sol\":693:700  address */\n  0x00\n    /* \"@openzeppelin/contracts/utils/Context.sol\":719:729  msg.sender */\n  caller\n    /* \"@openzeppelin/contracts/utils/Context.sol\":712:729  return msg.sender */\n  swap1\n  pop\n    /* \"@openzeppelin/contracts/utils/Context.sol\":640:736  function _msgSender() internal view virtual returns (address) {... */\n  swap1\n  jump\t// out\n    /* \"@openzeppelin/contracts/access/Ownable.sol\":2270:2457  function _transferOwnership(address newOwner) internal virtual {... */\ntag_16:\n    /* \"@openzeppelin/contracts/access/Ownable.sol\":2343:2359  address oldOwner */\n  0x00\n    /* \"@openzeppelin/contracts/access/Ownable.sol\":2362:2368  _owner */\n  dup1\n  0x00\n  swap1\n  sload\n  swap1\n  0x0100\n  exp\n  swap1\n  div\n  0xffffffffffffffffffffffffffffffffffffffff\n  and\n    /* \"@openzeppelin/contracts/access/Ownable.sol\":2343:2368  address oldOwner = _owner */\n  swap1\n  pop\n    /* \"@openzeppelin/contracts/access/Ownable.sol\":2387:2395  newOwner */\n  dup2\n    /* \"@openzeppelin/contracts/access/Ownable.sol\":2378:2384  _owner */\n  0x00\n  dup1\n    /* \"@openzeppelin/contracts/access/Ownable.sol\":2378:2395  _owner = newOwner */\n  0x0100\n  exp\n  dup2\n  sload\n  dup2\n  0xffffffffffffffffffffffffffffffffffffffff\n  mul\n  not\n  and\n  swap1\n  dup4\n  0xffffffffffffffffffffffffffffffffffffffff\n  and\n  mul\n  or\n  swap1\n  sstore\n  pop\n    /* \"@openzeppelin/contracts/access/Ownable.sol\":2441:2449  newOwner */\n  dup2\n    /* \"@openzeppelin/contracts/access/Ownable.sol\":2410:2450  OwnershipTransferred(oldOwner, newOwner) */\n  0xffffffffffffffffffffffffffffffffffffffff\n  and\n    /* \"@openzeppelin/contracts/access/Ownable.sol\":2431:2439  oldOwner */\n  dup2\n    /* \"@openzeppelin/contracts/access/Ownable.sol\":2410:2450  OwnershipTransferred(oldOwner, newOwner) */\n  0xffffffffffffffffffffffffffffffffffffffff\n  and\n  0x8be0079c531659141344cd1fd0a4f28419497f9722a3daafe3b4186f6b6457e0\n  mload(0x40)\n  mload(0x40)\n  dup1\n  swap2\n  sub\n  swap1\n  log3\n    /* \"@openzeppelin/contracts/access/Ownable.sol\":2333:2457  {... */\n  pop\n    /* \"@openzeppelin/contracts/access/Ownable.sol\":2270:2457  function _transferOwnership(address newOwner) internal virtual {... */\n  pop\n  jump\t// out\n    /* \"#utility.yul\":88:205   */\ntag_22:\n    /* \"#utility.yul\":197:198   */\n  0x00\n    /* \"#utility.yul\":194:195   */\n  dup1\n    /* \"#utility.yul\":187:199   */\n  revert\n    /* \"#utility.yul\":334:460   */\ntag_24:\n    /* \"#utility.yul\":371:378   */\n  0x00\n    /* \"#utility.yul\":411:453   */\n  0xffffffffffffffffffffffffffffffffffffffff\n    /* \"#utility.yul\":404:409   */\n  dup3\n    /* \"#utility.yul\":400:454   */\n  and\n    /* \"#utility.yul\":389:454   */\n  swap1\n  pop\n    /* \"#utility.yul\":334:460   */\n  swap2\n  swap1\n  pop\n  jump\t// out\n    /* \"#utility.yul\":466:562   */\ntag_25:\n    /* \"#utility.yul\":503:510   */\n  0x00\n    /* \"#utility.yul\":532:556   */\n  tag_37\n    /* \"#utility.yul\":550:555   */\n  dup3\n    /* \"#utility.yul\":532:556   */\n  tag_24\n  jump\t// in\ntag_37:\n    /* \"#utility.yul\":521:556   */\n  swap1\n  pop\n    /* \"#utility.yul\":466:562   */\n  swap2\n  swap1\n  pop\n  jump\t// out\n    /* \"#utility.yul\":568:695   */\ntag_26:\n    /* \"#utility.yul\":636:643   */\n  0x00\n    /* \"#utility.yul\":665:689   */\n  tag_39\n    /* \"#utility.yul\":683:688   */\n  dup3\n    /* \"#utility.yul\":665:689   */\n  tag_25\n  jump\t// in\ntag_39:\n    /* \"#utility.yul\":654:689   */\n  swap1\n  pop\n    /* \"#utility.yul\":568:695   */\n  swap2\n  swap1\n  pop\n  jump\t// out\n    /* \"#utility.yul\":701:885   */\ntag_27:\n    /* \"#utility.yul\":805:860   */\n  tag_41\n    /* \"#utility.yul\":854:859   */\n  dup2\n    /* \"#utility.yul\":805:860   */\n  tag_26\n  jump\t// in\ntag_41:\n    /* \"#utility.yul\":798:803   */\n  dup2\n    /* \"#utility.yul\":795:861   */\n  eq\n    /* \"#utility.yul\":785:879   */\n  tag_42\n  jumpi\n    /* \"#utility.yul\":875:876   */\n  0x00\n    /* \"#utility.yul\":872:873   */\n  dup1\n    /* \"#utility.yul\":865:877   */\n  revert\n    /* \"#utility.yul\":785:879   */\ntag_42:\n    /* \"#utility.yul\":701:885   */\n  pop\n  jump\t// out\n    /* \"#utility.yul\":891:1096   */\ntag_28:\n    /* \"#utility.yul\":979:984   */\n  0x00\n    /* \"#utility.yul\":1010:1016   */\n  dup2\n    /* \"#utility.yul\":1004:1017   */\n  mload\n    /* \"#utility.yul\":995:1017   */\n  swap1\n  pop\n    /* \"#utility.yul\":1026:1090   */\n  tag_44\n    /* \"#utility.yul\":1084:1089   */\n  dup2\n    /* \"#utility.yul\":1026:1090   */\n  tag_27\n  jump\t// in\ntag_44:\n    /* \"#utility.yul\":891:1096   */\n  swap3\n  swap2\n  pop\n  pop\n  jump\t// out\n    /* \"#utility.yul\":1102:1515   */\ntag_3:\n    /* \"#utility.yul\":1203:1209   */\n  0x00\n    /* \"#utility.yul\":1252:1254   */\n  0x20\n    /* \"#utility.yul\":1240:1249   */\n  dup3\n    /* \"#utility.yul\":1231:1238   */\n  dup5\n    /* \"#utility.yul\":1227:1250   */\n  sub\n    /* \"#utility.yul\":1223:1255   */\n  slt\n    /* \"#utility.yul\":1220:1339   */\n  iszero\n  tag_46\n  jumpi\n    /* \"#utility.yul\":1258:1337   */\n  tag_47\n  tag_22\n  jump\t// in\ntag_47:\n    /* \"#utility.yul\":1220:1339   */\ntag_46:\n    /* \"#utility.yul\":1378:1379   */\n  0x00\n    /* \"#utility.yul\":1403:1498   */\n  tag_48\n    /* \"#utility.yul\":1490:1497   */\n  dup5\n    /* \"#utility.yul\":1481:1487   */\n  dup3\n    /* \"#utility.yul\":1470:1479   */\n  dup6\n    /* \"#utility.yul\":1466:1488   */\n  add\n    /* \"#utility.yul\":1403:1498   */\n  tag_28\n  jump\t// in\ntag_48:\n    /* \"#utility.yul\":1393:1498   */\n  swap2\n  pop\n    /* \"#utility.yul\":1349:1508   */\n  pop\n    /* \"#utility.yul\":1102:1515   */\n  swap3\n  swap2\n  pop\n  pop\n  jump\t// out\n    /* \"#utility.yul\":1521:1643   */\ntag_29:\n    /* \"#utility.yul\":1594:1618   */\n  tag_50\n    /* \"#utility.yul\":1612:1617   */\n  dup2\n    /* \"#utility.yul\":1594:1618   */\n  tag_25\n  jump\t// in\ntag_50:\n    /* \"#utility.yul\":1587:1592   */\n  dup2\n    /* \"#utility.yul\":1584:1619   */\n  eq\n    /* \"#utility.yul\":1574:1637   */\n  tag_51\n  jumpi\n    /* \"#utility.yul\":1633:1634   */\n  0x00\n    /* \"#utility.yul\":1630:1631   */\n  dup1\n    /* \"#utility.yul\":1623:1635   */\n  revert\n    /* \"#utility.yul\":1574:1637   */\ntag_51:\n    /* \"#utility.yul\":1521:1643   */\n  pop\n  jump\t// out\n    /* \"#utility.yul\":1649:1792   */\ntag_30:\n    /* \"#utility.yul\":1706:1711   */\n  0x00\n    /* \"#utility.yul\":1737:1743   */\n  dup2\n    /* \"#utility.yul\":1731:1744   */\n  mload\n    /* \"#utility.yul\":1722:1744   */\n  swap1\n  pop\n    /* \"#utility.yul\":1753:1786   */\n  tag_53\n    /* \"#utility.yul\":1780:1785   */\n  dup2\n    /* \"#utility.yul\":1753:1786   */\n  tag_29\n  jump\t// in\ntag_53:\n    /* \"#utility.yul\":1649:1792   */\n  swap3\n  swap2\n  pop\n  pop\n  jump\t// out\n    /* \"#utility.yul\":1798:2149   */\ntag_11:\n    /* \"#utility.yul\":1868:1874   */\n  0x00\n    /* \"#utility.yul\":1917:1919   */\n  0x20\n    /* \"#utility.yul\":1905:1914   */\n  dup3\n    /* \"#utility.yul\":1896:1903   */\n  dup5\n    /* \"#utility.yul\":1892:1915   */\n  sub\n    /* \"#utility.yul\":1888:1920   */\n  slt\n    /* \"#utility.yul\":1885:2004   */\n  iszero\n  tag_55\n  jumpi\n    /* \"#utility.yul\":1923:2002   */\n  tag_56\n  tag_22\n  jump\t// in\ntag_56:\n    /* \"#utility.yul\":1885:2004   */\ntag_55:\n    /* \"#utility.yul\":2043:2044   */\n  0x00\n    /* \"#utility.yul\":2068:2132   */\n  tag_57\n    /* \"#utility.yul\":2124:2131   */\n  dup5\n    /* \"#utility.yul\":2115:2121   */\n  dup3\n    /* \"#utility.yul\":2104:2113   */\n  dup6\n    /* \"#utility.yul\":2100:2122   */\n  add\n    /* \"#utility.yul\":2068:2132   */\n  tag_30\n  jump\t// in\ntag_57:\n    /* \"#utility.yul\":2058:2132   */\n  swap2\n  pop\n    /* \"#utility.yul\":2014:2142   */\n  pop\n    /* \"#utility.yul\":1798:2149   */\n  swap3\n  swap2\n  pop\n  pop\n  jump\t// out\n    /* \"contracts2/V3FlashLoan.sol\":358:1361  contract V3FlashLoan is FlashLoanSimpleReceiverBase, Ownable {... */\ntag_18:\n  mload(0x80)\n  mload(0xa0)\n  codecopy(0x00, dataOffset(sub_0), dataSize(sub_0))\n  0x00\n  assignImmutable(\"0x062e0d05679deb61c3c16718a62bec0f8eaa9ea36bea43666f8316bed62917c4\")\n  0x00\n  assignImmutable(\"0x0dfd64029272ae1eec371435db3c91654901e378ddb1520c94b2e8119baa40ed\")\n  return(0x00, dataSize(sub_0))\nstop\n\nsub_0: assembly {\n        /* \"contracts2/V3FlashLoan.sol\":358:1361  contract V3FlashLoan is FlashLoanSimpleReceiverBase, Ownable {... */\n      mstore(0x40, 0x80)\n      callvalue\n      dup1\n      iszero\n      tag_1\n      jumpi\n      0x00\n      dup1\n      revert\n    tag_1:\n      pop\n      jumpi(tag_2, lt(calldatasize, 0x04))\n      shr(0xe0, calldataload(0x00))\n      dup1\n      0x7535d246\n      gt\n      tag_10\n      jumpi\n      dup1\n      0x7535d246\n      eq\n      tag_6\n      jumpi\n      dup1\n      0x763cbbfd\n      eq\n      tag_7\n      jumpi\n      dup1\n      0x8da5cb5b\n      eq\n      tag_8\n      jumpi\n      dup1\n      0xf2fde38b\n      eq\n      tag_9\n      jumpi\n      jump(tag_2)\n    tag_10:\n      dup1\n      0x0542975c\n      eq\n      tag_3\n      jumpi\n      dup1\n      0x1b11d0ff\n      eq\n      tag_4\n      jumpi\n      dup1\n      0x715018a6\n      eq\n      tag_5\n      jumpi\n    tag_2:\n      0x00\n      dup1\n      revert\n        /* \"contracts2/flashloan-lib/FlashLoanSimpleReceiverBase.sol\":460:527  IPoolAddressesProvider public immutable override ADDRESSES_PROVIDER */\n    tag_3:\n      tag_11\n      tag_12\n      jump\t// in\n    tag_11:\n      mload(0x40)\n      tag_13\n      swap2\n      swap1\n      tag_14\n      jump\t// in\n    tag_13:\n      mload(0x40)\n      dup1\n      swap2\n      sub\n      swap1\n      return\n        /* \"contracts2/V3FlashLoan.sol\":518:880  function executeOperation(... */\n    tag_4:\n      tag_15\n      0x04\n      dup1\n      calldatasize\n      sub\n      dup2\n      add\n      swap1\n      tag_16\n      swap2\n      swap1\n      tag_17\n      jump\t// in\n    tag_16:\n      tag_18\n      jump\t// in\n    tag_15:\n      mload(0x40)\n      tag_19\n      swap2\n      swap1\n      tag_20\n      jump\t// in\n    tag_19:\n      mload(0x40)\n      dup1\n      swap2\n      sub\n      swap1\n      return\n        /* \"@openzeppelin/contracts/access/Ownable.sol\":1668:1769  function renounceOwnership() public virtual onlyOwner {... */\n    tag_5:\n      tag_21\n      tag_22\n      jump\t// in\n    tag_21:\n      stop\n        /* \"contracts2/flashloan-lib/FlashLoanSimpleReceiverBase.sol\":532:568  IPool public immutable override POOL */\n    tag_6:\n      tag_23\n      tag_24\n      jump\t// in\n    tag_23:\n      mload(0x40)\n      tag_25\n      swap2\n      swap1\n      tag_26\n      jump\t// in\n    tag_25:\n      mload(0x40)\n      dup1\n      swap2\n      sub\n      swap1\n      return\n        /* \"contracts2/V3FlashLoan.sol\":889:1356  function startFlashLoan(address asset1,uint256 amount1) public onlyOwner {... */\n    tag_7:\n      tag_27\n      0x04\n      dup1\n      calldatasize\n      sub\n      dup2\n      add\n      swap1\n      tag_28\n      swap2\n      swap1\n      tag_29\n      jump\t// in\n    tag_28:\n      tag_30\n      jump\t// in\n    tag_27:\n      stop\n        /* \"@openzeppelin/contracts/access/Ownable.sol\":1036:1121  function owner() public view virtual returns (address) {... */\n    tag_8:\n      tag_31\n      tag_32\n      jump\t// in\n    tag_31:\n      mload(0x40)\n      tag_33\n      swap2\n      swap1\n      tag_34\n      jump\t// in\n    tag_33:\n      mload(0x40)\n      dup1\n      swap2\n      sub\n      swap1\n      return\n        /* \"@openzeppelin/contracts/access/Ownable.sol\":1918:2116  function transferOwnership(address newOwner) public virtual onlyOwner {... */\n    tag_9:\n      tag_35\n      0x04\n      dup1\n      calldatasize\n      sub\n      dup2\n      add\n      swap1\n      tag_36\n      swap2\n      swap1\n      tag_37\n      jump\t// in\n    tag_36:\n      tag_38\n      jump\t// in\n    tag_35:\n      stop\n        /* \"contracts2/flashloan-lib/FlashLoanSimpleReceiverBase.sol\":460:527  IPoolAddressesProvider public immutable override ADDRESSES_PROVIDER */\n    tag_12:\n      immutable(\"0x0dfd64029272ae1eec371435db3c91654901e378ddb1520c94b2e8119baa40ed\")\n      dup2\n      jump\t// out\n        /* \"contracts2/V3FlashLoan.sol\":518:880  function executeOperation(... */\n    tag_18:\n        /* \"contracts2/V3FlashLoan.sol\":744:748  bool */\n      0x00\n        /* \"contracts2/V3FlashLoan.sol\":766:778  uint256 debt */\n      dup1\n        /* \"contracts2/V3FlashLoan.sol\":790:797  premium */\n      dup6\n        /* \"contracts2/V3FlashLoan.sol\":781:787  amount */\n      dup8\n        /* \"contracts2/V3FlashLoan.sol\":781:797  amount + premium */\n      tag_40\n      swap2\n      swap1\n      tag_41\n      jump\t// in\n    tag_40:\n        /* \"contracts2/V3FlashLoan.sol\":766:797  uint256 debt = amount + premium */\n      swap1\n      pop\n        /* \"contracts2/V3FlashLoan.sol\":815:820  asset */\n      dup8\n        /* \"contracts2/V3FlashLoan.sol\":808:829  IERC20(asset).approve */\n      0xffffffffffffffffffffffffffffffffffffffff\n      and\n      0x095ea7b3\n        /* \"contracts2/V3FlashLoan.sol\":838:842  POOL */\n      immutable(\"0x062e0d05679deb61c3c16718a62bec0f8eaa9ea36bea43666f8316bed62917c4\")\n        /* \"contracts2/V3FlashLoan.sol\":845:849  debt */\n      dup4\n        /* \"contracts2/V3FlashLoan.sol\":808:850  IERC20(asset).approve(address(POOL), debt) */\n      mload(0x40)\n      dup4\n      0xffffffff\n      and\n      0xe0\n      shl\n      dup2\n      mstore\n      0x04\n      add\n      tag_42\n      swap3\n      swap2\n      swap1\n      tag_43\n      jump\t// in\n    tag_42:\n      0x20\n      mload(0x40)\n      dup1\n      dup4\n      sub\n      dup2\n      0x00\n      dup8\n      gas\n      call\n      iszero\n      dup1\n      iszero\n      tag_45\n      jumpi\n      returndatasize\n      0x00\n      dup1\n      returndatacopy\n      revert(0x00, returndatasize)\n    tag_45:\n      pop\n      pop\n      pop\n      pop\n      mload(0x40)\n      returndatasize\n      not(0x1f)\n      0x1f\n      dup3\n      add\n      and\n      dup3\n      add\n      dup1\n      0x40\n      mstore\n      pop\n      dup2\n      add\n      swap1\n      tag_46\n      swap2\n      swap1\n      tag_47\n      jump\t// in\n    tag_46:\n      pop\n        /* \"contracts2/V3FlashLoan.sol\":868:872  true */\n      0x01\n        /* \"contracts2/V3FlashLoan.sol\":861:872  return true */\n      swap2\n      pop\n      pop\n        /* \"contracts2/V3FlashLoan.sol\":518:880  function executeOperation(... */\n      swap7\n      swap6\n      pop\n      pop\n      pop\n      pop\n      pop\n      pop\n      jump\t// out\n        /* \"@openzeppelin/contracts/access/Ownable.sol\":1668:1769  function renounceOwnership() public virtual onlyOwner {... */\n    tag_22:\n        /* \"@openzeppelin/contracts/access/Ownable.sol\":1259:1271  _msgSender() */\n      tag_49\n        /* \"@openzeppelin/contracts/access/Ownable.sol\":1259:1269  _msgSender */\n      tag_50\n        /* \"@openzeppelin/contracts/access/Ownable.sol\":1259:1271  _msgSender() */\n      jump\t// in\n    tag_49:\n        /* \"@openzeppelin/contracts/access/Ownable.sol\":1248:1271  owner() == _msgSender() */\n      0xffffffffffffffffffffffffffffffffffffffff\n      and\n        /* \"@openzeppelin/contracts/access/Ownable.sol\":1248:1255  owner() */\n      tag_51\n        /* \"@openzeppelin/contracts/access/Ownable.sol\":1248:1253  owner */\n      tag_32\n        /* \"@openzeppelin/contracts/access/Ownable.sol\":1248:1255  owner() */\n      jump\t// in\n    tag_51:\n        /* \"@openzeppelin/contracts/access/Ownable.sol\":1248:1271  owner() == _msgSender() */\n      0xffffffffffffffffffffffffffffffffffffffff\n      and\n      eq\n        /* \"@openzeppelin/contracts/access/Ownable.sol\":1240:1308  require(owner() == _msgSender(), \"Ownable: caller is not the owner\") */\n      tag_52\n      jumpi\n      mload(0x40)\n      0x08c379a000000000000000000000000000000000000000000000000000000000\n      dup2\n      mstore\n      0x04\n      add\n      tag_53\n      swap1\n      tag_54\n      jump\t// in\n    tag_53:\n      mload(0x40)\n      dup1\n      swap2\n      sub\n      swap1\n      revert\n    tag_52:\n        /* \"@openzeppelin/contracts/access/Ownable.sol\":1732:1762  _transferOwnership(address(0)) */\n      tag_56\n        /* \"@openzeppelin/contracts/access/Ownable.sol\":1759:1760  0 */\n      0x00\n        /* \"@openzeppelin/contracts/access/Ownable.sol\":1732:1750  _transferOwnership */\n      tag_57\n        /* \"@openzeppelin/contracts/access/Ownable.sol\":1732:1762  _transferOwnership(address(0)) */\n      jump\t// in\n    tag_56:\n        /* \"@openzeppelin/contracts/access/Ownable.sol\":1668:1769  function renounceOwnership() public virtual onlyOwner {... */\n      jump\t// out\n        /* \"contracts2/flashloan-lib/FlashLoanSimpleReceiverBase.sol\":532:568  IPool public immutable override POOL */\n    tag_24:\n      immutable(\"0x062e0d05679deb61c3c16718a62bec0f8eaa9ea36bea43666f8316bed62917c4\")\n      dup2\n      jump\t// out\n        /* \"contracts2/V3FlashLoan.sol\":889:1356  function startFlashLoan(address asset1,uint256 amount1) public onlyOwner {... */\n    tag_30:\n        /* \"@openzeppelin/contracts/access/Ownable.sol\":1259:1271  _msgSender() */\n      tag_59\n        /* \"@openzeppelin/contracts/access/Ownable.sol\":1259:1269  _msgSender */\n      tag_50\n        /* \"@openzeppelin/contracts/access/Ownable.sol\":1259:1271  _msgSender() */\n      jump\t// in\n    tag_59:\n        /* \"@openzeppelin/contracts/access/Ownable.sol\":1248:1271  owner() == _msgSender() */\n      0xffffffffffffffffffffffffffffffffffffffff\n      and\n        /* \"@openzeppelin/contracts/access/Ownable.sol\":1248:1255  owner() */\n      tag_60\n        /* \"@openzeppelin/contracts/access/Ownable.sol\":1248:1253  owner */\n      tag_32\n        /* \"@openzeppelin/contracts/access/Ownable.sol\":1248:1255  owner() */\n      jump\t// in\n    tag_60:\n        /* \"@openzeppelin/contracts/access/Ownable.sol\":1248:1271  owner() == _msgSender() */\n      0xffffffffffffffffffffffffffffffffffffffff\n      and\n      eq\n        /* \"@openzeppelin/contracts/access/Ownable.sol\":1240:1308  require(owner() == _msgSender(), \"Ownable: caller is not the owner\") */\n      tag_61\n      jumpi\n      mload(0x40)\n      0x08c379a000000000000000000000000000000000000000000000000000000000\n      dup2\n      mstore\n      0x04\n      add\n      tag_62\n      swap1\n      tag_54\n      jump\t// in\n    tag_62:\n      mload(0x40)\n      dup1\n      swap2\n      sub\n      swap1\n      revert\n    tag_61:\n        /* \"contracts2/V3FlashLoan.sol\":973:989  address receiver */\n      0x00\n        /* \"contracts2/V3FlashLoan.sol\":1000:1004  this */\n      address\n        /* \"contracts2/V3FlashLoan.sol\":973:1005  address receiver = address(this) */\n      swap1\n      pop\n        /* \"contracts2/V3FlashLoan.sol\":1016:1029  address asset */\n      0x00\n        /* \"contracts2/V3FlashLoan.sol\":1032:1038  asset1 */\n      dup4\n        /* \"contracts2/V3FlashLoan.sol\":1016:1038  address asset = asset1 */\n      swap1\n      pop\n        /* \"contracts2/V3FlashLoan.sol\":1087:1101  uint256 amount */\n      0x00\n        /* \"contracts2/V3FlashLoan.sol\":1104:1119  100000 * 10**18 */\n      0x152d02c7e14af6800000\n        /* \"contracts2/V3FlashLoan.sol\":1087:1119  uint256 amount = 100000 * 10**18 */\n      swap1\n      pop\n        /* \"contracts2/V3FlashLoan.sol\":1132:1151  bytes memory params */\n      0x00\n        /* \"contracts2/V3FlashLoan.sol\":1132:1156  bytes memory params = \"\" */\n      mload(0x40)\n      dup1\n      0x20\n      add\n      0x40\n      mstore\n      dup1\n      0x00\n      dup2\n      mstore\n      pop\n      swap1\n      pop\n        /* \"contracts2/V3FlashLoan.sol\":1169:1188  uint16 referralCode */\n      0x00\n        /* \"contracts2/V3FlashLoan.sol\":1205:1209  POOL */\n      immutable(\"0x062e0d05679deb61c3c16718a62bec0f8eaa9ea36bea43666f8316bed62917c4\")\n        /* \"contracts2/V3FlashLoan.sol\":1205:1225  POOL.flashLoanSimple */\n      0xffffffffffffffffffffffffffffffffffffffff\n      and\n      0x42b0b77c\n        /* \"contracts2/V3FlashLoan.sol\":1240:1248  receiver */\n      dup7\n        /* \"contracts2/V3FlashLoan.sol\":1263:1268  asset */\n      dup7\n        /* \"contracts2/V3FlashLoan.sol\":1283:1289  amount */\n      dup7\n        /* \"contracts2/V3FlashLoan.sol\":1304:1310  params */\n      dup7\n        /* \"contracts2/V3FlashLoan.sol\":1325:1337  referralCode */\n      dup7\n        /* \"contracts2/V3FlashLoan.sol\":1205:1348  POOL.flashLoanSimple(... */\n      mload(0x40)\n      dup7\n      0xffffffff\n      and\n      0xe0\n      shl\n      dup2\n      mstore\n      0x04\n      add\n      tag_64\n      swap6\n      swap5\n      swap4\n      swap3\n      swap2\n      swap1\n      tag_65\n      jump\t// in\n    tag_64:\n      0x00\n      mload(0x40)\n      dup1\n      dup4\n      sub\n      dup2\n      0x00\n      dup8\n      dup1\n      extcodesize\n      iszero\n      dup1\n      iszero\n      tag_66\n      jumpi\n      0x00\n      dup1\n      revert\n    tag_66:\n      pop\n      gas\n      call\n      iszero\n      dup1\n      iszero\n      tag_68\n      jumpi\n      returndatasize\n      0x00\n      dup1\n      returndatacopy\n      revert(0x00, returndatasize)\n    tag_68:\n      pop\n      pop\n      pop\n      pop\n        /* \"contracts2/V3FlashLoan.sol\":962:1356  {... */\n      pop\n      pop\n      pop\n      pop\n      pop\n        /* \"contracts2/V3FlashLoan.sol\":889:1356  function startFlashLoan(address asset1,uint256 amount1) public onlyOwner {... */\n      pop\n      pop\n      jump\t// out\n        /* \"@openzeppelin/contracts/access/Ownable.sol\":1036:1121  function owner() public view virtual returns (address) {... */\n    tag_32:\n        /* \"@openzeppelin/contracts/access/Ownable.sol\":1082:1089  address */\n      0x00\n        /* \"@openzeppelin/contracts/access/Ownable.sol\":1108:1114  _owner */\n      dup1\n      0x00\n      swap1\n      sload\n      swap1\n      0x0100\n      exp\n      swap1\n      div\n      0xffffffffffffffffffffffffffffffffffffffff\n      and\n        /* \"@openzeppelin/contracts/access/Ownable.sol\":1101:1114  return _owner */\n      swap1\n      pop\n        /* \"@openzeppelin/contracts/access/Ownable.sol\":1036:1121  function owner() public view virtual returns (address) {... */\n      swap1\n      jump\t// out\n        /* \"@openzeppelin/contracts/access/Ownable.sol\":1918:2116  function transferOwnership(address newOwner) public virtual onlyOwner {... */\n    tag_38:\n        /* \"@openzeppelin/contracts/access/Ownable.sol\":1259:1271  _msgSender() */\n      tag_71\n        /* \"@openzeppelin/contracts/access/Ownable.sol\":1259:1269  _msgSender */\n      tag_50\n        /* \"@openzeppelin/contracts/access/Ownable.sol\":1259:1271  _msgSender() */\n      jump\t// in\n    tag_71:\n        /* \"@openzeppelin/contracts/access/Ownable.sol\":1248:1271  owner() == _msgSender() */\n      0xffffffffffffffffffffffffffffffffffffffff\n      and\n        /* \"@openzeppelin/contracts/access/Ownable.sol\":1248:1255  owner() */\n      tag_72\n        /* \"@openzeppelin/contracts/access/Ownable.sol\":1248:1253  owner */\n      tag_32\n        /* \"@openzeppelin/contracts/access/Ownable.sol\":1248:1255  owner() */\n      jump\t// in\n    tag_72:\n        /* \"@openzeppelin/contracts/access/Ownable.sol\":1248:1271  owner() == _msgSender() */\n      0xffffffffffffffffffffffffffffffffffffffff\n      and\n      eq\n        /* \"@openzeppelin/contracts/access/Ownable.sol\":1240:1308  require(owner() == _msgSender(), \"Ownable: caller is not the owner\") */\n      tag_73\n      jumpi\n      mload(0x40)\n      0x08c379a000000000000000000000000000000000000000000000000000000000\n      dup2\n      mstore\n      0x04\n      add\n      tag_74\n      swap1\n      tag_54\n      jump\t// in\n    tag_74:\n      mload(0x40)\n      dup1\n      swap2\n      sub\n      swap1\n      revert\n    tag_73:\n        /* \"@openzeppelin/contracts/access/Ownable.sol\":2026:2027  0 */\n      0x00\n        /* \"@openzeppelin/contracts/access/Ownable.sol\":2006:2028  newOwner != address(0) */\n      0xffffffffffffffffffffffffffffffffffffffff\n      and\n        /* \"@openzeppelin/contracts/access/Ownable.sol\":2006:2014  newOwner */\n      dup2\n        /* \"@openzeppelin/contracts/access/Ownable.sol\":2006:2028  newOwner != address(0) */\n      0xffffffffffffffffffffffffffffffffffffffff\n      and\n      eq\n      iszero\n        /* \"@openzeppelin/contracts/access/Ownable.sol\":1998:2071  require(newOwner != address(0), \"Ownable: new owner is the zero address\") */\n      tag_76\n      jumpi\n      mload(0x40)\n      0x08c379a000000000000000000000000000000000000000000000000000000000\n      dup2\n      mstore\n      0x04\n      add\n      tag_77\n      swap1\n      tag_78\n      jump\t// in\n    tag_77:\n      mload(0x40)\n      dup1\n      swap2\n      sub\n      swap1\n      revert\n    tag_76:\n        /* \"@openzeppelin/contracts/access/Ownable.sol\":2081:2109  _transferOwnership(newOwner) */\n      tag_79\n        /* \"@openzeppelin/contracts/access/Ownable.sol\":2100:2108  newOwner */\n      dup2\n        /* \"@openzeppelin/contracts/access/Ownable.sol\":2081:2099  _transferOwnership */\n      tag_57\n        /* \"@openzeppelin/contracts/access/Ownable.sol\":2081:2109  _transferOwnership(newOwner) */\n      jump\t// in\n    tag_79:\n        /* \"@openzeppelin/contracts/access/Ownable.sol\":1918:2116  function transferOwnership(address newOwner) public virtual onlyOwner {... */\n      pop\n      jump\t// out\n        /* \"@openzeppelin/contracts/utils/Context.sol\":640:736  function _msgSender() internal view virtual returns (address) {... */\n    tag_50:\n        /* \"@openzeppelin/contracts/utils/Context.sol\":693:700  address */\n      0x00\n        /* \"@openzeppelin/contracts/utils/Context.sol\":719:729  msg.sender */\n      caller\n        /* \"@openzeppelin/contracts/utils/Context.sol\":712:729  return msg.sender */\n      swap1\n      pop\n        /* \"@openzeppelin/contracts/utils/Context.sol\":640:736  function _msgSender() internal view virtual returns (address) {... */\n      swap1\n      jump\t// out\n        /* \"@openzeppelin/contracts/access/Ownable.sol\":2270:2457  function _transferOwnership(address newOwner) internal virtual {... */\n    tag_57:\n        /* \"@openzeppelin/contracts/access/Ownable.sol\":2343:2359  address oldOwner */\n      0x00\n        /* \"@openzeppelin/contracts/access/Ownable.sol\":2362:2368  _owner */\n      dup1\n      0x00\n      swap1\n      sload\n      swap1\n      0x0100\n      exp\n      swap1\n      div\n      0xffffffffffffffffffffffffffffffffffffffff\n      and\n        /* \"@openzeppelin/contracts/access/Ownable.sol\":2343:2368  address oldOwner = _owner */\n      swap1\n      pop\n        /* \"@openzeppelin/contracts/access/Ownable.sol\":2387:2395  newOwner */\n      dup2\n        /* \"@openzeppelin/contracts/access/Ownable.sol\":2378:2384  _owner */\n      0x00\n      dup1\n        /* \"@openzeppelin/contracts/access/Ownable.sol\":2378:2395  _owner = newOwner */\n      0x0100\n      exp\n      dup2\n      sload\n      dup2\n      0xffffffffffffffffffffffffffffffffffffffff\n      mul\n      not\n      and\n      swap1\n      dup4\n      0xffffffffffffffffffffffffffffffffffffffff\n      and\n      mul\n      or\n      swap1\n      sstore\n      pop\n        /* \"@openzeppelin/contracts/access/Ownable.sol\":2441:2449  newOwner */\n      dup2\n        /* \"@openzeppelin/contracts/access/Ownable.sol\":2410:2450  OwnershipTransferred(oldOwner, newOwner) */\n      0xffffffffffffffffffffffffffffffffffffffff\n      and\n        /* \"@openzeppelin/contracts/access/Ownable.sol\":2431:2439  oldOwner */\n      dup2\n        /* \"@openzeppelin/contracts/access/Ownable.sol\":2410:2450  OwnershipTransferred(oldOwner, newOwner) */\n      0xffffffffffffffffffffffffffffffffffffffff\n      and\n      0x8be0079c531659141344cd1fd0a4f28419497f9722a3daafe3b4186f6b6457e0\n      mload(0x40)\n      mload(0x40)\n      dup1\n      swap2\n      sub\n      swap1\n      log3\n        /* \"@openzeppelin/contracts/access/Ownable.sol\":2333:2457  {... */\n      pop\n        /* \"@openzeppelin/contracts/access/Ownable.sol\":2270:2457  function _transferOwnership(address newOwner) internal virtual {... */\n      pop\n      jump\t// out\n        /* \"#utility.yul\":7:133   */\n    tag_82:\n        /* \"#utility.yul\":44:51   */\n      0x00\n        /* \"#utility.yul\":84:126   */\n      0xffffffffffffffffffffffffffffffffffffffff\n        /* \"#utility.yul\":77:82   */\n      dup3\n        /* \"#utility.yul\":73:127   */\n      and\n        /* \"#utility.yul\":62:127   */\n      swap1\n      pop\n        /* \"#utility.yul\":7:133   */\n      swap2\n      swap1\n      pop\n      jump\t// out\n        /* \"#utility.yul\":139:199   */\n    tag_83:\n        /* \"#utility.yul\":167:170   */\n      0x00\n        /* \"#utility.yul\":188:193   */\n      dup2\n        /* \"#utility.yul\":181:193   */\n      swap1\n      pop\n        /* \"#utility.yul\":139:199   */\n      swap2\n      swap1\n      pop\n      jump\t// out\n        /* \"#utility.yul\":205:347   */\n    tag_84:\n        /* \"#utility.yul\":255:264   */\n      0x00\n        /* \"#utility.yul\":288:341   */\n      tag_126\n        /* \"#utility.yul\":306:340   */\n      tag_127\n        /* \"#utility.yul\":315:339   */\n      tag_128\n        /* \"#utility.yul\":333:338   */\n      dup5\n        /* \"#utility.yul\":315:339   */\n      tag_82\n      jump\t// in\n    tag_128:\n        /* \"#utility.yul\":306:340   */\n      tag_83\n      jump\t// in\n    tag_127:\n        /* \"#utility.yul\":288:341   */\n      tag_82\n      jump\t// in\n    tag_126:\n        /* \"#utility.yul\":275:341   */\n      swap1\n      pop\n        /* \"#utility.yul\":205:347   */\n      swap2\n      swap1\n      pop\n      jump\t// out\n        /* \"#utility.yul\":353:479   */\n    tag_85:\n        /* \"#utility.yul\":403:412   */\n      0x00\n        /* \"#utility.yul\":436:473   */\n      tag_130\n        /* \"#utility.yul\":467:472   */\n      dup3\n        /* \"#utility.yul\":436:473   */\n      tag_84\n      jump\t// in\n    tag_130:\n        /* \"#utility.yul\":423:473   */\n      swap1\n      pop\n        /* \"#utility.yul\":353:479   */\n      swap2\n      swap1\n      pop\n      jump\t// out\n        /* \"#utility.yul\":485:642   */\n    tag_86:\n        /* \"#utility.yul\":566:575   */\n      0x00\n        /* \"#utility.yul\":599:636   */\n      tag_132\n        /* \"#utility.yul\":630:635   */\n      dup3\n        /* \"#utility.yul\":599:636   */\n      tag_85\n      jump\t// in\n    tag_132:\n        /* \"#utility.yul\":586:636   */\n      swap1\n      pop\n        /* \"#utility.yul\":485:642   */\n      swap2\n      swap1\n      pop\n      jump\t// out\n        /* \"#utility.yul\":648:841   */\n    tag_87:\n        /* \"#utility.yul\":766:834   */\n      tag_134\n        /* \"#utility.yul\":828:833   */\n      dup2\n        /* \"#utility.yul\":766:834   */\n      tag_86\n      jump\t// in\n    tag_134:\n        /* \"#utility.yul\":761:764   */\n      dup3\n        /* \"#utility.yul\":754:835   */\n      mstore\n        /* \"#utility.yul\":648:841   */\n      pop\n      pop\n      jump\t// out\n        /* \"#utility.yul\":847:1131   */\n    tag_14:\n        /* \"#utility.yul\":971:975   */\n      0x00\n        /* \"#utility.yul\":1009:1011   */\n      0x20\n        /* \"#utility.yul\":998:1007   */\n      dup3\n        /* \"#utility.yul\":994:1012   */\n      add\n        /* \"#utility.yul\":986:1012   */\n      swap1\n      pop\n        /* \"#utility.yul\":1022:1124   */\n      tag_136\n        /* \"#utility.yul\":1121:1122   */\n      0x00\n        /* \"#utility.yul\":1110:1119   */\n      dup4\n        /* \"#utility.yul\":1106:1123   */\n      add\n        /* \"#utility.yul\":1097:1103   */\n      dup5\n        /* \"#utility.yul\":1022:1124   */\n      tag_87\n      jump\t// in\n    tag_136:\n        /* \"#utility.yul\":847:1131   */\n      swap3\n      swap2\n      pop\n      pop\n      jump\t// out\n        /* \"#utility.yul\":1218:1335   */\n    tag_89:\n        /* \"#utility.yul\":1327:1328   */\n      0x00\n        /* \"#utility.yul\":1324:1325   */\n      dup1\n        /* \"#utility.yul\":1317:1329   */\n      revert\n        /* \"#utility.yul\":1341:1458   */\n    tag_90:\n        /* \"#utility.yul\":1450:1451   */\n      0x00\n        /* \"#utility.yul\":1447:1448   */\n      dup1\n        /* \"#utility.yul\":1440:1452   */\n      revert\n        /* \"#utility.yul\":1464:1560   */\n    tag_91:\n        /* \"#utility.yul\":1501:1508   */\n      0x00\n        /* \"#utility.yul\":1530:1554   */\n      tag_141\n        /* \"#utility.yul\":1548:1553   */\n      dup3\n        /* \"#utility.yul\":1530:1554   */\n      tag_82\n      jump\t// in\n    tag_141:\n        /* \"#utility.yul\":1519:1554   */\n      swap1\n      pop\n        /* \"#utility.yul\":1464:1560   */\n      swap2\n      swap1\n      pop\n      jump\t// out\n        /* \"#utility.yul\":1566:1688   */\n    tag_92:\n        /* \"#utility.yul\":1639:1663   */\n      tag_143\n        /* \"#utility.yul\":1657:1662   */\n      dup2\n        /* \"#utility.yul\":1639:1663   */\n      tag_91\n      jump\t// in\n    tag_143:\n        /* \"#utility.yul\":1632:1637   */\n      dup2\n        /* \"#utility.yul\":1629:1664   */\n      eq\n        /* \"#utility.yul\":1619:1682   */\n      tag_144\n      jumpi\n        /* \"#utility.yul\":1678:1679   */\n      0x00\n        /* \"#utility.yul\":1675:1676   */\n      dup1\n        /* \"#utility.yul\":1668:1680   */\n      revert\n        /* \"#utility.yul\":1619:1682   */\n    tag_144:\n        /* \"#utility.yul\":1566:1688   */\n      pop\n      jump\t// out\n        /* \"#utility.yul\":1694:1833   */\n    tag_93:\n        /* \"#utility.yul\":1740:1745   */\n      0x00\n        /* \"#utility.yul\":1778:1784   */\n      dup2\n        /* \"#utility.yul\":1765:1785   */\n      calldataload\n        /* \"#utility.yul\":1756:1785   */\n      swap1\n      pop\n        /* \"#utility.yul\":1794:1827   */\n      tag_146\n        /* \"#utility.yul\":1821:1826   */\n      dup2\n        /* \"#utility.yul\":1794:1827   */\n      tag_92\n      jump\t// in\n    tag_146:\n        /* \"#utility.yul\":1694:1833   */\n      swap3\n      swap2\n      pop\n      pop\n      jump\t// out\n        /* \"#utility.yul\":1839:1916   */\n    tag_94:\n        /* \"#utility.yul\":1876:1883   */\n      0x00\n        /* \"#utility.yul\":1905:1910   */\n      dup2\n        /* \"#utility.yul\":1894:1910   */\n      swap1\n      pop\n        /* \"#utility.yul\":1839:1916   */\n      swap2\n      swap1\n      pop\n      jump\t// out\n        /* \"#utility.yul\":1922:2044   */\n    tag_95:\n        /* \"#utility.yul\":1995:2019   */\n      tag_149\n        /* \"#utility.yul\":2013:2018   */\n      dup2\n        /* \"#utility.yul\":1995:2019   */\n      tag_94\n      jump\t// in\n    tag_149:\n        /* \"#utility.yul\":1988:1993   */\n      dup2\n        /* \"#utility.yul\":1985:2020   */\n      eq\n        /* \"#utility.yul\":1975:2038   */\n      tag_150\n      jumpi\n        /* \"#utility.yul\":2034:2035   */\n      0x00\n        /* \"#utility.yul\":2031:2032   */\n      dup1\n        /* \"#utility.yul\":2024:2036   */\n      revert\n        /* \"#utility.yul\":1975:2038   */\n    tag_150:\n        /* \"#utility.yul\":1922:2044   */\n      pop\n      jump\t// out\n        /* \"#utility.yul\":2050:2189   */\n    tag_96:\n        /* \"#utility.yul\":2096:2101   */\n      0x00\n        /* \"#utility.yul\":2134:2140   */\n      dup2\n        /* \"#utility.yul\":2121:2141   */\n      calldataload\n        /* \"#utility.yul\":2112:2141   */\n      swap1\n      pop\n        /* \"#utility.yul\":2150:2183   */\n      tag_152\n        /* \"#utility.yul\":2177:2182   */\n      dup2\n        /* \"#utility.yul\":2150:2183   */\n      tag_95\n      jump\t// in\n    tag_152:\n        /* \"#utility.yul\":2050:2189   */\n      swap3\n      swap2\n      pop\n      pop\n      jump\t// out\n        /* \"#utility.yul\":2195:2312   */\n    tag_97:\n        /* \"#utility.yul\":2304:2305   */\n      0x00\n        /* \"#utility.yul\":2301:2302   */\n      dup1\n        /* \"#utility.yul\":2294:2306   */\n      revert\n        /* \"#utility.yul\":2318:2435   */\n    tag_98:\n        /* \"#utility.yul\":2427:2428   */\n      0x00\n        /* \"#utility.yul\":2424:2425   */\n      dup1\n        /* \"#utility.yul\":2417:2429   */\n      revert\n        /* \"#utility.yul\":2441:2558   */\n    tag_99:\n        /* \"#utility.yul\":2550:2551   */\n      0x00\n        /* \"#utility.yul\":2547:2548   */\n      dup1\n        /* \"#utility.yul\":2540:2552   */\n      revert\n        /* \"#utility.yul\":2577:3129   */\n    tag_100:\n        /* \"#utility.yul\":2634:2642   */\n      0x00\n        /* \"#utility.yul\":2644:2650   */\n      dup1\n        /* \"#utility.yul\":2694:2697   */\n      dup4\n        /* \"#utility.yul\":2687:2691   */\n      0x1f\n        /* \"#utility.yul\":2679:2685   */\n      dup5\n        /* \"#utility.yul\":2675:2692   */\n      add\n        /* \"#utility.yul\":2671:2698   */\n      slt\n        /* \"#utility.yul\":2661:2783   */\n      tag_157\n      jumpi\n        /* \"#utility.yul\":2702:2781   */\n      tag_158\n      tag_97\n      jump\t// in\n    tag_158:\n        /* \"#utility.yul\":2661:2783   */\n    tag_157:\n        /* \"#utility.yul\":2815:2821   */\n      dup3\n        /* \"#utility.yul\":2802:2822   */\n      calldataload\n        /* \"#utility.yul\":2792:2822   */\n      swap1\n      pop\n        /* \"#utility.yul\":2845:2863   */\n      0xffffffffffffffff\n        /* \"#utility.yul\":2837:2843   */\n      dup2\n        /* \"#utility.yul\":2834:2864   */\n      gt\n        /* \"#utility.yul\":2831:2948   */\n      iszero\n      tag_159\n      jumpi\n        /* \"#utility.yul\":2867:2946   */\n      tag_160\n      tag_98\n      jump\t// in\n    tag_160:\n        /* \"#utility.yul\":2831:2948   */\n    tag_159:\n        /* \"#utility.yul\":2981:2985   */\n      0x20\n        /* \"#utility.yul\":2973:2979   */\n      dup4\n        /* \"#utility.yul\":2969:2986   */\n      add\n        /* \"#utility.yul\":2957:2986   */\n      swap2\n      pop\n        /* \"#utility.yul\":3035:3038   */\n      dup4\n        /* \"#utility.yul\":3027:3031   */\n      0x01\n        /* \"#utility.yul\":3019:3025   */\n      dup3\n        /* \"#utility.yul\":3015:3032   */\n      mul\n        /* \"#utility.yul\":3005:3013   */\n      dup4\n        /* \"#utility.yul\":3001:3033   */\n      add\n        /* \"#utility.yul\":2998:3039   */\n      gt\n        /* \"#utility.yul\":2995:3123   */\n      iszero\n      tag_161\n      jumpi\n        /* \"#utility.yul\":3042:3121   */\n      tag_162\n      tag_99\n      jump\t// in\n    tag_162:\n        /* \"#utility.yul\":2995:3123   */\n    tag_161:\n        /* \"#utility.yul\":2577:3129   */\n      swap3\n      pop\n      swap3\n      swap1\n      pop\n      jump\t// out\n        /* \"#utility.yul\":3135:4244   */\n    tag_17:\n        /* \"#utility.yul\":3241:3247   */\n      0x00\n        /* \"#utility.yul\":3249:3255   */\n      dup1\n        /* \"#utility.yul\":3257:3263   */\n      0x00\n        /* \"#utility.yul\":3265:3271   */\n      dup1\n        /* \"#utility.yul\":3273:3279   */\n      0x00\n        /* \"#utility.yul\":3281:3287   */\n      dup1\n        /* \"#utility.yul\":3330:3333   */\n      0xa0\n        /* \"#utility.yul\":3318:3327   */\n      dup8\n        /* \"#utility.yul\":3309:3316   */\n      dup10\n        /* \"#utility.yul\":3305:3328   */\n      sub\n        /* \"#utility.yul\":3301:3334   */\n      slt\n        /* \"#utility.yul\":3298:3418   */\n      iszero\n      tag_164\n      jumpi\n        /* \"#utility.yul\":3337:3416   */\n      tag_165\n      tag_89\n      jump\t// in\n    tag_165:\n        /* \"#utility.yul\":3298:3418   */\n    tag_164:\n        /* \"#utility.yul\":3457:3458   */\n      0x00\n        /* \"#utility.yul\":3482:3535   */\n      tag_166\n        /* \"#utility.yul\":3527:3534   */\n      dup10\n        /* \"#utility.yul\":3518:3524   */\n      dup3\n        /* \"#utility.yul\":3507:3516   */\n      dup11\n        /* \"#utility.yul\":3503:3525   */\n      add\n        /* \"#utility.yul\":3482:3535   */\n      tag_93\n      jump\t// in\n    tag_166:\n        /* \"#utility.yul\":3472:3535   */\n      swap7\n      pop\n        /* \"#utility.yul\":3428:3545   */\n      pop\n        /* \"#utility.yul\":3584:3586   */\n      0x20\n        /* \"#utility.yul\":3610:3663   */\n      tag_167\n        /* \"#utility.yul\":3655:3662   */\n      dup10\n        /* \"#utility.yul\":3646:3652   */\n      dup3\n        /* \"#utility.yul\":3635:3644   */\n      dup11\n        /* \"#utility.yul\":3631:3653   */\n      add\n        /* \"#utility.yul\":3610:3663   */\n      tag_96\n      jump\t// in\n    tag_167:\n        /* \"#utility.yul\":3600:3663   */\n      swap6\n      pop\n        /* \"#utility.yul\":3555:3673   */\n      pop\n        /* \"#utility.yul\":3712:3714   */\n      0x40\n        /* \"#utility.yul\":3738:3791   */\n      tag_168\n        /* \"#utility.yul\":3783:3790   */\n      dup10\n        /* \"#utility.yul\":3774:3780   */\n      dup3\n        /* \"#utility.yul\":3763:3772   */\n      dup11\n        /* \"#utility.yul\":3759:3781   */\n      add\n        /* \"#utility.yul\":3738:3791   */\n      tag_96\n      jump\t// in\n    tag_168:\n        /* \"#utility.yul\":3728:3791   */\n      swap5\n      pop\n        /* \"#utility.yul\":3683:3801   */\n      pop\n        /* \"#utility.yul\":3840:3842   */\n      0x60\n        /* \"#utility.yul\":3866:3919   */\n      tag_169\n        /* \"#utility.yul\":3911:3918   */\n      dup10\n        /* \"#utility.yul\":3902:3908   */\n      dup3\n        /* \"#utility.yul\":3891:3900   */\n      dup11\n        /* \"#utility.yul\":3887:3909   */\n      add\n        /* \"#utility.yul\":3866:3919   */\n      tag_93\n      jump\t// in\n    tag_169:\n        /* \"#utility.yul\":3856:3919   */\n      swap4\n      pop\n        /* \"#utility.yul\":3811:3929   */\n      pop\n        /* \"#utility.yul\":3996:3999   */\n      0x80\n        /* \"#utility.yul\":3985:3994   */\n      dup8\n        /* \"#utility.yul\":3981:4000   */\n      add\n        /* \"#utility.yul\":3968:4001   */\n      calldataload\n        /* \"#utility.yul\":4028:4046   */\n      0xffffffffffffffff\n        /* \"#utility.yul\":4020:4026   */\n      dup2\n        /* \"#utility.yul\":4017:4047   */\n      gt\n        /* \"#utility.yul\":4014:4131   */\n      iszero\n      tag_170\n      jumpi\n        /* \"#utility.yul\":4050:4129   */\n      tag_171\n      tag_90\n      jump\t// in\n    tag_171:\n        /* \"#utility.yul\":4014:4131   */\n    tag_170:\n        /* \"#utility.yul\":4163:4227   */\n      tag_172\n        /* \"#utility.yul\":4219:4226   */\n      dup10\n        /* \"#utility.yul\":4210:4216   */\n      dup3\n        /* \"#utility.yul\":4199:4208   */\n      dup11\n        /* \"#utility.yul\":4195:4217   */\n      add\n        /* \"#utility.yul\":4163:4227   */\n      tag_100\n      jump\t// in\n    tag_172:\n        /* \"#utility.yul\":4145:4227   */\n      swap3\n      pop\n      swap3\n      pop\n        /* \"#utility.yul\":3939:4237   */\n      pop\n        /* \"#utility.yul\":3135:4244   */\n      swap3\n      swap6\n      pop\n      swap3\n      swap6\n      pop\n      swap3\n      swap6\n      jump\t// out\n        /* \"#utility.yul\":4250:4340   */\n    tag_101:\n        /* \"#utility.yul\":4284:4291   */\n      0x00\n        /* \"#utility.yul\":4327:4332   */\n      dup2\n        /* \"#utility.yul\":4320:4333   */\n      iszero\n        /* \"#utility.yul\":4313:4334   */\n      iszero\n        /* \"#utility.yul\":4302:4334   */\n      swap1\n      pop\n        /* \"#utility.yul\":4250:4340   */\n      swap2\n      swap1\n      pop\n      jump\t// out\n        /* \"#utility.yul\":4346:4455   */\n    tag_102:\n        /* \"#utility.yul\":4427:4448   */\n      tag_175\n        /* \"#utility.yul\":4442:4447   */\n      dup2\n        /* \"#utility.yul\":4427:4448   */\n      tag_101\n      jump\t// in\n    tag_175:\n        /* \"#utility.yul\":4422:4425   */\n      dup3\n        /* \"#utility.yul\":4415:4449   */\n      mstore\n        /* \"#utility.yul\":4346:4455   */\n      pop\n      pop\n      jump\t// out\n        /* \"#utility.yul\":4461:4671   */\n    tag_20:\n        /* \"#utility.yul\":4548:4552   */\n      0x00\n        /* \"#utility.yul\":4586:4588   */\n      0x20\n        /* \"#utility.yul\":4575:4584   */\n      dup3\n        /* \"#utility.yul\":4571:4589   */\n      add\n        /* \"#utility.yul\":4563:4589   */\n      swap1\n      pop\n        /* \"#utility.yul\":4599:4664   */\n      tag_177\n        /* \"#utility.yul\":4661:4662   */\n      0x00\n        /* \"#utility.yul\":4650:4659   */\n      dup4\n        /* \"#utility.yul\":4646:4663   */\n      add\n        /* \"#utility.yul\":4637:4643   */\n      dup5\n        /* \"#utility.yul\":4599:4664   */\n      tag_102\n      jump\t// in\n    tag_177:\n        /* \"#utility.yul\":4461:4671   */\n      swap3\n      swap2\n      pop\n      pop\n      jump\t// out\n        /* \"#utility.yul\":4677:4817   */\n    tag_103:\n        /* \"#utility.yul\":4741:4750   */\n      0x00\n        /* \"#utility.yul\":4774:4811   */\n      tag_179\n        /* \"#utility.yul\":4805:4810   */\n      dup3\n        /* \"#utility.yul\":4774:4811   */\n      tag_85\n      jump\t// in\n    tag_179:\n        /* \"#utility.yul\":4761:4811   */\n      swap1\n      pop\n        /* \"#utility.yul\":4677:4817   */\n      swap2\n      swap1\n      pop\n      jump\t// out\n        /* \"#utility.yul\":4823:4982   */\n    tag_104:\n        /* \"#utility.yul\":4924:4975   */\n      tag_181\n        /* \"#utility.yul\":4969:4974   */\n      dup2\n        /* \"#utility.yul\":4924:4975   */\n      tag_103\n      jump\t// in\n    tag_181:\n        /* \"#utility.yul\":4919:4922   */\n      dup3\n        /* \"#utility.yul\":4912:4976   */\n      mstore\n        /* \"#utility.yul\":4823:4982   */\n      pop\n      pop\n      jump\t// out\n        /* \"#utility.yul\":4988:5238   */\n    tag_26:\n        /* \"#utility.yul\":5095:5099   */\n      0x00\n        /* \"#utility.yul\":5133:5135   */\n      0x20\n        /* \"#utility.yul\":5122:5131   */\n      dup3\n        /* \"#utility.yul\":5118:5136   */\n      add\n        /* \"#utility.yul\":5110:5136   */\n      swap1\n      pop\n        /* \"#utility.yul\":5146:5231   */\n      tag_183\n        /* \"#utility.yul\":5228:5229   */\n      0x00\n        /* \"#utility.yul\":5217:5226   */\n      dup4\n        /* \"#utility.yul\":5213:5230   */\n      add\n        /* \"#utility.yul\":5204:5210   */\n      dup5\n        /* \"#utility.yul\":5146:5231   */\n      tag_104\n      jump\t// in\n    tag_183:\n        /* \"#utility.yul\":4988:5238   */\n      swap3\n      swap2\n      pop\n      pop\n      jump\t// out\n        /* \"#utility.yul\":5244:5718   */\n    tag_29:\n        /* \"#utility.yul\":5312:5318   */\n      0x00\n        /* \"#utility.yul\":5320:5326   */\n      dup1\n        /* \"#utility.yul\":5369:5371   */\n      0x40\n        /* \"#utility.yul\":5357:5366   */\n      dup4\n        /* \"#utility.yul\":5348:5355   */\n      dup6\n        /* \"#utility.yul\":5344:5367   */\n      sub\n        /* \"#utility.yul\":5340:5372   */\n      slt\n        /* \"#utility.yul\":5337:5456   */\n      iszero\n      tag_185\n      jumpi\n        /* \"#utility.yul\":5375:5454   */\n      tag_186\n      tag_89\n      jump\t// in\n    tag_186:\n        /* \"#utility.yul\":5337:5456   */\n    tag_185:\n        /* \"#utility.yul\":5495:5496   */\n      0x00\n        /* \"#utility.yul\":5520:5573   */\n      tag_187\n        /* \"#utility.yul\":5565:5572   */\n      dup6\n        /* \"#utility.yul\":5556:5562   */\n      dup3\n        /* \"#utility.yul\":5545:5554   */\n      dup7\n        /* \"#utility.yul\":5541:5563   */\n      add\n        /* \"#utility.yul\":5520:5573   */\n      tag_93\n      jump\t// in\n    tag_187:\n        /* \"#utility.yul\":5510:5573   */\n      swap3\n      pop\n        /* \"#utility.yul\":5466:5583   */\n      pop\n        /* \"#utility.yul\":5622:5624   */\n      0x20\n        /* \"#utility.yul\":5648:5701   */\n      tag_188\n        /* \"#utility.yul\":5693:5700   */\n      dup6\n        /* \"#utility.yul\":5684:5690   */\n      dup3\n        /* \"#utility.yul\":5673:5682   */\n      dup7\n        /* \"#utility.yul\":5669:5691   */\n      add\n        /* \"#utility.yul\":5648:5701   */\n      tag_96\n      jump\t// in\n    tag_188:\n        /* \"#utility.yul\":5638:5701   */\n      swap2\n      pop\n        /* \"#utility.yul\":5593:5711   */\n      pop\n        /* \"#utility.yul\":5244:5718   */\n      swap3\n      pop\n      swap3\n      swap1\n      pop\n      jump\t// out\n        /* \"#utility.yul\":5724:5842   */\n    tag_105:\n        /* \"#utility.yul\":5811:5835   */\n      tag_190\n        /* \"#utility.yul\":5829:5834   */\n      dup2\n        /* \"#utility.yul\":5811:5835   */\n      tag_91\n      jump\t// in\n    tag_190:\n        /* \"#utility.yul\":5806:5809   */\n      dup3\n        /* \"#utility.yul\":5799:5836   */\n      mstore\n        /* \"#utility.yul\":5724:5842   */\n      pop\n      pop\n      jump\t// out\n        /* \"#utility.yul\":5848:6070   */\n    tag_34:\n        /* \"#utility.yul\":5941:5945   */\n      0x00\n        /* \"#utility.yul\":5979:5981   */\n      0x20\n        /* \"#utility.yul\":5968:5977   */\n      dup3\n        /* \"#utility.yul\":5964:5982   */\n      add\n        /* \"#utility.yul\":5956:5982   */\n      swap1\n      pop\n        /* \"#utility.yul\":5992:6063   */\n      tag_192\n        /* \"#utility.yul\":6060:6061   */\n      0x00\n        /* \"#utility.yul\":6049:6058   */\n      dup4\n        /* \"#utility.yul\":6045:6062   */\n      add\n        /* \"#utility.yul\":6036:6042   */\n      dup5\n        /* \"#utility.yul\":5992:6063   */\n      tag_105\n      jump\t// in\n    tag_192:\n        /* \"#utility.yul\":5848:6070   */\n      swap3\n      swap2\n      pop\n      pop\n      jump\t// out\n        /* \"#utility.yul\":6076:6405   */\n    tag_37:\n        /* \"#utility.yul\":6135:6141   */\n      0x00\n        /* \"#utility.yul\":6184:6186   */\n      0x20\n        /* \"#utility.yul\":6172:6181   */\n      dup3\n        /* \"#utility.yul\":6163:6170   */\n      dup5\n        /* \"#utility.yul\":6159:6182   */\n      sub\n        /* \"#utility.yul\":6155:6187   */\n      slt\n        /* \"#utility.yul\":6152:6271   */\n      iszero\n      tag_194\n      jumpi\n        /* \"#utility.yul\":6190:6269   */\n      tag_195\n      tag_89\n      jump\t// in\n    tag_195:\n        /* \"#utility.yul\":6152:6271   */\n    tag_194:\n        /* \"#utility.yul\":6310:6311   */\n      0x00\n        /* \"#utility.yul\":6335:6388   */\n      tag_196\n        /* \"#utility.yul\":6380:6387   */\n      dup5\n        /* \"#utility.yul\":6371:6377   */\n      dup3\n        /* \"#utility.yul\":6360:6369   */\n      dup6\n        /* \"#utility.yul\":6356:6378   */\n      add\n        /* \"#utility.yul\":6335:6388   */\n      tag_93\n      jump\t// in\n    tag_196:\n        /* \"#utility.yul\":6325:6388   */\n      swap2\n      pop\n        /* \"#utility.yul\":6281:6398   */\n      pop\n        /* \"#utility.yul\":6076:6405   */\n      swap3\n      swap2\n      pop\n      pop\n      jump\t// out\n        /* \"#utility.yul\":6411:6591   */\n    tag_106:\n        /* \"#utility.yul\":6459:6536   */\n      0x4e487b7100000000000000000000000000000000000000000000000000000000\n        /* \"#utility.yul\":6456:6457   */\n      0x00\n        /* \"#utility.yul\":6449:6537   */\n      mstore\n        /* \"#utility.yul\":6556:6560   */\n      0x11\n        /* \"#utility.yul\":6553:6554   */\n      0x04\n        /* \"#utility.yul\":6546:6561   */\n      mstore\n        /* \"#utility.yul\":6580:6584   */\n      0x24\n        /* \"#utility.yul\":6577:6578   */\n      0x00\n        /* \"#utility.yul\":6570:6585   */\n      revert\n        /* \"#utility.yul\":6597:6902   */\n    tag_41:\n        /* \"#utility.yul\":6637:6640   */\n      0x00\n        /* \"#utility.yul\":6656:6676   */\n      tag_199\n        /* \"#utility.yul\":6674:6675   */\n      dup3\n        /* \"#utility.yul\":6656:6676   */\n      tag_94\n      jump\t// in\n    tag_199:\n        /* \"#utility.yul\":6651:6676   */\n      swap2\n      pop\n        /* \"#utility.yul\":6690:6710   */\n      tag_200\n        /* \"#utility.yul\":6708:6709   */\n      dup4\n        /* \"#utility.yul\":6690:6710   */\n      tag_94\n      jump\t// in\n    tag_200:\n        /* \"#utility.yul\":6685:6710   */\n      swap3\n      pop\n        /* \"#utility.yul\":6844:6845   */\n      dup3\n        /* \"#utility.yul\":6776:6842   */\n      0xffffffffffffffffffffffffffffffffffffffffffffffffffffffffffffffff\n        /* \"#utility.yul\":6772:6846   */\n      sub\n        /* \"#utility.yul\":6769:6770   */\n      dup3\n        /* \"#utility.yul\":6766:6847   */\n      gt\n        /* \"#utility.yul\":6763:6870   */\n      iszero\n      tag_201\n      jumpi\n        /* \"#utility.yul\":6850:6868   */\n      tag_202\n      tag_106\n      jump\t// in\n    tag_202:\n        /* \"#utility.yul\":6763:6870   */\n    tag_201:\n        /* \"#utility.yul\":6894:6895   */\n      dup3\n        /* \"#utility.yul\":6891:6892   */\n      dup3\n        /* \"#utility.yul\":6887:6896   */\n      add\n        /* \"#utility.yul\":6880:6896   */\n      swap1\n      pop\n        /* \"#utility.yul\":6597:6902   */\n      swap3\n      swap2\n      pop\n      pop\n      jump\t// out\n        /* \"#utility.yul\":6908:7026   */\n    tag_107:\n        /* \"#utility.yul\":6995:7019   */\n      tag_204\n        /* \"#utility.yul\":7013:7018   */\n      dup2\n        /* \"#utility.yul\":6995:7019   */\n      tag_94\n      jump\t// in\n    tag_204:\n        /* \"#utility.yul\":6990:6993   */\n      dup3\n        /* \"#utility.yul\":6983:7020   */\n      mstore\n        /* \"#utility.yul\":6908:7026   */\n      pop\n      pop\n      jump\t// out\n        /* \"#utility.yul\":7032:7364   */\n    tag_43:\n        /* \"#utility.yul\":7153:7157   */\n      0x00\n        /* \"#utility.yul\":7191:7193   */\n      0x40\n        /* \"#utility.yul\":7180:7189   */\n      dup3\n        /* \"#utility.yul\":7176:7194   */\n      add\n        /* \"#utility.yul\":7168:7194   */\n      swap1\n      pop\n        /* \"#utility.yul\":7204:7275   */\n      tag_206\n        /* \"#utility.yul\":7272:7273   */\n      0x00\n        /* \"#utility.yul\":7261:7270   */\n      dup4\n        /* \"#utility.yul\":7257:7274   */\n      add\n        /* \"#utility.yul\":7248:7254   */\n      dup6\n        /* \"#utility.yul\":7204:7275   */\n      tag_105\n      jump\t// in\n    tag_206:\n        /* \"#utility.yul\":7285:7357   */\n      tag_207\n        /* \"#utility.yul\":7353:7355   */\n      0x20\n        /* \"#utility.yul\":7342:7351   */\n      dup4\n        /* \"#utility.yul\":7338:7356   */\n      add\n        /* \"#utility.yul\":7329:7335   */\n      dup5\n        /* \"#utility.yul\":7285:7357   */\n      tag_107\n      jump\t// in\n    tag_207:\n        /* \"#utility.yul\":7032:7364   */\n      swap4\n      swap3\n      pop\n      pop\n      pop\n      jump\t// out\n        /* \"#utility.yul\":7370:7486   */\n    tag_108:\n        /* \"#utility.yul\":7440:7461   */\n      tag_209\n        /* \"#utility.yul\":7455:7460   */\n      dup2\n        /* \"#utility.yul\":7440:7461   */\n      tag_101\n      jump\t// in\n    tag_209:\n        /* \"#utility.yul\":7433:7438   */\n      dup2\n        /* \"#utility.yul\":7430:7462   */\n      eq\n        /* \"#utility.yul\":7420:7480   */\n      tag_210\n      jumpi\n        /* \"#utility.yul\":7476:7477   */\n      0x00\n        /* \"#utility.yul\":7473:7474   */\n      dup1\n        /* \"#utility.yul\":7466:7478   */\n      revert\n        /* \"#utility.yul\":7420:7480   */\n    tag_210:\n        /* \"#utility.yul\":7370:7486   */\n      pop\n      jump\t// out\n        /* \"#utility.yul\":7492:7629   */\n    tag_109:\n        /* \"#utility.yul\":7546:7551   */\n      0x00\n        /* \"#utility.yul\":7577:7583   */\n      dup2\n        /* \"#utility.yul\":7571:7584   */\n      mload\n        /* \"#utility.yul\":7562:7584   */\n      swap1\n      pop\n        /* \"#utility.yul\":7593:7623   */\n      tag_212\n        /* \"#utility.yul\":7617:7622   */\n      dup2\n        /* \"#utility.yul\":7593:7623   */\n      tag_108\n      jump\t// in\n    tag_212:\n        /* \"#utility.yul\":7492:7629   */\n      swap3\n      swap2\n      pop\n      pop\n      jump\t// out\n        /* \"#utility.yul\":7635:7980   */\n    tag_47:\n        /* \"#utility.yul\":7702:7708   */\n      0x00\n        /* \"#utility.yul\":7751:7753   */\n      0x20\n        /* \"#utility.yul\":7739:7748   */\n      dup3\n        /* \"#utility.yul\":7730:7737   */\n      dup5\n        /* \"#utility.yul\":7726:7749   */\n      sub\n        /* \"#utility.yul\":7722:7754   */\n      slt\n        /* \"#utility.yul\":7719:7838   */\n      iszero\n      tag_214\n      jumpi\n        /* \"#utility.yul\":7757:7836   */\n      tag_215\n      tag_89\n      jump\t// in\n    tag_215:\n        /* \"#utility.yul\":7719:7838   */\n    tag_214:\n        /* \"#utility.yul\":7877:7878   */\n      0x00\n        /* \"#utility.yul\":7902:7963   */\n      tag_216\n        /* \"#utility.yul\":7955:7962   */\n      dup5\n        /* \"#utility.yul\":7946:7952   */\n      dup3\n        /* \"#utility.yul\":7935:7944   */\n      dup6\n        /* \"#utility.yul\":7931:7953   */\n      add\n        /* \"#utility.yul\":7902:7963   */\n      tag_109\n      jump\t// in\n    tag_216:\n        /* \"#utility.yul\":7892:7963   */\n      swap2\n      pop\n        /* \"#utility.yul\":7848:7973   */\n      pop\n        /* \"#utility.yul\":7635:7980   */\n      swap3\n      swap2\n      pop\n      pop\n      jump\t// out\n        /* \"#utility.yul\":7986:8155   */\n    tag_110:\n        /* \"#utility.yul\":8070:8081   */\n      0x00\n        /* \"#utility.yul\":8104:8110   */\n      dup3\n        /* \"#utility.yul\":8099:8102   */\n      dup3\n        /* \"#utility.yul\":8092:8111   */\n      mstore\n        /* \"#utility.yul\":8144:8148   */\n      0x20\n        /* \"#utility.yul\":8139:8142   */\n      dup3\n        /* \"#utility.yul\":8135:8149   */\n      add\n        /* \"#utility.yul\":8120:8149   */\n      swap1\n      pop\n        /* \"#utility.yul\":7986:8155   */\n      swap3\n      swap2\n      pop\n      pop\n      jump\t// out\n        /* \"#utility.yul\":8161:8343   */\n    tag_111:\n        /* \"#utility.yul\":8301:8335   */\n      0x4f776e61626c653a2063616c6c6572206973206e6f7420746865206f776e6572\n        /* \"#utility.yul\":8297:8298   */\n      0x00\n        /* \"#utility.yul\":8289:8295   */\n      dup3\n        /* \"#utility.yul\":8285:8299   */\n      add\n        /* \"#utility.yul\":8278:8336   */\n      mstore\n        /* \"#utility.yul\":8161:8343   */\n      pop\n      jump\t// out\n        /* \"#utility.yul\":8349:8715   */\n    tag_112:\n        /* \"#utility.yul\":8491:8494   */\n      0x00\n        /* \"#utility.yul\":8512:8579   */\n      tag_220\n        /* \"#utility.yul\":8576:8578   */\n      0x20\n        /* \"#utility.yul\":8571:8574   */\n      dup4\n        /* \"#utility.yul\":8512:8579   */\n      tag_110\n      jump\t// in\n    tag_220:\n        /* \"#utility.yul\":8505:8579   */\n      swap2\n      pop\n        /* \"#utility.yul\":8588:8681   */\n      tag_221\n        /* \"#utility.yul\":8677:8680   */\n      dup3\n        /* \"#utility.yul\":8588:8681   */\n      tag_111\n      jump\t// in\n    tag_221:\n        /* \"#utility.yul\":8706:8708   */\n      0x20\n        /* \"#utility.yul\":8701:8704   */\n      dup3\n        /* \"#utility.yul\":8697:8709   */\n      add\n        /* \"#utility.yul\":8690:8709   */\n      swap1\n      pop\n        /* \"#utility.yul\":8349:8715   */\n      swap2\n      swap1\n      pop\n      jump\t// out\n        /* \"#utility.yul\":8721:9140   */\n    tag_54:\n        /* \"#utility.yul\":8887:8891   */\n      0x00\n        /* \"#utility.yul\":8925:8927   */\n      0x20\n        /* \"#utility.yul\":8914:8923   */\n      dup3\n        /* \"#utility.yul\":8910:8928   */\n      add\n        /* \"#utility.yul\":8902:8928   */\n      swap1\n      pop\n        /* \"#utility.yul\":8974:8983   */\n      dup2\n        /* \"#utility.yul\":8968:8972   */\n      dup2\n        /* \"#utility.yul\":8964:8984   */\n      sub\n        /* \"#utility.yul\":8960:8961   */\n      0x00\n        /* \"#utility.yul\":8949:8958   */\n      dup4\n        /* \"#utility.yul\":8945:8962   */\n      add\n        /* \"#utility.yul\":8938:8985   */\n      mstore\n        /* \"#utility.yul\":9002:9133   */\n      tag_223\n        /* \"#utility.yul\":9128:9132   */\n      dup2\n        /* \"#utility.yul\":9002:9133   */\n      tag_112\n      jump\t// in\n    tag_223:\n        /* \"#utility.yul\":8994:9133   */\n      swap1\n      pop\n        /* \"#utility.yul\":8721:9140   */\n      swap2\n      swap1\n      pop\n      jump\t// out\n        /* \"#utility.yul\":9146:9244   */\n    tag_113:\n        /* \"#utility.yul\":9197:9203   */\n      0x00\n        /* \"#utility.yul\":9231:9236   */\n      dup2\n        /* \"#utility.yul\":9225:9237   */\n      mload\n        /* \"#utility.yul\":9215:9237   */\n      swap1\n      pop\n        /* \"#utility.yul\":9146:9244   */\n      swap2\n      swap1\n      pop\n      jump\t// out\n        /* \"#utility.yul\":9250:9418   */\n    tag_114:\n        /* \"#utility.yul\":9333:9344   */\n      0x00\n        /* \"#utility.yul\":9367:9373   */\n      dup3\n        /* \"#utility.yul\":9362:9365   */\n      dup3\n        /* \"#utility.yul\":9355:9374   */\n      mstore\n        /* \"#utility.yul\":9407:9411   */\n      0x20\n        /* \"#utility.yul\":9402:9405   */\n      dup3\n        /* \"#utility.yul\":9398:9412   */\n      add\n        /* \"#utility.yul\":9383:9412   */\n      swap1\n      pop\n        /* \"#utility.yul\":9250:9418   */\n      swap3\n      swap2\n      pop\n      pop\n      jump\t// out\n        /* \"#utility.yul\":9424:9731   */\n    tag_115:\n        /* \"#utility.yul\":9492:9493   */\n      0x00\n        /* \"#utility.yul\":9502:9615   */\n    tag_227:\n        /* \"#utility.yul\":9516:9522   */\n      dup4\n        /* \"#utility.yul\":9513:9514   */\n      dup2\n        /* \"#utility.yul\":9510:9523   */\n      lt\n        /* \"#utility.yul\":9502:9615   */\n      iszero\n      tag_229\n      jumpi\n        /* \"#utility.yul\":9601:9602   */\n      dup1\n        /* \"#utility.yul\":9596:9599   */\n      dup3\n        /* \"#utility.yul\":9592:9603   */\n      add\n        /* \"#utility.yul\":9586:9604   */\n      mload\n        /* \"#utility.yul\":9582:9583   */\n      dup2\n        /* \"#utility.yul\":9577:9580   */\n      dup5\n        /* \"#utility.yul\":9573:9584   */\n      add\n        /* \"#utility.yul\":9566:9605   */\n      mstore\n        /* \"#utility.yul\":9538:9540   */\n      0x20\n        /* \"#utility.yul\":9535:9536   */\n      dup2\n        /* \"#utility.yul\":9531:9541   */\n      add\n        /* \"#utility.yul\":9526:9541   */\n      swap1\n      pop\n        /* \"#utility.yul\":9502:9615   */\n      jump(tag_227)\n    tag_229:\n        /* \"#utility.yul\":9633:9639   */\n      dup4\n        /* \"#utility.yul\":9630:9631   */\n      dup2\n        /* \"#utility.yul\":9627:9640   */\n      gt\n        /* \"#utility.yul\":9624:9725   */\n      iszero\n      tag_230\n      jumpi\n        /* \"#utility.yul\":9713:9714   */\n      0x00\n        /* \"#utility.yul\":9704:9710   */\n      dup5\n        /* \"#utility.yul\":9699:9702   */\n      dup5\n        /* \"#utility.yul\":9695:9711   */\n      add\n        /* \"#utility.yul\":9688:9715   */\n      mstore\n        /* \"#utility.yul\":9624:9725   */\n    tag_230:\n        /* \"#utility.yul\":9473:9731   */\n      pop\n        /* \"#utility.yul\":9424:9731   */\n      pop\n      pop\n      pop\n      jump\t// out\n        /* \"#utility.yul\":9737:9839   */\n    tag_116:\n        /* \"#utility.yul\":9778:9784   */\n      0x00\n        /* \"#utility.yul\":9829:9831   */\n      0x1f\n        /* \"#utility.yul\":9825:9832   */\n      not\n        /* \"#utility.yul\":9820:9822   */\n      0x1f\n        /* \"#utility.yul\":9813:9818   */\n      dup4\n        /* \"#utility.yul\":9809:9823   */\n      add\n        /* \"#utility.yul\":9805:9833   */\n      and\n        /* \"#utility.yul\":9795:9833   */\n      swap1\n      pop\n        /* \"#utility.yul\":9737:9839   */\n      swap2\n      swap1\n      pop\n      jump\t// out\n        /* \"#utility.yul\":9845:10205   */\n    tag_117:\n        /* \"#utility.yul\":9931:9934   */\n      0x00\n        /* \"#utility.yul\":9959:9997   */\n      tag_233\n        /* \"#utility.yul\":9991:9996   */\n      dup3\n        /* \"#utility.yul\":9959:9997   */\n      tag_113\n      jump\t// in\n    tag_233:\n        /* \"#utility.yul\":10013:10083   */\n      tag_234\n        /* \"#utility.yul\":10076:10082   */\n      dup2\n        /* \"#utility.yul\":10071:10074   */\n      dup6\n        /* \"#utility.yul\":10013:10083   */\n      tag_114\n      jump\t// in\n    tag_234:\n        /* \"#utility.yul\":10006:10083   */\n      swap4\n      pop\n        /* \"#utility.yul\":10092:10144   */\n      tag_235\n        /* \"#utility.yul\":10137:10143   */\n      dup2\n        /* \"#utility.yul\":10132:10135   */\n      dup6\n        /* \"#utility.yul\":10125:10129   */\n      0x20\n        /* \"#utility.yul\":10118:10123   */\n      dup7\n        /* \"#utility.yul\":10114:10130   */\n      add\n        /* \"#utility.yul\":10092:10144   */\n      tag_115\n      jump\t// in\n    tag_235:\n        /* \"#utility.yul\":10169:10198   */\n      tag_236\n        /* \"#utility.yul\":10191:10197   */\n      dup2\n        /* \"#utility.yul\":10169:10198   */\n      tag_116\n      jump\t// in\n    tag_236:\n        /* \"#utility.yul\":10164:10167   */\n      dup5\n        /* \"#utility.yul\":10160:10199   */\n      add\n        /* \"#utility.yul\":10153:10199   */\n      swap2\n      pop\n        /* \"#utility.yul\":9935:10205   */\n      pop\n        /* \"#utility.yul\":9845:10205   */\n      swap3\n      swap2\n      pop\n      pop\n      jump\t// out\n        /* \"#utility.yul\":10211:10300   */\n    tag_118:\n        /* \"#utility.yul\":10247:10254   */\n      0x00\n        /* \"#utility.yul\":10287:10293   */\n      0xffff\n        /* \"#utility.yul\":10280:10285   */\n      dup3\n        /* \"#utility.yul\":10276:10294   */\n      and\n        /* \"#utility.yul\":10265:10294   */\n      swap1\n      pop\n        /* \"#utility.yul\":10211:10300   */\n      swap2\n      swap1\n      pop\n      jump\t// out\n        /* \"#utility.yul\":10306:10421   */\n    tag_119:\n        /* \"#utility.yul\":10391:10414   */\n      tag_239\n        /* \"#utility.yul\":10408:10413   */\n      dup2\n        /* \"#utility.yul\":10391:10414   */\n      tag_118\n      jump\t// in\n    tag_239:\n        /* \"#utility.yul\":10386:10389   */\n      dup3\n        /* \"#utility.yul\":10379:10415   */\n      mstore\n        /* \"#utility.yul\":10306:10421   */\n      pop\n      pop\n      jump\t// out\n        /* \"#utility.yul\":10427:11174   */\n    tag_65:\n        /* \"#utility.yul\":10648:10652   */\n      0x00\n        /* \"#utility.yul\":10686:10689   */\n      0xa0\n        /* \"#utility.yul\":10675:10684   */\n      dup3\n        /* \"#utility.yul\":10671:10690   */\n      add\n        /* \"#utility.yul\":10663:10690   */\n      swap1\n      pop\n        /* \"#utility.yul\":10700:10771   */\n      tag_241\n        /* \"#utility.yul\":10768:10769   */\n      0x00\n        /* \"#utility.yul\":10757:10766   */\n      dup4\n        /* \"#utility.yul\":10753:10770   */\n      add\n        /* \"#utility.yul\":10744:10750   */\n      dup9\n        /* \"#utility.yul\":10700:10771   */\n      tag_105\n      jump\t// in\n    tag_241:\n        /* \"#utility.yul\":10781:10853   */\n      tag_242\n        /* \"#utility.yul\":10849:10851   */\n      0x20\n        /* \"#utility.yul\":10838:10847   */\n      dup4\n        /* \"#utility.yul\":10834:10852   */\n      add\n        /* \"#utility.yul\":10825:10831   */\n      dup8\n        /* \"#utility.yul\":10781:10853   */\n      tag_105\n      jump\t// in\n    tag_242:\n        /* \"#utility.yul\":10863:10935   */\n      tag_243\n        /* \"#utility.yul\":10931:10933   */\n      0x40\n        /* \"#utility.yul\":10920:10929   */\n      dup4\n        /* \"#utility.yul\":10916:10934   */\n      add\n        /* \"#utility.yul\":10907:10913   */\n      dup7\n        /* \"#utility.yul\":10863:10935   */\n      tag_107\n      jump\t// in\n    tag_243:\n        /* \"#utility.yul\":10982:10991   */\n      dup2\n        /* \"#utility.yul\":10976:10980   */\n      dup2\n        /* \"#utility.yul\":10972:10992   */\n      sub\n        /* \"#utility.yul\":10967:10969   */\n      0x60\n        /* \"#utility.yul\":10956:10965   */\n      dup4\n        /* \"#utility.yul\":10952:10970   */\n      add\n        /* \"#utility.yul\":10945:10993   */\n      mstore\n        /* \"#utility.yul\":11010:11086   */\n      tag_244\n        /* \"#utility.yul\":11081:11085   */\n      dup2\n        /* \"#utility.yul\":11072:11078   */\n      dup6\n        /* \"#utility.yul\":11010:11086   */\n      tag_117\n      jump\t// in\n    tag_244:\n        /* \"#utility.yul\":11002:11086   */\n      swap1\n      pop\n        /* \"#utility.yul\":11096:11167   */\n      tag_245\n        /* \"#utility.yul\":11162:11165   */\n      0x80\n        /* \"#utility.yul\":11151:11160   */\n      dup4\n        /* \"#utility.yul\":11147:11166   */\n      add\n        /* \"#utility.yul\":11138:11144   */\n      dup5\n        /* \"#utility.yul\":11096:11167   */\n      tag_119\n      jump\t// in\n    tag_245:\n        /* \"#utility.yul\":10427:11174   */\n      swap7\n      swap6\n      pop\n      pop\n      pop\n      pop\n      pop\n      pop\n      jump\t// out\n        /* \"#utility.yul\":11180:11405   */\n    tag_120:\n        /* \"#utility.yul\":11320:11354   */\n      0x4f776e61626c653a206e6577206f776e657220697320746865207a65726f2061\n        /* \"#utility.yul\":11316:11317   */\n      0x00\n        /* \"#utility.yul\":11308:11314   */\n      dup3\n        /* \"#utility.yul\":11304:11318   */\n      add\n        /* \"#utility.yul\":11297:11355   */\n      mstore\n        /* \"#utility.yul\":11389:11397   */\n      0x6464726573730000000000000000000000000000000000000000000000000000\n        /* \"#utility.yul\":11384:11386   */\n      0x20\n        /* \"#utility.yul\":11376:11382   */\n      dup3\n        /* \"#utility.yul\":11372:11387   */\n      add\n        /* \"#utility.yul\":11365:11398   */\n      mstore\n        /* \"#utility.yul\":11180:11405   */\n      pop\n      jump\t// out\n        /* \"#utility.yul\":11411:11777   */\n    tag_121:\n        /* \"#utility.yul\":11553:11556   */\n      0x00\n        /* \"#utility.yul\":11574:11641   */\n      tag_248\n        /* \"#utility.yul\":11638:11640   */\n      0x26\n        /* \"#utility.yul\":11633:11636   */\n      dup4\n        /* \"#utility.yul\":11574:11641   */\n      tag_110\n      jump\t// in\n    tag_248:\n        /* \"#utility.yul\":11567:11641   */\n      swap2\n      pop\n        /* \"#utility.yul\":11650:11743   */\n      tag_249\n        /* \"#utility.yul\":11739:11742   */\n      dup3\n        /* \"#utility.yul\":11650:11743   */\n      tag_120\n      jump\t// in\n    tag_249:\n        /* \"#utility.yul\":11768:11770   */\n      0x40\n        /* \"#utility.yul\":11763:11766   */\n      dup3\n        /* \"#utility.yul\":11759:11771   */\n      add\n        /* \"#utility.yul\":11752:11771   */\n      swap1\n      pop\n        /* \"#utility.yul\":11411:11777   */\n      swap2\n      swap1\n      pop\n      jump\t// out\n        /* \"#utility.yul\":11783:12202   */\n    tag_78:\n        /* \"#utility.yul\":11949:11953   */\n      0x00\n        /* \"#utility.yul\":11987:11989   */\n      0x20\n        /* \"#utility.yul\":11976:11985   */\n      dup3\n        /* \"#utility.yul\":11972:11990   */\n      add\n        /* \"#utility.yul\":11964:11990   */\n      swap1\n      pop\n        /* \"#utility.yul\":12036:12045   */\n      dup2\n        /* \"#utility.yul\":12030:12034   */\n      dup2\n        /* \"#utility.yul\":12026:12046   */\n      sub\n        /* \"#utility.yul\":12022:12023   */\n      0x00\n        /* \"#utility.yul\":12011:12020   */\n      dup4\n        /* \"#utility.yul\":12007:12024   */\n      add\n        /* \"#utility.yul\":12000:12047   */\n      mstore\n        /* \"#utility.yul\":12064:12195   */\n      tag_251\n        /* \"#utility.yul\":12190:12194   */\n      dup2\n        /* \"#utility.yul\":12064:12195   */\n      tag_121\n      jump\t// in\n    tag_251:\n        /* \"#utility.yul\":12056:12195   */\n      swap1\n      pop\n        /* \"#utility.yul\":11783:12202   */\n      swap2\n      swap1\n      pop\n      jump\t// out\n\n    auxdata: 0xa26469706673582212201ed505a93e3234860e6579fea4a574575bca7774dbfd32da1f6e0cb804ecfa9564736f6c634300080a0033\n}\n",
				"bytecode": {
					"linkReferences": {},
					"object": "60c06040523480156200001157600080fd5b5060405162000fe838038062000fe8833981810160405281019062000037919062000283565b808073ffffffffffffffffffffffffffffffffffffffff1660808173ffffffffffffffffffffffffffffffffffffffff16815250508073ffffffffffffffffffffffffffffffffffffffff1663026b1d5f6040518163ffffffff1660e01b8152600401602060405180830381865afa158015620000b8573d6000803e3d6000fd5b505050506040513d601f19601f82011682018060405250810190620000de9190620002e6565b73ffffffffffffffffffffffffffffffffffffffff1660a08173ffffffffffffffffffffffffffffffffffffffff16815250505062000132620001266200013960201b60201c565b6200014160201b60201c565b5062000318565b600033905090565b60008060009054906101000a900473ffffffffffffffffffffffffffffffffffffffff169050816000806101000a81548173ffffffffffffffffffffffffffffffffffffffff021916908373ffffffffffffffffffffffffffffffffffffffff1602179055508173ffffffffffffffffffffffffffffffffffffffff168173ffffffffffffffffffffffffffffffffffffffff167f8be0079c531659141344cd1fd0a4f28419497f9722a3daafe3b4186f6b6457e060405160405180910390a35050565b600080fd5b600073ffffffffffffffffffffffffffffffffffffffff82169050919050565b600062000237826200020a565b9050919050565b60006200024b826200022a565b9050919050565b6200025d816200023e565b81146200026957600080fd5b50565b6000815190506200027d8162000252565b92915050565b6000602082840312156200029c576200029b62000205565b5b6000620002ac848285016200026c565b91505092915050565b620002c0816200022a565b8114620002cc57600080fd5b50565b600081519050620002e081620002b5565b92915050565b600060208284031215620002ff57620002fe62000205565b5b60006200030f84828501620002cf565b91505092915050565b60805160a051610c9c6200034c600039600081816101a1015281816102bb015261038a015260006101500152610c9c6000f3fe608060405234801561001057600080fd5b506004361061007d5760003560e01c80637535d2461161005b5780637535d246146100da578063763cbbfd146100f85780638da5cb5b14610114578063f2fde38b146101325761007d565b80630542975c146100825780631b11d0ff146100a0578063715018a6146100d0575b600080fd5b61008a61014e565b6040516100979190610690565b60405180910390f35b6100ba60048036038101906100b5919061078e565b610172565b6040516100c79190610843565b60405180910390f35b6100d8610231565b005b6100e26102b9565b6040516100ef919061087f565b60405180910390f35b610112600480360381019061010d919061089a565b6102dd565b005b61011c610424565b60405161012991906108e9565b60405180910390f35b61014c60048036038101906101479190610904565b61044d565b005b7f000000000000000000000000000000000000000000000000000000000000000081565b60008085876101819190610960565b90508773ffffffffffffffffffffffffffffffffffffffff1663095ea7b37f0000000000000000000000000000000000000000000000000000000000000000836040518363ffffffff1660e01b81526004016101de9291906109c5565b6020604051808303816000875af11580156101fd573d6000803e3d6000fd5b505050506040513d601f19601f820116820180604052508101906102219190610a1a565b5060019150509695505050505050565b610239610545565b73ffffffffffffffffffffffffffffffffffffffff16610257610424565b73ffffffffffffffffffffffffffffffffffffffff16146102ad576040517f08c379a00000000000000000000000000000000000000000000000000000000081526004016102a490610aa4565b60405180910390fd5b6102b7600061054d565b565b7f000000000000000000000000000000000000000000000000000000000000000081565b6102e5610545565b73ffffffffffffffffffffffffffffffffffffffff16610303610424565b73ffffffffffffffffffffffffffffffffffffffff1614610359576040517f08c379a000000000000000000000000000000000000000000000000000000000815260040161035090610aa4565b60405180910390fd5b60003090506000839050600069152d02c7e14af68000009050600060405180602001604052806000815250905060007f000000000000000000000000000000000000000000000000000000000000000073ffffffffffffffffffffffffffffffffffffffff166342b0b77c86868686866040518663ffffffff1660e01b81526004016103e9959493929190610b7a565b600060405180830381600087803b15801561040357600080fd5b505af1158015610417573d6000803e3d6000fd5b5050505050505050505050565b60008060009054906101000a900473ffffffffffffffffffffffffffffffffffffffff16905090565b610455610545565b73ffffffffffffffffffffffffffffffffffffffff16610473610424565b73ffffffffffffffffffffffffffffffffffffffff16146104c9576040517f08c379a00000000000000000000000000000000000000000000000000000000081526004016104c090610aa4565b60405180910390fd5b600073ffffffffffffffffffffffffffffffffffffffff168173ffffffffffffffffffffffffffffffffffffffff161415610539576040517f08c379a000000000000000000000000000000000000000000000000000000000815260040161053090610c46565b60405180910390fd5b6105428161054d565b50565b600033905090565b60008060009054906101000a900473ffffffffffffffffffffffffffffffffffffffff169050816000806101000a81548173ffffffffffffffffffffffffffffffffffffffff021916908373ffffffffffffffffffffffffffffffffffffffff1602179055508173ffffffffffffffffffffffffffffffffffffffff168173ffffffffffffffffffffffffffffffffffffffff167f8be0079c531659141344cd1fd0a4f28419497f9722a3daafe3b4186f6b6457e060405160405180910390a35050565b600073ffffffffffffffffffffffffffffffffffffffff82169050919050565b6000819050919050565b600061065661065161064c84610611565b610631565b610611565b9050919050565b60006106688261063b565b9050919050565b600061067a8261065d565b9050919050565b61068a8161066f565b82525050565b60006020820190506106a56000830184610681565b92915050565b600080fd5b600080fd5b60006106c082610611565b9050919050565b6106d0816106b5565b81146106db57600080fd5b50565b6000813590506106ed816106c7565b92915050565b6000819050919050565b610706816106f3565b811461071157600080fd5b50565b600081359050610723816106fd565b92915050565b600080fd5b600080fd5b600080fd5b60008083601f84011261074e5761074d610729565b5b8235905067ffffffffffffffff81111561076b5761076a61072e565b5b60208301915083600182028301111561078757610786610733565b5b9250929050565b60008060008060008060a087890312156107ab576107aa6106ab565b5b60006107b989828a016106de565b96505060206107ca89828a01610714565b95505060406107db89828a01610714565b94505060606107ec89828a016106de565b935050608087013567ffffffffffffffff81111561080d5761080c6106b0565b5b61081989828a01610738565b92509250509295509295509295565b60008115159050919050565b61083d81610828565b82525050565b60006020820190506108586000830184610834565b92915050565b60006108698261065d565b9050919050565b6108798161085e565b82525050565b60006020820190506108946000830184610870565b92915050565b600080604083850312156108b1576108b06106ab565b5b60006108bf858286016106de565b92505060206108d085828601610714565b9150509250929050565b6108e3816106b5565b82525050565b60006020820190506108fe60008301846108da565b92915050565b60006020828403121561091a576109196106ab565b5b6000610928848285016106de565b91505092915050565b7f4e487b7100000000000000000000000000000000000000000000000000000000600052601160045260246000fd5b600061096b826106f3565b9150610976836106f3565b9250827fffffffffffffffffffffffffffffffffffffffffffffffffffffffffffffffff038211156109ab576109aa610931565b5b828201905092915050565b6109bf816106f3565b82525050565b60006040820190506109da60008301856108da565b6109e760208301846109b6565b9392505050565b6109f781610828565b8114610a0257600080fd5b50565b600081519050610a14816109ee565b92915050565b600060208284031215610a3057610a2f6106ab565b5b6000610a3e84828501610a05565b91505092915050565b600082825260208201905092915050565b7f4f776e61626c653a2063616c6c6572206973206e6f7420746865206f776e6572600082015250565b6000610a8e602083610a47565b9150610a9982610a58565b602082019050919050565b60006020820190508181036000830152610abd81610a81565b9050919050565b600081519050919050565b600082825260208201905092915050565b60005b83811015610afe578082015181840152602081019050610ae3565b83811115610b0d576000848401525b50505050565b6000601f19601f8301169050919050565b6000610b2f82610ac4565b610b398185610acf565b9350610b49818560208601610ae0565b610b5281610b13565b840191505092915050565b600061ffff82169050919050565b610b7481610b5d565b82525050565b600060a082019050610b8f60008301886108da565b610b9c60208301876108da565b610ba960408301866109b6565b8181036060830152610bbb8185610b24565b9050610bca6080830184610b6b565b9695505050505050565b7f4f776e61626c653a206e6577206f776e657220697320746865207a65726f206160008201527f6464726573730000000000000000000000000000000000000000000000000000602082015250565b6000610c30602683610a47565b9150610c3b82610bd4565b604082019050919050565b60006020820190508181036000830152610c5f81610c23565b905091905056fea26469706673582212201ed505a93e3234860e6579fea4a574575bca7774dbfd32da1f6e0cb804ecfa9564736f6c634300080a0033",
					"opcodes": "PUSH1 0xC0 PUSH1 0x40 MSTORE CALLVALUE DUP1 ISZERO PUSH3 0x11 JUMPI PUSH1 0x0 DUP1 REVERT JUMPDEST POP PUSH1 0x40 MLOAD PUSH3 0xFE8 CODESIZE SUB DUP1 PUSH3 0xFE8 DUP4 CODECOPY DUP2 DUP2 ADD PUSH1 0x40 MSTORE DUP2 ADD SWAP1 PUSH3 0x37 SWAP2 SWAP1 PUSH3 0x283 JUMP JUMPDEST DUP1 DUP1 PUSH20 0xFFFFFFFFFFFFFFFFFFFFFFFFFFFFFFFFFFFFFFFF AND PUSH1 0x80 DUP2 PUSH20 0xFFFFFFFFFFFFFFFFFFFFFFFFFFFFFFFFFFFFFFFF AND DUP2 MSTORE POP POP DUP1 PUSH20 0xFFFFFFFFFFFFFFFFFFFFFFFFFFFFFFFFFFFFFFFF AND PUSH4 0x26B1D5F PUSH1 0x40 MLOAD DUP2 PUSH4 0xFFFFFFFF AND PUSH1 0xE0 SHL DUP2 MSTORE PUSH1 0x4 ADD PUSH1 0x20 PUSH1 0x40 MLOAD DUP1 DUP4 SUB DUP2 DUP7 GAS STATICCALL ISZERO DUP1 ISZERO PUSH3 0xB8 JUMPI RETURNDATASIZE PUSH1 0x0 DUP1 RETURNDATACOPY RETURNDATASIZE PUSH1 0x0 REVERT JUMPDEST POP POP POP POP PUSH1 0x40 MLOAD RETURNDATASIZE PUSH1 0x1F NOT PUSH1 0x1F DUP3 ADD AND DUP3 ADD DUP1 PUSH1 0x40 MSTORE POP DUP2 ADD SWAP1 PUSH3 0xDE SWAP2 SWAP1 PUSH3 0x2E6 JUMP JUMPDEST PUSH20 0xFFFFFFFFFFFFFFFFFFFFFFFFFFFFFFFFFFFFFFFF AND PUSH1 0xA0 DUP2 PUSH20 0xFFFFFFFFFFFFFFFFFFFFFFFFFFFFFFFFFFFFFFFF AND DUP2 MSTORE POP POP POP PUSH3 0x132 PUSH3 0x126 PUSH3 0x139 PUSH1 0x20 SHL PUSH1 0x20 SHR JUMP JUMPDEST PUSH3 0x141 PUSH1 0x20 SHL PUSH1 0x20 SHR JUMP JUMPDEST POP PUSH3 0x318 JUMP JUMPDEST PUSH1 0x0 CALLER SWAP1 POP SWAP1 JUMP JUMPDEST PUSH1 0x0 DUP1 PUSH1 0x0 SWAP1 SLOAD SWAP1 PUSH2 0x100 EXP SWAP1 DIV PUSH20 0xFFFFFFFFFFFFFFFFFFFFFFFFFFFFFFFFFFFFFFFF AND SWAP1 POP DUP2 PUSH1 0x0 DUP1 PUSH2 0x100 EXP DUP2 SLOAD DUP2 PUSH20 0xFFFFFFFFFFFFFFFFFFFFFFFFFFFFFFFFFFFFFFFF MUL NOT AND SWAP1 DUP4 PUSH20 0xFFFFFFFFFFFFFFFFFFFFFFFFFFFFFFFFFFFFFFFF AND MUL OR SWAP1 SSTORE POP DUP2 PUSH20 0xFFFFFFFFFFFFFFFFFFFFFFFFFFFFFFFFFFFFFFFF AND DUP2 PUSH20 0xFFFFFFFFFFFFFFFFFFFFFFFFFFFFFFFFFFFFFFFF AND PUSH32 0x8BE0079C531659141344CD1FD0A4F28419497F9722A3DAAFE3B4186F6B6457E0 PUSH1 0x40 MLOAD PUSH1 0x40 MLOAD DUP1 SWAP2 SUB SWAP1 LOG3 POP POP JUMP JUMPDEST PUSH1 0x0 DUP1 REVERT JUMPDEST PUSH1 0x0 PUSH20 0xFFFFFFFFFFFFFFFFFFFFFFFFFFFFFFFFFFFFFFFF DUP3 AND SWAP1 POP SWAP2 SWAP1 POP JUMP JUMPDEST PUSH1 0x0 PUSH3 0x237 DUP3 PUSH3 0x20A JUMP JUMPDEST SWAP1 POP SWAP2 SWAP1 POP JUMP JUMPDEST PUSH1 0x0 PUSH3 0x24B DUP3 PUSH3 0x22A JUMP JUMPDEST SWAP1 POP SWAP2 SWAP1 POP JUMP JUMPDEST PUSH3 0x25D DUP2 PUSH3 0x23E JUMP JUMPDEST DUP2 EQ PUSH3 0x269 JUMPI PUSH1 0x0 DUP1 REVERT JUMPDEST POP JUMP JUMPDEST PUSH1 0x0 DUP2 MLOAD SWAP1 POP PUSH3 0x27D DUP2 PUSH3 0x252 JUMP JUMPDEST SWAP3 SWAP2 POP POP JUMP JUMPDEST PUSH1 0x0 PUSH1 0x20 DUP3 DUP5 SUB SLT ISZERO PUSH3 0x29C JUMPI PUSH3 0x29B PUSH3 0x205 JUMP JUMPDEST JUMPDEST PUSH1 0x0 PUSH3 0x2AC DUP5 DUP3 DUP6 ADD PUSH3 0x26C JUMP JUMPDEST SWAP2 POP POP SWAP3 SWAP2 POP POP JUMP JUMPDEST PUSH3 0x2C0 DUP2 PUSH3 0x22A JUMP JUMPDEST DUP2 EQ PUSH3 0x2CC JUMPI PUSH1 0x0 DUP1 REVERT JUMPDEST POP JUMP JUMPDEST PUSH1 0x0 DUP2 MLOAD SWAP1 POP PUSH3 0x2E0 DUP2 PUSH3 0x2B5 JUMP JUMPDEST SWAP3 SWAP2 POP POP JUMP JUMPDEST PUSH1 0x0 PUSH1 0x20 DUP3 DUP5 SUB SLT ISZERO PUSH3 0x2FF JUMPI PUSH3 0x2FE PUSH3 0x205 JUMP JUMPDEST JUMPDEST PUSH1 0x0 PUSH3 0x30F DUP5 DUP3 DUP6 ADD PUSH3 0x2CF JUMP JUMPDEST SWAP2 POP POP SWAP3 SWAP2 POP POP JUMP JUMPDEST PUSH1 0x80 MLOAD PUSH1 0xA0 MLOAD PUSH2 0xC9C PUSH3 0x34C PUSH1 0x0 CODECOPY PUSH1 0x0 DUP2 DUP2 PUSH2 0x1A1 ADD MSTORE DUP2 DUP2 PUSH2 0x2BB ADD MSTORE PUSH2 0x38A ADD MSTORE PUSH1 0x0 PUSH2 0x150 ADD MSTORE PUSH2 0xC9C PUSH1 0x0 RETURN INVALID PUSH1 0x80 PUSH1 0x40 MSTORE CALLVALUE DUP1 ISZERO PUSH2 0x10 JUMPI PUSH1 0x0 DUP1 REVERT JUMPDEST POP PUSH1 0x4 CALLDATASIZE LT PUSH2 0x7D JUMPI PUSH1 0x0 CALLDATALOAD PUSH1 0xE0 SHR DUP1 PUSH4 0x7535D246 GT PUSH2 0x5B JUMPI DUP1 PUSH4 0x7535D246 EQ PUSH2 0xDA JUMPI DUP1 PUSH4 0x763CBBFD EQ PUSH2 0xF8 JUMPI DUP1 PUSH4 0x8DA5CB5B EQ PUSH2 0x114 JUMPI DUP1 PUSH4 0xF2FDE38B EQ PUSH2 0x132 JUMPI PUSH2 0x7D JUMP JUMPDEST DUP1 PUSH4 0x542975C EQ PUSH2 0x82 JUMPI DUP1 PUSH4 0x1B11D0FF EQ PUSH2 0xA0 JUMPI DUP1 PUSH4 0x715018A6 EQ PUSH2 0xD0 JUMPI JUMPDEST PUSH1 0x0 DUP1 REVERT JUMPDEST PUSH2 0x8A PUSH2 0x14E JUMP JUMPDEST PUSH1 0x40 MLOAD PUSH2 0x97 SWAP2 SWAP1 PUSH2 0x690 JUMP JUMPDEST PUSH1 0x40 MLOAD DUP1 SWAP2 SUB SWAP1 RETURN JUMPDEST PUSH2 0xBA PUSH1 0x4 DUP1 CALLDATASIZE SUB DUP2 ADD SWAP1 PUSH2 0xB5 SWAP2 SWAP1 PUSH2 0x78E JUMP JUMPDEST PUSH2 0x172 JUMP JUMPDEST PUSH1 0x40 MLOAD PUSH2 0xC7 SWAP2 SWAP1 PUSH2 0x843 JUMP JUMPDEST PUSH1 0x40 MLOAD DUP1 SWAP2 SUB SWAP1 RETURN JUMPDEST PUSH2 0xD8 PUSH2 0x231 JUMP JUMPDEST STOP JUMPDEST PUSH2 0xE2 PUSH2 0x2B9 JUMP JUMPDEST PUSH1 0x40 MLOAD PUSH2 0xEF SWAP2 SWAP1 PUSH2 0x87F JUMP JUMPDEST PUSH1 0x40 MLOAD DUP1 SWAP2 SUB SWAP1 RETURN JUMPDEST PUSH2 0x112 PUSH1 0x4 DUP1 CALLDATASIZE SUB DUP2 ADD SWAP1 PUSH2 0x10D SWAP2 SWAP1 PUSH2 0x89A JUMP JUMPDEST PUSH2 0x2DD JUMP JUMPDEST STOP JUMPDEST PUSH2 0x11C PUSH2 0x424 JUMP JUMPDEST PUSH1 0x40 MLOAD PUSH2 0x129 SWAP2 SWAP1 PUSH2 0x8E9 JUMP JUMPDEST PUSH1 0x40 MLOAD DUP1 SWAP2 SUB SWAP1 RETURN JUMPDEST PUSH2 0x14C PUSH1 0x4 DUP1 CALLDATASIZE SUB DUP2 ADD SWAP1 PUSH2 0x147 SWAP2 SWAP1 PUSH2 0x904 JUMP JUMPDEST PUSH2 0x44D JUMP JUMPDEST STOP JUMPDEST PUSH32 0x0 DUP2 JUMP JUMPDEST PUSH1 0x0 DUP1 DUP6 DUP8 PUSH2 0x181 SWAP2 SWAP1 PUSH2 0x960 JUMP JUMPDEST SWAP1 POP DUP8 PUSH20 0xFFFFFFFFFFFFFFFFFFFFFFFFFFFFFFFFFFFFFFFF AND PUSH4 0x95EA7B3 PUSH32 0x0 DUP4 PUSH1 0x40 MLOAD DUP4 PUSH4 0xFFFFFFFF AND PUSH1 0xE0 SHL DUP2 MSTORE PUSH1 0x4 ADD PUSH2 0x1DE SWAP3 SWAP2 SWAP1 PUSH2 0x9C5 JUMP JUMPDEST PUSH1 0x20 PUSH1 0x40 MLOAD DUP1 DUP4 SUB DUP2 PUSH1 0x0 DUP8 GAS CALL ISZERO DUP1 ISZERO PUSH2 0x1FD JUMPI RETURNDATASIZE PUSH1 0x0 DUP1 RETURNDATACOPY RETURNDATASIZE PUSH1 0x0 REVERT JUMPDEST POP POP POP POP PUSH1 0x40 MLOAD RETURNDATASIZE PUSH1 0x1F NOT PUSH1 0x1F DUP3 ADD AND DUP3 ADD DUP1 PUSH1 0x40 MSTORE POP DUP2 ADD SWAP1 PUSH2 0x221 SWAP2 SWAP1 PUSH2 0xA1A JUMP JUMPDEST POP PUSH1 0x1 SWAP2 POP POP SWAP7 SWAP6 POP POP POP POP POP POP JUMP JUMPDEST PUSH2 0x239 PUSH2 0x545 JUMP JUMPDEST PUSH20 0xFFFFFFFFFFFFFFFFFFFFFFFFFFFFFFFFFFFFFFFF AND PUSH2 0x257 PUSH2 0x424 JUMP JUMPDEST PUSH20 0xFFFFFFFFFFFFFFFFFFFFFFFFFFFFFFFFFFFFFFFF AND EQ PUSH2 0x2AD JUMPI PUSH1 0x40 MLOAD PUSH32 0x8C379A000000000000000000000000000000000000000000000000000000000 DUP2 MSTORE PUSH1 0x4 ADD PUSH2 0x2A4 SWAP1 PUSH2 0xAA4 JUMP JUMPDEST PUSH1 0x40 MLOAD DUP1 SWAP2 SUB SWAP1 REVERT JUMPDEST PUSH2 0x2B7 PUSH1 0x0 PUSH2 0x54D JUMP JUMPDEST JUMP JUMPDEST PUSH32 0x0 DUP2 JUMP JUMPDEST PUSH2 0x2E5 PUSH2 0x545 JUMP JUMPDEST PUSH20 0xFFFFFFFFFFFFFFFFFFFFFFFFFFFFFFFFFFFFFFFF AND PUSH2 0x303 PUSH2 0x424 JUMP JUMPDEST PUSH20 0xFFFFFFFFFFFFFFFFFFFFFFFFFFFFFFFFFFFFFFFF AND EQ PUSH2 0x359 JUMPI PUSH1 0x40 MLOAD PUSH32 0x8C379A000000000000000000000000000000000000000000000000000000000 DUP2 MSTORE PUSH1 0x4 ADD PUSH2 0x350 SWAP1 PUSH2 0xAA4 JUMP JUMPDEST PUSH1 0x40 MLOAD DUP1 SWAP2 SUB SWAP1 REVERT JUMPDEST PUSH1 0x0 ADDRESS SWAP1 POP PUSH1 0x0 DUP4 SWAP1 POP PUSH1 0x0 PUSH10 0x152D02C7E14AF6800000 SWAP1 POP PUSH1 0x0 PUSH1 0x40 MLOAD DUP1 PUSH1 0x20 ADD PUSH1 0x40 MSTORE DUP1 PUSH1 0x0 DUP2 MSTORE POP SWAP1 POP PUSH1 0x0 PUSH32 0x0 PUSH20 0xFFFFFFFFFFFFFFFFFFFFFFFFFFFFFFFFFFFFFFFF AND PUSH4 0x42B0B77C DUP7 DUP7 DUP7 DUP7 DUP7 PUSH1 0x40 MLOAD DUP7 PUSH4 0xFFFFFFFF AND PUSH1 0xE0 SHL DUP2 MSTORE PUSH1 0x4 ADD PUSH2 0x3E9 SWAP6 SWAP5 SWAP4 SWAP3 SWAP2 SWAP1 PUSH2 0xB7A JUMP JUMPDEST PUSH1 0x0 PUSH1 0x40 MLOAD DUP1 DUP4 SUB DUP2 PUSH1 0x0 DUP8 DUP1 EXTCODESIZE ISZERO DUP1 ISZERO PUSH2 0x403 JUMPI PUSH1 0x0 DUP1 REVERT JUMPDEST POP GAS CALL ISZERO DUP1 ISZERO PUSH2 0x417 JUMPI RETURNDATASIZE PUSH1 0x0 DUP1 RETURNDATACOPY RETURNDATASIZE PUSH1 0x0 REVERT JUMPDEST POP POP POP POP POP POP POP POP POP POP POP JUMP JUMPDEST PUSH1 0x0 DUP1 PUSH1 0x0 SWAP1 SLOAD SWAP1 PUSH2 0x100 EXP SWAP1 DIV PUSH20 0xFFFFFFFFFFFFFFFFFFFFFFFFFFFFFFFFFFFFFFFF AND SWAP1 POP SWAP1 JUMP JUMPDEST PUSH2 0x455 PUSH2 0x545 JUMP JUMPDEST PUSH20 0xFFFFFFFFFFFFFFFFFFFFFFFFFFFFFFFFFFFFFFFF AND PUSH2 0x473 PUSH2 0x424 JUMP JUMPDEST PUSH20 0xFFFFFFFFFFFFFFFFFFFFFFFFFFFFFFFFFFFFFFFF AND EQ PUSH2 0x4C9 JUMPI PUSH1 0x40 MLOAD PUSH32 0x8C379A000000000000000000000000000000000000000000000000000000000 DUP2 MSTORE PUSH1 0x4 ADD PUSH2 0x4C0 SWAP1 PUSH2 0xAA4 JUMP JUMPDEST PUSH1 0x40 MLOAD DUP1 SWAP2 SUB SWAP1 REVERT JUMPDEST PUSH1 0x0 PUSH20 0xFFFFFFFFFFFFFFFFFFFFFFFFFFFFFFFFFFFFFFFF AND DUP2 PUSH20 0xFFFFFFFFFFFFFFFFFFFFFFFFFFFFFFFFFFFFFFFF AND EQ ISZERO PUSH2 0x539 JUMPI PUSH1 0x40 MLOAD PUSH32 0x8C379A000000000000000000000000000000000000000000000000000000000 DUP2 MSTORE PUSH1 0x4 ADD PUSH2 0x530 SWAP1 PUSH2 0xC46 JUMP JUMPDEST PUSH1 0x40 MLOAD DUP1 SWAP2 SUB SWAP1 REVERT JUMPDEST PUSH2 0x542 DUP2 PUSH2 0x54D JUMP JUMPDEST POP JUMP JUMPDEST PUSH1 0x0 CALLER SWAP1 POP SWAP1 JUMP JUMPDEST PUSH1 0x0 DUP1 PUSH1 0x0 SWAP1 SLOAD SWAP1 PUSH2 0x100 EXP SWAP1 DIV PUSH20 0xFFFFFFFFFFFFFFFFFFFFFFFFFFFFFFFFFFFFFFFF AND SWAP1 POP DUP2 PUSH1 0x0 DUP1 PUSH2 0x100 EXP DUP2 SLOAD DUP2 PUSH20 0xFFFFFFFFFFFFFFFFFFFFFFFFFFFFFFFFFFFFFFFF MUL NOT AND SWAP1 DUP4 PUSH20 0xFFFFFFFFFFFFFFFFFFFFFFFFFFFFFFFFFFFFFFFF AND MUL OR SWAP1 SSTORE POP DUP2 PUSH20 0xFFFFFFFFFFFFFFFFFFFFFFFFFFFFFFFFFFFFFFFF AND DUP2 PUSH20 0xFFFFFFFFFFFFFFFFFFFFFFFFFFFFFFFFFFFFFFFF AND PUSH32 0x8BE0079C531659141344CD1FD0A4F28419497F9722A3DAAFE3B4186F6B6457E0 PUSH1 0x40 MLOAD PUSH1 0x40 MLOAD DUP1 SWAP2 SUB SWAP1 LOG3 POP POP JUMP JUMPDEST PUSH1 0x0 PUSH20 0xFFFFFFFFFFFFFFFFFFFFFFFFFFFFFFFFFFFFFFFF DUP3 AND SWAP1 POP SWAP2 SWAP1 POP JUMP JUMPDEST PUSH1 0x0 DUP2 SWAP1 POP SWAP2 SWAP1 POP JUMP JUMPDEST PUSH1 0x0 PUSH2 0x656 PUSH2 0x651 PUSH2 0x64C DUP5 PUSH2 0x611 JUMP JUMPDEST PUSH2 0x631 JUMP JUMPDEST PUSH2 0x611 JUMP JUMPDEST SWAP1 POP SWAP2 SWAP1 POP JUMP JUMPDEST PUSH1 0x0 PUSH2 0x668 DUP3 PUSH2 0x63B JUMP JUMPDEST SWAP1 POP SWAP2 SWAP1 POP JUMP JUMPDEST PUSH1 0x0 PUSH2 0x67A DUP3 PUSH2 0x65D JUMP JUMPDEST SWAP1 POP SWAP2 SWAP1 POP JUMP JUMPDEST PUSH2 0x68A DUP2 PUSH2 0x66F JUMP JUMPDEST DUP3 MSTORE POP POP JUMP JUMPDEST PUSH1 0x0 PUSH1 0x20 DUP3 ADD SWAP1 POP PUSH2 0x6A5 PUSH1 0x0 DUP4 ADD DUP5 PUSH2 0x681 JUMP JUMPDEST SWAP3 SWAP2 POP POP JUMP JUMPDEST PUSH1 0x0 DUP1 REVERT JUMPDEST PUSH1 0x0 DUP1 REVERT JUMPDEST PUSH1 0x0 PUSH2 0x6C0 DUP3 PUSH2 0x611 JUMP JUMPDEST SWAP1 POP SWAP2 SWAP1 POP JUMP JUMPDEST PUSH2 0x6D0 DUP2 PUSH2 0x6B5 JUMP JUMPDEST DUP2 EQ PUSH2 0x6DB JUMPI PUSH1 0x0 DUP1 REVERT JUMPDEST POP JUMP JUMPDEST PUSH1 0x0 DUP2 CALLDATALOAD SWAP1 POP PUSH2 0x6ED DUP2 PUSH2 0x6C7 JUMP JUMPDEST SWAP3 SWAP2 POP POP JUMP JUMPDEST PUSH1 0x0 DUP2 SWAP1 POP SWAP2 SWAP1 POP JUMP JUMPDEST PUSH2 0x706 DUP2 PUSH2 0x6F3 JUMP JUMPDEST DUP2 EQ PUSH2 0x711 JUMPI PUSH1 0x0 DUP1 REVERT JUMPDEST POP JUMP JUMPDEST PUSH1 0x0 DUP2 CALLDATALOAD SWAP1 POP PUSH2 0x723 DUP2 PUSH2 0x6FD JUMP JUMPDEST SWAP3 SWAP2 POP POP JUMP JUMPDEST PUSH1 0x0 DUP1 REVERT JUMPDEST PUSH1 0x0 DUP1 REVERT JUMPDEST PUSH1 0x0 DUP1 REVERT JUMPDEST PUSH1 0x0 DUP1 DUP4 PUSH1 0x1F DUP5 ADD SLT PUSH2 0x74E JUMPI PUSH2 0x74D PUSH2 0x729 JUMP JUMPDEST JUMPDEST DUP3 CALLDATALOAD SWAP1 POP PUSH8 0xFFFFFFFFFFFFFFFF DUP2 GT ISZERO PUSH2 0x76B JUMPI PUSH2 0x76A PUSH2 0x72E JUMP JUMPDEST JUMPDEST PUSH1 0x20 DUP4 ADD SWAP2 POP DUP4 PUSH1 0x1 DUP3 MUL DUP4 ADD GT ISZERO PUSH2 0x787 JUMPI PUSH2 0x786 PUSH2 0x733 JUMP JUMPDEST JUMPDEST SWAP3 POP SWAP3 SWAP1 POP JUMP JUMPDEST PUSH1 0x0 DUP1 PUSH1 0x0 DUP1 PUSH1 0x0 DUP1 PUSH1 0xA0 DUP8 DUP10 SUB SLT ISZERO PUSH2 0x7AB JUMPI PUSH2 0x7AA PUSH2 0x6AB JUMP JUMPDEST JUMPDEST PUSH1 0x0 PUSH2 0x7B9 DUP10 DUP3 DUP11 ADD PUSH2 0x6DE JUMP JUMPDEST SWAP7 POP POP PUSH1 0x20 PUSH2 0x7CA DUP10 DUP3 DUP11 ADD PUSH2 0x714 JUMP JUMPDEST SWAP6 POP POP PUSH1 0x40 PUSH2 0x7DB DUP10 DUP3 DUP11 ADD PUSH2 0x714 JUMP JUMPDEST SWAP5 POP POP PUSH1 0x60 PUSH2 0x7EC DUP10 DUP3 DUP11 ADD PUSH2 0x6DE JUMP JUMPDEST SWAP4 POP POP PUSH1 0x80 DUP8 ADD CALLDATALOAD PUSH8 0xFFFFFFFFFFFFFFFF DUP2 GT ISZERO PUSH2 0x80D JUMPI PUSH2 0x80C PUSH2 0x6B0 JUMP JUMPDEST JUMPDEST PUSH2 0x819 DUP10 DUP3 DUP11 ADD PUSH2 0x738 JUMP JUMPDEST SWAP3 POP SWAP3 POP POP SWAP3 SWAP6 POP SWAP3 SWAP6 POP SWAP3 SWAP6 JUMP JUMPDEST PUSH1 0x0 DUP2 ISZERO ISZERO SWAP1 POP SWAP2 SWAP1 POP JUMP JUMPDEST PUSH2 0x83D DUP2 PUSH2 0x828 JUMP JUMPDEST DUP3 MSTORE POP POP JUMP JUMPDEST PUSH1 0x0 PUSH1 0x20 DUP3 ADD SWAP1 POP PUSH2 0x858 PUSH1 0x0 DUP4 ADD DUP5 PUSH2 0x834 JUMP JUMPDEST SWAP3 SWAP2 POP POP JUMP JUMPDEST PUSH1 0x0 PUSH2 0x869 DUP3 PUSH2 0x65D JUMP JUMPDEST SWAP1 POP SWAP2 SWAP1 POP JUMP JUMPDEST PUSH2 0x879 DUP2 PUSH2 0x85E JUMP JUMPDEST DUP3 MSTORE POP POP JUMP JUMPDEST PUSH1 0x0 PUSH1 0x20 DUP3 ADD SWAP1 POP PUSH2 0x894 PUSH1 0x0 DUP4 ADD DUP5 PUSH2 0x870 JUMP JUMPDEST SWAP3 SWAP2 POP POP JUMP JUMPDEST PUSH1 0x0 DUP1 PUSH1 0x40 DUP4 DUP6 SUB SLT ISZERO PUSH2 0x8B1 JUMPI PUSH2 0x8B0 PUSH2 0x6AB JUMP JUMPDEST JUMPDEST PUSH1 0x0 PUSH2 0x8BF DUP6 DUP3 DUP7 ADD PUSH2 0x6DE JUMP JUMPDEST SWAP3 POP POP PUSH1 0x20 PUSH2 0x8D0 DUP6 DUP3 DUP7 ADD PUSH2 0x714 JUMP JUMPDEST SWAP2 POP POP SWAP3 POP SWAP3 SWAP1 POP JUMP JUMPDEST PUSH2 0x8E3 DUP2 PUSH2 0x6B5 JUMP JUMPDEST DUP3 MSTORE POP POP JUMP JUMPDEST PUSH1 0x0 PUSH1 0x20 DUP3 ADD SWAP1 POP PUSH2 0x8FE PUSH1 0x0 DUP4 ADD DUP5 PUSH2 0x8DA JUMP JUMPDEST SWAP3 SWAP2 POP POP JUMP JUMPDEST PUSH1 0x0 PUSH1 0x20 DUP3 DUP5 SUB SLT ISZERO PUSH2 0x91A JUMPI PUSH2 0x919 PUSH2 0x6AB JUMP JUMPDEST JUMPDEST PUSH1 0x0 PUSH2 0x928 DUP5 DUP3 DUP6 ADD PUSH2 0x6DE JUMP JUMPDEST SWAP2 POP POP SWAP3 SWAP2 POP POP JUMP JUMPDEST PUSH32 0x4E487B7100000000000000000000000000000000000000000000000000000000 PUSH1 0x0 MSTORE PUSH1 0x11 PUSH1 0x4 MSTORE PUSH1 0x24 PUSH1 0x0 REVERT JUMPDEST PUSH1 0x0 PUSH2 0x96B DUP3 PUSH2 0x6F3 JUMP JUMPDEST SWAP2 POP PUSH2 0x976 DUP4 PUSH2 0x6F3 JUMP JUMPDEST SWAP3 POP DUP3 PUSH32 0xFFFFFFFFFFFFFFFFFFFFFFFFFFFFFFFFFFFFFFFFFFFFFFFFFFFFFFFFFFFFFFFF SUB DUP3 GT ISZERO PUSH2 0x9AB JUMPI PUSH2 0x9AA PUSH2 0x931 JUMP JUMPDEST JUMPDEST DUP3 DUP3 ADD SWAP1 POP SWAP3 SWAP2 POP POP JUMP JUMPDEST PUSH2 0x9BF DUP2 PUSH2 0x6F3 JUMP JUMPDEST DUP3 MSTORE POP POP JUMP JUMPDEST PUSH1 0x0 PUSH1 0x40 DUP3 ADD SWAP1 POP PUSH2 0x9DA PUSH1 0x0 DUP4 ADD DUP6 PUSH2 0x8DA JUMP JUMPDEST PUSH2 0x9E7 PUSH1 0x20 DUP4 ADD DUP5 PUSH2 0x9B6 JUMP JUMPDEST SWAP4 SWAP3 POP POP POP JUMP JUMPDEST PUSH2 0x9F7 DUP2 PUSH2 0x828 JUMP JUMPDEST DUP2 EQ PUSH2 0xA02 JUMPI PUSH1 0x0 DUP1 REVERT JUMPDEST POP JUMP JUMPDEST PUSH1 0x0 DUP2 MLOAD SWAP1 POP PUSH2 0xA14 DUP2 PUSH2 0x9EE JUMP JUMPDEST SWAP3 SWAP2 POP POP JUMP JUMPDEST PUSH1 0x0 PUSH1 0x20 DUP3 DUP5 SUB SLT ISZERO PUSH2 0xA30 JUMPI PUSH2 0xA2F PUSH2 0x6AB JUMP JUMPDEST JUMPDEST PUSH1 0x0 PUSH2 0xA3E DUP5 DUP3 DUP6 ADD PUSH2 0xA05 JUMP JUMPDEST SWAP2 POP POP SWAP3 SWAP2 POP POP JUMP JUMPDEST PUSH1 0x0 DUP3 DUP3 MSTORE PUSH1 0x20 DUP3 ADD SWAP1 POP SWAP3 SWAP2 POP POP JUMP JUMPDEST PUSH32 0x4F776E61626C653A2063616C6C6572206973206E6F7420746865206F776E6572 PUSH1 0x0 DUP3 ADD MSTORE POP JUMP JUMPDEST PUSH1 0x0 PUSH2 0xA8E PUSH1 0x20 DUP4 PUSH2 0xA47 JUMP JUMPDEST SWAP2 POP PUSH2 0xA99 DUP3 PUSH2 0xA58 JUMP JUMPDEST PUSH1 0x20 DUP3 ADD SWAP1 POP SWAP2 SWAP1 POP JUMP JUMPDEST PUSH1 0x0 PUSH1 0x20 DUP3 ADD SWAP1 POP DUP2 DUP2 SUB PUSH1 0x0 DUP4 ADD MSTORE PUSH2 0xABD DUP2 PUSH2 0xA81 JUMP JUMPDEST SWAP1 POP SWAP2 SWAP1 POP JUMP JUMPDEST PUSH1 0x0 DUP2 MLOAD SWAP1 POP SWAP2 SWAP1 POP JUMP JUMPDEST PUSH1 0x0 DUP3 DUP3 MSTORE PUSH1 0x20 DUP3 ADD SWAP1 POP SWAP3 SWAP2 POP POP JUMP JUMPDEST PUSH1 0x0 JUMPDEST DUP4 DUP2 LT ISZERO PUSH2 0xAFE JUMPI DUP1 DUP3 ADD MLOAD DUP2 DUP5 ADD MSTORE PUSH1 0x20 DUP2 ADD SWAP1 POP PUSH2 0xAE3 JUMP JUMPDEST DUP4 DUP2 GT ISZERO PUSH2 0xB0D JUMPI PUSH1 0x0 DUP5 DUP5 ADD MSTORE JUMPDEST POP POP POP POP JUMP JUMPDEST PUSH1 0x0 PUSH1 0x1F NOT PUSH1 0x1F DUP4 ADD AND SWAP1 POP SWAP2 SWAP1 POP JUMP JUMPDEST PUSH1 0x0 PUSH2 0xB2F DUP3 PUSH2 0xAC4 JUMP JUMPDEST PUSH2 0xB39 DUP2 DUP6 PUSH2 0xACF JUMP JUMPDEST SWAP4 POP PUSH2 0xB49 DUP2 DUP6 PUSH1 0x20 DUP7 ADD PUSH2 0xAE0 JUMP JUMPDEST PUSH2 0xB52 DUP2 PUSH2 0xB13 JUMP JUMPDEST DUP5 ADD SWAP2 POP POP SWAP3 SWAP2 POP POP JUMP JUMPDEST PUSH1 0x0 PUSH2 0xFFFF DUP3 AND SWAP1 POP SWAP2 SWAP1 POP JUMP JUMPDEST PUSH2 0xB74 DUP2 PUSH2 0xB5D JUMP JUMPDEST DUP3 MSTORE POP POP JUMP JUMPDEST PUSH1 0x0 PUSH1 0xA0 DUP3 ADD SWAP1 POP PUSH2 0xB8F PUSH1 0x0 DUP4 ADD DUP9 PUSH2 0x8DA JUMP JUMPDEST PUSH2 0xB9C PUSH1 0x20 DUP4 ADD DUP8 PUSH2 0x8DA JUMP JUMPDEST PUSH2 0xBA9 PUSH1 0x40 DUP4 ADD DUP7 PUSH2 0x9B6 JUMP JUMPDEST DUP2 DUP2 SUB PUSH1 0x60 DUP4 ADD MSTORE PUSH2 0xBBB DUP2 DUP6 PUSH2 0xB24 JUMP JUMPDEST SWAP1 POP PUSH2 0xBCA PUSH1 0x80 DUP4 ADD DUP5 PUSH2 0xB6B JUMP JUMPDEST SWAP7 SWAP6 POP POP POP POP POP POP JUMP JUMPDEST PUSH32 0x4F776E61626C653A206E6577206F776E657220697320746865207A65726F2061 PUSH1 0x0 DUP3 ADD MSTORE PUSH32 0x6464726573730000000000000000000000000000000000000000000000000000 PUSH1 0x20 DUP3 ADD MSTORE POP JUMP JUMPDEST PUSH1 0x0 PUSH2 0xC30 PUSH1 0x26 DUP4 PUSH2 0xA47 JUMP JUMPDEST SWAP2 POP PUSH2 0xC3B DUP3 PUSH2 0xBD4 JUMP JUMPDEST PUSH1 0x40 DUP3 ADD SWAP1 POP SWAP2 SWAP1 POP JUMP JUMPDEST PUSH1 0x0 PUSH1 0x20 DUP3 ADD SWAP1 POP DUP2 DUP2 SUB PUSH1 0x0 DUP4 ADD MSTORE PUSH2 0xC5F DUP2 PUSH2 0xC23 JUMP JUMPDEST SWAP1 POP SWAP2 SWAP1 POP JUMP INVALID LOG2 PUSH5 0x6970667358 0x22 SLT KECCAK256 0x1E 0xD5 SDIV 0xA9 RETURNDATACOPY ORIGIN CALLVALUE DUP7 0xE PUSH6 0x79FEA4A57457 JUMPDEST 0xCA PUSH24 0x74DBFD32DA1F6E0CB804ECFA9564736F6C634300080A0033 "
				},
				"gasEstimates": {
					"creation": {
						"codeDepositCost": "645600",
						"executionCost": "infinite",
						"totalCost": "infinite"
					},
					"external": {
						"ADDRESSES_PROVIDER()": "infinite",
						"POOL()": "infinite",
						"executeOperation(address,uint256,uint256,address,bytes)": "infinite",
						"owner()": "2566",
						"renounceOwnership()": "30419",
						"startFlashLoan(address,uint256)": "infinite",
						"transferOwnership(address)": "30789"
					}
				},
				"methodIdentifiers": {
					"ADDRESSES_PROVIDER()": "0542975c",
					"POOL()": "7535d246",
					"executeOperation(address,uint256,uint256,address,bytes)": "1b11d0ff",
					"owner()": "8da5cb5b",
					"renounceOwnership()": "715018a6",
					"startFlashLoan(address,uint256)": "763cbbfd",
					"transferOwnership(address)": "f2fde38b"
				}
			},
			"userdoc": {
				"kind": "user",
				"methods": {
					"executeOperation(address,uint256,uint256,address,bytes)": {
						"notice": "Executes an operation after receiving the flash-borrowed asset"
					}
				},
				"version": 1
			}
		}
	}
}