{
	"contracts2/V3FlashLoan.sol": {
		"V3FlashLoan": {
			"abi": [
				{
					"inputs": [
						{
							"internalType": "contract IPoolAddressesProvider",
							"name": "_address",
							"type": "address"
						}
					],
					"stateMutability": "nonpayable",
					"type": "constructor"
				},
				{
					"anonymous": false,
					"inputs": [
						{
							"indexed": true,
							"internalType": "address",
							"name": "previousOwner",
							"type": "address"
						},
						{
							"indexed": true,
							"internalType": "address",
							"name": "newOwner",
							"type": "address"
						}
					],
					"name": "OwnershipTransferred",
					"type": "event"
				},
				{
					"inputs": [],
					"name": "ADDRESSES_PROVIDER",
					"outputs": [
						{
							"internalType": "contract IPoolAddressesProvider",
							"name": "",
							"type": "address"
						}
					],
					"stateMutability": "view",
					"type": "function"
				},
				{
					"inputs": [],
					"name": "POOL",
					"outputs": [
						{
							"internalType": "contract IPool",
							"name": "",
							"type": "address"
						}
					],
					"stateMutability": "view",
					"type": "function"
				},
				{
					"inputs": [
						{
							"internalType": "address",
							"name": "asset",
							"type": "address"
						},
						{
							"internalType": "uint256",
							"name": "amount",
							"type": "uint256"
						},
						{
							"internalType": "uint256",
							"name": "premium",
							"type": "uint256"
						},
						{
							"internalType": "address",
							"name": "initiator",
							"type": "address"
						},
						{
							"internalType": "bytes",
							"name": "params",
							"type": "bytes"
						}
					],
					"name": "executeOperation",
					"outputs": [
						{
							"internalType": "bool",
							"name": "",
							"type": "bool"
						}
					],
					"stateMutability": "nonpayable",
					"type": "function"
				},
				{
					"inputs": [],
					"name": "owner",
					"outputs": [
						{
							"internalType": "address",
							"name": "",
							"type": "address"
						}
					],
					"stateMutability": "view",
					"type": "function"
				},
				{
					"inputs": [],
					"name": "renounceOwnership",
					"outputs": [],
					"stateMutability": "nonpayable",
					"type": "function"
				},
				{
					"inputs": [
						{
							"internalType": "address",
							"name": "asset",
							"type": "address"
						}
					],
					"name": "startFlashLoan",
					"outputs": [],
					"stateMutability": "nonpayable",
					"type": "function"
				},
				{
					"inputs": [
						{
							"internalType": "address",
							"name": "newOwner",
							"type": "address"
						}
					],
					"name": "transferOwnership",
					"outputs": [],
					"stateMutability": "nonpayable",
					"type": "function"
				}
			],
			"devdoc": {
				"kind": "dev",
				"methods": {
					"executeOperation(address,uint256,uint256,address,bytes)": {
						"details": "Ensure that the contract can return the debt + premium, e.g., has      enough funds to repay and has approved the Pool to pull the total amount",
						"params": {
							"amount": "The amount of the flash-borrowed asset",
							"asset": "The address of the flash-borrowed asset",
							"initiator": "The address of the flashloan initiator",
							"params": "The byte-encoded params passed when initiating the flashloan",
							"premium": "The fee of the flash-borrowed asset"
						},
						"returns": {
							"_0": "True if the execution of the operation succeeds, false otherwise"
						}
					},
					"owner()": {
						"details": "Returns the address of the current owner."
					},
					"renounceOwnership()": {
						"details": "Leaves the contract without owner. It will not be possible to call `onlyOwner` functions anymore. Can only be called by the current owner. NOTE: Renouncing ownership will leave the contract without an owner, thereby removing any functionality that is only available to the owner."
					},
					"transferOwnership(address)": {
						"details": "Transfers ownership of the contract to a new account (`newOwner`). Can only be called by the current owner."
					}
				},
				"version": 1
			},
			"evm": {
				"assembly": "    /* \"contracts2/V3FlashLoan.sol\":358:1389  contract V3FlashLoan is FlashLoanSimpleReceiverBase, Ownable {... */\n  mstore(0x40, 0xc0)\n    /* \"contracts2/V3FlashLoan.sol\":426:510  constructor(IPoolAddressesProvider _address) FlashLoanSimpleReceiverBase(_address){} */\n  callvalue\n  dup1\n  iszero\n  tag_1\n  jumpi\n  0x00\n  dup1\n  revert\ntag_1:\n  pop\n  mload(0x40)\n  sub(codesize, bytecodeSize)\n  dup1\n  bytecodeSize\n  dup4\n  codecopy\n  dup2\n  dup2\n  add\n  0x40\n  mstore\n  dup2\n  add\n  swap1\n  tag_2\n  swap2\n  swap1\n  tag_3\n  jump\t// in\ntag_2:\n    /* \"contracts2/V3FlashLoan.sol\":499:507  _address */\n  dup1\n    /* \"contracts2/flashloan-lib/FlashLoanSimpleReceiverBase.sol\":648:656  provider */\n  dup1\n    /* \"contracts2/flashloan-lib/FlashLoanSimpleReceiverBase.sol\":627:656  ADDRESSES_PROVIDER = provider */\n  0xffffffffffffffffffffffffffffffffffffffff\n  and\n  0x80\n  dup2\n  0xffffffffffffffffffffffffffffffffffffffff\n  and\n  dup2\n  mstore\n  pop\n  pop\n    /* \"contracts2/flashloan-lib/FlashLoanSimpleReceiverBase.sol\":676:684  provider */\n  dup1\n    /* \"contracts2/flashloan-lib/FlashLoanSimpleReceiverBase.sol\":676:692  provider.getPool */\n  0xffffffffffffffffffffffffffffffffffffffff\n  and\n  0x026b1d5f\n    /* \"contracts2/flashloan-lib/FlashLoanSimpleReceiverBase.sol\":676:694  provider.getPool() */\n  mload(0x40)\n  dup2\n  0xffffffff\n  and\n  0xe0\n  shl\n  dup2\n  mstore\n  0x04\n  add\n  0x20\n  mload(0x40)\n  dup1\n  dup4\n  sub\n  dup2\n  dup7\n  gas\n  staticcall\n  iszero\n  dup1\n  iszero\n  tag_9\n  jumpi\n  returndatasize\n  0x00\n  dup1\n  returndatacopy\n  revert(0x00, returndatasize)\ntag_9:\n  pop\n  pop\n  pop\n  pop\n  mload(0x40)\n  returndatasize\n  not(0x1f)\n  0x1f\n  dup3\n  add\n  and\n  dup3\n  add\n  dup1\n  0x40\n  mstore\n  pop\n  dup2\n  add\n  swap1\n  tag_10\n  swap2\n  swap1\n  tag_11\n  jump\t// in\ntag_10:\n    /* \"contracts2/flashloan-lib/FlashLoanSimpleReceiverBase.sol\":663:695  POOL = IPool(provider.getPool()) */\n  0xffffffffffffffffffffffffffffffffffffffff\n  and\n  0xa0\n  dup2\n  0xffffffffffffffffffffffffffffffffffffffff\n  and\n  dup2\n  mstore\n  pop\n  pop\n    /* \"contracts2/flashloan-lib/FlashLoanSimpleReceiverBase.sol\":575:701  constructor(IPoolAddressesProvider provider) {... */\n  pop\n    /* \"@openzeppelin/contracts/access/Ownable.sol\":921:953  _transferOwnership(_msgSender()) */\n  tag_13\n    /* \"@openzeppelin/contracts/access/Ownable.sol\":940:952  _msgSender() */\n  tag_14\n    /* \"@openzeppelin/contracts/access/Ownable.sol\":940:950  _msgSender */\n  shl(0x20, tag_15)\n    /* \"@openzeppelin/contracts/access/Ownable.sol\":940:952  _msgSender() */\n  0x20\n  shr\n  jump\t// in\ntag_14:\n    /* \"@openzeppelin/contracts/access/Ownable.sol\":921:939  _transferOwnership */\n  shl(0x20, tag_16)\n    /* \"@openzeppelin/contracts/access/Ownable.sol\":921:953  _transferOwnership(_msgSender()) */\n  0x20\n  shr\n  jump\t// in\ntag_13:\n    /* \"contracts2/V3FlashLoan.sol\":426:510  constructor(IPoolAddressesProvider _address) FlashLoanSimpleReceiverBase(_address){} */\n  pop\n    /* \"contracts2/V3FlashLoan.sol\":358:1389  contract V3FlashLoan is FlashLoanSimpleReceiverBase, Ownable {... */\n  jump(tag_18)\n    /* \"@openzeppelin/contracts/utils/Context.sol\":640:736  function _msgSender() internal view virtual returns (address) {... */\ntag_15:\n    /* \"@openzeppelin/contracts/utils/Context.sol\":693:700  address */\n  0x00\n    /* \"@openzeppelin/contracts/utils/Context.sol\":719:729  msg.sender */\n  caller\n    /* \"@openzeppelin/contracts/utils/Context.sol\":712:729  return msg.sender */\n  swap1\n  pop\n    /* \"@openzeppelin/contracts/utils/Context.sol\":640:736  function _msgSender() internal view virtual returns (address) {... */\n  swap1\n  jump\t// out\n    /* \"@openzeppelin/contracts/access/Ownable.sol\":2270:2457  function _transferOwnership(address newOwner) internal virtual {... */\ntag_16:\n    /* \"@openzeppelin/contracts/access/Ownable.sol\":2343:2359  address oldOwner */\n  0x00\n    /* \"@openzeppelin/contracts/access/Ownable.sol\":2362:2368  _owner */\n  dup1\n  0x00\n  swap1\n  sload\n  swap1\n  0x0100\n  exp\n  swap1\n  div\n  0xffffffffffffffffffffffffffffffffffffffff\n  and\n    /* \"@openzeppelin/contracts/access/Ownable.sol\":2343:2368  address oldOwner = _owner */\n  swap1\n  pop\n    /* \"@openzeppelin/contracts/access/Ownable.sol\":2387:2395  newOwner */\n  dup2\n    /* \"@openzeppelin/contracts/access/Ownable.sol\":2378:2384  _owner */\n  0x00\n  dup1\n    /* \"@openzeppelin/contracts/access/Ownable.sol\":2378:2395  _owner = newOwner */\n  0x0100\n  exp\n  dup2\n  sload\n  dup2\n  0xffffffffffffffffffffffffffffffffffffffff\n  mul\n  not\n  and\n  swap1\n  dup4\n  0xffffffffffffffffffffffffffffffffffffffff\n  and\n  mul\n  or\n  swap1\n  sstore\n  pop\n    /* \"@openzeppelin/contracts/access/Ownable.sol\":2441:2449  newOwner */\n  dup2\n    /* \"@openzeppelin/contracts/access/Ownable.sol\":2410:2450  OwnershipTransferred(oldOwner, newOwner) */\n  0xffffffffffffffffffffffffffffffffffffffff\n  and\n    /* \"@openzeppelin/contracts/access/Ownable.sol\":2431:2439  oldOwner */\n  dup2\n    /* \"@openzeppelin/contracts/access/Ownable.sol\":2410:2450  OwnershipTransferred(oldOwner, newOwner) */\n  0xffffffffffffffffffffffffffffffffffffffff\n  and\n  0x8be0079c531659141344cd1fd0a4f28419497f9722a3daafe3b4186f6b6457e0\n  mload(0x40)\n  mload(0x40)\n  dup1\n  swap2\n  sub\n  swap1\n  log3\n    /* \"@openzeppelin/contracts/access/Ownable.sol\":2333:2457  {... */\n  pop\n    /* \"@openzeppelin/contracts/access/Ownable.sol\":2270:2457  function _transferOwnership(address newOwner) internal virtual {... */\n  pop\n  jump\t// out\n    /* \"#utility.yul\":88:205   */\ntag_22:\n    /* \"#utility.yul\":197:198   */\n  0x00\n    /* \"#utility.yul\":194:195   */\n  dup1\n    /* \"#utility.yul\":187:199   */\n  revert\n    /* \"#utility.yul\":334:460   */\ntag_24:\n    /* \"#utility.yul\":371:378   */\n  0x00\n    /* \"#utility.yul\":411:453   */\n  0xffffffffffffffffffffffffffffffffffffffff\n    /* \"#utility.yul\":404:409   */\n  dup3\n    /* \"#utility.yul\":400:454   */\n  and\n    /* \"#utility.yul\":389:454   */\n  swap1\n  pop\n    /* \"#utility.yul\":334:460   */\n  swap2\n  swap1\n  pop\n  jump\t// out\n    /* \"#utility.yul\":466:562   */\ntag_25:\n    /* \"#utility.yul\":503:510   */\n  0x00\n    /* \"#utility.yul\":532:556   */\n  tag_37\n    /* \"#utility.yul\":550:555   */\n  dup3\n    /* \"#utility.yul\":532:556   */\n  tag_24\n  jump\t// in\ntag_37:\n    /* \"#utility.yul\":521:556   */\n  swap1\n  pop\n    /* \"#utility.yul\":466:562   */\n  swap2\n  swap1\n  pop\n  jump\t// out\n    /* \"#utility.yul\":568:695   */\ntag_26:\n    /* \"#utility.yul\":636:643   */\n  0x00\n    /* \"#utility.yul\":665:689   */\n  tag_39\n    /* \"#utility.yul\":683:688   */\n  dup3\n    /* \"#utility.yul\":665:689   */\n  tag_25\n  jump\t// in\ntag_39:\n    /* \"#utility.yul\":654:689   */\n  swap1\n  pop\n    /* \"#utility.yul\":568:695   */\n  swap2\n  swap1\n  pop\n  jump\t// out\n    /* \"#utility.yul\":701:885   */\ntag_27:\n    /* \"#utility.yul\":805:860   */\n  tag_41\n    /* \"#utility.yul\":854:859   */\n  dup2\n    /* \"#utility.yul\":805:860   */\n  tag_26\n  jump\t// in\ntag_41:\n    /* \"#utility.yul\":798:803   */\n  dup2\n    /* \"#utility.yul\":795:861   */\n  eq\n    /* \"#utility.yul\":785:879   */\n  tag_42\n  jumpi\n    /* \"#utility.yul\":875:876   */\n  0x00\n    /* \"#utility.yul\":872:873   */\n  dup1\n    /* \"#utility.yul\":865:877   */\n  revert\n    /* \"#utility.yul\":785:879   */\ntag_42:\n    /* \"#utility.yul\":701:885   */\n  pop\n  jump\t// out\n    /* \"#utility.yul\":891:1096   */\ntag_28:\n    /* \"#utility.yul\":979:984   */\n  0x00\n    /* \"#utility.yul\":1010:1016   */\n  dup2\n    /* \"#utility.yul\":1004:1017   */\n  mload\n    /* \"#utility.yul\":995:1017   */\n  swap1\n  pop\n    /* \"#utility.yul\":1026:1090   */\n  tag_44\n    /* \"#utility.yul\":1084:1089   */\n  dup2\n    /* \"#utility.yul\":1026:1090   */\n  tag_27\n  jump\t// in\ntag_44:\n    /* \"#utility.yul\":891:1096   */\n  swap3\n  swap2\n  pop\n  pop\n  jump\t// out\n    /* \"#utility.yul\":1102:1515   */\ntag_3:\n    /* \"#utility.yul\":1203:1209   */\n  0x00\n    /* \"#utility.yul\":1252:1254   */\n  0x20\n    /* \"#utility.yul\":1240:1249   */\n  dup3\n    /* \"#utility.yul\":1231:1238   */\n  dup5\n    /* \"#utility.yul\":1227:1250   */\n  sub\n    /* \"#utility.yul\":1223:1255   */\n  slt\n    /* \"#utility.yul\":1220:1339   */\n  iszero\n  tag_46\n  jumpi\n    /* \"#utility.yul\":1258:1337   */\n  tag_47\n  tag_22\n  jump\t// in\ntag_47:\n    /* \"#utility.yul\":1220:1339   */\ntag_46:\n    /* \"#utility.yul\":1378:1379   */\n  0x00\n    /* \"#utility.yul\":1403:1498   */\n  tag_48\n    /* \"#utility.yul\":1490:1497   */\n  dup5\n    /* \"#utility.yul\":1481:1487   */\n  dup3\n    /* \"#utility.yul\":1470:1479   */\n  dup6\n    /* \"#utility.yul\":1466:1488   */\n  add\n    /* \"#utility.yul\":1403:1498   */\n  tag_28\n  jump\t// in\ntag_48:\n    /* \"#utility.yul\":1393:1498   */\n  swap2\n  pop\n    /* \"#utility.yul\":1349:1508   */\n  pop\n    /* \"#utility.yul\":1102:1515   */\n  swap3\n  swap2\n  pop\n  pop\n  jump\t// out\n    /* \"#utility.yul\":1521:1643   */\ntag_29:\n    /* \"#utility.yul\":1594:1618   */\n  tag_50\n    /* \"#utility.yul\":1612:1617   */\n  dup2\n    /* \"#utility.yul\":1594:1618   */\n  tag_25\n  jump\t// in\ntag_50:\n    /* \"#utility.yul\":1587:1592   */\n  dup2\n    /* \"#utility.yul\":1584:1619   */\n  eq\n    /* \"#utility.yul\":1574:1637   */\n  tag_51\n  jumpi\n    /* \"#utility.yul\":1633:1634   */\n  0x00\n    /* \"#utility.yul\":1630:1631   */\n  dup1\n    /* \"#utility.yul\":1623:1635   */\n  revert\n    /* \"#utility.yul\":1574:1637   */\ntag_51:\n    /* \"#utility.yul\":1521:1643   */\n  pop\n  jump\t// out\n    /* \"#utility.yul\":1649:1792   */\ntag_30:\n    /* \"#utility.yul\":1706:1711   */\n  0x00\n    /* \"#utility.yul\":1737:1743   */\n  dup2\n    /* \"#utility.yul\":1731:1744   */\n  mload\n    /* \"#utility.yul\":1722:1744   */\n  swap1\n  pop\n    /* \"#utility.yul\":1753:1786   */\n  tag_53\n    /* \"#utility.yul\":1780:1785   */\n  dup2\n    /* \"#utility.yul\":1753:1786   */\n  tag_29\n  jump\t// in\ntag_53:\n    /* \"#utility.yul\":1649:1792   */\n  swap3\n  swap2\n  pop\n  pop\n  jump\t// out\n    /* \"#utility.yul\":1798:2149   */\ntag_11:\n    /* \"#utility.yul\":1868:1874   */\n  0x00\n    /* \"#utility.yul\":1917:1919   */\n  0x20\n    /* \"#utility.yul\":1905:1914   */\n  dup3\n    /* \"#utility.yul\":1896:1903   */\n  dup5\n    /* \"#utility.yul\":1892:1915   */\n  sub\n    /* \"#utility.yul\":1888:1920   */\n  slt\n    /* \"#utility.yul\":1885:2004   */\n  iszero\n  tag_55\n  jumpi\n    /* \"#utility.yul\":1923:2002   */\n  tag_56\n  tag_22\n  jump\t// in\ntag_56:\n    /* \"#utility.yul\":1885:2004   */\ntag_55:\n    /* \"#utility.yul\":2043:2044   */\n  0x00\n    /* \"#utility.yul\":2068:2132   */\n  tag_57\n    /* \"#utility.yul\":2124:2131   */\n  dup5\n    /* \"#utility.yul\":2115:2121   */\n  dup3\n    /* \"#utility.yul\":2104:2113   */\n  dup6\n    /* \"#utility.yul\":2100:2122   */\n  add\n    /* \"#utility.yul\":2068:2132   */\n  tag_30\n  jump\t// in\ntag_57:\n    /* \"#utility.yul\":2058:2132   */\n  swap2\n  pop\n    /* \"#utility.yul\":2014:2142   */\n  pop\n    /* \"#utility.yul\":1798:2149   */\n  swap3\n  swap2\n  pop\n  pop\n  jump\t// out\n    /* \"contracts2/V3FlashLoan.sol\":358:1389  contract V3FlashLoan is FlashLoanSimpleReceiverBase, Ownable {... */\ntag_18:\n  mload(0x80)\n  mload(0xa0)\n  codecopy(0x00, dataOffset(sub_0), dataSize(sub_0))\n  0x00\n  assignImmutable(\"0xb54132232922229e38cc95c863488521e95e5e7a61a99a0c1f7114e9af332ed3\")\n  0x00\n  assignImmutable(\"0xe33a2803655a347f8c87303d18f719b022d89fa700b1d5e421bfcf316fdcc5f7\")\n  return(0x00, dataSize(sub_0))\nstop\n\nsub_0: assembly {\n        /* \"contracts2/V3FlashLoan.sol\":358:1389  contract V3FlashLoan is FlashLoanSimpleReceiverBase, Ownable {... */\n      mstore(0x40, 0x80)\n      callvalue\n      dup1\n      iszero\n      tag_1\n      jumpi\n      0x00\n      dup1\n      revert\n    tag_1:\n      pop\n      jumpi(tag_2, lt(calldatasize, 0x04))\n      shr(0xe0, calldataload(0x00))\n      dup1\n      0x715018a6\n      gt\n      tag_10\n      jumpi\n      dup1\n      0x715018a6\n      eq\n      tag_6\n      jumpi\n      dup1\n      0x7535d246\n      eq\n      tag_7\n      jumpi\n      dup1\n      0x8da5cb5b\n      eq\n      tag_8\n      jumpi\n      dup1\n      0xf2fde38b\n      eq\n      tag_9\n      jumpi\n      jump(tag_2)\n    tag_10:\n      dup1\n      0x0542975c\n      eq\n      tag_3\n      jumpi\n      dup1\n      0x1b11d0ff\n      eq\n      tag_4\n      jumpi\n      dup1\n      0x6bde9389\n      eq\n      tag_5\n      jumpi\n    tag_2:\n      0x00\n      dup1\n      revert\n        /* \"contracts2/flashloan-lib/FlashLoanSimpleReceiverBase.sol\":460:527  IPoolAddressesProvider public immutable override ADDRESSES_PROVIDER */\n    tag_3:\n      tag_11\n      tag_12\n      jump\t// in\n    tag_11:\n      mload(0x40)\n      tag_13\n      swap2\n      swap1\n      tag_14\n      jump\t// in\n    tag_13:\n      mload(0x40)\n      dup1\n      swap2\n      sub\n      swap1\n      return\n        /* \"contracts2/V3FlashLoan.sol\":518:880  function executeOperation(... */\n    tag_4:\n      tag_15\n      0x04\n      dup1\n      calldatasize\n      sub\n      dup2\n      add\n      swap1\n      tag_16\n      swap2\n      swap1\n      tag_17\n      jump\t// in\n    tag_16:\n      tag_18\n      jump\t// in\n    tag_15:\n      mload(0x40)\n      tag_19\n      swap2\n      swap1\n      tag_20\n      jump\t// in\n    tag_19:\n      mload(0x40)\n      dup1\n      swap2\n      sub\n      swap1\n      return\n        /* \"contracts2/V3FlashLoan.sol\":889:1384  function startFlashLoan(address asset) public onlyOwner {... */\n    tag_5:\n      tag_21\n      0x04\n      dup1\n      calldatasize\n      sub\n      dup2\n      add\n      swap1\n      tag_22\n      swap2\n      swap1\n      tag_23\n      jump\t// in\n    tag_22:\n      tag_24\n      jump\t// in\n    tag_21:\n      stop\n        /* \"@openzeppelin/contracts/access/Ownable.sol\":1668:1769  function renounceOwnership() public virtual onlyOwner {... */\n    tag_6:\n      tag_25\n      tag_26\n      jump\t// in\n    tag_25:\n      stop\n        /* \"contracts2/flashloan-lib/FlashLoanSimpleReceiverBase.sol\":532:568  IPool public immutable override POOL */\n    tag_7:\n      tag_27\n      tag_28\n      jump\t// in\n    tag_27:\n      mload(0x40)\n      tag_29\n      swap2\n      swap1\n      tag_30\n      jump\t// in\n    tag_29:\n      mload(0x40)\n      dup1\n      swap2\n      sub\n      swap1\n      return\n        /* \"@openzeppelin/contracts/access/Ownable.sol\":1036:1121  function owner() public view virtual returns (address) {... */\n    tag_8:\n      tag_31\n      tag_32\n      jump\t// in\n    tag_31:\n      mload(0x40)\n      tag_33\n      swap2\n      swap1\n      tag_34\n      jump\t// in\n    tag_33:\n      mload(0x40)\n      dup1\n      swap2\n      sub\n      swap1\n      return\n        /* \"@openzeppelin/contracts/access/Ownable.sol\":1918:2116  function transferOwnership(address newOwner) public virtual onlyOwner {... */\n    tag_9:\n      tag_35\n      0x04\n      dup1\n      calldatasize\n      sub\n      dup2\n      add\n      swap1\n      tag_36\n      swap2\n      swap1\n      tag_23\n      jump\t// in\n    tag_36:\n      tag_37\n      jump\t// in\n    tag_35:\n      stop\n        /* \"contracts2/flashloan-lib/FlashLoanSimpleReceiverBase.sol\":460:527  IPoolAddressesProvider public immutable override ADDRESSES_PROVIDER */\n    tag_12:\n      immutable(\"0xe33a2803655a347f8c87303d18f719b022d89fa700b1d5e421bfcf316fdcc5f7\")\n      dup2\n      jump\t// out\n        /* \"contracts2/V3FlashLoan.sol\":518:880  function executeOperation(... */\n    tag_18:\n        /* \"contracts2/V3FlashLoan.sol\":744:748  bool */\n      0x00\n        /* \"contracts2/V3FlashLoan.sol\":766:778  uint256 debt */\n      dup1\n        /* \"contracts2/V3FlashLoan.sol\":790:797  premium */\n      dup6\n        /* \"contracts2/V3FlashLoan.sol\":781:787  amount */\n      dup8\n        /* \"contracts2/V3FlashLoan.sol\":781:797  amount + premium */\n      tag_39\n      swap2\n      swap1\n      tag_40\n      jump\t// in\n    tag_39:\n        /* \"contracts2/V3FlashLoan.sol\":766:797  uint256 debt = amount + premium */\n      swap1\n      pop\n        /* \"contracts2/V3FlashLoan.sol\":815:820  asset */\n      dup8\n        /* \"contracts2/V3FlashLoan.sol\":808:829  IERC20(asset).approve */\n      0xffffffffffffffffffffffffffffffffffffffff\n      and\n      0x095ea7b3\n        /* \"contracts2/V3FlashLoan.sol\":838:842  POOL */\n      immutable(\"0xb54132232922229e38cc95c863488521e95e5e7a61a99a0c1f7114e9af332ed3\")\n        /* \"contracts2/V3FlashLoan.sol\":845:849  debt */\n      dup4\n        /* \"contracts2/V3FlashLoan.sol\":808:850  IERC20(asset).approve(address(POOL), debt) */\n      mload(0x40)\n      dup4\n      0xffffffff\n      and\n      0xe0\n      shl\n      dup2\n      mstore\n      0x04\n      add\n      tag_41\n      swap3\n      swap2\n      swap1\n      tag_42\n      jump\t// in\n    tag_41:\n      0x20\n      mload(0x40)\n      dup1\n      dup4\n      sub\n      dup2\n      0x00\n      dup8\n      gas\n      call\n      iszero\n      dup1\n      iszero\n      tag_44\n      jumpi\n      returndatasize\n      0x00\n      dup1\n      returndatacopy\n      revert(0x00, returndatasize)\n    tag_44:\n      pop\n      pop\n      pop\n      pop\n      mload(0x40)\n      returndatasize\n      not(0x1f)\n      0x1f\n      dup3\n      add\n      and\n      dup3\n      add\n      dup1\n      0x40\n      mstore\n      pop\n      dup2\n      add\n      swap1\n      tag_45\n      swap2\n      swap1\n      tag_46\n      jump\t// in\n    tag_45:\n      pop\n        /* \"contracts2/V3FlashLoan.sol\":868:872  true */\n      0x01\n        /* \"contracts2/V3FlashLoan.sol\":861:872  return true */\n      swap2\n      pop\n      pop\n        /* \"contracts2/V3FlashLoan.sol\":518:880  function executeOperation(... */\n      swap7\n      swap6\n      pop\n      pop\n      pop\n      pop\n      pop\n      pop\n      jump\t// out\n        /* \"contracts2/V3FlashLoan.sol\":889:1384  function startFlashLoan(address asset) public onlyOwner {... */\n    tag_24:\n        /* \"@openzeppelin/contracts/access/Ownable.sol\":1259:1271  _msgSender() */\n      tag_48\n        /* \"@openzeppelin/contracts/access/Ownable.sol\":1259:1269  _msgSender */\n      tag_49\n        /* \"@openzeppelin/contracts/access/Ownable.sol\":1259:1271  _msgSender() */\n      jump\t// in\n    tag_48:\n        /* \"@openzeppelin/contracts/access/Ownable.sol\":1248:1271  owner() == _msgSender() */\n      0xffffffffffffffffffffffffffffffffffffffff\n      and\n        /* \"@openzeppelin/contracts/access/Ownable.sol\":1248:1255  owner() */\n      tag_50\n        /* \"@openzeppelin/contracts/access/Ownable.sol\":1248:1253  owner */\n      tag_32\n        /* \"@openzeppelin/contracts/access/Ownable.sol\":1248:1255  owner() */\n      jump\t// in\n    tag_50:\n        /* \"@openzeppelin/contracts/access/Ownable.sol\":1248:1271  owner() == _msgSender() */\n      0xffffffffffffffffffffffffffffffffffffffff\n      and\n      eq\n        /* \"@openzeppelin/contracts/access/Ownable.sol\":1240:1308  require(owner() == _msgSender(), \"Ownable: caller is not the owner\") */\n      tag_51\n      jumpi\n      mload(0x40)\n      0x08c379a000000000000000000000000000000000000000000000000000000000\n      dup2\n      mstore\n      0x04\n      add\n      tag_52\n      swap1\n      tag_53\n      jump\t// in\n    tag_52:\n      mload(0x40)\n      dup1\n      swap2\n      sub\n      swap1\n      revert\n    tag_51:\n        /* \"contracts2/V3FlashLoan.sol\":956:972  address receiver */\n      0x00\n        /* \"contracts2/V3FlashLoan.sol\":983:987  this */\n      address\n        /* \"contracts2/V3FlashLoan.sol\":956:988  address receiver = address(this) */\n      swap1\n      pop\n        /* \"contracts2/V3FlashLoan.sol\":999:1012  address asset */\n      0x00\n        /* \"contracts2/V3FlashLoan.sol\":1023:1065  0x237f409fBD10E30e237d63d9050Ae302e339028E */\n      0x237f409fbd10e30e237d63d9050ae302e339028e\n        /* \"contracts2/V3FlashLoan.sol\":999:1066  address asset = address(0x237f409fBD10E30e237d63d9050Ae302e339028E) */\n      swap1\n      pop\n        /* \"contracts2/V3FlashLoan.sol\":1115:1129  uint256 amount */\n      0x00\n        /* \"contracts2/V3FlashLoan.sol\":1132:1147  100000 * 10**18 */\n      0x152d02c7e14af6800000\n        /* \"contracts2/V3FlashLoan.sol\":1115:1147  uint256 amount = 100000 * 10**18 */\n      swap1\n      pop\n        /* \"contracts2/V3FlashLoan.sol\":1160:1179  bytes memory params */\n      0x00\n        /* \"contracts2/V3FlashLoan.sol\":1160:1184  bytes memory params = \"\" */\n      mload(0x40)\n      dup1\n      0x20\n      add\n      0x40\n      mstore\n      dup1\n      0x00\n      dup2\n      mstore\n      pop\n      swap1\n      pop\n        /* \"contracts2/V3FlashLoan.sol\":1197:1216  uint16 referralCode */\n      0x00\n        /* \"contracts2/V3FlashLoan.sol\":1233:1237  POOL */\n      immutable(\"0xb54132232922229e38cc95c863488521e95e5e7a61a99a0c1f7114e9af332ed3\")\n        /* \"contracts2/V3FlashLoan.sol\":1233:1253  POOL.flashLoanSimple */\n      0xffffffffffffffffffffffffffffffffffffffff\n      and\n      0x42b0b77c\n        /* \"contracts2/V3FlashLoan.sol\":1268:1276  receiver */\n      dup7\n        /* \"contracts2/V3FlashLoan.sol\":1291:1296  asset */\n      dup7\n        /* \"contracts2/V3FlashLoan.sol\":1311:1317  amount */\n      dup7\n        /* \"contracts2/V3FlashLoan.sol\":1332:1338  params */\n      dup7\n        /* \"contracts2/V3FlashLoan.sol\":1353:1365  referralCode */\n      dup7\n        /* \"contracts2/V3FlashLoan.sol\":1233:1376  POOL.flashLoanSimple(... */\n      mload(0x40)\n      dup7\n      0xffffffff\n      and\n      0xe0\n      shl\n      dup2\n      mstore\n      0x04\n      add\n      tag_55\n      swap6\n      swap5\n      swap4\n      swap3\n      swap2\n      swap1\n      tag_56\n      jump\t// in\n    tag_55:\n      0x00\n      mload(0x40)\n      dup1\n      dup4\n      sub\n      dup2\n      0x00\n      dup8\n      dup1\n      extcodesize\n      iszero\n      dup1\n      iszero\n      tag_57\n      jumpi\n      0x00\n      dup1\n      revert\n    tag_57:\n      pop\n      gas\n      call\n      iszero\n      dup1\n      iszero\n      tag_59\n      jumpi\n      returndatasize\n      0x00\n      dup1\n      returndatacopy\n      revert(0x00, returndatasize)\n    tag_59:\n      pop\n      pop\n      pop\n      pop\n        /* \"contracts2/V3FlashLoan.sol\":945:1384  {... */\n      pop\n      pop\n      pop\n      pop\n      pop\n        /* \"contracts2/V3FlashLoan.sol\":889:1384  function startFlashLoan(address asset) public onlyOwner {... */\n      pop\n      jump\t// out\n        /* \"@openzeppelin/contracts/access/Ownable.sol\":1668:1769  function renounceOwnership() public virtual onlyOwner {... */\n    tag_26:\n        /* \"@openzeppelin/contracts/access/Ownable.sol\":1259:1271  _msgSender() */\n      tag_61\n        /* \"@openzeppelin/contracts/access/Ownable.sol\":1259:1269  _msgSender */\n      tag_49\n        /* \"@openzeppelin/contracts/access/Ownable.sol\":1259:1271  _msgSender() */\n      jump\t// in\n    tag_61:\n        /* \"@openzeppelin/contracts/access/Ownable.sol\":1248:1271  owner() == _msgSender() */\n      0xffffffffffffffffffffffffffffffffffffffff\n      and\n        /* \"@openzeppelin/contracts/access/Ownable.sol\":1248:1255  owner() */\n      tag_62\n        /* \"@openzeppelin/contracts/access/Ownable.sol\":1248:1253  owner */\n      tag_32\n        /* \"@openzeppelin/contracts/access/Ownable.sol\":1248:1255  owner() */\n      jump\t// in\n    tag_62:\n        /* \"@openzeppelin/contracts/access/Ownable.sol\":1248:1271  owner() == _msgSender() */\n      0xffffffffffffffffffffffffffffffffffffffff\n      and\n      eq\n        /* \"@openzeppelin/contracts/access/Ownable.sol\":1240:1308  require(owner() == _msgSender(), \"Ownable: caller is not the owner\") */\n      tag_63\n      jumpi\n      mload(0x40)\n      0x08c379a000000000000000000000000000000000000000000000000000000000\n      dup2\n      mstore\n      0x04\n      add\n      tag_64\n      swap1\n      tag_53\n      jump\t// in\n    tag_64:\n      mload(0x40)\n      dup1\n      swap2\n      sub\n      swap1\n      revert\n    tag_63:\n        /* \"@openzeppelin/contracts/access/Ownable.sol\":1732:1762  _transferOwnership(address(0)) */\n      tag_66\n        /* \"@openzeppelin/contracts/access/Ownable.sol\":1759:1760  0 */\n      0x00\n        /* \"@openzeppelin/contracts/access/Ownable.sol\":1732:1750  _transferOwnership */\n      tag_67\n        /* \"@openzeppelin/contracts/access/Ownable.sol\":1732:1762  _transferOwnership(address(0)) */\n      jump\t// in\n    tag_66:\n        /* \"@openzeppelin/contracts/access/Ownable.sol\":1668:1769  function renounceOwnership() public virtual onlyOwner {... */\n      jump\t// out\n        /* \"contracts2/flashloan-lib/FlashLoanSimpleReceiverBase.sol\":532:568  IPool public immutable override POOL */\n    tag_28:\n      immutable(\"0xb54132232922229e38cc95c863488521e95e5e7a61a99a0c1f7114e9af332ed3\")\n      dup2\n      jump\t// out\n        /* \"@openzeppelin/contracts/access/Ownable.sol\":1036:1121  function owner() public view virtual returns (address) {... */\n    tag_32:\n        /* \"@openzeppelin/contracts/access/Ownable.sol\":1082:1089  address */\n      0x00\n        /* \"@openzeppelin/contracts/access/Ownable.sol\":1108:1114  _owner */\n      dup1\n      0x00\n      swap1\n      sload\n      swap1\n      0x0100\n      exp\n      swap1\n      div\n      0xffffffffffffffffffffffffffffffffffffffff\n      and\n        /* \"@openzeppelin/contracts/access/Ownable.sol\":1101:1114  return _owner */\n      swap1\n      pop\n        /* \"@openzeppelin/contracts/access/Ownable.sol\":1036:1121  function owner() public view virtual returns (address) {... */\n      swap1\n      jump\t// out\n        /* \"@openzeppelin/contracts/access/Ownable.sol\":1918:2116  function transferOwnership(address newOwner) public virtual onlyOwner {... */\n    tag_37:\n        /* \"@openzeppelin/contracts/access/Ownable.sol\":1259:1271  _msgSender() */\n      tag_70\n        /* \"@openzeppelin/contracts/access/Ownable.sol\":1259:1269  _msgSender */\n      tag_49\n        /* \"@openzeppelin/contracts/access/Ownable.sol\":1259:1271  _msgSender() */\n      jump\t// in\n    tag_70:\n        /* \"@openzeppelin/contracts/access/Ownable.sol\":1248:1271  owner() == _msgSender() */\n      0xffffffffffffffffffffffffffffffffffffffff\n      and\n        /* \"@openzeppelin/contracts/access/Ownable.sol\":1248:1255  owner() */\n      tag_71\n        /* \"@openzeppelin/contracts/access/Ownable.sol\":1248:1253  owner */\n      tag_32\n        /* \"@openzeppelin/contracts/access/Ownable.sol\":1248:1255  owner() */\n      jump\t// in\n    tag_71:\n        /* \"@openzeppelin/contracts/access/Ownable.sol\":1248:1271  owner() == _msgSender() */\n      0xffffffffffffffffffffffffffffffffffffffff\n      and\n      eq\n        /* \"@openzeppelin/contracts/access/Ownable.sol\":1240:1308  require(owner() == _msgSender(), \"Ownable: caller is not the owner\") */\n      tag_72\n      jumpi\n      mload(0x40)\n      0x08c379a000000000000000000000000000000000000000000000000000000000\n      dup2\n      mstore\n      0x04\n      add\n      tag_73\n      swap1\n      tag_53\n      jump\t// in\n    tag_73:\n      mload(0x40)\n      dup1\n      swap2\n      sub\n      swap1\n      revert\n    tag_72:\n        /* \"@openzeppelin/contracts/access/Ownable.sol\":2026:2027  0 */\n      0x00\n        /* \"@openzeppelin/contracts/access/Ownable.sol\":2006:2028  newOwner != address(0) */\n      0xffffffffffffffffffffffffffffffffffffffff\n      and\n        /* \"@openzeppelin/contracts/access/Ownable.sol\":2006:2014  newOwner */\n      dup2\n        /* \"@openzeppelin/contracts/access/Ownable.sol\":2006:2028  newOwner != address(0) */\n      0xffffffffffffffffffffffffffffffffffffffff\n      and\n      eq\n      iszero\n        /* \"@openzeppelin/contracts/access/Ownable.sol\":1998:2071  require(newOwner != address(0), \"Ownable: new owner is the zero address\") */\n      tag_75\n      jumpi\n      mload(0x40)\n      0x08c379a000000000000000000000000000000000000000000000000000000000\n      dup2\n      mstore\n      0x04\n      add\n      tag_76\n      swap1\n      tag_77\n      jump\t// in\n    tag_76:\n      mload(0x40)\n      dup1\n      swap2\n      sub\n      swap1\n      revert\n    tag_75:\n        /* \"@openzeppelin/contracts/access/Ownable.sol\":2081:2109  _transferOwnership(newOwner) */\n      tag_78\n        /* \"@openzeppelin/contracts/access/Ownable.sol\":2100:2108  newOwner */\n      dup2\n        /* \"@openzeppelin/contracts/access/Ownable.sol\":2081:2099  _transferOwnership */\n      tag_67\n        /* \"@openzeppelin/contracts/access/Ownable.sol\":2081:2109  _transferOwnership(newOwner) */\n      jump\t// in\n    tag_78:\n        /* \"@openzeppelin/contracts/access/Ownable.sol\":1918:2116  function transferOwnership(address newOwner) public virtual onlyOwner {... */\n      pop\n      jump\t// out\n        /* \"@openzeppelin/contracts/utils/Context.sol\":640:736  function _msgSender() internal view virtual returns (address) {... */\n    tag_49:\n        /* \"@openzeppelin/contracts/utils/Context.sol\":693:700  address */\n      0x00\n        /* \"@openzeppelin/contracts/utils/Context.sol\":719:729  msg.sender */\n      caller\n        /* \"@openzeppelin/contracts/utils/Context.sol\":712:729  return msg.sender */\n      swap1\n      pop\n        /* \"@openzeppelin/contracts/utils/Context.sol\":640:736  function _msgSender() internal view virtual returns (address) {... */\n      swap1\n      jump\t// out\n        /* \"@openzeppelin/contracts/access/Ownable.sol\":2270:2457  function _transferOwnership(address newOwner) internal virtual {... */\n    tag_67:\n        /* \"@openzeppelin/contracts/access/Ownable.sol\":2343:2359  address oldOwner */\n      0x00\n        /* \"@openzeppelin/contracts/access/Ownable.sol\":2362:2368  _owner */\n      dup1\n      0x00\n      swap1\n      sload\n      swap1\n      0x0100\n      exp\n      swap1\n      div\n      0xffffffffffffffffffffffffffffffffffffffff\n      and\n        /* \"@openzeppelin/contracts/access/Ownable.sol\":2343:2368  address oldOwner = _owner */\n      swap1\n      pop\n        /* \"@openzeppelin/contracts/access/Ownable.sol\":2387:2395  newOwner */\n      dup2\n        /* \"@openzeppelin/contracts/access/Ownable.sol\":2378:2384  _owner */\n      0x00\n      dup1\n        /* \"@openzeppelin/contracts/access/Ownable.sol\":2378:2395  _owner = newOwner */\n      0x0100\n      exp\n      dup2\n      sload\n      dup2\n      0xffffffffffffffffffffffffffffffffffffffff\n      mul\n      not\n      and\n      swap1\n      dup4\n      0xffffffffffffffffffffffffffffffffffffffff\n      and\n      mul\n      or\n      swap1\n      sstore\n      pop\n        /* \"@openzeppelin/contracts/access/Ownable.sol\":2441:2449  newOwner */\n      dup2\n        /* \"@openzeppelin/contracts/access/Ownable.sol\":2410:2450  OwnershipTransferred(oldOwner, newOwner) */\n      0xffffffffffffffffffffffffffffffffffffffff\n      and\n        /* \"@openzeppelin/contracts/access/Ownable.sol\":2431:2439  oldOwner */\n      dup2\n        /* \"@openzeppelin/contracts/access/Ownable.sol\":2410:2450  OwnershipTransferred(oldOwner, newOwner) */\n      0xffffffffffffffffffffffffffffffffffffffff\n      and\n      0x8be0079c531659141344cd1fd0a4f28419497f9722a3daafe3b4186f6b6457e0\n      mload(0x40)\n      mload(0x40)\n      dup1\n      swap2\n      sub\n      swap1\n      log3\n        /* \"@openzeppelin/contracts/access/Ownable.sol\":2333:2457  {... */\n      pop\n        /* \"@openzeppelin/contracts/access/Ownable.sol\":2270:2457  function _transferOwnership(address newOwner) internal virtual {... */\n      pop\n      jump\t// out\n        /* \"#utility.yul\":7:133   */\n    tag_81:\n        /* \"#utility.yul\":44:51   */\n      0x00\n        /* \"#utility.yul\":84:126   */\n      0xffffffffffffffffffffffffffffffffffffffff\n        /* \"#utility.yul\":77:82   */\n      dup3\n        /* \"#utility.yul\":73:127   */\n      and\n        /* \"#utility.yul\":62:127   */\n      swap1\n      pop\n        /* \"#utility.yul\":7:133   */\n      swap2\n      swap1\n      pop\n      jump\t// out\n        /* \"#utility.yul\":139:199   */\n    tag_82:\n        /* \"#utility.yul\":167:170   */\n      0x00\n        /* \"#utility.yul\":188:193   */\n      dup2\n        /* \"#utility.yul\":181:193   */\n      swap1\n      pop\n        /* \"#utility.yul\":139:199   */\n      swap2\n      swap1\n      pop\n      jump\t// out\n        /* \"#utility.yul\":205:347   */\n    tag_83:\n        /* \"#utility.yul\":255:264   */\n      0x00\n        /* \"#utility.yul\":288:341   */\n      tag_125\n        /* \"#utility.yul\":306:340   */\n      tag_126\n        /* \"#utility.yul\":315:339   */\n      tag_127\n        /* \"#utility.yul\":333:338   */\n      dup5\n        /* \"#utility.yul\":315:339   */\n      tag_81\n      jump\t// in\n    tag_127:\n        /* \"#utility.yul\":306:340   */\n      tag_82\n      jump\t// in\n    tag_126:\n        /* \"#utility.yul\":288:341   */\n      tag_81\n      jump\t// in\n    tag_125:\n        /* \"#utility.yul\":275:341   */\n      swap1\n      pop\n        /* \"#utility.yul\":205:347   */\n      swap2\n      swap1\n      pop\n      jump\t// out\n        /* \"#utility.yul\":353:479   */\n    tag_84:\n        /* \"#utility.yul\":403:412   */\n      0x00\n        /* \"#utility.yul\":436:473   */\n      tag_129\n        /* \"#utility.yul\":467:472   */\n      dup3\n        /* \"#utility.yul\":436:473   */\n      tag_83\n      jump\t// in\n    tag_129:\n        /* \"#utility.yul\":423:473   */\n      swap1\n      pop\n        /* \"#utility.yul\":353:479   */\n      swap2\n      swap1\n      pop\n      jump\t// out\n        /* \"#utility.yul\":485:642   */\n    tag_85:\n        /* \"#utility.yul\":566:575   */\n      0x00\n        /* \"#utility.yul\":599:636   */\n      tag_131\n        /* \"#utility.yul\":630:635   */\n      dup3\n        /* \"#utility.yul\":599:636   */\n      tag_84\n      jump\t// in\n    tag_131:\n        /* \"#utility.yul\":586:636   */\n      swap1\n      pop\n        /* \"#utility.yul\":485:642   */\n      swap2\n      swap1\n      pop\n      jump\t// out\n        /* \"#utility.yul\":648:841   */\n    tag_86:\n        /* \"#utility.yul\":766:834   */\n      tag_133\n        /* \"#utility.yul\":828:833   */\n      dup2\n        /* \"#utility.yul\":766:834   */\n      tag_85\n      jump\t// in\n    tag_133:\n        /* \"#utility.yul\":761:764   */\n      dup3\n        /* \"#utility.yul\":754:835   */\n      mstore\n        /* \"#utility.yul\":648:841   */\n      pop\n      pop\n      jump\t// out\n        /* \"#utility.yul\":847:1131   */\n    tag_14:\n        /* \"#utility.yul\":971:975   */\n      0x00\n        /* \"#utility.yul\":1009:1011   */\n      0x20\n        /* \"#utility.yul\":998:1007   */\n      dup3\n        /* \"#utility.yul\":994:1012   */\n      add\n        /* \"#utility.yul\":986:1012   */\n      swap1\n      pop\n        /* \"#utility.yul\":1022:1124   */\n      tag_135\n        /* \"#utility.yul\":1121:1122   */\n      0x00\n        /* \"#utility.yul\":1110:1119   */\n      dup4\n        /* \"#utility.yul\":1106:1123   */\n      add\n        /* \"#utility.yul\":1097:1103   */\n      dup5\n        /* \"#utility.yul\":1022:1124   */\n      tag_86\n      jump\t// in\n    tag_135:\n        /* \"#utility.yul\":847:1131   */\n      swap3\n      swap2\n      pop\n      pop\n      jump\t// out\n        /* \"#utility.yul\":1218:1335   */\n    tag_88:\n        /* \"#utility.yul\":1327:1328   */\n      0x00\n        /* \"#utility.yul\":1324:1325   */\n      dup1\n        /* \"#utility.yul\":1317:1329   */\n      revert\n        /* \"#utility.yul\":1341:1458   */\n    tag_89:\n        /* \"#utility.yul\":1450:1451   */\n      0x00\n        /* \"#utility.yul\":1447:1448   */\n      dup1\n        /* \"#utility.yul\":1440:1452   */\n      revert\n        /* \"#utility.yul\":1464:1560   */\n    tag_90:\n        /* \"#utility.yul\":1501:1508   */\n      0x00\n        /* \"#utility.yul\":1530:1554   */\n      tag_140\n        /* \"#utility.yul\":1548:1553   */\n      dup3\n        /* \"#utility.yul\":1530:1554   */\n      tag_81\n      jump\t// in\n    tag_140:\n        /* \"#utility.yul\":1519:1554   */\n      swap1\n      pop\n        /* \"#utility.yul\":1464:1560   */\n      swap2\n      swap1\n      pop\n      jump\t// out\n        /* \"#utility.yul\":1566:1688   */\n    tag_91:\n        /* \"#utility.yul\":1639:1663   */\n      tag_142\n        /* \"#utility.yul\":1657:1662   */\n      dup2\n        /* \"#utility.yul\":1639:1663   */\n      tag_90\n      jump\t// in\n    tag_142:\n        /* \"#utility.yul\":1632:1637   */\n      dup2\n        /* \"#utility.yul\":1629:1664   */\n      eq\n        /* \"#utility.yul\":1619:1682   */\n      tag_143\n      jumpi\n        /* \"#utility.yul\":1678:1679   */\n      0x00\n        /* \"#utility.yul\":1675:1676   */\n      dup1\n        /* \"#utility.yul\":1668:1680   */\n      revert\n        /* \"#utility.yul\":1619:1682   */\n    tag_143:\n        /* \"#utility.yul\":1566:1688   */\n      pop\n      jump\t// out\n        /* \"#utility.yul\":1694:1833   */\n    tag_92:\n        /* \"#utility.yul\":1740:1745   */\n      0x00\n        /* \"#utility.yul\":1778:1784   */\n      dup2\n        /* \"#utility.yul\":1765:1785   */\n      calldataload\n        /* \"#utility.yul\":1756:1785   */\n      swap1\n      pop\n        /* \"#utility.yul\":1794:1827   */\n      tag_145\n        /* \"#utility.yul\":1821:1826   */\n      dup2\n        /* \"#utility.yul\":1794:1827   */\n      tag_91\n      jump\t// in\n    tag_145:\n        /* \"#utility.yul\":1694:1833   */\n      swap3\n      swap2\n      pop\n      pop\n      jump\t// out\n        /* \"#utility.yul\":1839:1916   */\n    tag_93:\n        /* \"#utility.yul\":1876:1883   */\n      0x00\n        /* \"#utility.yul\":1905:1910   */\n      dup2\n        /* \"#utility.yul\":1894:1910   */\n      swap1\n      pop\n        /* \"#utility.yul\":1839:1916   */\n      swap2\n      swap1\n      pop\n      jump\t// out\n        /* \"#utility.yul\":1922:2044   */\n    tag_94:\n        /* \"#utility.yul\":1995:2019   */\n      tag_148\n        /* \"#utility.yul\":2013:2018   */\n      dup2\n        /* \"#utility.yul\":1995:2019   */\n      tag_93\n      jump\t// in\n    tag_148:\n        /* \"#utility.yul\":1988:1993   */\n      dup2\n        /* \"#utility.yul\":1985:2020   */\n      eq\n        /* \"#utility.yul\":1975:2038   */\n      tag_149\n      jumpi\n        /* \"#utility.yul\":2034:2035   */\n      0x00\n        /* \"#utility.yul\":2031:2032   */\n      dup1\n        /* \"#utility.yul\":2024:2036   */\n      revert\n        /* \"#utility.yul\":1975:2038   */\n    tag_149:\n        /* \"#utility.yul\":1922:2044   */\n      pop\n      jump\t// out\n        /* \"#utility.yul\":2050:2189   */\n    tag_95:\n        /* \"#utility.yul\":2096:2101   */\n      0x00\n        /* \"#utility.yul\":2134:2140   */\n      dup2\n        /* \"#utility.yul\":2121:2141   */\n      calldataload\n        /* \"#utility.yul\":2112:2141   */\n      swap1\n      pop\n        /* \"#utility.yul\":2150:2183   */\n      tag_151\n        /* \"#utility.yul\":2177:2182   */\n      dup2\n        /* \"#utility.yul\":2150:2183   */\n      tag_94\n      jump\t// in\n    tag_151:\n        /* \"#utility.yul\":2050:2189   */\n      swap3\n      swap2\n      pop\n      pop\n      jump\t// out\n        /* \"#utility.yul\":2195:2312   */\n    tag_96:\n        /* \"#utility.yul\":2304:2305   */\n      0x00\n        /* \"#utility.yul\":2301:2302   */\n      dup1\n        /* \"#utility.yul\":2294:2306   */\n      revert\n        /* \"#utility.yul\":2318:2435   */\n    tag_97:\n        /* \"#utility.yul\":2427:2428   */\n      0x00\n        /* \"#utility.yul\":2424:2425   */\n      dup1\n        /* \"#utility.yul\":2417:2429   */\n      revert\n        /* \"#utility.yul\":2441:2558   */\n    tag_98:\n        /* \"#utility.yul\":2550:2551   */\n      0x00\n        /* \"#utility.yul\":2547:2548   */\n      dup1\n        /* \"#utility.yul\":2540:2552   */\n      revert\n        /* \"#utility.yul\":2577:3129   */\n    tag_99:\n        /* \"#utility.yul\":2634:2642   */\n      0x00\n        /* \"#utility.yul\":2644:2650   */\n      dup1\n        /* \"#utility.yul\":2694:2697   */\n      dup4\n        /* \"#utility.yul\":2687:2691   */\n      0x1f\n        /* \"#utility.yul\":2679:2685   */\n      dup5\n        /* \"#utility.yul\":2675:2692   */\n      add\n        /* \"#utility.yul\":2671:2698   */\n      slt\n        /* \"#utility.yul\":2661:2783   */\n      tag_156\n      jumpi\n        /* \"#utility.yul\":2702:2781   */\n      tag_157\n      tag_96\n      jump\t// in\n    tag_157:\n        /* \"#utility.yul\":2661:2783   */\n    tag_156:\n        /* \"#utility.yul\":2815:2821   */\n      dup3\n        /* \"#utility.yul\":2802:2822   */\n      calldataload\n        /* \"#utility.yul\":2792:2822   */\n      swap1\n      pop\n        /* \"#utility.yul\":2845:2863   */\n      0xffffffffffffffff\n        /* \"#utility.yul\":2837:2843   */\n      dup2\n        /* \"#utility.yul\":2834:2864   */\n      gt\n        /* \"#utility.yul\":2831:2948   */\n      iszero\n      tag_158\n      jumpi\n        /* \"#utility.yul\":2867:2946   */\n      tag_159\n      tag_97\n      jump\t// in\n    tag_159:\n        /* \"#utility.yul\":2831:2948   */\n    tag_158:\n        /* \"#utility.yul\":2981:2985   */\n      0x20\n        /* \"#utility.yul\":2973:2979   */\n      dup4\n        /* \"#utility.yul\":2969:2986   */\n      add\n        /* \"#utility.yul\":2957:2986   */\n      swap2\n      pop\n        /* \"#utility.yul\":3035:3038   */\n      dup4\n        /* \"#utility.yul\":3027:3031   */\n      0x01\n        /* \"#utility.yul\":3019:3025   */\n      dup3\n        /* \"#utility.yul\":3015:3032   */\n      mul\n        /* \"#utility.yul\":3005:3013   */\n      dup4\n        /* \"#utility.yul\":3001:3033   */\n      add\n        /* \"#utility.yul\":2998:3039   */\n      gt\n        /* \"#utility.yul\":2995:3123   */\n      iszero\n      tag_160\n      jumpi\n        /* \"#utility.yul\":3042:3121   */\n      tag_161\n      tag_98\n      jump\t// in\n    tag_161:\n        /* \"#utility.yul\":2995:3123   */\n    tag_160:\n        /* \"#utility.yul\":2577:3129   */\n      swap3\n      pop\n      swap3\n      swap1\n      pop\n      jump\t// out\n        /* \"#utility.yul\":3135:4244   */\n    tag_17:\n        /* \"#utility.yul\":3241:3247   */\n      0x00\n        /* \"#utility.yul\":3249:3255   */\n      dup1\n        /* \"#utility.yul\":3257:3263   */\n      0x00\n        /* \"#utility.yul\":3265:3271   */\n      dup1\n        /* \"#utility.yul\":3273:3279   */\n      0x00\n        /* \"#utility.yul\":3281:3287   */\n      dup1\n        /* \"#utility.yul\":3330:3333   */\n      0xa0\n        /* \"#utility.yul\":3318:3327   */\n      dup8\n        /* \"#utility.yul\":3309:3316   */\n      dup10\n        /* \"#utility.yul\":3305:3328   */\n      sub\n        /* \"#utility.yul\":3301:3334   */\n      slt\n        /* \"#utility.yul\":3298:3418   */\n      iszero\n      tag_163\n      jumpi\n        /* \"#utility.yul\":3337:3416   */\n      tag_164\n      tag_88\n      jump\t// in\n    tag_164:\n        /* \"#utility.yul\":3298:3418   */\n    tag_163:\n        /* \"#utility.yul\":3457:3458   */\n      0x00\n        /* \"#utility.yul\":3482:3535   */\n      tag_165\n        /* \"#utility.yul\":3527:3534   */\n      dup10\n        /* \"#utility.yul\":3518:3524   */\n      dup3\n        /* \"#utility.yul\":3507:3516   */\n      dup11\n        /* \"#utility.yul\":3503:3525   */\n      add\n        /* \"#utility.yul\":3482:3535   */\n      tag_92\n      jump\t// in\n    tag_165:\n        /* \"#utility.yul\":3472:3535   */\n      swap7\n      pop\n        /* \"#utility.yul\":3428:3545   */\n      pop\n        /* \"#utility.yul\":3584:3586   */\n      0x20\n        /* \"#utility.yul\":3610:3663   */\n      tag_166\n        /* \"#utility.yul\":3655:3662   */\n      dup10\n        /* \"#utility.yul\":3646:3652   */\n      dup3\n        /* \"#utility.yul\":3635:3644   */\n      dup11\n        /* \"#utility.yul\":3631:3653   */\n      add\n        /* \"#utility.yul\":3610:3663   */\n      tag_95\n      jump\t// in\n    tag_166:\n        /* \"#utility.yul\":3600:3663   */\n      swap6\n      pop\n        /* \"#utility.yul\":3555:3673   */\n      pop\n        /* \"#utility.yul\":3712:3714   */\n      0x40\n        /* \"#utility.yul\":3738:3791   */\n      tag_167\n        /* \"#utility.yul\":3783:3790   */\n      dup10\n        /* \"#utility.yul\":3774:3780   */\n      dup3\n        /* \"#utility.yul\":3763:3772   */\n      dup11\n        /* \"#utility.yul\":3759:3781   */\n      add\n        /* \"#utility.yul\":3738:3791   */\n      tag_95\n      jump\t// in\n    tag_167:\n        /* \"#utility.yul\":3728:3791   */\n      swap5\n      pop\n        /* \"#utility.yul\":3683:3801   */\n      pop\n        /* \"#utility.yul\":3840:3842   */\n      0x60\n        /* \"#utility.yul\":3866:3919   */\n      tag_168\n        /* \"#utility.yul\":3911:3918   */\n      dup10\n        /* \"#utility.yul\":3902:3908   */\n      dup3\n        /* \"#utility.yul\":3891:3900   */\n      dup11\n        /* \"#utility.yul\":3887:3909   */\n      add\n        /* \"#utility.yul\":3866:3919   */\n      tag_92\n      jump\t// in\n    tag_168:\n        /* \"#utility.yul\":3856:3919   */\n      swap4\n      pop\n        /* \"#utility.yul\":3811:3929   */\n      pop\n        /* \"#utility.yul\":3996:3999   */\n      0x80\n        /* \"#utility.yul\":3985:3994   */\n      dup8\n        /* \"#utility.yul\":3981:4000   */\n      add\n        /* \"#utility.yul\":3968:4001   */\n      calldataload\n        /* \"#utility.yul\":4028:4046   */\n      0xffffffffffffffff\n        /* \"#utility.yul\":4020:4026   */\n      dup2\n        /* \"#utility.yul\":4017:4047   */\n      gt\n        /* \"#utility.yul\":4014:4131   */\n      iszero\n      tag_169\n      jumpi\n        /* \"#utility.yul\":4050:4129   */\n      tag_170\n      tag_89\n      jump\t// in\n    tag_170:\n        /* \"#utility.yul\":4014:4131   */\n    tag_169:\n        /* \"#utility.yul\":4163:4227   */\n      tag_171\n        /* \"#utility.yul\":4219:4226   */\n      dup10\n        /* \"#utility.yul\":4210:4216   */\n      dup3\n        /* \"#utility.yul\":4199:4208   */\n      dup11\n        /* \"#utility.yul\":4195:4217   */\n      add\n        /* \"#utility.yul\":4163:4227   */\n      tag_99\n      jump\t// in\n    tag_171:\n        /* \"#utility.yul\":4145:4227   */\n      swap3\n      pop\n      swap3\n      pop\n        /* \"#utility.yul\":3939:4237   */\n      pop\n        /* \"#utility.yul\":3135:4244   */\n      swap3\n      swap6\n      pop\n      swap3\n      swap6\n      pop\n      swap3\n      swap6\n      jump\t// out\n        /* \"#utility.yul\":4250:4340   */\n    tag_100:\n        /* \"#utility.yul\":4284:4291   */\n      0x00\n        /* \"#utility.yul\":4327:4332   */\n      dup2\n        /* \"#utility.yul\":4320:4333   */\n      iszero\n        /* \"#utility.yul\":4313:4334   */\n      iszero\n        /* \"#utility.yul\":4302:4334   */\n      swap1\n      pop\n        /* \"#utility.yul\":4250:4340   */\n      swap2\n      swap1\n      pop\n      jump\t// out\n        /* \"#utility.yul\":4346:4455   */\n    tag_101:\n        /* \"#utility.yul\":4427:4448   */\n      tag_174\n        /* \"#utility.yul\":4442:4447   */\n      dup2\n        /* \"#utility.yul\":4427:4448   */\n      tag_100\n      jump\t// in\n    tag_174:\n        /* \"#utility.yul\":4422:4425   */\n      dup3\n        /* \"#utility.yul\":4415:4449   */\n      mstore\n        /* \"#utility.yul\":4346:4455   */\n      pop\n      pop\n      jump\t// out\n        /* \"#utility.yul\":4461:4671   */\n    tag_20:\n        /* \"#utility.yul\":4548:4552   */\n      0x00\n        /* \"#utility.yul\":4586:4588   */\n      0x20\n        /* \"#utility.yul\":4575:4584   */\n      dup3\n        /* \"#utility.yul\":4571:4589   */\n      add\n        /* \"#utility.yul\":4563:4589   */\n      swap1\n      pop\n        /* \"#utility.yul\":4599:4664   */\n      tag_176\n        /* \"#utility.yul\":4661:4662   */\n      0x00\n        /* \"#utility.yul\":4650:4659   */\n      dup4\n        /* \"#utility.yul\":4646:4663   */\n      add\n        /* \"#utility.yul\":4637:4643   */\n      dup5\n        /* \"#utility.yul\":4599:4664   */\n      tag_101\n      jump\t// in\n    tag_176:\n        /* \"#utility.yul\":4461:4671   */\n      swap3\n      swap2\n      pop\n      pop\n      jump\t// out\n        /* \"#utility.yul\":4677:5006   */\n    tag_23:\n        /* \"#utility.yul\":4736:4742   */\n      0x00\n        /* \"#utility.yul\":4785:4787   */\n      0x20\n        /* \"#utility.yul\":4773:4782   */\n      dup3\n        /* \"#utility.yul\":4764:4771   */\n      dup5\n        /* \"#utility.yul\":4760:4783   */\n      sub\n        /* \"#utility.yul\":4756:4788   */\n      slt\n        /* \"#utility.yul\":4753:4872   */\n      iszero\n      tag_178\n      jumpi\n        /* \"#utility.yul\":4791:4870   */\n      tag_179\n      tag_88\n      jump\t// in\n    tag_179:\n        /* \"#utility.yul\":4753:4872   */\n    tag_178:\n        /* \"#utility.yul\":4911:4912   */\n      0x00\n        /* \"#utility.yul\":4936:4989   */\n      tag_180\n        /* \"#utility.yul\":4981:4988   */\n      dup5\n        /* \"#utility.yul\":4972:4978   */\n      dup3\n        /* \"#utility.yul\":4961:4970   */\n      dup6\n        /* \"#utility.yul\":4957:4979   */\n      add\n        /* \"#utility.yul\":4936:4989   */\n      tag_92\n      jump\t// in\n    tag_180:\n        /* \"#utility.yul\":4926:4989   */\n      swap2\n      pop\n        /* \"#utility.yul\":4882:4999   */\n      pop\n        /* \"#utility.yul\":4677:5006   */\n      swap3\n      swap2\n      pop\n      pop\n      jump\t// out\n        /* \"#utility.yul\":5012:5152   */\n    tag_102:\n        /* \"#utility.yul\":5076:5085   */\n      0x00\n        /* \"#utility.yul\":5109:5146   */\n      tag_182\n        /* \"#utility.yul\":5140:5145   */\n      dup3\n        /* \"#utility.yul\":5109:5146   */\n      tag_84\n      jump\t// in\n    tag_182:\n        /* \"#utility.yul\":5096:5146   */\n      swap1\n      pop\n        /* \"#utility.yul\":5012:5152   */\n      swap2\n      swap1\n      pop\n      jump\t// out\n        /* \"#utility.yul\":5158:5317   */\n    tag_103:\n        /* \"#utility.yul\":5259:5310   */\n      tag_184\n        /* \"#utility.yul\":5304:5309   */\n      dup2\n        /* \"#utility.yul\":5259:5310   */\n      tag_102\n      jump\t// in\n    tag_184:\n        /* \"#utility.yul\":5254:5257   */\n      dup3\n        /* \"#utility.yul\":5247:5311   */\n      mstore\n        /* \"#utility.yul\":5158:5317   */\n      pop\n      pop\n      jump\t// out\n        /* \"#utility.yul\":5323:5573   */\n    tag_30:\n        /* \"#utility.yul\":5430:5434   */\n      0x00\n        /* \"#utility.yul\":5468:5470   */\n      0x20\n        /* \"#utility.yul\":5457:5466   */\n      dup3\n        /* \"#utility.yul\":5453:5471   */\n      add\n        /* \"#utility.yul\":5445:5471   */\n      swap1\n      pop\n        /* \"#utility.yul\":5481:5566   */\n      tag_186\n        /* \"#utility.yul\":5563:5564   */\n      0x00\n        /* \"#utility.yul\":5552:5561   */\n      dup4\n        /* \"#utility.yul\":5548:5565   */\n      add\n        /* \"#utility.yul\":5539:5545   */\n      dup5\n        /* \"#utility.yul\":5481:5566   */\n      tag_103\n      jump\t// in\n    tag_186:\n        /* \"#utility.yul\":5323:5573   */\n      swap3\n      swap2\n      pop\n      pop\n      jump\t// out\n        /* \"#utility.yul\":5579:5697   */\n    tag_104:\n        /* \"#utility.yul\":5666:5690   */\n      tag_188\n        /* \"#utility.yul\":5684:5689   */\n      dup2\n        /* \"#utility.yul\":5666:5690   */\n      tag_90\n      jump\t// in\n    tag_188:\n        /* \"#utility.yul\":5661:5664   */\n      dup3\n        /* \"#utility.yul\":5654:5691   */\n      mstore\n        /* \"#utility.yul\":5579:5697   */\n      pop\n      pop\n      jump\t// out\n        /* \"#utility.yul\":5703:5925   */\n    tag_34:\n        /* \"#utility.yul\":5796:5800   */\n      0x00\n        /* \"#utility.yul\":5834:5836   */\n      0x20\n        /* \"#utility.yul\":5823:5832   */\n      dup3\n        /* \"#utility.yul\":5819:5837   */\n      add\n        /* \"#utility.yul\":5811:5837   */\n      swap1\n      pop\n        /* \"#utility.yul\":5847:5918   */\n      tag_190\n        /* \"#utility.yul\":5915:5916   */\n      0x00\n        /* \"#utility.yul\":5904:5913   */\n      dup4\n        /* \"#utility.yul\":5900:5917   */\n      add\n        /* \"#utility.yul\":5891:5897   */\n      dup5\n        /* \"#utility.yul\":5847:5918   */\n      tag_104\n      jump\t// in\n    tag_190:\n        /* \"#utility.yul\":5703:5925   */\n      swap3\n      swap2\n      pop\n      pop\n      jump\t// out\n        /* \"#utility.yul\":5931:6111   */\n    tag_105:\n        /* \"#utility.yul\":5979:6056   */\n      0x4e487b7100000000000000000000000000000000000000000000000000000000\n        /* \"#utility.yul\":5976:5977   */\n      0x00\n        /* \"#utility.yul\":5969:6057   */\n      mstore\n        /* \"#utility.yul\":6076:6080   */\n      0x11\n        /* \"#utility.yul\":6073:6074   */\n      0x04\n        /* \"#utility.yul\":6066:6081   */\n      mstore\n        /* \"#utility.yul\":6100:6104   */\n      0x24\n        /* \"#utility.yul\":6097:6098   */\n      0x00\n        /* \"#utility.yul\":6090:6105   */\n      revert\n        /* \"#utility.yul\":6117:6422   */\n    tag_40:\n        /* \"#utility.yul\":6157:6160   */\n      0x00\n        /* \"#utility.yul\":6176:6196   */\n      tag_193\n        /* \"#utility.yul\":6194:6195   */\n      dup3\n        /* \"#utility.yul\":6176:6196   */\n      tag_93\n      jump\t// in\n    tag_193:\n        /* \"#utility.yul\":6171:6196   */\n      swap2\n      pop\n        /* \"#utility.yul\":6210:6230   */\n      tag_194\n        /* \"#utility.yul\":6228:6229   */\n      dup4\n        /* \"#utility.yul\":6210:6230   */\n      tag_93\n      jump\t// in\n    tag_194:\n        /* \"#utility.yul\":6205:6230   */\n      swap3\n      pop\n        /* \"#utility.yul\":6364:6365   */\n      dup3\n        /* \"#utility.yul\":6296:6362   */\n      0xffffffffffffffffffffffffffffffffffffffffffffffffffffffffffffffff\n        /* \"#utility.yul\":6292:6366   */\n      sub\n        /* \"#utility.yul\":6289:6290   */\n      dup3\n        /* \"#utility.yul\":6286:6367   */\n      gt\n        /* \"#utility.yul\":6283:6390   */\n      iszero\n      tag_195\n      jumpi\n        /* \"#utility.yul\":6370:6388   */\n      tag_196\n      tag_105\n      jump\t// in\n    tag_196:\n        /* \"#utility.yul\":6283:6390   */\n    tag_195:\n        /* \"#utility.yul\":6414:6415   */\n      dup3\n        /* \"#utility.yul\":6411:6412   */\n      dup3\n        /* \"#utility.yul\":6407:6416   */\n      add\n        /* \"#utility.yul\":6400:6416   */\n      swap1\n      pop\n        /* \"#utility.yul\":6117:6422   */\n      swap3\n      swap2\n      pop\n      pop\n      jump\t// out\n        /* \"#utility.yul\":6428:6546   */\n    tag_106:\n        /* \"#utility.yul\":6515:6539   */\n      tag_198\n        /* \"#utility.yul\":6533:6538   */\n      dup2\n        /* \"#utility.yul\":6515:6539   */\n      tag_93\n      jump\t// in\n    tag_198:\n        /* \"#utility.yul\":6510:6513   */\n      dup3\n        /* \"#utility.yul\":6503:6540   */\n      mstore\n        /* \"#utility.yul\":6428:6546   */\n      pop\n      pop\n      jump\t// out\n        /* \"#utility.yul\":6552:6884   */\n    tag_42:\n        /* \"#utility.yul\":6673:6677   */\n      0x00\n        /* \"#utility.yul\":6711:6713   */\n      0x40\n        /* \"#utility.yul\":6700:6709   */\n      dup3\n        /* \"#utility.yul\":6696:6714   */\n      add\n        /* \"#utility.yul\":6688:6714   */\n      swap1\n      pop\n        /* \"#utility.yul\":6724:6795   */\n      tag_200\n        /* \"#utility.yul\":6792:6793   */\n      0x00\n        /* \"#utility.yul\":6781:6790   */\n      dup4\n        /* \"#utility.yul\":6777:6794   */\n      add\n        /* \"#utility.yul\":6768:6774   */\n      dup6\n        /* \"#utility.yul\":6724:6795   */\n      tag_104\n      jump\t// in\n    tag_200:\n        /* \"#utility.yul\":6805:6877   */\n      tag_201\n        /* \"#utility.yul\":6873:6875   */\n      0x20\n        /* \"#utility.yul\":6862:6871   */\n      dup4\n        /* \"#utility.yul\":6858:6876   */\n      add\n        /* \"#utility.yul\":6849:6855   */\n      dup5\n        /* \"#utility.yul\":6805:6877   */\n      tag_106\n      jump\t// in\n    tag_201:\n        /* \"#utility.yul\":6552:6884   */\n      swap4\n      swap3\n      pop\n      pop\n      pop\n      jump\t// out\n        /* \"#utility.yul\":6890:7006   */\n    tag_107:\n        /* \"#utility.yul\":6960:6981   */\n      tag_203\n        /* \"#utility.yul\":6975:6980   */\n      dup2\n        /* \"#utility.yul\":6960:6981   */\n      tag_100\n      jump\t// in\n    tag_203:\n        /* \"#utility.yul\":6953:6958   */\n      dup2\n        /* \"#utility.yul\":6950:6982   */\n      eq\n        /* \"#utility.yul\":6940:7000   */\n      tag_204\n      jumpi\n        /* \"#utility.yul\":6996:6997   */\n      0x00\n        /* \"#utility.yul\":6993:6994   */\n      dup1\n        /* \"#utility.yul\":6986:6998   */\n      revert\n        /* \"#utility.yul\":6940:7000   */\n    tag_204:\n        /* \"#utility.yul\":6890:7006   */\n      pop\n      jump\t// out\n        /* \"#utility.yul\":7012:7149   */\n    tag_108:\n        /* \"#utility.yul\":7066:7071   */\n      0x00\n        /* \"#utility.yul\":7097:7103   */\n      dup2\n        /* \"#utility.yul\":7091:7104   */\n      mload\n        /* \"#utility.yul\":7082:7104   */\n      swap1\n      pop\n        /* \"#utility.yul\":7113:7143   */\n      tag_206\n        /* \"#utility.yul\":7137:7142   */\n      dup2\n        /* \"#utility.yul\":7113:7143   */\n      tag_107\n      jump\t// in\n    tag_206:\n        /* \"#utility.yul\":7012:7149   */\n      swap3\n      swap2\n      pop\n      pop\n      jump\t// out\n        /* \"#utility.yul\":7155:7500   */\n    tag_46:\n        /* \"#utility.yul\":7222:7228   */\n      0x00\n        /* \"#utility.yul\":7271:7273   */\n      0x20\n        /* \"#utility.yul\":7259:7268   */\n      dup3\n        /* \"#utility.yul\":7250:7257   */\n      dup5\n        /* \"#utility.yul\":7246:7269   */\n      sub\n        /* \"#utility.yul\":7242:7274   */\n      slt\n        /* \"#utility.yul\":7239:7358   */\n      iszero\n      tag_208\n      jumpi\n        /* \"#utility.yul\":7277:7356   */\n      tag_209\n      tag_88\n      jump\t// in\n    tag_209:\n        /* \"#utility.yul\":7239:7358   */\n    tag_208:\n        /* \"#utility.yul\":7397:7398   */\n      0x00\n        /* \"#utility.yul\":7422:7483   */\n      tag_210\n        /* \"#utility.yul\":7475:7482   */\n      dup5\n        /* \"#utility.yul\":7466:7472   */\n      dup3\n        /* \"#utility.yul\":7455:7464   */\n      dup6\n        /* \"#utility.yul\":7451:7473   */\n      add\n        /* \"#utility.yul\":7422:7483   */\n      tag_108\n      jump\t// in\n    tag_210:\n        /* \"#utility.yul\":7412:7483   */\n      swap2\n      pop\n        /* \"#utility.yul\":7368:7493   */\n      pop\n        /* \"#utility.yul\":7155:7500   */\n      swap3\n      swap2\n      pop\n      pop\n      jump\t// out\n        /* \"#utility.yul\":7506:7675   */\n    tag_109:\n        /* \"#utility.yul\":7590:7601   */\n      0x00\n        /* \"#utility.yul\":7624:7630   */\n      dup3\n        /* \"#utility.yul\":7619:7622   */\n      dup3\n        /* \"#utility.yul\":7612:7631   */\n      mstore\n        /* \"#utility.yul\":7664:7668   */\n      0x20\n        /* \"#utility.yul\":7659:7662   */\n      dup3\n        /* \"#utility.yul\":7655:7669   */\n      add\n        /* \"#utility.yul\":7640:7669   */\n      swap1\n      pop\n        /* \"#utility.yul\":7506:7675   */\n      swap3\n      swap2\n      pop\n      pop\n      jump\t// out\n        /* \"#utility.yul\":7681:7863   */\n    tag_110:\n        /* \"#utility.yul\":7821:7855   */\n      0x4f776e61626c653a2063616c6c6572206973206e6f7420746865206f776e6572\n        /* \"#utility.yul\":7817:7818   */\n      0x00\n        /* \"#utility.yul\":7809:7815   */\n      dup3\n        /* \"#utility.yul\":7805:7819   */\n      add\n        /* \"#utility.yul\":7798:7856   */\n      mstore\n        /* \"#utility.yul\":7681:7863   */\n      pop\n      jump\t// out\n        /* \"#utility.yul\":7869:8235   */\n    tag_111:\n        /* \"#utility.yul\":8011:8014   */\n      0x00\n        /* \"#utility.yul\":8032:8099   */\n      tag_214\n        /* \"#utility.yul\":8096:8098   */\n      0x20\n        /* \"#utility.yul\":8091:8094   */\n      dup4\n        /* \"#utility.yul\":8032:8099   */\n      tag_109\n      jump\t// in\n    tag_214:\n        /* \"#utility.yul\":8025:8099   */\n      swap2\n      pop\n        /* \"#utility.yul\":8108:8201   */\n      tag_215\n        /* \"#utility.yul\":8197:8200   */\n      dup3\n        /* \"#utility.yul\":8108:8201   */\n      tag_110\n      jump\t// in\n    tag_215:\n        /* \"#utility.yul\":8226:8228   */\n      0x20\n        /* \"#utility.yul\":8221:8224   */\n      dup3\n        /* \"#utility.yul\":8217:8229   */\n      add\n        /* \"#utility.yul\":8210:8229   */\n      swap1\n      pop\n        /* \"#utility.yul\":7869:8235   */\n      swap2\n      swap1\n      pop\n      jump\t// out\n        /* \"#utility.yul\":8241:8660   */\n    tag_53:\n        /* \"#utility.yul\":8407:8411   */\n      0x00\n        /* \"#utility.yul\":8445:8447   */\n      0x20\n        /* \"#utility.yul\":8434:8443   */\n      dup3\n        /* \"#utility.yul\":8430:8448   */\n      add\n        /* \"#utility.yul\":8422:8448   */\n      swap1\n      pop\n        /* \"#utility.yul\":8494:8503   */\n      dup2\n        /* \"#utility.yul\":8488:8492   */\n      dup2\n        /* \"#utility.yul\":8484:8504   */\n      sub\n        /* \"#utility.yul\":8480:8481   */\n      0x00\n        /* \"#utility.yul\":8469:8478   */\n      dup4\n        /* \"#utility.yul\":8465:8482   */\n      add\n        /* \"#utility.yul\":8458:8505   */\n      mstore\n        /* \"#utility.yul\":8522:8653   */\n      tag_217\n        /* \"#utility.yul\":8648:8652   */\n      dup2\n        /* \"#utility.yul\":8522:8653   */\n      tag_111\n      jump\t// in\n    tag_217:\n        /* \"#utility.yul\":8514:8653   */\n      swap1\n      pop\n        /* \"#utility.yul\":8241:8660   */\n      swap2\n      swap1\n      pop\n      jump\t// out\n        /* \"#utility.yul\":8666:8764   */\n    tag_112:\n        /* \"#utility.yul\":8717:8723   */\n      0x00\n        /* \"#utility.yul\":8751:8756   */\n      dup2\n        /* \"#utility.yul\":8745:8757   */\n      mload\n        /* \"#utility.yul\":8735:8757   */\n      swap1\n      pop\n        /* \"#utility.yul\":8666:8764   */\n      swap2\n      swap1\n      pop\n      jump\t// out\n        /* \"#utility.yul\":8770:8938   */\n    tag_113:\n        /* \"#utility.yul\":8853:8864   */\n      0x00\n        /* \"#utility.yul\":8887:8893   */\n      dup3\n        /* \"#utility.yul\":8882:8885   */\n      dup3\n        /* \"#utility.yul\":8875:8894   */\n      mstore\n        /* \"#utility.yul\":8927:8931   */\n      0x20\n        /* \"#utility.yul\":8922:8925   */\n      dup3\n        /* \"#utility.yul\":8918:8932   */\n      add\n        /* \"#utility.yul\":8903:8932   */\n      swap1\n      pop\n        /* \"#utility.yul\":8770:8938   */\n      swap3\n      swap2\n      pop\n      pop\n      jump\t// out\n        /* \"#utility.yul\":8944:9251   */\n    tag_114:\n        /* \"#utility.yul\":9012:9013   */\n      0x00\n        /* \"#utility.yul\":9022:9135   */\n    tag_221:\n        /* \"#utility.yul\":9036:9042   */\n      dup4\n        /* \"#utility.yul\":9033:9034   */\n      dup2\n        /* \"#utility.yul\":9030:9043   */\n      lt\n        /* \"#utility.yul\":9022:9135   */\n      iszero\n      tag_223\n      jumpi\n        /* \"#utility.yul\":9121:9122   */\n      dup1\n        /* \"#utility.yul\":9116:9119   */\n      dup3\n        /* \"#utility.yul\":9112:9123   */\n      add\n        /* \"#utility.yul\":9106:9124   */\n      mload\n        /* \"#utility.yul\":9102:9103   */\n      dup2\n        /* \"#utility.yul\":9097:9100   */\n      dup5\n        /* \"#utility.yul\":9093:9104   */\n      add\n        /* \"#utility.yul\":9086:9125   */\n      mstore\n        /* \"#utility.yul\":9058:9060   */\n      0x20\n        /* \"#utility.yul\":9055:9056   */\n      dup2\n        /* \"#utility.yul\":9051:9061   */\n      add\n        /* \"#utility.yul\":9046:9061   */\n      swap1\n      pop\n        /* \"#utility.yul\":9022:9135   */\n      jump(tag_221)\n    tag_223:\n        /* \"#utility.yul\":9153:9159   */\n      dup4\n        /* \"#utility.yul\":9150:9151   */\n      dup2\n        /* \"#utility.yul\":9147:9160   */\n      gt\n        /* \"#utility.yul\":9144:9245   */\n      iszero\n      tag_224\n      jumpi\n        /* \"#utility.yul\":9233:9234   */\n      0x00\n        /* \"#utility.yul\":9224:9230   */\n      dup5\n        /* \"#utility.yul\":9219:9222   */\n      dup5\n        /* \"#utility.yul\":9215:9231   */\n      add\n        /* \"#utility.yul\":9208:9235   */\n      mstore\n        /* \"#utility.yul\":9144:9245   */\n    tag_224:\n        /* \"#utility.yul\":8993:9251   */\n      pop\n        /* \"#utility.yul\":8944:9251   */\n      pop\n      pop\n      pop\n      jump\t// out\n        /* \"#utility.yul\":9257:9359   */\n    tag_115:\n        /* \"#utility.yul\":9298:9304   */\n      0x00\n        /* \"#utility.yul\":9349:9351   */\n      0x1f\n        /* \"#utility.yul\":9345:9352   */\n      not\n        /* \"#utility.yul\":9340:9342   */\n      0x1f\n        /* \"#utility.yul\":9333:9338   */\n      dup4\n        /* \"#utility.yul\":9329:9343   */\n      add\n        /* \"#utility.yul\":9325:9353   */\n      and\n        /* \"#utility.yul\":9315:9353   */\n      swap1\n      pop\n        /* \"#utility.yul\":9257:9359   */\n      swap2\n      swap1\n      pop\n      jump\t// out\n        /* \"#utility.yul\":9365:9725   */\n    tag_116:\n        /* \"#utility.yul\":9451:9454   */\n      0x00\n        /* \"#utility.yul\":9479:9517   */\n      tag_227\n        /* \"#utility.yul\":9511:9516   */\n      dup3\n        /* \"#utility.yul\":9479:9517   */\n      tag_112\n      jump\t// in\n    tag_227:\n        /* \"#utility.yul\":9533:9603   */\n      tag_228\n        /* \"#utility.yul\":9596:9602   */\n      dup2\n        /* \"#utility.yul\":9591:9594   */\n      dup6\n        /* \"#utility.yul\":9533:9603   */\n      tag_113\n      jump\t// in\n    tag_228:\n        /* \"#utility.yul\":9526:9603   */\n      swap4\n      pop\n        /* \"#utility.yul\":9612:9664   */\n      tag_229\n        /* \"#utility.yul\":9657:9663   */\n      dup2\n        /* \"#utility.yul\":9652:9655   */\n      dup6\n        /* \"#utility.yul\":9645:9649   */\n      0x20\n        /* \"#utility.yul\":9638:9643   */\n      dup7\n        /* \"#utility.yul\":9634:9650   */\n      add\n        /* \"#utility.yul\":9612:9664   */\n      tag_114\n      jump\t// in\n    tag_229:\n        /* \"#utility.yul\":9689:9718   */\n      tag_230\n        /* \"#utility.yul\":9711:9717   */\n      dup2\n        /* \"#utility.yul\":9689:9718   */\n      tag_115\n      jump\t// in\n    tag_230:\n        /* \"#utility.yul\":9684:9687   */\n      dup5\n        /* \"#utility.yul\":9680:9719   */\n      add\n        /* \"#utility.yul\":9673:9719   */\n      swap2\n      pop\n        /* \"#utility.yul\":9455:9725   */\n      pop\n        /* \"#utility.yul\":9365:9725   */\n      swap3\n      swap2\n      pop\n      pop\n      jump\t// out\n        /* \"#utility.yul\":9731:9820   */\n    tag_117:\n        /* \"#utility.yul\":9767:9774   */\n      0x00\n        /* \"#utility.yul\":9807:9813   */\n      0xffff\n        /* \"#utility.yul\":9800:9805   */\n      dup3\n        /* \"#utility.yul\":9796:9814   */\n      and\n        /* \"#utility.yul\":9785:9814   */\n      swap1\n      pop\n        /* \"#utility.yul\":9731:9820   */\n      swap2\n      swap1\n      pop\n      jump\t// out\n        /* \"#utility.yul\":9826:9941   */\n    tag_118:\n        /* \"#utility.yul\":9911:9934   */\n      tag_233\n        /* \"#utility.yul\":9928:9933   */\n      dup2\n        /* \"#utility.yul\":9911:9934   */\n      tag_117\n      jump\t// in\n    tag_233:\n        /* \"#utility.yul\":9906:9909   */\n      dup3\n        /* \"#utility.yul\":9899:9935   */\n      mstore\n        /* \"#utility.yul\":9826:9941   */\n      pop\n      pop\n      jump\t// out\n        /* \"#utility.yul\":9947:10694   */\n    tag_56:\n        /* \"#utility.yul\":10168:10172   */\n      0x00\n        /* \"#utility.yul\":10206:10209   */\n      0xa0\n        /* \"#utility.yul\":10195:10204   */\n      dup3\n        /* \"#utility.yul\":10191:10210   */\n      add\n        /* \"#utility.yul\":10183:10210   */\n      swap1\n      pop\n        /* \"#utility.yul\":10220:10291   */\n      tag_235\n        /* \"#utility.yul\":10288:10289   */\n      0x00\n        /* \"#utility.yul\":10277:10286   */\n      dup4\n        /* \"#utility.yul\":10273:10290   */\n      add\n        /* \"#utility.yul\":10264:10270   */\n      dup9\n        /* \"#utility.yul\":10220:10291   */\n      tag_104\n      jump\t// in\n    tag_235:\n        /* \"#utility.yul\":10301:10373   */\n      tag_236\n        /* \"#utility.yul\":10369:10371   */\n      0x20\n        /* \"#utility.yul\":10358:10367   */\n      dup4\n        /* \"#utility.yul\":10354:10372   */\n      add\n        /* \"#utility.yul\":10345:10351   */\n      dup8\n        /* \"#utility.yul\":10301:10373   */\n      tag_104\n      jump\t// in\n    tag_236:\n        /* \"#utility.yul\":10383:10455   */\n      tag_237\n        /* \"#utility.yul\":10451:10453   */\n      0x40\n        /* \"#utility.yul\":10440:10449   */\n      dup4\n        /* \"#utility.yul\":10436:10454   */\n      add\n        /* \"#utility.yul\":10427:10433   */\n      dup7\n        /* \"#utility.yul\":10383:10455   */\n      tag_106\n      jump\t// in\n    tag_237:\n        /* \"#utility.yul\":10502:10511   */\n      dup2\n        /* \"#utility.yul\":10496:10500   */\n      dup2\n        /* \"#utility.yul\":10492:10512   */\n      sub\n        /* \"#utility.yul\":10487:10489   */\n      0x60\n        /* \"#utility.yul\":10476:10485   */\n      dup4\n        /* \"#utility.yul\":10472:10490   */\n      add\n        /* \"#utility.yul\":10465:10513   */\n      mstore\n        /* \"#utility.yul\":10530:10606   */\n      tag_238\n        /* \"#utility.yul\":10601:10605   */\n      dup2\n        /* \"#utility.yul\":10592:10598   */\n      dup6\n        /* \"#utility.yul\":10530:10606   */\n      tag_116\n      jump\t// in\n    tag_238:\n        /* \"#utility.yul\":10522:10606   */\n      swap1\n      pop\n        /* \"#utility.yul\":10616:10687   */\n      tag_239\n        /* \"#utility.yul\":10682:10685   */\n      0x80\n        /* \"#utility.yul\":10671:10680   */\n      dup4\n        /* \"#utility.yul\":10667:10686   */\n      add\n        /* \"#utility.yul\":10658:10664   */\n      dup5\n        /* \"#utility.yul\":10616:10687   */\n      tag_118\n      jump\t// in\n    tag_239:\n        /* \"#utility.yul\":9947:10694   */\n      swap7\n      swap6\n      pop\n      pop\n      pop\n      pop\n      pop\n      pop\n      jump\t// out\n        /* \"#utility.yul\":10700:10925   */\n    tag_119:\n        /* \"#utility.yul\":10840:10874   */\n      0x4f776e61626c653a206e6577206f776e657220697320746865207a65726f2061\n        /* \"#utility.yul\":10836:10837   */\n      0x00\n        /* \"#utility.yul\":10828:10834   */\n      dup3\n        /* \"#utility.yul\":10824:10838   */\n      add\n        /* \"#utility.yul\":10817:10875   */\n      mstore\n        /* \"#utility.yul\":10909:10917   */\n      0x6464726573730000000000000000000000000000000000000000000000000000\n        /* \"#utility.yul\":10904:10906   */\n      0x20\n        /* \"#utility.yul\":10896:10902   */\n      dup3\n        /* \"#utility.yul\":10892:10907   */\n      add\n        /* \"#utility.yul\":10885:10918   */\n      mstore\n        /* \"#utility.yul\":10700:10925   */\n      pop\n      jump\t// out\n        /* \"#utility.yul\":10931:11297   */\n    tag_120:\n        /* \"#utility.yul\":11073:11076   */\n      0x00\n        /* \"#utility.yul\":11094:11161   */\n      tag_242\n        /* \"#utility.yul\":11158:11160   */\n      0x26\n        /* \"#utility.yul\":11153:11156   */\n      dup4\n        /* \"#utility.yul\":11094:11161   */\n      tag_109\n      jump\t// in\n    tag_242:\n        /* \"#utility.yul\":11087:11161   */\n      swap2\n      pop\n        /* \"#utility.yul\":11170:11263   */\n      tag_243\n        /* \"#utility.yul\":11259:11262   */\n      dup3\n        /* \"#utility.yul\":11170:11263   */\n      tag_119\n      jump\t// in\n    tag_243:\n        /* \"#utility.yul\":11288:11290   */\n      0x40\n        /* \"#utility.yul\":11283:11286   */\n      dup3\n        /* \"#utility.yul\":11279:11291   */\n      add\n        /* \"#utility.yul\":11272:11291   */\n      swap1\n      pop\n        /* \"#utility.yul\":10931:11297   */\n      swap2\n      swap1\n      pop\n      jump\t// out\n        /* \"#utility.yul\":11303:11722   */\n    tag_77:\n        /* \"#utility.yul\":11469:11473   */\n      0x00\n        /* \"#utility.yul\":11507:11509   */\n      0x20\n        /* \"#utility.yul\":11496:11505   */\n      dup3\n        /* \"#utility.yul\":11492:11510   */\n      add\n        /* \"#utility.yul\":11484:11510   */\n      swap1\n      pop\n        /* \"#utility.yul\":11556:11565   */\n      dup2\n        /* \"#utility.yul\":11550:11554   */\n      dup2\n        /* \"#utility.yul\":11546:11566   */\n      sub\n        /* \"#utility.yul\":11542:11543   */\n      0x00\n        /* \"#utility.yul\":11531:11540   */\n      dup4\n        /* \"#utility.yul\":11527:11544   */\n      add\n        /* \"#utility.yul\":11520:11567   */\n      mstore\n        /* \"#utility.yul\":11584:11715   */\n      tag_245\n        /* \"#utility.yul\":11710:11714   */\n      dup2\n        /* \"#utility.yul\":11584:11715   */\n      tag_120\n      jump\t// in\n    tag_245:\n        /* \"#utility.yul\":11576:11715   */\n      swap1\n      pop\n        /* \"#utility.yul\":11303:11722   */\n      swap2\n      swap1\n      pop\n      jump\t// out\n\n    auxdata: 0xa2646970667358221220003589c4542418fd00642beef2cb688b5850b85e321e05d96be0e9e58820f9e464736f6c634300080a0033\n}\n",
				"bytecode": {
					"linkReferences": {},
					"object": "60c06040523480156200001157600080fd5b5060405162000fbb38038062000fbb833981810160405281019062000037919062000283565b808073ffffffffffffffffffffffffffffffffffffffff1660808173ffffffffffffffffffffffffffffffffffffffff16815250508073ffffffffffffffffffffffffffffffffffffffff1663026b1d5f6040518163ffffffff1660e01b8152600401602060405180830381865afa158015620000b8573d6000803e3d6000fd5b505050506040513d601f19601f82011682018060405250810190620000de9190620002e6565b73ffffffffffffffffffffffffffffffffffffffff1660a08173ffffffffffffffffffffffffffffffffffffffff16815250505062000132620001266200013960201b60201c565b6200014160201b60201c565b5062000318565b600033905090565b60008060009054906101000a900473ffffffffffffffffffffffffffffffffffffffff169050816000806101000a81548173ffffffffffffffffffffffffffffffffffffffff021916908373ffffffffffffffffffffffffffffffffffffffff1602179055508173ffffffffffffffffffffffffffffffffffffffff168173ffffffffffffffffffffffffffffffffffffffff167f8be0079c531659141344cd1fd0a4f28419497f9722a3daafe3b4186f6b6457e060405160405180910390a35050565b600080fd5b600073ffffffffffffffffffffffffffffffffffffffff82169050919050565b600062000237826200020a565b9050919050565b60006200024b826200022a565b9050919050565b6200025d816200023e565b81146200026957600080fd5b50565b6000815190506200027d8162000252565b92915050565b6000602082840312156200029c576200029b62000205565b5b6000620002ac848285016200026c565b91505092915050565b620002c0816200022a565b8114620002cc57600080fd5b50565b600081519050620002e081620002b5565b92915050565b600060208284031215620002ff57620002fe62000205565b5b60006200030f84828501620002cf565b91505092915050565b60805160a051610c6f6200034c600039600081816101a1015281816102f20152610415015260006101500152610c6f6000f3fe608060405234801561001057600080fd5b506004361061007d5760003560e01c8063715018a61161005b578063715018a6146100ec5780637535d246146100f65780638da5cb5b14610114578063f2fde38b146101325761007d565b80630542975c146100825780631b11d0ff146100a05780636bde9389146100d0575b600080fd5b61008a61014e565b60405161009791906106a3565b60405180910390f35b6100ba60048036038101906100b591906107a1565b610172565b6040516100c79190610856565b60405180910390f35b6100ea60048036038101906100e59190610871565b610231565b005b6100f461038b565b005b6100fe610413565b60405161010b91906108bf565b60405180910390f35b61011c610437565b60405161012991906108e9565b60405180910390f35b61014c60048036038101906101479190610871565b610460565b005b7f000000000000000000000000000000000000000000000000000000000000000081565b60008085876101819190610933565b90508773ffffffffffffffffffffffffffffffffffffffff1663095ea7b37f0000000000000000000000000000000000000000000000000000000000000000836040518363ffffffff1660e01b81526004016101de929190610998565b6020604051808303816000875af11580156101fd573d6000803e3d6000fd5b505050506040513d601f19601f8201168201806040525081019061022191906109ed565b5060019150509695505050505050565b610239610558565b73ffffffffffffffffffffffffffffffffffffffff16610257610437565b73ffffffffffffffffffffffffffffffffffffffff16146102ad576040517f08c379a00000000000000000000000000000000000000000000000000000000081526004016102a490610a77565b60405180910390fd5b6000309050600073237f409fbd10e30e237d63d9050ae302e339028e9050600069152d02c7e14af68000009050600060405180602001604052806000815250905060007f000000000000000000000000000000000000000000000000000000000000000073ffffffffffffffffffffffffffffffffffffffff166342b0b77c86868686866040518663ffffffff1660e01b8152600401610351959493929190610b4d565b600060405180830381600087803b15801561036b57600080fd5b505af115801561037f573d6000803e3d6000fd5b50505050505050505050565b610393610558565b73ffffffffffffffffffffffffffffffffffffffff166103b1610437565b73ffffffffffffffffffffffffffffffffffffffff1614610407576040517f08c379a00000000000000000000000000000000000000000000000000000000081526004016103fe90610a77565b60405180910390fd5b6104116000610560565b565b7f000000000000000000000000000000000000000000000000000000000000000081565b60008060009054906101000a900473ffffffffffffffffffffffffffffffffffffffff16905090565b610468610558565b73ffffffffffffffffffffffffffffffffffffffff16610486610437565b73ffffffffffffffffffffffffffffffffffffffff16146104dc576040517f08c379a00000000000000000000000000000000000000000000000000000000081526004016104d390610a77565b60405180910390fd5b600073ffffffffffffffffffffffffffffffffffffffff168173ffffffffffffffffffffffffffffffffffffffff16141561054c576040517f08c379a000000000000000000000000000000000000000000000000000000000815260040161054390610c19565b60405180910390fd5b61055581610560565b50565b600033905090565b60008060009054906101000a900473ffffffffffffffffffffffffffffffffffffffff169050816000806101000a81548173ffffffffffffffffffffffffffffffffffffffff021916908373ffffffffffffffffffffffffffffffffffffffff1602179055508173ffffffffffffffffffffffffffffffffffffffff168173ffffffffffffffffffffffffffffffffffffffff167f8be0079c531659141344cd1fd0a4f28419497f9722a3daafe3b4186f6b6457e060405160405180910390a35050565b600073ffffffffffffffffffffffffffffffffffffffff82169050919050565b6000819050919050565b600061066961066461065f84610624565b610644565b610624565b9050919050565b600061067b8261064e565b9050919050565b600061068d82610670565b9050919050565b61069d81610682565b82525050565b60006020820190506106b86000830184610694565b92915050565b600080fd5b600080fd5b60006106d382610624565b9050919050565b6106e3816106c8565b81146106ee57600080fd5b50565b600081359050610700816106da565b92915050565b6000819050919050565b61071981610706565b811461072457600080fd5b50565b60008135905061073681610710565b92915050565b600080fd5b600080fd5b600080fd5b60008083601f8401126107615761076061073c565b5b8235905067ffffffffffffffff81111561077e5761077d610741565b5b60208301915083600182028301111561079a57610799610746565b5b9250929050565b60008060008060008060a087890312156107be576107bd6106be565b5b60006107cc89828a016106f1565b96505060206107dd89828a01610727565b95505060406107ee89828a01610727565b94505060606107ff89828a016106f1565b935050608087013567ffffffffffffffff8111156108205761081f6106c3565b5b61082c89828a0161074b565b92509250509295509295509295565b60008115159050919050565b6108508161083b565b82525050565b600060208201905061086b6000830184610847565b92915050565b600060208284031215610887576108866106be565b5b6000610895848285016106f1565b91505092915050565b60006108a982610670565b9050919050565b6108b98161089e565b82525050565b60006020820190506108d460008301846108b0565b92915050565b6108e3816106c8565b82525050565b60006020820190506108fe60008301846108da565b92915050565b7f4e487b7100000000000000000000000000000000000000000000000000000000600052601160045260246000fd5b600061093e82610706565b915061094983610706565b9250827fffffffffffffffffffffffffffffffffffffffffffffffffffffffffffffffff0382111561097e5761097d610904565b5b828201905092915050565b61099281610706565b82525050565b60006040820190506109ad60008301856108da565b6109ba6020830184610989565b9392505050565b6109ca8161083b565b81146109d557600080fd5b50565b6000815190506109e7816109c1565b92915050565b600060208284031215610a0357610a026106be565b5b6000610a11848285016109d8565b91505092915050565b600082825260208201905092915050565b7f4f776e61626c653a2063616c6c6572206973206e6f7420746865206f776e6572600082015250565b6000610a61602083610a1a565b9150610a6c82610a2b565b602082019050919050565b60006020820190508181036000830152610a9081610a54565b9050919050565b600081519050919050565b600082825260208201905092915050565b60005b83811015610ad1578082015181840152602081019050610ab6565b83811115610ae0576000848401525b50505050565b6000601f19601f8301169050919050565b6000610b0282610a97565b610b0c8185610aa2565b9350610b1c818560208601610ab3565b610b2581610ae6565b840191505092915050565b600061ffff82169050919050565b610b4781610b30565b82525050565b600060a082019050610b6260008301886108da565b610b6f60208301876108da565b610b7c6040830186610989565b8181036060830152610b8e8185610af7565b9050610b9d6080830184610b3e565b9695505050505050565b7f4f776e61626c653a206e6577206f776e657220697320746865207a65726f206160008201527f6464726573730000000000000000000000000000000000000000000000000000602082015250565b6000610c03602683610a1a565b9150610c0e82610ba7565b604082019050919050565b60006020820190508181036000830152610c3281610bf6565b905091905056fea2646970667358221220003589c4542418fd00642beef2cb688b5850b85e321e05d96be0e9e58820f9e464736f6c634300080a0033",
					"opcodes": "PUSH1 0xC0 PUSH1 0x40 MSTORE CALLVALUE DUP1 ISZERO PUSH3 0x11 JUMPI PUSH1 0x0 DUP1 REVERT JUMPDEST POP PUSH1 0x40 MLOAD PUSH3 0xFBB CODESIZE SUB DUP1 PUSH3 0xFBB DUP4 CODECOPY DUP2 DUP2 ADD PUSH1 0x40 MSTORE DUP2 ADD SWAP1 PUSH3 0x37 SWAP2 SWAP1 PUSH3 0x283 JUMP JUMPDEST DUP1 DUP1 PUSH20 0xFFFFFFFFFFFFFFFFFFFFFFFFFFFFFFFFFFFFFFFF AND PUSH1 0x80 DUP2 PUSH20 0xFFFFFFFFFFFFFFFFFFFFFFFFFFFFFFFFFFFFFFFF AND DUP2 MSTORE POP POP DUP1 PUSH20 0xFFFFFFFFFFFFFFFFFFFFFFFFFFFFFFFFFFFFFFFF AND PUSH4 0x26B1D5F PUSH1 0x40 MLOAD DUP2 PUSH4 0xFFFFFFFF AND PUSH1 0xE0 SHL DUP2 MSTORE PUSH1 0x4 ADD PUSH1 0x20 PUSH1 0x40 MLOAD DUP1 DUP4 SUB DUP2 DUP7 GAS STATICCALL ISZERO DUP1 ISZERO PUSH3 0xB8 JUMPI RETURNDATASIZE PUSH1 0x0 DUP1 RETURNDATACOPY RETURNDATASIZE PUSH1 0x0 REVERT JUMPDEST POP POP POP POP PUSH1 0x40 MLOAD RETURNDATASIZE PUSH1 0x1F NOT PUSH1 0x1F DUP3 ADD AND DUP3 ADD DUP1 PUSH1 0x40 MSTORE POP DUP2 ADD SWAP1 PUSH3 0xDE SWAP2 SWAP1 PUSH3 0x2E6 JUMP JUMPDEST PUSH20 0xFFFFFFFFFFFFFFFFFFFFFFFFFFFFFFFFFFFFFFFF AND PUSH1 0xA0 DUP2 PUSH20 0xFFFFFFFFFFFFFFFFFFFFFFFFFFFFFFFFFFFFFFFF AND DUP2 MSTORE POP POP POP PUSH3 0x132 PUSH3 0x126 PUSH3 0x139 PUSH1 0x20 SHL PUSH1 0x20 SHR JUMP JUMPDEST PUSH3 0x141 PUSH1 0x20 SHL PUSH1 0x20 SHR JUMP JUMPDEST POP PUSH3 0x318 JUMP JUMPDEST PUSH1 0x0 CALLER SWAP1 POP SWAP1 JUMP JUMPDEST PUSH1 0x0 DUP1 PUSH1 0x0 SWAP1 SLOAD SWAP1 PUSH2 0x100 EXP SWAP1 DIV PUSH20 0xFFFFFFFFFFFFFFFFFFFFFFFFFFFFFFFFFFFFFFFF AND SWAP1 POP DUP2 PUSH1 0x0 DUP1 PUSH2 0x100 EXP DUP2 SLOAD DUP2 PUSH20 0xFFFFFFFFFFFFFFFFFFFFFFFFFFFFFFFFFFFFFFFF MUL NOT AND SWAP1 DUP4 PUSH20 0xFFFFFFFFFFFFFFFFFFFFFFFFFFFFFFFFFFFFFFFF AND MUL OR SWAP1 SSTORE POP DUP2 PUSH20 0xFFFFFFFFFFFFFFFFFFFFFFFFFFFFFFFFFFFFFFFF AND DUP2 PUSH20 0xFFFFFFFFFFFFFFFFFFFFFFFFFFFFFFFFFFFFFFFF AND PUSH32 0x8BE0079C531659141344CD1FD0A4F28419497F9722A3DAAFE3B4186F6B6457E0 PUSH1 0x40 MLOAD PUSH1 0x40 MLOAD DUP1 SWAP2 SUB SWAP1 LOG3 POP POP JUMP JUMPDEST PUSH1 0x0 DUP1 REVERT JUMPDEST PUSH1 0x0 PUSH20 0xFFFFFFFFFFFFFFFFFFFFFFFFFFFFFFFFFFFFFFFF DUP3 AND SWAP1 POP SWAP2 SWAP1 POP JUMP JUMPDEST PUSH1 0x0 PUSH3 0x237 DUP3 PUSH3 0x20A JUMP JUMPDEST SWAP1 POP SWAP2 SWAP1 POP JUMP JUMPDEST PUSH1 0x0 PUSH3 0x24B DUP3 PUSH3 0x22A JUMP JUMPDEST SWAP1 POP SWAP2 SWAP1 POP JUMP JUMPDEST PUSH3 0x25D DUP2 PUSH3 0x23E JUMP JUMPDEST DUP2 EQ PUSH3 0x269 JUMPI PUSH1 0x0 DUP1 REVERT JUMPDEST POP JUMP JUMPDEST PUSH1 0x0 DUP2 MLOAD SWAP1 POP PUSH3 0x27D DUP2 PUSH3 0x252 JUMP JUMPDEST SWAP3 SWAP2 POP POP JUMP JUMPDEST PUSH1 0x0 PUSH1 0x20 DUP3 DUP5 SUB SLT ISZERO PUSH3 0x29C JUMPI PUSH3 0x29B PUSH3 0x205 JUMP JUMPDEST JUMPDEST PUSH1 0x0 PUSH3 0x2AC DUP5 DUP3 DUP6 ADD PUSH3 0x26C JUMP JUMPDEST SWAP2 POP POP SWAP3 SWAP2 POP POP JUMP JUMPDEST PUSH3 0x2C0 DUP2 PUSH3 0x22A JUMP JUMPDEST DUP2 EQ PUSH3 0x2CC JUMPI PUSH1 0x0 DUP1 REVERT JUMPDEST POP JUMP JUMPDEST PUSH1 0x0 DUP2 MLOAD SWAP1 POP PUSH3 0x2E0 DUP2 PUSH3 0x2B5 JUMP JUMPDEST SWAP3 SWAP2 POP POP JUMP JUMPDEST PUSH1 0x0 PUSH1 0x20 DUP3 DUP5 SUB SLT ISZERO PUSH3 0x2FF JUMPI PUSH3 0x2FE PUSH3 0x205 JUMP JUMPDEST JUMPDEST PUSH1 0x0 PUSH3 0x30F DUP5 DUP3 DUP6 ADD PUSH3 0x2CF JUMP JUMPDEST SWAP2 POP POP SWAP3 SWAP2 POP POP JUMP JUMPDEST PUSH1 0x80 MLOAD PUSH1 0xA0 MLOAD PUSH2 0xC6F PUSH3 0x34C PUSH1 0x0 CODECOPY PUSH1 0x0 DUP2 DUP2 PUSH2 0x1A1 ADD MSTORE DUP2 DUP2 PUSH2 0x2F2 ADD MSTORE PUSH2 0x415 ADD MSTORE PUSH1 0x0 PUSH2 0x150 ADD MSTORE PUSH2 0xC6F PUSH1 0x0 RETURN INVALID PUSH1 0x80 PUSH1 0x40 MSTORE CALLVALUE DUP1 ISZERO PUSH2 0x10 JUMPI PUSH1 0x0 DUP1 REVERT JUMPDEST POP PUSH1 0x4 CALLDATASIZE LT PUSH2 0x7D JUMPI PUSH1 0x0 CALLDATALOAD PUSH1 0xE0 SHR DUP1 PUSH4 0x715018A6 GT PUSH2 0x5B JUMPI DUP1 PUSH4 0x715018A6 EQ PUSH2 0xEC JUMPI DUP1 PUSH4 0x7535D246 EQ PUSH2 0xF6 JUMPI DUP1 PUSH4 0x8DA5CB5B EQ PUSH2 0x114 JUMPI DUP1 PUSH4 0xF2FDE38B EQ PUSH2 0x132 JUMPI PUSH2 0x7D JUMP JUMPDEST DUP1 PUSH4 0x542975C EQ PUSH2 0x82 JUMPI DUP1 PUSH4 0x1B11D0FF EQ PUSH2 0xA0 JUMPI DUP1 PUSH4 0x6BDE9389 EQ PUSH2 0xD0 JUMPI JUMPDEST PUSH1 0x0 DUP1 REVERT JUMPDEST PUSH2 0x8A PUSH2 0x14E JUMP JUMPDEST PUSH1 0x40 MLOAD PUSH2 0x97 SWAP2 SWAP1 PUSH2 0x6A3 JUMP JUMPDEST PUSH1 0x40 MLOAD DUP1 SWAP2 SUB SWAP1 RETURN JUMPDEST PUSH2 0xBA PUSH1 0x4 DUP1 CALLDATASIZE SUB DUP2 ADD SWAP1 PUSH2 0xB5 SWAP2 SWAP1 PUSH2 0x7A1 JUMP JUMPDEST PUSH2 0x172 JUMP JUMPDEST PUSH1 0x40 MLOAD PUSH2 0xC7 SWAP2 SWAP1 PUSH2 0x856 JUMP JUMPDEST PUSH1 0x40 MLOAD DUP1 SWAP2 SUB SWAP1 RETURN JUMPDEST PUSH2 0xEA PUSH1 0x4 DUP1 CALLDATASIZE SUB DUP2 ADD SWAP1 PUSH2 0xE5 SWAP2 SWAP1 PUSH2 0x871 JUMP JUMPDEST PUSH2 0x231 JUMP JUMPDEST STOP JUMPDEST PUSH2 0xF4 PUSH2 0x38B JUMP JUMPDEST STOP JUMPDEST PUSH2 0xFE PUSH2 0x413 JUMP JUMPDEST PUSH1 0x40 MLOAD PUSH2 0x10B SWAP2 SWAP1 PUSH2 0x8BF JUMP JUMPDEST PUSH1 0x40 MLOAD DUP1 SWAP2 SUB SWAP1 RETURN JUMPDEST PUSH2 0x11C PUSH2 0x437 JUMP JUMPDEST PUSH1 0x40 MLOAD PUSH2 0x129 SWAP2 SWAP1 PUSH2 0x8E9 JUMP JUMPDEST PUSH1 0x40 MLOAD DUP1 SWAP2 SUB SWAP1 RETURN JUMPDEST PUSH2 0x14C PUSH1 0x4 DUP1 CALLDATASIZE SUB DUP2 ADD SWAP1 PUSH2 0x147 SWAP2 SWAP1 PUSH2 0x871 JUMP JUMPDEST PUSH2 0x460 JUMP JUMPDEST STOP JUMPDEST PUSH32 0x0 DUP2 JUMP JUMPDEST PUSH1 0x0 DUP1 DUP6 DUP8 PUSH2 0x181 SWAP2 SWAP1 PUSH2 0x933 JUMP JUMPDEST SWAP1 POP DUP8 PUSH20 0xFFFFFFFFFFFFFFFFFFFFFFFFFFFFFFFFFFFFFFFF AND PUSH4 0x95EA7B3 PUSH32 0x0 DUP4 PUSH1 0x40 MLOAD DUP4 PUSH4 0xFFFFFFFF AND PUSH1 0xE0 SHL DUP2 MSTORE PUSH1 0x4 ADD PUSH2 0x1DE SWAP3 SWAP2 SWAP1 PUSH2 0x998 JUMP JUMPDEST PUSH1 0x20 PUSH1 0x40 MLOAD DUP1 DUP4 SUB DUP2 PUSH1 0x0 DUP8 GAS CALL ISZERO DUP1 ISZERO PUSH2 0x1FD JUMPI RETURNDATASIZE PUSH1 0x0 DUP1 RETURNDATACOPY RETURNDATASIZE PUSH1 0x0 REVERT JUMPDEST POP POP POP POP PUSH1 0x40 MLOAD RETURNDATASIZE PUSH1 0x1F NOT PUSH1 0x1F DUP3 ADD AND DUP3 ADD DUP1 PUSH1 0x40 MSTORE POP DUP2 ADD SWAP1 PUSH2 0x221 SWAP2 SWAP1 PUSH2 0x9ED JUMP JUMPDEST POP PUSH1 0x1 SWAP2 POP POP SWAP7 SWAP6 POP POP POP POP POP POP JUMP JUMPDEST PUSH2 0x239 PUSH2 0x558 JUMP JUMPDEST PUSH20 0xFFFFFFFFFFFFFFFFFFFFFFFFFFFFFFFFFFFFFFFF AND PUSH2 0x257 PUSH2 0x437 JUMP JUMPDEST PUSH20 0xFFFFFFFFFFFFFFFFFFFFFFFFFFFFFFFFFFFFFFFF AND EQ PUSH2 0x2AD JUMPI PUSH1 0x40 MLOAD PUSH32 0x8C379A000000000000000000000000000000000000000000000000000000000 DUP2 MSTORE PUSH1 0x4 ADD PUSH2 0x2A4 SWAP1 PUSH2 0xA77 JUMP JUMPDEST PUSH1 0x40 MLOAD DUP1 SWAP2 SUB SWAP1 REVERT JUMPDEST PUSH1 0x0 ADDRESS SWAP1 POP PUSH1 0x0 PUSH20 0x237F409FBD10E30E237D63D9050AE302E339028E SWAP1 POP PUSH1 0x0 PUSH10 0x152D02C7E14AF6800000 SWAP1 POP PUSH1 0x0 PUSH1 0x40 MLOAD DUP1 PUSH1 0x20 ADD PUSH1 0x40 MSTORE DUP1 PUSH1 0x0 DUP2 MSTORE POP SWAP1 POP PUSH1 0x0 PUSH32 0x0 PUSH20 0xFFFFFFFFFFFFFFFFFFFFFFFFFFFFFFFFFFFFFFFF AND PUSH4 0x42B0B77C DUP7 DUP7 DUP7 DUP7 DUP7 PUSH1 0x40 MLOAD DUP7 PUSH4 0xFFFFFFFF AND PUSH1 0xE0 SHL DUP2 MSTORE PUSH1 0x4 ADD PUSH2 0x351 SWAP6 SWAP5 SWAP4 SWAP3 SWAP2 SWAP1 PUSH2 0xB4D JUMP JUMPDEST PUSH1 0x0 PUSH1 0x40 MLOAD DUP1 DUP4 SUB DUP2 PUSH1 0x0 DUP8 DUP1 EXTCODESIZE ISZERO DUP1 ISZERO PUSH2 0x36B JUMPI PUSH1 0x0 DUP1 REVERT JUMPDEST POP GAS CALL ISZERO DUP1 ISZERO PUSH2 0x37F JUMPI RETURNDATASIZE PUSH1 0x0 DUP1 RETURNDATACOPY RETURNDATASIZE PUSH1 0x0 REVERT JUMPDEST POP POP POP POP POP POP POP POP POP POP JUMP JUMPDEST PUSH2 0x393 PUSH2 0x558 JUMP JUMPDEST PUSH20 0xFFFFFFFFFFFFFFFFFFFFFFFFFFFFFFFFFFFFFFFF AND PUSH2 0x3B1 PUSH2 0x437 JUMP JUMPDEST PUSH20 0xFFFFFFFFFFFFFFFFFFFFFFFFFFFFFFFFFFFFFFFF AND EQ PUSH2 0x407 JUMPI PUSH1 0x40 MLOAD PUSH32 0x8C379A000000000000000000000000000000000000000000000000000000000 DUP2 MSTORE PUSH1 0x4 ADD PUSH2 0x3FE SWAP1 PUSH2 0xA77 JUMP JUMPDEST PUSH1 0x40 MLOAD DUP1 SWAP2 SUB SWAP1 REVERT JUMPDEST PUSH2 0x411 PUSH1 0x0 PUSH2 0x560 JUMP JUMPDEST JUMP JUMPDEST PUSH32 0x0 DUP2 JUMP JUMPDEST PUSH1 0x0 DUP1 PUSH1 0x0 SWAP1 SLOAD SWAP1 PUSH2 0x100 EXP SWAP1 DIV PUSH20 0xFFFFFFFFFFFFFFFFFFFFFFFFFFFFFFFFFFFFFFFF AND SWAP1 POP SWAP1 JUMP JUMPDEST PUSH2 0x468 PUSH2 0x558 JUMP JUMPDEST PUSH20 0xFFFFFFFFFFFFFFFFFFFFFFFFFFFFFFFFFFFFFFFF AND PUSH2 0x486 PUSH2 0x437 JUMP JUMPDEST PUSH20 0xFFFFFFFFFFFFFFFFFFFFFFFFFFFFFFFFFFFFFFFF AND EQ PUSH2 0x4DC JUMPI PUSH1 0x40 MLOAD PUSH32 0x8C379A000000000000000000000000000000000000000000000000000000000 DUP2 MSTORE PUSH1 0x4 ADD PUSH2 0x4D3 SWAP1 PUSH2 0xA77 JUMP JUMPDEST PUSH1 0x40 MLOAD DUP1 SWAP2 SUB SWAP1 REVERT JUMPDEST PUSH1 0x0 PUSH20 0xFFFFFFFFFFFFFFFFFFFFFFFFFFFFFFFFFFFFFFFF AND DUP2 PUSH20 0xFFFFFFFFFFFFFFFFFFFFFFFFFFFFFFFFFFFFFFFF AND EQ ISZERO PUSH2 0x54C JUMPI PUSH1 0x40 MLOAD PUSH32 0x8C379A000000000000000000000000000000000000000000000000000000000 DUP2 MSTORE PUSH1 0x4 ADD PUSH2 0x543 SWAP1 PUSH2 0xC19 JUMP JUMPDEST PUSH1 0x40 MLOAD DUP1 SWAP2 SUB SWAP1 REVERT JUMPDEST PUSH2 0x555 DUP2 PUSH2 0x560 JUMP JUMPDEST POP JUMP JUMPDEST PUSH1 0x0 CALLER SWAP1 POP SWAP1 JUMP JUMPDEST PUSH1 0x0 DUP1 PUSH1 0x0 SWAP1 SLOAD SWAP1 PUSH2 0x100 EXP SWAP1 DIV PUSH20 0xFFFFFFFFFFFFFFFFFFFFFFFFFFFFFFFFFFFFFFFF AND SWAP1 POP DUP2 PUSH1 0x0 DUP1 PUSH2 0x100 EXP DUP2 SLOAD DUP2 PUSH20 0xFFFFFFFFFFFFFFFFFFFFFFFFFFFFFFFFFFFFFFFF MUL NOT AND SWAP1 DUP4 PUSH20 0xFFFFFFFFFFFFFFFFFFFFFFFFFFFFFFFFFFFFFFFF AND MUL OR SWAP1 SSTORE POP DUP2 PUSH20 0xFFFFFFFFFFFFFFFFFFFFFFFFFFFFFFFFFFFFFFFF AND DUP2 PUSH20 0xFFFFFFFFFFFFFFFFFFFFFFFFFFFFFFFFFFFFFFFF AND PUSH32 0x8BE0079C531659141344CD1FD0A4F28419497F9722A3DAAFE3B4186F6B6457E0 PUSH1 0x40 MLOAD PUSH1 0x40 MLOAD DUP1 SWAP2 SUB SWAP1 LOG3 POP POP JUMP JUMPDEST PUSH1 0x0 PUSH20 0xFFFFFFFFFFFFFFFFFFFFFFFFFFFFFFFFFFFFFFFF DUP3 AND SWAP1 POP SWAP2 SWAP1 POP JUMP JUMPDEST PUSH1 0x0 DUP2 SWAP1 POP SWAP2 SWAP1 POP JUMP JUMPDEST PUSH1 0x0 PUSH2 0x669 PUSH2 0x664 PUSH2 0x65F DUP5 PUSH2 0x624 JUMP JUMPDEST PUSH2 0x644 JUMP JUMPDEST PUSH2 0x624 JUMP JUMPDEST SWAP1 POP SWAP2 SWAP1 POP JUMP JUMPDEST PUSH1 0x0 PUSH2 0x67B DUP3 PUSH2 0x64E JUMP JUMPDEST SWAP1 POP SWAP2 SWAP1 POP JUMP JUMPDEST PUSH1 0x0 PUSH2 0x68D DUP3 PUSH2 0x670 JUMP JUMPDEST SWAP1 POP SWAP2 SWAP1 POP JUMP JUMPDEST PUSH2 0x69D DUP2 PUSH2 0x682 JUMP JUMPDEST DUP3 MSTORE POP POP JUMP JUMPDEST PUSH1 0x0 PUSH1 0x20 DUP3 ADD SWAP1 POP PUSH2 0x6B8 PUSH1 0x0 DUP4 ADD DUP5 PUSH2 0x694 JUMP JUMPDEST SWAP3 SWAP2 POP POP JUMP JUMPDEST PUSH1 0x0 DUP1 REVERT JUMPDEST PUSH1 0x0 DUP1 REVERT JUMPDEST PUSH1 0x0 PUSH2 0x6D3 DUP3 PUSH2 0x624 JUMP JUMPDEST SWAP1 POP SWAP2 SWAP1 POP JUMP JUMPDEST PUSH2 0x6E3 DUP2 PUSH2 0x6C8 JUMP JUMPDEST DUP2 EQ PUSH2 0x6EE JUMPI PUSH1 0x0 DUP1 REVERT JUMPDEST POP JUMP JUMPDEST PUSH1 0x0 DUP2 CALLDATALOAD SWAP1 POP PUSH2 0x700 DUP2 PUSH2 0x6DA JUMP JUMPDEST SWAP3 SWAP2 POP POP JUMP JUMPDEST PUSH1 0x0 DUP2 SWAP1 POP SWAP2 SWAP1 POP JUMP JUMPDEST PUSH2 0x719 DUP2 PUSH2 0x706 JUMP JUMPDEST DUP2 EQ PUSH2 0x724 JUMPI PUSH1 0x0 DUP1 REVERT JUMPDEST POP JUMP JUMPDEST PUSH1 0x0 DUP2 CALLDATALOAD SWAP1 POP PUSH2 0x736 DUP2 PUSH2 0x710 JUMP JUMPDEST SWAP3 SWAP2 POP POP JUMP JUMPDEST PUSH1 0x0 DUP1 REVERT JUMPDEST PUSH1 0x0 DUP1 REVERT JUMPDEST PUSH1 0x0 DUP1 REVERT JUMPDEST PUSH1 0x0 DUP1 DUP4 PUSH1 0x1F DUP5 ADD SLT PUSH2 0x761 JUMPI PUSH2 0x760 PUSH2 0x73C JUMP JUMPDEST JUMPDEST DUP3 CALLDATALOAD SWAP1 POP PUSH8 0xFFFFFFFFFFFFFFFF DUP2 GT ISZERO PUSH2 0x77E JUMPI PUSH2 0x77D PUSH2 0x741 JUMP JUMPDEST JUMPDEST PUSH1 0x20 DUP4 ADD SWAP2 POP DUP4 PUSH1 0x1 DUP3 MUL DUP4 ADD GT ISZERO PUSH2 0x79A JUMPI PUSH2 0x799 PUSH2 0x746 JUMP JUMPDEST JUMPDEST SWAP3 POP SWAP3 SWAP1 POP JUMP JUMPDEST PUSH1 0x0 DUP1 PUSH1 0x0 DUP1 PUSH1 0x0 DUP1 PUSH1 0xA0 DUP8 DUP10 SUB SLT ISZERO PUSH2 0x7BE JUMPI PUSH2 0x7BD PUSH2 0x6BE JUMP JUMPDEST JUMPDEST PUSH1 0x0 PUSH2 0x7CC DUP10 DUP3 DUP11 ADD PUSH2 0x6F1 JUMP JUMPDEST SWAP7 POP POP PUSH1 0x20 PUSH2 0x7DD DUP10 DUP3 DUP11 ADD PUSH2 0x727 JUMP JUMPDEST SWAP6 POP POP PUSH1 0x40 PUSH2 0x7EE DUP10 DUP3 DUP11 ADD PUSH2 0x727 JUMP JUMPDEST SWAP5 POP POP PUSH1 0x60 PUSH2 0x7FF DUP10 DUP3 DUP11 ADD PUSH2 0x6F1 JUMP JUMPDEST SWAP4 POP POP PUSH1 0x80 DUP8 ADD CALLDATALOAD PUSH8 0xFFFFFFFFFFFFFFFF DUP2 GT ISZERO PUSH2 0x820 JUMPI PUSH2 0x81F PUSH2 0x6C3 JUMP JUMPDEST JUMPDEST PUSH2 0x82C DUP10 DUP3 DUP11 ADD PUSH2 0x74B JUMP JUMPDEST SWAP3 POP SWAP3 POP POP SWAP3 SWAP6 POP SWAP3 SWAP6 POP SWAP3 SWAP6 JUMP JUMPDEST PUSH1 0x0 DUP2 ISZERO ISZERO SWAP1 POP SWAP2 SWAP1 POP JUMP JUMPDEST PUSH2 0x850 DUP2 PUSH2 0x83B JUMP JUMPDEST DUP3 MSTORE POP POP JUMP JUMPDEST PUSH1 0x0 PUSH1 0x20 DUP3 ADD SWAP1 POP PUSH2 0x86B PUSH1 0x0 DUP4 ADD DUP5 PUSH2 0x847 JUMP JUMPDEST SWAP3 SWAP2 POP POP JUMP JUMPDEST PUSH1 0x0 PUSH1 0x20 DUP3 DUP5 SUB SLT ISZERO PUSH2 0x887 JUMPI PUSH2 0x886 PUSH2 0x6BE JUMP JUMPDEST JUMPDEST PUSH1 0x0 PUSH2 0x895 DUP5 DUP3 DUP6 ADD PUSH2 0x6F1 JUMP JUMPDEST SWAP2 POP POP SWAP3 SWAP2 POP POP JUMP JUMPDEST PUSH1 0x0 PUSH2 0x8A9 DUP3 PUSH2 0x670 JUMP JUMPDEST SWAP1 POP SWAP2 SWAP1 POP JUMP JUMPDEST PUSH2 0x8B9 DUP2 PUSH2 0x89E JUMP JUMPDEST DUP3 MSTORE POP POP JUMP JUMPDEST PUSH1 0x0 PUSH1 0x20 DUP3 ADD SWAP1 POP PUSH2 0x8D4 PUSH1 0x0 DUP4 ADD DUP5 PUSH2 0x8B0 JUMP JUMPDEST SWAP3 SWAP2 POP POP JUMP JUMPDEST PUSH2 0x8E3 DUP2 PUSH2 0x6C8 JUMP JUMPDEST DUP3 MSTORE POP POP JUMP JUMPDEST PUSH1 0x0 PUSH1 0x20 DUP3 ADD SWAP1 POP PUSH2 0x8FE PUSH1 0x0 DUP4 ADD DUP5 PUSH2 0x8DA JUMP JUMPDEST SWAP3 SWAP2 POP POP JUMP JUMPDEST PUSH32 0x4E487B7100000000000000000000000000000000000000000000000000000000 PUSH1 0x0 MSTORE PUSH1 0x11 PUSH1 0x4 MSTORE PUSH1 0x24 PUSH1 0x0 REVERT JUMPDEST PUSH1 0x0 PUSH2 0x93E DUP3 PUSH2 0x706 JUMP JUMPDEST SWAP2 POP PUSH2 0x949 DUP4 PUSH2 0x706 JUMP JUMPDEST SWAP3 POP DUP3 PUSH32 0xFFFFFFFFFFFFFFFFFFFFFFFFFFFFFFFFFFFFFFFFFFFFFFFFFFFFFFFFFFFFFFFF SUB DUP3 GT ISZERO PUSH2 0x97E JUMPI PUSH2 0x97D PUSH2 0x904 JUMP JUMPDEST JUMPDEST DUP3 DUP3 ADD SWAP1 POP SWAP3 SWAP2 POP POP JUMP JUMPDEST PUSH2 0x992 DUP2 PUSH2 0x706 JUMP JUMPDEST DUP3 MSTORE POP POP JUMP JUMPDEST PUSH1 0x0 PUSH1 0x40 DUP3 ADD SWAP1 POP PUSH2 0x9AD PUSH1 0x0 DUP4 ADD DUP6 PUSH2 0x8DA JUMP JUMPDEST PUSH2 0x9BA PUSH1 0x20 DUP4 ADD DUP5 PUSH2 0x989 JUMP JUMPDEST SWAP4 SWAP3 POP POP POP JUMP JUMPDEST PUSH2 0x9CA DUP2 PUSH2 0x83B JUMP JUMPDEST DUP2 EQ PUSH2 0x9D5 JUMPI PUSH1 0x0 DUP1 REVERT JUMPDEST POP JUMP JUMPDEST PUSH1 0x0 DUP2 MLOAD SWAP1 POP PUSH2 0x9E7 DUP2 PUSH2 0x9C1 JUMP JUMPDEST SWAP3 SWAP2 POP POP JUMP JUMPDEST PUSH1 0x0 PUSH1 0x20 DUP3 DUP5 SUB SLT ISZERO PUSH2 0xA03 JUMPI PUSH2 0xA02 PUSH2 0x6BE JUMP JUMPDEST JUMPDEST PUSH1 0x0 PUSH2 0xA11 DUP5 DUP3 DUP6 ADD PUSH2 0x9D8 JUMP JUMPDEST SWAP2 POP POP SWAP3 SWAP2 POP POP JUMP JUMPDEST PUSH1 0x0 DUP3 DUP3 MSTORE PUSH1 0x20 DUP3 ADD SWAP1 POP SWAP3 SWAP2 POP POP JUMP JUMPDEST PUSH32 0x4F776E61626C653A2063616C6C6572206973206E6F7420746865206F776E6572 PUSH1 0x0 DUP3 ADD MSTORE POP JUMP JUMPDEST PUSH1 0x0 PUSH2 0xA61 PUSH1 0x20 DUP4 PUSH2 0xA1A JUMP JUMPDEST SWAP2 POP PUSH2 0xA6C DUP3 PUSH2 0xA2B JUMP JUMPDEST PUSH1 0x20 DUP3 ADD SWAP1 POP SWAP2 SWAP1 POP JUMP JUMPDEST PUSH1 0x0 PUSH1 0x20 DUP3 ADD SWAP1 POP DUP2 DUP2 SUB PUSH1 0x0 DUP4 ADD MSTORE PUSH2 0xA90 DUP2 PUSH2 0xA54 JUMP JUMPDEST SWAP1 POP SWAP2 SWAP1 POP JUMP JUMPDEST PUSH1 0x0 DUP2 MLOAD SWAP1 POP SWAP2 SWAP1 POP JUMP JUMPDEST PUSH1 0x0 DUP3 DUP3 MSTORE PUSH1 0x20 DUP3 ADD SWAP1 POP SWAP3 SWAP2 POP POP JUMP JUMPDEST PUSH1 0x0 JUMPDEST DUP4 DUP2 LT ISZERO PUSH2 0xAD1 JUMPI DUP1 DUP3 ADD MLOAD DUP2 DUP5 ADD MSTORE PUSH1 0x20 DUP2 ADD SWAP1 POP PUSH2 0xAB6 JUMP JUMPDEST DUP4 DUP2 GT ISZERO PUSH2 0xAE0 JUMPI PUSH1 0x0 DUP5 DUP5 ADD MSTORE JUMPDEST POP POP POP POP JUMP JUMPDEST PUSH1 0x0 PUSH1 0x1F NOT PUSH1 0x1F DUP4 ADD AND SWAP1 POP SWAP2 SWAP1 POP JUMP JUMPDEST PUSH1 0x0 PUSH2 0xB02 DUP3 PUSH2 0xA97 JUMP JUMPDEST PUSH2 0xB0C DUP2 DUP6 PUSH2 0xAA2 JUMP JUMPDEST SWAP4 POP PUSH2 0xB1C DUP2 DUP6 PUSH1 0x20 DUP7 ADD PUSH2 0xAB3 JUMP JUMPDEST PUSH2 0xB25 DUP2 PUSH2 0xAE6 JUMP JUMPDEST DUP5 ADD SWAP2 POP POP SWAP3 SWAP2 POP POP JUMP JUMPDEST PUSH1 0x0 PUSH2 0xFFFF DUP3 AND SWAP1 POP SWAP2 SWAP1 POP JUMP JUMPDEST PUSH2 0xB47 DUP2 PUSH2 0xB30 JUMP JUMPDEST DUP3 MSTORE POP POP JUMP JUMPDEST PUSH1 0x0 PUSH1 0xA0 DUP3 ADD SWAP1 POP PUSH2 0xB62 PUSH1 0x0 DUP4 ADD DUP9 PUSH2 0x8DA JUMP JUMPDEST PUSH2 0xB6F PUSH1 0x20 DUP4 ADD DUP8 PUSH2 0x8DA JUMP JUMPDEST PUSH2 0xB7C PUSH1 0x40 DUP4 ADD DUP7 PUSH2 0x989 JUMP JUMPDEST DUP2 DUP2 SUB PUSH1 0x60 DUP4 ADD MSTORE PUSH2 0xB8E DUP2 DUP6 PUSH2 0xAF7 JUMP JUMPDEST SWAP1 POP PUSH2 0xB9D PUSH1 0x80 DUP4 ADD DUP5 PUSH2 0xB3E JUMP JUMPDEST SWAP7 SWAP6 POP POP POP POP POP POP JUMP JUMPDEST PUSH32 0x4F776E61626C653A206E6577206F776E657220697320746865207A65726F2061 PUSH1 0x0 DUP3 ADD MSTORE PUSH32 0x6464726573730000000000000000000000000000000000000000000000000000 PUSH1 0x20 DUP3 ADD MSTORE POP JUMP JUMPDEST PUSH1 0x0 PUSH2 0xC03 PUSH1 0x26 DUP4 PUSH2 0xA1A JUMP JUMPDEST SWAP2 POP PUSH2 0xC0E DUP3 PUSH2 0xBA7 JUMP JUMPDEST PUSH1 0x40 DUP3 ADD SWAP1 POP SWAP2 SWAP1 POP JUMP JUMPDEST PUSH1 0x0 PUSH1 0x20 DUP3 ADD SWAP1 POP DUP2 DUP2 SUB PUSH1 0x0 DUP4 ADD MSTORE PUSH2 0xC32 DUP2 PUSH2 0xBF6 JUMP JUMPDEST SWAP1 POP SWAP2 SWAP1 POP JUMP INVALID LOG2 PUSH5 0x6970667358 0x22 SLT KECCAK256 STOP CALLDATALOAD DUP10 0xC4 SLOAD 0x24 XOR REVERT STOP PUSH5 0x2BEEF2CB68 DUP12 PC POP 0xB8 0x5E ORIGIN 0x1E SDIV 0xD9 PUSH12 0xE0E9E58820F9E464736F6C63 NUMBER STOP ADDMOD EXP STOP CALLER "
				},
				"gasEstimates": {
					"creation": {
						"codeDepositCost": "636600",
						"executionCost": "infinite",
						"totalCost": "infinite"
					},
					"external": {
						"ADDRESSES_PROVIDER()": "infinite",
						"POOL()": "infinite",
						"executeOperation(address,uint256,uint256,address,bytes)": "infinite",
						"owner()": "2566",
						"renounceOwnership()": "30374",
						"startFlashLoan(address)": "infinite",
						"transferOwnership(address)": "30789"
					}
				},
				"methodIdentifiers": {
					"ADDRESSES_PROVIDER()": "0542975c",
					"POOL()": "7535d246",
					"executeOperation(address,uint256,uint256,address,bytes)": "1b11d0ff",
					"owner()": "8da5cb5b",
					"renounceOwnership()": "715018a6",
					"startFlashLoan(address)": "6bde9389",
					"transferOwnership(address)": "f2fde38b"
				}
			},
			"userdoc": {
				"kind": "user",
				"methods": {
					"executeOperation(address,uint256,uint256,address,bytes)": {
						"notice": "Executes an operation after receiving the flash-borrowed asset"
					}
				},
				"version": 1
			}
		}
	}
}