{
	"data": {
		"bytecode": {
			"linkReferences": {},
			"object": "60c06040523480156200001157600080fd5b5060405162000fd238038062000fd2833981810160405281019062000037919062000283565b808073ffffffffffffffffffffffffffffffffffffffff1660808173ffffffffffffffffffffffffffffffffffffffff16815250508073ffffffffffffffffffffffffffffffffffffffff1663026b1d5f6040518163ffffffff1660e01b8152600401602060405180830381865afa158015620000b8573d6000803e3d6000fd5b505050506040513d601f19601f82011682018060405250810190620000de9190620002e6565b73ffffffffffffffffffffffffffffffffffffffff1660a08173ffffffffffffffffffffffffffffffffffffffff16815250505062000132620001266200013960201b60201c565b6200014160201b60201c565b5062000318565b600033905090565b60008060009054906101000a900473ffffffffffffffffffffffffffffffffffffffff169050816000806101000a81548173ffffffffffffffffffffffffffffffffffffffff021916908373ffffffffffffffffffffffffffffffffffffffff1602179055508173ffffffffffffffffffffffffffffffffffffffff168173ffffffffffffffffffffffffffffffffffffffff167f8be0079c531659141344cd1fd0a4f28419497f9722a3daafe3b4186f6b6457e060405160405180910390a35050565b600080fd5b600073ffffffffffffffffffffffffffffffffffffffff82169050919050565b600062000237826200020a565b9050919050565b60006200024b826200022a565b9050919050565b6200025d816200023e565b81146200026957600080fd5b50565b6000815190506200027d8162000252565b92915050565b6000602082840312156200029c576200029b62000205565b5b6000620002ac848285016200026c565b91505092915050565b620002c0816200022a565b8114620002cc57600080fd5b50565b600081519050620002e081620002b5565b92915050565b600060208284031215620002ff57620002fe62000205565b5b60006200030f84828501620002cf565b91505092915050565b60805160a051610c866200034c600039600081816101a1015281816102bb0152610376015260006101500152610c866000f3fe608060405234801561001057600080fd5b506004361061007d5760003560e01c80637535d2461161005b5780637535d246146100da578063763cbbfd146100f85780638da5cb5b14610114578063f2fde38b146101325761007d565b80630542975c146100825780631b11d0ff146100a0578063715018a6146100d0575b600080fd5b61008a61014e565b604051610097919061067a565b60405180910390f35b6100ba60048036038101906100b59190610778565b610172565b6040516100c7919061082d565b60405180910390f35b6100d8610231565b005b6100e26102b9565b6040516100ef9190610869565b60405180910390f35b610112600480360381019061010d9190610884565b6102dd565b005b61011c61040e565b60405161012991906108d3565b60405180910390f35b61014c600480360381019061014791906108ee565b610437565b005b7f000000000000000000000000000000000000000000000000000000000000000081565b6000808587610181919061094a565b90508773ffffffffffffffffffffffffffffffffffffffff1663095ea7b37f0000000000000000000000000000000000000000000000000000000000000000836040518363ffffffff1660e01b81526004016101de9291906109af565b6020604051808303816000875af11580156101fd573d6000803e3d6000fd5b505050506040513d601f19601f820116820180604052508101906102219190610a04565b5060019150509695505050505050565b61023961052f565b73ffffffffffffffffffffffffffffffffffffffff1661025761040e565b73ffffffffffffffffffffffffffffffffffffffff16146102ad576040517f08c379a00000000000000000000000000000000000000000000000000000000081526004016102a490610a8e565b60405180910390fd5b6102b76000610537565b565b7f000000000000000000000000000000000000000000000000000000000000000081565b6102e561052f565b73ffffffffffffffffffffffffffffffffffffffff1661030361040e565b73ffffffffffffffffffffffffffffffffffffffff1614610359576040517f08c379a000000000000000000000000000000000000000000000000000000000815260040161035090610a8e565b60405180910390fd5b6000309050600060405180602001604052806000815250905060007f000000000000000000000000000000000000000000000000000000000000000073ffffffffffffffffffffffffffffffffffffffff166342b0b77c84878786866040518663ffffffff1660e01b81526004016103d5959493929190610b64565b600060405180830381600087803b1580156103ef57600080fd5b505af1158015610403573d6000803e3d6000fd5b505050505050505050565b60008060009054906101000a900473ffffffffffffffffffffffffffffffffffffffff16905090565b61043f61052f565b73ffffffffffffffffffffffffffffffffffffffff1661045d61040e565b73ffffffffffffffffffffffffffffffffffffffff16146104b3576040517f08c379a00000000000000000000000000000000000000000000000000000000081526004016104aa90610a8e565b60405180910390fd5b600073ffffffffffffffffffffffffffffffffffffffff168173ffffffffffffffffffffffffffffffffffffffff161415610523576040517f08c379a000000000000000000000000000000000000000000000000000000000815260040161051a90610c30565b60405180910390fd5b61052c81610537565b50565b600033905090565b60008060009054906101000a900473ffffffffffffffffffffffffffffffffffffffff169050816000806101000a81548173ffffffffffffffffffffffffffffffffffffffff021916908373ffffffffffffffffffffffffffffffffffffffff1602179055508173ffffffffffffffffffffffffffffffffffffffff168173ffffffffffffffffffffffffffffffffffffffff167f8be0079c531659141344cd1fd0a4f28419497f9722a3daafe3b4186f6b6457e060405160405180910390a35050565b600073ffffffffffffffffffffffffffffffffffffffff82169050919050565b6000819050919050565b600061064061063b610636846105fb565b61061b565b6105fb565b9050919050565b600061065282610625565b9050919050565b600061066482610647565b9050919050565b61067481610659565b82525050565b600060208201905061068f600083018461066b565b92915050565b600080fd5b600080fd5b60006106aa826105fb565b9050919050565b6106ba8161069f565b81146106c557600080fd5b50565b6000813590506106d7816106b1565b92915050565b6000819050919050565b6106f0816106dd565b81146106fb57600080fd5b50565b60008135905061070d816106e7565b92915050565b600080fd5b600080fd5b600080fd5b60008083601f84011261073857610737610713565b5b8235905067ffffffffffffffff81111561075557610754610718565b5b6020830191508360018202830111156107715761077061071d565b5b9250929050565b60008060008060008060a0878903121561079557610794610695565b5b60006107a389828a016106c8565b96505060206107b489828a016106fe565b95505060406107c589828a016106fe565b94505060606107d689828a016106c8565b935050608087013567ffffffffffffffff8111156107f7576107f661069a565b5b61080389828a01610722565b92509250509295509295509295565b60008115159050919050565b61082781610812565b82525050565b6000602082019050610842600083018461081e565b92915050565b600061085382610647565b9050919050565b61086381610848565b82525050565b600060208201905061087e600083018461085a565b92915050565b6000806040838503121561089b5761089a610695565b5b60006108a9858286016106c8565b92505060206108ba858286016106fe565b9150509250929050565b6108cd8161069f565b82525050565b60006020820190506108e860008301846108c4565b92915050565b60006020828403121561090457610903610695565b5b6000610912848285016106c8565b91505092915050565b7f4e487b7100000000000000000000000000000000000000000000000000000000600052601160045260246000fd5b6000610955826106dd565b9150610960836106dd565b9250827fffffffffffffffffffffffffffffffffffffffffffffffffffffffffffffffff038211156109955761099461091b565b5b828201905092915050565b6109a9816106dd565b82525050565b60006040820190506109c460008301856108c4565b6109d160208301846109a0565b9392505050565b6109e181610812565b81146109ec57600080fd5b50565b6000815190506109fe816109d8565b92915050565b600060208284031215610a1a57610a19610695565b5b6000610a28848285016109ef565b91505092915050565b600082825260208201905092915050565b7f4f776e61626c653a2063616c6c6572206973206e6f7420746865206f776e6572600082015250565b6000610a78602083610a31565b9150610a8382610a42565b602082019050919050565b60006020820190508181036000830152610aa781610a6b565b9050919050565b600081519050919050565b600082825260208201905092915050565b60005b83811015610ae8578082015181840152602081019050610acd565b83811115610af7576000848401525b50505050565b6000601f19601f8301169050919050565b6000610b1982610aae565b610b238185610ab9565b9350610b33818560208601610aca565b610b3c81610afd565b840191505092915050565b600061ffff82169050919050565b610b5e81610b47565b82525050565b600060a082019050610b7960008301886108c4565b610b8660208301876108c4565b610b9360408301866109a0565b8181036060830152610ba58185610b0e565b9050610bb46080830184610b55565b9695505050505050565b7f4f776e61626c653a206e6577206f776e657220697320746865207a65726f206160008201527f6464726573730000000000000000000000000000000000000000000000000000602082015250565b6000610c1a602683610a31565b9150610c2582610bbe565b604082019050919050565b60006020820190508181036000830152610c4981610c0d565b905091905056fea26469706673582212204e0859ae000279de5de7f6744bf426ba862b16d0ac0879ca7220bf3d8a58035264736f6c634300080a0033",
			"opcodes": "PUSH1 0xC0 PUSH1 0x40 MSTORE CALLVALUE DUP1 ISZERO PUSH3 0x11 JUMPI PUSH1 0x0 DUP1 REVERT JUMPDEST POP PUSH1 0x40 MLOAD PUSH3 0xFD2 CODESIZE SUB DUP1 PUSH3 0xFD2 DUP4 CODECOPY DUP2 DUP2 ADD PUSH1 0x40 MSTORE DUP2 ADD SWAP1 PUSH3 0x37 SWAP2 SWAP1 PUSH3 0x283 JUMP JUMPDEST DUP1 DUP1 PUSH20 0xFFFFFFFFFFFFFFFFFFFFFFFFFFFFFFFFFFFFFFFF AND PUSH1 0x80 DUP2 PUSH20 0xFFFFFFFFFFFFFFFFFFFFFFFFFFFFFFFFFFFFFFFF AND DUP2 MSTORE POP POP DUP1 PUSH20 0xFFFFFFFFFFFFFFFFFFFFFFFFFFFFFFFFFFFFFFFF AND PUSH4 0x26B1D5F PUSH1 0x40 MLOAD DUP2 PUSH4 0xFFFFFFFF AND PUSH1 0xE0 SHL DUP2 MSTORE PUSH1 0x4 ADD PUSH1 0x20 PUSH1 0x40 MLOAD DUP1 DUP4 SUB DUP2 DUP7 GAS STATICCALL ISZERO DUP1 ISZERO PUSH3 0xB8 JUMPI RETURNDATASIZE PUSH1 0x0 DUP1 RETURNDATACOPY RETURNDATASIZE PUSH1 0x0 REVERT JUMPDEST POP POP POP POP PUSH1 0x40 MLOAD RETURNDATASIZE PUSH1 0x1F NOT PUSH1 0x1F DUP3 ADD AND DUP3 ADD DUP1 PUSH1 0x40 MSTORE POP DUP2 ADD SWAP1 PUSH3 0xDE SWAP2 SWAP1 PUSH3 0x2E6 JUMP JUMPDEST PUSH20 0xFFFFFFFFFFFFFFFFFFFFFFFFFFFFFFFFFFFFFFFF AND PUSH1 0xA0 DUP2 PUSH20 0xFFFFFFFFFFFFFFFFFFFFFFFFFFFFFFFFFFFFFFFF AND DUP2 MSTORE POP POP POP PUSH3 0x132 PUSH3 0x126 PUSH3 0x139 PUSH1 0x20 SHL PUSH1 0x20 SHR JUMP JUMPDEST PUSH3 0x141 PUSH1 0x20 SHL PUSH1 0x20 SHR JUMP JUMPDEST POP PUSH3 0x318 JUMP JUMPDEST PUSH1 0x0 CALLER SWAP1 POP SWAP1 JUMP JUMPDEST PUSH1 0x0 DUP1 PUSH1 0x0 SWAP1 SLOAD SWAP1 PUSH2 0x100 EXP SWAP1 DIV PUSH20 0xFFFFFFFFFFFFFFFFFFFFFFFFFFFFFFFFFFFFFFFF AND SWAP1 POP DUP2 PUSH1 0x0 DUP1 PUSH2 0x100 EXP DUP2 SLOAD DUP2 PUSH20 0xFFFFFFFFFFFFFFFFFFFFFFFFFFFFFFFFFFFFFFFF MUL NOT AND SWAP1 DUP4 PUSH20 0xFFFFFFFFFFFFFFFFFFFFFFFFFFFFFFFFFFFFFFFF AND MUL OR SWAP1 SSTORE POP DUP2 PUSH20 0xFFFFFFFFFFFFFFFFFFFFFFFFFFFFFFFFFFFFFFFF AND DUP2 PUSH20 0xFFFFFFFFFFFFFFFFFFFFFFFFFFFFFFFFFFFFFFFF AND PUSH32 0x8BE0079C531659141344CD1FD0A4F28419497F9722A3DAAFE3B4186F6B6457E0 PUSH1 0x40 MLOAD PUSH1 0x40 MLOAD DUP1 SWAP2 SUB SWAP1 LOG3 POP POP JUMP JUMPDEST PUSH1 0x0 DUP1 REVERT JUMPDEST PUSH1 0x0 PUSH20 0xFFFFFFFFFFFFFFFFFFFFFFFFFFFFFFFFFFFFFFFF DUP3 AND SWAP1 POP SWAP2 SWAP1 POP JUMP JUMPDEST PUSH1 0x0 PUSH3 0x237 DUP3 PUSH3 0x20A JUMP JUMPDEST SWAP1 POP SWAP2 SWAP1 POP JUMP JUMPDEST PUSH1 0x0 PUSH3 0x24B DUP3 PUSH3 0x22A JUMP JUMPDEST SWAP1 POP SWAP2 SWAP1 POP JUMP JUMPDEST PUSH3 0x25D DUP2 PUSH3 0x23E JUMP JUMPDEST DUP2 EQ PUSH3 0x269 JUMPI PUSH1 0x0 DUP1 REVERT JUMPDEST POP JUMP JUMPDEST PUSH1 0x0 DUP2 MLOAD SWAP1 POP PUSH3 0x27D DUP2 PUSH3 0x252 JUMP JUMPDEST SWAP3 SWAP2 POP POP JUMP JUMPDEST PUSH1 0x0 PUSH1 0x20 DUP3 DUP5 SUB SLT ISZERO PUSH3 0x29C JUMPI PUSH3 0x29B PUSH3 0x205 JUMP JUMPDEST JUMPDEST PUSH1 0x0 PUSH3 0x2AC DUP5 DUP3 DUP6 ADD PUSH3 0x26C JUMP JUMPDEST SWAP2 POP POP SWAP3 SWAP2 POP POP JUMP JUMPDEST PUSH3 0x2C0 DUP2 PUSH3 0x22A JUMP JUMPDEST DUP2 EQ PUSH3 0x2CC JUMPI PUSH1 0x0 DUP1 REVERT JUMPDEST POP JUMP JUMPDEST PUSH1 0x0 DUP2 MLOAD SWAP1 POP PUSH3 0x2E0 DUP2 PUSH3 0x2B5 JUMP JUMPDEST SWAP3 SWAP2 POP POP JUMP JUMPDEST PUSH1 0x0 PUSH1 0x20 DUP3 DUP5 SUB SLT ISZERO PUSH3 0x2FF JUMPI PUSH3 0x2FE PUSH3 0x205 JUMP JUMPDEST JUMPDEST PUSH1 0x0 PUSH3 0x30F DUP5 DUP3 DUP6 ADD PUSH3 0x2CF JUMP JUMPDEST SWAP2 POP POP SWAP3 SWAP2 POP POP JUMP JUMPDEST PUSH1 0x80 MLOAD PUSH1 0xA0 MLOAD PUSH2 0xC86 PUSH3 0x34C PUSH1 0x0 CODECOPY PUSH1 0x0 DUP2 DUP2 PUSH2 0x1A1 ADD MSTORE DUP2 DUP2 PUSH2 0x2BB ADD MSTORE PUSH2 0x376 ADD MSTORE PUSH1 0x0 PUSH2 0x150 ADD MSTORE PUSH2 0xC86 PUSH1 0x0 RETURN INVALID PUSH1 0x80 PUSH1 0x40 MSTORE CALLVALUE DUP1 ISZERO PUSH2 0x10 JUMPI PUSH1 0x0 DUP1 REVERT JUMPDEST POP PUSH1 0x4 CALLDATASIZE LT PUSH2 0x7D JUMPI PUSH1 0x0 CALLDATALOAD PUSH1 0xE0 SHR DUP1 PUSH4 0x7535D246 GT PUSH2 0x5B JUMPI DUP1 PUSH4 0x7535D246 EQ PUSH2 0xDA JUMPI DUP1 PUSH4 0x763CBBFD EQ PUSH2 0xF8 JUMPI DUP1 PUSH4 0x8DA5CB5B EQ PUSH2 0x114 JUMPI DUP1 PUSH4 0xF2FDE38B EQ PUSH2 0x132 JUMPI PUSH2 0x7D JUMP JUMPDEST DUP1 PUSH4 0x542975C EQ PUSH2 0x82 JUMPI DUP1 PUSH4 0x1B11D0FF EQ PUSH2 0xA0 JUMPI DUP1 PUSH4 0x715018A6 EQ PUSH2 0xD0 JUMPI JUMPDEST PUSH1 0x0 DUP1 REVERT JUMPDEST PUSH2 0x8A PUSH2 0x14E JUMP JUMPDEST PUSH1 0x40 MLOAD PUSH2 0x97 SWAP2 SWAP1 PUSH2 0x67A JUMP JUMPDEST PUSH1 0x40 MLOAD DUP1 SWAP2 SUB SWAP1 RETURN JUMPDEST PUSH2 0xBA PUSH1 0x4 DUP1 CALLDATASIZE SUB DUP2 ADD SWAP1 PUSH2 0xB5 SWAP2 SWAP1 PUSH2 0x778 JUMP JUMPDEST PUSH2 0x172 JUMP JUMPDEST PUSH1 0x40 MLOAD PUSH2 0xC7 SWAP2 SWAP1 PUSH2 0x82D JUMP JUMPDEST PUSH1 0x40 MLOAD DUP1 SWAP2 SUB SWAP1 RETURN JUMPDEST PUSH2 0xD8 PUSH2 0x231 JUMP JUMPDEST STOP JUMPDEST PUSH2 0xE2 PUSH2 0x2B9 JUMP JUMPDEST PUSH1 0x40 MLOAD PUSH2 0xEF SWAP2 SWAP1 PUSH2 0x869 JUMP JUMPDEST PUSH1 0x40 MLOAD DUP1 SWAP2 SUB SWAP1 RETURN JUMPDEST PUSH2 0x112 PUSH1 0x4 DUP1 CALLDATASIZE SUB DUP2 ADD SWAP1 PUSH2 0x10D SWAP2 SWAP1 PUSH2 0x884 JUMP JUMPDEST PUSH2 0x2DD JUMP JUMPDEST STOP JUMPDEST PUSH2 0x11C PUSH2 0x40E JUMP JUMPDEST PUSH1 0x40 MLOAD PUSH2 0x129 SWAP2 SWAP1 PUSH2 0x8D3 JUMP JUMPDEST PUSH1 0x40 MLOAD DUP1 SWAP2 SUB SWAP1 RETURN JUMPDEST PUSH2 0x14C PUSH1 0x4 DUP1 CALLDATASIZE SUB DUP2 ADD SWAP1 PUSH2 0x147 SWAP2 SWAP1 PUSH2 0x8EE JUMP JUMPDEST PUSH2 0x437 JUMP JUMPDEST STOP JUMPDEST PUSH32 0x0 DUP2 JUMP JUMPDEST PUSH1 0x0 DUP1 DUP6 DUP8 PUSH2 0x181 SWAP2 SWAP1 PUSH2 0x94A JUMP JUMPDEST SWAP1 POP DUP8 PUSH20 0xFFFFFFFFFFFFFFFFFFFFFFFFFFFFFFFFFFFFFFFF AND PUSH4 0x95EA7B3 PUSH32 0x0 DUP4 PUSH1 0x40 MLOAD DUP4 PUSH4 0xFFFFFFFF AND PUSH1 0xE0 SHL DUP2 MSTORE PUSH1 0x4 ADD PUSH2 0x1DE SWAP3 SWAP2 SWAP1 PUSH2 0x9AF JUMP JUMPDEST PUSH1 0x20 PUSH1 0x40 MLOAD DUP1 DUP4 SUB DUP2 PUSH1 0x0 DUP8 GAS CALL ISZERO DUP1 ISZERO PUSH2 0x1FD JUMPI RETURNDATASIZE PUSH1 0x0 DUP1 RETURNDATACOPY RETURNDATASIZE PUSH1 0x0 REVERT JUMPDEST POP POP POP POP PUSH1 0x40 MLOAD RETURNDATASIZE PUSH1 0x1F NOT PUSH1 0x1F DUP3 ADD AND DUP3 ADD DUP1 PUSH1 0x40 MSTORE POP DUP2 ADD SWAP1 PUSH2 0x221 SWAP2 SWAP1 PUSH2 0xA04 JUMP JUMPDEST POP PUSH1 0x1 SWAP2 POP POP SWAP7 SWAP6 POP POP POP POP POP POP JUMP JUMPDEST PUSH2 0x239 PUSH2 0x52F JUMP JUMPDEST PUSH20 0xFFFFFFFFFFFFFFFFFFFFFFFFFFFFFFFFFFFFFFFF AND PUSH2 0x257 PUSH2 0x40E JUMP JUMPDEST PUSH20 0xFFFFFFFFFFFFFFFFFFFFFFFFFFFFFFFFFFFFFFFF AND EQ PUSH2 0x2AD JUMPI PUSH1 0x40 MLOAD PUSH32 0x8C379A000000000000000000000000000000000000000000000000000000000 DUP2 MSTORE PUSH1 0x4 ADD PUSH2 0x2A4 SWAP1 PUSH2 0xA8E JUMP JUMPDEST PUSH1 0x40 MLOAD DUP1 SWAP2 SUB SWAP1 REVERT JUMPDEST PUSH2 0x2B7 PUSH1 0x0 PUSH2 0x537 JUMP JUMPDEST JUMP JUMPDEST PUSH32 0x0 DUP2 JUMP JUMPDEST PUSH2 0x2E5 PUSH2 0x52F JUMP JUMPDEST PUSH20 0xFFFFFFFFFFFFFFFFFFFFFFFFFFFFFFFFFFFFFFFF AND PUSH2 0x303 PUSH2 0x40E JUMP JUMPDEST PUSH20 0xFFFFFFFFFFFFFFFFFFFFFFFFFFFFFFFFFFFFFFFF AND EQ PUSH2 0x359 JUMPI PUSH1 0x40 MLOAD PUSH32 0x8C379A000000000000000000000000000000000000000000000000000000000 DUP2 MSTORE PUSH1 0x4 ADD PUSH2 0x350 SWAP1 PUSH2 0xA8E JUMP JUMPDEST PUSH1 0x40 MLOAD DUP1 SWAP2 SUB SWAP1 REVERT JUMPDEST PUSH1 0x0 ADDRESS SWAP1 POP PUSH1 0x0 PUSH1 0x40 MLOAD DUP1 PUSH1 0x20 ADD PUSH1 0x40 MSTORE DUP1 PUSH1 0x0 DUP2 MSTORE POP SWAP1 POP PUSH1 0x0 PUSH32 0x0 PUSH20 0xFFFFFFFFFFFFFFFFFFFFFFFFFFFFFFFFFFFFFFFF AND PUSH4 0x42B0B77C DUP5 DUP8 DUP8 DUP7 DUP7 PUSH1 0x40 MLOAD DUP7 PUSH4 0xFFFFFFFF AND PUSH1 0xE0 SHL DUP2 MSTORE PUSH1 0x4 ADD PUSH2 0x3D5 SWAP6 SWAP5 SWAP4 SWAP3 SWAP2 SWAP1 PUSH2 0xB64 JUMP JUMPDEST PUSH1 0x0 PUSH1 0x40 MLOAD DUP1 DUP4 SUB DUP2 PUSH1 0x0 DUP8 DUP1 EXTCODESIZE ISZERO DUP1 ISZERO PUSH2 0x3EF JUMPI PUSH1 0x0 DUP1 REVERT JUMPDEST POP GAS CALL ISZERO DUP1 ISZERO PUSH2 0x403 JUMPI RETURNDATASIZE PUSH1 0x0 DUP1 RETURNDATACOPY RETURNDATASIZE PUSH1 0x0 REVERT JUMPDEST POP POP POP POP POP POP POP POP POP JUMP JUMPDEST PUSH1 0x0 DUP1 PUSH1 0x0 SWAP1 SLOAD SWAP1 PUSH2 0x100 EXP SWAP1 DIV PUSH20 0xFFFFFFFFFFFFFFFFFFFFFFFFFFFFFFFFFFFFFFFF AND SWAP1 POP SWAP1 JUMP JUMPDEST PUSH2 0x43F PUSH2 0x52F JUMP JUMPDEST PUSH20 0xFFFFFFFFFFFFFFFFFFFFFFFFFFFFFFFFFFFFFFFF AND PUSH2 0x45D PUSH2 0x40E JUMP JUMPDEST PUSH20 0xFFFFFFFFFFFFFFFFFFFFFFFFFFFFFFFFFFFFFFFF AND EQ PUSH2 0x4B3 JUMPI PUSH1 0x40 MLOAD PUSH32 0x8C379A000000000000000000000000000000000000000000000000000000000 DUP2 MSTORE PUSH1 0x4 ADD PUSH2 0x4AA SWAP1 PUSH2 0xA8E JUMP JUMPDEST PUSH1 0x40 MLOAD DUP1 SWAP2 SUB SWAP1 REVERT JUMPDEST PUSH1 0x0 PUSH20 0xFFFFFFFFFFFFFFFFFFFFFFFFFFFFFFFFFFFFFFFF AND DUP2 PUSH20 0xFFFFFFFFFFFFFFFFFFFFFFFFFFFFFFFFFFFFFFFF AND EQ ISZERO PUSH2 0x523 JUMPI PUSH1 0x40 MLOAD PUSH32 0x8C379A000000000000000000000000000000000000000000000000000000000 DUP2 MSTORE PUSH1 0x4 ADD PUSH2 0x51A SWAP1 PUSH2 0xC30 JUMP JUMPDEST PUSH1 0x40 MLOAD DUP1 SWAP2 SUB SWAP1 REVERT JUMPDEST PUSH2 0x52C DUP2 PUSH2 0x537 JUMP JUMPDEST POP JUMP JUMPDEST PUSH1 0x0 CALLER SWAP1 POP SWAP1 JUMP JUMPDEST PUSH1 0x0 DUP1 PUSH1 0x0 SWAP1 SLOAD SWAP1 PUSH2 0x100 EXP SWAP1 DIV PUSH20 0xFFFFFFFFFFFFFFFFFFFFFFFFFFFFFFFFFFFFFFFF AND SWAP1 POP DUP2 PUSH1 0x0 DUP1 PUSH2 0x100 EXP DUP2 SLOAD DUP2 PUSH20 0xFFFFFFFFFFFFFFFFFFFFFFFFFFFFFFFFFFFFFFFF MUL NOT AND SWAP1 DUP4 PUSH20 0xFFFFFFFFFFFFFFFFFFFFFFFFFFFFFFFFFFFFFFFF AND MUL OR SWAP1 SSTORE POP DUP2 PUSH20 0xFFFFFFFFFFFFFFFFFFFFFFFFFFFFFFFFFFFFFFFF AND DUP2 PUSH20 0xFFFFFFFFFFFFFFFFFFFFFFFFFFFFFFFFFFFFFFFF AND PUSH32 0x8BE0079C531659141344CD1FD0A4F28419497F9722A3DAAFE3B4186F6B6457E0 PUSH1 0x40 MLOAD PUSH1 0x40 MLOAD DUP1 SWAP2 SUB SWAP1 LOG3 POP POP JUMP JUMPDEST PUSH1 0x0 PUSH20 0xFFFFFFFFFFFFFFFFFFFFFFFFFFFFFFFFFFFFFFFF DUP3 AND SWAP1 POP SWAP2 SWAP1 POP JUMP JUMPDEST PUSH1 0x0 DUP2 SWAP1 POP SWAP2 SWAP1 POP JUMP JUMPDEST PUSH1 0x0 PUSH2 0x640 PUSH2 0x63B PUSH2 0x636 DUP5 PUSH2 0x5FB JUMP JUMPDEST PUSH2 0x61B JUMP JUMPDEST PUSH2 0x5FB JUMP JUMPDEST SWAP1 POP SWAP2 SWAP1 POP JUMP JUMPDEST PUSH1 0x0 PUSH2 0x652 DUP3 PUSH2 0x625 JUMP JUMPDEST SWAP1 POP SWAP2 SWAP1 POP JUMP JUMPDEST PUSH1 0x0 PUSH2 0x664 DUP3 PUSH2 0x647 JUMP JUMPDEST SWAP1 POP SWAP2 SWAP1 POP JUMP JUMPDEST PUSH2 0x674 DUP2 PUSH2 0x659 JUMP JUMPDEST DUP3 MSTORE POP POP JUMP JUMPDEST PUSH1 0x0 PUSH1 0x20 DUP3 ADD SWAP1 POP PUSH2 0x68F PUSH1 0x0 DUP4 ADD DUP5 PUSH2 0x66B JUMP JUMPDEST SWAP3 SWAP2 POP POP JUMP JUMPDEST PUSH1 0x0 DUP1 REVERT JUMPDEST PUSH1 0x0 DUP1 REVERT JUMPDEST PUSH1 0x0 PUSH2 0x6AA DUP3 PUSH2 0x5FB JUMP JUMPDEST SWAP1 POP SWAP2 SWAP1 POP JUMP JUMPDEST PUSH2 0x6BA DUP2 PUSH2 0x69F JUMP JUMPDEST DUP2 EQ PUSH2 0x6C5 JUMPI PUSH1 0x0 DUP1 REVERT JUMPDEST POP JUMP JUMPDEST PUSH1 0x0 DUP2 CALLDATALOAD SWAP1 POP PUSH2 0x6D7 DUP2 PUSH2 0x6B1 JUMP JUMPDEST SWAP3 SWAP2 POP POP JUMP JUMPDEST PUSH1 0x0 DUP2 SWAP1 POP SWAP2 SWAP1 POP JUMP JUMPDEST PUSH2 0x6F0 DUP2 PUSH2 0x6DD JUMP JUMPDEST DUP2 EQ PUSH2 0x6FB JUMPI PUSH1 0x0 DUP1 REVERT JUMPDEST POP JUMP JUMPDEST PUSH1 0x0 DUP2 CALLDATALOAD SWAP1 POP PUSH2 0x70D DUP2 PUSH2 0x6E7 JUMP JUMPDEST SWAP3 SWAP2 POP POP JUMP JUMPDEST PUSH1 0x0 DUP1 REVERT JUMPDEST PUSH1 0x0 DUP1 REVERT JUMPDEST PUSH1 0x0 DUP1 REVERT JUMPDEST PUSH1 0x0 DUP1 DUP4 PUSH1 0x1F DUP5 ADD SLT PUSH2 0x738 JUMPI PUSH2 0x737 PUSH2 0x713 JUMP JUMPDEST JUMPDEST DUP3 CALLDATALOAD SWAP1 POP PUSH8 0xFFFFFFFFFFFFFFFF DUP2 GT ISZERO PUSH2 0x755 JUMPI PUSH2 0x754 PUSH2 0x718 JUMP JUMPDEST JUMPDEST PUSH1 0x20 DUP4 ADD SWAP2 POP DUP4 PUSH1 0x1 DUP3 MUL DUP4 ADD GT ISZERO PUSH2 0x771 JUMPI PUSH2 0x770 PUSH2 0x71D JUMP JUMPDEST JUMPDEST SWAP3 POP SWAP3 SWAP1 POP JUMP JUMPDEST PUSH1 0x0 DUP1 PUSH1 0x0 DUP1 PUSH1 0x0 DUP1 PUSH1 0xA0 DUP8 DUP10 SUB SLT ISZERO PUSH2 0x795 JUMPI PUSH2 0x794 PUSH2 0x695 JUMP JUMPDEST JUMPDEST PUSH1 0x0 PUSH2 0x7A3 DUP10 DUP3 DUP11 ADD PUSH2 0x6C8 JUMP JUMPDEST SWAP7 POP POP PUSH1 0x20 PUSH2 0x7B4 DUP10 DUP3 DUP11 ADD PUSH2 0x6FE JUMP JUMPDEST SWAP6 POP POP PUSH1 0x40 PUSH2 0x7C5 DUP10 DUP3 DUP11 ADD PUSH2 0x6FE JUMP JUMPDEST SWAP5 POP POP PUSH1 0x60 PUSH2 0x7D6 DUP10 DUP3 DUP11 ADD PUSH2 0x6C8 JUMP JUMPDEST SWAP4 POP POP PUSH1 0x80 DUP8 ADD CALLDATALOAD PUSH8 0xFFFFFFFFFFFFFFFF DUP2 GT ISZERO PUSH2 0x7F7 JUMPI PUSH2 0x7F6 PUSH2 0x69A JUMP JUMPDEST JUMPDEST PUSH2 0x803 DUP10 DUP3 DUP11 ADD PUSH2 0x722 JUMP JUMPDEST SWAP3 POP SWAP3 POP POP SWAP3 SWAP6 POP SWAP3 SWAP6 POP SWAP3 SWAP6 JUMP JUMPDEST PUSH1 0x0 DUP2 ISZERO ISZERO SWAP1 POP SWAP2 SWAP1 POP JUMP JUMPDEST PUSH2 0x827 DUP2 PUSH2 0x812 JUMP JUMPDEST DUP3 MSTORE POP POP JUMP JUMPDEST PUSH1 0x0 PUSH1 0x20 DUP3 ADD SWAP1 POP PUSH2 0x842 PUSH1 0x0 DUP4 ADD DUP5 PUSH2 0x81E JUMP JUMPDEST SWAP3 SWAP2 POP POP JUMP JUMPDEST PUSH1 0x0 PUSH2 0x853 DUP3 PUSH2 0x647 JUMP JUMPDEST SWAP1 POP SWAP2 SWAP1 POP JUMP JUMPDEST PUSH2 0x863 DUP2 PUSH2 0x848 JUMP JUMPDEST DUP3 MSTORE POP POP JUMP JUMPDEST PUSH1 0x0 PUSH1 0x20 DUP3 ADD SWAP1 POP PUSH2 0x87E PUSH1 0x0 DUP4 ADD DUP5 PUSH2 0x85A JUMP JUMPDEST SWAP3 SWAP2 POP POP JUMP JUMPDEST PUSH1 0x0 DUP1 PUSH1 0x40 DUP4 DUP6 SUB SLT ISZERO PUSH2 0x89B JUMPI PUSH2 0x89A PUSH2 0x695 JUMP JUMPDEST JUMPDEST PUSH1 0x0 PUSH2 0x8A9 DUP6 DUP3 DUP7 ADD PUSH2 0x6C8 JUMP JUMPDEST SWAP3 POP POP PUSH1 0x20 PUSH2 0x8BA DUP6 DUP3 DUP7 ADD PUSH2 0x6FE JUMP JUMPDEST SWAP2 POP POP SWAP3 POP SWAP3 SWAP1 POP JUMP JUMPDEST PUSH2 0x8CD DUP2 PUSH2 0x69F JUMP JUMPDEST DUP3 MSTORE POP POP JUMP JUMPDEST PUSH1 0x0 PUSH1 0x20 DUP3 ADD SWAP1 POP PUSH2 0x8E8 PUSH1 0x0 DUP4 ADD DUP5 PUSH2 0x8C4 JUMP JUMPDEST SWAP3 SWAP2 POP POP JUMP JUMPDEST PUSH1 0x0 PUSH1 0x20 DUP3 DUP5 SUB SLT ISZERO PUSH2 0x904 JUMPI PUSH2 0x903 PUSH2 0x695 JUMP JUMPDEST JUMPDEST PUSH1 0x0 PUSH2 0x912 DUP5 DUP3 DUP6 ADD PUSH2 0x6C8 JUMP JUMPDEST SWAP2 POP POP SWAP3 SWAP2 POP POP JUMP JUMPDEST PUSH32 0x4E487B7100000000000000000000000000000000000000000000000000000000 PUSH1 0x0 MSTORE PUSH1 0x11 PUSH1 0x4 MSTORE PUSH1 0x24 PUSH1 0x0 REVERT JUMPDEST PUSH1 0x0 PUSH2 0x955 DUP3 PUSH2 0x6DD JUMP JUMPDEST SWAP2 POP PUSH2 0x960 DUP4 PUSH2 0x6DD JUMP JUMPDEST SWAP3 POP DUP3 PUSH32 0xFFFFFFFFFFFFFFFFFFFFFFFFFFFFFFFFFFFFFFFFFFFFFFFFFFFFFFFFFFFFFFFF SUB DUP3 GT ISZERO PUSH2 0x995 JUMPI PUSH2 0x994 PUSH2 0x91B JUMP JUMPDEST JUMPDEST DUP3 DUP3 ADD SWAP1 POP SWAP3 SWAP2 POP POP JUMP JUMPDEST PUSH2 0x9A9 DUP2 PUSH2 0x6DD JUMP JUMPDEST DUP3 MSTORE POP POP JUMP JUMPDEST PUSH1 0x0 PUSH1 0x40 DUP3 ADD SWAP1 POP PUSH2 0x9C4 PUSH1 0x0 DUP4 ADD DUP6 PUSH2 0x8C4 JUMP JUMPDEST PUSH2 0x9D1 PUSH1 0x20 DUP4 ADD DUP5 PUSH2 0x9A0 JUMP JUMPDEST SWAP4 SWAP3 POP POP POP JUMP JUMPDEST PUSH2 0x9E1 DUP2 PUSH2 0x812 JUMP JUMPDEST DUP2 EQ PUSH2 0x9EC JUMPI PUSH1 0x0 DUP1 REVERT JUMPDEST POP JUMP JUMPDEST PUSH1 0x0 DUP2 MLOAD SWAP1 POP PUSH2 0x9FE DUP2 PUSH2 0x9D8 JUMP JUMPDEST SWAP3 SWAP2 POP POP JUMP JUMPDEST PUSH1 0x0 PUSH1 0x20 DUP3 DUP5 SUB SLT ISZERO PUSH2 0xA1A JUMPI PUSH2 0xA19 PUSH2 0x695 JUMP JUMPDEST JUMPDEST PUSH1 0x0 PUSH2 0xA28 DUP5 DUP3 DUP6 ADD PUSH2 0x9EF JUMP JUMPDEST SWAP2 POP POP SWAP3 SWAP2 POP POP JUMP JUMPDEST PUSH1 0x0 DUP3 DUP3 MSTORE PUSH1 0x20 DUP3 ADD SWAP1 POP SWAP3 SWAP2 POP POP JUMP JUMPDEST PUSH32 0x4F776E61626C653A2063616C6C6572206973206E6F7420746865206F776E6572 PUSH1 0x0 DUP3 ADD MSTORE POP JUMP JUMPDEST PUSH1 0x0 PUSH2 0xA78 PUSH1 0x20 DUP4 PUSH2 0xA31 JUMP JUMPDEST SWAP2 POP PUSH2 0xA83 DUP3 PUSH2 0xA42 JUMP JUMPDEST PUSH1 0x20 DUP3 ADD SWAP1 POP SWAP2 SWAP1 POP JUMP JUMPDEST PUSH1 0x0 PUSH1 0x20 DUP3 ADD SWAP1 POP DUP2 DUP2 SUB PUSH1 0x0 DUP4 ADD MSTORE PUSH2 0xAA7 DUP2 PUSH2 0xA6B JUMP JUMPDEST SWAP1 POP SWAP2 SWAP1 POP JUMP JUMPDEST PUSH1 0x0 DUP2 MLOAD SWAP1 POP SWAP2 SWAP1 POP JUMP JUMPDEST PUSH1 0x0 DUP3 DUP3 MSTORE PUSH1 0x20 DUP3 ADD SWAP1 POP SWAP3 SWAP2 POP POP JUMP JUMPDEST PUSH1 0x0 JUMPDEST DUP4 DUP2 LT ISZERO PUSH2 0xAE8 JUMPI DUP1 DUP3 ADD MLOAD DUP2 DUP5 ADD MSTORE PUSH1 0x20 DUP2 ADD SWAP1 POP PUSH2 0xACD JUMP JUMPDEST DUP4 DUP2 GT ISZERO PUSH2 0xAF7 JUMPI PUSH1 0x0 DUP5 DUP5 ADD MSTORE JUMPDEST POP POP POP POP JUMP JUMPDEST PUSH1 0x0 PUSH1 0x1F NOT PUSH1 0x1F DUP4 ADD AND SWAP1 POP SWAP2 SWAP1 POP JUMP JUMPDEST PUSH1 0x0 PUSH2 0xB19 DUP3 PUSH2 0xAAE JUMP JUMPDEST PUSH2 0xB23 DUP2 DUP6 PUSH2 0xAB9 JUMP JUMPDEST SWAP4 POP PUSH2 0xB33 DUP2 DUP6 PUSH1 0x20 DUP7 ADD PUSH2 0xACA JUMP JUMPDEST PUSH2 0xB3C DUP2 PUSH2 0xAFD JUMP JUMPDEST DUP5 ADD SWAP2 POP POP SWAP3 SWAP2 POP POP JUMP JUMPDEST PUSH1 0x0 PUSH2 0xFFFF DUP3 AND SWAP1 POP SWAP2 SWAP1 POP JUMP JUMPDEST PUSH2 0xB5E DUP2 PUSH2 0xB47 JUMP JUMPDEST DUP3 MSTORE POP POP JUMP JUMPDEST PUSH1 0x0 PUSH1 0xA0 DUP3 ADD SWAP1 POP PUSH2 0xB79 PUSH1 0x0 DUP4 ADD DUP9 PUSH2 0x8C4 JUMP JUMPDEST PUSH2 0xB86 PUSH1 0x20 DUP4 ADD DUP8 PUSH2 0x8C4 JUMP JUMPDEST PUSH2 0xB93 PUSH1 0x40 DUP4 ADD DUP7 PUSH2 0x9A0 JUMP JUMPDEST DUP2 DUP2 SUB PUSH1 0x60 DUP4 ADD MSTORE PUSH2 0xBA5 DUP2 DUP6 PUSH2 0xB0E JUMP JUMPDEST SWAP1 POP PUSH2 0xBB4 PUSH1 0x80 DUP4 ADD DUP5 PUSH2 0xB55 JUMP JUMPDEST SWAP7 SWAP6 POP POP POP POP POP POP JUMP JUMPDEST PUSH32 0x4F776E61626C653A206E6577206F776E657220697320746865207A65726F2061 PUSH1 0x0 DUP3 ADD MSTORE PUSH32 0x6464726573730000000000000000000000000000000000000000000000000000 PUSH1 0x20 DUP3 ADD MSTORE POP JUMP JUMPDEST PUSH1 0x0 PUSH2 0xC1A PUSH1 0x26 DUP4 PUSH2 0xA31 JUMP JUMPDEST SWAP2 POP PUSH2 0xC25 DUP3 PUSH2 0xBBE JUMP JUMPDEST PUSH1 0x40 DUP3 ADD SWAP1 POP SWAP2 SWAP1 POP JUMP JUMPDEST PUSH1 0x0 PUSH1 0x20 DUP3 ADD SWAP1 POP DUP2 DUP2 SUB PUSH1 0x0 DUP4 ADD MSTORE PUSH2 0xC49 DUP2 PUSH2 0xC0D JUMP JUMPDEST SWAP1 POP SWAP2 SWAP1 POP JUMP INVALID LOG2 PUSH5 0x6970667358 0x22 SLT KECCAK256 0x4E ADDMOD MSIZE 0xAE STOP MUL PUSH26 0xDE5DE7F6744BF426BA862B16D0AC0879CA7220BF3D8A58035264 PUSH20 0x6F6C634300080A00330000000000000000000000 "
		},
		"gasEstimates": {
			"creation": {
				"codeDepositCost": "641200",
				"executionCost": "infinite",
				"totalCost": "infinite"
			},
			"external": {
				"ADDRESSES_PROVIDER()": "infinite",
				"POOL()": "infinite",
				"executeOperation(address,uint256,uint256,address,bytes)": "infinite",
				"owner()": "2566",
				"renounceOwnership()": "30419",
				"startFlashLoan(address,uint256)": "infinite",
				"transferOwnership(address)": "30789"
			}
		},
		"methodIdentifiers": {
			"ADDRESSES_PROVIDER()": "0542975c",
			"POOL()": "7535d246",
			"executeOperation(address,uint256,uint256,address,bytes)": "1b11d0ff",
			"owner()": "8da5cb5b",
			"renounceOwnership()": "715018a6",
			"startFlashLoan(address,uint256)": "763cbbfd",
			"transferOwnership(address)": "f2fde38b"
		}
	},
	"abi": [
		{
			"inputs": [
				{
					"internalType": "contract IPoolAddressesProvider",
					"name": "_address",
					"type": "address"
				}
			],
			"stateMutability": "nonpayable",
			"type": "constructor"
		},
		{
			"anonymous": false,
			"inputs": [
				{
					"indexed": true,
					"internalType": "address",
					"name": "previousOwner",
					"type": "address"
				},
				{
					"indexed": true,
					"internalType": "address",
					"name": "newOwner",
					"type": "address"
				}
			],
			"name": "OwnershipTransferred",
			"type": "event"
		},
		{
			"inputs": [],
			"name": "ADDRESSES_PROVIDER",
			"outputs": [
				{
					"internalType": "contract IPoolAddressesProvider",
					"name": "",
					"type": "address"
				}
			],
			"stateMutability": "view",
			"type": "function"
		},
		{
			"inputs": [],
			"name": "POOL",
			"outputs": [
				{
					"internalType": "contract IPool",
					"name": "",
					"type": "address"
				}
			],
			"stateMutability": "view",
			"type": "function"
		},
		{
			"inputs": [
				{
					"internalType": "address",
					"name": "asset",
					"type": "address"
				},
				{
					"internalType": "uint256",
					"name": "amount",
					"type": "uint256"
				},
				{
					"internalType": "uint256",
					"name": "premium",
					"type": "uint256"
				},
				{
					"internalType": "address",
					"name": "initiator",
					"type": "address"
				},
				{
					"internalType": "bytes",
					"name": "params",
					"type": "bytes"
				}
			],
			"name": "executeOperation",
			"outputs": [
				{
					"internalType": "bool",
					"name": "",
					"type": "bool"
				}
			],
			"stateMutability": "nonpayable",
			"type": "function"
		},
		{
			"inputs": [],
			"name": "owner",
			"outputs": [
				{
					"internalType": "address",
					"name": "",
					"type": "address"
				}
			],
			"stateMutability": "view",
			"type": "function"
		},
		{
			"inputs": [],
			"name": "renounceOwnership",
			"outputs": [],
			"stateMutability": "nonpayable",
			"type": "function"
		},
		{
			"inputs": [
				{
					"internalType": "address",
					"name": "asset",
					"type": "address"
				},
				{
					"internalType": "uint256",
					"name": "amount",
					"type": "uint256"
				}
			],
			"name": "startFlashLoan",
			"outputs": [],
			"stateMutability": "nonpayable",
			"type": "function"
		},
		{
			"inputs": [
				{
					"internalType": "address",
					"name": "newOwner",
					"type": "address"
				}
			],
			"name": "transferOwnership",
			"outputs": [],
			"stateMutability": "nonpayable",
			"type": "function"
		}
	]
}