{
	"Code-hardhat-ethersJs/contracts/AAVETest.sol": {
		"AAVETest": {
			"abi": [
				{
					"inputs": [],
					"stateMutability": "nonpayable",
					"type": "constructor"
				},
				{
					"inputs": [],
					"name": "ADDRESSES_PROVIDER",
					"outputs": [
						{
							"internalType": "contract IPoolAddressesProvider",
							"name": "",
							"type": "address"
						}
					],
					"stateMutability": "view",
					"type": "function"
				},
				{
					"inputs": [],
					"name": "POOL",
					"outputs": [
						{
							"internalType": "contract IPool",
							"name": "",
							"type": "address"
						}
					],
					"stateMutability": "view",
					"type": "function"
				},
				{
					"inputs": [
						{
							"internalType": "address",
							"name": "asset",
							"type": "address"
						},
						{
							"internalType": "uint256",
							"name": "amount",
							"type": "uint256"
						},
						{
							"internalType": "uint256",
							"name": "premium",
							"type": "uint256"
						},
						{
							"internalType": "address",
							"name": "initiator",
							"type": "address"
						},
						{
							"internalType": "bytes",
							"name": "params",
							"type": "bytes"
						}
					],
					"name": "executeOperation",
					"outputs": [
						{
							"internalType": "bool",
							"name": "",
							"type": "bool"
						}
					],
					"stateMutability": "nonpayable",
					"type": "function"
				},
				{
					"inputs": [
						{
							"internalType": "address",
							"name": "asset",
							"type": "address"
						},
						{
							"internalType": "uint256",
							"name": "_amount",
							"type": "uint256"
						}
					],
					"name": "testAAVE",
					"outputs": [],
					"stateMutability": "nonpayable",
					"type": "function"
				},
				{
					"inputs": [
						{
							"internalType": "address",
							"name": "asset",
							"type": "address"
						},
						{
							"internalType": "uint256",
							"name": "amount",
							"type": "uint256"
						}
					],
					"name": "testAAVESimple",
					"outputs": [],
					"stateMutability": "nonpayable",
					"type": "function"
				}
			],
			"devdoc": {
				"kind": "dev",
				"methods": {
					"executeOperation(address,uint256,uint256,address,bytes)": {
						"details": "Ensure that the contract can return the debt + premium, e.g., has      enough funds to repay and has approved the Pool to pull the total amount",
						"params": {
							"amount": "The amount of the flash-borrowed asset",
							"asset": "The address of the flash-borrowed asset",
							"initiator": "The address of the flashloan initiator",
							"params": "The byte-encoded params passed when initiating the flashloan",
							"premium": "The fee of the flash-borrowed asset"
						},
						"returns": {
							"_0": "True if the execution of the operation succeeds, false otherwise"
						}
					}
				},
				"version": 1
			},
			"evm": {
				"assembly": "    /* \"Code-hardhat-ethersJs/contracts/AAVETest.sol\":768:6594  contract AAVETest is IFlashLoanSimpleReceiver {... */\n  mstore(0x40, 0xc0)\n    /* \"Code-hardhat-ethersJs/contracts/AAVETest.sol\":916:958  0x7a250d5630B4cF539739dF2C5dAcb4c659F2488D */\n  0x7a250d5630b4cf539739df2c5dacb4c659f2488d\n    /* \"Code-hardhat-ethersJs/contracts/AAVETest.sol\":881:958  address UniswapV2Router02address = 0x7a250d5630B4cF539739dF2C5dAcb4c659F2488D */\n  0x00\n  dup1\n  0x0100\n  exp\n  dup2\n  sload\n  dup2\n  0xffffffffffffffffffffffffffffffffffffffff\n  mul\n  not\n  and\n  swap1\n  dup4\n  0xffffffffffffffffffffffffffffffffffffffff\n  and\n  mul\n  or\n  swap1\n  sstore\n  pop\n    /* \"Code-hardhat-ethersJs/contracts/AAVETest.sol\":998:1040  0x5C69bEe701ef814a2B6a3EDD4B1652CB9cc5aA6f */\n  0x5c69bee701ef814a2b6a3edd4b1652cb9cc5aa6f\n    /* \"Code-hardhat-ethersJs/contracts/AAVETest.sol\":964:1040  address UniswapV2Factoryaddress = 0x5C69bEe701ef814a2B6a3EDD4B1652CB9cc5aA6f */\n  0x01\n  exp(0x0100, 0x00)\n  dup2\n  sload\n  dup2\n  0xffffffffffffffffffffffffffffffffffffffff\n  mul\n  not\n  and\n  swap1\n  dup4\n  0xffffffffffffffffffffffffffffffffffffffff\n  and\n  mul\n  or\n  swap1\n  sstore\n  pop\n    /* \"Code-hardhat-ethersJs/contracts/AAVETest.sol\":1072:1114  0xC36442b4a4522E871399CD717aBDD847Ab11FE88 */\n  0xc36442b4a4522e871399cd717abdd847ab11fe88\n    /* \"Code-hardhat-ethersJs/contracts/AAVETest.sol\":1046:1114  address UNIV3POSaddress = 0xC36442b4a4522E871399CD717aBDD847Ab11FE88 */\n  0x02\n  exp(0x0100, 0x00)\n  dup2\n  sload\n  dup2\n  0xffffffffffffffffffffffffffffffffffffffff\n  mul\n  not\n  and\n  swap1\n  dup4\n  0xffffffffffffffffffffffffffffffffffffffff\n  and\n  mul\n  or\n  swap1\n  sstore\n  pop\n    /* \"Code-hardhat-ethersJs/contracts/AAVETest.sol\":1154:1196  0x1F98431c8aD98523631AE4a59f267346ea31F984 */\n  0x1f98431c8ad98523631ae4a59f267346ea31f984\n    /* \"Code-hardhat-ethersJs/contracts/AAVETest.sol\":1120:1196  address UniswapV3Factoryaddress = 0x1F98431c8aD98523631AE4a59f267346ea31F984 */\n  0x03\n  exp(0x0100, 0x00)\n  dup2\n  sload\n  dup2\n  0xffffffffffffffffffffffffffffffffffffffff\n  mul\n  not\n  and\n  swap1\n  dup4\n  0xffffffffffffffffffffffffffffffffffffffff\n  and\n  mul\n  or\n  swap1\n  sstore\n  pop\n    /* \"Code-hardhat-ethersJs/contracts/AAVETest.sol\":1232:1274  0x68b3465833fb72A70ecDF485E0e4C7bD8665Fc45 */\n  0x68b3465833fb72a70ecdf485e0e4c7bd8665fc45\n    /* \"Code-hardhat-ethersJs/contracts/AAVETest.sol\":1202:1274  address SwapRouter02address = 0x68b3465833fb72A70ecDF485E0e4C7bD8665Fc45 */\n  0x04\n  exp(0x0100, 0x00)\n  dup2\n  sload\n  dup2\n  0xffffffffffffffffffffffffffffffffffffffff\n  mul\n  not\n  and\n  swap1\n  dup4\n  0xffffffffffffffffffffffffffffffffffffffff\n  and\n  mul\n  or\n  swap1\n  sstore\n  pop\n    /* \"Code-hardhat-ethersJs/contracts/AAVETest.sol\":1317:1359  0xB9b56CE66C63DB98E6CDdacDF910C227294a8840 */\n  0xb9b56ce66c63db98e6cddacdf910c227294a8840\n    /* \"Code-hardhat-ethersJs/contracts/AAVETest.sol\":1296:1359  address MTTaddress = 0xB9b56CE66C63DB98E6CDdacDF910C227294a8840 */\n  0x05\n  exp(0x0100, 0x00)\n  dup2\n  sload\n  dup2\n  0xffffffffffffffffffffffffffffffffffffffff\n  mul\n  not\n  and\n  swap1\n  dup4\n  0xffffffffffffffffffffffffffffffffffffffff\n  and\n  mul\n  or\n  swap1\n  sstore\n  pop\n    /* \"Code-hardhat-ethersJs/contracts/AAVETest.sol\":1387:1429  0x953af320e2bD3041c4e56BB3a30E7f613a1f3C1A */\n  0x953af320e2bd3041c4e56bb3a30e7f613a1f3c1a\n    /* \"Code-hardhat-ethersJs/contracts/AAVETest.sol\":1365:1429  address AAVEaddress = 0x953af320e2bD3041c4e56BB3a30E7f613a1f3C1A */\n  0x06\n  exp(0x0100, 0x00)\n  dup2\n  sload\n  dup2\n  0xffffffffffffffffffffffffffffffffffffffff\n  mul\n  not\n  and\n  swap1\n  dup4\n  0xffffffffffffffffffffffffffffffffffffffff\n  and\n  mul\n  or\n  swap1\n  sstore\n  pop\n    /* \"Code-hardhat-ethersJs/contracts/AAVETest.sol\":1456:1498  0x2Ec4c6fCdBF5F9beECeB1b51848fc2DB1f3a26af */\n  0x2ec4c6fcdbf5f9beeceb1b51848fc2db1f3a26af\n    /* \"Code-hardhat-ethersJs/contracts/AAVETest.sol\":1435:1498  address DAIaddress = 0x2Ec4c6fCdBF5F9beECeB1b51848fc2DB1f3a26af */\n  0x07\n  exp(0x0100, 0x00)\n  dup2\n  sload\n  dup2\n  0xffffffffffffffffffffffffffffffffffffffff\n  mul\n  not\n  and\n  swap1\n  dup4\n  0xffffffffffffffffffffffffffffffffffffffff\n  and\n  mul\n  or\n  swap1\n  sstore\n  pop\n    /* \"Code-hardhat-ethersJs/contracts/AAVETest.sol\":1645:1687  0x91337CcD2eDF1dF2D252f563B27341D52EEdbe78 */\n  0x91337ccd2edf1df2d252f563b27341d52eedbe78\n    /* \"Code-hardhat-ethersJs/contracts/AAVETest.sol\":1620:1687  address UV2Pairaddress = 0x91337CcD2eDF1dF2D252f563B27341D52EEdbe78 */\n  0x08\n  exp(0x0100, 0x00)\n  dup2\n  sload\n  dup2\n  0xffffffffffffffffffffffffffffffffffffffff\n  mul\n  not\n  and\n  swap1\n  dup4\n  0xffffffffffffffffffffffffffffffffffffffff\n  and\n  mul\n  or\n  swap1\n  sstore\n  pop\n    /* \"Code-hardhat-ethersJs/contracts/AAVETest.sol\":1839:1844  10961 */\n  0x2ad1\n    /* \"Code-hardhat-ethersJs/contracts/AAVETest.sol\":1818:1844  uint256 UV3tokenId = 10961 */\n  0x09\n  sstore\n    /* \"Code-hardhat-ethersJs/contracts/AAVETest.sol\":2540:2582  0xA55125A90d75a95EC00130E8E8C197dB5641Eb19 */\n  0xa55125a90d75a95ec00130e8e8c197db5641eb19\n    /* \"Code-hardhat-ethersJs/contracts/AAVETest.sol\":2508:2582  address PoolAddressesProvider = 0xA55125A90d75a95EC00130E8E8C197dB5641Eb19 */\n  0x0a\n  exp(0x0100, 0x00)\n  dup2\n  sload\n  dup2\n  0xffffffffffffffffffffffffffffffffffffffff\n  mul\n  not\n  and\n  swap1\n  dup4\n  0xffffffffffffffffffffffffffffffffffffffff\n  and\n  mul\n  or\n  swap1\n  sstore\n  pop\n    /* \"Code-hardhat-ethersJs/contracts/AAVETest.sol\":2661:2685  UniswapV2Router02address */\n  0x00\n  dup1\n  sload\n  swap1\n  0x0100\n  exp\n  swap1\n  div\n  0xffffffffffffffffffffffffffffffffffffffff\n  and\n    /* \"Code-hardhat-ethersJs/contracts/AAVETest.sol\":2611:2686  IUniswapV2Router02 uv2router = IUniswapV2Router02(UniswapV2Router02address) */\n  0x0b\n  exp(0x0100, 0x00)\n  dup2\n  sload\n  dup2\n  0xffffffffffffffffffffffffffffffffffffffff\n  mul\n  not\n  and\n  swap1\n  dup4\n  0xffffffffffffffffffffffffffffffffffffffff\n  and\n  mul\n  or\n  swap1\n  sstore\n  pop\n    /* \"Code-hardhat-ethersJs/contracts/AAVETest.sol\":2746:2765  SwapRouter02address */\n  0x04\n  0x00\n  swap1\n  sload\n  swap1\n  0x0100\n  exp\n  swap1\n  div\n  0xffffffffffffffffffffffffffffffffffffffff\n  and\n    /* \"Code-hardhat-ethersJs/contracts/AAVETest.sol\":2706:2766  IV3SwapRouter uv3router = IV3SwapRouter(SwapRouter02address) */\n  0x0c\n  exp(0x0100, 0x00)\n  dup2\n  sload\n  dup2\n  0xffffffffffffffffffffffffffffffffffffffff\n  mul\n  not\n  and\n  swap1\n  dup4\n  0xffffffffffffffffffffffffffffffffffffffff\n  and\n  mul\n  or\n  swap1\n  sstore\n  pop\n    /* \"Code-hardhat-ethersJs/contracts/AAVETest.sol\":2847:2857  MTTaddress */\n  0x05\n  0x00\n  swap1\n  sload\n  swap1\n  0x0100\n  exp\n  swap1\n  div\n  0xffffffffffffffffffffffffffffffffffffffff\n  and\n    /* \"Code-hardhat-ethersJs/contracts/AAVETest.sol\":2827:2858  IERC20 MTT = IERC20(MTTaddress) */\n  0x0d\n  exp(0x0100, 0x00)\n  dup2\n  sload\n  dup2\n  0xffffffffffffffffffffffffffffffffffffffff\n  mul\n  not\n  and\n  swap1\n  dup4\n  0xffffffffffffffffffffffffffffffffffffffff\n  and\n  mul\n  or\n  swap1\n  sstore\n  pop\n    /* \"Code-hardhat-ethersJs/contracts/AAVETest.sol\":2885:2896  AAVEaddress */\n  0x06\n  0x00\n  swap1\n  sload\n  swap1\n  0x0100\n  exp\n  swap1\n  div\n  0xffffffffffffffffffffffffffffffffffffffff\n  and\n    /* \"Code-hardhat-ethersJs/contracts/AAVETest.sol\":2864:2897  IERC20 AAVE = IERC20(AAVEaddress) */\n  0x0e\n  exp(0x0100, 0x00)\n  dup2\n  sload\n  dup2\n  0xffffffffffffffffffffffffffffffffffffffff\n  mul\n  not\n  and\n  swap1\n  dup4\n  0xffffffffffffffffffffffffffffffffffffffff\n  and\n  mul\n  or\n  swap1\n  sstore\n  pop\n    /* \"Code-hardhat-ethersJs/contracts/AAVETest.sol\":2923:2926  DAI */\n  0x0f\n  0x00\n  swap1\n  sload\n  swap1\n  0x0100\n  exp\n  swap1\n  div\n  0xffffffffffffffffffffffffffffffffffffffff\n  and\n    /* \"Code-hardhat-ethersJs/contracts/AAVETest.sol\":2903:2927  IERC20 DAI = IERC20(DAI) */\n  0x0f\n  exp(0x0100, 0x00)\n  dup2\n  sload\n  dup2\n  0xffffffffffffffffffffffffffffffffffffffff\n  mul\n  not\n  and\n  swap1\n  dup4\n  0xffffffffffffffffffffffffffffffffffffffff\n  and\n  mul\n  or\n  swap1\n  sstore\n  pop\n    /* \"Code-hardhat-ethersJs/contracts/AAVETest.sol\":3062:3211  constructor() {... */\n  callvalue\n  dup1\n  iszero\n  tag_1\n  jumpi\n  0x00\n  dup1\n  revert\ntag_1:\n  pop\n    /* \"Code-hardhat-ethersJs/contracts/AAVETest.sol\":3130:3151  PoolAddressesProvider */\n  0x0a\n  0x00\n  swap1\n  sload\n  swap1\n  0x0100\n  exp\n  swap1\n  div\n  0xffffffffffffffffffffffffffffffffffffffff\n  and\n    /* \"Code-hardhat-ethersJs/contracts/AAVETest.sol\":3086:3152  ADDRESSES_PROVIDER = IPoolAddressesProvider(PoolAddressesProvider) */\n  0xffffffffffffffffffffffffffffffffffffffff\n  and\n  0x80\n  dup2\n  0xffffffffffffffffffffffffffffffffffffffff\n  and\n  dup2\n  mstore\n  pop\n  pop\n    /* \"Code-hardhat-ethersJs/contracts/AAVETest.sol\":3175:3193  ADDRESSES_PROVIDER */\n  mload(0x80)\n    /* \"Code-hardhat-ethersJs/contracts/AAVETest.sol\":3175:3201  ADDRESSES_PROVIDER.getPool */\n  0xffffffffffffffffffffffffffffffffffffffff\n  and\n  0x026b1d5f\n    /* \"Code-hardhat-ethersJs/contracts/AAVETest.sol\":3175:3203  ADDRESSES_PROVIDER.getPool() */\n  mload(0x40)\n  dup2\n  0xffffffff\n  and\n  0xe0\n  shl\n  dup2\n  mstore\n  0x04\n  add\n  0x20\n  mload(0x40)\n  dup1\n  dup4\n  sub\n  dup2\n  dup7\n  gas\n  staticcall\n  iszero\n  dup1\n  iszero\n  tag_5\n  jumpi\n  returndatasize\n  0x00\n  dup1\n  returndatacopy\n  revert(0x00, returndatasize)\ntag_5:\n  pop\n  pop\n  pop\n  pop\n  mload(0x40)\n  returndatasize\n  not(0x1f)\n  0x1f\n  dup3\n  add\n  and\n  dup3\n  add\n  dup1\n  0x40\n  mstore\n  pop\n  dup2\n  add\n  swap1\n  tag_6\n  swap2\n  swap1\n  tag_7\n  jump\t// in\ntag_6:\n    /* \"Code-hardhat-ethersJs/contracts/AAVETest.sol\":3162:3204  POOL = IPool(ADDRESSES_PROVIDER.getPool()) */\n  0xffffffffffffffffffffffffffffffffffffffff\n  and\n  0xa0\n  dup2\n  0xffffffffffffffffffffffffffffffffffffffff\n  and\n  dup2\n  mstore\n  pop\n  pop\n    /* \"Code-hardhat-ethersJs/contracts/AAVETest.sol\":768:6594  contract AAVETest is IFlashLoanSimpleReceiver {... */\n  jump(tag_8)\n    /* \"#utility.yul\":88:205   */\ntag_10:\n    /* \"#utility.yul\":197:198   */\n  0x00\n    /* \"#utility.yul\":194:195   */\n  dup1\n    /* \"#utility.yul\":187:199   */\n  revert\n    /* \"#utility.yul\":334:460   */\ntag_12:\n    /* \"#utility.yul\":371:378   */\n  0x00\n    /* \"#utility.yul\":411:453   */\n  0xffffffffffffffffffffffffffffffffffffffff\n    /* \"#utility.yul\":404:409   */\n  dup3\n    /* \"#utility.yul\":400:454   */\n  and\n    /* \"#utility.yul\":389:454   */\n  swap1\n  pop\n    /* \"#utility.yul\":334:460   */\n  swap2\n  swap1\n  pop\n  jump\t// out\n    /* \"#utility.yul\":466:562   */\ntag_13:\n    /* \"#utility.yul\":503:510   */\n  0x00\n    /* \"#utility.yul\":532:556   */\n  tag_22\n    /* \"#utility.yul\":550:555   */\n  dup3\n    /* \"#utility.yul\":532:556   */\n  tag_12\n  jump\t// in\ntag_22:\n    /* \"#utility.yul\":521:556   */\n  swap1\n  pop\n    /* \"#utility.yul\":466:562   */\n  swap2\n  swap1\n  pop\n  jump\t// out\n    /* \"#utility.yul\":568:690   */\ntag_14:\n    /* \"#utility.yul\":641:665   */\n  tag_24\n    /* \"#utility.yul\":659:664   */\n  dup2\n    /* \"#utility.yul\":641:665   */\n  tag_13\n  jump\t// in\ntag_24:\n    /* \"#utility.yul\":634:639   */\n  dup2\n    /* \"#utility.yul\":631:666   */\n  eq\n    /* \"#utility.yul\":621:684   */\n  tag_25\n  jumpi\n    /* \"#utility.yul\":680:681   */\n  0x00\n    /* \"#utility.yul\":677:678   */\n  dup1\n    /* \"#utility.yul\":670:682   */\n  revert\n    /* \"#utility.yul\":621:684   */\ntag_25:\n    /* \"#utility.yul\":568:690   */\n  pop\n  jump\t// out\n    /* \"#utility.yul\":696:839   */\ntag_15:\n    /* \"#utility.yul\":753:758   */\n  0x00\n    /* \"#utility.yul\":784:790   */\n  dup2\n    /* \"#utility.yul\":778:791   */\n  mload\n    /* \"#utility.yul\":769:791   */\n  swap1\n  pop\n    /* \"#utility.yul\":800:833   */\n  tag_27\n    /* \"#utility.yul\":827:832   */\n  dup2\n    /* \"#utility.yul\":800:833   */\n  tag_14\n  jump\t// in\ntag_27:\n    /* \"#utility.yul\":696:839   */\n  swap3\n  swap2\n  pop\n  pop\n  jump\t// out\n    /* \"#utility.yul\":845:1196   */\ntag_7:\n    /* \"#utility.yul\":915:921   */\n  0x00\n    /* \"#utility.yul\":964:966   */\n  0x20\n    /* \"#utility.yul\":952:961   */\n  dup3\n    /* \"#utility.yul\":943:950   */\n  dup5\n    /* \"#utility.yul\":939:962   */\n  sub\n    /* \"#utility.yul\":935:967   */\n  slt\n    /* \"#utility.yul\":932:1051   */\n  iszero\n  tag_29\n  jumpi\n    /* \"#utility.yul\":970:1049   */\n  tag_30\n  tag_10\n  jump\t// in\ntag_30:\n    /* \"#utility.yul\":932:1051   */\ntag_29:\n    /* \"#utility.yul\":1090:1091   */\n  0x00\n    /* \"#utility.yul\":1115:1179   */\n  tag_31\n    /* \"#utility.yul\":1171:1178   */\n  dup5\n    /* \"#utility.yul\":1162:1168   */\n  dup3\n    /* \"#utility.yul\":1151:1160   */\n  dup6\n    /* \"#utility.yul\":1147:1169   */\n  add\n    /* \"#utility.yul\":1115:1179   */\n  tag_15\n  jump\t// in\ntag_31:\n    /* \"#utility.yul\":1105:1179   */\n  swap2\n  pop\n    /* \"#utility.yul\":1061:1189   */\n  pop\n    /* \"#utility.yul\":845:1196   */\n  swap3\n  swap2\n  pop\n  pop\n  jump\t// out\n    /* \"Code-hardhat-ethersJs/contracts/AAVETest.sol\":768:6594  contract AAVETest is IFlashLoanSimpleReceiver {... */\ntag_8:\n  mload(0x80)\n  mload(0xa0)\n  codecopy(0x00, dataOffset(sub_0), dataSize(sub_0))\n  0x00\n  assignImmutable(\"0x489603a19aaa398638b499cf6d07e7632ded4210a8c094120f2860cef1e4eaf7\")\n  0x00\n  assignImmutable(\"0xc775b8e904f9968499c5b9ef0b631c0a34acdb4ec2b61ad85e4b56a2a2f1d5d0\")\n  return(0x00, dataSize(sub_0))\nstop\n\nsub_0: assembly {\n        /* \"Code-hardhat-ethersJs/contracts/AAVETest.sol\":768:6594  contract AAVETest is IFlashLoanSimpleReceiver {... */\n      mstore(0x40, 0x80)\n      callvalue\n      dup1\n      iszero\n      tag_1\n      jumpi\n      0x00\n      dup1\n      revert\n    tag_1:\n      pop\n      jumpi(tag_2, lt(calldatasize, 0x04))\n      shr(0xe0, calldataload(0x00))\n      dup1\n      0x0542975c\n      eq\n      tag_3\n      jumpi\n      dup1\n      0x1b11d0ff\n      eq\n      tag_4\n      jumpi\n      dup1\n      0x7535d246\n      eq\n      tag_5\n      jumpi\n      dup1\n      0xaf281f21\n      eq\n      tag_6\n      jumpi\n      dup1\n      0xcea8fe55\n      eq\n      tag_7\n      jumpi\n    tag_2:\n      0x00\n      dup1\n      revert\n        /* \"Code-hardhat-ethersJs/contracts/AAVETest.sol\":2946:3013  IPoolAddressesProvider public immutable override ADDRESSES_PROVIDER */\n    tag_3:\n      tag_8\n      tag_9\n      jump\t// in\n    tag_8:\n      mload(0x40)\n      tag_10\n      swap2\n      swap1\n      tag_11\n      jump\t// in\n    tag_10:\n      mload(0x40)\n      dup1\n      swap2\n      sub\n      swap1\n      return\n        /* \"Code-hardhat-ethersJs/contracts/AAVETest.sol\":5233:6586  function executeOperation(... */\n    tag_4:\n      tag_12\n      0x04\n      dup1\n      calldatasize\n      sub\n      dup2\n      add\n      swap1\n      tag_13\n      swap2\n      swap1\n      tag_14\n      jump\t// in\n    tag_13:\n      tag_15\n      jump\t// in\n    tag_12:\n      mload(0x40)\n      tag_16\n      swap2\n      swap1\n      tag_17\n      jump\t// in\n    tag_16:\n      mload(0x40)\n      dup1\n      swap2\n      sub\n      swap1\n      return\n        /* \"Code-hardhat-ethersJs/contracts/AAVETest.sol\":3019:3055  IPool public immutable override POOL */\n    tag_5:\n      tag_18\n      tag_19\n      jump\t// in\n    tag_18:\n      mload(0x40)\n      tag_20\n      swap2\n      swap1\n      tag_21\n      jump\t// in\n    tag_20:\n      mload(0x40)\n      dup1\n      swap2\n      sub\n      swap1\n      return\n        /* \"Code-hardhat-ethersJs/contracts/AAVETest.sol\":4669:5227  function testAAVESimple(address asset,uint256 amount) public {... */\n    tag_6:\n      tag_22\n      0x04\n      dup1\n      calldatasize\n      sub\n      dup2\n      add\n      swap1\n      tag_23\n      swap2\n      swap1\n      tag_24\n      jump\t// in\n    tag_23:\n      tag_25\n      jump\t// in\n    tag_22:\n      stop\n        /* \"Code-hardhat-ethersJs/contracts/AAVETest.sol\":3711:4663  function testAAVE(address asset,uint256 _amount) public {... */\n    tag_7:\n      tag_26\n      0x04\n      dup1\n      calldatasize\n      sub\n      dup2\n      add\n      swap1\n      tag_27\n      swap2\n      swap1\n      tag_24\n      jump\t// in\n    tag_27:\n      tag_28\n      jump\t// in\n    tag_26:\n      stop\n        /* \"Code-hardhat-ethersJs/contracts/AAVETest.sol\":2946:3013  IPoolAddressesProvider public immutable override ADDRESSES_PROVIDER */\n    tag_9:\n      immutable(\"0xc775b8e904f9968499c5b9ef0b631c0a34acdb4ec2b61ad85e4b56a2a2f1d5d0\")\n      dup2\n      jump\t// out\n        /* \"Code-hardhat-ethersJs/contracts/AAVETest.sol\":5233:6586  function executeOperation(... */\n    tag_15:\n        /* \"Code-hardhat-ethersJs/contracts/AAVETest.sol\":5458:5462  bool */\n      0x00\n        /* \"Code-hardhat-ethersJs/contracts/AAVETest.sol\":5595:5614  uint256 amountOwing */\n      dup1\n        /* \"Code-hardhat-ethersJs/contracts/AAVETest.sol\":5617:5636  amount.add(premium) */\n      tag_30\n        /* \"Code-hardhat-ethersJs/contracts/AAVETest.sol\":5628:5635  premium */\n      dup7\n        /* \"Code-hardhat-ethersJs/contracts/AAVETest.sol\":5617:5623  amount */\n      dup9\n        /* \"Code-hardhat-ethersJs/contracts/AAVETest.sol\":5617:5627  amount.add */\n      tag_31\n      swap1\n        /* \"Code-hardhat-ethersJs/contracts/AAVETest.sol\":5617:5636  amount.add(premium) */\n      swap2\n      swap1\n      0xffffffff\n      and\n      jump\t// in\n    tag_30:\n        /* \"Code-hardhat-ethersJs/contracts/AAVETest.sol\":5595:5636  uint256 amountOwing = amount.add(premium) */\n      swap1\n      pop\n        /* \"Code-hardhat-ethersJs/contracts/AAVETest.sol\":5653:5658  asset */\n      dup8\n        /* \"Code-hardhat-ethersJs/contracts/AAVETest.sol\":5646:5667  IERC20(asset).approve */\n      0xffffffffffffffffffffffffffffffffffffffff\n      and\n      0x095ea7b3\n        /* \"Code-hardhat-ethersJs/contracts/AAVETest.sol\":5676:5680  POOL */\n      immutable(\"0x489603a19aaa398638b499cf6d07e7632ded4210a8c094120f2860cef1e4eaf7\")\n        /* \"Code-hardhat-ethersJs/contracts/AAVETest.sol\":5683:5694  amountOwing */\n      dup4\n        /* \"Code-hardhat-ethersJs/contracts/AAVETest.sol\":5646:5695  IERC20(asset).approve(address(POOL), amountOwing) */\n      mload(0x40)\n      dup4\n      0xffffffff\n      and\n      0xe0\n      shl\n      dup2\n      mstore\n      0x04\n      add\n      tag_32\n      swap3\n      swap2\n      swap1\n      tag_33\n      jump\t// in\n    tag_32:\n      0x20\n      mload(0x40)\n      dup1\n      dup4\n      sub\n      dup2\n      0x00\n      dup8\n      gas\n      call\n      iszero\n      dup1\n      iszero\n      tag_35\n      jumpi\n      returndatasize\n      0x00\n      dup1\n      returndatacopy\n      revert(0x00, returndatasize)\n    tag_35:\n      pop\n      pop\n      pop\n      pop\n      mload(0x40)\n      returndatasize\n      not(0x1f)\n      0x1f\n      dup3\n      add\n      and\n      dup3\n      add\n      dup1\n      0x40\n      mstore\n      pop\n      dup2\n      add\n      swap1\n      tag_36\n      swap2\n      swap1\n      tag_37\n      jump\t// in\n    tag_36:\n      pop\n        /* \"Code-hardhat-ethersJs/contracts/AAVETest.sol\":5705:5726  address[] memory path */\n      0x00\n        /* \"Code-hardhat-ethersJs/contracts/AAVETest.sol\":5743:5744  2 */\n      0x02\n        /* \"Code-hardhat-ethersJs/contracts/AAVETest.sol\":5729:5745  new address[](2) */\n      0xffffffffffffffff\n      dup2\n      gt\n      iszero\n      tag_38\n      jumpi\n      tag_39\n      tag_40\n      jump\t// in\n    tag_39:\n    tag_38:\n      mload(0x40)\n      swap1\n      dup1\n      dup3\n      mstore\n      dup1\n      0x20\n      mul\n      0x20\n      add\n      dup3\n      add\n      0x40\n      mstore\n      dup1\n      iszero\n      tag_41\n      jumpi\n      dup2\n      0x20\n      add\n      0x20\n      dup3\n      mul\n      dup1\n      calldatasize\n      dup4\n      calldatacopy\n      dup1\n      dup3\n      add\n      swap2\n      pop\n      pop\n      swap1\n      pop\n    tag_41:\n      pop\n        /* \"Code-hardhat-ethersJs/contracts/AAVETest.sol\":5705:5745  address[] memory path = new address[](2) */\n      swap1\n      pop\n        /* \"Code-hardhat-ethersJs/contracts/AAVETest.sol\":5765:5775  DAIaddress */\n      0x07\n      0x00\n      swap1\n      sload\n      swap1\n      0x0100\n      exp\n      swap1\n      div\n      0xffffffffffffffffffffffffffffffffffffffff\n      and\n        /* \"Code-hardhat-ethersJs/contracts/AAVETest.sol\":5755:5759  path */\n      dup2\n        /* \"Code-hardhat-ethersJs/contracts/AAVETest.sol\":5760:5761  0 */\n      0x00\n        /* \"Code-hardhat-ethersJs/contracts/AAVETest.sol\":5755:5762  path[0] */\n      dup2\n      mload\n      dup2\n      lt\n      tag_42\n      jumpi\n      tag_43\n      tag_44\n      jump\t// in\n    tag_43:\n    tag_42:\n      0x20\n      mul\n      0x20\n      add\n      add\n        /* \"Code-hardhat-ethersJs/contracts/AAVETest.sol\":5755:5775  path[0] = DAIaddress */\n      swap1\n      0xffffffffffffffffffffffffffffffffffffffff\n      and\n      swap1\n      dup2\n      0xffffffffffffffffffffffffffffffffffffffff\n      and\n      dup2\n      mstore\n      pop\n      pop\n        /* \"Code-hardhat-ethersJs/contracts/AAVETest.sol\":5795:5805  MTTaddress */\n      0x05\n      0x00\n      swap1\n      sload\n      swap1\n      0x0100\n      exp\n      swap1\n      div\n      0xffffffffffffffffffffffffffffffffffffffff\n      and\n        /* \"Code-hardhat-ethersJs/contracts/AAVETest.sol\":5785:5789  path */\n      dup2\n        /* \"Code-hardhat-ethersJs/contracts/AAVETest.sol\":5790:5791  1 */\n      0x01\n        /* \"Code-hardhat-ethersJs/contracts/AAVETest.sol\":5785:5792  path[1] */\n      dup2\n      mload\n      dup2\n      lt\n      tag_45\n      jumpi\n      tag_46\n      tag_44\n      jump\t// in\n    tag_46:\n    tag_45:\n      0x20\n      mul\n      0x20\n      add\n      add\n        /* \"Code-hardhat-ethersJs/contracts/AAVETest.sol\":5785:5805  path[1] = MTTaddress */\n      swap1\n      0xffffffffffffffffffffffffffffffffffffffff\n      and\n      swap1\n      dup2\n      0xffffffffffffffffffffffffffffffffffffffff\n      and\n      dup2\n      mstore\n      pop\n      pop\n        /* \"Code-hardhat-ethersJs/contracts/AAVETest.sol\":5994:6008  uint amountOut */\n      0x00\n        /* \"Code-hardhat-ethersJs/contracts/AAVETest.sol\":6030:6039  uv2router */\n      0x0b\n      0x00\n      swap1\n      sload\n      swap1\n      0x0100\n      exp\n      swap1\n      div\n      0xffffffffffffffffffffffffffffffffffffffff\n      and\n        /* \"Code-hardhat-ethersJs/contracts/AAVETest.sol\":6011:6065  IUniswapV2Router01(uv2router).swapExactTokensForTokens */\n      0xffffffffffffffffffffffffffffffffffffffff\n      and\n      0x38ed1739\n        /* \"Code-hardhat-ethersJs/contracts/AAVETest.sol\":6066:6072  amount */\n      dup11\n        /* \"Code-hardhat-ethersJs/contracts/AAVETest.sol\":6074:6075  1 */\n      0x01\n        /* \"Code-hardhat-ethersJs/contracts/AAVETest.sol\":6077:6081  path */\n      dup6\n        /* \"Code-hardhat-ethersJs/contracts/AAVETest.sol\":6091:6095  this */\n      address\n        /* \"Code-hardhat-ethersJs/contracts/AAVETest.sol\":6098:6113  block.timestamp */\n      timestamp\n        /* \"Code-hardhat-ethersJs/contracts/AAVETest.sol\":6011:6114  IUniswapV2Router01(uv2router).swapExactTokensForTokens(amount, 1, path, address(this), block.timestamp) */\n      mload(0x40)\n      dup7\n      0xffffffff\n      and\n      0xe0\n      shl\n      dup2\n      mstore\n      0x04\n      add\n      tag_47\n      swap6\n      swap5\n      swap4\n      swap3\n      swap2\n      swap1\n      tag_48\n      jump\t// in\n    tag_47:\n      0x00\n      mload(0x40)\n      dup1\n      dup4\n      sub\n      dup2\n      0x00\n      dup8\n      gas\n      call\n      iszero\n      dup1\n      iszero\n      tag_50\n      jumpi\n      returndatasize\n      0x00\n      dup1\n      returndatacopy\n      revert(0x00, returndatasize)\n    tag_50:\n      pop\n      pop\n      pop\n      pop\n      mload(0x40)\n      returndatasize\n      0x00\n      dup3\n      returndatacopy\n      returndatasize\n      not(0x1f)\n      0x1f\n      dup3\n      add\n      and\n      dup3\n      add\n      dup1\n      0x40\n      mstore\n      pop\n      dup2\n      add\n      swap1\n      tag_51\n      swap2\n      swap1\n      tag_52\n      jump\t// in\n    tag_51:\n        /* \"Code-hardhat-ethersJs/contracts/AAVETest.sol\":6115:6116  1 */\n      0x01\n        /* \"Code-hardhat-ethersJs/contracts/AAVETest.sol\":6011:6117  IUniswapV2Router01(uv2router).swapExactTokensForTokens(amount, 1, path, address(this), block.timestamp)[1] */\n      dup2\n      mload\n      dup2\n      lt\n      tag_53\n      jumpi\n      tag_54\n      tag_44\n      jump\t// in\n    tag_54:\n    tag_53:\n      0x20\n      mul\n      0x20\n      add\n      add\n      mload\n        /* \"Code-hardhat-ethersJs/contracts/AAVETest.sol\":5994:6117  uint amountOut = IUniswapV2Router01(uv2router).swapExactTokensForTokens(amount, 1, path, address(this), block.timestamp)[1] */\n      swap1\n      pop\n        /* \"Code-hardhat-ethersJs/contracts/AAVETest.sol\":6127:6176  IV3SwapRouter.ExactInputSingleParams memory param */\n      0x00\n        /* \"Code-hardhat-ethersJs/contracts/AAVETest.sol\":6179:6277  IV3SwapRouter.ExactInputSingleParams(MTTaddress, DAIaddress, 3000, address(this), amountOut, 0, 0) */\n      mload(0x40)\n      dup1\n      0xe0\n      add\n      0x40\n      mstore\n      dup1\n        /* \"Code-hardhat-ethersJs/contracts/AAVETest.sol\":6216:6226  MTTaddress */\n      0x05\n      0x00\n      swap1\n      sload\n      swap1\n      0x0100\n      exp\n      swap1\n      div\n      0xffffffffffffffffffffffffffffffffffffffff\n      and\n        /* \"Code-hardhat-ethersJs/contracts/AAVETest.sol\":6179:6277  IV3SwapRouter.ExactInputSingleParams(MTTaddress, DAIaddress, 3000, address(this), amountOut, 0, 0) */\n      0xffffffffffffffffffffffffffffffffffffffff\n      and\n      dup2\n      mstore\n      0x20\n      add\n        /* \"Code-hardhat-ethersJs/contracts/AAVETest.sol\":6228:6238  DAIaddress */\n      0x07\n      0x00\n      swap1\n      sload\n      swap1\n      0x0100\n      exp\n      swap1\n      div\n      0xffffffffffffffffffffffffffffffffffffffff\n      and\n        /* \"Code-hardhat-ethersJs/contracts/AAVETest.sol\":6179:6277  IV3SwapRouter.ExactInputSingleParams(MTTaddress, DAIaddress, 3000, address(this), amountOut, 0, 0) */\n      0xffffffffffffffffffffffffffffffffffffffff\n      and\n      dup2\n      mstore\n      0x20\n      add\n        /* \"Code-hardhat-ethersJs/contracts/AAVETest.sol\":6240:6244  3000 */\n      0x0bb8\n        /* \"Code-hardhat-ethersJs/contracts/AAVETest.sol\":6179:6277  IV3SwapRouter.ExactInputSingleParams(MTTaddress, DAIaddress, 3000, address(this), amountOut, 0, 0) */\n      0xffffff\n      and\n      dup2\n      mstore\n      0x20\n      add\n        /* \"Code-hardhat-ethersJs/contracts/AAVETest.sol\":6254:6258  this */\n      address\n        /* \"Code-hardhat-ethersJs/contracts/AAVETest.sol\":6179:6277  IV3SwapRouter.ExactInputSingleParams(MTTaddress, DAIaddress, 3000, address(this), amountOut, 0, 0) */\n      0xffffffffffffffffffffffffffffffffffffffff\n      and\n      dup2\n      mstore\n      0x20\n      add\n        /* \"Code-hardhat-ethersJs/contracts/AAVETest.sol\":6261:6270  amountOut */\n      dup4\n        /* \"Code-hardhat-ethersJs/contracts/AAVETest.sol\":6179:6277  IV3SwapRouter.ExactInputSingleParams(MTTaddress, DAIaddress, 3000, address(this), amountOut, 0, 0) */\n      dup2\n      mstore\n      0x20\n      add\n        /* \"Code-hardhat-ethersJs/contracts/AAVETest.sol\":6272:6273  0 */\n      0x00\n        /* \"Code-hardhat-ethersJs/contracts/AAVETest.sol\":6179:6277  IV3SwapRouter.ExactInputSingleParams(MTTaddress, DAIaddress, 3000, address(this), amountOut, 0, 0) */\n      dup2\n      mstore\n      0x20\n      add\n        /* \"Code-hardhat-ethersJs/contracts/AAVETest.sol\":6275:6276  0 */\n      0x00\n        /* \"Code-hardhat-ethersJs/contracts/AAVETest.sol\":6179:6277  IV3SwapRouter.ExactInputSingleParams(MTTaddress, DAIaddress, 3000, address(this), amountOut, 0, 0) */\n      0xffffffffffffffffffffffffffffffffffffffff\n      and\n      dup2\n      mstore\n      pop\n        /* \"Code-hardhat-ethersJs/contracts/AAVETest.sol\":6127:6277  IV3SwapRouter.ExactInputSingleParams memory param = IV3SwapRouter.ExactInputSingleParams(MTTaddress, DAIaddress, 3000, address(this), amountOut, 0, 0) */\n      swap1\n      pop\n        /* \"Code-hardhat-ethersJs/contracts/AAVETest.sol\":6287:6306  uint amountReceived */\n      0x00\n        /* \"Code-hardhat-ethersJs/contracts/AAVETest.sol\":6309:6318  uv3router */\n      0x0c\n      0x00\n      swap1\n      sload\n      swap1\n      0x0100\n      exp\n      swap1\n      div\n      0xffffffffffffffffffffffffffffffffffffffff\n      and\n        /* \"Code-hardhat-ethersJs/contracts/AAVETest.sol\":6309:6335  uv3router.exactInputSingle */\n      0xffffffffffffffffffffffffffffffffffffffff\n      and\n      0x04e45aaf\n        /* \"Code-hardhat-ethersJs/contracts/AAVETest.sol\":6336:6341  param */\n      dup4\n        /* \"Code-hardhat-ethersJs/contracts/AAVETest.sol\":6309:6342  uv3router.exactInputSingle(param) */\n      mload(0x40)\n      dup3\n      0xffffffff\n      and\n      0xe0\n      shl\n      dup2\n      mstore\n      0x04\n      add\n      tag_55\n      swap2\n      swap1\n      tag_56\n      jump\t// in\n    tag_55:\n      0x20\n      mload(0x40)\n      dup1\n      dup4\n      sub\n      dup2\n      0x00\n      dup8\n      gas\n      call\n      iszero\n      dup1\n      iszero\n      tag_58\n      jumpi\n      returndatasize\n      0x00\n      dup1\n      returndatacopy\n      revert(0x00, returndatasize)\n    tag_58:\n      pop\n      pop\n      pop\n      pop\n      mload(0x40)\n      returndatasize\n      not(0x1f)\n      0x1f\n      dup3\n      add\n      and\n      dup3\n      add\n      dup1\n      0x40\n      mstore\n      pop\n      dup2\n      add\n      swap1\n      tag_59\n      swap2\n      swap1\n      tag_60\n      jump\t// in\n    tag_59:\n        /* \"Code-hardhat-ethersJs/contracts/AAVETest.sol\":6287:6342  uint amountReceived = uv3router.exactInputSingle(param) */\n      swap1\n      pop\n        /* \"Code-hardhat-ethersJs/contracts/AAVETest.sol\":6575:6579  true */\n      0x01\n        /* \"Code-hardhat-ethersJs/contracts/AAVETest.sol\":6568:6579  return true */\n      swap6\n      pop\n      pop\n      pop\n      pop\n      pop\n      pop\n        /* \"Code-hardhat-ethersJs/contracts/AAVETest.sol\":5233:6586  function executeOperation(... */\n      swap7\n      swap6\n      pop\n      pop\n      pop\n      pop\n      pop\n      pop\n      jump\t// out\n        /* \"Code-hardhat-ethersJs/contracts/AAVETest.sol\":3019:3055  IPool public immutable override POOL */\n    tag_19:\n      immutable(\"0x489603a19aaa398638b499cf6d07e7632ded4210a8c094120f2860cef1e4eaf7\")\n      dup2\n      jump\t// out\n        /* \"Code-hardhat-ethersJs/contracts/AAVETest.sol\":4669:5227  function testAAVESimple(address asset,uint256 amount) public {... */\n    tag_25:\n        /* \"Code-hardhat-ethersJs/contracts/AAVETest.sol\":4740:4756  address receiver */\n      0x00\n        /* \"Code-hardhat-ethersJs/contracts/AAVETest.sol\":4767:4771  this */\n      address\n        /* \"Code-hardhat-ethersJs/contracts/AAVETest.sol\":4740:4772  address receiver = address(this) */\n      swap1\n      pop\n        /* \"Code-hardhat-ethersJs/contracts/AAVETest.sol\":4782:4801  bytes memory params */\n      0x00\n        /* \"Code-hardhat-ethersJs/contracts/AAVETest.sol\":4782:4806  bytes memory params = \"\" */\n      mload(0x40)\n      dup1\n      0x20\n      add\n      0x40\n      mstore\n      dup1\n      0x00\n      dup2\n      mstore\n      pop\n      swap1\n      pop\n        /* \"Code-hardhat-ethersJs/contracts/AAVETest.sol\":4816:4835  uint16 referralCode */\n      0x00\n        /* \"Code-hardhat-ethersJs/contracts/AAVETest.sol\":4849:4852  MTT */\n      0x0d\n      0x00\n      swap1\n      sload\n      swap1\n      0x0100\n      exp\n      swap1\n      div\n      0xffffffffffffffffffffffffffffffffffffffff\n      and\n        /* \"Code-hardhat-ethersJs/contracts/AAVETest.sol\":4849:4860  MTT.approve */\n      0xffffffffffffffffffffffffffffffffffffffff\n      and\n      0x095ea7b3\n        /* \"Code-hardhat-ethersJs/contracts/AAVETest.sol\":4869:4878  uv2router */\n      0x0b\n      0x00\n      swap1\n      sload\n      swap1\n      0x0100\n      exp\n      swap1\n      div\n      0xffffffffffffffffffffffffffffffffffffffff\n      and\n        /* \"Code-hardhat-ethersJs/contracts/AAVETest.sol\":4886:4913  100000000000000000000000000 */\n      0x52b7d2dcc80cd2e4000000\n        /* \"Code-hardhat-ethersJs/contracts/AAVETest.sol\":4849:4915  MTT.approve(address(uv2router), uint(100000000000000000000000000)) */\n      mload(0x40)\n      dup4\n      0xffffffff\n      and\n      0xe0\n      shl\n      dup2\n      mstore\n      0x04\n      add\n      tag_62\n      swap3\n      swap2\n      swap1\n      tag_33\n      jump\t// in\n    tag_62:\n      0x20\n      mload(0x40)\n      dup1\n      dup4\n      sub\n      dup2\n      0x00\n      dup8\n      gas\n      call\n      iszero\n      dup1\n      iszero\n      tag_64\n      jumpi\n      returndatasize\n      0x00\n      dup1\n      returndatacopy\n      revert(0x00, returndatasize)\n    tag_64:\n      pop\n      pop\n      pop\n      pop\n      mload(0x40)\n      returndatasize\n      not(0x1f)\n      0x1f\n      dup3\n      add\n      and\n      dup3\n      add\n      dup1\n      0x40\n      mstore\n      pop\n      dup2\n      add\n      swap1\n      tag_65\n      swap2\n      swap1\n      tag_37\n      jump\t// in\n    tag_65:\n      pop\n        /* \"Code-hardhat-ethersJs/contracts/AAVETest.sol\":4925:4928  MTT */\n      0x0d\n      0x00\n      swap1\n      sload\n      swap1\n      0x0100\n      exp\n      swap1\n      div\n      0xffffffffffffffffffffffffffffffffffffffff\n      and\n        /* \"Code-hardhat-ethersJs/contracts/AAVETest.sol\":4925:4936  MTT.approve */\n      0xffffffffffffffffffffffffffffffffffffffff\n      and\n      0x095ea7b3\n        /* \"Code-hardhat-ethersJs/contracts/AAVETest.sol\":4945:4954  uv3router */\n      0x0c\n      0x00\n      swap1\n      sload\n      swap1\n      0x0100\n      exp\n      swap1\n      div\n      0xffffffffffffffffffffffffffffffffffffffff\n      and\n        /* \"Code-hardhat-ethersJs/contracts/AAVETest.sol\":4962:4989  100000000000000000000000000 */\n      0x52b7d2dcc80cd2e4000000\n        /* \"Code-hardhat-ethersJs/contracts/AAVETest.sol\":4925:4991  MTT.approve(address(uv3router), uint(100000000000000000000000000)) */\n      mload(0x40)\n      dup4\n      0xffffffff\n      and\n      0xe0\n      shl\n      dup2\n      mstore\n      0x04\n      add\n      tag_66\n      swap3\n      swap2\n      swap1\n      tag_33\n      jump\t// in\n    tag_66:\n      0x20\n      mload(0x40)\n      dup1\n      dup4\n      sub\n      dup2\n      0x00\n      dup8\n      gas\n      call\n      iszero\n      dup1\n      iszero\n      tag_68\n      jumpi\n      returndatasize\n      0x00\n      dup1\n      returndatacopy\n      revert(0x00, returndatasize)\n    tag_68:\n      pop\n      pop\n      pop\n      pop\n      mload(0x40)\n      returndatasize\n      not(0x1f)\n      0x1f\n      dup3\n      add\n      and\n      dup3\n      add\n      dup1\n      0x40\n      mstore\n      pop\n      dup2\n      add\n      swap1\n      tag_69\n      swap2\n      swap1\n      tag_37\n      jump\t// in\n    tag_69:\n      pop\n        /* \"Code-hardhat-ethersJs/contracts/AAVETest.sol\":5001:5004  DAI */\n      0x0f\n      0x00\n      swap1\n      sload\n      swap1\n      0x0100\n      exp\n      swap1\n      div\n      0xffffffffffffffffffffffffffffffffffffffff\n      and\n        /* \"Code-hardhat-ethersJs/contracts/AAVETest.sol\":5001:5012  DAI.approve */\n      0xffffffffffffffffffffffffffffffffffffffff\n      and\n      0x095ea7b3\n        /* \"Code-hardhat-ethersJs/contracts/AAVETest.sol\":5021:5030  uv2router */\n      0x0b\n      0x00\n      swap1\n      sload\n      swap1\n      0x0100\n      exp\n      swap1\n      div\n      0xffffffffffffffffffffffffffffffffffffffff\n      and\n        /* \"Code-hardhat-ethersJs/contracts/AAVETest.sol\":5038:5065  100000000000000000000000000 */\n      0x52b7d2dcc80cd2e4000000\n        /* \"Code-hardhat-ethersJs/contracts/AAVETest.sol\":5001:5067  DAI.approve(address(uv2router), uint(100000000000000000000000000)) */\n      mload(0x40)\n      dup4\n      0xffffffff\n      and\n      0xe0\n      shl\n      dup2\n      mstore\n      0x04\n      add\n      tag_70\n      swap3\n      swap2\n      swap1\n      tag_33\n      jump\t// in\n    tag_70:\n      0x20\n      mload(0x40)\n      dup1\n      dup4\n      sub\n      dup2\n      0x00\n      dup8\n      gas\n      call\n      iszero\n      dup1\n      iszero\n      tag_72\n      jumpi\n      returndatasize\n      0x00\n      dup1\n      returndatacopy\n      revert(0x00, returndatasize)\n    tag_72:\n      pop\n      pop\n      pop\n      pop\n      mload(0x40)\n      returndatasize\n      not(0x1f)\n      0x1f\n      dup3\n      add\n      and\n      dup3\n      add\n      dup1\n      0x40\n      mstore\n      pop\n      dup2\n      add\n      swap1\n      tag_73\n      swap2\n      swap1\n      tag_37\n      jump\t// in\n    tag_73:\n      pop\n        /* \"Code-hardhat-ethersJs/contracts/AAVETest.sol\":5077:5080  DAI */\n      0x0f\n      0x00\n      swap1\n      sload\n      swap1\n      0x0100\n      exp\n      swap1\n      div\n      0xffffffffffffffffffffffffffffffffffffffff\n      and\n        /* \"Code-hardhat-ethersJs/contracts/AAVETest.sol\":5077:5088  DAI.approve */\n      0xffffffffffffffffffffffffffffffffffffffff\n      and\n      0x095ea7b3\n        /* \"Code-hardhat-ethersJs/contracts/AAVETest.sol\":5097:5106  uv3router */\n      0x0c\n      0x00\n      swap1\n      sload\n      swap1\n      0x0100\n      exp\n      swap1\n      div\n      0xffffffffffffffffffffffffffffffffffffffff\n      and\n        /* \"Code-hardhat-ethersJs/contracts/AAVETest.sol\":5114:5141  100000000000000000000000000 */\n      0x52b7d2dcc80cd2e4000000\n        /* \"Code-hardhat-ethersJs/contracts/AAVETest.sol\":5077:5143  DAI.approve(address(uv3router), uint(100000000000000000000000000)) */\n      mload(0x40)\n      dup4\n      0xffffffff\n      and\n      0xe0\n      shl\n      dup2\n      mstore\n      0x04\n      add\n      tag_74\n      swap3\n      swap2\n      swap1\n      tag_33\n      jump\t// in\n    tag_74:\n      0x20\n      mload(0x40)\n      dup1\n      dup4\n      sub\n      dup2\n      0x00\n      dup8\n      gas\n      call\n      iszero\n      dup1\n      iszero\n      tag_76\n      jumpi\n      returndatasize\n      0x00\n      dup1\n      returndatacopy\n      revert(0x00, returndatasize)\n    tag_76:\n      pop\n      pop\n      pop\n      pop\n      mload(0x40)\n      returndatasize\n      not(0x1f)\n      0x1f\n      dup3\n      add\n      and\n      dup3\n      add\n      dup1\n      0x40\n      mstore\n      pop\n      dup2\n      add\n      swap1\n      tag_77\n      swap2\n      swap1\n      tag_37\n      jump\t// in\n    tag_77:\n      pop\n        /* \"Code-hardhat-ethersJs/contracts/AAVETest.sol\":5153:5157  POOL */\n      immutable(\"0x489603a19aaa398638b499cf6d07e7632ded4210a8c094120f2860cef1e4eaf7\")\n        /* \"Code-hardhat-ethersJs/contracts/AAVETest.sol\":5153:5173  POOL.flashLoanSimple */\n      0xffffffffffffffffffffffffffffffffffffffff\n      and\n      0x42b0b77c\n        /* \"Code-hardhat-ethersJs/contracts/AAVETest.sol\":5174:5182  receiver */\n      dup5\n        /* \"Code-hardhat-ethersJs/contracts/AAVETest.sol\":5184:5189  asset */\n      dup8\n        /* \"Code-hardhat-ethersJs/contracts/AAVETest.sol\":5191:5197  amount */\n      dup8\n        /* \"Code-hardhat-ethersJs/contracts/AAVETest.sol\":5199:5205  params */\n      dup7\n        /* \"Code-hardhat-ethersJs/contracts/AAVETest.sol\":5207:5219  referralCode */\n      dup7\n        /* \"Code-hardhat-ethersJs/contracts/AAVETest.sol\":5153:5220  POOL.flashLoanSimple(receiver, asset, amount, params, referralCode) */\n      mload(0x40)\n      dup7\n      0xffffffff\n      and\n      0xe0\n      shl\n      dup2\n      mstore\n      0x04\n      add\n      tag_78\n      swap6\n      swap5\n      swap4\n      swap3\n      swap2\n      swap1\n      tag_79\n      jump\t// in\n    tag_78:\n      0x00\n      mload(0x40)\n      dup1\n      dup4\n      sub\n      dup2\n      0x00\n      dup8\n      dup1\n      extcodesize\n      iszero\n      dup1\n      iszero\n      tag_80\n      jumpi\n      0x00\n      dup1\n      revert\n    tag_80:\n      pop\n      gas\n      call\n      iszero\n      dup1\n      iszero\n      tag_82\n      jumpi\n      returndatasize\n      0x00\n      dup1\n      returndatacopy\n      revert(0x00, returndatasize)\n    tag_82:\n      pop\n      pop\n      pop\n      pop\n        /* \"Code-hardhat-ethersJs/contracts/AAVETest.sol\":4730:5227  {... */\n      pop\n      pop\n      pop\n        /* \"Code-hardhat-ethersJs/contracts/AAVETest.sol\":4669:5227  function testAAVESimple(address asset,uint256 amount) public {... */\n      pop\n      pop\n      jump\t// out\n        /* \"Code-hardhat-ethersJs/contracts/AAVETest.sol\":3711:4663  function testAAVE(address asset,uint256 _amount) public {... */\n    tag_28:\n        /* \"Code-hardhat-ethersJs/contracts/AAVETest.sol\":3777:3800  address receiverAddress */\n      0x00\n        /* \"Code-hardhat-ethersJs/contracts/AAVETest.sol\":3811:3815  this */\n      address\n        /* \"Code-hardhat-ethersJs/contracts/AAVETest.sol\":3777:3816  address receiverAddress = address(this) */\n      swap1\n      pop\n        /* \"Code-hardhat-ethersJs/contracts/AAVETest.sol\":3827:3850  address[] memory assets */\n      0x00\n        /* \"Code-hardhat-ethersJs/contracts/AAVETest.sol\":3867:3868  1 */\n      0x01\n        /* \"Code-hardhat-ethersJs/contracts/AAVETest.sol\":3853:3869  new address[](1) */\n      0xffffffffffffffff\n      dup2\n      gt\n      iszero\n      tag_84\n      jumpi\n      tag_85\n      tag_40\n      jump\t// in\n    tag_85:\n    tag_84:\n      mload(0x40)\n      swap1\n      dup1\n      dup3\n      mstore\n      dup1\n      0x20\n      mul\n      0x20\n      add\n      dup3\n      add\n      0x40\n      mstore\n      dup1\n      iszero\n      tag_86\n      jumpi\n      dup2\n      0x20\n      add\n      0x20\n      dup3\n      mul\n      dup1\n      calldatasize\n      dup4\n      calldatacopy\n      dup1\n      dup3\n      add\n      swap2\n      pop\n      pop\n      swap1\n      pop\n    tag_86:\n      pop\n        /* \"Code-hardhat-ethersJs/contracts/AAVETest.sol\":3827:3869  address[] memory assets = new address[](1) */\n      swap1\n      pop\n        /* \"Code-hardhat-ethersJs/contracts/AAVETest.sol\":3891:3896  asset */\n      dup4\n        /* \"Code-hardhat-ethersJs/contracts/AAVETest.sol\":3879:3885  assets */\n      dup2\n        /* \"Code-hardhat-ethersJs/contracts/AAVETest.sol\":3886:3887  0 */\n      0x00\n        /* \"Code-hardhat-ethersJs/contracts/AAVETest.sol\":3879:3888  assets[0] */\n      dup2\n      mload\n      dup2\n      lt\n      tag_87\n      jumpi\n      tag_88\n      tag_44\n      jump\t// in\n    tag_88:\n    tag_87:\n      0x20\n      mul\n      0x20\n      add\n      add\n        /* \"Code-hardhat-ethersJs/contracts/AAVETest.sol\":3879:3896  assets[0] = asset */\n      swap1\n      0xffffffffffffffffffffffffffffffffffffffff\n      and\n      swap1\n      dup2\n      0xffffffffffffffffffffffffffffffffffffffff\n      and\n      dup2\n      mstore\n      pop\n      pop\n        /* \"Code-hardhat-ethersJs/contracts/AAVETest.sol\":3906:3930  uint256[] memory amounts */\n      0x00\n        /* \"Code-hardhat-ethersJs/contracts/AAVETest.sol\":3947:3948  1 */\n      0x01\n        /* \"Code-hardhat-ethersJs/contracts/AAVETest.sol\":3933:3949  new uint256[](1) */\n      0xffffffffffffffff\n      dup2\n      gt\n      iszero\n      tag_89\n      jumpi\n      tag_90\n      tag_40\n      jump\t// in\n    tag_90:\n    tag_89:\n      mload(0x40)\n      swap1\n      dup1\n      dup3\n      mstore\n      dup1\n      0x20\n      mul\n      0x20\n      add\n      dup3\n      add\n      0x40\n      mstore\n      dup1\n      iszero\n      tag_91\n      jumpi\n      dup2\n      0x20\n      add\n      0x20\n      dup3\n      mul\n      dup1\n      calldatasize\n      dup4\n      calldatacopy\n      dup1\n      dup3\n      add\n      swap2\n      pop\n      pop\n      swap1\n      pop\n    tag_91:\n      pop\n        /* \"Code-hardhat-ethersJs/contracts/AAVETest.sol\":3906:3949  uint256[] memory amounts = new uint256[](1) */\n      swap1\n      pop\n        /* \"Code-hardhat-ethersJs/contracts/AAVETest.sol\":3972:3979  _amount */\n      dup4\n        /* \"Code-hardhat-ethersJs/contracts/AAVETest.sol\":3959:3966  amounts */\n      dup2\n        /* \"Code-hardhat-ethersJs/contracts/AAVETest.sol\":3967:3968  0 */\n      0x00\n        /* \"Code-hardhat-ethersJs/contracts/AAVETest.sol\":3959:3969  amounts[0] */\n      dup2\n      mload\n      dup2\n      lt\n      tag_92\n      jumpi\n      tag_93\n      tag_44\n      jump\t// in\n    tag_93:\n    tag_92:\n      0x20\n      mul\n      0x20\n      add\n      add\n        /* \"Code-hardhat-ethersJs/contracts/AAVETest.sol\":3959:3979  amounts[0] = _amount */\n      dup2\n      dup2\n      mstore\n      pop\n      pop\n        /* \"Code-hardhat-ethersJs/contracts/AAVETest.sol\":3989:4023  uint256[] memory interestRateModes */\n      0x00\n        /* \"Code-hardhat-ethersJs/contracts/AAVETest.sol\":4040:4041  1 */\n      0x01\n        /* \"Code-hardhat-ethersJs/contracts/AAVETest.sol\":4026:4042  new uint256[](1) */\n      0xffffffffffffffff\n      dup2\n      gt\n      iszero\n      tag_94\n      jumpi\n      tag_95\n      tag_40\n      jump\t// in\n    tag_95:\n    tag_94:\n      mload(0x40)\n      swap1\n      dup1\n      dup3\n      mstore\n      dup1\n      0x20\n      mul\n      0x20\n      add\n      dup3\n      add\n      0x40\n      mstore\n      dup1\n      iszero\n      tag_96\n      jumpi\n      dup2\n      0x20\n      add\n      0x20\n      dup3\n      mul\n      dup1\n      calldatasize\n      dup4\n      calldatacopy\n      dup1\n      dup3\n      add\n      swap2\n      pop\n      pop\n      swap1\n      pop\n    tag_96:\n      pop\n        /* \"Code-hardhat-ethersJs/contracts/AAVETest.sol\":3989:4042  uint256[] memory interestRateModes = new uint256[](1) */\n      swap1\n      pop\n        /* \"Code-hardhat-ethersJs/contracts/AAVETest.sol\":4075:4076  0 */\n      0x00\n        /* \"Code-hardhat-ethersJs/contracts/AAVETest.sol\":4052:4069  interestRateModes */\n      dup2\n        /* \"Code-hardhat-ethersJs/contracts/AAVETest.sol\":4070:4071  0 */\n      0x00\n        /* \"Code-hardhat-ethersJs/contracts/AAVETest.sol\":4052:4072  interestRateModes[0] */\n      dup2\n      mload\n      dup2\n      lt\n      tag_97\n      jumpi\n      tag_98\n      tag_44\n      jump\t// in\n    tag_98:\n    tag_97:\n      0x20\n      mul\n      0x20\n      add\n      add\n        /* \"Code-hardhat-ethersJs/contracts/AAVETest.sol\":4052:4076  interestRateModes[0] = 0 */\n      dup2\n      dup2\n      mstore\n      pop\n      pop\n        /* \"Code-hardhat-ethersJs/contracts/AAVETest.sol\":4175:4194  bytes memory params */\n      0x00\n        /* \"Code-hardhat-ethersJs/contracts/AAVETest.sol\":4175:4199  bytes memory params = \"\" */\n      mload(0x40)\n      dup1\n      0x20\n      add\n      0x40\n      mstore\n      dup1\n      0x00\n      dup2\n      mstore\n      pop\n      swap1\n      pop\n        /* \"Code-hardhat-ethersJs/contracts/AAVETest.sol\":4209:4228  uint16 referralCode */\n      0x00\n        /* \"Code-hardhat-ethersJs/contracts/AAVETest.sol\":4242:4245  MTT */\n      0x0d\n      0x00\n      swap1\n      sload\n      swap1\n      0x0100\n      exp\n      swap1\n      div\n      0xffffffffffffffffffffffffffffffffffffffff\n      and\n        /* \"Code-hardhat-ethersJs/contracts/AAVETest.sol\":4242:4253  MTT.approve */\n      0xffffffffffffffffffffffffffffffffffffffff\n      and\n      0x095ea7b3\n        /* \"Code-hardhat-ethersJs/contracts/AAVETest.sol\":4262:4271  uv2router */\n      0x0b\n      0x00\n      swap1\n      sload\n      swap1\n      0x0100\n      exp\n      swap1\n      div\n      0xffffffffffffffffffffffffffffffffffffffff\n      and\n        /* \"Code-hardhat-ethersJs/contracts/AAVETest.sol\":4279:4306  100000000000000000000000000 */\n      0x52b7d2dcc80cd2e4000000\n        /* \"Code-hardhat-ethersJs/contracts/AAVETest.sol\":4242:4308  MTT.approve(address(uv2router), uint(100000000000000000000000000)) */\n      mload(0x40)\n      dup4\n      0xffffffff\n      and\n      0xe0\n      shl\n      dup2\n      mstore\n      0x04\n      add\n      tag_99\n      swap3\n      swap2\n      swap1\n      tag_33\n      jump\t// in\n    tag_99:\n      0x20\n      mload(0x40)\n      dup1\n      dup4\n      sub\n      dup2\n      0x00\n      dup8\n      gas\n      call\n      iszero\n      dup1\n      iszero\n      tag_101\n      jumpi\n      returndatasize\n      0x00\n      dup1\n      returndatacopy\n      revert(0x00, returndatasize)\n    tag_101:\n      pop\n      pop\n      pop\n      pop\n      mload(0x40)\n      returndatasize\n      not(0x1f)\n      0x1f\n      dup3\n      add\n      and\n      dup3\n      add\n      dup1\n      0x40\n      mstore\n      pop\n      dup2\n      add\n      swap1\n      tag_102\n      swap2\n      swap1\n      tag_37\n      jump\t// in\n    tag_102:\n      pop\n        /* \"Code-hardhat-ethersJs/contracts/AAVETest.sol\":4318:4321  MTT */\n      0x0d\n      0x00\n      swap1\n      sload\n      swap1\n      0x0100\n      exp\n      swap1\n      div\n      0xffffffffffffffffffffffffffffffffffffffff\n      and\n        /* \"Code-hardhat-ethersJs/contracts/AAVETest.sol\":4318:4329  MTT.approve */\n      0xffffffffffffffffffffffffffffffffffffffff\n      and\n      0x095ea7b3\n        /* \"Code-hardhat-ethersJs/contracts/AAVETest.sol\":4338:4347  uv3router */\n      0x0c\n      0x00\n      swap1\n      sload\n      swap1\n      0x0100\n      exp\n      swap1\n      div\n      0xffffffffffffffffffffffffffffffffffffffff\n      and\n        /* \"Code-hardhat-ethersJs/contracts/AAVETest.sol\":4355:4382  100000000000000000000000000 */\n      0x52b7d2dcc80cd2e4000000\n        /* \"Code-hardhat-ethersJs/contracts/AAVETest.sol\":4318:4384  MTT.approve(address(uv3router), uint(100000000000000000000000000)) */\n      mload(0x40)\n      dup4\n      0xffffffff\n      and\n      0xe0\n      shl\n      dup2\n      mstore\n      0x04\n      add\n      tag_103\n      swap3\n      swap2\n      swap1\n      tag_33\n      jump\t// in\n    tag_103:\n      0x20\n      mload(0x40)\n      dup1\n      dup4\n      sub\n      dup2\n      0x00\n      dup8\n      gas\n      call\n      iszero\n      dup1\n      iszero\n      tag_105\n      jumpi\n      returndatasize\n      0x00\n      dup1\n      returndatacopy\n      revert(0x00, returndatasize)\n    tag_105:\n      pop\n      pop\n      pop\n      pop\n      mload(0x40)\n      returndatasize\n      not(0x1f)\n      0x1f\n      dup3\n      add\n      and\n      dup3\n      add\n      dup1\n      0x40\n      mstore\n      pop\n      dup2\n      add\n      swap1\n      tag_106\n      swap2\n      swap1\n      tag_37\n      jump\t// in\n    tag_106:\n      pop\n        /* \"Code-hardhat-ethersJs/contracts/AAVETest.sol\":4394:4397  DAI */\n      0x0f\n      0x00\n      swap1\n      sload\n      swap1\n      0x0100\n      exp\n      swap1\n      div\n      0xffffffffffffffffffffffffffffffffffffffff\n      and\n        /* \"Code-hardhat-ethersJs/contracts/AAVETest.sol\":4394:4405  DAI.approve */\n      0xffffffffffffffffffffffffffffffffffffffff\n      and\n      0x095ea7b3\n        /* \"Code-hardhat-ethersJs/contracts/AAVETest.sol\":4414:4423  uv2router */\n      0x0b\n      0x00\n      swap1\n      sload\n      swap1\n      0x0100\n      exp\n      swap1\n      div\n      0xffffffffffffffffffffffffffffffffffffffff\n      and\n        /* \"Code-hardhat-ethersJs/contracts/AAVETest.sol\":4431:4458  100000000000000000000000000 */\n      0x52b7d2dcc80cd2e4000000\n        /* \"Code-hardhat-ethersJs/contracts/AAVETest.sol\":4394:4460  DAI.approve(address(uv2router), uint(100000000000000000000000000)) */\n      mload(0x40)\n      dup4\n      0xffffffff\n      and\n      0xe0\n      shl\n      dup2\n      mstore\n      0x04\n      add\n      tag_107\n      swap3\n      swap2\n      swap1\n      tag_33\n      jump\t// in\n    tag_107:\n      0x20\n      mload(0x40)\n      dup1\n      dup4\n      sub\n      dup2\n      0x00\n      dup8\n      gas\n      call\n      iszero\n      dup1\n      iszero\n      tag_109\n      jumpi\n      returndatasize\n      0x00\n      dup1\n      returndatacopy\n      revert(0x00, returndatasize)\n    tag_109:\n      pop\n      pop\n      pop\n      pop\n      mload(0x40)\n      returndatasize\n      not(0x1f)\n      0x1f\n      dup3\n      add\n      and\n      dup3\n      add\n      dup1\n      0x40\n      mstore\n      pop\n      dup2\n      add\n      swap1\n      tag_110\n      swap2\n      swap1\n      tag_37\n      jump\t// in\n    tag_110:\n      pop\n        /* \"Code-hardhat-ethersJs/contracts/AAVETest.sol\":4470:4473  DAI */\n      0x0f\n      0x00\n      swap1\n      sload\n      swap1\n      0x0100\n      exp\n      swap1\n      div\n      0xffffffffffffffffffffffffffffffffffffffff\n      and\n        /* \"Code-hardhat-ethersJs/contracts/AAVETest.sol\":4470:4481  DAI.approve */\n      0xffffffffffffffffffffffffffffffffffffffff\n      and\n      0x095ea7b3\n        /* \"Code-hardhat-ethersJs/contracts/AAVETest.sol\":4490:4499  uv3router */\n      0x0c\n      0x00\n      swap1\n      sload\n      swap1\n      0x0100\n      exp\n      swap1\n      div\n      0xffffffffffffffffffffffffffffffffffffffff\n      and\n        /* \"Code-hardhat-ethersJs/contracts/AAVETest.sol\":4507:4534  100000000000000000000000000 */\n      0x52b7d2dcc80cd2e4000000\n        /* \"Code-hardhat-ethersJs/contracts/AAVETest.sol\":4470:4536  DAI.approve(address(uv3router), uint(100000000000000000000000000)) */\n      mload(0x40)\n      dup4\n      0xffffffff\n      and\n      0xe0\n      shl\n      dup2\n      mstore\n      0x04\n      add\n      tag_111\n      swap3\n      swap2\n      swap1\n      tag_33\n      jump\t// in\n    tag_111:\n      0x20\n      mload(0x40)\n      dup1\n      dup4\n      sub\n      dup2\n      0x00\n      dup8\n      gas\n      call\n      iszero\n      dup1\n      iszero\n      tag_113\n      jumpi\n      returndatasize\n      0x00\n      dup1\n      returndatacopy\n      revert(0x00, returndatasize)\n    tag_113:\n      pop\n      pop\n      pop\n      pop\n      mload(0x40)\n      returndatasize\n      not(0x1f)\n      0x1f\n      dup3\n      add\n      and\n      dup3\n      add\n      dup1\n      0x40\n      mstore\n      pop\n      dup2\n      add\n      swap1\n      tag_114\n      swap2\n      swap1\n      tag_37\n      jump\t// in\n    tag_114:\n      pop\n        /* \"Code-hardhat-ethersJs/contracts/AAVETest.sol\":4551:4555  POOL */\n      immutable(\"0x489603a19aaa398638b499cf6d07e7632ded4210a8c094120f2860cef1e4eaf7\")\n        /* \"Code-hardhat-ethersJs/contracts/AAVETest.sol\":4551:4565  POOL.flashLoan */\n      0xffffffffffffffffffffffffffffffffffffffff\n      and\n      0xab9c4b5d\n        /* \"Code-hardhat-ethersJs/contracts/AAVETest.sol\":4566:4581  receiverAddress */\n      dup8\n        /* \"Code-hardhat-ethersJs/contracts/AAVETest.sol\":4583:4589  assets */\n      dup8\n        /* \"Code-hardhat-ethersJs/contracts/AAVETest.sol\":4591:4598  amounts */\n      dup8\n        /* \"Code-hardhat-ethersJs/contracts/AAVETest.sol\":4600:4617  interestRateModes */\n      dup8\n        /* \"Code-hardhat-ethersJs/contracts/AAVETest.sol\":4619:4634  receiverAddress */\n      dup12\n        /* \"Code-hardhat-ethersJs/contracts/AAVETest.sol\":4636:4642  params */\n      dup9\n        /* \"Code-hardhat-ethersJs/contracts/AAVETest.sol\":4643:4655  referralCode */\n      dup9\n        /* \"Code-hardhat-ethersJs/contracts/AAVETest.sol\":4551:4656  POOL.flashLoan(receiverAddress, assets, amounts, interestRateModes, receiverAddress, params,referralCode) */\n      mload(0x40)\n      dup9\n      0xffffffff\n      and\n      0xe0\n      shl\n      dup2\n      mstore\n      0x04\n      add\n      tag_115\n      swap8\n      swap7\n      swap6\n      swap5\n      swap4\n      swap3\n      swap2\n      swap1\n      tag_116\n      jump\t// in\n    tag_115:\n      0x00\n      mload(0x40)\n      dup1\n      dup4\n      sub\n      dup2\n      0x00\n      dup8\n      dup1\n      extcodesize\n      iszero\n      dup1\n      iszero\n      tag_117\n      jumpi\n      0x00\n      dup1\n      revert\n    tag_117:\n      pop\n      gas\n      call\n      iszero\n      dup1\n      iszero\n      tag_119\n      jumpi\n      returndatasize\n      0x00\n      dup1\n      returndatacopy\n      revert(0x00, returndatasize)\n    tag_119:\n      pop\n      pop\n      pop\n      pop\n        /* \"Code-hardhat-ethersJs/contracts/AAVETest.sol\":3767:4663  {... */\n      pop\n      pop\n      pop\n      pop\n      pop\n      pop\n        /* \"Code-hardhat-ethersJs/contracts/AAVETest.sol\":3711:4663  function testAAVE(address asset,uint256 _amount) public {... */\n      pop\n      pop\n      jump\t// out\n        /* \"@aave/core-v3/contracts/dependencies/openzeppelin/contracts/SafeMath.sol\":410:539  function add(uint256 x, uint256 y) internal pure returns (uint256 z) {... */\n    tag_31:\n        /* \"@aave/core-v3/contracts/dependencies/openzeppelin/contracts/SafeMath.sol\":468:477  uint256 z */\n      0x00\n        /* \"@aave/core-v3/contracts/dependencies/openzeppelin/contracts/SafeMath.sol\":526:527  x */\n      dup3\n        /* \"@aave/core-v3/contracts/dependencies/openzeppelin/contracts/SafeMath.sol\":520:521  y */\n      dup3\n        /* \"@aave/core-v3/contracts/dependencies/openzeppelin/contracts/SafeMath.sol\":516:517  x */\n      dup5\n        /* \"@aave/core-v3/contracts/dependencies/openzeppelin/contracts/SafeMath.sol\":516:521  x + y */\n      add\n        /* \"@aave/core-v3/contracts/dependencies/openzeppelin/contracts/SafeMath.sol\":512:521  z = x + y */\n      swap2\n      pop\n      dup2\n        /* \"@aave/core-v3/contracts/dependencies/openzeppelin/contracts/SafeMath.sol\":511:527  (z = x + y) >= x */\n      lt\n      iszero\n        /* \"@aave/core-v3/contracts/dependencies/openzeppelin/contracts/SafeMath.sol\":503:528  require((z = x + y) >= x) */\n      tag_121\n      jumpi\n      0x00\n      dup1\n      revert\n    tag_121:\n        /* \"@aave/core-v3/contracts/dependencies/openzeppelin/contracts/SafeMath.sol\":410:539  function add(uint256 x, uint256 y) internal pure returns (uint256 z) {... */\n      swap3\n      swap2\n      pop\n      pop\n      jump\t// out\n        /* \"#utility.yul\":7:133   */\n    tag_122:\n        /* \"#utility.yul\":44:51   */\n      0x00\n        /* \"#utility.yul\":84:126   */\n      0xffffffffffffffffffffffffffffffffffffffff\n        /* \"#utility.yul\":77:82   */\n      dup3\n        /* \"#utility.yul\":73:127   */\n      and\n        /* \"#utility.yul\":62:127   */\n      swap1\n      pop\n        /* \"#utility.yul\":7:133   */\n      swap2\n      swap1\n      pop\n      jump\t// out\n        /* \"#utility.yul\":139:199   */\n    tag_123:\n        /* \"#utility.yul\":167:170   */\n      0x00\n        /* \"#utility.yul\":188:193   */\n      dup2\n        /* \"#utility.yul\":181:193   */\n      swap1\n      pop\n        /* \"#utility.yul\":139:199   */\n      swap2\n      swap1\n      pop\n      jump\t// out\n        /* \"#utility.yul\":205:347   */\n    tag_124:\n        /* \"#utility.yul\":255:264   */\n      0x00\n        /* \"#utility.yul\":288:341   */\n      tag_187\n        /* \"#utility.yul\":306:340   */\n      tag_188\n        /* \"#utility.yul\":315:339   */\n      tag_189\n        /* \"#utility.yul\":333:338   */\n      dup5\n        /* \"#utility.yul\":315:339   */\n      tag_122\n      jump\t// in\n    tag_189:\n        /* \"#utility.yul\":306:340   */\n      tag_123\n      jump\t// in\n    tag_188:\n        /* \"#utility.yul\":288:341   */\n      tag_122\n      jump\t// in\n    tag_187:\n        /* \"#utility.yul\":275:341   */\n      swap1\n      pop\n        /* \"#utility.yul\":205:347   */\n      swap2\n      swap1\n      pop\n      jump\t// out\n        /* \"#utility.yul\":353:479   */\n    tag_125:\n        /* \"#utility.yul\":403:412   */\n      0x00\n        /* \"#utility.yul\":436:473   */\n      tag_191\n        /* \"#utility.yul\":467:472   */\n      dup3\n        /* \"#utility.yul\":436:473   */\n      tag_124\n      jump\t// in\n    tag_191:\n        /* \"#utility.yul\":423:473   */\n      swap1\n      pop\n        /* \"#utility.yul\":353:479   */\n      swap2\n      swap1\n      pop\n      jump\t// out\n        /* \"#utility.yul\":485:641   */\n    tag_126:\n        /* \"#utility.yul\":565:574   */\n      0x00\n        /* \"#utility.yul\":598:635   */\n      tag_193\n        /* \"#utility.yul\":629:634   */\n      dup3\n        /* \"#utility.yul\":598:635   */\n      tag_125\n      jump\t// in\n    tag_193:\n        /* \"#utility.yul\":585:635   */\n      swap1\n      pop\n        /* \"#utility.yul\":485:641   */\n      swap2\n      swap1\n      pop\n      jump\t// out\n        /* \"#utility.yul\":647:838   */\n    tag_127:\n        /* \"#utility.yul\":764:831   */\n      tag_195\n        /* \"#utility.yul\":825:830   */\n      dup2\n        /* \"#utility.yul\":764:831   */\n      tag_126\n      jump\t// in\n    tag_195:\n        /* \"#utility.yul\":759:762   */\n      dup3\n        /* \"#utility.yul\":752:832   */\n      mstore\n        /* \"#utility.yul\":647:838   */\n      pop\n      pop\n      jump\t// out\n        /* \"#utility.yul\":844:1126   */\n    tag_11:\n        /* \"#utility.yul\":967:971   */\n      0x00\n        /* \"#utility.yul\":1005:1007   */\n      0x20\n        /* \"#utility.yul\":994:1003   */\n      dup3\n        /* \"#utility.yul\":990:1008   */\n      add\n        /* \"#utility.yul\":982:1008   */\n      swap1\n      pop\n        /* \"#utility.yul\":1018:1119   */\n      tag_197\n        /* \"#utility.yul\":1116:1117   */\n      0x00\n        /* \"#utility.yul\":1105:1114   */\n      dup4\n        /* \"#utility.yul\":1101:1118   */\n      add\n        /* \"#utility.yul\":1092:1098   */\n      dup5\n        /* \"#utility.yul\":1018:1119   */\n      tag_127\n      jump\t// in\n    tag_197:\n        /* \"#utility.yul\":844:1126   */\n      swap3\n      swap2\n      pop\n      pop\n      jump\t// out\n        /* \"#utility.yul\":1132:1207   */\n    tag_128:\n        /* \"#utility.yul\":1165:1171   */\n      0x00\n        /* \"#utility.yul\":1198:1200   */\n      0x40\n        /* \"#utility.yul\":1192:1201   */\n      mload\n        /* \"#utility.yul\":1182:1201   */\n      swap1\n      pop\n        /* \"#utility.yul\":1132:1207   */\n      swap1\n      jump\t// out\n        /* \"#utility.yul\":1213:1330   */\n    tag_129:\n        /* \"#utility.yul\":1322:1323   */\n      0x00\n        /* \"#utility.yul\":1319:1320   */\n      dup1\n        /* \"#utility.yul\":1312:1324   */\n      revert\n        /* \"#utility.yul\":1336:1453   */\n    tag_130:\n        /* \"#utility.yul\":1445:1446   */\n      0x00\n        /* \"#utility.yul\":1442:1443   */\n      dup1\n        /* \"#utility.yul\":1435:1447   */\n      revert\n        /* \"#utility.yul\":1459:1555   */\n    tag_131:\n        /* \"#utility.yul\":1496:1503   */\n      0x00\n        /* \"#utility.yul\":1525:1549   */\n      tag_202\n        /* \"#utility.yul\":1543:1548   */\n      dup3\n        /* \"#utility.yul\":1525:1549   */\n      tag_122\n      jump\t// in\n    tag_202:\n        /* \"#utility.yul\":1514:1549   */\n      swap1\n      pop\n        /* \"#utility.yul\":1459:1555   */\n      swap2\n      swap1\n      pop\n      jump\t// out\n        /* \"#utility.yul\":1561:1683   */\n    tag_132:\n        /* \"#utility.yul\":1634:1658   */\n      tag_204\n        /* \"#utility.yul\":1652:1657   */\n      dup2\n        /* \"#utility.yul\":1634:1658   */\n      tag_131\n      jump\t// in\n    tag_204:\n        /* \"#utility.yul\":1627:1632   */\n      dup2\n        /* \"#utility.yul\":1624:1659   */\n      eq\n        /* \"#utility.yul\":1614:1677   */\n      tag_205\n      jumpi\n        /* \"#utility.yul\":1673:1674   */\n      0x00\n        /* \"#utility.yul\":1670:1671   */\n      dup1\n        /* \"#utility.yul\":1663:1675   */\n      revert\n        /* \"#utility.yul\":1614:1677   */\n    tag_205:\n        /* \"#utility.yul\":1561:1683   */\n      pop\n      jump\t// out\n        /* \"#utility.yul\":1689:1828   */\n    tag_133:\n        /* \"#utility.yul\":1735:1740   */\n      0x00\n        /* \"#utility.yul\":1773:1779   */\n      dup2\n        /* \"#utility.yul\":1760:1780   */\n      calldataload\n        /* \"#utility.yul\":1751:1780   */\n      swap1\n      pop\n        /* \"#utility.yul\":1789:1822   */\n      tag_207\n        /* \"#utility.yul\":1816:1821   */\n      dup2\n        /* \"#utility.yul\":1789:1822   */\n      tag_132\n      jump\t// in\n    tag_207:\n        /* \"#utility.yul\":1689:1828   */\n      swap3\n      swap2\n      pop\n      pop\n      jump\t// out\n        /* \"#utility.yul\":1834:1911   */\n    tag_134:\n        /* \"#utility.yul\":1871:1878   */\n      0x00\n        /* \"#utility.yul\":1900:1905   */\n      dup2\n        /* \"#utility.yul\":1889:1905   */\n      swap1\n      pop\n        /* \"#utility.yul\":1834:1911   */\n      swap2\n      swap1\n      pop\n      jump\t// out\n        /* \"#utility.yul\":1917:2039   */\n    tag_135:\n        /* \"#utility.yul\":1990:2014   */\n      tag_210\n        /* \"#utility.yul\":2008:2013   */\n      dup2\n        /* \"#utility.yul\":1990:2014   */\n      tag_134\n      jump\t// in\n    tag_210:\n        /* \"#utility.yul\":1983:1988   */\n      dup2\n        /* \"#utility.yul\":1980:2015   */\n      eq\n        /* \"#utility.yul\":1970:2033   */\n      tag_211\n      jumpi\n        /* \"#utility.yul\":2029:2030   */\n      0x00\n        /* \"#utility.yul\":2026:2027   */\n      dup1\n        /* \"#utility.yul\":2019:2031   */\n      revert\n        /* \"#utility.yul\":1970:2033   */\n    tag_211:\n        /* \"#utility.yul\":1917:2039   */\n      pop\n      jump\t// out\n        /* \"#utility.yul\":2045:2184   */\n    tag_136:\n        /* \"#utility.yul\":2091:2096   */\n      0x00\n        /* \"#utility.yul\":2129:2135   */\n      dup2\n        /* \"#utility.yul\":2116:2136   */\n      calldataload\n        /* \"#utility.yul\":2107:2136   */\n      swap1\n      pop\n        /* \"#utility.yul\":2145:2178   */\n      tag_213\n        /* \"#utility.yul\":2172:2177   */\n      dup2\n        /* \"#utility.yul\":2145:2178   */\n      tag_135\n      jump\t// in\n    tag_213:\n        /* \"#utility.yul\":2045:2184   */\n      swap3\n      swap2\n      pop\n      pop\n      jump\t// out\n        /* \"#utility.yul\":2190:2307   */\n    tag_137:\n        /* \"#utility.yul\":2299:2300   */\n      0x00\n        /* \"#utility.yul\":2296:2297   */\n      dup1\n        /* \"#utility.yul\":2289:2301   */\n      revert\n        /* \"#utility.yul\":2313:2430   */\n    tag_138:\n        /* \"#utility.yul\":2422:2423   */\n      0x00\n        /* \"#utility.yul\":2419:2420   */\n      dup1\n        /* \"#utility.yul\":2412:2424   */\n      revert\n        /* \"#utility.yul\":2436:2553   */\n    tag_139:\n        /* \"#utility.yul\":2545:2546   */\n      0x00\n        /* \"#utility.yul\":2542:2543   */\n      dup1\n        /* \"#utility.yul\":2535:2547   */\n      revert\n        /* \"#utility.yul\":2572:3124   */\n    tag_140:\n        /* \"#utility.yul\":2629:2637   */\n      0x00\n        /* \"#utility.yul\":2639:2645   */\n      dup1\n        /* \"#utility.yul\":2689:2692   */\n      dup4\n        /* \"#utility.yul\":2682:2686   */\n      0x1f\n        /* \"#utility.yul\":2674:2680   */\n      dup5\n        /* \"#utility.yul\":2670:2687   */\n      add\n        /* \"#utility.yul\":2666:2693   */\n      slt\n        /* \"#utility.yul\":2656:2778   */\n      tag_218\n      jumpi\n        /* \"#utility.yul\":2697:2776   */\n      tag_219\n      tag_137\n      jump\t// in\n    tag_219:\n        /* \"#utility.yul\":2656:2778   */\n    tag_218:\n        /* \"#utility.yul\":2810:2816   */\n      dup3\n        /* \"#utility.yul\":2797:2817   */\n      calldataload\n        /* \"#utility.yul\":2787:2817   */\n      swap1\n      pop\n        /* \"#utility.yul\":2840:2858   */\n      0xffffffffffffffff\n        /* \"#utility.yul\":2832:2838   */\n      dup2\n        /* \"#utility.yul\":2829:2859   */\n      gt\n        /* \"#utility.yul\":2826:2943   */\n      iszero\n      tag_220\n      jumpi\n        /* \"#utility.yul\":2862:2941   */\n      tag_221\n      tag_138\n      jump\t// in\n    tag_221:\n        /* \"#utility.yul\":2826:2943   */\n    tag_220:\n        /* \"#utility.yul\":2976:2980   */\n      0x20\n        /* \"#utility.yul\":2968:2974   */\n      dup4\n        /* \"#utility.yul\":2964:2981   */\n      add\n        /* \"#utility.yul\":2952:2981   */\n      swap2\n      pop\n        /* \"#utility.yul\":3030:3033   */\n      dup4\n        /* \"#utility.yul\":3022:3026   */\n      0x01\n        /* \"#utility.yul\":3014:3020   */\n      dup3\n        /* \"#utility.yul\":3010:3027   */\n      mul\n        /* \"#utility.yul\":3000:3008   */\n      dup4\n        /* \"#utility.yul\":2996:3028   */\n      add\n        /* \"#utility.yul\":2993:3034   */\n      gt\n        /* \"#utility.yul\":2990:3118   */\n      iszero\n      tag_222\n      jumpi\n        /* \"#utility.yul\":3037:3116   */\n      tag_223\n      tag_139\n      jump\t// in\n    tag_223:\n        /* \"#utility.yul\":2990:3118   */\n    tag_222:\n        /* \"#utility.yul\":2572:3124   */\n      swap3\n      pop\n      swap3\n      swap1\n      pop\n      jump\t// out\n        /* \"#utility.yul\":3130:4239   */\n    tag_14:\n        /* \"#utility.yul\":3236:3242   */\n      0x00\n        /* \"#utility.yul\":3244:3250   */\n      dup1\n        /* \"#utility.yul\":3252:3258   */\n      0x00\n        /* \"#utility.yul\":3260:3266   */\n      dup1\n        /* \"#utility.yul\":3268:3274   */\n      0x00\n        /* \"#utility.yul\":3276:3282   */\n      dup1\n        /* \"#utility.yul\":3325:3328   */\n      0xa0\n        /* \"#utility.yul\":3313:3322   */\n      dup8\n        /* \"#utility.yul\":3304:3311   */\n      dup10\n        /* \"#utility.yul\":3300:3323   */\n      sub\n        /* \"#utility.yul\":3296:3329   */\n      slt\n        /* \"#utility.yul\":3293:3413   */\n      iszero\n      tag_225\n      jumpi\n        /* \"#utility.yul\":3332:3411   */\n      tag_226\n      tag_129\n      jump\t// in\n    tag_226:\n        /* \"#utility.yul\":3293:3413   */\n    tag_225:\n        /* \"#utility.yul\":3452:3453   */\n      0x00\n        /* \"#utility.yul\":3477:3530   */\n      tag_227\n        /* \"#utility.yul\":3522:3529   */\n      dup10\n        /* \"#utility.yul\":3513:3519   */\n      dup3\n        /* \"#utility.yul\":3502:3511   */\n      dup11\n        /* \"#utility.yul\":3498:3520   */\n      add\n        /* \"#utility.yul\":3477:3530   */\n      tag_133\n      jump\t// in\n    tag_227:\n        /* \"#utility.yul\":3467:3530   */\n      swap7\n      pop\n        /* \"#utility.yul\":3423:3540   */\n      pop\n        /* \"#utility.yul\":3579:3581   */\n      0x20\n        /* \"#utility.yul\":3605:3658   */\n      tag_228\n        /* \"#utility.yul\":3650:3657   */\n      dup10\n        /* \"#utility.yul\":3641:3647   */\n      dup3\n        /* \"#utility.yul\":3630:3639   */\n      dup11\n        /* \"#utility.yul\":3626:3648   */\n      add\n        /* \"#utility.yul\":3605:3658   */\n      tag_136\n      jump\t// in\n    tag_228:\n        /* \"#utility.yul\":3595:3658   */\n      swap6\n      pop\n        /* \"#utility.yul\":3550:3668   */\n      pop\n        /* \"#utility.yul\":3707:3709   */\n      0x40\n        /* \"#utility.yul\":3733:3786   */\n      tag_229\n        /* \"#utility.yul\":3778:3785   */\n      dup10\n        /* \"#utility.yul\":3769:3775   */\n      dup3\n        /* \"#utility.yul\":3758:3767   */\n      dup11\n        /* \"#utility.yul\":3754:3776   */\n      add\n        /* \"#utility.yul\":3733:3786   */\n      tag_136\n      jump\t// in\n    tag_229:\n        /* \"#utility.yul\":3723:3786   */\n      swap5\n      pop\n        /* \"#utility.yul\":3678:3796   */\n      pop\n        /* \"#utility.yul\":3835:3837   */\n      0x60\n        /* \"#utility.yul\":3861:3914   */\n      tag_230\n        /* \"#utility.yul\":3906:3913   */\n      dup10\n        /* \"#utility.yul\":3897:3903   */\n      dup3\n        /* \"#utility.yul\":3886:3895   */\n      dup11\n        /* \"#utility.yul\":3882:3904   */\n      add\n        /* \"#utility.yul\":3861:3914   */\n      tag_133\n      jump\t// in\n    tag_230:\n        /* \"#utility.yul\":3851:3914   */\n      swap4\n      pop\n        /* \"#utility.yul\":3806:3924   */\n      pop\n        /* \"#utility.yul\":3991:3994   */\n      0x80\n        /* \"#utility.yul\":3980:3989   */\n      dup8\n        /* \"#utility.yul\":3976:3995   */\n      add\n        /* \"#utility.yul\":3963:3996   */\n      calldataload\n        /* \"#utility.yul\":4023:4041   */\n      0xffffffffffffffff\n        /* \"#utility.yul\":4015:4021   */\n      dup2\n        /* \"#utility.yul\":4012:4042   */\n      gt\n        /* \"#utility.yul\":4009:4126   */\n      iszero\n      tag_231\n      jumpi\n        /* \"#utility.yul\":4045:4124   */\n      tag_232\n      tag_130\n      jump\t// in\n    tag_232:\n        /* \"#utility.yul\":4009:4126   */\n    tag_231:\n        /* \"#utility.yul\":4158:4222   */\n      tag_233\n        /* \"#utility.yul\":4214:4221   */\n      dup10\n        /* \"#utility.yul\":4205:4211   */\n      dup3\n        /* \"#utility.yul\":4194:4203   */\n      dup11\n        /* \"#utility.yul\":4190:4212   */\n      add\n        /* \"#utility.yul\":4158:4222   */\n      tag_140\n      jump\t// in\n    tag_233:\n        /* \"#utility.yul\":4140:4222   */\n      swap3\n      pop\n      swap3\n      pop\n        /* \"#utility.yul\":3934:4232   */\n      pop\n        /* \"#utility.yul\":3130:4239   */\n      swap3\n      swap6\n      pop\n      swap3\n      swap6\n      pop\n      swap3\n      swap6\n      jump\t// out\n        /* \"#utility.yul\":4245:4335   */\n    tag_141:\n        /* \"#utility.yul\":4279:4286   */\n      0x00\n        /* \"#utility.yul\":4322:4327   */\n      dup2\n        /* \"#utility.yul\":4315:4328   */\n      iszero\n        /* \"#utility.yul\":4308:4329   */\n      iszero\n        /* \"#utility.yul\":4297:4329   */\n      swap1\n      pop\n        /* \"#utility.yul\":4245:4335   */\n      swap2\n      swap1\n      pop\n      jump\t// out\n        /* \"#utility.yul\":4341:4450   */\n    tag_142:\n        /* \"#utility.yul\":4422:4443   */\n      tag_236\n        /* \"#utility.yul\":4437:4442   */\n      dup2\n        /* \"#utility.yul\":4422:4443   */\n      tag_141\n      jump\t// in\n    tag_236:\n        /* \"#utility.yul\":4417:4420   */\n      dup3\n        /* \"#utility.yul\":4410:4444   */\n      mstore\n        /* \"#utility.yul\":4341:4450   */\n      pop\n      pop\n      jump\t// out\n        /* \"#utility.yul\":4456:4666   */\n    tag_17:\n        /* \"#utility.yul\":4543:4547   */\n      0x00\n        /* \"#utility.yul\":4581:4583   */\n      0x20\n        /* \"#utility.yul\":4570:4579   */\n      dup3\n        /* \"#utility.yul\":4566:4584   */\n      add\n        /* \"#utility.yul\":4558:4584   */\n      swap1\n      pop\n        /* \"#utility.yul\":4594:4659   */\n      tag_238\n        /* \"#utility.yul\":4656:4657   */\n      0x00\n        /* \"#utility.yul\":4645:4654   */\n      dup4\n        /* \"#utility.yul\":4641:4658   */\n      add\n        /* \"#utility.yul\":4632:4638   */\n      dup5\n        /* \"#utility.yul\":4594:4659   */\n      tag_142\n      jump\t// in\n    tag_238:\n        /* \"#utility.yul\":4456:4666   */\n      swap3\n      swap2\n      pop\n      pop\n      jump\t// out\n        /* \"#utility.yul\":4672:4811   */\n    tag_143:\n        /* \"#utility.yul\":4735:4744   */\n      0x00\n        /* \"#utility.yul\":4768:4805   */\n      tag_240\n        /* \"#utility.yul\":4799:4804   */\n      dup3\n        /* \"#utility.yul\":4768:4805   */\n      tag_125\n      jump\t// in\n    tag_240:\n        /* \"#utility.yul\":4755:4805   */\n      swap1\n      pop\n        /* \"#utility.yul\":4672:4811   */\n      swap2\n      swap1\n      pop\n      jump\t// out\n        /* \"#utility.yul\":4817:4974   */\n    tag_144:\n        /* \"#utility.yul\":4917:4967   */\n      tag_242\n        /* \"#utility.yul\":4961:4966   */\n      dup2\n        /* \"#utility.yul\":4917:4967   */\n      tag_143\n      jump\t// in\n    tag_242:\n        /* \"#utility.yul\":4912:4915   */\n      dup3\n        /* \"#utility.yul\":4905:4968   */\n      mstore\n        /* \"#utility.yul\":4817:4974   */\n      pop\n      pop\n      jump\t// out\n        /* \"#utility.yul\":4980:5228   */\n    tag_21:\n        /* \"#utility.yul\":5086:5090   */\n      0x00\n        /* \"#utility.yul\":5124:5126   */\n      0x20\n        /* \"#utility.yul\":5113:5122   */\n      dup3\n        /* \"#utility.yul\":5109:5127   */\n      add\n        /* \"#utility.yul\":5101:5127   */\n      swap1\n      pop\n        /* \"#utility.yul\":5137:5221   */\n      tag_244\n        /* \"#utility.yul\":5218:5219   */\n      0x00\n        /* \"#utility.yul\":5207:5216   */\n      dup4\n        /* \"#utility.yul\":5203:5220   */\n      add\n        /* \"#utility.yul\":5194:5200   */\n      dup5\n        /* \"#utility.yul\":5137:5221   */\n      tag_144\n      jump\t// in\n    tag_244:\n        /* \"#utility.yul\":4980:5228   */\n      swap3\n      swap2\n      pop\n      pop\n      jump\t// out\n        /* \"#utility.yul\":5234:5708   */\n    tag_24:\n        /* \"#utility.yul\":5302:5308   */\n      0x00\n        /* \"#utility.yul\":5310:5316   */\n      dup1\n        /* \"#utility.yul\":5359:5361   */\n      0x40\n        /* \"#utility.yul\":5347:5356   */\n      dup4\n        /* \"#utility.yul\":5338:5345   */\n      dup6\n        /* \"#utility.yul\":5334:5357   */\n      sub\n        /* \"#utility.yul\":5330:5362   */\n      slt\n        /* \"#utility.yul\":5327:5446   */\n      iszero\n      tag_246\n      jumpi\n        /* \"#utility.yul\":5365:5444   */\n      tag_247\n      tag_129\n      jump\t// in\n    tag_247:\n        /* \"#utility.yul\":5327:5446   */\n    tag_246:\n        /* \"#utility.yul\":5485:5486   */\n      0x00\n        /* \"#utility.yul\":5510:5563   */\n      tag_248\n        /* \"#utility.yul\":5555:5562   */\n      dup6\n        /* \"#utility.yul\":5546:5552   */\n      dup3\n        /* \"#utility.yul\":5535:5544   */\n      dup7\n        /* \"#utility.yul\":5531:5553   */\n      add\n        /* \"#utility.yul\":5510:5563   */\n      tag_133\n      jump\t// in\n    tag_248:\n        /* \"#utility.yul\":5500:5563   */\n      swap3\n      pop\n        /* \"#utility.yul\":5456:5573   */\n      pop\n        /* \"#utility.yul\":5612:5614   */\n      0x20\n        /* \"#utility.yul\":5638:5691   */\n      tag_249\n        /* \"#utility.yul\":5683:5690   */\n      dup6\n        /* \"#utility.yul\":5674:5680   */\n      dup3\n        /* \"#utility.yul\":5663:5672   */\n      dup7\n        /* \"#utility.yul\":5659:5681   */\n      add\n        /* \"#utility.yul\":5638:5691   */\n      tag_136\n      jump\t// in\n    tag_249:\n        /* \"#utility.yul\":5628:5691   */\n      swap2\n      pop\n        /* \"#utility.yul\":5583:5701   */\n      pop\n        /* \"#utility.yul\":5234:5708   */\n      swap3\n      pop\n      swap3\n      swap1\n      pop\n      jump\t// out\n        /* \"#utility.yul\":5714:5832   */\n    tag_145:\n        /* \"#utility.yul\":5801:5825   */\n      tag_251\n        /* \"#utility.yul\":5819:5824   */\n      dup2\n        /* \"#utility.yul\":5801:5825   */\n      tag_131\n      jump\t// in\n    tag_251:\n        /* \"#utility.yul\":5796:5799   */\n      dup3\n        /* \"#utility.yul\":5789:5826   */\n      mstore\n        /* \"#utility.yul\":5714:5832   */\n      pop\n      pop\n      jump\t// out\n        /* \"#utility.yul\":5838:5956   */\n    tag_146:\n        /* \"#utility.yul\":5925:5949   */\n      tag_253\n        /* \"#utility.yul\":5943:5948   */\n      dup2\n        /* \"#utility.yul\":5925:5949   */\n      tag_134\n      jump\t// in\n    tag_253:\n        /* \"#utility.yul\":5920:5923   */\n      dup3\n        /* \"#utility.yul\":5913:5950   */\n      mstore\n        /* \"#utility.yul\":5838:5956   */\n      pop\n      pop\n      jump\t// out\n        /* \"#utility.yul\":5962:6294   */\n    tag_33:\n        /* \"#utility.yul\":6083:6087   */\n      0x00\n        /* \"#utility.yul\":6121:6123   */\n      0x40\n        /* \"#utility.yul\":6110:6119   */\n      dup3\n        /* \"#utility.yul\":6106:6124   */\n      add\n        /* \"#utility.yul\":6098:6124   */\n      swap1\n      pop\n        /* \"#utility.yul\":6134:6205   */\n      tag_255\n        /* \"#utility.yul\":6202:6203   */\n      0x00\n        /* \"#utility.yul\":6191:6200   */\n      dup4\n        /* \"#utility.yul\":6187:6204   */\n      add\n        /* \"#utility.yul\":6178:6184   */\n      dup6\n        /* \"#utility.yul\":6134:6205   */\n      tag_145\n      jump\t// in\n    tag_255:\n        /* \"#utility.yul\":6215:6287   */\n      tag_256\n        /* \"#utility.yul\":6283:6285   */\n      0x20\n        /* \"#utility.yul\":6272:6281   */\n      dup4\n        /* \"#utility.yul\":6268:6286   */\n      add\n        /* \"#utility.yul\":6259:6265   */\n      dup5\n        /* \"#utility.yul\":6215:6287   */\n      tag_146\n      jump\t// in\n    tag_256:\n        /* \"#utility.yul\":5962:6294   */\n      swap4\n      swap3\n      pop\n      pop\n      pop\n      jump\t// out\n        /* \"#utility.yul\":6300:6416   */\n    tag_147:\n        /* \"#utility.yul\":6370:6391   */\n      tag_258\n        /* \"#utility.yul\":6385:6390   */\n      dup2\n        /* \"#utility.yul\":6370:6391   */\n      tag_141\n      jump\t// in\n    tag_258:\n        /* \"#utility.yul\":6363:6368   */\n      dup2\n        /* \"#utility.yul\":6360:6392   */\n      eq\n        /* \"#utility.yul\":6350:6410   */\n      tag_259\n      jumpi\n        /* \"#utility.yul\":6406:6407   */\n      0x00\n        /* \"#utility.yul\":6403:6404   */\n      dup1\n        /* \"#utility.yul\":6396:6408   */\n      revert\n        /* \"#utility.yul\":6350:6410   */\n    tag_259:\n        /* \"#utility.yul\":6300:6416   */\n      pop\n      jump\t// out\n        /* \"#utility.yul\":6422:6559   */\n    tag_148:\n        /* \"#utility.yul\":6476:6481   */\n      0x00\n        /* \"#utility.yul\":6507:6513   */\n      dup2\n        /* \"#utility.yul\":6501:6514   */\n      mload\n        /* \"#utility.yul\":6492:6514   */\n      swap1\n      pop\n        /* \"#utility.yul\":6523:6553   */\n      tag_261\n        /* \"#utility.yul\":6547:6552   */\n      dup2\n        /* \"#utility.yul\":6523:6553   */\n      tag_147\n      jump\t// in\n    tag_261:\n        /* \"#utility.yul\":6422:6559   */\n      swap3\n      swap2\n      pop\n      pop\n      jump\t// out\n        /* \"#utility.yul\":6565:6910   */\n    tag_37:\n        /* \"#utility.yul\":6632:6638   */\n      0x00\n        /* \"#utility.yul\":6681:6683   */\n      0x20\n        /* \"#utility.yul\":6669:6678   */\n      dup3\n        /* \"#utility.yul\":6660:6667   */\n      dup5\n        /* \"#utility.yul\":6656:6679   */\n      sub\n        /* \"#utility.yul\":6652:6684   */\n      slt\n        /* \"#utility.yul\":6649:6768   */\n      iszero\n      tag_263\n      jumpi\n        /* \"#utility.yul\":6687:6766   */\n      tag_264\n      tag_129\n      jump\t// in\n    tag_264:\n        /* \"#utility.yul\":6649:6768   */\n    tag_263:\n        /* \"#utility.yul\":6807:6808   */\n      0x00\n        /* \"#utility.yul\":6832:6893   */\n      tag_265\n        /* \"#utility.yul\":6885:6892   */\n      dup5\n        /* \"#utility.yul\":6876:6882   */\n      dup3\n        /* \"#utility.yul\":6865:6874   */\n      dup6\n        /* \"#utility.yul\":6861:6883   */\n      add\n        /* \"#utility.yul\":6832:6893   */\n      tag_148\n      jump\t// in\n    tag_265:\n        /* \"#utility.yul\":6822:6893   */\n      swap2\n      pop\n        /* \"#utility.yul\":6778:6903   */\n      pop\n        /* \"#utility.yul\":6565:6910   */\n      swap3\n      swap2\n      pop\n      pop\n      jump\t// out\n        /* \"#utility.yul\":6916:7096   */\n    tag_40:\n        /* \"#utility.yul\":6964:7041   */\n      0x4e487b7100000000000000000000000000000000000000000000000000000000\n        /* \"#utility.yul\":6961:6962   */\n      0x00\n        /* \"#utility.yul\":6954:7042   */\n      mstore\n        /* \"#utility.yul\":7061:7065   */\n      0x41\n        /* \"#utility.yul\":7058:7059   */\n      0x04\n        /* \"#utility.yul\":7051:7066   */\n      mstore\n        /* \"#utility.yul\":7085:7089   */\n      0x24\n        /* \"#utility.yul\":7082:7083   */\n      0x00\n        /* \"#utility.yul\":7075:7090   */\n      revert\n        /* \"#utility.yul\":7102:7282   */\n    tag_44:\n        /* \"#utility.yul\":7150:7227   */\n      0x4e487b7100000000000000000000000000000000000000000000000000000000\n        /* \"#utility.yul\":7147:7148   */\n      0x00\n        /* \"#utility.yul\":7140:7228   */\n      mstore\n        /* \"#utility.yul\":7247:7251   */\n      0x32\n        /* \"#utility.yul\":7244:7245   */\n      0x04\n        /* \"#utility.yul\":7237:7252   */\n      mstore\n        /* \"#utility.yul\":7271:7275   */\n      0x24\n        /* \"#utility.yul\":7268:7269   */\n      0x00\n        /* \"#utility.yul\":7261:7276   */\n      revert\n        /* \"#utility.yul\":7288:7373   */\n    tag_149:\n        /* \"#utility.yul\":7333:7340   */\n      0x00\n        /* \"#utility.yul\":7362:7367   */\n      dup2\n        /* \"#utility.yul\":7351:7367   */\n      swap1\n      pop\n        /* \"#utility.yul\":7288:7373   */\n      swap2\n      swap1\n      pop\n      jump\t// out\n        /* \"#utility.yul\":7379:7537   */\n    tag_150:\n        /* \"#utility.yul\":7437:7446   */\n      0x00\n        /* \"#utility.yul\":7470:7531   */\n      tag_270\n        /* \"#utility.yul\":7488:7530   */\n      tag_271\n        /* \"#utility.yul\":7497:7529   */\n      tag_272\n        /* \"#utility.yul\":7523:7528   */\n      dup5\n        /* \"#utility.yul\":7497:7529   */\n      tag_149\n      jump\t// in\n    tag_272:\n        /* \"#utility.yul\":7488:7530   */\n      tag_123\n      jump\t// in\n    tag_271:\n        /* \"#utility.yul\":7470:7531   */\n      tag_134\n      jump\t// in\n    tag_270:\n        /* \"#utility.yul\":7457:7531   */\n      swap1\n      pop\n        /* \"#utility.yul\":7379:7537   */\n      swap2\n      swap1\n      pop\n      jump\t// out\n        /* \"#utility.yul\":7543:7690   */\n    tag_151:\n        /* \"#utility.yul\":7638:7683   */\n      tag_274\n        /* \"#utility.yul\":7677:7682   */\n      dup2\n        /* \"#utility.yul\":7638:7683   */\n      tag_150\n      jump\t// in\n    tag_274:\n        /* \"#utility.yul\":7633:7636   */\n      dup3\n        /* \"#utility.yul\":7626:7684   */\n      mstore\n        /* \"#utility.yul\":7543:7690   */\n      pop\n      pop\n      jump\t// out\n        /* \"#utility.yul\":7696:7810   */\n    tag_152:\n        /* \"#utility.yul\":7763:7769   */\n      0x00\n        /* \"#utility.yul\":7797:7802   */\n      dup2\n        /* \"#utility.yul\":7791:7803   */\n      mload\n        /* \"#utility.yul\":7781:7803   */\n      swap1\n      pop\n        /* \"#utility.yul\":7696:7810   */\n      swap2\n      swap1\n      pop\n      jump\t// out\n        /* \"#utility.yul\":7816:8000   */\n    tag_153:\n        /* \"#utility.yul\":7915:7926   */\n      0x00\n        /* \"#utility.yul\":7949:7955   */\n      dup3\n        /* \"#utility.yul\":7944:7947   */\n      dup3\n        /* \"#utility.yul\":7937:7956   */\n      mstore\n        /* \"#utility.yul\":7989:7993   */\n      0x20\n        /* \"#utility.yul\":7984:7987   */\n      dup3\n        /* \"#utility.yul\":7980:7994   */\n      add\n        /* \"#utility.yul\":7965:7994   */\n      swap1\n      pop\n        /* \"#utility.yul\":7816:8000   */\n      swap3\n      swap2\n      pop\n      pop\n      jump\t// out\n        /* \"#utility.yul\":8006:8138   */\n    tag_154:\n        /* \"#utility.yul\":8073:8077   */\n      0x00\n        /* \"#utility.yul\":8096:8099   */\n      dup2\n        /* \"#utility.yul\":8088:8099   */\n      swap1\n      pop\n        /* \"#utility.yul\":8126:8130   */\n      0x20\n        /* \"#utility.yul\":8121:8124   */\n      dup3\n        /* \"#utility.yul\":8117:8131   */\n      add\n        /* \"#utility.yul\":8109:8131   */\n      swap1\n      pop\n        /* \"#utility.yul\":8006:8138   */\n      swap2\n      swap1\n      pop\n      jump\t// out\n        /* \"#utility.yul\":8144:8252   */\n    tag_155:\n        /* \"#utility.yul\":8221:8245   */\n      tag_279\n        /* \"#utility.yul\":8239:8244   */\n      dup2\n        /* \"#utility.yul\":8221:8245   */\n      tag_131\n      jump\t// in\n    tag_279:\n        /* \"#utility.yul\":8216:8219   */\n      dup3\n        /* \"#utility.yul\":8209:8246   */\n      mstore\n        /* \"#utility.yul\":8144:8252   */\n      pop\n      pop\n      jump\t// out\n        /* \"#utility.yul\":8258:8437   */\n    tag_156:\n        /* \"#utility.yul\":8327:8337   */\n      0x00\n        /* \"#utility.yul\":8348:8394   */\n      tag_281\n        /* \"#utility.yul\":8390:8393   */\n      dup4\n        /* \"#utility.yul\":8382:8388   */\n      dup4\n        /* \"#utility.yul\":8348:8394   */\n      tag_155\n      jump\t// in\n    tag_281:\n        /* \"#utility.yul\":8426:8430   */\n      0x20\n        /* \"#utility.yul\":8421:8424   */\n      dup4\n        /* \"#utility.yul\":8417:8431   */\n      add\n        /* \"#utility.yul\":8403:8431   */\n      swap1\n      pop\n        /* \"#utility.yul\":8258:8437   */\n      swap3\n      swap2\n      pop\n      pop\n      jump\t// out\n        /* \"#utility.yul\":8443:8556   */\n    tag_157:\n        /* \"#utility.yul\":8513:8517   */\n      0x00\n        /* \"#utility.yul\":8545:8549   */\n      0x20\n        /* \"#utility.yul\":8540:8543   */\n      dup3\n        /* \"#utility.yul\":8536:8550   */\n      add\n        /* \"#utility.yul\":8528:8550   */\n      swap1\n      pop\n        /* \"#utility.yul\":8443:8556   */\n      swap2\n      swap1\n      pop\n      jump\t// out\n        /* \"#utility.yul\":8592:9324   */\n    tag_158:\n        /* \"#utility.yul\":8711:8714   */\n      0x00\n        /* \"#utility.yul\":8740:8794   */\n      tag_284\n        /* \"#utility.yul\":8788:8793   */\n      dup3\n        /* \"#utility.yul\":8740:8794   */\n      tag_152\n      jump\t// in\n    tag_284:\n        /* \"#utility.yul\":8810:8896   */\n      tag_285\n        /* \"#utility.yul\":8889:8895   */\n      dup2\n        /* \"#utility.yul\":8884:8887   */\n      dup6\n        /* \"#utility.yul\":8810:8896   */\n      tag_153\n      jump\t// in\n    tag_285:\n        /* \"#utility.yul\":8803:8896   */\n      swap4\n      pop\n        /* \"#utility.yul\":8920:8976   */\n      tag_286\n        /* \"#utility.yul\":8970:8975   */\n      dup4\n        /* \"#utility.yul\":8920:8976   */\n      tag_154\n      jump\t// in\n    tag_286:\n        /* \"#utility.yul\":8999:9006   */\n      dup1\n        /* \"#utility.yul\":9030:9031   */\n      0x00\n        /* \"#utility.yul\":9015:9299   */\n    tag_287:\n        /* \"#utility.yul\":9040:9046   */\n      dup4\n        /* \"#utility.yul\":9037:9038   */\n      dup2\n        /* \"#utility.yul\":9034:9047   */\n      lt\n        /* \"#utility.yul\":9015:9299   */\n      iszero\n      tag_289\n      jumpi\n        /* \"#utility.yul\":9116:9122   */\n      dup2\n        /* \"#utility.yul\":9110:9123   */\n      mload\n        /* \"#utility.yul\":9143:9206   */\n      tag_290\n        /* \"#utility.yul\":9202:9205   */\n      dup9\n        /* \"#utility.yul\":9187:9200   */\n      dup3\n        /* \"#utility.yul\":9143:9206   */\n      tag_156\n      jump\t// in\n    tag_290:\n        /* \"#utility.yul\":9136:9206   */\n      swap8\n      pop\n        /* \"#utility.yul\":9229:9289   */\n      tag_291\n        /* \"#utility.yul\":9282:9288   */\n      dup4\n        /* \"#utility.yul\":9229:9289   */\n      tag_157\n      jump\t// in\n    tag_291:\n        /* \"#utility.yul\":9219:9289   */\n      swap3\n      pop\n        /* \"#utility.yul\":9075:9299   */\n      pop\n        /* \"#utility.yul\":9062:9063   */\n      0x01\n        /* \"#utility.yul\":9059:9060   */\n      dup2\n        /* \"#utility.yul\":9055:9064   */\n      add\n        /* \"#utility.yul\":9050:9064   */\n      swap1\n      pop\n        /* \"#utility.yul\":9015:9299   */\n      jump(tag_287)\n    tag_289:\n        /* \"#utility.yul\":9019:9033   */\n      pop\n        /* \"#utility.yul\":9315:9318   */\n      dup6\n        /* \"#utility.yul\":9308:9318   */\n      swap4\n      pop\n        /* \"#utility.yul\":8716:9324   */\n      pop\n      pop\n      pop\n        /* \"#utility.yul\":8592:9324   */\n      swap3\n      swap2\n      pop\n      pop\n      jump\t// out\n        /* \"#utility.yul\":9330:10161   */\n    tag_48:\n        /* \"#utility.yul\":9593:9597   */\n      0x00\n        /* \"#utility.yul\":9631:9634   */\n      0xa0\n        /* \"#utility.yul\":9620:9629   */\n      dup3\n        /* \"#utility.yul\":9616:9635   */\n      add\n        /* \"#utility.yul\":9608:9635   */\n      swap1\n      pop\n        /* \"#utility.yul\":9645:9716   */\n      tag_293\n        /* \"#utility.yul\":9713:9714   */\n      0x00\n        /* \"#utility.yul\":9702:9711   */\n      dup4\n        /* \"#utility.yul\":9698:9715   */\n      add\n        /* \"#utility.yul\":9689:9695   */\n      dup9\n        /* \"#utility.yul\":9645:9716   */\n      tag_146\n      jump\t// in\n    tag_293:\n        /* \"#utility.yul\":9726:9806   */\n      tag_294\n        /* \"#utility.yul\":9802:9804   */\n      0x20\n        /* \"#utility.yul\":9791:9800   */\n      dup4\n        /* \"#utility.yul\":9787:9805   */\n      add\n        /* \"#utility.yul\":9778:9784   */\n      dup8\n        /* \"#utility.yul\":9726:9806   */\n      tag_151\n      jump\t// in\n    tag_294:\n        /* \"#utility.yul\":9853:9862   */\n      dup2\n        /* \"#utility.yul\":9847:9851   */\n      dup2\n        /* \"#utility.yul\":9843:9863   */\n      sub\n        /* \"#utility.yul\":9838:9840   */\n      0x40\n        /* \"#utility.yul\":9827:9836   */\n      dup4\n        /* \"#utility.yul\":9823:9841   */\n      add\n        /* \"#utility.yul\":9816:9864   */\n      mstore\n        /* \"#utility.yul\":9881:9989   */\n      tag_295\n        /* \"#utility.yul\":9984:9988   */\n      dup2\n        /* \"#utility.yul\":9975:9981   */\n      dup7\n        /* \"#utility.yul\":9881:9989   */\n      tag_158\n      jump\t// in\n    tag_295:\n        /* \"#utility.yul\":9873:9989   */\n      swap1\n      pop\n        /* \"#utility.yul\":9999:10071   */\n      tag_296\n        /* \"#utility.yul\":10067:10069   */\n      0x60\n        /* \"#utility.yul\":10056:10065   */\n      dup4\n        /* \"#utility.yul\":10052:10070   */\n      add\n        /* \"#utility.yul\":10043:10049   */\n      dup6\n        /* \"#utility.yul\":9999:10071   */\n      tag_145\n      jump\t// in\n    tag_296:\n        /* \"#utility.yul\":10081:10154   */\n      tag_297\n        /* \"#utility.yul\":10149:10152   */\n      0x80\n        /* \"#utility.yul\":10138:10147   */\n      dup4\n        /* \"#utility.yul\":10134:10153   */\n      add\n        /* \"#utility.yul\":10125:10131   */\n      dup5\n        /* \"#utility.yul\":10081:10154   */\n      tag_146\n      jump\t// in\n    tag_297:\n        /* \"#utility.yul\":9330:10161   */\n      swap7\n      swap6\n      pop\n      pop\n      pop\n      pop\n      pop\n      pop\n      jump\t// out\n        /* \"#utility.yul\":10167:10269   */\n    tag_159:\n        /* \"#utility.yul\":10208:10214   */\n      0x00\n        /* \"#utility.yul\":10259:10261   */\n      0x1f\n        /* \"#utility.yul\":10255:10262   */\n      not\n        /* \"#utility.yul\":10250:10252   */\n      0x1f\n        /* \"#utility.yul\":10243:10248   */\n      dup4\n        /* \"#utility.yul\":10239:10253   */\n      add\n        /* \"#utility.yul\":10235:10263   */\n      and\n        /* \"#utility.yul\":10225:10263   */\n      swap1\n      pop\n        /* \"#utility.yul\":10167:10269   */\n      swap2\n      swap1\n      pop\n      jump\t// out\n        /* \"#utility.yul\":10275:10556   */\n    tag_160:\n        /* \"#utility.yul\":10358:10385   */\n      tag_300\n        /* \"#utility.yul\":10380:10384   */\n      dup3\n        /* \"#utility.yul\":10358:10385   */\n      tag_159\n      jump\t// in\n    tag_300:\n        /* \"#utility.yul\":10350:10356   */\n      dup2\n        /* \"#utility.yul\":10346:10386   */\n      add\n        /* \"#utility.yul\":10488:10494   */\n      dup2\n        /* \"#utility.yul\":10476:10486   */\n      dup2\n        /* \"#utility.yul\":10473:10495   */\n      lt\n        /* \"#utility.yul\":10452:10470   */\n      0xffffffffffffffff\n        /* \"#utility.yul\":10440:10450   */\n      dup3\n        /* \"#utility.yul\":10437:10471   */\n      gt\n        /* \"#utility.yul\":10434:10496   */\n      or\n        /* \"#utility.yul\":10431:10519   */\n      iszero\n      tag_301\n      jumpi\n        /* \"#utility.yul\":10499:10517   */\n      tag_302\n      tag_40\n      jump\t// in\n    tag_302:\n        /* \"#utility.yul\":10431:10519   */\n    tag_301:\n        /* \"#utility.yul\":10539:10549   */\n      dup1\n        /* \"#utility.yul\":10535:10537   */\n      0x40\n        /* \"#utility.yul\":10528:10550   */\n      mstore\n        /* \"#utility.yul\":10318:10556   */\n      pop\n        /* \"#utility.yul\":10275:10556   */\n      pop\n      pop\n      jump\t// out\n        /* \"#utility.yul\":10562:10691   */\n    tag_161:\n        /* \"#utility.yul\":10596:10602   */\n      0x00\n        /* \"#utility.yul\":10623:10643   */\n      tag_304\n      tag_128\n      jump\t// in\n    tag_304:\n        /* \"#utility.yul\":10613:10643   */\n      swap1\n      pop\n        /* \"#utility.yul\":10652:10685   */\n      tag_305\n        /* \"#utility.yul\":10680:10684   */\n      dup3\n        /* \"#utility.yul\":10672:10678   */\n      dup3\n        /* \"#utility.yul\":10652:10685   */\n      tag_160\n      jump\t// in\n    tag_305:\n        /* \"#utility.yul\":10562:10691   */\n      swap2\n      swap1\n      pop\n      jump\t// out\n        /* \"#utility.yul\":10697:11008   */\n    tag_162:\n        /* \"#utility.yul\":10774:10778   */\n      0x00\n        /* \"#utility.yul\":10864:10882   */\n      0xffffffffffffffff\n        /* \"#utility.yul\":10856:10862   */\n      dup3\n        /* \"#utility.yul\":10853:10883   */\n      gt\n        /* \"#utility.yul\":10850:10906   */\n      iszero\n      tag_307\n      jumpi\n        /* \"#utility.yul\":10886:10904   */\n      tag_308\n      tag_40\n      jump\t// in\n    tag_308:\n        /* \"#utility.yul\":10850:10906   */\n    tag_307:\n        /* \"#utility.yul\":10936:10940   */\n      0x20\n        /* \"#utility.yul\":10928:10934   */\n      dup3\n        /* \"#utility.yul\":10924:10941   */\n      mul\n        /* \"#utility.yul\":10916:10941   */\n      swap1\n      pop\n        /* \"#utility.yul\":10996:11000   */\n      0x20\n        /* \"#utility.yul\":10990:10994   */\n      dup2\n        /* \"#utility.yul\":10986:11001   */\n      add\n        /* \"#utility.yul\":10978:11001   */\n      swap1\n      pop\n        /* \"#utility.yul\":10697:11008   */\n      swap2\n      swap1\n      pop\n      jump\t// out\n        /* \"#utility.yul\":11014:11157   */\n    tag_163:\n        /* \"#utility.yul\":11071:11076   */\n      0x00\n        /* \"#utility.yul\":11102:11108   */\n      dup2\n        /* \"#utility.yul\":11096:11109   */\n      mload\n        /* \"#utility.yul\":11087:11109   */\n      swap1\n      pop\n        /* \"#utility.yul\":11118:11151   */\n      tag_310\n        /* \"#utility.yul\":11145:11150   */\n      dup2\n        /* \"#utility.yul\":11118:11151   */\n      tag_135\n      jump\t// in\n    tag_310:\n        /* \"#utility.yul\":11014:11157   */\n      swap3\n      swap2\n      pop\n      pop\n      jump\t// out\n        /* \"#utility.yul\":11180:11912   */\n    tag_164:\n        /* \"#utility.yul\":11287:11292   */\n      0x00\n        /* \"#utility.yul\":11312:11393   */\n      tag_312\n        /* \"#utility.yul\":11328:11392   */\n      tag_313\n        /* \"#utility.yul\":11385:11391   */\n      dup5\n        /* \"#utility.yul\":11328:11392   */\n      tag_162\n      jump\t// in\n    tag_313:\n        /* \"#utility.yul\":11312:11393   */\n      tag_161\n      jump\t// in\n    tag_312:\n        /* \"#utility.yul\":11303:11393   */\n      swap1\n      pop\n        /* \"#utility.yul\":11413:11418   */\n      dup1\n        /* \"#utility.yul\":11442:11448   */\n      dup4\n        /* \"#utility.yul\":11435:11440   */\n      dup3\n        /* \"#utility.yul\":11428:11449   */\n      mstore\n        /* \"#utility.yul\":11476:11480   */\n      0x20\n        /* \"#utility.yul\":11469:11474   */\n      dup3\n        /* \"#utility.yul\":11465:11481   */\n      add\n        /* \"#utility.yul\":11458:11481   */\n      swap1\n      pop\n        /* \"#utility.yul\":11529:11533   */\n      0x20\n        /* \"#utility.yul\":11521:11527   */\n      dup5\n        /* \"#utility.yul\":11517:11534   */\n      mul\n        /* \"#utility.yul\":11509:11515   */\n      dup4\n        /* \"#utility.yul\":11505:11535   */\n      add\n        /* \"#utility.yul\":11558:11561   */\n      dup6\n        /* \"#utility.yul\":11550:11556   */\n      dup2\n        /* \"#utility.yul\":11547:11562   */\n      gt\n        /* \"#utility.yul\":11544:11666   */\n      iszero\n      tag_314\n      jumpi\n        /* \"#utility.yul\":11577:11656   */\n      tag_315\n      tag_139\n      jump\t// in\n    tag_315:\n        /* \"#utility.yul\":11544:11666   */\n    tag_314:\n        /* \"#utility.yul\":11692:11698   */\n      dup4\n        /* \"#utility.yul\":11675:11906   */\n    tag_316:\n        /* \"#utility.yul\":11709:11715   */\n      dup2\n        /* \"#utility.yul\":11704:11707   */\n      dup2\n        /* \"#utility.yul\":11701:11716   */\n      lt\n        /* \"#utility.yul\":11675:11906   */\n      iszero\n      tag_318\n      jumpi\n        /* \"#utility.yul\":11784:11787   */\n      dup1\n        /* \"#utility.yul\":11813:11861   */\n      tag_319\n        /* \"#utility.yul\":11857:11860   */\n      dup9\n        /* \"#utility.yul\":11845:11855   */\n      dup3\n        /* \"#utility.yul\":11813:11861   */\n      tag_163\n      jump\t// in\n    tag_319:\n        /* \"#utility.yul\":11808:11811   */\n      dup5\n        /* \"#utility.yul\":11801:11862   */\n      mstore\n        /* \"#utility.yul\":11891:11895   */\n      0x20\n        /* \"#utility.yul\":11886:11889   */\n      dup5\n        /* \"#utility.yul\":11882:11896   */\n      add\n        /* \"#utility.yul\":11875:11896   */\n      swap4\n      pop\n        /* \"#utility.yul\":11751:11906   */\n      pop\n        /* \"#utility.yul\":11735:11739   */\n      0x20\n        /* \"#utility.yul\":11730:11733   */\n      dup2\n        /* \"#utility.yul\":11726:11740   */\n      add\n        /* \"#utility.yul\":11719:11740   */\n      swap1\n      pop\n        /* \"#utility.yul\":11675:11906   */\n      jump(tag_316)\n    tag_318:\n        /* \"#utility.yul\":11679:11700   */\n      pop\n        /* \"#utility.yul\":11293:11912   */\n      pop\n      pop\n        /* \"#utility.yul\":11180:11912   */\n      swap4\n      swap3\n      pop\n      pop\n      pop\n      jump\t// out\n        /* \"#utility.yul\":11935:12320   */\n    tag_165:\n        /* \"#utility.yul\":12017:12022   */\n      0x00\n        /* \"#utility.yul\":12066:12069   */\n      dup3\n        /* \"#utility.yul\":12059:12063   */\n      0x1f\n        /* \"#utility.yul\":12051:12057   */\n      dup4\n        /* \"#utility.yul\":12047:12064   */\n      add\n        /* \"#utility.yul\":12043:12070   */\n      slt\n        /* \"#utility.yul\":12033:12155   */\n      tag_321\n      jumpi\n        /* \"#utility.yul\":12074:12153   */\n      tag_322\n      tag_137\n      jump\t// in\n    tag_322:\n        /* \"#utility.yul\":12033:12155   */\n    tag_321:\n        /* \"#utility.yul\":12184:12190   */\n      dup2\n        /* \"#utility.yul\":12178:12191   */\n      mload\n        /* \"#utility.yul\":12209:12314   */\n      tag_323\n        /* \"#utility.yul\":12310:12313   */\n      dup5\n        /* \"#utility.yul\":12302:12308   */\n      dup3\n        /* \"#utility.yul\":12295:12299   */\n      0x20\n        /* \"#utility.yul\":12287:12293   */\n      dup7\n        /* \"#utility.yul\":12283:12300   */\n      add\n        /* \"#utility.yul\":12209:12314   */\n      tag_164\n      jump\t// in\n    tag_323:\n        /* \"#utility.yul\":12200:12314   */\n      swap2\n      pop\n        /* \"#utility.yul\":12023:12320   */\n      pop\n        /* \"#utility.yul\":11935:12320   */\n      swap3\n      swap2\n      pop\n      pop\n      jump\t// out\n        /* \"#utility.yul\":12326:12880   */\n    tag_52:\n        /* \"#utility.yul\":12421:12427   */\n      0x00\n        /* \"#utility.yul\":12470:12472   */\n      0x20\n        /* \"#utility.yul\":12458:12467   */\n      dup3\n        /* \"#utility.yul\":12449:12456   */\n      dup5\n        /* \"#utility.yul\":12445:12468   */\n      sub\n        /* \"#utility.yul\":12441:12473   */\n      slt\n        /* \"#utility.yul\":12438:12557   */\n      iszero\n      tag_325\n      jumpi\n        /* \"#utility.yul\":12476:12555   */\n      tag_326\n      tag_129\n      jump\t// in\n    tag_326:\n        /* \"#utility.yul\":12438:12557   */\n    tag_325:\n        /* \"#utility.yul\":12617:12618   */\n      0x00\n        /* \"#utility.yul\":12606:12615   */\n      dup3\n        /* \"#utility.yul\":12602:12619   */\n      add\n        /* \"#utility.yul\":12596:12620   */\n      mload\n        /* \"#utility.yul\":12647:12665   */\n      0xffffffffffffffff\n        /* \"#utility.yul\":12639:12645   */\n      dup2\n        /* \"#utility.yul\":12636:12666   */\n      gt\n        /* \"#utility.yul\":12633:12750   */\n      iszero\n      tag_327\n      jumpi\n        /* \"#utility.yul\":12669:12748   */\n      tag_328\n      tag_130\n      jump\t// in\n    tag_328:\n        /* \"#utility.yul\":12633:12750   */\n    tag_327:\n        /* \"#utility.yul\":12774:12863   */\n      tag_329\n        /* \"#utility.yul\":12855:12862   */\n      dup5\n        /* \"#utility.yul\":12846:12852   */\n      dup3\n        /* \"#utility.yul\":12835:12844   */\n      dup6\n        /* \"#utility.yul\":12831:12853   */\n      add\n        /* \"#utility.yul\":12774:12863   */\n      tag_165\n      jump\t// in\n    tag_329:\n        /* \"#utility.yul\":12764:12863   */\n      swap2\n      pop\n        /* \"#utility.yul\":12567:12873   */\n      pop\n        /* \"#utility.yul\":12326:12880   */\n      swap3\n      swap2\n      pop\n      pop\n      jump\t// out\n        /* \"#utility.yul\":12886:12977   */\n    tag_166:\n        /* \"#utility.yul\":12922:12929   */\n      0x00\n        /* \"#utility.yul\":12962:12970   */\n      0xffffff\n        /* \"#utility.yul\":12955:12960   */\n      dup3\n        /* \"#utility.yul\":12951:12971   */\n      and\n        /* \"#utility.yul\":12940:12971   */\n      swap1\n      pop\n        /* \"#utility.yul\":12886:12977   */\n      swap2\n      swap1\n      pop\n      jump\t// out\n        /* \"#utility.yul\":12983:13088   */\n    tag_167:\n        /* \"#utility.yul\":13058:13081   */\n      tag_332\n        /* \"#utility.yul\":13075:13080   */\n      dup2\n        /* \"#utility.yul\":13058:13081   */\n      tag_166\n      jump\t// in\n    tag_332:\n        /* \"#utility.yul\":13053:13056   */\n      dup3\n        /* \"#utility.yul\":13046:13082   */\n      mstore\n        /* \"#utility.yul\":12983:13088   */\n      pop\n      pop\n      jump\t// out\n        /* \"#utility.yul\":13094:13202   */\n    tag_168:\n        /* \"#utility.yul\":13171:13195   */\n      tag_334\n        /* \"#utility.yul\":13189:13194   */\n      dup2\n        /* \"#utility.yul\":13171:13195   */\n      tag_134\n      jump\t// in\n    tag_334:\n        /* \"#utility.yul\":13166:13169   */\n      dup3\n        /* \"#utility.yul\":13159:13196   */\n      mstore\n        /* \"#utility.yul\":13094:13202   */\n      pop\n      pop\n      jump\t// out\n        /* \"#utility.yul\":13208:13316   */\n    tag_169:\n        /* \"#utility.yul\":13285:13309   */\n      tag_336\n        /* \"#utility.yul\":13303:13308   */\n      dup2\n        /* \"#utility.yul\":13285:13309   */\n      tag_122\n      jump\t// in\n    tag_336:\n        /* \"#utility.yul\":13280:13283   */\n      dup3\n        /* \"#utility.yul\":13273:13310   */\n      mstore\n        /* \"#utility.yul\":13208:13316   */\n      pop\n      pop\n      jump\t// out\n        /* \"#utility.yul\":13420:14865   */\n    tag_170:\n        /* \"#utility.yul\":13597:13601   */\n      0xe0\n        /* \"#utility.yul\":13592:13595   */\n      dup3\n        /* \"#utility.yul\":13588:13602   */\n      add\n        /* \"#utility.yul\":13687:13691   */\n      0x00\n        /* \"#utility.yul\":13680:13685   */\n      dup3\n        /* \"#utility.yul\":13676:13692   */\n      add\n        /* \"#utility.yul\":13670:13693   */\n      mload\n        /* \"#utility.yul\":13706:13769   */\n      tag_338\n        /* \"#utility.yul\":13763:13767   */\n      0x00\n        /* \"#utility.yul\":13758:13761   */\n      dup6\n        /* \"#utility.yul\":13754:13768   */\n      add\n        /* \"#utility.yul\":13740:13752   */\n      dup3\n        /* \"#utility.yul\":13706:13769   */\n      tag_155\n      jump\t// in\n    tag_338:\n        /* \"#utility.yul\":13612:13779   */\n      pop\n        /* \"#utility.yul\":13865:13869   */\n      0x20\n        /* \"#utility.yul\":13858:13863   */\n      dup3\n        /* \"#utility.yul\":13854:13870   */\n      add\n        /* \"#utility.yul\":13848:13871   */\n      mload\n        /* \"#utility.yul\":13884:13947   */\n      tag_339\n        /* \"#utility.yul\":13941:13945   */\n      0x20\n        /* \"#utility.yul\":13936:13939   */\n      dup6\n        /* \"#utility.yul\":13932:13946   */\n      add\n        /* \"#utility.yul\":13918:13930   */\n      dup3\n        /* \"#utility.yul\":13884:13947   */\n      tag_155\n      jump\t// in\n    tag_339:\n        /* \"#utility.yul\":13789:13957   */\n      pop\n        /* \"#utility.yul\":14038:14042   */\n      0x40\n        /* \"#utility.yul\":14031:14036   */\n      dup3\n        /* \"#utility.yul\":14027:14043   */\n      add\n        /* \"#utility.yul\":14021:14044   */\n      mload\n        /* \"#utility.yul\":14057:14118   */\n      tag_340\n        /* \"#utility.yul\":14112:14116   */\n      0x40\n        /* \"#utility.yul\":14107:14110   */\n      dup6\n        /* \"#utility.yul\":14103:14117   */\n      add\n        /* \"#utility.yul\":14089:14101   */\n      dup3\n        /* \"#utility.yul\":14057:14118   */\n      tag_167\n      jump\t// in\n    tag_340:\n        /* \"#utility.yul\":13967:14128   */\n      pop\n        /* \"#utility.yul\":14215:14219   */\n      0x60\n        /* \"#utility.yul\":14208:14213   */\n      dup3\n        /* \"#utility.yul\":14204:14220   */\n      add\n        /* \"#utility.yul\":14198:14221   */\n      mload\n        /* \"#utility.yul\":14234:14297   */\n      tag_341\n        /* \"#utility.yul\":14291:14295   */\n      0x60\n        /* \"#utility.yul\":14286:14289   */\n      dup6\n        /* \"#utility.yul\":14282:14296   */\n      add\n        /* \"#utility.yul\":14268:14280   */\n      dup3\n        /* \"#utility.yul\":14234:14297   */\n      tag_155\n      jump\t// in\n    tag_341:\n        /* \"#utility.yul\":14138:14307   */\n      pop\n        /* \"#utility.yul\":14393:14397   */\n      0x80\n        /* \"#utility.yul\":14386:14391   */\n      dup3\n        /* \"#utility.yul\":14382:14398   */\n      add\n        /* \"#utility.yul\":14376:14399   */\n      mload\n        /* \"#utility.yul\":14412:14475   */\n      tag_342\n        /* \"#utility.yul\":14469:14473   */\n      0x80\n        /* \"#utility.yul\":14464:14467   */\n      dup6\n        /* \"#utility.yul\":14460:14474   */\n      add\n        /* \"#utility.yul\":14446:14458   */\n      dup3\n        /* \"#utility.yul\":14412:14475   */\n      tag_168\n      jump\t// in\n    tag_342:\n        /* \"#utility.yul\":14317:14485   */\n      pop\n        /* \"#utility.yul\":14579:14583   */\n      0xa0\n        /* \"#utility.yul\":14572:14577   */\n      dup3\n        /* \"#utility.yul\":14568:14584   */\n      add\n        /* \"#utility.yul\":14562:14585   */\n      mload\n        /* \"#utility.yul\":14598:14661   */\n      tag_343\n        /* \"#utility.yul\":14655:14659   */\n      0xa0\n        /* \"#utility.yul\":14650:14653   */\n      dup6\n        /* \"#utility.yul\":14646:14660   */\n      add\n        /* \"#utility.yul\":14632:14644   */\n      dup3\n        /* \"#utility.yul\":14598:14661   */\n      tag_168\n      jump\t// in\n    tag_343:\n        /* \"#utility.yul\":14495:14671   */\n      pop\n        /* \"#utility.yul\":14766:14770   */\n      0xc0\n        /* \"#utility.yul\":14759:14764   */\n      dup3\n        /* \"#utility.yul\":14755:14771   */\n      add\n        /* \"#utility.yul\":14749:14772   */\n      mload\n        /* \"#utility.yul\":14785:14848   */\n      tag_344\n        /* \"#utility.yul\":14842:14846   */\n      0xc0\n        /* \"#utility.yul\":14837:14840   */\n      dup6\n        /* \"#utility.yul\":14833:14847   */\n      add\n        /* \"#utility.yul\":14819:14831   */\n      dup3\n        /* \"#utility.yul\":14785:14848   */\n      tag_169\n      jump\t// in\n    tag_344:\n        /* \"#utility.yul\":14681:14858   */\n      pop\n        /* \"#utility.yul\":13566:14865   */\n      pop\n        /* \"#utility.yul\":13420:14865   */\n      pop\n      pop\n      jump\t// out\n        /* \"#utility.yul\":14871:15254   */\n    tag_56:\n        /* \"#utility.yul\":15044:15048   */\n      0x00\n        /* \"#utility.yul\":15082:15085   */\n      0xe0\n        /* \"#utility.yul\":15071:15080   */\n      dup3\n        /* \"#utility.yul\":15067:15086   */\n      add\n        /* \"#utility.yul\":15059:15086   */\n      swap1\n      pop\n        /* \"#utility.yul\":15096:15247   */\n      tag_346\n        /* \"#utility.yul\":15244:15245   */\n      0x00\n        /* \"#utility.yul\":15233:15242   */\n      dup4\n        /* \"#utility.yul\":15229:15246   */\n      add\n        /* \"#utility.yul\":15220:15226   */\n      dup5\n        /* \"#utility.yul\":15096:15247   */\n      tag_170\n      jump\t// in\n    tag_346:\n        /* \"#utility.yul\":14871:15254   */\n      swap3\n      swap2\n      pop\n      pop\n      jump\t// out\n        /* \"#utility.yul\":15260:15611   */\n    tag_60:\n        /* \"#utility.yul\":15330:15336   */\n      0x00\n        /* \"#utility.yul\":15379:15381   */\n      0x20\n        /* \"#utility.yul\":15367:15376   */\n      dup3\n        /* \"#utility.yul\":15358:15365   */\n      dup5\n        /* \"#utility.yul\":15354:15377   */\n      sub\n        /* \"#utility.yul\":15350:15382   */\n      slt\n        /* \"#utility.yul\":15347:15466   */\n      iszero\n      tag_348\n      jumpi\n        /* \"#utility.yul\":15385:15464   */\n      tag_349\n      tag_129\n      jump\t// in\n    tag_349:\n        /* \"#utility.yul\":15347:15466   */\n    tag_348:\n        /* \"#utility.yul\":15505:15506   */\n      0x00\n        /* \"#utility.yul\":15530:15594   */\n      tag_350\n        /* \"#utility.yul\":15586:15593   */\n      dup5\n        /* \"#utility.yul\":15577:15583   */\n      dup3\n        /* \"#utility.yul\":15566:15575   */\n      dup6\n        /* \"#utility.yul\":15562:15584   */\n      add\n        /* \"#utility.yul\":15530:15594   */\n      tag_163\n      jump\t// in\n    tag_350:\n        /* \"#utility.yul\":15520:15594   */\n      swap2\n      pop\n        /* \"#utility.yul\":15476:15604   */\n      pop\n        /* \"#utility.yul\":15260:15611   */\n      swap3\n      swap2\n      pop\n      pop\n      jump\t// out\n        /* \"#utility.yul\":15617:15715   */\n    tag_171:\n        /* \"#utility.yul\":15668:15674   */\n      0x00\n        /* \"#utility.yul\":15702:15707   */\n      dup2\n        /* \"#utility.yul\":15696:15708   */\n      mload\n        /* \"#utility.yul\":15686:15708   */\n      swap1\n      pop\n        /* \"#utility.yul\":15617:15715   */\n      swap2\n      swap1\n      pop\n      jump\t// out\n        /* \"#utility.yul\":15721:15889   */\n    tag_172:\n        /* \"#utility.yul\":15804:15815   */\n      0x00\n        /* \"#utility.yul\":15838:15844   */\n      dup3\n        /* \"#utility.yul\":15833:15836   */\n      dup3\n        /* \"#utility.yul\":15826:15845   */\n      mstore\n        /* \"#utility.yul\":15878:15882   */\n      0x20\n        /* \"#utility.yul\":15873:15876   */\n      dup3\n        /* \"#utility.yul\":15869:15883   */\n      add\n        /* \"#utility.yul\":15854:15883   */\n      swap1\n      pop\n        /* \"#utility.yul\":15721:15889   */\n      swap3\n      swap2\n      pop\n      pop\n      jump\t// out\n        /* \"#utility.yul\":15895:16202   */\n    tag_173:\n        /* \"#utility.yul\":15963:15964   */\n      0x00\n        /* \"#utility.yul\":15973:16086   */\n    tag_354:\n        /* \"#utility.yul\":15987:15993   */\n      dup4\n        /* \"#utility.yul\":15984:15985   */\n      dup2\n        /* \"#utility.yul\":15981:15994   */\n      lt\n        /* \"#utility.yul\":15973:16086   */\n      iszero\n      tag_356\n      jumpi\n        /* \"#utility.yul\":16072:16073   */\n      dup1\n        /* \"#utility.yul\":16067:16070   */\n      dup3\n        /* \"#utility.yul\":16063:16074   */\n      add\n        /* \"#utility.yul\":16057:16075   */\n      mload\n        /* \"#utility.yul\":16053:16054   */\n      dup2\n        /* \"#utility.yul\":16048:16051   */\n      dup5\n        /* \"#utility.yul\":16044:16055   */\n      add\n        /* \"#utility.yul\":16037:16076   */\n      mstore\n        /* \"#utility.yul\":16009:16011   */\n      0x20\n        /* \"#utility.yul\":16006:16007   */\n      dup2\n        /* \"#utility.yul\":16002:16012   */\n      add\n        /* \"#utility.yul\":15997:16012   */\n      swap1\n      pop\n        /* \"#utility.yul\":15973:16086   */\n      jump(tag_354)\n    tag_356:\n        /* \"#utility.yul\":16104:16110   */\n      dup4\n        /* \"#utility.yul\":16101:16102   */\n      dup2\n        /* \"#utility.yul\":16098:16111   */\n      gt\n        /* \"#utility.yul\":16095:16196   */\n      iszero\n      tag_357\n      jumpi\n        /* \"#utility.yul\":16184:16185   */\n      0x00\n        /* \"#utility.yul\":16175:16181   */\n      dup5\n        /* \"#utility.yul\":16170:16173   */\n      dup5\n        /* \"#utility.yul\":16166:16182   */\n      add\n        /* \"#utility.yul\":16159:16186   */\n      mstore\n        /* \"#utility.yul\":16095:16196   */\n    tag_357:\n        /* \"#utility.yul\":15944:16202   */\n      pop\n        /* \"#utility.yul\":15895:16202   */\n      pop\n      pop\n      pop\n      jump\t// out\n        /* \"#utility.yul\":16208:16568   */\n    tag_174:\n        /* \"#utility.yul\":16294:16297   */\n      0x00\n        /* \"#utility.yul\":16322:16360   */\n      tag_359\n        /* \"#utility.yul\":16354:16359   */\n      dup3\n        /* \"#utility.yul\":16322:16360   */\n      tag_171\n      jump\t// in\n    tag_359:\n        /* \"#utility.yul\":16376:16446   */\n      tag_360\n        /* \"#utility.yul\":16439:16445   */\n      dup2\n        /* \"#utility.yul\":16434:16437   */\n      dup6\n        /* \"#utility.yul\":16376:16446   */\n      tag_172\n      jump\t// in\n    tag_360:\n        /* \"#utility.yul\":16369:16446   */\n      swap4\n      pop\n        /* \"#utility.yul\":16455:16507   */\n      tag_361\n        /* \"#utility.yul\":16500:16506   */\n      dup2\n        /* \"#utility.yul\":16495:16498   */\n      dup6\n        /* \"#utility.yul\":16488:16492   */\n      0x20\n        /* \"#utility.yul\":16481:16486   */\n      dup7\n        /* \"#utility.yul\":16477:16493   */\n      add\n        /* \"#utility.yul\":16455:16507   */\n      tag_173\n      jump\t// in\n    tag_361:\n        /* \"#utility.yul\":16532:16561   */\n      tag_362\n        /* \"#utility.yul\":16554:16560   */\n      dup2\n        /* \"#utility.yul\":16532:16561   */\n      tag_159\n      jump\t// in\n    tag_362:\n        /* \"#utility.yul\":16527:16530   */\n      dup5\n        /* \"#utility.yul\":16523:16562   */\n      add\n        /* \"#utility.yul\":16516:16562   */\n      swap2\n      pop\n        /* \"#utility.yul\":16298:16568   */\n      pop\n        /* \"#utility.yul\":16208:16568   */\n      swap3\n      swap2\n      pop\n      pop\n      jump\t// out\n        /* \"#utility.yul\":16574:16663   */\n    tag_175:\n        /* \"#utility.yul\":16610:16617   */\n      0x00\n        /* \"#utility.yul\":16650:16656   */\n      0xffff\n        /* \"#utility.yul\":16643:16648   */\n      dup3\n        /* \"#utility.yul\":16639:16657   */\n      and\n        /* \"#utility.yul\":16628:16657   */\n      swap1\n      pop\n        /* \"#utility.yul\":16574:16663   */\n      swap2\n      swap1\n      pop\n      jump\t// out\n        /* \"#utility.yul\":16669:16784   */\n    tag_176:\n        /* \"#utility.yul\":16754:16777   */\n      tag_365\n        /* \"#utility.yul\":16771:16776   */\n      dup2\n        /* \"#utility.yul\":16754:16777   */\n      tag_175\n      jump\t// in\n    tag_365:\n        /* \"#utility.yul\":16749:16752   */\n      dup3\n        /* \"#utility.yul\":16742:16778   */\n      mstore\n        /* \"#utility.yul\":16669:16784   */\n      pop\n      pop\n      jump\t// out\n        /* \"#utility.yul\":16790:17537   */\n    tag_79:\n        /* \"#utility.yul\":17011:17015   */\n      0x00\n        /* \"#utility.yul\":17049:17052   */\n      0xa0\n        /* \"#utility.yul\":17038:17047   */\n      dup3\n        /* \"#utility.yul\":17034:17053   */\n      add\n        /* \"#utility.yul\":17026:17053   */\n      swap1\n      pop\n        /* \"#utility.yul\":17063:17134   */\n      tag_367\n        /* \"#utility.yul\":17131:17132   */\n      0x00\n        /* \"#utility.yul\":17120:17129   */\n      dup4\n        /* \"#utility.yul\":17116:17133   */\n      add\n        /* \"#utility.yul\":17107:17113   */\n      dup9\n        /* \"#utility.yul\":17063:17134   */\n      tag_145\n      jump\t// in\n    tag_367:\n        /* \"#utility.yul\":17144:17216   */\n      tag_368\n        /* \"#utility.yul\":17212:17214   */\n      0x20\n        /* \"#utility.yul\":17201:17210   */\n      dup4\n        /* \"#utility.yul\":17197:17215   */\n      add\n        /* \"#utility.yul\":17188:17194   */\n      dup8\n        /* \"#utility.yul\":17144:17216   */\n      tag_145\n      jump\t// in\n    tag_368:\n        /* \"#utility.yul\":17226:17298   */\n      tag_369\n        /* \"#utility.yul\":17294:17296   */\n      0x40\n        /* \"#utility.yul\":17283:17292   */\n      dup4\n        /* \"#utility.yul\":17279:17297   */\n      add\n        /* \"#utility.yul\":17270:17276   */\n      dup7\n        /* \"#utility.yul\":17226:17298   */\n      tag_146\n      jump\t// in\n    tag_369:\n        /* \"#utility.yul\":17345:17354   */\n      dup2\n        /* \"#utility.yul\":17339:17343   */\n      dup2\n        /* \"#utility.yul\":17335:17355   */\n      sub\n        /* \"#utility.yul\":17330:17332   */\n      0x60\n        /* \"#utility.yul\":17319:17328   */\n      dup4\n        /* \"#utility.yul\":17315:17333   */\n      add\n        /* \"#utility.yul\":17308:17356   */\n      mstore\n        /* \"#utility.yul\":17373:17449   */\n      tag_370\n        /* \"#utility.yul\":17444:17448   */\n      dup2\n        /* \"#utility.yul\":17435:17441   */\n      dup6\n        /* \"#utility.yul\":17373:17449   */\n      tag_174\n      jump\t// in\n    tag_370:\n        /* \"#utility.yul\":17365:17449   */\n      swap1\n      pop\n        /* \"#utility.yul\":17459:17530   */\n      tag_371\n        /* \"#utility.yul\":17525:17528   */\n      0x80\n        /* \"#utility.yul\":17514:17523   */\n      dup4\n        /* \"#utility.yul\":17510:17529   */\n      add\n        /* \"#utility.yul\":17501:17507   */\n      dup5\n        /* \"#utility.yul\":17459:17530   */\n      tag_176\n      jump\t// in\n    tag_371:\n        /* \"#utility.yul\":16790:17537   */\n      swap7\n      swap6\n      pop\n      pop\n      pop\n      pop\n      pop\n      pop\n      jump\t// out\n        /* \"#utility.yul\":17543:17657   */\n    tag_177:\n        /* \"#utility.yul\":17610:17616   */\n      0x00\n        /* \"#utility.yul\":17644:17649   */\n      dup2\n        /* \"#utility.yul\":17638:17650   */\n      mload\n        /* \"#utility.yul\":17628:17650   */\n      swap1\n      pop\n        /* \"#utility.yul\":17543:17657   */\n      swap2\n      swap1\n      pop\n      jump\t// out\n        /* \"#utility.yul\":17663:17847   */\n    tag_178:\n        /* \"#utility.yul\":17762:17773   */\n      0x00\n        /* \"#utility.yul\":17796:17802   */\n      dup3\n        /* \"#utility.yul\":17791:17794   */\n      dup3\n        /* \"#utility.yul\":17784:17803   */\n      mstore\n        /* \"#utility.yul\":17836:17840   */\n      0x20\n        /* \"#utility.yul\":17831:17834   */\n      dup3\n        /* \"#utility.yul\":17827:17841   */\n      add\n        /* \"#utility.yul\":17812:17841   */\n      swap1\n      pop\n        /* \"#utility.yul\":17663:17847   */\n      swap3\n      swap2\n      pop\n      pop\n      jump\t// out\n        /* \"#utility.yul\":17853:17985   */\n    tag_179:\n        /* \"#utility.yul\":17920:17924   */\n      0x00\n        /* \"#utility.yul\":17943:17946   */\n      dup2\n        /* \"#utility.yul\":17935:17946   */\n      swap1\n      pop\n        /* \"#utility.yul\":17973:17977   */\n      0x20\n        /* \"#utility.yul\":17968:17971   */\n      dup3\n        /* \"#utility.yul\":17964:17978   */\n      add\n        /* \"#utility.yul\":17956:17978   */\n      swap1\n      pop\n        /* \"#utility.yul\":17853:17985   */\n      swap2\n      swap1\n      pop\n      jump\t// out\n        /* \"#utility.yul\":17991:18170   */\n    tag_180:\n        /* \"#utility.yul\":18060:18070   */\n      0x00\n        /* \"#utility.yul\":18081:18127   */\n      tag_376\n        /* \"#utility.yul\":18123:18126   */\n      dup4\n        /* \"#utility.yul\":18115:18121   */\n      dup4\n        /* \"#utility.yul\":18081:18127   */\n      tag_168\n      jump\t// in\n    tag_376:\n        /* \"#utility.yul\":18159:18163   */\n      0x20\n        /* \"#utility.yul\":18154:18157   */\n      dup4\n        /* \"#utility.yul\":18150:18164   */\n      add\n        /* \"#utility.yul\":18136:18164   */\n      swap1\n      pop\n        /* \"#utility.yul\":17991:18170   */\n      swap3\n      swap2\n      pop\n      pop\n      jump\t// out\n        /* \"#utility.yul\":18176:18289   */\n    tag_181:\n        /* \"#utility.yul\":18246:18250   */\n      0x00\n        /* \"#utility.yul\":18278:18282   */\n      0x20\n        /* \"#utility.yul\":18273:18276   */\n      dup3\n        /* \"#utility.yul\":18269:18283   */\n      add\n        /* \"#utility.yul\":18261:18283   */\n      swap1\n      pop\n        /* \"#utility.yul\":18176:18289   */\n      swap2\n      swap1\n      pop\n      jump\t// out\n        /* \"#utility.yul\":18325:19057   */\n    tag_182:\n        /* \"#utility.yul\":18444:18447   */\n      0x00\n        /* \"#utility.yul\":18473:18527   */\n      tag_379\n        /* \"#utility.yul\":18521:18526   */\n      dup3\n        /* \"#utility.yul\":18473:18527   */\n      tag_177\n      jump\t// in\n    tag_379:\n        /* \"#utility.yul\":18543:18629   */\n      tag_380\n        /* \"#utility.yul\":18622:18628   */\n      dup2\n        /* \"#utility.yul\":18617:18620   */\n      dup6\n        /* \"#utility.yul\":18543:18629   */\n      tag_178\n      jump\t// in\n    tag_380:\n        /* \"#utility.yul\":18536:18629   */\n      swap4\n      pop\n        /* \"#utility.yul\":18653:18709   */\n      tag_381\n        /* \"#utility.yul\":18703:18708   */\n      dup4\n        /* \"#utility.yul\":18653:18709   */\n      tag_179\n      jump\t// in\n    tag_381:\n        /* \"#utility.yul\":18732:18739   */\n      dup1\n        /* \"#utility.yul\":18763:18764   */\n      0x00\n        /* \"#utility.yul\":18748:19032   */\n    tag_382:\n        /* \"#utility.yul\":18773:18779   */\n      dup4\n        /* \"#utility.yul\":18770:18771   */\n      dup2\n        /* \"#utility.yul\":18767:18780   */\n      lt\n        /* \"#utility.yul\":18748:19032   */\n      iszero\n      tag_384\n      jumpi\n        /* \"#utility.yul\":18849:18855   */\n      dup2\n        /* \"#utility.yul\":18843:18856   */\n      mload\n        /* \"#utility.yul\":18876:18939   */\n      tag_385\n        /* \"#utility.yul\":18935:18938   */\n      dup9\n        /* \"#utility.yul\":18920:18933   */\n      dup3\n        /* \"#utility.yul\":18876:18939   */\n      tag_180\n      jump\t// in\n    tag_385:\n        /* \"#utility.yul\":18869:18939   */\n      swap8\n      pop\n        /* \"#utility.yul\":18962:19022   */\n      tag_386\n        /* \"#utility.yul\":19015:19021   */\n      dup4\n        /* \"#utility.yul\":18962:19022   */\n      tag_181\n      jump\t// in\n    tag_386:\n        /* \"#utility.yul\":18952:19022   */\n      swap3\n      pop\n        /* \"#utility.yul\":18808:19032   */\n      pop\n        /* \"#utility.yul\":18795:18796   */\n      0x01\n        /* \"#utility.yul\":18792:18793   */\n      dup2\n        /* \"#utility.yul\":18788:18797   */\n      add\n        /* \"#utility.yul\":18783:18797   */\n      swap1\n      pop\n        /* \"#utility.yul\":18748:19032   */\n      jump(tag_382)\n    tag_384:\n        /* \"#utility.yul\":18752:18766   */\n      pop\n        /* \"#utility.yul\":19048:19051   */\n      dup6\n        /* \"#utility.yul\":19041:19051   */\n      swap4\n      pop\n        /* \"#utility.yul\":18449:19057   */\n      pop\n      pop\n      pop\n        /* \"#utility.yul\":18325:19057   */\n      swap3\n      swap2\n      pop\n      pop\n      jump\t// out\n        /* \"#utility.yul\":19063:20485   */\n    tag_116:\n        /* \"#utility.yul\":19490:19494   */\n      0x00\n        /* \"#utility.yul\":19528:19531   */\n      0xe0\n        /* \"#utility.yul\":19517:19526   */\n      dup3\n        /* \"#utility.yul\":19513:19532   */\n      add\n        /* \"#utility.yul\":19505:19532   */\n      swap1\n      pop\n        /* \"#utility.yul\":19542:19613   */\n      tag_388\n        /* \"#utility.yul\":19610:19611   */\n      0x00\n        /* \"#utility.yul\":19599:19608   */\n      dup4\n        /* \"#utility.yul\":19595:19612   */\n      add\n        /* \"#utility.yul\":19586:19592   */\n      dup11\n        /* \"#utility.yul\":19542:19613   */\n      tag_145\n      jump\t// in\n    tag_388:\n        /* \"#utility.yul\":19660:19669   */\n      dup2\n        /* \"#utility.yul\":19654:19658   */\n      dup2\n        /* \"#utility.yul\":19650:19670   */\n      sub\n        /* \"#utility.yul\":19645:19647   */\n      0x20\n        /* \"#utility.yul\":19634:19643   */\n      dup4\n        /* \"#utility.yul\":19630:19648   */\n      add\n        /* \"#utility.yul\":19623:19671   */\n      mstore\n        /* \"#utility.yul\":19688:19796   */\n      tag_389\n        /* \"#utility.yul\":19791:19795   */\n      dup2\n        /* \"#utility.yul\":19782:19788   */\n      dup10\n        /* \"#utility.yul\":19688:19796   */\n      tag_158\n      jump\t// in\n    tag_389:\n        /* \"#utility.yul\":19680:19796   */\n      swap1\n      pop\n        /* \"#utility.yul\":19843:19852   */\n      dup2\n        /* \"#utility.yul\":19837:19841   */\n      dup2\n        /* \"#utility.yul\":19833:19853   */\n      sub\n        /* \"#utility.yul\":19828:19830   */\n      0x40\n        /* \"#utility.yul\":19817:19826   */\n      dup4\n        /* \"#utility.yul\":19813:19831   */\n      add\n        /* \"#utility.yul\":19806:19854   */\n      mstore\n        /* \"#utility.yul\":19871:19979   */\n      tag_390\n        /* \"#utility.yul\":19974:19978   */\n      dup2\n        /* \"#utility.yul\":19965:19971   */\n      dup9\n        /* \"#utility.yul\":19871:19979   */\n      tag_182\n      jump\t// in\n    tag_390:\n        /* \"#utility.yul\":19863:19979   */\n      swap1\n      pop\n        /* \"#utility.yul\":20026:20035   */\n      dup2\n        /* \"#utility.yul\":20020:20024   */\n      dup2\n        /* \"#utility.yul\":20016:20036   */\n      sub\n        /* \"#utility.yul\":20011:20013   */\n      0x60\n        /* \"#utility.yul\":20000:20009   */\n      dup4\n        /* \"#utility.yul\":19996:20014   */\n      add\n        /* \"#utility.yul\":19989:20037   */\n      mstore\n        /* \"#utility.yul\":20054:20162   */\n      tag_391\n        /* \"#utility.yul\":20157:20161   */\n      dup2\n        /* \"#utility.yul\":20148:20154   */\n      dup8\n        /* \"#utility.yul\":20054:20162   */\n      tag_182\n      jump\t// in\n    tag_391:\n        /* \"#utility.yul\":20046:20162   */\n      swap1\n      pop\n        /* \"#utility.yul\":20172:20245   */\n      tag_392\n        /* \"#utility.yul\":20240:20243   */\n      0x80\n        /* \"#utility.yul\":20229:20238   */\n      dup4\n        /* \"#utility.yul\":20225:20244   */\n      add\n        /* \"#utility.yul\":20216:20222   */\n      dup7\n        /* \"#utility.yul\":20172:20245   */\n      tag_145\n      jump\t// in\n    tag_392:\n        /* \"#utility.yul\":20293:20302   */\n      dup2\n        /* \"#utility.yul\":20287:20291   */\n      dup2\n        /* \"#utility.yul\":20283:20303   */\n      sub\n        /* \"#utility.yul\":20277:20280   */\n      0xa0\n        /* \"#utility.yul\":20266:20275   */\n      dup4\n        /* \"#utility.yul\":20262:20281   */\n      add\n        /* \"#utility.yul\":20255:20304   */\n      mstore\n        /* \"#utility.yul\":20321:20397   */\n      tag_393\n        /* \"#utility.yul\":20392:20396   */\n      dup2\n        /* \"#utility.yul\":20383:20389   */\n      dup6\n        /* \"#utility.yul\":20321:20397   */\n      tag_174\n      jump\t// in\n    tag_393:\n        /* \"#utility.yul\":20313:20397   */\n      swap1\n      pop\n        /* \"#utility.yul\":20407:20478   */\n      tag_394\n        /* \"#utility.yul\":20473:20476   */\n      0xc0\n        /* \"#utility.yul\":20462:20471   */\n      dup4\n        /* \"#utility.yul\":20458:20477   */\n      add\n        /* \"#utility.yul\":20449:20455   */\n      dup5\n        /* \"#utility.yul\":20407:20478   */\n      tag_176\n      jump\t// in\n    tag_394:\n        /* \"#utility.yul\":19063:20485   */\n      swap9\n      swap8\n      pop\n      pop\n      pop\n      pop\n      pop\n      pop\n      pop\n      pop\n      jump\t// out\n\n    auxdata: 0xa2646970667358221220033425c826e65e93cf9b6a040aff9cba0588c30cead1aa9758d46a1d47cf831f64736f6c634300080a0033\n}\n",
				"bytecode": {
					"linkReferences": {},
					"object": "60c0604052737a250d5630b4cf539739df2c5dacb4c659f2488d6000806101000a81548173ffffffffffffffffffffffffffffffffffffffff021916908373ffffffffffffffffffffffffffffffffffffffff160217905550735c69bee701ef814a2b6a3edd4b1652cb9cc5aa6f600160006101000a81548173ffffffffffffffffffffffffffffffffffffffff021916908373ffffffffffffffffffffffffffffffffffffffff16021790555073c36442b4a4522e871399cd717abdd847ab11fe88600260006101000a81548173ffffffffffffffffffffffffffffffffffffffff021916908373ffffffffffffffffffffffffffffffffffffffff160217905550731f98431c8ad98523631ae4a59f267346ea31f984600360006101000a81548173ffffffffffffffffffffffffffffffffffffffff021916908373ffffffffffffffffffffffffffffffffffffffff1602179055507368b3465833fb72a70ecdf485e0e4c7bd8665fc45600460006101000a81548173ffffffffffffffffffffffffffffffffffffffff021916908373ffffffffffffffffffffffffffffffffffffffff16021790555073b9b56ce66c63db98e6cddacdf910c227294a8840600560006101000a81548173ffffffffffffffffffffffffffffffffffffffff021916908373ffffffffffffffffffffffffffffffffffffffff16021790555073953af320e2bd3041c4e56bb3a30e7f613a1f3c1a600660006101000a81548173ffffffffffffffffffffffffffffffffffffffff021916908373ffffffffffffffffffffffffffffffffffffffff160217905550732ec4c6fcdbf5f9beeceb1b51848fc2db1f3a26af600760006101000a81548173ffffffffffffffffffffffffffffffffffffffff021916908373ffffffffffffffffffffffffffffffffffffffff1602179055507391337ccd2edf1df2d252f563b27341d52eedbe78600860006101000a81548173ffffffffffffffffffffffffffffffffffffffff021916908373ffffffffffffffffffffffffffffffffffffffff160217905550612ad160095573a55125a90d75a95ec00130e8e8c197db5641eb19600a60006101000a81548173ffffffffffffffffffffffffffffffffffffffff021916908373ffffffffffffffffffffffffffffffffffffffff16021790555060008054906101000a900473ffffffffffffffffffffffffffffffffffffffff16600b60006101000a81548173ffffffffffffffffffffffffffffffffffffffff021916908373ffffffffffffffffffffffffffffffffffffffff160217905550600460009054906101000a900473ffffffffffffffffffffffffffffffffffffffff16600c60006101000a81548173ffffffffffffffffffffffffffffffffffffffff021916908373ffffffffffffffffffffffffffffffffffffffff160217905550600560009054906101000a900473ffffffffffffffffffffffffffffffffffffffff16600d60006101000a81548173ffffffffffffffffffffffffffffffffffffffff021916908373ffffffffffffffffffffffffffffffffffffffff160217905550600660009054906101000a900473ffffffffffffffffffffffffffffffffffffffff16600e60006101000a81548173ffffffffffffffffffffffffffffffffffffffff021916908373ffffffffffffffffffffffffffffffffffffffff160217905550600f60009054906101000a900473ffffffffffffffffffffffffffffffffffffffff16600f60006101000a81548173ffffffffffffffffffffffffffffffffffffffff021916908373ffffffffffffffffffffffffffffffffffffffff1602179055503480156200055557600080fd5b50600a60009054906101000a900473ffffffffffffffffffffffffffffffffffffffff1673ffffffffffffffffffffffffffffffffffffffff1660808173ffffffffffffffffffffffffffffffffffffffff168152505060805173ffffffffffffffffffffffffffffffffffffffff1663026b1d5f6040518163ffffffff1660e01b8152600401602060405180830381865afa158015620005fa573d6000803e3d6000fd5b505050506040513d601f19601f82011682018060405250810190620006209190620006c3565b73ffffffffffffffffffffffffffffffffffffffff1660a08173ffffffffffffffffffffffffffffffffffffffff1681525050620006f5565b600080fd5b600073ffffffffffffffffffffffffffffffffffffffff82169050919050565b60006200068b826200065e565b9050919050565b6200069d816200067e565b8114620006a957600080fd5b50565b600081519050620006bd8162000692565b92915050565b600060208284031215620006dc57620006db62000659565b5b6000620006ec84828501620006ac565b91505092915050565b60805160a051611925620007306000396000818161015a01528181610569015281816108e00152610e490152600061010201526119256000f3fe608060405234801561001057600080fd5b50600436106100575760003560e01c80630542975c1461005c5780631b11d0ff1461007a5780637535d246146100aa578063af281f21146100c8578063cea8fe55146100e4575b600080fd5b610064610100565b6040516100719190610f81565b60405180910390f35b610094600480360381019061008f9190611089565b610124565b6040516100a1919061113e565b60405180910390f35b6100b2610567565b6040516100bf919061117a565b60405180910390f35b6100e260048036038101906100dd9190611195565b61058b565b005b6100fe60048036038101906100f99190611195565b610978565b005b7f000000000000000000000000000000000000000000000000000000000000000081565b60008061013a8688610ee890919063ffffffff16565b90508773ffffffffffffffffffffffffffffffffffffffff1663095ea7b37f0000000000000000000000000000000000000000000000000000000000000000836040518363ffffffff1660e01b81526004016101979291906111f3565b6020604051808303816000875af11580156101b6573d6000803e3d6000fd5b505050506040513d601f19601f820116820180604052508101906101da9190611248565b506000600267ffffffffffffffff8111156101f8576101f7611275565b5b6040519080825280602002602001820160405280156102265781602001602082028036833780820191505090505b509050600760009054906101000a900473ffffffffffffffffffffffffffffffffffffffff16816000815181106102605761025f6112a4565b5b602002602001019073ffffffffffffffffffffffffffffffffffffffff16908173ffffffffffffffffffffffffffffffffffffffff1681525050600560009054906101000a900473ffffffffffffffffffffffffffffffffffffffff16816001815181106102d1576102d06112a4565b5b602002602001019073ffffffffffffffffffffffffffffffffffffffff16908173ffffffffffffffffffffffffffffffffffffffff16815250506000600b60009054906101000a900473ffffffffffffffffffffffffffffffffffffffff1673ffffffffffffffffffffffffffffffffffffffff166338ed17398a60018530426040518663ffffffff1660e01b81526004016103719594939291906113cc565b6000604051808303816000875af1158015610390573d6000803e3d6000fd5b505050506040513d6000823e3d601f19601f820116820180604052508101906103b9919061155b565b6001815181106103cc576103cb6112a4565b5b6020026020010151905060006040518060e00160405280600560009054906101000a900473ffffffffffffffffffffffffffffffffffffffff1673ffffffffffffffffffffffffffffffffffffffff168152602001600760009054906101000a900473ffffffffffffffffffffffffffffffffffffffff1673ffffffffffffffffffffffffffffffffffffffff168152602001610bb862ffffff1681526020013073ffffffffffffffffffffffffffffffffffffffff16815260200183815260200160008152602001600073ffffffffffffffffffffffffffffffffffffffff1681525090506000600c60009054906101000a900473ffffffffffffffffffffffffffffffffffffffff1673ffffffffffffffffffffffffffffffffffffffff166304e45aaf836040518263ffffffff1660e01b815260040161050f919061166e565b6020604051808303816000875af115801561052e573d6000803e3d6000fd5b505050506040513d601f19601f820116820180604052508101906105529190611689565b90506001955050505050509695505050505050565b7f000000000000000000000000000000000000000000000000000000000000000081565b600030905060006040518060200160405280600081525090506000600d60009054906101000a900473ffffffffffffffffffffffffffffffffffffffff1673ffffffffffffffffffffffffffffffffffffffff1663095ea7b3600b60009054906101000a900473ffffffffffffffffffffffffffffffffffffffff166a52b7d2dcc80cd2e40000006040518363ffffffff1660e01b81526004016106309291906111f3565b6020604051808303816000875af115801561064f573d6000803e3d6000fd5b505050506040513d601f19601f820116820180604052508101906106739190611248565b50600d60009054906101000a900473ffffffffffffffffffffffffffffffffffffffff1673ffffffffffffffffffffffffffffffffffffffff1663095ea7b3600c60009054906101000a900473ffffffffffffffffffffffffffffffffffffffff166a52b7d2dcc80cd2e40000006040518363ffffffff1660e01b81526004016106fe9291906111f3565b6020604051808303816000875af115801561071d573d6000803e3d6000fd5b505050506040513d601f19601f820116820180604052508101906107419190611248565b50600f60009054906101000a900473ffffffffffffffffffffffffffffffffffffffff1673ffffffffffffffffffffffffffffffffffffffff1663095ea7b3600b60009054906101000a900473ffffffffffffffffffffffffffffffffffffffff166a52b7d2dcc80cd2e40000006040518363ffffffff1660e01b81526004016107cc9291906111f3565b6020604051808303816000875af11580156107eb573d6000803e3d6000fd5b505050506040513d601f19601f8201168201806040525081019061080f9190611248565b50600f60009054906101000a900473ffffffffffffffffffffffffffffffffffffffff1673ffffffffffffffffffffffffffffffffffffffff1663095ea7b3600c60009054906101000a900473ffffffffffffffffffffffffffffffffffffffff166a52b7d2dcc80cd2e40000006040518363ffffffff1660e01b815260040161089a9291906111f3565b6020604051808303816000875af11580156108b9573d6000803e3d6000fd5b505050506040513d601f19601f820116820180604052508101906108dd9190611248565b507f000000000000000000000000000000000000000000000000000000000000000073ffffffffffffffffffffffffffffffffffffffff166342b0b77c84878786866040518663ffffffff1660e01b815260040161093f95949392919061175b565b600060405180830381600087803b15801561095957600080fd5b505af115801561096d573d6000803e3d6000fd5b505050505050505050565b60003090506000600167ffffffffffffffff81111561099a57610999611275565b5b6040519080825280602002602001820160405280156109c85781602001602082028036833780820191505090505b50905083816000815181106109e0576109df6112a4565b5b602002602001019073ffffffffffffffffffffffffffffffffffffffff16908173ffffffffffffffffffffffffffffffffffffffff16815250506000600167ffffffffffffffff811115610a3757610a36611275565b5b604051908082528060200260200182016040528015610a655781602001602082028036833780820191505090505b5090508381600081518110610a7d57610a7c6112a4565b5b6020026020010181815250506000600167ffffffffffffffff811115610aa657610aa5611275565b5b604051908082528060200260200182016040528015610ad45781602001602082028036833780820191505090505b509050600081600081518110610aed57610aec6112a4565b5b60200260200101818152505060006040518060200160405280600081525090506000600d60009054906101000a900473ffffffffffffffffffffffffffffffffffffffff1673ffffffffffffffffffffffffffffffffffffffff1663095ea7b3600b60009054906101000a900473ffffffffffffffffffffffffffffffffffffffff166a52b7d2dcc80cd2e40000006040518363ffffffff1660e01b8152600401610b999291906111f3565b6020604051808303816000875af1158015610bb8573d6000803e3d6000fd5b505050506040513d601f19601f82011682018060405250810190610bdc9190611248565b50600d60009054906101000a900473ffffffffffffffffffffffffffffffffffffffff1673ffffffffffffffffffffffffffffffffffffffff1663095ea7b3600c60009054906101000a900473ffffffffffffffffffffffffffffffffffffffff166a52b7d2dcc80cd2e40000006040518363ffffffff1660e01b8152600401610c679291906111f3565b6020604051808303816000875af1158015610c86573d6000803e3d6000fd5b505050506040513d601f19601f82011682018060405250810190610caa9190611248565b50600f60009054906101000a900473ffffffffffffffffffffffffffffffffffffffff1673ffffffffffffffffffffffffffffffffffffffff1663095ea7b3600b60009054906101000a900473ffffffffffffffffffffffffffffffffffffffff166a52b7d2dcc80cd2e40000006040518363ffffffff1660e01b8152600401610d359291906111f3565b6020604051808303816000875af1158015610d54573d6000803e3d6000fd5b505050506040513d601f19601f82011682018060405250810190610d789190611248565b50600f60009054906101000a900473ffffffffffffffffffffffffffffffffffffffff1673ffffffffffffffffffffffffffffffffffffffff1663095ea7b3600c60009054906101000a900473ffffffffffffffffffffffffffffffffffffffff166a52b7d2dcc80cd2e40000006040518363ffffffff1660e01b8152600401610e039291906111f3565b6020604051808303816000875af1158015610e22573d6000803e3d6000fd5b505050506040513d601f19601f82011682018060405250810190610e469190611248565b507f000000000000000000000000000000000000000000000000000000000000000073ffffffffffffffffffffffffffffffffffffffff1663ab9c4b5d878787878b88886040518863ffffffff1660e01b8152600401610eac9796959493929190611864565b600060405180830381600087803b158015610ec657600080fd5b505af1158015610eda573d6000803e3d6000fd5b505050505050505050505050565b6000828284019150811015610efc57600080fd5b92915050565b600073ffffffffffffffffffffffffffffffffffffffff82169050919050565b6000819050919050565b6000610f47610f42610f3d84610f02565b610f22565b610f02565b9050919050565b6000610f5982610f2c565b9050919050565b6000610f6b82610f4e565b9050919050565b610f7b81610f60565b82525050565b6000602082019050610f966000830184610f72565b92915050565b6000604051905090565b600080fd5b600080fd5b6000610fbb82610f02565b9050919050565b610fcb81610fb0565b8114610fd657600080fd5b50565b600081359050610fe881610fc2565b92915050565b6000819050919050565b61100181610fee565b811461100c57600080fd5b50565b60008135905061101e81610ff8565b92915050565b600080fd5b600080fd5b600080fd5b60008083601f84011261104957611048611024565b5b8235905067ffffffffffffffff81111561106657611065611029565b5b6020830191508360018202830111156110825761108161102e565b5b9250929050565b60008060008060008060a087890312156110a6576110a5610fa6565b5b60006110b489828a01610fd9565b96505060206110c589828a0161100f565b95505060406110d689828a0161100f565b94505060606110e789828a01610fd9565b935050608087013567ffffffffffffffff81111561110857611107610fab565b5b61111489828a01611033565b92509250509295509295509295565b60008115159050919050565b61113881611123565b82525050565b6000602082019050611153600083018461112f565b92915050565b600061116482610f4e565b9050919050565b61117481611159565b82525050565b600060208201905061118f600083018461116b565b92915050565b600080604083850312156111ac576111ab610fa6565b5b60006111ba85828601610fd9565b92505060206111cb8582860161100f565b9150509250929050565b6111de81610fb0565b82525050565b6111ed81610fee565b82525050565b600060408201905061120860008301856111d5565b61121560208301846111e4565b9392505050565b61122581611123565b811461123057600080fd5b50565b6000815190506112428161121c565b92915050565b60006020828403121561125e5761125d610fa6565b5b600061126c84828501611233565b91505092915050565b7f4e487b7100000000000000000000000000000000000000000000000000000000600052604160045260246000fd5b7f4e487b7100000000000000000000000000000000000000000000000000000000600052603260045260246000fd5b6000819050919050565b60006112f86112f36112ee846112d3565b610f22565b610fee565b9050919050565b611308816112dd565b82525050565b600081519050919050565b600082825260208201905092915050565b6000819050602082019050919050565b61134381610fb0565b82525050565b6000611355838361133a565b60208301905092915050565b6000602082019050919050565b60006113798261130e565b6113838185611319565b935061138e8361132a565b8060005b838110156113bf5781516113a68882611349565b97506113b183611361565b925050600181019050611392565b5085935050505092915050565b600060a0820190506113e160008301886111e4565b6113ee60208301876112ff565b8181036040830152611400818661136e565b905061140f60608301856111d5565b61141c60808301846111e4565b9695505050505050565b6000601f19601f8301169050919050565b61144082611426565b810181811067ffffffffffffffff8211171561145f5761145e611275565b5b80604052505050565b6000611472610f9c565b905061147e8282611437565b919050565b600067ffffffffffffffff82111561149e5761149d611275565b5b602082029050602081019050919050565b6000815190506114be81610ff8565b92915050565b60006114d76114d284611483565b611468565b905080838252602082019050602084028301858111156114fa576114f961102e565b5b835b81811015611523578061150f88826114af565b8452602084019350506020810190506114fc565b5050509392505050565b600082601f83011261154257611541611024565b5b81516115528482602086016114c4565b91505092915050565b60006020828403121561157157611570610fa6565b5b600082015167ffffffffffffffff81111561158f5761158e610fab565b5b61159b8482850161152d565b91505092915050565b600062ffffff82169050919050565b6115bc816115a4565b82525050565b6115cb81610fee565b82525050565b6115da81610f02565b82525050565b60e0820160008201516115f6600085018261133a565b506020820151611609602085018261133a565b50604082015161161c60408501826115b3565b50606082015161162f606085018261133a565b50608082015161164260808501826115c2565b5060a082015161165560a08501826115c2565b5060c082015161166860c08501826115d1565b50505050565b600060e08201905061168360008301846115e0565b92915050565b60006020828403121561169f5761169e610fa6565b5b60006116ad848285016114af565b91505092915050565b600081519050919050565b600082825260208201905092915050565b60005b838110156116f05780820151818401526020810190506116d5565b838111156116ff576000848401525b50505050565b6000611710826116b6565b61171a81856116c1565b935061172a8185602086016116d2565b61173381611426565b840191505092915050565b600061ffff82169050919050565b6117558161173e565b82525050565b600060a08201905061177060008301886111d5565b61177d60208301876111d5565b61178a60408301866111e4565b818103606083015261179c8185611705565b90506117ab608083018461174c565b9695505050505050565b600081519050919050565b600082825260208201905092915050565b6000819050602082019050919050565b60006117ed83836115c2565b60208301905092915050565b6000602082019050919050565b6000611811826117b5565b61181b81856117c0565b9350611826836117d1565b8060005b8381101561185757815161183e88826117e1565b9750611849836117f9565b92505060018101905061182a565b5085935050505092915050565b600060e082019050611879600083018a6111d5565b818103602083015261188b818961136e565b9050818103604083015261189f8188611806565b905081810360608301526118b38187611806565b90506118c260808301866111d5565b81810360a08301526118d48185611705565b90506118e360c083018461174c565b9897505050505050505056fea2646970667358221220033425c826e65e93cf9b6a040aff9cba0588c30cead1aa9758d46a1d47cf831f64736f6c634300080a0033",
					"opcodes": "PUSH1 0xC0 PUSH1 0x40 MSTORE PUSH20 0x7A250D5630B4CF539739DF2C5DACB4C659F2488D PUSH1 0x0 DUP1 PUSH2 0x100 EXP DUP2 SLOAD DUP2 PUSH20 0xFFFFFFFFFFFFFFFFFFFFFFFFFFFFFFFFFFFFFFFF MUL NOT AND SWAP1 DUP4 PUSH20 0xFFFFFFFFFFFFFFFFFFFFFFFFFFFFFFFFFFFFFFFF AND MUL OR SWAP1 SSTORE POP PUSH20 0x5C69BEE701EF814A2B6A3EDD4B1652CB9CC5AA6F PUSH1 0x1 PUSH1 0x0 PUSH2 0x100 EXP DUP2 SLOAD DUP2 PUSH20 0xFFFFFFFFFFFFFFFFFFFFFFFFFFFFFFFFFFFFFFFF MUL NOT AND SWAP1 DUP4 PUSH20 0xFFFFFFFFFFFFFFFFFFFFFFFFFFFFFFFFFFFFFFFF AND MUL OR SWAP1 SSTORE POP PUSH20 0xC36442B4A4522E871399CD717ABDD847AB11FE88 PUSH1 0x2 PUSH1 0x0 PUSH2 0x100 EXP DUP2 SLOAD DUP2 PUSH20 0xFFFFFFFFFFFFFFFFFFFFFFFFFFFFFFFFFFFFFFFF MUL NOT AND SWAP1 DUP4 PUSH20 0xFFFFFFFFFFFFFFFFFFFFFFFFFFFFFFFFFFFFFFFF AND MUL OR SWAP1 SSTORE POP PUSH20 0x1F98431C8AD98523631AE4A59F267346EA31F984 PUSH1 0x3 PUSH1 0x0 PUSH2 0x100 EXP DUP2 SLOAD DUP2 PUSH20 0xFFFFFFFFFFFFFFFFFFFFFFFFFFFFFFFFFFFFFFFF MUL NOT AND SWAP1 DUP4 PUSH20 0xFFFFFFFFFFFFFFFFFFFFFFFFFFFFFFFFFFFFFFFF AND MUL OR SWAP1 SSTORE POP PUSH20 0x68B3465833FB72A70ECDF485E0E4C7BD8665FC45 PUSH1 0x4 PUSH1 0x0 PUSH2 0x100 EXP DUP2 SLOAD DUP2 PUSH20 0xFFFFFFFFFFFFFFFFFFFFFFFFFFFFFFFFFFFFFFFF MUL NOT AND SWAP1 DUP4 PUSH20 0xFFFFFFFFFFFFFFFFFFFFFFFFFFFFFFFFFFFFFFFF AND MUL OR SWAP1 SSTORE POP PUSH20 0xB9B56CE66C63DB98E6CDDACDF910C227294A8840 PUSH1 0x5 PUSH1 0x0 PUSH2 0x100 EXP DUP2 SLOAD DUP2 PUSH20 0xFFFFFFFFFFFFFFFFFFFFFFFFFFFFFFFFFFFFFFFF MUL NOT AND SWAP1 DUP4 PUSH20 0xFFFFFFFFFFFFFFFFFFFFFFFFFFFFFFFFFFFFFFFF AND MUL OR SWAP1 SSTORE POP PUSH20 0x953AF320E2BD3041C4E56BB3A30E7F613A1F3C1A PUSH1 0x6 PUSH1 0x0 PUSH2 0x100 EXP DUP2 SLOAD DUP2 PUSH20 0xFFFFFFFFFFFFFFFFFFFFFFFFFFFFFFFFFFFFFFFF MUL NOT AND SWAP1 DUP4 PUSH20 0xFFFFFFFFFFFFFFFFFFFFFFFFFFFFFFFFFFFFFFFF AND MUL OR SWAP1 SSTORE POP PUSH20 0x2EC4C6FCDBF5F9BEECEB1B51848FC2DB1F3A26AF PUSH1 0x7 PUSH1 0x0 PUSH2 0x100 EXP DUP2 SLOAD DUP2 PUSH20 0xFFFFFFFFFFFFFFFFFFFFFFFFFFFFFFFFFFFFFFFF MUL NOT AND SWAP1 DUP4 PUSH20 0xFFFFFFFFFFFFFFFFFFFFFFFFFFFFFFFFFFFFFFFF AND MUL OR SWAP1 SSTORE POP PUSH20 0x91337CCD2EDF1DF2D252F563B27341D52EEDBE78 PUSH1 0x8 PUSH1 0x0 PUSH2 0x100 EXP DUP2 SLOAD DUP2 PUSH20 0xFFFFFFFFFFFFFFFFFFFFFFFFFFFFFFFFFFFFFFFF MUL NOT AND SWAP1 DUP4 PUSH20 0xFFFFFFFFFFFFFFFFFFFFFFFFFFFFFFFFFFFFFFFF AND MUL OR SWAP1 SSTORE POP PUSH2 0x2AD1 PUSH1 0x9 SSTORE PUSH20 0xA55125A90D75A95EC00130E8E8C197DB5641EB19 PUSH1 0xA PUSH1 0x0 PUSH2 0x100 EXP DUP2 SLOAD DUP2 PUSH20 0xFFFFFFFFFFFFFFFFFFFFFFFFFFFFFFFFFFFFFFFF MUL NOT AND SWAP1 DUP4 PUSH20 0xFFFFFFFFFFFFFFFFFFFFFFFFFFFFFFFFFFFFFFFF AND MUL OR SWAP1 SSTORE POP PUSH1 0x0 DUP1 SLOAD SWAP1 PUSH2 0x100 EXP SWAP1 DIV PUSH20 0xFFFFFFFFFFFFFFFFFFFFFFFFFFFFFFFFFFFFFFFF AND PUSH1 0xB PUSH1 0x0 PUSH2 0x100 EXP DUP2 SLOAD DUP2 PUSH20 0xFFFFFFFFFFFFFFFFFFFFFFFFFFFFFFFFFFFFFFFF MUL NOT AND SWAP1 DUP4 PUSH20 0xFFFFFFFFFFFFFFFFFFFFFFFFFFFFFFFFFFFFFFFF AND MUL OR SWAP1 SSTORE POP PUSH1 0x4 PUSH1 0x0 SWAP1 SLOAD SWAP1 PUSH2 0x100 EXP SWAP1 DIV PUSH20 0xFFFFFFFFFFFFFFFFFFFFFFFFFFFFFFFFFFFFFFFF AND PUSH1 0xC PUSH1 0x0 PUSH2 0x100 EXP DUP2 SLOAD DUP2 PUSH20 0xFFFFFFFFFFFFFFFFFFFFFFFFFFFFFFFFFFFFFFFF MUL NOT AND SWAP1 DUP4 PUSH20 0xFFFFFFFFFFFFFFFFFFFFFFFFFFFFFFFFFFFFFFFF AND MUL OR SWAP1 SSTORE POP PUSH1 0x5 PUSH1 0x0 SWAP1 SLOAD SWAP1 PUSH2 0x100 EXP SWAP1 DIV PUSH20 0xFFFFFFFFFFFFFFFFFFFFFFFFFFFFFFFFFFFFFFFF AND PUSH1 0xD PUSH1 0x0 PUSH2 0x100 EXP DUP2 SLOAD DUP2 PUSH20 0xFFFFFFFFFFFFFFFFFFFFFFFFFFFFFFFFFFFFFFFF MUL NOT AND SWAP1 DUP4 PUSH20 0xFFFFFFFFFFFFFFFFFFFFFFFFFFFFFFFFFFFFFFFF AND MUL OR SWAP1 SSTORE POP PUSH1 0x6 PUSH1 0x0 SWAP1 SLOAD SWAP1 PUSH2 0x100 EXP SWAP1 DIV PUSH20 0xFFFFFFFFFFFFFFFFFFFFFFFFFFFFFFFFFFFFFFFF AND PUSH1 0xE PUSH1 0x0 PUSH2 0x100 EXP DUP2 SLOAD DUP2 PUSH20 0xFFFFFFFFFFFFFFFFFFFFFFFFFFFFFFFFFFFFFFFF MUL NOT AND SWAP1 DUP4 PUSH20 0xFFFFFFFFFFFFFFFFFFFFFFFFFFFFFFFFFFFFFFFF AND MUL OR SWAP1 SSTORE POP PUSH1 0xF PUSH1 0x0 SWAP1 SLOAD SWAP1 PUSH2 0x100 EXP SWAP1 DIV PUSH20 0xFFFFFFFFFFFFFFFFFFFFFFFFFFFFFFFFFFFFFFFF AND PUSH1 0xF PUSH1 0x0 PUSH2 0x100 EXP DUP2 SLOAD DUP2 PUSH20 0xFFFFFFFFFFFFFFFFFFFFFFFFFFFFFFFFFFFFFFFF MUL NOT AND SWAP1 DUP4 PUSH20 0xFFFFFFFFFFFFFFFFFFFFFFFFFFFFFFFFFFFFFFFF AND MUL OR SWAP1 SSTORE POP CALLVALUE DUP1 ISZERO PUSH3 0x555 JUMPI PUSH1 0x0 DUP1 REVERT JUMPDEST POP PUSH1 0xA PUSH1 0x0 SWAP1 SLOAD SWAP1 PUSH2 0x100 EXP SWAP1 DIV PUSH20 0xFFFFFFFFFFFFFFFFFFFFFFFFFFFFFFFFFFFFFFFF AND PUSH20 0xFFFFFFFFFFFFFFFFFFFFFFFFFFFFFFFFFFFFFFFF AND PUSH1 0x80 DUP2 PUSH20 0xFFFFFFFFFFFFFFFFFFFFFFFFFFFFFFFFFFFFFFFF AND DUP2 MSTORE POP POP PUSH1 0x80 MLOAD PUSH20 0xFFFFFFFFFFFFFFFFFFFFFFFFFFFFFFFFFFFFFFFF AND PUSH4 0x26B1D5F PUSH1 0x40 MLOAD DUP2 PUSH4 0xFFFFFFFF AND PUSH1 0xE0 SHL DUP2 MSTORE PUSH1 0x4 ADD PUSH1 0x20 PUSH1 0x40 MLOAD DUP1 DUP4 SUB DUP2 DUP7 GAS STATICCALL ISZERO DUP1 ISZERO PUSH3 0x5FA JUMPI RETURNDATASIZE PUSH1 0x0 DUP1 RETURNDATACOPY RETURNDATASIZE PUSH1 0x0 REVERT JUMPDEST POP POP POP POP PUSH1 0x40 MLOAD RETURNDATASIZE PUSH1 0x1F NOT PUSH1 0x1F DUP3 ADD AND DUP3 ADD DUP1 PUSH1 0x40 MSTORE POP DUP2 ADD SWAP1 PUSH3 0x620 SWAP2 SWAP1 PUSH3 0x6C3 JUMP JUMPDEST PUSH20 0xFFFFFFFFFFFFFFFFFFFFFFFFFFFFFFFFFFFFFFFF AND PUSH1 0xA0 DUP2 PUSH20 0xFFFFFFFFFFFFFFFFFFFFFFFFFFFFFFFFFFFFFFFF AND DUP2 MSTORE POP POP PUSH3 0x6F5 JUMP JUMPDEST PUSH1 0x0 DUP1 REVERT JUMPDEST PUSH1 0x0 PUSH20 0xFFFFFFFFFFFFFFFFFFFFFFFFFFFFFFFFFFFFFFFF DUP3 AND SWAP1 POP SWAP2 SWAP1 POP JUMP JUMPDEST PUSH1 0x0 PUSH3 0x68B DUP3 PUSH3 0x65E JUMP JUMPDEST SWAP1 POP SWAP2 SWAP1 POP JUMP JUMPDEST PUSH3 0x69D DUP2 PUSH3 0x67E JUMP JUMPDEST DUP2 EQ PUSH3 0x6A9 JUMPI PUSH1 0x0 DUP1 REVERT JUMPDEST POP JUMP JUMPDEST PUSH1 0x0 DUP2 MLOAD SWAP1 POP PUSH3 0x6BD DUP2 PUSH3 0x692 JUMP JUMPDEST SWAP3 SWAP2 POP POP JUMP JUMPDEST PUSH1 0x0 PUSH1 0x20 DUP3 DUP5 SUB SLT ISZERO PUSH3 0x6DC JUMPI PUSH3 0x6DB PUSH3 0x659 JUMP JUMPDEST JUMPDEST PUSH1 0x0 PUSH3 0x6EC DUP5 DUP3 DUP6 ADD PUSH3 0x6AC JUMP JUMPDEST SWAP2 POP POP SWAP3 SWAP2 POP POP JUMP JUMPDEST PUSH1 0x80 MLOAD PUSH1 0xA0 MLOAD PUSH2 0x1925 PUSH3 0x730 PUSH1 0x0 CODECOPY PUSH1 0x0 DUP2 DUP2 PUSH2 0x15A ADD MSTORE DUP2 DUP2 PUSH2 0x569 ADD MSTORE DUP2 DUP2 PUSH2 0x8E0 ADD MSTORE PUSH2 0xE49 ADD MSTORE PUSH1 0x0 PUSH2 0x102 ADD MSTORE PUSH2 0x1925 PUSH1 0x0 RETURN INVALID PUSH1 0x80 PUSH1 0x40 MSTORE CALLVALUE DUP1 ISZERO PUSH2 0x10 JUMPI PUSH1 0x0 DUP1 REVERT JUMPDEST POP PUSH1 0x4 CALLDATASIZE LT PUSH2 0x57 JUMPI PUSH1 0x0 CALLDATALOAD PUSH1 0xE0 SHR DUP1 PUSH4 0x542975C EQ PUSH2 0x5C JUMPI DUP1 PUSH4 0x1B11D0FF EQ PUSH2 0x7A JUMPI DUP1 PUSH4 0x7535D246 EQ PUSH2 0xAA JUMPI DUP1 PUSH4 0xAF281F21 EQ PUSH2 0xC8 JUMPI DUP1 PUSH4 0xCEA8FE55 EQ PUSH2 0xE4 JUMPI JUMPDEST PUSH1 0x0 DUP1 REVERT JUMPDEST PUSH2 0x64 PUSH2 0x100 JUMP JUMPDEST PUSH1 0x40 MLOAD PUSH2 0x71 SWAP2 SWAP1 PUSH2 0xF81 JUMP JUMPDEST PUSH1 0x40 MLOAD DUP1 SWAP2 SUB SWAP1 RETURN JUMPDEST PUSH2 0x94 PUSH1 0x4 DUP1 CALLDATASIZE SUB DUP2 ADD SWAP1 PUSH2 0x8F SWAP2 SWAP1 PUSH2 0x1089 JUMP JUMPDEST PUSH2 0x124 JUMP JUMPDEST PUSH1 0x40 MLOAD PUSH2 0xA1 SWAP2 SWAP1 PUSH2 0x113E JUMP JUMPDEST PUSH1 0x40 MLOAD DUP1 SWAP2 SUB SWAP1 RETURN JUMPDEST PUSH2 0xB2 PUSH2 0x567 JUMP JUMPDEST PUSH1 0x40 MLOAD PUSH2 0xBF SWAP2 SWAP1 PUSH2 0x117A JUMP JUMPDEST PUSH1 0x40 MLOAD DUP1 SWAP2 SUB SWAP1 RETURN JUMPDEST PUSH2 0xE2 PUSH1 0x4 DUP1 CALLDATASIZE SUB DUP2 ADD SWAP1 PUSH2 0xDD SWAP2 SWAP1 PUSH2 0x1195 JUMP JUMPDEST PUSH2 0x58B JUMP JUMPDEST STOP JUMPDEST PUSH2 0xFE PUSH1 0x4 DUP1 CALLDATASIZE SUB DUP2 ADD SWAP1 PUSH2 0xF9 SWAP2 SWAP1 PUSH2 0x1195 JUMP JUMPDEST PUSH2 0x978 JUMP JUMPDEST STOP JUMPDEST PUSH32 0x0 DUP2 JUMP JUMPDEST PUSH1 0x0 DUP1 PUSH2 0x13A DUP7 DUP9 PUSH2 0xEE8 SWAP1 SWAP2 SWAP1 PUSH4 0xFFFFFFFF AND JUMP JUMPDEST SWAP1 POP DUP8 PUSH20 0xFFFFFFFFFFFFFFFFFFFFFFFFFFFFFFFFFFFFFFFF AND PUSH4 0x95EA7B3 PUSH32 0x0 DUP4 PUSH1 0x40 MLOAD DUP4 PUSH4 0xFFFFFFFF AND PUSH1 0xE0 SHL DUP2 MSTORE PUSH1 0x4 ADD PUSH2 0x197 SWAP3 SWAP2 SWAP1 PUSH2 0x11F3 JUMP JUMPDEST PUSH1 0x20 PUSH1 0x40 MLOAD DUP1 DUP4 SUB DUP2 PUSH1 0x0 DUP8 GAS CALL ISZERO DUP1 ISZERO PUSH2 0x1B6 JUMPI RETURNDATASIZE PUSH1 0x0 DUP1 RETURNDATACOPY RETURNDATASIZE PUSH1 0x0 REVERT JUMPDEST POP POP POP POP PUSH1 0x40 MLOAD RETURNDATASIZE PUSH1 0x1F NOT PUSH1 0x1F DUP3 ADD AND DUP3 ADD DUP1 PUSH1 0x40 MSTORE POP DUP2 ADD SWAP1 PUSH2 0x1DA SWAP2 SWAP1 PUSH2 0x1248 JUMP JUMPDEST POP PUSH1 0x0 PUSH1 0x2 PUSH8 0xFFFFFFFFFFFFFFFF DUP2 GT ISZERO PUSH2 0x1F8 JUMPI PUSH2 0x1F7 PUSH2 0x1275 JUMP JUMPDEST JUMPDEST PUSH1 0x40 MLOAD SWAP1 DUP1 DUP3 MSTORE DUP1 PUSH1 0x20 MUL PUSH1 0x20 ADD DUP3 ADD PUSH1 0x40 MSTORE DUP1 ISZERO PUSH2 0x226 JUMPI DUP2 PUSH1 0x20 ADD PUSH1 0x20 DUP3 MUL DUP1 CALLDATASIZE DUP4 CALLDATACOPY DUP1 DUP3 ADD SWAP2 POP POP SWAP1 POP JUMPDEST POP SWAP1 POP PUSH1 0x7 PUSH1 0x0 SWAP1 SLOAD SWAP1 PUSH2 0x100 EXP SWAP1 DIV PUSH20 0xFFFFFFFFFFFFFFFFFFFFFFFFFFFFFFFFFFFFFFFF AND DUP2 PUSH1 0x0 DUP2 MLOAD DUP2 LT PUSH2 0x260 JUMPI PUSH2 0x25F PUSH2 0x12A4 JUMP JUMPDEST JUMPDEST PUSH1 0x20 MUL PUSH1 0x20 ADD ADD SWAP1 PUSH20 0xFFFFFFFFFFFFFFFFFFFFFFFFFFFFFFFFFFFFFFFF AND SWAP1 DUP2 PUSH20 0xFFFFFFFFFFFFFFFFFFFFFFFFFFFFFFFFFFFFFFFF AND DUP2 MSTORE POP POP PUSH1 0x5 PUSH1 0x0 SWAP1 SLOAD SWAP1 PUSH2 0x100 EXP SWAP1 DIV PUSH20 0xFFFFFFFFFFFFFFFFFFFFFFFFFFFFFFFFFFFFFFFF AND DUP2 PUSH1 0x1 DUP2 MLOAD DUP2 LT PUSH2 0x2D1 JUMPI PUSH2 0x2D0 PUSH2 0x12A4 JUMP JUMPDEST JUMPDEST PUSH1 0x20 MUL PUSH1 0x20 ADD ADD SWAP1 PUSH20 0xFFFFFFFFFFFFFFFFFFFFFFFFFFFFFFFFFFFFFFFF AND SWAP1 DUP2 PUSH20 0xFFFFFFFFFFFFFFFFFFFFFFFFFFFFFFFFFFFFFFFF AND DUP2 MSTORE POP POP PUSH1 0x0 PUSH1 0xB PUSH1 0x0 SWAP1 SLOAD SWAP1 PUSH2 0x100 EXP SWAP1 DIV PUSH20 0xFFFFFFFFFFFFFFFFFFFFFFFFFFFFFFFFFFFFFFFF AND PUSH20 0xFFFFFFFFFFFFFFFFFFFFFFFFFFFFFFFFFFFFFFFF AND PUSH4 0x38ED1739 DUP11 PUSH1 0x1 DUP6 ADDRESS TIMESTAMP PUSH1 0x40 MLOAD DUP7 PUSH4 0xFFFFFFFF AND PUSH1 0xE0 SHL DUP2 MSTORE PUSH1 0x4 ADD PUSH2 0x371 SWAP6 SWAP5 SWAP4 SWAP3 SWAP2 SWAP1 PUSH2 0x13CC JUMP JUMPDEST PUSH1 0x0 PUSH1 0x40 MLOAD DUP1 DUP4 SUB DUP2 PUSH1 0x0 DUP8 GAS CALL ISZERO DUP1 ISZERO PUSH2 0x390 JUMPI RETURNDATASIZE PUSH1 0x0 DUP1 RETURNDATACOPY RETURNDATASIZE PUSH1 0x0 REVERT JUMPDEST POP POP POP POP PUSH1 0x40 MLOAD RETURNDATASIZE PUSH1 0x0 DUP3 RETURNDATACOPY RETURNDATASIZE PUSH1 0x1F NOT PUSH1 0x1F DUP3 ADD AND DUP3 ADD DUP1 PUSH1 0x40 MSTORE POP DUP2 ADD SWAP1 PUSH2 0x3B9 SWAP2 SWAP1 PUSH2 0x155B JUMP JUMPDEST PUSH1 0x1 DUP2 MLOAD DUP2 LT PUSH2 0x3CC JUMPI PUSH2 0x3CB PUSH2 0x12A4 JUMP JUMPDEST JUMPDEST PUSH1 0x20 MUL PUSH1 0x20 ADD ADD MLOAD SWAP1 POP PUSH1 0x0 PUSH1 0x40 MLOAD DUP1 PUSH1 0xE0 ADD PUSH1 0x40 MSTORE DUP1 PUSH1 0x5 PUSH1 0x0 SWAP1 SLOAD SWAP1 PUSH2 0x100 EXP SWAP1 DIV PUSH20 0xFFFFFFFFFFFFFFFFFFFFFFFFFFFFFFFFFFFFFFFF AND PUSH20 0xFFFFFFFFFFFFFFFFFFFFFFFFFFFFFFFFFFFFFFFF AND DUP2 MSTORE PUSH1 0x20 ADD PUSH1 0x7 PUSH1 0x0 SWAP1 SLOAD SWAP1 PUSH2 0x100 EXP SWAP1 DIV PUSH20 0xFFFFFFFFFFFFFFFFFFFFFFFFFFFFFFFFFFFFFFFF AND PUSH20 0xFFFFFFFFFFFFFFFFFFFFFFFFFFFFFFFFFFFFFFFF AND DUP2 MSTORE PUSH1 0x20 ADD PUSH2 0xBB8 PUSH3 0xFFFFFF AND DUP2 MSTORE PUSH1 0x20 ADD ADDRESS PUSH20 0xFFFFFFFFFFFFFFFFFFFFFFFFFFFFFFFFFFFFFFFF AND DUP2 MSTORE PUSH1 0x20 ADD DUP4 DUP2 MSTORE PUSH1 0x20 ADD PUSH1 0x0 DUP2 MSTORE PUSH1 0x20 ADD PUSH1 0x0 PUSH20 0xFFFFFFFFFFFFFFFFFFFFFFFFFFFFFFFFFFFFFFFF AND DUP2 MSTORE POP SWAP1 POP PUSH1 0x0 PUSH1 0xC PUSH1 0x0 SWAP1 SLOAD SWAP1 PUSH2 0x100 EXP SWAP1 DIV PUSH20 0xFFFFFFFFFFFFFFFFFFFFFFFFFFFFFFFFFFFFFFFF AND PUSH20 0xFFFFFFFFFFFFFFFFFFFFFFFFFFFFFFFFFFFFFFFF AND PUSH4 0x4E45AAF DUP4 PUSH1 0x40 MLOAD DUP3 PUSH4 0xFFFFFFFF AND PUSH1 0xE0 SHL DUP2 MSTORE PUSH1 0x4 ADD PUSH2 0x50F SWAP2 SWAP1 PUSH2 0x166E JUMP JUMPDEST PUSH1 0x20 PUSH1 0x40 MLOAD DUP1 DUP4 SUB DUP2 PUSH1 0x0 DUP8 GAS CALL ISZERO DUP1 ISZERO PUSH2 0x52E JUMPI RETURNDATASIZE PUSH1 0x0 DUP1 RETURNDATACOPY RETURNDATASIZE PUSH1 0x0 REVERT JUMPDEST POP POP POP POP PUSH1 0x40 MLOAD RETURNDATASIZE PUSH1 0x1F NOT PUSH1 0x1F DUP3 ADD AND DUP3 ADD DUP1 PUSH1 0x40 MSTORE POP DUP2 ADD SWAP1 PUSH2 0x552 SWAP2 SWAP1 PUSH2 0x1689 JUMP JUMPDEST SWAP1 POP PUSH1 0x1 SWAP6 POP POP POP POP POP POP SWAP7 SWAP6 POP POP POP POP POP POP JUMP JUMPDEST PUSH32 0x0 DUP2 JUMP JUMPDEST PUSH1 0x0 ADDRESS SWAP1 POP PUSH1 0x0 PUSH1 0x40 MLOAD DUP1 PUSH1 0x20 ADD PUSH1 0x40 MSTORE DUP1 PUSH1 0x0 DUP2 MSTORE POP SWAP1 POP PUSH1 0x0 PUSH1 0xD PUSH1 0x0 SWAP1 SLOAD SWAP1 PUSH2 0x100 EXP SWAP1 DIV PUSH20 0xFFFFFFFFFFFFFFFFFFFFFFFFFFFFFFFFFFFFFFFF AND PUSH20 0xFFFFFFFFFFFFFFFFFFFFFFFFFFFFFFFFFFFFFFFF AND PUSH4 0x95EA7B3 PUSH1 0xB PUSH1 0x0 SWAP1 SLOAD SWAP1 PUSH2 0x100 EXP SWAP1 DIV PUSH20 0xFFFFFFFFFFFFFFFFFFFFFFFFFFFFFFFFFFFFFFFF AND PUSH11 0x52B7D2DCC80CD2E4000000 PUSH1 0x40 MLOAD DUP4 PUSH4 0xFFFFFFFF AND PUSH1 0xE0 SHL DUP2 MSTORE PUSH1 0x4 ADD PUSH2 0x630 SWAP3 SWAP2 SWAP1 PUSH2 0x11F3 JUMP JUMPDEST PUSH1 0x20 PUSH1 0x40 MLOAD DUP1 DUP4 SUB DUP2 PUSH1 0x0 DUP8 GAS CALL ISZERO DUP1 ISZERO PUSH2 0x64F JUMPI RETURNDATASIZE PUSH1 0x0 DUP1 RETURNDATACOPY RETURNDATASIZE PUSH1 0x0 REVERT JUMPDEST POP POP POP POP PUSH1 0x40 MLOAD RETURNDATASIZE PUSH1 0x1F NOT PUSH1 0x1F DUP3 ADD AND DUP3 ADD DUP1 PUSH1 0x40 MSTORE POP DUP2 ADD SWAP1 PUSH2 0x673 SWAP2 SWAP1 PUSH2 0x1248 JUMP JUMPDEST POP PUSH1 0xD PUSH1 0x0 SWAP1 SLOAD SWAP1 PUSH2 0x100 EXP SWAP1 DIV PUSH20 0xFFFFFFFFFFFFFFFFFFFFFFFFFFFFFFFFFFFFFFFF AND PUSH20 0xFFFFFFFFFFFFFFFFFFFFFFFFFFFFFFFFFFFFFFFF AND PUSH4 0x95EA7B3 PUSH1 0xC PUSH1 0x0 SWAP1 SLOAD SWAP1 PUSH2 0x100 EXP SWAP1 DIV PUSH20 0xFFFFFFFFFFFFFFFFFFFFFFFFFFFFFFFFFFFFFFFF AND PUSH11 0x52B7D2DCC80CD2E4000000 PUSH1 0x40 MLOAD DUP4 PUSH4 0xFFFFFFFF AND PUSH1 0xE0 SHL DUP2 MSTORE PUSH1 0x4 ADD PUSH2 0x6FE SWAP3 SWAP2 SWAP1 PUSH2 0x11F3 JUMP JUMPDEST PUSH1 0x20 PUSH1 0x40 MLOAD DUP1 DUP4 SUB DUP2 PUSH1 0x0 DUP8 GAS CALL ISZERO DUP1 ISZERO PUSH2 0x71D JUMPI RETURNDATASIZE PUSH1 0x0 DUP1 RETURNDATACOPY RETURNDATASIZE PUSH1 0x0 REVERT JUMPDEST POP POP POP POP PUSH1 0x40 MLOAD RETURNDATASIZE PUSH1 0x1F NOT PUSH1 0x1F DUP3 ADD AND DUP3 ADD DUP1 PUSH1 0x40 MSTORE POP DUP2 ADD SWAP1 PUSH2 0x741 SWAP2 SWAP1 PUSH2 0x1248 JUMP JUMPDEST POP PUSH1 0xF PUSH1 0x0 SWAP1 SLOAD SWAP1 PUSH2 0x100 EXP SWAP1 DIV PUSH20 0xFFFFFFFFFFFFFFFFFFFFFFFFFFFFFFFFFFFFFFFF AND PUSH20 0xFFFFFFFFFFFFFFFFFFFFFFFFFFFFFFFFFFFFFFFF AND PUSH4 0x95EA7B3 PUSH1 0xB PUSH1 0x0 SWAP1 SLOAD SWAP1 PUSH2 0x100 EXP SWAP1 DIV PUSH20 0xFFFFFFFFFFFFFFFFFFFFFFFFFFFFFFFFFFFFFFFF AND PUSH11 0x52B7D2DCC80CD2E4000000 PUSH1 0x40 MLOAD DUP4 PUSH4 0xFFFFFFFF AND PUSH1 0xE0 SHL DUP2 MSTORE PUSH1 0x4 ADD PUSH2 0x7CC SWAP3 SWAP2 SWAP1 PUSH2 0x11F3 JUMP JUMPDEST PUSH1 0x20 PUSH1 0x40 MLOAD DUP1 DUP4 SUB DUP2 PUSH1 0x0 DUP8 GAS CALL ISZERO DUP1 ISZERO PUSH2 0x7EB JUMPI RETURNDATASIZE PUSH1 0x0 DUP1 RETURNDATACOPY RETURNDATASIZE PUSH1 0x0 REVERT JUMPDEST POP POP POP POP PUSH1 0x40 MLOAD RETURNDATASIZE PUSH1 0x1F NOT PUSH1 0x1F DUP3 ADD AND DUP3 ADD DUP1 PUSH1 0x40 MSTORE POP DUP2 ADD SWAP1 PUSH2 0x80F SWAP2 SWAP1 PUSH2 0x1248 JUMP JUMPDEST POP PUSH1 0xF PUSH1 0x0 SWAP1 SLOAD SWAP1 PUSH2 0x100 EXP SWAP1 DIV PUSH20 0xFFFFFFFFFFFFFFFFFFFFFFFFFFFFFFFFFFFFFFFF AND PUSH20 0xFFFFFFFFFFFFFFFFFFFFFFFFFFFFFFFFFFFFFFFF AND PUSH4 0x95EA7B3 PUSH1 0xC PUSH1 0x0 SWAP1 SLOAD SWAP1 PUSH2 0x100 EXP SWAP1 DIV PUSH20 0xFFFFFFFFFFFFFFFFFFFFFFFFFFFFFFFFFFFFFFFF AND PUSH11 0x52B7D2DCC80CD2E4000000 PUSH1 0x40 MLOAD DUP4 PUSH4 0xFFFFFFFF AND PUSH1 0xE0 SHL DUP2 MSTORE PUSH1 0x4 ADD PUSH2 0x89A SWAP3 SWAP2 SWAP1 PUSH2 0x11F3 JUMP JUMPDEST PUSH1 0x20 PUSH1 0x40 MLOAD DUP1 DUP4 SUB DUP2 PUSH1 0x0 DUP8 GAS CALL ISZERO DUP1 ISZERO PUSH2 0x8B9 JUMPI RETURNDATASIZE PUSH1 0x0 DUP1 RETURNDATACOPY RETURNDATASIZE PUSH1 0x0 REVERT JUMPDEST POP POP POP POP PUSH1 0x40 MLOAD RETURNDATASIZE PUSH1 0x1F NOT PUSH1 0x1F DUP3 ADD AND DUP3 ADD DUP1 PUSH1 0x40 MSTORE POP DUP2 ADD SWAP1 PUSH2 0x8DD SWAP2 SWAP1 PUSH2 0x1248 JUMP JUMPDEST POP PUSH32 0x0 PUSH20 0xFFFFFFFFFFFFFFFFFFFFFFFFFFFFFFFFFFFFFFFF AND PUSH4 0x42B0B77C DUP5 DUP8 DUP8 DUP7 DUP7 PUSH1 0x40 MLOAD DUP7 PUSH4 0xFFFFFFFF AND PUSH1 0xE0 SHL DUP2 MSTORE PUSH1 0x4 ADD PUSH2 0x93F SWAP6 SWAP5 SWAP4 SWAP3 SWAP2 SWAP1 PUSH2 0x175B JUMP JUMPDEST PUSH1 0x0 PUSH1 0x40 MLOAD DUP1 DUP4 SUB DUP2 PUSH1 0x0 DUP8 DUP1 EXTCODESIZE ISZERO DUP1 ISZERO PUSH2 0x959 JUMPI PUSH1 0x0 DUP1 REVERT JUMPDEST POP GAS CALL ISZERO DUP1 ISZERO PUSH2 0x96D JUMPI RETURNDATASIZE PUSH1 0x0 DUP1 RETURNDATACOPY RETURNDATASIZE PUSH1 0x0 REVERT JUMPDEST POP POP POP POP POP POP POP POP POP JUMP JUMPDEST PUSH1 0x0 ADDRESS SWAP1 POP PUSH1 0x0 PUSH1 0x1 PUSH8 0xFFFFFFFFFFFFFFFF DUP2 GT ISZERO PUSH2 0x99A JUMPI PUSH2 0x999 PUSH2 0x1275 JUMP JUMPDEST JUMPDEST PUSH1 0x40 MLOAD SWAP1 DUP1 DUP3 MSTORE DUP1 PUSH1 0x20 MUL PUSH1 0x20 ADD DUP3 ADD PUSH1 0x40 MSTORE DUP1 ISZERO PUSH2 0x9C8 JUMPI DUP2 PUSH1 0x20 ADD PUSH1 0x20 DUP3 MUL DUP1 CALLDATASIZE DUP4 CALLDATACOPY DUP1 DUP3 ADD SWAP2 POP POP SWAP1 POP JUMPDEST POP SWAP1 POP DUP4 DUP2 PUSH1 0x0 DUP2 MLOAD DUP2 LT PUSH2 0x9E0 JUMPI PUSH2 0x9DF PUSH2 0x12A4 JUMP JUMPDEST JUMPDEST PUSH1 0x20 MUL PUSH1 0x20 ADD ADD SWAP1 PUSH20 0xFFFFFFFFFFFFFFFFFFFFFFFFFFFFFFFFFFFFFFFF AND SWAP1 DUP2 PUSH20 0xFFFFFFFFFFFFFFFFFFFFFFFFFFFFFFFFFFFFFFFF AND DUP2 MSTORE POP POP PUSH1 0x0 PUSH1 0x1 PUSH8 0xFFFFFFFFFFFFFFFF DUP2 GT ISZERO PUSH2 0xA37 JUMPI PUSH2 0xA36 PUSH2 0x1275 JUMP JUMPDEST JUMPDEST PUSH1 0x40 MLOAD SWAP1 DUP1 DUP3 MSTORE DUP1 PUSH1 0x20 MUL PUSH1 0x20 ADD DUP3 ADD PUSH1 0x40 MSTORE DUP1 ISZERO PUSH2 0xA65 JUMPI DUP2 PUSH1 0x20 ADD PUSH1 0x20 DUP3 MUL DUP1 CALLDATASIZE DUP4 CALLDATACOPY DUP1 DUP3 ADD SWAP2 POP POP SWAP1 POP JUMPDEST POP SWAP1 POP DUP4 DUP2 PUSH1 0x0 DUP2 MLOAD DUP2 LT PUSH2 0xA7D JUMPI PUSH2 0xA7C PUSH2 0x12A4 JUMP JUMPDEST JUMPDEST PUSH1 0x20 MUL PUSH1 0x20 ADD ADD DUP2 DUP2 MSTORE POP POP PUSH1 0x0 PUSH1 0x1 PUSH8 0xFFFFFFFFFFFFFFFF DUP2 GT ISZERO PUSH2 0xAA6 JUMPI PUSH2 0xAA5 PUSH2 0x1275 JUMP JUMPDEST JUMPDEST PUSH1 0x40 MLOAD SWAP1 DUP1 DUP3 MSTORE DUP1 PUSH1 0x20 MUL PUSH1 0x20 ADD DUP3 ADD PUSH1 0x40 MSTORE DUP1 ISZERO PUSH2 0xAD4 JUMPI DUP2 PUSH1 0x20 ADD PUSH1 0x20 DUP3 MUL DUP1 CALLDATASIZE DUP4 CALLDATACOPY DUP1 DUP3 ADD SWAP2 POP POP SWAP1 POP JUMPDEST POP SWAP1 POP PUSH1 0x0 DUP2 PUSH1 0x0 DUP2 MLOAD DUP2 LT PUSH2 0xAED JUMPI PUSH2 0xAEC PUSH2 0x12A4 JUMP JUMPDEST JUMPDEST PUSH1 0x20 MUL PUSH1 0x20 ADD ADD DUP2 DUP2 MSTORE POP POP PUSH1 0x0 PUSH1 0x40 MLOAD DUP1 PUSH1 0x20 ADD PUSH1 0x40 MSTORE DUP1 PUSH1 0x0 DUP2 MSTORE POP SWAP1 POP PUSH1 0x0 PUSH1 0xD PUSH1 0x0 SWAP1 SLOAD SWAP1 PUSH2 0x100 EXP SWAP1 DIV PUSH20 0xFFFFFFFFFFFFFFFFFFFFFFFFFFFFFFFFFFFFFFFF AND PUSH20 0xFFFFFFFFFFFFFFFFFFFFFFFFFFFFFFFFFFFFFFFF AND PUSH4 0x95EA7B3 PUSH1 0xB PUSH1 0x0 SWAP1 SLOAD SWAP1 PUSH2 0x100 EXP SWAP1 DIV PUSH20 0xFFFFFFFFFFFFFFFFFFFFFFFFFFFFFFFFFFFFFFFF AND PUSH11 0x52B7D2DCC80CD2E4000000 PUSH1 0x40 MLOAD DUP4 PUSH4 0xFFFFFFFF AND PUSH1 0xE0 SHL DUP2 MSTORE PUSH1 0x4 ADD PUSH2 0xB99 SWAP3 SWAP2 SWAP1 PUSH2 0x11F3 JUMP JUMPDEST PUSH1 0x20 PUSH1 0x40 MLOAD DUP1 DUP4 SUB DUP2 PUSH1 0x0 DUP8 GAS CALL ISZERO DUP1 ISZERO PUSH2 0xBB8 JUMPI RETURNDATASIZE PUSH1 0x0 DUP1 RETURNDATACOPY RETURNDATASIZE PUSH1 0x0 REVERT JUMPDEST POP POP POP POP PUSH1 0x40 MLOAD RETURNDATASIZE PUSH1 0x1F NOT PUSH1 0x1F DUP3 ADD AND DUP3 ADD DUP1 PUSH1 0x40 MSTORE POP DUP2 ADD SWAP1 PUSH2 0xBDC SWAP2 SWAP1 PUSH2 0x1248 JUMP JUMPDEST POP PUSH1 0xD PUSH1 0x0 SWAP1 SLOAD SWAP1 PUSH2 0x100 EXP SWAP1 DIV PUSH20 0xFFFFFFFFFFFFFFFFFFFFFFFFFFFFFFFFFFFFFFFF AND PUSH20 0xFFFFFFFFFFFFFFFFFFFFFFFFFFFFFFFFFFFFFFFF AND PUSH4 0x95EA7B3 PUSH1 0xC PUSH1 0x0 SWAP1 SLOAD SWAP1 PUSH2 0x100 EXP SWAP1 DIV PUSH20 0xFFFFFFFFFFFFFFFFFFFFFFFFFFFFFFFFFFFFFFFF AND PUSH11 0x52B7D2DCC80CD2E4000000 PUSH1 0x40 MLOAD DUP4 PUSH4 0xFFFFFFFF AND PUSH1 0xE0 SHL DUP2 MSTORE PUSH1 0x4 ADD PUSH2 0xC67 SWAP3 SWAP2 SWAP1 PUSH2 0x11F3 JUMP JUMPDEST PUSH1 0x20 PUSH1 0x40 MLOAD DUP1 DUP4 SUB DUP2 PUSH1 0x0 DUP8 GAS CALL ISZERO DUP1 ISZERO PUSH2 0xC86 JUMPI RETURNDATASIZE PUSH1 0x0 DUP1 RETURNDATACOPY RETURNDATASIZE PUSH1 0x0 REVERT JUMPDEST POP POP POP POP PUSH1 0x40 MLOAD RETURNDATASIZE PUSH1 0x1F NOT PUSH1 0x1F DUP3 ADD AND DUP3 ADD DUP1 PUSH1 0x40 MSTORE POP DUP2 ADD SWAP1 PUSH2 0xCAA SWAP2 SWAP1 PUSH2 0x1248 JUMP JUMPDEST POP PUSH1 0xF PUSH1 0x0 SWAP1 SLOAD SWAP1 PUSH2 0x100 EXP SWAP1 DIV PUSH20 0xFFFFFFFFFFFFFFFFFFFFFFFFFFFFFFFFFFFFFFFF AND PUSH20 0xFFFFFFFFFFFFFFFFFFFFFFFFFFFFFFFFFFFFFFFF AND PUSH4 0x95EA7B3 PUSH1 0xB PUSH1 0x0 SWAP1 SLOAD SWAP1 PUSH2 0x100 EXP SWAP1 DIV PUSH20 0xFFFFFFFFFFFFFFFFFFFFFFFFFFFFFFFFFFFFFFFF AND PUSH11 0x52B7D2DCC80CD2E4000000 PUSH1 0x40 MLOAD DUP4 PUSH4 0xFFFFFFFF AND PUSH1 0xE0 SHL DUP2 MSTORE PUSH1 0x4 ADD PUSH2 0xD35 SWAP3 SWAP2 SWAP1 PUSH2 0x11F3 JUMP JUMPDEST PUSH1 0x20 PUSH1 0x40 MLOAD DUP1 DUP4 SUB DUP2 PUSH1 0x0 DUP8 GAS CALL ISZERO DUP1 ISZERO PUSH2 0xD54 JUMPI RETURNDATASIZE PUSH1 0x0 DUP1 RETURNDATACOPY RETURNDATASIZE PUSH1 0x0 REVERT JUMPDEST POP POP POP POP PUSH1 0x40 MLOAD RETURNDATASIZE PUSH1 0x1F NOT PUSH1 0x1F DUP3 ADD AND DUP3 ADD DUP1 PUSH1 0x40 MSTORE POP DUP2 ADD SWAP1 PUSH2 0xD78 SWAP2 SWAP1 PUSH2 0x1248 JUMP JUMPDEST POP PUSH1 0xF PUSH1 0x0 SWAP1 SLOAD SWAP1 PUSH2 0x100 EXP SWAP1 DIV PUSH20 0xFFFFFFFFFFFFFFFFFFFFFFFFFFFFFFFFFFFFFFFF AND PUSH20 0xFFFFFFFFFFFFFFFFFFFFFFFFFFFFFFFFFFFFFFFF AND PUSH4 0x95EA7B3 PUSH1 0xC PUSH1 0x0 SWAP1 SLOAD SWAP1 PUSH2 0x100 EXP SWAP1 DIV PUSH20 0xFFFFFFFFFFFFFFFFFFFFFFFFFFFFFFFFFFFFFFFF AND PUSH11 0x52B7D2DCC80CD2E4000000 PUSH1 0x40 MLOAD DUP4 PUSH4 0xFFFFFFFF AND PUSH1 0xE0 SHL DUP2 MSTORE PUSH1 0x4 ADD PUSH2 0xE03 SWAP3 SWAP2 SWAP1 PUSH2 0x11F3 JUMP JUMPDEST PUSH1 0x20 PUSH1 0x40 MLOAD DUP1 DUP4 SUB DUP2 PUSH1 0x0 DUP8 GAS CALL ISZERO DUP1 ISZERO PUSH2 0xE22 JUMPI RETURNDATASIZE PUSH1 0x0 DUP1 RETURNDATACOPY RETURNDATASIZE PUSH1 0x0 REVERT JUMPDEST POP POP POP POP PUSH1 0x40 MLOAD RETURNDATASIZE PUSH1 0x1F NOT PUSH1 0x1F DUP3 ADD AND DUP3 ADD DUP1 PUSH1 0x40 MSTORE POP DUP2 ADD SWAP1 PUSH2 0xE46 SWAP2 SWAP1 PUSH2 0x1248 JUMP JUMPDEST POP PUSH32 0x0 PUSH20 0xFFFFFFFFFFFFFFFFFFFFFFFFFFFFFFFFFFFFFFFF AND PUSH4 0xAB9C4B5D DUP8 DUP8 DUP8 DUP8 DUP12 DUP9 DUP9 PUSH1 0x40 MLOAD DUP9 PUSH4 0xFFFFFFFF AND PUSH1 0xE0 SHL DUP2 MSTORE PUSH1 0x4 ADD PUSH2 0xEAC SWAP8 SWAP7 SWAP6 SWAP5 SWAP4 SWAP3 SWAP2 SWAP1 PUSH2 0x1864 JUMP JUMPDEST PUSH1 0x0 PUSH1 0x40 MLOAD DUP1 DUP4 SUB DUP2 PUSH1 0x0 DUP8 DUP1 EXTCODESIZE ISZERO DUP1 ISZERO PUSH2 0xEC6 JUMPI PUSH1 0x0 DUP1 REVERT JUMPDEST POP GAS CALL ISZERO DUP1 ISZERO PUSH2 0xEDA JUMPI RETURNDATASIZE PUSH1 0x0 DUP1 RETURNDATACOPY RETURNDATASIZE PUSH1 0x0 REVERT JUMPDEST POP POP POP POP POP POP POP POP POP POP POP POP JUMP JUMPDEST PUSH1 0x0 DUP3 DUP3 DUP5 ADD SWAP2 POP DUP2 LT ISZERO PUSH2 0xEFC JUMPI PUSH1 0x0 DUP1 REVERT JUMPDEST SWAP3 SWAP2 POP POP JUMP JUMPDEST PUSH1 0x0 PUSH20 0xFFFFFFFFFFFFFFFFFFFFFFFFFFFFFFFFFFFFFFFF DUP3 AND SWAP1 POP SWAP2 SWAP1 POP JUMP JUMPDEST PUSH1 0x0 DUP2 SWAP1 POP SWAP2 SWAP1 POP JUMP JUMPDEST PUSH1 0x0 PUSH2 0xF47 PUSH2 0xF42 PUSH2 0xF3D DUP5 PUSH2 0xF02 JUMP JUMPDEST PUSH2 0xF22 JUMP JUMPDEST PUSH2 0xF02 JUMP JUMPDEST SWAP1 POP SWAP2 SWAP1 POP JUMP JUMPDEST PUSH1 0x0 PUSH2 0xF59 DUP3 PUSH2 0xF2C JUMP JUMPDEST SWAP1 POP SWAP2 SWAP1 POP JUMP JUMPDEST PUSH1 0x0 PUSH2 0xF6B DUP3 PUSH2 0xF4E JUMP JUMPDEST SWAP1 POP SWAP2 SWAP1 POP JUMP JUMPDEST PUSH2 0xF7B DUP2 PUSH2 0xF60 JUMP JUMPDEST DUP3 MSTORE POP POP JUMP JUMPDEST PUSH1 0x0 PUSH1 0x20 DUP3 ADD SWAP1 POP PUSH2 0xF96 PUSH1 0x0 DUP4 ADD DUP5 PUSH2 0xF72 JUMP JUMPDEST SWAP3 SWAP2 POP POP JUMP JUMPDEST PUSH1 0x0 PUSH1 0x40 MLOAD SWAP1 POP SWAP1 JUMP JUMPDEST PUSH1 0x0 DUP1 REVERT JUMPDEST PUSH1 0x0 DUP1 REVERT JUMPDEST PUSH1 0x0 PUSH2 0xFBB DUP3 PUSH2 0xF02 JUMP JUMPDEST SWAP1 POP SWAP2 SWAP1 POP JUMP JUMPDEST PUSH2 0xFCB DUP2 PUSH2 0xFB0 JUMP JUMPDEST DUP2 EQ PUSH2 0xFD6 JUMPI PUSH1 0x0 DUP1 REVERT JUMPDEST POP JUMP JUMPDEST PUSH1 0x0 DUP2 CALLDATALOAD SWAP1 POP PUSH2 0xFE8 DUP2 PUSH2 0xFC2 JUMP JUMPDEST SWAP3 SWAP2 POP POP JUMP JUMPDEST PUSH1 0x0 DUP2 SWAP1 POP SWAP2 SWAP1 POP JUMP JUMPDEST PUSH2 0x1001 DUP2 PUSH2 0xFEE JUMP JUMPDEST DUP2 EQ PUSH2 0x100C JUMPI PUSH1 0x0 DUP1 REVERT JUMPDEST POP JUMP JUMPDEST PUSH1 0x0 DUP2 CALLDATALOAD SWAP1 POP PUSH2 0x101E DUP2 PUSH2 0xFF8 JUMP JUMPDEST SWAP3 SWAP2 POP POP JUMP JUMPDEST PUSH1 0x0 DUP1 REVERT JUMPDEST PUSH1 0x0 DUP1 REVERT JUMPDEST PUSH1 0x0 DUP1 REVERT JUMPDEST PUSH1 0x0 DUP1 DUP4 PUSH1 0x1F DUP5 ADD SLT PUSH2 0x1049 JUMPI PUSH2 0x1048 PUSH2 0x1024 JUMP JUMPDEST JUMPDEST DUP3 CALLDATALOAD SWAP1 POP PUSH8 0xFFFFFFFFFFFFFFFF DUP2 GT ISZERO PUSH2 0x1066 JUMPI PUSH2 0x1065 PUSH2 0x1029 JUMP JUMPDEST JUMPDEST PUSH1 0x20 DUP4 ADD SWAP2 POP DUP4 PUSH1 0x1 DUP3 MUL DUP4 ADD GT ISZERO PUSH2 0x1082 JUMPI PUSH2 0x1081 PUSH2 0x102E JUMP JUMPDEST JUMPDEST SWAP3 POP SWAP3 SWAP1 POP JUMP JUMPDEST PUSH1 0x0 DUP1 PUSH1 0x0 DUP1 PUSH1 0x0 DUP1 PUSH1 0xA0 DUP8 DUP10 SUB SLT ISZERO PUSH2 0x10A6 JUMPI PUSH2 0x10A5 PUSH2 0xFA6 JUMP JUMPDEST JUMPDEST PUSH1 0x0 PUSH2 0x10B4 DUP10 DUP3 DUP11 ADD PUSH2 0xFD9 JUMP JUMPDEST SWAP7 POP POP PUSH1 0x20 PUSH2 0x10C5 DUP10 DUP3 DUP11 ADD PUSH2 0x100F JUMP JUMPDEST SWAP6 POP POP PUSH1 0x40 PUSH2 0x10D6 DUP10 DUP3 DUP11 ADD PUSH2 0x100F JUMP JUMPDEST SWAP5 POP POP PUSH1 0x60 PUSH2 0x10E7 DUP10 DUP3 DUP11 ADD PUSH2 0xFD9 JUMP JUMPDEST SWAP4 POP POP PUSH1 0x80 DUP8 ADD CALLDATALOAD PUSH8 0xFFFFFFFFFFFFFFFF DUP2 GT ISZERO PUSH2 0x1108 JUMPI PUSH2 0x1107 PUSH2 0xFAB JUMP JUMPDEST JUMPDEST PUSH2 0x1114 DUP10 DUP3 DUP11 ADD PUSH2 0x1033 JUMP JUMPDEST SWAP3 POP SWAP3 POP POP SWAP3 SWAP6 POP SWAP3 SWAP6 POP SWAP3 SWAP6 JUMP JUMPDEST PUSH1 0x0 DUP2 ISZERO ISZERO SWAP1 POP SWAP2 SWAP1 POP JUMP JUMPDEST PUSH2 0x1138 DUP2 PUSH2 0x1123 JUMP JUMPDEST DUP3 MSTORE POP POP JUMP JUMPDEST PUSH1 0x0 PUSH1 0x20 DUP3 ADD SWAP1 POP PUSH2 0x1153 PUSH1 0x0 DUP4 ADD DUP5 PUSH2 0x112F JUMP JUMPDEST SWAP3 SWAP2 POP POP JUMP JUMPDEST PUSH1 0x0 PUSH2 0x1164 DUP3 PUSH2 0xF4E JUMP JUMPDEST SWAP1 POP SWAP2 SWAP1 POP JUMP JUMPDEST PUSH2 0x1174 DUP2 PUSH2 0x1159 JUMP JUMPDEST DUP3 MSTORE POP POP JUMP JUMPDEST PUSH1 0x0 PUSH1 0x20 DUP3 ADD SWAP1 POP PUSH2 0x118F PUSH1 0x0 DUP4 ADD DUP5 PUSH2 0x116B JUMP JUMPDEST SWAP3 SWAP2 POP POP JUMP JUMPDEST PUSH1 0x0 DUP1 PUSH1 0x40 DUP4 DUP6 SUB SLT ISZERO PUSH2 0x11AC JUMPI PUSH2 0x11AB PUSH2 0xFA6 JUMP JUMPDEST JUMPDEST PUSH1 0x0 PUSH2 0x11BA DUP6 DUP3 DUP7 ADD PUSH2 0xFD9 JUMP JUMPDEST SWAP3 POP POP PUSH1 0x20 PUSH2 0x11CB DUP6 DUP3 DUP7 ADD PUSH2 0x100F JUMP JUMPDEST SWAP2 POP POP SWAP3 POP SWAP3 SWAP1 POP JUMP JUMPDEST PUSH2 0x11DE DUP2 PUSH2 0xFB0 JUMP JUMPDEST DUP3 MSTORE POP POP JUMP JUMPDEST PUSH2 0x11ED DUP2 PUSH2 0xFEE JUMP JUMPDEST DUP3 MSTORE POP POP JUMP JUMPDEST PUSH1 0x0 PUSH1 0x40 DUP3 ADD SWAP1 POP PUSH2 0x1208 PUSH1 0x0 DUP4 ADD DUP6 PUSH2 0x11D5 JUMP JUMPDEST PUSH2 0x1215 PUSH1 0x20 DUP4 ADD DUP5 PUSH2 0x11E4 JUMP JUMPDEST SWAP4 SWAP3 POP POP POP JUMP JUMPDEST PUSH2 0x1225 DUP2 PUSH2 0x1123 JUMP JUMPDEST DUP2 EQ PUSH2 0x1230 JUMPI PUSH1 0x0 DUP1 REVERT JUMPDEST POP JUMP JUMPDEST PUSH1 0x0 DUP2 MLOAD SWAP1 POP PUSH2 0x1242 DUP2 PUSH2 0x121C JUMP JUMPDEST SWAP3 SWAP2 POP POP JUMP JUMPDEST PUSH1 0x0 PUSH1 0x20 DUP3 DUP5 SUB SLT ISZERO PUSH2 0x125E JUMPI PUSH2 0x125D PUSH2 0xFA6 JUMP JUMPDEST JUMPDEST PUSH1 0x0 PUSH2 0x126C DUP5 DUP3 DUP6 ADD PUSH2 0x1233 JUMP JUMPDEST SWAP2 POP POP SWAP3 SWAP2 POP POP JUMP JUMPDEST PUSH32 0x4E487B7100000000000000000000000000000000000000000000000000000000 PUSH1 0x0 MSTORE PUSH1 0x41 PUSH1 0x4 MSTORE PUSH1 0x24 PUSH1 0x0 REVERT JUMPDEST PUSH32 0x4E487B7100000000000000000000000000000000000000000000000000000000 PUSH1 0x0 MSTORE PUSH1 0x32 PUSH1 0x4 MSTORE PUSH1 0x24 PUSH1 0x0 REVERT JUMPDEST PUSH1 0x0 DUP2 SWAP1 POP SWAP2 SWAP1 POP JUMP JUMPDEST PUSH1 0x0 PUSH2 0x12F8 PUSH2 0x12F3 PUSH2 0x12EE DUP5 PUSH2 0x12D3 JUMP JUMPDEST PUSH2 0xF22 JUMP JUMPDEST PUSH2 0xFEE JUMP JUMPDEST SWAP1 POP SWAP2 SWAP1 POP JUMP JUMPDEST PUSH2 0x1308 DUP2 PUSH2 0x12DD JUMP JUMPDEST DUP3 MSTORE POP POP JUMP JUMPDEST PUSH1 0x0 DUP2 MLOAD SWAP1 POP SWAP2 SWAP1 POP JUMP JUMPDEST PUSH1 0x0 DUP3 DUP3 MSTORE PUSH1 0x20 DUP3 ADD SWAP1 POP SWAP3 SWAP2 POP POP JUMP JUMPDEST PUSH1 0x0 DUP2 SWAP1 POP PUSH1 0x20 DUP3 ADD SWAP1 POP SWAP2 SWAP1 POP JUMP JUMPDEST PUSH2 0x1343 DUP2 PUSH2 0xFB0 JUMP JUMPDEST DUP3 MSTORE POP POP JUMP JUMPDEST PUSH1 0x0 PUSH2 0x1355 DUP4 DUP4 PUSH2 0x133A JUMP JUMPDEST PUSH1 0x20 DUP4 ADD SWAP1 POP SWAP3 SWAP2 POP POP JUMP JUMPDEST PUSH1 0x0 PUSH1 0x20 DUP3 ADD SWAP1 POP SWAP2 SWAP1 POP JUMP JUMPDEST PUSH1 0x0 PUSH2 0x1379 DUP3 PUSH2 0x130E JUMP JUMPDEST PUSH2 0x1383 DUP2 DUP6 PUSH2 0x1319 JUMP JUMPDEST SWAP4 POP PUSH2 0x138E DUP4 PUSH2 0x132A JUMP JUMPDEST DUP1 PUSH1 0x0 JUMPDEST DUP4 DUP2 LT ISZERO PUSH2 0x13BF JUMPI DUP2 MLOAD PUSH2 0x13A6 DUP9 DUP3 PUSH2 0x1349 JUMP JUMPDEST SWAP8 POP PUSH2 0x13B1 DUP4 PUSH2 0x1361 JUMP JUMPDEST SWAP3 POP POP PUSH1 0x1 DUP2 ADD SWAP1 POP PUSH2 0x1392 JUMP JUMPDEST POP DUP6 SWAP4 POP POP POP POP SWAP3 SWAP2 POP POP JUMP JUMPDEST PUSH1 0x0 PUSH1 0xA0 DUP3 ADD SWAP1 POP PUSH2 0x13E1 PUSH1 0x0 DUP4 ADD DUP9 PUSH2 0x11E4 JUMP JUMPDEST PUSH2 0x13EE PUSH1 0x20 DUP4 ADD DUP8 PUSH2 0x12FF JUMP JUMPDEST DUP2 DUP2 SUB PUSH1 0x40 DUP4 ADD MSTORE PUSH2 0x1400 DUP2 DUP7 PUSH2 0x136E JUMP JUMPDEST SWAP1 POP PUSH2 0x140F PUSH1 0x60 DUP4 ADD DUP6 PUSH2 0x11D5 JUMP JUMPDEST PUSH2 0x141C PUSH1 0x80 DUP4 ADD DUP5 PUSH2 0x11E4 JUMP JUMPDEST SWAP7 SWAP6 POP POP POP POP POP POP JUMP JUMPDEST PUSH1 0x0 PUSH1 0x1F NOT PUSH1 0x1F DUP4 ADD AND SWAP1 POP SWAP2 SWAP1 POP JUMP JUMPDEST PUSH2 0x1440 DUP3 PUSH2 0x1426 JUMP JUMPDEST DUP2 ADD DUP2 DUP2 LT PUSH8 0xFFFFFFFFFFFFFFFF DUP3 GT OR ISZERO PUSH2 0x145F JUMPI PUSH2 0x145E PUSH2 0x1275 JUMP JUMPDEST JUMPDEST DUP1 PUSH1 0x40 MSTORE POP POP POP JUMP JUMPDEST PUSH1 0x0 PUSH2 0x1472 PUSH2 0xF9C JUMP JUMPDEST SWAP1 POP PUSH2 0x147E DUP3 DUP3 PUSH2 0x1437 JUMP JUMPDEST SWAP2 SWAP1 POP JUMP JUMPDEST PUSH1 0x0 PUSH8 0xFFFFFFFFFFFFFFFF DUP3 GT ISZERO PUSH2 0x149E JUMPI PUSH2 0x149D PUSH2 0x1275 JUMP JUMPDEST JUMPDEST PUSH1 0x20 DUP3 MUL SWAP1 POP PUSH1 0x20 DUP2 ADD SWAP1 POP SWAP2 SWAP1 POP JUMP JUMPDEST PUSH1 0x0 DUP2 MLOAD SWAP1 POP PUSH2 0x14BE DUP2 PUSH2 0xFF8 JUMP JUMPDEST SWAP3 SWAP2 POP POP JUMP JUMPDEST PUSH1 0x0 PUSH2 0x14D7 PUSH2 0x14D2 DUP5 PUSH2 0x1483 JUMP JUMPDEST PUSH2 0x1468 JUMP JUMPDEST SWAP1 POP DUP1 DUP4 DUP3 MSTORE PUSH1 0x20 DUP3 ADD SWAP1 POP PUSH1 0x20 DUP5 MUL DUP4 ADD DUP6 DUP2 GT ISZERO PUSH2 0x14FA JUMPI PUSH2 0x14F9 PUSH2 0x102E JUMP JUMPDEST JUMPDEST DUP4 JUMPDEST DUP2 DUP2 LT ISZERO PUSH2 0x1523 JUMPI DUP1 PUSH2 0x150F DUP9 DUP3 PUSH2 0x14AF JUMP JUMPDEST DUP5 MSTORE PUSH1 0x20 DUP5 ADD SWAP4 POP POP PUSH1 0x20 DUP2 ADD SWAP1 POP PUSH2 0x14FC JUMP JUMPDEST POP POP POP SWAP4 SWAP3 POP POP POP JUMP JUMPDEST PUSH1 0x0 DUP3 PUSH1 0x1F DUP4 ADD SLT PUSH2 0x1542 JUMPI PUSH2 0x1541 PUSH2 0x1024 JUMP JUMPDEST JUMPDEST DUP2 MLOAD PUSH2 0x1552 DUP5 DUP3 PUSH1 0x20 DUP7 ADD PUSH2 0x14C4 JUMP JUMPDEST SWAP2 POP POP SWAP3 SWAP2 POP POP JUMP JUMPDEST PUSH1 0x0 PUSH1 0x20 DUP3 DUP5 SUB SLT ISZERO PUSH2 0x1571 JUMPI PUSH2 0x1570 PUSH2 0xFA6 JUMP JUMPDEST JUMPDEST PUSH1 0x0 DUP3 ADD MLOAD PUSH8 0xFFFFFFFFFFFFFFFF DUP2 GT ISZERO PUSH2 0x158F JUMPI PUSH2 0x158E PUSH2 0xFAB JUMP JUMPDEST JUMPDEST PUSH2 0x159B DUP5 DUP3 DUP6 ADD PUSH2 0x152D JUMP JUMPDEST SWAP2 POP POP SWAP3 SWAP2 POP POP JUMP JUMPDEST PUSH1 0x0 PUSH3 0xFFFFFF DUP3 AND SWAP1 POP SWAP2 SWAP1 POP JUMP JUMPDEST PUSH2 0x15BC DUP2 PUSH2 0x15A4 JUMP JUMPDEST DUP3 MSTORE POP POP JUMP JUMPDEST PUSH2 0x15CB DUP2 PUSH2 0xFEE JUMP JUMPDEST DUP3 MSTORE POP POP JUMP JUMPDEST PUSH2 0x15DA DUP2 PUSH2 0xF02 JUMP JUMPDEST DUP3 MSTORE POP POP JUMP JUMPDEST PUSH1 0xE0 DUP3 ADD PUSH1 0x0 DUP3 ADD MLOAD PUSH2 0x15F6 PUSH1 0x0 DUP6 ADD DUP3 PUSH2 0x133A JUMP JUMPDEST POP PUSH1 0x20 DUP3 ADD MLOAD PUSH2 0x1609 PUSH1 0x20 DUP6 ADD DUP3 PUSH2 0x133A JUMP JUMPDEST POP PUSH1 0x40 DUP3 ADD MLOAD PUSH2 0x161C PUSH1 0x40 DUP6 ADD DUP3 PUSH2 0x15B3 JUMP JUMPDEST POP PUSH1 0x60 DUP3 ADD MLOAD PUSH2 0x162F PUSH1 0x60 DUP6 ADD DUP3 PUSH2 0x133A JUMP JUMPDEST POP PUSH1 0x80 DUP3 ADD MLOAD PUSH2 0x1642 PUSH1 0x80 DUP6 ADD DUP3 PUSH2 0x15C2 JUMP JUMPDEST POP PUSH1 0xA0 DUP3 ADD MLOAD PUSH2 0x1655 PUSH1 0xA0 DUP6 ADD DUP3 PUSH2 0x15C2 JUMP JUMPDEST POP PUSH1 0xC0 DUP3 ADD MLOAD PUSH2 0x1668 PUSH1 0xC0 DUP6 ADD DUP3 PUSH2 0x15D1 JUMP JUMPDEST POP POP POP POP JUMP JUMPDEST PUSH1 0x0 PUSH1 0xE0 DUP3 ADD SWAP1 POP PUSH2 0x1683 PUSH1 0x0 DUP4 ADD DUP5 PUSH2 0x15E0 JUMP JUMPDEST SWAP3 SWAP2 POP POP JUMP JUMPDEST PUSH1 0x0 PUSH1 0x20 DUP3 DUP5 SUB SLT ISZERO PUSH2 0x169F JUMPI PUSH2 0x169E PUSH2 0xFA6 JUMP JUMPDEST JUMPDEST PUSH1 0x0 PUSH2 0x16AD DUP5 DUP3 DUP6 ADD PUSH2 0x14AF JUMP JUMPDEST SWAP2 POP POP SWAP3 SWAP2 POP POP JUMP JUMPDEST PUSH1 0x0 DUP2 MLOAD SWAP1 POP SWAP2 SWAP1 POP JUMP JUMPDEST PUSH1 0x0 DUP3 DUP3 MSTORE PUSH1 0x20 DUP3 ADD SWAP1 POP SWAP3 SWAP2 POP POP JUMP JUMPDEST PUSH1 0x0 JUMPDEST DUP4 DUP2 LT ISZERO PUSH2 0x16F0 JUMPI DUP1 DUP3 ADD MLOAD DUP2 DUP5 ADD MSTORE PUSH1 0x20 DUP2 ADD SWAP1 POP PUSH2 0x16D5 JUMP JUMPDEST DUP4 DUP2 GT ISZERO PUSH2 0x16FF JUMPI PUSH1 0x0 DUP5 DUP5 ADD MSTORE JUMPDEST POP POP POP POP JUMP JUMPDEST PUSH1 0x0 PUSH2 0x1710 DUP3 PUSH2 0x16B6 JUMP JUMPDEST PUSH2 0x171A DUP2 DUP6 PUSH2 0x16C1 JUMP JUMPDEST SWAP4 POP PUSH2 0x172A DUP2 DUP6 PUSH1 0x20 DUP7 ADD PUSH2 0x16D2 JUMP JUMPDEST PUSH2 0x1733 DUP2 PUSH2 0x1426 JUMP JUMPDEST DUP5 ADD SWAP2 POP POP SWAP3 SWAP2 POP POP JUMP JUMPDEST PUSH1 0x0 PUSH2 0xFFFF DUP3 AND SWAP1 POP SWAP2 SWAP1 POP JUMP JUMPDEST PUSH2 0x1755 DUP2 PUSH2 0x173E JUMP JUMPDEST DUP3 MSTORE POP POP JUMP JUMPDEST PUSH1 0x0 PUSH1 0xA0 DUP3 ADD SWAP1 POP PUSH2 0x1770 PUSH1 0x0 DUP4 ADD DUP9 PUSH2 0x11D5 JUMP JUMPDEST PUSH2 0x177D PUSH1 0x20 DUP4 ADD DUP8 PUSH2 0x11D5 JUMP JUMPDEST PUSH2 0x178A PUSH1 0x40 DUP4 ADD DUP7 PUSH2 0x11E4 JUMP JUMPDEST DUP2 DUP2 SUB PUSH1 0x60 DUP4 ADD MSTORE PUSH2 0x179C DUP2 DUP6 PUSH2 0x1705 JUMP JUMPDEST SWAP1 POP PUSH2 0x17AB PUSH1 0x80 DUP4 ADD DUP5 PUSH2 0x174C JUMP JUMPDEST SWAP7 SWAP6 POP POP POP POP POP POP JUMP JUMPDEST PUSH1 0x0 DUP2 MLOAD SWAP1 POP SWAP2 SWAP1 POP JUMP JUMPDEST PUSH1 0x0 DUP3 DUP3 MSTORE PUSH1 0x20 DUP3 ADD SWAP1 POP SWAP3 SWAP2 POP POP JUMP JUMPDEST PUSH1 0x0 DUP2 SWAP1 POP PUSH1 0x20 DUP3 ADD SWAP1 POP SWAP2 SWAP1 POP JUMP JUMPDEST PUSH1 0x0 PUSH2 0x17ED DUP4 DUP4 PUSH2 0x15C2 JUMP JUMPDEST PUSH1 0x20 DUP4 ADD SWAP1 POP SWAP3 SWAP2 POP POP JUMP JUMPDEST PUSH1 0x0 PUSH1 0x20 DUP3 ADD SWAP1 POP SWAP2 SWAP1 POP JUMP JUMPDEST PUSH1 0x0 PUSH2 0x1811 DUP3 PUSH2 0x17B5 JUMP JUMPDEST PUSH2 0x181B DUP2 DUP6 PUSH2 0x17C0 JUMP JUMPDEST SWAP4 POP PUSH2 0x1826 DUP4 PUSH2 0x17D1 JUMP JUMPDEST DUP1 PUSH1 0x0 JUMPDEST DUP4 DUP2 LT ISZERO PUSH2 0x1857 JUMPI DUP2 MLOAD PUSH2 0x183E DUP9 DUP3 PUSH2 0x17E1 JUMP JUMPDEST SWAP8 POP PUSH2 0x1849 DUP4 PUSH2 0x17F9 JUMP JUMPDEST SWAP3 POP POP PUSH1 0x1 DUP2 ADD SWAP1 POP PUSH2 0x182A JUMP JUMPDEST POP DUP6 SWAP4 POP POP POP POP SWAP3 SWAP2 POP POP JUMP JUMPDEST PUSH1 0x0 PUSH1 0xE0 DUP3 ADD SWAP1 POP PUSH2 0x1879 PUSH1 0x0 DUP4 ADD DUP11 PUSH2 0x11D5 JUMP JUMPDEST DUP2 DUP2 SUB PUSH1 0x20 DUP4 ADD MSTORE PUSH2 0x188B DUP2 DUP10 PUSH2 0x136E JUMP JUMPDEST SWAP1 POP DUP2 DUP2 SUB PUSH1 0x40 DUP4 ADD MSTORE PUSH2 0x189F DUP2 DUP9 PUSH2 0x1806 JUMP JUMPDEST SWAP1 POP DUP2 DUP2 SUB PUSH1 0x60 DUP4 ADD MSTORE PUSH2 0x18B3 DUP2 DUP8 PUSH2 0x1806 JUMP JUMPDEST SWAP1 POP PUSH2 0x18C2 PUSH1 0x80 DUP4 ADD DUP7 PUSH2 0x11D5 JUMP JUMPDEST DUP2 DUP2 SUB PUSH1 0xA0 DUP4 ADD MSTORE PUSH2 0x18D4 DUP2 DUP6 PUSH2 0x1705 JUMP JUMPDEST SWAP1 POP PUSH2 0x18E3 PUSH1 0xC0 DUP4 ADD DUP5 PUSH2 0x174C JUMP JUMPDEST SWAP9 SWAP8 POP POP POP POP POP POP POP POP JUMP INVALID LOG2 PUSH5 0x6970667358 0x22 SLT KECCAK256 SUB CALLVALUE 0x25 0xC8 0x26 0xE6 0x5E SWAP4 0xCF SWAP12 PUSH11 0x40AFF9CBA0588C30CEAD1 0xAA SWAP8 PC 0xD4 PUSH11 0x1D47CF831F64736F6C6343 STOP ADDMOD EXP STOP CALLER "
				},
				"gasEstimates": {
					"creation": {
						"codeDepositCost": "1287400",
						"executionCost": "infinite",
						"totalCost": "infinite"
					},
					"external": {
						"ADDRESSES_PROVIDER()": "infinite",
						"POOL()": "infinite",
						"executeOperation(address,uint256,uint256,address,bytes)": "infinite",
						"testAAVE(address,uint256)": "infinite",
						"testAAVESimple(address,uint256)": "infinite"
					}
				},
				"methodIdentifiers": {
					"ADDRESSES_PROVIDER()": "0542975c",
					"POOL()": "7535d246",
					"executeOperation(address,uint256,uint256,address,bytes)": "1b11d0ff",
					"testAAVE(address,uint256)": "cea8fe55",
					"testAAVESimple(address,uint256)": "af281f21"
				}
			},
			"userdoc": {
				"kind": "user",
				"methods": {
					"executeOperation(address,uint256,uint256,address,bytes)": {
						"notice": "Executes an operation after receiving the flash-borrowed asset"
					}
				},
				"version": 1
			}
		}
	}
}