{
	"Code-hardhat-ethersJs/contracts/AAVETest.sol": {
		"AAVETest": {
			"abi": [
				{
					"inputs": [],
					"stateMutability": "nonpayable",
					"type": "constructor"
				},
				{
					"inputs": [],
					"name": "ADDRESSES_PROVIDER",
					"outputs": [
						{
							"internalType": "contract IPoolAddressesProvider",
							"name": "",
							"type": "address"
						}
					],
					"stateMutability": "view",
					"type": "function"
				},
				{
					"inputs": [],
					"name": "POOL",
					"outputs": [
						{
							"internalType": "contract IPool",
							"name": "",
							"type": "address"
						}
					],
					"stateMutability": "view",
					"type": "function"
				},
				{
					"inputs": [
						{
							"internalType": "address",
							"name": "asset",
							"type": "address"
						},
						{
							"internalType": "uint256",
							"name": "amount",
							"type": "uint256"
						},
						{
							"internalType": "uint256",
							"name": "premium",
							"type": "uint256"
						},
						{
							"internalType": "address",
							"name": "initiator",
							"type": "address"
						},
						{
							"internalType": "bytes",
							"name": "params",
							"type": "bytes"
						}
					],
					"name": "executeOperation",
					"outputs": [
						{
							"internalType": "bool",
							"name": "",
							"type": "bool"
						}
					],
					"stateMutability": "nonpayable",
					"type": "function"
				},
				{
					"inputs": [
						{
							"internalType": "uint256",
							"name": "_amount",
							"type": "uint256"
						}
					],
					"name": "testAAVE",
					"outputs": [],
					"stateMutability": "nonpayable",
					"type": "function"
				}
			],
			"devdoc": {
				"kind": "dev",
				"methods": {
					"executeOperation(address,uint256,uint256,address,bytes)": {
						"details": "Ensure that the contract can return the debt + premium, e.g., has      enough funds to repay and has approved the Pool to pull the total amount",
						"params": {
							"amount": "The amount of the flash-borrowed asset",
							"asset": "The address of the flash-borrowed asset",
							"initiator": "The address of the flashloan initiator",
							"params": "The byte-encoded params passed when initiating the flashloan",
							"premium": "The fee of the flash-borrowed asset"
						},
						"returns": {
							"_0": "True if the execution of the operation succeeds, false otherwise"
						}
					}
				},
				"version": 1
			},
			"evm": {
				"assembly": "    /* \"Code-hardhat-ethersJs/contracts/AAVETest.sol\":714:4861  contract AAVETest is IFlashLoanSimpleReceiver {... */\n  mstore(0x40, 0xc0)\n    /* \"Code-hardhat-ethersJs/contracts/AAVETest.sol\":858:900  0x7a250d5630B4cF539739dF2C5dAcb4c659F2488D */\n  0x7a250d5630b4cf539739df2c5dacb4c659f2488d\n    /* \"Code-hardhat-ethersJs/contracts/AAVETest.sol\":823:900  address UniswapV2Router02address = 0x7a250d5630B4cF539739dF2C5dAcb4c659F2488D */\n  0x00\n  dup1\n  0x0100\n  exp\n  dup2\n  sload\n  dup2\n  0xffffffffffffffffffffffffffffffffffffffff\n  mul\n  not\n  and\n  swap1\n  dup4\n  0xffffffffffffffffffffffffffffffffffffffff\n  and\n  mul\n  or\n  swap1\n  sstore\n  pop\n    /* \"Code-hardhat-ethersJs/contracts/AAVETest.sol\":940:982  0x5C69bEe701ef814a2B6a3EDD4B1652CB9cc5aA6f */\n  0x5c69bee701ef814a2b6a3edd4b1652cb9cc5aa6f\n    /* \"Code-hardhat-ethersJs/contracts/AAVETest.sol\":906:982  address UniswapV2Factoryaddress = 0x5C69bEe701ef814a2B6a3EDD4B1652CB9cc5aA6f */\n  0x01\n  exp(0x0100, 0x00)\n  dup2\n  sload\n  dup2\n  0xffffffffffffffffffffffffffffffffffffffff\n  mul\n  not\n  and\n  swap1\n  dup4\n  0xffffffffffffffffffffffffffffffffffffffff\n  and\n  mul\n  or\n  swap1\n  sstore\n  pop\n    /* \"Code-hardhat-ethersJs/contracts/AAVETest.sol\":1014:1056  0xC36442b4a4522E871399CD717aBDD847Ab11FE88 */\n  0xc36442b4a4522e871399cd717abdd847ab11fe88\n    /* \"Code-hardhat-ethersJs/contracts/AAVETest.sol\":988:1056  address UNIV3POSaddress = 0xC36442b4a4522E871399CD717aBDD847Ab11FE88 */\n  0x02\n  exp(0x0100, 0x00)\n  dup2\n  sload\n  dup2\n  0xffffffffffffffffffffffffffffffffffffffff\n  mul\n  not\n  and\n  swap1\n  dup4\n  0xffffffffffffffffffffffffffffffffffffffff\n  and\n  mul\n  or\n  swap1\n  sstore\n  pop\n    /* \"Code-hardhat-ethersJs/contracts/AAVETest.sol\":1096:1138  0x1F98431c8aD98523631AE4a59f267346ea31F984 */\n  0x1f98431c8ad98523631ae4a59f267346ea31f984\n    /* \"Code-hardhat-ethersJs/contracts/AAVETest.sol\":1062:1138  address UniswapV3Factoryaddress = 0x1F98431c8aD98523631AE4a59f267346ea31F984 */\n  0x03\n  exp(0x0100, 0x00)\n  dup2\n  sload\n  dup2\n  0xffffffffffffffffffffffffffffffffffffffff\n  mul\n  not\n  and\n  swap1\n  dup4\n  0xffffffffffffffffffffffffffffffffffffffff\n  and\n  mul\n  or\n  swap1\n  sstore\n  pop\n    /* \"Code-hardhat-ethersJs/contracts/AAVETest.sol\":1174:1216  0x68b3465833fb72A70ecDF485E0e4C7bD8665Fc45 */\n  0x68b3465833fb72a70ecdf485e0e4c7bd8665fc45\n    /* \"Code-hardhat-ethersJs/contracts/AAVETest.sol\":1144:1216  address SwapRouter02address = 0x68b3465833fb72A70ecDF485E0e4C7bD8665Fc45 */\n  0x04\n  exp(0x0100, 0x00)\n  dup2\n  sload\n  dup2\n  0xffffffffffffffffffffffffffffffffffffffff\n  mul\n  not\n  and\n  swap1\n  dup4\n  0xffffffffffffffffffffffffffffffffffffffff\n  and\n  mul\n  or\n  swap1\n  sstore\n  pop\n    /* \"Code-hardhat-ethersJs/contracts/AAVETest.sol\":1259:1301  0x8Ca302E2B04ECDb5d14Cced580A379b40e8eD8b7 */\n  0x8ca302e2b04ecdb5d14cced580a379b40e8ed8b7\n    /* \"Code-hardhat-ethersJs/contracts/AAVETest.sol\":1238:1301  address MTTaddress = 0x8Ca302E2B04ECDb5d14Cced580A379b40e8eD8b7 */\n  0x05\n  exp(0x0100, 0x00)\n  dup2\n  sload\n  dup2\n  0xffffffffffffffffffffffffffffffffffffffff\n  mul\n  not\n  and\n  swap1\n  dup4\n  0xffffffffffffffffffffffffffffffffffffffff\n  and\n  mul\n  or\n  swap1\n  sstore\n  pop\n    /* \"Code-hardhat-ethersJs/contracts/AAVETest.sol\":1329:1371  0xa36085F69e2889c224210F603D836748e7dC0088 */\n  0xa36085f69e2889c224210f603d836748e7dc0088\n    /* \"Code-hardhat-ethersJs/contracts/AAVETest.sol\":1307:1371  address Linkaddress = 0xa36085F69e2889c224210F603D836748e7dC0088 */\n  0x06\n  exp(0x0100, 0x00)\n  dup2\n  sload\n  dup2\n  0xffffffffffffffffffffffffffffffffffffffff\n  mul\n  not\n  and\n  swap1\n  dup4\n  0xffffffffffffffffffffffffffffffffffffffff\n  and\n  mul\n  or\n  swap1\n  sstore\n  pop\n    /* \"Code-hardhat-ethersJs/contracts/AAVETest.sol\":1518:1560  0x69F9e353F7411479912d2E9F3e436aE83486C17B */\n  0x69f9e353f7411479912d2e9f3e436ae83486c17b\n    /* \"Code-hardhat-ethersJs/contracts/AAVETest.sol\":1493:1560  address UV2Pairaddress = 0x69F9e353F7411479912d2E9F3e436aE83486C17B */\n  0x07\n  exp(0x0100, 0x00)\n  dup2\n  sload\n  dup2\n  0xffffffffffffffffffffffffffffffffffffffff\n  mul\n  not\n  and\n  swap1\n  dup4\n  0xffffffffffffffffffffffffffffffffffffffff\n  and\n  mul\n  or\n  swap1\n  sstore\n  pop\n    /* \"Code-hardhat-ethersJs/contracts/AAVETest.sol\":1712:1717  10961 */\n  0x2ad1\n    /* \"Code-hardhat-ethersJs/contracts/AAVETest.sol\":1691:1717  uint256 UV3tokenId = 10961 */\n  0x08\n  sstore\n    /* \"Code-hardhat-ethersJs/contracts/AAVETest.sol\":1761:1803  0x87b1f4cf9BD63f7BBD3eE1aD04E8F52540349347 */\n  0x87b1f4cf9bd63f7bbd3ee1ad04e8f52540349347\n    /* \"Code-hardhat-ethersJs/contracts/AAVETest.sol\":1734:1803  address AAVE_ATOKEN_WETH = 0x87b1f4cf9BD63f7BBD3eE1aD04E8F52540349347 */\n  0x09\n  exp(0x0100, 0x00)\n  dup2\n  sload\n  dup2\n  0xffffffffffffffffffffffffffffffffffffffff\n  mul\n  not\n  and\n  swap1\n  dup4\n  0xffffffffffffffffffffffffffffffffffffffff\n  and\n  mul\n  or\n  swap1\n  sstore\n  pop\n    /* \"Code-hardhat-ethersJs/contracts/AAVETest.sol\":1856:1898  0x88757f2f99175387aB4C6a4b3067c77A695b0349 */\n  0x88757f2f99175387ab4c6a4b3067c77a695b0349\n    /* \"Code-hardhat-ethersJs/contracts/AAVETest.sol\":1809:1898  address AAVE_LENDING_POOL_ADDRESSES_PROVIDER = 0x88757f2f99175387aB4C6a4b3067c77A695b0349 */\n  0x0a\n  exp(0x0100, 0x00)\n  dup2\n  sload\n  dup2\n  0xffffffffffffffffffffffffffffffffffffffff\n  mul\n  not\n  and\n  swap1\n  dup4\n  0xffffffffffffffffffffffffffffffffffffffff\n  and\n  mul\n  or\n  swap1\n  sstore\n  pop\n    /* \"Code-hardhat-ethersJs/contracts/AAVETest.sol\":1926:1968  0xE0fBa4Fc209b4948668006B2bE61711b7f465bAe */\n  0xe0fba4fc209b4948668006b2be61711b7f465bae\n    /* \"Code-hardhat-ethersJs/contracts/AAVETest.sol\":1904:1968  address POOLaddress = 0xE0fBa4Fc209b4948668006B2bE61711b7f465bAe */\n  0x0b\n  exp(0x0100, 0x00)\n  dup2\n  sload\n  dup2\n  0xffffffffffffffffffffffffffffffffffffffff\n  mul\n  not\n  and\n  swap1\n  dup4\n  0xffffffffffffffffffffffffffffffffffffffff\n  and\n  mul\n  or\n  swap1\n  sstore\n  pop\n    /* \"Code-hardhat-ethersJs/contracts/AAVETest.sol\":2045:2069  UniswapV2Router02address */\n  0x00\n  dup1\n  sload\n  swap1\n  0x0100\n  exp\n  swap1\n  div\n  0xffffffffffffffffffffffffffffffffffffffff\n  and\n    /* \"Code-hardhat-ethersJs/contracts/AAVETest.sol\":1995:2070  IUniswapV2Router02 uv2router = IUniswapV2Router02(UniswapV2Router02address) */\n  0x0c\n  exp(0x0100, 0x00)\n  dup2\n  sload\n  dup2\n  0xffffffffffffffffffffffffffffffffffffffff\n  mul\n  not\n  and\n  swap1\n  dup4\n  0xffffffffffffffffffffffffffffffffffffffff\n  and\n  mul\n  or\n  swap1\n  sstore\n  pop\n    /* \"Code-hardhat-ethersJs/contracts/AAVETest.sol\":2130:2149  SwapRouter02address */\n  0x04\n  0x00\n  swap1\n  sload\n  swap1\n  0x0100\n  exp\n  swap1\n  div\n  0xffffffffffffffffffffffffffffffffffffffff\n  and\n    /* \"Code-hardhat-ethersJs/contracts/AAVETest.sol\":2090:2150  IV3SwapRouter uv3router = IV3SwapRouter(SwapRouter02address) */\n  0x0d\n  exp(0x0100, 0x00)\n  dup2\n  sload\n  dup2\n  0xffffffffffffffffffffffffffffffffffffffff\n  mul\n  not\n  and\n  swap1\n  dup4\n  0xffffffffffffffffffffffffffffffffffffffff\n  and\n  mul\n  or\n  swap1\n  sstore\n  pop\n    /* \"Code-hardhat-ethersJs/contracts/AAVETest.sol\":2253:2263  MTTaddress */\n  0x05\n  0x00\n  swap1\n  sload\n  swap1\n  0x0100\n  exp\n  swap1\n  div\n  0xffffffffffffffffffffffffffffffffffffffff\n  and\n    /* \"Code-hardhat-ethersJs/contracts/AAVETest.sol\":2233:2264  IERC20 MTT = IERC20(MTTaddress) */\n  0x0e\n  exp(0x0100, 0x00)\n  dup2\n  sload\n  dup2\n  0xffffffffffffffffffffffffffffffffffffffff\n  mul\n  not\n  and\n  swap1\n  dup4\n  0xffffffffffffffffffffffffffffffffffffffff\n  and\n  mul\n  or\n  swap1\n  sstore\n  pop\n    /* \"Code-hardhat-ethersJs/contracts/AAVETest.sol\":2399:2593  constructor() {... */\n  callvalue\n  dup1\n  iszero\n  tag_1\n  jumpi\n  0x00\n  dup1\n  revert\ntag_1:\n  pop\n    /* \"Code-hardhat-ethersJs/contracts/AAVETest.sol\":2468:2510  0x88757f2f99175387aB4C6a4b3067c77A695b0349 */\n  0x88757f2f99175387ab4c6a4b3067c77a695b0349\n    /* \"Code-hardhat-ethersJs/contracts/AAVETest.sol\":2423:2520  ADDRESSES_PROVIDER = IPoolAddressesProvider( 0x88757f2f99175387aB4C6a4b3067c77A695b0349... */\n  0xffffffffffffffffffffffffffffffffffffffff\n  and\n  0x80\n  dup2\n  0xffffffffffffffffffffffffffffffffffffffff\n  and\n  dup2\n  mstore\n  pop\n  pop\n    /* \"Code-hardhat-ethersJs/contracts/AAVETest.sol\":2543:2585  0xE0fBa4Fc209b4948668006B2bE61711b7f465bAe */\n  0xe0fba4fc209b4948668006b2be61711b7f465bae\n    /* \"Code-hardhat-ethersJs/contracts/AAVETest.sol\":2530:2586  POOL = IPool(0xE0fBa4Fc209b4948668006B2bE61711b7f465bAe) */\n  0xffffffffffffffffffffffffffffffffffffffff\n  and\n  0xa0\n  dup2\n  0xffffffffffffffffffffffffffffffffffffffff\n  and\n  dup2\n  mstore\n  pop\n  pop\n    /* \"Code-hardhat-ethersJs/contracts/AAVETest.sol\":714:4861  contract AAVETest is IFlashLoanSimpleReceiver {... */\n  mload(0x80)\n  mload(0xa0)\n  codecopy(0x00, dataOffset(sub_0), dataSize(sub_0))\n  0x00\n  assignImmutable(\"0x609b23bf287e1766014b9bd988a6787fc1221b26b44f43f150b389e5a11ebd06\")\n  0x00\n  assignImmutable(\"0x4e701ff48cddd8d9ae76d4abc76fdf8142996b98a55d862e7a02c126a31586e6\")\n  return(0x00, dataSize(sub_0))\nstop\n\nsub_0: assembly {\n        /* \"Code-hardhat-ethersJs/contracts/AAVETest.sol\":714:4861  contract AAVETest is IFlashLoanSimpleReceiver {... */\n      mstore(0x40, 0x80)\n      callvalue\n      dup1\n      iszero\n      tag_1\n      jumpi\n      0x00\n      dup1\n      revert\n    tag_1:\n      pop\n      jumpi(tag_2, lt(calldatasize, 0x04))\n      shr(0xe0, calldataload(0x00))\n      dup1\n      0x0542975c\n      eq\n      tag_3\n      jumpi\n      dup1\n      0x1b11d0ff\n      eq\n      tag_4\n      jumpi\n      dup1\n      0x7535d246\n      eq\n      tag_5\n      jumpi\n      dup1\n      0xc4a50233\n      eq\n      tag_6\n      jumpi\n    tag_2:\n      0x00\n      dup1\n      revert\n        /* \"Code-hardhat-ethersJs/contracts/AAVETest.sol\":2283:2350  IPoolAddressesProvider public immutable override ADDRESSES_PROVIDER */\n    tag_3:\n      tag_7\n      tag_8\n      jump\t// in\n    tag_7:\n      mload(0x40)\n      tag_9\n      swap2\n      swap1\n      tag_10\n      jump\t// in\n    tag_9:\n      mload(0x40)\n      dup1\n      swap2\n      sub\n      swap1\n      return\n        /* \"Code-hardhat-ethersJs/contracts/AAVETest.sol\":3422:4853  function executeOperation(... */\n    tag_4:\n      tag_11\n      0x04\n      dup1\n      calldatasize\n      sub\n      dup2\n      add\n      swap1\n      tag_12\n      swap2\n      swap1\n      tag_13\n      jump\t// in\n    tag_12:\n      tag_14\n      jump\t// in\n    tag_11:\n      mload(0x40)\n      tag_15\n      swap2\n      swap1\n      tag_16\n      jump\t// in\n    tag_15:\n      mload(0x40)\n      dup1\n      swap2\n      sub\n      swap1\n      return\n        /* \"Code-hardhat-ethersJs/contracts/AAVETest.sol\":2356:2392  IPool public immutable override POOL */\n    tag_5:\n      tag_17\n      tag_18\n      jump\t// in\n    tag_17:\n      mload(0x40)\n      tag_19\n      swap2\n      swap1\n      tag_20\n      jump\t// in\n    tag_19:\n      mload(0x40)\n      dup1\n      swap2\n      sub\n      swap1\n      return\n        /* \"Code-hardhat-ethersJs/contracts/AAVETest.sol\":3093:3416  function testAAVE(uint256 _amount) public {... */\n    tag_6:\n      tag_21\n      0x04\n      dup1\n      calldatasize\n      sub\n      dup2\n      add\n      swap1\n      tag_22\n      swap2\n      swap1\n      tag_23\n      jump\t// in\n    tag_22:\n      tag_24\n      jump\t// in\n    tag_21:\n      stop\n        /* \"Code-hardhat-ethersJs/contracts/AAVETest.sol\":2283:2350  IPoolAddressesProvider public immutable override ADDRESSES_PROVIDER */\n    tag_8:\n      immutable(\"0x4e701ff48cddd8d9ae76d4abc76fdf8142996b98a55d862e7a02c126a31586e6\")\n      dup2\n      jump\t// out\n        /* \"Code-hardhat-ethersJs/contracts/AAVETest.sol\":3422:4853  function executeOperation(... */\n    tag_14:\n        /* \"Code-hardhat-ethersJs/contracts/AAVETest.sol\":3647:3651  bool */\n      0x00\n        /* \"Code-hardhat-ethersJs/contracts/AAVETest.sol\":3784:3803  uint256 amountOwing */\n      dup1\n        /* \"Code-hardhat-ethersJs/contracts/AAVETest.sol\":3814:3821  premium */\n      dup6\n        /* \"Code-hardhat-ethersJs/contracts/AAVETest.sol\":3806:3812  amount */\n      dup8\n        /* \"Code-hardhat-ethersJs/contracts/AAVETest.sol\":3806:3821  amount +premium */\n      tag_26\n      swap2\n      swap1\n      tag_27\n      jump\t// in\n    tag_26:\n        /* \"Code-hardhat-ethersJs/contracts/AAVETest.sol\":3784:3821  uint256 amountOwing = amount +premium */\n      swap1\n      pop\n        /* \"Code-hardhat-ethersJs/contracts/AAVETest.sol\":3841:3844  MTT */\n      0x0e\n      0x00\n      swap1\n      sload\n      swap1\n      0x0100\n      exp\n      swap1\n      div\n      0xffffffffffffffffffffffffffffffffffffffff\n      and\n        /* \"Code-hardhat-ethersJs/contracts/AAVETest.sol\":3841:3852  MTT.approve */\n      0xffffffffffffffffffffffffffffffffffffffff\n      and\n      0x095ea7b3\n        /* \"Code-hardhat-ethersJs/contracts/AAVETest.sol\":3861:3870  uv2router */\n      0x0c\n      0x00\n      swap1\n      sload\n      swap1\n      0x0100\n      exp\n      swap1\n      div\n      0xffffffffffffffffffffffffffffffffffffffff\n      and\n        /* \"Code-hardhat-ethersJs/contracts/AAVETest.sol\":3878:3905  100000000000000000000000000 */\n      0x52b7d2dcc80cd2e4000000\n        /* \"Code-hardhat-ethersJs/contracts/AAVETest.sol\":3841:3907  MTT.approve(address(uv2router), uint(100000000000000000000000000)) */\n      mload(0x40)\n      dup4\n      0xffffffff\n      and\n      0xe0\n      shl\n      dup2\n      mstore\n      0x04\n      add\n      tag_28\n      swap3\n      swap2\n      swap1\n      tag_29\n      jump\t// in\n    tag_28:\n      0x20\n      mload(0x40)\n      dup1\n      dup4\n      sub\n      dup2\n      0x00\n      dup8\n      gas\n      call\n      iszero\n      dup1\n      iszero\n      tag_31\n      jumpi\n      returndatasize\n      0x00\n      dup1\n      returndatacopy\n      revert(0x00, returndatasize)\n    tag_31:\n      pop\n      pop\n      pop\n      pop\n      mload(0x40)\n      returndatasize\n      not(0x1f)\n      0x1f\n      dup3\n      add\n      and\n      dup3\n      add\n      dup1\n      0x40\n      mstore\n      pop\n      dup2\n      add\n      swap1\n      tag_32\n      swap2\n      swap1\n      tag_33\n      jump\t// in\n    tag_32:\n      pop\n        /* \"Code-hardhat-ethersJs/contracts/AAVETest.sol\":3917:3920  MTT */\n      0x0e\n      0x00\n      swap1\n      sload\n      swap1\n      0x0100\n      exp\n      swap1\n      div\n      0xffffffffffffffffffffffffffffffffffffffff\n      and\n        /* \"Code-hardhat-ethersJs/contracts/AAVETest.sol\":3917:3928  MTT.approve */\n      0xffffffffffffffffffffffffffffffffffffffff\n      and\n      0x095ea7b3\n        /* \"Code-hardhat-ethersJs/contracts/AAVETest.sol\":3937:3946  uv3router */\n      0x0d\n      0x00\n      swap1\n      sload\n      swap1\n      0x0100\n      exp\n      swap1\n      div\n      0xffffffffffffffffffffffffffffffffffffffff\n      and\n        /* \"Code-hardhat-ethersJs/contracts/AAVETest.sol\":3954:3981  100000000000000000000000000 */\n      0x52b7d2dcc80cd2e4000000\n        /* \"Code-hardhat-ethersJs/contracts/AAVETest.sol\":3917:3983  MTT.approve(address(uv3router), uint(100000000000000000000000000)) */\n      mload(0x40)\n      dup4\n      0xffffffff\n      and\n      0xe0\n      shl\n      dup2\n      mstore\n      0x04\n      add\n      tag_34\n      swap3\n      swap2\n      swap1\n      tag_29\n      jump\t// in\n    tag_34:\n      0x20\n      mload(0x40)\n      dup1\n      dup4\n      sub\n      dup2\n      0x00\n      dup8\n      gas\n      call\n      iszero\n      dup1\n      iszero\n      tag_36\n      jumpi\n      returndatasize\n      0x00\n      dup1\n      returndatacopy\n      revert(0x00, returndatasize)\n    tag_36:\n      pop\n      pop\n      pop\n      pop\n      mload(0x40)\n      returndatasize\n      not(0x1f)\n      0x1f\n      dup3\n      add\n      and\n      dup3\n      add\n      dup1\n      0x40\n      mstore\n      pop\n      dup2\n      add\n      swap1\n      tag_37\n      swap2\n      swap1\n      tag_33\n      jump\t// in\n    tag_37:\n      pop\n        /* \"Code-hardhat-ethersJs/contracts/AAVETest.sol\":4001:4022  address[] memory path */\n      0x00\n        /* \"Code-hardhat-ethersJs/contracts/AAVETest.sol\":4039:4040  2 */\n      0x02\n        /* \"Code-hardhat-ethersJs/contracts/AAVETest.sol\":4025:4041  new address[](2) */\n      0xffffffffffffffff\n      dup2\n      gt\n      iszero\n      tag_38\n      jumpi\n      tag_39\n      tag_40\n      jump\t// in\n    tag_39:\n    tag_38:\n      mload(0x40)\n      swap1\n      dup1\n      dup3\n      mstore\n      dup1\n      0x20\n      mul\n      0x20\n      add\n      dup3\n      add\n      0x40\n      mstore\n      dup1\n      iszero\n      tag_41\n      jumpi\n      dup2\n      0x20\n      add\n      0x20\n      dup3\n      mul\n      dup1\n      calldatasize\n      dup4\n      calldatacopy\n      dup1\n      dup3\n      add\n      swap2\n      pop\n      pop\n      swap1\n      pop\n    tag_41:\n      pop\n        /* \"Code-hardhat-ethersJs/contracts/AAVETest.sol\":4001:4041  address[] memory path = new address[](2) */\n      swap1\n      pop\n        /* \"Code-hardhat-ethersJs/contracts/AAVETest.sol\":4061:4072  Linkaddress */\n      0x06\n      0x00\n      swap1\n      sload\n      swap1\n      0x0100\n      exp\n      swap1\n      div\n      0xffffffffffffffffffffffffffffffffffffffff\n      and\n        /* \"Code-hardhat-ethersJs/contracts/AAVETest.sol\":4051:4055  path */\n      dup2\n        /* \"Code-hardhat-ethersJs/contracts/AAVETest.sol\":4056:4057  0 */\n      0x00\n        /* \"Code-hardhat-ethersJs/contracts/AAVETest.sol\":4051:4058  path[0] */\n      dup2\n      mload\n      dup2\n      lt\n      tag_42\n      jumpi\n      tag_43\n      tag_44\n      jump\t// in\n    tag_43:\n    tag_42:\n      0x20\n      mul\n      0x20\n      add\n      add\n        /* \"Code-hardhat-ethersJs/contracts/AAVETest.sol\":4051:4072  path[0] = Linkaddress */\n      swap1\n      0xffffffffffffffffffffffffffffffffffffffff\n      and\n      swap1\n      dup2\n      0xffffffffffffffffffffffffffffffffffffffff\n      and\n      dup2\n      mstore\n      pop\n      pop\n        /* \"Code-hardhat-ethersJs/contracts/AAVETest.sol\":4092:4102  MTTaddress */\n      0x05\n      0x00\n      swap1\n      sload\n      swap1\n      0x0100\n      exp\n      swap1\n      div\n      0xffffffffffffffffffffffffffffffffffffffff\n      and\n        /* \"Code-hardhat-ethersJs/contracts/AAVETest.sol\":4082:4086  path */\n      dup2\n        /* \"Code-hardhat-ethersJs/contracts/AAVETest.sol\":4087:4088  1 */\n      0x01\n        /* \"Code-hardhat-ethersJs/contracts/AAVETest.sol\":4082:4089  path[1] */\n      dup2\n      mload\n      dup2\n      lt\n      tag_45\n      jumpi\n      tag_46\n      tag_44\n      jump\t// in\n    tag_46:\n    tag_45:\n      0x20\n      mul\n      0x20\n      add\n      add\n        /* \"Code-hardhat-ethersJs/contracts/AAVETest.sol\":4082:4102  path[1] = MTTaddress */\n      swap1\n      0xffffffffffffffffffffffffffffffffffffffff\n      and\n      swap1\n      dup2\n      0xffffffffffffffffffffffffffffffffffffffff\n      and\n      dup2\n      mstore\n      pop\n      pop\n        /* \"Code-hardhat-ethersJs/contracts/AAVETest.sol\":4295:4309  uint amountOut */\n      0x00\n        /* \"Code-hardhat-ethersJs/contracts/AAVETest.sol\":4312:4321  uv2router */\n      0x0c\n      0x00\n      swap1\n      sload\n      swap1\n      0x0100\n      exp\n      swap1\n      div\n      0xffffffffffffffffffffffffffffffffffffffff\n      and\n        /* \"Code-hardhat-ethersJs/contracts/AAVETest.sol\":4312:4346  uv2router.swapExactTokensForTokens */\n      0xffffffffffffffffffffffffffffffffffffffff\n      and\n      0x38ed1739\n        /* \"Code-hardhat-ethersJs/contracts/AAVETest.sol\":4347:4353  amount */\n      dup11\n        /* \"Code-hardhat-ethersJs/contracts/AAVETest.sol\":4355:4356  1 */\n      0x01\n        /* \"Code-hardhat-ethersJs/contracts/AAVETest.sol\":4358:4362  path */\n      dup6\n        /* \"Code-hardhat-ethersJs/contracts/AAVETest.sol\":4372:4376  this */\n      address\n        /* \"Code-hardhat-ethersJs/contracts/AAVETest.sol\":4379:4394  block.timestamp */\n      timestamp\n        /* \"Code-hardhat-ethersJs/contracts/AAVETest.sol\":4312:4395  uv2router.swapExactTokensForTokens(amount, 1, path, address(this), block.timestamp) */\n      mload(0x40)\n      dup7\n      0xffffffff\n      and\n      0xe0\n      shl\n      dup2\n      mstore\n      0x04\n      add\n      tag_47\n      swap6\n      swap5\n      swap4\n      swap3\n      swap2\n      swap1\n      tag_48\n      jump\t// in\n    tag_47:\n      0x00\n      mload(0x40)\n      dup1\n      dup4\n      sub\n      dup2\n      0x00\n      dup8\n      gas\n      call\n      iszero\n      dup1\n      iszero\n      tag_50\n      jumpi\n      returndatasize\n      0x00\n      dup1\n      returndatacopy\n      revert(0x00, returndatasize)\n    tag_50:\n      pop\n      pop\n      pop\n      pop\n      mload(0x40)\n      returndatasize\n      0x00\n      dup3\n      returndatacopy\n      returndatasize\n      not(0x1f)\n      0x1f\n      dup3\n      add\n      and\n      dup3\n      add\n      dup1\n      0x40\n      mstore\n      pop\n      dup2\n      add\n      swap1\n      tag_51\n      swap2\n      swap1\n      tag_52\n      jump\t// in\n    tag_51:\n        /* \"Code-hardhat-ethersJs/contracts/AAVETest.sol\":4396:4397  0 */\n      0x00\n        /* \"Code-hardhat-ethersJs/contracts/AAVETest.sol\":4312:4398  uv2router.swapExactTokensForTokens(amount, 1, path, address(this), block.timestamp)[0] */\n      dup2\n      mload\n      dup2\n      lt\n      tag_53\n      jumpi\n      tag_54\n      tag_44\n      jump\t// in\n    tag_54:\n    tag_53:\n      0x20\n      mul\n      0x20\n      add\n      add\n      mload\n        /* \"Code-hardhat-ethersJs/contracts/AAVETest.sol\":4295:4398  uint amountOut = uv2router.swapExactTokensForTokens(amount, 1, path, address(this), block.timestamp)[0] */\n      swap1\n      pop\n        /* \"Code-hardhat-ethersJs/contracts/AAVETest.sol\":4408:4457  IV3SwapRouter.ExactInputSingleParams memory param */\n      0x00\n        /* \"Code-hardhat-ethersJs/contracts/AAVETest.sol\":4460:4559  IV3SwapRouter.ExactInputSingleParams(MTTaddress, Linkaddress, 3000, address(this), amountOut, 0, 0) */\n      mload(0x40)\n      dup1\n      0xe0\n      add\n      0x40\n      mstore\n      dup1\n        /* \"Code-hardhat-ethersJs/contracts/AAVETest.sol\":4497:4507  MTTaddress */\n      0x05\n      0x00\n      swap1\n      sload\n      swap1\n      0x0100\n      exp\n      swap1\n      div\n      0xffffffffffffffffffffffffffffffffffffffff\n      and\n        /* \"Code-hardhat-ethersJs/contracts/AAVETest.sol\":4460:4559  IV3SwapRouter.ExactInputSingleParams(MTTaddress, Linkaddress, 3000, address(this), amountOut, 0, 0) */\n      0xffffffffffffffffffffffffffffffffffffffff\n      and\n      dup2\n      mstore\n      0x20\n      add\n        /* \"Code-hardhat-ethersJs/contracts/AAVETest.sol\":4509:4520  Linkaddress */\n      0x06\n      0x00\n      swap1\n      sload\n      swap1\n      0x0100\n      exp\n      swap1\n      div\n      0xffffffffffffffffffffffffffffffffffffffff\n      and\n        /* \"Code-hardhat-ethersJs/contracts/AAVETest.sol\":4460:4559  IV3SwapRouter.ExactInputSingleParams(MTTaddress, Linkaddress, 3000, address(this), amountOut, 0, 0) */\n      0xffffffffffffffffffffffffffffffffffffffff\n      and\n      dup2\n      mstore\n      0x20\n      add\n        /* \"Code-hardhat-ethersJs/contracts/AAVETest.sol\":4522:4526  3000 */\n      0x0bb8\n        /* \"Code-hardhat-ethersJs/contracts/AAVETest.sol\":4460:4559  IV3SwapRouter.ExactInputSingleParams(MTTaddress, Linkaddress, 3000, address(this), amountOut, 0, 0) */\n      0xffffff\n      and\n      dup2\n      mstore\n      0x20\n      add\n        /* \"Code-hardhat-ethersJs/contracts/AAVETest.sol\":4536:4540  this */\n      address\n        /* \"Code-hardhat-ethersJs/contracts/AAVETest.sol\":4460:4559  IV3SwapRouter.ExactInputSingleParams(MTTaddress, Linkaddress, 3000, address(this), amountOut, 0, 0) */\n      0xffffffffffffffffffffffffffffffffffffffff\n      and\n      dup2\n      mstore\n      0x20\n      add\n        /* \"Code-hardhat-ethersJs/contracts/AAVETest.sol\":4543:4552  amountOut */\n      dup4\n        /* \"Code-hardhat-ethersJs/contracts/AAVETest.sol\":4460:4559  IV3SwapRouter.ExactInputSingleParams(MTTaddress, Linkaddress, 3000, address(this), amountOut, 0, 0) */\n      dup2\n      mstore\n      0x20\n      add\n        /* \"Code-hardhat-ethersJs/contracts/AAVETest.sol\":4554:4555  0 */\n      0x00\n        /* \"Code-hardhat-ethersJs/contracts/AAVETest.sol\":4460:4559  IV3SwapRouter.ExactInputSingleParams(MTTaddress, Linkaddress, 3000, address(this), amountOut, 0, 0) */\n      dup2\n      mstore\n      0x20\n      add\n        /* \"Code-hardhat-ethersJs/contracts/AAVETest.sol\":4557:4558  0 */\n      0x00\n        /* \"Code-hardhat-ethersJs/contracts/AAVETest.sol\":4460:4559  IV3SwapRouter.ExactInputSingleParams(MTTaddress, Linkaddress, 3000, address(this), amountOut, 0, 0) */\n      0xffffffffffffffffffffffffffffffffffffffff\n      and\n      dup2\n      mstore\n      pop\n        /* \"Code-hardhat-ethersJs/contracts/AAVETest.sol\":4408:4559  IV3SwapRouter.ExactInputSingleParams memory param = IV3SwapRouter.ExactInputSingleParams(MTTaddress, Linkaddress, 3000, address(this), amountOut, 0, 0) */\n      swap1\n      pop\n        /* \"Code-hardhat-ethersJs/contracts/AAVETest.sol\":4569:4588  uint amountReceived */\n      0x00\n        /* \"Code-hardhat-ethersJs/contracts/AAVETest.sol\":4591:4600  uv3router */\n      0x0d\n      0x00\n      swap1\n      sload\n      swap1\n      0x0100\n      exp\n      swap1\n      div\n      0xffffffffffffffffffffffffffffffffffffffff\n      and\n        /* \"Code-hardhat-ethersJs/contracts/AAVETest.sol\":4591:4617  uv3router.exactInputSingle */\n      0xffffffffffffffffffffffffffffffffffffffff\n      and\n      0x04e45aaf\n        /* \"Code-hardhat-ethersJs/contracts/AAVETest.sol\":4618:4623  param */\n      dup4\n        /* \"Code-hardhat-ethersJs/contracts/AAVETest.sol\":4591:4624  uv3router.exactInputSingle(param) */\n      mload(0x40)\n      dup3\n      0xffffffff\n      and\n      0xe0\n      shl\n      dup2\n      mstore\n      0x04\n      add\n      tag_55\n      swap2\n      swap1\n      tag_56\n      jump\t// in\n    tag_55:\n      0x20\n      mload(0x40)\n      dup1\n      dup4\n      sub\n      dup2\n      0x00\n      dup8\n      gas\n      call\n      iszero\n      dup1\n      iszero\n      tag_58\n      jumpi\n      returndatasize\n      0x00\n      dup1\n      returndatacopy\n      revert(0x00, returndatasize)\n    tag_58:\n      pop\n      pop\n      pop\n      pop\n      mload(0x40)\n      returndatasize\n      not(0x1f)\n      0x1f\n      dup3\n      add\n      and\n      dup3\n      add\n      dup1\n      0x40\n      mstore\n      pop\n      dup2\n      add\n      swap1\n      tag_59\n      swap2\n      swap1\n      tag_60\n      jump\t// in\n    tag_59:\n        /* \"Code-hardhat-ethersJs/contracts/AAVETest.sol\":4569:4624  uint amountReceived = uv3router.exactInputSingle(param) */\n      swap1\n      pop\n        /* \"Code-hardhat-ethersJs/contracts/AAVETest.sol\":4655:4666  amountOwing */\n      dup5\n        /* \"Code-hardhat-ethersJs/contracts/AAVETest.sol\":4638:4652  amountReceived */\n      dup2\n        /* \"Code-hardhat-ethersJs/contracts/AAVETest.sol\":4638:4666  amountReceived > amountOwing */\n      gt\n        /* \"Code-hardhat-ethersJs/contracts/AAVETest.sol\":4635:4826  if(amountReceived > amountOwing){//成功才还钱... */\n      iszero\n      tag_61\n      jumpi\n        /* \"Code-hardhat-ethersJs/contracts/AAVETest.sol\":4705:4710  asset */\n      dup12\n        /* \"Code-hardhat-ethersJs/contracts/AAVETest.sol\":4698:4719  IERC20(asset).approve */\n      0xffffffffffffffffffffffffffffffffffffffff\n      and\n      0x095ea7b3\n        /* \"Code-hardhat-ethersJs/contracts/AAVETest.sol\":4728:4732  POOL */\n      immutable(\"0x609b23bf287e1766014b9bd988a6787fc1221b26b44f43f150b389e5a11ebd06\")\n        /* \"Code-hardhat-ethersJs/contracts/AAVETest.sol\":4735:4746  amountOwing */\n      dup8\n        /* \"Code-hardhat-ethersJs/contracts/AAVETest.sol\":4698:4747  IERC20(asset).approve(address(POOL), amountOwing) */\n      mload(0x40)\n      dup4\n      0xffffffff\n      and\n      0xe0\n      shl\n      dup2\n      mstore\n      0x04\n      add\n      tag_62\n      swap3\n      swap2\n      swap1\n      tag_29\n      jump\t// in\n    tag_62:\n      0x20\n      mload(0x40)\n      dup1\n      dup4\n      sub\n      dup2\n      0x00\n      dup8\n      gas\n      call\n      iszero\n      dup1\n      iszero\n      tag_64\n      jumpi\n      returndatasize\n      0x00\n      dup1\n      returndatacopy\n      revert(0x00, returndatasize)\n    tag_64:\n      pop\n      pop\n      pop\n      pop\n      mload(0x40)\n      returndatasize\n      not(0x1f)\n      0x1f\n      dup3\n      add\n      and\n      dup3\n      add\n      dup1\n      0x40\n      mstore\n      pop\n      dup2\n      add\n      swap1\n      tag_65\n      swap2\n      swap1\n      tag_33\n      jump\t// in\n    tag_65:\n      pop\n        /* \"Code-hardhat-ethersJs/contracts/AAVETest.sol\":4635:4826  if(amountReceived > amountOwing){//成功才还钱... */\n      jump(tag_66)\n    tag_61:\n        /* \"Code-hardhat-ethersJs/contracts/AAVETest.sol\":4783:4788  asset */\n      dup12\n        /* \"Code-hardhat-ethersJs/contracts/AAVETest.sol\":4776:4797  IERC20(asset).approve */\n      0xffffffffffffffffffffffffffffffffffffffff\n      and\n      0x095ea7b3\n        /* \"Code-hardhat-ethersJs/contracts/AAVETest.sol\":4806:4810  POOL */\n      immutable(\"0x609b23bf287e1766014b9bd988a6787fc1221b26b44f43f150b389e5a11ebd06\")\n        /* \"Code-hardhat-ethersJs/contracts/AAVETest.sol\":4813:4814  0 */\n      0x00\n        /* \"Code-hardhat-ethersJs/contracts/AAVETest.sol\":4776:4815  IERC20(asset).approve(address(POOL), 0) */\n      mload(0x40)\n      dup4\n      0xffffffff\n      and\n      0xe0\n      shl\n      dup2\n      mstore\n      0x04\n      add\n      tag_67\n      swap3\n      swap2\n      swap1\n      tag_68\n      jump\t// in\n    tag_67:\n      0x20\n      mload(0x40)\n      dup1\n      dup4\n      sub\n      dup2\n      0x00\n      dup8\n      gas\n      call\n      iszero\n      dup1\n      iszero\n      tag_70\n      jumpi\n      returndatasize\n      0x00\n      dup1\n      returndatacopy\n      revert(0x00, returndatasize)\n    tag_70:\n      pop\n      pop\n      pop\n      pop\n      mload(0x40)\n      returndatasize\n      not(0x1f)\n      0x1f\n      dup3\n      add\n      and\n      dup3\n      add\n      dup1\n      0x40\n      mstore\n      pop\n      dup2\n      add\n      swap1\n      tag_71\n      swap2\n      swap1\n      tag_33\n      jump\t// in\n    tag_71:\n      pop\n        /* \"Code-hardhat-ethersJs/contracts/AAVETest.sol\":4635:4826  if(amountReceived > amountOwing){//成功才还钱... */\n    tag_66:\n        /* \"Code-hardhat-ethersJs/contracts/AAVETest.sol\":4842:4846  true */\n      0x01\n        /* \"Code-hardhat-ethersJs/contracts/AAVETest.sol\":4835:4846  return true */\n      swap6\n      pop\n      pop\n      pop\n      pop\n      pop\n      pop\n        /* \"Code-hardhat-ethersJs/contracts/AAVETest.sol\":3422:4853  function executeOperation(... */\n      swap7\n      swap6\n      pop\n      pop\n      pop\n      pop\n      pop\n      pop\n      jump\t// out\n        /* \"Code-hardhat-ethersJs/contracts/AAVETest.sol\":2356:2392  IPool public immutable override POOL */\n    tag_18:\n      immutable(\"0x609b23bf287e1766014b9bd988a6787fc1221b26b44f43f150b389e5a11ebd06\")\n      dup2\n      jump\t// out\n        /* \"Code-hardhat-ethersJs/contracts/AAVETest.sol\":3093:3416  function testAAVE(uint256 _amount) public {... */\n    tag_24:\n        /* \"Code-hardhat-ethersJs/contracts/AAVETest.sol\":3145:3168  address receiverAddress */\n      0x00\n        /* \"Code-hardhat-ethersJs/contracts/AAVETest.sol\":3179:3183  this */\n      address\n        /* \"Code-hardhat-ethersJs/contracts/AAVETest.sol\":3145:3184  address receiverAddress = address(this) */\n      swap1\n      pop\n        /* \"Code-hardhat-ethersJs/contracts/AAVETest.sol\":3195:3208  address asset */\n      0x00\n        /* \"Code-hardhat-ethersJs/contracts/AAVETest.sol\":3211:3222  Linkaddress */\n      0x06\n      0x00\n      swap1\n      sload\n      swap1\n      0x0100\n      exp\n      swap1\n      div\n      0xffffffffffffffffffffffffffffffffffffffff\n      and\n        /* \"Code-hardhat-ethersJs/contracts/AAVETest.sol\":3195:3222  address asset = Linkaddress */\n      swap1\n      pop\n        /* \"Code-hardhat-ethersJs/contracts/AAVETest.sol\":3232:3246  uint256 amount */\n      0x00\n        /* \"Code-hardhat-ethersJs/contracts/AAVETest.sol\":3249:3256  _amount */\n      dup4\n        /* \"Code-hardhat-ethersJs/contracts/AAVETest.sol\":3232:3256  uint256 amount = _amount */\n      swap1\n      pop\n        /* \"Code-hardhat-ethersJs/contracts/AAVETest.sol\":3267:3286  bytes memory params */\n      0x00\n        /* \"Code-hardhat-ethersJs/contracts/AAVETest.sol\":3267:3291  bytes memory params = \"\" */\n      mload(0x40)\n      dup1\n      0x20\n      add\n      0x40\n      mstore\n      dup1\n      0x00\n      dup2\n      mstore\n      pop\n      swap1\n      pop\n        /* \"Code-hardhat-ethersJs/contracts/AAVETest.sol\":3301:3320  uint16 referralCode */\n      0x00\n        /* \"Code-hardhat-ethersJs/contracts/AAVETest.sol\":3335:3339  POOL */\n      immutable(\"0x609b23bf287e1766014b9bd988a6787fc1221b26b44f43f150b389e5a11ebd06\")\n        /* \"Code-hardhat-ethersJs/contracts/AAVETest.sol\":3335:3355  POOL.flashLoanSimple */\n      0xffffffffffffffffffffffffffffffffffffffff\n      and\n      0x42b0b77c\n        /* \"Code-hardhat-ethersJs/contracts/AAVETest.sol\":3356:3371  receiverAddress */\n      dup7\n        /* \"Code-hardhat-ethersJs/contracts/AAVETest.sol\":3373:3378  asset */\n      dup7\n        /* \"Code-hardhat-ethersJs/contracts/AAVETest.sol\":3380:3386  amount */\n      dup7\n        /* \"Code-hardhat-ethersJs/contracts/AAVETest.sol\":3388:3394  params */\n      dup7\n        /* \"Code-hardhat-ethersJs/contracts/AAVETest.sol\":3396:3408  referralCode */\n      dup7\n        /* \"Code-hardhat-ethersJs/contracts/AAVETest.sol\":3335:3409  POOL.flashLoanSimple(receiverAddress, asset, amount, params, referralCode) */\n      mload(0x40)\n      dup7\n      0xffffffff\n      and\n      0xe0\n      shl\n      dup2\n      mstore\n      0x04\n      add\n      tag_73\n      swap6\n      swap5\n      swap4\n      swap3\n      swap2\n      swap1\n      tag_74\n      jump\t// in\n    tag_73:\n      0x00\n      mload(0x40)\n      dup1\n      dup4\n      sub\n      dup2\n      0x00\n      dup8\n      dup1\n      extcodesize\n      iszero\n      dup1\n      iszero\n      tag_75\n      jumpi\n      0x00\n      dup1\n      revert\n    tag_75:\n      pop\n      gas\n      call\n      iszero\n      dup1\n      iszero\n      tag_77\n      jumpi\n      returndatasize\n      0x00\n      dup1\n      returndatacopy\n      revert(0x00, returndatasize)\n    tag_77:\n      pop\n      pop\n      pop\n      pop\n        /* \"Code-hardhat-ethersJs/contracts/AAVETest.sol\":3135:3416  {... */\n      pop\n      pop\n      pop\n      pop\n      pop\n        /* \"Code-hardhat-ethersJs/contracts/AAVETest.sol\":3093:3416  function testAAVE(uint256 _amount) public {... */\n      pop\n      jump\t// out\n        /* \"#utility.yul\":7:133   */\n    tag_78:\n        /* \"#utility.yul\":44:51   */\n      0x00\n        /* \"#utility.yul\":84:126   */\n      0xffffffffffffffffffffffffffffffffffffffff\n        /* \"#utility.yul\":77:82   */\n      dup3\n        /* \"#utility.yul\":73:127   */\n      and\n        /* \"#utility.yul\":62:127   */\n      swap1\n      pop\n        /* \"#utility.yul\":7:133   */\n      swap2\n      swap1\n      pop\n      jump\t// out\n        /* \"#utility.yul\":139:199   */\n    tag_79:\n        /* \"#utility.yul\":167:170   */\n      0x00\n        /* \"#utility.yul\":188:193   */\n      dup2\n        /* \"#utility.yul\":181:193   */\n      swap1\n      pop\n        /* \"#utility.yul\":139:199   */\n      swap2\n      swap1\n      pop\n      jump\t// out\n        /* \"#utility.yul\":205:347   */\n    tag_80:\n        /* \"#utility.yul\":255:264   */\n      0x00\n        /* \"#utility.yul\":288:341   */\n      tag_141\n        /* \"#utility.yul\":306:340   */\n      tag_142\n        /* \"#utility.yul\":315:339   */\n      tag_143\n        /* \"#utility.yul\":333:338   */\n      dup5\n        /* \"#utility.yul\":315:339   */\n      tag_78\n      jump\t// in\n    tag_143:\n        /* \"#utility.yul\":306:340   */\n      tag_79\n      jump\t// in\n    tag_142:\n        /* \"#utility.yul\":288:341   */\n      tag_78\n      jump\t// in\n    tag_141:\n        /* \"#utility.yul\":275:341   */\n      swap1\n      pop\n        /* \"#utility.yul\":205:347   */\n      swap2\n      swap1\n      pop\n      jump\t// out\n        /* \"#utility.yul\":353:479   */\n    tag_81:\n        /* \"#utility.yul\":403:412   */\n      0x00\n        /* \"#utility.yul\":436:473   */\n      tag_145\n        /* \"#utility.yul\":467:472   */\n      dup3\n        /* \"#utility.yul\":436:473   */\n      tag_80\n      jump\t// in\n    tag_145:\n        /* \"#utility.yul\":423:473   */\n      swap1\n      pop\n        /* \"#utility.yul\":353:479   */\n      swap2\n      swap1\n      pop\n      jump\t// out\n        /* \"#utility.yul\":485:641   */\n    tag_82:\n        /* \"#utility.yul\":565:574   */\n      0x00\n        /* \"#utility.yul\":598:635   */\n      tag_147\n        /* \"#utility.yul\":629:634   */\n      dup3\n        /* \"#utility.yul\":598:635   */\n      tag_81\n      jump\t// in\n    tag_147:\n        /* \"#utility.yul\":585:635   */\n      swap1\n      pop\n        /* \"#utility.yul\":485:641   */\n      swap2\n      swap1\n      pop\n      jump\t// out\n        /* \"#utility.yul\":647:838   */\n    tag_83:\n        /* \"#utility.yul\":764:831   */\n      tag_149\n        /* \"#utility.yul\":825:830   */\n      dup2\n        /* \"#utility.yul\":764:831   */\n      tag_82\n      jump\t// in\n    tag_149:\n        /* \"#utility.yul\":759:762   */\n      dup3\n        /* \"#utility.yul\":752:832   */\n      mstore\n        /* \"#utility.yul\":647:838   */\n      pop\n      pop\n      jump\t// out\n        /* \"#utility.yul\":844:1126   */\n    tag_10:\n        /* \"#utility.yul\":967:971   */\n      0x00\n        /* \"#utility.yul\":1005:1007   */\n      0x20\n        /* \"#utility.yul\":994:1003   */\n      dup3\n        /* \"#utility.yul\":990:1008   */\n      add\n        /* \"#utility.yul\":982:1008   */\n      swap1\n      pop\n        /* \"#utility.yul\":1018:1119   */\n      tag_151\n        /* \"#utility.yul\":1116:1117   */\n      0x00\n        /* \"#utility.yul\":1105:1114   */\n      dup4\n        /* \"#utility.yul\":1101:1118   */\n      add\n        /* \"#utility.yul\":1092:1098   */\n      dup5\n        /* \"#utility.yul\":1018:1119   */\n      tag_83\n      jump\t// in\n    tag_151:\n        /* \"#utility.yul\":844:1126   */\n      swap3\n      swap2\n      pop\n      pop\n      jump\t// out\n        /* \"#utility.yul\":1132:1207   */\n    tag_84:\n        /* \"#utility.yul\":1165:1171   */\n      0x00\n        /* \"#utility.yul\":1198:1200   */\n      0x40\n        /* \"#utility.yul\":1192:1201   */\n      mload\n        /* \"#utility.yul\":1182:1201   */\n      swap1\n      pop\n        /* \"#utility.yul\":1132:1207   */\n      swap1\n      jump\t// out\n        /* \"#utility.yul\":1213:1330   */\n    tag_85:\n        /* \"#utility.yul\":1322:1323   */\n      0x00\n        /* \"#utility.yul\":1319:1320   */\n      dup1\n        /* \"#utility.yul\":1312:1324   */\n      revert\n        /* \"#utility.yul\":1336:1453   */\n    tag_86:\n        /* \"#utility.yul\":1445:1446   */\n      0x00\n        /* \"#utility.yul\":1442:1443   */\n      dup1\n        /* \"#utility.yul\":1435:1447   */\n      revert\n        /* \"#utility.yul\":1459:1555   */\n    tag_87:\n        /* \"#utility.yul\":1496:1503   */\n      0x00\n        /* \"#utility.yul\":1525:1549   */\n      tag_156\n        /* \"#utility.yul\":1543:1548   */\n      dup3\n        /* \"#utility.yul\":1525:1549   */\n      tag_78\n      jump\t// in\n    tag_156:\n        /* \"#utility.yul\":1514:1549   */\n      swap1\n      pop\n        /* \"#utility.yul\":1459:1555   */\n      swap2\n      swap1\n      pop\n      jump\t// out\n        /* \"#utility.yul\":1561:1683   */\n    tag_88:\n        /* \"#utility.yul\":1634:1658   */\n      tag_158\n        /* \"#utility.yul\":1652:1657   */\n      dup2\n        /* \"#utility.yul\":1634:1658   */\n      tag_87\n      jump\t// in\n    tag_158:\n        /* \"#utility.yul\":1627:1632   */\n      dup2\n        /* \"#utility.yul\":1624:1659   */\n      eq\n        /* \"#utility.yul\":1614:1677   */\n      tag_159\n      jumpi\n        /* \"#utility.yul\":1673:1674   */\n      0x00\n        /* \"#utility.yul\":1670:1671   */\n      dup1\n        /* \"#utility.yul\":1663:1675   */\n      revert\n        /* \"#utility.yul\":1614:1677   */\n    tag_159:\n        /* \"#utility.yul\":1561:1683   */\n      pop\n      jump\t// out\n        /* \"#utility.yul\":1689:1828   */\n    tag_89:\n        /* \"#utility.yul\":1735:1740   */\n      0x00\n        /* \"#utility.yul\":1773:1779   */\n      dup2\n        /* \"#utility.yul\":1760:1780   */\n      calldataload\n        /* \"#utility.yul\":1751:1780   */\n      swap1\n      pop\n        /* \"#utility.yul\":1789:1822   */\n      tag_161\n        /* \"#utility.yul\":1816:1821   */\n      dup2\n        /* \"#utility.yul\":1789:1822   */\n      tag_88\n      jump\t// in\n    tag_161:\n        /* \"#utility.yul\":1689:1828   */\n      swap3\n      swap2\n      pop\n      pop\n      jump\t// out\n        /* \"#utility.yul\":1834:1911   */\n    tag_90:\n        /* \"#utility.yul\":1871:1878   */\n      0x00\n        /* \"#utility.yul\":1900:1905   */\n      dup2\n        /* \"#utility.yul\":1889:1905   */\n      swap1\n      pop\n        /* \"#utility.yul\":1834:1911   */\n      swap2\n      swap1\n      pop\n      jump\t// out\n        /* \"#utility.yul\":1917:2039   */\n    tag_91:\n        /* \"#utility.yul\":1990:2014   */\n      tag_164\n        /* \"#utility.yul\":2008:2013   */\n      dup2\n        /* \"#utility.yul\":1990:2014   */\n      tag_90\n      jump\t// in\n    tag_164:\n        /* \"#utility.yul\":1983:1988   */\n      dup2\n        /* \"#utility.yul\":1980:2015   */\n      eq\n        /* \"#utility.yul\":1970:2033   */\n      tag_165\n      jumpi\n        /* \"#utility.yul\":2029:2030   */\n      0x00\n        /* \"#utility.yul\":2026:2027   */\n      dup1\n        /* \"#utility.yul\":2019:2031   */\n      revert\n        /* \"#utility.yul\":1970:2033   */\n    tag_165:\n        /* \"#utility.yul\":1917:2039   */\n      pop\n      jump\t// out\n        /* \"#utility.yul\":2045:2184   */\n    tag_92:\n        /* \"#utility.yul\":2091:2096   */\n      0x00\n        /* \"#utility.yul\":2129:2135   */\n      dup2\n        /* \"#utility.yul\":2116:2136   */\n      calldataload\n        /* \"#utility.yul\":2107:2136   */\n      swap1\n      pop\n        /* \"#utility.yul\":2145:2178   */\n      tag_167\n        /* \"#utility.yul\":2172:2177   */\n      dup2\n        /* \"#utility.yul\":2145:2178   */\n      tag_91\n      jump\t// in\n    tag_167:\n        /* \"#utility.yul\":2045:2184   */\n      swap3\n      swap2\n      pop\n      pop\n      jump\t// out\n        /* \"#utility.yul\":2190:2307   */\n    tag_93:\n        /* \"#utility.yul\":2299:2300   */\n      0x00\n        /* \"#utility.yul\":2296:2297   */\n      dup1\n        /* \"#utility.yul\":2289:2301   */\n      revert\n        /* \"#utility.yul\":2313:2430   */\n    tag_94:\n        /* \"#utility.yul\":2422:2423   */\n      0x00\n        /* \"#utility.yul\":2419:2420   */\n      dup1\n        /* \"#utility.yul\":2412:2424   */\n      revert\n        /* \"#utility.yul\":2436:2553   */\n    tag_95:\n        /* \"#utility.yul\":2545:2546   */\n      0x00\n        /* \"#utility.yul\":2542:2543   */\n      dup1\n        /* \"#utility.yul\":2535:2547   */\n      revert\n        /* \"#utility.yul\":2572:3124   */\n    tag_96:\n        /* \"#utility.yul\":2629:2637   */\n      0x00\n        /* \"#utility.yul\":2639:2645   */\n      dup1\n        /* \"#utility.yul\":2689:2692   */\n      dup4\n        /* \"#utility.yul\":2682:2686   */\n      0x1f\n        /* \"#utility.yul\":2674:2680   */\n      dup5\n        /* \"#utility.yul\":2670:2687   */\n      add\n        /* \"#utility.yul\":2666:2693   */\n      slt\n        /* \"#utility.yul\":2656:2778   */\n      tag_172\n      jumpi\n        /* \"#utility.yul\":2697:2776   */\n      tag_173\n      tag_93\n      jump\t// in\n    tag_173:\n        /* \"#utility.yul\":2656:2778   */\n    tag_172:\n        /* \"#utility.yul\":2810:2816   */\n      dup3\n        /* \"#utility.yul\":2797:2817   */\n      calldataload\n        /* \"#utility.yul\":2787:2817   */\n      swap1\n      pop\n        /* \"#utility.yul\":2840:2858   */\n      0xffffffffffffffff\n        /* \"#utility.yul\":2832:2838   */\n      dup2\n        /* \"#utility.yul\":2829:2859   */\n      gt\n        /* \"#utility.yul\":2826:2943   */\n      iszero\n      tag_174\n      jumpi\n        /* \"#utility.yul\":2862:2941   */\n      tag_175\n      tag_94\n      jump\t// in\n    tag_175:\n        /* \"#utility.yul\":2826:2943   */\n    tag_174:\n        /* \"#utility.yul\":2976:2980   */\n      0x20\n        /* \"#utility.yul\":2968:2974   */\n      dup4\n        /* \"#utility.yul\":2964:2981   */\n      add\n        /* \"#utility.yul\":2952:2981   */\n      swap2\n      pop\n        /* \"#utility.yul\":3030:3033   */\n      dup4\n        /* \"#utility.yul\":3022:3026   */\n      0x01\n        /* \"#utility.yul\":3014:3020   */\n      dup3\n        /* \"#utility.yul\":3010:3027   */\n      mul\n        /* \"#utility.yul\":3000:3008   */\n      dup4\n        /* \"#utility.yul\":2996:3028   */\n      add\n        /* \"#utility.yul\":2993:3034   */\n      gt\n        /* \"#utility.yul\":2990:3118   */\n      iszero\n      tag_176\n      jumpi\n        /* \"#utility.yul\":3037:3116   */\n      tag_177\n      tag_95\n      jump\t// in\n    tag_177:\n        /* \"#utility.yul\":2990:3118   */\n    tag_176:\n        /* \"#utility.yul\":2572:3124   */\n      swap3\n      pop\n      swap3\n      swap1\n      pop\n      jump\t// out\n        /* \"#utility.yul\":3130:4239   */\n    tag_13:\n        /* \"#utility.yul\":3236:3242   */\n      0x00\n        /* \"#utility.yul\":3244:3250   */\n      dup1\n        /* \"#utility.yul\":3252:3258   */\n      0x00\n        /* \"#utility.yul\":3260:3266   */\n      dup1\n        /* \"#utility.yul\":3268:3274   */\n      0x00\n        /* \"#utility.yul\":3276:3282   */\n      dup1\n        /* \"#utility.yul\":3325:3328   */\n      0xa0\n        /* \"#utility.yul\":3313:3322   */\n      dup8\n        /* \"#utility.yul\":3304:3311   */\n      dup10\n        /* \"#utility.yul\":3300:3323   */\n      sub\n        /* \"#utility.yul\":3296:3329   */\n      slt\n        /* \"#utility.yul\":3293:3413   */\n      iszero\n      tag_179\n      jumpi\n        /* \"#utility.yul\":3332:3411   */\n      tag_180\n      tag_85\n      jump\t// in\n    tag_180:\n        /* \"#utility.yul\":3293:3413   */\n    tag_179:\n        /* \"#utility.yul\":3452:3453   */\n      0x00\n        /* \"#utility.yul\":3477:3530   */\n      tag_181\n        /* \"#utility.yul\":3522:3529   */\n      dup10\n        /* \"#utility.yul\":3513:3519   */\n      dup3\n        /* \"#utility.yul\":3502:3511   */\n      dup11\n        /* \"#utility.yul\":3498:3520   */\n      add\n        /* \"#utility.yul\":3477:3530   */\n      tag_89\n      jump\t// in\n    tag_181:\n        /* \"#utility.yul\":3467:3530   */\n      swap7\n      pop\n        /* \"#utility.yul\":3423:3540   */\n      pop\n        /* \"#utility.yul\":3579:3581   */\n      0x20\n        /* \"#utility.yul\":3605:3658   */\n      tag_182\n        /* \"#utility.yul\":3650:3657   */\n      dup10\n        /* \"#utility.yul\":3641:3647   */\n      dup3\n        /* \"#utility.yul\":3630:3639   */\n      dup11\n        /* \"#utility.yul\":3626:3648   */\n      add\n        /* \"#utility.yul\":3605:3658   */\n      tag_92\n      jump\t// in\n    tag_182:\n        /* \"#utility.yul\":3595:3658   */\n      swap6\n      pop\n        /* \"#utility.yul\":3550:3668   */\n      pop\n        /* \"#utility.yul\":3707:3709   */\n      0x40\n        /* \"#utility.yul\":3733:3786   */\n      tag_183\n        /* \"#utility.yul\":3778:3785   */\n      dup10\n        /* \"#utility.yul\":3769:3775   */\n      dup3\n        /* \"#utility.yul\":3758:3767   */\n      dup11\n        /* \"#utility.yul\":3754:3776   */\n      add\n        /* \"#utility.yul\":3733:3786   */\n      tag_92\n      jump\t// in\n    tag_183:\n        /* \"#utility.yul\":3723:3786   */\n      swap5\n      pop\n        /* \"#utility.yul\":3678:3796   */\n      pop\n        /* \"#utility.yul\":3835:3837   */\n      0x60\n        /* \"#utility.yul\":3861:3914   */\n      tag_184\n        /* \"#utility.yul\":3906:3913   */\n      dup10\n        /* \"#utility.yul\":3897:3903   */\n      dup3\n        /* \"#utility.yul\":3886:3895   */\n      dup11\n        /* \"#utility.yul\":3882:3904   */\n      add\n        /* \"#utility.yul\":3861:3914   */\n      tag_89\n      jump\t// in\n    tag_184:\n        /* \"#utility.yul\":3851:3914   */\n      swap4\n      pop\n        /* \"#utility.yul\":3806:3924   */\n      pop\n        /* \"#utility.yul\":3991:3994   */\n      0x80\n        /* \"#utility.yul\":3980:3989   */\n      dup8\n        /* \"#utility.yul\":3976:3995   */\n      add\n        /* \"#utility.yul\":3963:3996   */\n      calldataload\n        /* \"#utility.yul\":4023:4041   */\n      0xffffffffffffffff\n        /* \"#utility.yul\":4015:4021   */\n      dup2\n        /* \"#utility.yul\":4012:4042   */\n      gt\n        /* \"#utility.yul\":4009:4126   */\n      iszero\n      tag_185\n      jumpi\n        /* \"#utility.yul\":4045:4124   */\n      tag_186\n      tag_86\n      jump\t// in\n    tag_186:\n        /* \"#utility.yul\":4009:4126   */\n    tag_185:\n        /* \"#utility.yul\":4158:4222   */\n      tag_187\n        /* \"#utility.yul\":4214:4221   */\n      dup10\n        /* \"#utility.yul\":4205:4211   */\n      dup3\n        /* \"#utility.yul\":4194:4203   */\n      dup11\n        /* \"#utility.yul\":4190:4212   */\n      add\n        /* \"#utility.yul\":4158:4222   */\n      tag_96\n      jump\t// in\n    tag_187:\n        /* \"#utility.yul\":4140:4222   */\n      swap3\n      pop\n      swap3\n      pop\n        /* \"#utility.yul\":3934:4232   */\n      pop\n        /* \"#utility.yul\":3130:4239   */\n      swap3\n      swap6\n      pop\n      swap3\n      swap6\n      pop\n      swap3\n      swap6\n      jump\t// out\n        /* \"#utility.yul\":4245:4335   */\n    tag_97:\n        /* \"#utility.yul\":4279:4286   */\n      0x00\n        /* \"#utility.yul\":4322:4327   */\n      dup2\n        /* \"#utility.yul\":4315:4328   */\n      iszero\n        /* \"#utility.yul\":4308:4329   */\n      iszero\n        /* \"#utility.yul\":4297:4329   */\n      swap1\n      pop\n        /* \"#utility.yul\":4245:4335   */\n      swap2\n      swap1\n      pop\n      jump\t// out\n        /* \"#utility.yul\":4341:4450   */\n    tag_98:\n        /* \"#utility.yul\":4422:4443   */\n      tag_190\n        /* \"#utility.yul\":4437:4442   */\n      dup2\n        /* \"#utility.yul\":4422:4443   */\n      tag_97\n      jump\t// in\n    tag_190:\n        /* \"#utility.yul\":4417:4420   */\n      dup3\n        /* \"#utility.yul\":4410:4444   */\n      mstore\n        /* \"#utility.yul\":4341:4450   */\n      pop\n      pop\n      jump\t// out\n        /* \"#utility.yul\":4456:4666   */\n    tag_16:\n        /* \"#utility.yul\":4543:4547   */\n      0x00\n        /* \"#utility.yul\":4581:4583   */\n      0x20\n        /* \"#utility.yul\":4570:4579   */\n      dup3\n        /* \"#utility.yul\":4566:4584   */\n      add\n        /* \"#utility.yul\":4558:4584   */\n      swap1\n      pop\n        /* \"#utility.yul\":4594:4659   */\n      tag_192\n        /* \"#utility.yul\":4656:4657   */\n      0x00\n        /* \"#utility.yul\":4645:4654   */\n      dup4\n        /* \"#utility.yul\":4641:4658   */\n      add\n        /* \"#utility.yul\":4632:4638   */\n      dup5\n        /* \"#utility.yul\":4594:4659   */\n      tag_98\n      jump\t// in\n    tag_192:\n        /* \"#utility.yul\":4456:4666   */\n      swap3\n      swap2\n      pop\n      pop\n      jump\t// out\n        /* \"#utility.yul\":4672:4811   */\n    tag_99:\n        /* \"#utility.yul\":4735:4744   */\n      0x00\n        /* \"#utility.yul\":4768:4805   */\n      tag_194\n        /* \"#utility.yul\":4799:4804   */\n      dup3\n        /* \"#utility.yul\":4768:4805   */\n      tag_81\n      jump\t// in\n    tag_194:\n        /* \"#utility.yul\":4755:4805   */\n      swap1\n      pop\n        /* \"#utility.yul\":4672:4811   */\n      swap2\n      swap1\n      pop\n      jump\t// out\n        /* \"#utility.yul\":4817:4974   */\n    tag_100:\n        /* \"#utility.yul\":4917:4967   */\n      tag_196\n        /* \"#utility.yul\":4961:4966   */\n      dup2\n        /* \"#utility.yul\":4917:4967   */\n      tag_99\n      jump\t// in\n    tag_196:\n        /* \"#utility.yul\":4912:4915   */\n      dup3\n        /* \"#utility.yul\":4905:4968   */\n      mstore\n        /* \"#utility.yul\":4817:4974   */\n      pop\n      pop\n      jump\t// out\n        /* \"#utility.yul\":4980:5228   */\n    tag_20:\n        /* \"#utility.yul\":5086:5090   */\n      0x00\n        /* \"#utility.yul\":5124:5126   */\n      0x20\n        /* \"#utility.yul\":5113:5122   */\n      dup3\n        /* \"#utility.yul\":5109:5127   */\n      add\n        /* \"#utility.yul\":5101:5127   */\n      swap1\n      pop\n        /* \"#utility.yul\":5137:5221   */\n      tag_198\n        /* \"#utility.yul\":5218:5219   */\n      0x00\n        /* \"#utility.yul\":5207:5216   */\n      dup4\n        /* \"#utility.yul\":5203:5220   */\n      add\n        /* \"#utility.yul\":5194:5200   */\n      dup5\n        /* \"#utility.yul\":5137:5221   */\n      tag_100\n      jump\t// in\n    tag_198:\n        /* \"#utility.yul\":4980:5228   */\n      swap3\n      swap2\n      pop\n      pop\n      jump\t// out\n        /* \"#utility.yul\":5234:5563   */\n    tag_23:\n        /* \"#utility.yul\":5293:5299   */\n      0x00\n        /* \"#utility.yul\":5342:5344   */\n      0x20\n        /* \"#utility.yul\":5330:5339   */\n      dup3\n        /* \"#utility.yul\":5321:5328   */\n      dup5\n        /* \"#utility.yul\":5317:5340   */\n      sub\n        /* \"#utility.yul\":5313:5345   */\n      slt\n        /* \"#utility.yul\":5310:5429   */\n      iszero\n      tag_200\n      jumpi\n        /* \"#utility.yul\":5348:5427   */\n      tag_201\n      tag_85\n      jump\t// in\n    tag_201:\n        /* \"#utility.yul\":5310:5429   */\n    tag_200:\n        /* \"#utility.yul\":5468:5469   */\n      0x00\n        /* \"#utility.yul\":5493:5546   */\n      tag_202\n        /* \"#utility.yul\":5538:5545   */\n      dup5\n        /* \"#utility.yul\":5529:5535   */\n      dup3\n        /* \"#utility.yul\":5518:5527   */\n      dup6\n        /* \"#utility.yul\":5514:5536   */\n      add\n        /* \"#utility.yul\":5493:5546   */\n      tag_92\n      jump\t// in\n    tag_202:\n        /* \"#utility.yul\":5483:5546   */\n      swap2\n      pop\n        /* \"#utility.yul\":5439:5556   */\n      pop\n        /* \"#utility.yul\":5234:5563   */\n      swap3\n      swap2\n      pop\n      pop\n      jump\t// out\n        /* \"#utility.yul\":5569:5749   */\n    tag_101:\n        /* \"#utility.yul\":5617:5694   */\n      0x4e487b7100000000000000000000000000000000000000000000000000000000\n        /* \"#utility.yul\":5614:5615   */\n      0x00\n        /* \"#utility.yul\":5607:5695   */\n      mstore\n        /* \"#utility.yul\":5714:5718   */\n      0x11\n        /* \"#utility.yul\":5711:5712   */\n      0x04\n        /* \"#utility.yul\":5704:5719   */\n      mstore\n        /* \"#utility.yul\":5738:5742   */\n      0x24\n        /* \"#utility.yul\":5735:5736   */\n      0x00\n        /* \"#utility.yul\":5728:5743   */\n      revert\n        /* \"#utility.yul\":5755:6060   */\n    tag_27:\n        /* \"#utility.yul\":5795:5798   */\n      0x00\n        /* \"#utility.yul\":5814:5834   */\n      tag_205\n        /* \"#utility.yul\":5832:5833   */\n      dup3\n        /* \"#utility.yul\":5814:5834   */\n      tag_90\n      jump\t// in\n    tag_205:\n        /* \"#utility.yul\":5809:5834   */\n      swap2\n      pop\n        /* \"#utility.yul\":5848:5868   */\n      tag_206\n        /* \"#utility.yul\":5866:5867   */\n      dup4\n        /* \"#utility.yul\":5848:5868   */\n      tag_90\n      jump\t// in\n    tag_206:\n        /* \"#utility.yul\":5843:5868   */\n      swap3\n      pop\n        /* \"#utility.yul\":6002:6003   */\n      dup3\n        /* \"#utility.yul\":5934:6000   */\n      0xffffffffffffffffffffffffffffffffffffffffffffffffffffffffffffffff\n        /* \"#utility.yul\":5930:6004   */\n      sub\n        /* \"#utility.yul\":5927:5928   */\n      dup3\n        /* \"#utility.yul\":5924:6005   */\n      gt\n        /* \"#utility.yul\":5921:6028   */\n      iszero\n      tag_207\n      jumpi\n        /* \"#utility.yul\":6008:6026   */\n      tag_208\n      tag_101\n      jump\t// in\n    tag_208:\n        /* \"#utility.yul\":5921:6028   */\n    tag_207:\n        /* \"#utility.yul\":6052:6053   */\n      dup3\n        /* \"#utility.yul\":6049:6050   */\n      dup3\n        /* \"#utility.yul\":6045:6054   */\n      add\n        /* \"#utility.yul\":6038:6054   */\n      swap1\n      pop\n        /* \"#utility.yul\":5755:6060   */\n      swap3\n      swap2\n      pop\n      pop\n      jump\t// out\n        /* \"#utility.yul\":6066:6184   */\n    tag_102:\n        /* \"#utility.yul\":6153:6177   */\n      tag_210\n        /* \"#utility.yul\":6171:6176   */\n      dup2\n        /* \"#utility.yul\":6153:6177   */\n      tag_87\n      jump\t// in\n    tag_210:\n        /* \"#utility.yul\":6148:6151   */\n      dup3\n        /* \"#utility.yul\":6141:6178   */\n      mstore\n        /* \"#utility.yul\":6066:6184   */\n      pop\n      pop\n      jump\t// out\n        /* \"#utility.yul\":6190:6308   */\n    tag_103:\n        /* \"#utility.yul\":6277:6301   */\n      tag_212\n        /* \"#utility.yul\":6295:6300   */\n      dup2\n        /* \"#utility.yul\":6277:6301   */\n      tag_90\n      jump\t// in\n    tag_212:\n        /* \"#utility.yul\":6272:6275   */\n      dup3\n        /* \"#utility.yul\":6265:6302   */\n      mstore\n        /* \"#utility.yul\":6190:6308   */\n      pop\n      pop\n      jump\t// out\n        /* \"#utility.yul\":6314:6646   */\n    tag_29:\n        /* \"#utility.yul\":6435:6439   */\n      0x00\n        /* \"#utility.yul\":6473:6475   */\n      0x40\n        /* \"#utility.yul\":6462:6471   */\n      dup3\n        /* \"#utility.yul\":6458:6476   */\n      add\n        /* \"#utility.yul\":6450:6476   */\n      swap1\n      pop\n        /* \"#utility.yul\":6486:6557   */\n      tag_214\n        /* \"#utility.yul\":6554:6555   */\n      0x00\n        /* \"#utility.yul\":6543:6552   */\n      dup4\n        /* \"#utility.yul\":6539:6556   */\n      add\n        /* \"#utility.yul\":6530:6536   */\n      dup6\n        /* \"#utility.yul\":6486:6557   */\n      tag_102\n      jump\t// in\n    tag_214:\n        /* \"#utility.yul\":6567:6639   */\n      tag_215\n        /* \"#utility.yul\":6635:6637   */\n      0x20\n        /* \"#utility.yul\":6624:6633   */\n      dup4\n        /* \"#utility.yul\":6620:6638   */\n      add\n        /* \"#utility.yul\":6611:6617   */\n      dup5\n        /* \"#utility.yul\":6567:6639   */\n      tag_103\n      jump\t// in\n    tag_215:\n        /* \"#utility.yul\":6314:6646   */\n      swap4\n      swap3\n      pop\n      pop\n      pop\n      jump\t// out\n        /* \"#utility.yul\":6652:6768   */\n    tag_104:\n        /* \"#utility.yul\":6722:6743   */\n      tag_217\n        /* \"#utility.yul\":6737:6742   */\n      dup2\n        /* \"#utility.yul\":6722:6743   */\n      tag_97\n      jump\t// in\n    tag_217:\n        /* \"#utility.yul\":6715:6720   */\n      dup2\n        /* \"#utility.yul\":6712:6744   */\n      eq\n        /* \"#utility.yul\":6702:6762   */\n      tag_218\n      jumpi\n        /* \"#utility.yul\":6758:6759   */\n      0x00\n        /* \"#utility.yul\":6755:6756   */\n      dup1\n        /* \"#utility.yul\":6748:6760   */\n      revert\n        /* \"#utility.yul\":6702:6762   */\n    tag_218:\n        /* \"#utility.yul\":6652:6768   */\n      pop\n      jump\t// out\n        /* \"#utility.yul\":6774:6911   */\n    tag_105:\n        /* \"#utility.yul\":6828:6833   */\n      0x00\n        /* \"#utility.yul\":6859:6865   */\n      dup2\n        /* \"#utility.yul\":6853:6866   */\n      mload\n        /* \"#utility.yul\":6844:6866   */\n      swap1\n      pop\n        /* \"#utility.yul\":6875:6905   */\n      tag_220\n        /* \"#utility.yul\":6899:6904   */\n      dup2\n        /* \"#utility.yul\":6875:6905   */\n      tag_104\n      jump\t// in\n    tag_220:\n        /* \"#utility.yul\":6774:6911   */\n      swap3\n      swap2\n      pop\n      pop\n      jump\t// out\n        /* \"#utility.yul\":6917:7262   */\n    tag_33:\n        /* \"#utility.yul\":6984:6990   */\n      0x00\n        /* \"#utility.yul\":7033:7035   */\n      0x20\n        /* \"#utility.yul\":7021:7030   */\n      dup3\n        /* \"#utility.yul\":7012:7019   */\n      dup5\n        /* \"#utility.yul\":7008:7031   */\n      sub\n        /* \"#utility.yul\":7004:7036   */\n      slt\n        /* \"#utility.yul\":7001:7120   */\n      iszero\n      tag_222\n      jumpi\n        /* \"#utility.yul\":7039:7118   */\n      tag_223\n      tag_85\n      jump\t// in\n    tag_223:\n        /* \"#utility.yul\":7001:7120   */\n    tag_222:\n        /* \"#utility.yul\":7159:7160   */\n      0x00\n        /* \"#utility.yul\":7184:7245   */\n      tag_224\n        /* \"#utility.yul\":7237:7244   */\n      dup5\n        /* \"#utility.yul\":7228:7234   */\n      dup3\n        /* \"#utility.yul\":7217:7226   */\n      dup6\n        /* \"#utility.yul\":7213:7235   */\n      add\n        /* \"#utility.yul\":7184:7245   */\n      tag_105\n      jump\t// in\n    tag_224:\n        /* \"#utility.yul\":7174:7245   */\n      swap2\n      pop\n        /* \"#utility.yul\":7130:7255   */\n      pop\n        /* \"#utility.yul\":6917:7262   */\n      swap3\n      swap2\n      pop\n      pop\n      jump\t// out\n        /* \"#utility.yul\":7268:7448   */\n    tag_40:\n        /* \"#utility.yul\":7316:7393   */\n      0x4e487b7100000000000000000000000000000000000000000000000000000000\n        /* \"#utility.yul\":7313:7314   */\n      0x00\n        /* \"#utility.yul\":7306:7394   */\n      mstore\n        /* \"#utility.yul\":7413:7417   */\n      0x41\n        /* \"#utility.yul\":7410:7411   */\n      0x04\n        /* \"#utility.yul\":7403:7418   */\n      mstore\n        /* \"#utility.yul\":7437:7441   */\n      0x24\n        /* \"#utility.yul\":7434:7435   */\n      0x00\n        /* \"#utility.yul\":7427:7442   */\n      revert\n        /* \"#utility.yul\":7454:7634   */\n    tag_44:\n        /* \"#utility.yul\":7502:7579   */\n      0x4e487b7100000000000000000000000000000000000000000000000000000000\n        /* \"#utility.yul\":7499:7500   */\n      0x00\n        /* \"#utility.yul\":7492:7580   */\n      mstore\n        /* \"#utility.yul\":7599:7603   */\n      0x32\n        /* \"#utility.yul\":7596:7597   */\n      0x04\n        /* \"#utility.yul\":7589:7604   */\n      mstore\n        /* \"#utility.yul\":7623:7627   */\n      0x24\n        /* \"#utility.yul\":7620:7621   */\n      0x00\n        /* \"#utility.yul\":7613:7628   */\n      revert\n        /* \"#utility.yul\":7640:7725   */\n    tag_106:\n        /* \"#utility.yul\":7685:7692   */\n      0x00\n        /* \"#utility.yul\":7714:7719   */\n      dup2\n        /* \"#utility.yul\":7703:7719   */\n      swap1\n      pop\n        /* \"#utility.yul\":7640:7725   */\n      swap2\n      swap1\n      pop\n      jump\t// out\n        /* \"#utility.yul\":7731:7889   */\n    tag_107:\n        /* \"#utility.yul\":7789:7798   */\n      0x00\n        /* \"#utility.yul\":7822:7883   */\n      tag_229\n        /* \"#utility.yul\":7840:7882   */\n      tag_230\n        /* \"#utility.yul\":7849:7881   */\n      tag_231\n        /* \"#utility.yul\":7875:7880   */\n      dup5\n        /* \"#utility.yul\":7849:7881   */\n      tag_106\n      jump\t// in\n    tag_231:\n        /* \"#utility.yul\":7840:7882   */\n      tag_79\n      jump\t// in\n    tag_230:\n        /* \"#utility.yul\":7822:7883   */\n      tag_90\n      jump\t// in\n    tag_229:\n        /* \"#utility.yul\":7809:7883   */\n      swap1\n      pop\n        /* \"#utility.yul\":7731:7889   */\n      swap2\n      swap1\n      pop\n      jump\t// out\n        /* \"#utility.yul\":7895:8042   */\n    tag_108:\n        /* \"#utility.yul\":7990:8035   */\n      tag_233\n        /* \"#utility.yul\":8029:8034   */\n      dup2\n        /* \"#utility.yul\":7990:8035   */\n      tag_107\n      jump\t// in\n    tag_233:\n        /* \"#utility.yul\":7985:7988   */\n      dup3\n        /* \"#utility.yul\":7978:8036   */\n      mstore\n        /* \"#utility.yul\":7895:8042   */\n      pop\n      pop\n      jump\t// out\n        /* \"#utility.yul\":8048:8162   */\n    tag_109:\n        /* \"#utility.yul\":8115:8121   */\n      0x00\n        /* \"#utility.yul\":8149:8154   */\n      dup2\n        /* \"#utility.yul\":8143:8155   */\n      mload\n        /* \"#utility.yul\":8133:8155   */\n      swap1\n      pop\n        /* \"#utility.yul\":8048:8162   */\n      swap2\n      swap1\n      pop\n      jump\t// out\n        /* \"#utility.yul\":8168:8352   */\n    tag_110:\n        /* \"#utility.yul\":8267:8278   */\n      0x00\n        /* \"#utility.yul\":8301:8307   */\n      dup3\n        /* \"#utility.yul\":8296:8299   */\n      dup3\n        /* \"#utility.yul\":8289:8308   */\n      mstore\n        /* \"#utility.yul\":8341:8345   */\n      0x20\n        /* \"#utility.yul\":8336:8339   */\n      dup3\n        /* \"#utility.yul\":8332:8346   */\n      add\n        /* \"#utility.yul\":8317:8346   */\n      swap1\n      pop\n        /* \"#utility.yul\":8168:8352   */\n      swap3\n      swap2\n      pop\n      pop\n      jump\t// out\n        /* \"#utility.yul\":8358:8490   */\n    tag_111:\n        /* \"#utility.yul\":8425:8429   */\n      0x00\n        /* \"#utility.yul\":8448:8451   */\n      dup2\n        /* \"#utility.yul\":8440:8451   */\n      swap1\n      pop\n        /* \"#utility.yul\":8478:8482   */\n      0x20\n        /* \"#utility.yul\":8473:8476   */\n      dup3\n        /* \"#utility.yul\":8469:8483   */\n      add\n        /* \"#utility.yul\":8461:8483   */\n      swap1\n      pop\n        /* \"#utility.yul\":8358:8490   */\n      swap2\n      swap1\n      pop\n      jump\t// out\n        /* \"#utility.yul\":8496:8604   */\n    tag_112:\n        /* \"#utility.yul\":8573:8597   */\n      tag_238\n        /* \"#utility.yul\":8591:8596   */\n      dup2\n        /* \"#utility.yul\":8573:8597   */\n      tag_87\n      jump\t// in\n    tag_238:\n        /* \"#utility.yul\":8568:8571   */\n      dup3\n        /* \"#utility.yul\":8561:8598   */\n      mstore\n        /* \"#utility.yul\":8496:8604   */\n      pop\n      pop\n      jump\t// out\n        /* \"#utility.yul\":8610:8789   */\n    tag_113:\n        /* \"#utility.yul\":8679:8689   */\n      0x00\n        /* \"#utility.yul\":8700:8746   */\n      tag_240\n        /* \"#utility.yul\":8742:8745   */\n      dup4\n        /* \"#utility.yul\":8734:8740   */\n      dup4\n        /* \"#utility.yul\":8700:8746   */\n      tag_112\n      jump\t// in\n    tag_240:\n        /* \"#utility.yul\":8778:8782   */\n      0x20\n        /* \"#utility.yul\":8773:8776   */\n      dup4\n        /* \"#utility.yul\":8769:8783   */\n      add\n        /* \"#utility.yul\":8755:8783   */\n      swap1\n      pop\n        /* \"#utility.yul\":8610:8789   */\n      swap3\n      swap2\n      pop\n      pop\n      jump\t// out\n        /* \"#utility.yul\":8795:8908   */\n    tag_114:\n        /* \"#utility.yul\":8865:8869   */\n      0x00\n        /* \"#utility.yul\":8897:8901   */\n      0x20\n        /* \"#utility.yul\":8892:8895   */\n      dup3\n        /* \"#utility.yul\":8888:8902   */\n      add\n        /* \"#utility.yul\":8880:8902   */\n      swap1\n      pop\n        /* \"#utility.yul\":8795:8908   */\n      swap2\n      swap1\n      pop\n      jump\t// out\n        /* \"#utility.yul\":8944:9676   */\n    tag_115:\n        /* \"#utility.yul\":9063:9066   */\n      0x00\n        /* \"#utility.yul\":9092:9146   */\n      tag_243\n        /* \"#utility.yul\":9140:9145   */\n      dup3\n        /* \"#utility.yul\":9092:9146   */\n      tag_109\n      jump\t// in\n    tag_243:\n        /* \"#utility.yul\":9162:9248   */\n      tag_244\n        /* \"#utility.yul\":9241:9247   */\n      dup2\n        /* \"#utility.yul\":9236:9239   */\n      dup6\n        /* \"#utility.yul\":9162:9248   */\n      tag_110\n      jump\t// in\n    tag_244:\n        /* \"#utility.yul\":9155:9248   */\n      swap4\n      pop\n        /* \"#utility.yul\":9272:9328   */\n      tag_245\n        /* \"#utility.yul\":9322:9327   */\n      dup4\n        /* \"#utility.yul\":9272:9328   */\n      tag_111\n      jump\t// in\n    tag_245:\n        /* \"#utility.yul\":9351:9358   */\n      dup1\n        /* \"#utility.yul\":9382:9383   */\n      0x00\n        /* \"#utility.yul\":9367:9651   */\n    tag_246:\n        /* \"#utility.yul\":9392:9398   */\n      dup4\n        /* \"#utility.yul\":9389:9390   */\n      dup2\n        /* \"#utility.yul\":9386:9399   */\n      lt\n        /* \"#utility.yul\":9367:9651   */\n      iszero\n      tag_248\n      jumpi\n        /* \"#utility.yul\":9468:9474   */\n      dup2\n        /* \"#utility.yul\":9462:9475   */\n      mload\n        /* \"#utility.yul\":9495:9558   */\n      tag_249\n        /* \"#utility.yul\":9554:9557   */\n      dup9\n        /* \"#utility.yul\":9539:9552   */\n      dup3\n        /* \"#utility.yul\":9495:9558   */\n      tag_113\n      jump\t// in\n    tag_249:\n        /* \"#utility.yul\":9488:9558   */\n      swap8\n      pop\n        /* \"#utility.yul\":9581:9641   */\n      tag_250\n        /* \"#utility.yul\":9634:9640   */\n      dup4\n        /* \"#utility.yul\":9581:9641   */\n      tag_114\n      jump\t// in\n    tag_250:\n        /* \"#utility.yul\":9571:9641   */\n      swap3\n      pop\n        /* \"#utility.yul\":9427:9651   */\n      pop\n        /* \"#utility.yul\":9414:9415   */\n      0x01\n        /* \"#utility.yul\":9411:9412   */\n      dup2\n        /* \"#utility.yul\":9407:9416   */\n      add\n        /* \"#utility.yul\":9402:9416   */\n      swap1\n      pop\n        /* \"#utility.yul\":9367:9651   */\n      jump(tag_246)\n    tag_248:\n        /* \"#utility.yul\":9371:9385   */\n      pop\n        /* \"#utility.yul\":9667:9670   */\n      dup6\n        /* \"#utility.yul\":9660:9670   */\n      swap4\n      pop\n        /* \"#utility.yul\":9068:9676   */\n      pop\n      pop\n      pop\n        /* \"#utility.yul\":8944:9676   */\n      swap3\n      swap2\n      pop\n      pop\n      jump\t// out\n        /* \"#utility.yul\":9682:10513   */\n    tag_48:\n        /* \"#utility.yul\":9945:9949   */\n      0x00\n        /* \"#utility.yul\":9983:9986   */\n      0xa0\n        /* \"#utility.yul\":9972:9981   */\n      dup3\n        /* \"#utility.yul\":9968:9987   */\n      add\n        /* \"#utility.yul\":9960:9987   */\n      swap1\n      pop\n        /* \"#utility.yul\":9997:10068   */\n      tag_252\n        /* \"#utility.yul\":10065:10066   */\n      0x00\n        /* \"#utility.yul\":10054:10063   */\n      dup4\n        /* \"#utility.yul\":10050:10067   */\n      add\n        /* \"#utility.yul\":10041:10047   */\n      dup9\n        /* \"#utility.yul\":9997:10068   */\n      tag_103\n      jump\t// in\n    tag_252:\n        /* \"#utility.yul\":10078:10158   */\n      tag_253\n        /* \"#utility.yul\":10154:10156   */\n      0x20\n        /* \"#utility.yul\":10143:10152   */\n      dup4\n        /* \"#utility.yul\":10139:10157   */\n      add\n        /* \"#utility.yul\":10130:10136   */\n      dup8\n        /* \"#utility.yul\":10078:10158   */\n      tag_108\n      jump\t// in\n    tag_253:\n        /* \"#utility.yul\":10205:10214   */\n      dup2\n        /* \"#utility.yul\":10199:10203   */\n      dup2\n        /* \"#utility.yul\":10195:10215   */\n      sub\n        /* \"#utility.yul\":10190:10192   */\n      0x40\n        /* \"#utility.yul\":10179:10188   */\n      dup4\n        /* \"#utility.yul\":10175:10193   */\n      add\n        /* \"#utility.yul\":10168:10216   */\n      mstore\n        /* \"#utility.yul\":10233:10341   */\n      tag_254\n        /* \"#utility.yul\":10336:10340   */\n      dup2\n        /* \"#utility.yul\":10327:10333   */\n      dup7\n        /* \"#utility.yul\":10233:10341   */\n      tag_115\n      jump\t// in\n    tag_254:\n        /* \"#utility.yul\":10225:10341   */\n      swap1\n      pop\n        /* \"#utility.yul\":10351:10423   */\n      tag_255\n        /* \"#utility.yul\":10419:10421   */\n      0x60\n        /* \"#utility.yul\":10408:10417   */\n      dup4\n        /* \"#utility.yul\":10404:10422   */\n      add\n        /* \"#utility.yul\":10395:10401   */\n      dup6\n        /* \"#utility.yul\":10351:10423   */\n      tag_102\n      jump\t// in\n    tag_255:\n        /* \"#utility.yul\":10433:10506   */\n      tag_256\n        /* \"#utility.yul\":10501:10504   */\n      0x80\n        /* \"#utility.yul\":10490:10499   */\n      dup4\n        /* \"#utility.yul\":10486:10505   */\n      add\n        /* \"#utility.yul\":10477:10483   */\n      dup5\n        /* \"#utility.yul\":10433:10506   */\n      tag_103\n      jump\t// in\n    tag_256:\n        /* \"#utility.yul\":9682:10513   */\n      swap7\n      swap6\n      pop\n      pop\n      pop\n      pop\n      pop\n      pop\n      jump\t// out\n        /* \"#utility.yul\":10519:10621   */\n    tag_116:\n        /* \"#utility.yul\":10560:10566   */\n      0x00\n        /* \"#utility.yul\":10611:10613   */\n      0x1f\n        /* \"#utility.yul\":10607:10614   */\n      not\n        /* \"#utility.yul\":10602:10604   */\n      0x1f\n        /* \"#utility.yul\":10595:10600   */\n      dup4\n        /* \"#utility.yul\":10591:10605   */\n      add\n        /* \"#utility.yul\":10587:10615   */\n      and\n        /* \"#utility.yul\":10577:10615   */\n      swap1\n      pop\n        /* \"#utility.yul\":10519:10621   */\n      swap2\n      swap1\n      pop\n      jump\t// out\n        /* \"#utility.yul\":10627:10908   */\n    tag_117:\n        /* \"#utility.yul\":10710:10737   */\n      tag_259\n        /* \"#utility.yul\":10732:10736   */\n      dup3\n        /* \"#utility.yul\":10710:10737   */\n      tag_116\n      jump\t// in\n    tag_259:\n        /* \"#utility.yul\":10702:10708   */\n      dup2\n        /* \"#utility.yul\":10698:10738   */\n      add\n        /* \"#utility.yul\":10840:10846   */\n      dup2\n        /* \"#utility.yul\":10828:10838   */\n      dup2\n        /* \"#utility.yul\":10825:10847   */\n      lt\n        /* \"#utility.yul\":10804:10822   */\n      0xffffffffffffffff\n        /* \"#utility.yul\":10792:10802   */\n      dup3\n        /* \"#utility.yul\":10789:10823   */\n      gt\n        /* \"#utility.yul\":10786:10848   */\n      or\n        /* \"#utility.yul\":10783:10871   */\n      iszero\n      tag_260\n      jumpi\n        /* \"#utility.yul\":10851:10869   */\n      tag_261\n      tag_40\n      jump\t// in\n    tag_261:\n        /* \"#utility.yul\":10783:10871   */\n    tag_260:\n        /* \"#utility.yul\":10891:10901   */\n      dup1\n        /* \"#utility.yul\":10887:10889   */\n      0x40\n        /* \"#utility.yul\":10880:10902   */\n      mstore\n        /* \"#utility.yul\":10670:10908   */\n      pop\n        /* \"#utility.yul\":10627:10908   */\n      pop\n      pop\n      jump\t// out\n        /* \"#utility.yul\":10914:11043   */\n    tag_118:\n        /* \"#utility.yul\":10948:10954   */\n      0x00\n        /* \"#utility.yul\":10975:10995   */\n      tag_263\n      tag_84\n      jump\t// in\n    tag_263:\n        /* \"#utility.yul\":10965:10995   */\n      swap1\n      pop\n        /* \"#utility.yul\":11004:11037   */\n      tag_264\n        /* \"#utility.yul\":11032:11036   */\n      dup3\n        /* \"#utility.yul\":11024:11030   */\n      dup3\n        /* \"#utility.yul\":11004:11037   */\n      tag_117\n      jump\t// in\n    tag_264:\n        /* \"#utility.yul\":10914:11043   */\n      swap2\n      swap1\n      pop\n      jump\t// out\n        /* \"#utility.yul\":11049:11360   */\n    tag_119:\n        /* \"#utility.yul\":11126:11130   */\n      0x00\n        /* \"#utility.yul\":11216:11234   */\n      0xffffffffffffffff\n        /* \"#utility.yul\":11208:11214   */\n      dup3\n        /* \"#utility.yul\":11205:11235   */\n      gt\n        /* \"#utility.yul\":11202:11258   */\n      iszero\n      tag_266\n      jumpi\n        /* \"#utility.yul\":11238:11256   */\n      tag_267\n      tag_40\n      jump\t// in\n    tag_267:\n        /* \"#utility.yul\":11202:11258   */\n    tag_266:\n        /* \"#utility.yul\":11288:11292   */\n      0x20\n        /* \"#utility.yul\":11280:11286   */\n      dup3\n        /* \"#utility.yul\":11276:11293   */\n      mul\n        /* \"#utility.yul\":11268:11293   */\n      swap1\n      pop\n        /* \"#utility.yul\":11348:11352   */\n      0x20\n        /* \"#utility.yul\":11342:11346   */\n      dup2\n        /* \"#utility.yul\":11338:11353   */\n      add\n        /* \"#utility.yul\":11330:11353   */\n      swap1\n      pop\n        /* \"#utility.yul\":11049:11360   */\n      swap2\n      swap1\n      pop\n      jump\t// out\n        /* \"#utility.yul\":11366:11509   */\n    tag_120:\n        /* \"#utility.yul\":11423:11428   */\n      0x00\n        /* \"#utility.yul\":11454:11460   */\n      dup2\n        /* \"#utility.yul\":11448:11461   */\n      mload\n        /* \"#utility.yul\":11439:11461   */\n      swap1\n      pop\n        /* \"#utility.yul\":11470:11503   */\n      tag_269\n        /* \"#utility.yul\":11497:11502   */\n      dup2\n        /* \"#utility.yul\":11470:11503   */\n      tag_91\n      jump\t// in\n    tag_269:\n        /* \"#utility.yul\":11366:11509   */\n      swap3\n      swap2\n      pop\n      pop\n      jump\t// out\n        /* \"#utility.yul\":11532:12264   */\n    tag_121:\n        /* \"#utility.yul\":11639:11644   */\n      0x00\n        /* \"#utility.yul\":11664:11745   */\n      tag_271\n        /* \"#utility.yul\":11680:11744   */\n      tag_272\n        /* \"#utility.yul\":11737:11743   */\n      dup5\n        /* \"#utility.yul\":11680:11744   */\n      tag_119\n      jump\t// in\n    tag_272:\n        /* \"#utility.yul\":11664:11745   */\n      tag_118\n      jump\t// in\n    tag_271:\n        /* \"#utility.yul\":11655:11745   */\n      swap1\n      pop\n        /* \"#utility.yul\":11765:11770   */\n      dup1\n        /* \"#utility.yul\":11794:11800   */\n      dup4\n        /* \"#utility.yul\":11787:11792   */\n      dup3\n        /* \"#utility.yul\":11780:11801   */\n      mstore\n        /* \"#utility.yul\":11828:11832   */\n      0x20\n        /* \"#utility.yul\":11821:11826   */\n      dup3\n        /* \"#utility.yul\":11817:11833   */\n      add\n        /* \"#utility.yul\":11810:11833   */\n      swap1\n      pop\n        /* \"#utility.yul\":11881:11885   */\n      0x20\n        /* \"#utility.yul\":11873:11879   */\n      dup5\n        /* \"#utility.yul\":11869:11886   */\n      mul\n        /* \"#utility.yul\":11861:11867   */\n      dup4\n        /* \"#utility.yul\":11857:11887   */\n      add\n        /* \"#utility.yul\":11910:11913   */\n      dup6\n        /* \"#utility.yul\":11902:11908   */\n      dup2\n        /* \"#utility.yul\":11899:11914   */\n      gt\n        /* \"#utility.yul\":11896:12018   */\n      iszero\n      tag_273\n      jumpi\n        /* \"#utility.yul\":11929:12008   */\n      tag_274\n      tag_95\n      jump\t// in\n    tag_274:\n        /* \"#utility.yul\":11896:12018   */\n    tag_273:\n        /* \"#utility.yul\":12044:12050   */\n      dup4\n        /* \"#utility.yul\":12027:12258   */\n    tag_275:\n        /* \"#utility.yul\":12061:12067   */\n      dup2\n        /* \"#utility.yul\":12056:12059   */\n      dup2\n        /* \"#utility.yul\":12053:12068   */\n      lt\n        /* \"#utility.yul\":12027:12258   */\n      iszero\n      tag_277\n      jumpi\n        /* \"#utility.yul\":12136:12139   */\n      dup1\n        /* \"#utility.yul\":12165:12213   */\n      tag_278\n        /* \"#utility.yul\":12209:12212   */\n      dup9\n        /* \"#utility.yul\":12197:12207   */\n      dup3\n        /* \"#utility.yul\":12165:12213   */\n      tag_120\n      jump\t// in\n    tag_278:\n        /* \"#utility.yul\":12160:12163   */\n      dup5\n        /* \"#utility.yul\":12153:12214   */\n      mstore\n        /* \"#utility.yul\":12243:12247   */\n      0x20\n        /* \"#utility.yul\":12238:12241   */\n      dup5\n        /* \"#utility.yul\":12234:12248   */\n      add\n        /* \"#utility.yul\":12227:12248   */\n      swap4\n      pop\n        /* \"#utility.yul\":12103:12258   */\n      pop\n        /* \"#utility.yul\":12087:12091   */\n      0x20\n        /* \"#utility.yul\":12082:12085   */\n      dup2\n        /* \"#utility.yul\":12078:12092   */\n      add\n        /* \"#utility.yul\":12071:12092   */\n      swap1\n      pop\n        /* \"#utility.yul\":12027:12258   */\n      jump(tag_275)\n    tag_277:\n        /* \"#utility.yul\":12031:12052   */\n      pop\n        /* \"#utility.yul\":11645:12264   */\n      pop\n      pop\n        /* \"#utility.yul\":11532:12264   */\n      swap4\n      swap3\n      pop\n      pop\n      pop\n      jump\t// out\n        /* \"#utility.yul\":12287:12672   */\n    tag_122:\n        /* \"#utility.yul\":12369:12374   */\n      0x00\n        /* \"#utility.yul\":12418:12421   */\n      dup3\n        /* \"#utility.yul\":12411:12415   */\n      0x1f\n        /* \"#utility.yul\":12403:12409   */\n      dup4\n        /* \"#utility.yul\":12399:12416   */\n      add\n        /* \"#utility.yul\":12395:12422   */\n      slt\n        /* \"#utility.yul\":12385:12507   */\n      tag_280\n      jumpi\n        /* \"#utility.yul\":12426:12505   */\n      tag_281\n      tag_93\n      jump\t// in\n    tag_281:\n        /* \"#utility.yul\":12385:12507   */\n    tag_280:\n        /* \"#utility.yul\":12536:12542   */\n      dup2\n        /* \"#utility.yul\":12530:12543   */\n      mload\n        /* \"#utility.yul\":12561:12666   */\n      tag_282\n        /* \"#utility.yul\":12662:12665   */\n      dup5\n        /* \"#utility.yul\":12654:12660   */\n      dup3\n        /* \"#utility.yul\":12647:12651   */\n      0x20\n        /* \"#utility.yul\":12639:12645   */\n      dup7\n        /* \"#utility.yul\":12635:12652   */\n      add\n        /* \"#utility.yul\":12561:12666   */\n      tag_121\n      jump\t// in\n    tag_282:\n        /* \"#utility.yul\":12552:12666   */\n      swap2\n      pop\n        /* \"#utility.yul\":12375:12672   */\n      pop\n        /* \"#utility.yul\":12287:12672   */\n      swap3\n      swap2\n      pop\n      pop\n      jump\t// out\n        /* \"#utility.yul\":12678:13232   */\n    tag_52:\n        /* \"#utility.yul\":12773:12779   */\n      0x00\n        /* \"#utility.yul\":12822:12824   */\n      0x20\n        /* \"#utility.yul\":12810:12819   */\n      dup3\n        /* \"#utility.yul\":12801:12808   */\n      dup5\n        /* \"#utility.yul\":12797:12820   */\n      sub\n        /* \"#utility.yul\":12793:12825   */\n      slt\n        /* \"#utility.yul\":12790:12909   */\n      iszero\n      tag_284\n      jumpi\n        /* \"#utility.yul\":12828:12907   */\n      tag_285\n      tag_85\n      jump\t// in\n    tag_285:\n        /* \"#utility.yul\":12790:12909   */\n    tag_284:\n        /* \"#utility.yul\":12969:12970   */\n      0x00\n        /* \"#utility.yul\":12958:12967   */\n      dup3\n        /* \"#utility.yul\":12954:12971   */\n      add\n        /* \"#utility.yul\":12948:12972   */\n      mload\n        /* \"#utility.yul\":12999:13017   */\n      0xffffffffffffffff\n        /* \"#utility.yul\":12991:12997   */\n      dup2\n        /* \"#utility.yul\":12988:13018   */\n      gt\n        /* \"#utility.yul\":12985:13102   */\n      iszero\n      tag_286\n      jumpi\n        /* \"#utility.yul\":13021:13100   */\n      tag_287\n      tag_86\n      jump\t// in\n    tag_287:\n        /* \"#utility.yul\":12985:13102   */\n    tag_286:\n        /* \"#utility.yul\":13126:13215   */\n      tag_288\n        /* \"#utility.yul\":13207:13214   */\n      dup5\n        /* \"#utility.yul\":13198:13204   */\n      dup3\n        /* \"#utility.yul\":13187:13196   */\n      dup6\n        /* \"#utility.yul\":13183:13205   */\n      add\n        /* \"#utility.yul\":13126:13215   */\n      tag_122\n      jump\t// in\n    tag_288:\n        /* \"#utility.yul\":13116:13215   */\n      swap2\n      pop\n        /* \"#utility.yul\":12919:13225   */\n      pop\n        /* \"#utility.yul\":12678:13232   */\n      swap3\n      swap2\n      pop\n      pop\n      jump\t// out\n        /* \"#utility.yul\":13238:13329   */\n    tag_123:\n        /* \"#utility.yul\":13274:13281   */\n      0x00\n        /* \"#utility.yul\":13314:13322   */\n      0xffffff\n        /* \"#utility.yul\":13307:13312   */\n      dup3\n        /* \"#utility.yul\":13303:13323   */\n      and\n        /* \"#utility.yul\":13292:13323   */\n      swap1\n      pop\n        /* \"#utility.yul\":13238:13329   */\n      swap2\n      swap1\n      pop\n      jump\t// out\n        /* \"#utility.yul\":13335:13440   */\n    tag_124:\n        /* \"#utility.yul\":13410:13433   */\n      tag_291\n        /* \"#utility.yul\":13427:13432   */\n      dup2\n        /* \"#utility.yul\":13410:13433   */\n      tag_123\n      jump\t// in\n    tag_291:\n        /* \"#utility.yul\":13405:13408   */\n      dup3\n        /* \"#utility.yul\":13398:13434   */\n      mstore\n        /* \"#utility.yul\":13335:13440   */\n      pop\n      pop\n      jump\t// out\n        /* \"#utility.yul\":13446:13554   */\n    tag_125:\n        /* \"#utility.yul\":13523:13547   */\n      tag_293\n        /* \"#utility.yul\":13541:13546   */\n      dup2\n        /* \"#utility.yul\":13523:13547   */\n      tag_90\n      jump\t// in\n    tag_293:\n        /* \"#utility.yul\":13518:13521   */\n      dup3\n        /* \"#utility.yul\":13511:13548   */\n      mstore\n        /* \"#utility.yul\":13446:13554   */\n      pop\n      pop\n      jump\t// out\n        /* \"#utility.yul\":13560:13668   */\n    tag_126:\n        /* \"#utility.yul\":13637:13661   */\n      tag_295\n        /* \"#utility.yul\":13655:13660   */\n      dup2\n        /* \"#utility.yul\":13637:13661   */\n      tag_78\n      jump\t// in\n    tag_295:\n        /* \"#utility.yul\":13632:13635   */\n      dup3\n        /* \"#utility.yul\":13625:13662   */\n      mstore\n        /* \"#utility.yul\":13560:13668   */\n      pop\n      pop\n      jump\t// out\n        /* \"#utility.yul\":13772:15217   */\n    tag_127:\n        /* \"#utility.yul\":13949:13953   */\n      0xe0\n        /* \"#utility.yul\":13944:13947   */\n      dup3\n        /* \"#utility.yul\":13940:13954   */\n      add\n        /* \"#utility.yul\":14039:14043   */\n      0x00\n        /* \"#utility.yul\":14032:14037   */\n      dup3\n        /* \"#utility.yul\":14028:14044   */\n      add\n        /* \"#utility.yul\":14022:14045   */\n      mload\n        /* \"#utility.yul\":14058:14121   */\n      tag_297\n        /* \"#utility.yul\":14115:14119   */\n      0x00\n        /* \"#utility.yul\":14110:14113   */\n      dup6\n        /* \"#utility.yul\":14106:14120   */\n      add\n        /* \"#utility.yul\":14092:14104   */\n      dup3\n        /* \"#utility.yul\":14058:14121   */\n      tag_112\n      jump\t// in\n    tag_297:\n        /* \"#utility.yul\":13964:14131   */\n      pop\n        /* \"#utility.yul\":14217:14221   */\n      0x20\n        /* \"#utility.yul\":14210:14215   */\n      dup3\n        /* \"#utility.yul\":14206:14222   */\n      add\n        /* \"#utility.yul\":14200:14223   */\n      mload\n        /* \"#utility.yul\":14236:14299   */\n      tag_298\n        /* \"#utility.yul\":14293:14297   */\n      0x20\n        /* \"#utility.yul\":14288:14291   */\n      dup6\n        /* \"#utility.yul\":14284:14298   */\n      add\n        /* \"#utility.yul\":14270:14282   */\n      dup3\n        /* \"#utility.yul\":14236:14299   */\n      tag_112\n      jump\t// in\n    tag_298:\n        /* \"#utility.yul\":14141:14309   */\n      pop\n        /* \"#utility.yul\":14390:14394   */\n      0x40\n        /* \"#utility.yul\":14383:14388   */\n      dup3\n        /* \"#utility.yul\":14379:14395   */\n      add\n        /* \"#utility.yul\":14373:14396   */\n      mload\n        /* \"#utility.yul\":14409:14470   */\n      tag_299\n        /* \"#utility.yul\":14464:14468   */\n      0x40\n        /* \"#utility.yul\":14459:14462   */\n      dup6\n        /* \"#utility.yul\":14455:14469   */\n      add\n        /* \"#utility.yul\":14441:14453   */\n      dup3\n        /* \"#utility.yul\":14409:14470   */\n      tag_124\n      jump\t// in\n    tag_299:\n        /* \"#utility.yul\":14319:14480   */\n      pop\n        /* \"#utility.yul\":14567:14571   */\n      0x60\n        /* \"#utility.yul\":14560:14565   */\n      dup3\n        /* \"#utility.yul\":14556:14572   */\n      add\n        /* \"#utility.yul\":14550:14573   */\n      mload\n        /* \"#utility.yul\":14586:14649   */\n      tag_300\n        /* \"#utility.yul\":14643:14647   */\n      0x60\n        /* \"#utility.yul\":14638:14641   */\n      dup6\n        /* \"#utility.yul\":14634:14648   */\n      add\n        /* \"#utility.yul\":14620:14632   */\n      dup3\n        /* \"#utility.yul\":14586:14649   */\n      tag_112\n      jump\t// in\n    tag_300:\n        /* \"#utility.yul\":14490:14659   */\n      pop\n        /* \"#utility.yul\":14745:14749   */\n      0x80\n        /* \"#utility.yul\":14738:14743   */\n      dup3\n        /* \"#utility.yul\":14734:14750   */\n      add\n        /* \"#utility.yul\":14728:14751   */\n      mload\n        /* \"#utility.yul\":14764:14827   */\n      tag_301\n        /* \"#utility.yul\":14821:14825   */\n      0x80\n        /* \"#utility.yul\":14816:14819   */\n      dup6\n        /* \"#utility.yul\":14812:14826   */\n      add\n        /* \"#utility.yul\":14798:14810   */\n      dup3\n        /* \"#utility.yul\":14764:14827   */\n      tag_125\n      jump\t// in\n    tag_301:\n        /* \"#utility.yul\":14669:14837   */\n      pop\n        /* \"#utility.yul\":14931:14935   */\n      0xa0\n        /* \"#utility.yul\":14924:14929   */\n      dup3\n        /* \"#utility.yul\":14920:14936   */\n      add\n        /* \"#utility.yul\":14914:14937   */\n      mload\n        /* \"#utility.yul\":14950:15013   */\n      tag_302\n        /* \"#utility.yul\":15007:15011   */\n      0xa0\n        /* \"#utility.yul\":15002:15005   */\n      dup6\n        /* \"#utility.yul\":14998:15012   */\n      add\n        /* \"#utility.yul\":14984:14996   */\n      dup3\n        /* \"#utility.yul\":14950:15013   */\n      tag_125\n      jump\t// in\n    tag_302:\n        /* \"#utility.yul\":14847:15023   */\n      pop\n        /* \"#utility.yul\":15118:15122   */\n      0xc0\n        /* \"#utility.yul\":15111:15116   */\n      dup3\n        /* \"#utility.yul\":15107:15123   */\n      add\n        /* \"#utility.yul\":15101:15124   */\n      mload\n        /* \"#utility.yul\":15137:15200   */\n      tag_303\n        /* \"#utility.yul\":15194:15198   */\n      0xc0\n        /* \"#utility.yul\":15189:15192   */\n      dup6\n        /* \"#utility.yul\":15185:15199   */\n      add\n        /* \"#utility.yul\":15171:15183   */\n      dup3\n        /* \"#utility.yul\":15137:15200   */\n      tag_126\n      jump\t// in\n    tag_303:\n        /* \"#utility.yul\":15033:15210   */\n      pop\n        /* \"#utility.yul\":13918:15217   */\n      pop\n        /* \"#utility.yul\":13772:15217   */\n      pop\n      pop\n      jump\t// out\n        /* \"#utility.yul\":15223:15606   */\n    tag_56:\n        /* \"#utility.yul\":15396:15400   */\n      0x00\n        /* \"#utility.yul\":15434:15437   */\n      0xe0\n        /* \"#utility.yul\":15423:15432   */\n      dup3\n        /* \"#utility.yul\":15419:15438   */\n      add\n        /* \"#utility.yul\":15411:15438   */\n      swap1\n      pop\n        /* \"#utility.yul\":15448:15599   */\n      tag_305\n        /* \"#utility.yul\":15596:15597   */\n      0x00\n        /* \"#utility.yul\":15585:15594   */\n      dup4\n        /* \"#utility.yul\":15581:15598   */\n      add\n        /* \"#utility.yul\":15572:15578   */\n      dup5\n        /* \"#utility.yul\":15448:15599   */\n      tag_127\n      jump\t// in\n    tag_305:\n        /* \"#utility.yul\":15223:15606   */\n      swap3\n      swap2\n      pop\n      pop\n      jump\t// out\n        /* \"#utility.yul\":15612:15963   */\n    tag_60:\n        /* \"#utility.yul\":15682:15688   */\n      0x00\n        /* \"#utility.yul\":15731:15733   */\n      0x20\n        /* \"#utility.yul\":15719:15728   */\n      dup3\n        /* \"#utility.yul\":15710:15717   */\n      dup5\n        /* \"#utility.yul\":15706:15729   */\n      sub\n        /* \"#utility.yul\":15702:15734   */\n      slt\n        /* \"#utility.yul\":15699:15818   */\n      iszero\n      tag_307\n      jumpi\n        /* \"#utility.yul\":15737:15816   */\n      tag_308\n      tag_85\n      jump\t// in\n    tag_308:\n        /* \"#utility.yul\":15699:15818   */\n    tag_307:\n        /* \"#utility.yul\":15857:15858   */\n      0x00\n        /* \"#utility.yul\":15882:15946   */\n      tag_309\n        /* \"#utility.yul\":15938:15945   */\n      dup5\n        /* \"#utility.yul\":15929:15935   */\n      dup3\n        /* \"#utility.yul\":15918:15927   */\n      dup6\n        /* \"#utility.yul\":15914:15936   */\n      add\n        /* \"#utility.yul\":15882:15946   */\n      tag_120\n      jump\t// in\n    tag_309:\n        /* \"#utility.yul\":15872:15946   */\n      swap2\n      pop\n        /* \"#utility.yul\":15828:15956   */\n      pop\n        /* \"#utility.yul\":15612:15963   */\n      swap3\n      swap2\n      pop\n      pop\n      jump\t// out\n        /* \"#utility.yul\":15969:16054   */\n    tag_128:\n        /* \"#utility.yul\":16014:16021   */\n      0x00\n        /* \"#utility.yul\":16043:16048   */\n      dup2\n        /* \"#utility.yul\":16032:16048   */\n      swap1\n      pop\n        /* \"#utility.yul\":15969:16054   */\n      swap2\n      swap1\n      pop\n      jump\t// out\n        /* \"#utility.yul\":16060:16218   */\n    tag_129:\n        /* \"#utility.yul\":16118:16127   */\n      0x00\n        /* \"#utility.yul\":16151:16212   */\n      tag_312\n        /* \"#utility.yul\":16169:16211   */\n      tag_313\n        /* \"#utility.yul\":16178:16210   */\n      tag_314\n        /* \"#utility.yul\":16204:16209   */\n      dup5\n        /* \"#utility.yul\":16178:16210   */\n      tag_128\n      jump\t// in\n    tag_314:\n        /* \"#utility.yul\":16169:16211   */\n      tag_79\n      jump\t// in\n    tag_313:\n        /* \"#utility.yul\":16151:16212   */\n      tag_90\n      jump\t// in\n    tag_312:\n        /* \"#utility.yul\":16138:16212   */\n      swap1\n      pop\n        /* \"#utility.yul\":16060:16218   */\n      swap2\n      swap1\n      pop\n      jump\t// out\n        /* \"#utility.yul\":16224:16371   */\n    tag_130:\n        /* \"#utility.yul\":16319:16364   */\n      tag_316\n        /* \"#utility.yul\":16358:16363   */\n      dup2\n        /* \"#utility.yul\":16319:16364   */\n      tag_129\n      jump\t// in\n    tag_316:\n        /* \"#utility.yul\":16314:16317   */\n      dup3\n        /* \"#utility.yul\":16307:16365   */\n      mstore\n        /* \"#utility.yul\":16224:16371   */\n      pop\n      pop\n      jump\t// out\n        /* \"#utility.yul\":16377:16725   */\n    tag_68:\n        /* \"#utility.yul\":16506:16510   */\n      0x00\n        /* \"#utility.yul\":16544:16546   */\n      0x40\n        /* \"#utility.yul\":16533:16542   */\n      dup3\n        /* \"#utility.yul\":16529:16547   */\n      add\n        /* \"#utility.yul\":16521:16547   */\n      swap1\n      pop\n        /* \"#utility.yul\":16557:16628   */\n      tag_318\n        /* \"#utility.yul\":16625:16626   */\n      0x00\n        /* \"#utility.yul\":16614:16623   */\n      dup4\n        /* \"#utility.yul\":16610:16627   */\n      add\n        /* \"#utility.yul\":16601:16607   */\n      dup6\n        /* \"#utility.yul\":16557:16628   */\n      tag_102\n      jump\t// in\n    tag_318:\n        /* \"#utility.yul\":16638:16718   */\n      tag_319\n        /* \"#utility.yul\":16714:16716   */\n      0x20\n        /* \"#utility.yul\":16703:16712   */\n      dup4\n        /* \"#utility.yul\":16699:16717   */\n      add\n        /* \"#utility.yul\":16690:16696   */\n      dup5\n        /* \"#utility.yul\":16638:16718   */\n      tag_130\n      jump\t// in\n    tag_319:\n        /* \"#utility.yul\":16377:16725   */\n      swap4\n      swap3\n      pop\n      pop\n      pop\n      jump\t// out\n        /* \"#utility.yul\":16731:16829   */\n    tag_131:\n        /* \"#utility.yul\":16782:16788   */\n      0x00\n        /* \"#utility.yul\":16816:16821   */\n      dup2\n        /* \"#utility.yul\":16810:16822   */\n      mload\n        /* \"#utility.yul\":16800:16822   */\n      swap1\n      pop\n        /* \"#utility.yul\":16731:16829   */\n      swap2\n      swap1\n      pop\n      jump\t// out\n        /* \"#utility.yul\":16835:17003   */\n    tag_132:\n        /* \"#utility.yul\":16918:16929   */\n      0x00\n        /* \"#utility.yul\":16952:16958   */\n      dup3\n        /* \"#utility.yul\":16947:16950   */\n      dup3\n        /* \"#utility.yul\":16940:16959   */\n      mstore\n        /* \"#utility.yul\":16992:16996   */\n      0x20\n        /* \"#utility.yul\":16987:16990   */\n      dup3\n        /* \"#utility.yul\":16983:16997   */\n      add\n        /* \"#utility.yul\":16968:16997   */\n      swap1\n      pop\n        /* \"#utility.yul\":16835:17003   */\n      swap3\n      swap2\n      pop\n      pop\n      jump\t// out\n        /* \"#utility.yul\":17009:17316   */\n    tag_133:\n        /* \"#utility.yul\":17077:17078   */\n      0x00\n        /* \"#utility.yul\":17087:17200   */\n    tag_323:\n        /* \"#utility.yul\":17101:17107   */\n      dup4\n        /* \"#utility.yul\":17098:17099   */\n      dup2\n        /* \"#utility.yul\":17095:17108   */\n      lt\n        /* \"#utility.yul\":17087:17200   */\n      iszero\n      tag_325\n      jumpi\n        /* \"#utility.yul\":17186:17187   */\n      dup1\n        /* \"#utility.yul\":17181:17184   */\n      dup3\n        /* \"#utility.yul\":17177:17188   */\n      add\n        /* \"#utility.yul\":17171:17189   */\n      mload\n        /* \"#utility.yul\":17167:17168   */\n      dup2\n        /* \"#utility.yul\":17162:17165   */\n      dup5\n        /* \"#utility.yul\":17158:17169   */\n      add\n        /* \"#utility.yul\":17151:17190   */\n      mstore\n        /* \"#utility.yul\":17123:17125   */\n      0x20\n        /* \"#utility.yul\":17120:17121   */\n      dup2\n        /* \"#utility.yul\":17116:17126   */\n      add\n        /* \"#utility.yul\":17111:17126   */\n      swap1\n      pop\n        /* \"#utility.yul\":17087:17200   */\n      jump(tag_323)\n    tag_325:\n        /* \"#utility.yul\":17218:17224   */\n      dup4\n        /* \"#utility.yul\":17215:17216   */\n      dup2\n        /* \"#utility.yul\":17212:17225   */\n      gt\n        /* \"#utility.yul\":17209:17310   */\n      iszero\n      tag_326\n      jumpi\n        /* \"#utility.yul\":17298:17299   */\n      0x00\n        /* \"#utility.yul\":17289:17295   */\n      dup5\n        /* \"#utility.yul\":17284:17287   */\n      dup5\n        /* \"#utility.yul\":17280:17296   */\n      add\n        /* \"#utility.yul\":17273:17300   */\n      mstore\n        /* \"#utility.yul\":17209:17310   */\n    tag_326:\n        /* \"#utility.yul\":17058:17316   */\n      pop\n        /* \"#utility.yul\":17009:17316   */\n      pop\n      pop\n      pop\n      jump\t// out\n        /* \"#utility.yul\":17322:17682   */\n    tag_134:\n        /* \"#utility.yul\":17408:17411   */\n      0x00\n        /* \"#utility.yul\":17436:17474   */\n      tag_328\n        /* \"#utility.yul\":17468:17473   */\n      dup3\n        /* \"#utility.yul\":17436:17474   */\n      tag_131\n      jump\t// in\n    tag_328:\n        /* \"#utility.yul\":17490:17560   */\n      tag_329\n        /* \"#utility.yul\":17553:17559   */\n      dup2\n        /* \"#utility.yul\":17548:17551   */\n      dup6\n        /* \"#utility.yul\":17490:17560   */\n      tag_132\n      jump\t// in\n    tag_329:\n        /* \"#utility.yul\":17483:17560   */\n      swap4\n      pop\n        /* \"#utility.yul\":17569:17621   */\n      tag_330\n        /* \"#utility.yul\":17614:17620   */\n      dup2\n        /* \"#utility.yul\":17609:17612   */\n      dup6\n        /* \"#utility.yul\":17602:17606   */\n      0x20\n        /* \"#utility.yul\":17595:17600   */\n      dup7\n        /* \"#utility.yul\":17591:17607   */\n      add\n        /* \"#utility.yul\":17569:17621   */\n      tag_133\n      jump\t// in\n    tag_330:\n        /* \"#utility.yul\":17646:17675   */\n      tag_331\n        /* \"#utility.yul\":17668:17674   */\n      dup2\n        /* \"#utility.yul\":17646:17675   */\n      tag_116\n      jump\t// in\n    tag_331:\n        /* \"#utility.yul\":17641:17644   */\n      dup5\n        /* \"#utility.yul\":17637:17676   */\n      add\n        /* \"#utility.yul\":17630:17676   */\n      swap2\n      pop\n        /* \"#utility.yul\":17412:17682   */\n      pop\n        /* \"#utility.yul\":17322:17682   */\n      swap3\n      swap2\n      pop\n      pop\n      jump\t// out\n        /* \"#utility.yul\":17688:17777   */\n    tag_135:\n        /* \"#utility.yul\":17724:17731   */\n      0x00\n        /* \"#utility.yul\":17764:17770   */\n      0xffff\n        /* \"#utility.yul\":17757:17762   */\n      dup3\n        /* \"#utility.yul\":17753:17771   */\n      and\n        /* \"#utility.yul\":17742:17771   */\n      swap1\n      pop\n        /* \"#utility.yul\":17688:17777   */\n      swap2\n      swap1\n      pop\n      jump\t// out\n        /* \"#utility.yul\":17783:17898   */\n    tag_136:\n        /* \"#utility.yul\":17868:17891   */\n      tag_334\n        /* \"#utility.yul\":17885:17890   */\n      dup2\n        /* \"#utility.yul\":17868:17891   */\n      tag_135\n      jump\t// in\n    tag_334:\n        /* \"#utility.yul\":17863:17866   */\n      dup3\n        /* \"#utility.yul\":17856:17892   */\n      mstore\n        /* \"#utility.yul\":17783:17898   */\n      pop\n      pop\n      jump\t// out\n        /* \"#utility.yul\":17904:18651   */\n    tag_74:\n        /* \"#utility.yul\":18125:18129   */\n      0x00\n        /* \"#utility.yul\":18163:18166   */\n      0xa0\n        /* \"#utility.yul\":18152:18161   */\n      dup3\n        /* \"#utility.yul\":18148:18167   */\n      add\n        /* \"#utility.yul\":18140:18167   */\n      swap1\n      pop\n        /* \"#utility.yul\":18177:18248   */\n      tag_336\n        /* \"#utility.yul\":18245:18246   */\n      0x00\n        /* \"#utility.yul\":18234:18243   */\n      dup4\n        /* \"#utility.yul\":18230:18247   */\n      add\n        /* \"#utility.yul\":18221:18227   */\n      dup9\n        /* \"#utility.yul\":18177:18248   */\n      tag_102\n      jump\t// in\n    tag_336:\n        /* \"#utility.yul\":18258:18330   */\n      tag_337\n        /* \"#utility.yul\":18326:18328   */\n      0x20\n        /* \"#utility.yul\":18315:18324   */\n      dup4\n        /* \"#utility.yul\":18311:18329   */\n      add\n        /* \"#utility.yul\":18302:18308   */\n      dup8\n        /* \"#utility.yul\":18258:18330   */\n      tag_102\n      jump\t// in\n    tag_337:\n        /* \"#utility.yul\":18340:18412   */\n      tag_338\n        /* \"#utility.yul\":18408:18410   */\n      0x40\n        /* \"#utility.yul\":18397:18406   */\n      dup4\n        /* \"#utility.yul\":18393:18411   */\n      add\n        /* \"#utility.yul\":18384:18390   */\n      dup7\n        /* \"#utility.yul\":18340:18412   */\n      tag_103\n      jump\t// in\n    tag_338:\n        /* \"#utility.yul\":18459:18468   */\n      dup2\n        /* \"#utility.yul\":18453:18457   */\n      dup2\n        /* \"#utility.yul\":18449:18469   */\n      sub\n        /* \"#utility.yul\":18444:18446   */\n      0x60\n        /* \"#utility.yul\":18433:18442   */\n      dup4\n        /* \"#utility.yul\":18429:18447   */\n      add\n        /* \"#utility.yul\":18422:18470   */\n      mstore\n        /* \"#utility.yul\":18487:18563   */\n      tag_339\n        /* \"#utility.yul\":18558:18562   */\n      dup2\n        /* \"#utility.yul\":18549:18555   */\n      dup6\n        /* \"#utility.yul\":18487:18563   */\n      tag_134\n      jump\t// in\n    tag_339:\n        /* \"#utility.yul\":18479:18563   */\n      swap1\n      pop\n        /* \"#utility.yul\":18573:18644   */\n      tag_340\n        /* \"#utility.yul\":18639:18642   */\n      0x80\n        /* \"#utility.yul\":18628:18637   */\n      dup4\n        /* \"#utility.yul\":18624:18643   */\n      add\n        /* \"#utility.yul\":18615:18621   */\n      dup5\n        /* \"#utility.yul\":18573:18644   */\n      tag_136\n      jump\t// in\n    tag_340:\n        /* \"#utility.yul\":17904:18651   */\n      swap7\n      swap6\n      pop\n      pop\n      pop\n      pop\n      pop\n      pop\n      jump\t// out\n\n    auxdata: 0xa2646970667358221220e94acec18e647440eae366dad3093a57524c37d57ed7cb6120c3c46193e6710d64736f6c634300080a0033\n}\n",
				"bytecode": {
					"linkReferences": {},
					"object": "60c0604052737a250d5630b4cf539739df2c5dacb4c659f2488d6000806101000a81548173ffffffffffffffffffffffffffffffffffffffff021916908373ffffffffffffffffffffffffffffffffffffffff160217905550735c69bee701ef814a2b6a3edd4b1652cb9cc5aa6f600160006101000a81548173ffffffffffffffffffffffffffffffffffffffff021916908373ffffffffffffffffffffffffffffffffffffffff16021790555073c36442b4a4522e871399cd717abdd847ab11fe88600260006101000a81548173ffffffffffffffffffffffffffffffffffffffff021916908373ffffffffffffffffffffffffffffffffffffffff160217905550731f98431c8ad98523631ae4a59f267346ea31f984600360006101000a81548173ffffffffffffffffffffffffffffffffffffffff021916908373ffffffffffffffffffffffffffffffffffffffff1602179055507368b3465833fb72a70ecdf485e0e4c7bd8665fc45600460006101000a81548173ffffffffffffffffffffffffffffffffffffffff021916908373ffffffffffffffffffffffffffffffffffffffff160217905550738ca302e2b04ecdb5d14cced580a379b40e8ed8b7600560006101000a81548173ffffffffffffffffffffffffffffffffffffffff021916908373ffffffffffffffffffffffffffffffffffffffff16021790555073a36085f69e2889c224210f603d836748e7dc0088600660006101000a81548173ffffffffffffffffffffffffffffffffffffffff021916908373ffffffffffffffffffffffffffffffffffffffff1602179055507369f9e353f7411479912d2e9f3e436ae83486c17b600760006101000a81548173ffffffffffffffffffffffffffffffffffffffff021916908373ffffffffffffffffffffffffffffffffffffffff160217905550612ad16008557387b1f4cf9bd63f7bbd3ee1ad04e8f52540349347600960006101000a81548173ffffffffffffffffffffffffffffffffffffffff021916908373ffffffffffffffffffffffffffffffffffffffff1602179055507388757f2f99175387ab4c6a4b3067c77a695b0349600a60006101000a81548173ffffffffffffffffffffffffffffffffffffffff021916908373ffffffffffffffffffffffffffffffffffffffff16021790555073e0fba4fc209b4948668006b2be61711b7f465bae600b60006101000a81548173ffffffffffffffffffffffffffffffffffffffff021916908373ffffffffffffffffffffffffffffffffffffffff16021790555060008054906101000a900473ffffffffffffffffffffffffffffffffffffffff16600c60006101000a81548173ffffffffffffffffffffffffffffffffffffffff021916908373ffffffffffffffffffffffffffffffffffffffff160217905550600460009054906101000a900473ffffffffffffffffffffffffffffffffffffffff16600d60006101000a81548173ffffffffffffffffffffffffffffffffffffffff021916908373ffffffffffffffffffffffffffffffffffffffff160217905550600560009054906101000a900473ffffffffffffffffffffffffffffffffffffffff16600e60006101000a81548173ffffffffffffffffffffffffffffffffffffffff021916908373ffffffffffffffffffffffffffffffffffffffff1602179055503480156104e357600080fd5b507388757f2f99175387ab4c6a4b3067c77a695b034973ffffffffffffffffffffffffffffffffffffffff1660808173ffffffffffffffffffffffffffffffffffffffff168152505073e0fba4fc209b4948668006b2be61711b7f465bae73ffffffffffffffffffffffffffffffffffffffff1660a08173ffffffffffffffffffffffffffffffffffffffff168152505060805160a0516112486105ad60003960008181610649015281816106ed0152818161078501526107f00152600060db01526112486000f3fe608060405234801561001057600080fd5b506004361061004c5760003560e01c80630542975c146100515780631b11d0ff1461006f5780637535d2461461009f578063c4a50233146100bd575b600080fd5b6100596100d9565b6040516100669190610908565b60405180910390f35b61008960048036038101906100849190610a10565b6100fd565b6040516100969190610ac5565b60405180910390f35b6100a7610783565b6040516100b49190610b01565b60405180910390f35b6100d760048036038101906100d29190610b1c565b6107a7565b005b7f000000000000000000000000000000000000000000000000000000000000000081565b600080858761010c9190610b78565b9050600e60009054906101000a900473ffffffffffffffffffffffffffffffffffffffff1673ffffffffffffffffffffffffffffffffffffffff1663095ea7b3600c60009054906101000a900473ffffffffffffffffffffffffffffffffffffffff166a52b7d2dcc80cd2e40000006040518363ffffffff1660e01b8152600401610198929190610bec565b6020604051808303816000875af11580156101b7573d6000803e3d6000fd5b505050506040513d601f19601f820116820180604052508101906101db9190610c41565b50600e60009054906101000a900473ffffffffffffffffffffffffffffffffffffffff1673ffffffffffffffffffffffffffffffffffffffff1663095ea7b3600d60009054906101000a900473ffffffffffffffffffffffffffffffffffffffff166a52b7d2dcc80cd2e40000006040518363ffffffff1660e01b8152600401610266929190610bec565b6020604051808303816000875af1158015610285573d6000803e3d6000fd5b505050506040513d601f19601f820116820180604052508101906102a99190610c41565b506000600267ffffffffffffffff8111156102c7576102c6610c6e565b5b6040519080825280602002602001820160405280156102f55781602001602082028036833780820191505090505b509050600660009054906101000a900473ffffffffffffffffffffffffffffffffffffffff168160008151811061032f5761032e610c9d565b5b602002602001019073ffffffffffffffffffffffffffffffffffffffff16908173ffffffffffffffffffffffffffffffffffffffff1681525050600560009054906101000a900473ffffffffffffffffffffffffffffffffffffffff16816001815181106103a05761039f610c9d565b5b602002602001019073ffffffffffffffffffffffffffffffffffffffff16908173ffffffffffffffffffffffffffffffffffffffff16815250506000600c60009054906101000a900473ffffffffffffffffffffffffffffffffffffffff1673ffffffffffffffffffffffffffffffffffffffff166338ed17398a60018530426040518663ffffffff1660e01b8152600401610440959493929190610dc5565b6000604051808303816000875af115801561045f573d6000803e3d6000fd5b505050506040513d6000823e3d601f19601f820116820180604052508101906104889190610f54565b60008151811061049b5761049a610c9d565b5b6020026020010151905060006040518060e00160405280600560009054906101000a900473ffffffffffffffffffffffffffffffffffffffff1673ffffffffffffffffffffffffffffffffffffffff168152602001600660009054906101000a900473ffffffffffffffffffffffffffffffffffffffff1673ffffffffffffffffffffffffffffffffffffffff168152602001610bb862ffffff1681526020013073ffffffffffffffffffffffffffffffffffffffff16815260200183815260200160008152602001600073ffffffffffffffffffffffffffffffffffffffff1681525090506000600d60009054906101000a900473ffffffffffffffffffffffffffffffffffffffff1673ffffffffffffffffffffffffffffffffffffffff166304e45aaf836040518263ffffffff1660e01b81526004016105de9190611067565b6020604051808303816000875af11580156105fd573d6000803e3d6000fd5b505050506040513d601f19601f820116820180604052508101906106219190611082565b9050848111156106cf578b73ffffffffffffffffffffffffffffffffffffffff1663095ea7b37f0000000000000000000000000000000000000000000000000000000000000000876040518363ffffffff1660e01b8152600401610686929190610bec565b6020604051808303816000875af11580156106a5573d6000803e3d6000fd5b505050506040513d601f19601f820116820180604052508101906106c99190610c41565b50610770565b8b73ffffffffffffffffffffffffffffffffffffffff1663095ea7b37f000000000000000000000000000000000000000000000000000000000000000060006040518363ffffffff1660e01b815260040161072b9291906110ea565b6020604051808303816000875af115801561074a573d6000803e3d6000fd5b505050506040513d601f19601f8201168201806040525081019061076e9190610c41565b505b6001955050505050509695505050505050565b7f000000000000000000000000000000000000000000000000000000000000000081565b60003090506000600660009054906101000a900473ffffffffffffffffffffffffffffffffffffffff1690506000839050600060405180602001604052806000815250905060007f000000000000000000000000000000000000000000000000000000000000000073ffffffffffffffffffffffffffffffffffffffff166342b0b77c86868686866040518663ffffffff1660e01b815260040161084f9594939291906111b8565b600060405180830381600087803b15801561086957600080fd5b505af115801561087d573d6000803e3d6000fd5b50505050505050505050565b600073ffffffffffffffffffffffffffffffffffffffff82169050919050565b6000819050919050565b60006108ce6108c96108c484610889565b6108a9565b610889565b9050919050565b60006108e0826108b3565b9050919050565b60006108f2826108d5565b9050919050565b610902816108e7565b82525050565b600060208201905061091d60008301846108f9565b92915050565b6000604051905090565b600080fd5b600080fd5b600061094282610889565b9050919050565b61095281610937565b811461095d57600080fd5b50565b60008135905061096f81610949565b92915050565b6000819050919050565b61098881610975565b811461099357600080fd5b50565b6000813590506109a58161097f565b92915050565b600080fd5b600080fd5b600080fd5b60008083601f8401126109d0576109cf6109ab565b5b8235905067ffffffffffffffff8111156109ed576109ec6109b0565b5b602083019150836001820283011115610a0957610a086109b5565b5b9250929050565b60008060008060008060a08789031215610a2d57610a2c61092d565b5b6000610a3b89828a01610960565b9650506020610a4c89828a01610996565b9550506040610a5d89828a01610996565b9450506060610a6e89828a01610960565b935050608087013567ffffffffffffffff811115610a8f57610a8e610932565b5b610a9b89828a016109ba565b92509250509295509295509295565b60008115159050919050565b610abf81610aaa565b82525050565b6000602082019050610ada6000830184610ab6565b92915050565b6000610aeb826108d5565b9050919050565b610afb81610ae0565b82525050565b6000602082019050610b166000830184610af2565b92915050565b600060208284031215610b3257610b3161092d565b5b6000610b4084828501610996565b91505092915050565b7f4e487b7100000000000000000000000000000000000000000000000000000000600052601160045260246000fd5b6000610b8382610975565b9150610b8e83610975565b9250827fffffffffffffffffffffffffffffffffffffffffffffffffffffffffffffffff03821115610bc357610bc2610b49565b5b828201905092915050565b610bd781610937565b82525050565b610be681610975565b82525050565b6000604082019050610c016000830185610bce565b610c0e6020830184610bdd565b9392505050565b610c1e81610aaa565b8114610c2957600080fd5b50565b600081519050610c3b81610c15565b92915050565b600060208284031215610c5757610c5661092d565b5b6000610c6584828501610c2c565b91505092915050565b7f4e487b7100000000000000000000000000000000000000000000000000000000600052604160045260246000fd5b7f4e487b7100000000000000000000000000000000000000000000000000000000600052603260045260246000fd5b6000819050919050565b6000610cf1610cec610ce784610ccc565b6108a9565b610975565b9050919050565b610d0181610cd6565b82525050565b600081519050919050565b600082825260208201905092915050565b6000819050602082019050919050565b610d3c81610937565b82525050565b6000610d4e8383610d33565b60208301905092915050565b6000602082019050919050565b6000610d7282610d07565b610d7c8185610d12565b9350610d8783610d23565b8060005b83811015610db8578151610d9f8882610d42565b9750610daa83610d5a565b925050600181019050610d8b565b5085935050505092915050565b600060a082019050610dda6000830188610bdd565b610de76020830187610cf8565b8181036040830152610df98186610d67565b9050610e086060830185610bce565b610e156080830184610bdd565b9695505050505050565b6000601f19601f8301169050919050565b610e3982610e1f565b810181811067ffffffffffffffff82111715610e5857610e57610c6e565b5b80604052505050565b6000610e6b610923565b9050610e778282610e30565b919050565b600067ffffffffffffffff821115610e9757610e96610c6e565b5b602082029050602081019050919050565b600081519050610eb78161097f565b92915050565b6000610ed0610ecb84610e7c565b610e61565b90508083825260208201905060208402830185811115610ef357610ef26109b5565b5b835b81811015610f1c5780610f088882610ea8565b845260208401935050602081019050610ef5565b5050509392505050565b600082601f830112610f3b57610f3a6109ab565b5b8151610f4b848260208601610ebd565b91505092915050565b600060208284031215610f6a57610f6961092d565b5b600082015167ffffffffffffffff811115610f8857610f87610932565b5b610f9484828501610f26565b91505092915050565b600062ffffff82169050919050565b610fb581610f9d565b82525050565b610fc481610975565b82525050565b610fd381610889565b82525050565b60e082016000820151610fef6000850182610d33565b5060208201516110026020850182610d33565b5060408201516110156040850182610fac565b5060608201516110286060850182610d33565b50608082015161103b6080850182610fbb565b5060a082015161104e60a0850182610fbb565b5060c082015161106160c0850182610fca565b50505050565b600060e08201905061107c6000830184610fd9565b92915050565b6000602082840312156110985761109761092d565b5b60006110a684828501610ea8565b91505092915050565b6000819050919050565b60006110d46110cf6110ca846110af565b6108a9565b610975565b9050919050565b6110e4816110b9565b82525050565b60006040820190506110ff6000830185610bce565b61110c60208301846110db565b9392505050565b600081519050919050565b600082825260208201905092915050565b60005b8381101561114d578082015181840152602081019050611132565b8381111561115c576000848401525b50505050565b600061116d82611113565b611177818561111e565b935061118781856020860161112f565b61119081610e1f565b840191505092915050565b600061ffff82169050919050565b6111b28161119b565b82525050565b600060a0820190506111cd6000830188610bce565b6111da6020830187610bce565b6111e76040830186610bdd565b81810360608301526111f98185611162565b905061120860808301846111a9565b969550505050505056fea2646970667358221220e94acec18e647440eae366dad3093a57524c37d57ed7cb6120c3c46193e6710d64736f6c634300080a0033",
					"opcodes": "PUSH1 0xC0 PUSH1 0x40 MSTORE PUSH20 0x7A250D5630B4CF539739DF2C5DACB4C659F2488D PUSH1 0x0 DUP1 PUSH2 0x100 EXP DUP2 SLOAD DUP2 PUSH20 0xFFFFFFFFFFFFFFFFFFFFFFFFFFFFFFFFFFFFFFFF MUL NOT AND SWAP1 DUP4 PUSH20 0xFFFFFFFFFFFFFFFFFFFFFFFFFFFFFFFFFFFFFFFF AND MUL OR SWAP1 SSTORE POP PUSH20 0x5C69BEE701EF814A2B6A3EDD4B1652CB9CC5AA6F PUSH1 0x1 PUSH1 0x0 PUSH2 0x100 EXP DUP2 SLOAD DUP2 PUSH20 0xFFFFFFFFFFFFFFFFFFFFFFFFFFFFFFFFFFFFFFFF MUL NOT AND SWAP1 DUP4 PUSH20 0xFFFFFFFFFFFFFFFFFFFFFFFFFFFFFFFFFFFFFFFF AND MUL OR SWAP1 SSTORE POP PUSH20 0xC36442B4A4522E871399CD717ABDD847AB11FE88 PUSH1 0x2 PUSH1 0x0 PUSH2 0x100 EXP DUP2 SLOAD DUP2 PUSH20 0xFFFFFFFFFFFFFFFFFFFFFFFFFFFFFFFFFFFFFFFF MUL NOT AND SWAP1 DUP4 PUSH20 0xFFFFFFFFFFFFFFFFFFFFFFFFFFFFFFFFFFFFFFFF AND MUL OR SWAP1 SSTORE POP PUSH20 0x1F98431C8AD98523631AE4A59F267346EA31F984 PUSH1 0x3 PUSH1 0x0 PUSH2 0x100 EXP DUP2 SLOAD DUP2 PUSH20 0xFFFFFFFFFFFFFFFFFFFFFFFFFFFFFFFFFFFFFFFF MUL NOT AND SWAP1 DUP4 PUSH20 0xFFFFFFFFFFFFFFFFFFFFFFFFFFFFFFFFFFFFFFFF AND MUL OR SWAP1 SSTORE POP PUSH20 0x68B3465833FB72A70ECDF485E0E4C7BD8665FC45 PUSH1 0x4 PUSH1 0x0 PUSH2 0x100 EXP DUP2 SLOAD DUP2 PUSH20 0xFFFFFFFFFFFFFFFFFFFFFFFFFFFFFFFFFFFFFFFF MUL NOT AND SWAP1 DUP4 PUSH20 0xFFFFFFFFFFFFFFFFFFFFFFFFFFFFFFFFFFFFFFFF AND MUL OR SWAP1 SSTORE POP PUSH20 0x8CA302E2B04ECDB5D14CCED580A379B40E8ED8B7 PUSH1 0x5 PUSH1 0x0 PUSH2 0x100 EXP DUP2 SLOAD DUP2 PUSH20 0xFFFFFFFFFFFFFFFFFFFFFFFFFFFFFFFFFFFFFFFF MUL NOT AND SWAP1 DUP4 PUSH20 0xFFFFFFFFFFFFFFFFFFFFFFFFFFFFFFFFFFFFFFFF AND MUL OR SWAP1 SSTORE POP PUSH20 0xA36085F69E2889C224210F603D836748E7DC0088 PUSH1 0x6 PUSH1 0x0 PUSH2 0x100 EXP DUP2 SLOAD DUP2 PUSH20 0xFFFFFFFFFFFFFFFFFFFFFFFFFFFFFFFFFFFFFFFF MUL NOT AND SWAP1 DUP4 PUSH20 0xFFFFFFFFFFFFFFFFFFFFFFFFFFFFFFFFFFFFFFFF AND MUL OR SWAP1 SSTORE POP PUSH20 0x69F9E353F7411479912D2E9F3E436AE83486C17B PUSH1 0x7 PUSH1 0x0 PUSH2 0x100 EXP DUP2 SLOAD DUP2 PUSH20 0xFFFFFFFFFFFFFFFFFFFFFFFFFFFFFFFFFFFFFFFF MUL NOT AND SWAP1 DUP4 PUSH20 0xFFFFFFFFFFFFFFFFFFFFFFFFFFFFFFFFFFFFFFFF AND MUL OR SWAP1 SSTORE POP PUSH2 0x2AD1 PUSH1 0x8 SSTORE PUSH20 0x87B1F4CF9BD63F7BBD3EE1AD04E8F52540349347 PUSH1 0x9 PUSH1 0x0 PUSH2 0x100 EXP DUP2 SLOAD DUP2 PUSH20 0xFFFFFFFFFFFFFFFFFFFFFFFFFFFFFFFFFFFFFFFF MUL NOT AND SWAP1 DUP4 PUSH20 0xFFFFFFFFFFFFFFFFFFFFFFFFFFFFFFFFFFFFFFFF AND MUL OR SWAP1 SSTORE POP PUSH20 0x88757F2F99175387AB4C6A4B3067C77A695B0349 PUSH1 0xA PUSH1 0x0 PUSH2 0x100 EXP DUP2 SLOAD DUP2 PUSH20 0xFFFFFFFFFFFFFFFFFFFFFFFFFFFFFFFFFFFFFFFF MUL NOT AND SWAP1 DUP4 PUSH20 0xFFFFFFFFFFFFFFFFFFFFFFFFFFFFFFFFFFFFFFFF AND MUL OR SWAP1 SSTORE POP PUSH20 0xE0FBA4FC209B4948668006B2BE61711B7F465BAE PUSH1 0xB PUSH1 0x0 PUSH2 0x100 EXP DUP2 SLOAD DUP2 PUSH20 0xFFFFFFFFFFFFFFFFFFFFFFFFFFFFFFFFFFFFFFFF MUL NOT AND SWAP1 DUP4 PUSH20 0xFFFFFFFFFFFFFFFFFFFFFFFFFFFFFFFFFFFFFFFF AND MUL OR SWAP1 SSTORE POP PUSH1 0x0 DUP1 SLOAD SWAP1 PUSH2 0x100 EXP SWAP1 DIV PUSH20 0xFFFFFFFFFFFFFFFFFFFFFFFFFFFFFFFFFFFFFFFF AND PUSH1 0xC PUSH1 0x0 PUSH2 0x100 EXP DUP2 SLOAD DUP2 PUSH20 0xFFFFFFFFFFFFFFFFFFFFFFFFFFFFFFFFFFFFFFFF MUL NOT AND SWAP1 DUP4 PUSH20 0xFFFFFFFFFFFFFFFFFFFFFFFFFFFFFFFFFFFFFFFF AND MUL OR SWAP1 SSTORE POP PUSH1 0x4 PUSH1 0x0 SWAP1 SLOAD SWAP1 PUSH2 0x100 EXP SWAP1 DIV PUSH20 0xFFFFFFFFFFFFFFFFFFFFFFFFFFFFFFFFFFFFFFFF AND PUSH1 0xD PUSH1 0x0 PUSH2 0x100 EXP DUP2 SLOAD DUP2 PUSH20 0xFFFFFFFFFFFFFFFFFFFFFFFFFFFFFFFFFFFFFFFF MUL NOT AND SWAP1 DUP4 PUSH20 0xFFFFFFFFFFFFFFFFFFFFFFFFFFFFFFFFFFFFFFFF AND MUL OR SWAP1 SSTORE POP PUSH1 0x5 PUSH1 0x0 SWAP1 SLOAD SWAP1 PUSH2 0x100 EXP SWAP1 DIV PUSH20 0xFFFFFFFFFFFFFFFFFFFFFFFFFFFFFFFFFFFFFFFF AND PUSH1 0xE PUSH1 0x0 PUSH2 0x100 EXP DUP2 SLOAD DUP2 PUSH20 0xFFFFFFFFFFFFFFFFFFFFFFFFFFFFFFFFFFFFFFFF MUL NOT AND SWAP1 DUP4 PUSH20 0xFFFFFFFFFFFFFFFFFFFFFFFFFFFFFFFFFFFFFFFF AND MUL OR SWAP1 SSTORE POP CALLVALUE DUP1 ISZERO PUSH2 0x4E3 JUMPI PUSH1 0x0 DUP1 REVERT JUMPDEST POP PUSH20 0x88757F2F99175387AB4C6A4B3067C77A695B0349 PUSH20 0xFFFFFFFFFFFFFFFFFFFFFFFFFFFFFFFFFFFFFFFF AND PUSH1 0x80 DUP2 PUSH20 0xFFFFFFFFFFFFFFFFFFFFFFFFFFFFFFFFFFFFFFFF AND DUP2 MSTORE POP POP PUSH20 0xE0FBA4FC209B4948668006B2BE61711B7F465BAE PUSH20 0xFFFFFFFFFFFFFFFFFFFFFFFFFFFFFFFFFFFFFFFF AND PUSH1 0xA0 DUP2 PUSH20 0xFFFFFFFFFFFFFFFFFFFFFFFFFFFFFFFFFFFFFFFF AND DUP2 MSTORE POP POP PUSH1 0x80 MLOAD PUSH1 0xA0 MLOAD PUSH2 0x1248 PUSH2 0x5AD PUSH1 0x0 CODECOPY PUSH1 0x0 DUP2 DUP2 PUSH2 0x649 ADD MSTORE DUP2 DUP2 PUSH2 0x6ED ADD MSTORE DUP2 DUP2 PUSH2 0x785 ADD MSTORE PUSH2 0x7F0 ADD MSTORE PUSH1 0x0 PUSH1 0xDB ADD MSTORE PUSH2 0x1248 PUSH1 0x0 RETURN INVALID PUSH1 0x80 PUSH1 0x40 MSTORE CALLVALUE DUP1 ISZERO PUSH2 0x10 JUMPI PUSH1 0x0 DUP1 REVERT JUMPDEST POP PUSH1 0x4 CALLDATASIZE LT PUSH2 0x4C JUMPI PUSH1 0x0 CALLDATALOAD PUSH1 0xE0 SHR DUP1 PUSH4 0x542975C EQ PUSH2 0x51 JUMPI DUP1 PUSH4 0x1B11D0FF EQ PUSH2 0x6F JUMPI DUP1 PUSH4 0x7535D246 EQ PUSH2 0x9F JUMPI DUP1 PUSH4 0xC4A50233 EQ PUSH2 0xBD JUMPI JUMPDEST PUSH1 0x0 DUP1 REVERT JUMPDEST PUSH2 0x59 PUSH2 0xD9 JUMP JUMPDEST PUSH1 0x40 MLOAD PUSH2 0x66 SWAP2 SWAP1 PUSH2 0x908 JUMP JUMPDEST PUSH1 0x40 MLOAD DUP1 SWAP2 SUB SWAP1 RETURN JUMPDEST PUSH2 0x89 PUSH1 0x4 DUP1 CALLDATASIZE SUB DUP2 ADD SWAP1 PUSH2 0x84 SWAP2 SWAP1 PUSH2 0xA10 JUMP JUMPDEST PUSH2 0xFD JUMP JUMPDEST PUSH1 0x40 MLOAD PUSH2 0x96 SWAP2 SWAP1 PUSH2 0xAC5 JUMP JUMPDEST PUSH1 0x40 MLOAD DUP1 SWAP2 SUB SWAP1 RETURN JUMPDEST PUSH2 0xA7 PUSH2 0x783 JUMP JUMPDEST PUSH1 0x40 MLOAD PUSH2 0xB4 SWAP2 SWAP1 PUSH2 0xB01 JUMP JUMPDEST PUSH1 0x40 MLOAD DUP1 SWAP2 SUB SWAP1 RETURN JUMPDEST PUSH2 0xD7 PUSH1 0x4 DUP1 CALLDATASIZE SUB DUP2 ADD SWAP1 PUSH2 0xD2 SWAP2 SWAP1 PUSH2 0xB1C JUMP JUMPDEST PUSH2 0x7A7 JUMP JUMPDEST STOP JUMPDEST PUSH32 0x0 DUP2 JUMP JUMPDEST PUSH1 0x0 DUP1 DUP6 DUP8 PUSH2 0x10C SWAP2 SWAP1 PUSH2 0xB78 JUMP JUMPDEST SWAP1 POP PUSH1 0xE PUSH1 0x0 SWAP1 SLOAD SWAP1 PUSH2 0x100 EXP SWAP1 DIV PUSH20 0xFFFFFFFFFFFFFFFFFFFFFFFFFFFFFFFFFFFFFFFF AND PUSH20 0xFFFFFFFFFFFFFFFFFFFFFFFFFFFFFFFFFFFFFFFF AND PUSH4 0x95EA7B3 PUSH1 0xC PUSH1 0x0 SWAP1 SLOAD SWAP1 PUSH2 0x100 EXP SWAP1 DIV PUSH20 0xFFFFFFFFFFFFFFFFFFFFFFFFFFFFFFFFFFFFFFFF AND PUSH11 0x52B7D2DCC80CD2E4000000 PUSH1 0x40 MLOAD DUP4 PUSH4 0xFFFFFFFF AND PUSH1 0xE0 SHL DUP2 MSTORE PUSH1 0x4 ADD PUSH2 0x198 SWAP3 SWAP2 SWAP1 PUSH2 0xBEC JUMP JUMPDEST PUSH1 0x20 PUSH1 0x40 MLOAD DUP1 DUP4 SUB DUP2 PUSH1 0x0 DUP8 GAS CALL ISZERO DUP1 ISZERO PUSH2 0x1B7 JUMPI RETURNDATASIZE PUSH1 0x0 DUP1 RETURNDATACOPY RETURNDATASIZE PUSH1 0x0 REVERT JUMPDEST POP POP POP POP PUSH1 0x40 MLOAD RETURNDATASIZE PUSH1 0x1F NOT PUSH1 0x1F DUP3 ADD AND DUP3 ADD DUP1 PUSH1 0x40 MSTORE POP DUP2 ADD SWAP1 PUSH2 0x1DB SWAP2 SWAP1 PUSH2 0xC41 JUMP JUMPDEST POP PUSH1 0xE PUSH1 0x0 SWAP1 SLOAD SWAP1 PUSH2 0x100 EXP SWAP1 DIV PUSH20 0xFFFFFFFFFFFFFFFFFFFFFFFFFFFFFFFFFFFFFFFF AND PUSH20 0xFFFFFFFFFFFFFFFFFFFFFFFFFFFFFFFFFFFFFFFF AND PUSH4 0x95EA7B3 PUSH1 0xD PUSH1 0x0 SWAP1 SLOAD SWAP1 PUSH2 0x100 EXP SWAP1 DIV PUSH20 0xFFFFFFFFFFFFFFFFFFFFFFFFFFFFFFFFFFFFFFFF AND PUSH11 0x52B7D2DCC80CD2E4000000 PUSH1 0x40 MLOAD DUP4 PUSH4 0xFFFFFFFF AND PUSH1 0xE0 SHL DUP2 MSTORE PUSH1 0x4 ADD PUSH2 0x266 SWAP3 SWAP2 SWAP1 PUSH2 0xBEC JUMP JUMPDEST PUSH1 0x20 PUSH1 0x40 MLOAD DUP1 DUP4 SUB DUP2 PUSH1 0x0 DUP8 GAS CALL ISZERO DUP1 ISZERO PUSH2 0x285 JUMPI RETURNDATASIZE PUSH1 0x0 DUP1 RETURNDATACOPY RETURNDATASIZE PUSH1 0x0 REVERT JUMPDEST POP POP POP POP PUSH1 0x40 MLOAD RETURNDATASIZE PUSH1 0x1F NOT PUSH1 0x1F DUP3 ADD AND DUP3 ADD DUP1 PUSH1 0x40 MSTORE POP DUP2 ADD SWAP1 PUSH2 0x2A9 SWAP2 SWAP1 PUSH2 0xC41 JUMP JUMPDEST POP PUSH1 0x0 PUSH1 0x2 PUSH8 0xFFFFFFFFFFFFFFFF DUP2 GT ISZERO PUSH2 0x2C7 JUMPI PUSH2 0x2C6 PUSH2 0xC6E JUMP JUMPDEST JUMPDEST PUSH1 0x40 MLOAD SWAP1 DUP1 DUP3 MSTORE DUP1 PUSH1 0x20 MUL PUSH1 0x20 ADD DUP3 ADD PUSH1 0x40 MSTORE DUP1 ISZERO PUSH2 0x2F5 JUMPI DUP2 PUSH1 0x20 ADD PUSH1 0x20 DUP3 MUL DUP1 CALLDATASIZE DUP4 CALLDATACOPY DUP1 DUP3 ADD SWAP2 POP POP SWAP1 POP JUMPDEST POP SWAP1 POP PUSH1 0x6 PUSH1 0x0 SWAP1 SLOAD SWAP1 PUSH2 0x100 EXP SWAP1 DIV PUSH20 0xFFFFFFFFFFFFFFFFFFFFFFFFFFFFFFFFFFFFFFFF AND DUP2 PUSH1 0x0 DUP2 MLOAD DUP2 LT PUSH2 0x32F JUMPI PUSH2 0x32E PUSH2 0xC9D JUMP JUMPDEST JUMPDEST PUSH1 0x20 MUL PUSH1 0x20 ADD ADD SWAP1 PUSH20 0xFFFFFFFFFFFFFFFFFFFFFFFFFFFFFFFFFFFFFFFF AND SWAP1 DUP2 PUSH20 0xFFFFFFFFFFFFFFFFFFFFFFFFFFFFFFFFFFFFFFFF AND DUP2 MSTORE POP POP PUSH1 0x5 PUSH1 0x0 SWAP1 SLOAD SWAP1 PUSH2 0x100 EXP SWAP1 DIV PUSH20 0xFFFFFFFFFFFFFFFFFFFFFFFFFFFFFFFFFFFFFFFF AND DUP2 PUSH1 0x1 DUP2 MLOAD DUP2 LT PUSH2 0x3A0 JUMPI PUSH2 0x39F PUSH2 0xC9D JUMP JUMPDEST JUMPDEST PUSH1 0x20 MUL PUSH1 0x20 ADD ADD SWAP1 PUSH20 0xFFFFFFFFFFFFFFFFFFFFFFFFFFFFFFFFFFFFFFFF AND SWAP1 DUP2 PUSH20 0xFFFFFFFFFFFFFFFFFFFFFFFFFFFFFFFFFFFFFFFF AND DUP2 MSTORE POP POP PUSH1 0x0 PUSH1 0xC PUSH1 0x0 SWAP1 SLOAD SWAP1 PUSH2 0x100 EXP SWAP1 DIV PUSH20 0xFFFFFFFFFFFFFFFFFFFFFFFFFFFFFFFFFFFFFFFF AND PUSH20 0xFFFFFFFFFFFFFFFFFFFFFFFFFFFFFFFFFFFFFFFF AND PUSH4 0x38ED1739 DUP11 PUSH1 0x1 DUP6 ADDRESS TIMESTAMP PUSH1 0x40 MLOAD DUP7 PUSH4 0xFFFFFFFF AND PUSH1 0xE0 SHL DUP2 MSTORE PUSH1 0x4 ADD PUSH2 0x440 SWAP6 SWAP5 SWAP4 SWAP3 SWAP2 SWAP1 PUSH2 0xDC5 JUMP JUMPDEST PUSH1 0x0 PUSH1 0x40 MLOAD DUP1 DUP4 SUB DUP2 PUSH1 0x0 DUP8 GAS CALL ISZERO DUP1 ISZERO PUSH2 0x45F JUMPI RETURNDATASIZE PUSH1 0x0 DUP1 RETURNDATACOPY RETURNDATASIZE PUSH1 0x0 REVERT JUMPDEST POP POP POP POP PUSH1 0x40 MLOAD RETURNDATASIZE PUSH1 0x0 DUP3 RETURNDATACOPY RETURNDATASIZE PUSH1 0x1F NOT PUSH1 0x1F DUP3 ADD AND DUP3 ADD DUP1 PUSH1 0x40 MSTORE POP DUP2 ADD SWAP1 PUSH2 0x488 SWAP2 SWAP1 PUSH2 0xF54 JUMP JUMPDEST PUSH1 0x0 DUP2 MLOAD DUP2 LT PUSH2 0x49B JUMPI PUSH2 0x49A PUSH2 0xC9D JUMP JUMPDEST JUMPDEST PUSH1 0x20 MUL PUSH1 0x20 ADD ADD MLOAD SWAP1 POP PUSH1 0x0 PUSH1 0x40 MLOAD DUP1 PUSH1 0xE0 ADD PUSH1 0x40 MSTORE DUP1 PUSH1 0x5 PUSH1 0x0 SWAP1 SLOAD SWAP1 PUSH2 0x100 EXP SWAP1 DIV PUSH20 0xFFFFFFFFFFFFFFFFFFFFFFFFFFFFFFFFFFFFFFFF AND PUSH20 0xFFFFFFFFFFFFFFFFFFFFFFFFFFFFFFFFFFFFFFFF AND DUP2 MSTORE PUSH1 0x20 ADD PUSH1 0x6 PUSH1 0x0 SWAP1 SLOAD SWAP1 PUSH2 0x100 EXP SWAP1 DIV PUSH20 0xFFFFFFFFFFFFFFFFFFFFFFFFFFFFFFFFFFFFFFFF AND PUSH20 0xFFFFFFFFFFFFFFFFFFFFFFFFFFFFFFFFFFFFFFFF AND DUP2 MSTORE PUSH1 0x20 ADD PUSH2 0xBB8 PUSH3 0xFFFFFF AND DUP2 MSTORE PUSH1 0x20 ADD ADDRESS PUSH20 0xFFFFFFFFFFFFFFFFFFFFFFFFFFFFFFFFFFFFFFFF AND DUP2 MSTORE PUSH1 0x20 ADD DUP4 DUP2 MSTORE PUSH1 0x20 ADD PUSH1 0x0 DUP2 MSTORE PUSH1 0x20 ADD PUSH1 0x0 PUSH20 0xFFFFFFFFFFFFFFFFFFFFFFFFFFFFFFFFFFFFFFFF AND DUP2 MSTORE POP SWAP1 POP PUSH1 0x0 PUSH1 0xD PUSH1 0x0 SWAP1 SLOAD SWAP1 PUSH2 0x100 EXP SWAP1 DIV PUSH20 0xFFFFFFFFFFFFFFFFFFFFFFFFFFFFFFFFFFFFFFFF AND PUSH20 0xFFFFFFFFFFFFFFFFFFFFFFFFFFFFFFFFFFFFFFFF AND PUSH4 0x4E45AAF DUP4 PUSH1 0x40 MLOAD DUP3 PUSH4 0xFFFFFFFF AND PUSH1 0xE0 SHL DUP2 MSTORE PUSH1 0x4 ADD PUSH2 0x5DE SWAP2 SWAP1 PUSH2 0x1067 JUMP JUMPDEST PUSH1 0x20 PUSH1 0x40 MLOAD DUP1 DUP4 SUB DUP2 PUSH1 0x0 DUP8 GAS CALL ISZERO DUP1 ISZERO PUSH2 0x5FD JUMPI RETURNDATASIZE PUSH1 0x0 DUP1 RETURNDATACOPY RETURNDATASIZE PUSH1 0x0 REVERT JUMPDEST POP POP POP POP PUSH1 0x40 MLOAD RETURNDATASIZE PUSH1 0x1F NOT PUSH1 0x1F DUP3 ADD AND DUP3 ADD DUP1 PUSH1 0x40 MSTORE POP DUP2 ADD SWAP1 PUSH2 0x621 SWAP2 SWAP1 PUSH2 0x1082 JUMP JUMPDEST SWAP1 POP DUP5 DUP2 GT ISZERO PUSH2 0x6CF JUMPI DUP12 PUSH20 0xFFFFFFFFFFFFFFFFFFFFFFFFFFFFFFFFFFFFFFFF AND PUSH4 0x95EA7B3 PUSH32 0x0 DUP8 PUSH1 0x40 MLOAD DUP4 PUSH4 0xFFFFFFFF AND PUSH1 0xE0 SHL DUP2 MSTORE PUSH1 0x4 ADD PUSH2 0x686 SWAP3 SWAP2 SWAP1 PUSH2 0xBEC JUMP JUMPDEST PUSH1 0x20 PUSH1 0x40 MLOAD DUP1 DUP4 SUB DUP2 PUSH1 0x0 DUP8 GAS CALL ISZERO DUP1 ISZERO PUSH2 0x6A5 JUMPI RETURNDATASIZE PUSH1 0x0 DUP1 RETURNDATACOPY RETURNDATASIZE PUSH1 0x0 REVERT JUMPDEST POP POP POP POP PUSH1 0x40 MLOAD RETURNDATASIZE PUSH1 0x1F NOT PUSH1 0x1F DUP3 ADD AND DUP3 ADD DUP1 PUSH1 0x40 MSTORE POP DUP2 ADD SWAP1 PUSH2 0x6C9 SWAP2 SWAP1 PUSH2 0xC41 JUMP JUMPDEST POP PUSH2 0x770 JUMP JUMPDEST DUP12 PUSH20 0xFFFFFFFFFFFFFFFFFFFFFFFFFFFFFFFFFFFFFFFF AND PUSH4 0x95EA7B3 PUSH32 0x0 PUSH1 0x0 PUSH1 0x40 MLOAD DUP4 PUSH4 0xFFFFFFFF AND PUSH1 0xE0 SHL DUP2 MSTORE PUSH1 0x4 ADD PUSH2 0x72B SWAP3 SWAP2 SWAP1 PUSH2 0x10EA JUMP JUMPDEST PUSH1 0x20 PUSH1 0x40 MLOAD DUP1 DUP4 SUB DUP2 PUSH1 0x0 DUP8 GAS CALL ISZERO DUP1 ISZERO PUSH2 0x74A JUMPI RETURNDATASIZE PUSH1 0x0 DUP1 RETURNDATACOPY RETURNDATASIZE PUSH1 0x0 REVERT JUMPDEST POP POP POP POP PUSH1 0x40 MLOAD RETURNDATASIZE PUSH1 0x1F NOT PUSH1 0x1F DUP3 ADD AND DUP3 ADD DUP1 PUSH1 0x40 MSTORE POP DUP2 ADD SWAP1 PUSH2 0x76E SWAP2 SWAP1 PUSH2 0xC41 JUMP JUMPDEST POP JUMPDEST PUSH1 0x1 SWAP6 POP POP POP POP POP POP SWAP7 SWAP6 POP POP POP POP POP POP JUMP JUMPDEST PUSH32 0x0 DUP2 JUMP JUMPDEST PUSH1 0x0 ADDRESS SWAP1 POP PUSH1 0x0 PUSH1 0x6 PUSH1 0x0 SWAP1 SLOAD SWAP1 PUSH2 0x100 EXP SWAP1 DIV PUSH20 0xFFFFFFFFFFFFFFFFFFFFFFFFFFFFFFFFFFFFFFFF AND SWAP1 POP PUSH1 0x0 DUP4 SWAP1 POP PUSH1 0x0 PUSH1 0x40 MLOAD DUP1 PUSH1 0x20 ADD PUSH1 0x40 MSTORE DUP1 PUSH1 0x0 DUP2 MSTORE POP SWAP1 POP PUSH1 0x0 PUSH32 0x0 PUSH20 0xFFFFFFFFFFFFFFFFFFFFFFFFFFFFFFFFFFFFFFFF AND PUSH4 0x42B0B77C DUP7 DUP7 DUP7 DUP7 DUP7 PUSH1 0x40 MLOAD DUP7 PUSH4 0xFFFFFFFF AND PUSH1 0xE0 SHL DUP2 MSTORE PUSH1 0x4 ADD PUSH2 0x84F SWAP6 SWAP5 SWAP4 SWAP3 SWAP2 SWAP1 PUSH2 0x11B8 JUMP JUMPDEST PUSH1 0x0 PUSH1 0x40 MLOAD DUP1 DUP4 SUB DUP2 PUSH1 0x0 DUP8 DUP1 EXTCODESIZE ISZERO DUP1 ISZERO PUSH2 0x869 JUMPI PUSH1 0x0 DUP1 REVERT JUMPDEST POP GAS CALL ISZERO DUP1 ISZERO PUSH2 0x87D JUMPI RETURNDATASIZE PUSH1 0x0 DUP1 RETURNDATACOPY RETURNDATASIZE PUSH1 0x0 REVERT JUMPDEST POP POP POP POP POP POP POP POP POP POP JUMP JUMPDEST PUSH1 0x0 PUSH20 0xFFFFFFFFFFFFFFFFFFFFFFFFFFFFFFFFFFFFFFFF DUP3 AND SWAP1 POP SWAP2 SWAP1 POP JUMP JUMPDEST PUSH1 0x0 DUP2 SWAP1 POP SWAP2 SWAP1 POP JUMP JUMPDEST PUSH1 0x0 PUSH2 0x8CE PUSH2 0x8C9 PUSH2 0x8C4 DUP5 PUSH2 0x889 JUMP JUMPDEST PUSH2 0x8A9 JUMP JUMPDEST PUSH2 0x889 JUMP JUMPDEST SWAP1 POP SWAP2 SWAP1 POP JUMP JUMPDEST PUSH1 0x0 PUSH2 0x8E0 DUP3 PUSH2 0x8B3 JUMP JUMPDEST SWAP1 POP SWAP2 SWAP1 POP JUMP JUMPDEST PUSH1 0x0 PUSH2 0x8F2 DUP3 PUSH2 0x8D5 JUMP JUMPDEST SWAP1 POP SWAP2 SWAP1 POP JUMP JUMPDEST PUSH2 0x902 DUP2 PUSH2 0x8E7 JUMP JUMPDEST DUP3 MSTORE POP POP JUMP JUMPDEST PUSH1 0x0 PUSH1 0x20 DUP3 ADD SWAP1 POP PUSH2 0x91D PUSH1 0x0 DUP4 ADD DUP5 PUSH2 0x8F9 JUMP JUMPDEST SWAP3 SWAP2 POP POP JUMP JUMPDEST PUSH1 0x0 PUSH1 0x40 MLOAD SWAP1 POP SWAP1 JUMP JUMPDEST PUSH1 0x0 DUP1 REVERT JUMPDEST PUSH1 0x0 DUP1 REVERT JUMPDEST PUSH1 0x0 PUSH2 0x942 DUP3 PUSH2 0x889 JUMP JUMPDEST SWAP1 POP SWAP2 SWAP1 POP JUMP JUMPDEST PUSH2 0x952 DUP2 PUSH2 0x937 JUMP JUMPDEST DUP2 EQ PUSH2 0x95D JUMPI PUSH1 0x0 DUP1 REVERT JUMPDEST POP JUMP JUMPDEST PUSH1 0x0 DUP2 CALLDATALOAD SWAP1 POP PUSH2 0x96F DUP2 PUSH2 0x949 JUMP JUMPDEST SWAP3 SWAP2 POP POP JUMP JUMPDEST PUSH1 0x0 DUP2 SWAP1 POP SWAP2 SWAP1 POP JUMP JUMPDEST PUSH2 0x988 DUP2 PUSH2 0x975 JUMP JUMPDEST DUP2 EQ PUSH2 0x993 JUMPI PUSH1 0x0 DUP1 REVERT JUMPDEST POP JUMP JUMPDEST PUSH1 0x0 DUP2 CALLDATALOAD SWAP1 POP PUSH2 0x9A5 DUP2 PUSH2 0x97F JUMP JUMPDEST SWAP3 SWAP2 POP POP JUMP JUMPDEST PUSH1 0x0 DUP1 REVERT JUMPDEST PUSH1 0x0 DUP1 REVERT JUMPDEST PUSH1 0x0 DUP1 REVERT JUMPDEST PUSH1 0x0 DUP1 DUP4 PUSH1 0x1F DUP5 ADD SLT PUSH2 0x9D0 JUMPI PUSH2 0x9CF PUSH2 0x9AB JUMP JUMPDEST JUMPDEST DUP3 CALLDATALOAD SWAP1 POP PUSH8 0xFFFFFFFFFFFFFFFF DUP2 GT ISZERO PUSH2 0x9ED JUMPI PUSH2 0x9EC PUSH2 0x9B0 JUMP JUMPDEST JUMPDEST PUSH1 0x20 DUP4 ADD SWAP2 POP DUP4 PUSH1 0x1 DUP3 MUL DUP4 ADD GT ISZERO PUSH2 0xA09 JUMPI PUSH2 0xA08 PUSH2 0x9B5 JUMP JUMPDEST JUMPDEST SWAP3 POP SWAP3 SWAP1 POP JUMP JUMPDEST PUSH1 0x0 DUP1 PUSH1 0x0 DUP1 PUSH1 0x0 DUP1 PUSH1 0xA0 DUP8 DUP10 SUB SLT ISZERO PUSH2 0xA2D JUMPI PUSH2 0xA2C PUSH2 0x92D JUMP JUMPDEST JUMPDEST PUSH1 0x0 PUSH2 0xA3B DUP10 DUP3 DUP11 ADD PUSH2 0x960 JUMP JUMPDEST SWAP7 POP POP PUSH1 0x20 PUSH2 0xA4C DUP10 DUP3 DUP11 ADD PUSH2 0x996 JUMP JUMPDEST SWAP6 POP POP PUSH1 0x40 PUSH2 0xA5D DUP10 DUP3 DUP11 ADD PUSH2 0x996 JUMP JUMPDEST SWAP5 POP POP PUSH1 0x60 PUSH2 0xA6E DUP10 DUP3 DUP11 ADD PUSH2 0x960 JUMP JUMPDEST SWAP4 POP POP PUSH1 0x80 DUP8 ADD CALLDATALOAD PUSH8 0xFFFFFFFFFFFFFFFF DUP2 GT ISZERO PUSH2 0xA8F JUMPI PUSH2 0xA8E PUSH2 0x932 JUMP JUMPDEST JUMPDEST PUSH2 0xA9B DUP10 DUP3 DUP11 ADD PUSH2 0x9BA JUMP JUMPDEST SWAP3 POP SWAP3 POP POP SWAP3 SWAP6 POP SWAP3 SWAP6 POP SWAP3 SWAP6 JUMP JUMPDEST PUSH1 0x0 DUP2 ISZERO ISZERO SWAP1 POP SWAP2 SWAP1 POP JUMP JUMPDEST PUSH2 0xABF DUP2 PUSH2 0xAAA JUMP JUMPDEST DUP3 MSTORE POP POP JUMP JUMPDEST PUSH1 0x0 PUSH1 0x20 DUP3 ADD SWAP1 POP PUSH2 0xADA PUSH1 0x0 DUP4 ADD DUP5 PUSH2 0xAB6 JUMP JUMPDEST SWAP3 SWAP2 POP POP JUMP JUMPDEST PUSH1 0x0 PUSH2 0xAEB DUP3 PUSH2 0x8D5 JUMP JUMPDEST SWAP1 POP SWAP2 SWAP1 POP JUMP JUMPDEST PUSH2 0xAFB DUP2 PUSH2 0xAE0 JUMP JUMPDEST DUP3 MSTORE POP POP JUMP JUMPDEST PUSH1 0x0 PUSH1 0x20 DUP3 ADD SWAP1 POP PUSH2 0xB16 PUSH1 0x0 DUP4 ADD DUP5 PUSH2 0xAF2 JUMP JUMPDEST SWAP3 SWAP2 POP POP JUMP JUMPDEST PUSH1 0x0 PUSH1 0x20 DUP3 DUP5 SUB SLT ISZERO PUSH2 0xB32 JUMPI PUSH2 0xB31 PUSH2 0x92D JUMP JUMPDEST JUMPDEST PUSH1 0x0 PUSH2 0xB40 DUP5 DUP3 DUP6 ADD PUSH2 0x996 JUMP JUMPDEST SWAP2 POP POP SWAP3 SWAP2 POP POP JUMP JUMPDEST PUSH32 0x4E487B7100000000000000000000000000000000000000000000000000000000 PUSH1 0x0 MSTORE PUSH1 0x11 PUSH1 0x4 MSTORE PUSH1 0x24 PUSH1 0x0 REVERT JUMPDEST PUSH1 0x0 PUSH2 0xB83 DUP3 PUSH2 0x975 JUMP JUMPDEST SWAP2 POP PUSH2 0xB8E DUP4 PUSH2 0x975 JUMP JUMPDEST SWAP3 POP DUP3 PUSH32 0xFFFFFFFFFFFFFFFFFFFFFFFFFFFFFFFFFFFFFFFFFFFFFFFFFFFFFFFFFFFFFFFF SUB DUP3 GT ISZERO PUSH2 0xBC3 JUMPI PUSH2 0xBC2 PUSH2 0xB49 JUMP JUMPDEST JUMPDEST DUP3 DUP3 ADD SWAP1 POP SWAP3 SWAP2 POP POP JUMP JUMPDEST PUSH2 0xBD7 DUP2 PUSH2 0x937 JUMP JUMPDEST DUP3 MSTORE POP POP JUMP JUMPDEST PUSH2 0xBE6 DUP2 PUSH2 0x975 JUMP JUMPDEST DUP3 MSTORE POP POP JUMP JUMPDEST PUSH1 0x0 PUSH1 0x40 DUP3 ADD SWAP1 POP PUSH2 0xC01 PUSH1 0x0 DUP4 ADD DUP6 PUSH2 0xBCE JUMP JUMPDEST PUSH2 0xC0E PUSH1 0x20 DUP4 ADD DUP5 PUSH2 0xBDD JUMP JUMPDEST SWAP4 SWAP3 POP POP POP JUMP JUMPDEST PUSH2 0xC1E DUP2 PUSH2 0xAAA JUMP JUMPDEST DUP2 EQ PUSH2 0xC29 JUMPI PUSH1 0x0 DUP1 REVERT JUMPDEST POP JUMP JUMPDEST PUSH1 0x0 DUP2 MLOAD SWAP1 POP PUSH2 0xC3B DUP2 PUSH2 0xC15 JUMP JUMPDEST SWAP3 SWAP2 POP POP JUMP JUMPDEST PUSH1 0x0 PUSH1 0x20 DUP3 DUP5 SUB SLT ISZERO PUSH2 0xC57 JUMPI PUSH2 0xC56 PUSH2 0x92D JUMP JUMPDEST JUMPDEST PUSH1 0x0 PUSH2 0xC65 DUP5 DUP3 DUP6 ADD PUSH2 0xC2C JUMP JUMPDEST SWAP2 POP POP SWAP3 SWAP2 POP POP JUMP JUMPDEST PUSH32 0x4E487B7100000000000000000000000000000000000000000000000000000000 PUSH1 0x0 MSTORE PUSH1 0x41 PUSH1 0x4 MSTORE PUSH1 0x24 PUSH1 0x0 REVERT JUMPDEST PUSH32 0x4E487B7100000000000000000000000000000000000000000000000000000000 PUSH1 0x0 MSTORE PUSH1 0x32 PUSH1 0x4 MSTORE PUSH1 0x24 PUSH1 0x0 REVERT JUMPDEST PUSH1 0x0 DUP2 SWAP1 POP SWAP2 SWAP1 POP JUMP JUMPDEST PUSH1 0x0 PUSH2 0xCF1 PUSH2 0xCEC PUSH2 0xCE7 DUP5 PUSH2 0xCCC JUMP JUMPDEST PUSH2 0x8A9 JUMP JUMPDEST PUSH2 0x975 JUMP JUMPDEST SWAP1 POP SWAP2 SWAP1 POP JUMP JUMPDEST PUSH2 0xD01 DUP2 PUSH2 0xCD6 JUMP JUMPDEST DUP3 MSTORE POP POP JUMP JUMPDEST PUSH1 0x0 DUP2 MLOAD SWAP1 POP SWAP2 SWAP1 POP JUMP JUMPDEST PUSH1 0x0 DUP3 DUP3 MSTORE PUSH1 0x20 DUP3 ADD SWAP1 POP SWAP3 SWAP2 POP POP JUMP JUMPDEST PUSH1 0x0 DUP2 SWAP1 POP PUSH1 0x20 DUP3 ADD SWAP1 POP SWAP2 SWAP1 POP JUMP JUMPDEST PUSH2 0xD3C DUP2 PUSH2 0x937 JUMP JUMPDEST DUP3 MSTORE POP POP JUMP JUMPDEST PUSH1 0x0 PUSH2 0xD4E DUP4 DUP4 PUSH2 0xD33 JUMP JUMPDEST PUSH1 0x20 DUP4 ADD SWAP1 POP SWAP3 SWAP2 POP POP JUMP JUMPDEST PUSH1 0x0 PUSH1 0x20 DUP3 ADD SWAP1 POP SWAP2 SWAP1 POP JUMP JUMPDEST PUSH1 0x0 PUSH2 0xD72 DUP3 PUSH2 0xD07 JUMP JUMPDEST PUSH2 0xD7C DUP2 DUP6 PUSH2 0xD12 JUMP JUMPDEST SWAP4 POP PUSH2 0xD87 DUP4 PUSH2 0xD23 JUMP JUMPDEST DUP1 PUSH1 0x0 JUMPDEST DUP4 DUP2 LT ISZERO PUSH2 0xDB8 JUMPI DUP2 MLOAD PUSH2 0xD9F DUP9 DUP3 PUSH2 0xD42 JUMP JUMPDEST SWAP8 POP PUSH2 0xDAA DUP4 PUSH2 0xD5A JUMP JUMPDEST SWAP3 POP POP PUSH1 0x1 DUP2 ADD SWAP1 POP PUSH2 0xD8B JUMP JUMPDEST POP DUP6 SWAP4 POP POP POP POP SWAP3 SWAP2 POP POP JUMP JUMPDEST PUSH1 0x0 PUSH1 0xA0 DUP3 ADD SWAP1 POP PUSH2 0xDDA PUSH1 0x0 DUP4 ADD DUP9 PUSH2 0xBDD JUMP JUMPDEST PUSH2 0xDE7 PUSH1 0x20 DUP4 ADD DUP8 PUSH2 0xCF8 JUMP JUMPDEST DUP2 DUP2 SUB PUSH1 0x40 DUP4 ADD MSTORE PUSH2 0xDF9 DUP2 DUP7 PUSH2 0xD67 JUMP JUMPDEST SWAP1 POP PUSH2 0xE08 PUSH1 0x60 DUP4 ADD DUP6 PUSH2 0xBCE JUMP JUMPDEST PUSH2 0xE15 PUSH1 0x80 DUP4 ADD DUP5 PUSH2 0xBDD JUMP JUMPDEST SWAP7 SWAP6 POP POP POP POP POP POP JUMP JUMPDEST PUSH1 0x0 PUSH1 0x1F NOT PUSH1 0x1F DUP4 ADD AND SWAP1 POP SWAP2 SWAP1 POP JUMP JUMPDEST PUSH2 0xE39 DUP3 PUSH2 0xE1F JUMP JUMPDEST DUP2 ADD DUP2 DUP2 LT PUSH8 0xFFFFFFFFFFFFFFFF DUP3 GT OR ISZERO PUSH2 0xE58 JUMPI PUSH2 0xE57 PUSH2 0xC6E JUMP JUMPDEST JUMPDEST DUP1 PUSH1 0x40 MSTORE POP POP POP JUMP JUMPDEST PUSH1 0x0 PUSH2 0xE6B PUSH2 0x923 JUMP JUMPDEST SWAP1 POP PUSH2 0xE77 DUP3 DUP3 PUSH2 0xE30 JUMP JUMPDEST SWAP2 SWAP1 POP JUMP JUMPDEST PUSH1 0x0 PUSH8 0xFFFFFFFFFFFFFFFF DUP3 GT ISZERO PUSH2 0xE97 JUMPI PUSH2 0xE96 PUSH2 0xC6E JUMP JUMPDEST JUMPDEST PUSH1 0x20 DUP3 MUL SWAP1 POP PUSH1 0x20 DUP2 ADD SWAP1 POP SWAP2 SWAP1 POP JUMP JUMPDEST PUSH1 0x0 DUP2 MLOAD SWAP1 POP PUSH2 0xEB7 DUP2 PUSH2 0x97F JUMP JUMPDEST SWAP3 SWAP2 POP POP JUMP JUMPDEST PUSH1 0x0 PUSH2 0xED0 PUSH2 0xECB DUP5 PUSH2 0xE7C JUMP JUMPDEST PUSH2 0xE61 JUMP JUMPDEST SWAP1 POP DUP1 DUP4 DUP3 MSTORE PUSH1 0x20 DUP3 ADD SWAP1 POP PUSH1 0x20 DUP5 MUL DUP4 ADD DUP6 DUP2 GT ISZERO PUSH2 0xEF3 JUMPI PUSH2 0xEF2 PUSH2 0x9B5 JUMP JUMPDEST JUMPDEST DUP4 JUMPDEST DUP2 DUP2 LT ISZERO PUSH2 0xF1C JUMPI DUP1 PUSH2 0xF08 DUP9 DUP3 PUSH2 0xEA8 JUMP JUMPDEST DUP5 MSTORE PUSH1 0x20 DUP5 ADD SWAP4 POP POP PUSH1 0x20 DUP2 ADD SWAP1 POP PUSH2 0xEF5 JUMP JUMPDEST POP POP POP SWAP4 SWAP3 POP POP POP JUMP JUMPDEST PUSH1 0x0 DUP3 PUSH1 0x1F DUP4 ADD SLT PUSH2 0xF3B JUMPI PUSH2 0xF3A PUSH2 0x9AB JUMP JUMPDEST JUMPDEST DUP2 MLOAD PUSH2 0xF4B DUP5 DUP3 PUSH1 0x20 DUP7 ADD PUSH2 0xEBD JUMP JUMPDEST SWAP2 POP POP SWAP3 SWAP2 POP POP JUMP JUMPDEST PUSH1 0x0 PUSH1 0x20 DUP3 DUP5 SUB SLT ISZERO PUSH2 0xF6A JUMPI PUSH2 0xF69 PUSH2 0x92D JUMP JUMPDEST JUMPDEST PUSH1 0x0 DUP3 ADD MLOAD PUSH8 0xFFFFFFFFFFFFFFFF DUP2 GT ISZERO PUSH2 0xF88 JUMPI PUSH2 0xF87 PUSH2 0x932 JUMP JUMPDEST JUMPDEST PUSH2 0xF94 DUP5 DUP3 DUP6 ADD PUSH2 0xF26 JUMP JUMPDEST SWAP2 POP POP SWAP3 SWAP2 POP POP JUMP JUMPDEST PUSH1 0x0 PUSH3 0xFFFFFF DUP3 AND SWAP1 POP SWAP2 SWAP1 POP JUMP JUMPDEST PUSH2 0xFB5 DUP2 PUSH2 0xF9D JUMP JUMPDEST DUP3 MSTORE POP POP JUMP JUMPDEST PUSH2 0xFC4 DUP2 PUSH2 0x975 JUMP JUMPDEST DUP3 MSTORE POP POP JUMP JUMPDEST PUSH2 0xFD3 DUP2 PUSH2 0x889 JUMP JUMPDEST DUP3 MSTORE POP POP JUMP JUMPDEST PUSH1 0xE0 DUP3 ADD PUSH1 0x0 DUP3 ADD MLOAD PUSH2 0xFEF PUSH1 0x0 DUP6 ADD DUP3 PUSH2 0xD33 JUMP JUMPDEST POP PUSH1 0x20 DUP3 ADD MLOAD PUSH2 0x1002 PUSH1 0x20 DUP6 ADD DUP3 PUSH2 0xD33 JUMP JUMPDEST POP PUSH1 0x40 DUP3 ADD MLOAD PUSH2 0x1015 PUSH1 0x40 DUP6 ADD DUP3 PUSH2 0xFAC JUMP JUMPDEST POP PUSH1 0x60 DUP3 ADD MLOAD PUSH2 0x1028 PUSH1 0x60 DUP6 ADD DUP3 PUSH2 0xD33 JUMP JUMPDEST POP PUSH1 0x80 DUP3 ADD MLOAD PUSH2 0x103B PUSH1 0x80 DUP6 ADD DUP3 PUSH2 0xFBB JUMP JUMPDEST POP PUSH1 0xA0 DUP3 ADD MLOAD PUSH2 0x104E PUSH1 0xA0 DUP6 ADD DUP3 PUSH2 0xFBB JUMP JUMPDEST POP PUSH1 0xC0 DUP3 ADD MLOAD PUSH2 0x1061 PUSH1 0xC0 DUP6 ADD DUP3 PUSH2 0xFCA JUMP JUMPDEST POP POP POP POP JUMP JUMPDEST PUSH1 0x0 PUSH1 0xE0 DUP3 ADD SWAP1 POP PUSH2 0x107C PUSH1 0x0 DUP4 ADD DUP5 PUSH2 0xFD9 JUMP JUMPDEST SWAP3 SWAP2 POP POP JUMP JUMPDEST PUSH1 0x0 PUSH1 0x20 DUP3 DUP5 SUB SLT ISZERO PUSH2 0x1098 JUMPI PUSH2 0x1097 PUSH2 0x92D JUMP JUMPDEST JUMPDEST PUSH1 0x0 PUSH2 0x10A6 DUP5 DUP3 DUP6 ADD PUSH2 0xEA8 JUMP JUMPDEST SWAP2 POP POP SWAP3 SWAP2 POP POP JUMP JUMPDEST PUSH1 0x0 DUP2 SWAP1 POP SWAP2 SWAP1 POP JUMP JUMPDEST PUSH1 0x0 PUSH2 0x10D4 PUSH2 0x10CF PUSH2 0x10CA DUP5 PUSH2 0x10AF JUMP JUMPDEST PUSH2 0x8A9 JUMP JUMPDEST PUSH2 0x975 JUMP JUMPDEST SWAP1 POP SWAP2 SWAP1 POP JUMP JUMPDEST PUSH2 0x10E4 DUP2 PUSH2 0x10B9 JUMP JUMPDEST DUP3 MSTORE POP POP JUMP JUMPDEST PUSH1 0x0 PUSH1 0x40 DUP3 ADD SWAP1 POP PUSH2 0x10FF PUSH1 0x0 DUP4 ADD DUP6 PUSH2 0xBCE JUMP JUMPDEST PUSH2 0x110C PUSH1 0x20 DUP4 ADD DUP5 PUSH2 0x10DB JUMP JUMPDEST SWAP4 SWAP3 POP POP POP JUMP JUMPDEST PUSH1 0x0 DUP2 MLOAD SWAP1 POP SWAP2 SWAP1 POP JUMP JUMPDEST PUSH1 0x0 DUP3 DUP3 MSTORE PUSH1 0x20 DUP3 ADD SWAP1 POP SWAP3 SWAP2 POP POP JUMP JUMPDEST PUSH1 0x0 JUMPDEST DUP4 DUP2 LT ISZERO PUSH2 0x114D JUMPI DUP1 DUP3 ADD MLOAD DUP2 DUP5 ADD MSTORE PUSH1 0x20 DUP2 ADD SWAP1 POP PUSH2 0x1132 JUMP JUMPDEST DUP4 DUP2 GT ISZERO PUSH2 0x115C JUMPI PUSH1 0x0 DUP5 DUP5 ADD MSTORE JUMPDEST POP POP POP POP JUMP JUMPDEST PUSH1 0x0 PUSH2 0x116D DUP3 PUSH2 0x1113 JUMP JUMPDEST PUSH2 0x1177 DUP2 DUP6 PUSH2 0x111E JUMP JUMPDEST SWAP4 POP PUSH2 0x1187 DUP2 DUP6 PUSH1 0x20 DUP7 ADD PUSH2 0x112F JUMP JUMPDEST PUSH2 0x1190 DUP2 PUSH2 0xE1F JUMP JUMPDEST DUP5 ADD SWAP2 POP POP SWAP3 SWAP2 POP POP JUMP JUMPDEST PUSH1 0x0 PUSH2 0xFFFF DUP3 AND SWAP1 POP SWAP2 SWAP1 POP JUMP JUMPDEST PUSH2 0x11B2 DUP2 PUSH2 0x119B JUMP JUMPDEST DUP3 MSTORE POP POP JUMP JUMPDEST PUSH1 0x0 PUSH1 0xA0 DUP3 ADD SWAP1 POP PUSH2 0x11CD PUSH1 0x0 DUP4 ADD DUP9 PUSH2 0xBCE JUMP JUMPDEST PUSH2 0x11DA PUSH1 0x20 DUP4 ADD DUP8 PUSH2 0xBCE JUMP JUMPDEST PUSH2 0x11E7 PUSH1 0x40 DUP4 ADD DUP7 PUSH2 0xBDD JUMP JUMPDEST DUP2 DUP2 SUB PUSH1 0x60 DUP4 ADD MSTORE PUSH2 0x11F9 DUP2 DUP6 PUSH2 0x1162 JUMP JUMPDEST SWAP1 POP PUSH2 0x1208 PUSH1 0x80 DUP4 ADD DUP5 PUSH2 0x11A9 JUMP JUMPDEST SWAP7 SWAP6 POP POP POP POP POP POP JUMP INVALID LOG2 PUSH5 0x6970667358 0x22 SLT KECCAK256 0xE9 0x4A 0xCE 0xC1 DUP15 PUSH5 0x7440EAE366 0xDA 0xD3 MULMOD GASPRICE JUMPI MSTORE 0x4C CALLDATACOPY 0xD5 PUSH31 0xD7CB6120C3C46193E6710D64736F6C634300080A0033000000000000000000 "
				},
				"gasEstimates": {
					"creation": {
						"codeDepositCost": "936000",
						"executionCost": "infinite",
						"totalCost": "infinite"
					},
					"external": {
						"ADDRESSES_PROVIDER()": "infinite",
						"POOL()": "infinite",
						"executeOperation(address,uint256,uint256,address,bytes)": "infinite",
						"testAAVE(uint256)": "infinite"
					}
				},
				"methodIdentifiers": {
					"ADDRESSES_PROVIDER()": "0542975c",
					"POOL()": "7535d246",
					"executeOperation(address,uint256,uint256,address,bytes)": "1b11d0ff",
					"testAAVE(uint256)": "c4a50233"
				}
			},
			"userdoc": {
				"kind": "user",
				"methods": {
					"executeOperation(address,uint256,uint256,address,bytes)": {
						"notice": "Executes an operation after receiving the flash-borrowed asset"
					}
				},
				"version": 1
			}
		}
	}
}