{
	"Code-hardhat-ethersJs/contracts/AAVETest.sol": {
		"AAVETest": {
			"abi": [
				{
					"inputs": [],
					"stateMutability": "nonpayable",
					"type": "constructor"
				},
				{
					"inputs": [],
					"name": "ADDRESSES_PROVIDER",
					"outputs": [
						{
							"internalType": "contract IPoolAddressesProvider",
							"name": "",
							"type": "address"
						}
					],
					"stateMutability": "view",
					"type": "function"
				},
				{
					"inputs": [],
					"name": "POOL",
					"outputs": [
						{
							"internalType": "contract IPool",
							"name": "",
							"type": "address"
						}
					],
					"stateMutability": "view",
					"type": "function"
				},
				{
					"inputs": [
						{
							"internalType": "address",
							"name": "asset",
							"type": "address"
						},
						{
							"internalType": "uint256",
							"name": "amount",
							"type": "uint256"
						},
						{
							"internalType": "uint256",
							"name": "premium",
							"type": "uint256"
						},
						{
							"internalType": "address",
							"name": "initiator",
							"type": "address"
						},
						{
							"internalType": "bytes",
							"name": "params",
							"type": "bytes"
						}
					],
					"name": "executeOperation",
					"outputs": [
						{
							"internalType": "bool",
							"name": "",
							"type": "bool"
						}
					],
					"stateMutability": "nonpayable",
					"type": "function"
				},
				{
					"inputs": [
						{
							"internalType": "address",
							"name": "asset",
							"type": "address"
						},
						{
							"internalType": "uint256",
							"name": "_amount",
							"type": "uint256"
						}
					],
					"name": "testAAVE",
					"outputs": [],
					"stateMutability": "nonpayable",
					"type": "function"
				}
			],
			"devdoc": {
				"kind": "dev",
				"methods": {
					"executeOperation(address,uint256,uint256,address,bytes)": {
						"details": "Ensure that the contract can return the debt + premium, e.g., has      enough funds to repay and has approved the Pool to pull the total amount",
						"params": {
							"amount": "The amount of the flash-borrowed asset",
							"asset": "The address of the flash-borrowed asset",
							"initiator": "The address of the flashloan initiator",
							"params": "The byte-encoded params passed when initiating the flashloan",
							"premium": "The fee of the flash-borrowed asset"
						},
						"returns": {
							"_0": "True if the execution of the operation succeeds, false otherwise"
						}
					}
				},
				"version": 1
			},
			"evm": {
				"assembly": "    /* \"Code-hardhat-ethersJs/contracts/AAVETest.sol\":768:6268  contract AAVETest is IFlashLoanSimpleReceiver {... */\n  mstore(0x40, 0xc0)\n    /* \"Code-hardhat-ethersJs/contracts/AAVETest.sol\":912:954  0x7a250d5630B4cF539739dF2C5dAcb4c659F2488D */\n  0x7a250d5630b4cf539739df2c5dacb4c659f2488d\n    /* \"Code-hardhat-ethersJs/contracts/AAVETest.sol\":877:954  address UniswapV2Router02address = 0x7a250d5630B4cF539739dF2C5dAcb4c659F2488D */\n  0x00\n  dup1\n  0x0100\n  exp\n  dup2\n  sload\n  dup2\n  0xffffffffffffffffffffffffffffffffffffffff\n  mul\n  not\n  and\n  swap1\n  dup4\n  0xffffffffffffffffffffffffffffffffffffffff\n  and\n  mul\n  or\n  swap1\n  sstore\n  pop\n    /* \"Code-hardhat-ethersJs/contracts/AAVETest.sol\":994:1036  0x5C69bEe701ef814a2B6a3EDD4B1652CB9cc5aA6f */\n  0x5c69bee701ef814a2b6a3edd4b1652cb9cc5aa6f\n    /* \"Code-hardhat-ethersJs/contracts/AAVETest.sol\":960:1036  address UniswapV2Factoryaddress = 0x5C69bEe701ef814a2B6a3EDD4B1652CB9cc5aA6f */\n  0x01\n  exp(0x0100, 0x00)\n  dup2\n  sload\n  dup2\n  0xffffffffffffffffffffffffffffffffffffffff\n  mul\n  not\n  and\n  swap1\n  dup4\n  0xffffffffffffffffffffffffffffffffffffffff\n  and\n  mul\n  or\n  swap1\n  sstore\n  pop\n    /* \"Code-hardhat-ethersJs/contracts/AAVETest.sol\":1068:1110  0xC36442b4a4522E871399CD717aBDD847Ab11FE88 */\n  0xc36442b4a4522e871399cd717abdd847ab11fe88\n    /* \"Code-hardhat-ethersJs/contracts/AAVETest.sol\":1042:1110  address UNIV3POSaddress = 0xC36442b4a4522E871399CD717aBDD847Ab11FE88 */\n  0x02\n  exp(0x0100, 0x00)\n  dup2\n  sload\n  dup2\n  0xffffffffffffffffffffffffffffffffffffffff\n  mul\n  not\n  and\n  swap1\n  dup4\n  0xffffffffffffffffffffffffffffffffffffffff\n  and\n  mul\n  or\n  swap1\n  sstore\n  pop\n    /* \"Code-hardhat-ethersJs/contracts/AAVETest.sol\":1150:1192  0x1F98431c8aD98523631AE4a59f267346ea31F984 */\n  0x1f98431c8ad98523631ae4a59f267346ea31f984\n    /* \"Code-hardhat-ethersJs/contracts/AAVETest.sol\":1116:1192  address UniswapV3Factoryaddress = 0x1F98431c8aD98523631AE4a59f267346ea31F984 */\n  0x03\n  exp(0x0100, 0x00)\n  dup2\n  sload\n  dup2\n  0xffffffffffffffffffffffffffffffffffffffff\n  mul\n  not\n  and\n  swap1\n  dup4\n  0xffffffffffffffffffffffffffffffffffffffff\n  and\n  mul\n  or\n  swap1\n  sstore\n  pop\n    /* \"Code-hardhat-ethersJs/contracts/AAVETest.sol\":1228:1270  0x68b3465833fb72A70ecDF485E0e4C7bD8665Fc45 */\n  0x68b3465833fb72a70ecdf485e0e4c7bd8665fc45\n    /* \"Code-hardhat-ethersJs/contracts/AAVETest.sol\":1198:1270  address SwapRouter02address = 0x68b3465833fb72A70ecDF485E0e4C7bD8665Fc45 */\n  0x04\n  exp(0x0100, 0x00)\n  dup2\n  sload\n  dup2\n  0xffffffffffffffffffffffffffffffffffffffff\n  mul\n  not\n  and\n  swap1\n  dup4\n  0xffffffffffffffffffffffffffffffffffffffff\n  and\n  mul\n  or\n  swap1\n  sstore\n  pop\n    /* \"Code-hardhat-ethersJs/contracts/AAVETest.sol\":1313:1355  0x8Ca302E2B04ECDb5d14Cced580A379b40e8eD8b7 */\n  0x8ca302e2b04ecdb5d14cced580a379b40e8ed8b7\n    /* \"Code-hardhat-ethersJs/contracts/AAVETest.sol\":1292:1355  address MTTaddress = 0x8Ca302E2B04ECDb5d14Cced580A379b40e8eD8b7 */\n  0x05\n  exp(0x0100, 0x00)\n  dup2\n  sload\n  dup2\n  0xffffffffffffffffffffffffffffffffffffffff\n  mul\n  not\n  and\n  swap1\n  dup4\n  0xffffffffffffffffffffffffffffffffffffffff\n  and\n  mul\n  or\n  swap1\n  sstore\n  pop\n    /* \"Code-hardhat-ethersJs/contracts/AAVETest.sol\":1383:1425  0xFfaDa869df79320120dfFd6eeE8cF664Dba43146 */\n  0xffada869df79320120dffd6eee8cf664dba43146\n    /* \"Code-hardhat-ethersJs/contracts/AAVETest.sol\":1361:1425  address Linkaddress = 0xFfaDa869df79320120dfFd6eeE8cF664Dba43146 */\n  0x06\n  exp(0x0100, 0x00)\n  dup2\n  sload\n  dup2\n  0xffffffffffffffffffffffffffffffffffffffff\n  mul\n  not\n  and\n  swap1\n  dup4\n  0xffffffffffffffffffffffffffffffffffffffff\n  and\n  mul\n  or\n  swap1\n  sstore\n  pop\n    /* \"Code-hardhat-ethersJs/contracts/AAVETest.sol\":1617:1659  0x69F9e353F7411479912d2E9F3e436aE83486C17B */\n  0x69f9e353f7411479912d2e9f3e436ae83486c17b\n    /* \"Code-hardhat-ethersJs/contracts/AAVETest.sol\":1592:1659  address UV2Pairaddress = 0x69F9e353F7411479912d2E9F3e436aE83486C17B */\n  0x07\n  exp(0x0100, 0x00)\n  dup2\n  sload\n  dup2\n  0xffffffffffffffffffffffffffffffffffffffff\n  mul\n  not\n  and\n  swap1\n  dup4\n  0xffffffffffffffffffffffffffffffffffffffff\n  and\n  mul\n  or\n  swap1\n  sstore\n  pop\n    /* \"Code-hardhat-ethersJs/contracts/AAVETest.sol\":1811:1816  10961 */\n  0x2ad1\n    /* \"Code-hardhat-ethersJs/contracts/AAVETest.sol\":1790:1816  uint256 UV3tokenId = 10961 */\n  0x08\n  sstore\n    /* \"Code-hardhat-ethersJs/contracts/AAVETest.sol\":2685:2727  0x651b8A8cA545b251a8f49B57D5838Da0a8DFbEF9 */\n  0x651b8a8ca545b251a8f49b57d5838da0a8dfbef9\n    /* \"Code-hardhat-ethersJs/contracts/AAVETest.sol\":2653:2727  address PoolAddressesProvider = 0x651b8A8cA545b251a8f49B57D5838Da0a8DFbEF9 */\n  0x09\n  exp(0x0100, 0x00)\n  dup2\n  sload\n  dup2\n  0xffffffffffffffffffffffffffffffffffffffff\n  mul\n  not\n  and\n  swap1\n  dup4\n  0xffffffffffffffffffffffffffffffffffffffff\n  and\n  mul\n  or\n  swap1\n  sstore\n  pop\n    /* \"Code-hardhat-ethersJs/contracts/AAVETest.sol\":2757:2799  0x329462f8ed05E5FfBF6dfB84106e76B69e6B1F94 */\n  0x329462f8ed05e5ffbf6dfb84106e76b69e6b1f94\n    /* \"Code-hardhat-ethersJs/contracts/AAVETest.sol\":2735:2799  address POOLaddress = 0x329462f8ed05E5FfBF6dfB84106e76B69e6B1F94 */\n  0x0a\n  exp(0x0100, 0x00)\n  dup2\n  sload\n  dup2\n  0xffffffffffffffffffffffffffffffffffffffff\n  mul\n  not\n  and\n  swap1\n  dup4\n  0xffffffffffffffffffffffffffffffffffffffff\n  and\n  mul\n  or\n  swap1\n  sstore\n  pop\n    /* \"Code-hardhat-ethersJs/contracts/AAVETest.sol\":2892:2916  UniswapV2Router02address */\n  0x00\n  dup1\n  sload\n  swap1\n  0x0100\n  exp\n  swap1\n  div\n  0xffffffffffffffffffffffffffffffffffffffff\n  and\n    /* \"Code-hardhat-ethersJs/contracts/AAVETest.sol\":2842:2917  IUniswapV2Router02 uv2router = IUniswapV2Router02(UniswapV2Router02address) */\n  0x0b\n  exp(0x0100, 0x00)\n  dup2\n  sload\n  dup2\n  0xffffffffffffffffffffffffffffffffffffffff\n  mul\n  not\n  and\n  swap1\n  dup4\n  0xffffffffffffffffffffffffffffffffffffffff\n  and\n  mul\n  or\n  swap1\n  sstore\n  pop\n    /* \"Code-hardhat-ethersJs/contracts/AAVETest.sol\":2977:2996  SwapRouter02address */\n  0x04\n  0x00\n  swap1\n  sload\n  swap1\n  0x0100\n  exp\n  swap1\n  div\n  0xffffffffffffffffffffffffffffffffffffffff\n  and\n    /* \"Code-hardhat-ethersJs/contracts/AAVETest.sol\":2937:2997  IV3SwapRouter uv3router = IV3SwapRouter(SwapRouter02address) */\n  0x0c\n  exp(0x0100, 0x00)\n  dup2\n  sload\n  dup2\n  0xffffffffffffffffffffffffffffffffffffffff\n  mul\n  not\n  and\n  swap1\n  dup4\n  0xffffffffffffffffffffffffffffffffffffffff\n  and\n  mul\n  or\n  swap1\n  sstore\n  pop\n    /* \"Code-hardhat-ethersJs/contracts/AAVETest.sol\":3078:3088  MTTaddress */\n  0x05\n  0x00\n  swap1\n  sload\n  swap1\n  0x0100\n  exp\n  swap1\n  div\n  0xffffffffffffffffffffffffffffffffffffffff\n  and\n    /* \"Code-hardhat-ethersJs/contracts/AAVETest.sol\":3058:3089  IERC20 MTT = IERC20(MTTaddress) */\n  0x0d\n  exp(0x0100, 0x00)\n  dup2\n  sload\n  dup2\n  0xffffffffffffffffffffffffffffffffffffffff\n  mul\n  not\n  and\n  swap1\n  dup4\n  0xffffffffffffffffffffffffffffffffffffffff\n  and\n  mul\n  or\n  swap1\n  sstore\n  pop\n    /* \"Code-hardhat-ethersJs/contracts/AAVETest.sol\":3116:3127  Linkaddress */\n  0x06\n  0x00\n  swap1\n  sload\n  swap1\n  0x0100\n  exp\n  swap1\n  div\n  0xffffffffffffffffffffffffffffffffffffffff\n  and\n    /* \"Code-hardhat-ethersJs/contracts/AAVETest.sol\":3095:3128  IERC20 LINK = IERC20(Linkaddress) */\n  0x0e\n  exp(0x0100, 0x00)\n  dup2\n  sload\n  dup2\n  0xffffffffffffffffffffffffffffffffffffffff\n  mul\n  not\n  and\n  swap1\n  dup4\n  0xffffffffffffffffffffffffffffffffffffffff\n  and\n  mul\n  or\n  swap1\n  sstore\n  pop\n    /* \"Code-hardhat-ethersJs/contracts/AAVETest.sol\":3307:3456  constructor() {... */\n  callvalue\n  dup1\n  iszero\n  tag_1\n  jumpi\n  0x00\n  dup1\n  revert\ntag_1:\n  pop\n    /* \"Code-hardhat-ethersJs/contracts/AAVETest.sol\":3375:3396  PoolAddressesProvider */\n  0x09\n  0x00\n  swap1\n  sload\n  swap1\n  0x0100\n  exp\n  swap1\n  div\n  0xffffffffffffffffffffffffffffffffffffffff\n  and\n    /* \"Code-hardhat-ethersJs/contracts/AAVETest.sol\":3331:3397  ADDRESSES_PROVIDER = IPoolAddressesProvider(PoolAddressesProvider) */\n  0xffffffffffffffffffffffffffffffffffffffff\n  and\n  0x80\n  dup2\n  0xffffffffffffffffffffffffffffffffffffffff\n  and\n  dup2\n  mstore\n  pop\n  pop\n    /* \"Code-hardhat-ethersJs/contracts/AAVETest.sol\":3420:3438  ADDRESSES_PROVIDER */\n  mload(0x80)\n    /* \"Code-hardhat-ethersJs/contracts/AAVETest.sol\":3420:3446  ADDRESSES_PROVIDER.getPool */\n  0xffffffffffffffffffffffffffffffffffffffff\n  and\n  0x026b1d5f\n    /* \"Code-hardhat-ethersJs/contracts/AAVETest.sol\":3420:3448  ADDRESSES_PROVIDER.getPool() */\n  mload(0x40)\n  dup2\n  0xffffffff\n  and\n  0xe0\n  shl\n  dup2\n  mstore\n  0x04\n  add\n  0x20\n  mload(0x40)\n  dup1\n  dup4\n  sub\n  dup2\n  dup7\n  gas\n  staticcall\n  iszero\n  dup1\n  iszero\n  tag_5\n  jumpi\n  returndatasize\n  0x00\n  dup1\n  returndatacopy\n  revert(0x00, returndatasize)\ntag_5:\n  pop\n  pop\n  pop\n  pop\n  mload(0x40)\n  returndatasize\n  not(0x1f)\n  0x1f\n  dup3\n  add\n  and\n  dup3\n  add\n  dup1\n  0x40\n  mstore\n  pop\n  dup2\n  add\n  swap1\n  tag_6\n  swap2\n  swap1\n  tag_7\n  jump\t// in\ntag_6:\n    /* \"Code-hardhat-ethersJs/contracts/AAVETest.sol\":3407:3449  POOL = IPool(ADDRESSES_PROVIDER.getPool()) */\n  0xffffffffffffffffffffffffffffffffffffffff\n  and\n  0xa0\n  dup2\n  0xffffffffffffffffffffffffffffffffffffffff\n  and\n  dup2\n  mstore\n  pop\n  pop\n    /* \"Code-hardhat-ethersJs/contracts/AAVETest.sol\":768:6268  contract AAVETest is IFlashLoanSimpleReceiver {... */\n  jump(tag_8)\n    /* \"#utility.yul\":88:205   */\ntag_10:\n    /* \"#utility.yul\":197:198   */\n  0x00\n    /* \"#utility.yul\":194:195   */\n  dup1\n    /* \"#utility.yul\":187:199   */\n  revert\n    /* \"#utility.yul\":334:460   */\ntag_12:\n    /* \"#utility.yul\":371:378   */\n  0x00\n    /* \"#utility.yul\":411:453   */\n  0xffffffffffffffffffffffffffffffffffffffff\n    /* \"#utility.yul\":404:409   */\n  dup3\n    /* \"#utility.yul\":400:454   */\n  and\n    /* \"#utility.yul\":389:454   */\n  swap1\n  pop\n    /* \"#utility.yul\":334:460   */\n  swap2\n  swap1\n  pop\n  jump\t// out\n    /* \"#utility.yul\":466:562   */\ntag_13:\n    /* \"#utility.yul\":503:510   */\n  0x00\n    /* \"#utility.yul\":532:556   */\n  tag_22\n    /* \"#utility.yul\":550:555   */\n  dup3\n    /* \"#utility.yul\":532:556   */\n  tag_12\n  jump\t// in\ntag_22:\n    /* \"#utility.yul\":521:556   */\n  swap1\n  pop\n    /* \"#utility.yul\":466:562   */\n  swap2\n  swap1\n  pop\n  jump\t// out\n    /* \"#utility.yul\":568:690   */\ntag_14:\n    /* \"#utility.yul\":641:665   */\n  tag_24\n    /* \"#utility.yul\":659:664   */\n  dup2\n    /* \"#utility.yul\":641:665   */\n  tag_13\n  jump\t// in\ntag_24:\n    /* \"#utility.yul\":634:639   */\n  dup2\n    /* \"#utility.yul\":631:666   */\n  eq\n    /* \"#utility.yul\":621:684   */\n  tag_25\n  jumpi\n    /* \"#utility.yul\":680:681   */\n  0x00\n    /* \"#utility.yul\":677:678   */\n  dup1\n    /* \"#utility.yul\":670:682   */\n  revert\n    /* \"#utility.yul\":621:684   */\ntag_25:\n    /* \"#utility.yul\":568:690   */\n  pop\n  jump\t// out\n    /* \"#utility.yul\":696:839   */\ntag_15:\n    /* \"#utility.yul\":753:758   */\n  0x00\n    /* \"#utility.yul\":784:790   */\n  dup2\n    /* \"#utility.yul\":778:791   */\n  mload\n    /* \"#utility.yul\":769:791   */\n  swap1\n  pop\n    /* \"#utility.yul\":800:833   */\n  tag_27\n    /* \"#utility.yul\":827:832   */\n  dup2\n    /* \"#utility.yul\":800:833   */\n  tag_14\n  jump\t// in\ntag_27:\n    /* \"#utility.yul\":696:839   */\n  swap3\n  swap2\n  pop\n  pop\n  jump\t// out\n    /* \"#utility.yul\":845:1196   */\ntag_7:\n    /* \"#utility.yul\":915:921   */\n  0x00\n    /* \"#utility.yul\":964:966   */\n  0x20\n    /* \"#utility.yul\":952:961   */\n  dup3\n    /* \"#utility.yul\":943:950   */\n  dup5\n    /* \"#utility.yul\":939:962   */\n  sub\n    /* \"#utility.yul\":935:967   */\n  slt\n    /* \"#utility.yul\":932:1051   */\n  iszero\n  tag_29\n  jumpi\n    /* \"#utility.yul\":970:1049   */\n  tag_30\n  tag_10\n  jump\t// in\ntag_30:\n    /* \"#utility.yul\":932:1051   */\ntag_29:\n    /* \"#utility.yul\":1090:1091   */\n  0x00\n    /* \"#utility.yul\":1115:1179   */\n  tag_31\n    /* \"#utility.yul\":1171:1178   */\n  dup5\n    /* \"#utility.yul\":1162:1168   */\n  dup3\n    /* \"#utility.yul\":1151:1160   */\n  dup6\n    /* \"#utility.yul\":1147:1169   */\n  add\n    /* \"#utility.yul\":1115:1179   */\n  tag_15\n  jump\t// in\ntag_31:\n    /* \"#utility.yul\":1105:1179   */\n  swap2\n  pop\n    /* \"#utility.yul\":1061:1189   */\n  pop\n    /* \"#utility.yul\":845:1196   */\n  swap3\n  swap2\n  pop\n  pop\n  jump\t// out\n    /* \"Code-hardhat-ethersJs/contracts/AAVETest.sol\":768:6268  contract AAVETest is IFlashLoanSimpleReceiver {... */\ntag_8:\n  mload(0x80)\n  mload(0xa0)\n  codecopy(0x00, dataOffset(sub_0), dataSize(sub_0))\n  0x00\n  assignImmutable(\"0xa42b7d1f05acf03c200860043f80d0550ff80f4157ebae1a0626f33732ff747e\")\n  0x00\n  assignImmutable(\"0x6e9c1e9b4cffdb0506f5777d5c470fc4cc130c577ca9ec877349c071269dfbe2\")\n  return(0x00, dataSize(sub_0))\nstop\n\nsub_0: assembly {\n        /* \"Code-hardhat-ethersJs/contracts/AAVETest.sol\":768:6268  contract AAVETest is IFlashLoanSimpleReceiver {... */\n      mstore(0x40, 0x80)\n      callvalue\n      dup1\n      iszero\n      tag_1\n      jumpi\n      0x00\n      dup1\n      revert\n    tag_1:\n      pop\n      jumpi(tag_2, lt(calldatasize, 0x04))\n      shr(0xe0, calldataload(0x00))\n      dup1\n      0x0542975c\n      eq\n      tag_3\n      jumpi\n      dup1\n      0x1b11d0ff\n      eq\n      tag_4\n      jumpi\n      dup1\n      0x7535d246\n      eq\n      tag_5\n      jumpi\n      dup1\n      0xcea8fe55\n      eq\n      tag_6\n      jumpi\n    tag_2:\n      0x00\n      dup1\n      revert\n        /* \"Code-hardhat-ethersJs/contracts/AAVETest.sol\":3147:3214  IPoolAddressesProvider public immutable override ADDRESSES_PROVIDER */\n    tag_3:\n      tag_7\n      tag_8\n      jump\t// in\n    tag_7:\n      mload(0x40)\n      tag_9\n      swap2\n      swap1\n      tag_10\n      jump\t// in\n    tag_9:\n      mload(0x40)\n      dup1\n      swap2\n      sub\n      swap1\n      return\n        /* \"Code-hardhat-ethersJs/contracts/AAVETest.sol\":4916:6260  function executeOperation(... */\n    tag_4:\n      tag_11\n      0x04\n      dup1\n      calldatasize\n      sub\n      dup2\n      add\n      swap1\n      tag_12\n      swap2\n      swap1\n      tag_13\n      jump\t// in\n    tag_12:\n      tag_14\n      jump\t// in\n    tag_11:\n      mload(0x40)\n      tag_15\n      swap2\n      swap1\n      tag_16\n      jump\t// in\n    tag_15:\n      mload(0x40)\n      dup1\n      swap2\n      sub\n      swap1\n      return\n        /* \"Code-hardhat-ethersJs/contracts/AAVETest.sol\":3220:3256  IPool public immutable override POOL */\n    tag_5:\n      tag_17\n      tag_18\n      jump\t// in\n    tag_17:\n      mload(0x40)\n      tag_19\n      swap2\n      swap1\n      tag_20\n      jump\t// in\n    tag_19:\n      mload(0x40)\n      dup1\n      swap2\n      sub\n      swap1\n      return\n        /* \"Code-hardhat-ethersJs/contracts/AAVETest.sol\":3956:4910  function testAAVE(address asset,uint256 _amount) public {... */\n    tag_6:\n      tag_21\n      0x04\n      dup1\n      calldatasize\n      sub\n      dup2\n      add\n      swap1\n      tag_22\n      swap2\n      swap1\n      tag_23\n      jump\t// in\n    tag_22:\n      tag_24\n      jump\t// in\n    tag_21:\n      stop\n        /* \"Code-hardhat-ethersJs/contracts/AAVETest.sol\":3147:3214  IPoolAddressesProvider public immutable override ADDRESSES_PROVIDER */\n    tag_8:\n      immutable(\"0x6e9c1e9b4cffdb0506f5777d5c470fc4cc130c577ca9ec877349c071269dfbe2\")\n      dup2\n      jump\t// out\n        /* \"Code-hardhat-ethersJs/contracts/AAVETest.sol\":4916:6260  function executeOperation(... */\n    tag_14:\n        /* \"Code-hardhat-ethersJs/contracts/AAVETest.sol\":5141:5145  bool */\n      0x00\n        /* \"Code-hardhat-ethersJs/contracts/AAVETest.sol\":5278:5297  uint256 amountOwing */\n      dup1\n        /* \"Code-hardhat-ethersJs/contracts/AAVETest.sol\":5300:5319  amount.add(premium) */\n      tag_26\n        /* \"Code-hardhat-ethersJs/contracts/AAVETest.sol\":5311:5318  premium */\n      dup7\n        /* \"Code-hardhat-ethersJs/contracts/AAVETest.sol\":5300:5306  amount */\n      dup9\n        /* \"Code-hardhat-ethersJs/contracts/AAVETest.sol\":5300:5310  amount.add */\n      tag_27\n      swap1\n        /* \"Code-hardhat-ethersJs/contracts/AAVETest.sol\":5300:5319  amount.add(premium) */\n      swap2\n      swap1\n      0xffffffff\n      and\n      jump\t// in\n    tag_26:\n        /* \"Code-hardhat-ethersJs/contracts/AAVETest.sol\":5278:5319  uint256 amountOwing = amount.add(premium) */\n      swap1\n      pop\n        /* \"Code-hardhat-ethersJs/contracts/AAVETest.sol\":5336:5341  asset */\n      dup8\n        /* \"Code-hardhat-ethersJs/contracts/AAVETest.sol\":5329:5350  IERC20(asset).approve */\n      0xffffffffffffffffffffffffffffffffffffffff\n      and\n      0x095ea7b3\n        /* \"Code-hardhat-ethersJs/contracts/AAVETest.sol\":5359:5363  POOL */\n      immutable(\"0xa42b7d1f05acf03c200860043f80d0550ff80f4157ebae1a0626f33732ff747e\")\n        /* \"Code-hardhat-ethersJs/contracts/AAVETest.sol\":5366:5377  amountOwing */\n      dup4\n        /* \"Code-hardhat-ethersJs/contracts/AAVETest.sol\":5329:5378  IERC20(asset).approve(address(POOL), amountOwing) */\n      mload(0x40)\n      dup4\n      0xffffffff\n      and\n      0xe0\n      shl\n      dup2\n      mstore\n      0x04\n      add\n      tag_28\n      swap3\n      swap2\n      swap1\n      tag_29\n      jump\t// in\n    tag_28:\n      0x20\n      mload(0x40)\n      dup1\n      dup4\n      sub\n      dup2\n      0x00\n      dup8\n      gas\n      call\n      iszero\n      dup1\n      iszero\n      tag_31\n      jumpi\n      returndatasize\n      0x00\n      dup1\n      returndatacopy\n      revert(0x00, returndatasize)\n    tag_31:\n      pop\n      pop\n      pop\n      pop\n      mload(0x40)\n      returndatasize\n      not(0x1f)\n      0x1f\n      dup3\n      add\n      and\n      dup3\n      add\n      dup1\n      0x40\n      mstore\n      pop\n      dup2\n      add\n      swap1\n      tag_32\n      swap2\n      swap1\n      tag_33\n      jump\t// in\n    tag_32:\n      pop\n        /* \"Code-hardhat-ethersJs/contracts/AAVETest.sol\":5388:5409  address[] memory path */\n      0x00\n        /* \"Code-hardhat-ethersJs/contracts/AAVETest.sol\":5426:5427  2 */\n      0x02\n        /* \"Code-hardhat-ethersJs/contracts/AAVETest.sol\":5412:5428  new address[](2) */\n      0xffffffffffffffff\n      dup2\n      gt\n      iszero\n      tag_34\n      jumpi\n      tag_35\n      tag_36\n      jump\t// in\n    tag_35:\n    tag_34:\n      mload(0x40)\n      swap1\n      dup1\n      dup3\n      mstore\n      dup1\n      0x20\n      mul\n      0x20\n      add\n      dup3\n      add\n      0x40\n      mstore\n      dup1\n      iszero\n      tag_37\n      jumpi\n      dup2\n      0x20\n      add\n      0x20\n      dup3\n      mul\n      dup1\n      calldatasize\n      dup4\n      calldatacopy\n      dup1\n      dup3\n      add\n      swap2\n      pop\n      pop\n      swap1\n      pop\n    tag_37:\n      pop\n        /* \"Code-hardhat-ethersJs/contracts/AAVETest.sol\":5388:5428  address[] memory path = new address[](2) */\n      swap1\n      pop\n        /* \"Code-hardhat-ethersJs/contracts/AAVETest.sol\":5448:5459  Linkaddress */\n      0x06\n      0x00\n      swap1\n      sload\n      swap1\n      0x0100\n      exp\n      swap1\n      div\n      0xffffffffffffffffffffffffffffffffffffffff\n      and\n        /* \"Code-hardhat-ethersJs/contracts/AAVETest.sol\":5438:5442  path */\n      dup2\n        /* \"Code-hardhat-ethersJs/contracts/AAVETest.sol\":5443:5444  0 */\n      0x00\n        /* \"Code-hardhat-ethersJs/contracts/AAVETest.sol\":5438:5445  path[0] */\n      dup2\n      mload\n      dup2\n      lt\n      tag_38\n      jumpi\n      tag_39\n      tag_40\n      jump\t// in\n    tag_39:\n    tag_38:\n      0x20\n      mul\n      0x20\n      add\n      add\n        /* \"Code-hardhat-ethersJs/contracts/AAVETest.sol\":5438:5459  path[0] = Linkaddress */\n      swap1\n      0xffffffffffffffffffffffffffffffffffffffff\n      and\n      swap1\n      dup2\n      0xffffffffffffffffffffffffffffffffffffffff\n      and\n      dup2\n      mstore\n      pop\n      pop\n        /* \"Code-hardhat-ethersJs/contracts/AAVETest.sol\":5479:5489  MTTaddress */\n      0x05\n      0x00\n      swap1\n      sload\n      swap1\n      0x0100\n      exp\n      swap1\n      div\n      0xffffffffffffffffffffffffffffffffffffffff\n      and\n        /* \"Code-hardhat-ethersJs/contracts/AAVETest.sol\":5469:5473  path */\n      dup2\n        /* \"Code-hardhat-ethersJs/contracts/AAVETest.sol\":5474:5475  1 */\n      0x01\n        /* \"Code-hardhat-ethersJs/contracts/AAVETest.sol\":5469:5476  path[1] */\n      dup2\n      mload\n      dup2\n      lt\n      tag_41\n      jumpi\n      tag_42\n      tag_40\n      jump\t// in\n    tag_42:\n    tag_41:\n      0x20\n      mul\n      0x20\n      add\n      add\n        /* \"Code-hardhat-ethersJs/contracts/AAVETest.sol\":5469:5489  path[1] = MTTaddress */\n      swap1\n      0xffffffffffffffffffffffffffffffffffffffff\n      and\n      swap1\n      dup2\n      0xffffffffffffffffffffffffffffffffffffffff\n      and\n      dup2\n      mstore\n      pop\n      pop\n        /* \"Code-hardhat-ethersJs/contracts/AAVETest.sol\":5682:5696  uint amountOut */\n      0x00\n        /* \"Code-hardhat-ethersJs/contracts/AAVETest.sol\":5718:5727  uv2router */\n      0x0b\n      0x00\n      swap1\n      sload\n      swap1\n      0x0100\n      exp\n      swap1\n      div\n      0xffffffffffffffffffffffffffffffffffffffff\n      and\n        /* \"Code-hardhat-ethersJs/contracts/AAVETest.sol\":5699:5753  IUniswapV2Router01(uv2router).swapExactTokensForTokens */\n      0xffffffffffffffffffffffffffffffffffffffff\n      and\n      0x38ed1739\n        /* \"Code-hardhat-ethersJs/contracts/AAVETest.sol\":5754:5760  amount */\n      dup11\n        /* \"Code-hardhat-ethersJs/contracts/AAVETest.sol\":5762:5763  1 */\n      0x01\n        /* \"Code-hardhat-ethersJs/contracts/AAVETest.sol\":5765:5769  path */\n      dup6\n        /* \"Code-hardhat-ethersJs/contracts/AAVETest.sol\":5779:5783  this */\n      address\n        /* \"Code-hardhat-ethersJs/contracts/AAVETest.sol\":5786:5801  block.timestamp */\n      timestamp\n        /* \"Code-hardhat-ethersJs/contracts/AAVETest.sol\":5699:5802  IUniswapV2Router01(uv2router).swapExactTokensForTokens(amount, 1, path, address(this), block.timestamp) */\n      mload(0x40)\n      dup7\n      0xffffffff\n      and\n      0xe0\n      shl\n      dup2\n      mstore\n      0x04\n      add\n      tag_43\n      swap6\n      swap5\n      swap4\n      swap3\n      swap2\n      swap1\n      tag_44\n      jump\t// in\n    tag_43:\n      0x00\n      mload(0x40)\n      dup1\n      dup4\n      sub\n      dup2\n      0x00\n      dup8\n      gas\n      call\n      iszero\n      dup1\n      iszero\n      tag_46\n      jumpi\n      returndatasize\n      0x00\n      dup1\n      returndatacopy\n      revert(0x00, returndatasize)\n    tag_46:\n      pop\n      pop\n      pop\n      pop\n      mload(0x40)\n      returndatasize\n      0x00\n      dup3\n      returndatacopy\n      returndatasize\n      not(0x1f)\n      0x1f\n      dup3\n      add\n      and\n      dup3\n      add\n      dup1\n      0x40\n      mstore\n      pop\n      dup2\n      add\n      swap1\n      tag_47\n      swap2\n      swap1\n      tag_48\n      jump\t// in\n    tag_47:\n        /* \"Code-hardhat-ethersJs/contracts/AAVETest.sol\":5803:5804  1 */\n      0x01\n        /* \"Code-hardhat-ethersJs/contracts/AAVETest.sol\":5699:5805  IUniswapV2Router01(uv2router).swapExactTokensForTokens(amount, 1, path, address(this), block.timestamp)[1] */\n      dup2\n      mload\n      dup2\n      lt\n      tag_49\n      jumpi\n      tag_50\n      tag_40\n      jump\t// in\n    tag_50:\n    tag_49:\n      0x20\n      mul\n      0x20\n      add\n      add\n      mload\n        /* \"Code-hardhat-ethersJs/contracts/AAVETest.sol\":5682:5805  uint amountOut = IUniswapV2Router01(uv2router).swapExactTokensForTokens(amount, 1, path, address(this), block.timestamp)[1] */\n      swap1\n      pop\n        /* \"Code-hardhat-ethersJs/contracts/AAVETest.sol\":5815:5864  IV3SwapRouter.ExactInputSingleParams memory param */\n      0x00\n        /* \"Code-hardhat-ethersJs/contracts/AAVETest.sol\":5867:5966  IV3SwapRouter.ExactInputSingleParams(MTTaddress, Linkaddress, 3000, address(this), amountOut, 0, 0) */\n      mload(0x40)\n      dup1\n      0xe0\n      add\n      0x40\n      mstore\n      dup1\n        /* \"Code-hardhat-ethersJs/contracts/AAVETest.sol\":5904:5914  MTTaddress */\n      0x05\n      0x00\n      swap1\n      sload\n      swap1\n      0x0100\n      exp\n      swap1\n      div\n      0xffffffffffffffffffffffffffffffffffffffff\n      and\n        /* \"Code-hardhat-ethersJs/contracts/AAVETest.sol\":5867:5966  IV3SwapRouter.ExactInputSingleParams(MTTaddress, Linkaddress, 3000, address(this), amountOut, 0, 0) */\n      0xffffffffffffffffffffffffffffffffffffffff\n      and\n      dup2\n      mstore\n      0x20\n      add\n        /* \"Code-hardhat-ethersJs/contracts/AAVETest.sol\":5916:5927  Linkaddress */\n      0x06\n      0x00\n      swap1\n      sload\n      swap1\n      0x0100\n      exp\n      swap1\n      div\n      0xffffffffffffffffffffffffffffffffffffffff\n      and\n        /* \"Code-hardhat-ethersJs/contracts/AAVETest.sol\":5867:5966  IV3SwapRouter.ExactInputSingleParams(MTTaddress, Linkaddress, 3000, address(this), amountOut, 0, 0) */\n      0xffffffffffffffffffffffffffffffffffffffff\n      and\n      dup2\n      mstore\n      0x20\n      add\n        /* \"Code-hardhat-ethersJs/contracts/AAVETest.sol\":5929:5933  3000 */\n      0x0bb8\n        /* \"Code-hardhat-ethersJs/contracts/AAVETest.sol\":5867:5966  IV3SwapRouter.ExactInputSingleParams(MTTaddress, Linkaddress, 3000, address(this), amountOut, 0, 0) */\n      0xffffff\n      and\n      dup2\n      mstore\n      0x20\n      add\n        /* \"Code-hardhat-ethersJs/contracts/AAVETest.sol\":5943:5947  this */\n      address\n        /* \"Code-hardhat-ethersJs/contracts/AAVETest.sol\":5867:5966  IV3SwapRouter.ExactInputSingleParams(MTTaddress, Linkaddress, 3000, address(this), amountOut, 0, 0) */\n      0xffffffffffffffffffffffffffffffffffffffff\n      and\n      dup2\n      mstore\n      0x20\n      add\n        /* \"Code-hardhat-ethersJs/contracts/AAVETest.sol\":5950:5959  amountOut */\n      dup4\n        /* \"Code-hardhat-ethersJs/contracts/AAVETest.sol\":5867:5966  IV3SwapRouter.ExactInputSingleParams(MTTaddress, Linkaddress, 3000, address(this), amountOut, 0, 0) */\n      dup2\n      mstore\n      0x20\n      add\n        /* \"Code-hardhat-ethersJs/contracts/AAVETest.sol\":5961:5962  0 */\n      0x00\n        /* \"Code-hardhat-ethersJs/contracts/AAVETest.sol\":5867:5966  IV3SwapRouter.ExactInputSingleParams(MTTaddress, Linkaddress, 3000, address(this), amountOut, 0, 0) */\n      dup2\n      mstore\n      0x20\n      add\n        /* \"Code-hardhat-ethersJs/contracts/AAVETest.sol\":5964:5965  0 */\n      0x00\n        /* \"Code-hardhat-ethersJs/contracts/AAVETest.sol\":5867:5966  IV3SwapRouter.ExactInputSingleParams(MTTaddress, Linkaddress, 3000, address(this), amountOut, 0, 0) */\n      0xffffffffffffffffffffffffffffffffffffffff\n      and\n      dup2\n      mstore\n      pop\n        /* \"Code-hardhat-ethersJs/contracts/AAVETest.sol\":5815:5966  IV3SwapRouter.ExactInputSingleParams memory param = IV3SwapRouter.ExactInputSingleParams(MTTaddress, Linkaddress, 3000, address(this), amountOut, 0, 0) */\n      swap1\n      pop\n        /* \"Code-hardhat-ethersJs/contracts/AAVETest.sol\":5976:5995  uint amountReceived */\n      0x00\n        /* \"Code-hardhat-ethersJs/contracts/AAVETest.sol\":5998:6007  uv3router */\n      0x0c\n      0x00\n      swap1\n      sload\n      swap1\n      0x0100\n      exp\n      swap1\n      div\n      0xffffffffffffffffffffffffffffffffffffffff\n      and\n        /* \"Code-hardhat-ethersJs/contracts/AAVETest.sol\":5998:6024  uv3router.exactInputSingle */\n      0xffffffffffffffffffffffffffffffffffffffff\n      and\n      0x04e45aaf\n        /* \"Code-hardhat-ethersJs/contracts/AAVETest.sol\":6025:6030  param */\n      dup4\n        /* \"Code-hardhat-ethersJs/contracts/AAVETest.sol\":5998:6031  uv3router.exactInputSingle(param) */\n      mload(0x40)\n      dup3\n      0xffffffff\n      and\n      0xe0\n      shl\n      dup2\n      mstore\n      0x04\n      add\n      tag_51\n      swap2\n      swap1\n      tag_52\n      jump\t// in\n    tag_51:\n      0x20\n      mload(0x40)\n      dup1\n      dup4\n      sub\n      dup2\n      0x00\n      dup8\n      gas\n      call\n      iszero\n      dup1\n      iszero\n      tag_54\n      jumpi\n      returndatasize\n      0x00\n      dup1\n      returndatacopy\n      revert(0x00, returndatasize)\n    tag_54:\n      pop\n      pop\n      pop\n      pop\n      mload(0x40)\n      returndatasize\n      not(0x1f)\n      0x1f\n      dup3\n      add\n      and\n      dup3\n      add\n      dup1\n      0x40\n      mstore\n      pop\n      dup2\n      add\n      swap1\n      tag_55\n      swap2\n      swap1\n      tag_56\n      jump\t// in\n    tag_55:\n        /* \"Code-hardhat-ethersJs/contracts/AAVETest.sol\":5976:6031  uint amountReceived = uv3router.exactInputSingle(param) */\n      swap1\n      pop\n        /* \"Code-hardhat-ethersJs/contracts/AAVETest.sol\":6062:6073  amountOwing */\n      dup5\n        /* \"Code-hardhat-ethersJs/contracts/AAVETest.sol\":6045:6059  amountReceived */\n      dup2\n        /* \"Code-hardhat-ethersJs/contracts/AAVETest.sol\":6045:6073  amountReceived > amountOwing */\n      gt\n        /* \"Code-hardhat-ethersJs/contracts/AAVETest.sol\":6042:6233  if(amountReceived > amountOwing){//成功才还钱... */\n      iszero\n      tag_57\n      jumpi\n        /* \"Code-hardhat-ethersJs/contracts/AAVETest.sol\":6112:6117  asset */\n      dup12\n        /* \"Code-hardhat-ethersJs/contracts/AAVETest.sol\":6105:6126  IERC20(asset).approve */\n      0xffffffffffffffffffffffffffffffffffffffff\n      and\n      0x095ea7b3\n        /* \"Code-hardhat-ethersJs/contracts/AAVETest.sol\":6135:6139  POOL */\n      immutable(\"0xa42b7d1f05acf03c200860043f80d0550ff80f4157ebae1a0626f33732ff747e\")\n        /* \"Code-hardhat-ethersJs/contracts/AAVETest.sol\":6142:6153  amountOwing */\n      dup8\n        /* \"Code-hardhat-ethersJs/contracts/AAVETest.sol\":6105:6154  IERC20(asset).approve(address(POOL), amountOwing) */\n      mload(0x40)\n      dup4\n      0xffffffff\n      and\n      0xe0\n      shl\n      dup2\n      mstore\n      0x04\n      add\n      tag_58\n      swap3\n      swap2\n      swap1\n      tag_29\n      jump\t// in\n    tag_58:\n      0x20\n      mload(0x40)\n      dup1\n      dup4\n      sub\n      dup2\n      0x00\n      dup8\n      gas\n      call\n      iszero\n      dup1\n      iszero\n      tag_60\n      jumpi\n      returndatasize\n      0x00\n      dup1\n      returndatacopy\n      revert(0x00, returndatasize)\n    tag_60:\n      pop\n      pop\n      pop\n      pop\n      mload(0x40)\n      returndatasize\n      not(0x1f)\n      0x1f\n      dup3\n      add\n      and\n      dup3\n      add\n      dup1\n      0x40\n      mstore\n      pop\n      dup2\n      add\n      swap1\n      tag_61\n      swap2\n      swap1\n      tag_33\n      jump\t// in\n    tag_61:\n      pop\n        /* \"Code-hardhat-ethersJs/contracts/AAVETest.sol\":6042:6233  if(amountReceived > amountOwing){//成功才还钱... */\n      jump(tag_62)\n    tag_57:\n        /* \"Code-hardhat-ethersJs/contracts/AAVETest.sol\":6190:6195  asset */\n      dup12\n        /* \"Code-hardhat-ethersJs/contracts/AAVETest.sol\":6183:6204  IERC20(asset).approve */\n      0xffffffffffffffffffffffffffffffffffffffff\n      and\n      0x095ea7b3\n        /* \"Code-hardhat-ethersJs/contracts/AAVETest.sol\":6213:6217  POOL */\n      immutable(\"0xa42b7d1f05acf03c200860043f80d0550ff80f4157ebae1a0626f33732ff747e\")\n        /* \"Code-hardhat-ethersJs/contracts/AAVETest.sol\":6220:6221  0 */\n      0x00\n        /* \"Code-hardhat-ethersJs/contracts/AAVETest.sol\":6183:6222  IERC20(asset).approve(address(POOL), 0) */\n      mload(0x40)\n      dup4\n      0xffffffff\n      and\n      0xe0\n      shl\n      dup2\n      mstore\n      0x04\n      add\n      tag_63\n      swap3\n      swap2\n      swap1\n      tag_64\n      jump\t// in\n    tag_63:\n      0x20\n      mload(0x40)\n      dup1\n      dup4\n      sub\n      dup2\n      0x00\n      dup8\n      gas\n      call\n      iszero\n      dup1\n      iszero\n      tag_66\n      jumpi\n      returndatasize\n      0x00\n      dup1\n      returndatacopy\n      revert(0x00, returndatasize)\n    tag_66:\n      pop\n      pop\n      pop\n      pop\n      mload(0x40)\n      returndatasize\n      not(0x1f)\n      0x1f\n      dup3\n      add\n      and\n      dup3\n      add\n      dup1\n      0x40\n      mstore\n      pop\n      dup2\n      add\n      swap1\n      tag_67\n      swap2\n      swap1\n      tag_33\n      jump\t// in\n    tag_67:\n      pop\n        /* \"Code-hardhat-ethersJs/contracts/AAVETest.sol\":6042:6233  if(amountReceived > amountOwing){//成功才还钱... */\n    tag_62:\n        /* \"Code-hardhat-ethersJs/contracts/AAVETest.sol\":6249:6253  true */\n      0x01\n        /* \"Code-hardhat-ethersJs/contracts/AAVETest.sol\":6242:6253  return true */\n      swap6\n      pop\n      pop\n      pop\n      pop\n      pop\n      pop\n        /* \"Code-hardhat-ethersJs/contracts/AAVETest.sol\":4916:6260  function executeOperation(... */\n      swap7\n      swap6\n      pop\n      pop\n      pop\n      pop\n      pop\n      pop\n      jump\t// out\n        /* \"Code-hardhat-ethersJs/contracts/AAVETest.sol\":3220:3256  IPool public immutable override POOL */\n    tag_18:\n      immutable(\"0xa42b7d1f05acf03c200860043f80d0550ff80f4157ebae1a0626f33732ff747e\")\n      dup2\n      jump\t// out\n        /* \"Code-hardhat-ethersJs/contracts/AAVETest.sol\":3956:4910  function testAAVE(address asset,uint256 _amount) public {... */\n    tag_24:\n        /* \"Code-hardhat-ethersJs/contracts/AAVETest.sol\":4022:4045  address receiverAddress */\n      0x00\n        /* \"Code-hardhat-ethersJs/contracts/AAVETest.sol\":4056:4060  this */\n      address\n        /* \"Code-hardhat-ethersJs/contracts/AAVETest.sol\":4022:4061  address receiverAddress = address(this) */\n      swap1\n      pop\n        /* \"Code-hardhat-ethersJs/contracts/AAVETest.sol\":4072:4095  address[] memory assets */\n      0x00\n        /* \"Code-hardhat-ethersJs/contracts/AAVETest.sol\":4112:4113  1 */\n      0x01\n        /* \"Code-hardhat-ethersJs/contracts/AAVETest.sol\":4098:4114  new address[](1) */\n      0xffffffffffffffff\n      dup2\n      gt\n      iszero\n      tag_69\n      jumpi\n      tag_70\n      tag_36\n      jump\t// in\n    tag_70:\n    tag_69:\n      mload(0x40)\n      swap1\n      dup1\n      dup3\n      mstore\n      dup1\n      0x20\n      mul\n      0x20\n      add\n      dup3\n      add\n      0x40\n      mstore\n      dup1\n      iszero\n      tag_71\n      jumpi\n      dup2\n      0x20\n      add\n      0x20\n      dup3\n      mul\n      dup1\n      calldatasize\n      dup4\n      calldatacopy\n      dup1\n      dup3\n      add\n      swap2\n      pop\n      pop\n      swap1\n      pop\n    tag_71:\n      pop\n        /* \"Code-hardhat-ethersJs/contracts/AAVETest.sol\":4072:4114  address[] memory assets = new address[](1) */\n      swap1\n      pop\n        /* \"Code-hardhat-ethersJs/contracts/AAVETest.sol\":4136:4141  asset */\n      dup4\n        /* \"Code-hardhat-ethersJs/contracts/AAVETest.sol\":4124:4130  assets */\n      dup2\n        /* \"Code-hardhat-ethersJs/contracts/AAVETest.sol\":4131:4132  0 */\n      0x00\n        /* \"Code-hardhat-ethersJs/contracts/AAVETest.sol\":4124:4133  assets[0] */\n      dup2\n      mload\n      dup2\n      lt\n      tag_72\n      jumpi\n      tag_73\n      tag_40\n      jump\t// in\n    tag_73:\n    tag_72:\n      0x20\n      mul\n      0x20\n      add\n      add\n        /* \"Code-hardhat-ethersJs/contracts/AAVETest.sol\":4124:4141  assets[0] = asset */\n      swap1\n      0xffffffffffffffffffffffffffffffffffffffff\n      and\n      swap1\n      dup2\n      0xffffffffffffffffffffffffffffffffffffffff\n      and\n      dup2\n      mstore\n      pop\n      pop\n        /* \"Code-hardhat-ethersJs/contracts/AAVETest.sol\":4151:4175  uint256[] memory amounts */\n      0x00\n        /* \"Code-hardhat-ethersJs/contracts/AAVETest.sol\":4192:4193  1 */\n      0x01\n        /* \"Code-hardhat-ethersJs/contracts/AAVETest.sol\":4178:4194  new uint256[](1) */\n      0xffffffffffffffff\n      dup2\n      gt\n      iszero\n      tag_74\n      jumpi\n      tag_75\n      tag_36\n      jump\t// in\n    tag_75:\n    tag_74:\n      mload(0x40)\n      swap1\n      dup1\n      dup3\n      mstore\n      dup1\n      0x20\n      mul\n      0x20\n      add\n      dup3\n      add\n      0x40\n      mstore\n      dup1\n      iszero\n      tag_76\n      jumpi\n      dup2\n      0x20\n      add\n      0x20\n      dup3\n      mul\n      dup1\n      calldatasize\n      dup4\n      calldatacopy\n      dup1\n      dup3\n      add\n      swap2\n      pop\n      pop\n      swap1\n      pop\n    tag_76:\n      pop\n        /* \"Code-hardhat-ethersJs/contracts/AAVETest.sol\":4151:4194  uint256[] memory amounts = new uint256[](1) */\n      swap1\n      pop\n        /* \"Code-hardhat-ethersJs/contracts/AAVETest.sol\":4217:4224  _amount */\n      dup4\n        /* \"Code-hardhat-ethersJs/contracts/AAVETest.sol\":4204:4211  amounts */\n      dup2\n        /* \"Code-hardhat-ethersJs/contracts/AAVETest.sol\":4212:4213  0 */\n      0x00\n        /* \"Code-hardhat-ethersJs/contracts/AAVETest.sol\":4204:4214  amounts[0] */\n      dup2\n      mload\n      dup2\n      lt\n      tag_77\n      jumpi\n      tag_78\n      tag_40\n      jump\t// in\n    tag_78:\n    tag_77:\n      0x20\n      mul\n      0x20\n      add\n      add\n        /* \"Code-hardhat-ethersJs/contracts/AAVETest.sol\":4204:4224  amounts[0] = _amount */\n      dup2\n      dup2\n      mstore\n      pop\n      pop\n        /* \"Code-hardhat-ethersJs/contracts/AAVETest.sol\":4234:4268  uint256[] memory interestRateModes */\n      0x00\n        /* \"Code-hardhat-ethersJs/contracts/AAVETest.sol\":4285:4286  1 */\n      0x01\n        /* \"Code-hardhat-ethersJs/contracts/AAVETest.sol\":4271:4287  new uint256[](1) */\n      0xffffffffffffffff\n      dup2\n      gt\n      iszero\n      tag_79\n      jumpi\n      tag_80\n      tag_36\n      jump\t// in\n    tag_80:\n    tag_79:\n      mload(0x40)\n      swap1\n      dup1\n      dup3\n      mstore\n      dup1\n      0x20\n      mul\n      0x20\n      add\n      dup3\n      add\n      0x40\n      mstore\n      dup1\n      iszero\n      tag_81\n      jumpi\n      dup2\n      0x20\n      add\n      0x20\n      dup3\n      mul\n      dup1\n      calldatasize\n      dup4\n      calldatacopy\n      dup1\n      dup3\n      add\n      swap2\n      pop\n      pop\n      swap1\n      pop\n    tag_81:\n      pop\n        /* \"Code-hardhat-ethersJs/contracts/AAVETest.sol\":4234:4287  uint256[] memory interestRateModes = new uint256[](1) */\n      swap1\n      pop\n        /* \"Code-hardhat-ethersJs/contracts/AAVETest.sol\":4320:4321  0 */\n      0x00\n        /* \"Code-hardhat-ethersJs/contracts/AAVETest.sol\":4297:4314  interestRateModes */\n      dup2\n        /* \"Code-hardhat-ethersJs/contracts/AAVETest.sol\":4315:4316  0 */\n      0x00\n        /* \"Code-hardhat-ethersJs/contracts/AAVETest.sol\":4297:4317  interestRateModes[0] */\n      dup2\n      mload\n      dup2\n      lt\n      tag_82\n      jumpi\n      tag_83\n      tag_40\n      jump\t// in\n    tag_83:\n    tag_82:\n      0x20\n      mul\n      0x20\n      add\n      add\n        /* \"Code-hardhat-ethersJs/contracts/AAVETest.sol\":4297:4321  interestRateModes[0] = 0 */\n      dup2\n      dup2\n      mstore\n      pop\n      pop\n        /* \"Code-hardhat-ethersJs/contracts/AAVETest.sol\":4420:4439  bytes memory params */\n      0x00\n        /* \"Code-hardhat-ethersJs/contracts/AAVETest.sol\":4420:4444  bytes memory params = \"\" */\n      mload(0x40)\n      dup1\n      0x20\n      add\n      0x40\n      mstore\n      dup1\n      0x00\n      dup2\n      mstore\n      pop\n      swap1\n      pop\n        /* \"Code-hardhat-ethersJs/contracts/AAVETest.sol\":4454:4473  uint16 referralCode */\n      0x00\n        /* \"Code-hardhat-ethersJs/contracts/AAVETest.sol\":4487:4490  MTT */\n      0x0d\n      0x00\n      swap1\n      sload\n      swap1\n      0x0100\n      exp\n      swap1\n      div\n      0xffffffffffffffffffffffffffffffffffffffff\n      and\n        /* \"Code-hardhat-ethersJs/contracts/AAVETest.sol\":4487:4498  MTT.approve */\n      0xffffffffffffffffffffffffffffffffffffffff\n      and\n      0x095ea7b3\n        /* \"Code-hardhat-ethersJs/contracts/AAVETest.sol\":4507:4516  uv2router */\n      0x0b\n      0x00\n      swap1\n      sload\n      swap1\n      0x0100\n      exp\n      swap1\n      div\n      0xffffffffffffffffffffffffffffffffffffffff\n      and\n        /* \"Code-hardhat-ethersJs/contracts/AAVETest.sol\":4524:4551  100000000000000000000000000 */\n      0x52b7d2dcc80cd2e4000000\n        /* \"Code-hardhat-ethersJs/contracts/AAVETest.sol\":4487:4553  MTT.approve(address(uv2router), uint(100000000000000000000000000)) */\n      mload(0x40)\n      dup4\n      0xffffffff\n      and\n      0xe0\n      shl\n      dup2\n      mstore\n      0x04\n      add\n      tag_84\n      swap3\n      swap2\n      swap1\n      tag_29\n      jump\t// in\n    tag_84:\n      0x20\n      mload(0x40)\n      dup1\n      dup4\n      sub\n      dup2\n      0x00\n      dup8\n      gas\n      call\n      iszero\n      dup1\n      iszero\n      tag_86\n      jumpi\n      returndatasize\n      0x00\n      dup1\n      returndatacopy\n      revert(0x00, returndatasize)\n    tag_86:\n      pop\n      pop\n      pop\n      pop\n      mload(0x40)\n      returndatasize\n      not(0x1f)\n      0x1f\n      dup3\n      add\n      and\n      dup3\n      add\n      dup1\n      0x40\n      mstore\n      pop\n      dup2\n      add\n      swap1\n      tag_87\n      swap2\n      swap1\n      tag_33\n      jump\t// in\n    tag_87:\n      pop\n        /* \"Code-hardhat-ethersJs/contracts/AAVETest.sol\":4563:4566  MTT */\n      0x0d\n      0x00\n      swap1\n      sload\n      swap1\n      0x0100\n      exp\n      swap1\n      div\n      0xffffffffffffffffffffffffffffffffffffffff\n      and\n        /* \"Code-hardhat-ethersJs/contracts/AAVETest.sol\":4563:4574  MTT.approve */\n      0xffffffffffffffffffffffffffffffffffffffff\n      and\n      0x095ea7b3\n        /* \"Code-hardhat-ethersJs/contracts/AAVETest.sol\":4583:4592  uv3router */\n      0x0c\n      0x00\n      swap1\n      sload\n      swap1\n      0x0100\n      exp\n      swap1\n      div\n      0xffffffffffffffffffffffffffffffffffffffff\n      and\n        /* \"Code-hardhat-ethersJs/contracts/AAVETest.sol\":4600:4627  100000000000000000000000000 */\n      0x52b7d2dcc80cd2e4000000\n        /* \"Code-hardhat-ethersJs/contracts/AAVETest.sol\":4563:4629  MTT.approve(address(uv3router), uint(100000000000000000000000000)) */\n      mload(0x40)\n      dup4\n      0xffffffff\n      and\n      0xe0\n      shl\n      dup2\n      mstore\n      0x04\n      add\n      tag_88\n      swap3\n      swap2\n      swap1\n      tag_29\n      jump\t// in\n    tag_88:\n      0x20\n      mload(0x40)\n      dup1\n      dup4\n      sub\n      dup2\n      0x00\n      dup8\n      gas\n      call\n      iszero\n      dup1\n      iszero\n      tag_90\n      jumpi\n      returndatasize\n      0x00\n      dup1\n      returndatacopy\n      revert(0x00, returndatasize)\n    tag_90:\n      pop\n      pop\n      pop\n      pop\n      mload(0x40)\n      returndatasize\n      not(0x1f)\n      0x1f\n      dup3\n      add\n      and\n      dup3\n      add\n      dup1\n      0x40\n      mstore\n      pop\n      dup2\n      add\n      swap1\n      tag_91\n      swap2\n      swap1\n      tag_33\n      jump\t// in\n    tag_91:\n      pop\n        /* \"Code-hardhat-ethersJs/contracts/AAVETest.sol\":4639:4643  LINK */\n      0x0e\n      0x00\n      swap1\n      sload\n      swap1\n      0x0100\n      exp\n      swap1\n      div\n      0xffffffffffffffffffffffffffffffffffffffff\n      and\n        /* \"Code-hardhat-ethersJs/contracts/AAVETest.sol\":4639:4651  LINK.approve */\n      0xffffffffffffffffffffffffffffffffffffffff\n      and\n      0x095ea7b3\n        /* \"Code-hardhat-ethersJs/contracts/AAVETest.sol\":4660:4669  uv2router */\n      0x0b\n      0x00\n      swap1\n      sload\n      swap1\n      0x0100\n      exp\n      swap1\n      div\n      0xffffffffffffffffffffffffffffffffffffffff\n      and\n        /* \"Code-hardhat-ethersJs/contracts/AAVETest.sol\":4677:4704  100000000000000000000000000 */\n      0x52b7d2dcc80cd2e4000000\n        /* \"Code-hardhat-ethersJs/contracts/AAVETest.sol\":4639:4706  LINK.approve(address(uv2router), uint(100000000000000000000000000)) */\n      mload(0x40)\n      dup4\n      0xffffffff\n      and\n      0xe0\n      shl\n      dup2\n      mstore\n      0x04\n      add\n      tag_92\n      swap3\n      swap2\n      swap1\n      tag_29\n      jump\t// in\n    tag_92:\n      0x20\n      mload(0x40)\n      dup1\n      dup4\n      sub\n      dup2\n      0x00\n      dup8\n      gas\n      call\n      iszero\n      dup1\n      iszero\n      tag_94\n      jumpi\n      returndatasize\n      0x00\n      dup1\n      returndatacopy\n      revert(0x00, returndatasize)\n    tag_94:\n      pop\n      pop\n      pop\n      pop\n      mload(0x40)\n      returndatasize\n      not(0x1f)\n      0x1f\n      dup3\n      add\n      and\n      dup3\n      add\n      dup1\n      0x40\n      mstore\n      pop\n      dup2\n      add\n      swap1\n      tag_95\n      swap2\n      swap1\n      tag_33\n      jump\t// in\n    tag_95:\n      pop\n        /* \"Code-hardhat-ethersJs/contracts/AAVETest.sol\":4716:4720  LINK */\n      0x0e\n      0x00\n      swap1\n      sload\n      swap1\n      0x0100\n      exp\n      swap1\n      div\n      0xffffffffffffffffffffffffffffffffffffffff\n      and\n        /* \"Code-hardhat-ethersJs/contracts/AAVETest.sol\":4716:4728  LINK.approve */\n      0xffffffffffffffffffffffffffffffffffffffff\n      and\n      0x095ea7b3\n        /* \"Code-hardhat-ethersJs/contracts/AAVETest.sol\":4737:4746  uv3router */\n      0x0c\n      0x00\n      swap1\n      sload\n      swap1\n      0x0100\n      exp\n      swap1\n      div\n      0xffffffffffffffffffffffffffffffffffffffff\n      and\n        /* \"Code-hardhat-ethersJs/contracts/AAVETest.sol\":4754:4781  100000000000000000000000000 */\n      0x52b7d2dcc80cd2e4000000\n        /* \"Code-hardhat-ethersJs/contracts/AAVETest.sol\":4716:4783  LINK.approve(address(uv3router), uint(100000000000000000000000000)) */\n      mload(0x40)\n      dup4\n      0xffffffff\n      and\n      0xe0\n      shl\n      dup2\n      mstore\n      0x04\n      add\n      tag_96\n      swap3\n      swap2\n      swap1\n      tag_29\n      jump\t// in\n    tag_96:\n      0x20\n      mload(0x40)\n      dup1\n      dup4\n      sub\n      dup2\n      0x00\n      dup8\n      gas\n      call\n      iszero\n      dup1\n      iszero\n      tag_98\n      jumpi\n      returndatasize\n      0x00\n      dup1\n      returndatacopy\n      revert(0x00, returndatasize)\n    tag_98:\n      pop\n      pop\n      pop\n      pop\n      mload(0x40)\n      returndatasize\n      not(0x1f)\n      0x1f\n      dup3\n      add\n      and\n      dup3\n      add\n      dup1\n      0x40\n      mstore\n      pop\n      dup2\n      add\n      swap1\n      tag_99\n      swap2\n      swap1\n      tag_33\n      jump\t// in\n    tag_99:\n      pop\n        /* \"Code-hardhat-ethersJs/contracts/AAVETest.sol\":4798:4802  POOL */\n      immutable(\"0xa42b7d1f05acf03c200860043f80d0550ff80f4157ebae1a0626f33732ff747e\")\n        /* \"Code-hardhat-ethersJs/contracts/AAVETest.sol\":4798:4812  POOL.flashLoan */\n      0xffffffffffffffffffffffffffffffffffffffff\n      and\n      0xab9c4b5d\n        /* \"Code-hardhat-ethersJs/contracts/AAVETest.sol\":4813:4828  receiverAddress */\n      dup8\n        /* \"Code-hardhat-ethersJs/contracts/AAVETest.sol\":4830:4836  assets */\n      dup8\n        /* \"Code-hardhat-ethersJs/contracts/AAVETest.sol\":4838:4845  amounts */\n      dup8\n        /* \"Code-hardhat-ethersJs/contracts/AAVETest.sol\":4847:4864  interestRateModes */\n      dup8\n        /* \"Code-hardhat-ethersJs/contracts/AAVETest.sol\":4866:4881  receiverAddress */\n      dup12\n        /* \"Code-hardhat-ethersJs/contracts/AAVETest.sol\":4883:4889  params */\n      dup9\n        /* \"Code-hardhat-ethersJs/contracts/AAVETest.sol\":4890:4902  referralCode */\n      dup9\n        /* \"Code-hardhat-ethersJs/contracts/AAVETest.sol\":4798:4903  POOL.flashLoan(receiverAddress, assets, amounts, interestRateModes, receiverAddress, params,referralCode) */\n      mload(0x40)\n      dup9\n      0xffffffff\n      and\n      0xe0\n      shl\n      dup2\n      mstore\n      0x04\n      add\n      tag_100\n      swap8\n      swap7\n      swap6\n      swap5\n      swap4\n      swap3\n      swap2\n      swap1\n      tag_101\n      jump\t// in\n    tag_100:\n      0x00\n      mload(0x40)\n      dup1\n      dup4\n      sub\n      dup2\n      0x00\n      dup8\n      dup1\n      extcodesize\n      iszero\n      dup1\n      iszero\n      tag_102\n      jumpi\n      0x00\n      dup1\n      revert\n    tag_102:\n      pop\n      gas\n      call\n      iszero\n      dup1\n      iszero\n      tag_104\n      jumpi\n      returndatasize\n      0x00\n      dup1\n      returndatacopy\n      revert(0x00, returndatasize)\n    tag_104:\n      pop\n      pop\n      pop\n      pop\n        /* \"Code-hardhat-ethersJs/contracts/AAVETest.sol\":4012:4910  {... */\n      pop\n      pop\n      pop\n      pop\n      pop\n      pop\n        /* \"Code-hardhat-ethersJs/contracts/AAVETest.sol\":3956:4910  function testAAVE(address asset,uint256 _amount) public {... */\n      pop\n      pop\n      jump\t// out\n        /* \"@aave/core-v3/contracts/dependencies/openzeppelin/contracts/SafeMath.sol\":410:539  function add(uint256 x, uint256 y) internal pure returns (uint256 z) {... */\n    tag_27:\n        /* \"@aave/core-v3/contracts/dependencies/openzeppelin/contracts/SafeMath.sol\":468:477  uint256 z */\n      0x00\n        /* \"@aave/core-v3/contracts/dependencies/openzeppelin/contracts/SafeMath.sol\":526:527  x */\n      dup3\n        /* \"@aave/core-v3/contracts/dependencies/openzeppelin/contracts/SafeMath.sol\":520:521  y */\n      dup3\n        /* \"@aave/core-v3/contracts/dependencies/openzeppelin/contracts/SafeMath.sol\":516:517  x */\n      dup5\n        /* \"@aave/core-v3/contracts/dependencies/openzeppelin/contracts/SafeMath.sol\":516:521  x + y */\n      add\n        /* \"@aave/core-v3/contracts/dependencies/openzeppelin/contracts/SafeMath.sol\":512:521  z = x + y */\n      swap2\n      pop\n      dup2\n        /* \"@aave/core-v3/contracts/dependencies/openzeppelin/contracts/SafeMath.sol\":511:527  (z = x + y) >= x */\n      lt\n      iszero\n        /* \"@aave/core-v3/contracts/dependencies/openzeppelin/contracts/SafeMath.sol\":503:528  require((z = x + y) >= x) */\n      tag_106\n      jumpi\n      0x00\n      dup1\n      revert\n    tag_106:\n        /* \"@aave/core-v3/contracts/dependencies/openzeppelin/contracts/SafeMath.sol\":410:539  function add(uint256 x, uint256 y) internal pure returns (uint256 z) {... */\n      swap3\n      swap2\n      pop\n      pop\n      jump\t// out\n        /* \"#utility.yul\":7:133   */\n    tag_107:\n        /* \"#utility.yul\":44:51   */\n      0x00\n        /* \"#utility.yul\":84:126   */\n      0xffffffffffffffffffffffffffffffffffffffff\n        /* \"#utility.yul\":77:82   */\n      dup3\n        /* \"#utility.yul\":73:127   */\n      and\n        /* \"#utility.yul\":62:127   */\n      swap1\n      pop\n        /* \"#utility.yul\":7:133   */\n      swap2\n      swap1\n      pop\n      jump\t// out\n        /* \"#utility.yul\":139:199   */\n    tag_108:\n        /* \"#utility.yul\":167:170   */\n      0x00\n        /* \"#utility.yul\":188:193   */\n      dup2\n        /* \"#utility.yul\":181:193   */\n      swap1\n      pop\n        /* \"#utility.yul\":139:199   */\n      swap2\n      swap1\n      pop\n      jump\t// out\n        /* \"#utility.yul\":205:347   */\n    tag_109:\n        /* \"#utility.yul\":255:264   */\n      0x00\n        /* \"#utility.yul\":288:341   */\n      tag_175\n        /* \"#utility.yul\":306:340   */\n      tag_176\n        /* \"#utility.yul\":315:339   */\n      tag_177\n        /* \"#utility.yul\":333:338   */\n      dup5\n        /* \"#utility.yul\":315:339   */\n      tag_107\n      jump\t// in\n    tag_177:\n        /* \"#utility.yul\":306:340   */\n      tag_108\n      jump\t// in\n    tag_176:\n        /* \"#utility.yul\":288:341   */\n      tag_107\n      jump\t// in\n    tag_175:\n        /* \"#utility.yul\":275:341   */\n      swap1\n      pop\n        /* \"#utility.yul\":205:347   */\n      swap2\n      swap1\n      pop\n      jump\t// out\n        /* \"#utility.yul\":353:479   */\n    tag_110:\n        /* \"#utility.yul\":403:412   */\n      0x00\n        /* \"#utility.yul\":436:473   */\n      tag_179\n        /* \"#utility.yul\":467:472   */\n      dup3\n        /* \"#utility.yul\":436:473   */\n      tag_109\n      jump\t// in\n    tag_179:\n        /* \"#utility.yul\":423:473   */\n      swap1\n      pop\n        /* \"#utility.yul\":353:479   */\n      swap2\n      swap1\n      pop\n      jump\t// out\n        /* \"#utility.yul\":485:641   */\n    tag_111:\n        /* \"#utility.yul\":565:574   */\n      0x00\n        /* \"#utility.yul\":598:635   */\n      tag_181\n        /* \"#utility.yul\":629:634   */\n      dup3\n        /* \"#utility.yul\":598:635   */\n      tag_110\n      jump\t// in\n    tag_181:\n        /* \"#utility.yul\":585:635   */\n      swap1\n      pop\n        /* \"#utility.yul\":485:641   */\n      swap2\n      swap1\n      pop\n      jump\t// out\n        /* \"#utility.yul\":647:838   */\n    tag_112:\n        /* \"#utility.yul\":764:831   */\n      tag_183\n        /* \"#utility.yul\":825:830   */\n      dup2\n        /* \"#utility.yul\":764:831   */\n      tag_111\n      jump\t// in\n    tag_183:\n        /* \"#utility.yul\":759:762   */\n      dup3\n        /* \"#utility.yul\":752:832   */\n      mstore\n        /* \"#utility.yul\":647:838   */\n      pop\n      pop\n      jump\t// out\n        /* \"#utility.yul\":844:1126   */\n    tag_10:\n        /* \"#utility.yul\":967:971   */\n      0x00\n        /* \"#utility.yul\":1005:1007   */\n      0x20\n        /* \"#utility.yul\":994:1003   */\n      dup3\n        /* \"#utility.yul\":990:1008   */\n      add\n        /* \"#utility.yul\":982:1008   */\n      swap1\n      pop\n        /* \"#utility.yul\":1018:1119   */\n      tag_185\n        /* \"#utility.yul\":1116:1117   */\n      0x00\n        /* \"#utility.yul\":1105:1114   */\n      dup4\n        /* \"#utility.yul\":1101:1118   */\n      add\n        /* \"#utility.yul\":1092:1098   */\n      dup5\n        /* \"#utility.yul\":1018:1119   */\n      tag_112\n      jump\t// in\n    tag_185:\n        /* \"#utility.yul\":844:1126   */\n      swap3\n      swap2\n      pop\n      pop\n      jump\t// out\n        /* \"#utility.yul\":1132:1207   */\n    tag_113:\n        /* \"#utility.yul\":1165:1171   */\n      0x00\n        /* \"#utility.yul\":1198:1200   */\n      0x40\n        /* \"#utility.yul\":1192:1201   */\n      mload\n        /* \"#utility.yul\":1182:1201   */\n      swap1\n      pop\n        /* \"#utility.yul\":1132:1207   */\n      swap1\n      jump\t// out\n        /* \"#utility.yul\":1213:1330   */\n    tag_114:\n        /* \"#utility.yul\":1322:1323   */\n      0x00\n        /* \"#utility.yul\":1319:1320   */\n      dup1\n        /* \"#utility.yul\":1312:1324   */\n      revert\n        /* \"#utility.yul\":1336:1453   */\n    tag_115:\n        /* \"#utility.yul\":1445:1446   */\n      0x00\n        /* \"#utility.yul\":1442:1443   */\n      dup1\n        /* \"#utility.yul\":1435:1447   */\n      revert\n        /* \"#utility.yul\":1459:1555   */\n    tag_116:\n        /* \"#utility.yul\":1496:1503   */\n      0x00\n        /* \"#utility.yul\":1525:1549   */\n      tag_190\n        /* \"#utility.yul\":1543:1548   */\n      dup3\n        /* \"#utility.yul\":1525:1549   */\n      tag_107\n      jump\t// in\n    tag_190:\n        /* \"#utility.yul\":1514:1549   */\n      swap1\n      pop\n        /* \"#utility.yul\":1459:1555   */\n      swap2\n      swap1\n      pop\n      jump\t// out\n        /* \"#utility.yul\":1561:1683   */\n    tag_117:\n        /* \"#utility.yul\":1634:1658   */\n      tag_192\n        /* \"#utility.yul\":1652:1657   */\n      dup2\n        /* \"#utility.yul\":1634:1658   */\n      tag_116\n      jump\t// in\n    tag_192:\n        /* \"#utility.yul\":1627:1632   */\n      dup2\n        /* \"#utility.yul\":1624:1659   */\n      eq\n        /* \"#utility.yul\":1614:1677   */\n      tag_193\n      jumpi\n        /* \"#utility.yul\":1673:1674   */\n      0x00\n        /* \"#utility.yul\":1670:1671   */\n      dup1\n        /* \"#utility.yul\":1663:1675   */\n      revert\n        /* \"#utility.yul\":1614:1677   */\n    tag_193:\n        /* \"#utility.yul\":1561:1683   */\n      pop\n      jump\t// out\n        /* \"#utility.yul\":1689:1828   */\n    tag_118:\n        /* \"#utility.yul\":1735:1740   */\n      0x00\n        /* \"#utility.yul\":1773:1779   */\n      dup2\n        /* \"#utility.yul\":1760:1780   */\n      calldataload\n        /* \"#utility.yul\":1751:1780   */\n      swap1\n      pop\n        /* \"#utility.yul\":1789:1822   */\n      tag_195\n        /* \"#utility.yul\":1816:1821   */\n      dup2\n        /* \"#utility.yul\":1789:1822   */\n      tag_117\n      jump\t// in\n    tag_195:\n        /* \"#utility.yul\":1689:1828   */\n      swap3\n      swap2\n      pop\n      pop\n      jump\t// out\n        /* \"#utility.yul\":1834:1911   */\n    tag_119:\n        /* \"#utility.yul\":1871:1878   */\n      0x00\n        /* \"#utility.yul\":1900:1905   */\n      dup2\n        /* \"#utility.yul\":1889:1905   */\n      swap1\n      pop\n        /* \"#utility.yul\":1834:1911   */\n      swap2\n      swap1\n      pop\n      jump\t// out\n        /* \"#utility.yul\":1917:2039   */\n    tag_120:\n        /* \"#utility.yul\":1990:2014   */\n      tag_198\n        /* \"#utility.yul\":2008:2013   */\n      dup2\n        /* \"#utility.yul\":1990:2014   */\n      tag_119\n      jump\t// in\n    tag_198:\n        /* \"#utility.yul\":1983:1988   */\n      dup2\n        /* \"#utility.yul\":1980:2015   */\n      eq\n        /* \"#utility.yul\":1970:2033   */\n      tag_199\n      jumpi\n        /* \"#utility.yul\":2029:2030   */\n      0x00\n        /* \"#utility.yul\":2026:2027   */\n      dup1\n        /* \"#utility.yul\":2019:2031   */\n      revert\n        /* \"#utility.yul\":1970:2033   */\n    tag_199:\n        /* \"#utility.yul\":1917:2039   */\n      pop\n      jump\t// out\n        /* \"#utility.yul\":2045:2184   */\n    tag_121:\n        /* \"#utility.yul\":2091:2096   */\n      0x00\n        /* \"#utility.yul\":2129:2135   */\n      dup2\n        /* \"#utility.yul\":2116:2136   */\n      calldataload\n        /* \"#utility.yul\":2107:2136   */\n      swap1\n      pop\n        /* \"#utility.yul\":2145:2178   */\n      tag_201\n        /* \"#utility.yul\":2172:2177   */\n      dup2\n        /* \"#utility.yul\":2145:2178   */\n      tag_120\n      jump\t// in\n    tag_201:\n        /* \"#utility.yul\":2045:2184   */\n      swap3\n      swap2\n      pop\n      pop\n      jump\t// out\n        /* \"#utility.yul\":2190:2307   */\n    tag_122:\n        /* \"#utility.yul\":2299:2300   */\n      0x00\n        /* \"#utility.yul\":2296:2297   */\n      dup1\n        /* \"#utility.yul\":2289:2301   */\n      revert\n        /* \"#utility.yul\":2313:2430   */\n    tag_123:\n        /* \"#utility.yul\":2422:2423   */\n      0x00\n        /* \"#utility.yul\":2419:2420   */\n      dup1\n        /* \"#utility.yul\":2412:2424   */\n      revert\n        /* \"#utility.yul\":2436:2553   */\n    tag_124:\n        /* \"#utility.yul\":2545:2546   */\n      0x00\n        /* \"#utility.yul\":2542:2543   */\n      dup1\n        /* \"#utility.yul\":2535:2547   */\n      revert\n        /* \"#utility.yul\":2572:3124   */\n    tag_125:\n        /* \"#utility.yul\":2629:2637   */\n      0x00\n        /* \"#utility.yul\":2639:2645   */\n      dup1\n        /* \"#utility.yul\":2689:2692   */\n      dup4\n        /* \"#utility.yul\":2682:2686   */\n      0x1f\n        /* \"#utility.yul\":2674:2680   */\n      dup5\n        /* \"#utility.yul\":2670:2687   */\n      add\n        /* \"#utility.yul\":2666:2693   */\n      slt\n        /* \"#utility.yul\":2656:2778   */\n      tag_206\n      jumpi\n        /* \"#utility.yul\":2697:2776   */\n      tag_207\n      tag_122\n      jump\t// in\n    tag_207:\n        /* \"#utility.yul\":2656:2778   */\n    tag_206:\n        /* \"#utility.yul\":2810:2816   */\n      dup3\n        /* \"#utility.yul\":2797:2817   */\n      calldataload\n        /* \"#utility.yul\":2787:2817   */\n      swap1\n      pop\n        /* \"#utility.yul\":2840:2858   */\n      0xffffffffffffffff\n        /* \"#utility.yul\":2832:2838   */\n      dup2\n        /* \"#utility.yul\":2829:2859   */\n      gt\n        /* \"#utility.yul\":2826:2943   */\n      iszero\n      tag_208\n      jumpi\n        /* \"#utility.yul\":2862:2941   */\n      tag_209\n      tag_123\n      jump\t// in\n    tag_209:\n        /* \"#utility.yul\":2826:2943   */\n    tag_208:\n        /* \"#utility.yul\":2976:2980   */\n      0x20\n        /* \"#utility.yul\":2968:2974   */\n      dup4\n        /* \"#utility.yul\":2964:2981   */\n      add\n        /* \"#utility.yul\":2952:2981   */\n      swap2\n      pop\n        /* \"#utility.yul\":3030:3033   */\n      dup4\n        /* \"#utility.yul\":3022:3026   */\n      0x01\n        /* \"#utility.yul\":3014:3020   */\n      dup3\n        /* \"#utility.yul\":3010:3027   */\n      mul\n        /* \"#utility.yul\":3000:3008   */\n      dup4\n        /* \"#utility.yul\":2996:3028   */\n      add\n        /* \"#utility.yul\":2993:3034   */\n      gt\n        /* \"#utility.yul\":2990:3118   */\n      iszero\n      tag_210\n      jumpi\n        /* \"#utility.yul\":3037:3116   */\n      tag_211\n      tag_124\n      jump\t// in\n    tag_211:\n        /* \"#utility.yul\":2990:3118   */\n    tag_210:\n        /* \"#utility.yul\":2572:3124   */\n      swap3\n      pop\n      swap3\n      swap1\n      pop\n      jump\t// out\n        /* \"#utility.yul\":3130:4239   */\n    tag_13:\n        /* \"#utility.yul\":3236:3242   */\n      0x00\n        /* \"#utility.yul\":3244:3250   */\n      dup1\n        /* \"#utility.yul\":3252:3258   */\n      0x00\n        /* \"#utility.yul\":3260:3266   */\n      dup1\n        /* \"#utility.yul\":3268:3274   */\n      0x00\n        /* \"#utility.yul\":3276:3282   */\n      dup1\n        /* \"#utility.yul\":3325:3328   */\n      0xa0\n        /* \"#utility.yul\":3313:3322   */\n      dup8\n        /* \"#utility.yul\":3304:3311   */\n      dup10\n        /* \"#utility.yul\":3300:3323   */\n      sub\n        /* \"#utility.yul\":3296:3329   */\n      slt\n        /* \"#utility.yul\":3293:3413   */\n      iszero\n      tag_213\n      jumpi\n        /* \"#utility.yul\":3332:3411   */\n      tag_214\n      tag_114\n      jump\t// in\n    tag_214:\n        /* \"#utility.yul\":3293:3413   */\n    tag_213:\n        /* \"#utility.yul\":3452:3453   */\n      0x00\n        /* \"#utility.yul\":3477:3530   */\n      tag_215\n        /* \"#utility.yul\":3522:3529   */\n      dup10\n        /* \"#utility.yul\":3513:3519   */\n      dup3\n        /* \"#utility.yul\":3502:3511   */\n      dup11\n        /* \"#utility.yul\":3498:3520   */\n      add\n        /* \"#utility.yul\":3477:3530   */\n      tag_118\n      jump\t// in\n    tag_215:\n        /* \"#utility.yul\":3467:3530   */\n      swap7\n      pop\n        /* \"#utility.yul\":3423:3540   */\n      pop\n        /* \"#utility.yul\":3579:3581   */\n      0x20\n        /* \"#utility.yul\":3605:3658   */\n      tag_216\n        /* \"#utility.yul\":3650:3657   */\n      dup10\n        /* \"#utility.yul\":3641:3647   */\n      dup3\n        /* \"#utility.yul\":3630:3639   */\n      dup11\n        /* \"#utility.yul\":3626:3648   */\n      add\n        /* \"#utility.yul\":3605:3658   */\n      tag_121\n      jump\t// in\n    tag_216:\n        /* \"#utility.yul\":3595:3658   */\n      swap6\n      pop\n        /* \"#utility.yul\":3550:3668   */\n      pop\n        /* \"#utility.yul\":3707:3709   */\n      0x40\n        /* \"#utility.yul\":3733:3786   */\n      tag_217\n        /* \"#utility.yul\":3778:3785   */\n      dup10\n        /* \"#utility.yul\":3769:3775   */\n      dup3\n        /* \"#utility.yul\":3758:3767   */\n      dup11\n        /* \"#utility.yul\":3754:3776   */\n      add\n        /* \"#utility.yul\":3733:3786   */\n      tag_121\n      jump\t// in\n    tag_217:\n        /* \"#utility.yul\":3723:3786   */\n      swap5\n      pop\n        /* \"#utility.yul\":3678:3796   */\n      pop\n        /* \"#utility.yul\":3835:3837   */\n      0x60\n        /* \"#utility.yul\":3861:3914   */\n      tag_218\n        /* \"#utility.yul\":3906:3913   */\n      dup10\n        /* \"#utility.yul\":3897:3903   */\n      dup3\n        /* \"#utility.yul\":3886:3895   */\n      dup11\n        /* \"#utility.yul\":3882:3904   */\n      add\n        /* \"#utility.yul\":3861:3914   */\n      tag_118\n      jump\t// in\n    tag_218:\n        /* \"#utility.yul\":3851:3914   */\n      swap4\n      pop\n        /* \"#utility.yul\":3806:3924   */\n      pop\n        /* \"#utility.yul\":3991:3994   */\n      0x80\n        /* \"#utility.yul\":3980:3989   */\n      dup8\n        /* \"#utility.yul\":3976:3995   */\n      add\n        /* \"#utility.yul\":3963:3996   */\n      calldataload\n        /* \"#utility.yul\":4023:4041   */\n      0xffffffffffffffff\n        /* \"#utility.yul\":4015:4021   */\n      dup2\n        /* \"#utility.yul\":4012:4042   */\n      gt\n        /* \"#utility.yul\":4009:4126   */\n      iszero\n      tag_219\n      jumpi\n        /* \"#utility.yul\":4045:4124   */\n      tag_220\n      tag_115\n      jump\t// in\n    tag_220:\n        /* \"#utility.yul\":4009:4126   */\n    tag_219:\n        /* \"#utility.yul\":4158:4222   */\n      tag_221\n        /* \"#utility.yul\":4214:4221   */\n      dup10\n        /* \"#utility.yul\":4205:4211   */\n      dup3\n        /* \"#utility.yul\":4194:4203   */\n      dup11\n        /* \"#utility.yul\":4190:4212   */\n      add\n        /* \"#utility.yul\":4158:4222   */\n      tag_125\n      jump\t// in\n    tag_221:\n        /* \"#utility.yul\":4140:4222   */\n      swap3\n      pop\n      swap3\n      pop\n        /* \"#utility.yul\":3934:4232   */\n      pop\n        /* \"#utility.yul\":3130:4239   */\n      swap3\n      swap6\n      pop\n      swap3\n      swap6\n      pop\n      swap3\n      swap6\n      jump\t// out\n        /* \"#utility.yul\":4245:4335   */\n    tag_126:\n        /* \"#utility.yul\":4279:4286   */\n      0x00\n        /* \"#utility.yul\":4322:4327   */\n      dup2\n        /* \"#utility.yul\":4315:4328   */\n      iszero\n        /* \"#utility.yul\":4308:4329   */\n      iszero\n        /* \"#utility.yul\":4297:4329   */\n      swap1\n      pop\n        /* \"#utility.yul\":4245:4335   */\n      swap2\n      swap1\n      pop\n      jump\t// out\n        /* \"#utility.yul\":4341:4450   */\n    tag_127:\n        /* \"#utility.yul\":4422:4443   */\n      tag_224\n        /* \"#utility.yul\":4437:4442   */\n      dup2\n        /* \"#utility.yul\":4422:4443   */\n      tag_126\n      jump\t// in\n    tag_224:\n        /* \"#utility.yul\":4417:4420   */\n      dup3\n        /* \"#utility.yul\":4410:4444   */\n      mstore\n        /* \"#utility.yul\":4341:4450   */\n      pop\n      pop\n      jump\t// out\n        /* \"#utility.yul\":4456:4666   */\n    tag_16:\n        /* \"#utility.yul\":4543:4547   */\n      0x00\n        /* \"#utility.yul\":4581:4583   */\n      0x20\n        /* \"#utility.yul\":4570:4579   */\n      dup3\n        /* \"#utility.yul\":4566:4584   */\n      add\n        /* \"#utility.yul\":4558:4584   */\n      swap1\n      pop\n        /* \"#utility.yul\":4594:4659   */\n      tag_226\n        /* \"#utility.yul\":4656:4657   */\n      0x00\n        /* \"#utility.yul\":4645:4654   */\n      dup4\n        /* \"#utility.yul\":4641:4658   */\n      add\n        /* \"#utility.yul\":4632:4638   */\n      dup5\n        /* \"#utility.yul\":4594:4659   */\n      tag_127\n      jump\t// in\n    tag_226:\n        /* \"#utility.yul\":4456:4666   */\n      swap3\n      swap2\n      pop\n      pop\n      jump\t// out\n        /* \"#utility.yul\":4672:4811   */\n    tag_128:\n        /* \"#utility.yul\":4735:4744   */\n      0x00\n        /* \"#utility.yul\":4768:4805   */\n      tag_228\n        /* \"#utility.yul\":4799:4804   */\n      dup3\n        /* \"#utility.yul\":4768:4805   */\n      tag_110\n      jump\t// in\n    tag_228:\n        /* \"#utility.yul\":4755:4805   */\n      swap1\n      pop\n        /* \"#utility.yul\":4672:4811   */\n      swap2\n      swap1\n      pop\n      jump\t// out\n        /* \"#utility.yul\":4817:4974   */\n    tag_129:\n        /* \"#utility.yul\":4917:4967   */\n      tag_230\n        /* \"#utility.yul\":4961:4966   */\n      dup2\n        /* \"#utility.yul\":4917:4967   */\n      tag_128\n      jump\t// in\n    tag_230:\n        /* \"#utility.yul\":4912:4915   */\n      dup3\n        /* \"#utility.yul\":4905:4968   */\n      mstore\n        /* \"#utility.yul\":4817:4974   */\n      pop\n      pop\n      jump\t// out\n        /* \"#utility.yul\":4980:5228   */\n    tag_20:\n        /* \"#utility.yul\":5086:5090   */\n      0x00\n        /* \"#utility.yul\":5124:5126   */\n      0x20\n        /* \"#utility.yul\":5113:5122   */\n      dup3\n        /* \"#utility.yul\":5109:5127   */\n      add\n        /* \"#utility.yul\":5101:5127   */\n      swap1\n      pop\n        /* \"#utility.yul\":5137:5221   */\n      tag_232\n        /* \"#utility.yul\":5218:5219   */\n      0x00\n        /* \"#utility.yul\":5207:5216   */\n      dup4\n        /* \"#utility.yul\":5203:5220   */\n      add\n        /* \"#utility.yul\":5194:5200   */\n      dup5\n        /* \"#utility.yul\":5137:5221   */\n      tag_129\n      jump\t// in\n    tag_232:\n        /* \"#utility.yul\":4980:5228   */\n      swap3\n      swap2\n      pop\n      pop\n      jump\t// out\n        /* \"#utility.yul\":5234:5708   */\n    tag_23:\n        /* \"#utility.yul\":5302:5308   */\n      0x00\n        /* \"#utility.yul\":5310:5316   */\n      dup1\n        /* \"#utility.yul\":5359:5361   */\n      0x40\n        /* \"#utility.yul\":5347:5356   */\n      dup4\n        /* \"#utility.yul\":5338:5345   */\n      dup6\n        /* \"#utility.yul\":5334:5357   */\n      sub\n        /* \"#utility.yul\":5330:5362   */\n      slt\n        /* \"#utility.yul\":5327:5446   */\n      iszero\n      tag_234\n      jumpi\n        /* \"#utility.yul\":5365:5444   */\n      tag_235\n      tag_114\n      jump\t// in\n    tag_235:\n        /* \"#utility.yul\":5327:5446   */\n    tag_234:\n        /* \"#utility.yul\":5485:5486   */\n      0x00\n        /* \"#utility.yul\":5510:5563   */\n      tag_236\n        /* \"#utility.yul\":5555:5562   */\n      dup6\n        /* \"#utility.yul\":5546:5552   */\n      dup3\n        /* \"#utility.yul\":5535:5544   */\n      dup7\n        /* \"#utility.yul\":5531:5553   */\n      add\n        /* \"#utility.yul\":5510:5563   */\n      tag_118\n      jump\t// in\n    tag_236:\n        /* \"#utility.yul\":5500:5563   */\n      swap3\n      pop\n        /* \"#utility.yul\":5456:5573   */\n      pop\n        /* \"#utility.yul\":5612:5614   */\n      0x20\n        /* \"#utility.yul\":5638:5691   */\n      tag_237\n        /* \"#utility.yul\":5683:5690   */\n      dup6\n        /* \"#utility.yul\":5674:5680   */\n      dup3\n        /* \"#utility.yul\":5663:5672   */\n      dup7\n        /* \"#utility.yul\":5659:5681   */\n      add\n        /* \"#utility.yul\":5638:5691   */\n      tag_121\n      jump\t// in\n    tag_237:\n        /* \"#utility.yul\":5628:5691   */\n      swap2\n      pop\n        /* \"#utility.yul\":5583:5701   */\n      pop\n        /* \"#utility.yul\":5234:5708   */\n      swap3\n      pop\n      swap3\n      swap1\n      pop\n      jump\t// out\n        /* \"#utility.yul\":5714:5832   */\n    tag_130:\n        /* \"#utility.yul\":5801:5825   */\n      tag_239\n        /* \"#utility.yul\":5819:5824   */\n      dup2\n        /* \"#utility.yul\":5801:5825   */\n      tag_116\n      jump\t// in\n    tag_239:\n        /* \"#utility.yul\":5796:5799   */\n      dup3\n        /* \"#utility.yul\":5789:5826   */\n      mstore\n        /* \"#utility.yul\":5714:5832   */\n      pop\n      pop\n      jump\t// out\n        /* \"#utility.yul\":5838:5956   */\n    tag_131:\n        /* \"#utility.yul\":5925:5949   */\n      tag_241\n        /* \"#utility.yul\":5943:5948   */\n      dup2\n        /* \"#utility.yul\":5925:5949   */\n      tag_119\n      jump\t// in\n    tag_241:\n        /* \"#utility.yul\":5920:5923   */\n      dup3\n        /* \"#utility.yul\":5913:5950   */\n      mstore\n        /* \"#utility.yul\":5838:5956   */\n      pop\n      pop\n      jump\t// out\n        /* \"#utility.yul\":5962:6294   */\n    tag_29:\n        /* \"#utility.yul\":6083:6087   */\n      0x00\n        /* \"#utility.yul\":6121:6123   */\n      0x40\n        /* \"#utility.yul\":6110:6119   */\n      dup3\n        /* \"#utility.yul\":6106:6124   */\n      add\n        /* \"#utility.yul\":6098:6124   */\n      swap1\n      pop\n        /* \"#utility.yul\":6134:6205   */\n      tag_243\n        /* \"#utility.yul\":6202:6203   */\n      0x00\n        /* \"#utility.yul\":6191:6200   */\n      dup4\n        /* \"#utility.yul\":6187:6204   */\n      add\n        /* \"#utility.yul\":6178:6184   */\n      dup6\n        /* \"#utility.yul\":6134:6205   */\n      tag_130\n      jump\t// in\n    tag_243:\n        /* \"#utility.yul\":6215:6287   */\n      tag_244\n        /* \"#utility.yul\":6283:6285   */\n      0x20\n        /* \"#utility.yul\":6272:6281   */\n      dup4\n        /* \"#utility.yul\":6268:6286   */\n      add\n        /* \"#utility.yul\":6259:6265   */\n      dup5\n        /* \"#utility.yul\":6215:6287   */\n      tag_131\n      jump\t// in\n    tag_244:\n        /* \"#utility.yul\":5962:6294   */\n      swap4\n      swap3\n      pop\n      pop\n      pop\n      jump\t// out\n        /* \"#utility.yul\":6300:6416   */\n    tag_132:\n        /* \"#utility.yul\":6370:6391   */\n      tag_246\n        /* \"#utility.yul\":6385:6390   */\n      dup2\n        /* \"#utility.yul\":6370:6391   */\n      tag_126\n      jump\t// in\n    tag_246:\n        /* \"#utility.yul\":6363:6368   */\n      dup2\n        /* \"#utility.yul\":6360:6392   */\n      eq\n        /* \"#utility.yul\":6350:6410   */\n      tag_247\n      jumpi\n        /* \"#utility.yul\":6406:6407   */\n      0x00\n        /* \"#utility.yul\":6403:6404   */\n      dup1\n        /* \"#utility.yul\":6396:6408   */\n      revert\n        /* \"#utility.yul\":6350:6410   */\n    tag_247:\n        /* \"#utility.yul\":6300:6416   */\n      pop\n      jump\t// out\n        /* \"#utility.yul\":6422:6559   */\n    tag_133:\n        /* \"#utility.yul\":6476:6481   */\n      0x00\n        /* \"#utility.yul\":6507:6513   */\n      dup2\n        /* \"#utility.yul\":6501:6514   */\n      mload\n        /* \"#utility.yul\":6492:6514   */\n      swap1\n      pop\n        /* \"#utility.yul\":6523:6553   */\n      tag_249\n        /* \"#utility.yul\":6547:6552   */\n      dup2\n        /* \"#utility.yul\":6523:6553   */\n      tag_132\n      jump\t// in\n    tag_249:\n        /* \"#utility.yul\":6422:6559   */\n      swap3\n      swap2\n      pop\n      pop\n      jump\t// out\n        /* \"#utility.yul\":6565:6910   */\n    tag_33:\n        /* \"#utility.yul\":6632:6638   */\n      0x00\n        /* \"#utility.yul\":6681:6683   */\n      0x20\n        /* \"#utility.yul\":6669:6678   */\n      dup3\n        /* \"#utility.yul\":6660:6667   */\n      dup5\n        /* \"#utility.yul\":6656:6679   */\n      sub\n        /* \"#utility.yul\":6652:6684   */\n      slt\n        /* \"#utility.yul\":6649:6768   */\n      iszero\n      tag_251\n      jumpi\n        /* \"#utility.yul\":6687:6766   */\n      tag_252\n      tag_114\n      jump\t// in\n    tag_252:\n        /* \"#utility.yul\":6649:6768   */\n    tag_251:\n        /* \"#utility.yul\":6807:6808   */\n      0x00\n        /* \"#utility.yul\":6832:6893   */\n      tag_253\n        /* \"#utility.yul\":6885:6892   */\n      dup5\n        /* \"#utility.yul\":6876:6882   */\n      dup3\n        /* \"#utility.yul\":6865:6874   */\n      dup6\n        /* \"#utility.yul\":6861:6883   */\n      add\n        /* \"#utility.yul\":6832:6893   */\n      tag_133\n      jump\t// in\n    tag_253:\n        /* \"#utility.yul\":6822:6893   */\n      swap2\n      pop\n        /* \"#utility.yul\":6778:6903   */\n      pop\n        /* \"#utility.yul\":6565:6910   */\n      swap3\n      swap2\n      pop\n      pop\n      jump\t// out\n        /* \"#utility.yul\":6916:7096   */\n    tag_36:\n        /* \"#utility.yul\":6964:7041   */\n      0x4e487b7100000000000000000000000000000000000000000000000000000000\n        /* \"#utility.yul\":6961:6962   */\n      0x00\n        /* \"#utility.yul\":6954:7042   */\n      mstore\n        /* \"#utility.yul\":7061:7065   */\n      0x41\n        /* \"#utility.yul\":7058:7059   */\n      0x04\n        /* \"#utility.yul\":7051:7066   */\n      mstore\n        /* \"#utility.yul\":7085:7089   */\n      0x24\n        /* \"#utility.yul\":7082:7083   */\n      0x00\n        /* \"#utility.yul\":7075:7090   */\n      revert\n        /* \"#utility.yul\":7102:7282   */\n    tag_40:\n        /* \"#utility.yul\":7150:7227   */\n      0x4e487b7100000000000000000000000000000000000000000000000000000000\n        /* \"#utility.yul\":7147:7148   */\n      0x00\n        /* \"#utility.yul\":7140:7228   */\n      mstore\n        /* \"#utility.yul\":7247:7251   */\n      0x32\n        /* \"#utility.yul\":7244:7245   */\n      0x04\n        /* \"#utility.yul\":7237:7252   */\n      mstore\n        /* \"#utility.yul\":7271:7275   */\n      0x24\n        /* \"#utility.yul\":7268:7269   */\n      0x00\n        /* \"#utility.yul\":7261:7276   */\n      revert\n        /* \"#utility.yul\":7288:7373   */\n    tag_134:\n        /* \"#utility.yul\":7333:7340   */\n      0x00\n        /* \"#utility.yul\":7362:7367   */\n      dup2\n        /* \"#utility.yul\":7351:7367   */\n      swap1\n      pop\n        /* \"#utility.yul\":7288:7373   */\n      swap2\n      swap1\n      pop\n      jump\t// out\n        /* \"#utility.yul\":7379:7537   */\n    tag_135:\n        /* \"#utility.yul\":7437:7446   */\n      0x00\n        /* \"#utility.yul\":7470:7531   */\n      tag_258\n        /* \"#utility.yul\":7488:7530   */\n      tag_259\n        /* \"#utility.yul\":7497:7529   */\n      tag_260\n        /* \"#utility.yul\":7523:7528   */\n      dup5\n        /* \"#utility.yul\":7497:7529   */\n      tag_134\n      jump\t// in\n    tag_260:\n        /* \"#utility.yul\":7488:7530   */\n      tag_108\n      jump\t// in\n    tag_259:\n        /* \"#utility.yul\":7470:7531   */\n      tag_119\n      jump\t// in\n    tag_258:\n        /* \"#utility.yul\":7457:7531   */\n      swap1\n      pop\n        /* \"#utility.yul\":7379:7537   */\n      swap2\n      swap1\n      pop\n      jump\t// out\n        /* \"#utility.yul\":7543:7690   */\n    tag_136:\n        /* \"#utility.yul\":7638:7683   */\n      tag_262\n        /* \"#utility.yul\":7677:7682   */\n      dup2\n        /* \"#utility.yul\":7638:7683   */\n      tag_135\n      jump\t// in\n    tag_262:\n        /* \"#utility.yul\":7633:7636   */\n      dup3\n        /* \"#utility.yul\":7626:7684   */\n      mstore\n        /* \"#utility.yul\":7543:7690   */\n      pop\n      pop\n      jump\t// out\n        /* \"#utility.yul\":7696:7810   */\n    tag_137:\n        /* \"#utility.yul\":7763:7769   */\n      0x00\n        /* \"#utility.yul\":7797:7802   */\n      dup2\n        /* \"#utility.yul\":7791:7803   */\n      mload\n        /* \"#utility.yul\":7781:7803   */\n      swap1\n      pop\n        /* \"#utility.yul\":7696:7810   */\n      swap2\n      swap1\n      pop\n      jump\t// out\n        /* \"#utility.yul\":7816:8000   */\n    tag_138:\n        /* \"#utility.yul\":7915:7926   */\n      0x00\n        /* \"#utility.yul\":7949:7955   */\n      dup3\n        /* \"#utility.yul\":7944:7947   */\n      dup3\n        /* \"#utility.yul\":7937:7956   */\n      mstore\n        /* \"#utility.yul\":7989:7993   */\n      0x20\n        /* \"#utility.yul\":7984:7987   */\n      dup3\n        /* \"#utility.yul\":7980:7994   */\n      add\n        /* \"#utility.yul\":7965:7994   */\n      swap1\n      pop\n        /* \"#utility.yul\":7816:8000   */\n      swap3\n      swap2\n      pop\n      pop\n      jump\t// out\n        /* \"#utility.yul\":8006:8138   */\n    tag_139:\n        /* \"#utility.yul\":8073:8077   */\n      0x00\n        /* \"#utility.yul\":8096:8099   */\n      dup2\n        /* \"#utility.yul\":8088:8099   */\n      swap1\n      pop\n        /* \"#utility.yul\":8126:8130   */\n      0x20\n        /* \"#utility.yul\":8121:8124   */\n      dup3\n        /* \"#utility.yul\":8117:8131   */\n      add\n        /* \"#utility.yul\":8109:8131   */\n      swap1\n      pop\n        /* \"#utility.yul\":8006:8138   */\n      swap2\n      swap1\n      pop\n      jump\t// out\n        /* \"#utility.yul\":8144:8252   */\n    tag_140:\n        /* \"#utility.yul\":8221:8245   */\n      tag_267\n        /* \"#utility.yul\":8239:8244   */\n      dup2\n        /* \"#utility.yul\":8221:8245   */\n      tag_116\n      jump\t// in\n    tag_267:\n        /* \"#utility.yul\":8216:8219   */\n      dup3\n        /* \"#utility.yul\":8209:8246   */\n      mstore\n        /* \"#utility.yul\":8144:8252   */\n      pop\n      pop\n      jump\t// out\n        /* \"#utility.yul\":8258:8437   */\n    tag_141:\n        /* \"#utility.yul\":8327:8337   */\n      0x00\n        /* \"#utility.yul\":8348:8394   */\n      tag_269\n        /* \"#utility.yul\":8390:8393   */\n      dup4\n        /* \"#utility.yul\":8382:8388   */\n      dup4\n        /* \"#utility.yul\":8348:8394   */\n      tag_140\n      jump\t// in\n    tag_269:\n        /* \"#utility.yul\":8426:8430   */\n      0x20\n        /* \"#utility.yul\":8421:8424   */\n      dup4\n        /* \"#utility.yul\":8417:8431   */\n      add\n        /* \"#utility.yul\":8403:8431   */\n      swap1\n      pop\n        /* \"#utility.yul\":8258:8437   */\n      swap3\n      swap2\n      pop\n      pop\n      jump\t// out\n        /* \"#utility.yul\":8443:8556   */\n    tag_142:\n        /* \"#utility.yul\":8513:8517   */\n      0x00\n        /* \"#utility.yul\":8545:8549   */\n      0x20\n        /* \"#utility.yul\":8540:8543   */\n      dup3\n        /* \"#utility.yul\":8536:8550   */\n      add\n        /* \"#utility.yul\":8528:8550   */\n      swap1\n      pop\n        /* \"#utility.yul\":8443:8556   */\n      swap2\n      swap1\n      pop\n      jump\t// out\n        /* \"#utility.yul\":8592:9324   */\n    tag_143:\n        /* \"#utility.yul\":8711:8714   */\n      0x00\n        /* \"#utility.yul\":8740:8794   */\n      tag_272\n        /* \"#utility.yul\":8788:8793   */\n      dup3\n        /* \"#utility.yul\":8740:8794   */\n      tag_137\n      jump\t// in\n    tag_272:\n        /* \"#utility.yul\":8810:8896   */\n      tag_273\n        /* \"#utility.yul\":8889:8895   */\n      dup2\n        /* \"#utility.yul\":8884:8887   */\n      dup6\n        /* \"#utility.yul\":8810:8896   */\n      tag_138\n      jump\t// in\n    tag_273:\n        /* \"#utility.yul\":8803:8896   */\n      swap4\n      pop\n        /* \"#utility.yul\":8920:8976   */\n      tag_274\n        /* \"#utility.yul\":8970:8975   */\n      dup4\n        /* \"#utility.yul\":8920:8976   */\n      tag_139\n      jump\t// in\n    tag_274:\n        /* \"#utility.yul\":8999:9006   */\n      dup1\n        /* \"#utility.yul\":9030:9031   */\n      0x00\n        /* \"#utility.yul\":9015:9299   */\n    tag_275:\n        /* \"#utility.yul\":9040:9046   */\n      dup4\n        /* \"#utility.yul\":9037:9038   */\n      dup2\n        /* \"#utility.yul\":9034:9047   */\n      lt\n        /* \"#utility.yul\":9015:9299   */\n      iszero\n      tag_277\n      jumpi\n        /* \"#utility.yul\":9116:9122   */\n      dup2\n        /* \"#utility.yul\":9110:9123   */\n      mload\n        /* \"#utility.yul\":9143:9206   */\n      tag_278\n        /* \"#utility.yul\":9202:9205   */\n      dup9\n        /* \"#utility.yul\":9187:9200   */\n      dup3\n        /* \"#utility.yul\":9143:9206   */\n      tag_141\n      jump\t// in\n    tag_278:\n        /* \"#utility.yul\":9136:9206   */\n      swap8\n      pop\n        /* \"#utility.yul\":9229:9289   */\n      tag_279\n        /* \"#utility.yul\":9282:9288   */\n      dup4\n        /* \"#utility.yul\":9229:9289   */\n      tag_142\n      jump\t// in\n    tag_279:\n        /* \"#utility.yul\":9219:9289   */\n      swap3\n      pop\n        /* \"#utility.yul\":9075:9299   */\n      pop\n        /* \"#utility.yul\":9062:9063   */\n      0x01\n        /* \"#utility.yul\":9059:9060   */\n      dup2\n        /* \"#utility.yul\":9055:9064   */\n      add\n        /* \"#utility.yul\":9050:9064   */\n      swap1\n      pop\n        /* \"#utility.yul\":9015:9299   */\n      jump(tag_275)\n    tag_277:\n        /* \"#utility.yul\":9019:9033   */\n      pop\n        /* \"#utility.yul\":9315:9318   */\n      dup6\n        /* \"#utility.yul\":9308:9318   */\n      swap4\n      pop\n        /* \"#utility.yul\":8716:9324   */\n      pop\n      pop\n      pop\n        /* \"#utility.yul\":8592:9324   */\n      swap3\n      swap2\n      pop\n      pop\n      jump\t// out\n        /* \"#utility.yul\":9330:10161   */\n    tag_44:\n        /* \"#utility.yul\":9593:9597   */\n      0x00\n        /* \"#utility.yul\":9631:9634   */\n      0xa0\n        /* \"#utility.yul\":9620:9629   */\n      dup3\n        /* \"#utility.yul\":9616:9635   */\n      add\n        /* \"#utility.yul\":9608:9635   */\n      swap1\n      pop\n        /* \"#utility.yul\":9645:9716   */\n      tag_281\n        /* \"#utility.yul\":9713:9714   */\n      0x00\n        /* \"#utility.yul\":9702:9711   */\n      dup4\n        /* \"#utility.yul\":9698:9715   */\n      add\n        /* \"#utility.yul\":9689:9695   */\n      dup9\n        /* \"#utility.yul\":9645:9716   */\n      tag_131\n      jump\t// in\n    tag_281:\n        /* \"#utility.yul\":9726:9806   */\n      tag_282\n        /* \"#utility.yul\":9802:9804   */\n      0x20\n        /* \"#utility.yul\":9791:9800   */\n      dup4\n        /* \"#utility.yul\":9787:9805   */\n      add\n        /* \"#utility.yul\":9778:9784   */\n      dup8\n        /* \"#utility.yul\":9726:9806   */\n      tag_136\n      jump\t// in\n    tag_282:\n        /* \"#utility.yul\":9853:9862   */\n      dup2\n        /* \"#utility.yul\":9847:9851   */\n      dup2\n        /* \"#utility.yul\":9843:9863   */\n      sub\n        /* \"#utility.yul\":9838:9840   */\n      0x40\n        /* \"#utility.yul\":9827:9836   */\n      dup4\n        /* \"#utility.yul\":9823:9841   */\n      add\n        /* \"#utility.yul\":9816:9864   */\n      mstore\n        /* \"#utility.yul\":9881:9989   */\n      tag_283\n        /* \"#utility.yul\":9984:9988   */\n      dup2\n        /* \"#utility.yul\":9975:9981   */\n      dup7\n        /* \"#utility.yul\":9881:9989   */\n      tag_143\n      jump\t// in\n    tag_283:\n        /* \"#utility.yul\":9873:9989   */\n      swap1\n      pop\n        /* \"#utility.yul\":9999:10071   */\n      tag_284\n        /* \"#utility.yul\":10067:10069   */\n      0x60\n        /* \"#utility.yul\":10056:10065   */\n      dup4\n        /* \"#utility.yul\":10052:10070   */\n      add\n        /* \"#utility.yul\":10043:10049   */\n      dup6\n        /* \"#utility.yul\":9999:10071   */\n      tag_130\n      jump\t// in\n    tag_284:\n        /* \"#utility.yul\":10081:10154   */\n      tag_285\n        /* \"#utility.yul\":10149:10152   */\n      0x80\n        /* \"#utility.yul\":10138:10147   */\n      dup4\n        /* \"#utility.yul\":10134:10153   */\n      add\n        /* \"#utility.yul\":10125:10131   */\n      dup5\n        /* \"#utility.yul\":10081:10154   */\n      tag_131\n      jump\t// in\n    tag_285:\n        /* \"#utility.yul\":9330:10161   */\n      swap7\n      swap6\n      pop\n      pop\n      pop\n      pop\n      pop\n      pop\n      jump\t// out\n        /* \"#utility.yul\":10167:10269   */\n    tag_144:\n        /* \"#utility.yul\":10208:10214   */\n      0x00\n        /* \"#utility.yul\":10259:10261   */\n      0x1f\n        /* \"#utility.yul\":10255:10262   */\n      not\n        /* \"#utility.yul\":10250:10252   */\n      0x1f\n        /* \"#utility.yul\":10243:10248   */\n      dup4\n        /* \"#utility.yul\":10239:10253   */\n      add\n        /* \"#utility.yul\":10235:10263   */\n      and\n        /* \"#utility.yul\":10225:10263   */\n      swap1\n      pop\n        /* \"#utility.yul\":10167:10269   */\n      swap2\n      swap1\n      pop\n      jump\t// out\n        /* \"#utility.yul\":10275:10556   */\n    tag_145:\n        /* \"#utility.yul\":10358:10385   */\n      tag_288\n        /* \"#utility.yul\":10380:10384   */\n      dup3\n        /* \"#utility.yul\":10358:10385   */\n      tag_144\n      jump\t// in\n    tag_288:\n        /* \"#utility.yul\":10350:10356   */\n      dup2\n        /* \"#utility.yul\":10346:10386   */\n      add\n        /* \"#utility.yul\":10488:10494   */\n      dup2\n        /* \"#utility.yul\":10476:10486   */\n      dup2\n        /* \"#utility.yul\":10473:10495   */\n      lt\n        /* \"#utility.yul\":10452:10470   */\n      0xffffffffffffffff\n        /* \"#utility.yul\":10440:10450   */\n      dup3\n        /* \"#utility.yul\":10437:10471   */\n      gt\n        /* \"#utility.yul\":10434:10496   */\n      or\n        /* \"#utility.yul\":10431:10519   */\n      iszero\n      tag_289\n      jumpi\n        /* \"#utility.yul\":10499:10517   */\n      tag_290\n      tag_36\n      jump\t// in\n    tag_290:\n        /* \"#utility.yul\":10431:10519   */\n    tag_289:\n        /* \"#utility.yul\":10539:10549   */\n      dup1\n        /* \"#utility.yul\":10535:10537   */\n      0x40\n        /* \"#utility.yul\":10528:10550   */\n      mstore\n        /* \"#utility.yul\":10318:10556   */\n      pop\n        /* \"#utility.yul\":10275:10556   */\n      pop\n      pop\n      jump\t// out\n        /* \"#utility.yul\":10562:10691   */\n    tag_146:\n        /* \"#utility.yul\":10596:10602   */\n      0x00\n        /* \"#utility.yul\":10623:10643   */\n      tag_292\n      tag_113\n      jump\t// in\n    tag_292:\n        /* \"#utility.yul\":10613:10643   */\n      swap1\n      pop\n        /* \"#utility.yul\":10652:10685   */\n      tag_293\n        /* \"#utility.yul\":10680:10684   */\n      dup3\n        /* \"#utility.yul\":10672:10678   */\n      dup3\n        /* \"#utility.yul\":10652:10685   */\n      tag_145\n      jump\t// in\n    tag_293:\n        /* \"#utility.yul\":10562:10691   */\n      swap2\n      swap1\n      pop\n      jump\t// out\n        /* \"#utility.yul\":10697:11008   */\n    tag_147:\n        /* \"#utility.yul\":10774:10778   */\n      0x00\n        /* \"#utility.yul\":10864:10882   */\n      0xffffffffffffffff\n        /* \"#utility.yul\":10856:10862   */\n      dup3\n        /* \"#utility.yul\":10853:10883   */\n      gt\n        /* \"#utility.yul\":10850:10906   */\n      iszero\n      tag_295\n      jumpi\n        /* \"#utility.yul\":10886:10904   */\n      tag_296\n      tag_36\n      jump\t// in\n    tag_296:\n        /* \"#utility.yul\":10850:10906   */\n    tag_295:\n        /* \"#utility.yul\":10936:10940   */\n      0x20\n        /* \"#utility.yul\":10928:10934   */\n      dup3\n        /* \"#utility.yul\":10924:10941   */\n      mul\n        /* \"#utility.yul\":10916:10941   */\n      swap1\n      pop\n        /* \"#utility.yul\":10996:11000   */\n      0x20\n        /* \"#utility.yul\":10990:10994   */\n      dup2\n        /* \"#utility.yul\":10986:11001   */\n      add\n        /* \"#utility.yul\":10978:11001   */\n      swap1\n      pop\n        /* \"#utility.yul\":10697:11008   */\n      swap2\n      swap1\n      pop\n      jump\t// out\n        /* \"#utility.yul\":11014:11157   */\n    tag_148:\n        /* \"#utility.yul\":11071:11076   */\n      0x00\n        /* \"#utility.yul\":11102:11108   */\n      dup2\n        /* \"#utility.yul\":11096:11109   */\n      mload\n        /* \"#utility.yul\":11087:11109   */\n      swap1\n      pop\n        /* \"#utility.yul\":11118:11151   */\n      tag_298\n        /* \"#utility.yul\":11145:11150   */\n      dup2\n        /* \"#utility.yul\":11118:11151   */\n      tag_120\n      jump\t// in\n    tag_298:\n        /* \"#utility.yul\":11014:11157   */\n      swap3\n      swap2\n      pop\n      pop\n      jump\t// out\n        /* \"#utility.yul\":11180:11912   */\n    tag_149:\n        /* \"#utility.yul\":11287:11292   */\n      0x00\n        /* \"#utility.yul\":11312:11393   */\n      tag_300\n        /* \"#utility.yul\":11328:11392   */\n      tag_301\n        /* \"#utility.yul\":11385:11391   */\n      dup5\n        /* \"#utility.yul\":11328:11392   */\n      tag_147\n      jump\t// in\n    tag_301:\n        /* \"#utility.yul\":11312:11393   */\n      tag_146\n      jump\t// in\n    tag_300:\n        /* \"#utility.yul\":11303:11393   */\n      swap1\n      pop\n        /* \"#utility.yul\":11413:11418   */\n      dup1\n        /* \"#utility.yul\":11442:11448   */\n      dup4\n        /* \"#utility.yul\":11435:11440   */\n      dup3\n        /* \"#utility.yul\":11428:11449   */\n      mstore\n        /* \"#utility.yul\":11476:11480   */\n      0x20\n        /* \"#utility.yul\":11469:11474   */\n      dup3\n        /* \"#utility.yul\":11465:11481   */\n      add\n        /* \"#utility.yul\":11458:11481   */\n      swap1\n      pop\n        /* \"#utility.yul\":11529:11533   */\n      0x20\n        /* \"#utility.yul\":11521:11527   */\n      dup5\n        /* \"#utility.yul\":11517:11534   */\n      mul\n        /* \"#utility.yul\":11509:11515   */\n      dup4\n        /* \"#utility.yul\":11505:11535   */\n      add\n        /* \"#utility.yul\":11558:11561   */\n      dup6\n        /* \"#utility.yul\":11550:11556   */\n      dup2\n        /* \"#utility.yul\":11547:11562   */\n      gt\n        /* \"#utility.yul\":11544:11666   */\n      iszero\n      tag_302\n      jumpi\n        /* \"#utility.yul\":11577:11656   */\n      tag_303\n      tag_124\n      jump\t// in\n    tag_303:\n        /* \"#utility.yul\":11544:11666   */\n    tag_302:\n        /* \"#utility.yul\":11692:11698   */\n      dup4\n        /* \"#utility.yul\":11675:11906   */\n    tag_304:\n        /* \"#utility.yul\":11709:11715   */\n      dup2\n        /* \"#utility.yul\":11704:11707   */\n      dup2\n        /* \"#utility.yul\":11701:11716   */\n      lt\n        /* \"#utility.yul\":11675:11906   */\n      iszero\n      tag_306\n      jumpi\n        /* \"#utility.yul\":11784:11787   */\n      dup1\n        /* \"#utility.yul\":11813:11861   */\n      tag_307\n        /* \"#utility.yul\":11857:11860   */\n      dup9\n        /* \"#utility.yul\":11845:11855   */\n      dup3\n        /* \"#utility.yul\":11813:11861   */\n      tag_148\n      jump\t// in\n    tag_307:\n        /* \"#utility.yul\":11808:11811   */\n      dup5\n        /* \"#utility.yul\":11801:11862   */\n      mstore\n        /* \"#utility.yul\":11891:11895   */\n      0x20\n        /* \"#utility.yul\":11886:11889   */\n      dup5\n        /* \"#utility.yul\":11882:11896   */\n      add\n        /* \"#utility.yul\":11875:11896   */\n      swap4\n      pop\n        /* \"#utility.yul\":11751:11906   */\n      pop\n        /* \"#utility.yul\":11735:11739   */\n      0x20\n        /* \"#utility.yul\":11730:11733   */\n      dup2\n        /* \"#utility.yul\":11726:11740   */\n      add\n        /* \"#utility.yul\":11719:11740   */\n      swap1\n      pop\n        /* \"#utility.yul\":11675:11906   */\n      jump(tag_304)\n    tag_306:\n        /* \"#utility.yul\":11679:11700   */\n      pop\n        /* \"#utility.yul\":11293:11912   */\n      pop\n      pop\n        /* \"#utility.yul\":11180:11912   */\n      swap4\n      swap3\n      pop\n      pop\n      pop\n      jump\t// out\n        /* \"#utility.yul\":11935:12320   */\n    tag_150:\n        /* \"#utility.yul\":12017:12022   */\n      0x00\n        /* \"#utility.yul\":12066:12069   */\n      dup3\n        /* \"#utility.yul\":12059:12063   */\n      0x1f\n        /* \"#utility.yul\":12051:12057   */\n      dup4\n        /* \"#utility.yul\":12047:12064   */\n      add\n        /* \"#utility.yul\":12043:12070   */\n      slt\n        /* \"#utility.yul\":12033:12155   */\n      tag_309\n      jumpi\n        /* \"#utility.yul\":12074:12153   */\n      tag_310\n      tag_122\n      jump\t// in\n    tag_310:\n        /* \"#utility.yul\":12033:12155   */\n    tag_309:\n        /* \"#utility.yul\":12184:12190   */\n      dup2\n        /* \"#utility.yul\":12178:12191   */\n      mload\n        /* \"#utility.yul\":12209:12314   */\n      tag_311\n        /* \"#utility.yul\":12310:12313   */\n      dup5\n        /* \"#utility.yul\":12302:12308   */\n      dup3\n        /* \"#utility.yul\":12295:12299   */\n      0x20\n        /* \"#utility.yul\":12287:12293   */\n      dup7\n        /* \"#utility.yul\":12283:12300   */\n      add\n        /* \"#utility.yul\":12209:12314   */\n      tag_149\n      jump\t// in\n    tag_311:\n        /* \"#utility.yul\":12200:12314   */\n      swap2\n      pop\n        /* \"#utility.yul\":12023:12320   */\n      pop\n        /* \"#utility.yul\":11935:12320   */\n      swap3\n      swap2\n      pop\n      pop\n      jump\t// out\n        /* \"#utility.yul\":12326:12880   */\n    tag_48:\n        /* \"#utility.yul\":12421:12427   */\n      0x00\n        /* \"#utility.yul\":12470:12472   */\n      0x20\n        /* \"#utility.yul\":12458:12467   */\n      dup3\n        /* \"#utility.yul\":12449:12456   */\n      dup5\n        /* \"#utility.yul\":12445:12468   */\n      sub\n        /* \"#utility.yul\":12441:12473   */\n      slt\n        /* \"#utility.yul\":12438:12557   */\n      iszero\n      tag_313\n      jumpi\n        /* \"#utility.yul\":12476:12555   */\n      tag_314\n      tag_114\n      jump\t// in\n    tag_314:\n        /* \"#utility.yul\":12438:12557   */\n    tag_313:\n        /* \"#utility.yul\":12617:12618   */\n      0x00\n        /* \"#utility.yul\":12606:12615   */\n      dup3\n        /* \"#utility.yul\":12602:12619   */\n      add\n        /* \"#utility.yul\":12596:12620   */\n      mload\n        /* \"#utility.yul\":12647:12665   */\n      0xffffffffffffffff\n        /* \"#utility.yul\":12639:12645   */\n      dup2\n        /* \"#utility.yul\":12636:12666   */\n      gt\n        /* \"#utility.yul\":12633:12750   */\n      iszero\n      tag_315\n      jumpi\n        /* \"#utility.yul\":12669:12748   */\n      tag_316\n      tag_115\n      jump\t// in\n    tag_316:\n        /* \"#utility.yul\":12633:12750   */\n    tag_315:\n        /* \"#utility.yul\":12774:12863   */\n      tag_317\n        /* \"#utility.yul\":12855:12862   */\n      dup5\n        /* \"#utility.yul\":12846:12852   */\n      dup3\n        /* \"#utility.yul\":12835:12844   */\n      dup6\n        /* \"#utility.yul\":12831:12853   */\n      add\n        /* \"#utility.yul\":12774:12863   */\n      tag_150\n      jump\t// in\n    tag_317:\n        /* \"#utility.yul\":12764:12863   */\n      swap2\n      pop\n        /* \"#utility.yul\":12567:12873   */\n      pop\n        /* \"#utility.yul\":12326:12880   */\n      swap3\n      swap2\n      pop\n      pop\n      jump\t// out\n        /* \"#utility.yul\":12886:12977   */\n    tag_151:\n        /* \"#utility.yul\":12922:12929   */\n      0x00\n        /* \"#utility.yul\":12962:12970   */\n      0xffffff\n        /* \"#utility.yul\":12955:12960   */\n      dup3\n        /* \"#utility.yul\":12951:12971   */\n      and\n        /* \"#utility.yul\":12940:12971   */\n      swap1\n      pop\n        /* \"#utility.yul\":12886:12977   */\n      swap2\n      swap1\n      pop\n      jump\t// out\n        /* \"#utility.yul\":12983:13088   */\n    tag_152:\n        /* \"#utility.yul\":13058:13081   */\n      tag_320\n        /* \"#utility.yul\":13075:13080   */\n      dup2\n        /* \"#utility.yul\":13058:13081   */\n      tag_151\n      jump\t// in\n    tag_320:\n        /* \"#utility.yul\":13053:13056   */\n      dup3\n        /* \"#utility.yul\":13046:13082   */\n      mstore\n        /* \"#utility.yul\":12983:13088   */\n      pop\n      pop\n      jump\t// out\n        /* \"#utility.yul\":13094:13202   */\n    tag_153:\n        /* \"#utility.yul\":13171:13195   */\n      tag_322\n        /* \"#utility.yul\":13189:13194   */\n      dup2\n        /* \"#utility.yul\":13171:13195   */\n      tag_119\n      jump\t// in\n    tag_322:\n        /* \"#utility.yul\":13166:13169   */\n      dup3\n        /* \"#utility.yul\":13159:13196   */\n      mstore\n        /* \"#utility.yul\":13094:13202   */\n      pop\n      pop\n      jump\t// out\n        /* \"#utility.yul\":13208:13316   */\n    tag_154:\n        /* \"#utility.yul\":13285:13309   */\n      tag_324\n        /* \"#utility.yul\":13303:13308   */\n      dup2\n        /* \"#utility.yul\":13285:13309   */\n      tag_107\n      jump\t// in\n    tag_324:\n        /* \"#utility.yul\":13280:13283   */\n      dup3\n        /* \"#utility.yul\":13273:13310   */\n      mstore\n        /* \"#utility.yul\":13208:13316   */\n      pop\n      pop\n      jump\t// out\n        /* \"#utility.yul\":13420:14865   */\n    tag_155:\n        /* \"#utility.yul\":13597:13601   */\n      0xe0\n        /* \"#utility.yul\":13592:13595   */\n      dup3\n        /* \"#utility.yul\":13588:13602   */\n      add\n        /* \"#utility.yul\":13687:13691   */\n      0x00\n        /* \"#utility.yul\":13680:13685   */\n      dup3\n        /* \"#utility.yul\":13676:13692   */\n      add\n        /* \"#utility.yul\":13670:13693   */\n      mload\n        /* \"#utility.yul\":13706:13769   */\n      tag_326\n        /* \"#utility.yul\":13763:13767   */\n      0x00\n        /* \"#utility.yul\":13758:13761   */\n      dup6\n        /* \"#utility.yul\":13754:13768   */\n      add\n        /* \"#utility.yul\":13740:13752   */\n      dup3\n        /* \"#utility.yul\":13706:13769   */\n      tag_140\n      jump\t// in\n    tag_326:\n        /* \"#utility.yul\":13612:13779   */\n      pop\n        /* \"#utility.yul\":13865:13869   */\n      0x20\n        /* \"#utility.yul\":13858:13863   */\n      dup3\n        /* \"#utility.yul\":13854:13870   */\n      add\n        /* \"#utility.yul\":13848:13871   */\n      mload\n        /* \"#utility.yul\":13884:13947   */\n      tag_327\n        /* \"#utility.yul\":13941:13945   */\n      0x20\n        /* \"#utility.yul\":13936:13939   */\n      dup6\n        /* \"#utility.yul\":13932:13946   */\n      add\n        /* \"#utility.yul\":13918:13930   */\n      dup3\n        /* \"#utility.yul\":13884:13947   */\n      tag_140\n      jump\t// in\n    tag_327:\n        /* \"#utility.yul\":13789:13957   */\n      pop\n        /* \"#utility.yul\":14038:14042   */\n      0x40\n        /* \"#utility.yul\":14031:14036   */\n      dup3\n        /* \"#utility.yul\":14027:14043   */\n      add\n        /* \"#utility.yul\":14021:14044   */\n      mload\n        /* \"#utility.yul\":14057:14118   */\n      tag_328\n        /* \"#utility.yul\":14112:14116   */\n      0x40\n        /* \"#utility.yul\":14107:14110   */\n      dup6\n        /* \"#utility.yul\":14103:14117   */\n      add\n        /* \"#utility.yul\":14089:14101   */\n      dup3\n        /* \"#utility.yul\":14057:14118   */\n      tag_152\n      jump\t// in\n    tag_328:\n        /* \"#utility.yul\":13967:14128   */\n      pop\n        /* \"#utility.yul\":14215:14219   */\n      0x60\n        /* \"#utility.yul\":14208:14213   */\n      dup3\n        /* \"#utility.yul\":14204:14220   */\n      add\n        /* \"#utility.yul\":14198:14221   */\n      mload\n        /* \"#utility.yul\":14234:14297   */\n      tag_329\n        /* \"#utility.yul\":14291:14295   */\n      0x60\n        /* \"#utility.yul\":14286:14289   */\n      dup6\n        /* \"#utility.yul\":14282:14296   */\n      add\n        /* \"#utility.yul\":14268:14280   */\n      dup3\n        /* \"#utility.yul\":14234:14297   */\n      tag_140\n      jump\t// in\n    tag_329:\n        /* \"#utility.yul\":14138:14307   */\n      pop\n        /* \"#utility.yul\":14393:14397   */\n      0x80\n        /* \"#utility.yul\":14386:14391   */\n      dup3\n        /* \"#utility.yul\":14382:14398   */\n      add\n        /* \"#utility.yul\":14376:14399   */\n      mload\n        /* \"#utility.yul\":14412:14475   */\n      tag_330\n        /* \"#utility.yul\":14469:14473   */\n      0x80\n        /* \"#utility.yul\":14464:14467   */\n      dup6\n        /* \"#utility.yul\":14460:14474   */\n      add\n        /* \"#utility.yul\":14446:14458   */\n      dup3\n        /* \"#utility.yul\":14412:14475   */\n      tag_153\n      jump\t// in\n    tag_330:\n        /* \"#utility.yul\":14317:14485   */\n      pop\n        /* \"#utility.yul\":14579:14583   */\n      0xa0\n        /* \"#utility.yul\":14572:14577   */\n      dup3\n        /* \"#utility.yul\":14568:14584   */\n      add\n        /* \"#utility.yul\":14562:14585   */\n      mload\n        /* \"#utility.yul\":14598:14661   */\n      tag_331\n        /* \"#utility.yul\":14655:14659   */\n      0xa0\n        /* \"#utility.yul\":14650:14653   */\n      dup6\n        /* \"#utility.yul\":14646:14660   */\n      add\n        /* \"#utility.yul\":14632:14644   */\n      dup3\n        /* \"#utility.yul\":14598:14661   */\n      tag_153\n      jump\t// in\n    tag_331:\n        /* \"#utility.yul\":14495:14671   */\n      pop\n        /* \"#utility.yul\":14766:14770   */\n      0xc0\n        /* \"#utility.yul\":14759:14764   */\n      dup3\n        /* \"#utility.yul\":14755:14771   */\n      add\n        /* \"#utility.yul\":14749:14772   */\n      mload\n        /* \"#utility.yul\":14785:14848   */\n      tag_332\n        /* \"#utility.yul\":14842:14846   */\n      0xc0\n        /* \"#utility.yul\":14837:14840   */\n      dup6\n        /* \"#utility.yul\":14833:14847   */\n      add\n        /* \"#utility.yul\":14819:14831   */\n      dup3\n        /* \"#utility.yul\":14785:14848   */\n      tag_154\n      jump\t// in\n    tag_332:\n        /* \"#utility.yul\":14681:14858   */\n      pop\n        /* \"#utility.yul\":13566:14865   */\n      pop\n        /* \"#utility.yul\":13420:14865   */\n      pop\n      pop\n      jump\t// out\n        /* \"#utility.yul\":14871:15254   */\n    tag_52:\n        /* \"#utility.yul\":15044:15048   */\n      0x00\n        /* \"#utility.yul\":15082:15085   */\n      0xe0\n        /* \"#utility.yul\":15071:15080   */\n      dup3\n        /* \"#utility.yul\":15067:15086   */\n      add\n        /* \"#utility.yul\":15059:15086   */\n      swap1\n      pop\n        /* \"#utility.yul\":15096:15247   */\n      tag_334\n        /* \"#utility.yul\":15244:15245   */\n      0x00\n        /* \"#utility.yul\":15233:15242   */\n      dup4\n        /* \"#utility.yul\":15229:15246   */\n      add\n        /* \"#utility.yul\":15220:15226   */\n      dup5\n        /* \"#utility.yul\":15096:15247   */\n      tag_155\n      jump\t// in\n    tag_334:\n        /* \"#utility.yul\":14871:15254   */\n      swap3\n      swap2\n      pop\n      pop\n      jump\t// out\n        /* \"#utility.yul\":15260:15611   */\n    tag_56:\n        /* \"#utility.yul\":15330:15336   */\n      0x00\n        /* \"#utility.yul\":15379:15381   */\n      0x20\n        /* \"#utility.yul\":15367:15376   */\n      dup3\n        /* \"#utility.yul\":15358:15365   */\n      dup5\n        /* \"#utility.yul\":15354:15377   */\n      sub\n        /* \"#utility.yul\":15350:15382   */\n      slt\n        /* \"#utility.yul\":15347:15466   */\n      iszero\n      tag_336\n      jumpi\n        /* \"#utility.yul\":15385:15464   */\n      tag_337\n      tag_114\n      jump\t// in\n    tag_337:\n        /* \"#utility.yul\":15347:15466   */\n    tag_336:\n        /* \"#utility.yul\":15505:15506   */\n      0x00\n        /* \"#utility.yul\":15530:15594   */\n      tag_338\n        /* \"#utility.yul\":15586:15593   */\n      dup5\n        /* \"#utility.yul\":15577:15583   */\n      dup3\n        /* \"#utility.yul\":15566:15575   */\n      dup6\n        /* \"#utility.yul\":15562:15584   */\n      add\n        /* \"#utility.yul\":15530:15594   */\n      tag_148\n      jump\t// in\n    tag_338:\n        /* \"#utility.yul\":15520:15594   */\n      swap2\n      pop\n        /* \"#utility.yul\":15476:15604   */\n      pop\n        /* \"#utility.yul\":15260:15611   */\n      swap3\n      swap2\n      pop\n      pop\n      jump\t// out\n        /* \"#utility.yul\":15617:15702   */\n    tag_156:\n        /* \"#utility.yul\":15662:15669   */\n      0x00\n        /* \"#utility.yul\":15691:15696   */\n      dup2\n        /* \"#utility.yul\":15680:15696   */\n      swap1\n      pop\n        /* \"#utility.yul\":15617:15702   */\n      swap2\n      swap1\n      pop\n      jump\t// out\n        /* \"#utility.yul\":15708:15866   */\n    tag_157:\n        /* \"#utility.yul\":15766:15775   */\n      0x00\n        /* \"#utility.yul\":15799:15860   */\n      tag_341\n        /* \"#utility.yul\":15817:15859   */\n      tag_342\n        /* \"#utility.yul\":15826:15858   */\n      tag_343\n        /* \"#utility.yul\":15852:15857   */\n      dup5\n        /* \"#utility.yul\":15826:15858   */\n      tag_156\n      jump\t// in\n    tag_343:\n        /* \"#utility.yul\":15817:15859   */\n      tag_108\n      jump\t// in\n    tag_342:\n        /* \"#utility.yul\":15799:15860   */\n      tag_119\n      jump\t// in\n    tag_341:\n        /* \"#utility.yul\":15786:15860   */\n      swap1\n      pop\n        /* \"#utility.yul\":15708:15866   */\n      swap2\n      swap1\n      pop\n      jump\t// out\n        /* \"#utility.yul\":15872:16019   */\n    tag_158:\n        /* \"#utility.yul\":15967:16012   */\n      tag_345\n        /* \"#utility.yul\":16006:16011   */\n      dup2\n        /* \"#utility.yul\":15967:16012   */\n      tag_157\n      jump\t// in\n    tag_345:\n        /* \"#utility.yul\":15962:15965   */\n      dup3\n        /* \"#utility.yul\":15955:16013   */\n      mstore\n        /* \"#utility.yul\":15872:16019   */\n      pop\n      pop\n      jump\t// out\n        /* \"#utility.yul\":16025:16373   */\n    tag_64:\n        /* \"#utility.yul\":16154:16158   */\n      0x00\n        /* \"#utility.yul\":16192:16194   */\n      0x40\n        /* \"#utility.yul\":16181:16190   */\n      dup3\n        /* \"#utility.yul\":16177:16195   */\n      add\n        /* \"#utility.yul\":16169:16195   */\n      swap1\n      pop\n        /* \"#utility.yul\":16205:16276   */\n      tag_347\n        /* \"#utility.yul\":16273:16274   */\n      0x00\n        /* \"#utility.yul\":16262:16271   */\n      dup4\n        /* \"#utility.yul\":16258:16275   */\n      add\n        /* \"#utility.yul\":16249:16255   */\n      dup6\n        /* \"#utility.yul\":16205:16276   */\n      tag_130\n      jump\t// in\n    tag_347:\n        /* \"#utility.yul\":16286:16366   */\n      tag_348\n        /* \"#utility.yul\":16362:16364   */\n      0x20\n        /* \"#utility.yul\":16351:16360   */\n      dup4\n        /* \"#utility.yul\":16347:16365   */\n      add\n        /* \"#utility.yul\":16338:16344   */\n      dup5\n        /* \"#utility.yul\":16286:16366   */\n      tag_158\n      jump\t// in\n    tag_348:\n        /* \"#utility.yul\":16025:16373   */\n      swap4\n      swap3\n      pop\n      pop\n      pop\n      jump\t// out\n        /* \"#utility.yul\":16379:16493   */\n    tag_159:\n        /* \"#utility.yul\":16446:16452   */\n      0x00\n        /* \"#utility.yul\":16480:16485   */\n      dup2\n        /* \"#utility.yul\":16474:16486   */\n      mload\n        /* \"#utility.yul\":16464:16486   */\n      swap1\n      pop\n        /* \"#utility.yul\":16379:16493   */\n      swap2\n      swap1\n      pop\n      jump\t// out\n        /* \"#utility.yul\":16499:16683   */\n    tag_160:\n        /* \"#utility.yul\":16598:16609   */\n      0x00\n        /* \"#utility.yul\":16632:16638   */\n      dup3\n        /* \"#utility.yul\":16627:16630   */\n      dup3\n        /* \"#utility.yul\":16620:16639   */\n      mstore\n        /* \"#utility.yul\":16672:16676   */\n      0x20\n        /* \"#utility.yul\":16667:16670   */\n      dup3\n        /* \"#utility.yul\":16663:16677   */\n      add\n        /* \"#utility.yul\":16648:16677   */\n      swap1\n      pop\n        /* \"#utility.yul\":16499:16683   */\n      swap3\n      swap2\n      pop\n      pop\n      jump\t// out\n        /* \"#utility.yul\":16689:16821   */\n    tag_161:\n        /* \"#utility.yul\":16756:16760   */\n      0x00\n        /* \"#utility.yul\":16779:16782   */\n      dup2\n        /* \"#utility.yul\":16771:16782   */\n      swap1\n      pop\n        /* \"#utility.yul\":16809:16813   */\n      0x20\n        /* \"#utility.yul\":16804:16807   */\n      dup3\n        /* \"#utility.yul\":16800:16814   */\n      add\n        /* \"#utility.yul\":16792:16814   */\n      swap1\n      pop\n        /* \"#utility.yul\":16689:16821   */\n      swap2\n      swap1\n      pop\n      jump\t// out\n        /* \"#utility.yul\":16827:17006   */\n    tag_162:\n        /* \"#utility.yul\":16896:16906   */\n      0x00\n        /* \"#utility.yul\":16917:16963   */\n      tag_353\n        /* \"#utility.yul\":16959:16962   */\n      dup4\n        /* \"#utility.yul\":16951:16957   */\n      dup4\n        /* \"#utility.yul\":16917:16963   */\n      tag_153\n      jump\t// in\n    tag_353:\n        /* \"#utility.yul\":16995:16999   */\n      0x20\n        /* \"#utility.yul\":16990:16993   */\n      dup4\n        /* \"#utility.yul\":16986:17000   */\n      add\n        /* \"#utility.yul\":16972:17000   */\n      swap1\n      pop\n        /* \"#utility.yul\":16827:17006   */\n      swap3\n      swap2\n      pop\n      pop\n      jump\t// out\n        /* \"#utility.yul\":17012:17125   */\n    tag_163:\n        /* \"#utility.yul\":17082:17086   */\n      0x00\n        /* \"#utility.yul\":17114:17118   */\n      0x20\n        /* \"#utility.yul\":17109:17112   */\n      dup3\n        /* \"#utility.yul\":17105:17119   */\n      add\n        /* \"#utility.yul\":17097:17119   */\n      swap1\n      pop\n        /* \"#utility.yul\":17012:17125   */\n      swap2\n      swap1\n      pop\n      jump\t// out\n        /* \"#utility.yul\":17161:17893   */\n    tag_164:\n        /* \"#utility.yul\":17280:17283   */\n      0x00\n        /* \"#utility.yul\":17309:17363   */\n      tag_356\n        /* \"#utility.yul\":17357:17362   */\n      dup3\n        /* \"#utility.yul\":17309:17363   */\n      tag_159\n      jump\t// in\n    tag_356:\n        /* \"#utility.yul\":17379:17465   */\n      tag_357\n        /* \"#utility.yul\":17458:17464   */\n      dup2\n        /* \"#utility.yul\":17453:17456   */\n      dup6\n        /* \"#utility.yul\":17379:17465   */\n      tag_160\n      jump\t// in\n    tag_357:\n        /* \"#utility.yul\":17372:17465   */\n      swap4\n      pop\n        /* \"#utility.yul\":17489:17545   */\n      tag_358\n        /* \"#utility.yul\":17539:17544   */\n      dup4\n        /* \"#utility.yul\":17489:17545   */\n      tag_161\n      jump\t// in\n    tag_358:\n        /* \"#utility.yul\":17568:17575   */\n      dup1\n        /* \"#utility.yul\":17599:17600   */\n      0x00\n        /* \"#utility.yul\":17584:17868   */\n    tag_359:\n        /* \"#utility.yul\":17609:17615   */\n      dup4\n        /* \"#utility.yul\":17606:17607   */\n      dup2\n        /* \"#utility.yul\":17603:17616   */\n      lt\n        /* \"#utility.yul\":17584:17868   */\n      iszero\n      tag_361\n      jumpi\n        /* \"#utility.yul\":17685:17691   */\n      dup2\n        /* \"#utility.yul\":17679:17692   */\n      mload\n        /* \"#utility.yul\":17712:17775   */\n      tag_362\n        /* \"#utility.yul\":17771:17774   */\n      dup9\n        /* \"#utility.yul\":17756:17769   */\n      dup3\n        /* \"#utility.yul\":17712:17775   */\n      tag_162\n      jump\t// in\n    tag_362:\n        /* \"#utility.yul\":17705:17775   */\n      swap8\n      pop\n        /* \"#utility.yul\":17798:17858   */\n      tag_363\n        /* \"#utility.yul\":17851:17857   */\n      dup4\n        /* \"#utility.yul\":17798:17858   */\n      tag_163\n      jump\t// in\n    tag_363:\n        /* \"#utility.yul\":17788:17858   */\n      swap3\n      pop\n        /* \"#utility.yul\":17644:17868   */\n      pop\n        /* \"#utility.yul\":17631:17632   */\n      0x01\n        /* \"#utility.yul\":17628:17629   */\n      dup2\n        /* \"#utility.yul\":17624:17633   */\n      add\n        /* \"#utility.yul\":17619:17633   */\n      swap1\n      pop\n        /* \"#utility.yul\":17584:17868   */\n      jump(tag_359)\n    tag_361:\n        /* \"#utility.yul\":17588:17602   */\n      pop\n        /* \"#utility.yul\":17884:17887   */\n      dup6\n        /* \"#utility.yul\":17877:17887   */\n      swap4\n      pop\n        /* \"#utility.yul\":17285:17893   */\n      pop\n      pop\n      pop\n        /* \"#utility.yul\":17161:17893   */\n      swap3\n      swap2\n      pop\n      pop\n      jump\t// out\n        /* \"#utility.yul\":17899:17997   */\n    tag_165:\n        /* \"#utility.yul\":17950:17956   */\n      0x00\n        /* \"#utility.yul\":17984:17989   */\n      dup2\n        /* \"#utility.yul\":17978:17990   */\n      mload\n        /* \"#utility.yul\":17968:17990   */\n      swap1\n      pop\n        /* \"#utility.yul\":17899:17997   */\n      swap2\n      swap1\n      pop\n      jump\t// out\n        /* \"#utility.yul\":18003:18171   */\n    tag_166:\n        /* \"#utility.yul\":18086:18097   */\n      0x00\n        /* \"#utility.yul\":18120:18126   */\n      dup3\n        /* \"#utility.yul\":18115:18118   */\n      dup3\n        /* \"#utility.yul\":18108:18127   */\n      mstore\n        /* \"#utility.yul\":18160:18164   */\n      0x20\n        /* \"#utility.yul\":18155:18158   */\n      dup3\n        /* \"#utility.yul\":18151:18165   */\n      add\n        /* \"#utility.yul\":18136:18165   */\n      swap1\n      pop\n        /* \"#utility.yul\":18003:18171   */\n      swap3\n      swap2\n      pop\n      pop\n      jump\t// out\n        /* \"#utility.yul\":18177:18484   */\n    tag_167:\n        /* \"#utility.yul\":18245:18246   */\n      0x00\n        /* \"#utility.yul\":18255:18368   */\n    tag_367:\n        /* \"#utility.yul\":18269:18275   */\n      dup4\n        /* \"#utility.yul\":18266:18267   */\n      dup2\n        /* \"#utility.yul\":18263:18276   */\n      lt\n        /* \"#utility.yul\":18255:18368   */\n      iszero\n      tag_369\n      jumpi\n        /* \"#utility.yul\":18354:18355   */\n      dup1\n        /* \"#utility.yul\":18349:18352   */\n      dup3\n        /* \"#utility.yul\":18345:18356   */\n      add\n        /* \"#utility.yul\":18339:18357   */\n      mload\n        /* \"#utility.yul\":18335:18336   */\n      dup2\n        /* \"#utility.yul\":18330:18333   */\n      dup5\n        /* \"#utility.yul\":18326:18337   */\n      add\n        /* \"#utility.yul\":18319:18358   */\n      mstore\n        /* \"#utility.yul\":18291:18293   */\n      0x20\n        /* \"#utility.yul\":18288:18289   */\n      dup2\n        /* \"#utility.yul\":18284:18294   */\n      add\n        /* \"#utility.yul\":18279:18294   */\n      swap1\n      pop\n        /* \"#utility.yul\":18255:18368   */\n      jump(tag_367)\n    tag_369:\n        /* \"#utility.yul\":18386:18392   */\n      dup4\n        /* \"#utility.yul\":18383:18384   */\n      dup2\n        /* \"#utility.yul\":18380:18393   */\n      gt\n        /* \"#utility.yul\":18377:18478   */\n      iszero\n      tag_370\n      jumpi\n        /* \"#utility.yul\":18466:18467   */\n      0x00\n        /* \"#utility.yul\":18457:18463   */\n      dup5\n        /* \"#utility.yul\":18452:18455   */\n      dup5\n        /* \"#utility.yul\":18448:18464   */\n      add\n        /* \"#utility.yul\":18441:18468   */\n      mstore\n        /* \"#utility.yul\":18377:18478   */\n    tag_370:\n        /* \"#utility.yul\":18226:18484   */\n      pop\n        /* \"#utility.yul\":18177:18484   */\n      pop\n      pop\n      pop\n      jump\t// out\n        /* \"#utility.yul\":18490:18850   */\n    tag_168:\n        /* \"#utility.yul\":18576:18579   */\n      0x00\n        /* \"#utility.yul\":18604:18642   */\n      tag_372\n        /* \"#utility.yul\":18636:18641   */\n      dup3\n        /* \"#utility.yul\":18604:18642   */\n      tag_165\n      jump\t// in\n    tag_372:\n        /* \"#utility.yul\":18658:18728   */\n      tag_373\n        /* \"#utility.yul\":18721:18727   */\n      dup2\n        /* \"#utility.yul\":18716:18719   */\n      dup6\n        /* \"#utility.yul\":18658:18728   */\n      tag_166\n      jump\t// in\n    tag_373:\n        /* \"#utility.yul\":18651:18728   */\n      swap4\n      pop\n        /* \"#utility.yul\":18737:18789   */\n      tag_374\n        /* \"#utility.yul\":18782:18788   */\n      dup2\n        /* \"#utility.yul\":18777:18780   */\n      dup6\n        /* \"#utility.yul\":18770:18774   */\n      0x20\n        /* \"#utility.yul\":18763:18768   */\n      dup7\n        /* \"#utility.yul\":18759:18775   */\n      add\n        /* \"#utility.yul\":18737:18789   */\n      tag_167\n      jump\t// in\n    tag_374:\n        /* \"#utility.yul\":18814:18843   */\n      tag_375\n        /* \"#utility.yul\":18836:18842   */\n      dup2\n        /* \"#utility.yul\":18814:18843   */\n      tag_144\n      jump\t// in\n    tag_375:\n        /* \"#utility.yul\":18809:18812   */\n      dup5\n        /* \"#utility.yul\":18805:18844   */\n      add\n        /* \"#utility.yul\":18798:18844   */\n      swap2\n      pop\n        /* \"#utility.yul\":18580:18850   */\n      pop\n        /* \"#utility.yul\":18490:18850   */\n      swap3\n      swap2\n      pop\n      pop\n      jump\t// out\n        /* \"#utility.yul\":18856:18945   */\n    tag_169:\n        /* \"#utility.yul\":18892:18899   */\n      0x00\n        /* \"#utility.yul\":18932:18938   */\n      0xffff\n        /* \"#utility.yul\":18925:18930   */\n      dup3\n        /* \"#utility.yul\":18921:18939   */\n      and\n        /* \"#utility.yul\":18910:18939   */\n      swap1\n      pop\n        /* \"#utility.yul\":18856:18945   */\n      swap2\n      swap1\n      pop\n      jump\t// out\n        /* \"#utility.yul\":18951:19066   */\n    tag_170:\n        /* \"#utility.yul\":19036:19059   */\n      tag_378\n        /* \"#utility.yul\":19053:19058   */\n      dup2\n        /* \"#utility.yul\":19036:19059   */\n      tag_169\n      jump\t// in\n    tag_378:\n        /* \"#utility.yul\":19031:19034   */\n      dup3\n        /* \"#utility.yul\":19024:19060   */\n      mstore\n        /* \"#utility.yul\":18951:19066   */\n      pop\n      pop\n      jump\t// out\n        /* \"#utility.yul\":19072:20494   */\n    tag_101:\n        /* \"#utility.yul\":19499:19503   */\n      0x00\n        /* \"#utility.yul\":19537:19540   */\n      0xe0\n        /* \"#utility.yul\":19526:19535   */\n      dup3\n        /* \"#utility.yul\":19522:19541   */\n      add\n        /* \"#utility.yul\":19514:19541   */\n      swap1\n      pop\n        /* \"#utility.yul\":19551:19622   */\n      tag_380\n        /* \"#utility.yul\":19619:19620   */\n      0x00\n        /* \"#utility.yul\":19608:19617   */\n      dup4\n        /* \"#utility.yul\":19604:19621   */\n      add\n        /* \"#utility.yul\":19595:19601   */\n      dup11\n        /* \"#utility.yul\":19551:19622   */\n      tag_130\n      jump\t// in\n    tag_380:\n        /* \"#utility.yul\":19669:19678   */\n      dup2\n        /* \"#utility.yul\":19663:19667   */\n      dup2\n        /* \"#utility.yul\":19659:19679   */\n      sub\n        /* \"#utility.yul\":19654:19656   */\n      0x20\n        /* \"#utility.yul\":19643:19652   */\n      dup4\n        /* \"#utility.yul\":19639:19657   */\n      add\n        /* \"#utility.yul\":19632:19680   */\n      mstore\n        /* \"#utility.yul\":19697:19805   */\n      tag_381\n        /* \"#utility.yul\":19800:19804   */\n      dup2\n        /* \"#utility.yul\":19791:19797   */\n      dup10\n        /* \"#utility.yul\":19697:19805   */\n      tag_143\n      jump\t// in\n    tag_381:\n        /* \"#utility.yul\":19689:19805   */\n      swap1\n      pop\n        /* \"#utility.yul\":19852:19861   */\n      dup2\n        /* \"#utility.yul\":19846:19850   */\n      dup2\n        /* \"#utility.yul\":19842:19862   */\n      sub\n        /* \"#utility.yul\":19837:19839   */\n      0x40\n        /* \"#utility.yul\":19826:19835   */\n      dup4\n        /* \"#utility.yul\":19822:19840   */\n      add\n        /* \"#utility.yul\":19815:19863   */\n      mstore\n        /* \"#utility.yul\":19880:19988   */\n      tag_382\n        /* \"#utility.yul\":19983:19987   */\n      dup2\n        /* \"#utility.yul\":19974:19980   */\n      dup9\n        /* \"#utility.yul\":19880:19988   */\n      tag_164\n      jump\t// in\n    tag_382:\n        /* \"#utility.yul\":19872:19988   */\n      swap1\n      pop\n        /* \"#utility.yul\":20035:20044   */\n      dup2\n        /* \"#utility.yul\":20029:20033   */\n      dup2\n        /* \"#utility.yul\":20025:20045   */\n      sub\n        /* \"#utility.yul\":20020:20022   */\n      0x60\n        /* \"#utility.yul\":20009:20018   */\n      dup4\n        /* \"#utility.yul\":20005:20023   */\n      add\n        /* \"#utility.yul\":19998:20046   */\n      mstore\n        /* \"#utility.yul\":20063:20171   */\n      tag_383\n        /* \"#utility.yul\":20166:20170   */\n      dup2\n        /* \"#utility.yul\":20157:20163   */\n      dup8\n        /* \"#utility.yul\":20063:20171   */\n      tag_164\n      jump\t// in\n    tag_383:\n        /* \"#utility.yul\":20055:20171   */\n      swap1\n      pop\n        /* \"#utility.yul\":20181:20254   */\n      tag_384\n        /* \"#utility.yul\":20249:20252   */\n      0x80\n        /* \"#utility.yul\":20238:20247   */\n      dup4\n        /* \"#utility.yul\":20234:20253   */\n      add\n        /* \"#utility.yul\":20225:20231   */\n      dup7\n        /* \"#utility.yul\":20181:20254   */\n      tag_130\n      jump\t// in\n    tag_384:\n        /* \"#utility.yul\":20302:20311   */\n      dup2\n        /* \"#utility.yul\":20296:20300   */\n      dup2\n        /* \"#utility.yul\":20292:20312   */\n      sub\n        /* \"#utility.yul\":20286:20289   */\n      0xa0\n        /* \"#utility.yul\":20275:20284   */\n      dup4\n        /* \"#utility.yul\":20271:20290   */\n      add\n        /* \"#utility.yul\":20264:20313   */\n      mstore\n        /* \"#utility.yul\":20330:20406   */\n      tag_385\n        /* \"#utility.yul\":20401:20405   */\n      dup2\n        /* \"#utility.yul\":20392:20398   */\n      dup6\n        /* \"#utility.yul\":20330:20406   */\n      tag_168\n      jump\t// in\n    tag_385:\n        /* \"#utility.yul\":20322:20406   */\n      swap1\n      pop\n        /* \"#utility.yul\":20416:20487   */\n      tag_386\n        /* \"#utility.yul\":20482:20485   */\n      0xc0\n        /* \"#utility.yul\":20471:20480   */\n      dup4\n        /* \"#utility.yul\":20467:20486   */\n      add\n        /* \"#utility.yul\":20458:20464   */\n      dup5\n        /* \"#utility.yul\":20416:20487   */\n      tag_170\n      jump\t// in\n    tag_386:\n        /* \"#utility.yul\":19072:20494   */\n      swap9\n      swap8\n      pop\n      pop\n      pop\n      pop\n      pop\n      pop\n      pop\n      pop\n      jump\t// out\n\n    auxdata: 0xa2646970667358221220e894c2b784e688ff4fb91396bbdc03ddd075e9d4d38551f007e890129c6b851264736f6c634300080a0033\n}\n",
				"bytecode": {
					"linkReferences": {},
					"object": "60c0604052737a250d5630b4cf539739df2c5dacb4c659f2488d6000806101000a81548173ffffffffffffffffffffffffffffffffffffffff021916908373ffffffffffffffffffffffffffffffffffffffff160217905550735c69bee701ef814a2b6a3edd4b1652cb9cc5aa6f600160006101000a81548173ffffffffffffffffffffffffffffffffffffffff021916908373ffffffffffffffffffffffffffffffffffffffff16021790555073c36442b4a4522e871399cd717abdd847ab11fe88600260006101000a81548173ffffffffffffffffffffffffffffffffffffffff021916908373ffffffffffffffffffffffffffffffffffffffff160217905550731f98431c8ad98523631ae4a59f267346ea31f984600360006101000a81548173ffffffffffffffffffffffffffffffffffffffff021916908373ffffffffffffffffffffffffffffffffffffffff1602179055507368b3465833fb72a70ecdf485e0e4c7bd8665fc45600460006101000a81548173ffffffffffffffffffffffffffffffffffffffff021916908373ffffffffffffffffffffffffffffffffffffffff160217905550738ca302e2b04ecdb5d14cced580a379b40e8ed8b7600560006101000a81548173ffffffffffffffffffffffffffffffffffffffff021916908373ffffffffffffffffffffffffffffffffffffffff16021790555073ffada869df79320120dffd6eee8cf664dba43146600660006101000a81548173ffffffffffffffffffffffffffffffffffffffff021916908373ffffffffffffffffffffffffffffffffffffffff1602179055507369f9e353f7411479912d2e9f3e436ae83486c17b600760006101000a81548173ffffffffffffffffffffffffffffffffffffffff021916908373ffffffffffffffffffffffffffffffffffffffff160217905550612ad160085573651b8a8ca545b251a8f49b57d5838da0a8dfbef9600960006101000a81548173ffffffffffffffffffffffffffffffffffffffff021916908373ffffffffffffffffffffffffffffffffffffffff16021790555073329462f8ed05e5ffbf6dfb84106e76b69e6b1f94600a60006101000a81548173ffffffffffffffffffffffffffffffffffffffff021916908373ffffffffffffffffffffffffffffffffffffffff16021790555060008054906101000a900473ffffffffffffffffffffffffffffffffffffffff16600b60006101000a81548173ffffffffffffffffffffffffffffffffffffffff021916908373ffffffffffffffffffffffffffffffffffffffff160217905550600460009054906101000a900473ffffffffffffffffffffffffffffffffffffffff16600c60006101000a81548173ffffffffffffffffffffffffffffffffffffffff021916908373ffffffffffffffffffffffffffffffffffffffff160217905550600560009054906101000a900473ffffffffffffffffffffffffffffffffffffffff16600d60006101000a81548173ffffffffffffffffffffffffffffffffffffffff021916908373ffffffffffffffffffffffffffffffffffffffff160217905550600660009054906101000a900473ffffffffffffffffffffffffffffffffffffffff16600e60006101000a81548173ffffffffffffffffffffffffffffffffffffffff021916908373ffffffffffffffffffffffffffffffffffffffff160217905550348015620004f257600080fd5b50600960009054906101000a900473ffffffffffffffffffffffffffffffffffffffff1673ffffffffffffffffffffffffffffffffffffffff1660808173ffffffffffffffffffffffffffffffffffffffff168152505060805173ffffffffffffffffffffffffffffffffffffffff1663026b1d5f6040518163ffffffff1660e01b8152600401602060405180830381865afa15801562000597573d6000803e3d6000fd5b505050506040513d601f19601f82011682018060405250810190620005bd919062000660565b73ffffffffffffffffffffffffffffffffffffffff1660a08173ffffffffffffffffffffffffffffffffffffffff168152505062000692565b600080fd5b600073ffffffffffffffffffffffffffffffffffffffff82169050919050565b60006200062882620005fb565b9050919050565b6200063a816200061b565b81146200064657600080fd5b50565b6000815190506200065a816200062f565b92915050565b600060208284031215620006795762000678620005f6565b5b6000620006898482850162000649565b91505092915050565b60805160a051611668620006d36000396000818161013301528181610553015281816105f70152818161068f0152610b820152600060db01526116686000f3fe608060405234801561001057600080fd5b506004361061004c5760003560e01c80630542975c146100515780631b11d0ff1461006f5780637535d2461461009f578063cea8fe55146100bd575b600080fd5b6100596100d9565b6040516100669190610cba565b60405180910390f35b61008960048036038101906100849190610dc2565b6100fd565b6040516100969190610e77565b60405180910390f35b6100a761068d565b6040516100b49190610eb3565b60405180910390f35b6100d760048036038101906100d29190610ece565b6106b1565b005b7f000000000000000000000000000000000000000000000000000000000000000081565b6000806101138688610c2190919063ffffffff16565b90508773ffffffffffffffffffffffffffffffffffffffff1663095ea7b37f0000000000000000000000000000000000000000000000000000000000000000836040518363ffffffff1660e01b8152600401610170929190610f2c565b6020604051808303816000875af115801561018f573d6000803e3d6000fd5b505050506040513d601f19601f820116820180604052508101906101b39190610f81565b506000600267ffffffffffffffff8111156101d1576101d0610fae565b5b6040519080825280602002602001820160405280156101ff5781602001602082028036833780820191505090505b509050600660009054906101000a900473ffffffffffffffffffffffffffffffffffffffff168160008151811061023957610238610fdd565b5b602002602001019073ffffffffffffffffffffffffffffffffffffffff16908173ffffffffffffffffffffffffffffffffffffffff1681525050600560009054906101000a900473ffffffffffffffffffffffffffffffffffffffff16816001815181106102aa576102a9610fdd565b5b602002602001019073ffffffffffffffffffffffffffffffffffffffff16908173ffffffffffffffffffffffffffffffffffffffff16815250506000600b60009054906101000a900473ffffffffffffffffffffffffffffffffffffffff1673ffffffffffffffffffffffffffffffffffffffff166338ed17398a60018530426040518663ffffffff1660e01b815260040161034a959493929190611105565b6000604051808303816000875af1158015610369573d6000803e3d6000fd5b505050506040513d6000823e3d601f19601f820116820180604052508101906103929190611294565b6001815181106103a5576103a4610fdd565b5b6020026020010151905060006040518060e00160405280600560009054906101000a900473ffffffffffffffffffffffffffffffffffffffff1673ffffffffffffffffffffffffffffffffffffffff168152602001600660009054906101000a900473ffffffffffffffffffffffffffffffffffffffff1673ffffffffffffffffffffffffffffffffffffffff168152602001610bb862ffffff1681526020013073ffffffffffffffffffffffffffffffffffffffff16815260200183815260200160008152602001600073ffffffffffffffffffffffffffffffffffffffff1681525090506000600c60009054906101000a900473ffffffffffffffffffffffffffffffffffffffff1673ffffffffffffffffffffffffffffffffffffffff166304e45aaf836040518263ffffffff1660e01b81526004016104e891906113a7565b6020604051808303816000875af1158015610507573d6000803e3d6000fd5b505050506040513d601f19601f8201168201806040525081019061052b91906113c2565b9050848111156105d9578b73ffffffffffffffffffffffffffffffffffffffff1663095ea7b37f0000000000000000000000000000000000000000000000000000000000000000876040518363ffffffff1660e01b8152600401610590929190610f2c565b6020604051808303816000875af11580156105af573d6000803e3d6000fd5b505050506040513d601f19601f820116820180604052508101906105d39190610f81565b5061067a565b8b73ffffffffffffffffffffffffffffffffffffffff1663095ea7b37f000000000000000000000000000000000000000000000000000000000000000060006040518363ffffffff1660e01b815260040161063592919061142a565b6020604051808303816000875af1158015610654573d6000803e3d6000fd5b505050506040513d601f19601f820116820180604052508101906106789190610f81565b505b6001955050505050509695505050505050565b7f000000000000000000000000000000000000000000000000000000000000000081565b60003090506000600167ffffffffffffffff8111156106d3576106d2610fae565b5b6040519080825280602002602001820160405280156107015781602001602082028036833780820191505090505b509050838160008151811061071957610718610fdd565b5b602002602001019073ffffffffffffffffffffffffffffffffffffffff16908173ffffffffffffffffffffffffffffffffffffffff16815250506000600167ffffffffffffffff8111156107705761076f610fae565b5b60405190808252806020026020018201604052801561079e5781602001602082028036833780820191505090505b50905083816000815181106107b6576107b5610fdd565b5b6020026020010181815250506000600167ffffffffffffffff8111156107df576107de610fae565b5b60405190808252806020026020018201604052801561080d5781602001602082028036833780820191505090505b50905060008160008151811061082657610825610fdd565b5b60200260200101818152505060006040518060200160405280600081525090506000600d60009054906101000a900473ffffffffffffffffffffffffffffffffffffffff1673ffffffffffffffffffffffffffffffffffffffff1663095ea7b3600b60009054906101000a900473ffffffffffffffffffffffffffffffffffffffff166a52b7d2dcc80cd2e40000006040518363ffffffff1660e01b81526004016108d2929190610f2c565b6020604051808303816000875af11580156108f1573d6000803e3d6000fd5b505050506040513d601f19601f820116820180604052508101906109159190610f81565b50600d60009054906101000a900473ffffffffffffffffffffffffffffffffffffffff1673ffffffffffffffffffffffffffffffffffffffff1663095ea7b3600c60009054906101000a900473ffffffffffffffffffffffffffffffffffffffff166a52b7d2dcc80cd2e40000006040518363ffffffff1660e01b81526004016109a0929190610f2c565b6020604051808303816000875af11580156109bf573d6000803e3d6000fd5b505050506040513d601f19601f820116820180604052508101906109e39190610f81565b50600e60009054906101000a900473ffffffffffffffffffffffffffffffffffffffff1673ffffffffffffffffffffffffffffffffffffffff1663095ea7b3600b60009054906101000a900473ffffffffffffffffffffffffffffffffffffffff166a52b7d2dcc80cd2e40000006040518363ffffffff1660e01b8152600401610a6e929190610f2c565b6020604051808303816000875af1158015610a8d573d6000803e3d6000fd5b505050506040513d601f19601f82011682018060405250810190610ab19190610f81565b50600e60009054906101000a900473ffffffffffffffffffffffffffffffffffffffff1673ffffffffffffffffffffffffffffffffffffffff1663095ea7b3600c60009054906101000a900473ffffffffffffffffffffffffffffffffffffffff166a52b7d2dcc80cd2e40000006040518363ffffffff1660e01b8152600401610b3c929190610f2c565b6020604051808303816000875af1158015610b5b573d6000803e3d6000fd5b505050506040513d601f19601f82011682018060405250810190610b7f9190610f81565b507f000000000000000000000000000000000000000000000000000000000000000073ffffffffffffffffffffffffffffffffffffffff1663ab9c4b5d878787878b88886040518863ffffffff1660e01b8152600401610be597969594939291906115a7565b600060405180830381600087803b158015610bff57600080fd5b505af1158015610c13573d6000803e3d6000fd5b505050505050505050505050565b6000828284019150811015610c3557600080fd5b92915050565b600073ffffffffffffffffffffffffffffffffffffffff82169050919050565b6000819050919050565b6000610c80610c7b610c7684610c3b565b610c5b565b610c3b565b9050919050565b6000610c9282610c65565b9050919050565b6000610ca482610c87565b9050919050565b610cb481610c99565b82525050565b6000602082019050610ccf6000830184610cab565b92915050565b6000604051905090565b600080fd5b600080fd5b6000610cf482610c3b565b9050919050565b610d0481610ce9565b8114610d0f57600080fd5b50565b600081359050610d2181610cfb565b92915050565b6000819050919050565b610d3a81610d27565b8114610d4557600080fd5b50565b600081359050610d5781610d31565b92915050565b600080fd5b600080fd5b600080fd5b60008083601f840112610d8257610d81610d5d565b5b8235905067ffffffffffffffff811115610d9f57610d9e610d62565b5b602083019150836001820283011115610dbb57610dba610d67565b5b9250929050565b60008060008060008060a08789031215610ddf57610dde610cdf565b5b6000610ded89828a01610d12565b9650506020610dfe89828a01610d48565b9550506040610e0f89828a01610d48565b9450506060610e2089828a01610d12565b935050608087013567ffffffffffffffff811115610e4157610e40610ce4565b5b610e4d89828a01610d6c565b92509250509295509295509295565b60008115159050919050565b610e7181610e5c565b82525050565b6000602082019050610e8c6000830184610e68565b92915050565b6000610e9d82610c87565b9050919050565b610ead81610e92565b82525050565b6000602082019050610ec86000830184610ea4565b92915050565b60008060408385031215610ee557610ee4610cdf565b5b6000610ef385828601610d12565b9250506020610f0485828601610d48565b9150509250929050565b610f1781610ce9565b82525050565b610f2681610d27565b82525050565b6000604082019050610f416000830185610f0e565b610f4e6020830184610f1d565b9392505050565b610f5e81610e5c565b8114610f6957600080fd5b50565b600081519050610f7b81610f55565b92915050565b600060208284031215610f9757610f96610cdf565b5b6000610fa584828501610f6c565b91505092915050565b7f4e487b7100000000000000000000000000000000000000000000000000000000600052604160045260246000fd5b7f4e487b7100000000000000000000000000000000000000000000000000000000600052603260045260246000fd5b6000819050919050565b600061103161102c6110278461100c565b610c5b565b610d27565b9050919050565b61104181611016565b82525050565b600081519050919050565b600082825260208201905092915050565b6000819050602082019050919050565b61107c81610ce9565b82525050565b600061108e8383611073565b60208301905092915050565b6000602082019050919050565b60006110b282611047565b6110bc8185611052565b93506110c783611063565b8060005b838110156110f85781516110df8882611082565b97506110ea8361109a565b9250506001810190506110cb565b5085935050505092915050565b600060a08201905061111a6000830188610f1d565b6111276020830187611038565b818103604083015261113981866110a7565b90506111486060830185610f0e565b6111556080830184610f1d565b9695505050505050565b6000601f19601f8301169050919050565b6111798261115f565b810181811067ffffffffffffffff8211171561119857611197610fae565b5b80604052505050565b60006111ab610cd5565b90506111b78282611170565b919050565b600067ffffffffffffffff8211156111d7576111d6610fae565b5b602082029050602081019050919050565b6000815190506111f781610d31565b92915050565b600061121061120b846111bc565b6111a1565b9050808382526020820190506020840283018581111561123357611232610d67565b5b835b8181101561125c578061124888826111e8565b845260208401935050602081019050611235565b5050509392505050565b600082601f83011261127b5761127a610d5d565b5b815161128b8482602086016111fd565b91505092915050565b6000602082840312156112aa576112a9610cdf565b5b600082015167ffffffffffffffff8111156112c8576112c7610ce4565b5b6112d484828501611266565b91505092915050565b600062ffffff82169050919050565b6112f5816112dd565b82525050565b61130481610d27565b82525050565b61131381610c3b565b82525050565b60e08201600082015161132f6000850182611073565b5060208201516113426020850182611073565b50604082015161135560408501826112ec565b5060608201516113686060850182611073565b50608082015161137b60808501826112fb565b5060a082015161138e60a08501826112fb565b5060c08201516113a160c085018261130a565b50505050565b600060e0820190506113bc6000830184611319565b92915050565b6000602082840312156113d8576113d7610cdf565b5b60006113e6848285016111e8565b91505092915050565b6000819050919050565b600061141461140f61140a846113ef565b610c5b565b610d27565b9050919050565b611424816113f9565b82525050565b600060408201905061143f6000830185610f0e565b61144c602083018461141b565b9392505050565b600081519050919050565b600082825260208201905092915050565b6000819050602082019050919050565b600061148b83836112fb565b60208301905092915050565b6000602082019050919050565b60006114af82611453565b6114b9818561145e565b93506114c48361146f565b8060005b838110156114f55781516114dc888261147f565b97506114e783611497565b9250506001810190506114c8565b5085935050505092915050565b600081519050919050565b600082825260208201905092915050565b60005b8381101561153c578082015181840152602081019050611521565b8381111561154b576000848401525b50505050565b600061155c82611502565b611566818561150d565b935061157681856020860161151e565b61157f8161115f565b840191505092915050565b600061ffff82169050919050565b6115a18161158a565b82525050565b600060e0820190506115bc600083018a610f0e565b81810360208301526115ce81896110a7565b905081810360408301526115e281886114a4565b905081810360608301526115f681876114a4565b90506116056080830186610f0e565b81810360a08301526116178185611551565b905061162660c0830184611598565b9897505050505050505056fea2646970667358221220e894c2b784e688ff4fb91396bbdc03ddd075e9d4d38551f007e890129c6b851264736f6c634300080a0033",
					"opcodes": "PUSH1 0xC0 PUSH1 0x40 MSTORE PUSH20 0x7A250D5630B4CF539739DF2C5DACB4C659F2488D PUSH1 0x0 DUP1 PUSH2 0x100 EXP DUP2 SLOAD DUP2 PUSH20 0xFFFFFFFFFFFFFFFFFFFFFFFFFFFFFFFFFFFFFFFF MUL NOT AND SWAP1 DUP4 PUSH20 0xFFFFFFFFFFFFFFFFFFFFFFFFFFFFFFFFFFFFFFFF AND MUL OR SWAP1 SSTORE POP PUSH20 0x5C69BEE701EF814A2B6A3EDD4B1652CB9CC5AA6F PUSH1 0x1 PUSH1 0x0 PUSH2 0x100 EXP DUP2 SLOAD DUP2 PUSH20 0xFFFFFFFFFFFFFFFFFFFFFFFFFFFFFFFFFFFFFFFF MUL NOT AND SWAP1 DUP4 PUSH20 0xFFFFFFFFFFFFFFFFFFFFFFFFFFFFFFFFFFFFFFFF AND MUL OR SWAP1 SSTORE POP PUSH20 0xC36442B4A4522E871399CD717ABDD847AB11FE88 PUSH1 0x2 PUSH1 0x0 PUSH2 0x100 EXP DUP2 SLOAD DUP2 PUSH20 0xFFFFFFFFFFFFFFFFFFFFFFFFFFFFFFFFFFFFFFFF MUL NOT AND SWAP1 DUP4 PUSH20 0xFFFFFFFFFFFFFFFFFFFFFFFFFFFFFFFFFFFFFFFF AND MUL OR SWAP1 SSTORE POP PUSH20 0x1F98431C8AD98523631AE4A59F267346EA31F984 PUSH1 0x3 PUSH1 0x0 PUSH2 0x100 EXP DUP2 SLOAD DUP2 PUSH20 0xFFFFFFFFFFFFFFFFFFFFFFFFFFFFFFFFFFFFFFFF MUL NOT AND SWAP1 DUP4 PUSH20 0xFFFFFFFFFFFFFFFFFFFFFFFFFFFFFFFFFFFFFFFF AND MUL OR SWAP1 SSTORE POP PUSH20 0x68B3465833FB72A70ECDF485E0E4C7BD8665FC45 PUSH1 0x4 PUSH1 0x0 PUSH2 0x100 EXP DUP2 SLOAD DUP2 PUSH20 0xFFFFFFFFFFFFFFFFFFFFFFFFFFFFFFFFFFFFFFFF MUL NOT AND SWAP1 DUP4 PUSH20 0xFFFFFFFFFFFFFFFFFFFFFFFFFFFFFFFFFFFFFFFF AND MUL OR SWAP1 SSTORE POP PUSH20 0x8CA302E2B04ECDB5D14CCED580A379B40E8ED8B7 PUSH1 0x5 PUSH1 0x0 PUSH2 0x100 EXP DUP2 SLOAD DUP2 PUSH20 0xFFFFFFFFFFFFFFFFFFFFFFFFFFFFFFFFFFFFFFFF MUL NOT AND SWAP1 DUP4 PUSH20 0xFFFFFFFFFFFFFFFFFFFFFFFFFFFFFFFFFFFFFFFF AND MUL OR SWAP1 SSTORE POP PUSH20 0xFFADA869DF79320120DFFD6EEE8CF664DBA43146 PUSH1 0x6 PUSH1 0x0 PUSH2 0x100 EXP DUP2 SLOAD DUP2 PUSH20 0xFFFFFFFFFFFFFFFFFFFFFFFFFFFFFFFFFFFFFFFF MUL NOT AND SWAP1 DUP4 PUSH20 0xFFFFFFFFFFFFFFFFFFFFFFFFFFFFFFFFFFFFFFFF AND MUL OR SWAP1 SSTORE POP PUSH20 0x69F9E353F7411479912D2E9F3E436AE83486C17B PUSH1 0x7 PUSH1 0x0 PUSH2 0x100 EXP DUP2 SLOAD DUP2 PUSH20 0xFFFFFFFFFFFFFFFFFFFFFFFFFFFFFFFFFFFFFFFF MUL NOT AND SWAP1 DUP4 PUSH20 0xFFFFFFFFFFFFFFFFFFFFFFFFFFFFFFFFFFFFFFFF AND MUL OR SWAP1 SSTORE POP PUSH2 0x2AD1 PUSH1 0x8 SSTORE PUSH20 0x651B8A8CA545B251A8F49B57D5838DA0A8DFBEF9 PUSH1 0x9 PUSH1 0x0 PUSH2 0x100 EXP DUP2 SLOAD DUP2 PUSH20 0xFFFFFFFFFFFFFFFFFFFFFFFFFFFFFFFFFFFFFFFF MUL NOT AND SWAP1 DUP4 PUSH20 0xFFFFFFFFFFFFFFFFFFFFFFFFFFFFFFFFFFFFFFFF AND MUL OR SWAP1 SSTORE POP PUSH20 0x329462F8ED05E5FFBF6DFB84106E76B69E6B1F94 PUSH1 0xA PUSH1 0x0 PUSH2 0x100 EXP DUP2 SLOAD DUP2 PUSH20 0xFFFFFFFFFFFFFFFFFFFFFFFFFFFFFFFFFFFFFFFF MUL NOT AND SWAP1 DUP4 PUSH20 0xFFFFFFFFFFFFFFFFFFFFFFFFFFFFFFFFFFFFFFFF AND MUL OR SWAP1 SSTORE POP PUSH1 0x0 DUP1 SLOAD SWAP1 PUSH2 0x100 EXP SWAP1 DIV PUSH20 0xFFFFFFFFFFFFFFFFFFFFFFFFFFFFFFFFFFFFFFFF AND PUSH1 0xB PUSH1 0x0 PUSH2 0x100 EXP DUP2 SLOAD DUP2 PUSH20 0xFFFFFFFFFFFFFFFFFFFFFFFFFFFFFFFFFFFFFFFF MUL NOT AND SWAP1 DUP4 PUSH20 0xFFFFFFFFFFFFFFFFFFFFFFFFFFFFFFFFFFFFFFFF AND MUL OR SWAP1 SSTORE POP PUSH1 0x4 PUSH1 0x0 SWAP1 SLOAD SWAP1 PUSH2 0x100 EXP SWAP1 DIV PUSH20 0xFFFFFFFFFFFFFFFFFFFFFFFFFFFFFFFFFFFFFFFF AND PUSH1 0xC PUSH1 0x0 PUSH2 0x100 EXP DUP2 SLOAD DUP2 PUSH20 0xFFFFFFFFFFFFFFFFFFFFFFFFFFFFFFFFFFFFFFFF MUL NOT AND SWAP1 DUP4 PUSH20 0xFFFFFFFFFFFFFFFFFFFFFFFFFFFFFFFFFFFFFFFF AND MUL OR SWAP1 SSTORE POP PUSH1 0x5 PUSH1 0x0 SWAP1 SLOAD SWAP1 PUSH2 0x100 EXP SWAP1 DIV PUSH20 0xFFFFFFFFFFFFFFFFFFFFFFFFFFFFFFFFFFFFFFFF AND PUSH1 0xD PUSH1 0x0 PUSH2 0x100 EXP DUP2 SLOAD DUP2 PUSH20 0xFFFFFFFFFFFFFFFFFFFFFFFFFFFFFFFFFFFFFFFF MUL NOT AND SWAP1 DUP4 PUSH20 0xFFFFFFFFFFFFFFFFFFFFFFFFFFFFFFFFFFFFFFFF AND MUL OR SWAP1 SSTORE POP PUSH1 0x6 PUSH1 0x0 SWAP1 SLOAD SWAP1 PUSH2 0x100 EXP SWAP1 DIV PUSH20 0xFFFFFFFFFFFFFFFFFFFFFFFFFFFFFFFFFFFFFFFF AND PUSH1 0xE PUSH1 0x0 PUSH2 0x100 EXP DUP2 SLOAD DUP2 PUSH20 0xFFFFFFFFFFFFFFFFFFFFFFFFFFFFFFFFFFFFFFFF MUL NOT AND SWAP1 DUP4 PUSH20 0xFFFFFFFFFFFFFFFFFFFFFFFFFFFFFFFFFFFFFFFF AND MUL OR SWAP1 SSTORE POP CALLVALUE DUP1 ISZERO PUSH3 0x4F2 JUMPI PUSH1 0x0 DUP1 REVERT JUMPDEST POP PUSH1 0x9 PUSH1 0x0 SWAP1 SLOAD SWAP1 PUSH2 0x100 EXP SWAP1 DIV PUSH20 0xFFFFFFFFFFFFFFFFFFFFFFFFFFFFFFFFFFFFFFFF AND PUSH20 0xFFFFFFFFFFFFFFFFFFFFFFFFFFFFFFFFFFFFFFFF AND PUSH1 0x80 DUP2 PUSH20 0xFFFFFFFFFFFFFFFFFFFFFFFFFFFFFFFFFFFFFFFF AND DUP2 MSTORE POP POP PUSH1 0x80 MLOAD PUSH20 0xFFFFFFFFFFFFFFFFFFFFFFFFFFFFFFFFFFFFFFFF AND PUSH4 0x26B1D5F PUSH1 0x40 MLOAD DUP2 PUSH4 0xFFFFFFFF AND PUSH1 0xE0 SHL DUP2 MSTORE PUSH1 0x4 ADD PUSH1 0x20 PUSH1 0x40 MLOAD DUP1 DUP4 SUB DUP2 DUP7 GAS STATICCALL ISZERO DUP1 ISZERO PUSH3 0x597 JUMPI RETURNDATASIZE PUSH1 0x0 DUP1 RETURNDATACOPY RETURNDATASIZE PUSH1 0x0 REVERT JUMPDEST POP POP POP POP PUSH1 0x40 MLOAD RETURNDATASIZE PUSH1 0x1F NOT PUSH1 0x1F DUP3 ADD AND DUP3 ADD DUP1 PUSH1 0x40 MSTORE POP DUP2 ADD SWAP1 PUSH3 0x5BD SWAP2 SWAP1 PUSH3 0x660 JUMP JUMPDEST PUSH20 0xFFFFFFFFFFFFFFFFFFFFFFFFFFFFFFFFFFFFFFFF AND PUSH1 0xA0 DUP2 PUSH20 0xFFFFFFFFFFFFFFFFFFFFFFFFFFFFFFFFFFFFFFFF AND DUP2 MSTORE POP POP PUSH3 0x692 JUMP JUMPDEST PUSH1 0x0 DUP1 REVERT JUMPDEST PUSH1 0x0 PUSH20 0xFFFFFFFFFFFFFFFFFFFFFFFFFFFFFFFFFFFFFFFF DUP3 AND SWAP1 POP SWAP2 SWAP1 POP JUMP JUMPDEST PUSH1 0x0 PUSH3 0x628 DUP3 PUSH3 0x5FB JUMP JUMPDEST SWAP1 POP SWAP2 SWAP1 POP JUMP JUMPDEST PUSH3 0x63A DUP2 PUSH3 0x61B JUMP JUMPDEST DUP2 EQ PUSH3 0x646 JUMPI PUSH1 0x0 DUP1 REVERT JUMPDEST POP JUMP JUMPDEST PUSH1 0x0 DUP2 MLOAD SWAP1 POP PUSH3 0x65A DUP2 PUSH3 0x62F JUMP JUMPDEST SWAP3 SWAP2 POP POP JUMP JUMPDEST PUSH1 0x0 PUSH1 0x20 DUP3 DUP5 SUB SLT ISZERO PUSH3 0x679 JUMPI PUSH3 0x678 PUSH3 0x5F6 JUMP JUMPDEST JUMPDEST PUSH1 0x0 PUSH3 0x689 DUP5 DUP3 DUP6 ADD PUSH3 0x649 JUMP JUMPDEST SWAP2 POP POP SWAP3 SWAP2 POP POP JUMP JUMPDEST PUSH1 0x80 MLOAD PUSH1 0xA0 MLOAD PUSH2 0x1668 PUSH3 0x6D3 PUSH1 0x0 CODECOPY PUSH1 0x0 DUP2 DUP2 PUSH2 0x133 ADD MSTORE DUP2 DUP2 PUSH2 0x553 ADD MSTORE DUP2 DUP2 PUSH2 0x5F7 ADD MSTORE DUP2 DUP2 PUSH2 0x68F ADD MSTORE PUSH2 0xB82 ADD MSTORE PUSH1 0x0 PUSH1 0xDB ADD MSTORE PUSH2 0x1668 PUSH1 0x0 RETURN INVALID PUSH1 0x80 PUSH1 0x40 MSTORE CALLVALUE DUP1 ISZERO PUSH2 0x10 JUMPI PUSH1 0x0 DUP1 REVERT JUMPDEST POP PUSH1 0x4 CALLDATASIZE LT PUSH2 0x4C JUMPI PUSH1 0x0 CALLDATALOAD PUSH1 0xE0 SHR DUP1 PUSH4 0x542975C EQ PUSH2 0x51 JUMPI DUP1 PUSH4 0x1B11D0FF EQ PUSH2 0x6F JUMPI DUP1 PUSH4 0x7535D246 EQ PUSH2 0x9F JUMPI DUP1 PUSH4 0xCEA8FE55 EQ PUSH2 0xBD JUMPI JUMPDEST PUSH1 0x0 DUP1 REVERT JUMPDEST PUSH2 0x59 PUSH2 0xD9 JUMP JUMPDEST PUSH1 0x40 MLOAD PUSH2 0x66 SWAP2 SWAP1 PUSH2 0xCBA JUMP JUMPDEST PUSH1 0x40 MLOAD DUP1 SWAP2 SUB SWAP1 RETURN JUMPDEST PUSH2 0x89 PUSH1 0x4 DUP1 CALLDATASIZE SUB DUP2 ADD SWAP1 PUSH2 0x84 SWAP2 SWAP1 PUSH2 0xDC2 JUMP JUMPDEST PUSH2 0xFD JUMP JUMPDEST PUSH1 0x40 MLOAD PUSH2 0x96 SWAP2 SWAP1 PUSH2 0xE77 JUMP JUMPDEST PUSH1 0x40 MLOAD DUP1 SWAP2 SUB SWAP1 RETURN JUMPDEST PUSH2 0xA7 PUSH2 0x68D JUMP JUMPDEST PUSH1 0x40 MLOAD PUSH2 0xB4 SWAP2 SWAP1 PUSH2 0xEB3 JUMP JUMPDEST PUSH1 0x40 MLOAD DUP1 SWAP2 SUB SWAP1 RETURN JUMPDEST PUSH2 0xD7 PUSH1 0x4 DUP1 CALLDATASIZE SUB DUP2 ADD SWAP1 PUSH2 0xD2 SWAP2 SWAP1 PUSH2 0xECE JUMP JUMPDEST PUSH2 0x6B1 JUMP JUMPDEST STOP JUMPDEST PUSH32 0x0 DUP2 JUMP JUMPDEST PUSH1 0x0 DUP1 PUSH2 0x113 DUP7 DUP9 PUSH2 0xC21 SWAP1 SWAP2 SWAP1 PUSH4 0xFFFFFFFF AND JUMP JUMPDEST SWAP1 POP DUP8 PUSH20 0xFFFFFFFFFFFFFFFFFFFFFFFFFFFFFFFFFFFFFFFF AND PUSH4 0x95EA7B3 PUSH32 0x0 DUP4 PUSH1 0x40 MLOAD DUP4 PUSH4 0xFFFFFFFF AND PUSH1 0xE0 SHL DUP2 MSTORE PUSH1 0x4 ADD PUSH2 0x170 SWAP3 SWAP2 SWAP1 PUSH2 0xF2C JUMP JUMPDEST PUSH1 0x20 PUSH1 0x40 MLOAD DUP1 DUP4 SUB DUP2 PUSH1 0x0 DUP8 GAS CALL ISZERO DUP1 ISZERO PUSH2 0x18F JUMPI RETURNDATASIZE PUSH1 0x0 DUP1 RETURNDATACOPY RETURNDATASIZE PUSH1 0x0 REVERT JUMPDEST POP POP POP POP PUSH1 0x40 MLOAD RETURNDATASIZE PUSH1 0x1F NOT PUSH1 0x1F DUP3 ADD AND DUP3 ADD DUP1 PUSH1 0x40 MSTORE POP DUP2 ADD SWAP1 PUSH2 0x1B3 SWAP2 SWAP1 PUSH2 0xF81 JUMP JUMPDEST POP PUSH1 0x0 PUSH1 0x2 PUSH8 0xFFFFFFFFFFFFFFFF DUP2 GT ISZERO PUSH2 0x1D1 JUMPI PUSH2 0x1D0 PUSH2 0xFAE JUMP JUMPDEST JUMPDEST PUSH1 0x40 MLOAD SWAP1 DUP1 DUP3 MSTORE DUP1 PUSH1 0x20 MUL PUSH1 0x20 ADD DUP3 ADD PUSH1 0x40 MSTORE DUP1 ISZERO PUSH2 0x1FF JUMPI DUP2 PUSH1 0x20 ADD PUSH1 0x20 DUP3 MUL DUP1 CALLDATASIZE DUP4 CALLDATACOPY DUP1 DUP3 ADD SWAP2 POP POP SWAP1 POP JUMPDEST POP SWAP1 POP PUSH1 0x6 PUSH1 0x0 SWAP1 SLOAD SWAP1 PUSH2 0x100 EXP SWAP1 DIV PUSH20 0xFFFFFFFFFFFFFFFFFFFFFFFFFFFFFFFFFFFFFFFF AND DUP2 PUSH1 0x0 DUP2 MLOAD DUP2 LT PUSH2 0x239 JUMPI PUSH2 0x238 PUSH2 0xFDD JUMP JUMPDEST JUMPDEST PUSH1 0x20 MUL PUSH1 0x20 ADD ADD SWAP1 PUSH20 0xFFFFFFFFFFFFFFFFFFFFFFFFFFFFFFFFFFFFFFFF AND SWAP1 DUP2 PUSH20 0xFFFFFFFFFFFFFFFFFFFFFFFFFFFFFFFFFFFFFFFF AND DUP2 MSTORE POP POP PUSH1 0x5 PUSH1 0x0 SWAP1 SLOAD SWAP1 PUSH2 0x100 EXP SWAP1 DIV PUSH20 0xFFFFFFFFFFFFFFFFFFFFFFFFFFFFFFFFFFFFFFFF AND DUP2 PUSH1 0x1 DUP2 MLOAD DUP2 LT PUSH2 0x2AA JUMPI PUSH2 0x2A9 PUSH2 0xFDD JUMP JUMPDEST JUMPDEST PUSH1 0x20 MUL PUSH1 0x20 ADD ADD SWAP1 PUSH20 0xFFFFFFFFFFFFFFFFFFFFFFFFFFFFFFFFFFFFFFFF AND SWAP1 DUP2 PUSH20 0xFFFFFFFFFFFFFFFFFFFFFFFFFFFFFFFFFFFFFFFF AND DUP2 MSTORE POP POP PUSH1 0x0 PUSH1 0xB PUSH1 0x0 SWAP1 SLOAD SWAP1 PUSH2 0x100 EXP SWAP1 DIV PUSH20 0xFFFFFFFFFFFFFFFFFFFFFFFFFFFFFFFFFFFFFFFF AND PUSH20 0xFFFFFFFFFFFFFFFFFFFFFFFFFFFFFFFFFFFFFFFF AND PUSH4 0x38ED1739 DUP11 PUSH1 0x1 DUP6 ADDRESS TIMESTAMP PUSH1 0x40 MLOAD DUP7 PUSH4 0xFFFFFFFF AND PUSH1 0xE0 SHL DUP2 MSTORE PUSH1 0x4 ADD PUSH2 0x34A SWAP6 SWAP5 SWAP4 SWAP3 SWAP2 SWAP1 PUSH2 0x1105 JUMP JUMPDEST PUSH1 0x0 PUSH1 0x40 MLOAD DUP1 DUP4 SUB DUP2 PUSH1 0x0 DUP8 GAS CALL ISZERO DUP1 ISZERO PUSH2 0x369 JUMPI RETURNDATASIZE PUSH1 0x0 DUP1 RETURNDATACOPY RETURNDATASIZE PUSH1 0x0 REVERT JUMPDEST POP POP POP POP PUSH1 0x40 MLOAD RETURNDATASIZE PUSH1 0x0 DUP3 RETURNDATACOPY RETURNDATASIZE PUSH1 0x1F NOT PUSH1 0x1F DUP3 ADD AND DUP3 ADD DUP1 PUSH1 0x40 MSTORE POP DUP2 ADD SWAP1 PUSH2 0x392 SWAP2 SWAP1 PUSH2 0x1294 JUMP JUMPDEST PUSH1 0x1 DUP2 MLOAD DUP2 LT PUSH2 0x3A5 JUMPI PUSH2 0x3A4 PUSH2 0xFDD JUMP JUMPDEST JUMPDEST PUSH1 0x20 MUL PUSH1 0x20 ADD ADD MLOAD SWAP1 POP PUSH1 0x0 PUSH1 0x40 MLOAD DUP1 PUSH1 0xE0 ADD PUSH1 0x40 MSTORE DUP1 PUSH1 0x5 PUSH1 0x0 SWAP1 SLOAD SWAP1 PUSH2 0x100 EXP SWAP1 DIV PUSH20 0xFFFFFFFFFFFFFFFFFFFFFFFFFFFFFFFFFFFFFFFF AND PUSH20 0xFFFFFFFFFFFFFFFFFFFFFFFFFFFFFFFFFFFFFFFF AND DUP2 MSTORE PUSH1 0x20 ADD PUSH1 0x6 PUSH1 0x0 SWAP1 SLOAD SWAP1 PUSH2 0x100 EXP SWAP1 DIV PUSH20 0xFFFFFFFFFFFFFFFFFFFFFFFFFFFFFFFFFFFFFFFF AND PUSH20 0xFFFFFFFFFFFFFFFFFFFFFFFFFFFFFFFFFFFFFFFF AND DUP2 MSTORE PUSH1 0x20 ADD PUSH2 0xBB8 PUSH3 0xFFFFFF AND DUP2 MSTORE PUSH1 0x20 ADD ADDRESS PUSH20 0xFFFFFFFFFFFFFFFFFFFFFFFFFFFFFFFFFFFFFFFF AND DUP2 MSTORE PUSH1 0x20 ADD DUP4 DUP2 MSTORE PUSH1 0x20 ADD PUSH1 0x0 DUP2 MSTORE PUSH1 0x20 ADD PUSH1 0x0 PUSH20 0xFFFFFFFFFFFFFFFFFFFFFFFFFFFFFFFFFFFFFFFF AND DUP2 MSTORE POP SWAP1 POP PUSH1 0x0 PUSH1 0xC PUSH1 0x0 SWAP1 SLOAD SWAP1 PUSH2 0x100 EXP SWAP1 DIV PUSH20 0xFFFFFFFFFFFFFFFFFFFFFFFFFFFFFFFFFFFFFFFF AND PUSH20 0xFFFFFFFFFFFFFFFFFFFFFFFFFFFFFFFFFFFFFFFF AND PUSH4 0x4E45AAF DUP4 PUSH1 0x40 MLOAD DUP3 PUSH4 0xFFFFFFFF AND PUSH1 0xE0 SHL DUP2 MSTORE PUSH1 0x4 ADD PUSH2 0x4E8 SWAP2 SWAP1 PUSH2 0x13A7 JUMP JUMPDEST PUSH1 0x20 PUSH1 0x40 MLOAD DUP1 DUP4 SUB DUP2 PUSH1 0x0 DUP8 GAS CALL ISZERO DUP1 ISZERO PUSH2 0x507 JUMPI RETURNDATASIZE PUSH1 0x0 DUP1 RETURNDATACOPY RETURNDATASIZE PUSH1 0x0 REVERT JUMPDEST POP POP POP POP PUSH1 0x40 MLOAD RETURNDATASIZE PUSH1 0x1F NOT PUSH1 0x1F DUP3 ADD AND DUP3 ADD DUP1 PUSH1 0x40 MSTORE POP DUP2 ADD SWAP1 PUSH2 0x52B SWAP2 SWAP1 PUSH2 0x13C2 JUMP JUMPDEST SWAP1 POP DUP5 DUP2 GT ISZERO PUSH2 0x5D9 JUMPI DUP12 PUSH20 0xFFFFFFFFFFFFFFFFFFFFFFFFFFFFFFFFFFFFFFFF AND PUSH4 0x95EA7B3 PUSH32 0x0 DUP8 PUSH1 0x40 MLOAD DUP4 PUSH4 0xFFFFFFFF AND PUSH1 0xE0 SHL DUP2 MSTORE PUSH1 0x4 ADD PUSH2 0x590 SWAP3 SWAP2 SWAP1 PUSH2 0xF2C JUMP JUMPDEST PUSH1 0x20 PUSH1 0x40 MLOAD DUP1 DUP4 SUB DUP2 PUSH1 0x0 DUP8 GAS CALL ISZERO DUP1 ISZERO PUSH2 0x5AF JUMPI RETURNDATASIZE PUSH1 0x0 DUP1 RETURNDATACOPY RETURNDATASIZE PUSH1 0x0 REVERT JUMPDEST POP POP POP POP PUSH1 0x40 MLOAD RETURNDATASIZE PUSH1 0x1F NOT PUSH1 0x1F DUP3 ADD AND DUP3 ADD DUP1 PUSH1 0x40 MSTORE POP DUP2 ADD SWAP1 PUSH2 0x5D3 SWAP2 SWAP1 PUSH2 0xF81 JUMP JUMPDEST POP PUSH2 0x67A JUMP JUMPDEST DUP12 PUSH20 0xFFFFFFFFFFFFFFFFFFFFFFFFFFFFFFFFFFFFFFFF AND PUSH4 0x95EA7B3 PUSH32 0x0 PUSH1 0x0 PUSH1 0x40 MLOAD DUP4 PUSH4 0xFFFFFFFF AND PUSH1 0xE0 SHL DUP2 MSTORE PUSH1 0x4 ADD PUSH2 0x635 SWAP3 SWAP2 SWAP1 PUSH2 0x142A JUMP JUMPDEST PUSH1 0x20 PUSH1 0x40 MLOAD DUP1 DUP4 SUB DUP2 PUSH1 0x0 DUP8 GAS CALL ISZERO DUP1 ISZERO PUSH2 0x654 JUMPI RETURNDATASIZE PUSH1 0x0 DUP1 RETURNDATACOPY RETURNDATASIZE PUSH1 0x0 REVERT JUMPDEST POP POP POP POP PUSH1 0x40 MLOAD RETURNDATASIZE PUSH1 0x1F NOT PUSH1 0x1F DUP3 ADD AND DUP3 ADD DUP1 PUSH1 0x40 MSTORE POP DUP2 ADD SWAP1 PUSH2 0x678 SWAP2 SWAP1 PUSH2 0xF81 JUMP JUMPDEST POP JUMPDEST PUSH1 0x1 SWAP6 POP POP POP POP POP POP SWAP7 SWAP6 POP POP POP POP POP POP JUMP JUMPDEST PUSH32 0x0 DUP2 JUMP JUMPDEST PUSH1 0x0 ADDRESS SWAP1 POP PUSH1 0x0 PUSH1 0x1 PUSH8 0xFFFFFFFFFFFFFFFF DUP2 GT ISZERO PUSH2 0x6D3 JUMPI PUSH2 0x6D2 PUSH2 0xFAE JUMP JUMPDEST JUMPDEST PUSH1 0x40 MLOAD SWAP1 DUP1 DUP3 MSTORE DUP1 PUSH1 0x20 MUL PUSH1 0x20 ADD DUP3 ADD PUSH1 0x40 MSTORE DUP1 ISZERO PUSH2 0x701 JUMPI DUP2 PUSH1 0x20 ADD PUSH1 0x20 DUP3 MUL DUP1 CALLDATASIZE DUP4 CALLDATACOPY DUP1 DUP3 ADD SWAP2 POP POP SWAP1 POP JUMPDEST POP SWAP1 POP DUP4 DUP2 PUSH1 0x0 DUP2 MLOAD DUP2 LT PUSH2 0x719 JUMPI PUSH2 0x718 PUSH2 0xFDD JUMP JUMPDEST JUMPDEST PUSH1 0x20 MUL PUSH1 0x20 ADD ADD SWAP1 PUSH20 0xFFFFFFFFFFFFFFFFFFFFFFFFFFFFFFFFFFFFFFFF AND SWAP1 DUP2 PUSH20 0xFFFFFFFFFFFFFFFFFFFFFFFFFFFFFFFFFFFFFFFF AND DUP2 MSTORE POP POP PUSH1 0x0 PUSH1 0x1 PUSH8 0xFFFFFFFFFFFFFFFF DUP2 GT ISZERO PUSH2 0x770 JUMPI PUSH2 0x76F PUSH2 0xFAE JUMP JUMPDEST JUMPDEST PUSH1 0x40 MLOAD SWAP1 DUP1 DUP3 MSTORE DUP1 PUSH1 0x20 MUL PUSH1 0x20 ADD DUP3 ADD PUSH1 0x40 MSTORE DUP1 ISZERO PUSH2 0x79E JUMPI DUP2 PUSH1 0x20 ADD PUSH1 0x20 DUP3 MUL DUP1 CALLDATASIZE DUP4 CALLDATACOPY DUP1 DUP3 ADD SWAP2 POP POP SWAP1 POP JUMPDEST POP SWAP1 POP DUP4 DUP2 PUSH1 0x0 DUP2 MLOAD DUP2 LT PUSH2 0x7B6 JUMPI PUSH2 0x7B5 PUSH2 0xFDD JUMP JUMPDEST JUMPDEST PUSH1 0x20 MUL PUSH1 0x20 ADD ADD DUP2 DUP2 MSTORE POP POP PUSH1 0x0 PUSH1 0x1 PUSH8 0xFFFFFFFFFFFFFFFF DUP2 GT ISZERO PUSH2 0x7DF JUMPI PUSH2 0x7DE PUSH2 0xFAE JUMP JUMPDEST JUMPDEST PUSH1 0x40 MLOAD SWAP1 DUP1 DUP3 MSTORE DUP1 PUSH1 0x20 MUL PUSH1 0x20 ADD DUP3 ADD PUSH1 0x40 MSTORE DUP1 ISZERO PUSH2 0x80D JUMPI DUP2 PUSH1 0x20 ADD PUSH1 0x20 DUP3 MUL DUP1 CALLDATASIZE DUP4 CALLDATACOPY DUP1 DUP3 ADD SWAP2 POP POP SWAP1 POP JUMPDEST POP SWAP1 POP PUSH1 0x0 DUP2 PUSH1 0x0 DUP2 MLOAD DUP2 LT PUSH2 0x826 JUMPI PUSH2 0x825 PUSH2 0xFDD JUMP JUMPDEST JUMPDEST PUSH1 0x20 MUL PUSH1 0x20 ADD ADD DUP2 DUP2 MSTORE POP POP PUSH1 0x0 PUSH1 0x40 MLOAD DUP1 PUSH1 0x20 ADD PUSH1 0x40 MSTORE DUP1 PUSH1 0x0 DUP2 MSTORE POP SWAP1 POP PUSH1 0x0 PUSH1 0xD PUSH1 0x0 SWAP1 SLOAD SWAP1 PUSH2 0x100 EXP SWAP1 DIV PUSH20 0xFFFFFFFFFFFFFFFFFFFFFFFFFFFFFFFFFFFFFFFF AND PUSH20 0xFFFFFFFFFFFFFFFFFFFFFFFFFFFFFFFFFFFFFFFF AND PUSH4 0x95EA7B3 PUSH1 0xB PUSH1 0x0 SWAP1 SLOAD SWAP1 PUSH2 0x100 EXP SWAP1 DIV PUSH20 0xFFFFFFFFFFFFFFFFFFFFFFFFFFFFFFFFFFFFFFFF AND PUSH11 0x52B7D2DCC80CD2E4000000 PUSH1 0x40 MLOAD DUP4 PUSH4 0xFFFFFFFF AND PUSH1 0xE0 SHL DUP2 MSTORE PUSH1 0x4 ADD PUSH2 0x8D2 SWAP3 SWAP2 SWAP1 PUSH2 0xF2C JUMP JUMPDEST PUSH1 0x20 PUSH1 0x40 MLOAD DUP1 DUP4 SUB DUP2 PUSH1 0x0 DUP8 GAS CALL ISZERO DUP1 ISZERO PUSH2 0x8F1 JUMPI RETURNDATASIZE PUSH1 0x0 DUP1 RETURNDATACOPY RETURNDATASIZE PUSH1 0x0 REVERT JUMPDEST POP POP POP POP PUSH1 0x40 MLOAD RETURNDATASIZE PUSH1 0x1F NOT PUSH1 0x1F DUP3 ADD AND DUP3 ADD DUP1 PUSH1 0x40 MSTORE POP DUP2 ADD SWAP1 PUSH2 0x915 SWAP2 SWAP1 PUSH2 0xF81 JUMP JUMPDEST POP PUSH1 0xD PUSH1 0x0 SWAP1 SLOAD SWAP1 PUSH2 0x100 EXP SWAP1 DIV PUSH20 0xFFFFFFFFFFFFFFFFFFFFFFFFFFFFFFFFFFFFFFFF AND PUSH20 0xFFFFFFFFFFFFFFFFFFFFFFFFFFFFFFFFFFFFFFFF AND PUSH4 0x95EA7B3 PUSH1 0xC PUSH1 0x0 SWAP1 SLOAD SWAP1 PUSH2 0x100 EXP SWAP1 DIV PUSH20 0xFFFFFFFFFFFFFFFFFFFFFFFFFFFFFFFFFFFFFFFF AND PUSH11 0x52B7D2DCC80CD2E4000000 PUSH1 0x40 MLOAD DUP4 PUSH4 0xFFFFFFFF AND PUSH1 0xE0 SHL DUP2 MSTORE PUSH1 0x4 ADD PUSH2 0x9A0 SWAP3 SWAP2 SWAP1 PUSH2 0xF2C JUMP JUMPDEST PUSH1 0x20 PUSH1 0x40 MLOAD DUP1 DUP4 SUB DUP2 PUSH1 0x0 DUP8 GAS CALL ISZERO DUP1 ISZERO PUSH2 0x9BF JUMPI RETURNDATASIZE PUSH1 0x0 DUP1 RETURNDATACOPY RETURNDATASIZE PUSH1 0x0 REVERT JUMPDEST POP POP POP POP PUSH1 0x40 MLOAD RETURNDATASIZE PUSH1 0x1F NOT PUSH1 0x1F DUP3 ADD AND DUP3 ADD DUP1 PUSH1 0x40 MSTORE POP DUP2 ADD SWAP1 PUSH2 0x9E3 SWAP2 SWAP1 PUSH2 0xF81 JUMP JUMPDEST POP PUSH1 0xE PUSH1 0x0 SWAP1 SLOAD SWAP1 PUSH2 0x100 EXP SWAP1 DIV PUSH20 0xFFFFFFFFFFFFFFFFFFFFFFFFFFFFFFFFFFFFFFFF AND PUSH20 0xFFFFFFFFFFFFFFFFFFFFFFFFFFFFFFFFFFFFFFFF AND PUSH4 0x95EA7B3 PUSH1 0xB PUSH1 0x0 SWAP1 SLOAD SWAP1 PUSH2 0x100 EXP SWAP1 DIV PUSH20 0xFFFFFFFFFFFFFFFFFFFFFFFFFFFFFFFFFFFFFFFF AND PUSH11 0x52B7D2DCC80CD2E4000000 PUSH1 0x40 MLOAD DUP4 PUSH4 0xFFFFFFFF AND PUSH1 0xE0 SHL DUP2 MSTORE PUSH1 0x4 ADD PUSH2 0xA6E SWAP3 SWAP2 SWAP1 PUSH2 0xF2C JUMP JUMPDEST PUSH1 0x20 PUSH1 0x40 MLOAD DUP1 DUP4 SUB DUP2 PUSH1 0x0 DUP8 GAS CALL ISZERO DUP1 ISZERO PUSH2 0xA8D JUMPI RETURNDATASIZE PUSH1 0x0 DUP1 RETURNDATACOPY RETURNDATASIZE PUSH1 0x0 REVERT JUMPDEST POP POP POP POP PUSH1 0x40 MLOAD RETURNDATASIZE PUSH1 0x1F NOT PUSH1 0x1F DUP3 ADD AND DUP3 ADD DUP1 PUSH1 0x40 MSTORE POP DUP2 ADD SWAP1 PUSH2 0xAB1 SWAP2 SWAP1 PUSH2 0xF81 JUMP JUMPDEST POP PUSH1 0xE PUSH1 0x0 SWAP1 SLOAD SWAP1 PUSH2 0x100 EXP SWAP1 DIV PUSH20 0xFFFFFFFFFFFFFFFFFFFFFFFFFFFFFFFFFFFFFFFF AND PUSH20 0xFFFFFFFFFFFFFFFFFFFFFFFFFFFFFFFFFFFFFFFF AND PUSH4 0x95EA7B3 PUSH1 0xC PUSH1 0x0 SWAP1 SLOAD SWAP1 PUSH2 0x100 EXP SWAP1 DIV PUSH20 0xFFFFFFFFFFFFFFFFFFFFFFFFFFFFFFFFFFFFFFFF AND PUSH11 0x52B7D2DCC80CD2E4000000 PUSH1 0x40 MLOAD DUP4 PUSH4 0xFFFFFFFF AND PUSH1 0xE0 SHL DUP2 MSTORE PUSH1 0x4 ADD PUSH2 0xB3C SWAP3 SWAP2 SWAP1 PUSH2 0xF2C JUMP JUMPDEST PUSH1 0x20 PUSH1 0x40 MLOAD DUP1 DUP4 SUB DUP2 PUSH1 0x0 DUP8 GAS CALL ISZERO DUP1 ISZERO PUSH2 0xB5B JUMPI RETURNDATASIZE PUSH1 0x0 DUP1 RETURNDATACOPY RETURNDATASIZE PUSH1 0x0 REVERT JUMPDEST POP POP POP POP PUSH1 0x40 MLOAD RETURNDATASIZE PUSH1 0x1F NOT PUSH1 0x1F DUP3 ADD AND DUP3 ADD DUP1 PUSH1 0x40 MSTORE POP DUP2 ADD SWAP1 PUSH2 0xB7F SWAP2 SWAP1 PUSH2 0xF81 JUMP JUMPDEST POP PUSH32 0x0 PUSH20 0xFFFFFFFFFFFFFFFFFFFFFFFFFFFFFFFFFFFFFFFF AND PUSH4 0xAB9C4B5D DUP8 DUP8 DUP8 DUP8 DUP12 DUP9 DUP9 PUSH1 0x40 MLOAD DUP9 PUSH4 0xFFFFFFFF AND PUSH1 0xE0 SHL DUP2 MSTORE PUSH1 0x4 ADD PUSH2 0xBE5 SWAP8 SWAP7 SWAP6 SWAP5 SWAP4 SWAP3 SWAP2 SWAP1 PUSH2 0x15A7 JUMP JUMPDEST PUSH1 0x0 PUSH1 0x40 MLOAD DUP1 DUP4 SUB DUP2 PUSH1 0x0 DUP8 DUP1 EXTCODESIZE ISZERO DUP1 ISZERO PUSH2 0xBFF JUMPI PUSH1 0x0 DUP1 REVERT JUMPDEST POP GAS CALL ISZERO DUP1 ISZERO PUSH2 0xC13 JUMPI RETURNDATASIZE PUSH1 0x0 DUP1 RETURNDATACOPY RETURNDATASIZE PUSH1 0x0 REVERT JUMPDEST POP POP POP POP POP POP POP POP POP POP POP POP JUMP JUMPDEST PUSH1 0x0 DUP3 DUP3 DUP5 ADD SWAP2 POP DUP2 LT ISZERO PUSH2 0xC35 JUMPI PUSH1 0x0 DUP1 REVERT JUMPDEST SWAP3 SWAP2 POP POP JUMP JUMPDEST PUSH1 0x0 PUSH20 0xFFFFFFFFFFFFFFFFFFFFFFFFFFFFFFFFFFFFFFFF DUP3 AND SWAP1 POP SWAP2 SWAP1 POP JUMP JUMPDEST PUSH1 0x0 DUP2 SWAP1 POP SWAP2 SWAP1 POP JUMP JUMPDEST PUSH1 0x0 PUSH2 0xC80 PUSH2 0xC7B PUSH2 0xC76 DUP5 PUSH2 0xC3B JUMP JUMPDEST PUSH2 0xC5B JUMP JUMPDEST PUSH2 0xC3B JUMP JUMPDEST SWAP1 POP SWAP2 SWAP1 POP JUMP JUMPDEST PUSH1 0x0 PUSH2 0xC92 DUP3 PUSH2 0xC65 JUMP JUMPDEST SWAP1 POP SWAP2 SWAP1 POP JUMP JUMPDEST PUSH1 0x0 PUSH2 0xCA4 DUP3 PUSH2 0xC87 JUMP JUMPDEST SWAP1 POP SWAP2 SWAP1 POP JUMP JUMPDEST PUSH2 0xCB4 DUP2 PUSH2 0xC99 JUMP JUMPDEST DUP3 MSTORE POP POP JUMP JUMPDEST PUSH1 0x0 PUSH1 0x20 DUP3 ADD SWAP1 POP PUSH2 0xCCF PUSH1 0x0 DUP4 ADD DUP5 PUSH2 0xCAB JUMP JUMPDEST SWAP3 SWAP2 POP POP JUMP JUMPDEST PUSH1 0x0 PUSH1 0x40 MLOAD SWAP1 POP SWAP1 JUMP JUMPDEST PUSH1 0x0 DUP1 REVERT JUMPDEST PUSH1 0x0 DUP1 REVERT JUMPDEST PUSH1 0x0 PUSH2 0xCF4 DUP3 PUSH2 0xC3B JUMP JUMPDEST SWAP1 POP SWAP2 SWAP1 POP JUMP JUMPDEST PUSH2 0xD04 DUP2 PUSH2 0xCE9 JUMP JUMPDEST DUP2 EQ PUSH2 0xD0F JUMPI PUSH1 0x0 DUP1 REVERT JUMPDEST POP JUMP JUMPDEST PUSH1 0x0 DUP2 CALLDATALOAD SWAP1 POP PUSH2 0xD21 DUP2 PUSH2 0xCFB JUMP JUMPDEST SWAP3 SWAP2 POP POP JUMP JUMPDEST PUSH1 0x0 DUP2 SWAP1 POP SWAP2 SWAP1 POP JUMP JUMPDEST PUSH2 0xD3A DUP2 PUSH2 0xD27 JUMP JUMPDEST DUP2 EQ PUSH2 0xD45 JUMPI PUSH1 0x0 DUP1 REVERT JUMPDEST POP JUMP JUMPDEST PUSH1 0x0 DUP2 CALLDATALOAD SWAP1 POP PUSH2 0xD57 DUP2 PUSH2 0xD31 JUMP JUMPDEST SWAP3 SWAP2 POP POP JUMP JUMPDEST PUSH1 0x0 DUP1 REVERT JUMPDEST PUSH1 0x0 DUP1 REVERT JUMPDEST PUSH1 0x0 DUP1 REVERT JUMPDEST PUSH1 0x0 DUP1 DUP4 PUSH1 0x1F DUP5 ADD SLT PUSH2 0xD82 JUMPI PUSH2 0xD81 PUSH2 0xD5D JUMP JUMPDEST JUMPDEST DUP3 CALLDATALOAD SWAP1 POP PUSH8 0xFFFFFFFFFFFFFFFF DUP2 GT ISZERO PUSH2 0xD9F JUMPI PUSH2 0xD9E PUSH2 0xD62 JUMP JUMPDEST JUMPDEST PUSH1 0x20 DUP4 ADD SWAP2 POP DUP4 PUSH1 0x1 DUP3 MUL DUP4 ADD GT ISZERO PUSH2 0xDBB JUMPI PUSH2 0xDBA PUSH2 0xD67 JUMP JUMPDEST JUMPDEST SWAP3 POP SWAP3 SWAP1 POP JUMP JUMPDEST PUSH1 0x0 DUP1 PUSH1 0x0 DUP1 PUSH1 0x0 DUP1 PUSH1 0xA0 DUP8 DUP10 SUB SLT ISZERO PUSH2 0xDDF JUMPI PUSH2 0xDDE PUSH2 0xCDF JUMP JUMPDEST JUMPDEST PUSH1 0x0 PUSH2 0xDED DUP10 DUP3 DUP11 ADD PUSH2 0xD12 JUMP JUMPDEST SWAP7 POP POP PUSH1 0x20 PUSH2 0xDFE DUP10 DUP3 DUP11 ADD PUSH2 0xD48 JUMP JUMPDEST SWAP6 POP POP PUSH1 0x40 PUSH2 0xE0F DUP10 DUP3 DUP11 ADD PUSH2 0xD48 JUMP JUMPDEST SWAP5 POP POP PUSH1 0x60 PUSH2 0xE20 DUP10 DUP3 DUP11 ADD PUSH2 0xD12 JUMP JUMPDEST SWAP4 POP POP PUSH1 0x80 DUP8 ADD CALLDATALOAD PUSH8 0xFFFFFFFFFFFFFFFF DUP2 GT ISZERO PUSH2 0xE41 JUMPI PUSH2 0xE40 PUSH2 0xCE4 JUMP JUMPDEST JUMPDEST PUSH2 0xE4D DUP10 DUP3 DUP11 ADD PUSH2 0xD6C JUMP JUMPDEST SWAP3 POP SWAP3 POP POP SWAP3 SWAP6 POP SWAP3 SWAP6 POP SWAP3 SWAP6 JUMP JUMPDEST PUSH1 0x0 DUP2 ISZERO ISZERO SWAP1 POP SWAP2 SWAP1 POP JUMP JUMPDEST PUSH2 0xE71 DUP2 PUSH2 0xE5C JUMP JUMPDEST DUP3 MSTORE POP POP JUMP JUMPDEST PUSH1 0x0 PUSH1 0x20 DUP3 ADD SWAP1 POP PUSH2 0xE8C PUSH1 0x0 DUP4 ADD DUP5 PUSH2 0xE68 JUMP JUMPDEST SWAP3 SWAP2 POP POP JUMP JUMPDEST PUSH1 0x0 PUSH2 0xE9D DUP3 PUSH2 0xC87 JUMP JUMPDEST SWAP1 POP SWAP2 SWAP1 POP JUMP JUMPDEST PUSH2 0xEAD DUP2 PUSH2 0xE92 JUMP JUMPDEST DUP3 MSTORE POP POP JUMP JUMPDEST PUSH1 0x0 PUSH1 0x20 DUP3 ADD SWAP1 POP PUSH2 0xEC8 PUSH1 0x0 DUP4 ADD DUP5 PUSH2 0xEA4 JUMP JUMPDEST SWAP3 SWAP2 POP POP JUMP JUMPDEST PUSH1 0x0 DUP1 PUSH1 0x40 DUP4 DUP6 SUB SLT ISZERO PUSH2 0xEE5 JUMPI PUSH2 0xEE4 PUSH2 0xCDF JUMP JUMPDEST JUMPDEST PUSH1 0x0 PUSH2 0xEF3 DUP6 DUP3 DUP7 ADD PUSH2 0xD12 JUMP JUMPDEST SWAP3 POP POP PUSH1 0x20 PUSH2 0xF04 DUP6 DUP3 DUP7 ADD PUSH2 0xD48 JUMP JUMPDEST SWAP2 POP POP SWAP3 POP SWAP3 SWAP1 POP JUMP JUMPDEST PUSH2 0xF17 DUP2 PUSH2 0xCE9 JUMP JUMPDEST DUP3 MSTORE POP POP JUMP JUMPDEST PUSH2 0xF26 DUP2 PUSH2 0xD27 JUMP JUMPDEST DUP3 MSTORE POP POP JUMP JUMPDEST PUSH1 0x0 PUSH1 0x40 DUP3 ADD SWAP1 POP PUSH2 0xF41 PUSH1 0x0 DUP4 ADD DUP6 PUSH2 0xF0E JUMP JUMPDEST PUSH2 0xF4E PUSH1 0x20 DUP4 ADD DUP5 PUSH2 0xF1D JUMP JUMPDEST SWAP4 SWAP3 POP POP POP JUMP JUMPDEST PUSH2 0xF5E DUP2 PUSH2 0xE5C JUMP JUMPDEST DUP2 EQ PUSH2 0xF69 JUMPI PUSH1 0x0 DUP1 REVERT JUMPDEST POP JUMP JUMPDEST PUSH1 0x0 DUP2 MLOAD SWAP1 POP PUSH2 0xF7B DUP2 PUSH2 0xF55 JUMP JUMPDEST SWAP3 SWAP2 POP POP JUMP JUMPDEST PUSH1 0x0 PUSH1 0x20 DUP3 DUP5 SUB SLT ISZERO PUSH2 0xF97 JUMPI PUSH2 0xF96 PUSH2 0xCDF JUMP JUMPDEST JUMPDEST PUSH1 0x0 PUSH2 0xFA5 DUP5 DUP3 DUP6 ADD PUSH2 0xF6C JUMP JUMPDEST SWAP2 POP POP SWAP3 SWAP2 POP POP JUMP JUMPDEST PUSH32 0x4E487B7100000000000000000000000000000000000000000000000000000000 PUSH1 0x0 MSTORE PUSH1 0x41 PUSH1 0x4 MSTORE PUSH1 0x24 PUSH1 0x0 REVERT JUMPDEST PUSH32 0x4E487B7100000000000000000000000000000000000000000000000000000000 PUSH1 0x0 MSTORE PUSH1 0x32 PUSH1 0x4 MSTORE PUSH1 0x24 PUSH1 0x0 REVERT JUMPDEST PUSH1 0x0 DUP2 SWAP1 POP SWAP2 SWAP1 POP JUMP JUMPDEST PUSH1 0x0 PUSH2 0x1031 PUSH2 0x102C PUSH2 0x1027 DUP5 PUSH2 0x100C JUMP JUMPDEST PUSH2 0xC5B JUMP JUMPDEST PUSH2 0xD27 JUMP JUMPDEST SWAP1 POP SWAP2 SWAP1 POP JUMP JUMPDEST PUSH2 0x1041 DUP2 PUSH2 0x1016 JUMP JUMPDEST DUP3 MSTORE POP POP JUMP JUMPDEST PUSH1 0x0 DUP2 MLOAD SWAP1 POP SWAP2 SWAP1 POP JUMP JUMPDEST PUSH1 0x0 DUP3 DUP3 MSTORE PUSH1 0x20 DUP3 ADD SWAP1 POP SWAP3 SWAP2 POP POP JUMP JUMPDEST PUSH1 0x0 DUP2 SWAP1 POP PUSH1 0x20 DUP3 ADD SWAP1 POP SWAP2 SWAP1 POP JUMP JUMPDEST PUSH2 0x107C DUP2 PUSH2 0xCE9 JUMP JUMPDEST DUP3 MSTORE POP POP JUMP JUMPDEST PUSH1 0x0 PUSH2 0x108E DUP4 DUP4 PUSH2 0x1073 JUMP JUMPDEST PUSH1 0x20 DUP4 ADD SWAP1 POP SWAP3 SWAP2 POP POP JUMP JUMPDEST PUSH1 0x0 PUSH1 0x20 DUP3 ADD SWAP1 POP SWAP2 SWAP1 POP JUMP JUMPDEST PUSH1 0x0 PUSH2 0x10B2 DUP3 PUSH2 0x1047 JUMP JUMPDEST PUSH2 0x10BC DUP2 DUP6 PUSH2 0x1052 JUMP JUMPDEST SWAP4 POP PUSH2 0x10C7 DUP4 PUSH2 0x1063 JUMP JUMPDEST DUP1 PUSH1 0x0 JUMPDEST DUP4 DUP2 LT ISZERO PUSH2 0x10F8 JUMPI DUP2 MLOAD PUSH2 0x10DF DUP9 DUP3 PUSH2 0x1082 JUMP JUMPDEST SWAP8 POP PUSH2 0x10EA DUP4 PUSH2 0x109A JUMP JUMPDEST SWAP3 POP POP PUSH1 0x1 DUP2 ADD SWAP1 POP PUSH2 0x10CB JUMP JUMPDEST POP DUP6 SWAP4 POP POP POP POP SWAP3 SWAP2 POP POP JUMP JUMPDEST PUSH1 0x0 PUSH1 0xA0 DUP3 ADD SWAP1 POP PUSH2 0x111A PUSH1 0x0 DUP4 ADD DUP9 PUSH2 0xF1D JUMP JUMPDEST PUSH2 0x1127 PUSH1 0x20 DUP4 ADD DUP8 PUSH2 0x1038 JUMP JUMPDEST DUP2 DUP2 SUB PUSH1 0x40 DUP4 ADD MSTORE PUSH2 0x1139 DUP2 DUP7 PUSH2 0x10A7 JUMP JUMPDEST SWAP1 POP PUSH2 0x1148 PUSH1 0x60 DUP4 ADD DUP6 PUSH2 0xF0E JUMP JUMPDEST PUSH2 0x1155 PUSH1 0x80 DUP4 ADD DUP5 PUSH2 0xF1D JUMP JUMPDEST SWAP7 SWAP6 POP POP POP POP POP POP JUMP JUMPDEST PUSH1 0x0 PUSH1 0x1F NOT PUSH1 0x1F DUP4 ADD AND SWAP1 POP SWAP2 SWAP1 POP JUMP JUMPDEST PUSH2 0x1179 DUP3 PUSH2 0x115F JUMP JUMPDEST DUP2 ADD DUP2 DUP2 LT PUSH8 0xFFFFFFFFFFFFFFFF DUP3 GT OR ISZERO PUSH2 0x1198 JUMPI PUSH2 0x1197 PUSH2 0xFAE JUMP JUMPDEST JUMPDEST DUP1 PUSH1 0x40 MSTORE POP POP POP JUMP JUMPDEST PUSH1 0x0 PUSH2 0x11AB PUSH2 0xCD5 JUMP JUMPDEST SWAP1 POP PUSH2 0x11B7 DUP3 DUP3 PUSH2 0x1170 JUMP JUMPDEST SWAP2 SWAP1 POP JUMP JUMPDEST PUSH1 0x0 PUSH8 0xFFFFFFFFFFFFFFFF DUP3 GT ISZERO PUSH2 0x11D7 JUMPI PUSH2 0x11D6 PUSH2 0xFAE JUMP JUMPDEST JUMPDEST PUSH1 0x20 DUP3 MUL SWAP1 POP PUSH1 0x20 DUP2 ADD SWAP1 POP SWAP2 SWAP1 POP JUMP JUMPDEST PUSH1 0x0 DUP2 MLOAD SWAP1 POP PUSH2 0x11F7 DUP2 PUSH2 0xD31 JUMP JUMPDEST SWAP3 SWAP2 POP POP JUMP JUMPDEST PUSH1 0x0 PUSH2 0x1210 PUSH2 0x120B DUP5 PUSH2 0x11BC JUMP JUMPDEST PUSH2 0x11A1 JUMP JUMPDEST SWAP1 POP DUP1 DUP4 DUP3 MSTORE PUSH1 0x20 DUP3 ADD SWAP1 POP PUSH1 0x20 DUP5 MUL DUP4 ADD DUP6 DUP2 GT ISZERO PUSH2 0x1233 JUMPI PUSH2 0x1232 PUSH2 0xD67 JUMP JUMPDEST JUMPDEST DUP4 JUMPDEST DUP2 DUP2 LT ISZERO PUSH2 0x125C JUMPI DUP1 PUSH2 0x1248 DUP9 DUP3 PUSH2 0x11E8 JUMP JUMPDEST DUP5 MSTORE PUSH1 0x20 DUP5 ADD SWAP4 POP POP PUSH1 0x20 DUP2 ADD SWAP1 POP PUSH2 0x1235 JUMP JUMPDEST POP POP POP SWAP4 SWAP3 POP POP POP JUMP JUMPDEST PUSH1 0x0 DUP3 PUSH1 0x1F DUP4 ADD SLT PUSH2 0x127B JUMPI PUSH2 0x127A PUSH2 0xD5D JUMP JUMPDEST JUMPDEST DUP2 MLOAD PUSH2 0x128B DUP5 DUP3 PUSH1 0x20 DUP7 ADD PUSH2 0x11FD JUMP JUMPDEST SWAP2 POP POP SWAP3 SWAP2 POP POP JUMP JUMPDEST PUSH1 0x0 PUSH1 0x20 DUP3 DUP5 SUB SLT ISZERO PUSH2 0x12AA JUMPI PUSH2 0x12A9 PUSH2 0xCDF JUMP JUMPDEST JUMPDEST PUSH1 0x0 DUP3 ADD MLOAD PUSH8 0xFFFFFFFFFFFFFFFF DUP2 GT ISZERO PUSH2 0x12C8 JUMPI PUSH2 0x12C7 PUSH2 0xCE4 JUMP JUMPDEST JUMPDEST PUSH2 0x12D4 DUP5 DUP3 DUP6 ADD PUSH2 0x1266 JUMP JUMPDEST SWAP2 POP POP SWAP3 SWAP2 POP POP JUMP JUMPDEST PUSH1 0x0 PUSH3 0xFFFFFF DUP3 AND SWAP1 POP SWAP2 SWAP1 POP JUMP JUMPDEST PUSH2 0x12F5 DUP2 PUSH2 0x12DD JUMP JUMPDEST DUP3 MSTORE POP POP JUMP JUMPDEST PUSH2 0x1304 DUP2 PUSH2 0xD27 JUMP JUMPDEST DUP3 MSTORE POP POP JUMP JUMPDEST PUSH2 0x1313 DUP2 PUSH2 0xC3B JUMP JUMPDEST DUP3 MSTORE POP POP JUMP JUMPDEST PUSH1 0xE0 DUP3 ADD PUSH1 0x0 DUP3 ADD MLOAD PUSH2 0x132F PUSH1 0x0 DUP6 ADD DUP3 PUSH2 0x1073 JUMP JUMPDEST POP PUSH1 0x20 DUP3 ADD MLOAD PUSH2 0x1342 PUSH1 0x20 DUP6 ADD DUP3 PUSH2 0x1073 JUMP JUMPDEST POP PUSH1 0x40 DUP3 ADD MLOAD PUSH2 0x1355 PUSH1 0x40 DUP6 ADD DUP3 PUSH2 0x12EC JUMP JUMPDEST POP PUSH1 0x60 DUP3 ADD MLOAD PUSH2 0x1368 PUSH1 0x60 DUP6 ADD DUP3 PUSH2 0x1073 JUMP JUMPDEST POP PUSH1 0x80 DUP3 ADD MLOAD PUSH2 0x137B PUSH1 0x80 DUP6 ADD DUP3 PUSH2 0x12FB JUMP JUMPDEST POP PUSH1 0xA0 DUP3 ADD MLOAD PUSH2 0x138E PUSH1 0xA0 DUP6 ADD DUP3 PUSH2 0x12FB JUMP JUMPDEST POP PUSH1 0xC0 DUP3 ADD MLOAD PUSH2 0x13A1 PUSH1 0xC0 DUP6 ADD DUP3 PUSH2 0x130A JUMP JUMPDEST POP POP POP POP JUMP JUMPDEST PUSH1 0x0 PUSH1 0xE0 DUP3 ADD SWAP1 POP PUSH2 0x13BC PUSH1 0x0 DUP4 ADD DUP5 PUSH2 0x1319 JUMP JUMPDEST SWAP3 SWAP2 POP POP JUMP JUMPDEST PUSH1 0x0 PUSH1 0x20 DUP3 DUP5 SUB SLT ISZERO PUSH2 0x13D8 JUMPI PUSH2 0x13D7 PUSH2 0xCDF JUMP JUMPDEST JUMPDEST PUSH1 0x0 PUSH2 0x13E6 DUP5 DUP3 DUP6 ADD PUSH2 0x11E8 JUMP JUMPDEST SWAP2 POP POP SWAP3 SWAP2 POP POP JUMP JUMPDEST PUSH1 0x0 DUP2 SWAP1 POP SWAP2 SWAP1 POP JUMP JUMPDEST PUSH1 0x0 PUSH2 0x1414 PUSH2 0x140F PUSH2 0x140A DUP5 PUSH2 0x13EF JUMP JUMPDEST PUSH2 0xC5B JUMP JUMPDEST PUSH2 0xD27 JUMP JUMPDEST SWAP1 POP SWAP2 SWAP1 POP JUMP JUMPDEST PUSH2 0x1424 DUP2 PUSH2 0x13F9 JUMP JUMPDEST DUP3 MSTORE POP POP JUMP JUMPDEST PUSH1 0x0 PUSH1 0x40 DUP3 ADD SWAP1 POP PUSH2 0x143F PUSH1 0x0 DUP4 ADD DUP6 PUSH2 0xF0E JUMP JUMPDEST PUSH2 0x144C PUSH1 0x20 DUP4 ADD DUP5 PUSH2 0x141B JUMP JUMPDEST SWAP4 SWAP3 POP POP POP JUMP JUMPDEST PUSH1 0x0 DUP2 MLOAD SWAP1 POP SWAP2 SWAP1 POP JUMP JUMPDEST PUSH1 0x0 DUP3 DUP3 MSTORE PUSH1 0x20 DUP3 ADD SWAP1 POP SWAP3 SWAP2 POP POP JUMP JUMPDEST PUSH1 0x0 DUP2 SWAP1 POP PUSH1 0x20 DUP3 ADD SWAP1 POP SWAP2 SWAP1 POP JUMP JUMPDEST PUSH1 0x0 PUSH2 0x148B DUP4 DUP4 PUSH2 0x12FB JUMP JUMPDEST PUSH1 0x20 DUP4 ADD SWAP1 POP SWAP3 SWAP2 POP POP JUMP JUMPDEST PUSH1 0x0 PUSH1 0x20 DUP3 ADD SWAP1 POP SWAP2 SWAP1 POP JUMP JUMPDEST PUSH1 0x0 PUSH2 0x14AF DUP3 PUSH2 0x1453 JUMP JUMPDEST PUSH2 0x14B9 DUP2 DUP6 PUSH2 0x145E JUMP JUMPDEST SWAP4 POP PUSH2 0x14C4 DUP4 PUSH2 0x146F JUMP JUMPDEST DUP1 PUSH1 0x0 JUMPDEST DUP4 DUP2 LT ISZERO PUSH2 0x14F5 JUMPI DUP2 MLOAD PUSH2 0x14DC DUP9 DUP3 PUSH2 0x147F JUMP JUMPDEST SWAP8 POP PUSH2 0x14E7 DUP4 PUSH2 0x1497 JUMP JUMPDEST SWAP3 POP POP PUSH1 0x1 DUP2 ADD SWAP1 POP PUSH2 0x14C8 JUMP JUMPDEST POP DUP6 SWAP4 POP POP POP POP SWAP3 SWAP2 POP POP JUMP JUMPDEST PUSH1 0x0 DUP2 MLOAD SWAP1 POP SWAP2 SWAP1 POP JUMP JUMPDEST PUSH1 0x0 DUP3 DUP3 MSTORE PUSH1 0x20 DUP3 ADD SWAP1 POP SWAP3 SWAP2 POP POP JUMP JUMPDEST PUSH1 0x0 JUMPDEST DUP4 DUP2 LT ISZERO PUSH2 0x153C JUMPI DUP1 DUP3 ADD MLOAD DUP2 DUP5 ADD MSTORE PUSH1 0x20 DUP2 ADD SWAP1 POP PUSH2 0x1521 JUMP JUMPDEST DUP4 DUP2 GT ISZERO PUSH2 0x154B JUMPI PUSH1 0x0 DUP5 DUP5 ADD MSTORE JUMPDEST POP POP POP POP JUMP JUMPDEST PUSH1 0x0 PUSH2 0x155C DUP3 PUSH2 0x1502 JUMP JUMPDEST PUSH2 0x1566 DUP2 DUP6 PUSH2 0x150D JUMP JUMPDEST SWAP4 POP PUSH2 0x1576 DUP2 DUP6 PUSH1 0x20 DUP7 ADD PUSH2 0x151E JUMP JUMPDEST PUSH2 0x157F DUP2 PUSH2 0x115F JUMP JUMPDEST DUP5 ADD SWAP2 POP POP SWAP3 SWAP2 POP POP JUMP JUMPDEST PUSH1 0x0 PUSH2 0xFFFF DUP3 AND SWAP1 POP SWAP2 SWAP1 POP JUMP JUMPDEST PUSH2 0x15A1 DUP2 PUSH2 0x158A JUMP JUMPDEST DUP3 MSTORE POP POP JUMP JUMPDEST PUSH1 0x0 PUSH1 0xE0 DUP3 ADD SWAP1 POP PUSH2 0x15BC PUSH1 0x0 DUP4 ADD DUP11 PUSH2 0xF0E JUMP JUMPDEST DUP2 DUP2 SUB PUSH1 0x20 DUP4 ADD MSTORE PUSH2 0x15CE DUP2 DUP10 PUSH2 0x10A7 JUMP JUMPDEST SWAP1 POP DUP2 DUP2 SUB PUSH1 0x40 DUP4 ADD MSTORE PUSH2 0x15E2 DUP2 DUP9 PUSH2 0x14A4 JUMP JUMPDEST SWAP1 POP DUP2 DUP2 SUB PUSH1 0x60 DUP4 ADD MSTORE PUSH2 0x15F6 DUP2 DUP8 PUSH2 0x14A4 JUMP JUMPDEST SWAP1 POP PUSH2 0x1605 PUSH1 0x80 DUP4 ADD DUP7 PUSH2 0xF0E JUMP JUMPDEST DUP2 DUP2 SUB PUSH1 0xA0 DUP4 ADD MSTORE PUSH2 0x1617 DUP2 DUP6 PUSH2 0x1551 JUMP JUMPDEST SWAP1 POP PUSH2 0x1626 PUSH1 0xC0 DUP4 ADD DUP5 PUSH2 0x1598 JUMP JUMPDEST SWAP9 SWAP8 POP POP POP POP POP POP POP POP JUMP INVALID LOG2 PUSH5 0x6970667358 0x22 SLT KECCAK256 0xE8 SWAP5 0xC2 0xB7 DUP5 0xE6 DUP9 SELFDESTRUCT 0x4F 0xB9 SGT SWAP7 0xBB 0xDC SUB 0xDD 0xD0 PUSH22 0xE9D4D38551F007E890129C6B851264736F6C63430008 EXP STOP CALLER "
				},
				"gasEstimates": {
					"creation": {
						"codeDepositCost": "1147200",
						"executionCost": "infinite",
						"totalCost": "infinite"
					},
					"external": {
						"ADDRESSES_PROVIDER()": "infinite",
						"POOL()": "infinite",
						"executeOperation(address,uint256,uint256,address,bytes)": "infinite",
						"testAAVE(address,uint256)": "infinite"
					}
				},
				"methodIdentifiers": {
					"ADDRESSES_PROVIDER()": "0542975c",
					"POOL()": "7535d246",
					"executeOperation(address,uint256,uint256,address,bytes)": "1b11d0ff",
					"testAAVE(address,uint256)": "cea8fe55"
				}
			},
			"userdoc": {
				"kind": "user",
				"methods": {
					"executeOperation(address,uint256,uint256,address,bytes)": {
						"notice": "Executes an operation after receiving the flash-borrowed asset"
					}
				},
				"version": 1
			}
		}
	}
}