{
	"Code-hardhat-ethersJs/contracts/MyTokenMarket.sol": {
		"MyTokenMarket": {
			"abi": [
				{
					"inputs": [],
					"stateMutability": "nonpayable",
					"type": "constructor"
				},
				{
					"inputs": [
						{
							"internalType": "uint256",
							"name": "amountMyTokenDesired",
							"type": "uint256"
						},
						{
							"internalType": "uint256",
							"name": "amountMyTokenMin",
							"type": "uint256"
						},
						{
							"internalType": "uint256",
							"name": "amountETHMin",
							"type": "uint256"
						}
					],
					"name": "addLiquidity",
					"outputs": [],
					"stateMutability": "payable",
					"type": "function"
				},
				{
					"inputs": [
						{
							"internalType": "uint256",
							"name": "amountOutMin",
							"type": "uint256"
						}
					],
					"name": "buyExactTokenByETH",
					"outputs": [],
					"stateMutability": "payable",
					"type": "function"
				},
				{
					"inputs": [],
					"name": "withdraw",
					"outputs": [],
					"stateMutability": "nonpayable",
					"type": "function"
				}
			],
			"devdoc": {
				"kind": "dev",
				"methods": {},
				"version": 1
			},
			"evm": {
				"assembly": "    /* \"Code-hardhat-ethersJs/contracts/MyTokenMarket.sol\":220:2216  contract MyTokenMarket{... */\n  mstore(0x40, 0x80)\n    /* \"Code-hardhat-ethersJs/contracts/MyTokenMarket.sol\":493:535  0x7a250d5630B4cF539739dF2C5dAcb4c659F2488D */\n  0x7a250d5630b4cf539739df2c5dacb4c659f2488d\n    /* \"Code-hardhat-ethersJs/contracts/MyTokenMarket.sol\":472:535  address uv2address = 0x7a250d5630B4cF539739dF2C5dAcb4c659F2488D */\n  0x00\n  dup1\n  0x0100\n  exp\n  dup2\n  sload\n  dup2\n  0xffffffffffffffffffffffffffffffffffffffff\n  mul\n  not\n  and\n  swap1\n  dup4\n  0xffffffffffffffffffffffffffffffffffffffff\n  and\n  mul\n  or\n  swap1\n  sstore\n  pop\n    /* \"Code-hardhat-ethersJs/contracts/MyTokenMarket.sol\":563:605  0xc778417E063141139Fce010982780140Aa0cD5Ab */\n  0xc778417e063141139fce010982780140aa0cd5ab\n    /* \"Code-hardhat-ethersJs/contracts/MyTokenMarket.sol\":541:605  address wethaddress = 0xc778417E063141139Fce010982780140Aa0cD5Ab */\n  0x01\n  exp(0x0100, 0x00)\n  dup2\n  sload\n  dup2\n  0xffffffffffffffffffffffffffffffffffffffff\n  mul\n  not\n  and\n  swap1\n  dup4\n  0xffffffffffffffffffffffffffffffffffffffff\n  and\n  mul\n  or\n  swap1\n  sstore\n  pop\n    /* \"Code-hardhat-ethersJs/contracts/MyTokenMarket.sol\":636:678  0xFA7b29AC82cC25D50970D7E6d842B0e6a529BAeE */\n  0xfa7b29ac82cc25d50970d7e6d842b0e6a529baee\n    /* \"Code-hardhat-ethersJs/contracts/MyTokenMarket.sol\":611:678  address mytokenaddress = 0xFA7b29AC82cC25D50970D7E6d842B0e6a529BAeE */\n  0x02\n  exp(0x0100, 0x00)\n  dup2\n  sload\n  dup2\n  0xffffffffffffffffffffffffffffffffffffffff\n  mul\n  not\n  and\n  swap1\n  dup4\n  0xffffffffffffffffffffffffffffffffffffffff\n  and\n  mul\n  or\n  swap1\n  sstore\n  pop\n    /* \"Code-hardhat-ethersJs/contracts/MyTokenMarket.sol\":707:749  0xf42A08C0EA66ee4A474336087A6C17E9EA6c9dE9 */\n  0xf42a08c0ea66ee4a474336087a6c17e9ea6c9de9\n    /* \"Code-hardhat-ethersJs/contracts/MyTokenMarket.sol\":684:749  address sushiaddress = 0xf42A08C0EA66ee4A474336087A6C17E9EA6c9dE9 */\n  0x03\n  exp(0x0100, 0x00)\n  dup2\n  sload\n  dup2\n  0xffffffffffffffffffffffffffffffffffffffff\n  mul\n  not\n  and\n  swap1\n  dup4\n  0xffffffffffffffffffffffffffffffffffffffff\n  and\n  mul\n  or\n  swap1\n  sstore\n  pop\n    /* \"Code-hardhat-ethersJs/contracts/MyTokenMarket.sol\":783:825  0xd9DFA8c6b37cfDF16668fE0465896f4A1B9b2c4F */\n  0xd9dfa8c6b37cfdf16668fe0465896f4a1b9b2c4f\n    /* \"Code-hardhat-ethersJs/contracts/MyTokenMarket.sol\":755:825  address masterchefaddress = 0xd9DFA8c6b37cfDF16668fE0465896f4A1B9b2c4F */\n  0x04\n  exp(0x0100, 0x00)\n  dup2\n  sload\n  dup2\n  0xffffffffffffffffffffffffffffffffffffffff\n  mul\n  not\n  and\n  swap1\n  dup4\n  0xffffffffffffffffffffffffffffffffffffffff\n  and\n  mul\n  or\n  swap1\n  sstore\n  pop\n    /* \"Code-hardhat-ethersJs/contracts/MyTokenMarket.sol\":881:891  uv2address */\n  0x00\n  dup1\n  sload\n  swap1\n  0x0100\n  exp\n  swap1\n  div\n  0xffffffffffffffffffffffffffffffffffffffff\n  and\n    /* \"Code-hardhat-ethersJs/contracts/MyTokenMarket.sol\":831:892  IUniswapV2Router02 uv2router = IUniswapV2Router02(uv2address) */\n  0x05\n  exp(0x0100, 0x00)\n  dup2\n  sload\n  dup2\n  0xffffffffffffffffffffffffffffffffffffffff\n  mul\n  not\n  and\n  swap1\n  dup4\n  0xffffffffffffffffffffffffffffffffffffffff\n  and\n  mul\n  or\n  swap1\n  sstore\n  pop\n    /* \"Code-hardhat-ethersJs/contracts/MyTokenMarket.sol\":921:935  mytokenaddress */\n  0x02\n  0x00\n  swap1\n  sload\n  swap1\n  0x0100\n  exp\n  swap1\n  div\n  0xffffffffffffffffffffffffffffffffffffffff\n  and\n    /* \"Code-hardhat-ethersJs/contracts/MyTokenMarket.sol\":898:936  IERC20 mtoken = IERC20(mytokenaddress) */\n  0x06\n  exp(0x0100, 0x00)\n  dup2\n  sload\n  dup2\n  0xffffffffffffffffffffffffffffffffffffffff\n  mul\n  not\n  and\n  swap1\n  dup4\n  0xffffffffffffffffffffffffffffffffffffffff\n  and\n  mul\n  or\n  swap1\n  sstore\n  pop\n    /* \"Code-hardhat-ethersJs/contracts/MyTokenMarket.sol\":979:996  masterchefaddress */\n  0x04\n  0x00\n  swap1\n  sload\n  swap1\n  0x0100\n  exp\n  swap1\n  div\n  0xffffffffffffffffffffffffffffffffffffffff\n  and\n    /* \"Code-hardhat-ethersJs/contracts/MyTokenMarket.sol\":942:997  IMasterChef masterChef = IMasterChef(masterchefaddress) */\n  0x07\n  exp(0x0100, 0x00)\n  dup2\n  sload\n  dup2\n  0xffffffffffffffffffffffffffffffffffffffff\n  mul\n  not\n  and\n  swap1\n  dup4\n  0xffffffffffffffffffffffffffffffffffffffff\n  and\n  mul\n  or\n  swap1\n  sstore\n  pop\n    /* \"Code-hardhat-ethersJs/contracts/MyTokenMarket.sol\":1003:1023  constructor(){... */\n  callvalue\n  dup1\n  iszero\n  tag_1\n  jumpi\n  0x00\n  dup1\n  revert\ntag_1:\n  pop\n    /* \"Code-hardhat-ethersJs/contracts/MyTokenMarket.sol\":220:2216  contract MyTokenMarket{... */\n  dataSize(sub_0)\n  dup1\n  dataOffset(sub_0)\n  0x00\n  codecopy\n  0x00\n  return\nstop\n\nsub_0: assembly {\n        /* \"Code-hardhat-ethersJs/contracts/MyTokenMarket.sol\":220:2216  contract MyTokenMarket{... */\n      mstore(0x40, 0x80)\n      jumpi(tag_1, lt(calldatasize, 0x04))\n      shr(0xe0, calldataload(0x00))\n      dup1\n      0x3ccfd60b\n      eq\n      tag_2\n      jumpi\n      dup1\n      0x422f1043\n      eq\n      tag_3\n      jumpi\n      dup1\n      0xa93f74e0\n      eq\n      tag_4\n      jumpi\n    tag_1:\n      0x00\n      dup1\n      revert\n        /* \"Code-hardhat-ethersJs/contracts/MyTokenMarket.sol\":2137:2212  function withdraw()public{... */\n    tag_2:\n      callvalue\n      dup1\n      iszero\n      tag_5\n      jumpi\n      0x00\n      dup1\n      revert\n    tag_5:\n      pop\n      tag_6\n      tag_7\n      jump\t// in\n    tag_6:\n      stop\n        /* \"Code-hardhat-ethersJs/contracts/MyTokenMarket.sol\":1030:1769  function addLiquidity(... */\n    tag_3:\n      tag_8\n      0x04\n      dup1\n      calldatasize\n      sub\n      dup2\n      add\n      swap1\n      tag_9\n      swap2\n      swap1\n      tag_10\n      jump\t// in\n    tag_9:\n      tag_11\n      jump\t// in\n    tag_8:\n      stop\n        /* \"Code-hardhat-ethersJs/contracts/MyTokenMarket.sol\":1776:2100  function buyExactTokenByETH(uint amountOutMin)public payable{... */\n    tag_4:\n      tag_12\n      0x04\n      dup1\n      calldatasize\n      sub\n      dup2\n      add\n      swap1\n      tag_13\n      swap2\n      swap1\n      tag_14\n      jump\t// in\n    tag_13:\n      tag_15\n      jump\t// in\n    tag_12:\n      stop\n        /* \"Code-hardhat-ethersJs/contracts/MyTokenMarket.sol\":2137:2212  function withdraw()public{... */\n    tag_7:\n        /* \"Code-hardhat-ethersJs/contracts/MyTokenMarket.sol\":2181:2191  masterChef */\n      0x07\n      0x00\n      swap1\n      sload\n      swap1\n      0x0100\n      exp\n      swap1\n      div\n      0xffffffffffffffffffffffffffffffffffffffff\n      and\n        /* \"Code-hardhat-ethersJs/contracts/MyTokenMarket.sol\":2181:2200  masterChef.withdraw */\n      0xffffffffffffffffffffffffffffffffffffffff\n      and\n      0x441a3e70\n        /* \"Code-hardhat-ethersJs/contracts/MyTokenMarket.sol\":2201:2202  0 */\n      0x00\n        /* \"Code-hardhat-ethersJs/contracts/MyTokenMarket.sol\":2203:2204  0 */\n      dup1\n        /* \"Code-hardhat-ethersJs/contracts/MyTokenMarket.sol\":2181:2205  masterChef.withdraw(0,0) */\n      mload(0x40)\n      dup4\n      0xffffffff\n      and\n      0xe0\n      shl\n      dup2\n      mstore\n      0x04\n      add\n      tag_17\n      swap3\n      swap2\n      swap1\n      tag_18\n      jump\t// in\n    tag_17:\n      0x00\n      mload(0x40)\n      dup1\n      dup4\n      sub\n      dup2\n      0x00\n      dup8\n      dup1\n      extcodesize\n      iszero\n      dup1\n      iszero\n      tag_19\n      jumpi\n      0x00\n      dup1\n      revert\n    tag_19:\n      pop\n      gas\n      call\n      iszero\n      dup1\n      iszero\n      tag_21\n      jumpi\n      returndatasize\n      0x00\n      dup1\n      returndatacopy\n      revert(0x00, returndatasize)\n    tag_21:\n      pop\n      pop\n      pop\n      pop\n        /* \"Code-hardhat-ethersJs/contracts/MyTokenMarket.sol\":2137:2212  function withdraw()public{... */\n      jump\t// out\n        /* \"Code-hardhat-ethersJs/contracts/MyTokenMarket.sol\":1030:1769  function addLiquidity(... */\n    tag_11:\n        /* \"Code-hardhat-ethersJs/contracts/MyTokenMarket.sol\":1216:1222  mtoken */\n      0x06\n      0x00\n      swap1\n      sload\n      swap1\n      0x0100\n      exp\n      swap1\n      div\n      0xffffffffffffffffffffffffffffffffffffffff\n      and\n        /* \"Code-hardhat-ethersJs/contracts/MyTokenMarket.sol\":1216:1230  mtoken.approve */\n      0xffffffffffffffffffffffffffffffffffffffff\n      and\n      0x095ea7b3\n        /* \"Code-hardhat-ethersJs/contracts/MyTokenMarket.sol\":1239:1248  uv2router */\n      0x05\n      0x00\n      swap1\n      sload\n      swap1\n      0x0100\n      exp\n      swap1\n      div\n      0xffffffffffffffffffffffffffffffffffffffff\n      and\n        /* \"Code-hardhat-ethersJs/contracts/MyTokenMarket.sol\":1251:1271  amountMyTokenDesired */\n      dup6\n        /* \"Code-hardhat-ethersJs/contracts/MyTokenMarket.sol\":1216:1272  mtoken.approve(address(uv2router), amountMyTokenDesired) */\n      mload(0x40)\n      dup4\n      0xffffffff\n      and\n      0xe0\n      shl\n      dup2\n      mstore\n      0x04\n      add\n      tag_23\n      swap3\n      swap2\n      swap1\n      tag_24\n      jump\t// in\n    tag_23:\n      0x20\n      mload(0x40)\n      dup1\n      dup4\n      sub\n      dup2\n      0x00\n      dup8\n      gas\n      call\n      iszero\n      dup1\n      iszero\n      tag_26\n      jumpi\n      returndatasize\n      0x00\n      dup1\n      returndatacopy\n      revert(0x00, returndatasize)\n    tag_26:\n      pop\n      pop\n      pop\n      pop\n      mload(0x40)\n      returndatasize\n      not(0x1f)\n      0x1f\n      dup3\n      add\n      and\n      dup3\n      add\n      dup1\n      0x40\n      mstore\n      pop\n      dup2\n      add\n      swap1\n      tag_27\n      swap2\n      swap1\n      tag_28\n      jump\t// in\n    tag_27:\n      pop\n        /* \"Code-hardhat-ethersJs/contracts/MyTokenMarket.sol\":1282:1294  bool success */\n      0x00\n        /* \"Code-hardhat-ethersJs/contracts/MyTokenMarket.sol\":1297:1303  mtoken */\n      0x06\n      0x00\n      swap1\n      sload\n      swap1\n      0x0100\n      exp\n      swap1\n      div\n      0xffffffffffffffffffffffffffffffffffffffff\n      and\n        /* \"Code-hardhat-ethersJs/contracts/MyTokenMarket.sol\":1297:1316  mtoken.transferFrom */\n      0xffffffffffffffffffffffffffffffffffffffff\n      and\n      0x23b872dd\n        /* \"Code-hardhat-ethersJs/contracts/MyTokenMarket.sol\":1317:1327  msg.sender */\n      caller\n        /* \"Code-hardhat-ethersJs/contracts/MyTokenMarket.sol\":1337:1341  this */\n      address\n        /* \"Code-hardhat-ethersJs/contracts/MyTokenMarket.sol\":1344:1364  amountMyTokenDesired */\n      dup8\n        /* \"Code-hardhat-ethersJs/contracts/MyTokenMarket.sol\":1297:1365  mtoken.transferFrom(msg.sender, address(this), amountMyTokenDesired) */\n      mload(0x40)\n      dup5\n      0xffffffff\n      and\n      0xe0\n      shl\n      dup2\n      mstore\n      0x04\n      add\n      tag_29\n      swap4\n      swap3\n      swap2\n      swap1\n      tag_30\n      jump\t// in\n    tag_29:\n      0x20\n      mload(0x40)\n      dup1\n      dup4\n      sub\n      dup2\n      0x00\n      dup8\n      gas\n      call\n      iszero\n      dup1\n      iszero\n      tag_32\n      jumpi\n      returndatasize\n      0x00\n      dup1\n      returndatacopy\n      revert(0x00, returndatasize)\n    tag_32:\n      pop\n      pop\n      pop\n      pop\n      mload(0x40)\n      returndatasize\n      not(0x1f)\n      0x1f\n      dup3\n      add\n      and\n      dup3\n      add\n      dup1\n      0x40\n      mstore\n      pop\n      dup2\n      add\n      swap1\n      tag_33\n      swap2\n      swap1\n      tag_28\n      jump\t// in\n    tag_33:\n        /* \"Code-hardhat-ethersJs/contracts/MyTokenMarket.sol\":1282:1365  bool success = mtoken.transferFrom(msg.sender, address(this), amountMyTokenDesired) */\n      swap1\n      pop\n        /* \"Code-hardhat-ethersJs/contracts/MyTokenMarket.sol\":1383:1390  success */\n      dup1\n        /* \"Code-hardhat-ethersJs/contracts/MyTokenMarket.sol\":1375:1417  require(success, \"mtoken transfer error!\") */\n      tag_34\n      jumpi\n      mload(0x40)\n      0x08c379a000000000000000000000000000000000000000000000000000000000\n      dup2\n      mstore\n      0x04\n      add\n      tag_35\n      swap1\n      tag_36\n      jump\t// in\n    tag_35:\n      mload(0x40)\n      dup1\n      swap2\n      sub\n      swap1\n      revert\n    tag_34:\n        /* \"Code-hardhat-ethersJs/contracts/MyTokenMarket.sol\":1447:1459  amountETHMin */\n      dup2\n        /* \"Code-hardhat-ethersJs/contracts/MyTokenMarket.sol\":1435:1444  msg.value */\n      callvalue\n        /* \"Code-hardhat-ethersJs/contracts/MyTokenMarket.sol\":1435:1459  msg.value > amountETHMin */\n      gt\n        /* \"Code-hardhat-ethersJs/contracts/MyTokenMarket.sol\":1427:1506  require(msg.value > amountETHMin, \"msg.value should biggger than amountETHMin\") */\n      tag_37\n      jumpi\n      mload(0x40)\n      0x08c379a000000000000000000000000000000000000000000000000000000000\n      dup2\n      mstore\n      0x04\n      add\n      tag_38\n      swap1\n      tag_39\n      jump\t// in\n    tag_38:\n      mload(0x40)\n      dup1\n      swap2\n      sub\n      swap1\n      revert\n    tag_37:\n        /* \"Code-hardhat-ethersJs/contracts/MyTokenMarket.sol\":1517:1533  uint amountToken */\n      0x00\n        /* \"Code-hardhat-ethersJs/contracts/MyTokenMarket.sol\":1539:1548  uv2router */\n      0x05\n      0x00\n      swap1\n      sload\n      swap1\n      0x0100\n      exp\n      swap1\n      div\n      0xffffffffffffffffffffffffffffffffffffffff\n      and\n        /* \"Code-hardhat-ethersJs/contracts/MyTokenMarket.sol\":1539:1564  uv2router.addLiquidityETH */\n      0xffffffffffffffffffffffffffffffffffffffff\n      and\n      0xf305d719\n        /* \"Code-hardhat-ethersJs/contracts/MyTokenMarket.sol\":1572:1581  msg.value */\n      callvalue\n        /* \"Code-hardhat-ethersJs/contracts/MyTokenMarket.sol\":1584:1598  mytokenaddress */\n      0x02\n      0x00\n      swap1\n      sload\n      swap1\n      0x0100\n      exp\n      swap1\n      div\n      0xffffffffffffffffffffffffffffffffffffffff\n      and\n        /* \"Code-hardhat-ethersJs/contracts/MyTokenMarket.sol\":1600:1620  amountMyTokenDesired */\n      dup9\n        /* \"Code-hardhat-ethersJs/contracts/MyTokenMarket.sol\":1622:1638  amountMyTokenMin */\n      dup9\n        /* \"Code-hardhat-ethersJs/contracts/MyTokenMarket.sol\":1640:1652  amountETHMin */\n      dup9\n        /* \"Code-hardhat-ethersJs/contracts/MyTokenMarket.sol\":1654:1664  msg.sender */\n      caller\n        /* \"Code-hardhat-ethersJs/contracts/MyTokenMarket.sol\":1665:1680  block.timestamp */\n      timestamp\n        /* \"Code-hardhat-ethersJs/contracts/MyTokenMarket.sol\":1539:1681  uv2router.addLiquidityETH{value: msg.value}( mytokenaddress, amountMyTokenDesired, amountMyTokenMin, amountETHMin, msg.sender,block.timestamp) */\n      mload(0x40)\n      dup9\n      0xffffffff\n      and\n      0xe0\n      shl\n      dup2\n      mstore\n      0x04\n      add\n      tag_40\n      swap7\n      swap6\n      swap5\n      swap4\n      swap3\n      swap2\n      swap1\n      tag_41\n      jump\t// in\n    tag_40:\n      0x60\n      mload(0x40)\n      dup1\n      dup4\n      sub\n      dup2\n      dup6\n      dup9\n      gas\n      call\n      iszero\n      dup1\n      iszero\n      tag_43\n      jumpi\n      returndatasize\n      0x00\n      dup1\n      returndatacopy\n      revert(0x00, returndatasize)\n    tag_43:\n      pop\n      pop\n      pop\n      pop\n      pop\n      mload(0x40)\n      returndatasize\n      not(0x1f)\n      0x1f\n      dup3\n      add\n      and\n      dup3\n      add\n      dup1\n      0x40\n      mstore\n      pop\n      dup2\n      add\n      swap1\n      tag_44\n      swap2\n      swap1\n      tag_45\n      jump\t// in\n    tag_44:\n        /* \"Code-hardhat-ethersJs/contracts/MyTokenMarket.sol\":1516:1681  (uint amountToken,,) = uv2router.addLiquidityETH{value: msg.value}( mytokenaddress, amountMyTokenDesired, amountMyTokenMin, amountETHMin, msg.sender,block.timestamp) */\n      pop\n      pop\n      swap1\n      pop\n        /* \"Code-hardhat-ethersJs/contracts/MyTokenMarket.sol\":1729:1739  masterChef */\n      0x07\n      0x00\n      swap1\n      sload\n      swap1\n      0x0100\n      exp\n      swap1\n      div\n      0xffffffffffffffffffffffffffffffffffffffff\n      and\n        /* \"Code-hardhat-ethersJs/contracts/MyTokenMarket.sol\":1729:1747  masterChef.deposit */\n      0xffffffffffffffffffffffffffffffffffffffff\n      and\n      0xe2bbb158\n        /* \"Code-hardhat-ethersJs/contracts/MyTokenMarket.sol\":1748:1749  0 */\n      0x00\n        /* \"Code-hardhat-ethersJs/contracts/MyTokenMarket.sol\":1750:1761  amountToken */\n      dup4\n        /* \"Code-hardhat-ethersJs/contracts/MyTokenMarket.sol\":1729:1762  masterChef.deposit(0,amountToken) */\n      mload(0x40)\n      dup4\n      0xffffffff\n      and\n      0xe0\n      shl\n      dup2\n      mstore\n      0x04\n      add\n      tag_46\n      swap3\n      swap2\n      swap1\n      tag_47\n      jump\t// in\n    tag_46:\n      0x00\n      mload(0x40)\n      dup1\n      dup4\n      sub\n      dup2\n      0x00\n      dup8\n      dup1\n      extcodesize\n      iszero\n      dup1\n      iszero\n      tag_48\n      jumpi\n      0x00\n      dup1\n      revert\n    tag_48:\n      pop\n      gas\n      call\n      iszero\n      dup1\n      iszero\n      tag_50\n      jumpi\n      returndatasize\n      0x00\n      dup1\n      returndatacopy\n      revert(0x00, returndatasize)\n    tag_50:\n      pop\n      pop\n      pop\n      pop\n        /* \"Code-hardhat-ethersJs/contracts/MyTokenMarket.sol\":1168:1769  {... */\n      pop\n      pop\n        /* \"Code-hardhat-ethersJs/contracts/MyTokenMarket.sol\":1030:1769  function addLiquidity(... */\n      pop\n      pop\n      pop\n      jump\t// out\n        /* \"Code-hardhat-ethersJs/contracts/MyTokenMarket.sol\":1776:2100  function buyExactTokenByETH(uint amountOutMin)public payable{... */\n    tag_15:\n        /* \"Code-hardhat-ethersJs/contracts/MyTokenMarket.sol\":1850:1871  address[] memory path */\n      0x00\n        /* \"Code-hardhat-ethersJs/contracts/MyTokenMarket.sol\":1888:1889  2 */\n      0x02\n        /* \"Code-hardhat-ethersJs/contracts/MyTokenMarket.sol\":1874:1890  new address[](2) */\n      0xffffffffffffffff\n      dup2\n      gt\n      iszero\n      tag_52\n      jumpi\n      tag_53\n      tag_54\n      jump\t// in\n    tag_53:\n    tag_52:\n      mload(0x40)\n      swap1\n      dup1\n      dup3\n      mstore\n      dup1\n      0x20\n      mul\n      0x20\n      add\n      dup3\n      add\n      0x40\n      mstore\n      dup1\n      iszero\n      tag_55\n      jumpi\n      dup2\n      0x20\n      add\n      0x20\n      dup3\n      mul\n      dup1\n      calldatasize\n      dup4\n      calldatacopy\n      dup1\n      dup3\n      add\n      swap2\n      pop\n      pop\n      swap1\n      pop\n    tag_55:\n      pop\n        /* \"Code-hardhat-ethersJs/contracts/MyTokenMarket.sol\":1850:1890  address[] memory path = new address[](2) */\n      swap1\n      pop\n        /* \"Code-hardhat-ethersJs/contracts/MyTokenMarket.sol\":1922:1933  wethaddress */\n      0x01\n      0x00\n      swap1\n      sload\n      swap1\n      0x0100\n      exp\n      swap1\n      div\n      0xffffffffffffffffffffffffffffffffffffffff\n      and\n        /* \"Code-hardhat-ethersJs/contracts/MyTokenMarket.sol\":1904:1908  path */\n      dup2\n        /* \"Code-hardhat-ethersJs/contracts/MyTokenMarket.sol\":1909:1910  0 */\n      0x00\n        /* \"Code-hardhat-ethersJs/contracts/MyTokenMarket.sol\":1904:1911  path[0] */\n      dup2\n      mload\n      dup2\n      lt\n      tag_56\n      jumpi\n      tag_57\n      tag_58\n      jump\t// in\n    tag_57:\n    tag_56:\n      0x20\n      mul\n      0x20\n      add\n      add\n        /* \"Code-hardhat-ethersJs/contracts/MyTokenMarket.sol\":1904:1934  path[0] = address(wethaddress) */\n      swap1\n      0xffffffffffffffffffffffffffffffffffffffff\n      and\n      swap1\n      dup2\n      0xffffffffffffffffffffffffffffffffffffffff\n      and\n      dup2\n      mstore\n      pop\n      pop\n        /* \"Code-hardhat-ethersJs/contracts/MyTokenMarket.sol\":1966:1980  mytokenaddress */\n      0x02\n      0x00\n      swap1\n      sload\n      swap1\n      0x0100\n      exp\n      swap1\n      div\n      0xffffffffffffffffffffffffffffffffffffffff\n      and\n        /* \"Code-hardhat-ethersJs/contracts/MyTokenMarket.sol\":1948:1952  path */\n      dup2\n        /* \"Code-hardhat-ethersJs/contracts/MyTokenMarket.sol\":1953:1954  1 */\n      0x01\n        /* \"Code-hardhat-ethersJs/contracts/MyTokenMarket.sol\":1948:1955  path[1] */\n      dup2\n      mload\n      dup2\n      lt\n      tag_59\n      jumpi\n      tag_60\n      tag_58\n      jump\t// in\n    tag_60:\n    tag_59:\n      0x20\n      mul\n      0x20\n      add\n      add\n        /* \"Code-hardhat-ethersJs/contracts/MyTokenMarket.sol\":1948:1981  path[1] = address(mytokenaddress) */\n      swap1\n      0xffffffffffffffffffffffffffffffffffffffff\n      and\n      swap1\n      dup2\n      0xffffffffffffffffffffffffffffffffffffffff\n      and\n      dup2\n      mstore\n      pop\n      pop\n        /* \"Code-hardhat-ethersJs/contracts/MyTokenMarket.sol\":1995:2004  uv2router */\n      0x05\n      0x00\n      swap1\n      sload\n      swap1\n      0x0100\n      exp\n      swap1\n      div\n      0xffffffffffffffffffffffffffffffffffffffff\n      and\n        /* \"Code-hardhat-ethersJs/contracts/MyTokenMarket.sol\":1995:2026  uv2router.swapExactETHForTokens */\n      0xffffffffffffffffffffffffffffffffffffffff\n      and\n      0x7ff36ab5\n        /* \"Code-hardhat-ethersJs/contracts/MyTokenMarket.sol\":2034:2043  msg.value */\n      callvalue\n        /* \"Code-hardhat-ethersJs/contracts/MyTokenMarket.sol\":2045:2057  amountOutMin */\n      dup5\n        /* \"Code-hardhat-ethersJs/contracts/MyTokenMarket.sol\":2059:2063  path */\n      dup5\n        /* \"Code-hardhat-ethersJs/contracts/MyTokenMarket.sol\":2065:2075  msg.sender */\n      caller\n        /* \"Code-hardhat-ethersJs/contracts/MyTokenMarket.sol\":2077:2092  block.timestamp */\n      timestamp\n        /* \"Code-hardhat-ethersJs/contracts/MyTokenMarket.sol\":1995:2093  uv2router.swapExactETHForTokens{value: msg.value}(amountOutMin, path, msg.sender, block.timestamp) */\n      mload(0x40)\n      dup7\n      0xffffffff\n      and\n      0xe0\n      shl\n      dup2\n      mstore\n      0x04\n      add\n      tag_61\n      swap5\n      swap4\n      swap3\n      swap2\n      swap1\n      tag_62\n      jump\t// in\n    tag_61:\n      0x00\n      mload(0x40)\n      dup1\n      dup4\n      sub\n      dup2\n      dup6\n      dup9\n      gas\n      call\n      iszero\n      dup1\n      iszero\n      tag_64\n      jumpi\n      returndatasize\n      0x00\n      dup1\n      returndatacopy\n      revert(0x00, returndatasize)\n    tag_64:\n      pop\n      pop\n      pop\n      pop\n      pop\n      mload(0x40)\n      returndatasize\n      0x00\n      dup3\n      returndatacopy\n      returndatasize\n      not(0x1f)\n      0x1f\n      dup3\n      add\n      and\n      dup3\n      add\n      dup1\n      0x40\n      mstore\n      pop\n      dup2\n      add\n      swap1\n      tag_65\n      swap2\n      swap1\n      tag_66\n      jump\t// in\n    tag_65:\n      pop\n        /* \"Code-hardhat-ethersJs/contracts/MyTokenMarket.sol\":1836:2100  {... */\n      pop\n        /* \"Code-hardhat-ethersJs/contracts/MyTokenMarket.sol\":1776:2100  function buyExactTokenByETH(uint amountOutMin)public payable{... */\n      pop\n      jump\t// out\n        /* \"#utility.yul\":7:82   */\n    tag_67:\n        /* \"#utility.yul\":40:46   */\n      0x00\n        /* \"#utility.yul\":73:75   */\n      0x40\n        /* \"#utility.yul\":67:76   */\n      mload\n        /* \"#utility.yul\":57:76   */\n      swap1\n      pop\n        /* \"#utility.yul\":7:82   */\n      swap1\n      jump\t// out\n        /* \"#utility.yul\":88:205   */\n    tag_68:\n        /* \"#utility.yul\":197:198   */\n      0x00\n        /* \"#utility.yul\":194:195   */\n      dup1\n        /* \"#utility.yul\":187:199   */\n      revert\n        /* \"#utility.yul\":211:328   */\n    tag_69:\n        /* \"#utility.yul\":320:321   */\n      0x00\n        /* \"#utility.yul\":317:318   */\n      dup1\n        /* \"#utility.yul\":310:322   */\n      revert\n        /* \"#utility.yul\":334:411   */\n    tag_70:\n        /* \"#utility.yul\":371:378   */\n      0x00\n        /* \"#utility.yul\":400:405   */\n      dup2\n        /* \"#utility.yul\":389:405   */\n      swap1\n      pop\n        /* \"#utility.yul\":334:411   */\n      swap2\n      swap1\n      pop\n      jump\t// out\n        /* \"#utility.yul\":417:539   */\n    tag_71:\n        /* \"#utility.yul\":490:514   */\n      tag_111\n        /* \"#utility.yul\":508:513   */\n      dup2\n        /* \"#utility.yul\":490:514   */\n      tag_70\n      jump\t// in\n    tag_111:\n        /* \"#utility.yul\":483:488   */\n      dup2\n        /* \"#utility.yul\":480:515   */\n      eq\n        /* \"#utility.yul\":470:533   */\n      tag_112\n      jumpi\n        /* \"#utility.yul\":529:530   */\n      0x00\n        /* \"#utility.yul\":526:527   */\n      dup1\n        /* \"#utility.yul\":519:531   */\n      revert\n        /* \"#utility.yul\":470:533   */\n    tag_112:\n        /* \"#utility.yul\":417:539   */\n      pop\n      jump\t// out\n        /* \"#utility.yul\":545:684   */\n    tag_72:\n        /* \"#utility.yul\":591:596   */\n      0x00\n        /* \"#utility.yul\":629:635   */\n      dup2\n        /* \"#utility.yul\":616:636   */\n      calldataload\n        /* \"#utility.yul\":607:636   */\n      swap1\n      pop\n        /* \"#utility.yul\":645:678   */\n      tag_114\n        /* \"#utility.yul\":672:677   */\n      dup2\n        /* \"#utility.yul\":645:678   */\n      tag_71\n      jump\t// in\n    tag_114:\n        /* \"#utility.yul\":545:684   */\n      swap3\n      swap2\n      pop\n      pop\n      jump\t// out\n        /* \"#utility.yul\":690:1309   */\n    tag_10:\n        /* \"#utility.yul\":767:773   */\n      0x00\n        /* \"#utility.yul\":775:781   */\n      dup1\n        /* \"#utility.yul\":783:789   */\n      0x00\n        /* \"#utility.yul\":832:834   */\n      0x60\n        /* \"#utility.yul\":820:829   */\n      dup5\n        /* \"#utility.yul\":811:818   */\n      dup7\n        /* \"#utility.yul\":807:830   */\n      sub\n        /* \"#utility.yul\":803:835   */\n      slt\n        /* \"#utility.yul\":800:919   */\n      iszero\n      tag_116\n      jumpi\n        /* \"#utility.yul\":838:917   */\n      tag_117\n      tag_68\n      jump\t// in\n    tag_117:\n        /* \"#utility.yul\":800:919   */\n    tag_116:\n        /* \"#utility.yul\":958:959   */\n      0x00\n        /* \"#utility.yul\":983:1036   */\n      tag_118\n        /* \"#utility.yul\":1028:1035   */\n      dup7\n        /* \"#utility.yul\":1019:1025   */\n      dup3\n        /* \"#utility.yul\":1008:1017   */\n      dup8\n        /* \"#utility.yul\":1004:1026   */\n      add\n        /* \"#utility.yul\":983:1036   */\n      tag_72\n      jump\t// in\n    tag_118:\n        /* \"#utility.yul\":973:1036   */\n      swap4\n      pop\n        /* \"#utility.yul\":929:1046   */\n      pop\n        /* \"#utility.yul\":1085:1087   */\n      0x20\n        /* \"#utility.yul\":1111:1164   */\n      tag_119\n        /* \"#utility.yul\":1156:1163   */\n      dup7\n        /* \"#utility.yul\":1147:1153   */\n      dup3\n        /* \"#utility.yul\":1136:1145   */\n      dup8\n        /* \"#utility.yul\":1132:1154   */\n      add\n        /* \"#utility.yul\":1111:1164   */\n      tag_72\n      jump\t// in\n    tag_119:\n        /* \"#utility.yul\":1101:1164   */\n      swap3\n      pop\n        /* \"#utility.yul\":1056:1174   */\n      pop\n        /* \"#utility.yul\":1213:1215   */\n      0x40\n        /* \"#utility.yul\":1239:1292   */\n      tag_120\n        /* \"#utility.yul\":1284:1291   */\n      dup7\n        /* \"#utility.yul\":1275:1281   */\n      dup3\n        /* \"#utility.yul\":1264:1273   */\n      dup8\n        /* \"#utility.yul\":1260:1282   */\n      add\n        /* \"#utility.yul\":1239:1292   */\n      tag_72\n      jump\t// in\n    tag_120:\n        /* \"#utility.yul\":1229:1292   */\n      swap2\n      pop\n        /* \"#utility.yul\":1184:1302   */\n      pop\n        /* \"#utility.yul\":690:1309   */\n      swap3\n      pop\n      swap3\n      pop\n      swap3\n      jump\t// out\n        /* \"#utility.yul\":1315:1644   */\n    tag_14:\n        /* \"#utility.yul\":1374:1380   */\n      0x00\n        /* \"#utility.yul\":1423:1425   */\n      0x20\n        /* \"#utility.yul\":1411:1420   */\n      dup3\n        /* \"#utility.yul\":1402:1409   */\n      dup5\n        /* \"#utility.yul\":1398:1421   */\n      sub\n        /* \"#utility.yul\":1394:1426   */\n      slt\n        /* \"#utility.yul\":1391:1510   */\n      iszero\n      tag_122\n      jumpi\n        /* \"#utility.yul\":1429:1508   */\n      tag_123\n      tag_68\n      jump\t// in\n    tag_123:\n        /* \"#utility.yul\":1391:1510   */\n    tag_122:\n        /* \"#utility.yul\":1549:1550   */\n      0x00\n        /* \"#utility.yul\":1574:1627   */\n      tag_124\n        /* \"#utility.yul\":1619:1626   */\n      dup5\n        /* \"#utility.yul\":1610:1616   */\n      dup3\n        /* \"#utility.yul\":1599:1608   */\n      dup6\n        /* \"#utility.yul\":1595:1617   */\n      add\n        /* \"#utility.yul\":1574:1627   */\n      tag_72\n      jump\t// in\n    tag_124:\n        /* \"#utility.yul\":1564:1627   */\n      swap2\n      pop\n        /* \"#utility.yul\":1520:1637   */\n      pop\n        /* \"#utility.yul\":1315:1644   */\n      swap3\n      swap2\n      pop\n      pop\n      jump\t// out\n        /* \"#utility.yul\":1650:1735   */\n    tag_73:\n        /* \"#utility.yul\":1695:1702   */\n      0x00\n        /* \"#utility.yul\":1724:1729   */\n      dup2\n        /* \"#utility.yul\":1713:1729   */\n      swap1\n      pop\n        /* \"#utility.yul\":1650:1735   */\n      swap2\n      swap1\n      pop\n      jump\t// out\n        /* \"#utility.yul\":1741:1801   */\n    tag_74:\n        /* \"#utility.yul\":1769:1772   */\n      0x00\n        /* \"#utility.yul\":1790:1795   */\n      dup2\n        /* \"#utility.yul\":1783:1795   */\n      swap1\n      pop\n        /* \"#utility.yul\":1741:1801   */\n      swap2\n      swap1\n      pop\n      jump\t// out\n        /* \"#utility.yul\":1807:1965   */\n    tag_75:\n        /* \"#utility.yul\":1865:1874   */\n      0x00\n        /* \"#utility.yul\":1898:1959   */\n      tag_128\n        /* \"#utility.yul\":1916:1958   */\n      tag_129\n        /* \"#utility.yul\":1925:1957   */\n      tag_130\n        /* \"#utility.yul\":1951:1956   */\n      dup5\n        /* \"#utility.yul\":1925:1957   */\n      tag_73\n      jump\t// in\n    tag_130:\n        /* \"#utility.yul\":1916:1958   */\n      tag_74\n      jump\t// in\n    tag_129:\n        /* \"#utility.yul\":1898:1959   */\n      tag_70\n      jump\t// in\n    tag_128:\n        /* \"#utility.yul\":1885:1959   */\n      swap1\n      pop\n        /* \"#utility.yul\":1807:1965   */\n      swap2\n      swap1\n      pop\n      jump\t// out\n        /* \"#utility.yul\":1971:2118   */\n    tag_76:\n        /* \"#utility.yul\":2066:2111   */\n      tag_132\n        /* \"#utility.yul\":2105:2110   */\n      dup2\n        /* \"#utility.yul\":2066:2111   */\n      tag_75\n      jump\t// in\n    tag_132:\n        /* \"#utility.yul\":2061:2064   */\n      dup3\n        /* \"#utility.yul\":2054:2112   */\n      mstore\n        /* \"#utility.yul\":1971:2118   */\n      pop\n      pop\n      jump\t// out\n        /* \"#utility.yul\":2124:2488   */\n    tag_18:\n        /* \"#utility.yul\":2261:2265   */\n      0x00\n        /* \"#utility.yul\":2299:2301   */\n      0x40\n        /* \"#utility.yul\":2288:2297   */\n      dup3\n        /* \"#utility.yul\":2284:2302   */\n      add\n        /* \"#utility.yul\":2276:2302   */\n      swap1\n      pop\n        /* \"#utility.yul\":2312:2391   */\n      tag_134\n        /* \"#utility.yul\":2388:2389   */\n      0x00\n        /* \"#utility.yul\":2377:2386   */\n      dup4\n        /* \"#utility.yul\":2373:2390   */\n      add\n        /* \"#utility.yul\":2364:2370   */\n      dup6\n        /* \"#utility.yul\":2312:2391   */\n      tag_76\n      jump\t// in\n    tag_134:\n        /* \"#utility.yul\":2401:2481   */\n      tag_135\n        /* \"#utility.yul\":2477:2479   */\n      0x20\n        /* \"#utility.yul\":2466:2475   */\n      dup4\n        /* \"#utility.yul\":2462:2480   */\n      add\n        /* \"#utility.yul\":2453:2459   */\n      dup5\n        /* \"#utility.yul\":2401:2481   */\n      tag_76\n      jump\t// in\n    tag_135:\n        /* \"#utility.yul\":2124:2488   */\n      swap4\n      swap3\n      pop\n      pop\n      pop\n      jump\t// out\n        /* \"#utility.yul\":2494:2620   */\n    tag_77:\n        /* \"#utility.yul\":2531:2538   */\n      0x00\n        /* \"#utility.yul\":2571:2613   */\n      0xffffffffffffffffffffffffffffffffffffffff\n        /* \"#utility.yul\":2564:2569   */\n      dup3\n        /* \"#utility.yul\":2560:2614   */\n      and\n        /* \"#utility.yul\":2549:2614   */\n      swap1\n      pop\n        /* \"#utility.yul\":2494:2620   */\n      swap2\n      swap1\n      pop\n      jump\t// out\n        /* \"#utility.yul\":2626:2722   */\n    tag_78:\n        /* \"#utility.yul\":2663:2670   */\n      0x00\n        /* \"#utility.yul\":2692:2716   */\n      tag_138\n        /* \"#utility.yul\":2710:2715   */\n      dup3\n        /* \"#utility.yul\":2692:2716   */\n      tag_77\n      jump\t// in\n    tag_138:\n        /* \"#utility.yul\":2681:2716   */\n      swap1\n      pop\n        /* \"#utility.yul\":2626:2722   */\n      swap2\n      swap1\n      pop\n      jump\t// out\n        /* \"#utility.yul\":2728:2846   */\n    tag_79:\n        /* \"#utility.yul\":2815:2839   */\n      tag_140\n        /* \"#utility.yul\":2833:2838   */\n      dup2\n        /* \"#utility.yul\":2815:2839   */\n      tag_78\n      jump\t// in\n    tag_140:\n        /* \"#utility.yul\":2810:2813   */\n      dup3\n        /* \"#utility.yul\":2803:2840   */\n      mstore\n        /* \"#utility.yul\":2728:2846   */\n      pop\n      pop\n      jump\t// out\n        /* \"#utility.yul\":2852:2970   */\n    tag_80:\n        /* \"#utility.yul\":2939:2963   */\n      tag_142\n        /* \"#utility.yul\":2957:2962   */\n      dup2\n        /* \"#utility.yul\":2939:2963   */\n      tag_70\n      jump\t// in\n    tag_142:\n        /* \"#utility.yul\":2934:2937   */\n      dup3\n        /* \"#utility.yul\":2927:2964   */\n      mstore\n        /* \"#utility.yul\":2852:2970   */\n      pop\n      pop\n      jump\t// out\n        /* \"#utility.yul\":2976:3308   */\n    tag_24:\n        /* \"#utility.yul\":3097:3101   */\n      0x00\n        /* \"#utility.yul\":3135:3137   */\n      0x40\n        /* \"#utility.yul\":3124:3133   */\n      dup3\n        /* \"#utility.yul\":3120:3138   */\n      add\n        /* \"#utility.yul\":3112:3138   */\n      swap1\n      pop\n        /* \"#utility.yul\":3148:3219   */\n      tag_144\n        /* \"#utility.yul\":3216:3217   */\n      0x00\n        /* \"#utility.yul\":3205:3214   */\n      dup4\n        /* \"#utility.yul\":3201:3218   */\n      add\n        /* \"#utility.yul\":3192:3198   */\n      dup6\n        /* \"#utility.yul\":3148:3219   */\n      tag_79\n      jump\t// in\n    tag_144:\n        /* \"#utility.yul\":3229:3301   */\n      tag_145\n        /* \"#utility.yul\":3297:3299   */\n      0x20\n        /* \"#utility.yul\":3286:3295   */\n      dup4\n        /* \"#utility.yul\":3282:3300   */\n      add\n        /* \"#utility.yul\":3273:3279   */\n      dup5\n        /* \"#utility.yul\":3229:3301   */\n      tag_80\n      jump\t// in\n    tag_145:\n        /* \"#utility.yul\":2976:3308   */\n      swap4\n      swap3\n      pop\n      pop\n      pop\n      jump\t// out\n        /* \"#utility.yul\":3314:3404   */\n    tag_81:\n        /* \"#utility.yul\":3348:3355   */\n      0x00\n        /* \"#utility.yul\":3391:3396   */\n      dup2\n        /* \"#utility.yul\":3384:3397   */\n      iszero\n        /* \"#utility.yul\":3377:3398   */\n      iszero\n        /* \"#utility.yul\":3366:3398   */\n      swap1\n      pop\n        /* \"#utility.yul\":3314:3404   */\n      swap2\n      swap1\n      pop\n      jump\t// out\n        /* \"#utility.yul\":3410:3526   */\n    tag_82:\n        /* \"#utility.yul\":3480:3501   */\n      tag_148\n        /* \"#utility.yul\":3495:3500   */\n      dup2\n        /* \"#utility.yul\":3480:3501   */\n      tag_81\n      jump\t// in\n    tag_148:\n        /* \"#utility.yul\":3473:3478   */\n      dup2\n        /* \"#utility.yul\":3470:3502   */\n      eq\n        /* \"#utility.yul\":3460:3520   */\n      tag_149\n      jumpi\n        /* \"#utility.yul\":3516:3517   */\n      0x00\n        /* \"#utility.yul\":3513:3514   */\n      dup1\n        /* \"#utility.yul\":3506:3518   */\n      revert\n        /* \"#utility.yul\":3460:3520   */\n    tag_149:\n        /* \"#utility.yul\":3410:3526   */\n      pop\n      jump\t// out\n        /* \"#utility.yul\":3532:3669   */\n    tag_83:\n        /* \"#utility.yul\":3586:3591   */\n      0x00\n        /* \"#utility.yul\":3617:3623   */\n      dup2\n        /* \"#utility.yul\":3611:3624   */\n      mload\n        /* \"#utility.yul\":3602:3624   */\n      swap1\n      pop\n        /* \"#utility.yul\":3633:3663   */\n      tag_151\n        /* \"#utility.yul\":3657:3662   */\n      dup2\n        /* \"#utility.yul\":3633:3663   */\n      tag_82\n      jump\t// in\n    tag_151:\n        /* \"#utility.yul\":3532:3669   */\n      swap3\n      swap2\n      pop\n      pop\n      jump\t// out\n        /* \"#utility.yul\":3675:4020   */\n    tag_28:\n        /* \"#utility.yul\":3742:3748   */\n      0x00\n        /* \"#utility.yul\":3791:3793   */\n      0x20\n        /* \"#utility.yul\":3779:3788   */\n      dup3\n        /* \"#utility.yul\":3770:3777   */\n      dup5\n        /* \"#utility.yul\":3766:3789   */\n      sub\n        /* \"#utility.yul\":3762:3794   */\n      slt\n        /* \"#utility.yul\":3759:3878   */\n      iszero\n      tag_153\n      jumpi\n        /* \"#utility.yul\":3797:3876   */\n      tag_154\n      tag_68\n      jump\t// in\n    tag_154:\n        /* \"#utility.yul\":3759:3878   */\n    tag_153:\n        /* \"#utility.yul\":3917:3918   */\n      0x00\n        /* \"#utility.yul\":3942:4003   */\n      tag_155\n        /* \"#utility.yul\":3995:4002   */\n      dup5\n        /* \"#utility.yul\":3986:3992   */\n      dup3\n        /* \"#utility.yul\":3975:3984   */\n      dup6\n        /* \"#utility.yul\":3971:3993   */\n      add\n        /* \"#utility.yul\":3942:4003   */\n      tag_83\n      jump\t// in\n    tag_155:\n        /* \"#utility.yul\":3932:4003   */\n      swap2\n      pop\n        /* \"#utility.yul\":3888:4013   */\n      pop\n        /* \"#utility.yul\":3675:4020   */\n      swap3\n      swap2\n      pop\n      pop\n      jump\t// out\n        /* \"#utility.yul\":4026:4468   */\n    tag_30:\n        /* \"#utility.yul\":4175:4179   */\n      0x00\n        /* \"#utility.yul\":4213:4215   */\n      0x60\n        /* \"#utility.yul\":4202:4211   */\n      dup3\n        /* \"#utility.yul\":4198:4216   */\n      add\n        /* \"#utility.yul\":4190:4216   */\n      swap1\n      pop\n        /* \"#utility.yul\":4226:4297   */\n      tag_157\n        /* \"#utility.yul\":4294:4295   */\n      0x00\n        /* \"#utility.yul\":4283:4292   */\n      dup4\n        /* \"#utility.yul\":4279:4296   */\n      add\n        /* \"#utility.yul\":4270:4276   */\n      dup7\n        /* \"#utility.yul\":4226:4297   */\n      tag_79\n      jump\t// in\n    tag_157:\n        /* \"#utility.yul\":4307:4379   */\n      tag_158\n        /* \"#utility.yul\":4375:4377   */\n      0x20\n        /* \"#utility.yul\":4364:4373   */\n      dup4\n        /* \"#utility.yul\":4360:4378   */\n      add\n        /* \"#utility.yul\":4351:4357   */\n      dup6\n        /* \"#utility.yul\":4307:4379   */\n      tag_79\n      jump\t// in\n    tag_158:\n        /* \"#utility.yul\":4389:4461   */\n      tag_159\n        /* \"#utility.yul\":4457:4459   */\n      0x40\n        /* \"#utility.yul\":4446:4455   */\n      dup4\n        /* \"#utility.yul\":4442:4460   */\n      add\n        /* \"#utility.yul\":4433:4439   */\n      dup5\n        /* \"#utility.yul\":4389:4461   */\n      tag_80\n      jump\t// in\n    tag_159:\n        /* \"#utility.yul\":4026:4468   */\n      swap5\n      swap4\n      pop\n      pop\n      pop\n      pop\n      jump\t// out\n        /* \"#utility.yul\":4474:4643   */\n    tag_84:\n        /* \"#utility.yul\":4558:4569   */\n      0x00\n        /* \"#utility.yul\":4592:4598   */\n      dup3\n        /* \"#utility.yul\":4587:4590   */\n      dup3\n        /* \"#utility.yul\":4580:4599   */\n      mstore\n        /* \"#utility.yul\":4632:4636   */\n      0x20\n        /* \"#utility.yul\":4627:4630   */\n      dup3\n        /* \"#utility.yul\":4623:4637   */\n      add\n        /* \"#utility.yul\":4608:4637   */\n      swap1\n      pop\n        /* \"#utility.yul\":4474:4643   */\n      swap3\n      swap2\n      pop\n      pop\n      jump\t// out\n        /* \"#utility.yul\":4649:4821   */\n    tag_85:\n        /* \"#utility.yul\":4789:4813   */\n      0x6d746f6b656e207472616e73666572206572726f722100000000000000000000\n        /* \"#utility.yul\":4785:4786   */\n      0x00\n        /* \"#utility.yul\":4777:4783   */\n      dup3\n        /* \"#utility.yul\":4773:4787   */\n      add\n        /* \"#utility.yul\":4766:4814   */\n      mstore\n        /* \"#utility.yul\":4649:4821   */\n      pop\n      jump\t// out\n        /* \"#utility.yul\":4827:5193   */\n    tag_86:\n        /* \"#utility.yul\":4969:4972   */\n      0x00\n        /* \"#utility.yul\":4990:5057   */\n      tag_163\n        /* \"#utility.yul\":5054:5056   */\n      0x16\n        /* \"#utility.yul\":5049:5052   */\n      dup4\n        /* \"#utility.yul\":4990:5057   */\n      tag_84\n      jump\t// in\n    tag_163:\n        /* \"#utility.yul\":4983:5057   */\n      swap2\n      pop\n        /* \"#utility.yul\":5066:5159   */\n      tag_164\n        /* \"#utility.yul\":5155:5158   */\n      dup3\n        /* \"#utility.yul\":5066:5159   */\n      tag_85\n      jump\t// in\n    tag_164:\n        /* \"#utility.yul\":5184:5186   */\n      0x20\n        /* \"#utility.yul\":5179:5182   */\n      dup3\n        /* \"#utility.yul\":5175:5187   */\n      add\n        /* \"#utility.yul\":5168:5187   */\n      swap1\n      pop\n        /* \"#utility.yul\":4827:5193   */\n      swap2\n      swap1\n      pop\n      jump\t// out\n        /* \"#utility.yul\":5199:5618   */\n    tag_36:\n        /* \"#utility.yul\":5365:5369   */\n      0x00\n        /* \"#utility.yul\":5403:5405   */\n      0x20\n        /* \"#utility.yul\":5392:5401   */\n      dup3\n        /* \"#utility.yul\":5388:5406   */\n      add\n        /* \"#utility.yul\":5380:5406   */\n      swap1\n      pop\n        /* \"#utility.yul\":5452:5461   */\n      dup2\n        /* \"#utility.yul\":5446:5450   */\n      dup2\n        /* \"#utility.yul\":5442:5462   */\n      sub\n        /* \"#utility.yul\":5438:5439   */\n      0x00\n        /* \"#utility.yul\":5427:5436   */\n      dup4\n        /* \"#utility.yul\":5423:5440   */\n      add\n        /* \"#utility.yul\":5416:5463   */\n      mstore\n        /* \"#utility.yul\":5480:5611   */\n      tag_166\n        /* \"#utility.yul\":5606:5610   */\n      dup2\n        /* \"#utility.yul\":5480:5611   */\n      tag_86\n      jump\t// in\n    tag_166:\n        /* \"#utility.yul\":5472:5611   */\n      swap1\n      pop\n        /* \"#utility.yul\":5199:5618   */\n      swap2\n      swap1\n      pop\n      jump\t// out\n        /* \"#utility.yul\":5624:5853   */\n    tag_87:\n        /* \"#utility.yul\":5764:5798   */\n      0x6d73672e76616c75652073686f756c642062696767676572207468616e20616d\n        /* \"#utility.yul\":5760:5761   */\n      0x00\n        /* \"#utility.yul\":5752:5758   */\n      dup3\n        /* \"#utility.yul\":5748:5762   */\n      add\n        /* \"#utility.yul\":5741:5799   */\n      mstore\n        /* \"#utility.yul\":5833:5845   */\n      0x6f756e744554484d696e00000000000000000000000000000000000000000000\n        /* \"#utility.yul\":5828:5830   */\n      0x20\n        /* \"#utility.yul\":5820:5826   */\n      dup3\n        /* \"#utility.yul\":5816:5831   */\n      add\n        /* \"#utility.yul\":5809:5846   */\n      mstore\n        /* \"#utility.yul\":5624:5853   */\n      pop\n      jump\t// out\n        /* \"#utility.yul\":5859:6225   */\n    tag_88:\n        /* \"#utility.yul\":6001:6004   */\n      0x00\n        /* \"#utility.yul\":6022:6089   */\n      tag_169\n        /* \"#utility.yul\":6086:6088   */\n      0x2a\n        /* \"#utility.yul\":6081:6084   */\n      dup4\n        /* \"#utility.yul\":6022:6089   */\n      tag_84\n      jump\t// in\n    tag_169:\n        /* \"#utility.yul\":6015:6089   */\n      swap2\n      pop\n        /* \"#utility.yul\":6098:6191   */\n      tag_170\n        /* \"#utility.yul\":6187:6190   */\n      dup3\n        /* \"#utility.yul\":6098:6191   */\n      tag_87\n      jump\t// in\n    tag_170:\n        /* \"#utility.yul\":6216:6218   */\n      0x40\n        /* \"#utility.yul\":6211:6214   */\n      dup3\n        /* \"#utility.yul\":6207:6219   */\n      add\n        /* \"#utility.yul\":6200:6219   */\n      swap1\n      pop\n        /* \"#utility.yul\":5859:6225   */\n      swap2\n      swap1\n      pop\n      jump\t// out\n        /* \"#utility.yul\":6231:6650   */\n    tag_39:\n        /* \"#utility.yul\":6397:6401   */\n      0x00\n        /* \"#utility.yul\":6435:6437   */\n      0x20\n        /* \"#utility.yul\":6424:6433   */\n      dup3\n        /* \"#utility.yul\":6420:6438   */\n      add\n        /* \"#utility.yul\":6412:6438   */\n      swap1\n      pop\n        /* \"#utility.yul\":6484:6493   */\n      dup2\n        /* \"#utility.yul\":6478:6482   */\n      dup2\n        /* \"#utility.yul\":6474:6494   */\n      sub\n        /* \"#utility.yul\":6470:6471   */\n      0x00\n        /* \"#utility.yul\":6459:6468   */\n      dup4\n        /* \"#utility.yul\":6455:6472   */\n      add\n        /* \"#utility.yul\":6448:6495   */\n      mstore\n        /* \"#utility.yul\":6512:6643   */\n      tag_172\n        /* \"#utility.yul\":6638:6642   */\n      dup2\n        /* \"#utility.yul\":6512:6643   */\n      tag_88\n      jump\t// in\n    tag_172:\n        /* \"#utility.yul\":6504:6643   */\n      swap1\n      pop\n        /* \"#utility.yul\":6231:6650   */\n      swap2\n      swap1\n      pop\n      jump\t// out\n        /* \"#utility.yul\":6656:7431   */\n    tag_41:\n        /* \"#utility.yul\":6889:6893   */\n      0x00\n        /* \"#utility.yul\":6927:6930   */\n      0xc0\n        /* \"#utility.yul\":6916:6925   */\n      dup3\n        /* \"#utility.yul\":6912:6931   */\n      add\n        /* \"#utility.yul\":6904:6931   */\n      swap1\n      pop\n        /* \"#utility.yul\":6941:7012   */\n      tag_174\n        /* \"#utility.yul\":7009:7010   */\n      0x00\n        /* \"#utility.yul\":6998:7007   */\n      dup4\n        /* \"#utility.yul\":6994:7011   */\n      add\n        /* \"#utility.yul\":6985:6991   */\n      dup10\n        /* \"#utility.yul\":6941:7012   */\n      tag_79\n      jump\t// in\n    tag_174:\n        /* \"#utility.yul\":7022:7094   */\n      tag_175\n        /* \"#utility.yul\":7090:7092   */\n      0x20\n        /* \"#utility.yul\":7079:7088   */\n      dup4\n        /* \"#utility.yul\":7075:7093   */\n      add\n        /* \"#utility.yul\":7066:7072   */\n      dup9\n        /* \"#utility.yul\":7022:7094   */\n      tag_80\n      jump\t// in\n    tag_175:\n        /* \"#utility.yul\":7104:7176   */\n      tag_176\n        /* \"#utility.yul\":7172:7174   */\n      0x40\n        /* \"#utility.yul\":7161:7170   */\n      dup4\n        /* \"#utility.yul\":7157:7175   */\n      add\n        /* \"#utility.yul\":7148:7154   */\n      dup8\n        /* \"#utility.yul\":7104:7176   */\n      tag_80\n      jump\t// in\n    tag_176:\n        /* \"#utility.yul\":7186:7258   */\n      tag_177\n        /* \"#utility.yul\":7254:7256   */\n      0x60\n        /* \"#utility.yul\":7243:7252   */\n      dup4\n        /* \"#utility.yul\":7239:7257   */\n      add\n        /* \"#utility.yul\":7230:7236   */\n      dup7\n        /* \"#utility.yul\":7186:7258   */\n      tag_80\n      jump\t// in\n    tag_177:\n        /* \"#utility.yul\":7268:7341   */\n      tag_178\n        /* \"#utility.yul\":7336:7339   */\n      0x80\n        /* \"#utility.yul\":7325:7334   */\n      dup4\n        /* \"#utility.yul\":7321:7340   */\n      add\n        /* \"#utility.yul\":7312:7318   */\n      dup6\n        /* \"#utility.yul\":7268:7341   */\n      tag_79\n      jump\t// in\n    tag_178:\n        /* \"#utility.yul\":7351:7424   */\n      tag_179\n        /* \"#utility.yul\":7419:7422   */\n      0xa0\n        /* \"#utility.yul\":7408:7417   */\n      dup4\n        /* \"#utility.yul\":7404:7423   */\n      add\n        /* \"#utility.yul\":7395:7401   */\n      dup5\n        /* \"#utility.yul\":7351:7424   */\n      tag_80\n      jump\t// in\n    tag_179:\n        /* \"#utility.yul\":6656:7431   */\n      swap8\n      swap7\n      pop\n      pop\n      pop\n      pop\n      pop\n      pop\n      pop\n      jump\t// out\n        /* \"#utility.yul\":7437:7580   */\n    tag_89:\n        /* \"#utility.yul\":7494:7499   */\n      0x00\n        /* \"#utility.yul\":7525:7531   */\n      dup2\n        /* \"#utility.yul\":7519:7532   */\n      mload\n        /* \"#utility.yul\":7510:7532   */\n      swap1\n      pop\n        /* \"#utility.yul\":7541:7574   */\n      tag_181\n        /* \"#utility.yul\":7568:7573   */\n      dup2\n        /* \"#utility.yul\":7541:7574   */\n      tag_71\n      jump\t// in\n    tag_181:\n        /* \"#utility.yul\":7437:7580   */\n      swap3\n      swap2\n      pop\n      pop\n      jump\t// out\n        /* \"#utility.yul\":7586:8249   */\n    tag_45:\n        /* \"#utility.yul\":7674:7680   */\n      0x00\n        /* \"#utility.yul\":7682:7688   */\n      dup1\n        /* \"#utility.yul\":7690:7696   */\n      0x00\n        /* \"#utility.yul\":7739:7741   */\n      0x60\n        /* \"#utility.yul\":7727:7736   */\n      dup5\n        /* \"#utility.yul\":7718:7725   */\n      dup7\n        /* \"#utility.yul\":7714:7737   */\n      sub\n        /* \"#utility.yul\":7710:7742   */\n      slt\n        /* \"#utility.yul\":7707:7826   */\n      iszero\n      tag_183\n      jumpi\n        /* \"#utility.yul\":7745:7824   */\n      tag_184\n      tag_68\n      jump\t// in\n    tag_184:\n        /* \"#utility.yul\":7707:7826   */\n    tag_183:\n        /* \"#utility.yul\":7865:7866   */\n      0x00\n        /* \"#utility.yul\":7890:7954   */\n      tag_185\n        /* \"#utility.yul\":7946:7953   */\n      dup7\n        /* \"#utility.yul\":7937:7943   */\n      dup3\n        /* \"#utility.yul\":7926:7935   */\n      dup8\n        /* \"#utility.yul\":7922:7944   */\n      add\n        /* \"#utility.yul\":7890:7954   */\n      tag_89\n      jump\t// in\n    tag_185:\n        /* \"#utility.yul\":7880:7954   */\n      swap4\n      pop\n        /* \"#utility.yul\":7836:7964   */\n      pop\n        /* \"#utility.yul\":8003:8005   */\n      0x20\n        /* \"#utility.yul\":8029:8093   */\n      tag_186\n        /* \"#utility.yul\":8085:8092   */\n      dup7\n        /* \"#utility.yul\":8076:8082   */\n      dup3\n        /* \"#utility.yul\":8065:8074   */\n      dup8\n        /* \"#utility.yul\":8061:8083   */\n      add\n        /* \"#utility.yul\":8029:8093   */\n      tag_89\n      jump\t// in\n    tag_186:\n        /* \"#utility.yul\":8019:8093   */\n      swap3\n      pop\n        /* \"#utility.yul\":7974:8103   */\n      pop\n        /* \"#utility.yul\":8142:8144   */\n      0x40\n        /* \"#utility.yul\":8168:8232   */\n      tag_187\n        /* \"#utility.yul\":8224:8231   */\n      dup7\n        /* \"#utility.yul\":8215:8221   */\n      dup3\n        /* \"#utility.yul\":8204:8213   */\n      dup8\n        /* \"#utility.yul\":8200:8222   */\n      add\n        /* \"#utility.yul\":8168:8232   */\n      tag_89\n      jump\t// in\n    tag_187:\n        /* \"#utility.yul\":8158:8232   */\n      swap2\n      pop\n        /* \"#utility.yul\":8113:8242   */\n      pop\n        /* \"#utility.yul\":7586:8249   */\n      swap3\n      pop\n      swap3\n      pop\n      swap3\n      jump\t// out\n        /* \"#utility.yul\":8255:8603   */\n    tag_47:\n        /* \"#utility.yul\":8384:8388   */\n      0x00\n        /* \"#utility.yul\":8422:8424   */\n      0x40\n        /* \"#utility.yul\":8411:8420   */\n      dup3\n        /* \"#utility.yul\":8407:8425   */\n      add\n        /* \"#utility.yul\":8399:8425   */\n      swap1\n      pop\n        /* \"#utility.yul\":8435:8514   */\n      tag_189\n        /* \"#utility.yul\":8511:8512   */\n      0x00\n        /* \"#utility.yul\":8500:8509   */\n      dup4\n        /* \"#utility.yul\":8496:8513   */\n      add\n        /* \"#utility.yul\":8487:8493   */\n      dup6\n        /* \"#utility.yul\":8435:8514   */\n      tag_76\n      jump\t// in\n    tag_189:\n        /* \"#utility.yul\":8524:8596   */\n      tag_190\n        /* \"#utility.yul\":8592:8594   */\n      0x20\n        /* \"#utility.yul\":8581:8590   */\n      dup4\n        /* \"#utility.yul\":8577:8595   */\n      add\n        /* \"#utility.yul\":8568:8574   */\n      dup5\n        /* \"#utility.yul\":8524:8596   */\n      tag_80\n      jump\t// in\n    tag_190:\n        /* \"#utility.yul\":8255:8603   */\n      swap4\n      swap3\n      pop\n      pop\n      pop\n      jump\t// out\n        /* \"#utility.yul\":8609:8789   */\n    tag_54:\n        /* \"#utility.yul\":8657:8734   */\n      0x4e487b7100000000000000000000000000000000000000000000000000000000\n        /* \"#utility.yul\":8654:8655   */\n      0x00\n        /* \"#utility.yul\":8647:8735   */\n      mstore\n        /* \"#utility.yul\":8754:8758   */\n      0x41\n        /* \"#utility.yul\":8751:8752   */\n      0x04\n        /* \"#utility.yul\":8744:8759   */\n      mstore\n        /* \"#utility.yul\":8778:8782   */\n      0x24\n        /* \"#utility.yul\":8775:8776   */\n      0x00\n        /* \"#utility.yul\":8768:8783   */\n      revert\n        /* \"#utility.yul\":8795:8975   */\n    tag_58:\n        /* \"#utility.yul\":8843:8920   */\n      0x4e487b7100000000000000000000000000000000000000000000000000000000\n        /* \"#utility.yul\":8840:8841   */\n      0x00\n        /* \"#utility.yul\":8833:8921   */\n      mstore\n        /* \"#utility.yul\":8940:8944   */\n      0x32\n        /* \"#utility.yul\":8937:8938   */\n      0x04\n        /* \"#utility.yul\":8930:8945   */\n      mstore\n        /* \"#utility.yul\":8964:8968   */\n      0x24\n        /* \"#utility.yul\":8961:8962   */\n      0x00\n        /* \"#utility.yul\":8954:8969   */\n      revert\n        /* \"#utility.yul\":8981:9095   */\n    tag_90:\n        /* \"#utility.yul\":9048:9054   */\n      0x00\n        /* \"#utility.yul\":9082:9087   */\n      dup2\n        /* \"#utility.yul\":9076:9088   */\n      mload\n        /* \"#utility.yul\":9066:9088   */\n      swap1\n      pop\n        /* \"#utility.yul\":8981:9095   */\n      swap2\n      swap1\n      pop\n      jump\t// out\n        /* \"#utility.yul\":9101:9285   */\n    tag_91:\n        /* \"#utility.yul\":9200:9211   */\n      0x00\n        /* \"#utility.yul\":9234:9240   */\n      dup3\n        /* \"#utility.yul\":9229:9232   */\n      dup3\n        /* \"#utility.yul\":9222:9241   */\n      mstore\n        /* \"#utility.yul\":9274:9278   */\n      0x20\n        /* \"#utility.yul\":9269:9272   */\n      dup3\n        /* \"#utility.yul\":9265:9279   */\n      add\n        /* \"#utility.yul\":9250:9279   */\n      swap1\n      pop\n        /* \"#utility.yul\":9101:9285   */\n      swap3\n      swap2\n      pop\n      pop\n      jump\t// out\n        /* \"#utility.yul\":9291:9423   */\n    tag_92:\n        /* \"#utility.yul\":9358:9362   */\n      0x00\n        /* \"#utility.yul\":9381:9384   */\n      dup2\n        /* \"#utility.yul\":9373:9384   */\n      swap1\n      pop\n        /* \"#utility.yul\":9411:9415   */\n      0x20\n        /* \"#utility.yul\":9406:9409   */\n      dup3\n        /* \"#utility.yul\":9402:9416   */\n      add\n        /* \"#utility.yul\":9394:9416   */\n      swap1\n      pop\n        /* \"#utility.yul\":9291:9423   */\n      swap2\n      swap1\n      pop\n      jump\t// out\n        /* \"#utility.yul\":9429:9537   */\n    tag_93:\n        /* \"#utility.yul\":9506:9530   */\n      tag_197\n        /* \"#utility.yul\":9524:9529   */\n      dup2\n        /* \"#utility.yul\":9506:9530   */\n      tag_78\n      jump\t// in\n    tag_197:\n        /* \"#utility.yul\":9501:9504   */\n      dup3\n        /* \"#utility.yul\":9494:9531   */\n      mstore\n        /* \"#utility.yul\":9429:9537   */\n      pop\n      pop\n      jump\t// out\n        /* \"#utility.yul\":9543:9722   */\n    tag_94:\n        /* \"#utility.yul\":9612:9622   */\n      0x00\n        /* \"#utility.yul\":9633:9679   */\n      tag_199\n        /* \"#utility.yul\":9675:9678   */\n      dup4\n        /* \"#utility.yul\":9667:9673   */\n      dup4\n        /* \"#utility.yul\":9633:9679   */\n      tag_93\n      jump\t// in\n    tag_199:\n        /* \"#utility.yul\":9711:9715   */\n      0x20\n        /* \"#utility.yul\":9706:9709   */\n      dup4\n        /* \"#utility.yul\":9702:9716   */\n      add\n        /* \"#utility.yul\":9688:9716   */\n      swap1\n      pop\n        /* \"#utility.yul\":9543:9722   */\n      swap3\n      swap2\n      pop\n      pop\n      jump\t// out\n        /* \"#utility.yul\":9728:9841   */\n    tag_95:\n        /* \"#utility.yul\":9798:9802   */\n      0x00\n        /* \"#utility.yul\":9830:9834   */\n      0x20\n        /* \"#utility.yul\":9825:9828   */\n      dup3\n        /* \"#utility.yul\":9821:9835   */\n      add\n        /* \"#utility.yul\":9813:9835   */\n      swap1\n      pop\n        /* \"#utility.yul\":9728:9841   */\n      swap2\n      swap1\n      pop\n      jump\t// out\n        /* \"#utility.yul\":9877:10609   */\n    tag_96:\n        /* \"#utility.yul\":9996:9999   */\n      0x00\n        /* \"#utility.yul\":10025:10079   */\n      tag_202\n        /* \"#utility.yul\":10073:10078   */\n      dup3\n        /* \"#utility.yul\":10025:10079   */\n      tag_90\n      jump\t// in\n    tag_202:\n        /* \"#utility.yul\":10095:10181   */\n      tag_203\n        /* \"#utility.yul\":10174:10180   */\n      dup2\n        /* \"#utility.yul\":10169:10172   */\n      dup6\n        /* \"#utility.yul\":10095:10181   */\n      tag_91\n      jump\t// in\n    tag_203:\n        /* \"#utility.yul\":10088:10181   */\n      swap4\n      pop\n        /* \"#utility.yul\":10205:10261   */\n      tag_204\n        /* \"#utility.yul\":10255:10260   */\n      dup4\n        /* \"#utility.yul\":10205:10261   */\n      tag_92\n      jump\t// in\n    tag_204:\n        /* \"#utility.yul\":10284:10291   */\n      dup1\n        /* \"#utility.yul\":10315:10316   */\n      0x00\n        /* \"#utility.yul\":10300:10584   */\n    tag_205:\n        /* \"#utility.yul\":10325:10331   */\n      dup4\n        /* \"#utility.yul\":10322:10323   */\n      dup2\n        /* \"#utility.yul\":10319:10332   */\n      lt\n        /* \"#utility.yul\":10300:10584   */\n      iszero\n      tag_207\n      jumpi\n        /* \"#utility.yul\":10401:10407   */\n      dup2\n        /* \"#utility.yul\":10395:10408   */\n      mload\n        /* \"#utility.yul\":10428:10491   */\n      tag_208\n        /* \"#utility.yul\":10487:10490   */\n      dup9\n        /* \"#utility.yul\":10472:10485   */\n      dup3\n        /* \"#utility.yul\":10428:10491   */\n      tag_94\n      jump\t// in\n    tag_208:\n        /* \"#utility.yul\":10421:10491   */\n      swap8\n      pop\n        /* \"#utility.yul\":10514:10574   */\n      tag_209\n        /* \"#utility.yul\":10567:10573   */\n      dup4\n        /* \"#utility.yul\":10514:10574   */\n      tag_95\n      jump\t// in\n    tag_209:\n        /* \"#utility.yul\":10504:10574   */\n      swap3\n      pop\n        /* \"#utility.yul\":10360:10584   */\n      pop\n        /* \"#utility.yul\":10347:10348   */\n      0x01\n        /* \"#utility.yul\":10344:10345   */\n      dup2\n        /* \"#utility.yul\":10340:10349   */\n      add\n        /* \"#utility.yul\":10335:10349   */\n      swap1\n      pop\n        /* \"#utility.yul\":10300:10584   */\n      jump(tag_205)\n    tag_207:\n        /* \"#utility.yul\":10304:10318   */\n      pop\n        /* \"#utility.yul\":10600:10603   */\n      dup6\n        /* \"#utility.yul\":10593:10603   */\n      swap4\n      pop\n        /* \"#utility.yul\":10001:10609   */\n      pop\n      pop\n      pop\n        /* \"#utility.yul\":9877:10609   */\n      swap3\n      swap2\n      pop\n      pop\n      jump\t// out\n        /* \"#utility.yul\":10615:11319   */\n    tag_62:\n        /* \"#utility.yul\":10842:10846   */\n      0x00\n        /* \"#utility.yul\":10880:10883   */\n      0x80\n        /* \"#utility.yul\":10869:10878   */\n      dup3\n        /* \"#utility.yul\":10865:10884   */\n      add\n        /* \"#utility.yul\":10857:10884   */\n      swap1\n      pop\n        /* \"#utility.yul\":10894:10965   */\n      tag_211\n        /* \"#utility.yul\":10962:10963   */\n      0x00\n        /* \"#utility.yul\":10951:10960   */\n      dup4\n        /* \"#utility.yul\":10947:10964   */\n      add\n        /* \"#utility.yul\":10938:10944   */\n      dup8\n        /* \"#utility.yul\":10894:10965   */\n      tag_80\n      jump\t// in\n    tag_211:\n        /* \"#utility.yul\":11012:11021   */\n      dup2\n        /* \"#utility.yul\":11006:11010   */\n      dup2\n        /* \"#utility.yul\":11002:11022   */\n      sub\n        /* \"#utility.yul\":10997:10999   */\n      0x20\n        /* \"#utility.yul\":10986:10995   */\n      dup4\n        /* \"#utility.yul\":10982:11000   */\n      add\n        /* \"#utility.yul\":10975:11023   */\n      mstore\n        /* \"#utility.yul\":11040:11148   */\n      tag_212\n        /* \"#utility.yul\":11143:11147   */\n      dup2\n        /* \"#utility.yul\":11134:11140   */\n      dup7\n        /* \"#utility.yul\":11040:11148   */\n      tag_96\n      jump\t// in\n    tag_212:\n        /* \"#utility.yul\":11032:11148   */\n      swap1\n      pop\n        /* \"#utility.yul\":11158:11230   */\n      tag_213\n        /* \"#utility.yul\":11226:11228   */\n      0x40\n        /* \"#utility.yul\":11215:11224   */\n      dup4\n        /* \"#utility.yul\":11211:11229   */\n      add\n        /* \"#utility.yul\":11202:11208   */\n      dup6\n        /* \"#utility.yul\":11158:11230   */\n      tag_79\n      jump\t// in\n    tag_213:\n        /* \"#utility.yul\":11240:11312   */\n      tag_214\n        /* \"#utility.yul\":11308:11310   */\n      0x60\n        /* \"#utility.yul\":11297:11306   */\n      dup4\n        /* \"#utility.yul\":11293:11311   */\n      add\n        /* \"#utility.yul\":11284:11290   */\n      dup5\n        /* \"#utility.yul\":11240:11312   */\n      tag_80\n      jump\t// in\n    tag_214:\n        /* \"#utility.yul\":10615:11319   */\n      swap6\n      swap5\n      pop\n      pop\n      pop\n      pop\n      pop\n      jump\t// out\n        /* \"#utility.yul\":11325:11442   */\n    tag_97:\n        /* \"#utility.yul\":11434:11435   */\n      0x00\n        /* \"#utility.yul\":11431:11432   */\n      dup1\n        /* \"#utility.yul\":11424:11436   */\n      revert\n        /* \"#utility.yul\":11448:11550   */\n    tag_98:\n        /* \"#utility.yul\":11489:11495   */\n      0x00\n        /* \"#utility.yul\":11540:11542   */\n      0x1f\n        /* \"#utility.yul\":11536:11543   */\n      not\n        /* \"#utility.yul\":11531:11533   */\n      0x1f\n        /* \"#utility.yul\":11524:11529   */\n      dup4\n        /* \"#utility.yul\":11520:11534   */\n      add\n        /* \"#utility.yul\":11516:11544   */\n      and\n        /* \"#utility.yul\":11506:11544   */\n      swap1\n      pop\n        /* \"#utility.yul\":11448:11550   */\n      swap2\n      swap1\n      pop\n      jump\t// out\n        /* \"#utility.yul\":11556:11837   */\n    tag_99:\n        /* \"#utility.yul\":11639:11666   */\n      tag_218\n        /* \"#utility.yul\":11661:11665   */\n      dup3\n        /* \"#utility.yul\":11639:11666   */\n      tag_98\n      jump\t// in\n    tag_218:\n        /* \"#utility.yul\":11631:11637   */\n      dup2\n        /* \"#utility.yul\":11627:11667   */\n      add\n        /* \"#utility.yul\":11769:11775   */\n      dup2\n        /* \"#utility.yul\":11757:11767   */\n      dup2\n        /* \"#utility.yul\":11754:11776   */\n      lt\n        /* \"#utility.yul\":11733:11751   */\n      0xffffffffffffffff\n        /* \"#utility.yul\":11721:11731   */\n      dup3\n        /* \"#utility.yul\":11718:11752   */\n      gt\n        /* \"#utility.yul\":11715:11777   */\n      or\n        /* \"#utility.yul\":11712:11800   */\n      iszero\n      tag_219\n      jumpi\n        /* \"#utility.yul\":11780:11798   */\n      tag_220\n      tag_54\n      jump\t// in\n    tag_220:\n        /* \"#utility.yul\":11712:11800   */\n    tag_219:\n        /* \"#utility.yul\":11820:11830   */\n      dup1\n        /* \"#utility.yul\":11816:11818   */\n      0x40\n        /* \"#utility.yul\":11809:11831   */\n      mstore\n        /* \"#utility.yul\":11599:11837   */\n      pop\n        /* \"#utility.yul\":11556:11837   */\n      pop\n      pop\n      jump\t// out\n        /* \"#utility.yul\":11843:11972   */\n    tag_100:\n        /* \"#utility.yul\":11877:11883   */\n      0x00\n        /* \"#utility.yul\":11904:11924   */\n      tag_222\n      tag_67\n      jump\t// in\n    tag_222:\n        /* \"#utility.yul\":11894:11924   */\n      swap1\n      pop\n        /* \"#utility.yul\":11933:11966   */\n      tag_223\n        /* \"#utility.yul\":11961:11965   */\n      dup3\n        /* \"#utility.yul\":11953:11959   */\n      dup3\n        /* \"#utility.yul\":11933:11966   */\n      tag_99\n      jump\t// in\n    tag_223:\n        /* \"#utility.yul\":11843:11972   */\n      swap2\n      swap1\n      pop\n      jump\t// out\n        /* \"#utility.yul\":11978:12289   */\n    tag_101:\n        /* \"#utility.yul\":12055:12059   */\n      0x00\n        /* \"#utility.yul\":12145:12163   */\n      0xffffffffffffffff\n        /* \"#utility.yul\":12137:12143   */\n      dup3\n        /* \"#utility.yul\":12134:12164   */\n      gt\n        /* \"#utility.yul\":12131:12187   */\n      iszero\n      tag_225\n      jumpi\n        /* \"#utility.yul\":12167:12185   */\n      tag_226\n      tag_54\n      jump\t// in\n    tag_226:\n        /* \"#utility.yul\":12131:12187   */\n    tag_225:\n        /* \"#utility.yul\":12217:12221   */\n      0x20\n        /* \"#utility.yul\":12209:12215   */\n      dup3\n        /* \"#utility.yul\":12205:12222   */\n      mul\n        /* \"#utility.yul\":12197:12222   */\n      swap1\n      pop\n        /* \"#utility.yul\":12277:12281   */\n      0x20\n        /* \"#utility.yul\":12271:12275   */\n      dup2\n        /* \"#utility.yul\":12267:12282   */\n      add\n        /* \"#utility.yul\":12259:12282   */\n      swap1\n      pop\n        /* \"#utility.yul\":11978:12289   */\n      swap2\n      swap1\n      pop\n      jump\t// out\n        /* \"#utility.yul\":12295:12412   */\n    tag_102:\n        /* \"#utility.yul\":12404:12405   */\n      0x00\n        /* \"#utility.yul\":12401:12402   */\n      dup1\n        /* \"#utility.yul\":12394:12406   */\n      revert\n        /* \"#utility.yul\":12435:13167   */\n    tag_103:\n        /* \"#utility.yul\":12542:12547   */\n      0x00\n        /* \"#utility.yul\":12567:12648   */\n      tag_229\n        /* \"#utility.yul\":12583:12647   */\n      tag_230\n        /* \"#utility.yul\":12640:12646   */\n      dup5\n        /* \"#utility.yul\":12583:12647   */\n      tag_101\n      jump\t// in\n    tag_230:\n        /* \"#utility.yul\":12567:12648   */\n      tag_100\n      jump\t// in\n    tag_229:\n        /* \"#utility.yul\":12558:12648   */\n      swap1\n      pop\n        /* \"#utility.yul\":12668:12673   */\n      dup1\n        /* \"#utility.yul\":12697:12703   */\n      dup4\n        /* \"#utility.yul\":12690:12695   */\n      dup3\n        /* \"#utility.yul\":12683:12704   */\n      mstore\n        /* \"#utility.yul\":12731:12735   */\n      0x20\n        /* \"#utility.yul\":12724:12729   */\n      dup3\n        /* \"#utility.yul\":12720:12736   */\n      add\n        /* \"#utility.yul\":12713:12736   */\n      swap1\n      pop\n        /* \"#utility.yul\":12784:12788   */\n      0x20\n        /* \"#utility.yul\":12776:12782   */\n      dup5\n        /* \"#utility.yul\":12772:12789   */\n      mul\n        /* \"#utility.yul\":12764:12770   */\n      dup4\n        /* \"#utility.yul\":12760:12790   */\n      add\n        /* \"#utility.yul\":12813:12816   */\n      dup6\n        /* \"#utility.yul\":12805:12811   */\n      dup2\n        /* \"#utility.yul\":12802:12817   */\n      gt\n        /* \"#utility.yul\":12799:12921   */\n      iszero\n      tag_231\n      jumpi\n        /* \"#utility.yul\":12832:12911   */\n      tag_232\n      tag_102\n      jump\t// in\n    tag_232:\n        /* \"#utility.yul\":12799:12921   */\n    tag_231:\n        /* \"#utility.yul\":12947:12953   */\n      dup4\n        /* \"#utility.yul\":12930:13161   */\n    tag_233:\n        /* \"#utility.yul\":12964:12970   */\n      dup2\n        /* \"#utility.yul\":12959:12962   */\n      dup2\n        /* \"#utility.yul\":12956:12971   */\n      lt\n        /* \"#utility.yul\":12930:13161   */\n      iszero\n      tag_235\n      jumpi\n        /* \"#utility.yul\":13039:13042   */\n      dup1\n        /* \"#utility.yul\":13068:13116   */\n      tag_236\n        /* \"#utility.yul\":13112:13115   */\n      dup9\n        /* \"#utility.yul\":13100:13110   */\n      dup3\n        /* \"#utility.yul\":13068:13116   */\n      tag_89\n      jump\t// in\n    tag_236:\n        /* \"#utility.yul\":13063:13066   */\n      dup5\n        /* \"#utility.yul\":13056:13117   */\n      mstore\n        /* \"#utility.yul\":13146:13150   */\n      0x20\n        /* \"#utility.yul\":13141:13144   */\n      dup5\n        /* \"#utility.yul\":13137:13151   */\n      add\n        /* \"#utility.yul\":13130:13151   */\n      swap4\n      pop\n        /* \"#utility.yul\":13006:13161   */\n      pop\n        /* \"#utility.yul\":12990:12994   */\n      0x20\n        /* \"#utility.yul\":12985:12988   */\n      dup2\n        /* \"#utility.yul\":12981:12995   */\n      add\n        /* \"#utility.yul\":12974:12995   */\n      swap1\n      pop\n        /* \"#utility.yul\":12930:13161   */\n      jump(tag_233)\n    tag_235:\n        /* \"#utility.yul\":12934:12955   */\n      pop\n        /* \"#utility.yul\":12548:13167   */\n      pop\n      pop\n        /* \"#utility.yul\":12435:13167   */\n      swap4\n      swap3\n      pop\n      pop\n      pop\n      jump\t// out\n        /* \"#utility.yul\":13190:13575   */\n    tag_104:\n        /* \"#utility.yul\":13272:13277   */\n      0x00\n        /* \"#utility.yul\":13321:13324   */\n      dup3\n        /* \"#utility.yul\":13314:13318   */\n      0x1f\n        /* \"#utility.yul\":13306:13312   */\n      dup4\n        /* \"#utility.yul\":13302:13319   */\n      add\n        /* \"#utility.yul\":13298:13325   */\n      slt\n        /* \"#utility.yul\":13288:13410   */\n      tag_238\n      jumpi\n        /* \"#utility.yul\":13329:13408   */\n      tag_239\n      tag_97\n      jump\t// in\n    tag_239:\n        /* \"#utility.yul\":13288:13410   */\n    tag_238:\n        /* \"#utility.yul\":13439:13445   */\n      dup2\n        /* \"#utility.yul\":13433:13446   */\n      mload\n        /* \"#utility.yul\":13464:13569   */\n      tag_240\n        /* \"#utility.yul\":13565:13568   */\n      dup5\n        /* \"#utility.yul\":13557:13563   */\n      dup3\n        /* \"#utility.yul\":13550:13554   */\n      0x20\n        /* \"#utility.yul\":13542:13548   */\n      dup7\n        /* \"#utility.yul\":13538:13555   */\n      add\n        /* \"#utility.yul\":13464:13569   */\n      tag_103\n      jump\t// in\n    tag_240:\n        /* \"#utility.yul\":13455:13569   */\n      swap2\n      pop\n        /* \"#utility.yul\":13278:13575   */\n      pop\n        /* \"#utility.yul\":13190:13575   */\n      swap3\n      swap2\n      pop\n      pop\n      jump\t// out\n        /* \"#utility.yul\":13581:14135   */\n    tag_66:\n        /* \"#utility.yul\":13676:13682   */\n      0x00\n        /* \"#utility.yul\":13725:13727   */\n      0x20\n        /* \"#utility.yul\":13713:13722   */\n      dup3\n        /* \"#utility.yul\":13704:13711   */\n      dup5\n        /* \"#utility.yul\":13700:13723   */\n      sub\n        /* \"#utility.yul\":13696:13728   */\n      slt\n        /* \"#utility.yul\":13693:13812   */\n      iszero\n      tag_242\n      jumpi\n        /* \"#utility.yul\":13731:13810   */\n      tag_243\n      tag_68\n      jump\t// in\n    tag_243:\n        /* \"#utility.yul\":13693:13812   */\n    tag_242:\n        /* \"#utility.yul\":13872:13873   */\n      0x00\n        /* \"#utility.yul\":13861:13870   */\n      dup3\n        /* \"#utility.yul\":13857:13874   */\n      add\n        /* \"#utility.yul\":13851:13875   */\n      mload\n        /* \"#utility.yul\":13902:13920   */\n      0xffffffffffffffff\n        /* \"#utility.yul\":13894:13900   */\n      dup2\n        /* \"#utility.yul\":13891:13921   */\n      gt\n        /* \"#utility.yul\":13888:14005   */\n      iszero\n      tag_244\n      jumpi\n        /* \"#utility.yul\":13924:14003   */\n      tag_245\n      tag_69\n      jump\t// in\n    tag_245:\n        /* \"#utility.yul\":13888:14005   */\n    tag_244:\n        /* \"#utility.yul\":14029:14118   */\n      tag_246\n        /* \"#utility.yul\":14110:14117   */\n      dup5\n        /* \"#utility.yul\":14101:14107   */\n      dup3\n        /* \"#utility.yul\":14090:14099   */\n      dup6\n        /* \"#utility.yul\":14086:14108   */\n      add\n        /* \"#utility.yul\":14029:14118   */\n      tag_104\n      jump\t// in\n    tag_246:\n        /* \"#utility.yul\":14019:14118   */\n      swap2\n      pop\n        /* \"#utility.yul\":13822:14128   */\n      pop\n        /* \"#utility.yul\":13581:14135   */\n      swap3\n      swap2\n      pop\n      pop\n      jump\t// out\n\n    auxdata: 0xa264697066735822122035afbc78bee548acf79b3c60fb94127e3f1a0a6514382cbc98d6a51eaa630d6d64736f6c634300080c0033\n}\n",
				"bytecode": {
					"linkReferences": {},
					"object": "6080604052737a250d5630b4cf539739df2c5dacb4c659f2488d6000806101000a81548173ffffffffffffffffffffffffffffffffffffffff021916908373ffffffffffffffffffffffffffffffffffffffff16021790555073c778417e063141139fce010982780140aa0cd5ab600160006101000a81548173ffffffffffffffffffffffffffffffffffffffff021916908373ffffffffffffffffffffffffffffffffffffffff16021790555073fa7b29ac82cc25d50970d7e6d842b0e6a529baee600260006101000a81548173ffffffffffffffffffffffffffffffffffffffff021916908373ffffffffffffffffffffffffffffffffffffffff16021790555073f42a08c0ea66ee4a474336087a6c17e9ea6c9de9600360006101000a81548173ffffffffffffffffffffffffffffffffffffffff021916908373ffffffffffffffffffffffffffffffffffffffff16021790555073d9dfa8c6b37cfdf16668fe0465896f4a1b9b2c4f600460006101000a81548173ffffffffffffffffffffffffffffffffffffffff021916908373ffffffffffffffffffffffffffffffffffffffff16021790555060008054906101000a900473ffffffffffffffffffffffffffffffffffffffff16600560006101000a81548173ffffffffffffffffffffffffffffffffffffffff021916908373ffffffffffffffffffffffffffffffffffffffff160217905550600260009054906101000a900473ffffffffffffffffffffffffffffffffffffffff16600660006101000a81548173ffffffffffffffffffffffffffffffffffffffff021916908373ffffffffffffffffffffffffffffffffffffffff160217905550600460009054906101000a900473ffffffffffffffffffffffffffffffffffffffff16600760006101000a81548173ffffffffffffffffffffffffffffffffffffffff021916908373ffffffffffffffffffffffffffffffffffffffff1602179055503480156102df57600080fd5b50610dab806102ef6000396000f3fe6080604052600436106100345760003560e01c80633ccfd60b14610039578063422f104314610050578063a93f74e01461006c575b600080fd5b34801561004557600080fd5b5061004e610088565b005b61006a60048036038101906100659190610696565b61011a565b005b610086600480360381019061008191906106e9565b61046d565b005b600760009054906101000a900473ffffffffffffffffffffffffffffffffffffffff1673ffffffffffffffffffffffffffffffffffffffff1663441a3e706000806040518363ffffffff1660e01b81526004016100e692919061075b565b600060405180830381600087803b15801561010057600080fd5b505af1158015610114573d6000803e3d6000fd5b50505050565b600660009054906101000a900473ffffffffffffffffffffffffffffffffffffffff1673ffffffffffffffffffffffffffffffffffffffff1663095ea7b3600560009054906101000a900473ffffffffffffffffffffffffffffffffffffffff16856040518363ffffffff1660e01b81526004016101999291906107d4565b6020604051808303816000875af11580156101b8573d6000803e3d6000fd5b505050506040513d601f19601f820116820180604052508101906101dc9190610835565b506000600660009054906101000a900473ffffffffffffffffffffffffffffffffffffffff1673ffffffffffffffffffffffffffffffffffffffff166323b872dd3330876040518463ffffffff1660e01b815260040161023e93929190610862565b6020604051808303816000875af115801561025d573d6000803e3d6000fd5b505050506040513d601f19601f820116820180604052508101906102819190610835565b9050806102c3576040517f08c379a00000000000000000000000000000000000000000000000000000000081526004016102ba906108f6565b60405180910390fd5b813411610305576040517f08c379a00000000000000000000000000000000000000000000000000000000081526004016102fc90610988565b60405180910390fd5b6000600560009054906101000a900473ffffffffffffffffffffffffffffffffffffffff1673ffffffffffffffffffffffffffffffffffffffff1663f305d71934600260009054906101000a900473ffffffffffffffffffffffffffffffffffffffff1688888833426040518863ffffffff1660e01b815260040161038f969594939291906109a8565b60606040518083038185885af11580156103ad573d6000803e3d6000fd5b50505050506040513d601f19601f820116820180604052508101906103d29190610a1e565b50509050600760009054906101000a900473ffffffffffffffffffffffffffffffffffffffff1673ffffffffffffffffffffffffffffffffffffffff1663e2bbb1586000836040518363ffffffff1660e01b8152600401610434929190610a71565b600060405180830381600087803b15801561044e57600080fd5b505af1158015610462573d6000803e3d6000fd5b505050505050505050565b6000600267ffffffffffffffff81111561048a57610489610a9a565b5b6040519080825280602002602001820160405280156104b85781602001602082028036833780820191505090505b509050600160009054906101000a900473ffffffffffffffffffffffffffffffffffffffff16816000815181106104f2576104f1610ac9565b5b602002602001019073ffffffffffffffffffffffffffffffffffffffff16908173ffffffffffffffffffffffffffffffffffffffff1681525050600260009054906101000a900473ffffffffffffffffffffffffffffffffffffffff168160018151811061056357610562610ac9565b5b602002602001019073ffffffffffffffffffffffffffffffffffffffff16908173ffffffffffffffffffffffffffffffffffffffff1681525050600560009054906101000a900473ffffffffffffffffffffffffffffffffffffffff1673ffffffffffffffffffffffffffffffffffffffff16637ff36ab534848433426040518663ffffffff1660e01b81526004016105ff9493929190610bb6565b60006040518083038185885af115801561061d573d6000803e3d6000fd5b50505050506040513d6000823e3d601f19601f820116820180604052508101906106479190610d2c565b505050565b6000604051905090565b600080fd5b600080fd5b6000819050919050565b61067381610660565b811461067e57600080fd5b50565b6000813590506106908161066a565b92915050565b6000806000606084860312156106af576106ae610656565b5b60006106bd86828701610681565b93505060206106ce86828701610681565b92505060406106df86828701610681565b9150509250925092565b6000602082840312156106ff576106fe610656565b5b600061070d84828501610681565b91505092915050565b6000819050919050565b6000819050919050565b600061074561074061073b84610716565b610720565b610660565b9050919050565b6107558161072a565b82525050565b6000604082019050610770600083018561074c565b61077d602083018461074c565b9392505050565b600073ffffffffffffffffffffffffffffffffffffffff82169050919050565b60006107af82610784565b9050919050565b6107bf816107a4565b82525050565b6107ce81610660565b82525050565b60006040820190506107e960008301856107b6565b6107f660208301846107c5565b9392505050565b60008115159050919050565b610812816107fd565b811461081d57600080fd5b50565b60008151905061082f81610809565b92915050565b60006020828403121561084b5761084a610656565b5b600061085984828501610820565b91505092915050565b600060608201905061087760008301866107b6565b61088460208301856107b6565b61089160408301846107c5565b949350505050565b600082825260208201905092915050565b7f6d746f6b656e207472616e73666572206572726f722100000000000000000000600082015250565b60006108e0601683610899565b91506108eb826108aa565b602082019050919050565b6000602082019050818103600083015261090f816108d3565b9050919050565b7f6d73672e76616c75652073686f756c642062696767676572207468616e20616d60008201527f6f756e744554484d696e00000000000000000000000000000000000000000000602082015250565b6000610972602a83610899565b915061097d82610916565b604082019050919050565b600060208201905081810360008301526109a181610965565b9050919050565b600060c0820190506109bd60008301896107b6565b6109ca60208301886107c5565b6109d760408301876107c5565b6109e460608301866107c5565b6109f160808301856107b6565b6109fe60a08301846107c5565b979650505050505050565b600081519050610a188161066a565b92915050565b600080600060608486031215610a3757610a36610656565b5b6000610a4586828701610a09565b9350506020610a5686828701610a09565b9250506040610a6786828701610a09565b9150509250925092565b6000604082019050610a86600083018561074c565b610a9360208301846107c5565b9392505050565b7f4e487b7100000000000000000000000000000000000000000000000000000000600052604160045260246000fd5b7f4e487b7100000000000000000000000000000000000000000000000000000000600052603260045260246000fd5b600081519050919050565b600082825260208201905092915050565b6000819050602082019050919050565b610b2d816107a4565b82525050565b6000610b3f8383610b24565b60208301905092915050565b6000602082019050919050565b6000610b6382610af8565b610b6d8185610b03565b9350610b7883610b14565b8060005b83811015610ba9578151610b908882610b33565b9750610b9b83610b4b565b925050600181019050610b7c565b5085935050505092915050565b6000608082019050610bcb60008301876107c5565b8181036020830152610bdd8186610b58565b9050610bec60408301856107b6565b610bf960608301846107c5565b95945050505050565b600080fd5b6000601f19601f8301169050919050565b610c2182610c07565b810181811067ffffffffffffffff82111715610c4057610c3f610a9a565b5b80604052505050565b6000610c5361064c565b9050610c5f8282610c18565b919050565b600067ffffffffffffffff821115610c7f57610c7e610a9a565b5b602082029050602081019050919050565b600080fd5b6000610ca8610ca384610c64565b610c49565b90508083825260208201905060208402830185811115610ccb57610cca610c90565b5b835b81811015610cf45780610ce08882610a09565b845260208401935050602081019050610ccd565b5050509392505050565b600082601f830112610d1357610d12610c02565b5b8151610d23848260208601610c95565b91505092915050565b600060208284031215610d4257610d41610656565b5b600082015167ffffffffffffffff811115610d6057610d5f61065b565b5b610d6c84828501610cfe565b9150509291505056fea264697066735822122035afbc78bee548acf79b3c60fb94127e3f1a0a6514382cbc98d6a51eaa630d6d64736f6c634300080c0033",
					"opcodes": "PUSH1 0x80 PUSH1 0x40 MSTORE PUSH20 0x7A250D5630B4CF539739DF2C5DACB4C659F2488D PUSH1 0x0 DUP1 PUSH2 0x100 EXP DUP2 SLOAD DUP2 PUSH20 0xFFFFFFFFFFFFFFFFFFFFFFFFFFFFFFFFFFFFFFFF MUL NOT AND SWAP1 DUP4 PUSH20 0xFFFFFFFFFFFFFFFFFFFFFFFFFFFFFFFFFFFFFFFF AND MUL OR SWAP1 SSTORE POP PUSH20 0xC778417E063141139FCE010982780140AA0CD5AB PUSH1 0x1 PUSH1 0x0 PUSH2 0x100 EXP DUP2 SLOAD DUP2 PUSH20 0xFFFFFFFFFFFFFFFFFFFFFFFFFFFFFFFFFFFFFFFF MUL NOT AND SWAP1 DUP4 PUSH20 0xFFFFFFFFFFFFFFFFFFFFFFFFFFFFFFFFFFFFFFFF AND MUL OR SWAP1 SSTORE POP PUSH20 0xFA7B29AC82CC25D50970D7E6D842B0E6A529BAEE PUSH1 0x2 PUSH1 0x0 PUSH2 0x100 EXP DUP2 SLOAD DUP2 PUSH20 0xFFFFFFFFFFFFFFFFFFFFFFFFFFFFFFFFFFFFFFFF MUL NOT AND SWAP1 DUP4 PUSH20 0xFFFFFFFFFFFFFFFFFFFFFFFFFFFFFFFFFFFFFFFF AND MUL OR SWAP1 SSTORE POP PUSH20 0xF42A08C0EA66EE4A474336087A6C17E9EA6C9DE9 PUSH1 0x3 PUSH1 0x0 PUSH2 0x100 EXP DUP2 SLOAD DUP2 PUSH20 0xFFFFFFFFFFFFFFFFFFFFFFFFFFFFFFFFFFFFFFFF MUL NOT AND SWAP1 DUP4 PUSH20 0xFFFFFFFFFFFFFFFFFFFFFFFFFFFFFFFFFFFFFFFF AND MUL OR SWAP1 SSTORE POP PUSH20 0xD9DFA8C6B37CFDF16668FE0465896F4A1B9B2C4F PUSH1 0x4 PUSH1 0x0 PUSH2 0x100 EXP DUP2 SLOAD DUP2 PUSH20 0xFFFFFFFFFFFFFFFFFFFFFFFFFFFFFFFFFFFFFFFF MUL NOT AND SWAP1 DUP4 PUSH20 0xFFFFFFFFFFFFFFFFFFFFFFFFFFFFFFFFFFFFFFFF AND MUL OR SWAP1 SSTORE POP PUSH1 0x0 DUP1 SLOAD SWAP1 PUSH2 0x100 EXP SWAP1 DIV PUSH20 0xFFFFFFFFFFFFFFFFFFFFFFFFFFFFFFFFFFFFFFFF AND PUSH1 0x5 PUSH1 0x0 PUSH2 0x100 EXP DUP2 SLOAD DUP2 PUSH20 0xFFFFFFFFFFFFFFFFFFFFFFFFFFFFFFFFFFFFFFFF MUL NOT AND SWAP1 DUP4 PUSH20 0xFFFFFFFFFFFFFFFFFFFFFFFFFFFFFFFFFFFFFFFF AND MUL OR SWAP1 SSTORE POP PUSH1 0x2 PUSH1 0x0 SWAP1 SLOAD SWAP1 PUSH2 0x100 EXP SWAP1 DIV PUSH20 0xFFFFFFFFFFFFFFFFFFFFFFFFFFFFFFFFFFFFFFFF AND PUSH1 0x6 PUSH1 0x0 PUSH2 0x100 EXP DUP2 SLOAD DUP2 PUSH20 0xFFFFFFFFFFFFFFFFFFFFFFFFFFFFFFFFFFFFFFFF MUL NOT AND SWAP1 DUP4 PUSH20 0xFFFFFFFFFFFFFFFFFFFFFFFFFFFFFFFFFFFFFFFF AND MUL OR SWAP1 SSTORE POP PUSH1 0x4 PUSH1 0x0 SWAP1 SLOAD SWAP1 PUSH2 0x100 EXP SWAP1 DIV PUSH20 0xFFFFFFFFFFFFFFFFFFFFFFFFFFFFFFFFFFFFFFFF AND PUSH1 0x7 PUSH1 0x0 PUSH2 0x100 EXP DUP2 SLOAD DUP2 PUSH20 0xFFFFFFFFFFFFFFFFFFFFFFFFFFFFFFFFFFFFFFFF MUL NOT AND SWAP1 DUP4 PUSH20 0xFFFFFFFFFFFFFFFFFFFFFFFFFFFFFFFFFFFFFFFF AND MUL OR SWAP1 SSTORE POP CALLVALUE DUP1 ISZERO PUSH2 0x2DF JUMPI PUSH1 0x0 DUP1 REVERT JUMPDEST POP PUSH2 0xDAB DUP1 PUSH2 0x2EF PUSH1 0x0 CODECOPY PUSH1 0x0 RETURN INVALID PUSH1 0x80 PUSH1 0x40 MSTORE PUSH1 0x4 CALLDATASIZE LT PUSH2 0x34 JUMPI PUSH1 0x0 CALLDATALOAD PUSH1 0xE0 SHR DUP1 PUSH4 0x3CCFD60B EQ PUSH2 0x39 JUMPI DUP1 PUSH4 0x422F1043 EQ PUSH2 0x50 JUMPI DUP1 PUSH4 0xA93F74E0 EQ PUSH2 0x6C JUMPI JUMPDEST PUSH1 0x0 DUP1 REVERT JUMPDEST CALLVALUE DUP1 ISZERO PUSH2 0x45 JUMPI PUSH1 0x0 DUP1 REVERT JUMPDEST POP PUSH2 0x4E PUSH2 0x88 JUMP JUMPDEST STOP JUMPDEST PUSH2 0x6A PUSH1 0x4 DUP1 CALLDATASIZE SUB DUP2 ADD SWAP1 PUSH2 0x65 SWAP2 SWAP1 PUSH2 0x696 JUMP JUMPDEST PUSH2 0x11A JUMP JUMPDEST STOP JUMPDEST PUSH2 0x86 PUSH1 0x4 DUP1 CALLDATASIZE SUB DUP2 ADD SWAP1 PUSH2 0x81 SWAP2 SWAP1 PUSH2 0x6E9 JUMP JUMPDEST PUSH2 0x46D JUMP JUMPDEST STOP JUMPDEST PUSH1 0x7 PUSH1 0x0 SWAP1 SLOAD SWAP1 PUSH2 0x100 EXP SWAP1 DIV PUSH20 0xFFFFFFFFFFFFFFFFFFFFFFFFFFFFFFFFFFFFFFFF AND PUSH20 0xFFFFFFFFFFFFFFFFFFFFFFFFFFFFFFFFFFFFFFFF AND PUSH4 0x441A3E70 PUSH1 0x0 DUP1 PUSH1 0x40 MLOAD DUP4 PUSH4 0xFFFFFFFF AND PUSH1 0xE0 SHL DUP2 MSTORE PUSH1 0x4 ADD PUSH2 0xE6 SWAP3 SWAP2 SWAP1 PUSH2 0x75B JUMP JUMPDEST PUSH1 0x0 PUSH1 0x40 MLOAD DUP1 DUP4 SUB DUP2 PUSH1 0x0 DUP8 DUP1 EXTCODESIZE ISZERO DUP1 ISZERO PUSH2 0x100 JUMPI PUSH1 0x0 DUP1 REVERT JUMPDEST POP GAS CALL ISZERO DUP1 ISZERO PUSH2 0x114 JUMPI RETURNDATASIZE PUSH1 0x0 DUP1 RETURNDATACOPY RETURNDATASIZE PUSH1 0x0 REVERT JUMPDEST POP POP POP POP JUMP JUMPDEST PUSH1 0x6 PUSH1 0x0 SWAP1 SLOAD SWAP1 PUSH2 0x100 EXP SWAP1 DIV PUSH20 0xFFFFFFFFFFFFFFFFFFFFFFFFFFFFFFFFFFFFFFFF AND PUSH20 0xFFFFFFFFFFFFFFFFFFFFFFFFFFFFFFFFFFFFFFFF AND PUSH4 0x95EA7B3 PUSH1 0x5 PUSH1 0x0 SWAP1 SLOAD SWAP1 PUSH2 0x100 EXP SWAP1 DIV PUSH20 0xFFFFFFFFFFFFFFFFFFFFFFFFFFFFFFFFFFFFFFFF AND DUP6 PUSH1 0x40 MLOAD DUP4 PUSH4 0xFFFFFFFF AND PUSH1 0xE0 SHL DUP2 MSTORE PUSH1 0x4 ADD PUSH2 0x199 SWAP3 SWAP2 SWAP1 PUSH2 0x7D4 JUMP JUMPDEST PUSH1 0x20 PUSH1 0x40 MLOAD DUP1 DUP4 SUB DUP2 PUSH1 0x0 DUP8 GAS CALL ISZERO DUP1 ISZERO PUSH2 0x1B8 JUMPI RETURNDATASIZE PUSH1 0x0 DUP1 RETURNDATACOPY RETURNDATASIZE PUSH1 0x0 REVERT JUMPDEST POP POP POP POP PUSH1 0x40 MLOAD RETURNDATASIZE PUSH1 0x1F NOT PUSH1 0x1F DUP3 ADD AND DUP3 ADD DUP1 PUSH1 0x40 MSTORE POP DUP2 ADD SWAP1 PUSH2 0x1DC SWAP2 SWAP1 PUSH2 0x835 JUMP JUMPDEST POP PUSH1 0x0 PUSH1 0x6 PUSH1 0x0 SWAP1 SLOAD SWAP1 PUSH2 0x100 EXP SWAP1 DIV PUSH20 0xFFFFFFFFFFFFFFFFFFFFFFFFFFFFFFFFFFFFFFFF AND PUSH20 0xFFFFFFFFFFFFFFFFFFFFFFFFFFFFFFFFFFFFFFFF AND PUSH4 0x23B872DD CALLER ADDRESS DUP8 PUSH1 0x40 MLOAD DUP5 PUSH4 0xFFFFFFFF AND PUSH1 0xE0 SHL DUP2 MSTORE PUSH1 0x4 ADD PUSH2 0x23E SWAP4 SWAP3 SWAP2 SWAP1 PUSH2 0x862 JUMP JUMPDEST PUSH1 0x20 PUSH1 0x40 MLOAD DUP1 DUP4 SUB DUP2 PUSH1 0x0 DUP8 GAS CALL ISZERO DUP1 ISZERO PUSH2 0x25D JUMPI RETURNDATASIZE PUSH1 0x0 DUP1 RETURNDATACOPY RETURNDATASIZE PUSH1 0x0 REVERT JUMPDEST POP POP POP POP PUSH1 0x40 MLOAD RETURNDATASIZE PUSH1 0x1F NOT PUSH1 0x1F DUP3 ADD AND DUP3 ADD DUP1 PUSH1 0x40 MSTORE POP DUP2 ADD SWAP1 PUSH2 0x281 SWAP2 SWAP1 PUSH2 0x835 JUMP JUMPDEST SWAP1 POP DUP1 PUSH2 0x2C3 JUMPI PUSH1 0x40 MLOAD PUSH32 0x8C379A000000000000000000000000000000000000000000000000000000000 DUP2 MSTORE PUSH1 0x4 ADD PUSH2 0x2BA SWAP1 PUSH2 0x8F6 JUMP JUMPDEST PUSH1 0x40 MLOAD DUP1 SWAP2 SUB SWAP1 REVERT JUMPDEST DUP2 CALLVALUE GT PUSH2 0x305 JUMPI PUSH1 0x40 MLOAD PUSH32 0x8C379A000000000000000000000000000000000000000000000000000000000 DUP2 MSTORE PUSH1 0x4 ADD PUSH2 0x2FC SWAP1 PUSH2 0x988 JUMP JUMPDEST PUSH1 0x40 MLOAD DUP1 SWAP2 SUB SWAP1 REVERT JUMPDEST PUSH1 0x0 PUSH1 0x5 PUSH1 0x0 SWAP1 SLOAD SWAP1 PUSH2 0x100 EXP SWAP1 DIV PUSH20 0xFFFFFFFFFFFFFFFFFFFFFFFFFFFFFFFFFFFFFFFF AND PUSH20 0xFFFFFFFFFFFFFFFFFFFFFFFFFFFFFFFFFFFFFFFF AND PUSH4 0xF305D719 CALLVALUE PUSH1 0x2 PUSH1 0x0 SWAP1 SLOAD SWAP1 PUSH2 0x100 EXP SWAP1 DIV PUSH20 0xFFFFFFFFFFFFFFFFFFFFFFFFFFFFFFFFFFFFFFFF AND DUP9 DUP9 DUP9 CALLER TIMESTAMP PUSH1 0x40 MLOAD DUP9 PUSH4 0xFFFFFFFF AND PUSH1 0xE0 SHL DUP2 MSTORE PUSH1 0x4 ADD PUSH2 0x38F SWAP7 SWAP6 SWAP5 SWAP4 SWAP3 SWAP2 SWAP1 PUSH2 0x9A8 JUMP JUMPDEST PUSH1 0x60 PUSH1 0x40 MLOAD DUP1 DUP4 SUB DUP2 DUP6 DUP9 GAS CALL ISZERO DUP1 ISZERO PUSH2 0x3AD JUMPI RETURNDATASIZE PUSH1 0x0 DUP1 RETURNDATACOPY RETURNDATASIZE PUSH1 0x0 REVERT JUMPDEST POP POP POP POP POP PUSH1 0x40 MLOAD RETURNDATASIZE PUSH1 0x1F NOT PUSH1 0x1F DUP3 ADD AND DUP3 ADD DUP1 PUSH1 0x40 MSTORE POP DUP2 ADD SWAP1 PUSH2 0x3D2 SWAP2 SWAP1 PUSH2 0xA1E JUMP JUMPDEST POP POP SWAP1 POP PUSH1 0x7 PUSH1 0x0 SWAP1 SLOAD SWAP1 PUSH2 0x100 EXP SWAP1 DIV PUSH20 0xFFFFFFFFFFFFFFFFFFFFFFFFFFFFFFFFFFFFFFFF AND PUSH20 0xFFFFFFFFFFFFFFFFFFFFFFFFFFFFFFFFFFFFFFFF AND PUSH4 0xE2BBB158 PUSH1 0x0 DUP4 PUSH1 0x40 MLOAD DUP4 PUSH4 0xFFFFFFFF AND PUSH1 0xE0 SHL DUP2 MSTORE PUSH1 0x4 ADD PUSH2 0x434 SWAP3 SWAP2 SWAP1 PUSH2 0xA71 JUMP JUMPDEST PUSH1 0x0 PUSH1 0x40 MLOAD DUP1 DUP4 SUB DUP2 PUSH1 0x0 DUP8 DUP1 EXTCODESIZE ISZERO DUP1 ISZERO PUSH2 0x44E JUMPI PUSH1 0x0 DUP1 REVERT JUMPDEST POP GAS CALL ISZERO DUP1 ISZERO PUSH2 0x462 JUMPI RETURNDATASIZE PUSH1 0x0 DUP1 RETURNDATACOPY RETURNDATASIZE PUSH1 0x0 REVERT JUMPDEST POP POP POP POP POP POP POP POP POP JUMP JUMPDEST PUSH1 0x0 PUSH1 0x2 PUSH8 0xFFFFFFFFFFFFFFFF DUP2 GT ISZERO PUSH2 0x48A JUMPI PUSH2 0x489 PUSH2 0xA9A JUMP JUMPDEST JUMPDEST PUSH1 0x40 MLOAD SWAP1 DUP1 DUP3 MSTORE DUP1 PUSH1 0x20 MUL PUSH1 0x20 ADD DUP3 ADD PUSH1 0x40 MSTORE DUP1 ISZERO PUSH2 0x4B8 JUMPI DUP2 PUSH1 0x20 ADD PUSH1 0x20 DUP3 MUL DUP1 CALLDATASIZE DUP4 CALLDATACOPY DUP1 DUP3 ADD SWAP2 POP POP SWAP1 POP JUMPDEST POP SWAP1 POP PUSH1 0x1 PUSH1 0x0 SWAP1 SLOAD SWAP1 PUSH2 0x100 EXP SWAP1 DIV PUSH20 0xFFFFFFFFFFFFFFFFFFFFFFFFFFFFFFFFFFFFFFFF AND DUP2 PUSH1 0x0 DUP2 MLOAD DUP2 LT PUSH2 0x4F2 JUMPI PUSH2 0x4F1 PUSH2 0xAC9 JUMP JUMPDEST JUMPDEST PUSH1 0x20 MUL PUSH1 0x20 ADD ADD SWAP1 PUSH20 0xFFFFFFFFFFFFFFFFFFFFFFFFFFFFFFFFFFFFFFFF AND SWAP1 DUP2 PUSH20 0xFFFFFFFFFFFFFFFFFFFFFFFFFFFFFFFFFFFFFFFF AND DUP2 MSTORE POP POP PUSH1 0x2 PUSH1 0x0 SWAP1 SLOAD SWAP1 PUSH2 0x100 EXP SWAP1 DIV PUSH20 0xFFFFFFFFFFFFFFFFFFFFFFFFFFFFFFFFFFFFFFFF AND DUP2 PUSH1 0x1 DUP2 MLOAD DUP2 LT PUSH2 0x563 JUMPI PUSH2 0x562 PUSH2 0xAC9 JUMP JUMPDEST JUMPDEST PUSH1 0x20 MUL PUSH1 0x20 ADD ADD SWAP1 PUSH20 0xFFFFFFFFFFFFFFFFFFFFFFFFFFFFFFFFFFFFFFFF AND SWAP1 DUP2 PUSH20 0xFFFFFFFFFFFFFFFFFFFFFFFFFFFFFFFFFFFFFFFF AND DUP2 MSTORE POP POP PUSH1 0x5 PUSH1 0x0 SWAP1 SLOAD SWAP1 PUSH2 0x100 EXP SWAP1 DIV PUSH20 0xFFFFFFFFFFFFFFFFFFFFFFFFFFFFFFFFFFFFFFFF AND PUSH20 0xFFFFFFFFFFFFFFFFFFFFFFFFFFFFFFFFFFFFFFFF AND PUSH4 0x7FF36AB5 CALLVALUE DUP5 DUP5 CALLER TIMESTAMP PUSH1 0x40 MLOAD DUP7 PUSH4 0xFFFFFFFF AND PUSH1 0xE0 SHL DUP2 MSTORE PUSH1 0x4 ADD PUSH2 0x5FF SWAP5 SWAP4 SWAP3 SWAP2 SWAP1 PUSH2 0xBB6 JUMP JUMPDEST PUSH1 0x0 PUSH1 0x40 MLOAD DUP1 DUP4 SUB DUP2 DUP6 DUP9 GAS CALL ISZERO DUP1 ISZERO PUSH2 0x61D JUMPI RETURNDATASIZE PUSH1 0x0 DUP1 RETURNDATACOPY RETURNDATASIZE PUSH1 0x0 REVERT JUMPDEST POP POP POP POP POP PUSH1 0x40 MLOAD RETURNDATASIZE PUSH1 0x0 DUP3 RETURNDATACOPY RETURNDATASIZE PUSH1 0x1F NOT PUSH1 0x1F DUP3 ADD AND DUP3 ADD DUP1 PUSH1 0x40 MSTORE POP DUP2 ADD SWAP1 PUSH2 0x647 SWAP2 SWAP1 PUSH2 0xD2C JUMP JUMPDEST POP POP POP JUMP JUMPDEST PUSH1 0x0 PUSH1 0x40 MLOAD SWAP1 POP SWAP1 JUMP JUMPDEST PUSH1 0x0 DUP1 REVERT JUMPDEST PUSH1 0x0 DUP1 REVERT JUMPDEST PUSH1 0x0 DUP2 SWAP1 POP SWAP2 SWAP1 POP JUMP JUMPDEST PUSH2 0x673 DUP2 PUSH2 0x660 JUMP JUMPDEST DUP2 EQ PUSH2 0x67E JUMPI PUSH1 0x0 DUP1 REVERT JUMPDEST POP JUMP JUMPDEST PUSH1 0x0 DUP2 CALLDATALOAD SWAP1 POP PUSH2 0x690 DUP2 PUSH2 0x66A JUMP JUMPDEST SWAP3 SWAP2 POP POP JUMP JUMPDEST PUSH1 0x0 DUP1 PUSH1 0x0 PUSH1 0x60 DUP5 DUP7 SUB SLT ISZERO PUSH2 0x6AF JUMPI PUSH2 0x6AE PUSH2 0x656 JUMP JUMPDEST JUMPDEST PUSH1 0x0 PUSH2 0x6BD DUP7 DUP3 DUP8 ADD PUSH2 0x681 JUMP JUMPDEST SWAP4 POP POP PUSH1 0x20 PUSH2 0x6CE DUP7 DUP3 DUP8 ADD PUSH2 0x681 JUMP JUMPDEST SWAP3 POP POP PUSH1 0x40 PUSH2 0x6DF DUP7 DUP3 DUP8 ADD PUSH2 0x681 JUMP JUMPDEST SWAP2 POP POP SWAP3 POP SWAP3 POP SWAP3 JUMP JUMPDEST PUSH1 0x0 PUSH1 0x20 DUP3 DUP5 SUB SLT ISZERO PUSH2 0x6FF JUMPI PUSH2 0x6FE PUSH2 0x656 JUMP JUMPDEST JUMPDEST PUSH1 0x0 PUSH2 0x70D DUP5 DUP3 DUP6 ADD PUSH2 0x681 JUMP JUMPDEST SWAP2 POP POP SWAP3 SWAP2 POP POP JUMP JUMPDEST PUSH1 0x0 DUP2 SWAP1 POP SWAP2 SWAP1 POP JUMP JUMPDEST PUSH1 0x0 DUP2 SWAP1 POP SWAP2 SWAP1 POP JUMP JUMPDEST PUSH1 0x0 PUSH2 0x745 PUSH2 0x740 PUSH2 0x73B DUP5 PUSH2 0x716 JUMP JUMPDEST PUSH2 0x720 JUMP JUMPDEST PUSH2 0x660 JUMP JUMPDEST SWAP1 POP SWAP2 SWAP1 POP JUMP JUMPDEST PUSH2 0x755 DUP2 PUSH2 0x72A JUMP JUMPDEST DUP3 MSTORE POP POP JUMP JUMPDEST PUSH1 0x0 PUSH1 0x40 DUP3 ADD SWAP1 POP PUSH2 0x770 PUSH1 0x0 DUP4 ADD DUP6 PUSH2 0x74C JUMP JUMPDEST PUSH2 0x77D PUSH1 0x20 DUP4 ADD DUP5 PUSH2 0x74C JUMP JUMPDEST SWAP4 SWAP3 POP POP POP JUMP JUMPDEST PUSH1 0x0 PUSH20 0xFFFFFFFFFFFFFFFFFFFFFFFFFFFFFFFFFFFFFFFF DUP3 AND SWAP1 POP SWAP2 SWAP1 POP JUMP JUMPDEST PUSH1 0x0 PUSH2 0x7AF DUP3 PUSH2 0x784 JUMP JUMPDEST SWAP1 POP SWAP2 SWAP1 POP JUMP JUMPDEST PUSH2 0x7BF DUP2 PUSH2 0x7A4 JUMP JUMPDEST DUP3 MSTORE POP POP JUMP JUMPDEST PUSH2 0x7CE DUP2 PUSH2 0x660 JUMP JUMPDEST DUP3 MSTORE POP POP JUMP JUMPDEST PUSH1 0x0 PUSH1 0x40 DUP3 ADD SWAP1 POP PUSH2 0x7E9 PUSH1 0x0 DUP4 ADD DUP6 PUSH2 0x7B6 JUMP JUMPDEST PUSH2 0x7F6 PUSH1 0x20 DUP4 ADD DUP5 PUSH2 0x7C5 JUMP JUMPDEST SWAP4 SWAP3 POP POP POP JUMP JUMPDEST PUSH1 0x0 DUP2 ISZERO ISZERO SWAP1 POP SWAP2 SWAP1 POP JUMP JUMPDEST PUSH2 0x812 DUP2 PUSH2 0x7FD JUMP JUMPDEST DUP2 EQ PUSH2 0x81D JUMPI PUSH1 0x0 DUP1 REVERT JUMPDEST POP JUMP JUMPDEST PUSH1 0x0 DUP2 MLOAD SWAP1 POP PUSH2 0x82F DUP2 PUSH2 0x809 JUMP JUMPDEST SWAP3 SWAP2 POP POP JUMP JUMPDEST PUSH1 0x0 PUSH1 0x20 DUP3 DUP5 SUB SLT ISZERO PUSH2 0x84B JUMPI PUSH2 0x84A PUSH2 0x656 JUMP JUMPDEST JUMPDEST PUSH1 0x0 PUSH2 0x859 DUP5 DUP3 DUP6 ADD PUSH2 0x820 JUMP JUMPDEST SWAP2 POP POP SWAP3 SWAP2 POP POP JUMP JUMPDEST PUSH1 0x0 PUSH1 0x60 DUP3 ADD SWAP1 POP PUSH2 0x877 PUSH1 0x0 DUP4 ADD DUP7 PUSH2 0x7B6 JUMP JUMPDEST PUSH2 0x884 PUSH1 0x20 DUP4 ADD DUP6 PUSH2 0x7B6 JUMP JUMPDEST PUSH2 0x891 PUSH1 0x40 DUP4 ADD DUP5 PUSH2 0x7C5 JUMP JUMPDEST SWAP5 SWAP4 POP POP POP POP JUMP JUMPDEST PUSH1 0x0 DUP3 DUP3 MSTORE PUSH1 0x20 DUP3 ADD SWAP1 POP SWAP3 SWAP2 POP POP JUMP JUMPDEST PUSH32 0x6D746F6B656E207472616E73666572206572726F722100000000000000000000 PUSH1 0x0 DUP3 ADD MSTORE POP JUMP JUMPDEST PUSH1 0x0 PUSH2 0x8E0 PUSH1 0x16 DUP4 PUSH2 0x899 JUMP JUMPDEST SWAP2 POP PUSH2 0x8EB DUP3 PUSH2 0x8AA JUMP JUMPDEST PUSH1 0x20 DUP3 ADD SWAP1 POP SWAP2 SWAP1 POP JUMP JUMPDEST PUSH1 0x0 PUSH1 0x20 DUP3 ADD SWAP1 POP DUP2 DUP2 SUB PUSH1 0x0 DUP4 ADD MSTORE PUSH2 0x90F DUP2 PUSH2 0x8D3 JUMP JUMPDEST SWAP1 POP SWAP2 SWAP1 POP JUMP JUMPDEST PUSH32 0x6D73672E76616C75652073686F756C642062696767676572207468616E20616D PUSH1 0x0 DUP3 ADD MSTORE PUSH32 0x6F756E744554484D696E00000000000000000000000000000000000000000000 PUSH1 0x20 DUP3 ADD MSTORE POP JUMP JUMPDEST PUSH1 0x0 PUSH2 0x972 PUSH1 0x2A DUP4 PUSH2 0x899 JUMP JUMPDEST SWAP2 POP PUSH2 0x97D DUP3 PUSH2 0x916 JUMP JUMPDEST PUSH1 0x40 DUP3 ADD SWAP1 POP SWAP2 SWAP1 POP JUMP JUMPDEST PUSH1 0x0 PUSH1 0x20 DUP3 ADD SWAP1 POP DUP2 DUP2 SUB PUSH1 0x0 DUP4 ADD MSTORE PUSH2 0x9A1 DUP2 PUSH2 0x965 JUMP JUMPDEST SWAP1 POP SWAP2 SWAP1 POP JUMP JUMPDEST PUSH1 0x0 PUSH1 0xC0 DUP3 ADD SWAP1 POP PUSH2 0x9BD PUSH1 0x0 DUP4 ADD DUP10 PUSH2 0x7B6 JUMP JUMPDEST PUSH2 0x9CA PUSH1 0x20 DUP4 ADD DUP9 PUSH2 0x7C5 JUMP JUMPDEST PUSH2 0x9D7 PUSH1 0x40 DUP4 ADD DUP8 PUSH2 0x7C5 JUMP JUMPDEST PUSH2 0x9E4 PUSH1 0x60 DUP4 ADD DUP7 PUSH2 0x7C5 JUMP JUMPDEST PUSH2 0x9F1 PUSH1 0x80 DUP4 ADD DUP6 PUSH2 0x7B6 JUMP JUMPDEST PUSH2 0x9FE PUSH1 0xA0 DUP4 ADD DUP5 PUSH2 0x7C5 JUMP JUMPDEST SWAP8 SWAP7 POP POP POP POP POP POP POP JUMP JUMPDEST PUSH1 0x0 DUP2 MLOAD SWAP1 POP PUSH2 0xA18 DUP2 PUSH2 0x66A JUMP JUMPDEST SWAP3 SWAP2 POP POP JUMP JUMPDEST PUSH1 0x0 DUP1 PUSH1 0x0 PUSH1 0x60 DUP5 DUP7 SUB SLT ISZERO PUSH2 0xA37 JUMPI PUSH2 0xA36 PUSH2 0x656 JUMP JUMPDEST JUMPDEST PUSH1 0x0 PUSH2 0xA45 DUP7 DUP3 DUP8 ADD PUSH2 0xA09 JUMP JUMPDEST SWAP4 POP POP PUSH1 0x20 PUSH2 0xA56 DUP7 DUP3 DUP8 ADD PUSH2 0xA09 JUMP JUMPDEST SWAP3 POP POP PUSH1 0x40 PUSH2 0xA67 DUP7 DUP3 DUP8 ADD PUSH2 0xA09 JUMP JUMPDEST SWAP2 POP POP SWAP3 POP SWAP3 POP SWAP3 JUMP JUMPDEST PUSH1 0x0 PUSH1 0x40 DUP3 ADD SWAP1 POP PUSH2 0xA86 PUSH1 0x0 DUP4 ADD DUP6 PUSH2 0x74C JUMP JUMPDEST PUSH2 0xA93 PUSH1 0x20 DUP4 ADD DUP5 PUSH2 0x7C5 JUMP JUMPDEST SWAP4 SWAP3 POP POP POP JUMP JUMPDEST PUSH32 0x4E487B7100000000000000000000000000000000000000000000000000000000 PUSH1 0x0 MSTORE PUSH1 0x41 PUSH1 0x4 MSTORE PUSH1 0x24 PUSH1 0x0 REVERT JUMPDEST PUSH32 0x4E487B7100000000000000000000000000000000000000000000000000000000 PUSH1 0x0 MSTORE PUSH1 0x32 PUSH1 0x4 MSTORE PUSH1 0x24 PUSH1 0x0 REVERT JUMPDEST PUSH1 0x0 DUP2 MLOAD SWAP1 POP SWAP2 SWAP1 POP JUMP JUMPDEST PUSH1 0x0 DUP3 DUP3 MSTORE PUSH1 0x20 DUP3 ADD SWAP1 POP SWAP3 SWAP2 POP POP JUMP JUMPDEST PUSH1 0x0 DUP2 SWAP1 POP PUSH1 0x20 DUP3 ADD SWAP1 POP SWAP2 SWAP1 POP JUMP JUMPDEST PUSH2 0xB2D DUP2 PUSH2 0x7A4 JUMP JUMPDEST DUP3 MSTORE POP POP JUMP JUMPDEST PUSH1 0x0 PUSH2 0xB3F DUP4 DUP4 PUSH2 0xB24 JUMP JUMPDEST PUSH1 0x20 DUP4 ADD SWAP1 POP SWAP3 SWAP2 POP POP JUMP JUMPDEST PUSH1 0x0 PUSH1 0x20 DUP3 ADD SWAP1 POP SWAP2 SWAP1 POP JUMP JUMPDEST PUSH1 0x0 PUSH2 0xB63 DUP3 PUSH2 0xAF8 JUMP JUMPDEST PUSH2 0xB6D DUP2 DUP6 PUSH2 0xB03 JUMP JUMPDEST SWAP4 POP PUSH2 0xB78 DUP4 PUSH2 0xB14 JUMP JUMPDEST DUP1 PUSH1 0x0 JUMPDEST DUP4 DUP2 LT ISZERO PUSH2 0xBA9 JUMPI DUP2 MLOAD PUSH2 0xB90 DUP9 DUP3 PUSH2 0xB33 JUMP JUMPDEST SWAP8 POP PUSH2 0xB9B DUP4 PUSH2 0xB4B JUMP JUMPDEST SWAP3 POP POP PUSH1 0x1 DUP2 ADD SWAP1 POP PUSH2 0xB7C JUMP JUMPDEST POP DUP6 SWAP4 POP POP POP POP SWAP3 SWAP2 POP POP JUMP JUMPDEST PUSH1 0x0 PUSH1 0x80 DUP3 ADD SWAP1 POP PUSH2 0xBCB PUSH1 0x0 DUP4 ADD DUP8 PUSH2 0x7C5 JUMP JUMPDEST DUP2 DUP2 SUB PUSH1 0x20 DUP4 ADD MSTORE PUSH2 0xBDD DUP2 DUP7 PUSH2 0xB58 JUMP JUMPDEST SWAP1 POP PUSH2 0xBEC PUSH1 0x40 DUP4 ADD DUP6 PUSH2 0x7B6 JUMP JUMPDEST PUSH2 0xBF9 PUSH1 0x60 DUP4 ADD DUP5 PUSH2 0x7C5 JUMP JUMPDEST SWAP6 SWAP5 POP POP POP POP POP JUMP JUMPDEST PUSH1 0x0 DUP1 REVERT JUMPDEST PUSH1 0x0 PUSH1 0x1F NOT PUSH1 0x1F DUP4 ADD AND SWAP1 POP SWAP2 SWAP1 POP JUMP JUMPDEST PUSH2 0xC21 DUP3 PUSH2 0xC07 JUMP JUMPDEST DUP2 ADD DUP2 DUP2 LT PUSH8 0xFFFFFFFFFFFFFFFF DUP3 GT OR ISZERO PUSH2 0xC40 JUMPI PUSH2 0xC3F PUSH2 0xA9A JUMP JUMPDEST JUMPDEST DUP1 PUSH1 0x40 MSTORE POP POP POP JUMP JUMPDEST PUSH1 0x0 PUSH2 0xC53 PUSH2 0x64C JUMP JUMPDEST SWAP1 POP PUSH2 0xC5F DUP3 DUP3 PUSH2 0xC18 JUMP JUMPDEST SWAP2 SWAP1 POP JUMP JUMPDEST PUSH1 0x0 PUSH8 0xFFFFFFFFFFFFFFFF DUP3 GT ISZERO PUSH2 0xC7F JUMPI PUSH2 0xC7E PUSH2 0xA9A JUMP JUMPDEST JUMPDEST PUSH1 0x20 DUP3 MUL SWAP1 POP PUSH1 0x20 DUP2 ADD SWAP1 POP SWAP2 SWAP1 POP JUMP JUMPDEST PUSH1 0x0 DUP1 REVERT JUMPDEST PUSH1 0x0 PUSH2 0xCA8 PUSH2 0xCA3 DUP5 PUSH2 0xC64 JUMP JUMPDEST PUSH2 0xC49 JUMP JUMPDEST SWAP1 POP DUP1 DUP4 DUP3 MSTORE PUSH1 0x20 DUP3 ADD SWAP1 POP PUSH1 0x20 DUP5 MUL DUP4 ADD DUP6 DUP2 GT ISZERO PUSH2 0xCCB JUMPI PUSH2 0xCCA PUSH2 0xC90 JUMP JUMPDEST JUMPDEST DUP4 JUMPDEST DUP2 DUP2 LT ISZERO PUSH2 0xCF4 JUMPI DUP1 PUSH2 0xCE0 DUP9 DUP3 PUSH2 0xA09 JUMP JUMPDEST DUP5 MSTORE PUSH1 0x20 DUP5 ADD SWAP4 POP POP PUSH1 0x20 DUP2 ADD SWAP1 POP PUSH2 0xCCD JUMP JUMPDEST POP POP POP SWAP4 SWAP3 POP POP POP JUMP JUMPDEST PUSH1 0x0 DUP3 PUSH1 0x1F DUP4 ADD SLT PUSH2 0xD13 JUMPI PUSH2 0xD12 PUSH2 0xC02 JUMP JUMPDEST JUMPDEST DUP2 MLOAD PUSH2 0xD23 DUP5 DUP3 PUSH1 0x20 DUP7 ADD PUSH2 0xC95 JUMP JUMPDEST SWAP2 POP POP SWAP3 SWAP2 POP POP JUMP JUMPDEST PUSH1 0x0 PUSH1 0x20 DUP3 DUP5 SUB SLT ISZERO PUSH2 0xD42 JUMPI PUSH2 0xD41 PUSH2 0x656 JUMP JUMPDEST JUMPDEST PUSH1 0x0 DUP3 ADD MLOAD PUSH8 0xFFFFFFFFFFFFFFFF DUP2 GT ISZERO PUSH2 0xD60 JUMPI PUSH2 0xD5F PUSH2 0x65B JUMP JUMPDEST JUMPDEST PUSH2 0xD6C DUP5 DUP3 DUP6 ADD PUSH2 0xCFE JUMP JUMPDEST SWAP2 POP POP SWAP3 SWAP2 POP POP JUMP INVALID LOG2 PUSH5 0x6970667358 0x22 SLT KECCAK256 CALLDATALOAD 0xAF 0xBC PUSH25 0xBEE548ACF79B3C60FB94127E3F1A0A6514382CBC98D6A51EAA PUSH4 0xD6D6473 PUSH16 0x6C634300080C00330000000000000000 "
				},
				"gasEstimates": {
					"creation": {
						"codeDepositCost": "699800",
						"executionCost": "201275",
						"totalCost": "901075"
					},
					"external": {
						"addLiquidity(uint256,uint256,uint256)": "infinite",
						"buyExactTokenByETH(uint256)": "infinite",
						"withdraw()": "infinite"
					}
				},
				"methodIdentifiers": {
					"addLiquidity(uint256,uint256,uint256)": "422f1043",
					"buyExactTokenByETH(uint256)": "a93f74e0",
					"withdraw()": "3ccfd60b"
				}
			},
			"userdoc": {
				"kind": "user",
				"methods": {},
				"version": 1
			}
		}
	}
}