{
	"Code-hardhat-ethersJs/contracts/AAVETest.sol": {
		"AAVETest": {
			"abi": [
				{
					"inputs": [],
					"stateMutability": "nonpayable",
					"type": "constructor"
				},
				{
					"inputs": [],
					"name": "ADDRESSES_PROVIDER",
					"outputs": [
						{
							"internalType": "contract IPoolAddressesProvider",
							"name": "",
							"type": "address"
						}
					],
					"stateMutability": "view",
					"type": "function"
				},
				{
					"inputs": [],
					"name": "POOL",
					"outputs": [
						{
							"internalType": "contract IPool",
							"name": "",
							"type": "address"
						}
					],
					"stateMutability": "view",
					"type": "function"
				},
				{
					"inputs": [
						{
							"internalType": "address",
							"name": "asset",
							"type": "address"
						},
						{
							"internalType": "uint256",
							"name": "amount",
							"type": "uint256"
						},
						{
							"internalType": "uint256",
							"name": "premium",
							"type": "uint256"
						},
						{
							"internalType": "address",
							"name": "initiator",
							"type": "address"
						},
						{
							"internalType": "bytes",
							"name": "params",
							"type": "bytes"
						}
					],
					"name": "executeOperation",
					"outputs": [
						{
							"internalType": "bool",
							"name": "",
							"type": "bool"
						}
					],
					"stateMutability": "nonpayable",
					"type": "function"
				},
				{
					"inputs": [
						{
							"internalType": "address",
							"name": "asset",
							"type": "address"
						},
						{
							"internalType": "uint256",
							"name": "_amount",
							"type": "uint256"
						}
					],
					"name": "testAAVE",
					"outputs": [],
					"stateMutability": "nonpayable",
					"type": "function"
				}
			],
			"devdoc": {
				"kind": "dev",
				"methods": {
					"executeOperation(address,uint256,uint256,address,bytes)": {
						"details": "Ensure that the contract can return the debt + premium, e.g., has      enough funds to repay and has approved the Pool to pull the total amount",
						"params": {
							"amount": "The amount of the flash-borrowed asset",
							"asset": "The address of the flash-borrowed asset",
							"initiator": "The address of the flashloan initiator",
							"params": "The byte-encoded params passed when initiating the flashloan",
							"premium": "The fee of the flash-borrowed asset"
						},
						"returns": {
							"_0": "True if the execution of the operation succeeds, false otherwise"
						}
					}
				},
				"version": 1
			},
			"evm": {
				"assembly": "    /* \"Code-hardhat-ethersJs/contracts/AAVETest.sol\":768:5880  contract AAVETest is IFlashLoanSimpleReceiver {... */\n  mstore(0x40, 0xc0)\n    /* \"Code-hardhat-ethersJs/contracts/AAVETest.sol\":912:954  0x7a250d5630B4cF539739dF2C5dAcb4c659F2488D */\n  0x7a250d5630b4cf539739df2c5dacb4c659f2488d\n    /* \"Code-hardhat-ethersJs/contracts/AAVETest.sol\":877:954  address UniswapV2Router02address = 0x7a250d5630B4cF539739dF2C5dAcb4c659F2488D */\n  0x00\n  dup1\n  0x0100\n  exp\n  dup2\n  sload\n  dup2\n  0xffffffffffffffffffffffffffffffffffffffff\n  mul\n  not\n  and\n  swap1\n  dup4\n  0xffffffffffffffffffffffffffffffffffffffff\n  and\n  mul\n  or\n  swap1\n  sstore\n  pop\n    /* \"Code-hardhat-ethersJs/contracts/AAVETest.sol\":994:1036  0x5C69bEe701ef814a2B6a3EDD4B1652CB9cc5aA6f */\n  0x5c69bee701ef814a2b6a3edd4b1652cb9cc5aa6f\n    /* \"Code-hardhat-ethersJs/contracts/AAVETest.sol\":960:1036  address UniswapV2Factoryaddress = 0x5C69bEe701ef814a2B6a3EDD4B1652CB9cc5aA6f */\n  0x01\n  exp(0x0100, 0x00)\n  dup2\n  sload\n  dup2\n  0xffffffffffffffffffffffffffffffffffffffff\n  mul\n  not\n  and\n  swap1\n  dup4\n  0xffffffffffffffffffffffffffffffffffffffff\n  and\n  mul\n  or\n  swap1\n  sstore\n  pop\n    /* \"Code-hardhat-ethersJs/contracts/AAVETest.sol\":1068:1110  0xC36442b4a4522E871399CD717aBDD847Ab11FE88 */\n  0xc36442b4a4522e871399cd717abdd847ab11fe88\n    /* \"Code-hardhat-ethersJs/contracts/AAVETest.sol\":1042:1110  address UNIV3POSaddress = 0xC36442b4a4522E871399CD717aBDD847Ab11FE88 */\n  0x02\n  exp(0x0100, 0x00)\n  dup2\n  sload\n  dup2\n  0xffffffffffffffffffffffffffffffffffffffff\n  mul\n  not\n  and\n  swap1\n  dup4\n  0xffffffffffffffffffffffffffffffffffffffff\n  and\n  mul\n  or\n  swap1\n  sstore\n  pop\n    /* \"Code-hardhat-ethersJs/contracts/AAVETest.sol\":1150:1192  0x1F98431c8aD98523631AE4a59f267346ea31F984 */\n  0x1f98431c8ad98523631ae4a59f267346ea31f984\n    /* \"Code-hardhat-ethersJs/contracts/AAVETest.sol\":1116:1192  address UniswapV3Factoryaddress = 0x1F98431c8aD98523631AE4a59f267346ea31F984 */\n  0x03\n  exp(0x0100, 0x00)\n  dup2\n  sload\n  dup2\n  0xffffffffffffffffffffffffffffffffffffffff\n  mul\n  not\n  and\n  swap1\n  dup4\n  0xffffffffffffffffffffffffffffffffffffffff\n  and\n  mul\n  or\n  swap1\n  sstore\n  pop\n    /* \"Code-hardhat-ethersJs/contracts/AAVETest.sol\":1228:1270  0x68b3465833fb72A70ecDF485E0e4C7bD8665Fc45 */\n  0x68b3465833fb72a70ecdf485e0e4c7bd8665fc45\n    /* \"Code-hardhat-ethersJs/contracts/AAVETest.sol\":1198:1270  address SwapRouter02address = 0x68b3465833fb72A70ecDF485E0e4C7bD8665Fc45 */\n  0x04\n  exp(0x0100, 0x00)\n  dup2\n  sload\n  dup2\n  0xffffffffffffffffffffffffffffffffffffffff\n  mul\n  not\n  and\n  swap1\n  dup4\n  0xffffffffffffffffffffffffffffffffffffffff\n  and\n  mul\n  or\n  swap1\n  sstore\n  pop\n    /* \"Code-hardhat-ethersJs/contracts/AAVETest.sol\":1313:1355  0x8Ca302E2B04ECDb5d14Cced580A379b40e8eD8b7 */\n  0x8ca302e2b04ecdb5d14cced580a379b40e8ed8b7\n    /* \"Code-hardhat-ethersJs/contracts/AAVETest.sol\":1292:1355  address MTTaddress = 0x8Ca302E2B04ECDb5d14Cced580A379b40e8eD8b7 */\n  0x05\n  exp(0x0100, 0x00)\n  dup2\n  sload\n  dup2\n  0xffffffffffffffffffffffffffffffffffffffff\n  mul\n  not\n  and\n  swap1\n  dup4\n  0xffffffffffffffffffffffffffffffffffffffff\n  and\n  mul\n  or\n  swap1\n  sstore\n  pop\n    /* \"Code-hardhat-ethersJs/contracts/AAVETest.sol\":1383:1425  0xFfaDa869df79320120dfFd6eeE8cF664Dba43146 */\n  0xffada869df79320120dffd6eee8cf664dba43146\n    /* \"Code-hardhat-ethersJs/contracts/AAVETest.sol\":1361:1425  address Linkaddress = 0xFfaDa869df79320120dfFd6eeE8cF664Dba43146 */\n  0x06\n  exp(0x0100, 0x00)\n  dup2\n  sload\n  dup2\n  0xffffffffffffffffffffffffffffffffffffffff\n  mul\n  not\n  and\n  swap1\n  dup4\n  0xffffffffffffffffffffffffffffffffffffffff\n  and\n  mul\n  or\n  swap1\n  sstore\n  pop\n    /* \"Code-hardhat-ethersJs/contracts/AAVETest.sol\":1617:1659  0x69F9e353F7411479912d2E9F3e436aE83486C17B */\n  0x69f9e353f7411479912d2e9f3e436ae83486c17b\n    /* \"Code-hardhat-ethersJs/contracts/AAVETest.sol\":1592:1659  address UV2Pairaddress = 0x69F9e353F7411479912d2E9F3e436aE83486C17B */\n  0x07\n  exp(0x0100, 0x00)\n  dup2\n  sload\n  dup2\n  0xffffffffffffffffffffffffffffffffffffffff\n  mul\n  not\n  and\n  swap1\n  dup4\n  0xffffffffffffffffffffffffffffffffffffffff\n  and\n  mul\n  or\n  swap1\n  sstore\n  pop\n    /* \"Code-hardhat-ethersJs/contracts/AAVETest.sol\":1811:1816  10961 */\n  0x2ad1\n    /* \"Code-hardhat-ethersJs/contracts/AAVETest.sol\":1790:1816  uint256 UV3tokenId = 10961 */\n  0x08\n  sstore\n    /* \"Code-hardhat-ethersJs/contracts/AAVETest.sol\":2003:2045  0x87b1f4cf9BD63f7BBD3eE1aD04E8F52540349347 */\n  0x87b1f4cf9bd63f7bbd3ee1ad04e8f52540349347\n    /* \"Code-hardhat-ethersJs/contracts/AAVETest.sol\":1976:2045  address AAVE_ATOKEN_WETH = 0x87b1f4cf9BD63f7BBD3eE1aD04E8F52540349347 */\n  0x09\n  exp(0x0100, 0x00)\n  dup2\n  sload\n  dup2\n  0xffffffffffffffffffffffffffffffffffffffff\n  mul\n  not\n  and\n  swap1\n  dup4\n  0xffffffffffffffffffffffffffffffffffffffff\n  and\n  mul\n  or\n  swap1\n  sstore\n  pop\n    /* \"Code-hardhat-ethersJs/contracts/AAVETest.sol\":2098:2140  0x651b8A8cA545b251a8f49B57D5838Da0a8DFbEF9 */\n  0x651b8a8ca545b251a8f49b57d5838da0a8dfbef9\n    /* \"Code-hardhat-ethersJs/contracts/AAVETest.sol\":2051:2140  address AAVE_LENDING_POOL_ADDRESSES_PROVIDER = 0x651b8A8cA545b251a8f49B57D5838Da0a8DFbEF9 */\n  0x0a\n  exp(0x0100, 0x00)\n  dup2\n  sload\n  dup2\n  0xffffffffffffffffffffffffffffffffffffffff\n  mul\n  not\n  and\n  swap1\n  dup4\n  0xffffffffffffffffffffffffffffffffffffffff\n  and\n  mul\n  or\n  swap1\n  sstore\n  pop\n    /* \"Code-hardhat-ethersJs/contracts/AAVETest.sol\":2170:2212  0x329462f8ed05E5FfBF6dfB84106e76B69e6B1F94 */\n  0x329462f8ed05e5ffbf6dfb84106e76b69e6b1f94\n    /* \"Code-hardhat-ethersJs/contracts/AAVETest.sol\":2148:2212  address POOLaddress = 0x329462f8ed05E5FfBF6dfB84106e76B69e6B1F94 */\n  0x0b\n  exp(0x0100, 0x00)\n  dup2\n  sload\n  dup2\n  0xffffffffffffffffffffffffffffffffffffffff\n  mul\n  not\n  and\n  swap1\n  dup4\n  0xffffffffffffffffffffffffffffffffffffffff\n  and\n  mul\n  or\n  swap1\n  sstore\n  pop\n    /* \"Code-hardhat-ethersJs/contracts/AAVETest.sol\":2306:2330  UniswapV2Router02address */\n  0x00\n  dup1\n  sload\n  swap1\n  0x0100\n  exp\n  swap1\n  div\n  0xffffffffffffffffffffffffffffffffffffffff\n  and\n    /* \"Code-hardhat-ethersJs/contracts/AAVETest.sol\":2256:2331  IUniswapV2Router02 uv2router = IUniswapV2Router02(UniswapV2Router02address) */\n  0x0c\n  exp(0x0100, 0x00)\n  dup2\n  sload\n  dup2\n  0xffffffffffffffffffffffffffffffffffffffff\n  mul\n  not\n  and\n  swap1\n  dup4\n  0xffffffffffffffffffffffffffffffffffffffff\n  and\n  mul\n  or\n  swap1\n  sstore\n  pop\n    /* \"Code-hardhat-ethersJs/contracts/AAVETest.sol\":2391:2410  SwapRouter02address */\n  0x04\n  0x00\n  swap1\n  sload\n  swap1\n  0x0100\n  exp\n  swap1\n  div\n  0xffffffffffffffffffffffffffffffffffffffff\n  and\n    /* \"Code-hardhat-ethersJs/contracts/AAVETest.sol\":2351:2411  IV3SwapRouter uv3router = IV3SwapRouter(SwapRouter02address) */\n  0x0d\n  exp(0x0100, 0x00)\n  dup2\n  sload\n  dup2\n  0xffffffffffffffffffffffffffffffffffffffff\n  mul\n  not\n  and\n  swap1\n  dup4\n  0xffffffffffffffffffffffffffffffffffffffff\n  and\n  mul\n  or\n  swap1\n  sstore\n  pop\n    /* \"Code-hardhat-ethersJs/contracts/AAVETest.sol\":2514:2524  MTTaddress */\n  0x05\n  0x00\n  swap1\n  sload\n  swap1\n  0x0100\n  exp\n  swap1\n  div\n  0xffffffffffffffffffffffffffffffffffffffff\n  and\n    /* \"Code-hardhat-ethersJs/contracts/AAVETest.sol\":2494:2525  IERC20 MTT = IERC20(MTTaddress) */\n  0x0e\n  exp(0x0100, 0x00)\n  dup2\n  sload\n  dup2\n  0xffffffffffffffffffffffffffffffffffffffff\n  mul\n  not\n  and\n  swap1\n  dup4\n  0xffffffffffffffffffffffffffffffffffffffff\n  and\n  mul\n  or\n  swap1\n  sstore\n  pop\n    /* \"Code-hardhat-ethersJs/contracts/AAVETest.sol\":2552:2563  Linkaddress */\n  0x06\n  0x00\n  swap1\n  sload\n  swap1\n  0x0100\n  exp\n  swap1\n  div\n  0xffffffffffffffffffffffffffffffffffffffff\n  and\n    /* \"Code-hardhat-ethersJs/contracts/AAVETest.sol\":2531:2564  IERC20 LINK = IERC20(Linkaddress) */\n  0x0f\n  exp(0x0100, 0x00)\n  dup2\n  sload\n  dup2\n  0xffffffffffffffffffffffffffffffffffffffff\n  mul\n  not\n  and\n  swap1\n  dup4\n  0xffffffffffffffffffffffffffffffffffffffff\n  and\n  mul\n  or\n  swap1\n  sstore\n  pop\n    /* \"Code-hardhat-ethersJs/contracts/AAVETest.sol\":2791:3023  constructor() {... */\n  callvalue\n  dup1\n  iszero\n  tag_1\n  jumpi\n  0x00\n  dup1\n  revert\ntag_1:\n  pop\n    /* \"Code-hardhat-ethersJs/contracts/AAVETest.sol\":2859:2895  AAVE_LENDING_POOL_ADDRESSES_PROVIDER */\n  0x0a\n  0x00\n  swap1\n  sload\n  swap1\n  0x0100\n  exp\n  swap1\n  div\n  0xffffffffffffffffffffffffffffffffffffffff\n  and\n    /* \"Code-hardhat-ethersJs/contracts/AAVETest.sol\":2815:2896  ADDRESSES_PROVIDER = IPoolAddressesProvider(AAVE_LENDING_POOL_ADDRESSES_PROVIDER) */\n  0xffffffffffffffffffffffffffffffffffffffff\n  and\n  0x80\n  dup2\n  0xffffffffffffffffffffffffffffffffffffffff\n  and\n  dup2\n  mstore\n  pop\n  pop\n    /* \"Code-hardhat-ethersJs/contracts/AAVETest.sol\":2919:2937  ADDRESSES_PROVIDER */\n  mload(0x80)\n    /* \"Code-hardhat-ethersJs/contracts/AAVETest.sol\":2919:2945  ADDRESSES_PROVIDER.getPool */\n  0xffffffffffffffffffffffffffffffffffffffff\n  and\n  0x026b1d5f\n    /* \"Code-hardhat-ethersJs/contracts/AAVETest.sol\":2919:2947  ADDRESSES_PROVIDER.getPool() */\n  mload(0x40)\n  dup2\n  0xffffffff\n  and\n  0xe0\n  shl\n  dup2\n  mstore\n  0x04\n  add\n  0x20\n  mload(0x40)\n  dup1\n  dup4\n  sub\n  dup2\n  dup7\n  gas\n  staticcall\n  iszero\n  dup1\n  iszero\n  tag_5\n  jumpi\n  returndatasize\n  0x00\n  dup1\n  returndatacopy\n  revert(0x00, returndatasize)\ntag_5:\n  pop\n  pop\n  pop\n  pop\n  mload(0x40)\n  returndatasize\n  not(0x1f)\n  0x1f\n  dup3\n  add\n  and\n  dup3\n  add\n  dup1\n  0x40\n  mstore\n  pop\n  dup2\n  add\n  swap1\n  tag_6\n  swap2\n  swap1\n  tag_7\n  jump\t// in\ntag_6:\n    /* \"Code-hardhat-ethersJs/contracts/AAVETest.sol\":2906:2948  POOL = IPool(ADDRESSES_PROVIDER.getPool()) */\n  0xffffffffffffffffffffffffffffffffffffffff\n  and\n  0xa0\n  dup2\n  0xffffffffffffffffffffffffffffffffffffffff\n  and\n  dup2\n  mstore\n  pop\n  pop\n    /* \"Code-hardhat-ethersJs/contracts/AAVETest.sol\":768:5880  contract AAVETest is IFlashLoanSimpleReceiver {... */\n  jump(tag_8)\n    /* \"#utility.yul\":88:205   */\ntag_10:\n    /* \"#utility.yul\":197:198   */\n  0x00\n    /* \"#utility.yul\":194:195   */\n  dup1\n    /* \"#utility.yul\":187:199   */\n  revert\n    /* \"#utility.yul\":334:460   */\ntag_12:\n    /* \"#utility.yul\":371:378   */\n  0x00\n    /* \"#utility.yul\":411:453   */\n  0xffffffffffffffffffffffffffffffffffffffff\n    /* \"#utility.yul\":404:409   */\n  dup3\n    /* \"#utility.yul\":400:454   */\n  and\n    /* \"#utility.yul\":389:454   */\n  swap1\n  pop\n    /* \"#utility.yul\":334:460   */\n  swap2\n  swap1\n  pop\n  jump\t// out\n    /* \"#utility.yul\":466:562   */\ntag_13:\n    /* \"#utility.yul\":503:510   */\n  0x00\n    /* \"#utility.yul\":532:556   */\n  tag_22\n    /* \"#utility.yul\":550:555   */\n  dup3\n    /* \"#utility.yul\":532:556   */\n  tag_12\n  jump\t// in\ntag_22:\n    /* \"#utility.yul\":521:556   */\n  swap1\n  pop\n    /* \"#utility.yul\":466:562   */\n  swap2\n  swap1\n  pop\n  jump\t// out\n    /* \"#utility.yul\":568:690   */\ntag_14:\n    /* \"#utility.yul\":641:665   */\n  tag_24\n    /* \"#utility.yul\":659:664   */\n  dup2\n    /* \"#utility.yul\":641:665   */\n  tag_13\n  jump\t// in\ntag_24:\n    /* \"#utility.yul\":634:639   */\n  dup2\n    /* \"#utility.yul\":631:666   */\n  eq\n    /* \"#utility.yul\":621:684   */\n  tag_25\n  jumpi\n    /* \"#utility.yul\":680:681   */\n  0x00\n    /* \"#utility.yul\":677:678   */\n  dup1\n    /* \"#utility.yul\":670:682   */\n  revert\n    /* \"#utility.yul\":621:684   */\ntag_25:\n    /* \"#utility.yul\":568:690   */\n  pop\n  jump\t// out\n    /* \"#utility.yul\":696:839   */\ntag_15:\n    /* \"#utility.yul\":753:758   */\n  0x00\n    /* \"#utility.yul\":784:790   */\n  dup2\n    /* \"#utility.yul\":778:791   */\n  mload\n    /* \"#utility.yul\":769:791   */\n  swap1\n  pop\n    /* \"#utility.yul\":800:833   */\n  tag_27\n    /* \"#utility.yul\":827:832   */\n  dup2\n    /* \"#utility.yul\":800:833   */\n  tag_14\n  jump\t// in\ntag_27:\n    /* \"#utility.yul\":696:839   */\n  swap3\n  swap2\n  pop\n  pop\n  jump\t// out\n    /* \"#utility.yul\":845:1196   */\ntag_7:\n    /* \"#utility.yul\":915:921   */\n  0x00\n    /* \"#utility.yul\":964:966   */\n  0x20\n    /* \"#utility.yul\":952:961   */\n  dup3\n    /* \"#utility.yul\":943:950   */\n  dup5\n    /* \"#utility.yul\":939:962   */\n  sub\n    /* \"#utility.yul\":935:967   */\n  slt\n    /* \"#utility.yul\":932:1051   */\n  iszero\n  tag_29\n  jumpi\n    /* \"#utility.yul\":970:1049   */\n  tag_30\n  tag_10\n  jump\t// in\ntag_30:\n    /* \"#utility.yul\":932:1051   */\ntag_29:\n    /* \"#utility.yul\":1090:1091   */\n  0x00\n    /* \"#utility.yul\":1115:1179   */\n  tag_31\n    /* \"#utility.yul\":1171:1178   */\n  dup5\n    /* \"#utility.yul\":1162:1168   */\n  dup3\n    /* \"#utility.yul\":1151:1160   */\n  dup6\n    /* \"#utility.yul\":1147:1169   */\n  add\n    /* \"#utility.yul\":1115:1179   */\n  tag_15\n  jump\t// in\ntag_31:\n    /* \"#utility.yul\":1105:1179   */\n  swap2\n  pop\n    /* \"#utility.yul\":1061:1189   */\n  pop\n    /* \"#utility.yul\":845:1196   */\n  swap3\n  swap2\n  pop\n  pop\n  jump\t// out\n    /* \"Code-hardhat-ethersJs/contracts/AAVETest.sol\":768:5880  contract AAVETest is IFlashLoanSimpleReceiver {... */\ntag_8:\n  mload(0x80)\n  mload(0xa0)\n  codecopy(0x00, dataOffset(sub_0), dataSize(sub_0))\n  0x00\n  assignImmutable(\"0x81bca1f8ca3bb15341ff0db4294d8b3808367aadbedd8a086fff74880e3bfb1c\")\n  0x00\n  assignImmutable(\"0xddb5da11fe8d5b7c3a4ca560c7baf7210ad923a414ade61cd4fdcbb44ea2d925\")\n  return(0x00, dataSize(sub_0))\nstop\n\nsub_0: assembly {\n        /* \"Code-hardhat-ethersJs/contracts/AAVETest.sol\":768:5880  contract AAVETest is IFlashLoanSimpleReceiver {... */\n      mstore(0x40, 0x80)\n      callvalue\n      dup1\n      iszero\n      tag_1\n      jumpi\n      0x00\n      dup1\n      revert\n    tag_1:\n      pop\n      jumpi(tag_2, lt(calldatasize, 0x04))\n      shr(0xe0, calldataload(0x00))\n      dup1\n      0x0542975c\n      eq\n      tag_3\n      jumpi\n      dup1\n      0x1b11d0ff\n      eq\n      tag_4\n      jumpi\n      dup1\n      0x7535d246\n      eq\n      tag_5\n      jumpi\n      dup1\n      0xcea8fe55\n      eq\n      tag_6\n      jumpi\n    tag_2:\n      0x00\n      dup1\n      revert\n        /* \"Code-hardhat-ethersJs/contracts/AAVETest.sol\":2583:2650  IPoolAddressesProvider public immutable override ADDRESSES_PROVIDER */\n    tag_3:\n      tag_7\n      tag_8\n      jump\t// in\n    tag_7:\n      mload(0x40)\n      tag_9\n      swap2\n      swap1\n      tag_10\n      jump\t// in\n    tag_9:\n      mload(0x40)\n      dup1\n      swap2\n      sub\n      swap1\n      return\n        /* \"Code-hardhat-ethersJs/contracts/AAVETest.sol\":4483:5872  function executeOperation(... */\n    tag_4:\n      tag_11\n      0x04\n      dup1\n      calldatasize\n      sub\n      dup2\n      add\n      swap1\n      tag_12\n      swap2\n      swap1\n      tag_13\n      jump\t// in\n    tag_12:\n      tag_14\n      jump\t// in\n    tag_11:\n      mload(0x40)\n      tag_15\n      swap2\n      swap1\n      tag_16\n      jump\t// in\n    tag_15:\n      mload(0x40)\n      dup1\n      swap2\n      sub\n      swap1\n      return\n        /* \"Code-hardhat-ethersJs/contracts/AAVETest.sol\":2656:2692  IPool public immutable override POOL */\n    tag_5:\n      tag_17\n      tag_18\n      jump\t// in\n    tag_17:\n      mload(0x40)\n      tag_19\n      swap2\n      swap1\n      tag_20\n      jump\t// in\n    tag_19:\n      mload(0x40)\n      dup1\n      swap2\n      sub\n      swap1\n      return\n        /* \"Code-hardhat-ethersJs/contracts/AAVETest.sol\":3523:4477  function testAAVE(address asset,uint256 _amount) public {... */\n    tag_6:\n      tag_21\n      0x04\n      dup1\n      calldatasize\n      sub\n      dup2\n      add\n      swap1\n      tag_22\n      swap2\n      swap1\n      tag_23\n      jump\t// in\n    tag_22:\n      tag_24\n      jump\t// in\n    tag_21:\n      stop\n        /* \"Code-hardhat-ethersJs/contracts/AAVETest.sol\":2583:2650  IPoolAddressesProvider public immutable override ADDRESSES_PROVIDER */\n    tag_8:\n      immutable(\"0xddb5da11fe8d5b7c3a4ca560c7baf7210ad923a414ade61cd4fdcbb44ea2d925\")\n      dup2\n      jump\t// out\n        /* \"Code-hardhat-ethersJs/contracts/AAVETest.sol\":4483:5872  function executeOperation(... */\n    tag_14:\n        /* \"Code-hardhat-ethersJs/contracts/AAVETest.sol\":4708:4712  bool */\n      0x00\n        /* \"Code-hardhat-ethersJs/contracts/AAVETest.sol\":4845:4864  uint256 amountOwing */\n      dup1\n        /* \"Code-hardhat-ethersJs/contracts/AAVETest.sol\":4867:4886  amount.add(premium) */\n      tag_26\n        /* \"Code-hardhat-ethersJs/contracts/AAVETest.sol\":4878:4885  premium */\n      dup7\n        /* \"Code-hardhat-ethersJs/contracts/AAVETest.sol\":4867:4873  amount */\n      dup9\n        /* \"Code-hardhat-ethersJs/contracts/AAVETest.sol\":4867:4877  amount.add */\n      tag_27\n      swap1\n        /* \"Code-hardhat-ethersJs/contracts/AAVETest.sol\":4867:4886  amount.add(premium) */\n      swap2\n      swap1\n      0xffffffff\n      and\n      jump\t// in\n    tag_26:\n        /* \"Code-hardhat-ethersJs/contracts/AAVETest.sol\":4845:4886  uint256 amountOwing = amount.add(premium) */\n      swap1\n      pop\n        /* \"Code-hardhat-ethersJs/contracts/AAVETest.sol\":4903:4908  asset */\n      dup8\n        /* \"Code-hardhat-ethersJs/contracts/AAVETest.sol\":4896:4917  IERC20(asset).approve */\n      0xffffffffffffffffffffffffffffffffffffffff\n      and\n      0x095ea7b3\n        /* \"Code-hardhat-ethersJs/contracts/AAVETest.sol\":4926:4930  POOL */\n      immutable(\"0x81bca1f8ca3bb15341ff0db4294d8b3808367aadbedd8a086fff74880e3bfb1c\")\n        /* \"Code-hardhat-ethersJs/contracts/AAVETest.sol\":4933:4944  amountOwing */\n      dup4\n        /* \"Code-hardhat-ethersJs/contracts/AAVETest.sol\":4896:4945  IERC20(asset).approve(address(POOL), amountOwing) */\n      mload(0x40)\n      dup4\n      0xffffffff\n      and\n      0xe0\n      shl\n      dup2\n      mstore\n      0x04\n      add\n      tag_28\n      swap3\n      swap2\n      swap1\n      tag_29\n      jump\t// in\n    tag_28:\n      0x20\n      mload(0x40)\n      dup1\n      dup4\n      sub\n      dup2\n      0x00\n      dup8\n      gas\n      call\n      iszero\n      dup1\n      iszero\n      tag_31\n      jumpi\n      returndatasize\n      0x00\n      dup1\n      returndatacopy\n      revert(0x00, returndatasize)\n    tag_31:\n      pop\n      pop\n      pop\n      pop\n      mload(0x40)\n      returndatasize\n      not(0x1f)\n      0x1f\n      dup3\n      add\n      and\n      dup3\n      add\n      dup1\n      0x40\n      mstore\n      pop\n      dup2\n      add\n      swap1\n      tag_32\n      swap2\n      swap1\n      tag_33\n      jump\t// in\n    tag_32:\n      pop\n        /* \"Code-hardhat-ethersJs/contracts/AAVETest.sol\":5861:5865  true */\n      0x01\n        /* \"Code-hardhat-ethersJs/contracts/AAVETest.sol\":5854:5865  return true */\n      swap2\n      pop\n      pop\n        /* \"Code-hardhat-ethersJs/contracts/AAVETest.sol\":4483:5872  function executeOperation(... */\n      swap7\n      swap6\n      pop\n      pop\n      pop\n      pop\n      pop\n      pop\n      jump\t// out\n        /* \"Code-hardhat-ethersJs/contracts/AAVETest.sol\":2656:2692  IPool public immutable override POOL */\n    tag_18:\n      immutable(\"0x81bca1f8ca3bb15341ff0db4294d8b3808367aadbedd8a086fff74880e3bfb1c\")\n      dup2\n      jump\t// out\n        /* \"Code-hardhat-ethersJs/contracts/AAVETest.sol\":3523:4477  function testAAVE(address asset,uint256 _amount) public {... */\n    tag_24:\n        /* \"Code-hardhat-ethersJs/contracts/AAVETest.sol\":3589:3612  address receiverAddress */\n      0x00\n        /* \"Code-hardhat-ethersJs/contracts/AAVETest.sol\":3623:3627  this */\n      address\n        /* \"Code-hardhat-ethersJs/contracts/AAVETest.sol\":3589:3628  address receiverAddress = address(this) */\n      swap1\n      pop\n        /* \"Code-hardhat-ethersJs/contracts/AAVETest.sol\":3639:3662  address[] memory assets */\n      0x00\n        /* \"Code-hardhat-ethersJs/contracts/AAVETest.sol\":3679:3680  1 */\n      0x01\n        /* \"Code-hardhat-ethersJs/contracts/AAVETest.sol\":3665:3681  new address[](1) */\n      0xffffffffffffffff\n      dup2\n      gt\n      iszero\n      tag_35\n      jumpi\n      tag_36\n      tag_37\n      jump\t// in\n    tag_36:\n    tag_35:\n      mload(0x40)\n      swap1\n      dup1\n      dup3\n      mstore\n      dup1\n      0x20\n      mul\n      0x20\n      add\n      dup3\n      add\n      0x40\n      mstore\n      dup1\n      iszero\n      tag_38\n      jumpi\n      dup2\n      0x20\n      add\n      0x20\n      dup3\n      mul\n      dup1\n      calldatasize\n      dup4\n      calldatacopy\n      dup1\n      dup3\n      add\n      swap2\n      pop\n      pop\n      swap1\n      pop\n    tag_38:\n      pop\n        /* \"Code-hardhat-ethersJs/contracts/AAVETest.sol\":3639:3681  address[] memory assets = new address[](1) */\n      swap1\n      pop\n        /* \"Code-hardhat-ethersJs/contracts/AAVETest.sol\":3703:3708  asset */\n      dup4\n        /* \"Code-hardhat-ethersJs/contracts/AAVETest.sol\":3691:3697  assets */\n      dup2\n        /* \"Code-hardhat-ethersJs/contracts/AAVETest.sol\":3698:3699  0 */\n      0x00\n        /* \"Code-hardhat-ethersJs/contracts/AAVETest.sol\":3691:3700  assets[0] */\n      dup2\n      mload\n      dup2\n      lt\n      tag_39\n      jumpi\n      tag_40\n      tag_41\n      jump\t// in\n    tag_40:\n    tag_39:\n      0x20\n      mul\n      0x20\n      add\n      add\n        /* \"Code-hardhat-ethersJs/contracts/AAVETest.sol\":3691:3708  assets[0] = asset */\n      swap1\n      0xffffffffffffffffffffffffffffffffffffffff\n      and\n      swap1\n      dup2\n      0xffffffffffffffffffffffffffffffffffffffff\n      and\n      dup2\n      mstore\n      pop\n      pop\n        /* \"Code-hardhat-ethersJs/contracts/AAVETest.sol\":3718:3742  uint256[] memory amounts */\n      0x00\n        /* \"Code-hardhat-ethersJs/contracts/AAVETest.sol\":3759:3760  1 */\n      0x01\n        /* \"Code-hardhat-ethersJs/contracts/AAVETest.sol\":3745:3761  new uint256[](1) */\n      0xffffffffffffffff\n      dup2\n      gt\n      iszero\n      tag_42\n      jumpi\n      tag_43\n      tag_37\n      jump\t// in\n    tag_43:\n    tag_42:\n      mload(0x40)\n      swap1\n      dup1\n      dup3\n      mstore\n      dup1\n      0x20\n      mul\n      0x20\n      add\n      dup3\n      add\n      0x40\n      mstore\n      dup1\n      iszero\n      tag_44\n      jumpi\n      dup2\n      0x20\n      add\n      0x20\n      dup3\n      mul\n      dup1\n      calldatasize\n      dup4\n      calldatacopy\n      dup1\n      dup3\n      add\n      swap2\n      pop\n      pop\n      swap1\n      pop\n    tag_44:\n      pop\n        /* \"Code-hardhat-ethersJs/contracts/AAVETest.sol\":3718:3761  uint256[] memory amounts = new uint256[](1) */\n      swap1\n      pop\n        /* \"Code-hardhat-ethersJs/contracts/AAVETest.sol\":3784:3791  _amount */\n      dup4\n        /* \"Code-hardhat-ethersJs/contracts/AAVETest.sol\":3771:3778  amounts */\n      dup2\n        /* \"Code-hardhat-ethersJs/contracts/AAVETest.sol\":3779:3780  0 */\n      0x00\n        /* \"Code-hardhat-ethersJs/contracts/AAVETest.sol\":3771:3781  amounts[0] */\n      dup2\n      mload\n      dup2\n      lt\n      tag_45\n      jumpi\n      tag_46\n      tag_41\n      jump\t// in\n    tag_46:\n    tag_45:\n      0x20\n      mul\n      0x20\n      add\n      add\n        /* \"Code-hardhat-ethersJs/contracts/AAVETest.sol\":3771:3791  amounts[0] = _amount */\n      dup2\n      dup2\n      mstore\n      pop\n      pop\n        /* \"Code-hardhat-ethersJs/contracts/AAVETest.sol\":3801:3835  uint256[] memory interestRateModes */\n      0x00\n        /* \"Code-hardhat-ethersJs/contracts/AAVETest.sol\":3852:3853  1 */\n      0x01\n        /* \"Code-hardhat-ethersJs/contracts/AAVETest.sol\":3838:3854  new uint256[](1) */\n      0xffffffffffffffff\n      dup2\n      gt\n      iszero\n      tag_47\n      jumpi\n      tag_48\n      tag_37\n      jump\t// in\n    tag_48:\n    tag_47:\n      mload(0x40)\n      swap1\n      dup1\n      dup3\n      mstore\n      dup1\n      0x20\n      mul\n      0x20\n      add\n      dup3\n      add\n      0x40\n      mstore\n      dup1\n      iszero\n      tag_49\n      jumpi\n      dup2\n      0x20\n      add\n      0x20\n      dup3\n      mul\n      dup1\n      calldatasize\n      dup4\n      calldatacopy\n      dup1\n      dup3\n      add\n      swap2\n      pop\n      pop\n      swap1\n      pop\n    tag_49:\n      pop\n        /* \"Code-hardhat-ethersJs/contracts/AAVETest.sol\":3801:3854  uint256[] memory interestRateModes = new uint256[](1) */\n      swap1\n      pop\n        /* \"Code-hardhat-ethersJs/contracts/AAVETest.sol\":3887:3888  0 */\n      0x00\n        /* \"Code-hardhat-ethersJs/contracts/AAVETest.sol\":3864:3881  interestRateModes */\n      dup2\n        /* \"Code-hardhat-ethersJs/contracts/AAVETest.sol\":3882:3883  0 */\n      0x00\n        /* \"Code-hardhat-ethersJs/contracts/AAVETest.sol\":3864:3884  interestRateModes[0] */\n      dup2\n      mload\n      dup2\n      lt\n      tag_50\n      jumpi\n      tag_51\n      tag_41\n      jump\t// in\n    tag_51:\n    tag_50:\n      0x20\n      mul\n      0x20\n      add\n      add\n        /* \"Code-hardhat-ethersJs/contracts/AAVETest.sol\":3864:3888  interestRateModes[0] = 0 */\n      dup2\n      dup2\n      mstore\n      pop\n      pop\n        /* \"Code-hardhat-ethersJs/contracts/AAVETest.sol\":3987:4006  bytes memory params */\n      0x00\n        /* \"Code-hardhat-ethersJs/contracts/AAVETest.sol\":3987:4011  bytes memory params = \"\" */\n      mload(0x40)\n      dup1\n      0x20\n      add\n      0x40\n      mstore\n      dup1\n      0x00\n      dup2\n      mstore\n      pop\n      swap1\n      pop\n        /* \"Code-hardhat-ethersJs/contracts/AAVETest.sol\":4021:4040  uint16 referralCode */\n      0x00\n        /* \"Code-hardhat-ethersJs/contracts/AAVETest.sol\":4054:4057  MTT */\n      0x0e\n      0x00\n      swap1\n      sload\n      swap1\n      0x0100\n      exp\n      swap1\n      div\n      0xffffffffffffffffffffffffffffffffffffffff\n      and\n        /* \"Code-hardhat-ethersJs/contracts/AAVETest.sol\":4054:4065  MTT.approve */\n      0xffffffffffffffffffffffffffffffffffffffff\n      and\n      0x095ea7b3\n        /* \"Code-hardhat-ethersJs/contracts/AAVETest.sol\":4074:4083  uv2router */\n      0x0c\n      0x00\n      swap1\n      sload\n      swap1\n      0x0100\n      exp\n      swap1\n      div\n      0xffffffffffffffffffffffffffffffffffffffff\n      and\n        /* \"Code-hardhat-ethersJs/contracts/AAVETest.sol\":4091:4118  100000000000000000000000000 */\n      0x52b7d2dcc80cd2e4000000\n        /* \"Code-hardhat-ethersJs/contracts/AAVETest.sol\":4054:4120  MTT.approve(address(uv2router), uint(100000000000000000000000000)) */\n      mload(0x40)\n      dup4\n      0xffffffff\n      and\n      0xe0\n      shl\n      dup2\n      mstore\n      0x04\n      add\n      tag_52\n      swap3\n      swap2\n      swap1\n      tag_29\n      jump\t// in\n    tag_52:\n      0x20\n      mload(0x40)\n      dup1\n      dup4\n      sub\n      dup2\n      0x00\n      dup8\n      gas\n      call\n      iszero\n      dup1\n      iszero\n      tag_54\n      jumpi\n      returndatasize\n      0x00\n      dup1\n      returndatacopy\n      revert(0x00, returndatasize)\n    tag_54:\n      pop\n      pop\n      pop\n      pop\n      mload(0x40)\n      returndatasize\n      not(0x1f)\n      0x1f\n      dup3\n      add\n      and\n      dup3\n      add\n      dup1\n      0x40\n      mstore\n      pop\n      dup2\n      add\n      swap1\n      tag_55\n      swap2\n      swap1\n      tag_33\n      jump\t// in\n    tag_55:\n      pop\n        /* \"Code-hardhat-ethersJs/contracts/AAVETest.sol\":4130:4133  MTT */\n      0x0e\n      0x00\n      swap1\n      sload\n      swap1\n      0x0100\n      exp\n      swap1\n      div\n      0xffffffffffffffffffffffffffffffffffffffff\n      and\n        /* \"Code-hardhat-ethersJs/contracts/AAVETest.sol\":4130:4141  MTT.approve */\n      0xffffffffffffffffffffffffffffffffffffffff\n      and\n      0x095ea7b3\n        /* \"Code-hardhat-ethersJs/contracts/AAVETest.sol\":4150:4159  uv3router */\n      0x0d\n      0x00\n      swap1\n      sload\n      swap1\n      0x0100\n      exp\n      swap1\n      div\n      0xffffffffffffffffffffffffffffffffffffffff\n      and\n        /* \"Code-hardhat-ethersJs/contracts/AAVETest.sol\":4167:4194  100000000000000000000000000 */\n      0x52b7d2dcc80cd2e4000000\n        /* \"Code-hardhat-ethersJs/contracts/AAVETest.sol\":4130:4196  MTT.approve(address(uv3router), uint(100000000000000000000000000)) */\n      mload(0x40)\n      dup4\n      0xffffffff\n      and\n      0xe0\n      shl\n      dup2\n      mstore\n      0x04\n      add\n      tag_56\n      swap3\n      swap2\n      swap1\n      tag_29\n      jump\t// in\n    tag_56:\n      0x20\n      mload(0x40)\n      dup1\n      dup4\n      sub\n      dup2\n      0x00\n      dup8\n      gas\n      call\n      iszero\n      dup1\n      iszero\n      tag_58\n      jumpi\n      returndatasize\n      0x00\n      dup1\n      returndatacopy\n      revert(0x00, returndatasize)\n    tag_58:\n      pop\n      pop\n      pop\n      pop\n      mload(0x40)\n      returndatasize\n      not(0x1f)\n      0x1f\n      dup3\n      add\n      and\n      dup3\n      add\n      dup1\n      0x40\n      mstore\n      pop\n      dup2\n      add\n      swap1\n      tag_59\n      swap2\n      swap1\n      tag_33\n      jump\t// in\n    tag_59:\n      pop\n        /* \"Code-hardhat-ethersJs/contracts/AAVETest.sol\":4206:4210  LINK */\n      0x0f\n      0x00\n      swap1\n      sload\n      swap1\n      0x0100\n      exp\n      swap1\n      div\n      0xffffffffffffffffffffffffffffffffffffffff\n      and\n        /* \"Code-hardhat-ethersJs/contracts/AAVETest.sol\":4206:4218  LINK.approve */\n      0xffffffffffffffffffffffffffffffffffffffff\n      and\n      0x095ea7b3\n        /* \"Code-hardhat-ethersJs/contracts/AAVETest.sol\":4227:4236  uv2router */\n      0x0c\n      0x00\n      swap1\n      sload\n      swap1\n      0x0100\n      exp\n      swap1\n      div\n      0xffffffffffffffffffffffffffffffffffffffff\n      and\n        /* \"Code-hardhat-ethersJs/contracts/AAVETest.sol\":4244:4271  100000000000000000000000000 */\n      0x52b7d2dcc80cd2e4000000\n        /* \"Code-hardhat-ethersJs/contracts/AAVETest.sol\":4206:4273  LINK.approve(address(uv2router), uint(100000000000000000000000000)) */\n      mload(0x40)\n      dup4\n      0xffffffff\n      and\n      0xe0\n      shl\n      dup2\n      mstore\n      0x04\n      add\n      tag_60\n      swap3\n      swap2\n      swap1\n      tag_29\n      jump\t// in\n    tag_60:\n      0x20\n      mload(0x40)\n      dup1\n      dup4\n      sub\n      dup2\n      0x00\n      dup8\n      gas\n      call\n      iszero\n      dup1\n      iszero\n      tag_62\n      jumpi\n      returndatasize\n      0x00\n      dup1\n      returndatacopy\n      revert(0x00, returndatasize)\n    tag_62:\n      pop\n      pop\n      pop\n      pop\n      mload(0x40)\n      returndatasize\n      not(0x1f)\n      0x1f\n      dup3\n      add\n      and\n      dup3\n      add\n      dup1\n      0x40\n      mstore\n      pop\n      dup2\n      add\n      swap1\n      tag_63\n      swap2\n      swap1\n      tag_33\n      jump\t// in\n    tag_63:\n      pop\n        /* \"Code-hardhat-ethersJs/contracts/AAVETest.sol\":4283:4287  LINK */\n      0x0f\n      0x00\n      swap1\n      sload\n      swap1\n      0x0100\n      exp\n      swap1\n      div\n      0xffffffffffffffffffffffffffffffffffffffff\n      and\n        /* \"Code-hardhat-ethersJs/contracts/AAVETest.sol\":4283:4295  LINK.approve */\n      0xffffffffffffffffffffffffffffffffffffffff\n      and\n      0x095ea7b3\n        /* \"Code-hardhat-ethersJs/contracts/AAVETest.sol\":4304:4313  uv3router */\n      0x0d\n      0x00\n      swap1\n      sload\n      swap1\n      0x0100\n      exp\n      swap1\n      div\n      0xffffffffffffffffffffffffffffffffffffffff\n      and\n        /* \"Code-hardhat-ethersJs/contracts/AAVETest.sol\":4321:4348  100000000000000000000000000 */\n      0x52b7d2dcc80cd2e4000000\n        /* \"Code-hardhat-ethersJs/contracts/AAVETest.sol\":4283:4350  LINK.approve(address(uv3router), uint(100000000000000000000000000)) */\n      mload(0x40)\n      dup4\n      0xffffffff\n      and\n      0xe0\n      shl\n      dup2\n      mstore\n      0x04\n      add\n      tag_64\n      swap3\n      swap2\n      swap1\n      tag_29\n      jump\t// in\n    tag_64:\n      0x20\n      mload(0x40)\n      dup1\n      dup4\n      sub\n      dup2\n      0x00\n      dup8\n      gas\n      call\n      iszero\n      dup1\n      iszero\n      tag_66\n      jumpi\n      returndatasize\n      0x00\n      dup1\n      returndatacopy\n      revert(0x00, returndatasize)\n    tag_66:\n      pop\n      pop\n      pop\n      pop\n      mload(0x40)\n      returndatasize\n      not(0x1f)\n      0x1f\n      dup3\n      add\n      and\n      dup3\n      add\n      dup1\n      0x40\n      mstore\n      pop\n      dup2\n      add\n      swap1\n      tag_67\n      swap2\n      swap1\n      tag_33\n      jump\t// in\n    tag_67:\n      pop\n        /* \"Code-hardhat-ethersJs/contracts/AAVETest.sol\":4365:4369  POOL */\n      immutable(\"0x81bca1f8ca3bb15341ff0db4294d8b3808367aadbedd8a086fff74880e3bfb1c\")\n        /* \"Code-hardhat-ethersJs/contracts/AAVETest.sol\":4365:4379  POOL.flashLoan */\n      0xffffffffffffffffffffffffffffffffffffffff\n      and\n      0xab9c4b5d\n        /* \"Code-hardhat-ethersJs/contracts/AAVETest.sol\":4380:4395  receiverAddress */\n      dup8\n        /* \"Code-hardhat-ethersJs/contracts/AAVETest.sol\":4397:4403  assets */\n      dup8\n        /* \"Code-hardhat-ethersJs/contracts/AAVETest.sol\":4405:4412  amounts */\n      dup8\n        /* \"Code-hardhat-ethersJs/contracts/AAVETest.sol\":4414:4431  interestRateModes */\n      dup8\n        /* \"Code-hardhat-ethersJs/contracts/AAVETest.sol\":4433:4448  receiverAddress */\n      dup12\n        /* \"Code-hardhat-ethersJs/contracts/AAVETest.sol\":4450:4456  params */\n      dup9\n        /* \"Code-hardhat-ethersJs/contracts/AAVETest.sol\":4457:4469  referralCode */\n      dup9\n        /* \"Code-hardhat-ethersJs/contracts/AAVETest.sol\":4365:4470  POOL.flashLoan(receiverAddress, assets, amounts, interestRateModes, receiverAddress, params,referralCode) */\n      mload(0x40)\n      dup9\n      0xffffffff\n      and\n      0xe0\n      shl\n      dup2\n      mstore\n      0x04\n      add\n      tag_68\n      swap8\n      swap7\n      swap6\n      swap5\n      swap4\n      swap3\n      swap2\n      swap1\n      tag_69\n      jump\t// in\n    tag_68:\n      0x00\n      mload(0x40)\n      dup1\n      dup4\n      sub\n      dup2\n      0x00\n      dup8\n      dup1\n      extcodesize\n      iszero\n      dup1\n      iszero\n      tag_70\n      jumpi\n      0x00\n      dup1\n      revert\n    tag_70:\n      pop\n      gas\n      call\n      iszero\n      dup1\n      iszero\n      tag_72\n      jumpi\n      returndatasize\n      0x00\n      dup1\n      returndatacopy\n      revert(0x00, returndatasize)\n    tag_72:\n      pop\n      pop\n      pop\n      pop\n        /* \"Code-hardhat-ethersJs/contracts/AAVETest.sol\":3579:4477  {... */\n      pop\n      pop\n      pop\n      pop\n      pop\n      pop\n        /* \"Code-hardhat-ethersJs/contracts/AAVETest.sol\":3523:4477  function testAAVE(address asset,uint256 _amount) public {... */\n      pop\n      pop\n      jump\t// out\n        /* \"@aave/core-v3/contracts/dependencies/openzeppelin/contracts/SafeMath.sol\":410:539  function add(uint256 x, uint256 y) internal pure returns (uint256 z) {... */\n    tag_27:\n        /* \"@aave/core-v3/contracts/dependencies/openzeppelin/contracts/SafeMath.sol\":468:477  uint256 z */\n      0x00\n        /* \"@aave/core-v3/contracts/dependencies/openzeppelin/contracts/SafeMath.sol\":526:527  x */\n      dup3\n        /* \"@aave/core-v3/contracts/dependencies/openzeppelin/contracts/SafeMath.sol\":520:521  y */\n      dup3\n        /* \"@aave/core-v3/contracts/dependencies/openzeppelin/contracts/SafeMath.sol\":516:517  x */\n      dup5\n        /* \"@aave/core-v3/contracts/dependencies/openzeppelin/contracts/SafeMath.sol\":516:521  x + y */\n      add\n        /* \"@aave/core-v3/contracts/dependencies/openzeppelin/contracts/SafeMath.sol\":512:521  z = x + y */\n      swap2\n      pop\n      dup2\n        /* \"@aave/core-v3/contracts/dependencies/openzeppelin/contracts/SafeMath.sol\":511:527  (z = x + y) >= x */\n      lt\n      iszero\n        /* \"@aave/core-v3/contracts/dependencies/openzeppelin/contracts/SafeMath.sol\":503:528  require((z = x + y) >= x) */\n      tag_74\n      jumpi\n      0x00\n      dup1\n      revert\n    tag_74:\n        /* \"@aave/core-v3/contracts/dependencies/openzeppelin/contracts/SafeMath.sol\":410:539  function add(uint256 x, uint256 y) internal pure returns (uint256 z) {... */\n      swap3\n      swap2\n      pop\n      pop\n      jump\t// out\n        /* \"#utility.yul\":7:133   */\n    tag_75:\n        /* \"#utility.yul\":44:51   */\n      0x00\n        /* \"#utility.yul\":84:126   */\n      0xffffffffffffffffffffffffffffffffffffffff\n        /* \"#utility.yul\":77:82   */\n      dup3\n        /* \"#utility.yul\":73:127   */\n      and\n        /* \"#utility.yul\":62:127   */\n      swap1\n      pop\n        /* \"#utility.yul\":7:133   */\n      swap2\n      swap1\n      pop\n      jump\t// out\n        /* \"#utility.yul\":139:199   */\n    tag_76:\n        /* \"#utility.yul\":167:170   */\n      0x00\n        /* \"#utility.yul\":188:193   */\n      dup2\n        /* \"#utility.yul\":181:193   */\n      swap1\n      pop\n        /* \"#utility.yul\":139:199   */\n      swap2\n      swap1\n      pop\n      jump\t// out\n        /* \"#utility.yul\":205:347   */\n    tag_77:\n        /* \"#utility.yul\":255:264   */\n      0x00\n        /* \"#utility.yul\":288:341   */\n      tag_127\n        /* \"#utility.yul\":306:340   */\n      tag_128\n        /* \"#utility.yul\":315:339   */\n      tag_129\n        /* \"#utility.yul\":333:338   */\n      dup5\n        /* \"#utility.yul\":315:339   */\n      tag_75\n      jump\t// in\n    tag_129:\n        /* \"#utility.yul\":306:340   */\n      tag_76\n      jump\t// in\n    tag_128:\n        /* \"#utility.yul\":288:341   */\n      tag_75\n      jump\t// in\n    tag_127:\n        /* \"#utility.yul\":275:341   */\n      swap1\n      pop\n        /* \"#utility.yul\":205:347   */\n      swap2\n      swap1\n      pop\n      jump\t// out\n        /* \"#utility.yul\":353:479   */\n    tag_78:\n        /* \"#utility.yul\":403:412   */\n      0x00\n        /* \"#utility.yul\":436:473   */\n      tag_131\n        /* \"#utility.yul\":467:472   */\n      dup3\n        /* \"#utility.yul\":436:473   */\n      tag_77\n      jump\t// in\n    tag_131:\n        /* \"#utility.yul\":423:473   */\n      swap1\n      pop\n        /* \"#utility.yul\":353:479   */\n      swap2\n      swap1\n      pop\n      jump\t// out\n        /* \"#utility.yul\":485:641   */\n    tag_79:\n        /* \"#utility.yul\":565:574   */\n      0x00\n        /* \"#utility.yul\":598:635   */\n      tag_133\n        /* \"#utility.yul\":629:634   */\n      dup3\n        /* \"#utility.yul\":598:635   */\n      tag_78\n      jump\t// in\n    tag_133:\n        /* \"#utility.yul\":585:635   */\n      swap1\n      pop\n        /* \"#utility.yul\":485:641   */\n      swap2\n      swap1\n      pop\n      jump\t// out\n        /* \"#utility.yul\":647:838   */\n    tag_80:\n        /* \"#utility.yul\":764:831   */\n      tag_135\n        /* \"#utility.yul\":825:830   */\n      dup2\n        /* \"#utility.yul\":764:831   */\n      tag_79\n      jump\t// in\n    tag_135:\n        /* \"#utility.yul\":759:762   */\n      dup3\n        /* \"#utility.yul\":752:832   */\n      mstore\n        /* \"#utility.yul\":647:838   */\n      pop\n      pop\n      jump\t// out\n        /* \"#utility.yul\":844:1126   */\n    tag_10:\n        /* \"#utility.yul\":967:971   */\n      0x00\n        /* \"#utility.yul\":1005:1007   */\n      0x20\n        /* \"#utility.yul\":994:1003   */\n      dup3\n        /* \"#utility.yul\":990:1008   */\n      add\n        /* \"#utility.yul\":982:1008   */\n      swap1\n      pop\n        /* \"#utility.yul\":1018:1119   */\n      tag_137\n        /* \"#utility.yul\":1116:1117   */\n      0x00\n        /* \"#utility.yul\":1105:1114   */\n      dup4\n        /* \"#utility.yul\":1101:1118   */\n      add\n        /* \"#utility.yul\":1092:1098   */\n      dup5\n        /* \"#utility.yul\":1018:1119   */\n      tag_80\n      jump\t// in\n    tag_137:\n        /* \"#utility.yul\":844:1126   */\n      swap3\n      swap2\n      pop\n      pop\n      jump\t// out\n        /* \"#utility.yul\":1213:1330   */\n    tag_82:\n        /* \"#utility.yul\":1322:1323   */\n      0x00\n        /* \"#utility.yul\":1319:1320   */\n      dup1\n        /* \"#utility.yul\":1312:1324   */\n      revert\n        /* \"#utility.yul\":1336:1453   */\n    tag_83:\n        /* \"#utility.yul\":1445:1446   */\n      0x00\n        /* \"#utility.yul\":1442:1443   */\n      dup1\n        /* \"#utility.yul\":1435:1447   */\n      revert\n        /* \"#utility.yul\":1459:1555   */\n    tag_84:\n        /* \"#utility.yul\":1496:1503   */\n      0x00\n        /* \"#utility.yul\":1525:1549   */\n      tag_142\n        /* \"#utility.yul\":1543:1548   */\n      dup3\n        /* \"#utility.yul\":1525:1549   */\n      tag_75\n      jump\t// in\n    tag_142:\n        /* \"#utility.yul\":1514:1549   */\n      swap1\n      pop\n        /* \"#utility.yul\":1459:1555   */\n      swap2\n      swap1\n      pop\n      jump\t// out\n        /* \"#utility.yul\":1561:1683   */\n    tag_85:\n        /* \"#utility.yul\":1634:1658   */\n      tag_144\n        /* \"#utility.yul\":1652:1657   */\n      dup2\n        /* \"#utility.yul\":1634:1658   */\n      tag_84\n      jump\t// in\n    tag_144:\n        /* \"#utility.yul\":1627:1632   */\n      dup2\n        /* \"#utility.yul\":1624:1659   */\n      eq\n        /* \"#utility.yul\":1614:1677   */\n      tag_145\n      jumpi\n        /* \"#utility.yul\":1673:1674   */\n      0x00\n        /* \"#utility.yul\":1670:1671   */\n      dup1\n        /* \"#utility.yul\":1663:1675   */\n      revert\n        /* \"#utility.yul\":1614:1677   */\n    tag_145:\n        /* \"#utility.yul\":1561:1683   */\n      pop\n      jump\t// out\n        /* \"#utility.yul\":1689:1828   */\n    tag_86:\n        /* \"#utility.yul\":1735:1740   */\n      0x00\n        /* \"#utility.yul\":1773:1779   */\n      dup2\n        /* \"#utility.yul\":1760:1780   */\n      calldataload\n        /* \"#utility.yul\":1751:1780   */\n      swap1\n      pop\n        /* \"#utility.yul\":1789:1822   */\n      tag_147\n        /* \"#utility.yul\":1816:1821   */\n      dup2\n        /* \"#utility.yul\":1789:1822   */\n      tag_85\n      jump\t// in\n    tag_147:\n        /* \"#utility.yul\":1689:1828   */\n      swap3\n      swap2\n      pop\n      pop\n      jump\t// out\n        /* \"#utility.yul\":1834:1911   */\n    tag_87:\n        /* \"#utility.yul\":1871:1878   */\n      0x00\n        /* \"#utility.yul\":1900:1905   */\n      dup2\n        /* \"#utility.yul\":1889:1905   */\n      swap1\n      pop\n        /* \"#utility.yul\":1834:1911   */\n      swap2\n      swap1\n      pop\n      jump\t// out\n        /* \"#utility.yul\":1917:2039   */\n    tag_88:\n        /* \"#utility.yul\":1990:2014   */\n      tag_150\n        /* \"#utility.yul\":2008:2013   */\n      dup2\n        /* \"#utility.yul\":1990:2014   */\n      tag_87\n      jump\t// in\n    tag_150:\n        /* \"#utility.yul\":1983:1988   */\n      dup2\n        /* \"#utility.yul\":1980:2015   */\n      eq\n        /* \"#utility.yul\":1970:2033   */\n      tag_151\n      jumpi\n        /* \"#utility.yul\":2029:2030   */\n      0x00\n        /* \"#utility.yul\":2026:2027   */\n      dup1\n        /* \"#utility.yul\":2019:2031   */\n      revert\n        /* \"#utility.yul\":1970:2033   */\n    tag_151:\n        /* \"#utility.yul\":1917:2039   */\n      pop\n      jump\t// out\n        /* \"#utility.yul\":2045:2184   */\n    tag_89:\n        /* \"#utility.yul\":2091:2096   */\n      0x00\n        /* \"#utility.yul\":2129:2135   */\n      dup2\n        /* \"#utility.yul\":2116:2136   */\n      calldataload\n        /* \"#utility.yul\":2107:2136   */\n      swap1\n      pop\n        /* \"#utility.yul\":2145:2178   */\n      tag_153\n        /* \"#utility.yul\":2172:2177   */\n      dup2\n        /* \"#utility.yul\":2145:2178   */\n      tag_88\n      jump\t// in\n    tag_153:\n        /* \"#utility.yul\":2045:2184   */\n      swap3\n      swap2\n      pop\n      pop\n      jump\t// out\n        /* \"#utility.yul\":2190:2307   */\n    tag_90:\n        /* \"#utility.yul\":2299:2300   */\n      0x00\n        /* \"#utility.yul\":2296:2297   */\n      dup1\n        /* \"#utility.yul\":2289:2301   */\n      revert\n        /* \"#utility.yul\":2313:2430   */\n    tag_91:\n        /* \"#utility.yul\":2422:2423   */\n      0x00\n        /* \"#utility.yul\":2419:2420   */\n      dup1\n        /* \"#utility.yul\":2412:2424   */\n      revert\n        /* \"#utility.yul\":2436:2553   */\n    tag_92:\n        /* \"#utility.yul\":2545:2546   */\n      0x00\n        /* \"#utility.yul\":2542:2543   */\n      dup1\n        /* \"#utility.yul\":2535:2547   */\n      revert\n        /* \"#utility.yul\":2572:3124   */\n    tag_93:\n        /* \"#utility.yul\":2629:2637   */\n      0x00\n        /* \"#utility.yul\":2639:2645   */\n      dup1\n        /* \"#utility.yul\":2689:2692   */\n      dup4\n        /* \"#utility.yul\":2682:2686   */\n      0x1f\n        /* \"#utility.yul\":2674:2680   */\n      dup5\n        /* \"#utility.yul\":2670:2687   */\n      add\n        /* \"#utility.yul\":2666:2693   */\n      slt\n        /* \"#utility.yul\":2656:2778   */\n      tag_158\n      jumpi\n        /* \"#utility.yul\":2697:2776   */\n      tag_159\n      tag_90\n      jump\t// in\n    tag_159:\n        /* \"#utility.yul\":2656:2778   */\n    tag_158:\n        /* \"#utility.yul\":2810:2816   */\n      dup3\n        /* \"#utility.yul\":2797:2817   */\n      calldataload\n        /* \"#utility.yul\":2787:2817   */\n      swap1\n      pop\n        /* \"#utility.yul\":2840:2858   */\n      0xffffffffffffffff\n        /* \"#utility.yul\":2832:2838   */\n      dup2\n        /* \"#utility.yul\":2829:2859   */\n      gt\n        /* \"#utility.yul\":2826:2943   */\n      iszero\n      tag_160\n      jumpi\n        /* \"#utility.yul\":2862:2941   */\n      tag_161\n      tag_91\n      jump\t// in\n    tag_161:\n        /* \"#utility.yul\":2826:2943   */\n    tag_160:\n        /* \"#utility.yul\":2976:2980   */\n      0x20\n        /* \"#utility.yul\":2968:2974   */\n      dup4\n        /* \"#utility.yul\":2964:2981   */\n      add\n        /* \"#utility.yul\":2952:2981   */\n      swap2\n      pop\n        /* \"#utility.yul\":3030:3033   */\n      dup4\n        /* \"#utility.yul\":3022:3026   */\n      0x01\n        /* \"#utility.yul\":3014:3020   */\n      dup3\n        /* \"#utility.yul\":3010:3027   */\n      mul\n        /* \"#utility.yul\":3000:3008   */\n      dup4\n        /* \"#utility.yul\":2996:3028   */\n      add\n        /* \"#utility.yul\":2993:3034   */\n      gt\n        /* \"#utility.yul\":2990:3118   */\n      iszero\n      tag_162\n      jumpi\n        /* \"#utility.yul\":3037:3116   */\n      tag_163\n      tag_92\n      jump\t// in\n    tag_163:\n        /* \"#utility.yul\":2990:3118   */\n    tag_162:\n        /* \"#utility.yul\":2572:3124   */\n      swap3\n      pop\n      swap3\n      swap1\n      pop\n      jump\t// out\n        /* \"#utility.yul\":3130:4239   */\n    tag_13:\n        /* \"#utility.yul\":3236:3242   */\n      0x00\n        /* \"#utility.yul\":3244:3250   */\n      dup1\n        /* \"#utility.yul\":3252:3258   */\n      0x00\n        /* \"#utility.yul\":3260:3266   */\n      dup1\n        /* \"#utility.yul\":3268:3274   */\n      0x00\n        /* \"#utility.yul\":3276:3282   */\n      dup1\n        /* \"#utility.yul\":3325:3328   */\n      0xa0\n        /* \"#utility.yul\":3313:3322   */\n      dup8\n        /* \"#utility.yul\":3304:3311   */\n      dup10\n        /* \"#utility.yul\":3300:3323   */\n      sub\n        /* \"#utility.yul\":3296:3329   */\n      slt\n        /* \"#utility.yul\":3293:3413   */\n      iszero\n      tag_165\n      jumpi\n        /* \"#utility.yul\":3332:3411   */\n      tag_166\n      tag_82\n      jump\t// in\n    tag_166:\n        /* \"#utility.yul\":3293:3413   */\n    tag_165:\n        /* \"#utility.yul\":3452:3453   */\n      0x00\n        /* \"#utility.yul\":3477:3530   */\n      tag_167\n        /* \"#utility.yul\":3522:3529   */\n      dup10\n        /* \"#utility.yul\":3513:3519   */\n      dup3\n        /* \"#utility.yul\":3502:3511   */\n      dup11\n        /* \"#utility.yul\":3498:3520   */\n      add\n        /* \"#utility.yul\":3477:3530   */\n      tag_86\n      jump\t// in\n    tag_167:\n        /* \"#utility.yul\":3467:3530   */\n      swap7\n      pop\n        /* \"#utility.yul\":3423:3540   */\n      pop\n        /* \"#utility.yul\":3579:3581   */\n      0x20\n        /* \"#utility.yul\":3605:3658   */\n      tag_168\n        /* \"#utility.yul\":3650:3657   */\n      dup10\n        /* \"#utility.yul\":3641:3647   */\n      dup3\n        /* \"#utility.yul\":3630:3639   */\n      dup11\n        /* \"#utility.yul\":3626:3648   */\n      add\n        /* \"#utility.yul\":3605:3658   */\n      tag_89\n      jump\t// in\n    tag_168:\n        /* \"#utility.yul\":3595:3658   */\n      swap6\n      pop\n        /* \"#utility.yul\":3550:3668   */\n      pop\n        /* \"#utility.yul\":3707:3709   */\n      0x40\n        /* \"#utility.yul\":3733:3786   */\n      tag_169\n        /* \"#utility.yul\":3778:3785   */\n      dup10\n        /* \"#utility.yul\":3769:3775   */\n      dup3\n        /* \"#utility.yul\":3758:3767   */\n      dup11\n        /* \"#utility.yul\":3754:3776   */\n      add\n        /* \"#utility.yul\":3733:3786   */\n      tag_89\n      jump\t// in\n    tag_169:\n        /* \"#utility.yul\":3723:3786   */\n      swap5\n      pop\n        /* \"#utility.yul\":3678:3796   */\n      pop\n        /* \"#utility.yul\":3835:3837   */\n      0x60\n        /* \"#utility.yul\":3861:3914   */\n      tag_170\n        /* \"#utility.yul\":3906:3913   */\n      dup10\n        /* \"#utility.yul\":3897:3903   */\n      dup3\n        /* \"#utility.yul\":3886:3895   */\n      dup11\n        /* \"#utility.yul\":3882:3904   */\n      add\n        /* \"#utility.yul\":3861:3914   */\n      tag_86\n      jump\t// in\n    tag_170:\n        /* \"#utility.yul\":3851:3914   */\n      swap4\n      pop\n        /* \"#utility.yul\":3806:3924   */\n      pop\n        /* \"#utility.yul\":3991:3994   */\n      0x80\n        /* \"#utility.yul\":3980:3989   */\n      dup8\n        /* \"#utility.yul\":3976:3995   */\n      add\n        /* \"#utility.yul\":3963:3996   */\n      calldataload\n        /* \"#utility.yul\":4023:4041   */\n      0xffffffffffffffff\n        /* \"#utility.yul\":4015:4021   */\n      dup2\n        /* \"#utility.yul\":4012:4042   */\n      gt\n        /* \"#utility.yul\":4009:4126   */\n      iszero\n      tag_171\n      jumpi\n        /* \"#utility.yul\":4045:4124   */\n      tag_172\n      tag_83\n      jump\t// in\n    tag_172:\n        /* \"#utility.yul\":4009:4126   */\n    tag_171:\n        /* \"#utility.yul\":4158:4222   */\n      tag_173\n        /* \"#utility.yul\":4214:4221   */\n      dup10\n        /* \"#utility.yul\":4205:4211   */\n      dup3\n        /* \"#utility.yul\":4194:4203   */\n      dup11\n        /* \"#utility.yul\":4190:4212   */\n      add\n        /* \"#utility.yul\":4158:4222   */\n      tag_93\n      jump\t// in\n    tag_173:\n        /* \"#utility.yul\":4140:4222   */\n      swap3\n      pop\n      swap3\n      pop\n        /* \"#utility.yul\":3934:4232   */\n      pop\n        /* \"#utility.yul\":3130:4239   */\n      swap3\n      swap6\n      pop\n      swap3\n      swap6\n      pop\n      swap3\n      swap6\n      jump\t// out\n        /* \"#utility.yul\":4245:4335   */\n    tag_94:\n        /* \"#utility.yul\":4279:4286   */\n      0x00\n        /* \"#utility.yul\":4322:4327   */\n      dup2\n        /* \"#utility.yul\":4315:4328   */\n      iszero\n        /* \"#utility.yul\":4308:4329   */\n      iszero\n        /* \"#utility.yul\":4297:4329   */\n      swap1\n      pop\n        /* \"#utility.yul\":4245:4335   */\n      swap2\n      swap1\n      pop\n      jump\t// out\n        /* \"#utility.yul\":4341:4450   */\n    tag_95:\n        /* \"#utility.yul\":4422:4443   */\n      tag_176\n        /* \"#utility.yul\":4437:4442   */\n      dup2\n        /* \"#utility.yul\":4422:4443   */\n      tag_94\n      jump\t// in\n    tag_176:\n        /* \"#utility.yul\":4417:4420   */\n      dup3\n        /* \"#utility.yul\":4410:4444   */\n      mstore\n        /* \"#utility.yul\":4341:4450   */\n      pop\n      pop\n      jump\t// out\n        /* \"#utility.yul\":4456:4666   */\n    tag_16:\n        /* \"#utility.yul\":4543:4547   */\n      0x00\n        /* \"#utility.yul\":4581:4583   */\n      0x20\n        /* \"#utility.yul\":4570:4579   */\n      dup3\n        /* \"#utility.yul\":4566:4584   */\n      add\n        /* \"#utility.yul\":4558:4584   */\n      swap1\n      pop\n        /* \"#utility.yul\":4594:4659   */\n      tag_178\n        /* \"#utility.yul\":4656:4657   */\n      0x00\n        /* \"#utility.yul\":4645:4654   */\n      dup4\n        /* \"#utility.yul\":4641:4658   */\n      add\n        /* \"#utility.yul\":4632:4638   */\n      dup5\n        /* \"#utility.yul\":4594:4659   */\n      tag_95\n      jump\t// in\n    tag_178:\n        /* \"#utility.yul\":4456:4666   */\n      swap3\n      swap2\n      pop\n      pop\n      jump\t// out\n        /* \"#utility.yul\":4672:4811   */\n    tag_96:\n        /* \"#utility.yul\":4735:4744   */\n      0x00\n        /* \"#utility.yul\":4768:4805   */\n      tag_180\n        /* \"#utility.yul\":4799:4804   */\n      dup3\n        /* \"#utility.yul\":4768:4805   */\n      tag_78\n      jump\t// in\n    tag_180:\n        /* \"#utility.yul\":4755:4805   */\n      swap1\n      pop\n        /* \"#utility.yul\":4672:4811   */\n      swap2\n      swap1\n      pop\n      jump\t// out\n        /* \"#utility.yul\":4817:4974   */\n    tag_97:\n        /* \"#utility.yul\":4917:4967   */\n      tag_182\n        /* \"#utility.yul\":4961:4966   */\n      dup2\n        /* \"#utility.yul\":4917:4967   */\n      tag_96\n      jump\t// in\n    tag_182:\n        /* \"#utility.yul\":4912:4915   */\n      dup3\n        /* \"#utility.yul\":4905:4968   */\n      mstore\n        /* \"#utility.yul\":4817:4974   */\n      pop\n      pop\n      jump\t// out\n        /* \"#utility.yul\":4980:5228   */\n    tag_20:\n        /* \"#utility.yul\":5086:5090   */\n      0x00\n        /* \"#utility.yul\":5124:5126   */\n      0x20\n        /* \"#utility.yul\":5113:5122   */\n      dup3\n        /* \"#utility.yul\":5109:5127   */\n      add\n        /* \"#utility.yul\":5101:5127   */\n      swap1\n      pop\n        /* \"#utility.yul\":5137:5221   */\n      tag_184\n        /* \"#utility.yul\":5218:5219   */\n      0x00\n        /* \"#utility.yul\":5207:5216   */\n      dup4\n        /* \"#utility.yul\":5203:5220   */\n      add\n        /* \"#utility.yul\":5194:5200   */\n      dup5\n        /* \"#utility.yul\":5137:5221   */\n      tag_97\n      jump\t// in\n    tag_184:\n        /* \"#utility.yul\":4980:5228   */\n      swap3\n      swap2\n      pop\n      pop\n      jump\t// out\n        /* \"#utility.yul\":5234:5708   */\n    tag_23:\n        /* \"#utility.yul\":5302:5308   */\n      0x00\n        /* \"#utility.yul\":5310:5316   */\n      dup1\n        /* \"#utility.yul\":5359:5361   */\n      0x40\n        /* \"#utility.yul\":5347:5356   */\n      dup4\n        /* \"#utility.yul\":5338:5345   */\n      dup6\n        /* \"#utility.yul\":5334:5357   */\n      sub\n        /* \"#utility.yul\":5330:5362   */\n      slt\n        /* \"#utility.yul\":5327:5446   */\n      iszero\n      tag_186\n      jumpi\n        /* \"#utility.yul\":5365:5444   */\n      tag_187\n      tag_82\n      jump\t// in\n    tag_187:\n        /* \"#utility.yul\":5327:5446   */\n    tag_186:\n        /* \"#utility.yul\":5485:5486   */\n      0x00\n        /* \"#utility.yul\":5510:5563   */\n      tag_188\n        /* \"#utility.yul\":5555:5562   */\n      dup6\n        /* \"#utility.yul\":5546:5552   */\n      dup3\n        /* \"#utility.yul\":5535:5544   */\n      dup7\n        /* \"#utility.yul\":5531:5553   */\n      add\n        /* \"#utility.yul\":5510:5563   */\n      tag_86\n      jump\t// in\n    tag_188:\n        /* \"#utility.yul\":5500:5563   */\n      swap3\n      pop\n        /* \"#utility.yul\":5456:5573   */\n      pop\n        /* \"#utility.yul\":5612:5614   */\n      0x20\n        /* \"#utility.yul\":5638:5691   */\n      tag_189\n        /* \"#utility.yul\":5683:5690   */\n      dup6\n        /* \"#utility.yul\":5674:5680   */\n      dup3\n        /* \"#utility.yul\":5663:5672   */\n      dup7\n        /* \"#utility.yul\":5659:5681   */\n      add\n        /* \"#utility.yul\":5638:5691   */\n      tag_89\n      jump\t// in\n    tag_189:\n        /* \"#utility.yul\":5628:5691   */\n      swap2\n      pop\n        /* \"#utility.yul\":5583:5701   */\n      pop\n        /* \"#utility.yul\":5234:5708   */\n      swap3\n      pop\n      swap3\n      swap1\n      pop\n      jump\t// out\n        /* \"#utility.yul\":5714:5832   */\n    tag_98:\n        /* \"#utility.yul\":5801:5825   */\n      tag_191\n        /* \"#utility.yul\":5819:5824   */\n      dup2\n        /* \"#utility.yul\":5801:5825   */\n      tag_84\n      jump\t// in\n    tag_191:\n        /* \"#utility.yul\":5796:5799   */\n      dup3\n        /* \"#utility.yul\":5789:5826   */\n      mstore\n        /* \"#utility.yul\":5714:5832   */\n      pop\n      pop\n      jump\t// out\n        /* \"#utility.yul\":5838:5956   */\n    tag_99:\n        /* \"#utility.yul\":5925:5949   */\n      tag_193\n        /* \"#utility.yul\":5943:5948   */\n      dup2\n        /* \"#utility.yul\":5925:5949   */\n      tag_87\n      jump\t// in\n    tag_193:\n        /* \"#utility.yul\":5920:5923   */\n      dup3\n        /* \"#utility.yul\":5913:5950   */\n      mstore\n        /* \"#utility.yul\":5838:5956   */\n      pop\n      pop\n      jump\t// out\n        /* \"#utility.yul\":5962:6294   */\n    tag_29:\n        /* \"#utility.yul\":6083:6087   */\n      0x00\n        /* \"#utility.yul\":6121:6123   */\n      0x40\n        /* \"#utility.yul\":6110:6119   */\n      dup3\n        /* \"#utility.yul\":6106:6124   */\n      add\n        /* \"#utility.yul\":6098:6124   */\n      swap1\n      pop\n        /* \"#utility.yul\":6134:6205   */\n      tag_195\n        /* \"#utility.yul\":6202:6203   */\n      0x00\n        /* \"#utility.yul\":6191:6200   */\n      dup4\n        /* \"#utility.yul\":6187:6204   */\n      add\n        /* \"#utility.yul\":6178:6184   */\n      dup6\n        /* \"#utility.yul\":6134:6205   */\n      tag_98\n      jump\t// in\n    tag_195:\n        /* \"#utility.yul\":6215:6287   */\n      tag_196\n        /* \"#utility.yul\":6283:6285   */\n      0x20\n        /* \"#utility.yul\":6272:6281   */\n      dup4\n        /* \"#utility.yul\":6268:6286   */\n      add\n        /* \"#utility.yul\":6259:6265   */\n      dup5\n        /* \"#utility.yul\":6215:6287   */\n      tag_99\n      jump\t// in\n    tag_196:\n        /* \"#utility.yul\":5962:6294   */\n      swap4\n      swap3\n      pop\n      pop\n      pop\n      jump\t// out\n        /* \"#utility.yul\":6300:6416   */\n    tag_100:\n        /* \"#utility.yul\":6370:6391   */\n      tag_198\n        /* \"#utility.yul\":6385:6390   */\n      dup2\n        /* \"#utility.yul\":6370:6391   */\n      tag_94\n      jump\t// in\n    tag_198:\n        /* \"#utility.yul\":6363:6368   */\n      dup2\n        /* \"#utility.yul\":6360:6392   */\n      eq\n        /* \"#utility.yul\":6350:6410   */\n      tag_199\n      jumpi\n        /* \"#utility.yul\":6406:6407   */\n      0x00\n        /* \"#utility.yul\":6403:6404   */\n      dup1\n        /* \"#utility.yul\":6396:6408   */\n      revert\n        /* \"#utility.yul\":6350:6410   */\n    tag_199:\n        /* \"#utility.yul\":6300:6416   */\n      pop\n      jump\t// out\n        /* \"#utility.yul\":6422:6559   */\n    tag_101:\n        /* \"#utility.yul\":6476:6481   */\n      0x00\n        /* \"#utility.yul\":6507:6513   */\n      dup2\n        /* \"#utility.yul\":6501:6514   */\n      mload\n        /* \"#utility.yul\":6492:6514   */\n      swap1\n      pop\n        /* \"#utility.yul\":6523:6553   */\n      tag_201\n        /* \"#utility.yul\":6547:6552   */\n      dup2\n        /* \"#utility.yul\":6523:6553   */\n      tag_100\n      jump\t// in\n    tag_201:\n        /* \"#utility.yul\":6422:6559   */\n      swap3\n      swap2\n      pop\n      pop\n      jump\t// out\n        /* \"#utility.yul\":6565:6910   */\n    tag_33:\n        /* \"#utility.yul\":6632:6638   */\n      0x00\n        /* \"#utility.yul\":6681:6683   */\n      0x20\n        /* \"#utility.yul\":6669:6678   */\n      dup3\n        /* \"#utility.yul\":6660:6667   */\n      dup5\n        /* \"#utility.yul\":6656:6679   */\n      sub\n        /* \"#utility.yul\":6652:6684   */\n      slt\n        /* \"#utility.yul\":6649:6768   */\n      iszero\n      tag_203\n      jumpi\n        /* \"#utility.yul\":6687:6766   */\n      tag_204\n      tag_82\n      jump\t// in\n    tag_204:\n        /* \"#utility.yul\":6649:6768   */\n    tag_203:\n        /* \"#utility.yul\":6807:6808   */\n      0x00\n        /* \"#utility.yul\":6832:6893   */\n      tag_205\n        /* \"#utility.yul\":6885:6892   */\n      dup5\n        /* \"#utility.yul\":6876:6882   */\n      dup3\n        /* \"#utility.yul\":6865:6874   */\n      dup6\n        /* \"#utility.yul\":6861:6883   */\n      add\n        /* \"#utility.yul\":6832:6893   */\n      tag_101\n      jump\t// in\n    tag_205:\n        /* \"#utility.yul\":6822:6893   */\n      swap2\n      pop\n        /* \"#utility.yul\":6778:6903   */\n      pop\n        /* \"#utility.yul\":6565:6910   */\n      swap3\n      swap2\n      pop\n      pop\n      jump\t// out\n        /* \"#utility.yul\":6916:7096   */\n    tag_37:\n        /* \"#utility.yul\":6964:7041   */\n      0x4e487b7100000000000000000000000000000000000000000000000000000000\n        /* \"#utility.yul\":6961:6962   */\n      0x00\n        /* \"#utility.yul\":6954:7042   */\n      mstore\n        /* \"#utility.yul\":7061:7065   */\n      0x41\n        /* \"#utility.yul\":7058:7059   */\n      0x04\n        /* \"#utility.yul\":7051:7066   */\n      mstore\n        /* \"#utility.yul\":7085:7089   */\n      0x24\n        /* \"#utility.yul\":7082:7083   */\n      0x00\n        /* \"#utility.yul\":7075:7090   */\n      revert\n        /* \"#utility.yul\":7102:7282   */\n    tag_41:\n        /* \"#utility.yul\":7150:7227   */\n      0x4e487b7100000000000000000000000000000000000000000000000000000000\n        /* \"#utility.yul\":7147:7148   */\n      0x00\n        /* \"#utility.yul\":7140:7228   */\n      mstore\n        /* \"#utility.yul\":7247:7251   */\n      0x32\n        /* \"#utility.yul\":7244:7245   */\n      0x04\n        /* \"#utility.yul\":7237:7252   */\n      mstore\n        /* \"#utility.yul\":7271:7275   */\n      0x24\n        /* \"#utility.yul\":7268:7269   */\n      0x00\n        /* \"#utility.yul\":7261:7276   */\n      revert\n        /* \"#utility.yul\":7288:7402   */\n    tag_102:\n        /* \"#utility.yul\":7355:7361   */\n      0x00\n        /* \"#utility.yul\":7389:7394   */\n      dup2\n        /* \"#utility.yul\":7383:7395   */\n      mload\n        /* \"#utility.yul\":7373:7395   */\n      swap1\n      pop\n        /* \"#utility.yul\":7288:7402   */\n      swap2\n      swap1\n      pop\n      jump\t// out\n        /* \"#utility.yul\":7408:7592   */\n    tag_103:\n        /* \"#utility.yul\":7507:7518   */\n      0x00\n        /* \"#utility.yul\":7541:7547   */\n      dup3\n        /* \"#utility.yul\":7536:7539   */\n      dup3\n        /* \"#utility.yul\":7529:7548   */\n      mstore\n        /* \"#utility.yul\":7581:7585   */\n      0x20\n        /* \"#utility.yul\":7576:7579   */\n      dup3\n        /* \"#utility.yul\":7572:7586   */\n      add\n        /* \"#utility.yul\":7557:7586   */\n      swap1\n      pop\n        /* \"#utility.yul\":7408:7592   */\n      swap3\n      swap2\n      pop\n      pop\n      jump\t// out\n        /* \"#utility.yul\":7598:7730   */\n    tag_104:\n        /* \"#utility.yul\":7665:7669   */\n      0x00\n        /* \"#utility.yul\":7688:7691   */\n      dup2\n        /* \"#utility.yul\":7680:7691   */\n      swap1\n      pop\n        /* \"#utility.yul\":7718:7722   */\n      0x20\n        /* \"#utility.yul\":7713:7716   */\n      dup3\n        /* \"#utility.yul\":7709:7723   */\n      add\n        /* \"#utility.yul\":7701:7723   */\n      swap1\n      pop\n        /* \"#utility.yul\":7598:7730   */\n      swap2\n      swap1\n      pop\n      jump\t// out\n        /* \"#utility.yul\":7736:7844   */\n    tag_105:\n        /* \"#utility.yul\":7813:7837   */\n      tag_212\n        /* \"#utility.yul\":7831:7836   */\n      dup2\n        /* \"#utility.yul\":7813:7837   */\n      tag_84\n      jump\t// in\n    tag_212:\n        /* \"#utility.yul\":7808:7811   */\n      dup3\n        /* \"#utility.yul\":7801:7838   */\n      mstore\n        /* \"#utility.yul\":7736:7844   */\n      pop\n      pop\n      jump\t// out\n        /* \"#utility.yul\":7850:8029   */\n    tag_106:\n        /* \"#utility.yul\":7919:7929   */\n      0x00\n        /* \"#utility.yul\":7940:7986   */\n      tag_214\n        /* \"#utility.yul\":7982:7985   */\n      dup4\n        /* \"#utility.yul\":7974:7980   */\n      dup4\n        /* \"#utility.yul\":7940:7986   */\n      tag_105\n      jump\t// in\n    tag_214:\n        /* \"#utility.yul\":8018:8022   */\n      0x20\n        /* \"#utility.yul\":8013:8016   */\n      dup4\n        /* \"#utility.yul\":8009:8023   */\n      add\n        /* \"#utility.yul\":7995:8023   */\n      swap1\n      pop\n        /* \"#utility.yul\":7850:8029   */\n      swap3\n      swap2\n      pop\n      pop\n      jump\t// out\n        /* \"#utility.yul\":8035:8148   */\n    tag_107:\n        /* \"#utility.yul\":8105:8109   */\n      0x00\n        /* \"#utility.yul\":8137:8141   */\n      0x20\n        /* \"#utility.yul\":8132:8135   */\n      dup3\n        /* \"#utility.yul\":8128:8142   */\n      add\n        /* \"#utility.yul\":8120:8142   */\n      swap1\n      pop\n        /* \"#utility.yul\":8035:8148   */\n      swap2\n      swap1\n      pop\n      jump\t// out\n        /* \"#utility.yul\":8184:8916   */\n    tag_108:\n        /* \"#utility.yul\":8303:8306   */\n      0x00\n        /* \"#utility.yul\":8332:8386   */\n      tag_217\n        /* \"#utility.yul\":8380:8385   */\n      dup3\n        /* \"#utility.yul\":8332:8386   */\n      tag_102\n      jump\t// in\n    tag_217:\n        /* \"#utility.yul\":8402:8488   */\n      tag_218\n        /* \"#utility.yul\":8481:8487   */\n      dup2\n        /* \"#utility.yul\":8476:8479   */\n      dup6\n        /* \"#utility.yul\":8402:8488   */\n      tag_103\n      jump\t// in\n    tag_218:\n        /* \"#utility.yul\":8395:8488   */\n      swap4\n      pop\n        /* \"#utility.yul\":8512:8568   */\n      tag_219\n        /* \"#utility.yul\":8562:8567   */\n      dup4\n        /* \"#utility.yul\":8512:8568   */\n      tag_104\n      jump\t// in\n    tag_219:\n        /* \"#utility.yul\":8591:8598   */\n      dup1\n        /* \"#utility.yul\":8622:8623   */\n      0x00\n        /* \"#utility.yul\":8607:8891   */\n    tag_220:\n        /* \"#utility.yul\":8632:8638   */\n      dup4\n        /* \"#utility.yul\":8629:8630   */\n      dup2\n        /* \"#utility.yul\":8626:8639   */\n      lt\n        /* \"#utility.yul\":8607:8891   */\n      iszero\n      tag_222\n      jumpi\n        /* \"#utility.yul\":8708:8714   */\n      dup2\n        /* \"#utility.yul\":8702:8715   */\n      mload\n        /* \"#utility.yul\":8735:8798   */\n      tag_223\n        /* \"#utility.yul\":8794:8797   */\n      dup9\n        /* \"#utility.yul\":8779:8792   */\n      dup3\n        /* \"#utility.yul\":8735:8798   */\n      tag_106\n      jump\t// in\n    tag_223:\n        /* \"#utility.yul\":8728:8798   */\n      swap8\n      pop\n        /* \"#utility.yul\":8821:8881   */\n      tag_224\n        /* \"#utility.yul\":8874:8880   */\n      dup4\n        /* \"#utility.yul\":8821:8881   */\n      tag_107\n      jump\t// in\n    tag_224:\n        /* \"#utility.yul\":8811:8881   */\n      swap3\n      pop\n        /* \"#utility.yul\":8667:8891   */\n      pop\n        /* \"#utility.yul\":8654:8655   */\n      0x01\n        /* \"#utility.yul\":8651:8652   */\n      dup2\n        /* \"#utility.yul\":8647:8656   */\n      add\n        /* \"#utility.yul\":8642:8656   */\n      swap1\n      pop\n        /* \"#utility.yul\":8607:8891   */\n      jump(tag_220)\n    tag_222:\n        /* \"#utility.yul\":8611:8625   */\n      pop\n        /* \"#utility.yul\":8907:8910   */\n      dup6\n        /* \"#utility.yul\":8900:8910   */\n      swap4\n      pop\n        /* \"#utility.yul\":8308:8916   */\n      pop\n      pop\n      pop\n        /* \"#utility.yul\":8184:8916   */\n      swap3\n      swap2\n      pop\n      pop\n      jump\t// out\n        /* \"#utility.yul\":8922:9036   */\n    tag_109:\n        /* \"#utility.yul\":8989:8995   */\n      0x00\n        /* \"#utility.yul\":9023:9028   */\n      dup2\n        /* \"#utility.yul\":9017:9029   */\n      mload\n        /* \"#utility.yul\":9007:9029   */\n      swap1\n      pop\n        /* \"#utility.yul\":8922:9036   */\n      swap2\n      swap1\n      pop\n      jump\t// out\n        /* \"#utility.yul\":9042:9226   */\n    tag_110:\n        /* \"#utility.yul\":9141:9152   */\n      0x00\n        /* \"#utility.yul\":9175:9181   */\n      dup3\n        /* \"#utility.yul\":9170:9173   */\n      dup3\n        /* \"#utility.yul\":9163:9182   */\n      mstore\n        /* \"#utility.yul\":9215:9219   */\n      0x20\n        /* \"#utility.yul\":9210:9213   */\n      dup3\n        /* \"#utility.yul\":9206:9220   */\n      add\n        /* \"#utility.yul\":9191:9220   */\n      swap1\n      pop\n        /* \"#utility.yul\":9042:9226   */\n      swap3\n      swap2\n      pop\n      pop\n      jump\t// out\n        /* \"#utility.yul\":9232:9364   */\n    tag_111:\n        /* \"#utility.yul\":9299:9303   */\n      0x00\n        /* \"#utility.yul\":9322:9325   */\n      dup2\n        /* \"#utility.yul\":9314:9325   */\n      swap1\n      pop\n        /* \"#utility.yul\":9352:9356   */\n      0x20\n        /* \"#utility.yul\":9347:9350   */\n      dup3\n        /* \"#utility.yul\":9343:9357   */\n      add\n        /* \"#utility.yul\":9335:9357   */\n      swap1\n      pop\n        /* \"#utility.yul\":9232:9364   */\n      swap2\n      swap1\n      pop\n      jump\t// out\n        /* \"#utility.yul\":9370:9478   */\n    tag_112:\n        /* \"#utility.yul\":9447:9471   */\n      tag_229\n        /* \"#utility.yul\":9465:9470   */\n      dup2\n        /* \"#utility.yul\":9447:9471   */\n      tag_87\n      jump\t// in\n    tag_229:\n        /* \"#utility.yul\":9442:9445   */\n      dup3\n        /* \"#utility.yul\":9435:9472   */\n      mstore\n        /* \"#utility.yul\":9370:9478   */\n      pop\n      pop\n      jump\t// out\n        /* \"#utility.yul\":9484:9663   */\n    tag_113:\n        /* \"#utility.yul\":9553:9563   */\n      0x00\n        /* \"#utility.yul\":9574:9620   */\n      tag_231\n        /* \"#utility.yul\":9616:9619   */\n      dup4\n        /* \"#utility.yul\":9608:9614   */\n      dup4\n        /* \"#utility.yul\":9574:9620   */\n      tag_112\n      jump\t// in\n    tag_231:\n        /* \"#utility.yul\":9652:9656   */\n      0x20\n        /* \"#utility.yul\":9647:9650   */\n      dup4\n        /* \"#utility.yul\":9643:9657   */\n      add\n        /* \"#utility.yul\":9629:9657   */\n      swap1\n      pop\n        /* \"#utility.yul\":9484:9663   */\n      swap3\n      swap2\n      pop\n      pop\n      jump\t// out\n        /* \"#utility.yul\":9669:9782   */\n    tag_114:\n        /* \"#utility.yul\":9739:9743   */\n      0x00\n        /* \"#utility.yul\":9771:9775   */\n      0x20\n        /* \"#utility.yul\":9766:9769   */\n      dup3\n        /* \"#utility.yul\":9762:9776   */\n      add\n        /* \"#utility.yul\":9754:9776   */\n      swap1\n      pop\n        /* \"#utility.yul\":9669:9782   */\n      swap2\n      swap1\n      pop\n      jump\t// out\n        /* \"#utility.yul\":9818:10550   */\n    tag_115:\n        /* \"#utility.yul\":9937:9940   */\n      0x00\n        /* \"#utility.yul\":9966:10020   */\n      tag_234\n        /* \"#utility.yul\":10014:10019   */\n      dup3\n        /* \"#utility.yul\":9966:10020   */\n      tag_109\n      jump\t// in\n    tag_234:\n        /* \"#utility.yul\":10036:10122   */\n      tag_235\n        /* \"#utility.yul\":10115:10121   */\n      dup2\n        /* \"#utility.yul\":10110:10113   */\n      dup6\n        /* \"#utility.yul\":10036:10122   */\n      tag_110\n      jump\t// in\n    tag_235:\n        /* \"#utility.yul\":10029:10122   */\n      swap4\n      pop\n        /* \"#utility.yul\":10146:10202   */\n      tag_236\n        /* \"#utility.yul\":10196:10201   */\n      dup4\n        /* \"#utility.yul\":10146:10202   */\n      tag_111\n      jump\t// in\n    tag_236:\n        /* \"#utility.yul\":10225:10232   */\n      dup1\n        /* \"#utility.yul\":10256:10257   */\n      0x00\n        /* \"#utility.yul\":10241:10525   */\n    tag_237:\n        /* \"#utility.yul\":10266:10272   */\n      dup4\n        /* \"#utility.yul\":10263:10264   */\n      dup2\n        /* \"#utility.yul\":10260:10273   */\n      lt\n        /* \"#utility.yul\":10241:10525   */\n      iszero\n      tag_239\n      jumpi\n        /* \"#utility.yul\":10342:10348   */\n      dup2\n        /* \"#utility.yul\":10336:10349   */\n      mload\n        /* \"#utility.yul\":10369:10432   */\n      tag_240\n        /* \"#utility.yul\":10428:10431   */\n      dup9\n        /* \"#utility.yul\":10413:10426   */\n      dup3\n        /* \"#utility.yul\":10369:10432   */\n      tag_113\n      jump\t// in\n    tag_240:\n        /* \"#utility.yul\":10362:10432   */\n      swap8\n      pop\n        /* \"#utility.yul\":10455:10515   */\n      tag_241\n        /* \"#utility.yul\":10508:10514   */\n      dup4\n        /* \"#utility.yul\":10455:10515   */\n      tag_114\n      jump\t// in\n    tag_241:\n        /* \"#utility.yul\":10445:10515   */\n      swap3\n      pop\n        /* \"#utility.yul\":10301:10525   */\n      pop\n        /* \"#utility.yul\":10288:10289   */\n      0x01\n        /* \"#utility.yul\":10285:10286   */\n      dup2\n        /* \"#utility.yul\":10281:10290   */\n      add\n        /* \"#utility.yul\":10276:10290   */\n      swap1\n      pop\n        /* \"#utility.yul\":10241:10525   */\n      jump(tag_237)\n    tag_239:\n        /* \"#utility.yul\":10245:10259   */\n      pop\n        /* \"#utility.yul\":10541:10544   */\n      dup6\n        /* \"#utility.yul\":10534:10544   */\n      swap4\n      pop\n        /* \"#utility.yul\":9942:10550   */\n      pop\n      pop\n      pop\n        /* \"#utility.yul\":9818:10550   */\n      swap3\n      swap2\n      pop\n      pop\n      jump\t// out\n        /* \"#utility.yul\":10556:10654   */\n    tag_116:\n        /* \"#utility.yul\":10607:10613   */\n      0x00\n        /* \"#utility.yul\":10641:10646   */\n      dup2\n        /* \"#utility.yul\":10635:10647   */\n      mload\n        /* \"#utility.yul\":10625:10647   */\n      swap1\n      pop\n        /* \"#utility.yul\":10556:10654   */\n      swap2\n      swap1\n      pop\n      jump\t// out\n        /* \"#utility.yul\":10660:10828   */\n    tag_117:\n        /* \"#utility.yul\":10743:10754   */\n      0x00\n        /* \"#utility.yul\":10777:10783   */\n      dup3\n        /* \"#utility.yul\":10772:10775   */\n      dup3\n        /* \"#utility.yul\":10765:10784   */\n      mstore\n        /* \"#utility.yul\":10817:10821   */\n      0x20\n        /* \"#utility.yul\":10812:10815   */\n      dup3\n        /* \"#utility.yul\":10808:10822   */\n      add\n        /* \"#utility.yul\":10793:10822   */\n      swap1\n      pop\n        /* \"#utility.yul\":10660:10828   */\n      swap3\n      swap2\n      pop\n      pop\n      jump\t// out\n        /* \"#utility.yul\":10834:11141   */\n    tag_118:\n        /* \"#utility.yul\":10902:10903   */\n      0x00\n        /* \"#utility.yul\":10912:11025   */\n    tag_245:\n        /* \"#utility.yul\":10926:10932   */\n      dup4\n        /* \"#utility.yul\":10923:10924   */\n      dup2\n        /* \"#utility.yul\":10920:10933   */\n      lt\n        /* \"#utility.yul\":10912:11025   */\n      iszero\n      tag_247\n      jumpi\n        /* \"#utility.yul\":11011:11012   */\n      dup1\n        /* \"#utility.yul\":11006:11009   */\n      dup3\n        /* \"#utility.yul\":11002:11013   */\n      add\n        /* \"#utility.yul\":10996:11014   */\n      mload\n        /* \"#utility.yul\":10992:10993   */\n      dup2\n        /* \"#utility.yul\":10987:10990   */\n      dup5\n        /* \"#utility.yul\":10983:10994   */\n      add\n        /* \"#utility.yul\":10976:11015   */\n      mstore\n        /* \"#utility.yul\":10948:10950   */\n      0x20\n        /* \"#utility.yul\":10945:10946   */\n      dup2\n        /* \"#utility.yul\":10941:10951   */\n      add\n        /* \"#utility.yul\":10936:10951   */\n      swap1\n      pop\n        /* \"#utility.yul\":10912:11025   */\n      jump(tag_245)\n    tag_247:\n        /* \"#utility.yul\":11043:11049   */\n      dup4\n        /* \"#utility.yul\":11040:11041   */\n      dup2\n        /* \"#utility.yul\":11037:11050   */\n      gt\n        /* \"#utility.yul\":11034:11135   */\n      iszero\n      tag_248\n      jumpi\n        /* \"#utility.yul\":11123:11124   */\n      0x00\n        /* \"#utility.yul\":11114:11120   */\n      dup5\n        /* \"#utility.yul\":11109:11112   */\n      dup5\n        /* \"#utility.yul\":11105:11121   */\n      add\n        /* \"#utility.yul\":11098:11125   */\n      mstore\n        /* \"#utility.yul\":11034:11135   */\n    tag_248:\n        /* \"#utility.yul\":10883:11141   */\n      pop\n        /* \"#utility.yul\":10834:11141   */\n      pop\n      pop\n      pop\n      jump\t// out\n        /* \"#utility.yul\":11147:11249   */\n    tag_119:\n        /* \"#utility.yul\":11188:11194   */\n      0x00\n        /* \"#utility.yul\":11239:11241   */\n      0x1f\n        /* \"#utility.yul\":11235:11242   */\n      not\n        /* \"#utility.yul\":11230:11232   */\n      0x1f\n        /* \"#utility.yul\":11223:11228   */\n      dup4\n        /* \"#utility.yul\":11219:11233   */\n      add\n        /* \"#utility.yul\":11215:11243   */\n      and\n        /* \"#utility.yul\":11205:11243   */\n      swap1\n      pop\n        /* \"#utility.yul\":11147:11249   */\n      swap2\n      swap1\n      pop\n      jump\t// out\n        /* \"#utility.yul\":11255:11615   */\n    tag_120:\n        /* \"#utility.yul\":11341:11344   */\n      0x00\n        /* \"#utility.yul\":11369:11407   */\n      tag_251\n        /* \"#utility.yul\":11401:11406   */\n      dup3\n        /* \"#utility.yul\":11369:11407   */\n      tag_116\n      jump\t// in\n    tag_251:\n        /* \"#utility.yul\":11423:11493   */\n      tag_252\n        /* \"#utility.yul\":11486:11492   */\n      dup2\n        /* \"#utility.yul\":11481:11484   */\n      dup6\n        /* \"#utility.yul\":11423:11493   */\n      tag_117\n      jump\t// in\n    tag_252:\n        /* \"#utility.yul\":11416:11493   */\n      swap4\n      pop\n        /* \"#utility.yul\":11502:11554   */\n      tag_253\n        /* \"#utility.yul\":11547:11553   */\n      dup2\n        /* \"#utility.yul\":11542:11545   */\n      dup6\n        /* \"#utility.yul\":11535:11539   */\n      0x20\n        /* \"#utility.yul\":11528:11533   */\n      dup7\n        /* \"#utility.yul\":11524:11540   */\n      add\n        /* \"#utility.yul\":11502:11554   */\n      tag_118\n      jump\t// in\n    tag_253:\n        /* \"#utility.yul\":11579:11608   */\n      tag_254\n        /* \"#utility.yul\":11601:11607   */\n      dup2\n        /* \"#utility.yul\":11579:11608   */\n      tag_119\n      jump\t// in\n    tag_254:\n        /* \"#utility.yul\":11574:11577   */\n      dup5\n        /* \"#utility.yul\":11570:11609   */\n      add\n        /* \"#utility.yul\":11563:11609   */\n      swap2\n      pop\n        /* \"#utility.yul\":11345:11615   */\n      pop\n        /* \"#utility.yul\":11255:11615   */\n      swap3\n      swap2\n      pop\n      pop\n      jump\t// out\n        /* \"#utility.yul\":11621:11710   */\n    tag_121:\n        /* \"#utility.yul\":11657:11664   */\n      0x00\n        /* \"#utility.yul\":11697:11703   */\n      0xffff\n        /* \"#utility.yul\":11690:11695   */\n      dup3\n        /* \"#utility.yul\":11686:11704   */\n      and\n        /* \"#utility.yul\":11675:11704   */\n      swap1\n      pop\n        /* \"#utility.yul\":11621:11710   */\n      swap2\n      swap1\n      pop\n      jump\t// out\n        /* \"#utility.yul\":11716:11831   */\n    tag_122:\n        /* \"#utility.yul\":11801:11824   */\n      tag_257\n        /* \"#utility.yul\":11818:11823   */\n      dup2\n        /* \"#utility.yul\":11801:11824   */\n      tag_121\n      jump\t// in\n    tag_257:\n        /* \"#utility.yul\":11796:11799   */\n      dup3\n        /* \"#utility.yul\":11789:11825   */\n      mstore\n        /* \"#utility.yul\":11716:11831   */\n      pop\n      pop\n      jump\t// out\n        /* \"#utility.yul\":11837:13259   */\n    tag_69:\n        /* \"#utility.yul\":12264:12268   */\n      0x00\n        /* \"#utility.yul\":12302:12305   */\n      0xe0\n        /* \"#utility.yul\":12291:12300   */\n      dup3\n        /* \"#utility.yul\":12287:12306   */\n      add\n        /* \"#utility.yul\":12279:12306   */\n      swap1\n      pop\n        /* \"#utility.yul\":12316:12387   */\n      tag_259\n        /* \"#utility.yul\":12384:12385   */\n      0x00\n        /* \"#utility.yul\":12373:12382   */\n      dup4\n        /* \"#utility.yul\":12369:12386   */\n      add\n        /* \"#utility.yul\":12360:12366   */\n      dup11\n        /* \"#utility.yul\":12316:12387   */\n      tag_98\n      jump\t// in\n    tag_259:\n        /* \"#utility.yul\":12434:12443   */\n      dup2\n        /* \"#utility.yul\":12428:12432   */\n      dup2\n        /* \"#utility.yul\":12424:12444   */\n      sub\n        /* \"#utility.yul\":12419:12421   */\n      0x20\n        /* \"#utility.yul\":12408:12417   */\n      dup4\n        /* \"#utility.yul\":12404:12422   */\n      add\n        /* \"#utility.yul\":12397:12445   */\n      mstore\n        /* \"#utility.yul\":12462:12570   */\n      tag_260\n        /* \"#utility.yul\":12565:12569   */\n      dup2\n        /* \"#utility.yul\":12556:12562   */\n      dup10\n        /* \"#utility.yul\":12462:12570   */\n      tag_108\n      jump\t// in\n    tag_260:\n        /* \"#utility.yul\":12454:12570   */\n      swap1\n      pop\n        /* \"#utility.yul\":12617:12626   */\n      dup2\n        /* \"#utility.yul\":12611:12615   */\n      dup2\n        /* \"#utility.yul\":12607:12627   */\n      sub\n        /* \"#utility.yul\":12602:12604   */\n      0x40\n        /* \"#utility.yul\":12591:12600   */\n      dup4\n        /* \"#utility.yul\":12587:12605   */\n      add\n        /* \"#utility.yul\":12580:12628   */\n      mstore\n        /* \"#utility.yul\":12645:12753   */\n      tag_261\n        /* \"#utility.yul\":12748:12752   */\n      dup2\n        /* \"#utility.yul\":12739:12745   */\n      dup9\n        /* \"#utility.yul\":12645:12753   */\n      tag_115\n      jump\t// in\n    tag_261:\n        /* \"#utility.yul\":12637:12753   */\n      swap1\n      pop\n        /* \"#utility.yul\":12800:12809   */\n      dup2\n        /* \"#utility.yul\":12794:12798   */\n      dup2\n        /* \"#utility.yul\":12790:12810   */\n      sub\n        /* \"#utility.yul\":12785:12787   */\n      0x60\n        /* \"#utility.yul\":12774:12783   */\n      dup4\n        /* \"#utility.yul\":12770:12788   */\n      add\n        /* \"#utility.yul\":12763:12811   */\n      mstore\n        /* \"#utility.yul\":12828:12936   */\n      tag_262\n        /* \"#utility.yul\":12931:12935   */\n      dup2\n        /* \"#utility.yul\":12922:12928   */\n      dup8\n        /* \"#utility.yul\":12828:12936   */\n      tag_115\n      jump\t// in\n    tag_262:\n        /* \"#utility.yul\":12820:12936   */\n      swap1\n      pop\n        /* \"#utility.yul\":12946:13019   */\n      tag_263\n        /* \"#utility.yul\":13014:13017   */\n      0x80\n        /* \"#utility.yul\":13003:13012   */\n      dup4\n        /* \"#utility.yul\":12999:13018   */\n      add\n        /* \"#utility.yul\":12990:12996   */\n      dup7\n        /* \"#utility.yul\":12946:13019   */\n      tag_98\n      jump\t// in\n    tag_263:\n        /* \"#utility.yul\":13067:13076   */\n      dup2\n        /* \"#utility.yul\":13061:13065   */\n      dup2\n        /* \"#utility.yul\":13057:13077   */\n      sub\n        /* \"#utility.yul\":13051:13054   */\n      0xa0\n        /* \"#utility.yul\":13040:13049   */\n      dup4\n        /* \"#utility.yul\":13036:13055   */\n      add\n        /* \"#utility.yul\":13029:13078   */\n      mstore\n        /* \"#utility.yul\":13095:13171   */\n      tag_264\n        /* \"#utility.yul\":13166:13170   */\n      dup2\n        /* \"#utility.yul\":13157:13163   */\n      dup6\n        /* \"#utility.yul\":13095:13171   */\n      tag_120\n      jump\t// in\n    tag_264:\n        /* \"#utility.yul\":13087:13171   */\n      swap1\n      pop\n        /* \"#utility.yul\":13181:13252   */\n      tag_265\n        /* \"#utility.yul\":13247:13250   */\n      0xc0\n        /* \"#utility.yul\":13236:13245   */\n      dup4\n        /* \"#utility.yul\":13232:13251   */\n      add\n        /* \"#utility.yul\":13223:13229   */\n      dup5\n        /* \"#utility.yul\":13181:13252   */\n      tag_122\n      jump\t// in\n    tag_265:\n        /* \"#utility.yul\":11837:13259   */\n      swap9\n      swap8\n      pop\n      pop\n      pop\n      pop\n      pop\n      pop\n      pop\n      pop\n      jump\t// out\n\n    auxdata: 0xa2646970667358221220c6945c097e02900d6eadeaa990717cc82ae81ceacabc6d4ea9b67e4b6dbde71564736f6c634300080a0033\n}\n",
				"bytecode": {
					"linkReferences": {},
					"object": "60c0604052737a250d5630b4cf539739df2c5dacb4c659f2488d6000806101000a81548173ffffffffffffffffffffffffffffffffffffffff021916908373ffffffffffffffffffffffffffffffffffffffff160217905550735c69bee701ef814a2b6a3edd4b1652cb9cc5aa6f600160006101000a81548173ffffffffffffffffffffffffffffffffffffffff021916908373ffffffffffffffffffffffffffffffffffffffff16021790555073c36442b4a4522e871399cd717abdd847ab11fe88600260006101000a81548173ffffffffffffffffffffffffffffffffffffffff021916908373ffffffffffffffffffffffffffffffffffffffff160217905550731f98431c8ad98523631ae4a59f267346ea31f984600360006101000a81548173ffffffffffffffffffffffffffffffffffffffff021916908373ffffffffffffffffffffffffffffffffffffffff1602179055507368b3465833fb72a70ecdf485e0e4c7bd8665fc45600460006101000a81548173ffffffffffffffffffffffffffffffffffffffff021916908373ffffffffffffffffffffffffffffffffffffffff160217905550738ca302e2b04ecdb5d14cced580a379b40e8ed8b7600560006101000a81548173ffffffffffffffffffffffffffffffffffffffff021916908373ffffffffffffffffffffffffffffffffffffffff16021790555073ffada869df79320120dffd6eee8cf664dba43146600660006101000a81548173ffffffffffffffffffffffffffffffffffffffff021916908373ffffffffffffffffffffffffffffffffffffffff1602179055507369f9e353f7411479912d2e9f3e436ae83486c17b600760006101000a81548173ffffffffffffffffffffffffffffffffffffffff021916908373ffffffffffffffffffffffffffffffffffffffff160217905550612ad16008557387b1f4cf9bd63f7bbd3ee1ad04e8f52540349347600960006101000a81548173ffffffffffffffffffffffffffffffffffffffff021916908373ffffffffffffffffffffffffffffffffffffffff16021790555073651b8a8ca545b251a8f49b57d5838da0a8dfbef9600a60006101000a81548173ffffffffffffffffffffffffffffffffffffffff021916908373ffffffffffffffffffffffffffffffffffffffff16021790555073329462f8ed05e5ffbf6dfb84106e76b69e6b1f94600b60006101000a81548173ffffffffffffffffffffffffffffffffffffffff021916908373ffffffffffffffffffffffffffffffffffffffff16021790555060008054906101000a900473ffffffffffffffffffffffffffffffffffffffff16600c60006101000a81548173ffffffffffffffffffffffffffffffffffffffff021916908373ffffffffffffffffffffffffffffffffffffffff160217905550600460009054906101000a900473ffffffffffffffffffffffffffffffffffffffff16600d60006101000a81548173ffffffffffffffffffffffffffffffffffffffff021916908373ffffffffffffffffffffffffffffffffffffffff160217905550600560009054906101000a900473ffffffffffffffffffffffffffffffffffffffff16600e60006101000a81548173ffffffffffffffffffffffffffffffffffffffff021916908373ffffffffffffffffffffffffffffffffffffffff160217905550600660009054906101000a900473ffffffffffffffffffffffffffffffffffffffff16600f60006101000a81548173ffffffffffffffffffffffffffffffffffffffff021916908373ffffffffffffffffffffffffffffffffffffffff1602179055503480156200054757600080fd5b50600a60009054906101000a900473ffffffffffffffffffffffffffffffffffffffff1673ffffffffffffffffffffffffffffffffffffffff1660808173ffffffffffffffffffffffffffffffffffffffff168152505060805173ffffffffffffffffffffffffffffffffffffffff1663026b1d5f6040518163ffffffff1660e01b8152600401602060405180830381865afa158015620005ec573d6000803e3d6000fd5b505050506040513d601f19601f82011682018060405250810190620006129190620006b5565b73ffffffffffffffffffffffffffffffffffffffff1660a08173ffffffffffffffffffffffffffffffffffffffff1681525050620006e7565b600080fd5b600073ffffffffffffffffffffffffffffffffffffffff82169050919050565b60006200067d8262000650565b9050919050565b6200068f8162000670565b81146200069b57600080fd5b50565b600081519050620006af8162000684565b92915050565b600060208284031215620006ce57620006cd6200064b565b5b6000620006de848285016200069e565b91505092915050565b60805160a051610e2b6200071a60003960008181610133015281816101c501526106b80152600060db0152610e2b6000f3fe608060405234801561001057600080fd5b506004361061004c5760003560e01c80630542975c146100515780631b11d0ff1461006f5780637535d2461461009f578063cea8fe55146100bd575b600080fd5b6100596100d9565b60405161006691906107f0565b60405180910390f35b610089600480360381019061008491906108ee565b6100fd565b60405161009691906109a3565b60405180910390f35b6100a76101c3565b6040516100b491906109df565b60405180910390f35b6100d760048036038101906100d291906109fa565b6101e7565b005b7f000000000000000000000000000000000000000000000000000000000000000081565b600080610113868861075790919063ffffffff16565b90508773ffffffffffffffffffffffffffffffffffffffff1663095ea7b37f0000000000000000000000000000000000000000000000000000000000000000836040518363ffffffff1660e01b8152600401610170929190610a58565b6020604051808303816000875af115801561018f573d6000803e3d6000fd5b505050506040513d601f19601f820116820180604052508101906101b39190610aad565b5060019150509695505050505050565b7f000000000000000000000000000000000000000000000000000000000000000081565b60003090506000600167ffffffffffffffff81111561020957610208610ada565b5b6040519080825280602002602001820160405280156102375781602001602082028036833780820191505090505b509050838160008151811061024f5761024e610b09565b5b602002602001019073ffffffffffffffffffffffffffffffffffffffff16908173ffffffffffffffffffffffffffffffffffffffff16815250506000600167ffffffffffffffff8111156102a6576102a5610ada565b5b6040519080825280602002602001820160405280156102d45781602001602082028036833780820191505090505b50905083816000815181106102ec576102eb610b09565b5b6020026020010181815250506000600167ffffffffffffffff81111561031557610314610ada565b5b6040519080825280602002602001820160405280156103435781602001602082028036833780820191505090505b50905060008160008151811061035c5761035b610b09565b5b60200260200101818152505060006040518060200160405280600081525090506000600e60009054906101000a900473ffffffffffffffffffffffffffffffffffffffff1673ffffffffffffffffffffffffffffffffffffffff1663095ea7b3600c60009054906101000a900473ffffffffffffffffffffffffffffffffffffffff166a52b7d2dcc80cd2e40000006040518363ffffffff1660e01b8152600401610408929190610a58565b6020604051808303816000875af1158015610427573d6000803e3d6000fd5b505050506040513d601f19601f8201168201806040525081019061044b9190610aad565b50600e60009054906101000a900473ffffffffffffffffffffffffffffffffffffffff1673ffffffffffffffffffffffffffffffffffffffff1663095ea7b3600d60009054906101000a900473ffffffffffffffffffffffffffffffffffffffff166a52b7d2dcc80cd2e40000006040518363ffffffff1660e01b81526004016104d6929190610a58565b6020604051808303816000875af11580156104f5573d6000803e3d6000fd5b505050506040513d601f19601f820116820180604052508101906105199190610aad565b50600f60009054906101000a900473ffffffffffffffffffffffffffffffffffffffff1673ffffffffffffffffffffffffffffffffffffffff1663095ea7b3600c60009054906101000a900473ffffffffffffffffffffffffffffffffffffffff166a52b7d2dcc80cd2e40000006040518363ffffffff1660e01b81526004016105a4929190610a58565b6020604051808303816000875af11580156105c3573d6000803e3d6000fd5b505050506040513d601f19601f820116820180604052508101906105e79190610aad565b50600f60009054906101000a900473ffffffffffffffffffffffffffffffffffffffff1673ffffffffffffffffffffffffffffffffffffffff1663095ea7b3600d60009054906101000a900473ffffffffffffffffffffffffffffffffffffffff166a52b7d2dcc80cd2e40000006040518363ffffffff1660e01b8152600401610672929190610a58565b6020604051808303816000875af1158015610691573d6000803e3d6000fd5b505050506040513d601f19601f820116820180604052508101906106b59190610aad565b507f000000000000000000000000000000000000000000000000000000000000000073ffffffffffffffffffffffffffffffffffffffff1663ab9c4b5d878787878b88886040518863ffffffff1660e01b815260040161071b9796959493929190610d6a565b600060405180830381600087803b15801561073557600080fd5b505af1158015610749573d6000803e3d6000fd5b505050505050505050505050565b600082828401915081101561076b57600080fd5b92915050565b600073ffffffffffffffffffffffffffffffffffffffff82169050919050565b6000819050919050565b60006107b66107b16107ac84610771565b610791565b610771565b9050919050565b60006107c88261079b565b9050919050565b60006107da826107bd565b9050919050565b6107ea816107cf565b82525050565b600060208201905061080560008301846107e1565b92915050565b600080fd5b600080fd5b600061082082610771565b9050919050565b61083081610815565b811461083b57600080fd5b50565b60008135905061084d81610827565b92915050565b6000819050919050565b61086681610853565b811461087157600080fd5b50565b6000813590506108838161085d565b92915050565b600080fd5b600080fd5b600080fd5b60008083601f8401126108ae576108ad610889565b5b8235905067ffffffffffffffff8111156108cb576108ca61088e565b5b6020830191508360018202830111156108e7576108e6610893565b5b9250929050565b60008060008060008060a0878903121561090b5761090a61080b565b5b600061091989828a0161083e565b965050602061092a89828a01610874565b955050604061093b89828a01610874565b945050606061094c89828a0161083e565b935050608087013567ffffffffffffffff81111561096d5761096c610810565b5b61097989828a01610898565b92509250509295509295509295565b60008115159050919050565b61099d81610988565b82525050565b60006020820190506109b86000830184610994565b92915050565b60006109c9826107bd565b9050919050565b6109d9816109be565b82525050565b60006020820190506109f460008301846109d0565b92915050565b60008060408385031215610a1157610a1061080b565b5b6000610a1f8582860161083e565b9250506020610a3085828601610874565b9150509250929050565b610a4381610815565b82525050565b610a5281610853565b82525050565b6000604082019050610a6d6000830185610a3a565b610a7a6020830184610a49565b9392505050565b610a8a81610988565b8114610a9557600080fd5b50565b600081519050610aa781610a81565b92915050565b600060208284031215610ac357610ac261080b565b5b6000610ad184828501610a98565b91505092915050565b7f4e487b7100000000000000000000000000000000000000000000000000000000600052604160045260246000fd5b7f4e487b7100000000000000000000000000000000000000000000000000000000600052603260045260246000fd5b600081519050919050565b600082825260208201905092915050565b6000819050602082019050919050565b610b6d81610815565b82525050565b6000610b7f8383610b64565b60208301905092915050565b6000602082019050919050565b6000610ba382610b38565b610bad8185610b43565b9350610bb883610b54565b8060005b83811015610be9578151610bd08882610b73565b9750610bdb83610b8b565b925050600181019050610bbc565b5085935050505092915050565b600081519050919050565b600082825260208201905092915050565b6000819050602082019050919050565b610c2b81610853565b82525050565b6000610c3d8383610c22565b60208301905092915050565b6000602082019050919050565b6000610c6182610bf6565b610c6b8185610c01565b9350610c7683610c12565b8060005b83811015610ca7578151610c8e8882610c31565b9750610c9983610c49565b925050600181019050610c7a565b5085935050505092915050565b600081519050919050565b600082825260208201905092915050565b60005b83811015610cee578082015181840152602081019050610cd3565b83811115610cfd576000848401525b50505050565b6000601f19601f8301169050919050565b6000610d1f82610cb4565b610d298185610cbf565b9350610d39818560208601610cd0565b610d4281610d03565b840191505092915050565b600061ffff82169050919050565b610d6481610d4d565b82525050565b600060e082019050610d7f600083018a610a3a565b8181036020830152610d918189610b98565b90508181036040830152610da58188610c56565b90508181036060830152610db98187610c56565b9050610dc86080830186610a3a565b81810360a0830152610dda8185610d14565b9050610de960c0830184610d5b565b9897505050505050505056fea2646970667358221220c6945c097e02900d6eadeaa990717cc82ae81ceacabc6d4ea9b67e4b6dbde71564736f6c634300080a0033",
					"opcodes": "PUSH1 0xC0 PUSH1 0x40 MSTORE PUSH20 0x7A250D5630B4CF539739DF2C5DACB4C659F2488D PUSH1 0x0 DUP1 PUSH2 0x100 EXP DUP2 SLOAD DUP2 PUSH20 0xFFFFFFFFFFFFFFFFFFFFFFFFFFFFFFFFFFFFFFFF MUL NOT AND SWAP1 DUP4 PUSH20 0xFFFFFFFFFFFFFFFFFFFFFFFFFFFFFFFFFFFFFFFF AND MUL OR SWAP1 SSTORE POP PUSH20 0x5C69BEE701EF814A2B6A3EDD4B1652CB9CC5AA6F PUSH1 0x1 PUSH1 0x0 PUSH2 0x100 EXP DUP2 SLOAD DUP2 PUSH20 0xFFFFFFFFFFFFFFFFFFFFFFFFFFFFFFFFFFFFFFFF MUL NOT AND SWAP1 DUP4 PUSH20 0xFFFFFFFFFFFFFFFFFFFFFFFFFFFFFFFFFFFFFFFF AND MUL OR SWAP1 SSTORE POP PUSH20 0xC36442B4A4522E871399CD717ABDD847AB11FE88 PUSH1 0x2 PUSH1 0x0 PUSH2 0x100 EXP DUP2 SLOAD DUP2 PUSH20 0xFFFFFFFFFFFFFFFFFFFFFFFFFFFFFFFFFFFFFFFF MUL NOT AND SWAP1 DUP4 PUSH20 0xFFFFFFFFFFFFFFFFFFFFFFFFFFFFFFFFFFFFFFFF AND MUL OR SWAP1 SSTORE POP PUSH20 0x1F98431C8AD98523631AE4A59F267346EA31F984 PUSH1 0x3 PUSH1 0x0 PUSH2 0x100 EXP DUP2 SLOAD DUP2 PUSH20 0xFFFFFFFFFFFFFFFFFFFFFFFFFFFFFFFFFFFFFFFF MUL NOT AND SWAP1 DUP4 PUSH20 0xFFFFFFFFFFFFFFFFFFFFFFFFFFFFFFFFFFFFFFFF AND MUL OR SWAP1 SSTORE POP PUSH20 0x68B3465833FB72A70ECDF485E0E4C7BD8665FC45 PUSH1 0x4 PUSH1 0x0 PUSH2 0x100 EXP DUP2 SLOAD DUP2 PUSH20 0xFFFFFFFFFFFFFFFFFFFFFFFFFFFFFFFFFFFFFFFF MUL NOT AND SWAP1 DUP4 PUSH20 0xFFFFFFFFFFFFFFFFFFFFFFFFFFFFFFFFFFFFFFFF AND MUL OR SWAP1 SSTORE POP PUSH20 0x8CA302E2B04ECDB5D14CCED580A379B40E8ED8B7 PUSH1 0x5 PUSH1 0x0 PUSH2 0x100 EXP DUP2 SLOAD DUP2 PUSH20 0xFFFFFFFFFFFFFFFFFFFFFFFFFFFFFFFFFFFFFFFF MUL NOT AND SWAP1 DUP4 PUSH20 0xFFFFFFFFFFFFFFFFFFFFFFFFFFFFFFFFFFFFFFFF AND MUL OR SWAP1 SSTORE POP PUSH20 0xFFADA869DF79320120DFFD6EEE8CF664DBA43146 PUSH1 0x6 PUSH1 0x0 PUSH2 0x100 EXP DUP2 SLOAD DUP2 PUSH20 0xFFFFFFFFFFFFFFFFFFFFFFFFFFFFFFFFFFFFFFFF MUL NOT AND SWAP1 DUP4 PUSH20 0xFFFFFFFFFFFFFFFFFFFFFFFFFFFFFFFFFFFFFFFF AND MUL OR SWAP1 SSTORE POP PUSH20 0x69F9E353F7411479912D2E9F3E436AE83486C17B PUSH1 0x7 PUSH1 0x0 PUSH2 0x100 EXP DUP2 SLOAD DUP2 PUSH20 0xFFFFFFFFFFFFFFFFFFFFFFFFFFFFFFFFFFFFFFFF MUL NOT AND SWAP1 DUP4 PUSH20 0xFFFFFFFFFFFFFFFFFFFFFFFFFFFFFFFFFFFFFFFF AND MUL OR SWAP1 SSTORE POP PUSH2 0x2AD1 PUSH1 0x8 SSTORE PUSH20 0x87B1F4CF9BD63F7BBD3EE1AD04E8F52540349347 PUSH1 0x9 PUSH1 0x0 PUSH2 0x100 EXP DUP2 SLOAD DUP2 PUSH20 0xFFFFFFFFFFFFFFFFFFFFFFFFFFFFFFFFFFFFFFFF MUL NOT AND SWAP1 DUP4 PUSH20 0xFFFFFFFFFFFFFFFFFFFFFFFFFFFFFFFFFFFFFFFF AND MUL OR SWAP1 SSTORE POP PUSH20 0x651B8A8CA545B251A8F49B57D5838DA0A8DFBEF9 PUSH1 0xA PUSH1 0x0 PUSH2 0x100 EXP DUP2 SLOAD DUP2 PUSH20 0xFFFFFFFFFFFFFFFFFFFFFFFFFFFFFFFFFFFFFFFF MUL NOT AND SWAP1 DUP4 PUSH20 0xFFFFFFFFFFFFFFFFFFFFFFFFFFFFFFFFFFFFFFFF AND MUL OR SWAP1 SSTORE POP PUSH20 0x329462F8ED05E5FFBF6DFB84106E76B69E6B1F94 PUSH1 0xB PUSH1 0x0 PUSH2 0x100 EXP DUP2 SLOAD DUP2 PUSH20 0xFFFFFFFFFFFFFFFFFFFFFFFFFFFFFFFFFFFFFFFF MUL NOT AND SWAP1 DUP4 PUSH20 0xFFFFFFFFFFFFFFFFFFFFFFFFFFFFFFFFFFFFFFFF AND MUL OR SWAP1 SSTORE POP PUSH1 0x0 DUP1 SLOAD SWAP1 PUSH2 0x100 EXP SWAP1 DIV PUSH20 0xFFFFFFFFFFFFFFFFFFFFFFFFFFFFFFFFFFFFFFFF AND PUSH1 0xC PUSH1 0x0 PUSH2 0x100 EXP DUP2 SLOAD DUP2 PUSH20 0xFFFFFFFFFFFFFFFFFFFFFFFFFFFFFFFFFFFFFFFF MUL NOT AND SWAP1 DUP4 PUSH20 0xFFFFFFFFFFFFFFFFFFFFFFFFFFFFFFFFFFFFFFFF AND MUL OR SWAP1 SSTORE POP PUSH1 0x4 PUSH1 0x0 SWAP1 SLOAD SWAP1 PUSH2 0x100 EXP SWAP1 DIV PUSH20 0xFFFFFFFFFFFFFFFFFFFFFFFFFFFFFFFFFFFFFFFF AND PUSH1 0xD PUSH1 0x0 PUSH2 0x100 EXP DUP2 SLOAD DUP2 PUSH20 0xFFFFFFFFFFFFFFFFFFFFFFFFFFFFFFFFFFFFFFFF MUL NOT AND SWAP1 DUP4 PUSH20 0xFFFFFFFFFFFFFFFFFFFFFFFFFFFFFFFFFFFFFFFF AND MUL OR SWAP1 SSTORE POP PUSH1 0x5 PUSH1 0x0 SWAP1 SLOAD SWAP1 PUSH2 0x100 EXP SWAP1 DIV PUSH20 0xFFFFFFFFFFFFFFFFFFFFFFFFFFFFFFFFFFFFFFFF AND PUSH1 0xE PUSH1 0x0 PUSH2 0x100 EXP DUP2 SLOAD DUP2 PUSH20 0xFFFFFFFFFFFFFFFFFFFFFFFFFFFFFFFFFFFFFFFF MUL NOT AND SWAP1 DUP4 PUSH20 0xFFFFFFFFFFFFFFFFFFFFFFFFFFFFFFFFFFFFFFFF AND MUL OR SWAP1 SSTORE POP PUSH1 0x6 PUSH1 0x0 SWAP1 SLOAD SWAP1 PUSH2 0x100 EXP SWAP1 DIV PUSH20 0xFFFFFFFFFFFFFFFFFFFFFFFFFFFFFFFFFFFFFFFF AND PUSH1 0xF PUSH1 0x0 PUSH2 0x100 EXP DUP2 SLOAD DUP2 PUSH20 0xFFFFFFFFFFFFFFFFFFFFFFFFFFFFFFFFFFFFFFFF MUL NOT AND SWAP1 DUP4 PUSH20 0xFFFFFFFFFFFFFFFFFFFFFFFFFFFFFFFFFFFFFFFF AND MUL OR SWAP1 SSTORE POP CALLVALUE DUP1 ISZERO PUSH3 0x547 JUMPI PUSH1 0x0 DUP1 REVERT JUMPDEST POP PUSH1 0xA PUSH1 0x0 SWAP1 SLOAD SWAP1 PUSH2 0x100 EXP SWAP1 DIV PUSH20 0xFFFFFFFFFFFFFFFFFFFFFFFFFFFFFFFFFFFFFFFF AND PUSH20 0xFFFFFFFFFFFFFFFFFFFFFFFFFFFFFFFFFFFFFFFF AND PUSH1 0x80 DUP2 PUSH20 0xFFFFFFFFFFFFFFFFFFFFFFFFFFFFFFFFFFFFFFFF AND DUP2 MSTORE POP POP PUSH1 0x80 MLOAD PUSH20 0xFFFFFFFFFFFFFFFFFFFFFFFFFFFFFFFFFFFFFFFF AND PUSH4 0x26B1D5F PUSH1 0x40 MLOAD DUP2 PUSH4 0xFFFFFFFF AND PUSH1 0xE0 SHL DUP2 MSTORE PUSH1 0x4 ADD PUSH1 0x20 PUSH1 0x40 MLOAD DUP1 DUP4 SUB DUP2 DUP7 GAS STATICCALL ISZERO DUP1 ISZERO PUSH3 0x5EC JUMPI RETURNDATASIZE PUSH1 0x0 DUP1 RETURNDATACOPY RETURNDATASIZE PUSH1 0x0 REVERT JUMPDEST POP POP POP POP PUSH1 0x40 MLOAD RETURNDATASIZE PUSH1 0x1F NOT PUSH1 0x1F DUP3 ADD AND DUP3 ADD DUP1 PUSH1 0x40 MSTORE POP DUP2 ADD SWAP1 PUSH3 0x612 SWAP2 SWAP1 PUSH3 0x6B5 JUMP JUMPDEST PUSH20 0xFFFFFFFFFFFFFFFFFFFFFFFFFFFFFFFFFFFFFFFF AND PUSH1 0xA0 DUP2 PUSH20 0xFFFFFFFFFFFFFFFFFFFFFFFFFFFFFFFFFFFFFFFF AND DUP2 MSTORE POP POP PUSH3 0x6E7 JUMP JUMPDEST PUSH1 0x0 DUP1 REVERT JUMPDEST PUSH1 0x0 PUSH20 0xFFFFFFFFFFFFFFFFFFFFFFFFFFFFFFFFFFFFFFFF DUP3 AND SWAP1 POP SWAP2 SWAP1 POP JUMP JUMPDEST PUSH1 0x0 PUSH3 0x67D DUP3 PUSH3 0x650 JUMP JUMPDEST SWAP1 POP SWAP2 SWAP1 POP JUMP JUMPDEST PUSH3 0x68F DUP2 PUSH3 0x670 JUMP JUMPDEST DUP2 EQ PUSH3 0x69B JUMPI PUSH1 0x0 DUP1 REVERT JUMPDEST POP JUMP JUMPDEST PUSH1 0x0 DUP2 MLOAD SWAP1 POP PUSH3 0x6AF DUP2 PUSH3 0x684 JUMP JUMPDEST SWAP3 SWAP2 POP POP JUMP JUMPDEST PUSH1 0x0 PUSH1 0x20 DUP3 DUP5 SUB SLT ISZERO PUSH3 0x6CE JUMPI PUSH3 0x6CD PUSH3 0x64B JUMP JUMPDEST JUMPDEST PUSH1 0x0 PUSH3 0x6DE DUP5 DUP3 DUP6 ADD PUSH3 0x69E JUMP JUMPDEST SWAP2 POP POP SWAP3 SWAP2 POP POP JUMP JUMPDEST PUSH1 0x80 MLOAD PUSH1 0xA0 MLOAD PUSH2 0xE2B PUSH3 0x71A PUSH1 0x0 CODECOPY PUSH1 0x0 DUP2 DUP2 PUSH2 0x133 ADD MSTORE DUP2 DUP2 PUSH2 0x1C5 ADD MSTORE PUSH2 0x6B8 ADD MSTORE PUSH1 0x0 PUSH1 0xDB ADD MSTORE PUSH2 0xE2B PUSH1 0x0 RETURN INVALID PUSH1 0x80 PUSH1 0x40 MSTORE CALLVALUE DUP1 ISZERO PUSH2 0x10 JUMPI PUSH1 0x0 DUP1 REVERT JUMPDEST POP PUSH1 0x4 CALLDATASIZE LT PUSH2 0x4C JUMPI PUSH1 0x0 CALLDATALOAD PUSH1 0xE0 SHR DUP1 PUSH4 0x542975C EQ PUSH2 0x51 JUMPI DUP1 PUSH4 0x1B11D0FF EQ PUSH2 0x6F JUMPI DUP1 PUSH4 0x7535D246 EQ PUSH2 0x9F JUMPI DUP1 PUSH4 0xCEA8FE55 EQ PUSH2 0xBD JUMPI JUMPDEST PUSH1 0x0 DUP1 REVERT JUMPDEST PUSH2 0x59 PUSH2 0xD9 JUMP JUMPDEST PUSH1 0x40 MLOAD PUSH2 0x66 SWAP2 SWAP1 PUSH2 0x7F0 JUMP JUMPDEST PUSH1 0x40 MLOAD DUP1 SWAP2 SUB SWAP1 RETURN JUMPDEST PUSH2 0x89 PUSH1 0x4 DUP1 CALLDATASIZE SUB DUP2 ADD SWAP1 PUSH2 0x84 SWAP2 SWAP1 PUSH2 0x8EE JUMP JUMPDEST PUSH2 0xFD JUMP JUMPDEST PUSH1 0x40 MLOAD PUSH2 0x96 SWAP2 SWAP1 PUSH2 0x9A3 JUMP JUMPDEST PUSH1 0x40 MLOAD DUP1 SWAP2 SUB SWAP1 RETURN JUMPDEST PUSH2 0xA7 PUSH2 0x1C3 JUMP JUMPDEST PUSH1 0x40 MLOAD PUSH2 0xB4 SWAP2 SWAP1 PUSH2 0x9DF JUMP JUMPDEST PUSH1 0x40 MLOAD DUP1 SWAP2 SUB SWAP1 RETURN JUMPDEST PUSH2 0xD7 PUSH1 0x4 DUP1 CALLDATASIZE SUB DUP2 ADD SWAP1 PUSH2 0xD2 SWAP2 SWAP1 PUSH2 0x9FA JUMP JUMPDEST PUSH2 0x1E7 JUMP JUMPDEST STOP JUMPDEST PUSH32 0x0 DUP2 JUMP JUMPDEST PUSH1 0x0 DUP1 PUSH2 0x113 DUP7 DUP9 PUSH2 0x757 SWAP1 SWAP2 SWAP1 PUSH4 0xFFFFFFFF AND JUMP JUMPDEST SWAP1 POP DUP8 PUSH20 0xFFFFFFFFFFFFFFFFFFFFFFFFFFFFFFFFFFFFFFFF AND PUSH4 0x95EA7B3 PUSH32 0x0 DUP4 PUSH1 0x40 MLOAD DUP4 PUSH4 0xFFFFFFFF AND PUSH1 0xE0 SHL DUP2 MSTORE PUSH1 0x4 ADD PUSH2 0x170 SWAP3 SWAP2 SWAP1 PUSH2 0xA58 JUMP JUMPDEST PUSH1 0x20 PUSH1 0x40 MLOAD DUP1 DUP4 SUB DUP2 PUSH1 0x0 DUP8 GAS CALL ISZERO DUP1 ISZERO PUSH2 0x18F JUMPI RETURNDATASIZE PUSH1 0x0 DUP1 RETURNDATACOPY RETURNDATASIZE PUSH1 0x0 REVERT JUMPDEST POP POP POP POP PUSH1 0x40 MLOAD RETURNDATASIZE PUSH1 0x1F NOT PUSH1 0x1F DUP3 ADD AND DUP3 ADD DUP1 PUSH1 0x40 MSTORE POP DUP2 ADD SWAP1 PUSH2 0x1B3 SWAP2 SWAP1 PUSH2 0xAAD JUMP JUMPDEST POP PUSH1 0x1 SWAP2 POP POP SWAP7 SWAP6 POP POP POP POP POP POP JUMP JUMPDEST PUSH32 0x0 DUP2 JUMP JUMPDEST PUSH1 0x0 ADDRESS SWAP1 POP PUSH1 0x0 PUSH1 0x1 PUSH8 0xFFFFFFFFFFFFFFFF DUP2 GT ISZERO PUSH2 0x209 JUMPI PUSH2 0x208 PUSH2 0xADA JUMP JUMPDEST JUMPDEST PUSH1 0x40 MLOAD SWAP1 DUP1 DUP3 MSTORE DUP1 PUSH1 0x20 MUL PUSH1 0x20 ADD DUP3 ADD PUSH1 0x40 MSTORE DUP1 ISZERO PUSH2 0x237 JUMPI DUP2 PUSH1 0x20 ADD PUSH1 0x20 DUP3 MUL DUP1 CALLDATASIZE DUP4 CALLDATACOPY DUP1 DUP3 ADD SWAP2 POP POP SWAP1 POP JUMPDEST POP SWAP1 POP DUP4 DUP2 PUSH1 0x0 DUP2 MLOAD DUP2 LT PUSH2 0x24F JUMPI PUSH2 0x24E PUSH2 0xB09 JUMP JUMPDEST JUMPDEST PUSH1 0x20 MUL PUSH1 0x20 ADD ADD SWAP1 PUSH20 0xFFFFFFFFFFFFFFFFFFFFFFFFFFFFFFFFFFFFFFFF AND SWAP1 DUP2 PUSH20 0xFFFFFFFFFFFFFFFFFFFFFFFFFFFFFFFFFFFFFFFF AND DUP2 MSTORE POP POP PUSH1 0x0 PUSH1 0x1 PUSH8 0xFFFFFFFFFFFFFFFF DUP2 GT ISZERO PUSH2 0x2A6 JUMPI PUSH2 0x2A5 PUSH2 0xADA JUMP JUMPDEST JUMPDEST PUSH1 0x40 MLOAD SWAP1 DUP1 DUP3 MSTORE DUP1 PUSH1 0x20 MUL PUSH1 0x20 ADD DUP3 ADD PUSH1 0x40 MSTORE DUP1 ISZERO PUSH2 0x2D4 JUMPI DUP2 PUSH1 0x20 ADD PUSH1 0x20 DUP3 MUL DUP1 CALLDATASIZE DUP4 CALLDATACOPY DUP1 DUP3 ADD SWAP2 POP POP SWAP1 POP JUMPDEST POP SWAP1 POP DUP4 DUP2 PUSH1 0x0 DUP2 MLOAD DUP2 LT PUSH2 0x2EC JUMPI PUSH2 0x2EB PUSH2 0xB09 JUMP JUMPDEST JUMPDEST PUSH1 0x20 MUL PUSH1 0x20 ADD ADD DUP2 DUP2 MSTORE POP POP PUSH1 0x0 PUSH1 0x1 PUSH8 0xFFFFFFFFFFFFFFFF DUP2 GT ISZERO PUSH2 0x315 JUMPI PUSH2 0x314 PUSH2 0xADA JUMP JUMPDEST JUMPDEST PUSH1 0x40 MLOAD SWAP1 DUP1 DUP3 MSTORE DUP1 PUSH1 0x20 MUL PUSH1 0x20 ADD DUP3 ADD PUSH1 0x40 MSTORE DUP1 ISZERO PUSH2 0x343 JUMPI DUP2 PUSH1 0x20 ADD PUSH1 0x20 DUP3 MUL DUP1 CALLDATASIZE DUP4 CALLDATACOPY DUP1 DUP3 ADD SWAP2 POP POP SWAP1 POP JUMPDEST POP SWAP1 POP PUSH1 0x0 DUP2 PUSH1 0x0 DUP2 MLOAD DUP2 LT PUSH2 0x35C JUMPI PUSH2 0x35B PUSH2 0xB09 JUMP JUMPDEST JUMPDEST PUSH1 0x20 MUL PUSH1 0x20 ADD ADD DUP2 DUP2 MSTORE POP POP PUSH1 0x0 PUSH1 0x40 MLOAD DUP1 PUSH1 0x20 ADD PUSH1 0x40 MSTORE DUP1 PUSH1 0x0 DUP2 MSTORE POP SWAP1 POP PUSH1 0x0 PUSH1 0xE PUSH1 0x0 SWAP1 SLOAD SWAP1 PUSH2 0x100 EXP SWAP1 DIV PUSH20 0xFFFFFFFFFFFFFFFFFFFFFFFFFFFFFFFFFFFFFFFF AND PUSH20 0xFFFFFFFFFFFFFFFFFFFFFFFFFFFFFFFFFFFFFFFF AND PUSH4 0x95EA7B3 PUSH1 0xC PUSH1 0x0 SWAP1 SLOAD SWAP1 PUSH2 0x100 EXP SWAP1 DIV PUSH20 0xFFFFFFFFFFFFFFFFFFFFFFFFFFFFFFFFFFFFFFFF AND PUSH11 0x52B7D2DCC80CD2E4000000 PUSH1 0x40 MLOAD DUP4 PUSH4 0xFFFFFFFF AND PUSH1 0xE0 SHL DUP2 MSTORE PUSH1 0x4 ADD PUSH2 0x408 SWAP3 SWAP2 SWAP1 PUSH2 0xA58 JUMP JUMPDEST PUSH1 0x20 PUSH1 0x40 MLOAD DUP1 DUP4 SUB DUP2 PUSH1 0x0 DUP8 GAS CALL ISZERO DUP1 ISZERO PUSH2 0x427 JUMPI RETURNDATASIZE PUSH1 0x0 DUP1 RETURNDATACOPY RETURNDATASIZE PUSH1 0x0 REVERT JUMPDEST POP POP POP POP PUSH1 0x40 MLOAD RETURNDATASIZE PUSH1 0x1F NOT PUSH1 0x1F DUP3 ADD AND DUP3 ADD DUP1 PUSH1 0x40 MSTORE POP DUP2 ADD SWAP1 PUSH2 0x44B SWAP2 SWAP1 PUSH2 0xAAD JUMP JUMPDEST POP PUSH1 0xE PUSH1 0x0 SWAP1 SLOAD SWAP1 PUSH2 0x100 EXP SWAP1 DIV PUSH20 0xFFFFFFFFFFFFFFFFFFFFFFFFFFFFFFFFFFFFFFFF AND PUSH20 0xFFFFFFFFFFFFFFFFFFFFFFFFFFFFFFFFFFFFFFFF AND PUSH4 0x95EA7B3 PUSH1 0xD PUSH1 0x0 SWAP1 SLOAD SWAP1 PUSH2 0x100 EXP SWAP1 DIV PUSH20 0xFFFFFFFFFFFFFFFFFFFFFFFFFFFFFFFFFFFFFFFF AND PUSH11 0x52B7D2DCC80CD2E4000000 PUSH1 0x40 MLOAD DUP4 PUSH4 0xFFFFFFFF AND PUSH1 0xE0 SHL DUP2 MSTORE PUSH1 0x4 ADD PUSH2 0x4D6 SWAP3 SWAP2 SWAP1 PUSH2 0xA58 JUMP JUMPDEST PUSH1 0x20 PUSH1 0x40 MLOAD DUP1 DUP4 SUB DUP2 PUSH1 0x0 DUP8 GAS CALL ISZERO DUP1 ISZERO PUSH2 0x4F5 JUMPI RETURNDATASIZE PUSH1 0x0 DUP1 RETURNDATACOPY RETURNDATASIZE PUSH1 0x0 REVERT JUMPDEST POP POP POP POP PUSH1 0x40 MLOAD RETURNDATASIZE PUSH1 0x1F NOT PUSH1 0x1F DUP3 ADD AND DUP3 ADD DUP1 PUSH1 0x40 MSTORE POP DUP2 ADD SWAP1 PUSH2 0x519 SWAP2 SWAP1 PUSH2 0xAAD JUMP JUMPDEST POP PUSH1 0xF PUSH1 0x0 SWAP1 SLOAD SWAP1 PUSH2 0x100 EXP SWAP1 DIV PUSH20 0xFFFFFFFFFFFFFFFFFFFFFFFFFFFFFFFFFFFFFFFF AND PUSH20 0xFFFFFFFFFFFFFFFFFFFFFFFFFFFFFFFFFFFFFFFF AND PUSH4 0x95EA7B3 PUSH1 0xC PUSH1 0x0 SWAP1 SLOAD SWAP1 PUSH2 0x100 EXP SWAP1 DIV PUSH20 0xFFFFFFFFFFFFFFFFFFFFFFFFFFFFFFFFFFFFFFFF AND PUSH11 0x52B7D2DCC80CD2E4000000 PUSH1 0x40 MLOAD DUP4 PUSH4 0xFFFFFFFF AND PUSH1 0xE0 SHL DUP2 MSTORE PUSH1 0x4 ADD PUSH2 0x5A4 SWAP3 SWAP2 SWAP1 PUSH2 0xA58 JUMP JUMPDEST PUSH1 0x20 PUSH1 0x40 MLOAD DUP1 DUP4 SUB DUP2 PUSH1 0x0 DUP8 GAS CALL ISZERO DUP1 ISZERO PUSH2 0x5C3 JUMPI RETURNDATASIZE PUSH1 0x0 DUP1 RETURNDATACOPY RETURNDATASIZE PUSH1 0x0 REVERT JUMPDEST POP POP POP POP PUSH1 0x40 MLOAD RETURNDATASIZE PUSH1 0x1F NOT PUSH1 0x1F DUP3 ADD AND DUP3 ADD DUP1 PUSH1 0x40 MSTORE POP DUP2 ADD SWAP1 PUSH2 0x5E7 SWAP2 SWAP1 PUSH2 0xAAD JUMP JUMPDEST POP PUSH1 0xF PUSH1 0x0 SWAP1 SLOAD SWAP1 PUSH2 0x100 EXP SWAP1 DIV PUSH20 0xFFFFFFFFFFFFFFFFFFFFFFFFFFFFFFFFFFFFFFFF AND PUSH20 0xFFFFFFFFFFFFFFFFFFFFFFFFFFFFFFFFFFFFFFFF AND PUSH4 0x95EA7B3 PUSH1 0xD PUSH1 0x0 SWAP1 SLOAD SWAP1 PUSH2 0x100 EXP SWAP1 DIV PUSH20 0xFFFFFFFFFFFFFFFFFFFFFFFFFFFFFFFFFFFFFFFF AND PUSH11 0x52B7D2DCC80CD2E4000000 PUSH1 0x40 MLOAD DUP4 PUSH4 0xFFFFFFFF AND PUSH1 0xE0 SHL DUP2 MSTORE PUSH1 0x4 ADD PUSH2 0x672 SWAP3 SWAP2 SWAP1 PUSH2 0xA58 JUMP JUMPDEST PUSH1 0x20 PUSH1 0x40 MLOAD DUP1 DUP4 SUB DUP2 PUSH1 0x0 DUP8 GAS CALL ISZERO DUP1 ISZERO PUSH2 0x691 JUMPI RETURNDATASIZE PUSH1 0x0 DUP1 RETURNDATACOPY RETURNDATASIZE PUSH1 0x0 REVERT JUMPDEST POP POP POP POP PUSH1 0x40 MLOAD RETURNDATASIZE PUSH1 0x1F NOT PUSH1 0x1F DUP3 ADD AND DUP3 ADD DUP1 PUSH1 0x40 MSTORE POP DUP2 ADD SWAP1 PUSH2 0x6B5 SWAP2 SWAP1 PUSH2 0xAAD JUMP JUMPDEST POP PUSH32 0x0 PUSH20 0xFFFFFFFFFFFFFFFFFFFFFFFFFFFFFFFFFFFFFFFF AND PUSH4 0xAB9C4B5D DUP8 DUP8 DUP8 DUP8 DUP12 DUP9 DUP9 PUSH1 0x40 MLOAD DUP9 PUSH4 0xFFFFFFFF AND PUSH1 0xE0 SHL DUP2 MSTORE PUSH1 0x4 ADD PUSH2 0x71B SWAP8 SWAP7 SWAP6 SWAP5 SWAP4 SWAP3 SWAP2 SWAP1 PUSH2 0xD6A JUMP JUMPDEST PUSH1 0x0 PUSH1 0x40 MLOAD DUP1 DUP4 SUB DUP2 PUSH1 0x0 DUP8 DUP1 EXTCODESIZE ISZERO DUP1 ISZERO PUSH2 0x735 JUMPI PUSH1 0x0 DUP1 REVERT JUMPDEST POP GAS CALL ISZERO DUP1 ISZERO PUSH2 0x749 JUMPI RETURNDATASIZE PUSH1 0x0 DUP1 RETURNDATACOPY RETURNDATASIZE PUSH1 0x0 REVERT JUMPDEST POP POP POP POP POP POP POP POP POP POP POP POP JUMP JUMPDEST PUSH1 0x0 DUP3 DUP3 DUP5 ADD SWAP2 POP DUP2 LT ISZERO PUSH2 0x76B JUMPI PUSH1 0x0 DUP1 REVERT JUMPDEST SWAP3 SWAP2 POP POP JUMP JUMPDEST PUSH1 0x0 PUSH20 0xFFFFFFFFFFFFFFFFFFFFFFFFFFFFFFFFFFFFFFFF DUP3 AND SWAP1 POP SWAP2 SWAP1 POP JUMP JUMPDEST PUSH1 0x0 DUP2 SWAP1 POP SWAP2 SWAP1 POP JUMP JUMPDEST PUSH1 0x0 PUSH2 0x7B6 PUSH2 0x7B1 PUSH2 0x7AC DUP5 PUSH2 0x771 JUMP JUMPDEST PUSH2 0x791 JUMP JUMPDEST PUSH2 0x771 JUMP JUMPDEST SWAP1 POP SWAP2 SWAP1 POP JUMP JUMPDEST PUSH1 0x0 PUSH2 0x7C8 DUP3 PUSH2 0x79B JUMP JUMPDEST SWAP1 POP SWAP2 SWAP1 POP JUMP JUMPDEST PUSH1 0x0 PUSH2 0x7DA DUP3 PUSH2 0x7BD JUMP JUMPDEST SWAP1 POP SWAP2 SWAP1 POP JUMP JUMPDEST PUSH2 0x7EA DUP2 PUSH2 0x7CF JUMP JUMPDEST DUP3 MSTORE POP POP JUMP JUMPDEST PUSH1 0x0 PUSH1 0x20 DUP3 ADD SWAP1 POP PUSH2 0x805 PUSH1 0x0 DUP4 ADD DUP5 PUSH2 0x7E1 JUMP JUMPDEST SWAP3 SWAP2 POP POP JUMP JUMPDEST PUSH1 0x0 DUP1 REVERT JUMPDEST PUSH1 0x0 DUP1 REVERT JUMPDEST PUSH1 0x0 PUSH2 0x820 DUP3 PUSH2 0x771 JUMP JUMPDEST SWAP1 POP SWAP2 SWAP1 POP JUMP JUMPDEST PUSH2 0x830 DUP2 PUSH2 0x815 JUMP JUMPDEST DUP2 EQ PUSH2 0x83B JUMPI PUSH1 0x0 DUP1 REVERT JUMPDEST POP JUMP JUMPDEST PUSH1 0x0 DUP2 CALLDATALOAD SWAP1 POP PUSH2 0x84D DUP2 PUSH2 0x827 JUMP JUMPDEST SWAP3 SWAP2 POP POP JUMP JUMPDEST PUSH1 0x0 DUP2 SWAP1 POP SWAP2 SWAP1 POP JUMP JUMPDEST PUSH2 0x866 DUP2 PUSH2 0x853 JUMP JUMPDEST DUP2 EQ PUSH2 0x871 JUMPI PUSH1 0x0 DUP1 REVERT JUMPDEST POP JUMP JUMPDEST PUSH1 0x0 DUP2 CALLDATALOAD SWAP1 POP PUSH2 0x883 DUP2 PUSH2 0x85D JUMP JUMPDEST SWAP3 SWAP2 POP POP JUMP JUMPDEST PUSH1 0x0 DUP1 REVERT JUMPDEST PUSH1 0x0 DUP1 REVERT JUMPDEST PUSH1 0x0 DUP1 REVERT JUMPDEST PUSH1 0x0 DUP1 DUP4 PUSH1 0x1F DUP5 ADD SLT PUSH2 0x8AE JUMPI PUSH2 0x8AD PUSH2 0x889 JUMP JUMPDEST JUMPDEST DUP3 CALLDATALOAD SWAP1 POP PUSH8 0xFFFFFFFFFFFFFFFF DUP2 GT ISZERO PUSH2 0x8CB JUMPI PUSH2 0x8CA PUSH2 0x88E JUMP JUMPDEST JUMPDEST PUSH1 0x20 DUP4 ADD SWAP2 POP DUP4 PUSH1 0x1 DUP3 MUL DUP4 ADD GT ISZERO PUSH2 0x8E7 JUMPI PUSH2 0x8E6 PUSH2 0x893 JUMP JUMPDEST JUMPDEST SWAP3 POP SWAP3 SWAP1 POP JUMP JUMPDEST PUSH1 0x0 DUP1 PUSH1 0x0 DUP1 PUSH1 0x0 DUP1 PUSH1 0xA0 DUP8 DUP10 SUB SLT ISZERO PUSH2 0x90B JUMPI PUSH2 0x90A PUSH2 0x80B JUMP JUMPDEST JUMPDEST PUSH1 0x0 PUSH2 0x919 DUP10 DUP3 DUP11 ADD PUSH2 0x83E JUMP JUMPDEST SWAP7 POP POP PUSH1 0x20 PUSH2 0x92A DUP10 DUP3 DUP11 ADD PUSH2 0x874 JUMP JUMPDEST SWAP6 POP POP PUSH1 0x40 PUSH2 0x93B DUP10 DUP3 DUP11 ADD PUSH2 0x874 JUMP JUMPDEST SWAP5 POP POP PUSH1 0x60 PUSH2 0x94C DUP10 DUP3 DUP11 ADD PUSH2 0x83E JUMP JUMPDEST SWAP4 POP POP PUSH1 0x80 DUP8 ADD CALLDATALOAD PUSH8 0xFFFFFFFFFFFFFFFF DUP2 GT ISZERO PUSH2 0x96D JUMPI PUSH2 0x96C PUSH2 0x810 JUMP JUMPDEST JUMPDEST PUSH2 0x979 DUP10 DUP3 DUP11 ADD PUSH2 0x898 JUMP JUMPDEST SWAP3 POP SWAP3 POP POP SWAP3 SWAP6 POP SWAP3 SWAP6 POP SWAP3 SWAP6 JUMP JUMPDEST PUSH1 0x0 DUP2 ISZERO ISZERO SWAP1 POP SWAP2 SWAP1 POP JUMP JUMPDEST PUSH2 0x99D DUP2 PUSH2 0x988 JUMP JUMPDEST DUP3 MSTORE POP POP JUMP JUMPDEST PUSH1 0x0 PUSH1 0x20 DUP3 ADD SWAP1 POP PUSH2 0x9B8 PUSH1 0x0 DUP4 ADD DUP5 PUSH2 0x994 JUMP JUMPDEST SWAP3 SWAP2 POP POP JUMP JUMPDEST PUSH1 0x0 PUSH2 0x9C9 DUP3 PUSH2 0x7BD JUMP JUMPDEST SWAP1 POP SWAP2 SWAP1 POP JUMP JUMPDEST PUSH2 0x9D9 DUP2 PUSH2 0x9BE JUMP JUMPDEST DUP3 MSTORE POP POP JUMP JUMPDEST PUSH1 0x0 PUSH1 0x20 DUP3 ADD SWAP1 POP PUSH2 0x9F4 PUSH1 0x0 DUP4 ADD DUP5 PUSH2 0x9D0 JUMP JUMPDEST SWAP3 SWAP2 POP POP JUMP JUMPDEST PUSH1 0x0 DUP1 PUSH1 0x40 DUP4 DUP6 SUB SLT ISZERO PUSH2 0xA11 JUMPI PUSH2 0xA10 PUSH2 0x80B JUMP JUMPDEST JUMPDEST PUSH1 0x0 PUSH2 0xA1F DUP6 DUP3 DUP7 ADD PUSH2 0x83E JUMP JUMPDEST SWAP3 POP POP PUSH1 0x20 PUSH2 0xA30 DUP6 DUP3 DUP7 ADD PUSH2 0x874 JUMP JUMPDEST SWAP2 POP POP SWAP3 POP SWAP3 SWAP1 POP JUMP JUMPDEST PUSH2 0xA43 DUP2 PUSH2 0x815 JUMP JUMPDEST DUP3 MSTORE POP POP JUMP JUMPDEST PUSH2 0xA52 DUP2 PUSH2 0x853 JUMP JUMPDEST DUP3 MSTORE POP POP JUMP JUMPDEST PUSH1 0x0 PUSH1 0x40 DUP3 ADD SWAP1 POP PUSH2 0xA6D PUSH1 0x0 DUP4 ADD DUP6 PUSH2 0xA3A JUMP JUMPDEST PUSH2 0xA7A PUSH1 0x20 DUP4 ADD DUP5 PUSH2 0xA49 JUMP JUMPDEST SWAP4 SWAP3 POP POP POP JUMP JUMPDEST PUSH2 0xA8A DUP2 PUSH2 0x988 JUMP JUMPDEST DUP2 EQ PUSH2 0xA95 JUMPI PUSH1 0x0 DUP1 REVERT JUMPDEST POP JUMP JUMPDEST PUSH1 0x0 DUP2 MLOAD SWAP1 POP PUSH2 0xAA7 DUP2 PUSH2 0xA81 JUMP JUMPDEST SWAP3 SWAP2 POP POP JUMP JUMPDEST PUSH1 0x0 PUSH1 0x20 DUP3 DUP5 SUB SLT ISZERO PUSH2 0xAC3 JUMPI PUSH2 0xAC2 PUSH2 0x80B JUMP JUMPDEST JUMPDEST PUSH1 0x0 PUSH2 0xAD1 DUP5 DUP3 DUP6 ADD PUSH2 0xA98 JUMP JUMPDEST SWAP2 POP POP SWAP3 SWAP2 POP POP JUMP JUMPDEST PUSH32 0x4E487B7100000000000000000000000000000000000000000000000000000000 PUSH1 0x0 MSTORE PUSH1 0x41 PUSH1 0x4 MSTORE PUSH1 0x24 PUSH1 0x0 REVERT JUMPDEST PUSH32 0x4E487B7100000000000000000000000000000000000000000000000000000000 PUSH1 0x0 MSTORE PUSH1 0x32 PUSH1 0x4 MSTORE PUSH1 0x24 PUSH1 0x0 REVERT JUMPDEST PUSH1 0x0 DUP2 MLOAD SWAP1 POP SWAP2 SWAP1 POP JUMP JUMPDEST PUSH1 0x0 DUP3 DUP3 MSTORE PUSH1 0x20 DUP3 ADD SWAP1 POP SWAP3 SWAP2 POP POP JUMP JUMPDEST PUSH1 0x0 DUP2 SWAP1 POP PUSH1 0x20 DUP3 ADD SWAP1 POP SWAP2 SWAP1 POP JUMP JUMPDEST PUSH2 0xB6D DUP2 PUSH2 0x815 JUMP JUMPDEST DUP3 MSTORE POP POP JUMP JUMPDEST PUSH1 0x0 PUSH2 0xB7F DUP4 DUP4 PUSH2 0xB64 JUMP JUMPDEST PUSH1 0x20 DUP4 ADD SWAP1 POP SWAP3 SWAP2 POP POP JUMP JUMPDEST PUSH1 0x0 PUSH1 0x20 DUP3 ADD SWAP1 POP SWAP2 SWAP1 POP JUMP JUMPDEST PUSH1 0x0 PUSH2 0xBA3 DUP3 PUSH2 0xB38 JUMP JUMPDEST PUSH2 0xBAD DUP2 DUP6 PUSH2 0xB43 JUMP JUMPDEST SWAP4 POP PUSH2 0xBB8 DUP4 PUSH2 0xB54 JUMP JUMPDEST DUP1 PUSH1 0x0 JUMPDEST DUP4 DUP2 LT ISZERO PUSH2 0xBE9 JUMPI DUP2 MLOAD PUSH2 0xBD0 DUP9 DUP3 PUSH2 0xB73 JUMP JUMPDEST SWAP8 POP PUSH2 0xBDB DUP4 PUSH2 0xB8B JUMP JUMPDEST SWAP3 POP POP PUSH1 0x1 DUP2 ADD SWAP1 POP PUSH2 0xBBC JUMP JUMPDEST POP DUP6 SWAP4 POP POP POP POP SWAP3 SWAP2 POP POP JUMP JUMPDEST PUSH1 0x0 DUP2 MLOAD SWAP1 POP SWAP2 SWAP1 POP JUMP JUMPDEST PUSH1 0x0 DUP3 DUP3 MSTORE PUSH1 0x20 DUP3 ADD SWAP1 POP SWAP3 SWAP2 POP POP JUMP JUMPDEST PUSH1 0x0 DUP2 SWAP1 POP PUSH1 0x20 DUP3 ADD SWAP1 POP SWAP2 SWAP1 POP JUMP JUMPDEST PUSH2 0xC2B DUP2 PUSH2 0x853 JUMP JUMPDEST DUP3 MSTORE POP POP JUMP JUMPDEST PUSH1 0x0 PUSH2 0xC3D DUP4 DUP4 PUSH2 0xC22 JUMP JUMPDEST PUSH1 0x20 DUP4 ADD SWAP1 POP SWAP3 SWAP2 POP POP JUMP JUMPDEST PUSH1 0x0 PUSH1 0x20 DUP3 ADD SWAP1 POP SWAP2 SWAP1 POP JUMP JUMPDEST PUSH1 0x0 PUSH2 0xC61 DUP3 PUSH2 0xBF6 JUMP JUMPDEST PUSH2 0xC6B DUP2 DUP6 PUSH2 0xC01 JUMP JUMPDEST SWAP4 POP PUSH2 0xC76 DUP4 PUSH2 0xC12 JUMP JUMPDEST DUP1 PUSH1 0x0 JUMPDEST DUP4 DUP2 LT ISZERO PUSH2 0xCA7 JUMPI DUP2 MLOAD PUSH2 0xC8E DUP9 DUP3 PUSH2 0xC31 JUMP JUMPDEST SWAP8 POP PUSH2 0xC99 DUP4 PUSH2 0xC49 JUMP JUMPDEST SWAP3 POP POP PUSH1 0x1 DUP2 ADD SWAP1 POP PUSH2 0xC7A JUMP JUMPDEST POP DUP6 SWAP4 POP POP POP POP SWAP3 SWAP2 POP POP JUMP JUMPDEST PUSH1 0x0 DUP2 MLOAD SWAP1 POP SWAP2 SWAP1 POP JUMP JUMPDEST PUSH1 0x0 DUP3 DUP3 MSTORE PUSH1 0x20 DUP3 ADD SWAP1 POP SWAP3 SWAP2 POP POP JUMP JUMPDEST PUSH1 0x0 JUMPDEST DUP4 DUP2 LT ISZERO PUSH2 0xCEE JUMPI DUP1 DUP3 ADD MLOAD DUP2 DUP5 ADD MSTORE PUSH1 0x20 DUP2 ADD SWAP1 POP PUSH2 0xCD3 JUMP JUMPDEST DUP4 DUP2 GT ISZERO PUSH2 0xCFD JUMPI PUSH1 0x0 DUP5 DUP5 ADD MSTORE JUMPDEST POP POP POP POP JUMP JUMPDEST PUSH1 0x0 PUSH1 0x1F NOT PUSH1 0x1F DUP4 ADD AND SWAP1 POP SWAP2 SWAP1 POP JUMP JUMPDEST PUSH1 0x0 PUSH2 0xD1F DUP3 PUSH2 0xCB4 JUMP JUMPDEST PUSH2 0xD29 DUP2 DUP6 PUSH2 0xCBF JUMP JUMPDEST SWAP4 POP PUSH2 0xD39 DUP2 DUP6 PUSH1 0x20 DUP7 ADD PUSH2 0xCD0 JUMP JUMPDEST PUSH2 0xD42 DUP2 PUSH2 0xD03 JUMP JUMPDEST DUP5 ADD SWAP2 POP POP SWAP3 SWAP2 POP POP JUMP JUMPDEST PUSH1 0x0 PUSH2 0xFFFF DUP3 AND SWAP1 POP SWAP2 SWAP1 POP JUMP JUMPDEST PUSH2 0xD64 DUP2 PUSH2 0xD4D JUMP JUMPDEST DUP3 MSTORE POP POP JUMP JUMPDEST PUSH1 0x0 PUSH1 0xE0 DUP3 ADD SWAP1 POP PUSH2 0xD7F PUSH1 0x0 DUP4 ADD DUP11 PUSH2 0xA3A JUMP JUMPDEST DUP2 DUP2 SUB PUSH1 0x20 DUP4 ADD MSTORE PUSH2 0xD91 DUP2 DUP10 PUSH2 0xB98 JUMP JUMPDEST SWAP1 POP DUP2 DUP2 SUB PUSH1 0x40 DUP4 ADD MSTORE PUSH2 0xDA5 DUP2 DUP9 PUSH2 0xC56 JUMP JUMPDEST SWAP1 POP DUP2 DUP2 SUB PUSH1 0x60 DUP4 ADD MSTORE PUSH2 0xDB9 DUP2 DUP8 PUSH2 0xC56 JUMP JUMPDEST SWAP1 POP PUSH2 0xDC8 PUSH1 0x80 DUP4 ADD DUP7 PUSH2 0xA3A JUMP JUMPDEST DUP2 DUP2 SUB PUSH1 0xA0 DUP4 ADD MSTORE PUSH2 0xDDA DUP2 DUP6 PUSH2 0xD14 JUMP JUMPDEST SWAP1 POP PUSH2 0xDE9 PUSH1 0xC0 DUP4 ADD DUP5 PUSH2 0xD5B JUMP JUMPDEST SWAP9 SWAP8 POP POP POP POP POP POP POP POP JUMP INVALID LOG2 PUSH5 0x6970667358 0x22 SLT KECCAK256 0xC6 SWAP5 0x5C MULMOD PUSH31 0x2900D6EADEAA990717CC82AE81CEACABC6D4EA9B67E4B6DBDE71564736F6C PUSH4 0x4300080A STOP CALLER "
				},
				"gasEstimates": {
					"creation": {
						"codeDepositCost": "725400",
						"executionCost": "infinite",
						"totalCost": "infinite"
					},
					"external": {
						"ADDRESSES_PROVIDER()": "infinite",
						"POOL()": "infinite",
						"executeOperation(address,uint256,uint256,address,bytes)": "infinite",
						"testAAVE(address,uint256)": "infinite"
					}
				},
				"methodIdentifiers": {
					"ADDRESSES_PROVIDER()": "0542975c",
					"POOL()": "7535d246",
					"executeOperation(address,uint256,uint256,address,bytes)": "1b11d0ff",
					"testAAVE(address,uint256)": "cea8fe55"
				}
			},
			"userdoc": {
				"kind": "user",
				"methods": {
					"executeOperation(address,uint256,uint256,address,bytes)": {
						"notice": "Executes an operation after receiving the flash-borrowed asset"
					}
				},
				"version": 1
			}
		}
	}
}