{
	"Code-hardhat-ethersJs/contracts/MyTokenMarket.sol": {
		"MyTokenMarket": {
			"abi": [
				{
					"inputs": [],
					"stateMutability": "nonpayable",
					"type": "constructor"
				},
				{
					"inputs": [
						{
							"internalType": "uint256",
							"name": "amountMyTokenDesired",
							"type": "uint256"
						},
						{
							"internalType": "uint256",
							"name": "amountMyTokenMin",
							"type": "uint256"
						},
						{
							"internalType": "uint256",
							"name": "amountETHMin",
							"type": "uint256"
						},
						{
							"internalType": "uint256",
							"name": "pid",
							"type": "uint256"
						}
					],
					"name": "addLiquidity",
					"outputs": [],
					"stateMutability": "payable",
					"type": "function"
				},
				{
					"inputs": [
						{
							"internalType": "uint256",
							"name": "amountOutMin",
							"type": "uint256"
						}
					],
					"name": "buyExactTokenByETH",
					"outputs": [],
					"stateMutability": "payable",
					"type": "function"
				},
				{
					"inputs": [
						{
							"internalType": "address",
							"name": "lpAddress",
							"type": "address"
						},
						{
							"internalType": "uint256",
							"name": "pid",
							"type": "uint256"
						},
						{
							"internalType": "uint256",
							"name": "amount",
							"type": "uint256"
						}
					],
					"name": "depositToMasterChef",
					"outputs": [],
					"stateMutability": "nonpayable",
					"type": "function"
				},
				{
					"inputs": [
						{
							"internalType": "uint256",
							"name": "pid",
							"type": "uint256"
						}
					],
					"name": "withdraw",
					"outputs": [],
					"stateMutability": "nonpayable",
					"type": "function"
				}
			],
			"devdoc": {
				"kind": "dev",
				"methods": {},
				"version": 1
			},
			"evm": {
				"assembly": "    /* \"Code-hardhat-ethersJs/contracts/MyTokenMarket.sol\":264:2541  contract MyTokenMarket{... */\n  mstore(0x40, 0x80)\n    /* \"Code-hardhat-ethersJs/contracts/MyTokenMarket.sol\":537:579  0x7a250d5630B4cF539739dF2C5dAcb4c659F2488D */\n  0x7a250d5630b4cf539739df2c5dacb4c659f2488d\n    /* \"Code-hardhat-ethersJs/contracts/MyTokenMarket.sol\":516:579  address uv2address = 0x7a250d5630B4cF539739dF2C5dAcb4c659F2488D */\n  0x00\n  dup1\n  0x0100\n  exp\n  dup2\n  sload\n  dup2\n  0xffffffffffffffffffffffffffffffffffffffff\n  mul\n  not\n  and\n  swap1\n  dup4\n  0xffffffffffffffffffffffffffffffffffffffff\n  and\n  mul\n  or\n  swap1\n  sstore\n  pop\n    /* \"Code-hardhat-ethersJs/contracts/MyTokenMarket.sol\":607:649  0xc778417E063141139Fce010982780140Aa0cD5Ab */\n  0xc778417e063141139fce010982780140aa0cd5ab\n    /* \"Code-hardhat-ethersJs/contracts/MyTokenMarket.sol\":585:649  address wethaddress = 0xc778417E063141139Fce010982780140Aa0cD5Ab */\n  0x01\n  exp(0x0100, 0x00)\n  dup2\n  sload\n  dup2\n  0xffffffffffffffffffffffffffffffffffffffff\n  mul\n  not\n  and\n  swap1\n  dup4\n  0xffffffffffffffffffffffffffffffffffffffff\n  and\n  mul\n  or\n  swap1\n  sstore\n  pop\n    /* \"Code-hardhat-ethersJs/contracts/MyTokenMarket.sol\":680:722  0x549F978C19a5AC86D906052639E317B57724ef44 */\n  0x549f978c19a5ac86d906052639e317b57724ef44\n    /* \"Code-hardhat-ethersJs/contracts/MyTokenMarket.sol\":655:722  address mytokenaddress = 0x549F978C19a5AC86D906052639E317B57724ef44 */\n  0x02\n  exp(0x0100, 0x00)\n  dup2\n  sload\n  dup2\n  0xffffffffffffffffffffffffffffffffffffffff\n  mul\n  not\n  and\n  swap1\n  dup4\n  0xffffffffffffffffffffffffffffffffffffffff\n  and\n  mul\n  or\n  swap1\n  sstore\n  pop\n    /* \"Code-hardhat-ethersJs/contracts/MyTokenMarket.sol\":751:793  0xf42A08C0EA66ee4A474336087A6C17E9EA6c9dE9 */\n  0xf42a08c0ea66ee4a474336087a6c17e9ea6c9de9\n    /* \"Code-hardhat-ethersJs/contracts/MyTokenMarket.sol\":728:793  address sushiaddress = 0xf42A08C0EA66ee4A474336087A6C17E9EA6c9dE9 */\n  0x03\n  exp(0x0100, 0x00)\n  dup2\n  sload\n  dup2\n  0xffffffffffffffffffffffffffffffffffffffff\n  mul\n  not\n  and\n  swap1\n  dup4\n  0xffffffffffffffffffffffffffffffffffffffff\n  and\n  mul\n  or\n  swap1\n  sstore\n  pop\n    /* \"Code-hardhat-ethersJs/contracts/MyTokenMarket.sol\":827:869  0xd9DFA8c6b37cfDF16668fE0465896f4A1B9b2c4F */\n  0xd9dfa8c6b37cfdf16668fe0465896f4a1b9b2c4f\n    /* \"Code-hardhat-ethersJs/contracts/MyTokenMarket.sol\":799:869  address masterchefaddress = 0xd9DFA8c6b37cfDF16668fE0465896f4A1B9b2c4F */\n  0x04\n  exp(0x0100, 0x00)\n  dup2\n  sload\n  dup2\n  0xffffffffffffffffffffffffffffffffffffffff\n  mul\n  not\n  and\n  swap1\n  dup4\n  0xffffffffffffffffffffffffffffffffffffffff\n  and\n  mul\n  or\n  swap1\n  sstore\n  pop\n    /* \"Code-hardhat-ethersJs/contracts/MyTokenMarket.sol\":925:935  uv2address */\n  0x00\n  dup1\n  sload\n  swap1\n  0x0100\n  exp\n  swap1\n  div\n  0xffffffffffffffffffffffffffffffffffffffff\n  and\n    /* \"Code-hardhat-ethersJs/contracts/MyTokenMarket.sol\":875:936  IUniswapV2Router02 uv2router = IUniswapV2Router02(uv2address) */\n  0x05\n  exp(0x0100, 0x00)\n  dup2\n  sload\n  dup2\n  0xffffffffffffffffffffffffffffffffffffffff\n  mul\n  not\n  and\n  swap1\n  dup4\n  0xffffffffffffffffffffffffffffffffffffffff\n  and\n  mul\n  or\n  swap1\n  sstore\n  pop\n    /* \"Code-hardhat-ethersJs/contracts/MyTokenMarket.sol\":965:979  mytokenaddress */\n  0x02\n  0x00\n  swap1\n  sload\n  swap1\n  0x0100\n  exp\n  swap1\n  div\n  0xffffffffffffffffffffffffffffffffffffffff\n  and\n    /* \"Code-hardhat-ethersJs/contracts/MyTokenMarket.sol\":942:980  IERC20 mtoken = IERC20(mytokenaddress) */\n  0x06\n  exp(0x0100, 0x00)\n  dup2\n  sload\n  dup2\n  0xffffffffffffffffffffffffffffffffffffffff\n  mul\n  not\n  and\n  swap1\n  dup4\n  0xffffffffffffffffffffffffffffffffffffffff\n  and\n  mul\n  or\n  swap1\n  sstore\n  pop\n    /* \"Code-hardhat-ethersJs/contracts/MyTokenMarket.sol\":1023:1040  masterchefaddress */\n  0x04\n  0x00\n  swap1\n  sload\n  swap1\n  0x0100\n  exp\n  swap1\n  div\n  0xffffffffffffffffffffffffffffffffffffffff\n  and\n    /* \"Code-hardhat-ethersJs/contracts/MyTokenMarket.sol\":986:1041  IMasterChef masterChef = IMasterChef(masterchefaddress) */\n  0x07\n  exp(0x0100, 0x00)\n  dup2\n  sload\n  dup2\n  0xffffffffffffffffffffffffffffffffffffffff\n  mul\n  not\n  and\n  swap1\n  dup4\n  0xffffffffffffffffffffffffffffffffffffffff\n  and\n  mul\n  or\n  swap1\n  sstore\n  pop\n    /* \"Code-hardhat-ethersJs/contracts/MyTokenMarket.sol\":1047:1067  constructor(){... */\n  callvalue\n  dup1\n  iszero\n  tag_1\n  jumpi\n  0x00\n  dup1\n  revert\ntag_1:\n  pop\n    /* \"Code-hardhat-ethersJs/contracts/MyTokenMarket.sol\":264:2541  contract MyTokenMarket{... */\n  dataSize(sub_0)\n  dup1\n  dataOffset(sub_0)\n  0x00\n  codecopy\n  0x00\n  return\nstop\n\nsub_0: assembly {\n        /* \"Code-hardhat-ethersJs/contracts/MyTokenMarket.sol\":264:2541  contract MyTokenMarket{... */\n      mstore(0x40, 0x80)\n      jumpi(tag_1, lt(calldatasize, 0x04))\n      shr(0xe0, calldataload(0x00))\n      dup1\n      0x2e1a7d4d\n      eq\n      tag_2\n      jumpi\n      dup1\n      0xa93f74e0\n      eq\n      tag_3\n      jumpi\n      dup1\n      0xaebf3e41\n      eq\n      tag_4\n      jumpi\n      dup1\n      0xfc55d2bf\n      eq\n      tag_5\n      jumpi\n    tag_1:\n      0x00\n      dup1\n      revert\n        /* \"Code-hardhat-ethersJs/contracts/MyTokenMarket.sol\":2364:2537  function withdraw(uint256 pid)public{... */\n    tag_2:\n      callvalue\n      dup1\n      iszero\n      tag_6\n      jumpi\n      0x00\n      dup1\n      revert\n    tag_6:\n      pop\n      tag_7\n      0x04\n      dup1\n      calldatasize\n      sub\n      dup2\n      add\n      swap1\n      tag_8\n      swap2\n      swap1\n      tag_9\n      jump\t// in\n    tag_8:\n      tag_10\n      jump\t// in\n    tag_7:\n      stop\n        /* \"Code-hardhat-ethersJs/contracts/MyTokenMarket.sol\":2003:2327  function buyExactTokenByETH(uint amountOutMin)public payable{... */\n    tag_3:\n      tag_11\n      0x04\n      dup1\n      calldatasize\n      sub\n      dup2\n      add\n      swap1\n      tag_12\n      swap2\n      swap1\n      tag_9\n      jump\t// in\n    tag_12:\n      tag_13\n      jump\t// in\n    tag_11:\n      stop\n        /* \"Code-hardhat-ethersJs/contracts/MyTokenMarket.sol\":1074:1762  function addLiquidity(... */\n    tag_4:\n      tag_14\n      0x04\n      dup1\n      calldatasize\n      sub\n      dup2\n      add\n      swap1\n      tag_15\n      swap2\n      swap1\n      tag_16\n      jump\t// in\n    tag_15:\n      tag_17\n      jump\t// in\n    tag_14:\n      stop\n        /* \"Code-hardhat-ethersJs/contracts/MyTokenMarket.sol\":1768:1996  function depositToMasterChef(address lpAddress,uint256 pid, uint256 amount)public{... */\n    tag_5:\n      callvalue\n      dup1\n      iszero\n      tag_18\n      jumpi\n      0x00\n      dup1\n      revert\n    tag_18:\n      pop\n      tag_19\n      0x04\n      dup1\n      calldatasize\n      sub\n      dup2\n      add\n      swap1\n      tag_20\n      swap2\n      swap1\n      tag_21\n      jump\t// in\n    tag_20:\n      tag_22\n      jump\t// in\n    tag_19:\n      stop\n        /* \"Code-hardhat-ethersJs/contracts/MyTokenMarket.sol\":2364:2537  function withdraw(uint256 pid)public{... */\n    tag_10:\n        /* \"Code-hardhat-ethersJs/contracts/MyTokenMarket.sol\":2410:2446  IMasterChef.UserInfo memory userInfo */\n      0x00\n        /* \"Code-hardhat-ethersJs/contracts/MyTokenMarket.sol\":2449:2459  masterChef */\n      0x07\n      0x00\n      swap1\n      sload\n      swap1\n      0x0100\n      exp\n      swap1\n      div\n      0xffffffffffffffffffffffffffffffffffffffff\n      and\n        /* \"Code-hardhat-ethersJs/contracts/MyTokenMarket.sol\":2449:2468  masterChef.userInfo */\n      0xffffffffffffffffffffffffffffffffffffffff\n      and\n      0x1959a002\n        /* \"Code-hardhat-ethersJs/contracts/MyTokenMarket.sol\":2469:2479  msg.sender */\n      caller\n        /* \"Code-hardhat-ethersJs/contracts/MyTokenMarket.sol\":2449:2480  masterChef.userInfo(msg.sender) */\n      mload(0x40)\n      dup3\n      0xffffffff\n      and\n      0xe0\n      shl\n      dup2\n      mstore\n      0x04\n      add\n      tag_24\n      swap2\n      swap1\n      tag_25\n      jump\t// in\n    tag_24:\n      0x40\n      dup1\n      mload\n      dup1\n      dup4\n      sub\n      dup2\n      dup7\n      gas\n      staticcall\n      iszero\n      dup1\n      iszero\n      tag_27\n      jumpi\n      returndatasize\n      0x00\n      dup1\n      returndatacopy\n      revert(0x00, returndatasize)\n    tag_27:\n      pop\n      pop\n      pop\n      pop\n      mload(0x40)\n      returndatasize\n      not(0x1f)\n      0x1f\n      dup3\n      add\n      and\n      dup3\n      add\n      dup1\n      0x40\n      mstore\n      pop\n      dup2\n      add\n      swap1\n      tag_28\n      swap2\n      swap1\n      tag_29\n      jump\t// in\n    tag_28:\n        /* \"Code-hardhat-ethersJs/contracts/MyTokenMarket.sol\":2410:2480  IMasterChef.UserInfo memory userInfo = masterChef.userInfo(msg.sender) */\n      swap1\n      pop\n        /* \"Code-hardhat-ethersJs/contracts/MyTokenMarket.sol\":2490:2500  masterChef */\n      0x07\n      0x00\n      swap1\n      sload\n      swap1\n      0x0100\n      exp\n      swap1\n      div\n      0xffffffffffffffffffffffffffffffffffffffff\n      and\n        /* \"Code-hardhat-ethersJs/contracts/MyTokenMarket.sol\":2490:2509  masterChef.withdraw */\n      0xffffffffffffffffffffffffffffffffffffffff\n      and\n      0x441a3e70\n        /* \"Code-hardhat-ethersJs/contracts/MyTokenMarket.sol\":2510:2513  pid */\n      dup4\n        /* \"Code-hardhat-ethersJs/contracts/MyTokenMarket.sol\":2514:2522  userInfo */\n      dup4\n        /* \"Code-hardhat-ethersJs/contracts/MyTokenMarket.sol\":2514:2529  userInfo.amount */\n      0x00\n      add\n      mload\n        /* \"Code-hardhat-ethersJs/contracts/MyTokenMarket.sol\":2490:2530  masterChef.withdraw(pid,userInfo.amount) */\n      mload(0x40)\n      dup4\n      0xffffffff\n      and\n      0xe0\n      shl\n      dup2\n      mstore\n      0x04\n      add\n      tag_30\n      swap3\n      swap2\n      swap1\n      tag_31\n      jump\t// in\n    tag_30:\n      0x00\n      mload(0x40)\n      dup1\n      dup4\n      sub\n      dup2\n      0x00\n      dup8\n      dup1\n      extcodesize\n      iszero\n      dup1\n      iszero\n      tag_32\n      jumpi\n      0x00\n      dup1\n      revert\n    tag_32:\n      pop\n      gas\n      call\n      iszero\n      dup1\n      iszero\n      tag_34\n      jumpi\n      returndatasize\n      0x00\n      dup1\n      returndatacopy\n      revert(0x00, returndatasize)\n    tag_34:\n      pop\n      pop\n      pop\n      pop\n        /* \"Code-hardhat-ethersJs/contracts/MyTokenMarket.sol\":2400:2537  {... */\n      pop\n        /* \"Code-hardhat-ethersJs/contracts/MyTokenMarket.sol\":2364:2537  function withdraw(uint256 pid)public{... */\n      pop\n      jump\t// out\n        /* \"Code-hardhat-ethersJs/contracts/MyTokenMarket.sol\":2003:2327  function buyExactTokenByETH(uint amountOutMin)public payable{... */\n    tag_13:\n        /* \"Code-hardhat-ethersJs/contracts/MyTokenMarket.sol\":2077:2098  address[] memory path */\n      0x00\n        /* \"Code-hardhat-ethersJs/contracts/MyTokenMarket.sol\":2115:2116  2 */\n      0x02\n        /* \"Code-hardhat-ethersJs/contracts/MyTokenMarket.sol\":2101:2117  new address[](2) */\n      0xffffffffffffffff\n      dup2\n      gt\n      iszero\n      tag_36\n      jumpi\n      tag_37\n      tag_38\n      jump\t// in\n    tag_37:\n    tag_36:\n      mload(0x40)\n      swap1\n      dup1\n      dup3\n      mstore\n      dup1\n      0x20\n      mul\n      0x20\n      add\n      dup3\n      add\n      0x40\n      mstore\n      dup1\n      iszero\n      tag_39\n      jumpi\n      dup2\n      0x20\n      add\n      0x20\n      dup3\n      mul\n      dup1\n      calldatasize\n      dup4\n      calldatacopy\n      dup1\n      dup3\n      add\n      swap2\n      pop\n      pop\n      swap1\n      pop\n    tag_39:\n      pop\n        /* \"Code-hardhat-ethersJs/contracts/MyTokenMarket.sol\":2077:2117  address[] memory path = new address[](2) */\n      swap1\n      pop\n        /* \"Code-hardhat-ethersJs/contracts/MyTokenMarket.sol\":2149:2160  wethaddress */\n      0x01\n      0x00\n      swap1\n      sload\n      swap1\n      0x0100\n      exp\n      swap1\n      div\n      0xffffffffffffffffffffffffffffffffffffffff\n      and\n        /* \"Code-hardhat-ethersJs/contracts/MyTokenMarket.sol\":2131:2135  path */\n      dup2\n        /* \"Code-hardhat-ethersJs/contracts/MyTokenMarket.sol\":2136:2137  0 */\n      0x00\n        /* \"Code-hardhat-ethersJs/contracts/MyTokenMarket.sol\":2131:2138  path[0] */\n      dup2\n      mload\n      dup2\n      lt\n      tag_40\n      jumpi\n      tag_41\n      tag_42\n      jump\t// in\n    tag_41:\n    tag_40:\n      0x20\n      mul\n      0x20\n      add\n      add\n        /* \"Code-hardhat-ethersJs/contracts/MyTokenMarket.sol\":2131:2161  path[0] = address(wethaddress) */\n      swap1\n      0xffffffffffffffffffffffffffffffffffffffff\n      and\n      swap1\n      dup2\n      0xffffffffffffffffffffffffffffffffffffffff\n      and\n      dup2\n      mstore\n      pop\n      pop\n        /* \"Code-hardhat-ethersJs/contracts/MyTokenMarket.sol\":2193:2207  mytokenaddress */\n      0x02\n      0x00\n      swap1\n      sload\n      swap1\n      0x0100\n      exp\n      swap1\n      div\n      0xffffffffffffffffffffffffffffffffffffffff\n      and\n        /* \"Code-hardhat-ethersJs/contracts/MyTokenMarket.sol\":2175:2179  path */\n      dup2\n        /* \"Code-hardhat-ethersJs/contracts/MyTokenMarket.sol\":2180:2181  1 */\n      0x01\n        /* \"Code-hardhat-ethersJs/contracts/MyTokenMarket.sol\":2175:2182  path[1] */\n      dup2\n      mload\n      dup2\n      lt\n      tag_43\n      jumpi\n      tag_44\n      tag_42\n      jump\t// in\n    tag_44:\n    tag_43:\n      0x20\n      mul\n      0x20\n      add\n      add\n        /* \"Code-hardhat-ethersJs/contracts/MyTokenMarket.sol\":2175:2208  path[1] = address(mytokenaddress) */\n      swap1\n      0xffffffffffffffffffffffffffffffffffffffff\n      and\n      swap1\n      dup2\n      0xffffffffffffffffffffffffffffffffffffffff\n      and\n      dup2\n      mstore\n      pop\n      pop\n        /* \"Code-hardhat-ethersJs/contracts/MyTokenMarket.sol\":2222:2231  uv2router */\n      0x05\n      0x00\n      swap1\n      sload\n      swap1\n      0x0100\n      exp\n      swap1\n      div\n      0xffffffffffffffffffffffffffffffffffffffff\n      and\n        /* \"Code-hardhat-ethersJs/contracts/MyTokenMarket.sol\":2222:2253  uv2router.swapExactETHForTokens */\n      0xffffffffffffffffffffffffffffffffffffffff\n      and\n      0x7ff36ab5\n        /* \"Code-hardhat-ethersJs/contracts/MyTokenMarket.sol\":2261:2270  msg.value */\n      callvalue\n        /* \"Code-hardhat-ethersJs/contracts/MyTokenMarket.sol\":2272:2284  amountOutMin */\n      dup5\n        /* \"Code-hardhat-ethersJs/contracts/MyTokenMarket.sol\":2286:2290  path */\n      dup5\n        /* \"Code-hardhat-ethersJs/contracts/MyTokenMarket.sol\":2292:2302  msg.sender */\n      caller\n        /* \"Code-hardhat-ethersJs/contracts/MyTokenMarket.sol\":2304:2319  block.timestamp */\n      timestamp\n        /* \"Code-hardhat-ethersJs/contracts/MyTokenMarket.sol\":2222:2320  uv2router.swapExactETHForTokens{value: msg.value}(amountOutMin, path, msg.sender, block.timestamp) */\n      mload(0x40)\n      dup7\n      0xffffffff\n      and\n      0xe0\n      shl\n      dup2\n      mstore\n      0x04\n      add\n      tag_45\n      swap5\n      swap4\n      swap3\n      swap2\n      swap1\n      tag_46\n      jump\t// in\n    tag_45:\n      0x00\n      mload(0x40)\n      dup1\n      dup4\n      sub\n      dup2\n      dup6\n      dup9\n      gas\n      call\n      iszero\n      dup1\n      iszero\n      tag_48\n      jumpi\n      returndatasize\n      0x00\n      dup1\n      returndatacopy\n      revert(0x00, returndatasize)\n    tag_48:\n      pop\n      pop\n      pop\n      pop\n      pop\n      mload(0x40)\n      returndatasize\n      0x00\n      dup3\n      returndatacopy\n      returndatasize\n      not(0x1f)\n      0x1f\n      dup3\n      add\n      and\n      dup3\n      add\n      dup1\n      0x40\n      mstore\n      pop\n      dup2\n      add\n      swap1\n      tag_49\n      swap2\n      swap1\n      tag_50\n      jump\t// in\n    tag_49:\n      pop\n        /* \"Code-hardhat-ethersJs/contracts/MyTokenMarket.sol\":2063:2327  {... */\n      pop\n        /* \"Code-hardhat-ethersJs/contracts/MyTokenMarket.sol\":2003:2327  function buyExactTokenByETH(uint amountOutMin)public payable{... */\n      pop\n      jump\t// out\n        /* \"Code-hardhat-ethersJs/contracts/MyTokenMarket.sol\":1074:1762  function addLiquidity(... */\n    tag_17:\n        /* \"Code-hardhat-ethersJs/contracts/MyTokenMarket.sol\":1281:1287  mtoken */\n      0x06\n      0x00\n      swap1\n      sload\n      swap1\n      0x0100\n      exp\n      swap1\n      div\n      0xffffffffffffffffffffffffffffffffffffffff\n      and\n        /* \"Code-hardhat-ethersJs/contracts/MyTokenMarket.sol\":1281:1295  mtoken.approve */\n      0xffffffffffffffffffffffffffffffffffffffff\n      and\n      0x095ea7b3\n        /* \"Code-hardhat-ethersJs/contracts/MyTokenMarket.sol\":1304:1313  uv2router */\n      0x05\n      0x00\n      swap1\n      sload\n      swap1\n      0x0100\n      exp\n      swap1\n      div\n      0xffffffffffffffffffffffffffffffffffffffff\n      and\n        /* \"Code-hardhat-ethersJs/contracts/MyTokenMarket.sol\":1316:1336  amountMyTokenDesired */\n      dup7\n        /* \"Code-hardhat-ethersJs/contracts/MyTokenMarket.sol\":1281:1337  mtoken.approve(address(uv2router), amountMyTokenDesired) */\n      mload(0x40)\n      dup4\n      0xffffffff\n      and\n      0xe0\n      shl\n      dup2\n      mstore\n      0x04\n      add\n      tag_52\n      swap3\n      swap2\n      swap1\n      tag_53\n      jump\t// in\n    tag_52:\n      0x20\n      mload(0x40)\n      dup1\n      dup4\n      sub\n      dup2\n      0x00\n      dup8\n      gas\n      call\n      iszero\n      dup1\n      iszero\n      tag_55\n      jumpi\n      returndatasize\n      0x00\n      dup1\n      returndatacopy\n      revert(0x00, returndatasize)\n    tag_55:\n      pop\n      pop\n      pop\n      pop\n      mload(0x40)\n      returndatasize\n      not(0x1f)\n      0x1f\n      dup3\n      add\n      and\n      dup3\n      add\n      dup1\n      0x40\n      mstore\n      pop\n      dup2\n      add\n      swap1\n      tag_56\n      swap2\n      swap1\n      tag_57\n      jump\t// in\n    tag_56:\n      pop\n        /* \"Code-hardhat-ethersJs/contracts/MyTokenMarket.sol\":1347:1359  bool success */\n      0x00\n        /* \"Code-hardhat-ethersJs/contracts/MyTokenMarket.sol\":1362:1368  mtoken */\n      0x06\n      0x00\n      swap1\n      sload\n      swap1\n      0x0100\n      exp\n      swap1\n      div\n      0xffffffffffffffffffffffffffffffffffffffff\n      and\n        /* \"Code-hardhat-ethersJs/contracts/MyTokenMarket.sol\":1362:1381  mtoken.transferFrom */\n      0xffffffffffffffffffffffffffffffffffffffff\n      and\n      0x23b872dd\n        /* \"Code-hardhat-ethersJs/contracts/MyTokenMarket.sol\":1382:1392  msg.sender */\n      caller\n        /* \"Code-hardhat-ethersJs/contracts/MyTokenMarket.sol\":1402:1406  this */\n      address\n        /* \"Code-hardhat-ethersJs/contracts/MyTokenMarket.sol\":1409:1429  amountMyTokenDesired */\n      dup9\n        /* \"Code-hardhat-ethersJs/contracts/MyTokenMarket.sol\":1362:1430  mtoken.transferFrom(msg.sender, address(this), amountMyTokenDesired) */\n      mload(0x40)\n      dup5\n      0xffffffff\n      and\n      0xe0\n      shl\n      dup2\n      mstore\n      0x04\n      add\n      tag_58\n      swap4\n      swap3\n      swap2\n      swap1\n      tag_59\n      jump\t// in\n    tag_58:\n      0x20\n      mload(0x40)\n      dup1\n      dup4\n      sub\n      dup2\n      0x00\n      dup8\n      gas\n      call\n      iszero\n      dup1\n      iszero\n      tag_61\n      jumpi\n      returndatasize\n      0x00\n      dup1\n      returndatacopy\n      revert(0x00, returndatasize)\n    tag_61:\n      pop\n      pop\n      pop\n      pop\n      mload(0x40)\n      returndatasize\n      not(0x1f)\n      0x1f\n      dup3\n      add\n      and\n      dup3\n      add\n      dup1\n      0x40\n      mstore\n      pop\n      dup2\n      add\n      swap1\n      tag_62\n      swap2\n      swap1\n      tag_57\n      jump\t// in\n    tag_62:\n        /* \"Code-hardhat-ethersJs/contracts/MyTokenMarket.sol\":1347:1430  bool success = mtoken.transferFrom(msg.sender, address(this), amountMyTokenDesired) */\n      swap1\n      pop\n        /* \"Code-hardhat-ethersJs/contracts/MyTokenMarket.sol\":1448:1455  success */\n      dup1\n        /* \"Code-hardhat-ethersJs/contracts/MyTokenMarket.sol\":1440:1482  require(success, \"mtoken transfer error!\") */\n      tag_63\n      jumpi\n      mload(0x40)\n      0x08c379a000000000000000000000000000000000000000000000000000000000\n      dup2\n      mstore\n      0x04\n      add\n      tag_64\n      swap1\n      tag_65\n      jump\t// in\n    tag_64:\n      mload(0x40)\n      dup1\n      swap2\n      sub\n      swap1\n      revert\n    tag_63:\n        /* \"Code-hardhat-ethersJs/contracts/MyTokenMarket.sol\":1512:1524  amountETHMin */\n      dup3\n        /* \"Code-hardhat-ethersJs/contracts/MyTokenMarket.sol\":1500:1509  msg.value */\n      callvalue\n        /* \"Code-hardhat-ethersJs/contracts/MyTokenMarket.sol\":1500:1524  msg.value > amountETHMin */\n      gt\n        /* \"Code-hardhat-ethersJs/contracts/MyTokenMarket.sol\":1492:1571  require(msg.value > amountETHMin, \"msg.value should biggger than amountETHMin\") */\n      tag_66\n      jumpi\n      mload(0x40)\n      0x08c379a000000000000000000000000000000000000000000000000000000000\n      dup2\n      mstore\n      0x04\n      add\n      tag_67\n      swap1\n      tag_68\n      jump\t// in\n    tag_67:\n      mload(0x40)\n      dup1\n      swap2\n      sub\n      swap1\n      revert\n    tag_66:\n        /* \"Code-hardhat-ethersJs/contracts/MyTokenMarket.sol\":1582:1598  uint amountToken */\n      0x00\n        /* \"Code-hardhat-ethersJs/contracts/MyTokenMarket.sol\":1604:1613  uv2router */\n      0x05\n      0x00\n      swap1\n      sload\n      swap1\n      0x0100\n      exp\n      swap1\n      div\n      0xffffffffffffffffffffffffffffffffffffffff\n      and\n        /* \"Code-hardhat-ethersJs/contracts/MyTokenMarket.sol\":1604:1629  uv2router.addLiquidityETH */\n      0xffffffffffffffffffffffffffffffffffffffff\n      and\n      0xf305d719\n        /* \"Code-hardhat-ethersJs/contracts/MyTokenMarket.sol\":1637:1646  msg.value */\n      callvalue\n        /* \"Code-hardhat-ethersJs/contracts/MyTokenMarket.sol\":1649:1663  mytokenaddress */\n      0x02\n      0x00\n      swap1\n      sload\n      swap1\n      0x0100\n      exp\n      swap1\n      div\n      0xffffffffffffffffffffffffffffffffffffffff\n      and\n        /* \"Code-hardhat-ethersJs/contracts/MyTokenMarket.sol\":1665:1685  amountMyTokenDesired */\n      dup10\n        /* \"Code-hardhat-ethersJs/contracts/MyTokenMarket.sol\":1687:1703  amountMyTokenMin */\n      dup10\n        /* \"Code-hardhat-ethersJs/contracts/MyTokenMarket.sol\":1705:1717  amountETHMin */\n      dup10\n        /* \"Code-hardhat-ethersJs/contracts/MyTokenMarket.sol\":1719:1729  msg.sender */\n      caller\n        /* \"Code-hardhat-ethersJs/contracts/MyTokenMarket.sol\":1730:1745  block.timestamp */\n      timestamp\n        /* \"Code-hardhat-ethersJs/contracts/MyTokenMarket.sol\":1604:1746  uv2router.addLiquidityETH{value: msg.value}( mytokenaddress, amountMyTokenDesired, amountMyTokenMin, amountETHMin, msg.sender,block.timestamp) */\n      mload(0x40)\n      dup9\n      0xffffffff\n      and\n      0xe0\n      shl\n      dup2\n      mstore\n      0x04\n      add\n      tag_69\n      swap7\n      swap6\n      swap5\n      swap4\n      swap3\n      swap2\n      swap1\n      tag_70\n      jump\t// in\n    tag_69:\n      0x60\n      mload(0x40)\n      dup1\n      dup4\n      sub\n      dup2\n      dup6\n      dup9\n      gas\n      call\n      iszero\n      dup1\n      iszero\n      tag_72\n      jumpi\n      returndatasize\n      0x00\n      dup1\n      returndatacopy\n      revert(0x00, returndatasize)\n    tag_72:\n      pop\n      pop\n      pop\n      pop\n      pop\n      mload(0x40)\n      returndatasize\n      not(0x1f)\n      0x1f\n      dup3\n      add\n      and\n      dup3\n      add\n      dup1\n      0x40\n      mstore\n      pop\n      dup2\n      add\n      swap1\n      tag_73\n      swap2\n      swap1\n      tag_74\n      jump\t// in\n    tag_73:\n        /* \"Code-hardhat-ethersJs/contracts/MyTokenMarket.sol\":1581:1746  (uint amountToken,,) = uv2router.addLiquidityETH{value: msg.value}( mytokenaddress, amountMyTokenDesired, amountMyTokenMin, amountETHMin, msg.sender,block.timestamp) */\n      pop\n      pop\n      swap1\n      pop\n        /* \"Code-hardhat-ethersJs/contracts/MyTokenMarket.sol\":1233:1762  {... */\n      pop\n      pop\n        /* \"Code-hardhat-ethersJs/contracts/MyTokenMarket.sol\":1074:1762  function addLiquidity(... */\n      pop\n      pop\n      pop\n      pop\n      jump\t// out\n        /* \"Code-hardhat-ethersJs/contracts/MyTokenMarket.sol\":1768:1996  function depositToMasterChef(address lpAddress,uint256 pid, uint256 amount)public{... */\n    tag_22:\n        /* \"Code-hardhat-ethersJs/contracts/MyTokenMarket.sol\":1904:1913  lpAddress */\n      dup3\n        /* \"Code-hardhat-ethersJs/contracts/MyTokenMarket.sol\":1897:1922  IERC20(lpAddress).approve */\n      0xffffffffffffffffffffffffffffffffffffffff\n      and\n      0x095ea7b3\n        /* \"Code-hardhat-ethersJs/contracts/MyTokenMarket.sol\":1923:1940  masterchefaddress */\n      0x04\n      0x00\n      swap1\n      sload\n      swap1\n      0x0100\n      exp\n      swap1\n      div\n      0xffffffffffffffffffffffffffffffffffffffff\n      and\n        /* \"Code-hardhat-ethersJs/contracts/MyTokenMarket.sol\":1942:1948  amount */\n      dup4\n        /* \"Code-hardhat-ethersJs/contracts/MyTokenMarket.sol\":1897:1949  IERC20(lpAddress).approve(masterchefaddress, amount) */\n      mload(0x40)\n      dup4\n      0xffffffff\n      and\n      0xe0\n      shl\n      dup2\n      mstore\n      0x04\n      add\n      tag_76\n      swap3\n      swap2\n      swap1\n      tag_53\n      jump\t// in\n    tag_76:\n      0x20\n      mload(0x40)\n      dup1\n      dup4\n      sub\n      dup2\n      0x00\n      dup8\n      gas\n      call\n      iszero\n      dup1\n      iszero\n      tag_78\n      jumpi\n      returndatasize\n      0x00\n      dup1\n      returndatacopy\n      revert(0x00, returndatasize)\n    tag_78:\n      pop\n      pop\n      pop\n      pop\n      mload(0x40)\n      returndatasize\n      not(0x1f)\n      0x1f\n      dup3\n      add\n      and\n      dup3\n      add\n      dup1\n      0x40\n      mstore\n      pop\n      dup2\n      add\n      swap1\n      tag_79\n      swap2\n      swap1\n      tag_57\n      jump\t// in\n    tag_79:\n      pop\n        /* \"Code-hardhat-ethersJs/contracts/MyTokenMarket.sol\":1959:1969  masterChef */\n      0x07\n      0x00\n      swap1\n      sload\n      swap1\n      0x0100\n      exp\n      swap1\n      div\n      0xffffffffffffffffffffffffffffffffffffffff\n      and\n        /* \"Code-hardhat-ethersJs/contracts/MyTokenMarket.sol\":1959:1977  masterChef.deposit */\n      0xffffffffffffffffffffffffffffffffffffffff\n      and\n      0xe2bbb158\n        /* \"Code-hardhat-ethersJs/contracts/MyTokenMarket.sol\":1978:1981  pid */\n      dup4\n        /* \"Code-hardhat-ethersJs/contracts/MyTokenMarket.sol\":1982:1988  amount */\n      dup4\n        /* \"Code-hardhat-ethersJs/contracts/MyTokenMarket.sol\":1959:1989  masterChef.deposit(pid,amount) */\n      mload(0x40)\n      dup4\n      0xffffffff\n      and\n      0xe0\n      shl\n      dup2\n      mstore\n      0x04\n      add\n      tag_80\n      swap3\n      swap2\n      swap1\n      tag_31\n      jump\t// in\n    tag_80:\n      0x00\n      mload(0x40)\n      dup1\n      dup4\n      sub\n      dup2\n      0x00\n      dup8\n      dup1\n      extcodesize\n      iszero\n      dup1\n      iszero\n      tag_81\n      jumpi\n      0x00\n      dup1\n      revert\n    tag_81:\n      pop\n      gas\n      call\n      iszero\n      dup1\n      iszero\n      tag_83\n      jumpi\n      returndatasize\n      0x00\n      dup1\n      returndatacopy\n      revert(0x00, returndatasize)\n    tag_83:\n      pop\n      pop\n      pop\n      pop\n        /* \"Code-hardhat-ethersJs/contracts/MyTokenMarket.sol\":1768:1996  function depositToMasterChef(address lpAddress,uint256 pid, uint256 amount)public{... */\n      pop\n      pop\n      pop\n      jump\t// out\n        /* \"#utility.yul\":7:82   */\n    tag_84:\n        /* \"#utility.yul\":40:46   */\n      0x00\n        /* \"#utility.yul\":73:75   */\n      0x40\n        /* \"#utility.yul\":67:76   */\n      mload\n        /* \"#utility.yul\":57:76   */\n      swap1\n      pop\n        /* \"#utility.yul\":7:82   */\n      swap1\n      jump\t// out\n        /* \"#utility.yul\":88:205   */\n    tag_85:\n        /* \"#utility.yul\":197:198   */\n      0x00\n        /* \"#utility.yul\":194:195   */\n      dup1\n        /* \"#utility.yul\":187:199   */\n      revert\n        /* \"#utility.yul\":211:328   */\n    tag_86:\n        /* \"#utility.yul\":320:321   */\n      0x00\n        /* \"#utility.yul\":317:318   */\n      dup1\n        /* \"#utility.yul\":310:322   */\n      revert\n        /* \"#utility.yul\":334:411   */\n    tag_87:\n        /* \"#utility.yul\":371:378   */\n      0x00\n        /* \"#utility.yul\":400:405   */\n      dup2\n        /* \"#utility.yul\":389:405   */\n      swap1\n      pop\n        /* \"#utility.yul\":334:411   */\n      swap2\n      swap1\n      pop\n      jump\t// out\n        /* \"#utility.yul\":417:539   */\n    tag_88:\n        /* \"#utility.yul\":490:514   */\n      tag_129\n        /* \"#utility.yul\":508:513   */\n      dup2\n        /* \"#utility.yul\":490:514   */\n      tag_87\n      jump\t// in\n    tag_129:\n        /* \"#utility.yul\":483:488   */\n      dup2\n        /* \"#utility.yul\":480:515   */\n      eq\n        /* \"#utility.yul\":470:533   */\n      tag_130\n      jumpi\n        /* \"#utility.yul\":529:530   */\n      0x00\n        /* \"#utility.yul\":526:527   */\n      dup1\n        /* \"#utility.yul\":519:531   */\n      revert\n        /* \"#utility.yul\":470:533   */\n    tag_130:\n        /* \"#utility.yul\":417:539   */\n      pop\n      jump\t// out\n        /* \"#utility.yul\":545:684   */\n    tag_89:\n        /* \"#utility.yul\":591:596   */\n      0x00\n        /* \"#utility.yul\":629:635   */\n      dup2\n        /* \"#utility.yul\":616:636   */\n      calldataload\n        /* \"#utility.yul\":607:636   */\n      swap1\n      pop\n        /* \"#utility.yul\":645:678   */\n      tag_132\n        /* \"#utility.yul\":672:677   */\n      dup2\n        /* \"#utility.yul\":645:678   */\n      tag_88\n      jump\t// in\n    tag_132:\n        /* \"#utility.yul\":545:684   */\n      swap3\n      swap2\n      pop\n      pop\n      jump\t// out\n        /* \"#utility.yul\":690:1019   */\n    tag_9:\n        /* \"#utility.yul\":749:755   */\n      0x00\n        /* \"#utility.yul\":798:800   */\n      0x20\n        /* \"#utility.yul\":786:795   */\n      dup3\n        /* \"#utility.yul\":777:784   */\n      dup5\n        /* \"#utility.yul\":773:796   */\n      sub\n        /* \"#utility.yul\":769:801   */\n      slt\n        /* \"#utility.yul\":766:885   */\n      iszero\n      tag_134\n      jumpi\n        /* \"#utility.yul\":804:883   */\n      tag_135\n      tag_85\n      jump\t// in\n    tag_135:\n        /* \"#utility.yul\":766:885   */\n    tag_134:\n        /* \"#utility.yul\":924:925   */\n      0x00\n        /* \"#utility.yul\":949:1002   */\n      tag_136\n        /* \"#utility.yul\":994:1001   */\n      dup5\n        /* \"#utility.yul\":985:991   */\n      dup3\n        /* \"#utility.yul\":974:983   */\n      dup6\n        /* \"#utility.yul\":970:992   */\n      add\n        /* \"#utility.yul\":949:1002   */\n      tag_89\n      jump\t// in\n    tag_136:\n        /* \"#utility.yul\":939:1002   */\n      swap2\n      pop\n        /* \"#utility.yul\":895:1012   */\n      pop\n        /* \"#utility.yul\":690:1019   */\n      swap3\n      swap2\n      pop\n      pop\n      jump\t// out\n        /* \"#utility.yul\":1025:1790   */\n    tag_16:\n        /* \"#utility.yul\":1111:1117   */\n      0x00\n        /* \"#utility.yul\":1119:1125   */\n      dup1\n        /* \"#utility.yul\":1127:1133   */\n      0x00\n        /* \"#utility.yul\":1135:1141   */\n      dup1\n        /* \"#utility.yul\":1184:1187   */\n      0x80\n        /* \"#utility.yul\":1172:1181   */\n      dup6\n        /* \"#utility.yul\":1163:1170   */\n      dup8\n        /* \"#utility.yul\":1159:1182   */\n      sub\n        /* \"#utility.yul\":1155:1188   */\n      slt\n        /* \"#utility.yul\":1152:1272   */\n      iszero\n      tag_138\n      jumpi\n        /* \"#utility.yul\":1191:1270   */\n      tag_139\n      tag_85\n      jump\t// in\n    tag_139:\n        /* \"#utility.yul\":1152:1272   */\n    tag_138:\n        /* \"#utility.yul\":1311:1312   */\n      0x00\n        /* \"#utility.yul\":1336:1389   */\n      tag_140\n        /* \"#utility.yul\":1381:1388   */\n      dup8\n        /* \"#utility.yul\":1372:1378   */\n      dup3\n        /* \"#utility.yul\":1361:1370   */\n      dup9\n        /* \"#utility.yul\":1357:1379   */\n      add\n        /* \"#utility.yul\":1336:1389   */\n      tag_89\n      jump\t// in\n    tag_140:\n        /* \"#utility.yul\":1326:1389   */\n      swap5\n      pop\n        /* \"#utility.yul\":1282:1399   */\n      pop\n        /* \"#utility.yul\":1438:1440   */\n      0x20\n        /* \"#utility.yul\":1464:1517   */\n      tag_141\n        /* \"#utility.yul\":1509:1516   */\n      dup8\n        /* \"#utility.yul\":1500:1506   */\n      dup3\n        /* \"#utility.yul\":1489:1498   */\n      dup9\n        /* \"#utility.yul\":1485:1507   */\n      add\n        /* \"#utility.yul\":1464:1517   */\n      tag_89\n      jump\t// in\n    tag_141:\n        /* \"#utility.yul\":1454:1517   */\n      swap4\n      pop\n        /* \"#utility.yul\":1409:1527   */\n      pop\n        /* \"#utility.yul\":1566:1568   */\n      0x40\n        /* \"#utility.yul\":1592:1645   */\n      tag_142\n        /* \"#utility.yul\":1637:1644   */\n      dup8\n        /* \"#utility.yul\":1628:1634   */\n      dup3\n        /* \"#utility.yul\":1617:1626   */\n      dup9\n        /* \"#utility.yul\":1613:1635   */\n      add\n        /* \"#utility.yul\":1592:1645   */\n      tag_89\n      jump\t// in\n    tag_142:\n        /* \"#utility.yul\":1582:1645   */\n      swap3\n      pop\n        /* \"#utility.yul\":1537:1655   */\n      pop\n        /* \"#utility.yul\":1694:1696   */\n      0x60\n        /* \"#utility.yul\":1720:1773   */\n      tag_143\n        /* \"#utility.yul\":1765:1772   */\n      dup8\n        /* \"#utility.yul\":1756:1762   */\n      dup3\n        /* \"#utility.yul\":1745:1754   */\n      dup9\n        /* \"#utility.yul\":1741:1763   */\n      add\n        /* \"#utility.yul\":1720:1773   */\n      tag_89\n      jump\t// in\n    tag_143:\n        /* \"#utility.yul\":1710:1773   */\n      swap2\n      pop\n        /* \"#utility.yul\":1665:1783   */\n      pop\n        /* \"#utility.yul\":1025:1790   */\n      swap3\n      swap6\n      swap2\n      swap5\n      pop\n      swap3\n      pop\n      jump\t// out\n        /* \"#utility.yul\":1796:1922   */\n    tag_90:\n        /* \"#utility.yul\":1833:1840   */\n      0x00\n        /* \"#utility.yul\":1873:1915   */\n      0xffffffffffffffffffffffffffffffffffffffff\n        /* \"#utility.yul\":1866:1871   */\n      dup3\n        /* \"#utility.yul\":1862:1916   */\n      and\n        /* \"#utility.yul\":1851:1916   */\n      swap1\n      pop\n        /* \"#utility.yul\":1796:1922   */\n      swap2\n      swap1\n      pop\n      jump\t// out\n        /* \"#utility.yul\":1928:2024   */\n    tag_91:\n        /* \"#utility.yul\":1965:1972   */\n      0x00\n        /* \"#utility.yul\":1994:2018   */\n      tag_146\n        /* \"#utility.yul\":2012:2017   */\n      dup3\n        /* \"#utility.yul\":1994:2018   */\n      tag_90\n      jump\t// in\n    tag_146:\n        /* \"#utility.yul\":1983:2018   */\n      swap1\n      pop\n        /* \"#utility.yul\":1928:2024   */\n      swap2\n      swap1\n      pop\n      jump\t// out\n        /* \"#utility.yul\":2030:2152   */\n    tag_92:\n        /* \"#utility.yul\":2103:2127   */\n      tag_148\n        /* \"#utility.yul\":2121:2126   */\n      dup2\n        /* \"#utility.yul\":2103:2127   */\n      tag_91\n      jump\t// in\n    tag_148:\n        /* \"#utility.yul\":2096:2101   */\n      dup2\n        /* \"#utility.yul\":2093:2128   */\n      eq\n        /* \"#utility.yul\":2083:2146   */\n      tag_149\n      jumpi\n        /* \"#utility.yul\":2142:2143   */\n      0x00\n        /* \"#utility.yul\":2139:2140   */\n      dup1\n        /* \"#utility.yul\":2132:2144   */\n      revert\n        /* \"#utility.yul\":2083:2146   */\n    tag_149:\n        /* \"#utility.yul\":2030:2152   */\n      pop\n      jump\t// out\n        /* \"#utility.yul\":2158:2297   */\n    tag_93:\n        /* \"#utility.yul\":2204:2209   */\n      0x00\n        /* \"#utility.yul\":2242:2248   */\n      dup2\n        /* \"#utility.yul\":2229:2249   */\n      calldataload\n        /* \"#utility.yul\":2220:2249   */\n      swap1\n      pop\n        /* \"#utility.yul\":2258:2291   */\n      tag_151\n        /* \"#utility.yul\":2285:2290   */\n      dup2\n        /* \"#utility.yul\":2258:2291   */\n      tag_92\n      jump\t// in\n    tag_151:\n        /* \"#utility.yul\":2158:2297   */\n      swap3\n      swap2\n      pop\n      pop\n      jump\t// out\n        /* \"#utility.yul\":2303:2922   */\n    tag_21:\n        /* \"#utility.yul\":2380:2386   */\n      0x00\n        /* \"#utility.yul\":2388:2394   */\n      dup1\n        /* \"#utility.yul\":2396:2402   */\n      0x00\n        /* \"#utility.yul\":2445:2447   */\n      0x60\n        /* \"#utility.yul\":2433:2442   */\n      dup5\n        /* \"#utility.yul\":2424:2431   */\n      dup7\n        /* \"#utility.yul\":2420:2443   */\n      sub\n        /* \"#utility.yul\":2416:2448   */\n      slt\n        /* \"#utility.yul\":2413:2532   */\n      iszero\n      tag_153\n      jumpi\n        /* \"#utility.yul\":2451:2530   */\n      tag_154\n      tag_85\n      jump\t// in\n    tag_154:\n        /* \"#utility.yul\":2413:2532   */\n    tag_153:\n        /* \"#utility.yul\":2571:2572   */\n      0x00\n        /* \"#utility.yul\":2596:2649   */\n      tag_155\n        /* \"#utility.yul\":2641:2648   */\n      dup7\n        /* \"#utility.yul\":2632:2638   */\n      dup3\n        /* \"#utility.yul\":2621:2630   */\n      dup8\n        /* \"#utility.yul\":2617:2639   */\n      add\n        /* \"#utility.yul\":2596:2649   */\n      tag_93\n      jump\t// in\n    tag_155:\n        /* \"#utility.yul\":2586:2649   */\n      swap4\n      pop\n        /* \"#utility.yul\":2542:2659   */\n      pop\n        /* \"#utility.yul\":2698:2700   */\n      0x20\n        /* \"#utility.yul\":2724:2777   */\n      tag_156\n        /* \"#utility.yul\":2769:2776   */\n      dup7\n        /* \"#utility.yul\":2760:2766   */\n      dup3\n        /* \"#utility.yul\":2749:2758   */\n      dup8\n        /* \"#utility.yul\":2745:2767   */\n      add\n        /* \"#utility.yul\":2724:2777   */\n      tag_89\n      jump\t// in\n    tag_156:\n        /* \"#utility.yul\":2714:2777   */\n      swap3\n      pop\n        /* \"#utility.yul\":2669:2787   */\n      pop\n        /* \"#utility.yul\":2826:2828   */\n      0x40\n        /* \"#utility.yul\":2852:2905   */\n      tag_157\n        /* \"#utility.yul\":2897:2904   */\n      dup7\n        /* \"#utility.yul\":2888:2894   */\n      dup3\n        /* \"#utility.yul\":2877:2886   */\n      dup8\n        /* \"#utility.yul\":2873:2895   */\n      add\n        /* \"#utility.yul\":2852:2905   */\n      tag_89\n      jump\t// in\n    tag_157:\n        /* \"#utility.yul\":2842:2905   */\n      swap2\n      pop\n        /* \"#utility.yul\":2797:2915   */\n      pop\n        /* \"#utility.yul\":2303:2922   */\n      swap3\n      pop\n      swap3\n      pop\n      swap3\n      jump\t// out\n        /* \"#utility.yul\":2928:3046   */\n    tag_94:\n        /* \"#utility.yul\":3015:3039   */\n      tag_159\n        /* \"#utility.yul\":3033:3038   */\n      dup2\n        /* \"#utility.yul\":3015:3039   */\n      tag_91\n      jump\t// in\n    tag_159:\n        /* \"#utility.yul\":3010:3013   */\n      dup3\n        /* \"#utility.yul\":3003:3040   */\n      mstore\n        /* \"#utility.yul\":2928:3046   */\n      pop\n      pop\n      jump\t// out\n        /* \"#utility.yul\":3052:3274   */\n    tag_25:\n        /* \"#utility.yul\":3145:3149   */\n      0x00\n        /* \"#utility.yul\":3183:3185   */\n      0x20\n        /* \"#utility.yul\":3172:3181   */\n      dup3\n        /* \"#utility.yul\":3168:3186   */\n      add\n        /* \"#utility.yul\":3160:3186   */\n      swap1\n      pop\n        /* \"#utility.yul\":3196:3267   */\n      tag_161\n        /* \"#utility.yul\":3264:3265   */\n      0x00\n        /* \"#utility.yul\":3253:3262   */\n      dup4\n        /* \"#utility.yul\":3249:3266   */\n      add\n        /* \"#utility.yul\":3240:3246   */\n      dup5\n        /* \"#utility.yul\":3196:3267   */\n      tag_94\n      jump\t// in\n    tag_161:\n        /* \"#utility.yul\":3052:3274   */\n      swap3\n      swap2\n      pop\n      pop\n      jump\t// out\n        /* \"#utility.yul\":3280:3397   */\n    tag_95:\n        /* \"#utility.yul\":3389:3390   */\n      0x00\n        /* \"#utility.yul\":3386:3387   */\n      dup1\n        /* \"#utility.yul\":3379:3391   */\n      revert\n        /* \"#utility.yul\":3403:3505   */\n    tag_96:\n        /* \"#utility.yul\":3444:3450   */\n      0x00\n        /* \"#utility.yul\":3495:3497   */\n      0x1f\n        /* \"#utility.yul\":3491:3498   */\n      not\n        /* \"#utility.yul\":3486:3488   */\n      0x1f\n        /* \"#utility.yul\":3479:3484   */\n      dup4\n        /* \"#utility.yul\":3475:3489   */\n      add\n        /* \"#utility.yul\":3471:3499   */\n      and\n        /* \"#utility.yul\":3461:3499   */\n      swap1\n      pop\n        /* \"#utility.yul\":3403:3505   */\n      swap2\n      swap1\n      pop\n      jump\t// out\n        /* \"#utility.yul\":3511:3691   */\n    tag_38:\n        /* \"#utility.yul\":3559:3636   */\n      0x4e487b7100000000000000000000000000000000000000000000000000000000\n        /* \"#utility.yul\":3556:3557   */\n      0x00\n        /* \"#utility.yul\":3549:3637   */\n      mstore\n        /* \"#utility.yul\":3656:3660   */\n      0x41\n        /* \"#utility.yul\":3653:3654   */\n      0x04\n        /* \"#utility.yul\":3646:3661   */\n      mstore\n        /* \"#utility.yul\":3680:3684   */\n      0x24\n        /* \"#utility.yul\":3677:3678   */\n      0x00\n        /* \"#utility.yul\":3670:3685   */\n      revert\n        /* \"#utility.yul\":3697:3978   */\n    tag_97:\n        /* \"#utility.yul\":3780:3807   */\n      tag_166\n        /* \"#utility.yul\":3802:3806   */\n      dup3\n        /* \"#utility.yul\":3780:3807   */\n      tag_96\n      jump\t// in\n    tag_166:\n        /* \"#utility.yul\":3772:3778   */\n      dup2\n        /* \"#utility.yul\":3768:3808   */\n      add\n        /* \"#utility.yul\":3910:3916   */\n      dup2\n        /* \"#utility.yul\":3898:3908   */\n      dup2\n        /* \"#utility.yul\":3895:3917   */\n      lt\n        /* \"#utility.yul\":3874:3892   */\n      0xffffffffffffffff\n        /* \"#utility.yul\":3862:3872   */\n      dup3\n        /* \"#utility.yul\":3859:3893   */\n      gt\n        /* \"#utility.yul\":3856:3918   */\n      or\n        /* \"#utility.yul\":3853:3941   */\n      iszero\n      tag_167\n      jumpi\n        /* \"#utility.yul\":3921:3939   */\n      tag_168\n      tag_38\n      jump\t// in\n    tag_168:\n        /* \"#utility.yul\":3853:3941   */\n    tag_167:\n        /* \"#utility.yul\":3961:3971   */\n      dup1\n        /* \"#utility.yul\":3957:3959   */\n      0x40\n        /* \"#utility.yul\":3950:3972   */\n      mstore\n        /* \"#utility.yul\":3740:3978   */\n      pop\n        /* \"#utility.yul\":3697:3978   */\n      pop\n      pop\n      jump\t// out\n        /* \"#utility.yul\":3984:4113   */\n    tag_98:\n        /* \"#utility.yul\":4018:4024   */\n      0x00\n        /* \"#utility.yul\":4045:4065   */\n      tag_170\n      tag_84\n      jump\t// in\n    tag_170:\n        /* \"#utility.yul\":4035:4065   */\n      swap1\n      pop\n        /* \"#utility.yul\":4074:4107   */\n      tag_171\n        /* \"#utility.yul\":4102:4106   */\n      dup3\n        /* \"#utility.yul\":4094:4100   */\n      dup3\n        /* \"#utility.yul\":4074:4107   */\n      tag_97\n      jump\t// in\n    tag_171:\n        /* \"#utility.yul\":3984:4113   */\n      swap2\n      swap1\n      pop\n      jump\t// out\n        /* \"#utility.yul\":4242:4385   */\n    tag_100:\n        /* \"#utility.yul\":4299:4304   */\n      0x00\n        /* \"#utility.yul\":4330:4336   */\n      dup2\n        /* \"#utility.yul\":4324:4337   */\n      mload\n        /* \"#utility.yul\":4315:4337   */\n      swap1\n      pop\n        /* \"#utility.yul\":4346:4379   */\n      tag_174\n        /* \"#utility.yul\":4373:4378   */\n      dup2\n        /* \"#utility.yul\":4346:4379   */\n      tag_88\n      jump\t// in\n    tag_174:\n        /* \"#utility.yul\":4242:4385   */\n      swap3\n      swap2\n      pop\n      pop\n      jump\t// out\n        /* \"#utility.yul\":4426:5041   */\n    tag_101:\n        /* \"#utility.yul\":4511:4516   */\n      0x00\n        /* \"#utility.yul\":4555:4559   */\n      0x40\n        /* \"#utility.yul\":4543:4552   */\n      dup3\n        /* \"#utility.yul\":4538:4541   */\n      dup5\n        /* \"#utility.yul\":4534:4553   */\n      sub\n        /* \"#utility.yul\":4530:4560   */\n      slt\n        /* \"#utility.yul\":4527:4644   */\n      iszero\n      tag_176\n      jumpi\n        /* \"#utility.yul\":4563:4642   */\n      tag_177\n      tag_95\n      jump\t// in\n    tag_177:\n        /* \"#utility.yul\":4527:4644   */\n    tag_176:\n        /* \"#utility.yul\":4662:4683   */\n      tag_178\n        /* \"#utility.yul\":4678:4682   */\n      0x40\n        /* \"#utility.yul\":4662:4683   */\n      tag_98\n      jump\t// in\n    tag_178:\n        /* \"#utility.yul\":4653:4683   */\n      swap1\n      pop\n        /* \"#utility.yul\":4744:4745   */\n      0x00\n        /* \"#utility.yul\":4784:4844   */\n      tag_179\n        /* \"#utility.yul\":4840:4843   */\n      dup5\n        /* \"#utility.yul\":4831:4837   */\n      dup3\n        /* \"#utility.yul\":4820:4829   */\n      dup6\n        /* \"#utility.yul\":4816:4838   */\n      add\n        /* \"#utility.yul\":4784:4844   */\n      tag_100\n      jump\t// in\n    tag_179:\n        /* \"#utility.yul\":4777:4781   */\n      0x00\n        /* \"#utility.yul\":4770:4775   */\n      dup4\n        /* \"#utility.yul\":4766:4782   */\n      add\n        /* \"#utility.yul\":4759:4845   */\n      mstore\n        /* \"#utility.yul\":4693:4856   */\n      pop\n        /* \"#utility.yul\":4921:4923   */\n      0x20\n        /* \"#utility.yul\":4962:5022   */\n      tag_180\n        /* \"#utility.yul\":5018:5021   */\n      dup5\n        /* \"#utility.yul\":5009:5015   */\n      dup3\n        /* \"#utility.yul\":4998:5007   */\n      dup6\n        /* \"#utility.yul\":4994:5016   */\n      add\n        /* \"#utility.yul\":4962:5022   */\n      tag_100\n      jump\t// in\n    tag_180:\n        /* \"#utility.yul\":4955:4959   */\n      0x20\n        /* \"#utility.yul\":4948:4953   */\n      dup4\n        /* \"#utility.yul\":4944:4960   */\n      add\n        /* \"#utility.yul\":4937:5023   */\n      mstore\n        /* \"#utility.yul\":4866:5034   */\n      pop\n        /* \"#utility.yul\":4426:5041   */\n      swap3\n      swap2\n      pop\n      pop\n      jump\t// out\n        /* \"#utility.yul\":5047:5448   */\n    tag_29:\n        /* \"#utility.yul\":5142:5148   */\n      0x00\n        /* \"#utility.yul\":5191:5193   */\n      0x40\n        /* \"#utility.yul\":5179:5188   */\n      dup3\n        /* \"#utility.yul\":5170:5177   */\n      dup5\n        /* \"#utility.yul\":5166:5189   */\n      sub\n        /* \"#utility.yul\":5162:5194   */\n      slt\n        /* \"#utility.yul\":5159:5278   */\n      iszero\n      tag_182\n      jumpi\n        /* \"#utility.yul\":5197:5276   */\n      tag_183\n      tag_85\n      jump\t// in\n    tag_183:\n        /* \"#utility.yul\":5159:5278   */\n    tag_182:\n        /* \"#utility.yul\":5317:5318   */\n      0x00\n        /* \"#utility.yul\":5342:5431   */\n      tag_184\n        /* \"#utility.yul\":5423:5430   */\n      dup5\n        /* \"#utility.yul\":5414:5420   */\n      dup3\n        /* \"#utility.yul\":5403:5412   */\n      dup6\n        /* \"#utility.yul\":5399:5421   */\n      add\n        /* \"#utility.yul\":5342:5431   */\n      tag_101\n      jump\t// in\n    tag_184:\n        /* \"#utility.yul\":5332:5431   */\n      swap2\n      pop\n        /* \"#utility.yul\":5288:5441   */\n      pop\n        /* \"#utility.yul\":5047:5448   */\n      swap3\n      swap2\n      pop\n      pop\n      jump\t// out\n        /* \"#utility.yul\":5454:5572   */\n    tag_102:\n        /* \"#utility.yul\":5541:5565   */\n      tag_186\n        /* \"#utility.yul\":5559:5564   */\n      dup2\n        /* \"#utility.yul\":5541:5565   */\n      tag_87\n      jump\t// in\n    tag_186:\n        /* \"#utility.yul\":5536:5539   */\n      dup3\n        /* \"#utility.yul\":5529:5566   */\n      mstore\n        /* \"#utility.yul\":5454:5572   */\n      pop\n      pop\n      jump\t// out\n        /* \"#utility.yul\":5578:5910   */\n    tag_31:\n        /* \"#utility.yul\":5699:5703   */\n      0x00\n        /* \"#utility.yul\":5737:5739   */\n      0x40\n        /* \"#utility.yul\":5726:5735   */\n      dup3\n        /* \"#utility.yul\":5722:5740   */\n      add\n        /* \"#utility.yul\":5714:5740   */\n      swap1\n      pop\n        /* \"#utility.yul\":5750:5821   */\n      tag_188\n        /* \"#utility.yul\":5818:5819   */\n      0x00\n        /* \"#utility.yul\":5807:5816   */\n      dup4\n        /* \"#utility.yul\":5803:5820   */\n      add\n        /* \"#utility.yul\":5794:5800   */\n      dup6\n        /* \"#utility.yul\":5750:5821   */\n      tag_102\n      jump\t// in\n    tag_188:\n        /* \"#utility.yul\":5831:5903   */\n      tag_189\n        /* \"#utility.yul\":5899:5901   */\n      0x20\n        /* \"#utility.yul\":5888:5897   */\n      dup4\n        /* \"#utility.yul\":5884:5902   */\n      add\n        /* \"#utility.yul\":5875:5881   */\n      dup5\n        /* \"#utility.yul\":5831:5903   */\n      tag_102\n      jump\t// in\n    tag_189:\n        /* \"#utility.yul\":5578:5910   */\n      swap4\n      swap3\n      pop\n      pop\n      pop\n      jump\t// out\n        /* \"#utility.yul\":5916:6096   */\n    tag_42:\n        /* \"#utility.yul\":5964:6041   */\n      0x4e487b7100000000000000000000000000000000000000000000000000000000\n        /* \"#utility.yul\":5961:5962   */\n      0x00\n        /* \"#utility.yul\":5954:6042   */\n      mstore\n        /* \"#utility.yul\":6061:6065   */\n      0x32\n        /* \"#utility.yul\":6058:6059   */\n      0x04\n        /* \"#utility.yul\":6051:6066   */\n      mstore\n        /* \"#utility.yul\":6085:6089   */\n      0x24\n        /* \"#utility.yul\":6082:6083   */\n      0x00\n        /* \"#utility.yul\":6075:6090   */\n      revert\n        /* \"#utility.yul\":6102:6216   */\n    tag_103:\n        /* \"#utility.yul\":6169:6175   */\n      0x00\n        /* \"#utility.yul\":6203:6208   */\n      dup2\n        /* \"#utility.yul\":6197:6209   */\n      mload\n        /* \"#utility.yul\":6187:6209   */\n      swap1\n      pop\n        /* \"#utility.yul\":6102:6216   */\n      swap2\n      swap1\n      pop\n      jump\t// out\n        /* \"#utility.yul\":6222:6406   */\n    tag_104:\n        /* \"#utility.yul\":6321:6332   */\n      0x00\n        /* \"#utility.yul\":6355:6361   */\n      dup3\n        /* \"#utility.yul\":6350:6353   */\n      dup3\n        /* \"#utility.yul\":6343:6362   */\n      mstore\n        /* \"#utility.yul\":6395:6399   */\n      0x20\n        /* \"#utility.yul\":6390:6393   */\n      dup3\n        /* \"#utility.yul\":6386:6400   */\n      add\n        /* \"#utility.yul\":6371:6400   */\n      swap1\n      pop\n        /* \"#utility.yul\":6222:6406   */\n      swap3\n      swap2\n      pop\n      pop\n      jump\t// out\n        /* \"#utility.yul\":6412:6544   */\n    tag_105:\n        /* \"#utility.yul\":6479:6483   */\n      0x00\n        /* \"#utility.yul\":6502:6505   */\n      dup2\n        /* \"#utility.yul\":6494:6505   */\n      swap1\n      pop\n        /* \"#utility.yul\":6532:6536   */\n      0x20\n        /* \"#utility.yul\":6527:6530   */\n      dup3\n        /* \"#utility.yul\":6523:6537   */\n      add\n        /* \"#utility.yul\":6515:6537   */\n      swap1\n      pop\n        /* \"#utility.yul\":6412:6544   */\n      swap2\n      swap1\n      pop\n      jump\t// out\n        /* \"#utility.yul\":6550:6658   */\n    tag_106:\n        /* \"#utility.yul\":6627:6651   */\n      tag_195\n        /* \"#utility.yul\":6645:6650   */\n      dup2\n        /* \"#utility.yul\":6627:6651   */\n      tag_91\n      jump\t// in\n    tag_195:\n        /* \"#utility.yul\":6622:6625   */\n      dup3\n        /* \"#utility.yul\":6615:6652   */\n      mstore\n        /* \"#utility.yul\":6550:6658   */\n      pop\n      pop\n      jump\t// out\n        /* \"#utility.yul\":6664:6843   */\n    tag_107:\n        /* \"#utility.yul\":6733:6743   */\n      0x00\n        /* \"#utility.yul\":6754:6800   */\n      tag_197\n        /* \"#utility.yul\":6796:6799   */\n      dup4\n        /* \"#utility.yul\":6788:6794   */\n      dup4\n        /* \"#utility.yul\":6754:6800   */\n      tag_106\n      jump\t// in\n    tag_197:\n        /* \"#utility.yul\":6832:6836   */\n      0x20\n        /* \"#utility.yul\":6827:6830   */\n      dup4\n        /* \"#utility.yul\":6823:6837   */\n      add\n        /* \"#utility.yul\":6809:6837   */\n      swap1\n      pop\n        /* \"#utility.yul\":6664:6843   */\n      swap3\n      swap2\n      pop\n      pop\n      jump\t// out\n        /* \"#utility.yul\":6849:6962   */\n    tag_108:\n        /* \"#utility.yul\":6919:6923   */\n      0x00\n        /* \"#utility.yul\":6951:6955   */\n      0x20\n        /* \"#utility.yul\":6946:6949   */\n      dup3\n        /* \"#utility.yul\":6942:6956   */\n      add\n        /* \"#utility.yul\":6934:6956   */\n      swap1\n      pop\n        /* \"#utility.yul\":6849:6962   */\n      swap2\n      swap1\n      pop\n      jump\t// out\n        /* \"#utility.yul\":6998:7730   */\n    tag_109:\n        /* \"#utility.yul\":7117:7120   */\n      0x00\n        /* \"#utility.yul\":7146:7200   */\n      tag_200\n        /* \"#utility.yul\":7194:7199   */\n      dup3\n        /* \"#utility.yul\":7146:7200   */\n      tag_103\n      jump\t// in\n    tag_200:\n        /* \"#utility.yul\":7216:7302   */\n      tag_201\n        /* \"#utility.yul\":7295:7301   */\n      dup2\n        /* \"#utility.yul\":7290:7293   */\n      dup6\n        /* \"#utility.yul\":7216:7302   */\n      tag_104\n      jump\t// in\n    tag_201:\n        /* \"#utility.yul\":7209:7302   */\n      swap4\n      pop\n        /* \"#utility.yul\":7326:7382   */\n      tag_202\n        /* \"#utility.yul\":7376:7381   */\n      dup4\n        /* \"#utility.yul\":7326:7382   */\n      tag_105\n      jump\t// in\n    tag_202:\n        /* \"#utility.yul\":7405:7412   */\n      dup1\n        /* \"#utility.yul\":7436:7437   */\n      0x00\n        /* \"#utility.yul\":7421:7705   */\n    tag_203:\n        /* \"#utility.yul\":7446:7452   */\n      dup4\n        /* \"#utility.yul\":7443:7444   */\n      dup2\n        /* \"#utility.yul\":7440:7453   */\n      lt\n        /* \"#utility.yul\":7421:7705   */\n      iszero\n      tag_205\n      jumpi\n        /* \"#utility.yul\":7522:7528   */\n      dup2\n        /* \"#utility.yul\":7516:7529   */\n      mload\n        /* \"#utility.yul\":7549:7612   */\n      tag_206\n        /* \"#utility.yul\":7608:7611   */\n      dup9\n        /* \"#utility.yul\":7593:7606   */\n      dup3\n        /* \"#utility.yul\":7549:7612   */\n      tag_107\n      jump\t// in\n    tag_206:\n        /* \"#utility.yul\":7542:7612   */\n      swap8\n      pop\n        /* \"#utility.yul\":7635:7695   */\n      tag_207\n        /* \"#utility.yul\":7688:7694   */\n      dup4\n        /* \"#utility.yul\":7635:7695   */\n      tag_108\n      jump\t// in\n    tag_207:\n        /* \"#utility.yul\":7625:7695   */\n      swap3\n      pop\n        /* \"#utility.yul\":7481:7705   */\n      pop\n        /* \"#utility.yul\":7468:7469   */\n      0x01\n        /* \"#utility.yul\":7465:7466   */\n      dup2\n        /* \"#utility.yul\":7461:7470   */\n      add\n        /* \"#utility.yul\":7456:7470   */\n      swap1\n      pop\n        /* \"#utility.yul\":7421:7705   */\n      jump(tag_203)\n    tag_205:\n        /* \"#utility.yul\":7425:7439   */\n      pop\n        /* \"#utility.yul\":7721:7724   */\n      dup6\n        /* \"#utility.yul\":7714:7724   */\n      swap4\n      pop\n        /* \"#utility.yul\":7122:7730   */\n      pop\n      pop\n      pop\n        /* \"#utility.yul\":6998:7730   */\n      swap3\n      swap2\n      pop\n      pop\n      jump\t// out\n        /* \"#utility.yul\":7736:8440   */\n    tag_46:\n        /* \"#utility.yul\":7963:7967   */\n      0x00\n        /* \"#utility.yul\":8001:8004   */\n      0x80\n        /* \"#utility.yul\":7990:7999   */\n      dup3\n        /* \"#utility.yul\":7986:8005   */\n      add\n        /* \"#utility.yul\":7978:8005   */\n      swap1\n      pop\n        /* \"#utility.yul\":8015:8086   */\n      tag_209\n        /* \"#utility.yul\":8083:8084   */\n      0x00\n        /* \"#utility.yul\":8072:8081   */\n      dup4\n        /* \"#utility.yul\":8068:8085   */\n      add\n        /* \"#utility.yul\":8059:8065   */\n      dup8\n        /* \"#utility.yul\":8015:8086   */\n      tag_102\n      jump\t// in\n    tag_209:\n        /* \"#utility.yul\":8133:8142   */\n      dup2\n        /* \"#utility.yul\":8127:8131   */\n      dup2\n        /* \"#utility.yul\":8123:8143   */\n      sub\n        /* \"#utility.yul\":8118:8120   */\n      0x20\n        /* \"#utility.yul\":8107:8116   */\n      dup4\n        /* \"#utility.yul\":8103:8121   */\n      add\n        /* \"#utility.yul\":8096:8144   */\n      mstore\n        /* \"#utility.yul\":8161:8269   */\n      tag_210\n        /* \"#utility.yul\":8264:8268   */\n      dup2\n        /* \"#utility.yul\":8255:8261   */\n      dup7\n        /* \"#utility.yul\":8161:8269   */\n      tag_109\n      jump\t// in\n    tag_210:\n        /* \"#utility.yul\":8153:8269   */\n      swap1\n      pop\n        /* \"#utility.yul\":8279:8351   */\n      tag_211\n        /* \"#utility.yul\":8347:8349   */\n      0x40\n        /* \"#utility.yul\":8336:8345   */\n      dup4\n        /* \"#utility.yul\":8332:8350   */\n      add\n        /* \"#utility.yul\":8323:8329   */\n      dup6\n        /* \"#utility.yul\":8279:8351   */\n      tag_94\n      jump\t// in\n    tag_211:\n        /* \"#utility.yul\":8361:8433   */\n      tag_212\n        /* \"#utility.yul\":8429:8431   */\n      0x60\n        /* \"#utility.yul\":8418:8427   */\n      dup4\n        /* \"#utility.yul\":8414:8432   */\n      add\n        /* \"#utility.yul\":8405:8411   */\n      dup5\n        /* \"#utility.yul\":8361:8433   */\n      tag_102\n      jump\t// in\n    tag_212:\n        /* \"#utility.yul\":7736:8440   */\n      swap6\n      swap5\n      pop\n      pop\n      pop\n      pop\n      pop\n      jump\t// out\n        /* \"#utility.yul\":8446:8563   */\n    tag_110:\n        /* \"#utility.yul\":8555:8556   */\n      0x00\n        /* \"#utility.yul\":8552:8553   */\n      dup1\n        /* \"#utility.yul\":8545:8557   */\n      revert\n        /* \"#utility.yul\":8569:8880   */\n    tag_111:\n        /* \"#utility.yul\":8646:8650   */\n      0x00\n        /* \"#utility.yul\":8736:8754   */\n      0xffffffffffffffff\n        /* \"#utility.yul\":8728:8734   */\n      dup3\n        /* \"#utility.yul\":8725:8755   */\n      gt\n        /* \"#utility.yul\":8722:8778   */\n      iszero\n      tag_215\n      jumpi\n        /* \"#utility.yul\":8758:8776   */\n      tag_216\n      tag_38\n      jump\t// in\n    tag_216:\n        /* \"#utility.yul\":8722:8778   */\n    tag_215:\n        /* \"#utility.yul\":8808:8812   */\n      0x20\n        /* \"#utility.yul\":8800:8806   */\n      dup3\n        /* \"#utility.yul\":8796:8813   */\n      mul\n        /* \"#utility.yul\":8788:8813   */\n      swap1\n      pop\n        /* \"#utility.yul\":8868:8872   */\n      0x20\n        /* \"#utility.yul\":8862:8866   */\n      dup2\n        /* \"#utility.yul\":8858:8873   */\n      add\n        /* \"#utility.yul\":8850:8873   */\n      swap1\n      pop\n        /* \"#utility.yul\":8569:8880   */\n      swap2\n      swap1\n      pop\n      jump\t// out\n        /* \"#utility.yul\":8886:9003   */\n    tag_112:\n        /* \"#utility.yul\":8995:8996   */\n      0x00\n        /* \"#utility.yul\":8992:8993   */\n      dup1\n        /* \"#utility.yul\":8985:8997   */\n      revert\n        /* \"#utility.yul\":9026:9758   */\n    tag_113:\n        /* \"#utility.yul\":9133:9138   */\n      0x00\n        /* \"#utility.yul\":9158:9239   */\n      tag_219\n        /* \"#utility.yul\":9174:9238   */\n      tag_220\n        /* \"#utility.yul\":9231:9237   */\n      dup5\n        /* \"#utility.yul\":9174:9238   */\n      tag_111\n      jump\t// in\n    tag_220:\n        /* \"#utility.yul\":9158:9239   */\n      tag_98\n      jump\t// in\n    tag_219:\n        /* \"#utility.yul\":9149:9239   */\n      swap1\n      pop\n        /* \"#utility.yul\":9259:9264   */\n      dup1\n        /* \"#utility.yul\":9288:9294   */\n      dup4\n        /* \"#utility.yul\":9281:9286   */\n      dup3\n        /* \"#utility.yul\":9274:9295   */\n      mstore\n        /* \"#utility.yul\":9322:9326   */\n      0x20\n        /* \"#utility.yul\":9315:9320   */\n      dup3\n        /* \"#utility.yul\":9311:9327   */\n      add\n        /* \"#utility.yul\":9304:9327   */\n      swap1\n      pop\n        /* \"#utility.yul\":9375:9379   */\n      0x20\n        /* \"#utility.yul\":9367:9373   */\n      dup5\n        /* \"#utility.yul\":9363:9380   */\n      mul\n        /* \"#utility.yul\":9355:9361   */\n      dup4\n        /* \"#utility.yul\":9351:9381   */\n      add\n        /* \"#utility.yul\":9404:9407   */\n      dup6\n        /* \"#utility.yul\":9396:9402   */\n      dup2\n        /* \"#utility.yul\":9393:9408   */\n      gt\n        /* \"#utility.yul\":9390:9512   */\n      iszero\n      tag_221\n      jumpi\n        /* \"#utility.yul\":9423:9502   */\n      tag_222\n      tag_112\n      jump\t// in\n    tag_222:\n        /* \"#utility.yul\":9390:9512   */\n    tag_221:\n        /* \"#utility.yul\":9538:9544   */\n      dup4\n        /* \"#utility.yul\":9521:9752   */\n    tag_223:\n        /* \"#utility.yul\":9555:9561   */\n      dup2\n        /* \"#utility.yul\":9550:9553   */\n      dup2\n        /* \"#utility.yul\":9547:9562   */\n      lt\n        /* \"#utility.yul\":9521:9752   */\n      iszero\n      tag_225\n      jumpi\n        /* \"#utility.yul\":9630:9633   */\n      dup1\n        /* \"#utility.yul\":9659:9707   */\n      tag_226\n        /* \"#utility.yul\":9703:9706   */\n      dup9\n        /* \"#utility.yul\":9691:9701   */\n      dup3\n        /* \"#utility.yul\":9659:9707   */\n      tag_100\n      jump\t// in\n    tag_226:\n        /* \"#utility.yul\":9654:9657   */\n      dup5\n        /* \"#utility.yul\":9647:9708   */\n      mstore\n        /* \"#utility.yul\":9737:9741   */\n      0x20\n        /* \"#utility.yul\":9732:9735   */\n      dup5\n        /* \"#utility.yul\":9728:9742   */\n      add\n        /* \"#utility.yul\":9721:9742   */\n      swap4\n      pop\n        /* \"#utility.yul\":9597:9752   */\n      pop\n        /* \"#utility.yul\":9581:9585   */\n      0x20\n        /* \"#utility.yul\":9576:9579   */\n      dup2\n        /* \"#utility.yul\":9572:9586   */\n      add\n        /* \"#utility.yul\":9565:9586   */\n      swap1\n      pop\n        /* \"#utility.yul\":9521:9752   */\n      jump(tag_223)\n    tag_225:\n        /* \"#utility.yul\":9525:9546   */\n      pop\n        /* \"#utility.yul\":9139:9758   */\n      pop\n      pop\n        /* \"#utility.yul\":9026:9758   */\n      swap4\n      swap3\n      pop\n      pop\n      pop\n      jump\t// out\n        /* \"#utility.yul\":9781:10166   */\n    tag_114:\n        /* \"#utility.yul\":9863:9868   */\n      0x00\n        /* \"#utility.yul\":9912:9915   */\n      dup3\n        /* \"#utility.yul\":9905:9909   */\n      0x1f\n        /* \"#utility.yul\":9897:9903   */\n      dup4\n        /* \"#utility.yul\":9893:9910   */\n      add\n        /* \"#utility.yul\":9889:9916   */\n      slt\n        /* \"#utility.yul\":9879:10001   */\n      tag_228\n      jumpi\n        /* \"#utility.yul\":9920:9999   */\n      tag_229\n      tag_110\n      jump\t// in\n    tag_229:\n        /* \"#utility.yul\":9879:10001   */\n    tag_228:\n        /* \"#utility.yul\":10030:10036   */\n      dup2\n        /* \"#utility.yul\":10024:10037   */\n      mload\n        /* \"#utility.yul\":10055:10160   */\n      tag_230\n        /* \"#utility.yul\":10156:10159   */\n      dup5\n        /* \"#utility.yul\":10148:10154   */\n      dup3\n        /* \"#utility.yul\":10141:10145   */\n      0x20\n        /* \"#utility.yul\":10133:10139   */\n      dup7\n        /* \"#utility.yul\":10129:10146   */\n      add\n        /* \"#utility.yul\":10055:10160   */\n      tag_113\n      jump\t// in\n    tag_230:\n        /* \"#utility.yul\":10046:10160   */\n      swap2\n      pop\n        /* \"#utility.yul\":9869:10166   */\n      pop\n        /* \"#utility.yul\":9781:10166   */\n      swap3\n      swap2\n      pop\n      pop\n      jump\t// out\n        /* \"#utility.yul\":10172:10726   */\n    tag_50:\n        /* \"#utility.yul\":10267:10273   */\n      0x00\n        /* \"#utility.yul\":10316:10318   */\n      0x20\n        /* \"#utility.yul\":10304:10313   */\n      dup3\n        /* \"#utility.yul\":10295:10302   */\n      dup5\n        /* \"#utility.yul\":10291:10314   */\n      sub\n        /* \"#utility.yul\":10287:10319   */\n      slt\n        /* \"#utility.yul\":10284:10403   */\n      iszero\n      tag_232\n      jumpi\n        /* \"#utility.yul\":10322:10401   */\n      tag_233\n      tag_85\n      jump\t// in\n    tag_233:\n        /* \"#utility.yul\":10284:10403   */\n    tag_232:\n        /* \"#utility.yul\":10463:10464   */\n      0x00\n        /* \"#utility.yul\":10452:10461   */\n      dup3\n        /* \"#utility.yul\":10448:10465   */\n      add\n        /* \"#utility.yul\":10442:10466   */\n      mload\n        /* \"#utility.yul\":10493:10511   */\n      0xffffffffffffffff\n        /* \"#utility.yul\":10485:10491   */\n      dup2\n        /* \"#utility.yul\":10482:10512   */\n      gt\n        /* \"#utility.yul\":10479:10596   */\n      iszero\n      tag_234\n      jumpi\n        /* \"#utility.yul\":10515:10594   */\n      tag_235\n      tag_86\n      jump\t// in\n    tag_235:\n        /* \"#utility.yul\":10479:10596   */\n    tag_234:\n        /* \"#utility.yul\":10620:10709   */\n      tag_236\n        /* \"#utility.yul\":10701:10708   */\n      dup5\n        /* \"#utility.yul\":10692:10698   */\n      dup3\n        /* \"#utility.yul\":10681:10690   */\n      dup6\n        /* \"#utility.yul\":10677:10699   */\n      add\n        /* \"#utility.yul\":10620:10709   */\n      tag_114\n      jump\t// in\n    tag_236:\n        /* \"#utility.yul\":10610:10709   */\n      swap2\n      pop\n        /* \"#utility.yul\":10413:10719   */\n      pop\n        /* \"#utility.yul\":10172:10726   */\n      swap3\n      swap2\n      pop\n      pop\n      jump\t// out\n        /* \"#utility.yul\":10732:11064   */\n    tag_53:\n        /* \"#utility.yul\":10853:10857   */\n      0x00\n        /* \"#utility.yul\":10891:10893   */\n      0x40\n        /* \"#utility.yul\":10880:10889   */\n      dup3\n        /* \"#utility.yul\":10876:10894   */\n      add\n        /* \"#utility.yul\":10868:10894   */\n      swap1\n      pop\n        /* \"#utility.yul\":10904:10975   */\n      tag_238\n        /* \"#utility.yul\":10972:10973   */\n      0x00\n        /* \"#utility.yul\":10961:10970   */\n      dup4\n        /* \"#utility.yul\":10957:10974   */\n      add\n        /* \"#utility.yul\":10948:10954   */\n      dup6\n        /* \"#utility.yul\":10904:10975   */\n      tag_94\n      jump\t// in\n    tag_238:\n        /* \"#utility.yul\":10985:11057   */\n      tag_239\n        /* \"#utility.yul\":11053:11055   */\n      0x20\n        /* \"#utility.yul\":11042:11051   */\n      dup4\n        /* \"#utility.yul\":11038:11056   */\n      add\n        /* \"#utility.yul\":11029:11035   */\n      dup5\n        /* \"#utility.yul\":10985:11057   */\n      tag_102\n      jump\t// in\n    tag_239:\n        /* \"#utility.yul\":10732:11064   */\n      swap4\n      swap3\n      pop\n      pop\n      pop\n      jump\t// out\n        /* \"#utility.yul\":11070:11160   */\n    tag_115:\n        /* \"#utility.yul\":11104:11111   */\n      0x00\n        /* \"#utility.yul\":11147:11152   */\n      dup2\n        /* \"#utility.yul\":11140:11153   */\n      iszero\n        /* \"#utility.yul\":11133:11154   */\n      iszero\n        /* \"#utility.yul\":11122:11154   */\n      swap1\n      pop\n        /* \"#utility.yul\":11070:11160   */\n      swap2\n      swap1\n      pop\n      jump\t// out\n        /* \"#utility.yul\":11166:11282   */\n    tag_116:\n        /* \"#utility.yul\":11236:11257   */\n      tag_242\n        /* \"#utility.yul\":11251:11256   */\n      dup2\n        /* \"#utility.yul\":11236:11257   */\n      tag_115\n      jump\t// in\n    tag_242:\n        /* \"#utility.yul\":11229:11234   */\n      dup2\n        /* \"#utility.yul\":11226:11258   */\n      eq\n        /* \"#utility.yul\":11216:11276   */\n      tag_243\n      jumpi\n        /* \"#utility.yul\":11272:11273   */\n      0x00\n        /* \"#utility.yul\":11269:11270   */\n      dup1\n        /* \"#utility.yul\":11262:11274   */\n      revert\n        /* \"#utility.yul\":11216:11276   */\n    tag_243:\n        /* \"#utility.yul\":11166:11282   */\n      pop\n      jump\t// out\n        /* \"#utility.yul\":11288:11425   */\n    tag_117:\n        /* \"#utility.yul\":11342:11347   */\n      0x00\n        /* \"#utility.yul\":11373:11379   */\n      dup2\n        /* \"#utility.yul\":11367:11380   */\n      mload\n        /* \"#utility.yul\":11358:11380   */\n      swap1\n      pop\n        /* \"#utility.yul\":11389:11419   */\n      tag_245\n        /* \"#utility.yul\":11413:11418   */\n      dup2\n        /* \"#utility.yul\":11389:11419   */\n      tag_116\n      jump\t// in\n    tag_245:\n        /* \"#utility.yul\":11288:11425   */\n      swap3\n      swap2\n      pop\n      pop\n      jump\t// out\n        /* \"#utility.yul\":11431:11776   */\n    tag_57:\n        /* \"#utility.yul\":11498:11504   */\n      0x00\n        /* \"#utility.yul\":11547:11549   */\n      0x20\n        /* \"#utility.yul\":11535:11544   */\n      dup3\n        /* \"#utility.yul\":11526:11533   */\n      dup5\n        /* \"#utility.yul\":11522:11545   */\n      sub\n        /* \"#utility.yul\":11518:11550   */\n      slt\n        /* \"#utility.yul\":11515:11634   */\n      iszero\n      tag_247\n      jumpi\n        /* \"#utility.yul\":11553:11632   */\n      tag_248\n      tag_85\n      jump\t// in\n    tag_248:\n        /* \"#utility.yul\":11515:11634   */\n    tag_247:\n        /* \"#utility.yul\":11673:11674   */\n      0x00\n        /* \"#utility.yul\":11698:11759   */\n      tag_249\n        /* \"#utility.yul\":11751:11758   */\n      dup5\n        /* \"#utility.yul\":11742:11748   */\n      dup3\n        /* \"#utility.yul\":11731:11740   */\n      dup6\n        /* \"#utility.yul\":11727:11749   */\n      add\n        /* \"#utility.yul\":11698:11759   */\n      tag_117\n      jump\t// in\n    tag_249:\n        /* \"#utility.yul\":11688:11759   */\n      swap2\n      pop\n        /* \"#utility.yul\":11644:11769   */\n      pop\n        /* \"#utility.yul\":11431:11776   */\n      swap3\n      swap2\n      pop\n      pop\n      jump\t// out\n        /* \"#utility.yul\":11782:12224   */\n    tag_59:\n        /* \"#utility.yul\":11931:11935   */\n      0x00\n        /* \"#utility.yul\":11969:11971   */\n      0x60\n        /* \"#utility.yul\":11958:11967   */\n      dup3\n        /* \"#utility.yul\":11954:11972   */\n      add\n        /* \"#utility.yul\":11946:11972   */\n      swap1\n      pop\n        /* \"#utility.yul\":11982:12053   */\n      tag_251\n        /* \"#utility.yul\":12050:12051   */\n      0x00\n        /* \"#utility.yul\":12039:12048   */\n      dup4\n        /* \"#utility.yul\":12035:12052   */\n      add\n        /* \"#utility.yul\":12026:12032   */\n      dup7\n        /* \"#utility.yul\":11982:12053   */\n      tag_94\n      jump\t// in\n    tag_251:\n        /* \"#utility.yul\":12063:12135   */\n      tag_252\n        /* \"#utility.yul\":12131:12133   */\n      0x20\n        /* \"#utility.yul\":12120:12129   */\n      dup4\n        /* \"#utility.yul\":12116:12134   */\n      add\n        /* \"#utility.yul\":12107:12113   */\n      dup6\n        /* \"#utility.yul\":12063:12135   */\n      tag_94\n      jump\t// in\n    tag_252:\n        /* \"#utility.yul\":12145:12217   */\n      tag_253\n        /* \"#utility.yul\":12213:12215   */\n      0x40\n        /* \"#utility.yul\":12202:12211   */\n      dup4\n        /* \"#utility.yul\":12198:12216   */\n      add\n        /* \"#utility.yul\":12189:12195   */\n      dup5\n        /* \"#utility.yul\":12145:12217   */\n      tag_102\n      jump\t// in\n    tag_253:\n        /* \"#utility.yul\":11782:12224   */\n      swap5\n      swap4\n      pop\n      pop\n      pop\n      pop\n      jump\t// out\n        /* \"#utility.yul\":12230:12399   */\n    tag_118:\n        /* \"#utility.yul\":12314:12325   */\n      0x00\n        /* \"#utility.yul\":12348:12354   */\n      dup3\n        /* \"#utility.yul\":12343:12346   */\n      dup3\n        /* \"#utility.yul\":12336:12355   */\n      mstore\n        /* \"#utility.yul\":12388:12392   */\n      0x20\n        /* \"#utility.yul\":12383:12386   */\n      dup3\n        /* \"#utility.yul\":12379:12393   */\n      add\n        /* \"#utility.yul\":12364:12393   */\n      swap1\n      pop\n        /* \"#utility.yul\":12230:12399   */\n      swap3\n      swap2\n      pop\n      pop\n      jump\t// out\n        /* \"#utility.yul\":12405:12577   */\n    tag_119:\n        /* \"#utility.yul\":12545:12569   */\n      0x6d746f6b656e207472616e73666572206572726f722100000000000000000000\n        /* \"#utility.yul\":12541:12542   */\n      0x00\n        /* \"#utility.yul\":12533:12539   */\n      dup3\n        /* \"#utility.yul\":12529:12543   */\n      add\n        /* \"#utility.yul\":12522:12570   */\n      mstore\n        /* \"#utility.yul\":12405:12577   */\n      pop\n      jump\t// out\n        /* \"#utility.yul\":12583:12949   */\n    tag_120:\n        /* \"#utility.yul\":12725:12728   */\n      0x00\n        /* \"#utility.yul\":12746:12813   */\n      tag_257\n        /* \"#utility.yul\":12810:12812   */\n      0x16\n        /* \"#utility.yul\":12805:12808   */\n      dup4\n        /* \"#utility.yul\":12746:12813   */\n      tag_118\n      jump\t// in\n    tag_257:\n        /* \"#utility.yul\":12739:12813   */\n      swap2\n      pop\n        /* \"#utility.yul\":12822:12915   */\n      tag_258\n        /* \"#utility.yul\":12911:12914   */\n      dup3\n        /* \"#utility.yul\":12822:12915   */\n      tag_119\n      jump\t// in\n    tag_258:\n        /* \"#utility.yul\":12940:12942   */\n      0x20\n        /* \"#utility.yul\":12935:12938   */\n      dup3\n        /* \"#utility.yul\":12931:12943   */\n      add\n        /* \"#utility.yul\":12924:12943   */\n      swap1\n      pop\n        /* \"#utility.yul\":12583:12949   */\n      swap2\n      swap1\n      pop\n      jump\t// out\n        /* \"#utility.yul\":12955:13374   */\n    tag_65:\n        /* \"#utility.yul\":13121:13125   */\n      0x00\n        /* \"#utility.yul\":13159:13161   */\n      0x20\n        /* \"#utility.yul\":13148:13157   */\n      dup3\n        /* \"#utility.yul\":13144:13162   */\n      add\n        /* \"#utility.yul\":13136:13162   */\n      swap1\n      pop\n        /* \"#utility.yul\":13208:13217   */\n      dup2\n        /* \"#utility.yul\":13202:13206   */\n      dup2\n        /* \"#utility.yul\":13198:13218   */\n      sub\n        /* \"#utility.yul\":13194:13195   */\n      0x00\n        /* \"#utility.yul\":13183:13192   */\n      dup4\n        /* \"#utility.yul\":13179:13196   */\n      add\n        /* \"#utility.yul\":13172:13219   */\n      mstore\n        /* \"#utility.yul\":13236:13367   */\n      tag_260\n        /* \"#utility.yul\":13362:13366   */\n      dup2\n        /* \"#utility.yul\":13236:13367   */\n      tag_120\n      jump\t// in\n    tag_260:\n        /* \"#utility.yul\":13228:13367   */\n      swap1\n      pop\n        /* \"#utility.yul\":12955:13374   */\n      swap2\n      swap1\n      pop\n      jump\t// out\n        /* \"#utility.yul\":13380:13609   */\n    tag_121:\n        /* \"#utility.yul\":13520:13554   */\n      0x6d73672e76616c75652073686f756c642062696767676572207468616e20616d\n        /* \"#utility.yul\":13516:13517   */\n      0x00\n        /* \"#utility.yul\":13508:13514   */\n      dup3\n        /* \"#utility.yul\":13504:13518   */\n      add\n        /* \"#utility.yul\":13497:13555   */\n      mstore\n        /* \"#utility.yul\":13589:13601   */\n      0x6f756e744554484d696e00000000000000000000000000000000000000000000\n        /* \"#utility.yul\":13584:13586   */\n      0x20\n        /* \"#utility.yul\":13576:13582   */\n      dup3\n        /* \"#utility.yul\":13572:13587   */\n      add\n        /* \"#utility.yul\":13565:13602   */\n      mstore\n        /* \"#utility.yul\":13380:13609   */\n      pop\n      jump\t// out\n        /* \"#utility.yul\":13615:13981   */\n    tag_122:\n        /* \"#utility.yul\":13757:13760   */\n      0x00\n        /* \"#utility.yul\":13778:13845   */\n      tag_263\n        /* \"#utility.yul\":13842:13844   */\n      0x2a\n        /* \"#utility.yul\":13837:13840   */\n      dup4\n        /* \"#utility.yul\":13778:13845   */\n      tag_118\n      jump\t// in\n    tag_263:\n        /* \"#utility.yul\":13771:13845   */\n      swap2\n      pop\n        /* \"#utility.yul\":13854:13947   */\n      tag_264\n        /* \"#utility.yul\":13943:13946   */\n      dup3\n        /* \"#utility.yul\":13854:13947   */\n      tag_121\n      jump\t// in\n    tag_264:\n        /* \"#utility.yul\":13972:13974   */\n      0x40\n        /* \"#utility.yul\":13967:13970   */\n      dup3\n        /* \"#utility.yul\":13963:13975   */\n      add\n        /* \"#utility.yul\":13956:13975   */\n      swap1\n      pop\n        /* \"#utility.yul\":13615:13981   */\n      swap2\n      swap1\n      pop\n      jump\t// out\n        /* \"#utility.yul\":13987:14406   */\n    tag_68:\n        /* \"#utility.yul\":14153:14157   */\n      0x00\n        /* \"#utility.yul\":14191:14193   */\n      0x20\n        /* \"#utility.yul\":14180:14189   */\n      dup3\n        /* \"#utility.yul\":14176:14194   */\n      add\n        /* \"#utility.yul\":14168:14194   */\n      swap1\n      pop\n        /* \"#utility.yul\":14240:14249   */\n      dup2\n        /* \"#utility.yul\":14234:14238   */\n      dup2\n        /* \"#utility.yul\":14230:14250   */\n      sub\n        /* \"#utility.yul\":14226:14227   */\n      0x00\n        /* \"#utility.yul\":14215:14224   */\n      dup4\n        /* \"#utility.yul\":14211:14228   */\n      add\n        /* \"#utility.yul\":14204:14251   */\n      mstore\n        /* \"#utility.yul\":14268:14399   */\n      tag_266\n        /* \"#utility.yul\":14394:14398   */\n      dup2\n        /* \"#utility.yul\":14268:14399   */\n      tag_122\n      jump\t// in\n    tag_266:\n        /* \"#utility.yul\":14260:14399   */\n      swap1\n      pop\n        /* \"#utility.yul\":13987:14406   */\n      swap2\n      swap1\n      pop\n      jump\t// out\n        /* \"#utility.yul\":14412:15187   */\n    tag_70:\n        /* \"#utility.yul\":14645:14649   */\n      0x00\n        /* \"#utility.yul\":14683:14686   */\n      0xc0\n        /* \"#utility.yul\":14672:14681   */\n      dup3\n        /* \"#utility.yul\":14668:14687   */\n      add\n        /* \"#utility.yul\":14660:14687   */\n      swap1\n      pop\n        /* \"#utility.yul\":14697:14768   */\n      tag_268\n        /* \"#utility.yul\":14765:14766   */\n      0x00\n        /* \"#utility.yul\":14754:14763   */\n      dup4\n        /* \"#utility.yul\":14750:14767   */\n      add\n        /* \"#utility.yul\":14741:14747   */\n      dup10\n        /* \"#utility.yul\":14697:14768   */\n      tag_94\n      jump\t// in\n    tag_268:\n        /* \"#utility.yul\":14778:14850   */\n      tag_269\n        /* \"#utility.yul\":14846:14848   */\n      0x20\n        /* \"#utility.yul\":14835:14844   */\n      dup4\n        /* \"#utility.yul\":14831:14849   */\n      add\n        /* \"#utility.yul\":14822:14828   */\n      dup9\n        /* \"#utility.yul\":14778:14850   */\n      tag_102\n      jump\t// in\n    tag_269:\n        /* \"#utility.yul\":14860:14932   */\n      tag_270\n        /* \"#utility.yul\":14928:14930   */\n      0x40\n        /* \"#utility.yul\":14917:14926   */\n      dup4\n        /* \"#utility.yul\":14913:14931   */\n      add\n        /* \"#utility.yul\":14904:14910   */\n      dup8\n        /* \"#utility.yul\":14860:14932   */\n      tag_102\n      jump\t// in\n    tag_270:\n        /* \"#utility.yul\":14942:15014   */\n      tag_271\n        /* \"#utility.yul\":15010:15012   */\n      0x60\n        /* \"#utility.yul\":14999:15008   */\n      dup4\n        /* \"#utility.yul\":14995:15013   */\n      add\n        /* \"#utility.yul\":14986:14992   */\n      dup7\n        /* \"#utility.yul\":14942:15014   */\n      tag_102\n      jump\t// in\n    tag_271:\n        /* \"#utility.yul\":15024:15097   */\n      tag_272\n        /* \"#utility.yul\":15092:15095   */\n      0x80\n        /* \"#utility.yul\":15081:15090   */\n      dup4\n        /* \"#utility.yul\":15077:15096   */\n      add\n        /* \"#utility.yul\":15068:15074   */\n      dup6\n        /* \"#utility.yul\":15024:15097   */\n      tag_94\n      jump\t// in\n    tag_272:\n        /* \"#utility.yul\":15107:15180   */\n      tag_273\n        /* \"#utility.yul\":15175:15178   */\n      0xa0\n        /* \"#utility.yul\":15164:15173   */\n      dup4\n        /* \"#utility.yul\":15160:15179   */\n      add\n        /* \"#utility.yul\":15151:15157   */\n      dup5\n        /* \"#utility.yul\":15107:15180   */\n      tag_102\n      jump\t// in\n    tag_273:\n        /* \"#utility.yul\":14412:15187   */\n      swap8\n      swap7\n      pop\n      pop\n      pop\n      pop\n      pop\n      pop\n      pop\n      jump\t// out\n        /* \"#utility.yul\":15193:15856   */\n    tag_74:\n        /* \"#utility.yul\":15281:15287   */\n      0x00\n        /* \"#utility.yul\":15289:15295   */\n      dup1\n        /* \"#utility.yul\":15297:15303   */\n      0x00\n        /* \"#utility.yul\":15346:15348   */\n      0x60\n        /* \"#utility.yul\":15334:15343   */\n      dup5\n        /* \"#utility.yul\":15325:15332   */\n      dup7\n        /* \"#utility.yul\":15321:15344   */\n      sub\n        /* \"#utility.yul\":15317:15349   */\n      slt\n        /* \"#utility.yul\":15314:15433   */\n      iszero\n      tag_275\n      jumpi\n        /* \"#utility.yul\":15352:15431   */\n      tag_276\n      tag_85\n      jump\t// in\n    tag_276:\n        /* \"#utility.yul\":15314:15433   */\n    tag_275:\n        /* \"#utility.yul\":15472:15473   */\n      0x00\n        /* \"#utility.yul\":15497:15561   */\n      tag_277\n        /* \"#utility.yul\":15553:15560   */\n      dup7\n        /* \"#utility.yul\":15544:15550   */\n      dup3\n        /* \"#utility.yul\":15533:15542   */\n      dup8\n        /* \"#utility.yul\":15529:15551   */\n      add\n        /* \"#utility.yul\":15497:15561   */\n      tag_100\n      jump\t// in\n    tag_277:\n        /* \"#utility.yul\":15487:15561   */\n      swap4\n      pop\n        /* \"#utility.yul\":15443:15571   */\n      pop\n        /* \"#utility.yul\":15610:15612   */\n      0x20\n        /* \"#utility.yul\":15636:15700   */\n      tag_278\n        /* \"#utility.yul\":15692:15699   */\n      dup7\n        /* \"#utility.yul\":15683:15689   */\n      dup3\n        /* \"#utility.yul\":15672:15681   */\n      dup8\n        /* \"#utility.yul\":15668:15690   */\n      add\n        /* \"#utility.yul\":15636:15700   */\n      tag_100\n      jump\t// in\n    tag_278:\n        /* \"#utility.yul\":15626:15700   */\n      swap3\n      pop\n        /* \"#utility.yul\":15581:15710   */\n      pop\n        /* \"#utility.yul\":15749:15751   */\n      0x40\n        /* \"#utility.yul\":15775:15839   */\n      tag_279\n        /* \"#utility.yul\":15831:15838   */\n      dup7\n        /* \"#utility.yul\":15822:15828   */\n      dup3\n        /* \"#utility.yul\":15811:15820   */\n      dup8\n        /* \"#utility.yul\":15807:15829   */\n      add\n        /* \"#utility.yul\":15775:15839   */\n      tag_100\n      jump\t// in\n    tag_279:\n        /* \"#utility.yul\":15765:15839   */\n      swap2\n      pop\n        /* \"#utility.yul\":15720:15849   */\n      pop\n        /* \"#utility.yul\":15193:15856   */\n      swap3\n      pop\n      swap3\n      pop\n      swap3\n      jump\t// out\n\n    auxdata: 0xa2646970667358221220e47b4e5128021e20457be49d8d0f9c37a549e1cdb18ada8136ca5fe8f770ef9764736f6c634300080d0033\n}\n",
				"bytecode": {
					"linkReferences": {},
					"object": "6080604052737a250d5630b4cf539739df2c5dacb4c659f2488d6000806101000a81548173ffffffffffffffffffffffffffffffffffffffff021916908373ffffffffffffffffffffffffffffffffffffffff16021790555073c778417e063141139fce010982780140aa0cd5ab600160006101000a81548173ffffffffffffffffffffffffffffffffffffffff021916908373ffffffffffffffffffffffffffffffffffffffff16021790555073549f978c19a5ac86d906052639e317b57724ef44600260006101000a81548173ffffffffffffffffffffffffffffffffffffffff021916908373ffffffffffffffffffffffffffffffffffffffff16021790555073f42a08c0ea66ee4a474336087a6c17e9ea6c9de9600360006101000a81548173ffffffffffffffffffffffffffffffffffffffff021916908373ffffffffffffffffffffffffffffffffffffffff16021790555073d9dfa8c6b37cfdf16668fe0465896f4a1b9b2c4f600460006101000a81548173ffffffffffffffffffffffffffffffffffffffff021916908373ffffffffffffffffffffffffffffffffffffffff16021790555060008054906101000a900473ffffffffffffffffffffffffffffffffffffffff16600560006101000a81548173ffffffffffffffffffffffffffffffffffffffff021916908373ffffffffffffffffffffffffffffffffffffffff160217905550600260009054906101000a900473ffffffffffffffffffffffffffffffffffffffff16600660006101000a81548173ffffffffffffffffffffffffffffffffffffffff021916908373ffffffffffffffffffffffffffffffffffffffff160217905550600460009054906101000a900473ffffffffffffffffffffffffffffffffffffffff16600760006101000a81548173ffffffffffffffffffffffffffffffffffffffff021916908373ffffffffffffffffffffffffffffffffffffffff1602179055503480156102df57600080fd5b50610ffd806102ef6000396000f3fe60806040526004361061003f5760003560e01c80632e1a7d4d14610044578063a93f74e01461006d578063aebf3e4114610089578063fc55d2bf146100a5575b600080fd5b34801561005057600080fd5b5061006b60048036038101906100669190610826565b6100ce565b005b61008760048036038101906100829190610826565b610204565b005b6100a3600480360381019061009e9190610853565b6103e3565b005b3480156100b157600080fd5b506100cc60048036038101906100c79190610918565b6106a7565b005b6000600760009054906101000a900473ffffffffffffffffffffffffffffffffffffffff1673ffffffffffffffffffffffffffffffffffffffff16631959a002336040518263ffffffff1660e01b815260040161012b919061097a565b6040805180830381865afa158015610147573d6000803e3d6000fd5b505050506040513d601f19601f8201168201806040525081019061016b9190610a8b565b9050600760009054906101000a900473ffffffffffffffffffffffffffffffffffffffff1673ffffffffffffffffffffffffffffffffffffffff1663441a3e708383600001516040518363ffffffff1660e01b81526004016101ce929190610ac7565b600060405180830381600087803b1580156101e857600080fd5b505af11580156101fc573d6000803e3d6000fd5b505050505050565b6000600267ffffffffffffffff811115610221576102206109ab565b5b60405190808252806020026020018201604052801561024f5781602001602082028036833780820191505090505b509050600160009054906101000a900473ffffffffffffffffffffffffffffffffffffffff168160008151811061028957610288610af0565b5b602002602001019073ffffffffffffffffffffffffffffffffffffffff16908173ffffffffffffffffffffffffffffffffffffffff1681525050600260009054906101000a900473ffffffffffffffffffffffffffffffffffffffff16816001815181106102fa576102f9610af0565b5b602002602001019073ffffffffffffffffffffffffffffffffffffffff16908173ffffffffffffffffffffffffffffffffffffffff1681525050600560009054906101000a900473ffffffffffffffffffffffffffffffffffffffff1673ffffffffffffffffffffffffffffffffffffffff16637ff36ab534848433426040518663ffffffff1660e01b81526004016103969493929190610bdd565b60006040518083038185885af11580156103b4573d6000803e3d6000fd5b50505050506040513d6000823e3d601f19601f820116820180604052508101906103de9190610cf6565b505050565b600660009054906101000a900473ffffffffffffffffffffffffffffffffffffffff1673ffffffffffffffffffffffffffffffffffffffff1663095ea7b3600560009054906101000a900473ffffffffffffffffffffffffffffffffffffffff16866040518363ffffffff1660e01b8152600401610462929190610d3f565b6020604051808303816000875af1158015610481573d6000803e3d6000fd5b505050506040513d601f19601f820116820180604052508101906104a59190610da0565b506000600660009054906101000a900473ffffffffffffffffffffffffffffffffffffffff1673ffffffffffffffffffffffffffffffffffffffff166323b872dd3330886040518463ffffffff1660e01b815260040161050793929190610dcd565b6020604051808303816000875af1158015610526573d6000803e3d6000fd5b505050506040513d601f19601f8201168201806040525081019061054a9190610da0565b90508061058c576040517f08c379a000000000000000000000000000000000000000000000000000000000815260040161058390610e61565b60405180910390fd5b8234116105ce576040517f08c379a00000000000000000000000000000000000000000000000000000000081526004016105c590610ef3565b60405180910390fd5b6000600560009054906101000a900473ffffffffffffffffffffffffffffffffffffffff1673ffffffffffffffffffffffffffffffffffffffff1663f305d71934600260009054906101000a900473ffffffffffffffffffffffffffffffffffffffff1689898933426040518863ffffffff1660e01b815260040161065896959493929190610f13565b60606040518083038185885af1158015610676573d6000803e3d6000fd5b50505050506040513d601f19601f8201168201806040525081019061069b9190610f74565b50509050505050505050565b8273ffffffffffffffffffffffffffffffffffffffff1663095ea7b3600460009054906101000a900473ffffffffffffffffffffffffffffffffffffffff16836040518363ffffffff1660e01b8152600401610704929190610d3f565b6020604051808303816000875af1158015610723573d6000803e3d6000fd5b505050506040513d601f19601f820116820180604052508101906107479190610da0565b50600760009054906101000a900473ffffffffffffffffffffffffffffffffffffffff1673ffffffffffffffffffffffffffffffffffffffff1663e2bbb15883836040518363ffffffff1660e01b81526004016107a5929190610ac7565b600060405180830381600087803b1580156107bf57600080fd5b505af11580156107d3573d6000803e3d6000fd5b50505050505050565b6000604051905090565b600080fd5b600080fd5b6000819050919050565b610803816107f0565b811461080e57600080fd5b50565b600081359050610820816107fa565b92915050565b60006020828403121561083c5761083b6107e6565b5b600061084a84828501610811565b91505092915050565b6000806000806080858703121561086d5761086c6107e6565b5b600061087b87828801610811565b945050602061088c87828801610811565b935050604061089d87828801610811565b92505060606108ae87828801610811565b91505092959194509250565b600073ffffffffffffffffffffffffffffffffffffffff82169050919050565b60006108e5826108ba565b9050919050565b6108f5816108da565b811461090057600080fd5b50565b600081359050610912816108ec565b92915050565b600080600060608486031215610931576109306107e6565b5b600061093f86828701610903565b935050602061095086828701610811565b925050604061096186828701610811565b9150509250925092565b610974816108da565b82525050565b600060208201905061098f600083018461096b565b92915050565b600080fd5b6000601f19601f8301169050919050565b7f4e487b7100000000000000000000000000000000000000000000000000000000600052604160045260246000fd5b6109e38261099a565b810181811067ffffffffffffffff82111715610a0257610a016109ab565b5b80604052505050565b6000610a156107dc565b9050610a2182826109da565b919050565b600081519050610a35816107fa565b92915050565b600060408284031215610a5157610a50610995565b5b610a5b6040610a0b565b90506000610a6b84828501610a26565b6000830152506020610a7f84828501610a26565b60208301525092915050565b600060408284031215610aa157610aa06107e6565b5b6000610aaf84828501610a3b565b91505092915050565b610ac1816107f0565b82525050565b6000604082019050610adc6000830185610ab8565b610ae96020830184610ab8565b9392505050565b7f4e487b7100000000000000000000000000000000000000000000000000000000600052603260045260246000fd5b600081519050919050565b600082825260208201905092915050565b6000819050602082019050919050565b610b54816108da565b82525050565b6000610b668383610b4b565b60208301905092915050565b6000602082019050919050565b6000610b8a82610b1f565b610b948185610b2a565b9350610b9f83610b3b565b8060005b83811015610bd0578151610bb78882610b5a565b9750610bc283610b72565b925050600181019050610ba3565b5085935050505092915050565b6000608082019050610bf26000830187610ab8565b8181036020830152610c048186610b7f565b9050610c13604083018561096b565b610c206060830184610ab8565b95945050505050565b600080fd5b600067ffffffffffffffff821115610c4957610c486109ab565b5b602082029050602081019050919050565b600080fd5b6000610c72610c6d84610c2e565b610a0b565b90508083825260208201905060208402830185811115610c9557610c94610c5a565b5b835b81811015610cbe5780610caa8882610a26565b845260208401935050602081019050610c97565b5050509392505050565b600082601f830112610cdd57610cdc610c29565b5b8151610ced848260208601610c5f565b91505092915050565b600060208284031215610d0c57610d0b6107e6565b5b600082015167ffffffffffffffff811115610d2a57610d296107eb565b5b610d3684828501610cc8565b91505092915050565b6000604082019050610d54600083018561096b565b610d616020830184610ab8565b9392505050565b60008115159050919050565b610d7d81610d68565b8114610d8857600080fd5b50565b600081519050610d9a81610d74565b92915050565b600060208284031215610db657610db56107e6565b5b6000610dc484828501610d8b565b91505092915050565b6000606082019050610de2600083018661096b565b610def602083018561096b565b610dfc6040830184610ab8565b949350505050565b600082825260208201905092915050565b7f6d746f6b656e207472616e73666572206572726f722100000000000000000000600082015250565b6000610e4b601683610e04565b9150610e5682610e15565b602082019050919050565b60006020820190508181036000830152610e7a81610e3e565b9050919050565b7f6d73672e76616c75652073686f756c642062696767676572207468616e20616d60008201527f6f756e744554484d696e00000000000000000000000000000000000000000000602082015250565b6000610edd602a83610e04565b9150610ee882610e81565b604082019050919050565b60006020820190508181036000830152610f0c81610ed0565b9050919050565b600060c082019050610f28600083018961096b565b610f356020830188610ab8565b610f426040830187610ab8565b610f4f6060830186610ab8565b610f5c608083018561096b565b610f6960a0830184610ab8565b979650505050505050565b600080600060608486031215610f8d57610f8c6107e6565b5b6000610f9b86828701610a26565b9350506020610fac86828701610a26565b9250506040610fbd86828701610a26565b915050925092509256fea2646970667358221220e47b4e5128021e20457be49d8d0f9c37a549e1cdb18ada8136ca5fe8f770ef9764736f6c634300080d0033",
					"opcodes": "PUSH1 0x80 PUSH1 0x40 MSTORE PUSH20 0x7A250D5630B4CF539739DF2C5DACB4C659F2488D PUSH1 0x0 DUP1 PUSH2 0x100 EXP DUP2 SLOAD DUP2 PUSH20 0xFFFFFFFFFFFFFFFFFFFFFFFFFFFFFFFFFFFFFFFF MUL NOT AND SWAP1 DUP4 PUSH20 0xFFFFFFFFFFFFFFFFFFFFFFFFFFFFFFFFFFFFFFFF AND MUL OR SWAP1 SSTORE POP PUSH20 0xC778417E063141139FCE010982780140AA0CD5AB PUSH1 0x1 PUSH1 0x0 PUSH2 0x100 EXP DUP2 SLOAD DUP2 PUSH20 0xFFFFFFFFFFFFFFFFFFFFFFFFFFFFFFFFFFFFFFFF MUL NOT AND SWAP1 DUP4 PUSH20 0xFFFFFFFFFFFFFFFFFFFFFFFFFFFFFFFFFFFFFFFF AND MUL OR SWAP1 SSTORE POP PUSH20 0x549F978C19A5AC86D906052639E317B57724EF44 PUSH1 0x2 PUSH1 0x0 PUSH2 0x100 EXP DUP2 SLOAD DUP2 PUSH20 0xFFFFFFFFFFFFFFFFFFFFFFFFFFFFFFFFFFFFFFFF MUL NOT AND SWAP1 DUP4 PUSH20 0xFFFFFFFFFFFFFFFFFFFFFFFFFFFFFFFFFFFFFFFF AND MUL OR SWAP1 SSTORE POP PUSH20 0xF42A08C0EA66EE4A474336087A6C17E9EA6C9DE9 PUSH1 0x3 PUSH1 0x0 PUSH2 0x100 EXP DUP2 SLOAD DUP2 PUSH20 0xFFFFFFFFFFFFFFFFFFFFFFFFFFFFFFFFFFFFFFFF MUL NOT AND SWAP1 DUP4 PUSH20 0xFFFFFFFFFFFFFFFFFFFFFFFFFFFFFFFFFFFFFFFF AND MUL OR SWAP1 SSTORE POP PUSH20 0xD9DFA8C6B37CFDF16668FE0465896F4A1B9B2C4F PUSH1 0x4 PUSH1 0x0 PUSH2 0x100 EXP DUP2 SLOAD DUP2 PUSH20 0xFFFFFFFFFFFFFFFFFFFFFFFFFFFFFFFFFFFFFFFF MUL NOT AND SWAP1 DUP4 PUSH20 0xFFFFFFFFFFFFFFFFFFFFFFFFFFFFFFFFFFFFFFFF AND MUL OR SWAP1 SSTORE POP PUSH1 0x0 DUP1 SLOAD SWAP1 PUSH2 0x100 EXP SWAP1 DIV PUSH20 0xFFFFFFFFFFFFFFFFFFFFFFFFFFFFFFFFFFFFFFFF AND PUSH1 0x5 PUSH1 0x0 PUSH2 0x100 EXP DUP2 SLOAD DUP2 PUSH20 0xFFFFFFFFFFFFFFFFFFFFFFFFFFFFFFFFFFFFFFFF MUL NOT AND SWAP1 DUP4 PUSH20 0xFFFFFFFFFFFFFFFFFFFFFFFFFFFFFFFFFFFFFFFF AND MUL OR SWAP1 SSTORE POP PUSH1 0x2 PUSH1 0x0 SWAP1 SLOAD SWAP1 PUSH2 0x100 EXP SWAP1 DIV PUSH20 0xFFFFFFFFFFFFFFFFFFFFFFFFFFFFFFFFFFFFFFFF AND PUSH1 0x6 PUSH1 0x0 PUSH2 0x100 EXP DUP2 SLOAD DUP2 PUSH20 0xFFFFFFFFFFFFFFFFFFFFFFFFFFFFFFFFFFFFFFFF MUL NOT AND SWAP1 DUP4 PUSH20 0xFFFFFFFFFFFFFFFFFFFFFFFFFFFFFFFFFFFFFFFF AND MUL OR SWAP1 SSTORE POP PUSH1 0x4 PUSH1 0x0 SWAP1 SLOAD SWAP1 PUSH2 0x100 EXP SWAP1 DIV PUSH20 0xFFFFFFFFFFFFFFFFFFFFFFFFFFFFFFFFFFFFFFFF AND PUSH1 0x7 PUSH1 0x0 PUSH2 0x100 EXP DUP2 SLOAD DUP2 PUSH20 0xFFFFFFFFFFFFFFFFFFFFFFFFFFFFFFFFFFFFFFFF MUL NOT AND SWAP1 DUP4 PUSH20 0xFFFFFFFFFFFFFFFFFFFFFFFFFFFFFFFFFFFFFFFF AND MUL OR SWAP1 SSTORE POP CALLVALUE DUP1 ISZERO PUSH2 0x2DF JUMPI PUSH1 0x0 DUP1 REVERT JUMPDEST POP PUSH2 0xFFD DUP1 PUSH2 0x2EF PUSH1 0x0 CODECOPY PUSH1 0x0 RETURN INVALID PUSH1 0x80 PUSH1 0x40 MSTORE PUSH1 0x4 CALLDATASIZE LT PUSH2 0x3F JUMPI PUSH1 0x0 CALLDATALOAD PUSH1 0xE0 SHR DUP1 PUSH4 0x2E1A7D4D EQ PUSH2 0x44 JUMPI DUP1 PUSH4 0xA93F74E0 EQ PUSH2 0x6D JUMPI DUP1 PUSH4 0xAEBF3E41 EQ PUSH2 0x89 JUMPI DUP1 PUSH4 0xFC55D2BF EQ PUSH2 0xA5 JUMPI JUMPDEST PUSH1 0x0 DUP1 REVERT JUMPDEST CALLVALUE DUP1 ISZERO PUSH2 0x50 JUMPI PUSH1 0x0 DUP1 REVERT JUMPDEST POP PUSH2 0x6B PUSH1 0x4 DUP1 CALLDATASIZE SUB DUP2 ADD SWAP1 PUSH2 0x66 SWAP2 SWAP1 PUSH2 0x826 JUMP JUMPDEST PUSH2 0xCE JUMP JUMPDEST STOP JUMPDEST PUSH2 0x87 PUSH1 0x4 DUP1 CALLDATASIZE SUB DUP2 ADD SWAP1 PUSH2 0x82 SWAP2 SWAP1 PUSH2 0x826 JUMP JUMPDEST PUSH2 0x204 JUMP JUMPDEST STOP JUMPDEST PUSH2 0xA3 PUSH1 0x4 DUP1 CALLDATASIZE SUB DUP2 ADD SWAP1 PUSH2 0x9E SWAP2 SWAP1 PUSH2 0x853 JUMP JUMPDEST PUSH2 0x3E3 JUMP JUMPDEST STOP JUMPDEST CALLVALUE DUP1 ISZERO PUSH2 0xB1 JUMPI PUSH1 0x0 DUP1 REVERT JUMPDEST POP PUSH2 0xCC PUSH1 0x4 DUP1 CALLDATASIZE SUB DUP2 ADD SWAP1 PUSH2 0xC7 SWAP2 SWAP1 PUSH2 0x918 JUMP JUMPDEST PUSH2 0x6A7 JUMP JUMPDEST STOP JUMPDEST PUSH1 0x0 PUSH1 0x7 PUSH1 0x0 SWAP1 SLOAD SWAP1 PUSH2 0x100 EXP SWAP1 DIV PUSH20 0xFFFFFFFFFFFFFFFFFFFFFFFFFFFFFFFFFFFFFFFF AND PUSH20 0xFFFFFFFFFFFFFFFFFFFFFFFFFFFFFFFFFFFFFFFF AND PUSH4 0x1959A002 CALLER PUSH1 0x40 MLOAD DUP3 PUSH4 0xFFFFFFFF AND PUSH1 0xE0 SHL DUP2 MSTORE PUSH1 0x4 ADD PUSH2 0x12B SWAP2 SWAP1 PUSH2 0x97A JUMP JUMPDEST PUSH1 0x40 DUP1 MLOAD DUP1 DUP4 SUB DUP2 DUP7 GAS STATICCALL ISZERO DUP1 ISZERO PUSH2 0x147 JUMPI RETURNDATASIZE PUSH1 0x0 DUP1 RETURNDATACOPY RETURNDATASIZE PUSH1 0x0 REVERT JUMPDEST POP POP POP POP PUSH1 0x40 MLOAD RETURNDATASIZE PUSH1 0x1F NOT PUSH1 0x1F DUP3 ADD AND DUP3 ADD DUP1 PUSH1 0x40 MSTORE POP DUP2 ADD SWAP1 PUSH2 0x16B SWAP2 SWAP1 PUSH2 0xA8B JUMP JUMPDEST SWAP1 POP PUSH1 0x7 PUSH1 0x0 SWAP1 SLOAD SWAP1 PUSH2 0x100 EXP SWAP1 DIV PUSH20 0xFFFFFFFFFFFFFFFFFFFFFFFFFFFFFFFFFFFFFFFF AND PUSH20 0xFFFFFFFFFFFFFFFFFFFFFFFFFFFFFFFFFFFFFFFF AND PUSH4 0x441A3E70 DUP4 DUP4 PUSH1 0x0 ADD MLOAD PUSH1 0x40 MLOAD DUP4 PUSH4 0xFFFFFFFF AND PUSH1 0xE0 SHL DUP2 MSTORE PUSH1 0x4 ADD PUSH2 0x1CE SWAP3 SWAP2 SWAP1 PUSH2 0xAC7 JUMP JUMPDEST PUSH1 0x0 PUSH1 0x40 MLOAD DUP1 DUP4 SUB DUP2 PUSH1 0x0 DUP8 DUP1 EXTCODESIZE ISZERO DUP1 ISZERO PUSH2 0x1E8 JUMPI PUSH1 0x0 DUP1 REVERT JUMPDEST POP GAS CALL ISZERO DUP1 ISZERO PUSH2 0x1FC JUMPI RETURNDATASIZE PUSH1 0x0 DUP1 RETURNDATACOPY RETURNDATASIZE PUSH1 0x0 REVERT JUMPDEST POP POP POP POP POP POP JUMP JUMPDEST PUSH1 0x0 PUSH1 0x2 PUSH8 0xFFFFFFFFFFFFFFFF DUP2 GT ISZERO PUSH2 0x221 JUMPI PUSH2 0x220 PUSH2 0x9AB JUMP JUMPDEST JUMPDEST PUSH1 0x40 MLOAD SWAP1 DUP1 DUP3 MSTORE DUP1 PUSH1 0x20 MUL PUSH1 0x20 ADD DUP3 ADD PUSH1 0x40 MSTORE DUP1 ISZERO PUSH2 0x24F JUMPI DUP2 PUSH1 0x20 ADD PUSH1 0x20 DUP3 MUL DUP1 CALLDATASIZE DUP4 CALLDATACOPY DUP1 DUP3 ADD SWAP2 POP POP SWAP1 POP JUMPDEST POP SWAP1 POP PUSH1 0x1 PUSH1 0x0 SWAP1 SLOAD SWAP1 PUSH2 0x100 EXP SWAP1 DIV PUSH20 0xFFFFFFFFFFFFFFFFFFFFFFFFFFFFFFFFFFFFFFFF AND DUP2 PUSH1 0x0 DUP2 MLOAD DUP2 LT PUSH2 0x289 JUMPI PUSH2 0x288 PUSH2 0xAF0 JUMP JUMPDEST JUMPDEST PUSH1 0x20 MUL PUSH1 0x20 ADD ADD SWAP1 PUSH20 0xFFFFFFFFFFFFFFFFFFFFFFFFFFFFFFFFFFFFFFFF AND SWAP1 DUP2 PUSH20 0xFFFFFFFFFFFFFFFFFFFFFFFFFFFFFFFFFFFFFFFF AND DUP2 MSTORE POP POP PUSH1 0x2 PUSH1 0x0 SWAP1 SLOAD SWAP1 PUSH2 0x100 EXP SWAP1 DIV PUSH20 0xFFFFFFFFFFFFFFFFFFFFFFFFFFFFFFFFFFFFFFFF AND DUP2 PUSH1 0x1 DUP2 MLOAD DUP2 LT PUSH2 0x2FA JUMPI PUSH2 0x2F9 PUSH2 0xAF0 JUMP JUMPDEST JUMPDEST PUSH1 0x20 MUL PUSH1 0x20 ADD ADD SWAP1 PUSH20 0xFFFFFFFFFFFFFFFFFFFFFFFFFFFFFFFFFFFFFFFF AND SWAP1 DUP2 PUSH20 0xFFFFFFFFFFFFFFFFFFFFFFFFFFFFFFFFFFFFFFFF AND DUP2 MSTORE POP POP PUSH1 0x5 PUSH1 0x0 SWAP1 SLOAD SWAP1 PUSH2 0x100 EXP SWAP1 DIV PUSH20 0xFFFFFFFFFFFFFFFFFFFFFFFFFFFFFFFFFFFFFFFF AND PUSH20 0xFFFFFFFFFFFFFFFFFFFFFFFFFFFFFFFFFFFFFFFF AND PUSH4 0x7FF36AB5 CALLVALUE DUP5 DUP5 CALLER TIMESTAMP PUSH1 0x40 MLOAD DUP7 PUSH4 0xFFFFFFFF AND PUSH1 0xE0 SHL DUP2 MSTORE PUSH1 0x4 ADD PUSH2 0x396 SWAP5 SWAP4 SWAP3 SWAP2 SWAP1 PUSH2 0xBDD JUMP JUMPDEST PUSH1 0x0 PUSH1 0x40 MLOAD DUP1 DUP4 SUB DUP2 DUP6 DUP9 GAS CALL ISZERO DUP1 ISZERO PUSH2 0x3B4 JUMPI RETURNDATASIZE PUSH1 0x0 DUP1 RETURNDATACOPY RETURNDATASIZE PUSH1 0x0 REVERT JUMPDEST POP POP POP POP POP PUSH1 0x40 MLOAD RETURNDATASIZE PUSH1 0x0 DUP3 RETURNDATACOPY RETURNDATASIZE PUSH1 0x1F NOT PUSH1 0x1F DUP3 ADD AND DUP3 ADD DUP1 PUSH1 0x40 MSTORE POP DUP2 ADD SWAP1 PUSH2 0x3DE SWAP2 SWAP1 PUSH2 0xCF6 JUMP JUMPDEST POP POP POP JUMP JUMPDEST PUSH1 0x6 PUSH1 0x0 SWAP1 SLOAD SWAP1 PUSH2 0x100 EXP SWAP1 DIV PUSH20 0xFFFFFFFFFFFFFFFFFFFFFFFFFFFFFFFFFFFFFFFF AND PUSH20 0xFFFFFFFFFFFFFFFFFFFFFFFFFFFFFFFFFFFFFFFF AND PUSH4 0x95EA7B3 PUSH1 0x5 PUSH1 0x0 SWAP1 SLOAD SWAP1 PUSH2 0x100 EXP SWAP1 DIV PUSH20 0xFFFFFFFFFFFFFFFFFFFFFFFFFFFFFFFFFFFFFFFF AND DUP7 PUSH1 0x40 MLOAD DUP4 PUSH4 0xFFFFFFFF AND PUSH1 0xE0 SHL DUP2 MSTORE PUSH1 0x4 ADD PUSH2 0x462 SWAP3 SWAP2 SWAP1 PUSH2 0xD3F JUMP JUMPDEST PUSH1 0x20 PUSH1 0x40 MLOAD DUP1 DUP4 SUB DUP2 PUSH1 0x0 DUP8 GAS CALL ISZERO DUP1 ISZERO PUSH2 0x481 JUMPI RETURNDATASIZE PUSH1 0x0 DUP1 RETURNDATACOPY RETURNDATASIZE PUSH1 0x0 REVERT JUMPDEST POP POP POP POP PUSH1 0x40 MLOAD RETURNDATASIZE PUSH1 0x1F NOT PUSH1 0x1F DUP3 ADD AND DUP3 ADD DUP1 PUSH1 0x40 MSTORE POP DUP2 ADD SWAP1 PUSH2 0x4A5 SWAP2 SWAP1 PUSH2 0xDA0 JUMP JUMPDEST POP PUSH1 0x0 PUSH1 0x6 PUSH1 0x0 SWAP1 SLOAD SWAP1 PUSH2 0x100 EXP SWAP1 DIV PUSH20 0xFFFFFFFFFFFFFFFFFFFFFFFFFFFFFFFFFFFFFFFF AND PUSH20 0xFFFFFFFFFFFFFFFFFFFFFFFFFFFFFFFFFFFFFFFF AND PUSH4 0x23B872DD CALLER ADDRESS DUP9 PUSH1 0x40 MLOAD DUP5 PUSH4 0xFFFFFFFF AND PUSH1 0xE0 SHL DUP2 MSTORE PUSH1 0x4 ADD PUSH2 0x507 SWAP4 SWAP3 SWAP2 SWAP1 PUSH2 0xDCD JUMP JUMPDEST PUSH1 0x20 PUSH1 0x40 MLOAD DUP1 DUP4 SUB DUP2 PUSH1 0x0 DUP8 GAS CALL ISZERO DUP1 ISZERO PUSH2 0x526 JUMPI RETURNDATASIZE PUSH1 0x0 DUP1 RETURNDATACOPY RETURNDATASIZE PUSH1 0x0 REVERT JUMPDEST POP POP POP POP PUSH1 0x40 MLOAD RETURNDATASIZE PUSH1 0x1F NOT PUSH1 0x1F DUP3 ADD AND DUP3 ADD DUP1 PUSH1 0x40 MSTORE POP DUP2 ADD SWAP1 PUSH2 0x54A SWAP2 SWAP1 PUSH2 0xDA0 JUMP JUMPDEST SWAP1 POP DUP1 PUSH2 0x58C JUMPI PUSH1 0x40 MLOAD PUSH32 0x8C379A000000000000000000000000000000000000000000000000000000000 DUP2 MSTORE PUSH1 0x4 ADD PUSH2 0x583 SWAP1 PUSH2 0xE61 JUMP JUMPDEST PUSH1 0x40 MLOAD DUP1 SWAP2 SUB SWAP1 REVERT JUMPDEST DUP3 CALLVALUE GT PUSH2 0x5CE JUMPI PUSH1 0x40 MLOAD PUSH32 0x8C379A000000000000000000000000000000000000000000000000000000000 DUP2 MSTORE PUSH1 0x4 ADD PUSH2 0x5C5 SWAP1 PUSH2 0xEF3 JUMP JUMPDEST PUSH1 0x40 MLOAD DUP1 SWAP2 SUB SWAP1 REVERT JUMPDEST PUSH1 0x0 PUSH1 0x5 PUSH1 0x0 SWAP1 SLOAD SWAP1 PUSH2 0x100 EXP SWAP1 DIV PUSH20 0xFFFFFFFFFFFFFFFFFFFFFFFFFFFFFFFFFFFFFFFF AND PUSH20 0xFFFFFFFFFFFFFFFFFFFFFFFFFFFFFFFFFFFFFFFF AND PUSH4 0xF305D719 CALLVALUE PUSH1 0x2 PUSH1 0x0 SWAP1 SLOAD SWAP1 PUSH2 0x100 EXP SWAP1 DIV PUSH20 0xFFFFFFFFFFFFFFFFFFFFFFFFFFFFFFFFFFFFFFFF AND DUP10 DUP10 DUP10 CALLER TIMESTAMP PUSH1 0x40 MLOAD DUP9 PUSH4 0xFFFFFFFF AND PUSH1 0xE0 SHL DUP2 MSTORE PUSH1 0x4 ADD PUSH2 0x658 SWAP7 SWAP6 SWAP5 SWAP4 SWAP3 SWAP2 SWAP1 PUSH2 0xF13 JUMP JUMPDEST PUSH1 0x60 PUSH1 0x40 MLOAD DUP1 DUP4 SUB DUP2 DUP6 DUP9 GAS CALL ISZERO DUP1 ISZERO PUSH2 0x676 JUMPI RETURNDATASIZE PUSH1 0x0 DUP1 RETURNDATACOPY RETURNDATASIZE PUSH1 0x0 REVERT JUMPDEST POP POP POP POP POP PUSH1 0x40 MLOAD RETURNDATASIZE PUSH1 0x1F NOT PUSH1 0x1F DUP3 ADD AND DUP3 ADD DUP1 PUSH1 0x40 MSTORE POP DUP2 ADD SWAP1 PUSH2 0x69B SWAP2 SWAP1 PUSH2 0xF74 JUMP JUMPDEST POP POP SWAP1 POP POP POP POP POP POP POP JUMP JUMPDEST DUP3 PUSH20 0xFFFFFFFFFFFFFFFFFFFFFFFFFFFFFFFFFFFFFFFF AND PUSH4 0x95EA7B3 PUSH1 0x4 PUSH1 0x0 SWAP1 SLOAD SWAP1 PUSH2 0x100 EXP SWAP1 DIV PUSH20 0xFFFFFFFFFFFFFFFFFFFFFFFFFFFFFFFFFFFFFFFF AND DUP4 PUSH1 0x40 MLOAD DUP4 PUSH4 0xFFFFFFFF AND PUSH1 0xE0 SHL DUP2 MSTORE PUSH1 0x4 ADD PUSH2 0x704 SWAP3 SWAP2 SWAP1 PUSH2 0xD3F JUMP JUMPDEST PUSH1 0x20 PUSH1 0x40 MLOAD DUP1 DUP4 SUB DUP2 PUSH1 0x0 DUP8 GAS CALL ISZERO DUP1 ISZERO PUSH2 0x723 JUMPI RETURNDATASIZE PUSH1 0x0 DUP1 RETURNDATACOPY RETURNDATASIZE PUSH1 0x0 REVERT JUMPDEST POP POP POP POP PUSH1 0x40 MLOAD RETURNDATASIZE PUSH1 0x1F NOT PUSH1 0x1F DUP3 ADD AND DUP3 ADD DUP1 PUSH1 0x40 MSTORE POP DUP2 ADD SWAP1 PUSH2 0x747 SWAP2 SWAP1 PUSH2 0xDA0 JUMP JUMPDEST POP PUSH1 0x7 PUSH1 0x0 SWAP1 SLOAD SWAP1 PUSH2 0x100 EXP SWAP1 DIV PUSH20 0xFFFFFFFFFFFFFFFFFFFFFFFFFFFFFFFFFFFFFFFF AND PUSH20 0xFFFFFFFFFFFFFFFFFFFFFFFFFFFFFFFFFFFFFFFF AND PUSH4 0xE2BBB158 DUP4 DUP4 PUSH1 0x40 MLOAD DUP4 PUSH4 0xFFFFFFFF AND PUSH1 0xE0 SHL DUP2 MSTORE PUSH1 0x4 ADD PUSH2 0x7A5 SWAP3 SWAP2 SWAP1 PUSH2 0xAC7 JUMP JUMPDEST PUSH1 0x0 PUSH1 0x40 MLOAD DUP1 DUP4 SUB DUP2 PUSH1 0x0 DUP8 DUP1 EXTCODESIZE ISZERO DUP1 ISZERO PUSH2 0x7BF JUMPI PUSH1 0x0 DUP1 REVERT JUMPDEST POP GAS CALL ISZERO DUP1 ISZERO PUSH2 0x7D3 JUMPI RETURNDATASIZE PUSH1 0x0 DUP1 RETURNDATACOPY RETURNDATASIZE PUSH1 0x0 REVERT JUMPDEST POP POP POP POP POP POP POP JUMP JUMPDEST PUSH1 0x0 PUSH1 0x40 MLOAD SWAP1 POP SWAP1 JUMP JUMPDEST PUSH1 0x0 DUP1 REVERT JUMPDEST PUSH1 0x0 DUP1 REVERT JUMPDEST PUSH1 0x0 DUP2 SWAP1 POP SWAP2 SWAP1 POP JUMP JUMPDEST PUSH2 0x803 DUP2 PUSH2 0x7F0 JUMP JUMPDEST DUP2 EQ PUSH2 0x80E JUMPI PUSH1 0x0 DUP1 REVERT JUMPDEST POP JUMP JUMPDEST PUSH1 0x0 DUP2 CALLDATALOAD SWAP1 POP PUSH2 0x820 DUP2 PUSH2 0x7FA JUMP JUMPDEST SWAP3 SWAP2 POP POP JUMP JUMPDEST PUSH1 0x0 PUSH1 0x20 DUP3 DUP5 SUB SLT ISZERO PUSH2 0x83C JUMPI PUSH2 0x83B PUSH2 0x7E6 JUMP JUMPDEST JUMPDEST PUSH1 0x0 PUSH2 0x84A DUP5 DUP3 DUP6 ADD PUSH2 0x811 JUMP JUMPDEST SWAP2 POP POP SWAP3 SWAP2 POP POP JUMP JUMPDEST PUSH1 0x0 DUP1 PUSH1 0x0 DUP1 PUSH1 0x80 DUP6 DUP8 SUB SLT ISZERO PUSH2 0x86D JUMPI PUSH2 0x86C PUSH2 0x7E6 JUMP JUMPDEST JUMPDEST PUSH1 0x0 PUSH2 0x87B DUP8 DUP3 DUP9 ADD PUSH2 0x811 JUMP JUMPDEST SWAP5 POP POP PUSH1 0x20 PUSH2 0x88C DUP8 DUP3 DUP9 ADD PUSH2 0x811 JUMP JUMPDEST SWAP4 POP POP PUSH1 0x40 PUSH2 0x89D DUP8 DUP3 DUP9 ADD PUSH2 0x811 JUMP JUMPDEST SWAP3 POP POP PUSH1 0x60 PUSH2 0x8AE DUP8 DUP3 DUP9 ADD PUSH2 0x811 JUMP JUMPDEST SWAP2 POP POP SWAP3 SWAP6 SWAP2 SWAP5 POP SWAP3 POP JUMP JUMPDEST PUSH1 0x0 PUSH20 0xFFFFFFFFFFFFFFFFFFFFFFFFFFFFFFFFFFFFFFFF DUP3 AND SWAP1 POP SWAP2 SWAP1 POP JUMP JUMPDEST PUSH1 0x0 PUSH2 0x8E5 DUP3 PUSH2 0x8BA JUMP JUMPDEST SWAP1 POP SWAP2 SWAP1 POP JUMP JUMPDEST PUSH2 0x8F5 DUP2 PUSH2 0x8DA JUMP JUMPDEST DUP2 EQ PUSH2 0x900 JUMPI PUSH1 0x0 DUP1 REVERT JUMPDEST POP JUMP JUMPDEST PUSH1 0x0 DUP2 CALLDATALOAD SWAP1 POP PUSH2 0x912 DUP2 PUSH2 0x8EC JUMP JUMPDEST SWAP3 SWAP2 POP POP JUMP JUMPDEST PUSH1 0x0 DUP1 PUSH1 0x0 PUSH1 0x60 DUP5 DUP7 SUB SLT ISZERO PUSH2 0x931 JUMPI PUSH2 0x930 PUSH2 0x7E6 JUMP JUMPDEST JUMPDEST PUSH1 0x0 PUSH2 0x93F DUP7 DUP3 DUP8 ADD PUSH2 0x903 JUMP JUMPDEST SWAP4 POP POP PUSH1 0x20 PUSH2 0x950 DUP7 DUP3 DUP8 ADD PUSH2 0x811 JUMP JUMPDEST SWAP3 POP POP PUSH1 0x40 PUSH2 0x961 DUP7 DUP3 DUP8 ADD PUSH2 0x811 JUMP JUMPDEST SWAP2 POP POP SWAP3 POP SWAP3 POP SWAP3 JUMP JUMPDEST PUSH2 0x974 DUP2 PUSH2 0x8DA JUMP JUMPDEST DUP3 MSTORE POP POP JUMP JUMPDEST PUSH1 0x0 PUSH1 0x20 DUP3 ADD SWAP1 POP PUSH2 0x98F PUSH1 0x0 DUP4 ADD DUP5 PUSH2 0x96B JUMP JUMPDEST SWAP3 SWAP2 POP POP JUMP JUMPDEST PUSH1 0x0 DUP1 REVERT JUMPDEST PUSH1 0x0 PUSH1 0x1F NOT PUSH1 0x1F DUP4 ADD AND SWAP1 POP SWAP2 SWAP1 POP JUMP JUMPDEST PUSH32 0x4E487B7100000000000000000000000000000000000000000000000000000000 PUSH1 0x0 MSTORE PUSH1 0x41 PUSH1 0x4 MSTORE PUSH1 0x24 PUSH1 0x0 REVERT JUMPDEST PUSH2 0x9E3 DUP3 PUSH2 0x99A JUMP JUMPDEST DUP2 ADD DUP2 DUP2 LT PUSH8 0xFFFFFFFFFFFFFFFF DUP3 GT OR ISZERO PUSH2 0xA02 JUMPI PUSH2 0xA01 PUSH2 0x9AB JUMP JUMPDEST JUMPDEST DUP1 PUSH1 0x40 MSTORE POP POP POP JUMP JUMPDEST PUSH1 0x0 PUSH2 0xA15 PUSH2 0x7DC JUMP JUMPDEST SWAP1 POP PUSH2 0xA21 DUP3 DUP3 PUSH2 0x9DA JUMP JUMPDEST SWAP2 SWAP1 POP JUMP JUMPDEST PUSH1 0x0 DUP2 MLOAD SWAP1 POP PUSH2 0xA35 DUP2 PUSH2 0x7FA JUMP JUMPDEST SWAP3 SWAP2 POP POP JUMP JUMPDEST PUSH1 0x0 PUSH1 0x40 DUP3 DUP5 SUB SLT ISZERO PUSH2 0xA51 JUMPI PUSH2 0xA50 PUSH2 0x995 JUMP JUMPDEST JUMPDEST PUSH2 0xA5B PUSH1 0x40 PUSH2 0xA0B JUMP JUMPDEST SWAP1 POP PUSH1 0x0 PUSH2 0xA6B DUP5 DUP3 DUP6 ADD PUSH2 0xA26 JUMP JUMPDEST PUSH1 0x0 DUP4 ADD MSTORE POP PUSH1 0x20 PUSH2 0xA7F DUP5 DUP3 DUP6 ADD PUSH2 0xA26 JUMP JUMPDEST PUSH1 0x20 DUP4 ADD MSTORE POP SWAP3 SWAP2 POP POP JUMP JUMPDEST PUSH1 0x0 PUSH1 0x40 DUP3 DUP5 SUB SLT ISZERO PUSH2 0xAA1 JUMPI PUSH2 0xAA0 PUSH2 0x7E6 JUMP JUMPDEST JUMPDEST PUSH1 0x0 PUSH2 0xAAF DUP5 DUP3 DUP6 ADD PUSH2 0xA3B JUMP JUMPDEST SWAP2 POP POP SWAP3 SWAP2 POP POP JUMP JUMPDEST PUSH2 0xAC1 DUP2 PUSH2 0x7F0 JUMP JUMPDEST DUP3 MSTORE POP POP JUMP JUMPDEST PUSH1 0x0 PUSH1 0x40 DUP3 ADD SWAP1 POP PUSH2 0xADC PUSH1 0x0 DUP4 ADD DUP6 PUSH2 0xAB8 JUMP JUMPDEST PUSH2 0xAE9 PUSH1 0x20 DUP4 ADD DUP5 PUSH2 0xAB8 JUMP JUMPDEST SWAP4 SWAP3 POP POP POP JUMP JUMPDEST PUSH32 0x4E487B7100000000000000000000000000000000000000000000000000000000 PUSH1 0x0 MSTORE PUSH1 0x32 PUSH1 0x4 MSTORE PUSH1 0x24 PUSH1 0x0 REVERT JUMPDEST PUSH1 0x0 DUP2 MLOAD SWAP1 POP SWAP2 SWAP1 POP JUMP JUMPDEST PUSH1 0x0 DUP3 DUP3 MSTORE PUSH1 0x20 DUP3 ADD SWAP1 POP SWAP3 SWAP2 POP POP JUMP JUMPDEST PUSH1 0x0 DUP2 SWAP1 POP PUSH1 0x20 DUP3 ADD SWAP1 POP SWAP2 SWAP1 POP JUMP JUMPDEST PUSH2 0xB54 DUP2 PUSH2 0x8DA JUMP JUMPDEST DUP3 MSTORE POP POP JUMP JUMPDEST PUSH1 0x0 PUSH2 0xB66 DUP4 DUP4 PUSH2 0xB4B JUMP JUMPDEST PUSH1 0x20 DUP4 ADD SWAP1 POP SWAP3 SWAP2 POP POP JUMP JUMPDEST PUSH1 0x0 PUSH1 0x20 DUP3 ADD SWAP1 POP SWAP2 SWAP1 POP JUMP JUMPDEST PUSH1 0x0 PUSH2 0xB8A DUP3 PUSH2 0xB1F JUMP JUMPDEST PUSH2 0xB94 DUP2 DUP6 PUSH2 0xB2A JUMP JUMPDEST SWAP4 POP PUSH2 0xB9F DUP4 PUSH2 0xB3B JUMP JUMPDEST DUP1 PUSH1 0x0 JUMPDEST DUP4 DUP2 LT ISZERO PUSH2 0xBD0 JUMPI DUP2 MLOAD PUSH2 0xBB7 DUP9 DUP3 PUSH2 0xB5A JUMP JUMPDEST SWAP8 POP PUSH2 0xBC2 DUP4 PUSH2 0xB72 JUMP JUMPDEST SWAP3 POP POP PUSH1 0x1 DUP2 ADD SWAP1 POP PUSH2 0xBA3 JUMP JUMPDEST POP DUP6 SWAP4 POP POP POP POP SWAP3 SWAP2 POP POP JUMP JUMPDEST PUSH1 0x0 PUSH1 0x80 DUP3 ADD SWAP1 POP PUSH2 0xBF2 PUSH1 0x0 DUP4 ADD DUP8 PUSH2 0xAB8 JUMP JUMPDEST DUP2 DUP2 SUB PUSH1 0x20 DUP4 ADD MSTORE PUSH2 0xC04 DUP2 DUP7 PUSH2 0xB7F JUMP JUMPDEST SWAP1 POP PUSH2 0xC13 PUSH1 0x40 DUP4 ADD DUP6 PUSH2 0x96B JUMP JUMPDEST PUSH2 0xC20 PUSH1 0x60 DUP4 ADD DUP5 PUSH2 0xAB8 JUMP JUMPDEST SWAP6 SWAP5 POP POP POP POP POP JUMP JUMPDEST PUSH1 0x0 DUP1 REVERT JUMPDEST PUSH1 0x0 PUSH8 0xFFFFFFFFFFFFFFFF DUP3 GT ISZERO PUSH2 0xC49 JUMPI PUSH2 0xC48 PUSH2 0x9AB JUMP JUMPDEST JUMPDEST PUSH1 0x20 DUP3 MUL SWAP1 POP PUSH1 0x20 DUP2 ADD SWAP1 POP SWAP2 SWAP1 POP JUMP JUMPDEST PUSH1 0x0 DUP1 REVERT JUMPDEST PUSH1 0x0 PUSH2 0xC72 PUSH2 0xC6D DUP5 PUSH2 0xC2E JUMP JUMPDEST PUSH2 0xA0B JUMP JUMPDEST SWAP1 POP DUP1 DUP4 DUP3 MSTORE PUSH1 0x20 DUP3 ADD SWAP1 POP PUSH1 0x20 DUP5 MUL DUP4 ADD DUP6 DUP2 GT ISZERO PUSH2 0xC95 JUMPI PUSH2 0xC94 PUSH2 0xC5A JUMP JUMPDEST JUMPDEST DUP4 JUMPDEST DUP2 DUP2 LT ISZERO PUSH2 0xCBE JUMPI DUP1 PUSH2 0xCAA DUP9 DUP3 PUSH2 0xA26 JUMP JUMPDEST DUP5 MSTORE PUSH1 0x20 DUP5 ADD SWAP4 POP POP PUSH1 0x20 DUP2 ADD SWAP1 POP PUSH2 0xC97 JUMP JUMPDEST POP POP POP SWAP4 SWAP3 POP POP POP JUMP JUMPDEST PUSH1 0x0 DUP3 PUSH1 0x1F DUP4 ADD SLT PUSH2 0xCDD JUMPI PUSH2 0xCDC PUSH2 0xC29 JUMP JUMPDEST JUMPDEST DUP2 MLOAD PUSH2 0xCED DUP5 DUP3 PUSH1 0x20 DUP7 ADD PUSH2 0xC5F JUMP JUMPDEST SWAP2 POP POP SWAP3 SWAP2 POP POP JUMP JUMPDEST PUSH1 0x0 PUSH1 0x20 DUP3 DUP5 SUB SLT ISZERO PUSH2 0xD0C JUMPI PUSH2 0xD0B PUSH2 0x7E6 JUMP JUMPDEST JUMPDEST PUSH1 0x0 DUP3 ADD MLOAD PUSH8 0xFFFFFFFFFFFFFFFF DUP2 GT ISZERO PUSH2 0xD2A JUMPI PUSH2 0xD29 PUSH2 0x7EB JUMP JUMPDEST JUMPDEST PUSH2 0xD36 DUP5 DUP3 DUP6 ADD PUSH2 0xCC8 JUMP JUMPDEST SWAP2 POP POP SWAP3 SWAP2 POP POP JUMP JUMPDEST PUSH1 0x0 PUSH1 0x40 DUP3 ADD SWAP1 POP PUSH2 0xD54 PUSH1 0x0 DUP4 ADD DUP6 PUSH2 0x96B JUMP JUMPDEST PUSH2 0xD61 PUSH1 0x20 DUP4 ADD DUP5 PUSH2 0xAB8 JUMP JUMPDEST SWAP4 SWAP3 POP POP POP JUMP JUMPDEST PUSH1 0x0 DUP2 ISZERO ISZERO SWAP1 POP SWAP2 SWAP1 POP JUMP JUMPDEST PUSH2 0xD7D DUP2 PUSH2 0xD68 JUMP JUMPDEST DUP2 EQ PUSH2 0xD88 JUMPI PUSH1 0x0 DUP1 REVERT JUMPDEST POP JUMP JUMPDEST PUSH1 0x0 DUP2 MLOAD SWAP1 POP PUSH2 0xD9A DUP2 PUSH2 0xD74 JUMP JUMPDEST SWAP3 SWAP2 POP POP JUMP JUMPDEST PUSH1 0x0 PUSH1 0x20 DUP3 DUP5 SUB SLT ISZERO PUSH2 0xDB6 JUMPI PUSH2 0xDB5 PUSH2 0x7E6 JUMP JUMPDEST JUMPDEST PUSH1 0x0 PUSH2 0xDC4 DUP5 DUP3 DUP6 ADD PUSH2 0xD8B JUMP JUMPDEST SWAP2 POP POP SWAP3 SWAP2 POP POP JUMP JUMPDEST PUSH1 0x0 PUSH1 0x60 DUP3 ADD SWAP1 POP PUSH2 0xDE2 PUSH1 0x0 DUP4 ADD DUP7 PUSH2 0x96B JUMP JUMPDEST PUSH2 0xDEF PUSH1 0x20 DUP4 ADD DUP6 PUSH2 0x96B JUMP JUMPDEST PUSH2 0xDFC PUSH1 0x40 DUP4 ADD DUP5 PUSH2 0xAB8 JUMP JUMPDEST SWAP5 SWAP4 POP POP POP POP JUMP JUMPDEST PUSH1 0x0 DUP3 DUP3 MSTORE PUSH1 0x20 DUP3 ADD SWAP1 POP SWAP3 SWAP2 POP POP JUMP JUMPDEST PUSH32 0x6D746F6B656E207472616E73666572206572726F722100000000000000000000 PUSH1 0x0 DUP3 ADD MSTORE POP JUMP JUMPDEST PUSH1 0x0 PUSH2 0xE4B PUSH1 0x16 DUP4 PUSH2 0xE04 JUMP JUMPDEST SWAP2 POP PUSH2 0xE56 DUP3 PUSH2 0xE15 JUMP JUMPDEST PUSH1 0x20 DUP3 ADD SWAP1 POP SWAP2 SWAP1 POP JUMP JUMPDEST PUSH1 0x0 PUSH1 0x20 DUP3 ADD SWAP1 POP DUP2 DUP2 SUB PUSH1 0x0 DUP4 ADD MSTORE PUSH2 0xE7A DUP2 PUSH2 0xE3E JUMP JUMPDEST SWAP1 POP SWAP2 SWAP1 POP JUMP JUMPDEST PUSH32 0x6D73672E76616C75652073686F756C642062696767676572207468616E20616D PUSH1 0x0 DUP3 ADD MSTORE PUSH32 0x6F756E744554484D696E00000000000000000000000000000000000000000000 PUSH1 0x20 DUP3 ADD MSTORE POP JUMP JUMPDEST PUSH1 0x0 PUSH2 0xEDD PUSH1 0x2A DUP4 PUSH2 0xE04 JUMP JUMPDEST SWAP2 POP PUSH2 0xEE8 DUP3 PUSH2 0xE81 JUMP JUMPDEST PUSH1 0x40 DUP3 ADD SWAP1 POP SWAP2 SWAP1 POP JUMP JUMPDEST PUSH1 0x0 PUSH1 0x20 DUP3 ADD SWAP1 POP DUP2 DUP2 SUB PUSH1 0x0 DUP4 ADD MSTORE PUSH2 0xF0C DUP2 PUSH2 0xED0 JUMP JUMPDEST SWAP1 POP SWAP2 SWAP1 POP JUMP JUMPDEST PUSH1 0x0 PUSH1 0xC0 DUP3 ADD SWAP1 POP PUSH2 0xF28 PUSH1 0x0 DUP4 ADD DUP10 PUSH2 0x96B JUMP JUMPDEST PUSH2 0xF35 PUSH1 0x20 DUP4 ADD DUP9 PUSH2 0xAB8 JUMP JUMPDEST PUSH2 0xF42 PUSH1 0x40 DUP4 ADD DUP8 PUSH2 0xAB8 JUMP JUMPDEST PUSH2 0xF4F PUSH1 0x60 DUP4 ADD DUP7 PUSH2 0xAB8 JUMP JUMPDEST PUSH2 0xF5C PUSH1 0x80 DUP4 ADD DUP6 PUSH2 0x96B JUMP JUMPDEST PUSH2 0xF69 PUSH1 0xA0 DUP4 ADD DUP5 PUSH2 0xAB8 JUMP JUMPDEST SWAP8 SWAP7 POP POP POP POP POP POP POP JUMP JUMPDEST PUSH1 0x0 DUP1 PUSH1 0x0 PUSH1 0x60 DUP5 DUP7 SUB SLT ISZERO PUSH2 0xF8D JUMPI PUSH2 0xF8C PUSH2 0x7E6 JUMP JUMPDEST JUMPDEST PUSH1 0x0 PUSH2 0xF9B DUP7 DUP3 DUP8 ADD PUSH2 0xA26 JUMP JUMPDEST SWAP4 POP POP PUSH1 0x20 PUSH2 0xFAC DUP7 DUP3 DUP8 ADD PUSH2 0xA26 JUMP JUMPDEST SWAP3 POP POP PUSH1 0x40 PUSH2 0xFBD DUP7 DUP3 DUP8 ADD PUSH2 0xA26 JUMP JUMPDEST SWAP2 POP POP SWAP3 POP SWAP3 POP SWAP3 JUMP INVALID LOG2 PUSH5 0x6970667358 0x22 SLT KECCAK256 0xE4 PUSH28 0x4E5128021E20457BE49D8D0F9C37A549E1CDB18ADA8136CA5FE8F770 0xEF SWAP8 PUSH5 0x736F6C6343 STOP ADDMOD 0xD STOP CALLER "
				},
				"gasEstimates": {
					"creation": {
						"codeDepositCost": "818600",
						"executionCost": "201392",
						"totalCost": "1019992"
					},
					"external": {
						"addLiquidity(uint256,uint256,uint256,uint256)": "infinite",
						"buyExactTokenByETH(uint256)": "infinite",
						"depositToMasterChef(address,uint256,uint256)": "infinite",
						"withdraw(uint256)": "infinite"
					}
				},
				"methodIdentifiers": {
					"addLiquidity(uint256,uint256,uint256,uint256)": "aebf3e41",
					"buyExactTokenByETH(uint256)": "a93f74e0",
					"depositToMasterChef(address,uint256,uint256)": "fc55d2bf",
					"withdraw(uint256)": "2e1a7d4d"
				}
			},
			"userdoc": {
				"kind": "user",
				"methods": {},
				"version": 1
			}
		}
	}
}