{
	"Code-hardhat-ethersJs/contracts/MyTokenMarket.sol": {
		"MyTokenMarket": {
			"abi": [
				{
					"inputs": [],
					"stateMutability": "nonpayable",
					"type": "constructor"
				},
				{
					"inputs": [
						{
							"internalType": "uint256",
							"name": "amountMyTokenDesired",
							"type": "uint256"
						},
						{
							"internalType": "uint256",
							"name": "amountMyTokenMin",
							"type": "uint256"
						},
						{
							"internalType": "uint256",
							"name": "amountETHMin",
							"type": "uint256"
						},
						{
							"internalType": "uint256",
							"name": "pid",
							"type": "uint256"
						}
					],
					"name": "addLiquidity",
					"outputs": [],
					"stateMutability": "payable",
					"type": "function"
				},
				{
					"inputs": [
						{
							"internalType": "uint256",
							"name": "amountOutMin",
							"type": "uint256"
						}
					],
					"name": "buyExactTokenByETH",
					"outputs": [],
					"stateMutability": "payable",
					"type": "function"
				},
				{
					"inputs": [
						{
							"internalType": "uint256",
							"name": "pid",
							"type": "uint256"
						}
					],
					"name": "withdraw",
					"outputs": [],
					"stateMutability": "nonpayable",
					"type": "function"
				}
			],
			"devdoc": {
				"kind": "dev",
				"methods": {},
				"version": 1
			},
			"evm": {
				"assembly": "    /* \"Code-hardhat-ethersJs/contracts/MyTokenMarket.sol\":264:2446  contract MyTokenMarket{... */\n  mstore(0x40, 0x80)\n    /* \"Code-hardhat-ethersJs/contracts/MyTokenMarket.sol\":537:579  0x7a250d5630B4cF539739dF2C5dAcb4c659F2488D */\n  0x7a250d5630b4cf539739df2c5dacb4c659f2488d\n    /* \"Code-hardhat-ethersJs/contracts/MyTokenMarket.sol\":516:579  address uv2address = 0x7a250d5630B4cF539739dF2C5dAcb4c659F2488D */\n  0x00\n  dup1\n  0x0100\n  exp\n  dup2\n  sload\n  dup2\n  0xffffffffffffffffffffffffffffffffffffffff\n  mul\n  not\n  and\n  swap1\n  dup4\n  0xffffffffffffffffffffffffffffffffffffffff\n  and\n  mul\n  or\n  swap1\n  sstore\n  pop\n    /* \"Code-hardhat-ethersJs/contracts/MyTokenMarket.sol\":607:649  0xc778417E063141139Fce010982780140Aa0cD5Ab */\n  0xc778417e063141139fce010982780140aa0cd5ab\n    /* \"Code-hardhat-ethersJs/contracts/MyTokenMarket.sol\":585:649  address wethaddress = 0xc778417E063141139Fce010982780140Aa0cD5Ab */\n  0x01\n  exp(0x0100, 0x00)\n  dup2\n  sload\n  dup2\n  0xffffffffffffffffffffffffffffffffffffffff\n  mul\n  not\n  and\n  swap1\n  dup4\n  0xffffffffffffffffffffffffffffffffffffffff\n  and\n  mul\n  or\n  swap1\n  sstore\n  pop\n    /* \"Code-hardhat-ethersJs/contracts/MyTokenMarket.sol\":680:722  0x549F978C19a5AC86D906052639E317B57724ef44 */\n  0x549f978c19a5ac86d906052639e317b57724ef44\n    /* \"Code-hardhat-ethersJs/contracts/MyTokenMarket.sol\":655:722  address mytokenaddress = 0x549F978C19a5AC86D906052639E317B57724ef44 */\n  0x02\n  exp(0x0100, 0x00)\n  dup2\n  sload\n  dup2\n  0xffffffffffffffffffffffffffffffffffffffff\n  mul\n  not\n  and\n  swap1\n  dup4\n  0xffffffffffffffffffffffffffffffffffffffff\n  and\n  mul\n  or\n  swap1\n  sstore\n  pop\n    /* \"Code-hardhat-ethersJs/contracts/MyTokenMarket.sol\":751:793  0xf42A08C0EA66ee4A474336087A6C17E9EA6c9dE9 */\n  0xf42a08c0ea66ee4a474336087a6c17e9ea6c9de9\n    /* \"Code-hardhat-ethersJs/contracts/MyTokenMarket.sol\":728:793  address sushiaddress = 0xf42A08C0EA66ee4A474336087A6C17E9EA6c9dE9 */\n  0x03\n  exp(0x0100, 0x00)\n  dup2\n  sload\n  dup2\n  0xffffffffffffffffffffffffffffffffffffffff\n  mul\n  not\n  and\n  swap1\n  dup4\n  0xffffffffffffffffffffffffffffffffffffffff\n  and\n  mul\n  or\n  swap1\n  sstore\n  pop\n    /* \"Code-hardhat-ethersJs/contracts/MyTokenMarket.sol\":827:869  0xd9DFA8c6b37cfDF16668fE0465896f4A1B9b2c4F */\n  0xd9dfa8c6b37cfdf16668fe0465896f4a1b9b2c4f\n    /* \"Code-hardhat-ethersJs/contracts/MyTokenMarket.sol\":799:869  address masterchefaddress = 0xd9DFA8c6b37cfDF16668fE0465896f4A1B9b2c4F */\n  0x04\n  exp(0x0100, 0x00)\n  dup2\n  sload\n  dup2\n  0xffffffffffffffffffffffffffffffffffffffff\n  mul\n  not\n  and\n  swap1\n  dup4\n  0xffffffffffffffffffffffffffffffffffffffff\n  and\n  mul\n  or\n  swap1\n  sstore\n  pop\n    /* \"Code-hardhat-ethersJs/contracts/MyTokenMarket.sol\":925:935  uv2address */\n  0x00\n  dup1\n  sload\n  swap1\n  0x0100\n  exp\n  swap1\n  div\n  0xffffffffffffffffffffffffffffffffffffffff\n  and\n    /* \"Code-hardhat-ethersJs/contracts/MyTokenMarket.sol\":875:936  IUniswapV2Router02 uv2router = IUniswapV2Router02(uv2address) */\n  0x05\n  exp(0x0100, 0x00)\n  dup2\n  sload\n  dup2\n  0xffffffffffffffffffffffffffffffffffffffff\n  mul\n  not\n  and\n  swap1\n  dup4\n  0xffffffffffffffffffffffffffffffffffffffff\n  and\n  mul\n  or\n  swap1\n  sstore\n  pop\n    /* \"Code-hardhat-ethersJs/contracts/MyTokenMarket.sol\":965:979  mytokenaddress */\n  0x02\n  0x00\n  swap1\n  sload\n  swap1\n  0x0100\n  exp\n  swap1\n  div\n  0xffffffffffffffffffffffffffffffffffffffff\n  and\n    /* \"Code-hardhat-ethersJs/contracts/MyTokenMarket.sol\":942:980  IERC20 mtoken = IERC20(mytokenaddress) */\n  0x06\n  exp(0x0100, 0x00)\n  dup2\n  sload\n  dup2\n  0xffffffffffffffffffffffffffffffffffffffff\n  mul\n  not\n  and\n  swap1\n  dup4\n  0xffffffffffffffffffffffffffffffffffffffff\n  and\n  mul\n  or\n  swap1\n  sstore\n  pop\n    /* \"Code-hardhat-ethersJs/contracts/MyTokenMarket.sol\":1023:1040  masterchefaddress */\n  0x04\n  0x00\n  swap1\n  sload\n  swap1\n  0x0100\n  exp\n  swap1\n  div\n  0xffffffffffffffffffffffffffffffffffffffff\n  and\n    /* \"Code-hardhat-ethersJs/contracts/MyTokenMarket.sol\":986:1041  IMasterChef masterChef = IMasterChef(masterchefaddress) */\n  0x07\n  exp(0x0100, 0x00)\n  dup2\n  sload\n  dup2\n  0xffffffffffffffffffffffffffffffffffffffff\n  mul\n  not\n  and\n  swap1\n  dup4\n  0xffffffffffffffffffffffffffffffffffffffff\n  and\n  mul\n  or\n  swap1\n  sstore\n  pop\n    /* \"Code-hardhat-ethersJs/contracts/MyTokenMarket.sol\":1047:1067  constructor(){... */\n  callvalue\n  dup1\n  iszero\n  tag_1\n  jumpi\n  0x00\n  dup1\n  revert\ntag_1:\n  pop\n    /* \"Code-hardhat-ethersJs/contracts/MyTokenMarket.sol\":264:2446  contract MyTokenMarket{... */\n  dataSize(sub_0)\n  dup1\n  dataOffset(sub_0)\n  0x00\n  codecopy\n  0x00\n  return\nstop\n\nsub_0: assembly {\n        /* \"Code-hardhat-ethersJs/contracts/MyTokenMarket.sol\":264:2446  contract MyTokenMarket{... */\n      mstore(0x40, 0x80)\n      jumpi(tag_1, lt(calldatasize, 0x04))\n      shr(0xe0, calldataload(0x00))\n      dup1\n      0x2e1a7d4d\n      eq\n      tag_2\n      jumpi\n      dup1\n      0xa93f74e0\n      eq\n      tag_3\n      jumpi\n      dup1\n      0xaebf3e41\n      eq\n      tag_4\n      jumpi\n    tag_1:\n      0x00\n      dup1\n      revert\n        /* \"Code-hardhat-ethersJs/contracts/MyTokenMarket.sol\":2269:2442  function withdraw(uint256 pid)public{... */\n    tag_2:\n      callvalue\n      dup1\n      iszero\n      tag_5\n      jumpi\n      0x00\n      dup1\n      revert\n    tag_5:\n      pop\n      tag_6\n      0x04\n      dup1\n      calldatasize\n      sub\n      dup2\n      add\n      swap1\n      tag_7\n      swap2\n      swap1\n      tag_8\n      jump\t// in\n    tag_7:\n      tag_9\n      jump\t// in\n    tag_6:\n      stop\n        /* \"Code-hardhat-ethersJs/contracts/MyTokenMarket.sol\":1908:2232  function buyExactTokenByETH(uint amountOutMin)public payable{... */\n    tag_3:\n      tag_10\n      0x04\n      dup1\n      calldatasize\n      sub\n      dup2\n      add\n      swap1\n      tag_11\n      swap2\n      swap1\n      tag_8\n      jump\t// in\n    tag_11:\n      tag_12\n      jump\t// in\n    tag_10:\n      stop\n        /* \"Code-hardhat-ethersJs/contracts/MyTokenMarket.sol\":1074:1901  function addLiquidity(... */\n    tag_4:\n      tag_13\n      0x04\n      dup1\n      calldatasize\n      sub\n      dup2\n      add\n      swap1\n      tag_14\n      swap2\n      swap1\n      tag_15\n      jump\t// in\n    tag_14:\n      tag_16\n      jump\t// in\n    tag_13:\n      stop\n        /* \"Code-hardhat-ethersJs/contracts/MyTokenMarket.sol\":2269:2442  function withdraw(uint256 pid)public{... */\n    tag_9:\n        /* \"Code-hardhat-ethersJs/contracts/MyTokenMarket.sol\":2315:2351  IMasterChef.UserInfo memory userInfo */\n      0x00\n        /* \"Code-hardhat-ethersJs/contracts/MyTokenMarket.sol\":2354:2364  masterChef */\n      0x07\n      0x00\n      swap1\n      sload\n      swap1\n      0x0100\n      exp\n      swap1\n      div\n      0xffffffffffffffffffffffffffffffffffffffff\n      and\n        /* \"Code-hardhat-ethersJs/contracts/MyTokenMarket.sol\":2354:2373  masterChef.userInfo */\n      0xffffffffffffffffffffffffffffffffffffffff\n      and\n      0x1959a002\n        /* \"Code-hardhat-ethersJs/contracts/MyTokenMarket.sol\":2374:2384  msg.sender */\n      caller\n        /* \"Code-hardhat-ethersJs/contracts/MyTokenMarket.sol\":2354:2385  masterChef.userInfo(msg.sender) */\n      mload(0x40)\n      dup3\n      0xffffffff\n      and\n      0xe0\n      shl\n      dup2\n      mstore\n      0x04\n      add\n      tag_18\n      swap2\n      swap1\n      tag_19\n      jump\t// in\n    tag_18:\n      0x40\n      dup1\n      mload\n      dup1\n      dup4\n      sub\n      dup2\n      dup7\n      gas\n      staticcall\n      iszero\n      dup1\n      iszero\n      tag_21\n      jumpi\n      returndatasize\n      0x00\n      dup1\n      returndatacopy\n      revert(0x00, returndatasize)\n    tag_21:\n      pop\n      pop\n      pop\n      pop\n      mload(0x40)\n      returndatasize\n      not(0x1f)\n      0x1f\n      dup3\n      add\n      and\n      dup3\n      add\n      dup1\n      0x40\n      mstore\n      pop\n      dup2\n      add\n      swap1\n      tag_22\n      swap2\n      swap1\n      tag_23\n      jump\t// in\n    tag_22:\n        /* \"Code-hardhat-ethersJs/contracts/MyTokenMarket.sol\":2315:2385  IMasterChef.UserInfo memory userInfo = masterChef.userInfo(msg.sender) */\n      swap1\n      pop\n        /* \"Code-hardhat-ethersJs/contracts/MyTokenMarket.sol\":2395:2405  masterChef */\n      0x07\n      0x00\n      swap1\n      sload\n      swap1\n      0x0100\n      exp\n      swap1\n      div\n      0xffffffffffffffffffffffffffffffffffffffff\n      and\n        /* \"Code-hardhat-ethersJs/contracts/MyTokenMarket.sol\":2395:2414  masterChef.withdraw */\n      0xffffffffffffffffffffffffffffffffffffffff\n      and\n      0x441a3e70\n        /* \"Code-hardhat-ethersJs/contracts/MyTokenMarket.sol\":2415:2418  pid */\n      dup4\n        /* \"Code-hardhat-ethersJs/contracts/MyTokenMarket.sol\":2419:2427  userInfo */\n      dup4\n        /* \"Code-hardhat-ethersJs/contracts/MyTokenMarket.sol\":2419:2434  userInfo.amount */\n      0x00\n      add\n      mload\n        /* \"Code-hardhat-ethersJs/contracts/MyTokenMarket.sol\":2395:2435  masterChef.withdraw(pid,userInfo.amount) */\n      mload(0x40)\n      dup4\n      0xffffffff\n      and\n      0xe0\n      shl\n      dup2\n      mstore\n      0x04\n      add\n      tag_24\n      swap3\n      swap2\n      swap1\n      tag_25\n      jump\t// in\n    tag_24:\n      0x00\n      mload(0x40)\n      dup1\n      dup4\n      sub\n      dup2\n      0x00\n      dup8\n      dup1\n      extcodesize\n      iszero\n      dup1\n      iszero\n      tag_26\n      jumpi\n      0x00\n      dup1\n      revert\n    tag_26:\n      pop\n      gas\n      call\n      iszero\n      dup1\n      iszero\n      tag_28\n      jumpi\n      returndatasize\n      0x00\n      dup1\n      returndatacopy\n      revert(0x00, returndatasize)\n    tag_28:\n      pop\n      pop\n      pop\n      pop\n        /* \"Code-hardhat-ethersJs/contracts/MyTokenMarket.sol\":2305:2442  {... */\n      pop\n        /* \"Code-hardhat-ethersJs/contracts/MyTokenMarket.sol\":2269:2442  function withdraw(uint256 pid)public{... */\n      pop\n      jump\t// out\n        /* \"Code-hardhat-ethersJs/contracts/MyTokenMarket.sol\":1908:2232  function buyExactTokenByETH(uint amountOutMin)public payable{... */\n    tag_12:\n        /* \"Code-hardhat-ethersJs/contracts/MyTokenMarket.sol\":1982:2003  address[] memory path */\n      0x00\n        /* \"Code-hardhat-ethersJs/contracts/MyTokenMarket.sol\":2020:2021  2 */\n      0x02\n        /* \"Code-hardhat-ethersJs/contracts/MyTokenMarket.sol\":2006:2022  new address[](2) */\n      0xffffffffffffffff\n      dup2\n      gt\n      iszero\n      tag_30\n      jumpi\n      tag_31\n      tag_32\n      jump\t// in\n    tag_31:\n    tag_30:\n      mload(0x40)\n      swap1\n      dup1\n      dup3\n      mstore\n      dup1\n      0x20\n      mul\n      0x20\n      add\n      dup3\n      add\n      0x40\n      mstore\n      dup1\n      iszero\n      tag_33\n      jumpi\n      dup2\n      0x20\n      add\n      0x20\n      dup3\n      mul\n      dup1\n      calldatasize\n      dup4\n      calldatacopy\n      dup1\n      dup3\n      add\n      swap2\n      pop\n      pop\n      swap1\n      pop\n    tag_33:\n      pop\n        /* \"Code-hardhat-ethersJs/contracts/MyTokenMarket.sol\":1982:2022  address[] memory path = new address[](2) */\n      swap1\n      pop\n        /* \"Code-hardhat-ethersJs/contracts/MyTokenMarket.sol\":2054:2065  wethaddress */\n      0x01\n      0x00\n      swap1\n      sload\n      swap1\n      0x0100\n      exp\n      swap1\n      div\n      0xffffffffffffffffffffffffffffffffffffffff\n      and\n        /* \"Code-hardhat-ethersJs/contracts/MyTokenMarket.sol\":2036:2040  path */\n      dup2\n        /* \"Code-hardhat-ethersJs/contracts/MyTokenMarket.sol\":2041:2042  0 */\n      0x00\n        /* \"Code-hardhat-ethersJs/contracts/MyTokenMarket.sol\":2036:2043  path[0] */\n      dup2\n      mload\n      dup2\n      lt\n      tag_34\n      jumpi\n      tag_35\n      tag_36\n      jump\t// in\n    tag_35:\n    tag_34:\n      0x20\n      mul\n      0x20\n      add\n      add\n        /* \"Code-hardhat-ethersJs/contracts/MyTokenMarket.sol\":2036:2066  path[0] = address(wethaddress) */\n      swap1\n      0xffffffffffffffffffffffffffffffffffffffff\n      and\n      swap1\n      dup2\n      0xffffffffffffffffffffffffffffffffffffffff\n      and\n      dup2\n      mstore\n      pop\n      pop\n        /* \"Code-hardhat-ethersJs/contracts/MyTokenMarket.sol\":2098:2112  mytokenaddress */\n      0x02\n      0x00\n      swap1\n      sload\n      swap1\n      0x0100\n      exp\n      swap1\n      div\n      0xffffffffffffffffffffffffffffffffffffffff\n      and\n        /* \"Code-hardhat-ethersJs/contracts/MyTokenMarket.sol\":2080:2084  path */\n      dup2\n        /* \"Code-hardhat-ethersJs/contracts/MyTokenMarket.sol\":2085:2086  1 */\n      0x01\n        /* \"Code-hardhat-ethersJs/contracts/MyTokenMarket.sol\":2080:2087  path[1] */\n      dup2\n      mload\n      dup2\n      lt\n      tag_37\n      jumpi\n      tag_38\n      tag_36\n      jump\t// in\n    tag_38:\n    tag_37:\n      0x20\n      mul\n      0x20\n      add\n      add\n        /* \"Code-hardhat-ethersJs/contracts/MyTokenMarket.sol\":2080:2113  path[1] = address(mytokenaddress) */\n      swap1\n      0xffffffffffffffffffffffffffffffffffffffff\n      and\n      swap1\n      dup2\n      0xffffffffffffffffffffffffffffffffffffffff\n      and\n      dup2\n      mstore\n      pop\n      pop\n        /* \"Code-hardhat-ethersJs/contracts/MyTokenMarket.sol\":2127:2136  uv2router */\n      0x05\n      0x00\n      swap1\n      sload\n      swap1\n      0x0100\n      exp\n      swap1\n      div\n      0xffffffffffffffffffffffffffffffffffffffff\n      and\n        /* \"Code-hardhat-ethersJs/contracts/MyTokenMarket.sol\":2127:2158  uv2router.swapExactETHForTokens */\n      0xffffffffffffffffffffffffffffffffffffffff\n      and\n      0x7ff36ab5\n        /* \"Code-hardhat-ethersJs/contracts/MyTokenMarket.sol\":2166:2175  msg.value */\n      callvalue\n        /* \"Code-hardhat-ethersJs/contracts/MyTokenMarket.sol\":2177:2189  amountOutMin */\n      dup5\n        /* \"Code-hardhat-ethersJs/contracts/MyTokenMarket.sol\":2191:2195  path */\n      dup5\n        /* \"Code-hardhat-ethersJs/contracts/MyTokenMarket.sol\":2197:2207  msg.sender */\n      caller\n        /* \"Code-hardhat-ethersJs/contracts/MyTokenMarket.sol\":2209:2224  block.timestamp */\n      timestamp\n        /* \"Code-hardhat-ethersJs/contracts/MyTokenMarket.sol\":2127:2225  uv2router.swapExactETHForTokens{value: msg.value}(amountOutMin, path, msg.sender, block.timestamp) */\n      mload(0x40)\n      dup7\n      0xffffffff\n      and\n      0xe0\n      shl\n      dup2\n      mstore\n      0x04\n      add\n      tag_39\n      swap5\n      swap4\n      swap3\n      swap2\n      swap1\n      tag_40\n      jump\t// in\n    tag_39:\n      0x00\n      mload(0x40)\n      dup1\n      dup4\n      sub\n      dup2\n      dup6\n      dup9\n      gas\n      call\n      iszero\n      dup1\n      iszero\n      tag_42\n      jumpi\n      returndatasize\n      0x00\n      dup1\n      returndatacopy\n      revert(0x00, returndatasize)\n    tag_42:\n      pop\n      pop\n      pop\n      pop\n      pop\n      mload(0x40)\n      returndatasize\n      0x00\n      dup3\n      returndatacopy\n      returndatasize\n      not(0x1f)\n      0x1f\n      dup3\n      add\n      and\n      dup3\n      add\n      dup1\n      0x40\n      mstore\n      pop\n      dup2\n      add\n      swap1\n      tag_43\n      swap2\n      swap1\n      tag_44\n      jump\t// in\n    tag_43:\n      pop\n        /* \"Code-hardhat-ethersJs/contracts/MyTokenMarket.sol\":1968:2232  {... */\n      pop\n        /* \"Code-hardhat-ethersJs/contracts/MyTokenMarket.sol\":1908:2232  function buyExactTokenByETH(uint amountOutMin)public payable{... */\n      pop\n      jump\t// out\n        /* \"Code-hardhat-ethersJs/contracts/MyTokenMarket.sol\":1074:1901  function addLiquidity(... */\n    tag_16:\n        /* \"Code-hardhat-ethersJs/contracts/MyTokenMarket.sol\":1281:1287  mtoken */\n      0x06\n      0x00\n      swap1\n      sload\n      swap1\n      0x0100\n      exp\n      swap1\n      div\n      0xffffffffffffffffffffffffffffffffffffffff\n      and\n        /* \"Code-hardhat-ethersJs/contracts/MyTokenMarket.sol\":1281:1295  mtoken.approve */\n      0xffffffffffffffffffffffffffffffffffffffff\n      and\n      0x095ea7b3\n        /* \"Code-hardhat-ethersJs/contracts/MyTokenMarket.sol\":1304:1313  uv2router */\n      0x05\n      0x00\n      swap1\n      sload\n      swap1\n      0x0100\n      exp\n      swap1\n      div\n      0xffffffffffffffffffffffffffffffffffffffff\n      and\n        /* \"Code-hardhat-ethersJs/contracts/MyTokenMarket.sol\":1316:1336  amountMyTokenDesired */\n      dup7\n        /* \"Code-hardhat-ethersJs/contracts/MyTokenMarket.sol\":1281:1337  mtoken.approve(address(uv2router), amountMyTokenDesired) */\n      mload(0x40)\n      dup4\n      0xffffffff\n      and\n      0xe0\n      shl\n      dup2\n      mstore\n      0x04\n      add\n      tag_46\n      swap3\n      swap2\n      swap1\n      tag_47\n      jump\t// in\n    tag_46:\n      0x20\n      mload(0x40)\n      dup1\n      dup4\n      sub\n      dup2\n      0x00\n      dup8\n      gas\n      call\n      iszero\n      dup1\n      iszero\n      tag_49\n      jumpi\n      returndatasize\n      0x00\n      dup1\n      returndatacopy\n      revert(0x00, returndatasize)\n    tag_49:\n      pop\n      pop\n      pop\n      pop\n      mload(0x40)\n      returndatasize\n      not(0x1f)\n      0x1f\n      dup3\n      add\n      and\n      dup3\n      add\n      dup1\n      0x40\n      mstore\n      pop\n      dup2\n      add\n      swap1\n      tag_50\n      swap2\n      swap1\n      tag_51\n      jump\t// in\n    tag_50:\n      pop\n        /* \"Code-hardhat-ethersJs/contracts/MyTokenMarket.sol\":1347:1359  bool success */\n      0x00\n        /* \"Code-hardhat-ethersJs/contracts/MyTokenMarket.sol\":1362:1368  mtoken */\n      0x06\n      0x00\n      swap1\n      sload\n      swap1\n      0x0100\n      exp\n      swap1\n      div\n      0xffffffffffffffffffffffffffffffffffffffff\n      and\n        /* \"Code-hardhat-ethersJs/contracts/MyTokenMarket.sol\":1362:1381  mtoken.transferFrom */\n      0xffffffffffffffffffffffffffffffffffffffff\n      and\n      0x23b872dd\n        /* \"Code-hardhat-ethersJs/contracts/MyTokenMarket.sol\":1382:1392  msg.sender */\n      caller\n        /* \"Code-hardhat-ethersJs/contracts/MyTokenMarket.sol\":1402:1406  this */\n      address\n        /* \"Code-hardhat-ethersJs/contracts/MyTokenMarket.sol\":1409:1429  amountMyTokenDesired */\n      dup9\n        /* \"Code-hardhat-ethersJs/contracts/MyTokenMarket.sol\":1362:1430  mtoken.transferFrom(msg.sender, address(this), amountMyTokenDesired) */\n      mload(0x40)\n      dup5\n      0xffffffff\n      and\n      0xe0\n      shl\n      dup2\n      mstore\n      0x04\n      add\n      tag_52\n      swap4\n      swap3\n      swap2\n      swap1\n      tag_53\n      jump\t// in\n    tag_52:\n      0x20\n      mload(0x40)\n      dup1\n      dup4\n      sub\n      dup2\n      0x00\n      dup8\n      gas\n      call\n      iszero\n      dup1\n      iszero\n      tag_55\n      jumpi\n      returndatasize\n      0x00\n      dup1\n      returndatacopy\n      revert(0x00, returndatasize)\n    tag_55:\n      pop\n      pop\n      pop\n      pop\n      mload(0x40)\n      returndatasize\n      not(0x1f)\n      0x1f\n      dup3\n      add\n      and\n      dup3\n      add\n      dup1\n      0x40\n      mstore\n      pop\n      dup2\n      add\n      swap1\n      tag_56\n      swap2\n      swap1\n      tag_51\n      jump\t// in\n    tag_56:\n        /* \"Code-hardhat-ethersJs/contracts/MyTokenMarket.sol\":1347:1430  bool success = mtoken.transferFrom(msg.sender, address(this), amountMyTokenDesired) */\n      swap1\n      pop\n        /* \"Code-hardhat-ethersJs/contracts/MyTokenMarket.sol\":1448:1455  success */\n      dup1\n        /* \"Code-hardhat-ethersJs/contracts/MyTokenMarket.sol\":1440:1482  require(success, \"mtoken transfer error!\") */\n      tag_57\n      jumpi\n      mload(0x40)\n      0x08c379a000000000000000000000000000000000000000000000000000000000\n      dup2\n      mstore\n      0x04\n      add\n      tag_58\n      swap1\n      tag_59\n      jump\t// in\n    tag_58:\n      mload(0x40)\n      dup1\n      swap2\n      sub\n      swap1\n      revert\n    tag_57:\n        /* \"Code-hardhat-ethersJs/contracts/MyTokenMarket.sol\":1512:1524  amountETHMin */\n      dup3\n        /* \"Code-hardhat-ethersJs/contracts/MyTokenMarket.sol\":1500:1509  msg.value */\n      callvalue\n        /* \"Code-hardhat-ethersJs/contracts/MyTokenMarket.sol\":1500:1524  msg.value > amountETHMin */\n      gt\n        /* \"Code-hardhat-ethersJs/contracts/MyTokenMarket.sol\":1492:1571  require(msg.value > amountETHMin, \"msg.value should biggger than amountETHMin\") */\n      tag_60\n      jumpi\n      mload(0x40)\n      0x08c379a000000000000000000000000000000000000000000000000000000000\n      dup2\n      mstore\n      0x04\n      add\n      tag_61\n      swap1\n      tag_62\n      jump\t// in\n    tag_61:\n      mload(0x40)\n      dup1\n      swap2\n      sub\n      swap1\n      revert\n    tag_60:\n        /* \"Code-hardhat-ethersJs/contracts/MyTokenMarket.sol\":1582:1598  uint amountToken */\n      0x00\n        /* \"Code-hardhat-ethersJs/contracts/MyTokenMarket.sol\":1604:1613  uv2router */\n      0x05\n      0x00\n      swap1\n      sload\n      swap1\n      0x0100\n      exp\n      swap1\n      div\n      0xffffffffffffffffffffffffffffffffffffffff\n      and\n        /* \"Code-hardhat-ethersJs/contracts/MyTokenMarket.sol\":1604:1629  uv2router.addLiquidityETH */\n      0xffffffffffffffffffffffffffffffffffffffff\n      and\n      0xf305d719\n        /* \"Code-hardhat-ethersJs/contracts/MyTokenMarket.sol\":1637:1646  msg.value */\n      callvalue\n        /* \"Code-hardhat-ethersJs/contracts/MyTokenMarket.sol\":1649:1663  mytokenaddress */\n      0x02\n      0x00\n      swap1\n      sload\n      swap1\n      0x0100\n      exp\n      swap1\n      div\n      0xffffffffffffffffffffffffffffffffffffffff\n      and\n        /* \"Code-hardhat-ethersJs/contracts/MyTokenMarket.sol\":1665:1685  amountMyTokenDesired */\n      dup10\n        /* \"Code-hardhat-ethersJs/contracts/MyTokenMarket.sol\":1687:1703  amountMyTokenMin */\n      dup10\n        /* \"Code-hardhat-ethersJs/contracts/MyTokenMarket.sol\":1705:1717  amountETHMin */\n      dup10\n        /* \"Code-hardhat-ethersJs/contracts/MyTokenMarket.sol\":1719:1729  msg.sender */\n      caller\n        /* \"Code-hardhat-ethersJs/contracts/MyTokenMarket.sol\":1730:1745  block.timestamp */\n      timestamp\n        /* \"Code-hardhat-ethersJs/contracts/MyTokenMarket.sol\":1604:1746  uv2router.addLiquidityETH{value: msg.value}( mytokenaddress, amountMyTokenDesired, amountMyTokenMin, amountETHMin, msg.sender,block.timestamp) */\n      mload(0x40)\n      dup9\n      0xffffffff\n      and\n      0xe0\n      shl\n      dup2\n      mstore\n      0x04\n      add\n      tag_63\n      swap7\n      swap6\n      swap5\n      swap4\n      swap3\n      swap2\n      swap1\n      tag_64\n      jump\t// in\n    tag_63:\n      0x60\n      mload(0x40)\n      dup1\n      dup4\n      sub\n      dup2\n      dup6\n      dup9\n      gas\n      call\n      iszero\n      dup1\n      iszero\n      tag_66\n      jumpi\n      returndatasize\n      0x00\n      dup1\n      returndatacopy\n      revert(0x00, returndatasize)\n    tag_66:\n      pop\n      pop\n      pop\n      pop\n      pop\n      mload(0x40)\n      returndatasize\n      not(0x1f)\n      0x1f\n      dup3\n      add\n      and\n      dup3\n      add\n      dup1\n      0x40\n      mstore\n      pop\n      dup2\n      add\n      swap1\n      tag_67\n      swap2\n      swap1\n      tag_68\n      jump\t// in\n    tag_67:\n        /* \"Code-hardhat-ethersJs/contracts/MyTokenMarket.sol\":1581:1746  (uint amountToken,,) = uv2router.addLiquidityETH{value: msg.value}( mytokenaddress, amountMyTokenDesired, amountMyTokenMin, amountETHMin, msg.sender,block.timestamp) */\n      pop\n      pop\n      swap1\n      pop\n        /* \"Code-hardhat-ethersJs/contracts/MyTokenMarket.sol\":1794:1800  mtoken */\n      0x06\n      0x00\n      swap1\n      sload\n      swap1\n      0x0100\n      exp\n      swap1\n      div\n      0xffffffffffffffffffffffffffffffffffffffff\n      and\n        /* \"Code-hardhat-ethersJs/contracts/MyTokenMarket.sol\":1794:1808  mtoken.approve */\n      0xffffffffffffffffffffffffffffffffffffffff\n      and\n      0x095ea7b3\n        /* \"Code-hardhat-ethersJs/contracts/MyTokenMarket.sol\":1809:1826  masterchefaddress */\n      0x04\n      0x00\n      swap1\n      sload\n      swap1\n      0x0100\n      exp\n      swap1\n      div\n      0xffffffffffffffffffffffffffffffffffffffff\n      and\n        /* \"Code-hardhat-ethersJs/contracts/MyTokenMarket.sol\":1828:1848  amountMyTokenDesired */\n      dup9\n        /* \"Code-hardhat-ethersJs/contracts/MyTokenMarket.sol\":1794:1849  mtoken.approve(masterchefaddress, amountMyTokenDesired) */\n      mload(0x40)\n      dup4\n      0xffffffff\n      and\n      0xe0\n      shl\n      dup2\n      mstore\n      0x04\n      add\n      tag_69\n      swap3\n      swap2\n      swap1\n      tag_47\n      jump\t// in\n    tag_69:\n      0x20\n      mload(0x40)\n      dup1\n      dup4\n      sub\n      dup2\n      0x00\n      dup8\n      gas\n      call\n      iszero\n      dup1\n      iszero\n      tag_71\n      jumpi\n      returndatasize\n      0x00\n      dup1\n      returndatacopy\n      revert(0x00, returndatasize)\n    tag_71:\n      pop\n      pop\n      pop\n      pop\n      mload(0x40)\n      returndatasize\n      not(0x1f)\n      0x1f\n      dup3\n      add\n      and\n      dup3\n      add\n      dup1\n      0x40\n      mstore\n      pop\n      dup2\n      add\n      swap1\n      tag_72\n      swap2\n      swap1\n      tag_51\n      jump\t// in\n    tag_72:\n      pop\n        /* \"Code-hardhat-ethersJs/contracts/MyTokenMarket.sol\":1859:1869  masterChef */\n      0x07\n      0x00\n      swap1\n      sload\n      swap1\n      0x0100\n      exp\n      swap1\n      div\n      0xffffffffffffffffffffffffffffffffffffffff\n      and\n        /* \"Code-hardhat-ethersJs/contracts/MyTokenMarket.sol\":1859:1877  masterChef.deposit */\n      0xffffffffffffffffffffffffffffffffffffffff\n      and\n      0xe2bbb158\n        /* \"Code-hardhat-ethersJs/contracts/MyTokenMarket.sol\":1878:1881  pid */\n      dup5\n        /* \"Code-hardhat-ethersJs/contracts/MyTokenMarket.sol\":1882:1893  amountToken */\n      dup4\n        /* \"Code-hardhat-ethersJs/contracts/MyTokenMarket.sol\":1859:1894  masterChef.deposit(pid,amountToken) */\n      mload(0x40)\n      dup4\n      0xffffffff\n      and\n      0xe0\n      shl\n      dup2\n      mstore\n      0x04\n      add\n      tag_73\n      swap3\n      swap2\n      swap1\n      tag_25\n      jump\t// in\n    tag_73:\n      0x00\n      mload(0x40)\n      dup1\n      dup4\n      sub\n      dup2\n      0x00\n      dup8\n      dup1\n      extcodesize\n      iszero\n      dup1\n      iszero\n      tag_74\n      jumpi\n      0x00\n      dup1\n      revert\n    tag_74:\n      pop\n      gas\n      call\n      iszero\n      dup1\n      iszero\n      tag_76\n      jumpi\n      returndatasize\n      0x00\n      dup1\n      returndatacopy\n      revert(0x00, returndatasize)\n    tag_76:\n      pop\n      pop\n      pop\n      pop\n        /* \"Code-hardhat-ethersJs/contracts/MyTokenMarket.sol\":1233:1901  {... */\n      pop\n      pop\n        /* \"Code-hardhat-ethersJs/contracts/MyTokenMarket.sol\":1074:1901  function addLiquidity(... */\n      pop\n      pop\n      pop\n      pop\n      jump\t// out\n        /* \"#utility.yul\":7:82   */\n    tag_77:\n        /* \"#utility.yul\":40:46   */\n      0x00\n        /* \"#utility.yul\":73:75   */\n      0x40\n        /* \"#utility.yul\":67:76   */\n      mload\n        /* \"#utility.yul\":57:76   */\n      swap1\n      pop\n        /* \"#utility.yul\":7:82   */\n      swap1\n      jump\t// out\n        /* \"#utility.yul\":88:205   */\n    tag_78:\n        /* \"#utility.yul\":197:198   */\n      0x00\n        /* \"#utility.yul\":194:195   */\n      dup1\n        /* \"#utility.yul\":187:199   */\n      revert\n        /* \"#utility.yul\":211:328   */\n    tag_79:\n        /* \"#utility.yul\":320:321   */\n      0x00\n        /* \"#utility.yul\":317:318   */\n      dup1\n        /* \"#utility.yul\":310:322   */\n      revert\n        /* \"#utility.yul\":334:411   */\n    tag_80:\n        /* \"#utility.yul\":371:378   */\n      0x00\n        /* \"#utility.yul\":400:405   */\n      dup2\n        /* \"#utility.yul\":389:405   */\n      swap1\n      pop\n        /* \"#utility.yul\":334:411   */\n      swap2\n      swap1\n      pop\n      jump\t// out\n        /* \"#utility.yul\":417:539   */\n    tag_81:\n        /* \"#utility.yul\":490:514   */\n      tag_120\n        /* \"#utility.yul\":508:513   */\n      dup2\n        /* \"#utility.yul\":490:514   */\n      tag_80\n      jump\t// in\n    tag_120:\n        /* \"#utility.yul\":483:488   */\n      dup2\n        /* \"#utility.yul\":480:515   */\n      eq\n        /* \"#utility.yul\":470:533   */\n      tag_121\n      jumpi\n        /* \"#utility.yul\":529:530   */\n      0x00\n        /* \"#utility.yul\":526:527   */\n      dup1\n        /* \"#utility.yul\":519:531   */\n      revert\n        /* \"#utility.yul\":470:533   */\n    tag_121:\n        /* \"#utility.yul\":417:539   */\n      pop\n      jump\t// out\n        /* \"#utility.yul\":545:684   */\n    tag_82:\n        /* \"#utility.yul\":591:596   */\n      0x00\n        /* \"#utility.yul\":629:635   */\n      dup2\n        /* \"#utility.yul\":616:636   */\n      calldataload\n        /* \"#utility.yul\":607:636   */\n      swap1\n      pop\n        /* \"#utility.yul\":645:678   */\n      tag_123\n        /* \"#utility.yul\":672:677   */\n      dup2\n        /* \"#utility.yul\":645:678   */\n      tag_81\n      jump\t// in\n    tag_123:\n        /* \"#utility.yul\":545:684   */\n      swap3\n      swap2\n      pop\n      pop\n      jump\t// out\n        /* \"#utility.yul\":690:1019   */\n    tag_8:\n        /* \"#utility.yul\":749:755   */\n      0x00\n        /* \"#utility.yul\":798:800   */\n      0x20\n        /* \"#utility.yul\":786:795   */\n      dup3\n        /* \"#utility.yul\":777:784   */\n      dup5\n        /* \"#utility.yul\":773:796   */\n      sub\n        /* \"#utility.yul\":769:801   */\n      slt\n        /* \"#utility.yul\":766:885   */\n      iszero\n      tag_125\n      jumpi\n        /* \"#utility.yul\":804:883   */\n      tag_126\n      tag_78\n      jump\t// in\n    tag_126:\n        /* \"#utility.yul\":766:885   */\n    tag_125:\n        /* \"#utility.yul\":924:925   */\n      0x00\n        /* \"#utility.yul\":949:1002   */\n      tag_127\n        /* \"#utility.yul\":994:1001   */\n      dup5\n        /* \"#utility.yul\":985:991   */\n      dup3\n        /* \"#utility.yul\":974:983   */\n      dup6\n        /* \"#utility.yul\":970:992   */\n      add\n        /* \"#utility.yul\":949:1002   */\n      tag_82\n      jump\t// in\n    tag_127:\n        /* \"#utility.yul\":939:1002   */\n      swap2\n      pop\n        /* \"#utility.yul\":895:1012   */\n      pop\n        /* \"#utility.yul\":690:1019   */\n      swap3\n      swap2\n      pop\n      pop\n      jump\t// out\n        /* \"#utility.yul\":1025:1790   */\n    tag_15:\n        /* \"#utility.yul\":1111:1117   */\n      0x00\n        /* \"#utility.yul\":1119:1125   */\n      dup1\n        /* \"#utility.yul\":1127:1133   */\n      0x00\n        /* \"#utility.yul\":1135:1141   */\n      dup1\n        /* \"#utility.yul\":1184:1187   */\n      0x80\n        /* \"#utility.yul\":1172:1181   */\n      dup6\n        /* \"#utility.yul\":1163:1170   */\n      dup8\n        /* \"#utility.yul\":1159:1182   */\n      sub\n        /* \"#utility.yul\":1155:1188   */\n      slt\n        /* \"#utility.yul\":1152:1272   */\n      iszero\n      tag_129\n      jumpi\n        /* \"#utility.yul\":1191:1270   */\n      tag_130\n      tag_78\n      jump\t// in\n    tag_130:\n        /* \"#utility.yul\":1152:1272   */\n    tag_129:\n        /* \"#utility.yul\":1311:1312   */\n      0x00\n        /* \"#utility.yul\":1336:1389   */\n      tag_131\n        /* \"#utility.yul\":1381:1388   */\n      dup8\n        /* \"#utility.yul\":1372:1378   */\n      dup3\n        /* \"#utility.yul\":1361:1370   */\n      dup9\n        /* \"#utility.yul\":1357:1379   */\n      add\n        /* \"#utility.yul\":1336:1389   */\n      tag_82\n      jump\t// in\n    tag_131:\n        /* \"#utility.yul\":1326:1389   */\n      swap5\n      pop\n        /* \"#utility.yul\":1282:1399   */\n      pop\n        /* \"#utility.yul\":1438:1440   */\n      0x20\n        /* \"#utility.yul\":1464:1517   */\n      tag_132\n        /* \"#utility.yul\":1509:1516   */\n      dup8\n        /* \"#utility.yul\":1500:1506   */\n      dup3\n        /* \"#utility.yul\":1489:1498   */\n      dup9\n        /* \"#utility.yul\":1485:1507   */\n      add\n        /* \"#utility.yul\":1464:1517   */\n      tag_82\n      jump\t// in\n    tag_132:\n        /* \"#utility.yul\":1454:1517   */\n      swap4\n      pop\n        /* \"#utility.yul\":1409:1527   */\n      pop\n        /* \"#utility.yul\":1566:1568   */\n      0x40\n        /* \"#utility.yul\":1592:1645   */\n      tag_133\n        /* \"#utility.yul\":1637:1644   */\n      dup8\n        /* \"#utility.yul\":1628:1634   */\n      dup3\n        /* \"#utility.yul\":1617:1626   */\n      dup9\n        /* \"#utility.yul\":1613:1635   */\n      add\n        /* \"#utility.yul\":1592:1645   */\n      tag_82\n      jump\t// in\n    tag_133:\n        /* \"#utility.yul\":1582:1645   */\n      swap3\n      pop\n        /* \"#utility.yul\":1537:1655   */\n      pop\n        /* \"#utility.yul\":1694:1696   */\n      0x60\n        /* \"#utility.yul\":1720:1773   */\n      tag_134\n        /* \"#utility.yul\":1765:1772   */\n      dup8\n        /* \"#utility.yul\":1756:1762   */\n      dup3\n        /* \"#utility.yul\":1745:1754   */\n      dup9\n        /* \"#utility.yul\":1741:1763   */\n      add\n        /* \"#utility.yul\":1720:1773   */\n      tag_82\n      jump\t// in\n    tag_134:\n        /* \"#utility.yul\":1710:1773   */\n      swap2\n      pop\n        /* \"#utility.yul\":1665:1783   */\n      pop\n        /* \"#utility.yul\":1025:1790   */\n      swap3\n      swap6\n      swap2\n      swap5\n      pop\n      swap3\n      pop\n      jump\t// out\n        /* \"#utility.yul\":1796:1922   */\n    tag_83:\n        /* \"#utility.yul\":1833:1840   */\n      0x00\n        /* \"#utility.yul\":1873:1915   */\n      0xffffffffffffffffffffffffffffffffffffffff\n        /* \"#utility.yul\":1866:1871   */\n      dup3\n        /* \"#utility.yul\":1862:1916   */\n      and\n        /* \"#utility.yul\":1851:1916   */\n      swap1\n      pop\n        /* \"#utility.yul\":1796:1922   */\n      swap2\n      swap1\n      pop\n      jump\t// out\n        /* \"#utility.yul\":1928:2024   */\n    tag_84:\n        /* \"#utility.yul\":1965:1972   */\n      0x00\n        /* \"#utility.yul\":1994:2018   */\n      tag_137\n        /* \"#utility.yul\":2012:2017   */\n      dup3\n        /* \"#utility.yul\":1994:2018   */\n      tag_83\n      jump\t// in\n    tag_137:\n        /* \"#utility.yul\":1983:2018   */\n      swap1\n      pop\n        /* \"#utility.yul\":1928:2024   */\n      swap2\n      swap1\n      pop\n      jump\t// out\n        /* \"#utility.yul\":2030:2148   */\n    tag_85:\n        /* \"#utility.yul\":2117:2141   */\n      tag_139\n        /* \"#utility.yul\":2135:2140   */\n      dup2\n        /* \"#utility.yul\":2117:2141   */\n      tag_84\n      jump\t// in\n    tag_139:\n        /* \"#utility.yul\":2112:2115   */\n      dup3\n        /* \"#utility.yul\":2105:2142   */\n      mstore\n        /* \"#utility.yul\":2030:2148   */\n      pop\n      pop\n      jump\t// out\n        /* \"#utility.yul\":2154:2376   */\n    tag_19:\n        /* \"#utility.yul\":2247:2251   */\n      0x00\n        /* \"#utility.yul\":2285:2287   */\n      0x20\n        /* \"#utility.yul\":2274:2283   */\n      dup3\n        /* \"#utility.yul\":2270:2288   */\n      add\n        /* \"#utility.yul\":2262:2288   */\n      swap1\n      pop\n        /* \"#utility.yul\":2298:2369   */\n      tag_141\n        /* \"#utility.yul\":2366:2367   */\n      0x00\n        /* \"#utility.yul\":2355:2364   */\n      dup4\n        /* \"#utility.yul\":2351:2368   */\n      add\n        /* \"#utility.yul\":2342:2348   */\n      dup5\n        /* \"#utility.yul\":2298:2369   */\n      tag_85\n      jump\t// in\n    tag_141:\n        /* \"#utility.yul\":2154:2376   */\n      swap3\n      swap2\n      pop\n      pop\n      jump\t// out\n        /* \"#utility.yul\":2382:2499   */\n    tag_86:\n        /* \"#utility.yul\":2491:2492   */\n      0x00\n        /* \"#utility.yul\":2488:2489   */\n      dup1\n        /* \"#utility.yul\":2481:2493   */\n      revert\n        /* \"#utility.yul\":2505:2607   */\n    tag_87:\n        /* \"#utility.yul\":2546:2552   */\n      0x00\n        /* \"#utility.yul\":2597:2599   */\n      0x1f\n        /* \"#utility.yul\":2593:2600   */\n      not\n        /* \"#utility.yul\":2588:2590   */\n      0x1f\n        /* \"#utility.yul\":2581:2586   */\n      dup4\n        /* \"#utility.yul\":2577:2591   */\n      add\n        /* \"#utility.yul\":2573:2601   */\n      and\n        /* \"#utility.yul\":2563:2601   */\n      swap1\n      pop\n        /* \"#utility.yul\":2505:2607   */\n      swap2\n      swap1\n      pop\n      jump\t// out\n        /* \"#utility.yul\":2613:2793   */\n    tag_32:\n        /* \"#utility.yul\":2661:2738   */\n      0x4e487b7100000000000000000000000000000000000000000000000000000000\n        /* \"#utility.yul\":2658:2659   */\n      0x00\n        /* \"#utility.yul\":2651:2739   */\n      mstore\n        /* \"#utility.yul\":2758:2762   */\n      0x41\n        /* \"#utility.yul\":2755:2756   */\n      0x04\n        /* \"#utility.yul\":2748:2763   */\n      mstore\n        /* \"#utility.yul\":2782:2786   */\n      0x24\n        /* \"#utility.yul\":2779:2780   */\n      0x00\n        /* \"#utility.yul\":2772:2787   */\n      revert\n        /* \"#utility.yul\":2799:3080   */\n    tag_88:\n        /* \"#utility.yul\":2882:2909   */\n      tag_146\n        /* \"#utility.yul\":2904:2908   */\n      dup3\n        /* \"#utility.yul\":2882:2909   */\n      tag_87\n      jump\t// in\n    tag_146:\n        /* \"#utility.yul\":2874:2880   */\n      dup2\n        /* \"#utility.yul\":2870:2910   */\n      add\n        /* \"#utility.yul\":3012:3018   */\n      dup2\n        /* \"#utility.yul\":3000:3010   */\n      dup2\n        /* \"#utility.yul\":2997:3019   */\n      lt\n        /* \"#utility.yul\":2976:2994   */\n      0xffffffffffffffff\n        /* \"#utility.yul\":2964:2974   */\n      dup3\n        /* \"#utility.yul\":2961:2995   */\n      gt\n        /* \"#utility.yul\":2958:3020   */\n      or\n        /* \"#utility.yul\":2955:3043   */\n      iszero\n      tag_147\n      jumpi\n        /* \"#utility.yul\":3023:3041   */\n      tag_148\n      tag_32\n      jump\t// in\n    tag_148:\n        /* \"#utility.yul\":2955:3043   */\n    tag_147:\n        /* \"#utility.yul\":3063:3073   */\n      dup1\n        /* \"#utility.yul\":3059:3061   */\n      0x40\n        /* \"#utility.yul\":3052:3074   */\n      mstore\n        /* \"#utility.yul\":2842:3080   */\n      pop\n        /* \"#utility.yul\":2799:3080   */\n      pop\n      pop\n      jump\t// out\n        /* \"#utility.yul\":3086:3215   */\n    tag_89:\n        /* \"#utility.yul\":3120:3126   */\n      0x00\n        /* \"#utility.yul\":3147:3167   */\n      tag_150\n      tag_77\n      jump\t// in\n    tag_150:\n        /* \"#utility.yul\":3137:3167   */\n      swap1\n      pop\n        /* \"#utility.yul\":3176:3209   */\n      tag_151\n        /* \"#utility.yul\":3204:3208   */\n      dup3\n        /* \"#utility.yul\":3196:3202   */\n      dup3\n        /* \"#utility.yul\":3176:3209   */\n      tag_88\n      jump\t// in\n    tag_151:\n        /* \"#utility.yul\":3086:3215   */\n      swap2\n      swap1\n      pop\n      jump\t// out\n        /* \"#utility.yul\":3344:3487   */\n    tag_91:\n        /* \"#utility.yul\":3401:3406   */\n      0x00\n        /* \"#utility.yul\":3432:3438   */\n      dup2\n        /* \"#utility.yul\":3426:3439   */\n      mload\n        /* \"#utility.yul\":3417:3439   */\n      swap1\n      pop\n        /* \"#utility.yul\":3448:3481   */\n      tag_154\n        /* \"#utility.yul\":3475:3480   */\n      dup2\n        /* \"#utility.yul\":3448:3481   */\n      tag_81\n      jump\t// in\n    tag_154:\n        /* \"#utility.yul\":3344:3487   */\n      swap3\n      swap2\n      pop\n      pop\n      jump\t// out\n        /* \"#utility.yul\":3528:4143   */\n    tag_92:\n        /* \"#utility.yul\":3613:3618   */\n      0x00\n        /* \"#utility.yul\":3657:3661   */\n      0x40\n        /* \"#utility.yul\":3645:3654   */\n      dup3\n        /* \"#utility.yul\":3640:3643   */\n      dup5\n        /* \"#utility.yul\":3636:3655   */\n      sub\n        /* \"#utility.yul\":3632:3662   */\n      slt\n        /* \"#utility.yul\":3629:3746   */\n      iszero\n      tag_156\n      jumpi\n        /* \"#utility.yul\":3665:3744   */\n      tag_157\n      tag_86\n      jump\t// in\n    tag_157:\n        /* \"#utility.yul\":3629:3746   */\n    tag_156:\n        /* \"#utility.yul\":3764:3785   */\n      tag_158\n        /* \"#utility.yul\":3780:3784   */\n      0x40\n        /* \"#utility.yul\":3764:3785   */\n      tag_89\n      jump\t// in\n    tag_158:\n        /* \"#utility.yul\":3755:3785   */\n      swap1\n      pop\n        /* \"#utility.yul\":3846:3847   */\n      0x00\n        /* \"#utility.yul\":3886:3946   */\n      tag_159\n        /* \"#utility.yul\":3942:3945   */\n      dup5\n        /* \"#utility.yul\":3933:3939   */\n      dup3\n        /* \"#utility.yul\":3922:3931   */\n      dup6\n        /* \"#utility.yul\":3918:3940   */\n      add\n        /* \"#utility.yul\":3886:3946   */\n      tag_91\n      jump\t// in\n    tag_159:\n        /* \"#utility.yul\":3879:3883   */\n      0x00\n        /* \"#utility.yul\":3872:3877   */\n      dup4\n        /* \"#utility.yul\":3868:3884   */\n      add\n        /* \"#utility.yul\":3861:3947   */\n      mstore\n        /* \"#utility.yul\":3795:3958   */\n      pop\n        /* \"#utility.yul\":4023:4025   */\n      0x20\n        /* \"#utility.yul\":4064:4124   */\n      tag_160\n        /* \"#utility.yul\":4120:4123   */\n      dup5\n        /* \"#utility.yul\":4111:4117   */\n      dup3\n        /* \"#utility.yul\":4100:4109   */\n      dup6\n        /* \"#utility.yul\":4096:4118   */\n      add\n        /* \"#utility.yul\":4064:4124   */\n      tag_91\n      jump\t// in\n    tag_160:\n        /* \"#utility.yul\":4057:4061   */\n      0x20\n        /* \"#utility.yul\":4050:4055   */\n      dup4\n        /* \"#utility.yul\":4046:4062   */\n      add\n        /* \"#utility.yul\":4039:4125   */\n      mstore\n        /* \"#utility.yul\":3968:4136   */\n      pop\n        /* \"#utility.yul\":3528:4143   */\n      swap3\n      swap2\n      pop\n      pop\n      jump\t// out\n        /* \"#utility.yul\":4149:4550   */\n    tag_23:\n        /* \"#utility.yul\":4244:4250   */\n      0x00\n        /* \"#utility.yul\":4293:4295   */\n      0x40\n        /* \"#utility.yul\":4281:4290   */\n      dup3\n        /* \"#utility.yul\":4272:4279   */\n      dup5\n        /* \"#utility.yul\":4268:4291   */\n      sub\n        /* \"#utility.yul\":4264:4296   */\n      slt\n        /* \"#utility.yul\":4261:4380   */\n      iszero\n      tag_162\n      jumpi\n        /* \"#utility.yul\":4299:4378   */\n      tag_163\n      tag_78\n      jump\t// in\n    tag_163:\n        /* \"#utility.yul\":4261:4380   */\n    tag_162:\n        /* \"#utility.yul\":4419:4420   */\n      0x00\n        /* \"#utility.yul\":4444:4533   */\n      tag_164\n        /* \"#utility.yul\":4525:4532   */\n      dup5\n        /* \"#utility.yul\":4516:4522   */\n      dup3\n        /* \"#utility.yul\":4505:4514   */\n      dup6\n        /* \"#utility.yul\":4501:4523   */\n      add\n        /* \"#utility.yul\":4444:4533   */\n      tag_92\n      jump\t// in\n    tag_164:\n        /* \"#utility.yul\":4434:4533   */\n      swap2\n      pop\n        /* \"#utility.yul\":4390:4543   */\n      pop\n        /* \"#utility.yul\":4149:4550   */\n      swap3\n      swap2\n      pop\n      pop\n      jump\t// out\n        /* \"#utility.yul\":4556:4674   */\n    tag_93:\n        /* \"#utility.yul\":4643:4667   */\n      tag_166\n        /* \"#utility.yul\":4661:4666   */\n      dup2\n        /* \"#utility.yul\":4643:4667   */\n      tag_80\n      jump\t// in\n    tag_166:\n        /* \"#utility.yul\":4638:4641   */\n      dup3\n        /* \"#utility.yul\":4631:4668   */\n      mstore\n        /* \"#utility.yul\":4556:4674   */\n      pop\n      pop\n      jump\t// out\n        /* \"#utility.yul\":4680:5012   */\n    tag_25:\n        /* \"#utility.yul\":4801:4805   */\n      0x00\n        /* \"#utility.yul\":4839:4841   */\n      0x40\n        /* \"#utility.yul\":4828:4837   */\n      dup3\n        /* \"#utility.yul\":4824:4842   */\n      add\n        /* \"#utility.yul\":4816:4842   */\n      swap1\n      pop\n        /* \"#utility.yul\":4852:4923   */\n      tag_168\n        /* \"#utility.yul\":4920:4921   */\n      0x00\n        /* \"#utility.yul\":4909:4918   */\n      dup4\n        /* \"#utility.yul\":4905:4922   */\n      add\n        /* \"#utility.yul\":4896:4902   */\n      dup6\n        /* \"#utility.yul\":4852:4923   */\n      tag_93\n      jump\t// in\n    tag_168:\n        /* \"#utility.yul\":4933:5005   */\n      tag_169\n        /* \"#utility.yul\":5001:5003   */\n      0x20\n        /* \"#utility.yul\":4990:4999   */\n      dup4\n        /* \"#utility.yul\":4986:5004   */\n      add\n        /* \"#utility.yul\":4977:4983   */\n      dup5\n        /* \"#utility.yul\":4933:5005   */\n      tag_93\n      jump\t// in\n    tag_169:\n        /* \"#utility.yul\":4680:5012   */\n      swap4\n      swap3\n      pop\n      pop\n      pop\n      jump\t// out\n        /* \"#utility.yul\":5018:5198   */\n    tag_36:\n        /* \"#utility.yul\":5066:5143   */\n      0x4e487b7100000000000000000000000000000000000000000000000000000000\n        /* \"#utility.yul\":5063:5064   */\n      0x00\n        /* \"#utility.yul\":5056:5144   */\n      mstore\n        /* \"#utility.yul\":5163:5167   */\n      0x32\n        /* \"#utility.yul\":5160:5161   */\n      0x04\n        /* \"#utility.yul\":5153:5168   */\n      mstore\n        /* \"#utility.yul\":5187:5191   */\n      0x24\n        /* \"#utility.yul\":5184:5185   */\n      0x00\n        /* \"#utility.yul\":5177:5192   */\n      revert\n        /* \"#utility.yul\":5204:5318   */\n    tag_94:\n        /* \"#utility.yul\":5271:5277   */\n      0x00\n        /* \"#utility.yul\":5305:5310   */\n      dup2\n        /* \"#utility.yul\":5299:5311   */\n      mload\n        /* \"#utility.yul\":5289:5311   */\n      swap1\n      pop\n        /* \"#utility.yul\":5204:5318   */\n      swap2\n      swap1\n      pop\n      jump\t// out\n        /* \"#utility.yul\":5324:5508   */\n    tag_95:\n        /* \"#utility.yul\":5423:5434   */\n      0x00\n        /* \"#utility.yul\":5457:5463   */\n      dup3\n        /* \"#utility.yul\":5452:5455   */\n      dup3\n        /* \"#utility.yul\":5445:5464   */\n      mstore\n        /* \"#utility.yul\":5497:5501   */\n      0x20\n        /* \"#utility.yul\":5492:5495   */\n      dup3\n        /* \"#utility.yul\":5488:5502   */\n      add\n        /* \"#utility.yul\":5473:5502   */\n      swap1\n      pop\n        /* \"#utility.yul\":5324:5508   */\n      swap3\n      swap2\n      pop\n      pop\n      jump\t// out\n        /* \"#utility.yul\":5514:5646   */\n    tag_96:\n        /* \"#utility.yul\":5581:5585   */\n      0x00\n        /* \"#utility.yul\":5604:5607   */\n      dup2\n        /* \"#utility.yul\":5596:5607   */\n      swap1\n      pop\n        /* \"#utility.yul\":5634:5638   */\n      0x20\n        /* \"#utility.yul\":5629:5632   */\n      dup3\n        /* \"#utility.yul\":5625:5639   */\n      add\n        /* \"#utility.yul\":5617:5639   */\n      swap1\n      pop\n        /* \"#utility.yul\":5514:5646   */\n      swap2\n      swap1\n      pop\n      jump\t// out\n        /* \"#utility.yul\":5652:5760   */\n    tag_97:\n        /* \"#utility.yul\":5729:5753   */\n      tag_175\n        /* \"#utility.yul\":5747:5752   */\n      dup2\n        /* \"#utility.yul\":5729:5753   */\n      tag_84\n      jump\t// in\n    tag_175:\n        /* \"#utility.yul\":5724:5727   */\n      dup3\n        /* \"#utility.yul\":5717:5754   */\n      mstore\n        /* \"#utility.yul\":5652:5760   */\n      pop\n      pop\n      jump\t// out\n        /* \"#utility.yul\":5766:5945   */\n    tag_98:\n        /* \"#utility.yul\":5835:5845   */\n      0x00\n        /* \"#utility.yul\":5856:5902   */\n      tag_177\n        /* \"#utility.yul\":5898:5901   */\n      dup4\n        /* \"#utility.yul\":5890:5896   */\n      dup4\n        /* \"#utility.yul\":5856:5902   */\n      tag_97\n      jump\t// in\n    tag_177:\n        /* \"#utility.yul\":5934:5938   */\n      0x20\n        /* \"#utility.yul\":5929:5932   */\n      dup4\n        /* \"#utility.yul\":5925:5939   */\n      add\n        /* \"#utility.yul\":5911:5939   */\n      swap1\n      pop\n        /* \"#utility.yul\":5766:5945   */\n      swap3\n      swap2\n      pop\n      pop\n      jump\t// out\n        /* \"#utility.yul\":5951:6064   */\n    tag_99:\n        /* \"#utility.yul\":6021:6025   */\n      0x00\n        /* \"#utility.yul\":6053:6057   */\n      0x20\n        /* \"#utility.yul\":6048:6051   */\n      dup3\n        /* \"#utility.yul\":6044:6058   */\n      add\n        /* \"#utility.yul\":6036:6058   */\n      swap1\n      pop\n        /* \"#utility.yul\":5951:6064   */\n      swap2\n      swap1\n      pop\n      jump\t// out\n        /* \"#utility.yul\":6100:6832   */\n    tag_100:\n        /* \"#utility.yul\":6219:6222   */\n      0x00\n        /* \"#utility.yul\":6248:6302   */\n      tag_180\n        /* \"#utility.yul\":6296:6301   */\n      dup3\n        /* \"#utility.yul\":6248:6302   */\n      tag_94\n      jump\t// in\n    tag_180:\n        /* \"#utility.yul\":6318:6404   */\n      tag_181\n        /* \"#utility.yul\":6397:6403   */\n      dup2\n        /* \"#utility.yul\":6392:6395   */\n      dup6\n        /* \"#utility.yul\":6318:6404   */\n      tag_95\n      jump\t// in\n    tag_181:\n        /* \"#utility.yul\":6311:6404   */\n      swap4\n      pop\n        /* \"#utility.yul\":6428:6484   */\n      tag_182\n        /* \"#utility.yul\":6478:6483   */\n      dup4\n        /* \"#utility.yul\":6428:6484   */\n      tag_96\n      jump\t// in\n    tag_182:\n        /* \"#utility.yul\":6507:6514   */\n      dup1\n        /* \"#utility.yul\":6538:6539   */\n      0x00\n        /* \"#utility.yul\":6523:6807   */\n    tag_183:\n        /* \"#utility.yul\":6548:6554   */\n      dup4\n        /* \"#utility.yul\":6545:6546   */\n      dup2\n        /* \"#utility.yul\":6542:6555   */\n      lt\n        /* \"#utility.yul\":6523:6807   */\n      iszero\n      tag_185\n      jumpi\n        /* \"#utility.yul\":6624:6630   */\n      dup2\n        /* \"#utility.yul\":6618:6631   */\n      mload\n        /* \"#utility.yul\":6651:6714   */\n      tag_186\n        /* \"#utility.yul\":6710:6713   */\n      dup9\n        /* \"#utility.yul\":6695:6708   */\n      dup3\n        /* \"#utility.yul\":6651:6714   */\n      tag_98\n      jump\t// in\n    tag_186:\n        /* \"#utility.yul\":6644:6714   */\n      swap8\n      pop\n        /* \"#utility.yul\":6737:6797   */\n      tag_187\n        /* \"#utility.yul\":6790:6796   */\n      dup4\n        /* \"#utility.yul\":6737:6797   */\n      tag_99\n      jump\t// in\n    tag_187:\n        /* \"#utility.yul\":6727:6797   */\n      swap3\n      pop\n        /* \"#utility.yul\":6583:6807   */\n      pop\n        /* \"#utility.yul\":6570:6571   */\n      0x01\n        /* \"#utility.yul\":6567:6568   */\n      dup2\n        /* \"#utility.yul\":6563:6572   */\n      add\n        /* \"#utility.yul\":6558:6572   */\n      swap1\n      pop\n        /* \"#utility.yul\":6523:6807   */\n      jump(tag_183)\n    tag_185:\n        /* \"#utility.yul\":6527:6541   */\n      pop\n        /* \"#utility.yul\":6823:6826   */\n      dup6\n        /* \"#utility.yul\":6816:6826   */\n      swap4\n      pop\n        /* \"#utility.yul\":6224:6832   */\n      pop\n      pop\n      pop\n        /* \"#utility.yul\":6100:6832   */\n      swap3\n      swap2\n      pop\n      pop\n      jump\t// out\n        /* \"#utility.yul\":6838:7542   */\n    tag_40:\n        /* \"#utility.yul\":7065:7069   */\n      0x00\n        /* \"#utility.yul\":7103:7106   */\n      0x80\n        /* \"#utility.yul\":7092:7101   */\n      dup3\n        /* \"#utility.yul\":7088:7107   */\n      add\n        /* \"#utility.yul\":7080:7107   */\n      swap1\n      pop\n        /* \"#utility.yul\":7117:7188   */\n      tag_189\n        /* \"#utility.yul\":7185:7186   */\n      0x00\n        /* \"#utility.yul\":7174:7183   */\n      dup4\n        /* \"#utility.yul\":7170:7187   */\n      add\n        /* \"#utility.yul\":7161:7167   */\n      dup8\n        /* \"#utility.yul\":7117:7188   */\n      tag_93\n      jump\t// in\n    tag_189:\n        /* \"#utility.yul\":7235:7244   */\n      dup2\n        /* \"#utility.yul\":7229:7233   */\n      dup2\n        /* \"#utility.yul\":7225:7245   */\n      sub\n        /* \"#utility.yul\":7220:7222   */\n      0x20\n        /* \"#utility.yul\":7209:7218   */\n      dup4\n        /* \"#utility.yul\":7205:7223   */\n      add\n        /* \"#utility.yul\":7198:7246   */\n      mstore\n        /* \"#utility.yul\":7263:7371   */\n      tag_190\n        /* \"#utility.yul\":7366:7370   */\n      dup2\n        /* \"#utility.yul\":7357:7363   */\n      dup7\n        /* \"#utility.yul\":7263:7371   */\n      tag_100\n      jump\t// in\n    tag_190:\n        /* \"#utility.yul\":7255:7371   */\n      swap1\n      pop\n        /* \"#utility.yul\":7381:7453   */\n      tag_191\n        /* \"#utility.yul\":7449:7451   */\n      0x40\n        /* \"#utility.yul\":7438:7447   */\n      dup4\n        /* \"#utility.yul\":7434:7452   */\n      add\n        /* \"#utility.yul\":7425:7431   */\n      dup6\n        /* \"#utility.yul\":7381:7453   */\n      tag_85\n      jump\t// in\n    tag_191:\n        /* \"#utility.yul\":7463:7535   */\n      tag_192\n        /* \"#utility.yul\":7531:7533   */\n      0x60\n        /* \"#utility.yul\":7520:7529   */\n      dup4\n        /* \"#utility.yul\":7516:7534   */\n      add\n        /* \"#utility.yul\":7507:7513   */\n      dup5\n        /* \"#utility.yul\":7463:7535   */\n      tag_93\n      jump\t// in\n    tag_192:\n        /* \"#utility.yul\":6838:7542   */\n      swap6\n      swap5\n      pop\n      pop\n      pop\n      pop\n      pop\n      jump\t// out\n        /* \"#utility.yul\":7548:7665   */\n    tag_101:\n        /* \"#utility.yul\":7657:7658   */\n      0x00\n        /* \"#utility.yul\":7654:7655   */\n      dup1\n        /* \"#utility.yul\":7647:7659   */\n      revert\n        /* \"#utility.yul\":7671:7982   */\n    tag_102:\n        /* \"#utility.yul\":7748:7752   */\n      0x00\n        /* \"#utility.yul\":7838:7856   */\n      0xffffffffffffffff\n        /* \"#utility.yul\":7830:7836   */\n      dup3\n        /* \"#utility.yul\":7827:7857   */\n      gt\n        /* \"#utility.yul\":7824:7880   */\n      iszero\n      tag_195\n      jumpi\n        /* \"#utility.yul\":7860:7878   */\n      tag_196\n      tag_32\n      jump\t// in\n    tag_196:\n        /* \"#utility.yul\":7824:7880   */\n    tag_195:\n        /* \"#utility.yul\":7910:7914   */\n      0x20\n        /* \"#utility.yul\":7902:7908   */\n      dup3\n        /* \"#utility.yul\":7898:7915   */\n      mul\n        /* \"#utility.yul\":7890:7915   */\n      swap1\n      pop\n        /* \"#utility.yul\":7970:7974   */\n      0x20\n        /* \"#utility.yul\":7964:7968   */\n      dup2\n        /* \"#utility.yul\":7960:7975   */\n      add\n        /* \"#utility.yul\":7952:7975   */\n      swap1\n      pop\n        /* \"#utility.yul\":7671:7982   */\n      swap2\n      swap1\n      pop\n      jump\t// out\n        /* \"#utility.yul\":7988:8105   */\n    tag_103:\n        /* \"#utility.yul\":8097:8098   */\n      0x00\n        /* \"#utility.yul\":8094:8095   */\n      dup1\n        /* \"#utility.yul\":8087:8099   */\n      revert\n        /* \"#utility.yul\":8128:8860   */\n    tag_104:\n        /* \"#utility.yul\":8235:8240   */\n      0x00\n        /* \"#utility.yul\":8260:8341   */\n      tag_199\n        /* \"#utility.yul\":8276:8340   */\n      tag_200\n        /* \"#utility.yul\":8333:8339   */\n      dup5\n        /* \"#utility.yul\":8276:8340   */\n      tag_102\n      jump\t// in\n    tag_200:\n        /* \"#utility.yul\":8260:8341   */\n      tag_89\n      jump\t// in\n    tag_199:\n        /* \"#utility.yul\":8251:8341   */\n      swap1\n      pop\n        /* \"#utility.yul\":8361:8366   */\n      dup1\n        /* \"#utility.yul\":8390:8396   */\n      dup4\n        /* \"#utility.yul\":8383:8388   */\n      dup3\n        /* \"#utility.yul\":8376:8397   */\n      mstore\n        /* \"#utility.yul\":8424:8428   */\n      0x20\n        /* \"#utility.yul\":8417:8422   */\n      dup3\n        /* \"#utility.yul\":8413:8429   */\n      add\n        /* \"#utility.yul\":8406:8429   */\n      swap1\n      pop\n        /* \"#utility.yul\":8477:8481   */\n      0x20\n        /* \"#utility.yul\":8469:8475   */\n      dup5\n        /* \"#utility.yul\":8465:8482   */\n      mul\n        /* \"#utility.yul\":8457:8463   */\n      dup4\n        /* \"#utility.yul\":8453:8483   */\n      add\n        /* \"#utility.yul\":8506:8509   */\n      dup6\n        /* \"#utility.yul\":8498:8504   */\n      dup2\n        /* \"#utility.yul\":8495:8510   */\n      gt\n        /* \"#utility.yul\":8492:8614   */\n      iszero\n      tag_201\n      jumpi\n        /* \"#utility.yul\":8525:8604   */\n      tag_202\n      tag_103\n      jump\t// in\n    tag_202:\n        /* \"#utility.yul\":8492:8614   */\n    tag_201:\n        /* \"#utility.yul\":8640:8646   */\n      dup4\n        /* \"#utility.yul\":8623:8854   */\n    tag_203:\n        /* \"#utility.yul\":8657:8663   */\n      dup2\n        /* \"#utility.yul\":8652:8655   */\n      dup2\n        /* \"#utility.yul\":8649:8664   */\n      lt\n        /* \"#utility.yul\":8623:8854   */\n      iszero\n      tag_205\n      jumpi\n        /* \"#utility.yul\":8732:8735   */\n      dup1\n        /* \"#utility.yul\":8761:8809   */\n      tag_206\n        /* \"#utility.yul\":8805:8808   */\n      dup9\n        /* \"#utility.yul\":8793:8803   */\n      dup3\n        /* \"#utility.yul\":8761:8809   */\n      tag_91\n      jump\t// in\n    tag_206:\n        /* \"#utility.yul\":8756:8759   */\n      dup5\n        /* \"#utility.yul\":8749:8810   */\n      mstore\n        /* \"#utility.yul\":8839:8843   */\n      0x20\n        /* \"#utility.yul\":8834:8837   */\n      dup5\n        /* \"#utility.yul\":8830:8844   */\n      add\n        /* \"#utility.yul\":8823:8844   */\n      swap4\n      pop\n        /* \"#utility.yul\":8699:8854   */\n      pop\n        /* \"#utility.yul\":8683:8687   */\n      0x20\n        /* \"#utility.yul\":8678:8681   */\n      dup2\n        /* \"#utility.yul\":8674:8688   */\n      add\n        /* \"#utility.yul\":8667:8688   */\n      swap1\n      pop\n        /* \"#utility.yul\":8623:8854   */\n      jump(tag_203)\n    tag_205:\n        /* \"#utility.yul\":8627:8648   */\n      pop\n        /* \"#utility.yul\":8241:8860   */\n      pop\n      pop\n        /* \"#utility.yul\":8128:8860   */\n      swap4\n      swap3\n      pop\n      pop\n      pop\n      jump\t// out\n        /* \"#utility.yul\":8883:9268   */\n    tag_105:\n        /* \"#utility.yul\":8965:8970   */\n      0x00\n        /* \"#utility.yul\":9014:9017   */\n      dup3\n        /* \"#utility.yul\":9007:9011   */\n      0x1f\n        /* \"#utility.yul\":8999:9005   */\n      dup4\n        /* \"#utility.yul\":8995:9012   */\n      add\n        /* \"#utility.yul\":8991:9018   */\n      slt\n        /* \"#utility.yul\":8981:9103   */\n      tag_208\n      jumpi\n        /* \"#utility.yul\":9022:9101   */\n      tag_209\n      tag_101\n      jump\t// in\n    tag_209:\n        /* \"#utility.yul\":8981:9103   */\n    tag_208:\n        /* \"#utility.yul\":9132:9138   */\n      dup2\n        /* \"#utility.yul\":9126:9139   */\n      mload\n        /* \"#utility.yul\":9157:9262   */\n      tag_210\n        /* \"#utility.yul\":9258:9261   */\n      dup5\n        /* \"#utility.yul\":9250:9256   */\n      dup3\n        /* \"#utility.yul\":9243:9247   */\n      0x20\n        /* \"#utility.yul\":9235:9241   */\n      dup7\n        /* \"#utility.yul\":9231:9248   */\n      add\n        /* \"#utility.yul\":9157:9262   */\n      tag_104\n      jump\t// in\n    tag_210:\n        /* \"#utility.yul\":9148:9262   */\n      swap2\n      pop\n        /* \"#utility.yul\":8971:9268   */\n      pop\n        /* \"#utility.yul\":8883:9268   */\n      swap3\n      swap2\n      pop\n      pop\n      jump\t// out\n        /* \"#utility.yul\":9274:9828   */\n    tag_44:\n        /* \"#utility.yul\":9369:9375   */\n      0x00\n        /* \"#utility.yul\":9418:9420   */\n      0x20\n        /* \"#utility.yul\":9406:9415   */\n      dup3\n        /* \"#utility.yul\":9397:9404   */\n      dup5\n        /* \"#utility.yul\":9393:9416   */\n      sub\n        /* \"#utility.yul\":9389:9421   */\n      slt\n        /* \"#utility.yul\":9386:9505   */\n      iszero\n      tag_212\n      jumpi\n        /* \"#utility.yul\":9424:9503   */\n      tag_213\n      tag_78\n      jump\t// in\n    tag_213:\n        /* \"#utility.yul\":9386:9505   */\n    tag_212:\n        /* \"#utility.yul\":9565:9566   */\n      0x00\n        /* \"#utility.yul\":9554:9563   */\n      dup3\n        /* \"#utility.yul\":9550:9567   */\n      add\n        /* \"#utility.yul\":9544:9568   */\n      mload\n        /* \"#utility.yul\":9595:9613   */\n      0xffffffffffffffff\n        /* \"#utility.yul\":9587:9593   */\n      dup2\n        /* \"#utility.yul\":9584:9614   */\n      gt\n        /* \"#utility.yul\":9581:9698   */\n      iszero\n      tag_214\n      jumpi\n        /* \"#utility.yul\":9617:9696   */\n      tag_215\n      tag_79\n      jump\t// in\n    tag_215:\n        /* \"#utility.yul\":9581:9698   */\n    tag_214:\n        /* \"#utility.yul\":9722:9811   */\n      tag_216\n        /* \"#utility.yul\":9803:9810   */\n      dup5\n        /* \"#utility.yul\":9794:9800   */\n      dup3\n        /* \"#utility.yul\":9783:9792   */\n      dup6\n        /* \"#utility.yul\":9779:9801   */\n      add\n        /* \"#utility.yul\":9722:9811   */\n      tag_105\n      jump\t// in\n    tag_216:\n        /* \"#utility.yul\":9712:9811   */\n      swap2\n      pop\n        /* \"#utility.yul\":9515:9821   */\n      pop\n        /* \"#utility.yul\":9274:9828   */\n      swap3\n      swap2\n      pop\n      pop\n      jump\t// out\n        /* \"#utility.yul\":9834:10166   */\n    tag_47:\n        /* \"#utility.yul\":9955:9959   */\n      0x00\n        /* \"#utility.yul\":9993:9995   */\n      0x40\n        /* \"#utility.yul\":9982:9991   */\n      dup3\n        /* \"#utility.yul\":9978:9996   */\n      add\n        /* \"#utility.yul\":9970:9996   */\n      swap1\n      pop\n        /* \"#utility.yul\":10006:10077   */\n      tag_218\n        /* \"#utility.yul\":10074:10075   */\n      0x00\n        /* \"#utility.yul\":10063:10072   */\n      dup4\n        /* \"#utility.yul\":10059:10076   */\n      add\n        /* \"#utility.yul\":10050:10056   */\n      dup6\n        /* \"#utility.yul\":10006:10077   */\n      tag_85\n      jump\t// in\n    tag_218:\n        /* \"#utility.yul\":10087:10159   */\n      tag_219\n        /* \"#utility.yul\":10155:10157   */\n      0x20\n        /* \"#utility.yul\":10144:10153   */\n      dup4\n        /* \"#utility.yul\":10140:10158   */\n      add\n        /* \"#utility.yul\":10131:10137   */\n      dup5\n        /* \"#utility.yul\":10087:10159   */\n      tag_93\n      jump\t// in\n    tag_219:\n        /* \"#utility.yul\":9834:10166   */\n      swap4\n      swap3\n      pop\n      pop\n      pop\n      jump\t// out\n        /* \"#utility.yul\":10172:10262   */\n    tag_106:\n        /* \"#utility.yul\":10206:10213   */\n      0x00\n        /* \"#utility.yul\":10249:10254   */\n      dup2\n        /* \"#utility.yul\":10242:10255   */\n      iszero\n        /* \"#utility.yul\":10235:10256   */\n      iszero\n        /* \"#utility.yul\":10224:10256   */\n      swap1\n      pop\n        /* \"#utility.yul\":10172:10262   */\n      swap2\n      swap1\n      pop\n      jump\t// out\n        /* \"#utility.yul\":10268:10384   */\n    tag_107:\n        /* \"#utility.yul\":10338:10359   */\n      tag_222\n        /* \"#utility.yul\":10353:10358   */\n      dup2\n        /* \"#utility.yul\":10338:10359   */\n      tag_106\n      jump\t// in\n    tag_222:\n        /* \"#utility.yul\":10331:10336   */\n      dup2\n        /* \"#utility.yul\":10328:10360   */\n      eq\n        /* \"#utility.yul\":10318:10378   */\n      tag_223\n      jumpi\n        /* \"#utility.yul\":10374:10375   */\n      0x00\n        /* \"#utility.yul\":10371:10372   */\n      dup1\n        /* \"#utility.yul\":10364:10376   */\n      revert\n        /* \"#utility.yul\":10318:10378   */\n    tag_223:\n        /* \"#utility.yul\":10268:10384   */\n      pop\n      jump\t// out\n        /* \"#utility.yul\":10390:10527   */\n    tag_108:\n        /* \"#utility.yul\":10444:10449   */\n      0x00\n        /* \"#utility.yul\":10475:10481   */\n      dup2\n        /* \"#utility.yul\":10469:10482   */\n      mload\n        /* \"#utility.yul\":10460:10482   */\n      swap1\n      pop\n        /* \"#utility.yul\":10491:10521   */\n      tag_225\n        /* \"#utility.yul\":10515:10520   */\n      dup2\n        /* \"#utility.yul\":10491:10521   */\n      tag_107\n      jump\t// in\n    tag_225:\n        /* \"#utility.yul\":10390:10527   */\n      swap3\n      swap2\n      pop\n      pop\n      jump\t// out\n        /* \"#utility.yul\":10533:10878   */\n    tag_51:\n        /* \"#utility.yul\":10600:10606   */\n      0x00\n        /* \"#utility.yul\":10649:10651   */\n      0x20\n        /* \"#utility.yul\":10637:10646   */\n      dup3\n        /* \"#utility.yul\":10628:10635   */\n      dup5\n        /* \"#utility.yul\":10624:10647   */\n      sub\n        /* \"#utility.yul\":10620:10652   */\n      slt\n        /* \"#utility.yul\":10617:10736   */\n      iszero\n      tag_227\n      jumpi\n        /* \"#utility.yul\":10655:10734   */\n      tag_228\n      tag_78\n      jump\t// in\n    tag_228:\n        /* \"#utility.yul\":10617:10736   */\n    tag_227:\n        /* \"#utility.yul\":10775:10776   */\n      0x00\n        /* \"#utility.yul\":10800:10861   */\n      tag_229\n        /* \"#utility.yul\":10853:10860   */\n      dup5\n        /* \"#utility.yul\":10844:10850   */\n      dup3\n        /* \"#utility.yul\":10833:10842   */\n      dup6\n        /* \"#utility.yul\":10829:10851   */\n      add\n        /* \"#utility.yul\":10800:10861   */\n      tag_108\n      jump\t// in\n    tag_229:\n        /* \"#utility.yul\":10790:10861   */\n      swap2\n      pop\n        /* \"#utility.yul\":10746:10871   */\n      pop\n        /* \"#utility.yul\":10533:10878   */\n      swap3\n      swap2\n      pop\n      pop\n      jump\t// out\n        /* \"#utility.yul\":10884:11326   */\n    tag_53:\n        /* \"#utility.yul\":11033:11037   */\n      0x00\n        /* \"#utility.yul\":11071:11073   */\n      0x60\n        /* \"#utility.yul\":11060:11069   */\n      dup3\n        /* \"#utility.yul\":11056:11074   */\n      add\n        /* \"#utility.yul\":11048:11074   */\n      swap1\n      pop\n        /* \"#utility.yul\":11084:11155   */\n      tag_231\n        /* \"#utility.yul\":11152:11153   */\n      0x00\n        /* \"#utility.yul\":11141:11150   */\n      dup4\n        /* \"#utility.yul\":11137:11154   */\n      add\n        /* \"#utility.yul\":11128:11134   */\n      dup7\n        /* \"#utility.yul\":11084:11155   */\n      tag_85\n      jump\t// in\n    tag_231:\n        /* \"#utility.yul\":11165:11237   */\n      tag_232\n        /* \"#utility.yul\":11233:11235   */\n      0x20\n        /* \"#utility.yul\":11222:11231   */\n      dup4\n        /* \"#utility.yul\":11218:11236   */\n      add\n        /* \"#utility.yul\":11209:11215   */\n      dup6\n        /* \"#utility.yul\":11165:11237   */\n      tag_85\n      jump\t// in\n    tag_232:\n        /* \"#utility.yul\":11247:11319   */\n      tag_233\n        /* \"#utility.yul\":11315:11317   */\n      0x40\n        /* \"#utility.yul\":11304:11313   */\n      dup4\n        /* \"#utility.yul\":11300:11318   */\n      add\n        /* \"#utility.yul\":11291:11297   */\n      dup5\n        /* \"#utility.yul\":11247:11319   */\n      tag_93\n      jump\t// in\n    tag_233:\n        /* \"#utility.yul\":10884:11326   */\n      swap5\n      swap4\n      pop\n      pop\n      pop\n      pop\n      jump\t// out\n        /* \"#utility.yul\":11332:11501   */\n    tag_109:\n        /* \"#utility.yul\":11416:11427   */\n      0x00\n        /* \"#utility.yul\":11450:11456   */\n      dup3\n        /* \"#utility.yul\":11445:11448   */\n      dup3\n        /* \"#utility.yul\":11438:11457   */\n      mstore\n        /* \"#utility.yul\":11490:11494   */\n      0x20\n        /* \"#utility.yul\":11485:11488   */\n      dup3\n        /* \"#utility.yul\":11481:11495   */\n      add\n        /* \"#utility.yul\":11466:11495   */\n      swap1\n      pop\n        /* \"#utility.yul\":11332:11501   */\n      swap3\n      swap2\n      pop\n      pop\n      jump\t// out\n        /* \"#utility.yul\":11507:11679   */\n    tag_110:\n        /* \"#utility.yul\":11647:11671   */\n      0x6d746f6b656e207472616e73666572206572726f722100000000000000000000\n        /* \"#utility.yul\":11643:11644   */\n      0x00\n        /* \"#utility.yul\":11635:11641   */\n      dup3\n        /* \"#utility.yul\":11631:11645   */\n      add\n        /* \"#utility.yul\":11624:11672   */\n      mstore\n        /* \"#utility.yul\":11507:11679   */\n      pop\n      jump\t// out\n        /* \"#utility.yul\":11685:12051   */\n    tag_111:\n        /* \"#utility.yul\":11827:11830   */\n      0x00\n        /* \"#utility.yul\":11848:11915   */\n      tag_237\n        /* \"#utility.yul\":11912:11914   */\n      0x16\n        /* \"#utility.yul\":11907:11910   */\n      dup4\n        /* \"#utility.yul\":11848:11915   */\n      tag_109\n      jump\t// in\n    tag_237:\n        /* \"#utility.yul\":11841:11915   */\n      swap2\n      pop\n        /* \"#utility.yul\":11924:12017   */\n      tag_238\n        /* \"#utility.yul\":12013:12016   */\n      dup3\n        /* \"#utility.yul\":11924:12017   */\n      tag_110\n      jump\t// in\n    tag_238:\n        /* \"#utility.yul\":12042:12044   */\n      0x20\n        /* \"#utility.yul\":12037:12040   */\n      dup3\n        /* \"#utility.yul\":12033:12045   */\n      add\n        /* \"#utility.yul\":12026:12045   */\n      swap1\n      pop\n        /* \"#utility.yul\":11685:12051   */\n      swap2\n      swap1\n      pop\n      jump\t// out\n        /* \"#utility.yul\":12057:12476   */\n    tag_59:\n        /* \"#utility.yul\":12223:12227   */\n      0x00\n        /* \"#utility.yul\":12261:12263   */\n      0x20\n        /* \"#utility.yul\":12250:12259   */\n      dup3\n        /* \"#utility.yul\":12246:12264   */\n      add\n        /* \"#utility.yul\":12238:12264   */\n      swap1\n      pop\n        /* \"#utility.yul\":12310:12319   */\n      dup2\n        /* \"#utility.yul\":12304:12308   */\n      dup2\n        /* \"#utility.yul\":12300:12320   */\n      sub\n        /* \"#utility.yul\":12296:12297   */\n      0x00\n        /* \"#utility.yul\":12285:12294   */\n      dup4\n        /* \"#utility.yul\":12281:12298   */\n      add\n        /* \"#utility.yul\":12274:12321   */\n      mstore\n        /* \"#utility.yul\":12338:12469   */\n      tag_240\n        /* \"#utility.yul\":12464:12468   */\n      dup2\n        /* \"#utility.yul\":12338:12469   */\n      tag_111\n      jump\t// in\n    tag_240:\n        /* \"#utility.yul\":12330:12469   */\n      swap1\n      pop\n        /* \"#utility.yul\":12057:12476   */\n      swap2\n      swap1\n      pop\n      jump\t// out\n        /* \"#utility.yul\":12482:12711   */\n    tag_112:\n        /* \"#utility.yul\":12622:12656   */\n      0x6d73672e76616c75652073686f756c642062696767676572207468616e20616d\n        /* \"#utility.yul\":12618:12619   */\n      0x00\n        /* \"#utility.yul\":12610:12616   */\n      dup3\n        /* \"#utility.yul\":12606:12620   */\n      add\n        /* \"#utility.yul\":12599:12657   */\n      mstore\n        /* \"#utility.yul\":12691:12703   */\n      0x6f756e744554484d696e00000000000000000000000000000000000000000000\n        /* \"#utility.yul\":12686:12688   */\n      0x20\n        /* \"#utility.yul\":12678:12684   */\n      dup3\n        /* \"#utility.yul\":12674:12689   */\n      add\n        /* \"#utility.yul\":12667:12704   */\n      mstore\n        /* \"#utility.yul\":12482:12711   */\n      pop\n      jump\t// out\n        /* \"#utility.yul\":12717:13083   */\n    tag_113:\n        /* \"#utility.yul\":12859:12862   */\n      0x00\n        /* \"#utility.yul\":12880:12947   */\n      tag_243\n        /* \"#utility.yul\":12944:12946   */\n      0x2a\n        /* \"#utility.yul\":12939:12942   */\n      dup4\n        /* \"#utility.yul\":12880:12947   */\n      tag_109\n      jump\t// in\n    tag_243:\n        /* \"#utility.yul\":12873:12947   */\n      swap2\n      pop\n        /* \"#utility.yul\":12956:13049   */\n      tag_244\n        /* \"#utility.yul\":13045:13048   */\n      dup3\n        /* \"#utility.yul\":12956:13049   */\n      tag_112\n      jump\t// in\n    tag_244:\n        /* \"#utility.yul\":13074:13076   */\n      0x40\n        /* \"#utility.yul\":13069:13072   */\n      dup3\n        /* \"#utility.yul\":13065:13077   */\n      add\n        /* \"#utility.yul\":13058:13077   */\n      swap1\n      pop\n        /* \"#utility.yul\":12717:13083   */\n      swap2\n      swap1\n      pop\n      jump\t// out\n        /* \"#utility.yul\":13089:13508   */\n    tag_62:\n        /* \"#utility.yul\":13255:13259   */\n      0x00\n        /* \"#utility.yul\":13293:13295   */\n      0x20\n        /* \"#utility.yul\":13282:13291   */\n      dup3\n        /* \"#utility.yul\":13278:13296   */\n      add\n        /* \"#utility.yul\":13270:13296   */\n      swap1\n      pop\n        /* \"#utility.yul\":13342:13351   */\n      dup2\n        /* \"#utility.yul\":13336:13340   */\n      dup2\n        /* \"#utility.yul\":13332:13352   */\n      sub\n        /* \"#utility.yul\":13328:13329   */\n      0x00\n        /* \"#utility.yul\":13317:13326   */\n      dup4\n        /* \"#utility.yul\":13313:13330   */\n      add\n        /* \"#utility.yul\":13306:13353   */\n      mstore\n        /* \"#utility.yul\":13370:13501   */\n      tag_246\n        /* \"#utility.yul\":13496:13500   */\n      dup2\n        /* \"#utility.yul\":13370:13501   */\n      tag_113\n      jump\t// in\n    tag_246:\n        /* \"#utility.yul\":13362:13501   */\n      swap1\n      pop\n        /* \"#utility.yul\":13089:13508   */\n      swap2\n      swap1\n      pop\n      jump\t// out\n        /* \"#utility.yul\":13514:14289   */\n    tag_64:\n        /* \"#utility.yul\":13747:13751   */\n      0x00\n        /* \"#utility.yul\":13785:13788   */\n      0xc0\n        /* \"#utility.yul\":13774:13783   */\n      dup3\n        /* \"#utility.yul\":13770:13789   */\n      add\n        /* \"#utility.yul\":13762:13789   */\n      swap1\n      pop\n        /* \"#utility.yul\":13799:13870   */\n      tag_248\n        /* \"#utility.yul\":13867:13868   */\n      0x00\n        /* \"#utility.yul\":13856:13865   */\n      dup4\n        /* \"#utility.yul\":13852:13869   */\n      add\n        /* \"#utility.yul\":13843:13849   */\n      dup10\n        /* \"#utility.yul\":13799:13870   */\n      tag_85\n      jump\t// in\n    tag_248:\n        /* \"#utility.yul\":13880:13952   */\n      tag_249\n        /* \"#utility.yul\":13948:13950   */\n      0x20\n        /* \"#utility.yul\":13937:13946   */\n      dup4\n        /* \"#utility.yul\":13933:13951   */\n      add\n        /* \"#utility.yul\":13924:13930   */\n      dup9\n        /* \"#utility.yul\":13880:13952   */\n      tag_93\n      jump\t// in\n    tag_249:\n        /* \"#utility.yul\":13962:14034   */\n      tag_250\n        /* \"#utility.yul\":14030:14032   */\n      0x40\n        /* \"#utility.yul\":14019:14028   */\n      dup4\n        /* \"#utility.yul\":14015:14033   */\n      add\n        /* \"#utility.yul\":14006:14012   */\n      dup8\n        /* \"#utility.yul\":13962:14034   */\n      tag_93\n      jump\t// in\n    tag_250:\n        /* \"#utility.yul\":14044:14116   */\n      tag_251\n        /* \"#utility.yul\":14112:14114   */\n      0x60\n        /* \"#utility.yul\":14101:14110   */\n      dup4\n        /* \"#utility.yul\":14097:14115   */\n      add\n        /* \"#utility.yul\":14088:14094   */\n      dup7\n        /* \"#utility.yul\":14044:14116   */\n      tag_93\n      jump\t// in\n    tag_251:\n        /* \"#utility.yul\":14126:14199   */\n      tag_252\n        /* \"#utility.yul\":14194:14197   */\n      0x80\n        /* \"#utility.yul\":14183:14192   */\n      dup4\n        /* \"#utility.yul\":14179:14198   */\n      add\n        /* \"#utility.yul\":14170:14176   */\n      dup6\n        /* \"#utility.yul\":14126:14199   */\n      tag_85\n      jump\t// in\n    tag_252:\n        /* \"#utility.yul\":14209:14282   */\n      tag_253\n        /* \"#utility.yul\":14277:14280   */\n      0xa0\n        /* \"#utility.yul\":14266:14275   */\n      dup4\n        /* \"#utility.yul\":14262:14281   */\n      add\n        /* \"#utility.yul\":14253:14259   */\n      dup5\n        /* \"#utility.yul\":14209:14282   */\n      tag_93\n      jump\t// in\n    tag_253:\n        /* \"#utility.yul\":13514:14289   */\n      swap8\n      swap7\n      pop\n      pop\n      pop\n      pop\n      pop\n      pop\n      pop\n      jump\t// out\n        /* \"#utility.yul\":14295:14958   */\n    tag_68:\n        /* \"#utility.yul\":14383:14389   */\n      0x00\n        /* \"#utility.yul\":14391:14397   */\n      dup1\n        /* \"#utility.yul\":14399:14405   */\n      0x00\n        /* \"#utility.yul\":14448:14450   */\n      0x60\n        /* \"#utility.yul\":14436:14445   */\n      dup5\n        /* \"#utility.yul\":14427:14434   */\n      dup7\n        /* \"#utility.yul\":14423:14446   */\n      sub\n        /* \"#utility.yul\":14419:14451   */\n      slt\n        /* \"#utility.yul\":14416:14535   */\n      iszero\n      tag_255\n      jumpi\n        /* \"#utility.yul\":14454:14533   */\n      tag_256\n      tag_78\n      jump\t// in\n    tag_256:\n        /* \"#utility.yul\":14416:14535   */\n    tag_255:\n        /* \"#utility.yul\":14574:14575   */\n      0x00\n        /* \"#utility.yul\":14599:14663   */\n      tag_257\n        /* \"#utility.yul\":14655:14662   */\n      dup7\n        /* \"#utility.yul\":14646:14652   */\n      dup3\n        /* \"#utility.yul\":14635:14644   */\n      dup8\n        /* \"#utility.yul\":14631:14653   */\n      add\n        /* \"#utility.yul\":14599:14663   */\n      tag_91\n      jump\t// in\n    tag_257:\n        /* \"#utility.yul\":14589:14663   */\n      swap4\n      pop\n        /* \"#utility.yul\":14545:14673   */\n      pop\n        /* \"#utility.yul\":14712:14714   */\n      0x20\n        /* \"#utility.yul\":14738:14802   */\n      tag_258\n        /* \"#utility.yul\":14794:14801   */\n      dup7\n        /* \"#utility.yul\":14785:14791   */\n      dup3\n        /* \"#utility.yul\":14774:14783   */\n      dup8\n        /* \"#utility.yul\":14770:14792   */\n      add\n        /* \"#utility.yul\":14738:14802   */\n      tag_91\n      jump\t// in\n    tag_258:\n        /* \"#utility.yul\":14728:14802   */\n      swap3\n      pop\n        /* \"#utility.yul\":14683:14812   */\n      pop\n        /* \"#utility.yul\":14851:14853   */\n      0x40\n        /* \"#utility.yul\":14877:14941   */\n      tag_259\n        /* \"#utility.yul\":14933:14940   */\n      dup7\n        /* \"#utility.yul\":14924:14930   */\n      dup3\n        /* \"#utility.yul\":14913:14922   */\n      dup8\n        /* \"#utility.yul\":14909:14931   */\n      add\n        /* \"#utility.yul\":14877:14941   */\n      tag_91\n      jump\t// in\n    tag_259:\n        /* \"#utility.yul\":14867:14941   */\n      swap2\n      pop\n        /* \"#utility.yul\":14822:14951   */\n      pop\n        /* \"#utility.yul\":14295:14958   */\n      swap3\n      pop\n      swap3\n      pop\n      swap3\n      jump\t// out\n\n    auxdata: 0xa2646970667358221220644d0befe3c5cbf4c12a54f85b1c0d2500833a3d435e410fd03e28bb89acacf964736f6c634300080d0033\n}\n",
				"bytecode": {
					"linkReferences": {},
					"object": "6080604052737a250d5630b4cf539739df2c5dacb4c659f2488d6000806101000a81548173ffffffffffffffffffffffffffffffffffffffff021916908373ffffffffffffffffffffffffffffffffffffffff16021790555073c778417e063141139fce010982780140aa0cd5ab600160006101000a81548173ffffffffffffffffffffffffffffffffffffffff021916908373ffffffffffffffffffffffffffffffffffffffff16021790555073549f978c19a5ac86d906052639e317b57724ef44600260006101000a81548173ffffffffffffffffffffffffffffffffffffffff021916908373ffffffffffffffffffffffffffffffffffffffff16021790555073f42a08c0ea66ee4a474336087a6c17e9ea6c9de9600360006101000a81548173ffffffffffffffffffffffffffffffffffffffff021916908373ffffffffffffffffffffffffffffffffffffffff16021790555073d9dfa8c6b37cfdf16668fe0465896f4a1b9b2c4f600460006101000a81548173ffffffffffffffffffffffffffffffffffffffff021916908373ffffffffffffffffffffffffffffffffffffffff16021790555060008054906101000a900473ffffffffffffffffffffffffffffffffffffffff16600560006101000a81548173ffffffffffffffffffffffffffffffffffffffff021916908373ffffffffffffffffffffffffffffffffffffffff160217905550600260009054906101000a900473ffffffffffffffffffffffffffffffffffffffff16600660006101000a81548173ffffffffffffffffffffffffffffffffffffffff021916908373ffffffffffffffffffffffffffffffffffffffff160217905550600460009054906101000a900473ffffffffffffffffffffffffffffffffffffffff16600760006101000a81548173ffffffffffffffffffffffffffffffffffffffff021916908373ffffffffffffffffffffffffffffffffffffffff1602179055503480156102df57600080fd5b50610f67806102ef6000396000f3fe6080604052600436106100345760003560e01c80632e1a7d4d14610039578063a93f74e014610062578063aebf3e411461007e575b600080fd5b34801561004557600080fd5b50610060600480360381019061005b919061080f565b61009a565b005b61007c6004803603810190610077919061080f565b6101d0565b005b6100986004803603810190610093919061083c565b6103af565b005b6000600760009054906101000a900473ffffffffffffffffffffffffffffffffffffffff1673ffffffffffffffffffffffffffffffffffffffff16631959a002336040518263ffffffff1660e01b81526004016100f791906108e4565b6040805180830381865afa158015610113573d6000803e3d6000fd5b505050506040513d601f19601f8201168201806040525081019061013791906109f5565b9050600760009054906101000a900473ffffffffffffffffffffffffffffffffffffffff1673ffffffffffffffffffffffffffffffffffffffff1663441a3e708383600001516040518363ffffffff1660e01b815260040161019a929190610a31565b600060405180830381600087803b1580156101b457600080fd5b505af11580156101c8573d6000803e3d6000fd5b505050505050565b6000600267ffffffffffffffff8111156101ed576101ec610915565b5b60405190808252806020026020018201604052801561021b5781602001602082028036833780820191505090505b509050600160009054906101000a900473ffffffffffffffffffffffffffffffffffffffff168160008151811061025557610254610a5a565b5b602002602001019073ffffffffffffffffffffffffffffffffffffffff16908173ffffffffffffffffffffffffffffffffffffffff1681525050600260009054906101000a900473ffffffffffffffffffffffffffffffffffffffff16816001815181106102c6576102c5610a5a565b5b602002602001019073ffffffffffffffffffffffffffffffffffffffff16908173ffffffffffffffffffffffffffffffffffffffff1681525050600560009054906101000a900473ffffffffffffffffffffffffffffffffffffffff1673ffffffffffffffffffffffffffffffffffffffff16637ff36ab534848433426040518663ffffffff1660e01b81526004016103629493929190610b47565b60006040518083038185885af1158015610380573d6000803e3d6000fd5b50505050506040513d6000823e3d601f19601f820116820180604052508101906103aa9190610c60565b505050565b600660009054906101000a900473ffffffffffffffffffffffffffffffffffffffff1673ffffffffffffffffffffffffffffffffffffffff1663095ea7b3600560009054906101000a900473ffffffffffffffffffffffffffffffffffffffff16866040518363ffffffff1660e01b815260040161042e929190610ca9565b6020604051808303816000875af115801561044d573d6000803e3d6000fd5b505050506040513d601f19601f820116820180604052508101906104719190610d0a565b506000600660009054906101000a900473ffffffffffffffffffffffffffffffffffffffff1673ffffffffffffffffffffffffffffffffffffffff166323b872dd3330886040518463ffffffff1660e01b81526004016104d393929190610d37565b6020604051808303816000875af11580156104f2573d6000803e3d6000fd5b505050506040513d601f19601f820116820180604052508101906105169190610d0a565b905080610558576040517f08c379a000000000000000000000000000000000000000000000000000000000815260040161054f90610dcb565b60405180910390fd5b82341161059a576040517f08c379a000000000000000000000000000000000000000000000000000000000815260040161059190610e5d565b60405180910390fd5b6000600560009054906101000a900473ffffffffffffffffffffffffffffffffffffffff1673ffffffffffffffffffffffffffffffffffffffff1663f305d71934600260009054906101000a900473ffffffffffffffffffffffffffffffffffffffff1689898933426040518863ffffffff1660e01b815260040161062496959493929190610e7d565b60606040518083038185885af1158015610642573d6000803e3d6000fd5b50505050506040513d601f19601f820116820180604052508101906106679190610ede565b50509050600660009054906101000a900473ffffffffffffffffffffffffffffffffffffffff1673ffffffffffffffffffffffffffffffffffffffff1663095ea7b3600460009054906101000a900473ffffffffffffffffffffffffffffffffffffffff16886040518363ffffffff1660e01b81526004016106ea929190610ca9565b6020604051808303816000875af1158015610709573d6000803e3d6000fd5b505050506040513d601f19601f8201168201806040525081019061072d9190610d0a565b50600760009054906101000a900473ffffffffffffffffffffffffffffffffffffffff1673ffffffffffffffffffffffffffffffffffffffff1663e2bbb15884836040518363ffffffff1660e01b815260040161078b929190610a31565b600060405180830381600087803b1580156107a557600080fd5b505af11580156107b9573d6000803e3d6000fd5b50505050505050505050565b6000604051905090565b600080fd5b600080fd5b6000819050919050565b6107ec816107d9565b81146107f757600080fd5b50565b600081359050610809816107e3565b92915050565b600060208284031215610825576108246107cf565b5b6000610833848285016107fa565b91505092915050565b60008060008060808587031215610856576108556107cf565b5b6000610864878288016107fa565b9450506020610875878288016107fa565b9350506040610886878288016107fa565b9250506060610897878288016107fa565b91505092959194509250565b600073ffffffffffffffffffffffffffffffffffffffff82169050919050565b60006108ce826108a3565b9050919050565b6108de816108c3565b82525050565b60006020820190506108f960008301846108d5565b92915050565b600080fd5b6000601f19601f8301169050919050565b7f4e487b7100000000000000000000000000000000000000000000000000000000600052604160045260246000fd5b61094d82610904565b810181811067ffffffffffffffff8211171561096c5761096b610915565b5b80604052505050565b600061097f6107c5565b905061098b8282610944565b919050565b60008151905061099f816107e3565b92915050565b6000604082840312156109bb576109ba6108ff565b5b6109c56040610975565b905060006109d584828501610990565b60008301525060206109e984828501610990565b60208301525092915050565b600060408284031215610a0b57610a0a6107cf565b5b6000610a19848285016109a5565b91505092915050565b610a2b816107d9565b82525050565b6000604082019050610a466000830185610a22565b610a536020830184610a22565b9392505050565b7f4e487b7100000000000000000000000000000000000000000000000000000000600052603260045260246000fd5b600081519050919050565b600082825260208201905092915050565b6000819050602082019050919050565b610abe816108c3565b82525050565b6000610ad08383610ab5565b60208301905092915050565b6000602082019050919050565b6000610af482610a89565b610afe8185610a94565b9350610b0983610aa5565b8060005b83811015610b3a578151610b218882610ac4565b9750610b2c83610adc565b925050600181019050610b0d565b5085935050505092915050565b6000608082019050610b5c6000830187610a22565b8181036020830152610b6e8186610ae9565b9050610b7d60408301856108d5565b610b8a6060830184610a22565b95945050505050565b600080fd5b600067ffffffffffffffff821115610bb357610bb2610915565b5b602082029050602081019050919050565b600080fd5b6000610bdc610bd784610b98565b610975565b90508083825260208201905060208402830185811115610bff57610bfe610bc4565b5b835b81811015610c285780610c148882610990565b845260208401935050602081019050610c01565b5050509392505050565b600082601f830112610c4757610c46610b93565b5b8151610c57848260208601610bc9565b91505092915050565b600060208284031215610c7657610c756107cf565b5b600082015167ffffffffffffffff811115610c9457610c936107d4565b5b610ca084828501610c32565b91505092915050565b6000604082019050610cbe60008301856108d5565b610ccb6020830184610a22565b9392505050565b60008115159050919050565b610ce781610cd2565b8114610cf257600080fd5b50565b600081519050610d0481610cde565b92915050565b600060208284031215610d2057610d1f6107cf565b5b6000610d2e84828501610cf5565b91505092915050565b6000606082019050610d4c60008301866108d5565b610d5960208301856108d5565b610d666040830184610a22565b949350505050565b600082825260208201905092915050565b7f6d746f6b656e207472616e73666572206572726f722100000000000000000000600082015250565b6000610db5601683610d6e565b9150610dc082610d7f565b602082019050919050565b60006020820190508181036000830152610de481610da8565b9050919050565b7f6d73672e76616c75652073686f756c642062696767676572207468616e20616d60008201527f6f756e744554484d696e00000000000000000000000000000000000000000000602082015250565b6000610e47602a83610d6e565b9150610e5282610deb565b604082019050919050565b60006020820190508181036000830152610e7681610e3a565b9050919050565b600060c082019050610e9260008301896108d5565b610e9f6020830188610a22565b610eac6040830187610a22565b610eb96060830186610a22565b610ec660808301856108d5565b610ed360a0830184610a22565b979650505050505050565b600080600060608486031215610ef757610ef66107cf565b5b6000610f0586828701610990565b9350506020610f1686828701610990565b9250506040610f2786828701610990565b915050925092509256fea2646970667358221220644d0befe3c5cbf4c12a54f85b1c0d2500833a3d435e410fd03e28bb89acacf964736f6c634300080d0033",
					"opcodes": "PUSH1 0x80 PUSH1 0x40 MSTORE PUSH20 0x7A250D5630B4CF539739DF2C5DACB4C659F2488D PUSH1 0x0 DUP1 PUSH2 0x100 EXP DUP2 SLOAD DUP2 PUSH20 0xFFFFFFFFFFFFFFFFFFFFFFFFFFFFFFFFFFFFFFFF MUL NOT AND SWAP1 DUP4 PUSH20 0xFFFFFFFFFFFFFFFFFFFFFFFFFFFFFFFFFFFFFFFF AND MUL OR SWAP1 SSTORE POP PUSH20 0xC778417E063141139FCE010982780140AA0CD5AB PUSH1 0x1 PUSH1 0x0 PUSH2 0x100 EXP DUP2 SLOAD DUP2 PUSH20 0xFFFFFFFFFFFFFFFFFFFFFFFFFFFFFFFFFFFFFFFF MUL NOT AND SWAP1 DUP4 PUSH20 0xFFFFFFFFFFFFFFFFFFFFFFFFFFFFFFFFFFFFFFFF AND MUL OR SWAP1 SSTORE POP PUSH20 0x549F978C19A5AC86D906052639E317B57724EF44 PUSH1 0x2 PUSH1 0x0 PUSH2 0x100 EXP DUP2 SLOAD DUP2 PUSH20 0xFFFFFFFFFFFFFFFFFFFFFFFFFFFFFFFFFFFFFFFF MUL NOT AND SWAP1 DUP4 PUSH20 0xFFFFFFFFFFFFFFFFFFFFFFFFFFFFFFFFFFFFFFFF AND MUL OR SWAP1 SSTORE POP PUSH20 0xF42A08C0EA66EE4A474336087A6C17E9EA6C9DE9 PUSH1 0x3 PUSH1 0x0 PUSH2 0x100 EXP DUP2 SLOAD DUP2 PUSH20 0xFFFFFFFFFFFFFFFFFFFFFFFFFFFFFFFFFFFFFFFF MUL NOT AND SWAP1 DUP4 PUSH20 0xFFFFFFFFFFFFFFFFFFFFFFFFFFFFFFFFFFFFFFFF AND MUL OR SWAP1 SSTORE POP PUSH20 0xD9DFA8C6B37CFDF16668FE0465896F4A1B9B2C4F PUSH1 0x4 PUSH1 0x0 PUSH2 0x100 EXP DUP2 SLOAD DUP2 PUSH20 0xFFFFFFFFFFFFFFFFFFFFFFFFFFFFFFFFFFFFFFFF MUL NOT AND SWAP1 DUP4 PUSH20 0xFFFFFFFFFFFFFFFFFFFFFFFFFFFFFFFFFFFFFFFF AND MUL OR SWAP1 SSTORE POP PUSH1 0x0 DUP1 SLOAD SWAP1 PUSH2 0x100 EXP SWAP1 DIV PUSH20 0xFFFFFFFFFFFFFFFFFFFFFFFFFFFFFFFFFFFFFFFF AND PUSH1 0x5 PUSH1 0x0 PUSH2 0x100 EXP DUP2 SLOAD DUP2 PUSH20 0xFFFFFFFFFFFFFFFFFFFFFFFFFFFFFFFFFFFFFFFF MUL NOT AND SWAP1 DUP4 PUSH20 0xFFFFFFFFFFFFFFFFFFFFFFFFFFFFFFFFFFFFFFFF AND MUL OR SWAP1 SSTORE POP PUSH1 0x2 PUSH1 0x0 SWAP1 SLOAD SWAP1 PUSH2 0x100 EXP SWAP1 DIV PUSH20 0xFFFFFFFFFFFFFFFFFFFFFFFFFFFFFFFFFFFFFFFF AND PUSH1 0x6 PUSH1 0x0 PUSH2 0x100 EXP DUP2 SLOAD DUP2 PUSH20 0xFFFFFFFFFFFFFFFFFFFFFFFFFFFFFFFFFFFFFFFF MUL NOT AND SWAP1 DUP4 PUSH20 0xFFFFFFFFFFFFFFFFFFFFFFFFFFFFFFFFFFFFFFFF AND MUL OR SWAP1 SSTORE POP PUSH1 0x4 PUSH1 0x0 SWAP1 SLOAD SWAP1 PUSH2 0x100 EXP SWAP1 DIV PUSH20 0xFFFFFFFFFFFFFFFFFFFFFFFFFFFFFFFFFFFFFFFF AND PUSH1 0x7 PUSH1 0x0 PUSH2 0x100 EXP DUP2 SLOAD DUP2 PUSH20 0xFFFFFFFFFFFFFFFFFFFFFFFFFFFFFFFFFFFFFFFF MUL NOT AND SWAP1 DUP4 PUSH20 0xFFFFFFFFFFFFFFFFFFFFFFFFFFFFFFFFFFFFFFFF AND MUL OR SWAP1 SSTORE POP CALLVALUE DUP1 ISZERO PUSH2 0x2DF JUMPI PUSH1 0x0 DUP1 REVERT JUMPDEST POP PUSH2 0xF67 DUP1 PUSH2 0x2EF PUSH1 0x0 CODECOPY PUSH1 0x0 RETURN INVALID PUSH1 0x80 PUSH1 0x40 MSTORE PUSH1 0x4 CALLDATASIZE LT PUSH2 0x34 JUMPI PUSH1 0x0 CALLDATALOAD PUSH1 0xE0 SHR DUP1 PUSH4 0x2E1A7D4D EQ PUSH2 0x39 JUMPI DUP1 PUSH4 0xA93F74E0 EQ PUSH2 0x62 JUMPI DUP1 PUSH4 0xAEBF3E41 EQ PUSH2 0x7E JUMPI JUMPDEST PUSH1 0x0 DUP1 REVERT JUMPDEST CALLVALUE DUP1 ISZERO PUSH2 0x45 JUMPI PUSH1 0x0 DUP1 REVERT JUMPDEST POP PUSH2 0x60 PUSH1 0x4 DUP1 CALLDATASIZE SUB DUP2 ADD SWAP1 PUSH2 0x5B SWAP2 SWAP1 PUSH2 0x80F JUMP JUMPDEST PUSH2 0x9A JUMP JUMPDEST STOP JUMPDEST PUSH2 0x7C PUSH1 0x4 DUP1 CALLDATASIZE SUB DUP2 ADD SWAP1 PUSH2 0x77 SWAP2 SWAP1 PUSH2 0x80F JUMP JUMPDEST PUSH2 0x1D0 JUMP JUMPDEST STOP JUMPDEST PUSH2 0x98 PUSH1 0x4 DUP1 CALLDATASIZE SUB DUP2 ADD SWAP1 PUSH2 0x93 SWAP2 SWAP1 PUSH2 0x83C JUMP JUMPDEST PUSH2 0x3AF JUMP JUMPDEST STOP JUMPDEST PUSH1 0x0 PUSH1 0x7 PUSH1 0x0 SWAP1 SLOAD SWAP1 PUSH2 0x100 EXP SWAP1 DIV PUSH20 0xFFFFFFFFFFFFFFFFFFFFFFFFFFFFFFFFFFFFFFFF AND PUSH20 0xFFFFFFFFFFFFFFFFFFFFFFFFFFFFFFFFFFFFFFFF AND PUSH4 0x1959A002 CALLER PUSH1 0x40 MLOAD DUP3 PUSH4 0xFFFFFFFF AND PUSH1 0xE0 SHL DUP2 MSTORE PUSH1 0x4 ADD PUSH2 0xF7 SWAP2 SWAP1 PUSH2 0x8E4 JUMP JUMPDEST PUSH1 0x40 DUP1 MLOAD DUP1 DUP4 SUB DUP2 DUP7 GAS STATICCALL ISZERO DUP1 ISZERO PUSH2 0x113 JUMPI RETURNDATASIZE PUSH1 0x0 DUP1 RETURNDATACOPY RETURNDATASIZE PUSH1 0x0 REVERT JUMPDEST POP POP POP POP PUSH1 0x40 MLOAD RETURNDATASIZE PUSH1 0x1F NOT PUSH1 0x1F DUP3 ADD AND DUP3 ADD DUP1 PUSH1 0x40 MSTORE POP DUP2 ADD SWAP1 PUSH2 0x137 SWAP2 SWAP1 PUSH2 0x9F5 JUMP JUMPDEST SWAP1 POP PUSH1 0x7 PUSH1 0x0 SWAP1 SLOAD SWAP1 PUSH2 0x100 EXP SWAP1 DIV PUSH20 0xFFFFFFFFFFFFFFFFFFFFFFFFFFFFFFFFFFFFFFFF AND PUSH20 0xFFFFFFFFFFFFFFFFFFFFFFFFFFFFFFFFFFFFFFFF AND PUSH4 0x441A3E70 DUP4 DUP4 PUSH1 0x0 ADD MLOAD PUSH1 0x40 MLOAD DUP4 PUSH4 0xFFFFFFFF AND PUSH1 0xE0 SHL DUP2 MSTORE PUSH1 0x4 ADD PUSH2 0x19A SWAP3 SWAP2 SWAP1 PUSH2 0xA31 JUMP JUMPDEST PUSH1 0x0 PUSH1 0x40 MLOAD DUP1 DUP4 SUB DUP2 PUSH1 0x0 DUP8 DUP1 EXTCODESIZE ISZERO DUP1 ISZERO PUSH2 0x1B4 JUMPI PUSH1 0x0 DUP1 REVERT JUMPDEST POP GAS CALL ISZERO DUP1 ISZERO PUSH2 0x1C8 JUMPI RETURNDATASIZE PUSH1 0x0 DUP1 RETURNDATACOPY RETURNDATASIZE PUSH1 0x0 REVERT JUMPDEST POP POP POP POP POP POP JUMP JUMPDEST PUSH1 0x0 PUSH1 0x2 PUSH8 0xFFFFFFFFFFFFFFFF DUP2 GT ISZERO PUSH2 0x1ED JUMPI PUSH2 0x1EC PUSH2 0x915 JUMP JUMPDEST JUMPDEST PUSH1 0x40 MLOAD SWAP1 DUP1 DUP3 MSTORE DUP1 PUSH1 0x20 MUL PUSH1 0x20 ADD DUP3 ADD PUSH1 0x40 MSTORE DUP1 ISZERO PUSH2 0x21B JUMPI DUP2 PUSH1 0x20 ADD PUSH1 0x20 DUP3 MUL DUP1 CALLDATASIZE DUP4 CALLDATACOPY DUP1 DUP3 ADD SWAP2 POP POP SWAP1 POP JUMPDEST POP SWAP1 POP PUSH1 0x1 PUSH1 0x0 SWAP1 SLOAD SWAP1 PUSH2 0x100 EXP SWAP1 DIV PUSH20 0xFFFFFFFFFFFFFFFFFFFFFFFFFFFFFFFFFFFFFFFF AND DUP2 PUSH1 0x0 DUP2 MLOAD DUP2 LT PUSH2 0x255 JUMPI PUSH2 0x254 PUSH2 0xA5A JUMP JUMPDEST JUMPDEST PUSH1 0x20 MUL PUSH1 0x20 ADD ADD SWAP1 PUSH20 0xFFFFFFFFFFFFFFFFFFFFFFFFFFFFFFFFFFFFFFFF AND SWAP1 DUP2 PUSH20 0xFFFFFFFFFFFFFFFFFFFFFFFFFFFFFFFFFFFFFFFF AND DUP2 MSTORE POP POP PUSH1 0x2 PUSH1 0x0 SWAP1 SLOAD SWAP1 PUSH2 0x100 EXP SWAP1 DIV PUSH20 0xFFFFFFFFFFFFFFFFFFFFFFFFFFFFFFFFFFFFFFFF AND DUP2 PUSH1 0x1 DUP2 MLOAD DUP2 LT PUSH2 0x2C6 JUMPI PUSH2 0x2C5 PUSH2 0xA5A JUMP JUMPDEST JUMPDEST PUSH1 0x20 MUL PUSH1 0x20 ADD ADD SWAP1 PUSH20 0xFFFFFFFFFFFFFFFFFFFFFFFFFFFFFFFFFFFFFFFF AND SWAP1 DUP2 PUSH20 0xFFFFFFFFFFFFFFFFFFFFFFFFFFFFFFFFFFFFFFFF AND DUP2 MSTORE POP POP PUSH1 0x5 PUSH1 0x0 SWAP1 SLOAD SWAP1 PUSH2 0x100 EXP SWAP1 DIV PUSH20 0xFFFFFFFFFFFFFFFFFFFFFFFFFFFFFFFFFFFFFFFF AND PUSH20 0xFFFFFFFFFFFFFFFFFFFFFFFFFFFFFFFFFFFFFFFF AND PUSH4 0x7FF36AB5 CALLVALUE DUP5 DUP5 CALLER TIMESTAMP PUSH1 0x40 MLOAD DUP7 PUSH4 0xFFFFFFFF AND PUSH1 0xE0 SHL DUP2 MSTORE PUSH1 0x4 ADD PUSH2 0x362 SWAP5 SWAP4 SWAP3 SWAP2 SWAP1 PUSH2 0xB47 JUMP JUMPDEST PUSH1 0x0 PUSH1 0x40 MLOAD DUP1 DUP4 SUB DUP2 DUP6 DUP9 GAS CALL ISZERO DUP1 ISZERO PUSH2 0x380 JUMPI RETURNDATASIZE PUSH1 0x0 DUP1 RETURNDATACOPY RETURNDATASIZE PUSH1 0x0 REVERT JUMPDEST POP POP POP POP POP PUSH1 0x40 MLOAD RETURNDATASIZE PUSH1 0x0 DUP3 RETURNDATACOPY RETURNDATASIZE PUSH1 0x1F NOT PUSH1 0x1F DUP3 ADD AND DUP3 ADD DUP1 PUSH1 0x40 MSTORE POP DUP2 ADD SWAP1 PUSH2 0x3AA SWAP2 SWAP1 PUSH2 0xC60 JUMP JUMPDEST POP POP POP JUMP JUMPDEST PUSH1 0x6 PUSH1 0x0 SWAP1 SLOAD SWAP1 PUSH2 0x100 EXP SWAP1 DIV PUSH20 0xFFFFFFFFFFFFFFFFFFFFFFFFFFFFFFFFFFFFFFFF AND PUSH20 0xFFFFFFFFFFFFFFFFFFFFFFFFFFFFFFFFFFFFFFFF AND PUSH4 0x95EA7B3 PUSH1 0x5 PUSH1 0x0 SWAP1 SLOAD SWAP1 PUSH2 0x100 EXP SWAP1 DIV PUSH20 0xFFFFFFFFFFFFFFFFFFFFFFFFFFFFFFFFFFFFFFFF AND DUP7 PUSH1 0x40 MLOAD DUP4 PUSH4 0xFFFFFFFF AND PUSH1 0xE0 SHL DUP2 MSTORE PUSH1 0x4 ADD PUSH2 0x42E SWAP3 SWAP2 SWAP1 PUSH2 0xCA9 JUMP JUMPDEST PUSH1 0x20 PUSH1 0x40 MLOAD DUP1 DUP4 SUB DUP2 PUSH1 0x0 DUP8 GAS CALL ISZERO DUP1 ISZERO PUSH2 0x44D JUMPI RETURNDATASIZE PUSH1 0x0 DUP1 RETURNDATACOPY RETURNDATASIZE PUSH1 0x0 REVERT JUMPDEST POP POP POP POP PUSH1 0x40 MLOAD RETURNDATASIZE PUSH1 0x1F NOT PUSH1 0x1F DUP3 ADD AND DUP3 ADD DUP1 PUSH1 0x40 MSTORE POP DUP2 ADD SWAP1 PUSH2 0x471 SWAP2 SWAP1 PUSH2 0xD0A JUMP JUMPDEST POP PUSH1 0x0 PUSH1 0x6 PUSH1 0x0 SWAP1 SLOAD SWAP1 PUSH2 0x100 EXP SWAP1 DIV PUSH20 0xFFFFFFFFFFFFFFFFFFFFFFFFFFFFFFFFFFFFFFFF AND PUSH20 0xFFFFFFFFFFFFFFFFFFFFFFFFFFFFFFFFFFFFFFFF AND PUSH4 0x23B872DD CALLER ADDRESS DUP9 PUSH1 0x40 MLOAD DUP5 PUSH4 0xFFFFFFFF AND PUSH1 0xE0 SHL DUP2 MSTORE PUSH1 0x4 ADD PUSH2 0x4D3 SWAP4 SWAP3 SWAP2 SWAP1 PUSH2 0xD37 JUMP JUMPDEST PUSH1 0x20 PUSH1 0x40 MLOAD DUP1 DUP4 SUB DUP2 PUSH1 0x0 DUP8 GAS CALL ISZERO DUP1 ISZERO PUSH2 0x4F2 JUMPI RETURNDATASIZE PUSH1 0x0 DUP1 RETURNDATACOPY RETURNDATASIZE PUSH1 0x0 REVERT JUMPDEST POP POP POP POP PUSH1 0x40 MLOAD RETURNDATASIZE PUSH1 0x1F NOT PUSH1 0x1F DUP3 ADD AND DUP3 ADD DUP1 PUSH1 0x40 MSTORE POP DUP2 ADD SWAP1 PUSH2 0x516 SWAP2 SWAP1 PUSH2 0xD0A JUMP JUMPDEST SWAP1 POP DUP1 PUSH2 0x558 JUMPI PUSH1 0x40 MLOAD PUSH32 0x8C379A000000000000000000000000000000000000000000000000000000000 DUP2 MSTORE PUSH1 0x4 ADD PUSH2 0x54F SWAP1 PUSH2 0xDCB JUMP JUMPDEST PUSH1 0x40 MLOAD DUP1 SWAP2 SUB SWAP1 REVERT JUMPDEST DUP3 CALLVALUE GT PUSH2 0x59A JUMPI PUSH1 0x40 MLOAD PUSH32 0x8C379A000000000000000000000000000000000000000000000000000000000 DUP2 MSTORE PUSH1 0x4 ADD PUSH2 0x591 SWAP1 PUSH2 0xE5D JUMP JUMPDEST PUSH1 0x40 MLOAD DUP1 SWAP2 SUB SWAP1 REVERT JUMPDEST PUSH1 0x0 PUSH1 0x5 PUSH1 0x0 SWAP1 SLOAD SWAP1 PUSH2 0x100 EXP SWAP1 DIV PUSH20 0xFFFFFFFFFFFFFFFFFFFFFFFFFFFFFFFFFFFFFFFF AND PUSH20 0xFFFFFFFFFFFFFFFFFFFFFFFFFFFFFFFFFFFFFFFF AND PUSH4 0xF305D719 CALLVALUE PUSH1 0x2 PUSH1 0x0 SWAP1 SLOAD SWAP1 PUSH2 0x100 EXP SWAP1 DIV PUSH20 0xFFFFFFFFFFFFFFFFFFFFFFFFFFFFFFFFFFFFFFFF AND DUP10 DUP10 DUP10 CALLER TIMESTAMP PUSH1 0x40 MLOAD DUP9 PUSH4 0xFFFFFFFF AND PUSH1 0xE0 SHL DUP2 MSTORE PUSH1 0x4 ADD PUSH2 0x624 SWAP7 SWAP6 SWAP5 SWAP4 SWAP3 SWAP2 SWAP1 PUSH2 0xE7D JUMP JUMPDEST PUSH1 0x60 PUSH1 0x40 MLOAD DUP1 DUP4 SUB DUP2 DUP6 DUP9 GAS CALL ISZERO DUP1 ISZERO PUSH2 0x642 JUMPI RETURNDATASIZE PUSH1 0x0 DUP1 RETURNDATACOPY RETURNDATASIZE PUSH1 0x0 REVERT JUMPDEST POP POP POP POP POP PUSH1 0x40 MLOAD RETURNDATASIZE PUSH1 0x1F NOT PUSH1 0x1F DUP3 ADD AND DUP3 ADD DUP1 PUSH1 0x40 MSTORE POP DUP2 ADD SWAP1 PUSH2 0x667 SWAP2 SWAP1 PUSH2 0xEDE JUMP JUMPDEST POP POP SWAP1 POP PUSH1 0x6 PUSH1 0x0 SWAP1 SLOAD SWAP1 PUSH2 0x100 EXP SWAP1 DIV PUSH20 0xFFFFFFFFFFFFFFFFFFFFFFFFFFFFFFFFFFFFFFFF AND PUSH20 0xFFFFFFFFFFFFFFFFFFFFFFFFFFFFFFFFFFFFFFFF AND PUSH4 0x95EA7B3 PUSH1 0x4 PUSH1 0x0 SWAP1 SLOAD SWAP1 PUSH2 0x100 EXP SWAP1 DIV PUSH20 0xFFFFFFFFFFFFFFFFFFFFFFFFFFFFFFFFFFFFFFFF AND DUP9 PUSH1 0x40 MLOAD DUP4 PUSH4 0xFFFFFFFF AND PUSH1 0xE0 SHL DUP2 MSTORE PUSH1 0x4 ADD PUSH2 0x6EA SWAP3 SWAP2 SWAP1 PUSH2 0xCA9 JUMP JUMPDEST PUSH1 0x20 PUSH1 0x40 MLOAD DUP1 DUP4 SUB DUP2 PUSH1 0x0 DUP8 GAS CALL ISZERO DUP1 ISZERO PUSH2 0x709 JUMPI RETURNDATASIZE PUSH1 0x0 DUP1 RETURNDATACOPY RETURNDATASIZE PUSH1 0x0 REVERT JUMPDEST POP POP POP POP PUSH1 0x40 MLOAD RETURNDATASIZE PUSH1 0x1F NOT PUSH1 0x1F DUP3 ADD AND DUP3 ADD DUP1 PUSH1 0x40 MSTORE POP DUP2 ADD SWAP1 PUSH2 0x72D SWAP2 SWAP1 PUSH2 0xD0A JUMP JUMPDEST POP PUSH1 0x7 PUSH1 0x0 SWAP1 SLOAD SWAP1 PUSH2 0x100 EXP SWAP1 DIV PUSH20 0xFFFFFFFFFFFFFFFFFFFFFFFFFFFFFFFFFFFFFFFF AND PUSH20 0xFFFFFFFFFFFFFFFFFFFFFFFFFFFFFFFFFFFFFFFF AND PUSH4 0xE2BBB158 DUP5 DUP4 PUSH1 0x40 MLOAD DUP4 PUSH4 0xFFFFFFFF AND PUSH1 0xE0 SHL DUP2 MSTORE PUSH1 0x4 ADD PUSH2 0x78B SWAP3 SWAP2 SWAP1 PUSH2 0xA31 JUMP JUMPDEST PUSH1 0x0 PUSH1 0x40 MLOAD DUP1 DUP4 SUB DUP2 PUSH1 0x0 DUP8 DUP1 EXTCODESIZE ISZERO DUP1 ISZERO PUSH2 0x7A5 JUMPI PUSH1 0x0 DUP1 REVERT JUMPDEST POP GAS CALL ISZERO DUP1 ISZERO PUSH2 0x7B9 JUMPI RETURNDATASIZE PUSH1 0x0 DUP1 RETURNDATACOPY RETURNDATASIZE PUSH1 0x0 REVERT JUMPDEST POP POP POP POP POP POP POP POP POP POP JUMP JUMPDEST PUSH1 0x0 PUSH1 0x40 MLOAD SWAP1 POP SWAP1 JUMP JUMPDEST PUSH1 0x0 DUP1 REVERT JUMPDEST PUSH1 0x0 DUP1 REVERT JUMPDEST PUSH1 0x0 DUP2 SWAP1 POP SWAP2 SWAP1 POP JUMP JUMPDEST PUSH2 0x7EC DUP2 PUSH2 0x7D9 JUMP JUMPDEST DUP2 EQ PUSH2 0x7F7 JUMPI PUSH1 0x0 DUP1 REVERT JUMPDEST POP JUMP JUMPDEST PUSH1 0x0 DUP2 CALLDATALOAD SWAP1 POP PUSH2 0x809 DUP2 PUSH2 0x7E3 JUMP JUMPDEST SWAP3 SWAP2 POP POP JUMP JUMPDEST PUSH1 0x0 PUSH1 0x20 DUP3 DUP5 SUB SLT ISZERO PUSH2 0x825 JUMPI PUSH2 0x824 PUSH2 0x7CF JUMP JUMPDEST JUMPDEST PUSH1 0x0 PUSH2 0x833 DUP5 DUP3 DUP6 ADD PUSH2 0x7FA JUMP JUMPDEST SWAP2 POP POP SWAP3 SWAP2 POP POP JUMP JUMPDEST PUSH1 0x0 DUP1 PUSH1 0x0 DUP1 PUSH1 0x80 DUP6 DUP8 SUB SLT ISZERO PUSH2 0x856 JUMPI PUSH2 0x855 PUSH2 0x7CF JUMP JUMPDEST JUMPDEST PUSH1 0x0 PUSH2 0x864 DUP8 DUP3 DUP9 ADD PUSH2 0x7FA JUMP JUMPDEST SWAP5 POP POP PUSH1 0x20 PUSH2 0x875 DUP8 DUP3 DUP9 ADD PUSH2 0x7FA JUMP JUMPDEST SWAP4 POP POP PUSH1 0x40 PUSH2 0x886 DUP8 DUP3 DUP9 ADD PUSH2 0x7FA JUMP JUMPDEST SWAP3 POP POP PUSH1 0x60 PUSH2 0x897 DUP8 DUP3 DUP9 ADD PUSH2 0x7FA JUMP JUMPDEST SWAP2 POP POP SWAP3 SWAP6 SWAP2 SWAP5 POP SWAP3 POP JUMP JUMPDEST PUSH1 0x0 PUSH20 0xFFFFFFFFFFFFFFFFFFFFFFFFFFFFFFFFFFFFFFFF DUP3 AND SWAP1 POP SWAP2 SWAP1 POP JUMP JUMPDEST PUSH1 0x0 PUSH2 0x8CE DUP3 PUSH2 0x8A3 JUMP JUMPDEST SWAP1 POP SWAP2 SWAP1 POP JUMP JUMPDEST PUSH2 0x8DE DUP2 PUSH2 0x8C3 JUMP JUMPDEST DUP3 MSTORE POP POP JUMP JUMPDEST PUSH1 0x0 PUSH1 0x20 DUP3 ADD SWAP1 POP PUSH2 0x8F9 PUSH1 0x0 DUP4 ADD DUP5 PUSH2 0x8D5 JUMP JUMPDEST SWAP3 SWAP2 POP POP JUMP JUMPDEST PUSH1 0x0 DUP1 REVERT JUMPDEST PUSH1 0x0 PUSH1 0x1F NOT PUSH1 0x1F DUP4 ADD AND SWAP1 POP SWAP2 SWAP1 POP JUMP JUMPDEST PUSH32 0x4E487B7100000000000000000000000000000000000000000000000000000000 PUSH1 0x0 MSTORE PUSH1 0x41 PUSH1 0x4 MSTORE PUSH1 0x24 PUSH1 0x0 REVERT JUMPDEST PUSH2 0x94D DUP3 PUSH2 0x904 JUMP JUMPDEST DUP2 ADD DUP2 DUP2 LT PUSH8 0xFFFFFFFFFFFFFFFF DUP3 GT OR ISZERO PUSH2 0x96C JUMPI PUSH2 0x96B PUSH2 0x915 JUMP JUMPDEST JUMPDEST DUP1 PUSH1 0x40 MSTORE POP POP POP JUMP JUMPDEST PUSH1 0x0 PUSH2 0x97F PUSH2 0x7C5 JUMP JUMPDEST SWAP1 POP PUSH2 0x98B DUP3 DUP3 PUSH2 0x944 JUMP JUMPDEST SWAP2 SWAP1 POP JUMP JUMPDEST PUSH1 0x0 DUP2 MLOAD SWAP1 POP PUSH2 0x99F DUP2 PUSH2 0x7E3 JUMP JUMPDEST SWAP3 SWAP2 POP POP JUMP JUMPDEST PUSH1 0x0 PUSH1 0x40 DUP3 DUP5 SUB SLT ISZERO PUSH2 0x9BB JUMPI PUSH2 0x9BA PUSH2 0x8FF JUMP JUMPDEST JUMPDEST PUSH2 0x9C5 PUSH1 0x40 PUSH2 0x975 JUMP JUMPDEST SWAP1 POP PUSH1 0x0 PUSH2 0x9D5 DUP5 DUP3 DUP6 ADD PUSH2 0x990 JUMP JUMPDEST PUSH1 0x0 DUP4 ADD MSTORE POP PUSH1 0x20 PUSH2 0x9E9 DUP5 DUP3 DUP6 ADD PUSH2 0x990 JUMP JUMPDEST PUSH1 0x20 DUP4 ADD MSTORE POP SWAP3 SWAP2 POP POP JUMP JUMPDEST PUSH1 0x0 PUSH1 0x40 DUP3 DUP5 SUB SLT ISZERO PUSH2 0xA0B JUMPI PUSH2 0xA0A PUSH2 0x7CF JUMP JUMPDEST JUMPDEST PUSH1 0x0 PUSH2 0xA19 DUP5 DUP3 DUP6 ADD PUSH2 0x9A5 JUMP JUMPDEST SWAP2 POP POP SWAP3 SWAP2 POP POP JUMP JUMPDEST PUSH2 0xA2B DUP2 PUSH2 0x7D9 JUMP JUMPDEST DUP3 MSTORE POP POP JUMP JUMPDEST PUSH1 0x0 PUSH1 0x40 DUP3 ADD SWAP1 POP PUSH2 0xA46 PUSH1 0x0 DUP4 ADD DUP6 PUSH2 0xA22 JUMP JUMPDEST PUSH2 0xA53 PUSH1 0x20 DUP4 ADD DUP5 PUSH2 0xA22 JUMP JUMPDEST SWAP4 SWAP3 POP POP POP JUMP JUMPDEST PUSH32 0x4E487B7100000000000000000000000000000000000000000000000000000000 PUSH1 0x0 MSTORE PUSH1 0x32 PUSH1 0x4 MSTORE PUSH1 0x24 PUSH1 0x0 REVERT JUMPDEST PUSH1 0x0 DUP2 MLOAD SWAP1 POP SWAP2 SWAP1 POP JUMP JUMPDEST PUSH1 0x0 DUP3 DUP3 MSTORE PUSH1 0x20 DUP3 ADD SWAP1 POP SWAP3 SWAP2 POP POP JUMP JUMPDEST PUSH1 0x0 DUP2 SWAP1 POP PUSH1 0x20 DUP3 ADD SWAP1 POP SWAP2 SWAP1 POP JUMP JUMPDEST PUSH2 0xABE DUP2 PUSH2 0x8C3 JUMP JUMPDEST DUP3 MSTORE POP POP JUMP JUMPDEST PUSH1 0x0 PUSH2 0xAD0 DUP4 DUP4 PUSH2 0xAB5 JUMP JUMPDEST PUSH1 0x20 DUP4 ADD SWAP1 POP SWAP3 SWAP2 POP POP JUMP JUMPDEST PUSH1 0x0 PUSH1 0x20 DUP3 ADD SWAP1 POP SWAP2 SWAP1 POP JUMP JUMPDEST PUSH1 0x0 PUSH2 0xAF4 DUP3 PUSH2 0xA89 JUMP JUMPDEST PUSH2 0xAFE DUP2 DUP6 PUSH2 0xA94 JUMP JUMPDEST SWAP4 POP PUSH2 0xB09 DUP4 PUSH2 0xAA5 JUMP JUMPDEST DUP1 PUSH1 0x0 JUMPDEST DUP4 DUP2 LT ISZERO PUSH2 0xB3A JUMPI DUP2 MLOAD PUSH2 0xB21 DUP9 DUP3 PUSH2 0xAC4 JUMP JUMPDEST SWAP8 POP PUSH2 0xB2C DUP4 PUSH2 0xADC JUMP JUMPDEST SWAP3 POP POP PUSH1 0x1 DUP2 ADD SWAP1 POP PUSH2 0xB0D JUMP JUMPDEST POP DUP6 SWAP4 POP POP POP POP SWAP3 SWAP2 POP POP JUMP JUMPDEST PUSH1 0x0 PUSH1 0x80 DUP3 ADD SWAP1 POP PUSH2 0xB5C PUSH1 0x0 DUP4 ADD DUP8 PUSH2 0xA22 JUMP JUMPDEST DUP2 DUP2 SUB PUSH1 0x20 DUP4 ADD MSTORE PUSH2 0xB6E DUP2 DUP7 PUSH2 0xAE9 JUMP JUMPDEST SWAP1 POP PUSH2 0xB7D PUSH1 0x40 DUP4 ADD DUP6 PUSH2 0x8D5 JUMP JUMPDEST PUSH2 0xB8A PUSH1 0x60 DUP4 ADD DUP5 PUSH2 0xA22 JUMP JUMPDEST SWAP6 SWAP5 POP POP POP POP POP JUMP JUMPDEST PUSH1 0x0 DUP1 REVERT JUMPDEST PUSH1 0x0 PUSH8 0xFFFFFFFFFFFFFFFF DUP3 GT ISZERO PUSH2 0xBB3 JUMPI PUSH2 0xBB2 PUSH2 0x915 JUMP JUMPDEST JUMPDEST PUSH1 0x20 DUP3 MUL SWAP1 POP PUSH1 0x20 DUP2 ADD SWAP1 POP SWAP2 SWAP1 POP JUMP JUMPDEST PUSH1 0x0 DUP1 REVERT JUMPDEST PUSH1 0x0 PUSH2 0xBDC PUSH2 0xBD7 DUP5 PUSH2 0xB98 JUMP JUMPDEST PUSH2 0x975 JUMP JUMPDEST SWAP1 POP DUP1 DUP4 DUP3 MSTORE PUSH1 0x20 DUP3 ADD SWAP1 POP PUSH1 0x20 DUP5 MUL DUP4 ADD DUP6 DUP2 GT ISZERO PUSH2 0xBFF JUMPI PUSH2 0xBFE PUSH2 0xBC4 JUMP JUMPDEST JUMPDEST DUP4 JUMPDEST DUP2 DUP2 LT ISZERO PUSH2 0xC28 JUMPI DUP1 PUSH2 0xC14 DUP9 DUP3 PUSH2 0x990 JUMP JUMPDEST DUP5 MSTORE PUSH1 0x20 DUP5 ADD SWAP4 POP POP PUSH1 0x20 DUP2 ADD SWAP1 POP PUSH2 0xC01 JUMP JUMPDEST POP POP POP SWAP4 SWAP3 POP POP POP JUMP JUMPDEST PUSH1 0x0 DUP3 PUSH1 0x1F DUP4 ADD SLT PUSH2 0xC47 JUMPI PUSH2 0xC46 PUSH2 0xB93 JUMP JUMPDEST JUMPDEST DUP2 MLOAD PUSH2 0xC57 DUP5 DUP3 PUSH1 0x20 DUP7 ADD PUSH2 0xBC9 JUMP JUMPDEST SWAP2 POP POP SWAP3 SWAP2 POP POP JUMP JUMPDEST PUSH1 0x0 PUSH1 0x20 DUP3 DUP5 SUB SLT ISZERO PUSH2 0xC76 JUMPI PUSH2 0xC75 PUSH2 0x7CF JUMP JUMPDEST JUMPDEST PUSH1 0x0 DUP3 ADD MLOAD PUSH8 0xFFFFFFFFFFFFFFFF DUP2 GT ISZERO PUSH2 0xC94 JUMPI PUSH2 0xC93 PUSH2 0x7D4 JUMP JUMPDEST JUMPDEST PUSH2 0xCA0 DUP5 DUP3 DUP6 ADD PUSH2 0xC32 JUMP JUMPDEST SWAP2 POP POP SWAP3 SWAP2 POP POP JUMP JUMPDEST PUSH1 0x0 PUSH1 0x40 DUP3 ADD SWAP1 POP PUSH2 0xCBE PUSH1 0x0 DUP4 ADD DUP6 PUSH2 0x8D5 JUMP JUMPDEST PUSH2 0xCCB PUSH1 0x20 DUP4 ADD DUP5 PUSH2 0xA22 JUMP JUMPDEST SWAP4 SWAP3 POP POP POP JUMP JUMPDEST PUSH1 0x0 DUP2 ISZERO ISZERO SWAP1 POP SWAP2 SWAP1 POP JUMP JUMPDEST PUSH2 0xCE7 DUP2 PUSH2 0xCD2 JUMP JUMPDEST DUP2 EQ PUSH2 0xCF2 JUMPI PUSH1 0x0 DUP1 REVERT JUMPDEST POP JUMP JUMPDEST PUSH1 0x0 DUP2 MLOAD SWAP1 POP PUSH2 0xD04 DUP2 PUSH2 0xCDE JUMP JUMPDEST SWAP3 SWAP2 POP POP JUMP JUMPDEST PUSH1 0x0 PUSH1 0x20 DUP3 DUP5 SUB SLT ISZERO PUSH2 0xD20 JUMPI PUSH2 0xD1F PUSH2 0x7CF JUMP JUMPDEST JUMPDEST PUSH1 0x0 PUSH2 0xD2E DUP5 DUP3 DUP6 ADD PUSH2 0xCF5 JUMP JUMPDEST SWAP2 POP POP SWAP3 SWAP2 POP POP JUMP JUMPDEST PUSH1 0x0 PUSH1 0x60 DUP3 ADD SWAP1 POP PUSH2 0xD4C PUSH1 0x0 DUP4 ADD DUP7 PUSH2 0x8D5 JUMP JUMPDEST PUSH2 0xD59 PUSH1 0x20 DUP4 ADD DUP6 PUSH2 0x8D5 JUMP JUMPDEST PUSH2 0xD66 PUSH1 0x40 DUP4 ADD DUP5 PUSH2 0xA22 JUMP JUMPDEST SWAP5 SWAP4 POP POP POP POP JUMP JUMPDEST PUSH1 0x0 DUP3 DUP3 MSTORE PUSH1 0x20 DUP3 ADD SWAP1 POP SWAP3 SWAP2 POP POP JUMP JUMPDEST PUSH32 0x6D746F6B656E207472616E73666572206572726F722100000000000000000000 PUSH1 0x0 DUP3 ADD MSTORE POP JUMP JUMPDEST PUSH1 0x0 PUSH2 0xDB5 PUSH1 0x16 DUP4 PUSH2 0xD6E JUMP JUMPDEST SWAP2 POP PUSH2 0xDC0 DUP3 PUSH2 0xD7F JUMP JUMPDEST PUSH1 0x20 DUP3 ADD SWAP1 POP SWAP2 SWAP1 POP JUMP JUMPDEST PUSH1 0x0 PUSH1 0x20 DUP3 ADD SWAP1 POP DUP2 DUP2 SUB PUSH1 0x0 DUP4 ADD MSTORE PUSH2 0xDE4 DUP2 PUSH2 0xDA8 JUMP JUMPDEST SWAP1 POP SWAP2 SWAP1 POP JUMP JUMPDEST PUSH32 0x6D73672E76616C75652073686F756C642062696767676572207468616E20616D PUSH1 0x0 DUP3 ADD MSTORE PUSH32 0x6F756E744554484D696E00000000000000000000000000000000000000000000 PUSH1 0x20 DUP3 ADD MSTORE POP JUMP JUMPDEST PUSH1 0x0 PUSH2 0xE47 PUSH1 0x2A DUP4 PUSH2 0xD6E JUMP JUMPDEST SWAP2 POP PUSH2 0xE52 DUP3 PUSH2 0xDEB JUMP JUMPDEST PUSH1 0x40 DUP3 ADD SWAP1 POP SWAP2 SWAP1 POP JUMP JUMPDEST PUSH1 0x0 PUSH1 0x20 DUP3 ADD SWAP1 POP DUP2 DUP2 SUB PUSH1 0x0 DUP4 ADD MSTORE PUSH2 0xE76 DUP2 PUSH2 0xE3A JUMP JUMPDEST SWAP1 POP SWAP2 SWAP1 POP JUMP JUMPDEST PUSH1 0x0 PUSH1 0xC0 DUP3 ADD SWAP1 POP PUSH2 0xE92 PUSH1 0x0 DUP4 ADD DUP10 PUSH2 0x8D5 JUMP JUMPDEST PUSH2 0xE9F PUSH1 0x20 DUP4 ADD DUP9 PUSH2 0xA22 JUMP JUMPDEST PUSH2 0xEAC PUSH1 0x40 DUP4 ADD DUP8 PUSH2 0xA22 JUMP JUMPDEST PUSH2 0xEB9 PUSH1 0x60 DUP4 ADD DUP7 PUSH2 0xA22 JUMP JUMPDEST PUSH2 0xEC6 PUSH1 0x80 DUP4 ADD DUP6 PUSH2 0x8D5 JUMP JUMPDEST PUSH2 0xED3 PUSH1 0xA0 DUP4 ADD DUP5 PUSH2 0xA22 JUMP JUMPDEST SWAP8 SWAP7 POP POP POP POP POP POP POP JUMP JUMPDEST PUSH1 0x0 DUP1 PUSH1 0x0 PUSH1 0x60 DUP5 DUP7 SUB SLT ISZERO PUSH2 0xEF7 JUMPI PUSH2 0xEF6 PUSH2 0x7CF JUMP JUMPDEST JUMPDEST PUSH1 0x0 PUSH2 0xF05 DUP7 DUP3 DUP8 ADD PUSH2 0x990 JUMP JUMPDEST SWAP4 POP POP PUSH1 0x20 PUSH2 0xF16 DUP7 DUP3 DUP8 ADD PUSH2 0x990 JUMP JUMPDEST SWAP3 POP POP PUSH1 0x40 PUSH2 0xF27 DUP7 DUP3 DUP8 ADD PUSH2 0x990 JUMP JUMPDEST SWAP2 POP POP SWAP3 POP SWAP3 POP SWAP3 JUMP INVALID LOG2 PUSH5 0x6970667358 0x22 SLT KECCAK256 PUSH5 0x4D0BEFE3C5 0xCB DELEGATECALL 0xC1 0x2A SLOAD 0xF8 JUMPDEST SHR 0xD 0x25 STOP DUP4 GASPRICE RETURNDATASIZE NUMBER 0x5E COINBASE 0xF 0xD0 RETURNDATACOPY 0x28 0xBB DUP10 0xAC 0xAC 0xF9 PUSH5 0x736F6C6343 STOP ADDMOD 0xD STOP CALLER "
				},
				"gasEstimates": {
					"creation": {
						"codeDepositCost": "788600",
						"executionCost": "201366",
						"totalCost": "989966"
					},
					"external": {
						"addLiquidity(uint256,uint256,uint256,uint256)": "infinite",
						"buyExactTokenByETH(uint256)": "infinite",
						"withdraw(uint256)": "infinite"
					}
				},
				"methodIdentifiers": {
					"addLiquidity(uint256,uint256,uint256,uint256)": "aebf3e41",
					"buyExactTokenByETH(uint256)": "a93f74e0",
					"withdraw(uint256)": "2e1a7d4d"
				}
			},
			"userdoc": {
				"kind": "user",
				"methods": {},
				"version": 1
			}
		}
	}
}