{
	"Code-hardhat-ethersJs/contracts/sc.sol": {
		"Attack": {
			"abi": [
				{
					"inputs": [],
					"stateMutability": "payable",
					"type": "constructor"
				},
				{
					"inputs": [
						{
							"internalType": "address",
							"name": "registerAddress",
							"type": "address"
						}
					],
					"name": "attack",
					"outputs": [],
					"stateMutability": "payable",
					"type": "function"
				},
				{
					"stateMutability": "payable",
					"type": "receive"
				}
			],
			"devdoc": {
				"kind": "dev",
				"methods": {},
				"version": 1
			},
			"evm": {
				"assembly": "    /* \"Code-hardhat-ethersJs/contracts/sc.sol\":67:383  contract Attack {... */\n  mstore(0x40, 0x80)\n    /* \"Code-hardhat-ethersJs/contracts/sc.sol\":105:147  0x10ED43C718714eb63d5aA57B78B54704E256024E */\n  0x10ed43c718714eb63d5aa57b78b54704e256024e\n    /* \"Code-hardhat-ethersJs/contracts/sc.sol\":88:147  address router = 0x10ED43C718714eb63d5aA57B78B54704E256024E */\n  0x00\n  dup1\n  0x0100\n  exp\n  dup2\n  sload\n  dup2\n  0xffffffffffffffffffffffffffffffffffffffff\n  mul\n  not\n  and\n  swap1\n  dup4\n  0xffffffffffffffffffffffffffffffffffffffff\n  and\n  mul\n  or\n  swap1\n  sstore\n  pop\n    /* \"Code-hardhat-ethersJs/contracts/sc.sol\":67:383  contract Attack {... */\n  dataSize(sub_0)\n  dup1\n  dataOffset(sub_0)\n  0x00\n  codecopy\n  0x00\n  return\nstop\n\nsub_0: assembly {\n        /* \"Code-hardhat-ethersJs/contracts/sc.sol\":67:383  contract Attack {... */\n      mstore(0x40, 0x80)\n      jumpi(tag_1, lt(calldatasize, 0x04))\n      shr(0xe0, calldataload(0x00))\n      dup1\n      0xd018db3e\n      eq\n      tag_3\n      jumpi\n      jump(tag_2)\n    tag_1:\n      jumpi(tag_2, calldatasize)\n      stop\n    tag_2:\n      0x00\n      dup1\n      revert\n        /* \"Code-hardhat-ethersJs/contracts/sc.sol\":227:381  function attack(address registerAddress) public payable {... */\n    tag_3:\n      tag_6\n      0x04\n      dup1\n      calldatasize\n      sub\n      dup2\n      add\n      swap1\n      tag_7\n      swap2\n      swap1\n      tag_8\n      jump\t// in\n    tag_7:\n      tag_9\n      jump\t// in\n    tag_6:\n      stop\n    tag_9:\n        /* \"Code-hardhat-ethersJs/contracts/sc.sol\":292:312  address payable addr */\n      0x00\n        /* \"Code-hardhat-ethersJs/contracts/sc.sol\":331:346  registerAddress */\n      dup2\n        /* \"Code-hardhat-ethersJs/contracts/sc.sol\":292:348  address payable addr = payable(address(registerAddress)) */\n      swap1\n      pop\n        /* \"Code-hardhat-ethersJs/contracts/sc.sol\":370:374  addr */\n      dup1\n        /* \"Code-hardhat-ethersJs/contracts/sc.sol\":357:375  selfdestruct(addr) */\n      0xffffffffffffffffffffffffffffffffffffffff\n      and\n      selfdestruct\n        /* \"#utility.yul\":7:146   */\n    tag_12:\n        /* \"#utility.yul\":53:58   */\n      0x00\n        /* \"#utility.yul\":91:97   */\n      dup2\n        /* \"#utility.yul\":78:98   */\n      calldataload\n        /* \"#utility.yul\":69:98   */\n      swap1\n      pop\n        /* \"#utility.yul\":107:140   */\n      tag_14\n        /* \"#utility.yul\":134:139   */\n      dup2\n        /* \"#utility.yul\":107:140   */\n      tag_15\n      jump\t// in\n    tag_14:\n        /* \"#utility.yul\":7:146   */\n      swap3\n      swap2\n      pop\n      pop\n      jump\t// out\n        /* \"#utility.yul\":152:481   */\n    tag_8:\n        /* \"#utility.yul\":211:217   */\n      0x00\n        /* \"#utility.yul\":260:262   */\n      0x20\n        /* \"#utility.yul\":248:257   */\n      dup3\n        /* \"#utility.yul\":239:246   */\n      dup5\n        /* \"#utility.yul\":235:258   */\n      sub\n        /* \"#utility.yul\":231:263   */\n      slt\n        /* \"#utility.yul\":228:347   */\n      iszero\n      tag_17\n      jumpi\n        /* \"#utility.yul\":266:345   */\n      tag_18\n      tag_19\n      jump\t// in\n    tag_18:\n        /* \"#utility.yul\":228:347   */\n    tag_17:\n        /* \"#utility.yul\":386:387   */\n      0x00\n        /* \"#utility.yul\":411:464   */\n      tag_20\n        /* \"#utility.yul\":456:463   */\n      dup5\n        /* \"#utility.yul\":447:453   */\n      dup3\n        /* \"#utility.yul\":436:445   */\n      dup6\n        /* \"#utility.yul\":432:454   */\n      add\n        /* \"#utility.yul\":411:464   */\n      tag_12\n      jump\t// in\n    tag_20:\n        /* \"#utility.yul\":401:464   */\n      swap2\n      pop\n        /* \"#utility.yul\":357:474   */\n      pop\n        /* \"#utility.yul\":152:481   */\n      swap3\n      swap2\n      pop\n      pop\n      jump\t// out\n        /* \"#utility.yul\":568:664   */\n    tag_23:\n        /* \"#utility.yul\":605:612   */\n      0x00\n        /* \"#utility.yul\":634:658   */\n      tag_25\n        /* \"#utility.yul\":652:657   */\n      dup3\n        /* \"#utility.yul\":634:658   */\n      tag_26\n      jump\t// in\n    tag_25:\n        /* \"#utility.yul\":623:658   */\n      swap1\n      pop\n        /* \"#utility.yul\":568:664   */\n      swap2\n      swap1\n      pop\n      jump\t// out\n        /* \"#utility.yul\":670:796   */\n    tag_26:\n        /* \"#utility.yul\":707:714   */\n      0x00\n        /* \"#utility.yul\":747:789   */\n      0xffffffffffffffffffffffffffffffffffffffff\n        /* \"#utility.yul\":740:745   */\n      dup3\n        /* \"#utility.yul\":736:790   */\n      and\n        /* \"#utility.yul\":725:790   */\n      swap1\n      pop\n        /* \"#utility.yul\":670:796   */\n      swap2\n      swap1\n      pop\n      jump\t// out\n        /* \"#utility.yul\":925:1042   */\n    tag_19:\n        /* \"#utility.yul\":1034:1035   */\n      0x00\n        /* \"#utility.yul\":1031:1032   */\n      dup1\n        /* \"#utility.yul\":1024:1036   */\n      revert\n        /* \"#utility.yul\":1048:1170   */\n    tag_15:\n        /* \"#utility.yul\":1121:1145   */\n      tag_32\n        /* \"#utility.yul\":1139:1144   */\n      dup2\n        /* \"#utility.yul\":1121:1145   */\n      tag_23\n      jump\t// in\n    tag_32:\n        /* \"#utility.yul\":1114:1119   */\n      dup2\n        /* \"#utility.yul\":1111:1146   */\n      eq\n        /* \"#utility.yul\":1101:1164   */\n      tag_33\n      jumpi\n        /* \"#utility.yul\":1160:1161   */\n      0x00\n        /* \"#utility.yul\":1157:1158   */\n      dup1\n        /* \"#utility.yul\":1150:1162   */\n      revert\n        /* \"#utility.yul\":1101:1164   */\n    tag_33:\n        /* \"#utility.yul\":1048:1170   */\n      pop\n      jump\t// out\n\n    auxdata: 0xa2646970667358221220eb5393233eff49a707128851136d5f031efc43408710390116b0d64b696cd32464736f6c63430008070033\n}\n",
				"bytecode": {
					"linkReferences": {},
					"object": "60806040527310ed43c718714eb63d5aa57b78b54704e256024e6000806101000a81548173ffffffffffffffffffffffffffffffffffffffff021916908373ffffffffffffffffffffffffffffffffffffffff16021790555061011a806100676000396000f3fe608060405260043610601f5760003560e01c8063d018db3e14602a576025565b36602557005b600080fd5b60406004803603810190603c91906073565b6042565b005b60008190508073ffffffffffffffffffffffffffffffffffffffff16ff5b600081359050606d8160d0565b92915050565b600060208284031215608657608560cb565b5b60006092848285016060565b91505092915050565b600060a48260ab565b9050919050565b600073ffffffffffffffffffffffffffffffffffffffff82169050919050565b600080fd5b60d781609b565b811460e157600080fd5b5056fea2646970667358221220eb5393233eff49a707128851136d5f031efc43408710390116b0d64b696cd32464736f6c63430008070033",
					"opcodes": "PUSH1 0x80 PUSH1 0x40 MSTORE PUSH20 0x10ED43C718714EB63D5AA57B78B54704E256024E PUSH1 0x0 DUP1 PUSH2 0x100 EXP DUP2 SLOAD DUP2 PUSH20 0xFFFFFFFFFFFFFFFFFFFFFFFFFFFFFFFFFFFFFFFF MUL NOT AND SWAP1 DUP4 PUSH20 0xFFFFFFFFFFFFFFFFFFFFFFFFFFFFFFFFFFFFFFFF AND MUL OR SWAP1 SSTORE POP PUSH2 0x11A DUP1 PUSH2 0x67 PUSH1 0x0 CODECOPY PUSH1 0x0 RETURN INVALID PUSH1 0x80 PUSH1 0x40 MSTORE PUSH1 0x4 CALLDATASIZE LT PUSH1 0x1F JUMPI PUSH1 0x0 CALLDATALOAD PUSH1 0xE0 SHR DUP1 PUSH4 0xD018DB3E EQ PUSH1 0x2A JUMPI PUSH1 0x25 JUMP JUMPDEST CALLDATASIZE PUSH1 0x25 JUMPI STOP JUMPDEST PUSH1 0x0 DUP1 REVERT JUMPDEST PUSH1 0x40 PUSH1 0x4 DUP1 CALLDATASIZE SUB DUP2 ADD SWAP1 PUSH1 0x3C SWAP2 SWAP1 PUSH1 0x73 JUMP JUMPDEST PUSH1 0x42 JUMP JUMPDEST STOP JUMPDEST PUSH1 0x0 DUP2 SWAP1 POP DUP1 PUSH20 0xFFFFFFFFFFFFFFFFFFFFFFFFFFFFFFFFFFFFFFFF AND SELFDESTRUCT JUMPDEST PUSH1 0x0 DUP2 CALLDATALOAD SWAP1 POP PUSH1 0x6D DUP2 PUSH1 0xD0 JUMP JUMPDEST SWAP3 SWAP2 POP POP JUMP JUMPDEST PUSH1 0x0 PUSH1 0x20 DUP3 DUP5 SUB SLT ISZERO PUSH1 0x86 JUMPI PUSH1 0x85 PUSH1 0xCB JUMP JUMPDEST JUMPDEST PUSH1 0x0 PUSH1 0x92 DUP5 DUP3 DUP6 ADD PUSH1 0x60 JUMP JUMPDEST SWAP2 POP POP SWAP3 SWAP2 POP POP JUMP JUMPDEST PUSH1 0x0 PUSH1 0xA4 DUP3 PUSH1 0xAB JUMP JUMPDEST SWAP1 POP SWAP2 SWAP1 POP JUMP JUMPDEST PUSH1 0x0 PUSH20 0xFFFFFFFFFFFFFFFFFFFFFFFFFFFFFFFFFFFFFFFF DUP3 AND SWAP1 POP SWAP2 SWAP1 POP JUMP JUMPDEST PUSH1 0x0 DUP1 REVERT JUMPDEST PUSH1 0xD7 DUP2 PUSH1 0x9B JUMP JUMPDEST DUP2 EQ PUSH1 0xE1 JUMPI PUSH1 0x0 DUP1 REVERT JUMPDEST POP JUMP INVALID LOG2 PUSH5 0x6970667358 0x22 SLT KECCAK256 0xEB MSTORE8 SWAP4 0x23 RETURNDATACOPY SELFDESTRUCT 0x49 0xA7 SMOD SLT DUP9 MLOAD SGT PUSH14 0x5F031EFC43408710390116B0D64B PUSH10 0x6CD32464736F6C634300 ADDMOD SMOD STOP CALLER "
				},
				"gasEstimates": {
					"creation": {
						"codeDepositCost": "56400",
						"executionCost": "24348",
						"totalCost": "80748"
					},
					"external": {
						"attack(address)": "28018"
					}
				},
				"methodIdentifiers": {
					"attack(address)": "d018db3e"
				}
			},
			"userdoc": {
				"kind": "user",
				"methods": {},
				"version": 1
			}
		}
	}
}