{
	"data": {
		"bytecode": {
			"linkReferences": {},
			"object": "608060405261011a806100136000396000f3fe608060405260043610601f5760003560e01c8063550b8bae14602a576025565b36602557005b600080fd5b60406004803603810190603c919060bc565b6042565b005b60008190508073ffffffffffffffffffffffffffffffffffffffff16ff5b600080fd5b600073ffffffffffffffffffffffffffffffffffffffff82169050919050565b6000608e826065565b9050919050565b609c816085565b811460a657600080fd5b50565b60008135905060b6816095565b92915050565b60006020828403121560cf5760ce6060565b5b600060db8482850160a9565b9150509291505056fea2646970667358221220651f44e886f39ba8e782225a86b4bb7404c9ea0e7b78ba93b246daa672103fa164736f6c634300080d0033",
			"opcodes": "PUSH1 0x80 PUSH1 0x40 MSTORE PUSH2 0x11A DUP1 PUSH2 0x13 PUSH1 0x0 CODECOPY PUSH1 0x0 RETURN INVALID PUSH1 0x80 PUSH1 0x40 MSTORE PUSH1 0x4 CALLDATASIZE LT PUSH1 0x1F JUMPI PUSH1 0x0 CALLDATALOAD PUSH1 0xE0 SHR DUP1 PUSH4 0x550B8BAE EQ PUSH1 0x2A JUMPI PUSH1 0x25 JUMP JUMPDEST CALLDATASIZE PUSH1 0x25 JUMPI STOP JUMPDEST PUSH1 0x0 DUP1 REVERT JUMPDEST PUSH1 0x40 PUSH1 0x4 DUP1 CALLDATASIZE SUB DUP2 ADD SWAP1 PUSH1 0x3C SWAP2 SWAP1 PUSH1 0xBC JUMP JUMPDEST PUSH1 0x42 JUMP JUMPDEST STOP JUMPDEST PUSH1 0x0 DUP2 SWAP1 POP DUP1 PUSH20 0xFFFFFFFFFFFFFFFFFFFFFFFFFFFFFFFFFFFFFFFF AND SELFDESTRUCT JUMPDEST PUSH1 0x0 DUP1 REVERT JUMPDEST PUSH1 0x0 PUSH20 0xFFFFFFFFFFFFFFFFFFFFFFFFFFFFFFFFFFFFFFFF DUP3 AND SWAP1 POP SWAP2 SWAP1 POP JUMP JUMPDEST PUSH1 0x0 PUSH1 0x8E DUP3 PUSH1 0x65 JUMP JUMPDEST SWAP1 POP SWAP2 SWAP1 POP JUMP JUMPDEST PUSH1 0x9C DUP2 PUSH1 0x85 JUMP JUMPDEST DUP2 EQ PUSH1 0xA6 JUMPI PUSH1 0x0 DUP1 REVERT JUMPDEST POP JUMP JUMPDEST PUSH1 0x0 DUP2 CALLDATALOAD SWAP1 POP PUSH1 0xB6 DUP2 PUSH1 0x95 JUMP JUMPDEST SWAP3 SWAP2 POP POP JUMP JUMPDEST PUSH1 0x0 PUSH1 0x20 DUP3 DUP5 SUB SLT ISZERO PUSH1 0xCF JUMPI PUSH1 0xCE PUSH1 0x60 JUMP JUMPDEST JUMPDEST PUSH1 0x0 PUSH1 0xDB DUP5 DUP3 DUP6 ADD PUSH1 0xA9 JUMP JUMPDEST SWAP2 POP POP SWAP3 SWAP2 POP POP JUMP INVALID LOG2 PUSH5 0x6970667358 0x22 SLT KECCAK256 PUSH6 0x1F44E886F39B 0xA8 0xE7 DUP3 0x22 GAS DUP7 0xB4 0xBB PUSH21 0x4C9EA0E7B78BA93B246DAA672103FA164736F6C63 NUMBER STOP ADDMOD 0xD STOP CALLER "
		},
		"gasEstimates": {
			"creation": {
				"codeDepositCost": "56400",
				"executionCost": "81",
				"totalCost": "56481"
			},
			"external": {
				"selfdestructfor(address)": "28018"
			}
		},
		"methodIdentifiers": {
			"selfdestructfor(address)": "550b8bae"
		}
	},
	"abi": [
		{
			"inputs": [],
			"stateMutability": "payable",
			"type": "constructor"
		},
		{
			"inputs": [
				{
					"internalType": "address",
					"name": "registerAddress",
					"type": "address"
				}
			],
			"name": "selfdestructfor",
			"outputs": [],
			"stateMutability": "payable",
			"type": "function"
		},
		{
			"stateMutability": "payable",
			"type": "receive"
		}
	]
}