{
	"data": {
		"bytecode": {
			"linkReferences": {},
			"object": "608060405261011a806100136000396000f3fe608060405260043610601f5760003560e01c8063550b8bae14602a576025565b36602557005b600080fd5b60406004803603810190603c91906073565b6042565b005b60008190508073ffffffffffffffffffffffffffffffffffffffff16ff5b600081359050606d8160d0565b92915050565b600060208284031215608657608560cb565b5b60006092848285016060565b91505092915050565b600060a48260ab565b9050919050565b600073ffffffffffffffffffffffffffffffffffffffff82169050919050565b600080fd5b60d781609b565b811460e157600080fd5b5056fea2646970667358221220b02057f0aa7f4cc1df95307884e0e9b3e0ee2a00232cbd768ad20e0aad9af70564736f6c63430008070033",
			"opcodes": "PUSH1 0x80 PUSH1 0x40 MSTORE PUSH2 0x11A DUP1 PUSH2 0x13 PUSH1 0x0 CODECOPY PUSH1 0x0 RETURN INVALID PUSH1 0x80 PUSH1 0x40 MSTORE PUSH1 0x4 CALLDATASIZE LT PUSH1 0x1F JUMPI PUSH1 0x0 CALLDATALOAD PUSH1 0xE0 SHR DUP1 PUSH4 0x550B8BAE EQ PUSH1 0x2A JUMPI PUSH1 0x25 JUMP JUMPDEST CALLDATASIZE PUSH1 0x25 JUMPI STOP JUMPDEST PUSH1 0x0 DUP1 REVERT JUMPDEST PUSH1 0x40 PUSH1 0x4 DUP1 CALLDATASIZE SUB DUP2 ADD SWAP1 PUSH1 0x3C SWAP2 SWAP1 PUSH1 0x73 JUMP JUMPDEST PUSH1 0x42 JUMP JUMPDEST STOP JUMPDEST PUSH1 0x0 DUP2 SWAP1 POP DUP1 PUSH20 0xFFFFFFFFFFFFFFFFFFFFFFFFFFFFFFFFFFFFFFFF AND SELFDESTRUCT JUMPDEST PUSH1 0x0 DUP2 CALLDATALOAD SWAP1 POP PUSH1 0x6D DUP2 PUSH1 0xD0 JUMP JUMPDEST SWAP3 SWAP2 POP POP JUMP JUMPDEST PUSH1 0x0 PUSH1 0x20 DUP3 DUP5 SUB SLT ISZERO PUSH1 0x86 JUMPI PUSH1 0x85 PUSH1 0xCB JUMP JUMPDEST JUMPDEST PUSH1 0x0 PUSH1 0x92 DUP5 DUP3 DUP6 ADD PUSH1 0x60 JUMP JUMPDEST SWAP2 POP POP SWAP3 SWAP2 POP POP JUMP JUMPDEST PUSH1 0x0 PUSH1 0xA4 DUP3 PUSH1 0xAB JUMP JUMPDEST SWAP1 POP SWAP2 SWAP1 POP JUMP JUMPDEST PUSH1 0x0 PUSH20 0xFFFFFFFFFFFFFFFFFFFFFFFFFFFFFFFFFFFFFFFF DUP3 AND SWAP1 POP SWAP2 SWAP1 POP JUMP JUMPDEST PUSH1 0x0 DUP1 REVERT JUMPDEST PUSH1 0xD7 DUP2 PUSH1 0x9B JUMP JUMPDEST DUP2 EQ PUSH1 0xE1 JUMPI PUSH1 0x0 DUP1 REVERT JUMPDEST POP JUMP INVALID LOG2 PUSH5 0x6970667358 0x22 SLT KECCAK256 0xB0 KECCAK256 JUMPI CREATE 0xAA PUSH32 0x4CC1DF95307884E0E9B3E0EE2A00232CBD768AD20E0AAD9AF70564736F6C6343 STOP ADDMOD SMOD STOP CALLER "
		},
		"gasEstimates": {
			"creation": {
				"codeDepositCost": "56400",
				"executionCost": "81",
				"totalCost": "56481"
			},
			"external": {
				"selfdestructfor(address)": "28018"
			}
		},
		"methodIdentifiers": {
			"selfdestructfor(address)": "550b8bae"
		}
	},
	"abi": [
		{
			"inputs": [],
			"stateMutability": "payable",
			"type": "constructor"
		},
		{
			"inputs": [
				{
					"internalType": "address",
					"name": "registerAddress",
					"type": "address"
				}
			],
			"name": "selfdestructfor",
			"outputs": [],
			"stateMutability": "payable",
			"type": "function"
		},
		{
			"stateMutability": "payable",
			"type": "receive"
		}
	]
}