{
	"Code-hardhat-ethersJs/contracts/MyTokenMarket.sol": {
		"MyTokenMarket": {
			"abi": [
				{
					"inputs": [],
					"stateMutability": "nonpayable",
					"type": "constructor"
				},
				{
					"inputs": [
						{
							"internalType": "uint256",
							"name": "amountMyTokenDesired",
							"type": "uint256"
						}
					],
					"name": "addLiquidity",
					"outputs": [
						{
							"internalType": "uint256",
							"name": "amountOfLp",
							"type": "uint256"
						}
					],
					"stateMutability": "payable",
					"type": "function"
				},
				{
					"inputs": [
						{
							"internalType": "address",
							"name": "",
							"type": "address"
						}
					],
					"name": "testFlashLoan",
					"outputs": [],
					"stateMutability": "nonpayable",
					"type": "function"
				}
			],
			"devdoc": {
				"kind": "dev",
				"methods": {},
				"version": 1
			},
			"evm": {
				"assembly": "    /* \"Code-hardhat-ethersJs/contracts/MyTokenMarket.sol\":221:1771  contract MyTokenMarket{... */\n  mstore(0x40, 0x80)\n    /* \"Code-hardhat-ethersJs/contracts/MyTokenMarket.sol\":273:315  0x7a250d5630B4cF539739dF2C5dAcb4c659F2488D */\n  0x7a250d5630b4cf539739df2c5dacb4c659f2488d\n    /* \"Code-hardhat-ethersJs/contracts/MyTokenMarket.sol\":252:315  address uv2address = 0x7a250d5630B4cF539739dF2C5dAcb4c659F2488D */\n  0x00\n  dup1\n  0x0100\n  exp\n  dup2\n  sload\n  dup2\n  0xffffffffffffffffffffffffffffffffffffffff\n  mul\n  not\n  and\n  swap1\n  dup4\n  0xffffffffffffffffffffffffffffffffffffffff\n  and\n  mul\n  or\n  swap1\n  sstore\n  pop\n    /* \"Code-hardhat-ethersJs/contracts/MyTokenMarket.sol\":343:385  0xc778417E063141139Fce010982780140Aa0cD5Ab */\n  0xc778417e063141139fce010982780140aa0cd5ab\n    /* \"Code-hardhat-ethersJs/contracts/MyTokenMarket.sol\":321:385  address wethaddress = 0xc778417E063141139Fce010982780140Aa0cD5Ab */\n  0x01\n  exp(0x0100, 0x00)\n  dup2\n  sload\n  dup2\n  0xffffffffffffffffffffffffffffffffffffffff\n  mul\n  not\n  and\n  swap1\n  dup4\n  0xffffffffffffffffffffffffffffffffffffffff\n  and\n  mul\n  or\n  swap1\n  sstore\n  pop\n    /* \"Code-hardhat-ethersJs/contracts/MyTokenMarket.sol\":416:458  0xBD6efD9aC4bD6082d0DCf02AF2eCB28f07017375 */\n  0xbd6efd9ac4bd6082d0dcf02af2ecb28f07017375\n    /* \"Code-hardhat-ethersJs/contracts/MyTokenMarket.sol\":391:458  address mytokenaddress = 0xBD6efD9aC4bD6082d0DCf02AF2eCB28f07017375 */\n  0x02\n  exp(0x0100, 0x00)\n  dup2\n  sload\n  dup2\n  0xffffffffffffffffffffffffffffffffffffffff\n  mul\n  not\n  and\n  swap1\n  dup4\n  0xffffffffffffffffffffffffffffffffffffffff\n  and\n  mul\n  or\n  swap1\n  sstore\n  pop\n    /* \"Code-hardhat-ethersJs/contracts/MyTokenMarket.sol\":516:526  uv2address */\n  0x00\n  dup1\n  sload\n  swap1\n  0x0100\n  exp\n  swap1\n  div\n  0xffffffffffffffffffffffffffffffffffffffff\n  and\n    /* \"Code-hardhat-ethersJs/contracts/MyTokenMarket.sol\":466:527  IUniswapV2Router02 uv2router = IUniswapV2Router02(uv2address) */\n  0x03\n  exp(0x0100, 0x00)\n  dup2\n  sload\n  dup2\n  0xffffffffffffffffffffffffffffffffffffffff\n  mul\n  not\n  and\n  swap1\n  dup4\n  0xffffffffffffffffffffffffffffffffffffffff\n  and\n  mul\n  or\n  swap1\n  sstore\n  pop\n    /* \"Code-hardhat-ethersJs/contracts/MyTokenMarket.sol\":556:570  mytokenaddress */\n  0x02\n  0x00\n  swap1\n  sload\n  swap1\n  0x0100\n  exp\n  swap1\n  div\n  0xffffffffffffffffffffffffffffffffffffffff\n  and\n    /* \"Code-hardhat-ethersJs/contracts/MyTokenMarket.sol\":533:571  IERC20 mtoken = IERC20(mytokenaddress) */\n  0x04\n  exp(0x0100, 0x00)\n  dup2\n  sload\n  dup2\n  0xffffffffffffffffffffffffffffffffffffffff\n  mul\n  not\n  and\n  swap1\n  dup4\n  0xffffffffffffffffffffffffffffffffffffffff\n  and\n  mul\n  or\n  swap1\n  sstore\n  pop\n    /* \"Code-hardhat-ethersJs/contracts/MyTokenMarket.sol\":578:598  constructor(){... */\n  callvalue\n  dup1\n  iszero\n  tag_1\n  jumpi\n  0x00\n  dup1\n  revert\ntag_1:\n  pop\n    /* \"Code-hardhat-ethersJs/contracts/MyTokenMarket.sol\":221:1771  contract MyTokenMarket{... */\n  dataSize(sub_0)\n  dup1\n  dataOffset(sub_0)\n  0x00\n  codecopy\n  0x00\n  return\nstop\n\nsub_0: assembly {\n        /* \"Code-hardhat-ethersJs/contracts/MyTokenMarket.sol\":221:1771  contract MyTokenMarket{... */\n      mstore(0x40, 0x80)\n      jumpi(tag_1, lt(calldatasize, 0x04))\n      shr(0xe0, calldataload(0x00))\n      dup1\n      0x07290421\n      eq\n      tag_2\n      jumpi\n      dup1\n      0x51c6590a\n      eq\n      tag_3\n      jumpi\n    tag_1:\n      0x00\n      dup1\n      revert\n        /* \"Code-hardhat-ethersJs/contracts/MyTokenMarket.sol\":1722:1768  function testFlashLoan(address )public{... */\n    tag_2:\n      callvalue\n      dup1\n      iszero\n      tag_4\n      jumpi\n      0x00\n      dup1\n      revert\n    tag_4:\n      pop\n      tag_5\n      0x04\n      dup1\n      calldatasize\n      sub\n      dup2\n      add\n      swap1\n      tag_6\n      swap2\n      swap1\n      tag_7\n      jump\t// in\n    tag_6:\n      tag_8\n      jump\t// in\n    tag_5:\n      stop\n        /* \"Code-hardhat-ethersJs/contracts/MyTokenMarket.sol\":1176:1716  function addLiquidity(... */\n    tag_3:\n      tag_9\n      0x04\n      dup1\n      calldatasize\n      sub\n      dup2\n      add\n      swap1\n      tag_10\n      swap2\n      swap1\n      tag_11\n      jump\t// in\n    tag_10:\n      tag_12\n      jump\t// in\n    tag_9:\n      mload(0x40)\n      tag_13\n      swap2\n      swap1\n      tag_14\n      jump\t// in\n    tag_13:\n      mload(0x40)\n      dup1\n      swap2\n      sub\n      swap1\n      return\n        /* \"Code-hardhat-ethersJs/contracts/MyTokenMarket.sol\":1722:1768  function testFlashLoan(address )public{... */\n    tag_8:\n      pop\n      jump\t// out\n        /* \"Code-hardhat-ethersJs/contracts/MyTokenMarket.sol\":1176:1716  function addLiquidity(... */\n    tag_12:\n        /* \"Code-hardhat-ethersJs/contracts/MyTokenMarket.sol\":1264:1282  uint256 amountOfLp */\n      0x00\n        /* \"Code-hardhat-ethersJs/contracts/MyTokenMarket.sol\":1331:1337  mtoken */\n      0x04\n      0x00\n      swap1\n      sload\n      swap1\n      0x0100\n      exp\n      swap1\n      div\n      0xffffffffffffffffffffffffffffffffffffffff\n      and\n        /* \"Code-hardhat-ethersJs/contracts/MyTokenMarket.sol\":1331:1345  mtoken.approve */\n      0xffffffffffffffffffffffffffffffffffffffff\n      and\n      0x095ea7b3\n        /* \"Code-hardhat-ethersJs/contracts/MyTokenMarket.sol\":1354:1363  uv2router */\n      0x03\n      0x00\n      swap1\n      sload\n      swap1\n      0x0100\n      exp\n      swap1\n      div\n      0xffffffffffffffffffffffffffffffffffffffff\n      and\n        /* \"Code-hardhat-ethersJs/contracts/MyTokenMarket.sol\":1366:1386  amountMyTokenDesired */\n      dup5\n        /* \"Code-hardhat-ethersJs/contracts/MyTokenMarket.sol\":1331:1387  mtoken.approve(address(uv2router), amountMyTokenDesired) */\n      mload(0x40)\n      dup4\n      0xffffffff\n      and\n      0xe0\n      shl\n      dup2\n      mstore\n      0x04\n      add\n      tag_17\n      swap3\n      swap2\n      swap1\n      tag_18\n      jump\t// in\n    tag_17:\n      0x20\n      mload(0x40)\n      dup1\n      dup4\n      sub\n      dup2\n      0x00\n      dup8\n      gas\n      call\n      iszero\n      dup1\n      iszero\n      tag_20\n      jumpi\n      returndatasize\n      0x00\n      dup1\n      returndatacopy\n      revert(0x00, returndatasize)\n    tag_20:\n      pop\n      pop\n      pop\n      pop\n      mload(0x40)\n      returndatasize\n      not(0x1f)\n      0x1f\n      dup3\n      add\n      and\n      dup3\n      add\n      dup1\n      0x40\n      mstore\n      pop\n      dup2\n      add\n      swap1\n      tag_21\n      swap2\n      swap1\n      tag_22\n      jump\t// in\n    tag_21:\n      pop\n        /* \"Code-hardhat-ethersJs/contracts/MyTokenMarket.sol\":1397:1409  bool success */\n      0x00\n        /* \"Code-hardhat-ethersJs/contracts/MyTokenMarket.sol\":1412:1418  mtoken */\n      0x04\n      0x00\n      swap1\n      sload\n      swap1\n      0x0100\n      exp\n      swap1\n      div\n      0xffffffffffffffffffffffffffffffffffffffff\n      and\n        /* \"Code-hardhat-ethersJs/contracts/MyTokenMarket.sol\":1412:1431  mtoken.transferFrom */\n      0xffffffffffffffffffffffffffffffffffffffff\n      and\n      0x23b872dd\n        /* \"Code-hardhat-ethersJs/contracts/MyTokenMarket.sol\":1432:1442  msg.sender */\n      caller\n        /* \"Code-hardhat-ethersJs/contracts/MyTokenMarket.sol\":1452:1456  this */\n      address\n        /* \"Code-hardhat-ethersJs/contracts/MyTokenMarket.sol\":1459:1479  amountMyTokenDesired */\n      dup7\n        /* \"Code-hardhat-ethersJs/contracts/MyTokenMarket.sol\":1412:1480  mtoken.transferFrom(msg.sender, address(this), amountMyTokenDesired) */\n      mload(0x40)\n      dup5\n      0xffffffff\n      and\n      0xe0\n      shl\n      dup2\n      mstore\n      0x04\n      add\n      tag_23\n      swap4\n      swap3\n      swap2\n      swap1\n      tag_24\n      jump\t// in\n    tag_23:\n      0x20\n      mload(0x40)\n      dup1\n      dup4\n      sub\n      dup2\n      0x00\n      dup8\n      gas\n      call\n      iszero\n      dup1\n      iszero\n      tag_26\n      jumpi\n      returndatasize\n      0x00\n      dup1\n      returndatacopy\n      revert(0x00, returndatasize)\n    tag_26:\n      pop\n      pop\n      pop\n      pop\n      mload(0x40)\n      returndatasize\n      not(0x1f)\n      0x1f\n      dup3\n      add\n      and\n      dup3\n      add\n      dup1\n      0x40\n      mstore\n      pop\n      dup2\n      add\n      swap1\n      tag_27\n      swap2\n      swap1\n      tag_22\n      jump\t// in\n    tag_27:\n        /* \"Code-hardhat-ethersJs/contracts/MyTokenMarket.sol\":1397:1480  bool success = mtoken.transferFrom(msg.sender, address(this), amountMyTokenDesired) */\n      swap1\n      pop\n        /* \"Code-hardhat-ethersJs/contracts/MyTokenMarket.sol\":1498:1505  success */\n      dup1\n        /* \"Code-hardhat-ethersJs/contracts/MyTokenMarket.sol\":1490:1532  require(success, \"mtoken transfer error!\") */\n      tag_28\n      jumpi\n      mload(0x40)\n      0x08c379a000000000000000000000000000000000000000000000000000000000\n      dup2\n      mstore\n      0x04\n      add\n      tag_29\n      swap1\n      tag_30\n      jump\t// in\n    tag_29:\n      mload(0x40)\n      dup1\n      swap2\n      sub\n      swap1\n      revert\n    tag_28:\n        /* \"Code-hardhat-ethersJs/contracts/MyTokenMarket.sol\":1543:1559  uint amountToken */\n      0x00\n        /* \"Code-hardhat-ethersJs/contracts/MyTokenMarket.sol\":1565:1574  uv2router */\n      0x03\n      0x00\n      swap1\n      sload\n      swap1\n      0x0100\n      exp\n      swap1\n      div\n      0xffffffffffffffffffffffffffffffffffffffff\n      and\n        /* \"Code-hardhat-ethersJs/contracts/MyTokenMarket.sol\":1565:1590  uv2router.addLiquidityETH */\n      0xffffffffffffffffffffffffffffffffffffffff\n      and\n      0xf305d719\n        /* \"Code-hardhat-ethersJs/contracts/MyTokenMarket.sol\":1598:1607  msg.value */\n      callvalue\n        /* \"Code-hardhat-ethersJs/contracts/MyTokenMarket.sol\":1610:1624  mytokenaddress */\n      0x02\n      0x00\n      swap1\n      sload\n      swap1\n      0x0100\n      exp\n      swap1\n      div\n      0xffffffffffffffffffffffffffffffffffffffff\n      and\n        /* \"Code-hardhat-ethersJs/contracts/MyTokenMarket.sol\":1626:1646  amountMyTokenDesired */\n      dup8\n        /* \"Code-hardhat-ethersJs/contracts/MyTokenMarket.sol\":1648:1649  0 */\n      0x00\n        /* \"Code-hardhat-ethersJs/contracts/MyTokenMarket.sol\":1651:1652  0 */\n      dup1\n        /* \"Code-hardhat-ethersJs/contracts/MyTokenMarket.sol\":1654:1664  msg.sender */\n      caller\n        /* \"Code-hardhat-ethersJs/contracts/MyTokenMarket.sol\":1665:1680  block.timestamp */\n      timestamp\n        /* \"Code-hardhat-ethersJs/contracts/MyTokenMarket.sol\":1565:1681  uv2router.addLiquidityETH{value: msg.value}( mytokenaddress, amountMyTokenDesired, 0, 0, msg.sender,block.timestamp) */\n      mload(0x40)\n      dup9\n      0xffffffff\n      and\n      0xe0\n      shl\n      dup2\n      mstore\n      0x04\n      add\n      tag_31\n      swap7\n      swap6\n      swap5\n      swap4\n      swap3\n      swap2\n      swap1\n      tag_32\n      jump\t// in\n    tag_31:\n      0x60\n      mload(0x40)\n      dup1\n      dup4\n      sub\n      dup2\n      dup6\n      dup9\n      gas\n      call\n      iszero\n      dup1\n      iszero\n      tag_34\n      jumpi\n      returndatasize\n      0x00\n      dup1\n      returndatacopy\n      revert(0x00, returndatasize)\n    tag_34:\n      pop\n      pop\n      pop\n      pop\n      pop\n      mload(0x40)\n      returndatasize\n      not(0x1f)\n      0x1f\n      dup3\n      add\n      and\n      dup3\n      add\n      dup1\n      0x40\n      mstore\n      pop\n      dup2\n      add\n      swap1\n      tag_35\n      swap2\n      swap1\n      tag_36\n      jump\t// in\n    tag_35:\n        /* \"Code-hardhat-ethersJs/contracts/MyTokenMarket.sol\":1542:1681  (uint amountToken,,) = uv2router.addLiquidityETH{value: msg.value}( mytokenaddress, amountMyTokenDesired, 0, 0, msg.sender,block.timestamp) */\n      pop\n      pop\n      swap1\n      pop\n        /* \"Code-hardhat-ethersJs/contracts/MyTokenMarket.sol\":1698:1709  amountToken */\n      dup1\n        /* \"Code-hardhat-ethersJs/contracts/MyTokenMarket.sol\":1691:1709  return amountToken */\n      swap3\n      pop\n      pop\n      pop\n        /* \"Code-hardhat-ethersJs/contracts/MyTokenMarket.sol\":1176:1716  function addLiquidity(... */\n      swap2\n      swap1\n      pop\n      jump\t// out\n        /* \"#utility.yul\":88:205   */\n    tag_38:\n        /* \"#utility.yul\":197:198   */\n      0x00\n        /* \"#utility.yul\":194:195   */\n      dup1\n        /* \"#utility.yul\":187:199   */\n      revert\n        /* \"#utility.yul\":334:460   */\n    tag_40:\n        /* \"#utility.yul\":371:378   */\n      0x00\n        /* \"#utility.yul\":411:453   */\n      0xffffffffffffffffffffffffffffffffffffffff\n        /* \"#utility.yul\":404:409   */\n      dup3\n        /* \"#utility.yul\":400:454   */\n      and\n        /* \"#utility.yul\":389:454   */\n      swap1\n      pop\n        /* \"#utility.yul\":334:460   */\n      swap2\n      swap1\n      pop\n      jump\t// out\n        /* \"#utility.yul\":466:562   */\n    tag_41:\n        /* \"#utility.yul\":503:510   */\n      0x00\n        /* \"#utility.yul\":532:556   */\n      tag_66\n        /* \"#utility.yul\":550:555   */\n      dup3\n        /* \"#utility.yul\":532:556   */\n      tag_40\n      jump\t// in\n    tag_66:\n        /* \"#utility.yul\":521:556   */\n      swap1\n      pop\n        /* \"#utility.yul\":466:562   */\n      swap2\n      swap1\n      pop\n      jump\t// out\n        /* \"#utility.yul\":568:690   */\n    tag_42:\n        /* \"#utility.yul\":641:665   */\n      tag_68\n        /* \"#utility.yul\":659:664   */\n      dup2\n        /* \"#utility.yul\":641:665   */\n      tag_41\n      jump\t// in\n    tag_68:\n        /* \"#utility.yul\":634:639   */\n      dup2\n        /* \"#utility.yul\":631:666   */\n      eq\n        /* \"#utility.yul\":621:684   */\n      tag_69\n      jumpi\n        /* \"#utility.yul\":680:681   */\n      0x00\n        /* \"#utility.yul\":677:678   */\n      dup1\n        /* \"#utility.yul\":670:682   */\n      revert\n        /* \"#utility.yul\":621:684   */\n    tag_69:\n        /* \"#utility.yul\":568:690   */\n      pop\n      jump\t// out\n        /* \"#utility.yul\":696:835   */\n    tag_43:\n        /* \"#utility.yul\":742:747   */\n      0x00\n        /* \"#utility.yul\":780:786   */\n      dup2\n        /* \"#utility.yul\":767:787   */\n      calldataload\n        /* \"#utility.yul\":758:787   */\n      swap1\n      pop\n        /* \"#utility.yul\":796:829   */\n      tag_71\n        /* \"#utility.yul\":823:828   */\n      dup2\n        /* \"#utility.yul\":796:829   */\n      tag_42\n      jump\t// in\n    tag_71:\n        /* \"#utility.yul\":696:835   */\n      swap3\n      swap2\n      pop\n      pop\n      jump\t// out\n        /* \"#utility.yul\":841:1170   */\n    tag_7:\n        /* \"#utility.yul\":900:906   */\n      0x00\n        /* \"#utility.yul\":949:951   */\n      0x20\n        /* \"#utility.yul\":937:946   */\n      dup3\n        /* \"#utility.yul\":928:935   */\n      dup5\n        /* \"#utility.yul\":924:947   */\n      sub\n        /* \"#utility.yul\":920:952   */\n      slt\n        /* \"#utility.yul\":917:1036   */\n      iszero\n      tag_73\n      jumpi\n        /* \"#utility.yul\":955:1034   */\n      tag_74\n      tag_38\n      jump\t// in\n    tag_74:\n        /* \"#utility.yul\":917:1036   */\n    tag_73:\n        /* \"#utility.yul\":1075:1076   */\n      0x00\n        /* \"#utility.yul\":1100:1153   */\n      tag_75\n        /* \"#utility.yul\":1145:1152   */\n      dup5\n        /* \"#utility.yul\":1136:1142   */\n      dup3\n        /* \"#utility.yul\":1125:1134   */\n      dup6\n        /* \"#utility.yul\":1121:1143   */\n      add\n        /* \"#utility.yul\":1100:1153   */\n      tag_43\n      jump\t// in\n    tag_75:\n        /* \"#utility.yul\":1090:1153   */\n      swap2\n      pop\n        /* \"#utility.yul\":1046:1163   */\n      pop\n        /* \"#utility.yul\":841:1170   */\n      swap3\n      swap2\n      pop\n      pop\n      jump\t// out\n        /* \"#utility.yul\":1176:1253   */\n    tag_44:\n        /* \"#utility.yul\":1213:1220   */\n      0x00\n        /* \"#utility.yul\":1242:1247   */\n      dup2\n        /* \"#utility.yul\":1231:1247   */\n      swap1\n      pop\n        /* \"#utility.yul\":1176:1253   */\n      swap2\n      swap1\n      pop\n      jump\t// out\n        /* \"#utility.yul\":1259:1381   */\n    tag_45:\n        /* \"#utility.yul\":1332:1356   */\n      tag_78\n        /* \"#utility.yul\":1350:1355   */\n      dup2\n        /* \"#utility.yul\":1332:1356   */\n      tag_44\n      jump\t// in\n    tag_78:\n        /* \"#utility.yul\":1325:1330   */\n      dup2\n        /* \"#utility.yul\":1322:1357   */\n      eq\n        /* \"#utility.yul\":1312:1375   */\n      tag_79\n      jumpi\n        /* \"#utility.yul\":1371:1372   */\n      0x00\n        /* \"#utility.yul\":1368:1369   */\n      dup1\n        /* \"#utility.yul\":1361:1373   */\n      revert\n        /* \"#utility.yul\":1312:1375   */\n    tag_79:\n        /* \"#utility.yul\":1259:1381   */\n      pop\n      jump\t// out\n        /* \"#utility.yul\":1387:1526   */\n    tag_46:\n        /* \"#utility.yul\":1433:1438   */\n      0x00\n        /* \"#utility.yul\":1471:1477   */\n      dup2\n        /* \"#utility.yul\":1458:1478   */\n      calldataload\n        /* \"#utility.yul\":1449:1478   */\n      swap1\n      pop\n        /* \"#utility.yul\":1487:1520   */\n      tag_81\n        /* \"#utility.yul\":1514:1519   */\n      dup2\n        /* \"#utility.yul\":1487:1520   */\n      tag_45\n      jump\t// in\n    tag_81:\n        /* \"#utility.yul\":1387:1526   */\n      swap3\n      swap2\n      pop\n      pop\n      jump\t// out\n        /* \"#utility.yul\":1532:1861   */\n    tag_11:\n        /* \"#utility.yul\":1591:1597   */\n      0x00\n        /* \"#utility.yul\":1640:1642   */\n      0x20\n        /* \"#utility.yul\":1628:1637   */\n      dup3\n        /* \"#utility.yul\":1619:1626   */\n      dup5\n        /* \"#utility.yul\":1615:1638   */\n      sub\n        /* \"#utility.yul\":1611:1643   */\n      slt\n        /* \"#utility.yul\":1608:1727   */\n      iszero\n      tag_83\n      jumpi\n        /* \"#utility.yul\":1646:1725   */\n      tag_84\n      tag_38\n      jump\t// in\n    tag_84:\n        /* \"#utility.yul\":1608:1727   */\n    tag_83:\n        /* \"#utility.yul\":1766:1767   */\n      0x00\n        /* \"#utility.yul\":1791:1844   */\n      tag_85\n        /* \"#utility.yul\":1836:1843   */\n      dup5\n        /* \"#utility.yul\":1827:1833   */\n      dup3\n        /* \"#utility.yul\":1816:1825   */\n      dup6\n        /* \"#utility.yul\":1812:1834   */\n      add\n        /* \"#utility.yul\":1791:1844   */\n      tag_46\n      jump\t// in\n    tag_85:\n        /* \"#utility.yul\":1781:1844   */\n      swap2\n      pop\n        /* \"#utility.yul\":1737:1854   */\n      pop\n        /* \"#utility.yul\":1532:1861   */\n      swap3\n      swap2\n      pop\n      pop\n      jump\t// out\n        /* \"#utility.yul\":1867:1985   */\n    tag_47:\n        /* \"#utility.yul\":1954:1978   */\n      tag_87\n        /* \"#utility.yul\":1972:1977   */\n      dup2\n        /* \"#utility.yul\":1954:1978   */\n      tag_44\n      jump\t// in\n    tag_87:\n        /* \"#utility.yul\":1949:1952   */\n      dup3\n        /* \"#utility.yul\":1942:1979   */\n      mstore\n        /* \"#utility.yul\":1867:1985   */\n      pop\n      pop\n      jump\t// out\n        /* \"#utility.yul\":1991:2213   */\n    tag_14:\n        /* \"#utility.yul\":2084:2088   */\n      0x00\n        /* \"#utility.yul\":2122:2124   */\n      0x20\n        /* \"#utility.yul\":2111:2120   */\n      dup3\n        /* \"#utility.yul\":2107:2125   */\n      add\n        /* \"#utility.yul\":2099:2125   */\n      swap1\n      pop\n        /* \"#utility.yul\":2135:2206   */\n      tag_89\n        /* \"#utility.yul\":2203:2204   */\n      0x00\n        /* \"#utility.yul\":2192:2201   */\n      dup4\n        /* \"#utility.yul\":2188:2205   */\n      add\n        /* \"#utility.yul\":2179:2185   */\n      dup5\n        /* \"#utility.yul\":2135:2206   */\n      tag_47\n      jump\t// in\n    tag_89:\n        /* \"#utility.yul\":1991:2213   */\n      swap3\n      swap2\n      pop\n      pop\n      jump\t// out\n        /* \"#utility.yul\":2219:2337   */\n    tag_48:\n        /* \"#utility.yul\":2306:2330   */\n      tag_91\n        /* \"#utility.yul\":2324:2329   */\n      dup2\n        /* \"#utility.yul\":2306:2330   */\n      tag_41\n      jump\t// in\n    tag_91:\n        /* \"#utility.yul\":2301:2304   */\n      dup3\n        /* \"#utility.yul\":2294:2331   */\n      mstore\n        /* \"#utility.yul\":2219:2337   */\n      pop\n      pop\n      jump\t// out\n        /* \"#utility.yul\":2343:2675   */\n    tag_18:\n        /* \"#utility.yul\":2464:2468   */\n      0x00\n        /* \"#utility.yul\":2502:2504   */\n      0x40\n        /* \"#utility.yul\":2491:2500   */\n      dup3\n        /* \"#utility.yul\":2487:2505   */\n      add\n        /* \"#utility.yul\":2479:2505   */\n      swap1\n      pop\n        /* \"#utility.yul\":2515:2586   */\n      tag_93\n        /* \"#utility.yul\":2583:2584   */\n      0x00\n        /* \"#utility.yul\":2572:2581   */\n      dup4\n        /* \"#utility.yul\":2568:2585   */\n      add\n        /* \"#utility.yul\":2559:2565   */\n      dup6\n        /* \"#utility.yul\":2515:2586   */\n      tag_48\n      jump\t// in\n    tag_93:\n        /* \"#utility.yul\":2596:2668   */\n      tag_94\n        /* \"#utility.yul\":2664:2666   */\n      0x20\n        /* \"#utility.yul\":2653:2662   */\n      dup4\n        /* \"#utility.yul\":2649:2667   */\n      add\n        /* \"#utility.yul\":2640:2646   */\n      dup5\n        /* \"#utility.yul\":2596:2668   */\n      tag_47\n      jump\t// in\n    tag_94:\n        /* \"#utility.yul\":2343:2675   */\n      swap4\n      swap3\n      pop\n      pop\n      pop\n      jump\t// out\n        /* \"#utility.yul\":2681:2771   */\n    tag_49:\n        /* \"#utility.yul\":2715:2722   */\n      0x00\n        /* \"#utility.yul\":2758:2763   */\n      dup2\n        /* \"#utility.yul\":2751:2764   */\n      iszero\n        /* \"#utility.yul\":2744:2765   */\n      iszero\n        /* \"#utility.yul\":2733:2765   */\n      swap1\n      pop\n        /* \"#utility.yul\":2681:2771   */\n      swap2\n      swap1\n      pop\n      jump\t// out\n        /* \"#utility.yul\":2777:2893   */\n    tag_50:\n        /* \"#utility.yul\":2847:2868   */\n      tag_97\n        /* \"#utility.yul\":2862:2867   */\n      dup2\n        /* \"#utility.yul\":2847:2868   */\n      tag_49\n      jump\t// in\n    tag_97:\n        /* \"#utility.yul\":2840:2845   */\n      dup2\n        /* \"#utility.yul\":2837:2869   */\n      eq\n        /* \"#utility.yul\":2827:2887   */\n      tag_98\n      jumpi\n        /* \"#utility.yul\":2883:2884   */\n      0x00\n        /* \"#utility.yul\":2880:2881   */\n      dup1\n        /* \"#utility.yul\":2873:2885   */\n      revert\n        /* \"#utility.yul\":2827:2887   */\n    tag_98:\n        /* \"#utility.yul\":2777:2893   */\n      pop\n      jump\t// out\n        /* \"#utility.yul\":2899:3036   */\n    tag_51:\n        /* \"#utility.yul\":2953:2958   */\n      0x00\n        /* \"#utility.yul\":2984:2990   */\n      dup2\n        /* \"#utility.yul\":2978:2991   */\n      mload\n        /* \"#utility.yul\":2969:2991   */\n      swap1\n      pop\n        /* \"#utility.yul\":3000:3030   */\n      tag_100\n        /* \"#utility.yul\":3024:3029   */\n      dup2\n        /* \"#utility.yul\":3000:3030   */\n      tag_50\n      jump\t// in\n    tag_100:\n        /* \"#utility.yul\":2899:3036   */\n      swap3\n      swap2\n      pop\n      pop\n      jump\t// out\n        /* \"#utility.yul\":3042:3387   */\n    tag_22:\n        /* \"#utility.yul\":3109:3115   */\n      0x00\n        /* \"#utility.yul\":3158:3160   */\n      0x20\n        /* \"#utility.yul\":3146:3155   */\n      dup3\n        /* \"#utility.yul\":3137:3144   */\n      dup5\n        /* \"#utility.yul\":3133:3156   */\n      sub\n        /* \"#utility.yul\":3129:3161   */\n      slt\n        /* \"#utility.yul\":3126:3245   */\n      iszero\n      tag_102\n      jumpi\n        /* \"#utility.yul\":3164:3243   */\n      tag_103\n      tag_38\n      jump\t// in\n    tag_103:\n        /* \"#utility.yul\":3126:3245   */\n    tag_102:\n        /* \"#utility.yul\":3284:3285   */\n      0x00\n        /* \"#utility.yul\":3309:3370   */\n      tag_104\n        /* \"#utility.yul\":3362:3369   */\n      dup5\n        /* \"#utility.yul\":3353:3359   */\n      dup3\n        /* \"#utility.yul\":3342:3351   */\n      dup6\n        /* \"#utility.yul\":3338:3360   */\n      add\n        /* \"#utility.yul\":3309:3370   */\n      tag_51\n      jump\t// in\n    tag_104:\n        /* \"#utility.yul\":3299:3370   */\n      swap2\n      pop\n        /* \"#utility.yul\":3255:3380   */\n      pop\n        /* \"#utility.yul\":3042:3387   */\n      swap3\n      swap2\n      pop\n      pop\n      jump\t// out\n        /* \"#utility.yul\":3393:3835   */\n    tag_24:\n        /* \"#utility.yul\":3542:3546   */\n      0x00\n        /* \"#utility.yul\":3580:3582   */\n      0x60\n        /* \"#utility.yul\":3569:3578   */\n      dup3\n        /* \"#utility.yul\":3565:3583   */\n      add\n        /* \"#utility.yul\":3557:3583   */\n      swap1\n      pop\n        /* \"#utility.yul\":3593:3664   */\n      tag_106\n        /* \"#utility.yul\":3661:3662   */\n      0x00\n        /* \"#utility.yul\":3650:3659   */\n      dup4\n        /* \"#utility.yul\":3646:3663   */\n      add\n        /* \"#utility.yul\":3637:3643   */\n      dup7\n        /* \"#utility.yul\":3593:3664   */\n      tag_48\n      jump\t// in\n    tag_106:\n        /* \"#utility.yul\":3674:3746   */\n      tag_107\n        /* \"#utility.yul\":3742:3744   */\n      0x20\n        /* \"#utility.yul\":3731:3740   */\n      dup4\n        /* \"#utility.yul\":3727:3745   */\n      add\n        /* \"#utility.yul\":3718:3724   */\n      dup6\n        /* \"#utility.yul\":3674:3746   */\n      tag_48\n      jump\t// in\n    tag_107:\n        /* \"#utility.yul\":3756:3828   */\n      tag_108\n        /* \"#utility.yul\":3824:3826   */\n      0x40\n        /* \"#utility.yul\":3813:3822   */\n      dup4\n        /* \"#utility.yul\":3809:3827   */\n      add\n        /* \"#utility.yul\":3800:3806   */\n      dup5\n        /* \"#utility.yul\":3756:3828   */\n      tag_47\n      jump\t// in\n    tag_108:\n        /* \"#utility.yul\":3393:3835   */\n      swap5\n      swap4\n      pop\n      pop\n      pop\n      pop\n      jump\t// out\n        /* \"#utility.yul\":3841:4010   */\n    tag_52:\n        /* \"#utility.yul\":3925:3936   */\n      0x00\n        /* \"#utility.yul\":3959:3965   */\n      dup3\n        /* \"#utility.yul\":3954:3957   */\n      dup3\n        /* \"#utility.yul\":3947:3966   */\n      mstore\n        /* \"#utility.yul\":3999:4003   */\n      0x20\n        /* \"#utility.yul\":3994:3997   */\n      dup3\n        /* \"#utility.yul\":3990:4004   */\n      add\n        /* \"#utility.yul\":3975:4004   */\n      swap1\n      pop\n        /* \"#utility.yul\":3841:4010   */\n      swap3\n      swap2\n      pop\n      pop\n      jump\t// out\n        /* \"#utility.yul\":4016:4188   */\n    tag_53:\n        /* \"#utility.yul\":4156:4180   */\n      0x6d746f6b656e207472616e73666572206572726f722100000000000000000000\n        /* \"#utility.yul\":4152:4153   */\n      0x00\n        /* \"#utility.yul\":4144:4150   */\n      dup3\n        /* \"#utility.yul\":4140:4154   */\n      add\n        /* \"#utility.yul\":4133:4181   */\n      mstore\n        /* \"#utility.yul\":4016:4188   */\n      pop\n      jump\t// out\n        /* \"#utility.yul\":4194:4560   */\n    tag_54:\n        /* \"#utility.yul\":4336:4339   */\n      0x00\n        /* \"#utility.yul\":4357:4424   */\n      tag_112\n        /* \"#utility.yul\":4421:4423   */\n      0x16\n        /* \"#utility.yul\":4416:4419   */\n      dup4\n        /* \"#utility.yul\":4357:4424   */\n      tag_52\n      jump\t// in\n    tag_112:\n        /* \"#utility.yul\":4350:4424   */\n      swap2\n      pop\n        /* \"#utility.yul\":4433:4526   */\n      tag_113\n        /* \"#utility.yul\":4522:4525   */\n      dup3\n        /* \"#utility.yul\":4433:4526   */\n      tag_53\n      jump\t// in\n    tag_113:\n        /* \"#utility.yul\":4551:4553   */\n      0x20\n        /* \"#utility.yul\":4546:4549   */\n      dup3\n        /* \"#utility.yul\":4542:4554   */\n      add\n        /* \"#utility.yul\":4535:4554   */\n      swap1\n      pop\n        /* \"#utility.yul\":4194:4560   */\n      swap2\n      swap1\n      pop\n      jump\t// out\n        /* \"#utility.yul\":4566:4985   */\n    tag_30:\n        /* \"#utility.yul\":4732:4736   */\n      0x00\n        /* \"#utility.yul\":4770:4772   */\n      0x20\n        /* \"#utility.yul\":4759:4768   */\n      dup3\n        /* \"#utility.yul\":4755:4773   */\n      add\n        /* \"#utility.yul\":4747:4773   */\n      swap1\n      pop\n        /* \"#utility.yul\":4819:4828   */\n      dup2\n        /* \"#utility.yul\":4813:4817   */\n      dup2\n        /* \"#utility.yul\":4809:4829   */\n      sub\n        /* \"#utility.yul\":4805:4806   */\n      0x00\n        /* \"#utility.yul\":4794:4803   */\n      dup4\n        /* \"#utility.yul\":4790:4807   */\n      add\n        /* \"#utility.yul\":4783:4830   */\n      mstore\n        /* \"#utility.yul\":4847:4978   */\n      tag_115\n        /* \"#utility.yul\":4973:4977   */\n      dup2\n        /* \"#utility.yul\":4847:4978   */\n      tag_54\n      jump\t// in\n    tag_115:\n        /* \"#utility.yul\":4839:4978   */\n      swap1\n      pop\n        /* \"#utility.yul\":4566:4985   */\n      swap2\n      swap1\n      pop\n      jump\t// out\n        /* \"#utility.yul\":4991:5076   */\n    tag_55:\n        /* \"#utility.yul\":5036:5043   */\n      0x00\n        /* \"#utility.yul\":5065:5070   */\n      dup2\n        /* \"#utility.yul\":5054:5070   */\n      swap1\n      pop\n        /* \"#utility.yul\":4991:5076   */\n      swap2\n      swap1\n      pop\n      jump\t// out\n        /* \"#utility.yul\":5082:5142   */\n    tag_56:\n        /* \"#utility.yul\":5110:5113   */\n      0x00\n        /* \"#utility.yul\":5131:5136   */\n      dup2\n        /* \"#utility.yul\":5124:5136   */\n      swap1\n      pop\n        /* \"#utility.yul\":5082:5142   */\n      swap2\n      swap1\n      pop\n      jump\t// out\n        /* \"#utility.yul\":5148:5306   */\n    tag_57:\n        /* \"#utility.yul\":5206:5215   */\n      0x00\n        /* \"#utility.yul\":5239:5300   */\n      tag_119\n        /* \"#utility.yul\":5257:5299   */\n      tag_120\n        /* \"#utility.yul\":5266:5298   */\n      tag_121\n        /* \"#utility.yul\":5292:5297   */\n      dup5\n        /* \"#utility.yul\":5266:5298   */\n      tag_55\n      jump\t// in\n    tag_121:\n        /* \"#utility.yul\":5257:5299   */\n      tag_56\n      jump\t// in\n    tag_120:\n        /* \"#utility.yul\":5239:5300   */\n      tag_44\n      jump\t// in\n    tag_119:\n        /* \"#utility.yul\":5226:5300   */\n      swap1\n      pop\n        /* \"#utility.yul\":5148:5306   */\n      swap2\n      swap1\n      pop\n      jump\t// out\n        /* \"#utility.yul\":5312:5459   */\n    tag_58:\n        /* \"#utility.yul\":5407:5452   */\n      tag_123\n        /* \"#utility.yul\":5446:5451   */\n      dup2\n        /* \"#utility.yul\":5407:5452   */\n      tag_57\n      jump\t// in\n    tag_123:\n        /* \"#utility.yul\":5402:5405   */\n      dup3\n        /* \"#utility.yul\":5395:5453   */\n      mstore\n        /* \"#utility.yul\":5312:5459   */\n      pop\n      pop\n      jump\t// out\n        /* \"#utility.yul\":5465:6272   */\n    tag_32:\n        /* \"#utility.yul\":5714:5718   */\n      0x00\n        /* \"#utility.yul\":5752:5755   */\n      0xc0\n        /* \"#utility.yul\":5741:5750   */\n      dup3\n        /* \"#utility.yul\":5737:5756   */\n      add\n        /* \"#utility.yul\":5729:5756   */\n      swap1\n      pop\n        /* \"#utility.yul\":5766:5837   */\n      tag_125\n        /* \"#utility.yul\":5834:5835   */\n      0x00\n        /* \"#utility.yul\":5823:5832   */\n      dup4\n        /* \"#utility.yul\":5819:5836   */\n      add\n        /* \"#utility.yul\":5810:5816   */\n      dup10\n        /* \"#utility.yul\":5766:5837   */\n      tag_48\n      jump\t// in\n    tag_125:\n        /* \"#utility.yul\":5847:5919   */\n      tag_126\n        /* \"#utility.yul\":5915:5917   */\n      0x20\n        /* \"#utility.yul\":5904:5913   */\n      dup4\n        /* \"#utility.yul\":5900:5918   */\n      add\n        /* \"#utility.yul\":5891:5897   */\n      dup9\n        /* \"#utility.yul\":5847:5919   */\n      tag_47\n      jump\t// in\n    tag_126:\n        /* \"#utility.yul\":5929:6009   */\n      tag_127\n        /* \"#utility.yul\":6005:6007   */\n      0x40\n        /* \"#utility.yul\":5994:6003   */\n      dup4\n        /* \"#utility.yul\":5990:6008   */\n      add\n        /* \"#utility.yul\":5981:5987   */\n      dup8\n        /* \"#utility.yul\":5929:6009   */\n      tag_58\n      jump\t// in\n    tag_127:\n        /* \"#utility.yul\":6019:6099   */\n      tag_128\n        /* \"#utility.yul\":6095:6097   */\n      0x60\n        /* \"#utility.yul\":6084:6093   */\n      dup4\n        /* \"#utility.yul\":6080:6098   */\n      add\n        /* \"#utility.yul\":6071:6077   */\n      dup7\n        /* \"#utility.yul\":6019:6099   */\n      tag_58\n      jump\t// in\n    tag_128:\n        /* \"#utility.yul\":6109:6182   */\n      tag_129\n        /* \"#utility.yul\":6177:6180   */\n      0x80\n        /* \"#utility.yul\":6166:6175   */\n      dup4\n        /* \"#utility.yul\":6162:6181   */\n      add\n        /* \"#utility.yul\":6153:6159   */\n      dup6\n        /* \"#utility.yul\":6109:6182   */\n      tag_48\n      jump\t// in\n    tag_129:\n        /* \"#utility.yul\":6192:6265   */\n      tag_130\n        /* \"#utility.yul\":6260:6263   */\n      0xa0\n        /* \"#utility.yul\":6249:6258   */\n      dup4\n        /* \"#utility.yul\":6245:6264   */\n      add\n        /* \"#utility.yul\":6236:6242   */\n      dup5\n        /* \"#utility.yul\":6192:6265   */\n      tag_47\n      jump\t// in\n    tag_130:\n        /* \"#utility.yul\":5465:6272   */\n      swap8\n      swap7\n      pop\n      pop\n      pop\n      pop\n      pop\n      pop\n      pop\n      jump\t// out\n        /* \"#utility.yul\":6278:6421   */\n    tag_59:\n        /* \"#utility.yul\":6335:6340   */\n      0x00\n        /* \"#utility.yul\":6366:6372   */\n      dup2\n        /* \"#utility.yul\":6360:6373   */\n      mload\n        /* \"#utility.yul\":6351:6373   */\n      swap1\n      pop\n        /* \"#utility.yul\":6382:6415   */\n      tag_132\n        /* \"#utility.yul\":6409:6414   */\n      dup2\n        /* \"#utility.yul\":6382:6415   */\n      tag_45\n      jump\t// in\n    tag_132:\n        /* \"#utility.yul\":6278:6421   */\n      swap3\n      swap2\n      pop\n      pop\n      jump\t// out\n        /* \"#utility.yul\":6427:7090   */\n    tag_36:\n        /* \"#utility.yul\":6515:6521   */\n      0x00\n        /* \"#utility.yul\":6523:6529   */\n      dup1\n        /* \"#utility.yul\":6531:6537   */\n      0x00\n        /* \"#utility.yul\":6580:6582   */\n      0x60\n        /* \"#utility.yul\":6568:6577   */\n      dup5\n        /* \"#utility.yul\":6559:6566   */\n      dup7\n        /* \"#utility.yul\":6555:6578   */\n      sub\n        /* \"#utility.yul\":6551:6583   */\n      slt\n        /* \"#utility.yul\":6548:6667   */\n      iszero\n      tag_134\n      jumpi\n        /* \"#utility.yul\":6586:6665   */\n      tag_135\n      tag_38\n      jump\t// in\n    tag_135:\n        /* \"#utility.yul\":6548:6667   */\n    tag_134:\n        /* \"#utility.yul\":6706:6707   */\n      0x00\n        /* \"#utility.yul\":6731:6795   */\n      tag_136\n        /* \"#utility.yul\":6787:6794   */\n      dup7\n        /* \"#utility.yul\":6778:6784   */\n      dup3\n        /* \"#utility.yul\":6767:6776   */\n      dup8\n        /* \"#utility.yul\":6763:6785   */\n      add\n        /* \"#utility.yul\":6731:6795   */\n      tag_59\n      jump\t// in\n    tag_136:\n        /* \"#utility.yul\":6721:6795   */\n      swap4\n      pop\n        /* \"#utility.yul\":6677:6805   */\n      pop\n        /* \"#utility.yul\":6844:6846   */\n      0x20\n        /* \"#utility.yul\":6870:6934   */\n      tag_137\n        /* \"#utility.yul\":6926:6933   */\n      dup7\n        /* \"#utility.yul\":6917:6923   */\n      dup3\n        /* \"#utility.yul\":6906:6915   */\n      dup8\n        /* \"#utility.yul\":6902:6924   */\n      add\n        /* \"#utility.yul\":6870:6934   */\n      tag_59\n      jump\t// in\n    tag_137:\n        /* \"#utility.yul\":6860:6934   */\n      swap3\n      pop\n        /* \"#utility.yul\":6815:6944   */\n      pop\n        /* \"#utility.yul\":6983:6985   */\n      0x40\n        /* \"#utility.yul\":7009:7073   */\n      tag_138\n        /* \"#utility.yul\":7065:7072   */\n      dup7\n        /* \"#utility.yul\":7056:7062   */\n      dup3\n        /* \"#utility.yul\":7045:7054   */\n      dup8\n        /* \"#utility.yul\":7041:7063   */\n      add\n        /* \"#utility.yul\":7009:7073   */\n      tag_59\n      jump\t// in\n    tag_138:\n        /* \"#utility.yul\":6999:7073   */\n      swap2\n      pop\n        /* \"#utility.yul\":6954:7083   */\n      pop\n        /* \"#utility.yul\":6427:7090   */\n      swap3\n      pop\n      swap3\n      pop\n      swap3\n      jump\t// out\n\n    auxdata: 0xa26469706673582212204b2586737e00f9d22d3986d19fa2cadb1b3fc6535e7da028e960cfbc2a11908e64736f6c634300080d0033\n}\n",
				"bytecode": {
					"linkReferences": {},
					"object": "6080604052737a250d5630b4cf539739df2c5dacb4c659f2488d6000806101000a81548173ffffffffffffffffffffffffffffffffffffffff021916908373ffffffffffffffffffffffffffffffffffffffff16021790555073c778417e063141139fce010982780140aa0cd5ab600160006101000a81548173ffffffffffffffffffffffffffffffffffffffff021916908373ffffffffffffffffffffffffffffffffffffffff16021790555073bd6efd9ac4bd6082d0dcf02af2ecb28f07017375600260006101000a81548173ffffffffffffffffffffffffffffffffffffffff021916908373ffffffffffffffffffffffffffffffffffffffff16021790555060008054906101000a900473ffffffffffffffffffffffffffffffffffffffff16600360006101000a81548173ffffffffffffffffffffffffffffffffffffffff021916908373ffffffffffffffffffffffffffffffffffffffff160217905550600260009054906101000a900473ffffffffffffffffffffffffffffffffffffffff16600460006101000a81548173ffffffffffffffffffffffffffffffffffffffff021916908373ffffffffffffffffffffffffffffffffffffffff1602179055503480156101d257600080fd5b506106c3806101e26000396000f3fe6080604052600436106100295760003560e01c8063072904211461002e57806351c6590a14610057575b600080fd5b34801561003a57600080fd5b5061005560048036038101906100509190610374565b610087565b005b610071600480360381019061006c91906103d7565b61008a565b60405161007e9190610413565b60405180910390f35b50565b6000600460009054906101000a900473ffffffffffffffffffffffffffffffffffffffff1673ffffffffffffffffffffffffffffffffffffffff1663095ea7b3600360009054906101000a900473ffffffffffffffffffffffffffffffffffffffff16846040518363ffffffff1660e01b815260040161010b92919061043d565b6020604051808303816000875af115801561012a573d6000803e3d6000fd5b505050506040513d601f19601f8201168201806040525081019061014e919061049e565b506000600460009054906101000a900473ffffffffffffffffffffffffffffffffffffffff1673ffffffffffffffffffffffffffffffffffffffff166323b872dd3330866040518463ffffffff1660e01b81526004016101b0939291906104cb565b6020604051808303816000875af11580156101cf573d6000803e3d6000fd5b505050506040513d601f19601f820116820180604052508101906101f3919061049e565b905080610235576040517f08c379a000000000000000000000000000000000000000000000000000000000815260040161022c9061055f565b60405180910390fd5b6000600360009054906101000a900473ffffffffffffffffffffffffffffffffffffffff1673ffffffffffffffffffffffffffffffffffffffff1663f305d71934600260009054906101000a900473ffffffffffffffffffffffffffffffffffffffff168760008033426040518863ffffffff1660e01b81526004016102c0969594939291906105c4565b60606040518083038185885af11580156102de573d6000803e3d6000fd5b50505050506040513d601f19601f82011682018060405250810190610303919061063a565b505090508092505050919050565b600080fd5b600073ffffffffffffffffffffffffffffffffffffffff82169050919050565b600061034182610316565b9050919050565b61035181610336565b811461035c57600080fd5b50565b60008135905061036e81610348565b92915050565b60006020828403121561038a57610389610311565b5b60006103988482850161035f565b91505092915050565b6000819050919050565b6103b4816103a1565b81146103bf57600080fd5b50565b6000813590506103d1816103ab565b92915050565b6000602082840312156103ed576103ec610311565b5b60006103fb848285016103c2565b91505092915050565b61040d816103a1565b82525050565b60006020820190506104286000830184610404565b92915050565b61043781610336565b82525050565b6000604082019050610452600083018561042e565b61045f6020830184610404565b9392505050565b60008115159050919050565b61047b81610466565b811461048657600080fd5b50565b60008151905061049881610472565b92915050565b6000602082840312156104b4576104b3610311565b5b60006104c284828501610489565b91505092915050565b60006060820190506104e0600083018661042e565b6104ed602083018561042e565b6104fa6040830184610404565b949350505050565b600082825260208201905092915050565b7f6d746f6b656e207472616e73666572206572726f722100000000000000000000600082015250565b6000610549601683610502565b915061055482610513565b602082019050919050565b600060208201905081810360008301526105788161053c565b9050919050565b6000819050919050565b6000819050919050565b60006105ae6105a96105a48461057f565b610589565b6103a1565b9050919050565b6105be81610593565b82525050565b600060c0820190506105d9600083018961042e565b6105e66020830188610404565b6105f360408301876105b5565b61060060608301866105b5565b61060d608083018561042e565b61061a60a0830184610404565b979650505050505050565b600081519050610634816103ab565b92915050565b60008060006060848603121561065357610652610311565b5b600061066186828701610625565b935050602061067286828701610625565b925050604061068386828701610625565b915050925092509256fea26469706673582212204b2586737e00f9d22d3986d19fa2cadb1b3fc6535e7da028e960cfbc2a11908e64736f6c634300080d0033",
					"opcodes": "PUSH1 0x80 PUSH1 0x40 MSTORE PUSH20 0x7A250D5630B4CF539739DF2C5DACB4C659F2488D PUSH1 0x0 DUP1 PUSH2 0x100 EXP DUP2 SLOAD DUP2 PUSH20 0xFFFFFFFFFFFFFFFFFFFFFFFFFFFFFFFFFFFFFFFF MUL NOT AND SWAP1 DUP4 PUSH20 0xFFFFFFFFFFFFFFFFFFFFFFFFFFFFFFFFFFFFFFFF AND MUL OR SWAP1 SSTORE POP PUSH20 0xC778417E063141139FCE010982780140AA0CD5AB PUSH1 0x1 PUSH1 0x0 PUSH2 0x100 EXP DUP2 SLOAD DUP2 PUSH20 0xFFFFFFFFFFFFFFFFFFFFFFFFFFFFFFFFFFFFFFFF MUL NOT AND SWAP1 DUP4 PUSH20 0xFFFFFFFFFFFFFFFFFFFFFFFFFFFFFFFFFFFFFFFF AND MUL OR SWAP1 SSTORE POP PUSH20 0xBD6EFD9AC4BD6082D0DCF02AF2ECB28F07017375 PUSH1 0x2 PUSH1 0x0 PUSH2 0x100 EXP DUP2 SLOAD DUP2 PUSH20 0xFFFFFFFFFFFFFFFFFFFFFFFFFFFFFFFFFFFFFFFF MUL NOT AND SWAP1 DUP4 PUSH20 0xFFFFFFFFFFFFFFFFFFFFFFFFFFFFFFFFFFFFFFFF AND MUL OR SWAP1 SSTORE POP PUSH1 0x0 DUP1 SLOAD SWAP1 PUSH2 0x100 EXP SWAP1 DIV PUSH20 0xFFFFFFFFFFFFFFFFFFFFFFFFFFFFFFFFFFFFFFFF AND PUSH1 0x3 PUSH1 0x0 PUSH2 0x100 EXP DUP2 SLOAD DUP2 PUSH20 0xFFFFFFFFFFFFFFFFFFFFFFFFFFFFFFFFFFFFFFFF MUL NOT AND SWAP1 DUP4 PUSH20 0xFFFFFFFFFFFFFFFFFFFFFFFFFFFFFFFFFFFFFFFF AND MUL OR SWAP1 SSTORE POP PUSH1 0x2 PUSH1 0x0 SWAP1 SLOAD SWAP1 PUSH2 0x100 EXP SWAP1 DIV PUSH20 0xFFFFFFFFFFFFFFFFFFFFFFFFFFFFFFFFFFFFFFFF AND PUSH1 0x4 PUSH1 0x0 PUSH2 0x100 EXP DUP2 SLOAD DUP2 PUSH20 0xFFFFFFFFFFFFFFFFFFFFFFFFFFFFFFFFFFFFFFFF MUL NOT AND SWAP1 DUP4 PUSH20 0xFFFFFFFFFFFFFFFFFFFFFFFFFFFFFFFFFFFFFFFF AND MUL OR SWAP1 SSTORE POP CALLVALUE DUP1 ISZERO PUSH2 0x1D2 JUMPI PUSH1 0x0 DUP1 REVERT JUMPDEST POP PUSH2 0x6C3 DUP1 PUSH2 0x1E2 PUSH1 0x0 CODECOPY PUSH1 0x0 RETURN INVALID PUSH1 0x80 PUSH1 0x40 MSTORE PUSH1 0x4 CALLDATASIZE LT PUSH2 0x29 JUMPI PUSH1 0x0 CALLDATALOAD PUSH1 0xE0 SHR DUP1 PUSH4 0x7290421 EQ PUSH2 0x2E JUMPI DUP1 PUSH4 0x51C6590A EQ PUSH2 0x57 JUMPI JUMPDEST PUSH1 0x0 DUP1 REVERT JUMPDEST CALLVALUE DUP1 ISZERO PUSH2 0x3A JUMPI PUSH1 0x0 DUP1 REVERT JUMPDEST POP PUSH2 0x55 PUSH1 0x4 DUP1 CALLDATASIZE SUB DUP2 ADD SWAP1 PUSH2 0x50 SWAP2 SWAP1 PUSH2 0x374 JUMP JUMPDEST PUSH2 0x87 JUMP JUMPDEST STOP JUMPDEST PUSH2 0x71 PUSH1 0x4 DUP1 CALLDATASIZE SUB DUP2 ADD SWAP1 PUSH2 0x6C SWAP2 SWAP1 PUSH2 0x3D7 JUMP JUMPDEST PUSH2 0x8A JUMP JUMPDEST PUSH1 0x40 MLOAD PUSH2 0x7E SWAP2 SWAP1 PUSH2 0x413 JUMP JUMPDEST PUSH1 0x40 MLOAD DUP1 SWAP2 SUB SWAP1 RETURN JUMPDEST POP JUMP JUMPDEST PUSH1 0x0 PUSH1 0x4 PUSH1 0x0 SWAP1 SLOAD SWAP1 PUSH2 0x100 EXP SWAP1 DIV PUSH20 0xFFFFFFFFFFFFFFFFFFFFFFFFFFFFFFFFFFFFFFFF AND PUSH20 0xFFFFFFFFFFFFFFFFFFFFFFFFFFFFFFFFFFFFFFFF AND PUSH4 0x95EA7B3 PUSH1 0x3 PUSH1 0x0 SWAP1 SLOAD SWAP1 PUSH2 0x100 EXP SWAP1 DIV PUSH20 0xFFFFFFFFFFFFFFFFFFFFFFFFFFFFFFFFFFFFFFFF AND DUP5 PUSH1 0x40 MLOAD DUP4 PUSH4 0xFFFFFFFF AND PUSH1 0xE0 SHL DUP2 MSTORE PUSH1 0x4 ADD PUSH2 0x10B SWAP3 SWAP2 SWAP1 PUSH2 0x43D JUMP JUMPDEST PUSH1 0x20 PUSH1 0x40 MLOAD DUP1 DUP4 SUB DUP2 PUSH1 0x0 DUP8 GAS CALL ISZERO DUP1 ISZERO PUSH2 0x12A JUMPI RETURNDATASIZE PUSH1 0x0 DUP1 RETURNDATACOPY RETURNDATASIZE PUSH1 0x0 REVERT JUMPDEST POP POP POP POP PUSH1 0x40 MLOAD RETURNDATASIZE PUSH1 0x1F NOT PUSH1 0x1F DUP3 ADD AND DUP3 ADD DUP1 PUSH1 0x40 MSTORE POP DUP2 ADD SWAP1 PUSH2 0x14E SWAP2 SWAP1 PUSH2 0x49E JUMP JUMPDEST POP PUSH1 0x0 PUSH1 0x4 PUSH1 0x0 SWAP1 SLOAD SWAP1 PUSH2 0x100 EXP SWAP1 DIV PUSH20 0xFFFFFFFFFFFFFFFFFFFFFFFFFFFFFFFFFFFFFFFF AND PUSH20 0xFFFFFFFFFFFFFFFFFFFFFFFFFFFFFFFFFFFFFFFF AND PUSH4 0x23B872DD CALLER ADDRESS DUP7 PUSH1 0x40 MLOAD DUP5 PUSH4 0xFFFFFFFF AND PUSH1 0xE0 SHL DUP2 MSTORE PUSH1 0x4 ADD PUSH2 0x1B0 SWAP4 SWAP3 SWAP2 SWAP1 PUSH2 0x4CB JUMP JUMPDEST PUSH1 0x20 PUSH1 0x40 MLOAD DUP1 DUP4 SUB DUP2 PUSH1 0x0 DUP8 GAS CALL ISZERO DUP1 ISZERO PUSH2 0x1CF JUMPI RETURNDATASIZE PUSH1 0x0 DUP1 RETURNDATACOPY RETURNDATASIZE PUSH1 0x0 REVERT JUMPDEST POP POP POP POP PUSH1 0x40 MLOAD RETURNDATASIZE PUSH1 0x1F NOT PUSH1 0x1F DUP3 ADD AND DUP3 ADD DUP1 PUSH1 0x40 MSTORE POP DUP2 ADD SWAP1 PUSH2 0x1F3 SWAP2 SWAP1 PUSH2 0x49E JUMP JUMPDEST SWAP1 POP DUP1 PUSH2 0x235 JUMPI PUSH1 0x40 MLOAD PUSH32 0x8C379A000000000000000000000000000000000000000000000000000000000 DUP2 MSTORE PUSH1 0x4 ADD PUSH2 0x22C SWAP1 PUSH2 0x55F JUMP JUMPDEST PUSH1 0x40 MLOAD DUP1 SWAP2 SUB SWAP1 REVERT JUMPDEST PUSH1 0x0 PUSH1 0x3 PUSH1 0x0 SWAP1 SLOAD SWAP1 PUSH2 0x100 EXP SWAP1 DIV PUSH20 0xFFFFFFFFFFFFFFFFFFFFFFFFFFFFFFFFFFFFFFFF AND PUSH20 0xFFFFFFFFFFFFFFFFFFFFFFFFFFFFFFFFFFFFFFFF AND PUSH4 0xF305D719 CALLVALUE PUSH1 0x2 PUSH1 0x0 SWAP1 SLOAD SWAP1 PUSH2 0x100 EXP SWAP1 DIV PUSH20 0xFFFFFFFFFFFFFFFFFFFFFFFFFFFFFFFFFFFFFFFF AND DUP8 PUSH1 0x0 DUP1 CALLER TIMESTAMP PUSH1 0x40 MLOAD DUP9 PUSH4 0xFFFFFFFF AND PUSH1 0xE0 SHL DUP2 MSTORE PUSH1 0x4 ADD PUSH2 0x2C0 SWAP7 SWAP6 SWAP5 SWAP4 SWAP3 SWAP2 SWAP1 PUSH2 0x5C4 JUMP JUMPDEST PUSH1 0x60 PUSH1 0x40 MLOAD DUP1 DUP4 SUB DUP2 DUP6 DUP9 GAS CALL ISZERO DUP1 ISZERO PUSH2 0x2DE JUMPI RETURNDATASIZE PUSH1 0x0 DUP1 RETURNDATACOPY RETURNDATASIZE PUSH1 0x0 REVERT JUMPDEST POP POP POP POP POP PUSH1 0x40 MLOAD RETURNDATASIZE PUSH1 0x1F NOT PUSH1 0x1F DUP3 ADD AND DUP3 ADD DUP1 PUSH1 0x40 MSTORE POP DUP2 ADD SWAP1 PUSH2 0x303 SWAP2 SWAP1 PUSH2 0x63A JUMP JUMPDEST POP POP SWAP1 POP DUP1 SWAP3 POP POP POP SWAP2 SWAP1 POP JUMP JUMPDEST PUSH1 0x0 DUP1 REVERT JUMPDEST PUSH1 0x0 PUSH20 0xFFFFFFFFFFFFFFFFFFFFFFFFFFFFFFFFFFFFFFFF DUP3 AND SWAP1 POP SWAP2 SWAP1 POP JUMP JUMPDEST PUSH1 0x0 PUSH2 0x341 DUP3 PUSH2 0x316 JUMP JUMPDEST SWAP1 POP SWAP2 SWAP1 POP JUMP JUMPDEST PUSH2 0x351 DUP2 PUSH2 0x336 JUMP JUMPDEST DUP2 EQ PUSH2 0x35C JUMPI PUSH1 0x0 DUP1 REVERT JUMPDEST POP JUMP JUMPDEST PUSH1 0x0 DUP2 CALLDATALOAD SWAP1 POP PUSH2 0x36E DUP2 PUSH2 0x348 JUMP JUMPDEST SWAP3 SWAP2 POP POP JUMP JUMPDEST PUSH1 0x0 PUSH1 0x20 DUP3 DUP5 SUB SLT ISZERO PUSH2 0x38A JUMPI PUSH2 0x389 PUSH2 0x311 JUMP JUMPDEST JUMPDEST PUSH1 0x0 PUSH2 0x398 DUP5 DUP3 DUP6 ADD PUSH2 0x35F JUMP JUMPDEST SWAP2 POP POP SWAP3 SWAP2 POP POP JUMP JUMPDEST PUSH1 0x0 DUP2 SWAP1 POP SWAP2 SWAP1 POP JUMP JUMPDEST PUSH2 0x3B4 DUP2 PUSH2 0x3A1 JUMP JUMPDEST DUP2 EQ PUSH2 0x3BF JUMPI PUSH1 0x0 DUP1 REVERT JUMPDEST POP JUMP JUMPDEST PUSH1 0x0 DUP2 CALLDATALOAD SWAP1 POP PUSH2 0x3D1 DUP2 PUSH2 0x3AB JUMP JUMPDEST SWAP3 SWAP2 POP POP JUMP JUMPDEST PUSH1 0x0 PUSH1 0x20 DUP3 DUP5 SUB SLT ISZERO PUSH2 0x3ED JUMPI PUSH2 0x3EC PUSH2 0x311 JUMP JUMPDEST JUMPDEST PUSH1 0x0 PUSH2 0x3FB DUP5 DUP3 DUP6 ADD PUSH2 0x3C2 JUMP JUMPDEST SWAP2 POP POP SWAP3 SWAP2 POP POP JUMP JUMPDEST PUSH2 0x40D DUP2 PUSH2 0x3A1 JUMP JUMPDEST DUP3 MSTORE POP POP JUMP JUMPDEST PUSH1 0x0 PUSH1 0x20 DUP3 ADD SWAP1 POP PUSH2 0x428 PUSH1 0x0 DUP4 ADD DUP5 PUSH2 0x404 JUMP JUMPDEST SWAP3 SWAP2 POP POP JUMP JUMPDEST PUSH2 0x437 DUP2 PUSH2 0x336 JUMP JUMPDEST DUP3 MSTORE POP POP JUMP JUMPDEST PUSH1 0x0 PUSH1 0x40 DUP3 ADD SWAP1 POP PUSH2 0x452 PUSH1 0x0 DUP4 ADD DUP6 PUSH2 0x42E JUMP JUMPDEST PUSH2 0x45F PUSH1 0x20 DUP4 ADD DUP5 PUSH2 0x404 JUMP JUMPDEST SWAP4 SWAP3 POP POP POP JUMP JUMPDEST PUSH1 0x0 DUP2 ISZERO ISZERO SWAP1 POP SWAP2 SWAP1 POP JUMP JUMPDEST PUSH2 0x47B DUP2 PUSH2 0x466 JUMP JUMPDEST DUP2 EQ PUSH2 0x486 JUMPI PUSH1 0x0 DUP1 REVERT JUMPDEST POP JUMP JUMPDEST PUSH1 0x0 DUP2 MLOAD SWAP1 POP PUSH2 0x498 DUP2 PUSH2 0x472 JUMP JUMPDEST SWAP3 SWAP2 POP POP JUMP JUMPDEST PUSH1 0x0 PUSH1 0x20 DUP3 DUP5 SUB SLT ISZERO PUSH2 0x4B4 JUMPI PUSH2 0x4B3 PUSH2 0x311 JUMP JUMPDEST JUMPDEST PUSH1 0x0 PUSH2 0x4C2 DUP5 DUP3 DUP6 ADD PUSH2 0x489 JUMP JUMPDEST SWAP2 POP POP SWAP3 SWAP2 POP POP JUMP JUMPDEST PUSH1 0x0 PUSH1 0x60 DUP3 ADD SWAP1 POP PUSH2 0x4E0 PUSH1 0x0 DUP4 ADD DUP7 PUSH2 0x42E JUMP JUMPDEST PUSH2 0x4ED PUSH1 0x20 DUP4 ADD DUP6 PUSH2 0x42E JUMP JUMPDEST PUSH2 0x4FA PUSH1 0x40 DUP4 ADD DUP5 PUSH2 0x404 JUMP JUMPDEST SWAP5 SWAP4 POP POP POP POP JUMP JUMPDEST PUSH1 0x0 DUP3 DUP3 MSTORE PUSH1 0x20 DUP3 ADD SWAP1 POP SWAP3 SWAP2 POP POP JUMP JUMPDEST PUSH32 0x6D746F6B656E207472616E73666572206572726F722100000000000000000000 PUSH1 0x0 DUP3 ADD MSTORE POP JUMP JUMPDEST PUSH1 0x0 PUSH2 0x549 PUSH1 0x16 DUP4 PUSH2 0x502 JUMP JUMPDEST SWAP2 POP PUSH2 0x554 DUP3 PUSH2 0x513 JUMP JUMPDEST PUSH1 0x20 DUP3 ADD SWAP1 POP SWAP2 SWAP1 POP JUMP JUMPDEST PUSH1 0x0 PUSH1 0x20 DUP3 ADD SWAP1 POP DUP2 DUP2 SUB PUSH1 0x0 DUP4 ADD MSTORE PUSH2 0x578 DUP2 PUSH2 0x53C JUMP JUMPDEST SWAP1 POP SWAP2 SWAP1 POP JUMP JUMPDEST PUSH1 0x0 DUP2 SWAP1 POP SWAP2 SWAP1 POP JUMP JUMPDEST PUSH1 0x0 DUP2 SWAP1 POP SWAP2 SWAP1 POP JUMP JUMPDEST PUSH1 0x0 PUSH2 0x5AE PUSH2 0x5A9 PUSH2 0x5A4 DUP5 PUSH2 0x57F JUMP JUMPDEST PUSH2 0x589 JUMP JUMPDEST PUSH2 0x3A1 JUMP JUMPDEST SWAP1 POP SWAP2 SWAP1 POP JUMP JUMPDEST PUSH2 0x5BE DUP2 PUSH2 0x593 JUMP JUMPDEST DUP3 MSTORE POP POP JUMP JUMPDEST PUSH1 0x0 PUSH1 0xC0 DUP3 ADD SWAP1 POP PUSH2 0x5D9 PUSH1 0x0 DUP4 ADD DUP10 PUSH2 0x42E JUMP JUMPDEST PUSH2 0x5E6 PUSH1 0x20 DUP4 ADD DUP9 PUSH2 0x404 JUMP JUMPDEST PUSH2 0x5F3 PUSH1 0x40 DUP4 ADD DUP8 PUSH2 0x5B5 JUMP JUMPDEST PUSH2 0x600 PUSH1 0x60 DUP4 ADD DUP7 PUSH2 0x5B5 JUMP JUMPDEST PUSH2 0x60D PUSH1 0x80 DUP4 ADD DUP6 PUSH2 0x42E JUMP JUMPDEST PUSH2 0x61A PUSH1 0xA0 DUP4 ADD DUP5 PUSH2 0x404 JUMP JUMPDEST SWAP8 SWAP7 POP POP POP POP POP POP POP JUMP JUMPDEST PUSH1 0x0 DUP2 MLOAD SWAP1 POP PUSH2 0x634 DUP2 PUSH2 0x3AB JUMP JUMPDEST SWAP3 SWAP2 POP POP JUMP JUMPDEST PUSH1 0x0 DUP1 PUSH1 0x0 PUSH1 0x60 DUP5 DUP7 SUB SLT ISZERO PUSH2 0x653 JUMPI PUSH2 0x652 PUSH2 0x311 JUMP JUMPDEST JUMPDEST PUSH1 0x0 PUSH2 0x661 DUP7 DUP3 DUP8 ADD PUSH2 0x625 JUMP JUMPDEST SWAP4 POP POP PUSH1 0x20 PUSH2 0x672 DUP7 DUP3 DUP8 ADD PUSH2 0x625 JUMP JUMPDEST SWAP3 POP POP PUSH1 0x40 PUSH2 0x683 DUP7 DUP3 DUP8 ADD PUSH2 0x625 JUMP JUMPDEST SWAP2 POP POP SWAP3 POP SWAP3 POP SWAP3 JUMP INVALID LOG2 PUSH5 0x6970667358 0x22 SLT KECCAK256 0x4B 0x25 DUP7 PUSH20 0x7E00F9D22D3986D19FA2CADB1B3FC6535E7DA028 0xE9 PUSH1 0xCF 0xBC 0x2A GT SWAP1 DUP15 PUSH5 0x736F6C6343 STOP ADDMOD 0xD STOP CALLER "
				},
				"gasEstimates": {
					"creation": {
						"codeDepositCost": "346200",
						"executionCost": "125990",
						"totalCost": "472190"
					},
					"external": {
						"addLiquidity(uint256)": "infinite",
						"testFlashLoan(address)": "433"
					}
				},
				"methodIdentifiers": {
					"addLiquidity(uint256)": "51c6590a",
					"testFlashLoan(address)": "07290421"
				}
			},
			"userdoc": {
				"kind": "user",
				"methods": {},
				"version": 1
			}
		}
	}
}