{
	"Code-hardhat-ethersJs/contracts/MyTokenMarket.sol": {
		"MyTokenMarket": {
			"abi": [
				{
					"inputs": [],
					"stateMutability": "nonpayable",
					"type": "constructor"
				},
				{
					"inputs": [
						{
							"internalType": "uint256",
							"name": "amountMyTokenDesired",
							"type": "uint256"
						},
						{
							"internalType": "uint256",
							"name": "amountMyTokenMin",
							"type": "uint256"
						},
						{
							"internalType": "uint256",
							"name": "amountETHMin",
							"type": "uint256"
						}
					],
					"name": "addLiquidity",
					"outputs": [
						{
							"internalType": "uint256",
							"name": "amountOfLp",
							"type": "uint256"
						}
					],
					"stateMutability": "payable",
					"type": "function"
				},
				{
					"inputs": [
						{
							"internalType": "uint256",
							"name": "amountOutMin",
							"type": "uint256"
						}
					],
					"name": "buyExactTokenByETH",
					"outputs": [],
					"stateMutability": "payable",
					"type": "function"
				},
				{
					"inputs": [
						{
							"internalType": "address",
							"name": "lpAddress",
							"type": "address"
						},
						{
							"internalType": "uint256",
							"name": "pid",
							"type": "uint256"
						},
						{
							"internalType": "uint256",
							"name": "amount",
							"type": "uint256"
						}
					],
					"name": "depositToMasterChef",
					"outputs": [],
					"stateMutability": "nonpayable",
					"type": "function"
				},
				{
					"inputs": [
						{
							"internalType": "uint256",
							"name": "pid",
							"type": "uint256"
						}
					],
					"name": "withdraw",
					"outputs": [],
					"stateMutability": "nonpayable",
					"type": "function"
				}
			],
			"devdoc": {
				"kind": "dev",
				"methods": {},
				"version": 1
			},
			"evm": {
				"assembly": "    /* \"Code-hardhat-ethersJs/contracts/MyTokenMarket.sol\":264:2566  contract MyTokenMarket{... */\n  mstore(0x40, 0x80)\n    /* \"Code-hardhat-ethersJs/contracts/MyTokenMarket.sol\":537:579  0x7a250d5630B4cF539739dF2C5dAcb4c659F2488D */\n  0x7a250d5630b4cf539739df2c5dacb4c659f2488d\n    /* \"Code-hardhat-ethersJs/contracts/MyTokenMarket.sol\":516:579  address uv2address = 0x7a250d5630B4cF539739dF2C5dAcb4c659F2488D */\n  0x00\n  dup1\n  0x0100\n  exp\n  dup2\n  sload\n  dup2\n  0xffffffffffffffffffffffffffffffffffffffff\n  mul\n  not\n  and\n  swap1\n  dup4\n  0xffffffffffffffffffffffffffffffffffffffff\n  and\n  mul\n  or\n  swap1\n  sstore\n  pop\n    /* \"Code-hardhat-ethersJs/contracts/MyTokenMarket.sol\":607:649  0xc778417E063141139Fce010982780140Aa0cD5Ab */\n  0xc778417e063141139fce010982780140aa0cd5ab\n    /* \"Code-hardhat-ethersJs/contracts/MyTokenMarket.sol\":585:649  address wethaddress = 0xc778417E063141139Fce010982780140Aa0cD5Ab */\n  0x01\n  exp(0x0100, 0x00)\n  dup2\n  sload\n  dup2\n  0xffffffffffffffffffffffffffffffffffffffff\n  mul\n  not\n  and\n  swap1\n  dup4\n  0xffffffffffffffffffffffffffffffffffffffff\n  and\n  mul\n  or\n  swap1\n  sstore\n  pop\n    /* \"Code-hardhat-ethersJs/contracts/MyTokenMarket.sol\":680:722  0x549F978C19a5AC86D906052639E317B57724ef44 */\n  0x549f978c19a5ac86d906052639e317b57724ef44\n    /* \"Code-hardhat-ethersJs/contracts/MyTokenMarket.sol\":655:722  address mytokenaddress = 0x549F978C19a5AC86D906052639E317B57724ef44 */\n  0x02\n  exp(0x0100, 0x00)\n  dup2\n  sload\n  dup2\n  0xffffffffffffffffffffffffffffffffffffffff\n  mul\n  not\n  and\n  swap1\n  dup4\n  0xffffffffffffffffffffffffffffffffffffffff\n  and\n  mul\n  or\n  swap1\n  sstore\n  pop\n    /* \"Code-hardhat-ethersJs/contracts/MyTokenMarket.sol\":751:793  0xf42A08C0EA66ee4A474336087A6C17E9EA6c9dE9 */\n  0xf42a08c0ea66ee4a474336087a6c17e9ea6c9de9\n    /* \"Code-hardhat-ethersJs/contracts/MyTokenMarket.sol\":728:793  address sushiaddress = 0xf42A08C0EA66ee4A474336087A6C17E9EA6c9dE9 */\n  0x03\n  exp(0x0100, 0x00)\n  dup2\n  sload\n  dup2\n  0xffffffffffffffffffffffffffffffffffffffff\n  mul\n  not\n  and\n  swap1\n  dup4\n  0xffffffffffffffffffffffffffffffffffffffff\n  and\n  mul\n  or\n  swap1\n  sstore\n  pop\n    /* \"Code-hardhat-ethersJs/contracts/MyTokenMarket.sol\":827:869  0xd9DFA8c6b37cfDF16668fE0465896f4A1B9b2c4F */\n  0xd9dfa8c6b37cfdf16668fe0465896f4a1b9b2c4f\n    /* \"Code-hardhat-ethersJs/contracts/MyTokenMarket.sol\":799:869  address masterchefaddress = 0xd9DFA8c6b37cfDF16668fE0465896f4A1B9b2c4F */\n  0x04\n  exp(0x0100, 0x00)\n  dup2\n  sload\n  dup2\n  0xffffffffffffffffffffffffffffffffffffffff\n  mul\n  not\n  and\n  swap1\n  dup4\n  0xffffffffffffffffffffffffffffffffffffffff\n  and\n  mul\n  or\n  swap1\n  sstore\n  pop\n    /* \"Code-hardhat-ethersJs/contracts/MyTokenMarket.sol\":925:935  uv2address */\n  0x00\n  dup1\n  sload\n  swap1\n  0x0100\n  exp\n  swap1\n  div\n  0xffffffffffffffffffffffffffffffffffffffff\n  and\n    /* \"Code-hardhat-ethersJs/contracts/MyTokenMarket.sol\":875:936  IUniswapV2Router02 uv2router = IUniswapV2Router02(uv2address) */\n  0x05\n  exp(0x0100, 0x00)\n  dup2\n  sload\n  dup2\n  0xffffffffffffffffffffffffffffffffffffffff\n  mul\n  not\n  and\n  swap1\n  dup4\n  0xffffffffffffffffffffffffffffffffffffffff\n  and\n  mul\n  or\n  swap1\n  sstore\n  pop\n    /* \"Code-hardhat-ethersJs/contracts/MyTokenMarket.sol\":965:979  mytokenaddress */\n  0x02\n  0x00\n  swap1\n  sload\n  swap1\n  0x0100\n  exp\n  swap1\n  div\n  0xffffffffffffffffffffffffffffffffffffffff\n  and\n    /* \"Code-hardhat-ethersJs/contracts/MyTokenMarket.sol\":942:980  IERC20 mtoken = IERC20(mytokenaddress) */\n  0x06\n  exp(0x0100, 0x00)\n  dup2\n  sload\n  dup2\n  0xffffffffffffffffffffffffffffffffffffffff\n  mul\n  not\n  and\n  swap1\n  dup4\n  0xffffffffffffffffffffffffffffffffffffffff\n  and\n  mul\n  or\n  swap1\n  sstore\n  pop\n    /* \"Code-hardhat-ethersJs/contracts/MyTokenMarket.sol\":1023:1040  masterchefaddress */\n  0x04\n  0x00\n  swap1\n  sload\n  swap1\n  0x0100\n  exp\n  swap1\n  div\n  0xffffffffffffffffffffffffffffffffffffffff\n  and\n    /* \"Code-hardhat-ethersJs/contracts/MyTokenMarket.sol\":986:1041  IMasterChef masterChef = IMasterChef(masterchefaddress) */\n  0x07\n  exp(0x0100, 0x00)\n  dup2\n  sload\n  dup2\n  0xffffffffffffffffffffffffffffffffffffffff\n  mul\n  not\n  and\n  swap1\n  dup4\n  0xffffffffffffffffffffffffffffffffffffffff\n  and\n  mul\n  or\n  swap1\n  sstore\n  pop\n    /* \"Code-hardhat-ethersJs/contracts/MyTokenMarket.sol\":1047:1067  constructor(){... */\n  callvalue\n  dup1\n  iszero\n  tag_1\n  jumpi\n  0x00\n  dup1\n  revert\ntag_1:\n  pop\n    /* \"Code-hardhat-ethersJs/contracts/MyTokenMarket.sol\":264:2566  contract MyTokenMarket{... */\n  dataSize(sub_0)\n  dup1\n  dataOffset(sub_0)\n  0x00\n  codecopy\n  0x00\n  return\nstop\n\nsub_0: assembly {\n        /* \"Code-hardhat-ethersJs/contracts/MyTokenMarket.sol\":264:2566  contract MyTokenMarket{... */\n      mstore(0x40, 0x80)\n      jumpi(tag_1, lt(calldatasize, 0x04))\n      shr(0xe0, calldataload(0x00))\n      dup1\n      0x2e1a7d4d\n      eq\n      tag_2\n      jumpi\n      dup1\n      0x422f1043\n      eq\n      tag_3\n      jumpi\n      dup1\n      0xa93f74e0\n      eq\n      tag_4\n      jumpi\n      dup1\n      0xfc55d2bf\n      eq\n      tag_5\n      jumpi\n    tag_1:\n      0x00\n      dup1\n      revert\n        /* \"Code-hardhat-ethersJs/contracts/MyTokenMarket.sol\":2389:2562  function withdraw(uint256 pid)public{... */\n    tag_2:\n      callvalue\n      dup1\n      iszero\n      tag_6\n      jumpi\n      0x00\n      dup1\n      revert\n    tag_6:\n      pop\n      tag_7\n      0x04\n      dup1\n      calldatasize\n      sub\n      dup2\n      add\n      swap1\n      tag_8\n      swap2\n      swap1\n      tag_9\n      jump\t// in\n    tag_8:\n      tag_10\n      jump\t// in\n    tag_7:\n      stop\n        /* \"Code-hardhat-ethersJs/contracts/MyTokenMarket.sol\":1074:1787  function addLiquidity(... */\n    tag_3:\n      tag_11\n      0x04\n      dup1\n      calldatasize\n      sub\n      dup2\n      add\n      swap1\n      tag_12\n      swap2\n      swap1\n      tag_13\n      jump\t// in\n    tag_12:\n      tag_14\n      jump\t// in\n    tag_11:\n      mload(0x40)\n      tag_15\n      swap2\n      swap1\n      tag_16\n      jump\t// in\n    tag_15:\n      mload(0x40)\n      dup1\n      swap2\n      sub\n      swap1\n      return\n        /* \"Code-hardhat-ethersJs/contracts/MyTokenMarket.sol\":2028:2352  function buyExactTokenByETH(uint amountOutMin)public payable{... */\n    tag_4:\n      tag_17\n      0x04\n      dup1\n      calldatasize\n      sub\n      dup2\n      add\n      swap1\n      tag_18\n      swap2\n      swap1\n      tag_9\n      jump\t// in\n    tag_18:\n      tag_19\n      jump\t// in\n    tag_17:\n      stop\n        /* \"Code-hardhat-ethersJs/contracts/MyTokenMarket.sol\":1793:2021  function depositToMasterChef(address lpAddress,uint256 pid, uint256 amount)public{... */\n    tag_5:\n      callvalue\n      dup1\n      iszero\n      tag_20\n      jumpi\n      0x00\n      dup1\n      revert\n    tag_20:\n      pop\n      tag_21\n      0x04\n      dup1\n      calldatasize\n      sub\n      dup2\n      add\n      swap1\n      tag_22\n      swap2\n      swap1\n      tag_23\n      jump\t// in\n    tag_22:\n      tag_24\n      jump\t// in\n    tag_21:\n      stop\n        /* \"Code-hardhat-ethersJs/contracts/MyTokenMarket.sol\":2389:2562  function withdraw(uint256 pid)public{... */\n    tag_10:\n        /* \"Code-hardhat-ethersJs/contracts/MyTokenMarket.sol\":2435:2471  IMasterChef.UserInfo memory userInfo */\n      0x00\n        /* \"Code-hardhat-ethersJs/contracts/MyTokenMarket.sol\":2474:2484  masterChef */\n      0x07\n      0x00\n      swap1\n      sload\n      swap1\n      0x0100\n      exp\n      swap1\n      div\n      0xffffffffffffffffffffffffffffffffffffffff\n      and\n        /* \"Code-hardhat-ethersJs/contracts/MyTokenMarket.sol\":2474:2493  masterChef.userInfo */\n      0xffffffffffffffffffffffffffffffffffffffff\n      and\n      0x1959a002\n        /* \"Code-hardhat-ethersJs/contracts/MyTokenMarket.sol\":2494:2504  msg.sender */\n      caller\n        /* \"Code-hardhat-ethersJs/contracts/MyTokenMarket.sol\":2474:2505  masterChef.userInfo(msg.sender) */\n      mload(0x40)\n      dup3\n      0xffffffff\n      and\n      0xe0\n      shl\n      dup2\n      mstore\n      0x04\n      add\n      tag_26\n      swap2\n      swap1\n      tag_27\n      jump\t// in\n    tag_26:\n      0x40\n      dup1\n      mload\n      dup1\n      dup4\n      sub\n      dup2\n      dup7\n      gas\n      staticcall\n      iszero\n      dup1\n      iszero\n      tag_29\n      jumpi\n      returndatasize\n      0x00\n      dup1\n      returndatacopy\n      revert(0x00, returndatasize)\n    tag_29:\n      pop\n      pop\n      pop\n      pop\n      mload(0x40)\n      returndatasize\n      not(0x1f)\n      0x1f\n      dup3\n      add\n      and\n      dup3\n      add\n      dup1\n      0x40\n      mstore\n      pop\n      dup2\n      add\n      swap1\n      tag_30\n      swap2\n      swap1\n      tag_31\n      jump\t// in\n    tag_30:\n        /* \"Code-hardhat-ethersJs/contracts/MyTokenMarket.sol\":2435:2505  IMasterChef.UserInfo memory userInfo = masterChef.userInfo(msg.sender) */\n      swap1\n      pop\n        /* \"Code-hardhat-ethersJs/contracts/MyTokenMarket.sol\":2515:2525  masterChef */\n      0x07\n      0x00\n      swap1\n      sload\n      swap1\n      0x0100\n      exp\n      swap1\n      div\n      0xffffffffffffffffffffffffffffffffffffffff\n      and\n        /* \"Code-hardhat-ethersJs/contracts/MyTokenMarket.sol\":2515:2534  masterChef.withdraw */\n      0xffffffffffffffffffffffffffffffffffffffff\n      and\n      0x441a3e70\n        /* \"Code-hardhat-ethersJs/contracts/MyTokenMarket.sol\":2535:2538  pid */\n      dup4\n        /* \"Code-hardhat-ethersJs/contracts/MyTokenMarket.sol\":2539:2547  userInfo */\n      dup4\n        /* \"Code-hardhat-ethersJs/contracts/MyTokenMarket.sol\":2539:2554  userInfo.amount */\n      0x00\n      add\n      mload\n        /* \"Code-hardhat-ethersJs/contracts/MyTokenMarket.sol\":2515:2555  masterChef.withdraw(pid,userInfo.amount) */\n      mload(0x40)\n      dup4\n      0xffffffff\n      and\n      0xe0\n      shl\n      dup2\n      mstore\n      0x04\n      add\n      tag_32\n      swap3\n      swap2\n      swap1\n      tag_33\n      jump\t// in\n    tag_32:\n      0x00\n      mload(0x40)\n      dup1\n      dup4\n      sub\n      dup2\n      0x00\n      dup8\n      dup1\n      extcodesize\n      iszero\n      dup1\n      iszero\n      tag_34\n      jumpi\n      0x00\n      dup1\n      revert\n    tag_34:\n      pop\n      gas\n      call\n      iszero\n      dup1\n      iszero\n      tag_36\n      jumpi\n      returndatasize\n      0x00\n      dup1\n      returndatacopy\n      revert(0x00, returndatasize)\n    tag_36:\n      pop\n      pop\n      pop\n      pop\n        /* \"Code-hardhat-ethersJs/contracts/MyTokenMarket.sol\":2425:2562  {... */\n      pop\n        /* \"Code-hardhat-ethersJs/contracts/MyTokenMarket.sol\":2389:2562  function withdraw(uint256 pid)public{... */\n      pop\n      jump\t// out\n        /* \"Code-hardhat-ethersJs/contracts/MyTokenMarket.sol\":1074:1787  function addLiquidity(... */\n    tag_14:\n        /* \"Code-hardhat-ethersJs/contracts/MyTokenMarket.sol\":1220:1238  uint256 amountOfLp */\n      0x00\n        /* \"Code-hardhat-ethersJs/contracts/MyTokenMarket.sol\":1287:1293  mtoken */\n      0x06\n      0x00\n      swap1\n      sload\n      swap1\n      0x0100\n      exp\n      swap1\n      div\n      0xffffffffffffffffffffffffffffffffffffffff\n      and\n        /* \"Code-hardhat-ethersJs/contracts/MyTokenMarket.sol\":1287:1301  mtoken.approve */\n      0xffffffffffffffffffffffffffffffffffffffff\n      and\n      0x095ea7b3\n        /* \"Code-hardhat-ethersJs/contracts/MyTokenMarket.sol\":1310:1319  uv2router */\n      0x05\n      0x00\n      swap1\n      sload\n      swap1\n      0x0100\n      exp\n      swap1\n      div\n      0xffffffffffffffffffffffffffffffffffffffff\n      and\n        /* \"Code-hardhat-ethersJs/contracts/MyTokenMarket.sol\":1322:1342  amountMyTokenDesired */\n      dup7\n        /* \"Code-hardhat-ethersJs/contracts/MyTokenMarket.sol\":1287:1343  mtoken.approve(address(uv2router), amountMyTokenDesired) */\n      mload(0x40)\n      dup4\n      0xffffffff\n      and\n      0xe0\n      shl\n      dup2\n      mstore\n      0x04\n      add\n      tag_38\n      swap3\n      swap2\n      swap1\n      tag_39\n      jump\t// in\n    tag_38:\n      0x20\n      mload(0x40)\n      dup1\n      dup4\n      sub\n      dup2\n      0x00\n      dup8\n      gas\n      call\n      iszero\n      dup1\n      iszero\n      tag_41\n      jumpi\n      returndatasize\n      0x00\n      dup1\n      returndatacopy\n      revert(0x00, returndatasize)\n    tag_41:\n      pop\n      pop\n      pop\n      pop\n      mload(0x40)\n      returndatasize\n      not(0x1f)\n      0x1f\n      dup3\n      add\n      and\n      dup3\n      add\n      dup1\n      0x40\n      mstore\n      pop\n      dup2\n      add\n      swap1\n      tag_42\n      swap2\n      swap1\n      tag_43\n      jump\t// in\n    tag_42:\n      pop\n        /* \"Code-hardhat-ethersJs/contracts/MyTokenMarket.sol\":1353:1365  bool success */\n      0x00\n        /* \"Code-hardhat-ethersJs/contracts/MyTokenMarket.sol\":1368:1374  mtoken */\n      0x06\n      0x00\n      swap1\n      sload\n      swap1\n      0x0100\n      exp\n      swap1\n      div\n      0xffffffffffffffffffffffffffffffffffffffff\n      and\n        /* \"Code-hardhat-ethersJs/contracts/MyTokenMarket.sol\":1368:1387  mtoken.transferFrom */\n      0xffffffffffffffffffffffffffffffffffffffff\n      and\n      0x23b872dd\n        /* \"Code-hardhat-ethersJs/contracts/MyTokenMarket.sol\":1388:1398  msg.sender */\n      caller\n        /* \"Code-hardhat-ethersJs/contracts/MyTokenMarket.sol\":1408:1412  this */\n      address\n        /* \"Code-hardhat-ethersJs/contracts/MyTokenMarket.sol\":1415:1435  amountMyTokenDesired */\n      dup9\n        /* \"Code-hardhat-ethersJs/contracts/MyTokenMarket.sol\":1368:1436  mtoken.transferFrom(msg.sender, address(this), amountMyTokenDesired) */\n      mload(0x40)\n      dup5\n      0xffffffff\n      and\n      0xe0\n      shl\n      dup2\n      mstore\n      0x04\n      add\n      tag_44\n      swap4\n      swap3\n      swap2\n      swap1\n      tag_45\n      jump\t// in\n    tag_44:\n      0x20\n      mload(0x40)\n      dup1\n      dup4\n      sub\n      dup2\n      0x00\n      dup8\n      gas\n      call\n      iszero\n      dup1\n      iszero\n      tag_47\n      jumpi\n      returndatasize\n      0x00\n      dup1\n      returndatacopy\n      revert(0x00, returndatasize)\n    tag_47:\n      pop\n      pop\n      pop\n      pop\n      mload(0x40)\n      returndatasize\n      not(0x1f)\n      0x1f\n      dup3\n      add\n      and\n      dup3\n      add\n      dup1\n      0x40\n      mstore\n      pop\n      dup2\n      add\n      swap1\n      tag_48\n      swap2\n      swap1\n      tag_43\n      jump\t// in\n    tag_48:\n        /* \"Code-hardhat-ethersJs/contracts/MyTokenMarket.sol\":1353:1436  bool success = mtoken.transferFrom(msg.sender, address(this), amountMyTokenDesired) */\n      swap1\n      pop\n        /* \"Code-hardhat-ethersJs/contracts/MyTokenMarket.sol\":1454:1461  success */\n      dup1\n        /* \"Code-hardhat-ethersJs/contracts/MyTokenMarket.sol\":1446:1488  require(success, \"mtoken transfer error!\") */\n      tag_49\n      jumpi\n      mload(0x40)\n      0x08c379a000000000000000000000000000000000000000000000000000000000\n      dup2\n      mstore\n      0x04\n      add\n      tag_50\n      swap1\n      tag_51\n      jump\t// in\n    tag_50:\n      mload(0x40)\n      dup1\n      swap2\n      sub\n      swap1\n      revert\n    tag_49:\n        /* \"Code-hardhat-ethersJs/contracts/MyTokenMarket.sol\":1518:1530  amountETHMin */\n      dup3\n        /* \"Code-hardhat-ethersJs/contracts/MyTokenMarket.sol\":1506:1515  msg.value */\n      callvalue\n        /* \"Code-hardhat-ethersJs/contracts/MyTokenMarket.sol\":1506:1530  msg.value > amountETHMin */\n      gt\n        /* \"Code-hardhat-ethersJs/contracts/MyTokenMarket.sol\":1498:1577  require(msg.value > amountETHMin, \"msg.value should biggger than amountETHMin\") */\n      tag_52\n      jumpi\n      mload(0x40)\n      0x08c379a000000000000000000000000000000000000000000000000000000000\n      dup2\n      mstore\n      0x04\n      add\n      tag_53\n      swap1\n      tag_54\n      jump\t// in\n    tag_53:\n      mload(0x40)\n      dup1\n      swap2\n      sub\n      swap1\n      revert\n    tag_52:\n        /* \"Code-hardhat-ethersJs/contracts/MyTokenMarket.sol\":1588:1604  uint amountToken */\n      0x00\n        /* \"Code-hardhat-ethersJs/contracts/MyTokenMarket.sol\":1610:1619  uv2router */\n      0x05\n      0x00\n      swap1\n      sload\n      swap1\n      0x0100\n      exp\n      swap1\n      div\n      0xffffffffffffffffffffffffffffffffffffffff\n      and\n        /* \"Code-hardhat-ethersJs/contracts/MyTokenMarket.sol\":1610:1635  uv2router.addLiquidityETH */\n      0xffffffffffffffffffffffffffffffffffffffff\n      and\n      0xf305d719\n        /* \"Code-hardhat-ethersJs/contracts/MyTokenMarket.sol\":1643:1652  msg.value */\n      callvalue\n        /* \"Code-hardhat-ethersJs/contracts/MyTokenMarket.sol\":1655:1669  mytokenaddress */\n      0x02\n      0x00\n      swap1\n      sload\n      swap1\n      0x0100\n      exp\n      swap1\n      div\n      0xffffffffffffffffffffffffffffffffffffffff\n      and\n        /* \"Code-hardhat-ethersJs/contracts/MyTokenMarket.sol\":1671:1691  amountMyTokenDesired */\n      dup10\n        /* \"Code-hardhat-ethersJs/contracts/MyTokenMarket.sol\":1693:1709  amountMyTokenMin */\n      dup10\n        /* \"Code-hardhat-ethersJs/contracts/MyTokenMarket.sol\":1711:1723  amountETHMin */\n      dup10\n        /* \"Code-hardhat-ethersJs/contracts/MyTokenMarket.sol\":1725:1735  msg.sender */\n      caller\n        /* \"Code-hardhat-ethersJs/contracts/MyTokenMarket.sol\":1736:1751  block.timestamp */\n      timestamp\n        /* \"Code-hardhat-ethersJs/contracts/MyTokenMarket.sol\":1610:1752  uv2router.addLiquidityETH{value: msg.value}( mytokenaddress, amountMyTokenDesired, amountMyTokenMin, amountETHMin, msg.sender,block.timestamp) */\n      mload(0x40)\n      dup9\n      0xffffffff\n      and\n      0xe0\n      shl\n      dup2\n      mstore\n      0x04\n      add\n      tag_55\n      swap7\n      swap6\n      swap5\n      swap4\n      swap3\n      swap2\n      swap1\n      tag_56\n      jump\t// in\n    tag_55:\n      0x60\n      mload(0x40)\n      dup1\n      dup4\n      sub\n      dup2\n      dup6\n      dup9\n      gas\n      call\n      iszero\n      dup1\n      iszero\n      tag_58\n      jumpi\n      returndatasize\n      0x00\n      dup1\n      returndatacopy\n      revert(0x00, returndatasize)\n    tag_58:\n      pop\n      pop\n      pop\n      pop\n      pop\n      mload(0x40)\n      returndatasize\n      not(0x1f)\n      0x1f\n      dup3\n      add\n      and\n      dup3\n      add\n      dup1\n      0x40\n      mstore\n      pop\n      dup2\n      add\n      swap1\n      tag_59\n      swap2\n      swap1\n      tag_60\n      jump\t// in\n    tag_59:\n        /* \"Code-hardhat-ethersJs/contracts/MyTokenMarket.sol\":1587:1752  (uint amountToken,,) = uv2router.addLiquidityETH{value: msg.value}( mytokenaddress, amountMyTokenDesired, amountMyTokenMin, amountETHMin, msg.sender,block.timestamp) */\n      pop\n      pop\n      swap1\n      pop\n        /* \"Code-hardhat-ethersJs/contracts/MyTokenMarket.sol\":1769:1780  amountToken */\n      dup1\n        /* \"Code-hardhat-ethersJs/contracts/MyTokenMarket.sol\":1762:1780  return amountToken */\n      swap3\n      pop\n      pop\n      pop\n        /* \"Code-hardhat-ethersJs/contracts/MyTokenMarket.sol\":1074:1787  function addLiquidity(... */\n      swap4\n      swap3\n      pop\n      pop\n      pop\n      jump\t// out\n        /* \"Code-hardhat-ethersJs/contracts/MyTokenMarket.sol\":2028:2352  function buyExactTokenByETH(uint amountOutMin)public payable{... */\n    tag_19:\n        /* \"Code-hardhat-ethersJs/contracts/MyTokenMarket.sol\":2102:2123  address[] memory path */\n      0x00\n        /* \"Code-hardhat-ethersJs/contracts/MyTokenMarket.sol\":2140:2141  2 */\n      0x02\n        /* \"Code-hardhat-ethersJs/contracts/MyTokenMarket.sol\":2126:2142  new address[](2) */\n      0xffffffffffffffff\n      dup2\n      gt\n      iszero\n      tag_62\n      jumpi\n      tag_63\n      tag_64\n      jump\t// in\n    tag_63:\n    tag_62:\n      mload(0x40)\n      swap1\n      dup1\n      dup3\n      mstore\n      dup1\n      0x20\n      mul\n      0x20\n      add\n      dup3\n      add\n      0x40\n      mstore\n      dup1\n      iszero\n      tag_65\n      jumpi\n      dup2\n      0x20\n      add\n      0x20\n      dup3\n      mul\n      dup1\n      calldatasize\n      dup4\n      calldatacopy\n      dup1\n      dup3\n      add\n      swap2\n      pop\n      pop\n      swap1\n      pop\n    tag_65:\n      pop\n        /* \"Code-hardhat-ethersJs/contracts/MyTokenMarket.sol\":2102:2142  address[] memory path = new address[](2) */\n      swap1\n      pop\n        /* \"Code-hardhat-ethersJs/contracts/MyTokenMarket.sol\":2174:2185  wethaddress */\n      0x01\n      0x00\n      swap1\n      sload\n      swap1\n      0x0100\n      exp\n      swap1\n      div\n      0xffffffffffffffffffffffffffffffffffffffff\n      and\n        /* \"Code-hardhat-ethersJs/contracts/MyTokenMarket.sol\":2156:2160  path */\n      dup2\n        /* \"Code-hardhat-ethersJs/contracts/MyTokenMarket.sol\":2161:2162  0 */\n      0x00\n        /* \"Code-hardhat-ethersJs/contracts/MyTokenMarket.sol\":2156:2163  path[0] */\n      dup2\n      mload\n      dup2\n      lt\n      tag_66\n      jumpi\n      tag_67\n      tag_68\n      jump\t// in\n    tag_67:\n    tag_66:\n      0x20\n      mul\n      0x20\n      add\n      add\n        /* \"Code-hardhat-ethersJs/contracts/MyTokenMarket.sol\":2156:2186  path[0] = address(wethaddress) */\n      swap1\n      0xffffffffffffffffffffffffffffffffffffffff\n      and\n      swap1\n      dup2\n      0xffffffffffffffffffffffffffffffffffffffff\n      and\n      dup2\n      mstore\n      pop\n      pop\n        /* \"Code-hardhat-ethersJs/contracts/MyTokenMarket.sol\":2218:2232  mytokenaddress */\n      0x02\n      0x00\n      swap1\n      sload\n      swap1\n      0x0100\n      exp\n      swap1\n      div\n      0xffffffffffffffffffffffffffffffffffffffff\n      and\n        /* \"Code-hardhat-ethersJs/contracts/MyTokenMarket.sol\":2200:2204  path */\n      dup2\n        /* \"Code-hardhat-ethersJs/contracts/MyTokenMarket.sol\":2205:2206  1 */\n      0x01\n        /* \"Code-hardhat-ethersJs/contracts/MyTokenMarket.sol\":2200:2207  path[1] */\n      dup2\n      mload\n      dup2\n      lt\n      tag_69\n      jumpi\n      tag_70\n      tag_68\n      jump\t// in\n    tag_70:\n    tag_69:\n      0x20\n      mul\n      0x20\n      add\n      add\n        /* \"Code-hardhat-ethersJs/contracts/MyTokenMarket.sol\":2200:2233  path[1] = address(mytokenaddress) */\n      swap1\n      0xffffffffffffffffffffffffffffffffffffffff\n      and\n      swap1\n      dup2\n      0xffffffffffffffffffffffffffffffffffffffff\n      and\n      dup2\n      mstore\n      pop\n      pop\n        /* \"Code-hardhat-ethersJs/contracts/MyTokenMarket.sol\":2247:2256  uv2router */\n      0x05\n      0x00\n      swap1\n      sload\n      swap1\n      0x0100\n      exp\n      swap1\n      div\n      0xffffffffffffffffffffffffffffffffffffffff\n      and\n        /* \"Code-hardhat-ethersJs/contracts/MyTokenMarket.sol\":2247:2278  uv2router.swapExactETHForTokens */\n      0xffffffffffffffffffffffffffffffffffffffff\n      and\n      0x7ff36ab5\n        /* \"Code-hardhat-ethersJs/contracts/MyTokenMarket.sol\":2286:2295  msg.value */\n      callvalue\n        /* \"Code-hardhat-ethersJs/contracts/MyTokenMarket.sol\":2297:2309  amountOutMin */\n      dup5\n        /* \"Code-hardhat-ethersJs/contracts/MyTokenMarket.sol\":2311:2315  path */\n      dup5\n        /* \"Code-hardhat-ethersJs/contracts/MyTokenMarket.sol\":2317:2327  msg.sender */\n      caller\n        /* \"Code-hardhat-ethersJs/contracts/MyTokenMarket.sol\":2329:2344  block.timestamp */\n      timestamp\n        /* \"Code-hardhat-ethersJs/contracts/MyTokenMarket.sol\":2247:2345  uv2router.swapExactETHForTokens{value: msg.value}(amountOutMin, path, msg.sender, block.timestamp) */\n      mload(0x40)\n      dup7\n      0xffffffff\n      and\n      0xe0\n      shl\n      dup2\n      mstore\n      0x04\n      add\n      tag_71\n      swap5\n      swap4\n      swap3\n      swap2\n      swap1\n      tag_72\n      jump\t// in\n    tag_71:\n      0x00\n      mload(0x40)\n      dup1\n      dup4\n      sub\n      dup2\n      dup6\n      dup9\n      gas\n      call\n      iszero\n      dup1\n      iszero\n      tag_74\n      jumpi\n      returndatasize\n      0x00\n      dup1\n      returndatacopy\n      revert(0x00, returndatasize)\n    tag_74:\n      pop\n      pop\n      pop\n      pop\n      pop\n      mload(0x40)\n      returndatasize\n      0x00\n      dup3\n      returndatacopy\n      returndatasize\n      not(0x1f)\n      0x1f\n      dup3\n      add\n      and\n      dup3\n      add\n      dup1\n      0x40\n      mstore\n      pop\n      dup2\n      add\n      swap1\n      tag_75\n      swap2\n      swap1\n      tag_76\n      jump\t// in\n    tag_75:\n      pop\n        /* \"Code-hardhat-ethersJs/contracts/MyTokenMarket.sol\":2088:2352  {... */\n      pop\n        /* \"Code-hardhat-ethersJs/contracts/MyTokenMarket.sol\":2028:2352  function buyExactTokenByETH(uint amountOutMin)public payable{... */\n      pop\n      jump\t// out\n        /* \"Code-hardhat-ethersJs/contracts/MyTokenMarket.sol\":1793:2021  function depositToMasterChef(address lpAddress,uint256 pid, uint256 amount)public{... */\n    tag_24:\n        /* \"Code-hardhat-ethersJs/contracts/MyTokenMarket.sol\":1929:1938  lpAddress */\n      dup3\n        /* \"Code-hardhat-ethersJs/contracts/MyTokenMarket.sol\":1922:1947  IERC20(lpAddress).approve */\n      0xffffffffffffffffffffffffffffffffffffffff\n      and\n      0x095ea7b3\n        /* \"Code-hardhat-ethersJs/contracts/MyTokenMarket.sol\":1948:1965  masterchefaddress */\n      0x04\n      0x00\n      swap1\n      sload\n      swap1\n      0x0100\n      exp\n      swap1\n      div\n      0xffffffffffffffffffffffffffffffffffffffff\n      and\n        /* \"Code-hardhat-ethersJs/contracts/MyTokenMarket.sol\":1967:1973  amount */\n      dup4\n        /* \"Code-hardhat-ethersJs/contracts/MyTokenMarket.sol\":1922:1974  IERC20(lpAddress).approve(masterchefaddress, amount) */\n      mload(0x40)\n      dup4\n      0xffffffff\n      and\n      0xe0\n      shl\n      dup2\n      mstore\n      0x04\n      add\n      tag_78\n      swap3\n      swap2\n      swap1\n      tag_39\n      jump\t// in\n    tag_78:\n      0x20\n      mload(0x40)\n      dup1\n      dup4\n      sub\n      dup2\n      0x00\n      dup8\n      gas\n      call\n      iszero\n      dup1\n      iszero\n      tag_80\n      jumpi\n      returndatasize\n      0x00\n      dup1\n      returndatacopy\n      revert(0x00, returndatasize)\n    tag_80:\n      pop\n      pop\n      pop\n      pop\n      mload(0x40)\n      returndatasize\n      not(0x1f)\n      0x1f\n      dup3\n      add\n      and\n      dup3\n      add\n      dup1\n      0x40\n      mstore\n      pop\n      dup2\n      add\n      swap1\n      tag_81\n      swap2\n      swap1\n      tag_43\n      jump\t// in\n    tag_81:\n      pop\n        /* \"Code-hardhat-ethersJs/contracts/MyTokenMarket.sol\":1984:1994  masterChef */\n      0x07\n      0x00\n      swap1\n      sload\n      swap1\n      0x0100\n      exp\n      swap1\n      div\n      0xffffffffffffffffffffffffffffffffffffffff\n      and\n        /* \"Code-hardhat-ethersJs/contracts/MyTokenMarket.sol\":1984:2002  masterChef.deposit */\n      0xffffffffffffffffffffffffffffffffffffffff\n      and\n      0xe2bbb158\n        /* \"Code-hardhat-ethersJs/contracts/MyTokenMarket.sol\":2003:2006  pid */\n      dup4\n        /* \"Code-hardhat-ethersJs/contracts/MyTokenMarket.sol\":2007:2013  amount */\n      dup4\n        /* \"Code-hardhat-ethersJs/contracts/MyTokenMarket.sol\":1984:2014  masterChef.deposit(pid,amount) */\n      mload(0x40)\n      dup4\n      0xffffffff\n      and\n      0xe0\n      shl\n      dup2\n      mstore\n      0x04\n      add\n      tag_82\n      swap3\n      swap2\n      swap1\n      tag_33\n      jump\t// in\n    tag_82:\n      0x00\n      mload(0x40)\n      dup1\n      dup4\n      sub\n      dup2\n      0x00\n      dup8\n      dup1\n      extcodesize\n      iszero\n      dup1\n      iszero\n      tag_83\n      jumpi\n      0x00\n      dup1\n      revert\n    tag_83:\n      pop\n      gas\n      call\n      iszero\n      dup1\n      iszero\n      tag_85\n      jumpi\n      returndatasize\n      0x00\n      dup1\n      returndatacopy\n      revert(0x00, returndatasize)\n    tag_85:\n      pop\n      pop\n      pop\n      pop\n        /* \"Code-hardhat-ethersJs/contracts/MyTokenMarket.sol\":1793:2021  function depositToMasterChef(address lpAddress,uint256 pid, uint256 amount)public{... */\n      pop\n      pop\n      pop\n      jump\t// out\n        /* \"#utility.yul\":7:82   */\n    tag_86:\n        /* \"#utility.yul\":40:46   */\n      0x00\n        /* \"#utility.yul\":73:75   */\n      0x40\n        /* \"#utility.yul\":67:76   */\n      mload\n        /* \"#utility.yul\":57:76   */\n      swap1\n      pop\n        /* \"#utility.yul\":7:82   */\n      swap1\n      jump\t// out\n        /* \"#utility.yul\":88:205   */\n    tag_87:\n        /* \"#utility.yul\":197:198   */\n      0x00\n        /* \"#utility.yul\":194:195   */\n      dup1\n        /* \"#utility.yul\":187:199   */\n      revert\n        /* \"#utility.yul\":211:328   */\n    tag_88:\n        /* \"#utility.yul\":320:321   */\n      0x00\n        /* \"#utility.yul\":317:318   */\n      dup1\n        /* \"#utility.yul\":310:322   */\n      revert\n        /* \"#utility.yul\":334:411   */\n    tag_89:\n        /* \"#utility.yul\":371:378   */\n      0x00\n        /* \"#utility.yul\":400:405   */\n      dup2\n        /* \"#utility.yul\":389:405   */\n      swap1\n      pop\n        /* \"#utility.yul\":334:411   */\n      swap2\n      swap1\n      pop\n      jump\t// out\n        /* \"#utility.yul\":417:539   */\n    tag_90:\n        /* \"#utility.yul\":490:514   */\n      tag_131\n        /* \"#utility.yul\":508:513   */\n      dup2\n        /* \"#utility.yul\":490:514   */\n      tag_89\n      jump\t// in\n    tag_131:\n        /* \"#utility.yul\":483:488   */\n      dup2\n        /* \"#utility.yul\":480:515   */\n      eq\n        /* \"#utility.yul\":470:533   */\n      tag_132\n      jumpi\n        /* \"#utility.yul\":529:530   */\n      0x00\n        /* \"#utility.yul\":526:527   */\n      dup1\n        /* \"#utility.yul\":519:531   */\n      revert\n        /* \"#utility.yul\":470:533   */\n    tag_132:\n        /* \"#utility.yul\":417:539   */\n      pop\n      jump\t// out\n        /* \"#utility.yul\":545:684   */\n    tag_91:\n        /* \"#utility.yul\":591:596   */\n      0x00\n        /* \"#utility.yul\":629:635   */\n      dup2\n        /* \"#utility.yul\":616:636   */\n      calldataload\n        /* \"#utility.yul\":607:636   */\n      swap1\n      pop\n        /* \"#utility.yul\":645:678   */\n      tag_134\n        /* \"#utility.yul\":672:677   */\n      dup2\n        /* \"#utility.yul\":645:678   */\n      tag_90\n      jump\t// in\n    tag_134:\n        /* \"#utility.yul\":545:684   */\n      swap3\n      swap2\n      pop\n      pop\n      jump\t// out\n        /* \"#utility.yul\":690:1019   */\n    tag_9:\n        /* \"#utility.yul\":749:755   */\n      0x00\n        /* \"#utility.yul\":798:800   */\n      0x20\n        /* \"#utility.yul\":786:795   */\n      dup3\n        /* \"#utility.yul\":777:784   */\n      dup5\n        /* \"#utility.yul\":773:796   */\n      sub\n        /* \"#utility.yul\":769:801   */\n      slt\n        /* \"#utility.yul\":766:885   */\n      iszero\n      tag_136\n      jumpi\n        /* \"#utility.yul\":804:883   */\n      tag_137\n      tag_87\n      jump\t// in\n    tag_137:\n        /* \"#utility.yul\":766:885   */\n    tag_136:\n        /* \"#utility.yul\":924:925   */\n      0x00\n        /* \"#utility.yul\":949:1002   */\n      tag_138\n        /* \"#utility.yul\":994:1001   */\n      dup5\n        /* \"#utility.yul\":985:991   */\n      dup3\n        /* \"#utility.yul\":974:983   */\n      dup6\n        /* \"#utility.yul\":970:992   */\n      add\n        /* \"#utility.yul\":949:1002   */\n      tag_91\n      jump\t// in\n    tag_138:\n        /* \"#utility.yul\":939:1002   */\n      swap2\n      pop\n        /* \"#utility.yul\":895:1012   */\n      pop\n        /* \"#utility.yul\":690:1019   */\n      swap3\n      swap2\n      pop\n      pop\n      jump\t// out\n        /* \"#utility.yul\":1025:1644   */\n    tag_13:\n        /* \"#utility.yul\":1102:1108   */\n      0x00\n        /* \"#utility.yul\":1110:1116   */\n      dup1\n        /* \"#utility.yul\":1118:1124   */\n      0x00\n        /* \"#utility.yul\":1167:1169   */\n      0x60\n        /* \"#utility.yul\":1155:1164   */\n      dup5\n        /* \"#utility.yul\":1146:1153   */\n      dup7\n        /* \"#utility.yul\":1142:1165   */\n      sub\n        /* \"#utility.yul\":1138:1170   */\n      slt\n        /* \"#utility.yul\":1135:1254   */\n      iszero\n      tag_140\n      jumpi\n        /* \"#utility.yul\":1173:1252   */\n      tag_141\n      tag_87\n      jump\t// in\n    tag_141:\n        /* \"#utility.yul\":1135:1254   */\n    tag_140:\n        /* \"#utility.yul\":1293:1294   */\n      0x00\n        /* \"#utility.yul\":1318:1371   */\n      tag_142\n        /* \"#utility.yul\":1363:1370   */\n      dup7\n        /* \"#utility.yul\":1354:1360   */\n      dup3\n        /* \"#utility.yul\":1343:1352   */\n      dup8\n        /* \"#utility.yul\":1339:1361   */\n      add\n        /* \"#utility.yul\":1318:1371   */\n      tag_91\n      jump\t// in\n    tag_142:\n        /* \"#utility.yul\":1308:1371   */\n      swap4\n      pop\n        /* \"#utility.yul\":1264:1381   */\n      pop\n        /* \"#utility.yul\":1420:1422   */\n      0x20\n        /* \"#utility.yul\":1446:1499   */\n      tag_143\n        /* \"#utility.yul\":1491:1498   */\n      dup7\n        /* \"#utility.yul\":1482:1488   */\n      dup3\n        /* \"#utility.yul\":1471:1480   */\n      dup8\n        /* \"#utility.yul\":1467:1489   */\n      add\n        /* \"#utility.yul\":1446:1499   */\n      tag_91\n      jump\t// in\n    tag_143:\n        /* \"#utility.yul\":1436:1499   */\n      swap3\n      pop\n        /* \"#utility.yul\":1391:1509   */\n      pop\n        /* \"#utility.yul\":1548:1550   */\n      0x40\n        /* \"#utility.yul\":1574:1627   */\n      tag_144\n        /* \"#utility.yul\":1619:1626   */\n      dup7\n        /* \"#utility.yul\":1610:1616   */\n      dup3\n        /* \"#utility.yul\":1599:1608   */\n      dup8\n        /* \"#utility.yul\":1595:1617   */\n      add\n        /* \"#utility.yul\":1574:1627   */\n      tag_91\n      jump\t// in\n    tag_144:\n        /* \"#utility.yul\":1564:1627   */\n      swap2\n      pop\n        /* \"#utility.yul\":1519:1637   */\n      pop\n        /* \"#utility.yul\":1025:1644   */\n      swap3\n      pop\n      swap3\n      pop\n      swap3\n      jump\t// out\n        /* \"#utility.yul\":1650:1768   */\n    tag_92:\n        /* \"#utility.yul\":1737:1761   */\n      tag_146\n        /* \"#utility.yul\":1755:1760   */\n      dup2\n        /* \"#utility.yul\":1737:1761   */\n      tag_89\n      jump\t// in\n    tag_146:\n        /* \"#utility.yul\":1732:1735   */\n      dup3\n        /* \"#utility.yul\":1725:1762   */\n      mstore\n        /* \"#utility.yul\":1650:1768   */\n      pop\n      pop\n      jump\t// out\n        /* \"#utility.yul\":1774:1996   */\n    tag_16:\n        /* \"#utility.yul\":1867:1871   */\n      0x00\n        /* \"#utility.yul\":1905:1907   */\n      0x20\n        /* \"#utility.yul\":1894:1903   */\n      dup3\n        /* \"#utility.yul\":1890:1908   */\n      add\n        /* \"#utility.yul\":1882:1908   */\n      swap1\n      pop\n        /* \"#utility.yul\":1918:1989   */\n      tag_148\n        /* \"#utility.yul\":1986:1987   */\n      0x00\n        /* \"#utility.yul\":1975:1984   */\n      dup4\n        /* \"#utility.yul\":1971:1988   */\n      add\n        /* \"#utility.yul\":1962:1968   */\n      dup5\n        /* \"#utility.yul\":1918:1989   */\n      tag_92\n      jump\t// in\n    tag_148:\n        /* \"#utility.yul\":1774:1996   */\n      swap3\n      swap2\n      pop\n      pop\n      jump\t// out\n        /* \"#utility.yul\":2002:2128   */\n    tag_93:\n        /* \"#utility.yul\":2039:2046   */\n      0x00\n        /* \"#utility.yul\":2079:2121   */\n      0xffffffffffffffffffffffffffffffffffffffff\n        /* \"#utility.yul\":2072:2077   */\n      dup3\n        /* \"#utility.yul\":2068:2122   */\n      and\n        /* \"#utility.yul\":2057:2122   */\n      swap1\n      pop\n        /* \"#utility.yul\":2002:2128   */\n      swap2\n      swap1\n      pop\n      jump\t// out\n        /* \"#utility.yul\":2134:2230   */\n    tag_94:\n        /* \"#utility.yul\":2171:2178   */\n      0x00\n        /* \"#utility.yul\":2200:2224   */\n      tag_151\n        /* \"#utility.yul\":2218:2223   */\n      dup3\n        /* \"#utility.yul\":2200:2224   */\n      tag_93\n      jump\t// in\n    tag_151:\n        /* \"#utility.yul\":2189:2224   */\n      swap1\n      pop\n        /* \"#utility.yul\":2134:2230   */\n      swap2\n      swap1\n      pop\n      jump\t// out\n        /* \"#utility.yul\":2236:2358   */\n    tag_95:\n        /* \"#utility.yul\":2309:2333   */\n      tag_153\n        /* \"#utility.yul\":2327:2332   */\n      dup2\n        /* \"#utility.yul\":2309:2333   */\n      tag_94\n      jump\t// in\n    tag_153:\n        /* \"#utility.yul\":2302:2307   */\n      dup2\n        /* \"#utility.yul\":2299:2334   */\n      eq\n        /* \"#utility.yul\":2289:2352   */\n      tag_154\n      jumpi\n        /* \"#utility.yul\":2348:2349   */\n      0x00\n        /* \"#utility.yul\":2345:2346   */\n      dup1\n        /* \"#utility.yul\":2338:2350   */\n      revert\n        /* \"#utility.yul\":2289:2352   */\n    tag_154:\n        /* \"#utility.yul\":2236:2358   */\n      pop\n      jump\t// out\n        /* \"#utility.yul\":2364:2503   */\n    tag_96:\n        /* \"#utility.yul\":2410:2415   */\n      0x00\n        /* \"#utility.yul\":2448:2454   */\n      dup2\n        /* \"#utility.yul\":2435:2455   */\n      calldataload\n        /* \"#utility.yul\":2426:2455   */\n      swap1\n      pop\n        /* \"#utility.yul\":2464:2497   */\n      tag_156\n        /* \"#utility.yul\":2491:2496   */\n      dup2\n        /* \"#utility.yul\":2464:2497   */\n      tag_95\n      jump\t// in\n    tag_156:\n        /* \"#utility.yul\":2364:2503   */\n      swap3\n      swap2\n      pop\n      pop\n      jump\t// out\n        /* \"#utility.yul\":2509:3128   */\n    tag_23:\n        /* \"#utility.yul\":2586:2592   */\n      0x00\n        /* \"#utility.yul\":2594:2600   */\n      dup1\n        /* \"#utility.yul\":2602:2608   */\n      0x00\n        /* \"#utility.yul\":2651:2653   */\n      0x60\n        /* \"#utility.yul\":2639:2648   */\n      dup5\n        /* \"#utility.yul\":2630:2637   */\n      dup7\n        /* \"#utility.yul\":2626:2649   */\n      sub\n        /* \"#utility.yul\":2622:2654   */\n      slt\n        /* \"#utility.yul\":2619:2738   */\n      iszero\n      tag_158\n      jumpi\n        /* \"#utility.yul\":2657:2736   */\n      tag_159\n      tag_87\n      jump\t// in\n    tag_159:\n        /* \"#utility.yul\":2619:2738   */\n    tag_158:\n        /* \"#utility.yul\":2777:2778   */\n      0x00\n        /* \"#utility.yul\":2802:2855   */\n      tag_160\n        /* \"#utility.yul\":2847:2854   */\n      dup7\n        /* \"#utility.yul\":2838:2844   */\n      dup3\n        /* \"#utility.yul\":2827:2836   */\n      dup8\n        /* \"#utility.yul\":2823:2845   */\n      add\n        /* \"#utility.yul\":2802:2855   */\n      tag_96\n      jump\t// in\n    tag_160:\n        /* \"#utility.yul\":2792:2855   */\n      swap4\n      pop\n        /* \"#utility.yul\":2748:2865   */\n      pop\n        /* \"#utility.yul\":2904:2906   */\n      0x20\n        /* \"#utility.yul\":2930:2983   */\n      tag_161\n        /* \"#utility.yul\":2975:2982   */\n      dup7\n        /* \"#utility.yul\":2966:2972   */\n      dup3\n        /* \"#utility.yul\":2955:2964   */\n      dup8\n        /* \"#utility.yul\":2951:2973   */\n      add\n        /* \"#utility.yul\":2930:2983   */\n      tag_91\n      jump\t// in\n    tag_161:\n        /* \"#utility.yul\":2920:2983   */\n      swap3\n      pop\n        /* \"#utility.yul\":2875:2993   */\n      pop\n        /* \"#utility.yul\":3032:3034   */\n      0x40\n        /* \"#utility.yul\":3058:3111   */\n      tag_162\n        /* \"#utility.yul\":3103:3110   */\n      dup7\n        /* \"#utility.yul\":3094:3100   */\n      dup3\n        /* \"#utility.yul\":3083:3092   */\n      dup8\n        /* \"#utility.yul\":3079:3101   */\n      add\n        /* \"#utility.yul\":3058:3111   */\n      tag_91\n      jump\t// in\n    tag_162:\n        /* \"#utility.yul\":3048:3111   */\n      swap2\n      pop\n        /* \"#utility.yul\":3003:3121   */\n      pop\n        /* \"#utility.yul\":2509:3128   */\n      swap3\n      pop\n      swap3\n      pop\n      swap3\n      jump\t// out\n        /* \"#utility.yul\":3134:3252   */\n    tag_97:\n        /* \"#utility.yul\":3221:3245   */\n      tag_164\n        /* \"#utility.yul\":3239:3244   */\n      dup2\n        /* \"#utility.yul\":3221:3245   */\n      tag_94\n      jump\t// in\n    tag_164:\n        /* \"#utility.yul\":3216:3219   */\n      dup3\n        /* \"#utility.yul\":3209:3246   */\n      mstore\n        /* \"#utility.yul\":3134:3252   */\n      pop\n      pop\n      jump\t// out\n        /* \"#utility.yul\":3258:3480   */\n    tag_27:\n        /* \"#utility.yul\":3351:3355   */\n      0x00\n        /* \"#utility.yul\":3389:3391   */\n      0x20\n        /* \"#utility.yul\":3378:3387   */\n      dup3\n        /* \"#utility.yul\":3374:3392   */\n      add\n        /* \"#utility.yul\":3366:3392   */\n      swap1\n      pop\n        /* \"#utility.yul\":3402:3473   */\n      tag_166\n        /* \"#utility.yul\":3470:3471   */\n      0x00\n        /* \"#utility.yul\":3459:3468   */\n      dup4\n        /* \"#utility.yul\":3455:3472   */\n      add\n        /* \"#utility.yul\":3446:3452   */\n      dup5\n        /* \"#utility.yul\":3402:3473   */\n      tag_97\n      jump\t// in\n    tag_166:\n        /* \"#utility.yul\":3258:3480   */\n      swap3\n      swap2\n      pop\n      pop\n      jump\t// out\n        /* \"#utility.yul\":3486:3603   */\n    tag_98:\n        /* \"#utility.yul\":3595:3596   */\n      0x00\n        /* \"#utility.yul\":3592:3593   */\n      dup1\n        /* \"#utility.yul\":3585:3597   */\n      revert\n        /* \"#utility.yul\":3609:3711   */\n    tag_99:\n        /* \"#utility.yul\":3650:3656   */\n      0x00\n        /* \"#utility.yul\":3701:3703   */\n      0x1f\n        /* \"#utility.yul\":3697:3704   */\n      not\n        /* \"#utility.yul\":3692:3694   */\n      0x1f\n        /* \"#utility.yul\":3685:3690   */\n      dup4\n        /* \"#utility.yul\":3681:3695   */\n      add\n        /* \"#utility.yul\":3677:3705   */\n      and\n        /* \"#utility.yul\":3667:3705   */\n      swap1\n      pop\n        /* \"#utility.yul\":3609:3711   */\n      swap2\n      swap1\n      pop\n      jump\t// out\n        /* \"#utility.yul\":3717:3897   */\n    tag_64:\n        /* \"#utility.yul\":3765:3842   */\n      0x4e487b7100000000000000000000000000000000000000000000000000000000\n        /* \"#utility.yul\":3762:3763   */\n      0x00\n        /* \"#utility.yul\":3755:3843   */\n      mstore\n        /* \"#utility.yul\":3862:3866   */\n      0x41\n        /* \"#utility.yul\":3859:3860   */\n      0x04\n        /* \"#utility.yul\":3852:3867   */\n      mstore\n        /* \"#utility.yul\":3886:3890   */\n      0x24\n        /* \"#utility.yul\":3883:3884   */\n      0x00\n        /* \"#utility.yul\":3876:3891   */\n      revert\n        /* \"#utility.yul\":3903:4184   */\n    tag_100:\n        /* \"#utility.yul\":3986:4013   */\n      tag_171\n        /* \"#utility.yul\":4008:4012   */\n      dup3\n        /* \"#utility.yul\":3986:4013   */\n      tag_99\n      jump\t// in\n    tag_171:\n        /* \"#utility.yul\":3978:3984   */\n      dup2\n        /* \"#utility.yul\":3974:4014   */\n      add\n        /* \"#utility.yul\":4116:4122   */\n      dup2\n        /* \"#utility.yul\":4104:4114   */\n      dup2\n        /* \"#utility.yul\":4101:4123   */\n      lt\n        /* \"#utility.yul\":4080:4098   */\n      0xffffffffffffffff\n        /* \"#utility.yul\":4068:4078   */\n      dup3\n        /* \"#utility.yul\":4065:4099   */\n      gt\n        /* \"#utility.yul\":4062:4124   */\n      or\n        /* \"#utility.yul\":4059:4147   */\n      iszero\n      tag_172\n      jumpi\n        /* \"#utility.yul\":4127:4145   */\n      tag_173\n      tag_64\n      jump\t// in\n    tag_173:\n        /* \"#utility.yul\":4059:4147   */\n    tag_172:\n        /* \"#utility.yul\":4167:4177   */\n      dup1\n        /* \"#utility.yul\":4163:4165   */\n      0x40\n        /* \"#utility.yul\":4156:4178   */\n      mstore\n        /* \"#utility.yul\":3946:4184   */\n      pop\n        /* \"#utility.yul\":3903:4184   */\n      pop\n      pop\n      jump\t// out\n        /* \"#utility.yul\":4190:4319   */\n    tag_101:\n        /* \"#utility.yul\":4224:4230   */\n      0x00\n        /* \"#utility.yul\":4251:4271   */\n      tag_175\n      tag_86\n      jump\t// in\n    tag_175:\n        /* \"#utility.yul\":4241:4271   */\n      swap1\n      pop\n        /* \"#utility.yul\":4280:4313   */\n      tag_176\n        /* \"#utility.yul\":4308:4312   */\n      dup3\n        /* \"#utility.yul\":4300:4306   */\n      dup3\n        /* \"#utility.yul\":4280:4313   */\n      tag_100\n      jump\t// in\n    tag_176:\n        /* \"#utility.yul\":4190:4319   */\n      swap2\n      swap1\n      pop\n      jump\t// out\n        /* \"#utility.yul\":4448:4591   */\n    tag_103:\n        /* \"#utility.yul\":4505:4510   */\n      0x00\n        /* \"#utility.yul\":4536:4542   */\n      dup2\n        /* \"#utility.yul\":4530:4543   */\n      mload\n        /* \"#utility.yul\":4521:4543   */\n      swap1\n      pop\n        /* \"#utility.yul\":4552:4585   */\n      tag_179\n        /* \"#utility.yul\":4579:4584   */\n      dup2\n        /* \"#utility.yul\":4552:4585   */\n      tag_90\n      jump\t// in\n    tag_179:\n        /* \"#utility.yul\":4448:4591   */\n      swap3\n      swap2\n      pop\n      pop\n      jump\t// out\n        /* \"#utility.yul\":4632:5247   */\n    tag_104:\n        /* \"#utility.yul\":4717:4722   */\n      0x00\n        /* \"#utility.yul\":4761:4765   */\n      0x40\n        /* \"#utility.yul\":4749:4758   */\n      dup3\n        /* \"#utility.yul\":4744:4747   */\n      dup5\n        /* \"#utility.yul\":4740:4759   */\n      sub\n        /* \"#utility.yul\":4736:4766   */\n      slt\n        /* \"#utility.yul\":4733:4850   */\n      iszero\n      tag_181\n      jumpi\n        /* \"#utility.yul\":4769:4848   */\n      tag_182\n      tag_98\n      jump\t// in\n    tag_182:\n        /* \"#utility.yul\":4733:4850   */\n    tag_181:\n        /* \"#utility.yul\":4868:4889   */\n      tag_183\n        /* \"#utility.yul\":4884:4888   */\n      0x40\n        /* \"#utility.yul\":4868:4889   */\n      tag_101\n      jump\t// in\n    tag_183:\n        /* \"#utility.yul\":4859:4889   */\n      swap1\n      pop\n        /* \"#utility.yul\":4950:4951   */\n      0x00\n        /* \"#utility.yul\":4990:5050   */\n      tag_184\n        /* \"#utility.yul\":5046:5049   */\n      dup5\n        /* \"#utility.yul\":5037:5043   */\n      dup3\n        /* \"#utility.yul\":5026:5035   */\n      dup6\n        /* \"#utility.yul\":5022:5044   */\n      add\n        /* \"#utility.yul\":4990:5050   */\n      tag_103\n      jump\t// in\n    tag_184:\n        /* \"#utility.yul\":4983:4987   */\n      0x00\n        /* \"#utility.yul\":4976:4981   */\n      dup4\n        /* \"#utility.yul\":4972:4988   */\n      add\n        /* \"#utility.yul\":4965:5051   */\n      mstore\n        /* \"#utility.yul\":4899:5062   */\n      pop\n        /* \"#utility.yul\":5127:5129   */\n      0x20\n        /* \"#utility.yul\":5168:5228   */\n      tag_185\n        /* \"#utility.yul\":5224:5227   */\n      dup5\n        /* \"#utility.yul\":5215:5221   */\n      dup3\n        /* \"#utility.yul\":5204:5213   */\n      dup6\n        /* \"#utility.yul\":5200:5222   */\n      add\n        /* \"#utility.yul\":5168:5228   */\n      tag_103\n      jump\t// in\n    tag_185:\n        /* \"#utility.yul\":5161:5165   */\n      0x20\n        /* \"#utility.yul\":5154:5159   */\n      dup4\n        /* \"#utility.yul\":5150:5166   */\n      add\n        /* \"#utility.yul\":5143:5229   */\n      mstore\n        /* \"#utility.yul\":5072:5240   */\n      pop\n        /* \"#utility.yul\":4632:5247   */\n      swap3\n      swap2\n      pop\n      pop\n      jump\t// out\n        /* \"#utility.yul\":5253:5654   */\n    tag_31:\n        /* \"#utility.yul\":5348:5354   */\n      0x00\n        /* \"#utility.yul\":5397:5399   */\n      0x40\n        /* \"#utility.yul\":5385:5394   */\n      dup3\n        /* \"#utility.yul\":5376:5383   */\n      dup5\n        /* \"#utility.yul\":5372:5395   */\n      sub\n        /* \"#utility.yul\":5368:5400   */\n      slt\n        /* \"#utility.yul\":5365:5484   */\n      iszero\n      tag_187\n      jumpi\n        /* \"#utility.yul\":5403:5482   */\n      tag_188\n      tag_87\n      jump\t// in\n    tag_188:\n        /* \"#utility.yul\":5365:5484   */\n    tag_187:\n        /* \"#utility.yul\":5523:5524   */\n      0x00\n        /* \"#utility.yul\":5548:5637   */\n      tag_189\n        /* \"#utility.yul\":5629:5636   */\n      dup5\n        /* \"#utility.yul\":5620:5626   */\n      dup3\n        /* \"#utility.yul\":5609:5618   */\n      dup6\n        /* \"#utility.yul\":5605:5627   */\n      add\n        /* \"#utility.yul\":5548:5637   */\n      tag_104\n      jump\t// in\n    tag_189:\n        /* \"#utility.yul\":5538:5637   */\n      swap2\n      pop\n        /* \"#utility.yul\":5494:5647   */\n      pop\n        /* \"#utility.yul\":5253:5654   */\n      swap3\n      swap2\n      pop\n      pop\n      jump\t// out\n        /* \"#utility.yul\":5660:5992   */\n    tag_33:\n        /* \"#utility.yul\":5781:5785   */\n      0x00\n        /* \"#utility.yul\":5819:5821   */\n      0x40\n        /* \"#utility.yul\":5808:5817   */\n      dup3\n        /* \"#utility.yul\":5804:5822   */\n      add\n        /* \"#utility.yul\":5796:5822   */\n      swap1\n      pop\n        /* \"#utility.yul\":5832:5903   */\n      tag_191\n        /* \"#utility.yul\":5900:5901   */\n      0x00\n        /* \"#utility.yul\":5889:5898   */\n      dup4\n        /* \"#utility.yul\":5885:5902   */\n      add\n        /* \"#utility.yul\":5876:5882   */\n      dup6\n        /* \"#utility.yul\":5832:5903   */\n      tag_92\n      jump\t// in\n    tag_191:\n        /* \"#utility.yul\":5913:5985   */\n      tag_192\n        /* \"#utility.yul\":5981:5983   */\n      0x20\n        /* \"#utility.yul\":5970:5979   */\n      dup4\n        /* \"#utility.yul\":5966:5984   */\n      add\n        /* \"#utility.yul\":5957:5963   */\n      dup5\n        /* \"#utility.yul\":5913:5985   */\n      tag_92\n      jump\t// in\n    tag_192:\n        /* \"#utility.yul\":5660:5992   */\n      swap4\n      swap3\n      pop\n      pop\n      pop\n      jump\t// out\n        /* \"#utility.yul\":5998:6330   */\n    tag_39:\n        /* \"#utility.yul\":6119:6123   */\n      0x00\n        /* \"#utility.yul\":6157:6159   */\n      0x40\n        /* \"#utility.yul\":6146:6155   */\n      dup3\n        /* \"#utility.yul\":6142:6160   */\n      add\n        /* \"#utility.yul\":6134:6160   */\n      swap1\n      pop\n        /* \"#utility.yul\":6170:6241   */\n      tag_194\n        /* \"#utility.yul\":6238:6239   */\n      0x00\n        /* \"#utility.yul\":6227:6236   */\n      dup4\n        /* \"#utility.yul\":6223:6240   */\n      add\n        /* \"#utility.yul\":6214:6220   */\n      dup6\n        /* \"#utility.yul\":6170:6241   */\n      tag_97\n      jump\t// in\n    tag_194:\n        /* \"#utility.yul\":6251:6323   */\n      tag_195\n        /* \"#utility.yul\":6319:6321   */\n      0x20\n        /* \"#utility.yul\":6308:6317   */\n      dup4\n        /* \"#utility.yul\":6304:6322   */\n      add\n        /* \"#utility.yul\":6295:6301   */\n      dup5\n        /* \"#utility.yul\":6251:6323   */\n      tag_92\n      jump\t// in\n    tag_195:\n        /* \"#utility.yul\":5998:6330   */\n      swap4\n      swap3\n      pop\n      pop\n      pop\n      jump\t// out\n        /* \"#utility.yul\":6336:6426   */\n    tag_105:\n        /* \"#utility.yul\":6370:6377   */\n      0x00\n        /* \"#utility.yul\":6413:6418   */\n      dup2\n        /* \"#utility.yul\":6406:6419   */\n      iszero\n        /* \"#utility.yul\":6399:6420   */\n      iszero\n        /* \"#utility.yul\":6388:6420   */\n      swap1\n      pop\n        /* \"#utility.yul\":6336:6426   */\n      swap2\n      swap1\n      pop\n      jump\t// out\n        /* \"#utility.yul\":6432:6548   */\n    tag_106:\n        /* \"#utility.yul\":6502:6523   */\n      tag_198\n        /* \"#utility.yul\":6517:6522   */\n      dup2\n        /* \"#utility.yul\":6502:6523   */\n      tag_105\n      jump\t// in\n    tag_198:\n        /* \"#utility.yul\":6495:6500   */\n      dup2\n        /* \"#utility.yul\":6492:6524   */\n      eq\n        /* \"#utility.yul\":6482:6542   */\n      tag_199\n      jumpi\n        /* \"#utility.yul\":6538:6539   */\n      0x00\n        /* \"#utility.yul\":6535:6536   */\n      dup1\n        /* \"#utility.yul\":6528:6540   */\n      revert\n        /* \"#utility.yul\":6482:6542   */\n    tag_199:\n        /* \"#utility.yul\":6432:6548   */\n      pop\n      jump\t// out\n        /* \"#utility.yul\":6554:6691   */\n    tag_107:\n        /* \"#utility.yul\":6608:6613   */\n      0x00\n        /* \"#utility.yul\":6639:6645   */\n      dup2\n        /* \"#utility.yul\":6633:6646   */\n      mload\n        /* \"#utility.yul\":6624:6646   */\n      swap1\n      pop\n        /* \"#utility.yul\":6655:6685   */\n      tag_201\n        /* \"#utility.yul\":6679:6684   */\n      dup2\n        /* \"#utility.yul\":6655:6685   */\n      tag_106\n      jump\t// in\n    tag_201:\n        /* \"#utility.yul\":6554:6691   */\n      swap3\n      swap2\n      pop\n      pop\n      jump\t// out\n        /* \"#utility.yul\":6697:7042   */\n    tag_43:\n        /* \"#utility.yul\":6764:6770   */\n      0x00\n        /* \"#utility.yul\":6813:6815   */\n      0x20\n        /* \"#utility.yul\":6801:6810   */\n      dup3\n        /* \"#utility.yul\":6792:6799   */\n      dup5\n        /* \"#utility.yul\":6788:6811   */\n      sub\n        /* \"#utility.yul\":6784:6816   */\n      slt\n        /* \"#utility.yul\":6781:6900   */\n      iszero\n      tag_203\n      jumpi\n        /* \"#utility.yul\":6819:6898   */\n      tag_204\n      tag_87\n      jump\t// in\n    tag_204:\n        /* \"#utility.yul\":6781:6900   */\n    tag_203:\n        /* \"#utility.yul\":6939:6940   */\n      0x00\n        /* \"#utility.yul\":6964:7025   */\n      tag_205\n        /* \"#utility.yul\":7017:7024   */\n      dup5\n        /* \"#utility.yul\":7008:7014   */\n      dup3\n        /* \"#utility.yul\":6997:7006   */\n      dup6\n        /* \"#utility.yul\":6993:7015   */\n      add\n        /* \"#utility.yul\":6964:7025   */\n      tag_107\n      jump\t// in\n    tag_205:\n        /* \"#utility.yul\":6954:7025   */\n      swap2\n      pop\n        /* \"#utility.yul\":6910:7035   */\n      pop\n        /* \"#utility.yul\":6697:7042   */\n      swap3\n      swap2\n      pop\n      pop\n      jump\t// out\n        /* \"#utility.yul\":7048:7490   */\n    tag_45:\n        /* \"#utility.yul\":7197:7201   */\n      0x00\n        /* \"#utility.yul\":7235:7237   */\n      0x60\n        /* \"#utility.yul\":7224:7233   */\n      dup3\n        /* \"#utility.yul\":7220:7238   */\n      add\n        /* \"#utility.yul\":7212:7238   */\n      swap1\n      pop\n        /* \"#utility.yul\":7248:7319   */\n      tag_207\n        /* \"#utility.yul\":7316:7317   */\n      0x00\n        /* \"#utility.yul\":7305:7314   */\n      dup4\n        /* \"#utility.yul\":7301:7318   */\n      add\n        /* \"#utility.yul\":7292:7298   */\n      dup7\n        /* \"#utility.yul\":7248:7319   */\n      tag_97\n      jump\t// in\n    tag_207:\n        /* \"#utility.yul\":7329:7401   */\n      tag_208\n        /* \"#utility.yul\":7397:7399   */\n      0x20\n        /* \"#utility.yul\":7386:7395   */\n      dup4\n        /* \"#utility.yul\":7382:7400   */\n      add\n        /* \"#utility.yul\":7373:7379   */\n      dup6\n        /* \"#utility.yul\":7329:7401   */\n      tag_97\n      jump\t// in\n    tag_208:\n        /* \"#utility.yul\":7411:7483   */\n      tag_209\n        /* \"#utility.yul\":7479:7481   */\n      0x40\n        /* \"#utility.yul\":7468:7477   */\n      dup4\n        /* \"#utility.yul\":7464:7482   */\n      add\n        /* \"#utility.yul\":7455:7461   */\n      dup5\n        /* \"#utility.yul\":7411:7483   */\n      tag_92\n      jump\t// in\n    tag_209:\n        /* \"#utility.yul\":7048:7490   */\n      swap5\n      swap4\n      pop\n      pop\n      pop\n      pop\n      jump\t// out\n        /* \"#utility.yul\":7496:7665   */\n    tag_108:\n        /* \"#utility.yul\":7580:7591   */\n      0x00\n        /* \"#utility.yul\":7614:7620   */\n      dup3\n        /* \"#utility.yul\":7609:7612   */\n      dup3\n        /* \"#utility.yul\":7602:7621   */\n      mstore\n        /* \"#utility.yul\":7654:7658   */\n      0x20\n        /* \"#utility.yul\":7649:7652   */\n      dup3\n        /* \"#utility.yul\":7645:7659   */\n      add\n        /* \"#utility.yul\":7630:7659   */\n      swap1\n      pop\n        /* \"#utility.yul\":7496:7665   */\n      swap3\n      swap2\n      pop\n      pop\n      jump\t// out\n        /* \"#utility.yul\":7671:7843   */\n    tag_109:\n        /* \"#utility.yul\":7811:7835   */\n      0x6d746f6b656e207472616e73666572206572726f722100000000000000000000\n        /* \"#utility.yul\":7807:7808   */\n      0x00\n        /* \"#utility.yul\":7799:7805   */\n      dup3\n        /* \"#utility.yul\":7795:7809   */\n      add\n        /* \"#utility.yul\":7788:7836   */\n      mstore\n        /* \"#utility.yul\":7671:7843   */\n      pop\n      jump\t// out\n        /* \"#utility.yul\":7849:8215   */\n    tag_110:\n        /* \"#utility.yul\":7991:7994   */\n      0x00\n        /* \"#utility.yul\":8012:8079   */\n      tag_213\n        /* \"#utility.yul\":8076:8078   */\n      0x16\n        /* \"#utility.yul\":8071:8074   */\n      dup4\n        /* \"#utility.yul\":8012:8079   */\n      tag_108\n      jump\t// in\n    tag_213:\n        /* \"#utility.yul\":8005:8079   */\n      swap2\n      pop\n        /* \"#utility.yul\":8088:8181   */\n      tag_214\n        /* \"#utility.yul\":8177:8180   */\n      dup3\n        /* \"#utility.yul\":8088:8181   */\n      tag_109\n      jump\t// in\n    tag_214:\n        /* \"#utility.yul\":8206:8208   */\n      0x20\n        /* \"#utility.yul\":8201:8204   */\n      dup3\n        /* \"#utility.yul\":8197:8209   */\n      add\n        /* \"#utility.yul\":8190:8209   */\n      swap1\n      pop\n        /* \"#utility.yul\":7849:8215   */\n      swap2\n      swap1\n      pop\n      jump\t// out\n        /* \"#utility.yul\":8221:8640   */\n    tag_51:\n        /* \"#utility.yul\":8387:8391   */\n      0x00\n        /* \"#utility.yul\":8425:8427   */\n      0x20\n        /* \"#utility.yul\":8414:8423   */\n      dup3\n        /* \"#utility.yul\":8410:8428   */\n      add\n        /* \"#utility.yul\":8402:8428   */\n      swap1\n      pop\n        /* \"#utility.yul\":8474:8483   */\n      dup2\n        /* \"#utility.yul\":8468:8472   */\n      dup2\n        /* \"#utility.yul\":8464:8484   */\n      sub\n        /* \"#utility.yul\":8460:8461   */\n      0x00\n        /* \"#utility.yul\":8449:8458   */\n      dup4\n        /* \"#utility.yul\":8445:8462   */\n      add\n        /* \"#utility.yul\":8438:8485   */\n      mstore\n        /* \"#utility.yul\":8502:8633   */\n      tag_216\n        /* \"#utility.yul\":8628:8632   */\n      dup2\n        /* \"#utility.yul\":8502:8633   */\n      tag_110\n      jump\t// in\n    tag_216:\n        /* \"#utility.yul\":8494:8633   */\n      swap1\n      pop\n        /* \"#utility.yul\":8221:8640   */\n      swap2\n      swap1\n      pop\n      jump\t// out\n        /* \"#utility.yul\":8646:8875   */\n    tag_111:\n        /* \"#utility.yul\":8786:8820   */\n      0x6d73672e76616c75652073686f756c642062696767676572207468616e20616d\n        /* \"#utility.yul\":8782:8783   */\n      0x00\n        /* \"#utility.yul\":8774:8780   */\n      dup3\n        /* \"#utility.yul\":8770:8784   */\n      add\n        /* \"#utility.yul\":8763:8821   */\n      mstore\n        /* \"#utility.yul\":8855:8867   */\n      0x6f756e744554484d696e00000000000000000000000000000000000000000000\n        /* \"#utility.yul\":8850:8852   */\n      0x20\n        /* \"#utility.yul\":8842:8848   */\n      dup3\n        /* \"#utility.yul\":8838:8853   */\n      add\n        /* \"#utility.yul\":8831:8868   */\n      mstore\n        /* \"#utility.yul\":8646:8875   */\n      pop\n      jump\t// out\n        /* \"#utility.yul\":8881:9247   */\n    tag_112:\n        /* \"#utility.yul\":9023:9026   */\n      0x00\n        /* \"#utility.yul\":9044:9111   */\n      tag_219\n        /* \"#utility.yul\":9108:9110   */\n      0x2a\n        /* \"#utility.yul\":9103:9106   */\n      dup4\n        /* \"#utility.yul\":9044:9111   */\n      tag_108\n      jump\t// in\n    tag_219:\n        /* \"#utility.yul\":9037:9111   */\n      swap2\n      pop\n        /* \"#utility.yul\":9120:9213   */\n      tag_220\n        /* \"#utility.yul\":9209:9212   */\n      dup3\n        /* \"#utility.yul\":9120:9213   */\n      tag_111\n      jump\t// in\n    tag_220:\n        /* \"#utility.yul\":9238:9240   */\n      0x40\n        /* \"#utility.yul\":9233:9236   */\n      dup3\n        /* \"#utility.yul\":9229:9241   */\n      add\n        /* \"#utility.yul\":9222:9241   */\n      swap1\n      pop\n        /* \"#utility.yul\":8881:9247   */\n      swap2\n      swap1\n      pop\n      jump\t// out\n        /* \"#utility.yul\":9253:9672   */\n    tag_54:\n        /* \"#utility.yul\":9419:9423   */\n      0x00\n        /* \"#utility.yul\":9457:9459   */\n      0x20\n        /* \"#utility.yul\":9446:9455   */\n      dup3\n        /* \"#utility.yul\":9442:9460   */\n      add\n        /* \"#utility.yul\":9434:9460   */\n      swap1\n      pop\n        /* \"#utility.yul\":9506:9515   */\n      dup2\n        /* \"#utility.yul\":9500:9504   */\n      dup2\n        /* \"#utility.yul\":9496:9516   */\n      sub\n        /* \"#utility.yul\":9492:9493   */\n      0x00\n        /* \"#utility.yul\":9481:9490   */\n      dup4\n        /* \"#utility.yul\":9477:9494   */\n      add\n        /* \"#utility.yul\":9470:9517   */\n      mstore\n        /* \"#utility.yul\":9534:9665   */\n      tag_222\n        /* \"#utility.yul\":9660:9664   */\n      dup2\n        /* \"#utility.yul\":9534:9665   */\n      tag_112\n      jump\t// in\n    tag_222:\n        /* \"#utility.yul\":9526:9665   */\n      swap1\n      pop\n        /* \"#utility.yul\":9253:9672   */\n      swap2\n      swap1\n      pop\n      jump\t// out\n        /* \"#utility.yul\":9678:10453   */\n    tag_56:\n        /* \"#utility.yul\":9911:9915   */\n      0x00\n        /* \"#utility.yul\":9949:9952   */\n      0xc0\n        /* \"#utility.yul\":9938:9947   */\n      dup3\n        /* \"#utility.yul\":9934:9953   */\n      add\n        /* \"#utility.yul\":9926:9953   */\n      swap1\n      pop\n        /* \"#utility.yul\":9963:10034   */\n      tag_224\n        /* \"#utility.yul\":10031:10032   */\n      0x00\n        /* \"#utility.yul\":10020:10029   */\n      dup4\n        /* \"#utility.yul\":10016:10033   */\n      add\n        /* \"#utility.yul\":10007:10013   */\n      dup10\n        /* \"#utility.yul\":9963:10034   */\n      tag_97\n      jump\t// in\n    tag_224:\n        /* \"#utility.yul\":10044:10116   */\n      tag_225\n        /* \"#utility.yul\":10112:10114   */\n      0x20\n        /* \"#utility.yul\":10101:10110   */\n      dup4\n        /* \"#utility.yul\":10097:10115   */\n      add\n        /* \"#utility.yul\":10088:10094   */\n      dup9\n        /* \"#utility.yul\":10044:10116   */\n      tag_92\n      jump\t// in\n    tag_225:\n        /* \"#utility.yul\":10126:10198   */\n      tag_226\n        /* \"#utility.yul\":10194:10196   */\n      0x40\n        /* \"#utility.yul\":10183:10192   */\n      dup4\n        /* \"#utility.yul\":10179:10197   */\n      add\n        /* \"#utility.yul\":10170:10176   */\n      dup8\n        /* \"#utility.yul\":10126:10198   */\n      tag_92\n      jump\t// in\n    tag_226:\n        /* \"#utility.yul\":10208:10280   */\n      tag_227\n        /* \"#utility.yul\":10276:10278   */\n      0x60\n        /* \"#utility.yul\":10265:10274   */\n      dup4\n        /* \"#utility.yul\":10261:10279   */\n      add\n        /* \"#utility.yul\":10252:10258   */\n      dup7\n        /* \"#utility.yul\":10208:10280   */\n      tag_92\n      jump\t// in\n    tag_227:\n        /* \"#utility.yul\":10290:10363   */\n      tag_228\n        /* \"#utility.yul\":10358:10361   */\n      0x80\n        /* \"#utility.yul\":10347:10356   */\n      dup4\n        /* \"#utility.yul\":10343:10362   */\n      add\n        /* \"#utility.yul\":10334:10340   */\n      dup6\n        /* \"#utility.yul\":10290:10363   */\n      tag_97\n      jump\t// in\n    tag_228:\n        /* \"#utility.yul\":10373:10446   */\n      tag_229\n        /* \"#utility.yul\":10441:10444   */\n      0xa0\n        /* \"#utility.yul\":10430:10439   */\n      dup4\n        /* \"#utility.yul\":10426:10445   */\n      add\n        /* \"#utility.yul\":10417:10423   */\n      dup5\n        /* \"#utility.yul\":10373:10446   */\n      tag_92\n      jump\t// in\n    tag_229:\n        /* \"#utility.yul\":9678:10453   */\n      swap8\n      swap7\n      pop\n      pop\n      pop\n      pop\n      pop\n      pop\n      pop\n      jump\t// out\n        /* \"#utility.yul\":10459:11122   */\n    tag_60:\n        /* \"#utility.yul\":10547:10553   */\n      0x00\n        /* \"#utility.yul\":10555:10561   */\n      dup1\n        /* \"#utility.yul\":10563:10569   */\n      0x00\n        /* \"#utility.yul\":10612:10614   */\n      0x60\n        /* \"#utility.yul\":10600:10609   */\n      dup5\n        /* \"#utility.yul\":10591:10598   */\n      dup7\n        /* \"#utility.yul\":10587:10610   */\n      sub\n        /* \"#utility.yul\":10583:10615   */\n      slt\n        /* \"#utility.yul\":10580:10699   */\n      iszero\n      tag_231\n      jumpi\n        /* \"#utility.yul\":10618:10697   */\n      tag_232\n      tag_87\n      jump\t// in\n    tag_232:\n        /* \"#utility.yul\":10580:10699   */\n    tag_231:\n        /* \"#utility.yul\":10738:10739   */\n      0x00\n        /* \"#utility.yul\":10763:10827   */\n      tag_233\n        /* \"#utility.yul\":10819:10826   */\n      dup7\n        /* \"#utility.yul\":10810:10816   */\n      dup3\n        /* \"#utility.yul\":10799:10808   */\n      dup8\n        /* \"#utility.yul\":10795:10817   */\n      add\n        /* \"#utility.yul\":10763:10827   */\n      tag_103\n      jump\t// in\n    tag_233:\n        /* \"#utility.yul\":10753:10827   */\n      swap4\n      pop\n        /* \"#utility.yul\":10709:10837   */\n      pop\n        /* \"#utility.yul\":10876:10878   */\n      0x20\n        /* \"#utility.yul\":10902:10966   */\n      tag_234\n        /* \"#utility.yul\":10958:10965   */\n      dup7\n        /* \"#utility.yul\":10949:10955   */\n      dup3\n        /* \"#utility.yul\":10938:10947   */\n      dup8\n        /* \"#utility.yul\":10934:10956   */\n      add\n        /* \"#utility.yul\":10902:10966   */\n      tag_103\n      jump\t// in\n    tag_234:\n        /* \"#utility.yul\":10892:10966   */\n      swap3\n      pop\n        /* \"#utility.yul\":10847:10976   */\n      pop\n        /* \"#utility.yul\":11015:11017   */\n      0x40\n        /* \"#utility.yul\":11041:11105   */\n      tag_235\n        /* \"#utility.yul\":11097:11104   */\n      dup7\n        /* \"#utility.yul\":11088:11094   */\n      dup3\n        /* \"#utility.yul\":11077:11086   */\n      dup8\n        /* \"#utility.yul\":11073:11095   */\n      add\n        /* \"#utility.yul\":11041:11105   */\n      tag_103\n      jump\t// in\n    tag_235:\n        /* \"#utility.yul\":11031:11105   */\n      swap2\n      pop\n        /* \"#utility.yul\":10986:11115   */\n      pop\n        /* \"#utility.yul\":10459:11122   */\n      swap3\n      pop\n      swap3\n      pop\n      swap3\n      jump\t// out\n        /* \"#utility.yul\":11128:11308   */\n    tag_68:\n        /* \"#utility.yul\":11176:11253   */\n      0x4e487b7100000000000000000000000000000000000000000000000000000000\n        /* \"#utility.yul\":11173:11174   */\n      0x00\n        /* \"#utility.yul\":11166:11254   */\n      mstore\n        /* \"#utility.yul\":11273:11277   */\n      0x32\n        /* \"#utility.yul\":11270:11271   */\n      0x04\n        /* \"#utility.yul\":11263:11278   */\n      mstore\n        /* \"#utility.yul\":11297:11301   */\n      0x24\n        /* \"#utility.yul\":11294:11295   */\n      0x00\n        /* \"#utility.yul\":11287:11302   */\n      revert\n        /* \"#utility.yul\":11314:11428   */\n    tag_113:\n        /* \"#utility.yul\":11381:11387   */\n      0x00\n        /* \"#utility.yul\":11415:11420   */\n      dup2\n        /* \"#utility.yul\":11409:11421   */\n      mload\n        /* \"#utility.yul\":11399:11421   */\n      swap1\n      pop\n        /* \"#utility.yul\":11314:11428   */\n      swap2\n      swap1\n      pop\n      jump\t// out\n        /* \"#utility.yul\":11434:11618   */\n    tag_114:\n        /* \"#utility.yul\":11533:11544   */\n      0x00\n        /* \"#utility.yul\":11567:11573   */\n      dup3\n        /* \"#utility.yul\":11562:11565   */\n      dup3\n        /* \"#utility.yul\":11555:11574   */\n      mstore\n        /* \"#utility.yul\":11607:11611   */\n      0x20\n        /* \"#utility.yul\":11602:11605   */\n      dup3\n        /* \"#utility.yul\":11598:11612   */\n      add\n        /* \"#utility.yul\":11583:11612   */\n      swap1\n      pop\n        /* \"#utility.yul\":11434:11618   */\n      swap3\n      swap2\n      pop\n      pop\n      jump\t// out\n        /* \"#utility.yul\":11624:11756   */\n    tag_115:\n        /* \"#utility.yul\":11691:11695   */\n      0x00\n        /* \"#utility.yul\":11714:11717   */\n      dup2\n        /* \"#utility.yul\":11706:11717   */\n      swap1\n      pop\n        /* \"#utility.yul\":11744:11748   */\n      0x20\n        /* \"#utility.yul\":11739:11742   */\n      dup3\n        /* \"#utility.yul\":11735:11749   */\n      add\n        /* \"#utility.yul\":11727:11749   */\n      swap1\n      pop\n        /* \"#utility.yul\":11624:11756   */\n      swap2\n      swap1\n      pop\n      jump\t// out\n        /* \"#utility.yul\":11762:11870   */\n    tag_116:\n        /* \"#utility.yul\":11839:11863   */\n      tag_241\n        /* \"#utility.yul\":11857:11862   */\n      dup2\n        /* \"#utility.yul\":11839:11863   */\n      tag_94\n      jump\t// in\n    tag_241:\n        /* \"#utility.yul\":11834:11837   */\n      dup3\n        /* \"#utility.yul\":11827:11864   */\n      mstore\n        /* \"#utility.yul\":11762:11870   */\n      pop\n      pop\n      jump\t// out\n        /* \"#utility.yul\":11876:12055   */\n    tag_117:\n        /* \"#utility.yul\":11945:11955   */\n      0x00\n        /* \"#utility.yul\":11966:12012   */\n      tag_243\n        /* \"#utility.yul\":12008:12011   */\n      dup4\n        /* \"#utility.yul\":12000:12006   */\n      dup4\n        /* \"#utility.yul\":11966:12012   */\n      tag_116\n      jump\t// in\n    tag_243:\n        /* \"#utility.yul\":12044:12048   */\n      0x20\n        /* \"#utility.yul\":12039:12042   */\n      dup4\n        /* \"#utility.yul\":12035:12049   */\n      add\n        /* \"#utility.yul\":12021:12049   */\n      swap1\n      pop\n        /* \"#utility.yul\":11876:12055   */\n      swap3\n      swap2\n      pop\n      pop\n      jump\t// out\n        /* \"#utility.yul\":12061:12174   */\n    tag_118:\n        /* \"#utility.yul\":12131:12135   */\n      0x00\n        /* \"#utility.yul\":12163:12167   */\n      0x20\n        /* \"#utility.yul\":12158:12161   */\n      dup3\n        /* \"#utility.yul\":12154:12168   */\n      add\n        /* \"#utility.yul\":12146:12168   */\n      swap1\n      pop\n        /* \"#utility.yul\":12061:12174   */\n      swap2\n      swap1\n      pop\n      jump\t// out\n        /* \"#utility.yul\":12210:12942   */\n    tag_119:\n        /* \"#utility.yul\":12329:12332   */\n      0x00\n        /* \"#utility.yul\":12358:12412   */\n      tag_246\n        /* \"#utility.yul\":12406:12411   */\n      dup3\n        /* \"#utility.yul\":12358:12412   */\n      tag_113\n      jump\t// in\n    tag_246:\n        /* \"#utility.yul\":12428:12514   */\n      tag_247\n        /* \"#utility.yul\":12507:12513   */\n      dup2\n        /* \"#utility.yul\":12502:12505   */\n      dup6\n        /* \"#utility.yul\":12428:12514   */\n      tag_114\n      jump\t// in\n    tag_247:\n        /* \"#utility.yul\":12421:12514   */\n      swap4\n      pop\n        /* \"#utility.yul\":12538:12594   */\n      tag_248\n        /* \"#utility.yul\":12588:12593   */\n      dup4\n        /* \"#utility.yul\":12538:12594   */\n      tag_115\n      jump\t// in\n    tag_248:\n        /* \"#utility.yul\":12617:12624   */\n      dup1\n        /* \"#utility.yul\":12648:12649   */\n      0x00\n        /* \"#utility.yul\":12633:12917   */\n    tag_249:\n        /* \"#utility.yul\":12658:12664   */\n      dup4\n        /* \"#utility.yul\":12655:12656   */\n      dup2\n        /* \"#utility.yul\":12652:12665   */\n      lt\n        /* \"#utility.yul\":12633:12917   */\n      iszero\n      tag_251\n      jumpi\n        /* \"#utility.yul\":12734:12740   */\n      dup2\n        /* \"#utility.yul\":12728:12741   */\n      mload\n        /* \"#utility.yul\":12761:12824   */\n      tag_252\n        /* \"#utility.yul\":12820:12823   */\n      dup9\n        /* \"#utility.yul\":12805:12818   */\n      dup3\n        /* \"#utility.yul\":12761:12824   */\n      tag_117\n      jump\t// in\n    tag_252:\n        /* \"#utility.yul\":12754:12824   */\n      swap8\n      pop\n        /* \"#utility.yul\":12847:12907   */\n      tag_253\n        /* \"#utility.yul\":12900:12906   */\n      dup4\n        /* \"#utility.yul\":12847:12907   */\n      tag_118\n      jump\t// in\n    tag_253:\n        /* \"#utility.yul\":12837:12907   */\n      swap3\n      pop\n        /* \"#utility.yul\":12693:12917   */\n      pop\n        /* \"#utility.yul\":12680:12681   */\n      0x01\n        /* \"#utility.yul\":12677:12678   */\n      dup2\n        /* \"#utility.yul\":12673:12682   */\n      add\n        /* \"#utility.yul\":12668:12682   */\n      swap1\n      pop\n        /* \"#utility.yul\":12633:12917   */\n      jump(tag_249)\n    tag_251:\n        /* \"#utility.yul\":12637:12651   */\n      pop\n        /* \"#utility.yul\":12933:12936   */\n      dup6\n        /* \"#utility.yul\":12926:12936   */\n      swap4\n      pop\n        /* \"#utility.yul\":12334:12942   */\n      pop\n      pop\n      pop\n        /* \"#utility.yul\":12210:12942   */\n      swap3\n      swap2\n      pop\n      pop\n      jump\t// out\n        /* \"#utility.yul\":12948:13652   */\n    tag_72:\n        /* \"#utility.yul\":13175:13179   */\n      0x00\n        /* \"#utility.yul\":13213:13216   */\n      0x80\n        /* \"#utility.yul\":13202:13211   */\n      dup3\n        /* \"#utility.yul\":13198:13217   */\n      add\n        /* \"#utility.yul\":13190:13217   */\n      swap1\n      pop\n        /* \"#utility.yul\":13227:13298   */\n      tag_255\n        /* \"#utility.yul\":13295:13296   */\n      0x00\n        /* \"#utility.yul\":13284:13293   */\n      dup4\n        /* \"#utility.yul\":13280:13297   */\n      add\n        /* \"#utility.yul\":13271:13277   */\n      dup8\n        /* \"#utility.yul\":13227:13298   */\n      tag_92\n      jump\t// in\n    tag_255:\n        /* \"#utility.yul\":13345:13354   */\n      dup2\n        /* \"#utility.yul\":13339:13343   */\n      dup2\n        /* \"#utility.yul\":13335:13355   */\n      sub\n        /* \"#utility.yul\":13330:13332   */\n      0x20\n        /* \"#utility.yul\":13319:13328   */\n      dup4\n        /* \"#utility.yul\":13315:13333   */\n      add\n        /* \"#utility.yul\":13308:13356   */\n      mstore\n        /* \"#utility.yul\":13373:13481   */\n      tag_256\n        /* \"#utility.yul\":13476:13480   */\n      dup2\n        /* \"#utility.yul\":13467:13473   */\n      dup7\n        /* \"#utility.yul\":13373:13481   */\n      tag_119\n      jump\t// in\n    tag_256:\n        /* \"#utility.yul\":13365:13481   */\n      swap1\n      pop\n        /* \"#utility.yul\":13491:13563   */\n      tag_257\n        /* \"#utility.yul\":13559:13561   */\n      0x40\n        /* \"#utility.yul\":13548:13557   */\n      dup4\n        /* \"#utility.yul\":13544:13562   */\n      add\n        /* \"#utility.yul\":13535:13541   */\n      dup6\n        /* \"#utility.yul\":13491:13563   */\n      tag_97\n      jump\t// in\n    tag_257:\n        /* \"#utility.yul\":13573:13645   */\n      tag_258\n        /* \"#utility.yul\":13641:13643   */\n      0x60\n        /* \"#utility.yul\":13630:13639   */\n      dup4\n        /* \"#utility.yul\":13626:13644   */\n      add\n        /* \"#utility.yul\":13617:13623   */\n      dup5\n        /* \"#utility.yul\":13573:13645   */\n      tag_92\n      jump\t// in\n    tag_258:\n        /* \"#utility.yul\":12948:13652   */\n      swap6\n      swap5\n      pop\n      pop\n      pop\n      pop\n      pop\n      jump\t// out\n        /* \"#utility.yul\":13658:13775   */\n    tag_120:\n        /* \"#utility.yul\":13767:13768   */\n      0x00\n        /* \"#utility.yul\":13764:13765   */\n      dup1\n        /* \"#utility.yul\":13757:13769   */\n      revert\n        /* \"#utility.yul\":13781:14092   */\n    tag_121:\n        /* \"#utility.yul\":13858:13862   */\n      0x00\n        /* \"#utility.yul\":13948:13966   */\n      0xffffffffffffffff\n        /* \"#utility.yul\":13940:13946   */\n      dup3\n        /* \"#utility.yul\":13937:13967   */\n      gt\n        /* \"#utility.yul\":13934:13990   */\n      iszero\n      tag_261\n      jumpi\n        /* \"#utility.yul\":13970:13988   */\n      tag_262\n      tag_64\n      jump\t// in\n    tag_262:\n        /* \"#utility.yul\":13934:13990   */\n    tag_261:\n        /* \"#utility.yul\":14020:14024   */\n      0x20\n        /* \"#utility.yul\":14012:14018   */\n      dup3\n        /* \"#utility.yul\":14008:14025   */\n      mul\n        /* \"#utility.yul\":14000:14025   */\n      swap1\n      pop\n        /* \"#utility.yul\":14080:14084   */\n      0x20\n        /* \"#utility.yul\":14074:14078   */\n      dup2\n        /* \"#utility.yul\":14070:14085   */\n      add\n        /* \"#utility.yul\":14062:14085   */\n      swap1\n      pop\n        /* \"#utility.yul\":13781:14092   */\n      swap2\n      swap1\n      pop\n      jump\t// out\n        /* \"#utility.yul\":14098:14215   */\n    tag_122:\n        /* \"#utility.yul\":14207:14208   */\n      0x00\n        /* \"#utility.yul\":14204:14205   */\n      dup1\n        /* \"#utility.yul\":14197:14209   */\n      revert\n        /* \"#utility.yul\":14238:14970   */\n    tag_123:\n        /* \"#utility.yul\":14345:14350   */\n      0x00\n        /* \"#utility.yul\":14370:14451   */\n      tag_265\n        /* \"#utility.yul\":14386:14450   */\n      tag_266\n        /* \"#utility.yul\":14443:14449   */\n      dup5\n        /* \"#utility.yul\":14386:14450   */\n      tag_121\n      jump\t// in\n    tag_266:\n        /* \"#utility.yul\":14370:14451   */\n      tag_101\n      jump\t// in\n    tag_265:\n        /* \"#utility.yul\":14361:14451   */\n      swap1\n      pop\n        /* \"#utility.yul\":14471:14476   */\n      dup1\n        /* \"#utility.yul\":14500:14506   */\n      dup4\n        /* \"#utility.yul\":14493:14498   */\n      dup3\n        /* \"#utility.yul\":14486:14507   */\n      mstore\n        /* \"#utility.yul\":14534:14538   */\n      0x20\n        /* \"#utility.yul\":14527:14532   */\n      dup3\n        /* \"#utility.yul\":14523:14539   */\n      add\n        /* \"#utility.yul\":14516:14539   */\n      swap1\n      pop\n        /* \"#utility.yul\":14587:14591   */\n      0x20\n        /* \"#utility.yul\":14579:14585   */\n      dup5\n        /* \"#utility.yul\":14575:14592   */\n      mul\n        /* \"#utility.yul\":14567:14573   */\n      dup4\n        /* \"#utility.yul\":14563:14593   */\n      add\n        /* \"#utility.yul\":14616:14619   */\n      dup6\n        /* \"#utility.yul\":14608:14614   */\n      dup2\n        /* \"#utility.yul\":14605:14620   */\n      gt\n        /* \"#utility.yul\":14602:14724   */\n      iszero\n      tag_267\n      jumpi\n        /* \"#utility.yul\":14635:14714   */\n      tag_268\n      tag_122\n      jump\t// in\n    tag_268:\n        /* \"#utility.yul\":14602:14724   */\n    tag_267:\n        /* \"#utility.yul\":14750:14756   */\n      dup4\n        /* \"#utility.yul\":14733:14964   */\n    tag_269:\n        /* \"#utility.yul\":14767:14773   */\n      dup2\n        /* \"#utility.yul\":14762:14765   */\n      dup2\n        /* \"#utility.yul\":14759:14774   */\n      lt\n        /* \"#utility.yul\":14733:14964   */\n      iszero\n      tag_271\n      jumpi\n        /* \"#utility.yul\":14842:14845   */\n      dup1\n        /* \"#utility.yul\":14871:14919   */\n      tag_272\n        /* \"#utility.yul\":14915:14918   */\n      dup9\n        /* \"#utility.yul\":14903:14913   */\n      dup3\n        /* \"#utility.yul\":14871:14919   */\n      tag_103\n      jump\t// in\n    tag_272:\n        /* \"#utility.yul\":14866:14869   */\n      dup5\n        /* \"#utility.yul\":14859:14920   */\n      mstore\n        /* \"#utility.yul\":14949:14953   */\n      0x20\n        /* \"#utility.yul\":14944:14947   */\n      dup5\n        /* \"#utility.yul\":14940:14954   */\n      add\n        /* \"#utility.yul\":14933:14954   */\n      swap4\n      pop\n        /* \"#utility.yul\":14809:14964   */\n      pop\n        /* \"#utility.yul\":14793:14797   */\n      0x20\n        /* \"#utility.yul\":14788:14791   */\n      dup2\n        /* \"#utility.yul\":14784:14798   */\n      add\n        /* \"#utility.yul\":14777:14798   */\n      swap1\n      pop\n        /* \"#utility.yul\":14733:14964   */\n      jump(tag_269)\n    tag_271:\n        /* \"#utility.yul\":14737:14758   */\n      pop\n        /* \"#utility.yul\":14351:14970   */\n      pop\n      pop\n        /* \"#utility.yul\":14238:14970   */\n      swap4\n      swap3\n      pop\n      pop\n      pop\n      jump\t// out\n        /* \"#utility.yul\":14993:15378   */\n    tag_124:\n        /* \"#utility.yul\":15075:15080   */\n      0x00\n        /* \"#utility.yul\":15124:15127   */\n      dup3\n        /* \"#utility.yul\":15117:15121   */\n      0x1f\n        /* \"#utility.yul\":15109:15115   */\n      dup4\n        /* \"#utility.yul\":15105:15122   */\n      add\n        /* \"#utility.yul\":15101:15128   */\n      slt\n        /* \"#utility.yul\":15091:15213   */\n      tag_274\n      jumpi\n        /* \"#utility.yul\":15132:15211   */\n      tag_275\n      tag_120\n      jump\t// in\n    tag_275:\n        /* \"#utility.yul\":15091:15213   */\n    tag_274:\n        /* \"#utility.yul\":15242:15248   */\n      dup2\n        /* \"#utility.yul\":15236:15249   */\n      mload\n        /* \"#utility.yul\":15267:15372   */\n      tag_276\n        /* \"#utility.yul\":15368:15371   */\n      dup5\n        /* \"#utility.yul\":15360:15366   */\n      dup3\n        /* \"#utility.yul\":15353:15357   */\n      0x20\n        /* \"#utility.yul\":15345:15351   */\n      dup7\n        /* \"#utility.yul\":15341:15358   */\n      add\n        /* \"#utility.yul\":15267:15372   */\n      tag_123\n      jump\t// in\n    tag_276:\n        /* \"#utility.yul\":15258:15372   */\n      swap2\n      pop\n        /* \"#utility.yul\":15081:15378   */\n      pop\n        /* \"#utility.yul\":14993:15378   */\n      swap3\n      swap2\n      pop\n      pop\n      jump\t// out\n        /* \"#utility.yul\":15384:15938   */\n    tag_76:\n        /* \"#utility.yul\":15479:15485   */\n      0x00\n        /* \"#utility.yul\":15528:15530   */\n      0x20\n        /* \"#utility.yul\":15516:15525   */\n      dup3\n        /* \"#utility.yul\":15507:15514   */\n      dup5\n        /* \"#utility.yul\":15503:15526   */\n      sub\n        /* \"#utility.yul\":15499:15531   */\n      slt\n        /* \"#utility.yul\":15496:15615   */\n      iszero\n      tag_278\n      jumpi\n        /* \"#utility.yul\":15534:15613   */\n      tag_279\n      tag_87\n      jump\t// in\n    tag_279:\n        /* \"#utility.yul\":15496:15615   */\n    tag_278:\n        /* \"#utility.yul\":15675:15676   */\n      0x00\n        /* \"#utility.yul\":15664:15673   */\n      dup3\n        /* \"#utility.yul\":15660:15677   */\n      add\n        /* \"#utility.yul\":15654:15678   */\n      mload\n        /* \"#utility.yul\":15705:15723   */\n      0xffffffffffffffff\n        /* \"#utility.yul\":15697:15703   */\n      dup2\n        /* \"#utility.yul\":15694:15724   */\n      gt\n        /* \"#utility.yul\":15691:15808   */\n      iszero\n      tag_280\n      jumpi\n        /* \"#utility.yul\":15727:15806   */\n      tag_281\n      tag_88\n      jump\t// in\n    tag_281:\n        /* \"#utility.yul\":15691:15808   */\n    tag_280:\n        /* \"#utility.yul\":15832:15921   */\n      tag_282\n        /* \"#utility.yul\":15913:15920   */\n      dup5\n        /* \"#utility.yul\":15904:15910   */\n      dup3\n        /* \"#utility.yul\":15893:15902   */\n      dup6\n        /* \"#utility.yul\":15889:15911   */\n      add\n        /* \"#utility.yul\":15832:15921   */\n      tag_124\n      jump\t// in\n    tag_282:\n        /* \"#utility.yul\":15822:15921   */\n      swap2\n      pop\n        /* \"#utility.yul\":15625:15931   */\n      pop\n        /* \"#utility.yul\":15384:15938   */\n      swap3\n      swap2\n      pop\n      pop\n      jump\t// out\n\n    auxdata: 0xa2646970667358221220f42e8ada9a0e6612e30d8372484e725f3d8f67870cff5a681605cba9708919d564736f6c634300080d0033\n}\n",
				"bytecode": {
					"linkReferences": {},
					"object": "6080604052737a250d5630b4cf539739df2c5dacb4c659f2488d6000806101000a81548173ffffffffffffffffffffffffffffffffffffffff021916908373ffffffffffffffffffffffffffffffffffffffff16021790555073c778417e063141139fce010982780140aa0cd5ab600160006101000a81548173ffffffffffffffffffffffffffffffffffffffff021916908373ffffffffffffffffffffffffffffffffffffffff16021790555073549f978c19a5ac86d906052639e317b57724ef44600260006101000a81548173ffffffffffffffffffffffffffffffffffffffff021916908373ffffffffffffffffffffffffffffffffffffffff16021790555073f42a08c0ea66ee4a474336087a6c17e9ea6c9de9600360006101000a81548173ffffffffffffffffffffffffffffffffffffffff021916908373ffffffffffffffffffffffffffffffffffffffff16021790555073d9dfa8c6b37cfdf16668fe0465896f4a1b9b2c4f600460006101000a81548173ffffffffffffffffffffffffffffffffffffffff021916908373ffffffffffffffffffffffffffffffffffffffff16021790555060008054906101000a900473ffffffffffffffffffffffffffffffffffffffff16600560006101000a81548173ffffffffffffffffffffffffffffffffffffffff021916908373ffffffffffffffffffffffffffffffffffffffff160217905550600260009054906101000a900473ffffffffffffffffffffffffffffffffffffffff16600660006101000a81548173ffffffffffffffffffffffffffffffffffffffff021916908373ffffffffffffffffffffffffffffffffffffffff160217905550600460009054906101000a900473ffffffffffffffffffffffffffffffffffffffff16600760006101000a81548173ffffffffffffffffffffffffffffffffffffffff021916908373ffffffffffffffffffffffffffffffffffffffff1602179055503480156102df57600080fd5b5061101e806102ef6000396000f3fe60806040526004361061003f5760003560e01c80632e1a7d4d14610044578063422f10431461006d578063a93f74e01461009d578063fc55d2bf146100b9575b600080fd5b34801561005057600080fd5b5061006b60048036038101906100669190610840565b6100e2565b005b6100876004803603810190610082919061086d565b610218565b60405161009491906108cf565b60405180910390f35b6100b760048036038101906100b29190610840565b6104e2565b005b3480156100c557600080fd5b506100e060048036038101906100db9190610948565b6106c1565b005b6000600760009054906101000a900473ffffffffffffffffffffffffffffffffffffffff1673ffffffffffffffffffffffffffffffffffffffff16631959a002336040518263ffffffff1660e01b815260040161013f91906109aa565b6040805180830381865afa15801561015b573d6000803e3d6000fd5b505050506040513d601f19601f8201168201806040525081019061017f9190610abb565b9050600760009054906101000a900473ffffffffffffffffffffffffffffffffffffffff1673ffffffffffffffffffffffffffffffffffffffff1663441a3e708383600001516040518363ffffffff1660e01b81526004016101e2929190610ae8565b600060405180830381600087803b1580156101fc57600080fd5b505af1158015610210573d6000803e3d6000fd5b505050505050565b6000600660009054906101000a900473ffffffffffffffffffffffffffffffffffffffff1673ffffffffffffffffffffffffffffffffffffffff1663095ea7b3600560009054906101000a900473ffffffffffffffffffffffffffffffffffffffff16866040518363ffffffff1660e01b8152600401610299929190610b11565b6020604051808303816000875af11580156102b8573d6000803e3d6000fd5b505050506040513d601f19601f820116820180604052508101906102dc9190610b72565b506000600660009054906101000a900473ffffffffffffffffffffffffffffffffffffffff1673ffffffffffffffffffffffffffffffffffffffff166323b872dd3330886040518463ffffffff1660e01b815260040161033e93929190610b9f565b6020604051808303816000875af115801561035d573d6000803e3d6000fd5b505050506040513d601f19601f820116820180604052508101906103819190610b72565b9050806103c3576040517f08c379a00000000000000000000000000000000000000000000000000000000081526004016103ba90610c33565b60405180910390fd5b823411610405576040517f08c379a00000000000000000000000000000000000000000000000000000000081526004016103fc90610cc5565b60405180910390fd5b6000600560009054906101000a900473ffffffffffffffffffffffffffffffffffffffff1673ffffffffffffffffffffffffffffffffffffffff1663f305d71934600260009054906101000a900473ffffffffffffffffffffffffffffffffffffffff1689898933426040518863ffffffff1660e01b815260040161048f96959493929190610ce5565b60606040518083038185885af11580156104ad573d6000803e3d6000fd5b50505050506040513d601f19601f820116820180604052508101906104d29190610d46565b5050905080925050509392505050565b6000600267ffffffffffffffff8111156104ff576104fe6109db565b5b60405190808252806020026020018201604052801561052d5781602001602082028036833780820191505090505b509050600160009054906101000a900473ffffffffffffffffffffffffffffffffffffffff168160008151811061056757610566610d99565b5b602002602001019073ffffffffffffffffffffffffffffffffffffffff16908173ffffffffffffffffffffffffffffffffffffffff1681525050600260009054906101000a900473ffffffffffffffffffffffffffffffffffffffff16816001815181106105d8576105d7610d99565b5b602002602001019073ffffffffffffffffffffffffffffffffffffffff16908173ffffffffffffffffffffffffffffffffffffffff1681525050600560009054906101000a900473ffffffffffffffffffffffffffffffffffffffff1673ffffffffffffffffffffffffffffffffffffffff16637ff36ab534848433426040518663ffffffff1660e01b81526004016106749493929190610e86565b60006040518083038185885af1158015610692573d6000803e3d6000fd5b50505050506040513d6000823e3d601f19601f820116820180604052508101906106bc9190610f9f565b505050565b8273ffffffffffffffffffffffffffffffffffffffff1663095ea7b3600460009054906101000a900473ffffffffffffffffffffffffffffffffffffffff16836040518363ffffffff1660e01b815260040161071e929190610b11565b6020604051808303816000875af115801561073d573d6000803e3d6000fd5b505050506040513d601f19601f820116820180604052508101906107619190610b72565b50600760009054906101000a900473ffffffffffffffffffffffffffffffffffffffff1673ffffffffffffffffffffffffffffffffffffffff1663e2bbb15883836040518363ffffffff1660e01b81526004016107bf929190610ae8565b600060405180830381600087803b1580156107d957600080fd5b505af11580156107ed573d6000803e3d6000fd5b50505050505050565b6000604051905090565b600080fd5b600080fd5b6000819050919050565b61081d8161080a565b811461082857600080fd5b50565b60008135905061083a81610814565b92915050565b60006020828403121561085657610855610800565b5b60006108648482850161082b565b91505092915050565b60008060006060848603121561088657610885610800565b5b60006108948682870161082b565b93505060206108a58682870161082b565b92505060406108b68682870161082b565b9150509250925092565b6108c98161080a565b82525050565b60006020820190506108e460008301846108c0565b92915050565b600073ffffffffffffffffffffffffffffffffffffffff82169050919050565b6000610915826108ea565b9050919050565b6109258161090a565b811461093057600080fd5b50565b6000813590506109428161091c565b92915050565b60008060006060848603121561096157610960610800565b5b600061096f86828701610933565b93505060206109808682870161082b565b92505060406109918682870161082b565b9150509250925092565b6109a48161090a565b82525050565b60006020820190506109bf600083018461099b565b92915050565b600080fd5b6000601f19601f8301169050919050565b7f4e487b7100000000000000000000000000000000000000000000000000000000600052604160045260246000fd5b610a13826109ca565b810181811067ffffffffffffffff82111715610a3257610a316109db565b5b80604052505050565b6000610a456107f6565b9050610a518282610a0a565b919050565b600081519050610a6581610814565b92915050565b600060408284031215610a8157610a806109c5565b5b610a8b6040610a3b565b90506000610a9b84828501610a56565b6000830152506020610aaf84828501610a56565b60208301525092915050565b600060408284031215610ad157610ad0610800565b5b6000610adf84828501610a6b565b91505092915050565b6000604082019050610afd60008301856108c0565b610b0a60208301846108c0565b9392505050565b6000604082019050610b26600083018561099b565b610b3360208301846108c0565b9392505050565b60008115159050919050565b610b4f81610b3a565b8114610b5a57600080fd5b50565b600081519050610b6c81610b46565b92915050565b600060208284031215610b8857610b87610800565b5b6000610b9684828501610b5d565b91505092915050565b6000606082019050610bb4600083018661099b565b610bc1602083018561099b565b610bce60408301846108c0565b949350505050565b600082825260208201905092915050565b7f6d746f6b656e207472616e73666572206572726f722100000000000000000000600082015250565b6000610c1d601683610bd6565b9150610c2882610be7565b602082019050919050565b60006020820190508181036000830152610c4c81610c10565b9050919050565b7f6d73672e76616c75652073686f756c642062696767676572207468616e20616d60008201527f6f756e744554484d696e00000000000000000000000000000000000000000000602082015250565b6000610caf602a83610bd6565b9150610cba82610c53565b604082019050919050565b60006020820190508181036000830152610cde81610ca2565b9050919050565b600060c082019050610cfa600083018961099b565b610d0760208301886108c0565b610d1460408301876108c0565b610d2160608301866108c0565b610d2e608083018561099b565b610d3b60a08301846108c0565b979650505050505050565b600080600060608486031215610d5f57610d5e610800565b5b6000610d6d86828701610a56565b9350506020610d7e86828701610a56565b9250506040610d8f86828701610a56565b9150509250925092565b7f4e487b7100000000000000000000000000000000000000000000000000000000600052603260045260246000fd5b600081519050919050565b600082825260208201905092915050565b6000819050602082019050919050565b610dfd8161090a565b82525050565b6000610e0f8383610df4565b60208301905092915050565b6000602082019050919050565b6000610e3382610dc8565b610e3d8185610dd3565b9350610e4883610de4565b8060005b83811015610e79578151610e608882610e03565b9750610e6b83610e1b565b925050600181019050610e4c565b5085935050505092915050565b6000608082019050610e9b60008301876108c0565b8181036020830152610ead8186610e28565b9050610ebc604083018561099b565b610ec960608301846108c0565b95945050505050565b600080fd5b600067ffffffffffffffff821115610ef257610ef16109db565b5b602082029050602081019050919050565b600080fd5b6000610f1b610f1684610ed7565b610a3b565b90508083825260208201905060208402830185811115610f3e57610f3d610f03565b5b835b81811015610f675780610f538882610a56565b845260208401935050602081019050610f40565b5050509392505050565b600082601f830112610f8657610f85610ed2565b5b8151610f96848260208601610f08565b91505092915050565b600060208284031215610fb557610fb4610800565b5b600082015167ffffffffffffffff811115610fd357610fd2610805565b5b610fdf84828501610f71565b9150509291505056fea2646970667358221220f42e8ada9a0e6612e30d8372484e725f3d8f67870cff5a681605cba9708919d564736f6c634300080d0033",
					"opcodes": "PUSH1 0x80 PUSH1 0x40 MSTORE PUSH20 0x7A250D5630B4CF539739DF2C5DACB4C659F2488D PUSH1 0x0 DUP1 PUSH2 0x100 EXP DUP2 SLOAD DUP2 PUSH20 0xFFFFFFFFFFFFFFFFFFFFFFFFFFFFFFFFFFFFFFFF MUL NOT AND SWAP1 DUP4 PUSH20 0xFFFFFFFFFFFFFFFFFFFFFFFFFFFFFFFFFFFFFFFF AND MUL OR SWAP1 SSTORE POP PUSH20 0xC778417E063141139FCE010982780140AA0CD5AB PUSH1 0x1 PUSH1 0x0 PUSH2 0x100 EXP DUP2 SLOAD DUP2 PUSH20 0xFFFFFFFFFFFFFFFFFFFFFFFFFFFFFFFFFFFFFFFF MUL NOT AND SWAP1 DUP4 PUSH20 0xFFFFFFFFFFFFFFFFFFFFFFFFFFFFFFFFFFFFFFFF AND MUL OR SWAP1 SSTORE POP PUSH20 0x549F978C19A5AC86D906052639E317B57724EF44 PUSH1 0x2 PUSH1 0x0 PUSH2 0x100 EXP DUP2 SLOAD DUP2 PUSH20 0xFFFFFFFFFFFFFFFFFFFFFFFFFFFFFFFFFFFFFFFF MUL NOT AND SWAP1 DUP4 PUSH20 0xFFFFFFFFFFFFFFFFFFFFFFFFFFFFFFFFFFFFFFFF AND MUL OR SWAP1 SSTORE POP PUSH20 0xF42A08C0EA66EE4A474336087A6C17E9EA6C9DE9 PUSH1 0x3 PUSH1 0x0 PUSH2 0x100 EXP DUP2 SLOAD DUP2 PUSH20 0xFFFFFFFFFFFFFFFFFFFFFFFFFFFFFFFFFFFFFFFF MUL NOT AND SWAP1 DUP4 PUSH20 0xFFFFFFFFFFFFFFFFFFFFFFFFFFFFFFFFFFFFFFFF AND MUL OR SWAP1 SSTORE POP PUSH20 0xD9DFA8C6B37CFDF16668FE0465896F4A1B9B2C4F PUSH1 0x4 PUSH1 0x0 PUSH2 0x100 EXP DUP2 SLOAD DUP2 PUSH20 0xFFFFFFFFFFFFFFFFFFFFFFFFFFFFFFFFFFFFFFFF MUL NOT AND SWAP1 DUP4 PUSH20 0xFFFFFFFFFFFFFFFFFFFFFFFFFFFFFFFFFFFFFFFF AND MUL OR SWAP1 SSTORE POP PUSH1 0x0 DUP1 SLOAD SWAP1 PUSH2 0x100 EXP SWAP1 DIV PUSH20 0xFFFFFFFFFFFFFFFFFFFFFFFFFFFFFFFFFFFFFFFF AND PUSH1 0x5 PUSH1 0x0 PUSH2 0x100 EXP DUP2 SLOAD DUP2 PUSH20 0xFFFFFFFFFFFFFFFFFFFFFFFFFFFFFFFFFFFFFFFF MUL NOT AND SWAP1 DUP4 PUSH20 0xFFFFFFFFFFFFFFFFFFFFFFFFFFFFFFFFFFFFFFFF AND MUL OR SWAP1 SSTORE POP PUSH1 0x2 PUSH1 0x0 SWAP1 SLOAD SWAP1 PUSH2 0x100 EXP SWAP1 DIV PUSH20 0xFFFFFFFFFFFFFFFFFFFFFFFFFFFFFFFFFFFFFFFF AND PUSH1 0x6 PUSH1 0x0 PUSH2 0x100 EXP DUP2 SLOAD DUP2 PUSH20 0xFFFFFFFFFFFFFFFFFFFFFFFFFFFFFFFFFFFFFFFF MUL NOT AND SWAP1 DUP4 PUSH20 0xFFFFFFFFFFFFFFFFFFFFFFFFFFFFFFFFFFFFFFFF AND MUL OR SWAP1 SSTORE POP PUSH1 0x4 PUSH1 0x0 SWAP1 SLOAD SWAP1 PUSH2 0x100 EXP SWAP1 DIV PUSH20 0xFFFFFFFFFFFFFFFFFFFFFFFFFFFFFFFFFFFFFFFF AND PUSH1 0x7 PUSH1 0x0 PUSH2 0x100 EXP DUP2 SLOAD DUP2 PUSH20 0xFFFFFFFFFFFFFFFFFFFFFFFFFFFFFFFFFFFFFFFF MUL NOT AND SWAP1 DUP4 PUSH20 0xFFFFFFFFFFFFFFFFFFFFFFFFFFFFFFFFFFFFFFFF AND MUL OR SWAP1 SSTORE POP CALLVALUE DUP1 ISZERO PUSH2 0x2DF JUMPI PUSH1 0x0 DUP1 REVERT JUMPDEST POP PUSH2 0x101E DUP1 PUSH2 0x2EF PUSH1 0x0 CODECOPY PUSH1 0x0 RETURN INVALID PUSH1 0x80 PUSH1 0x40 MSTORE PUSH1 0x4 CALLDATASIZE LT PUSH2 0x3F JUMPI PUSH1 0x0 CALLDATALOAD PUSH1 0xE0 SHR DUP1 PUSH4 0x2E1A7D4D EQ PUSH2 0x44 JUMPI DUP1 PUSH4 0x422F1043 EQ PUSH2 0x6D JUMPI DUP1 PUSH4 0xA93F74E0 EQ PUSH2 0x9D JUMPI DUP1 PUSH4 0xFC55D2BF EQ PUSH2 0xB9 JUMPI JUMPDEST PUSH1 0x0 DUP1 REVERT JUMPDEST CALLVALUE DUP1 ISZERO PUSH2 0x50 JUMPI PUSH1 0x0 DUP1 REVERT JUMPDEST POP PUSH2 0x6B PUSH1 0x4 DUP1 CALLDATASIZE SUB DUP2 ADD SWAP1 PUSH2 0x66 SWAP2 SWAP1 PUSH2 0x840 JUMP JUMPDEST PUSH2 0xE2 JUMP JUMPDEST STOP JUMPDEST PUSH2 0x87 PUSH1 0x4 DUP1 CALLDATASIZE SUB DUP2 ADD SWAP1 PUSH2 0x82 SWAP2 SWAP1 PUSH2 0x86D JUMP JUMPDEST PUSH2 0x218 JUMP JUMPDEST PUSH1 0x40 MLOAD PUSH2 0x94 SWAP2 SWAP1 PUSH2 0x8CF JUMP JUMPDEST PUSH1 0x40 MLOAD DUP1 SWAP2 SUB SWAP1 RETURN JUMPDEST PUSH2 0xB7 PUSH1 0x4 DUP1 CALLDATASIZE SUB DUP2 ADD SWAP1 PUSH2 0xB2 SWAP2 SWAP1 PUSH2 0x840 JUMP JUMPDEST PUSH2 0x4E2 JUMP JUMPDEST STOP JUMPDEST CALLVALUE DUP1 ISZERO PUSH2 0xC5 JUMPI PUSH1 0x0 DUP1 REVERT JUMPDEST POP PUSH2 0xE0 PUSH1 0x4 DUP1 CALLDATASIZE SUB DUP2 ADD SWAP1 PUSH2 0xDB SWAP2 SWAP1 PUSH2 0x948 JUMP JUMPDEST PUSH2 0x6C1 JUMP JUMPDEST STOP JUMPDEST PUSH1 0x0 PUSH1 0x7 PUSH1 0x0 SWAP1 SLOAD SWAP1 PUSH2 0x100 EXP SWAP1 DIV PUSH20 0xFFFFFFFFFFFFFFFFFFFFFFFFFFFFFFFFFFFFFFFF AND PUSH20 0xFFFFFFFFFFFFFFFFFFFFFFFFFFFFFFFFFFFFFFFF AND PUSH4 0x1959A002 CALLER PUSH1 0x40 MLOAD DUP3 PUSH4 0xFFFFFFFF AND PUSH1 0xE0 SHL DUP2 MSTORE PUSH1 0x4 ADD PUSH2 0x13F SWAP2 SWAP1 PUSH2 0x9AA JUMP JUMPDEST PUSH1 0x40 DUP1 MLOAD DUP1 DUP4 SUB DUP2 DUP7 GAS STATICCALL ISZERO DUP1 ISZERO PUSH2 0x15B JUMPI RETURNDATASIZE PUSH1 0x0 DUP1 RETURNDATACOPY RETURNDATASIZE PUSH1 0x0 REVERT JUMPDEST POP POP POP POP PUSH1 0x40 MLOAD RETURNDATASIZE PUSH1 0x1F NOT PUSH1 0x1F DUP3 ADD AND DUP3 ADD DUP1 PUSH1 0x40 MSTORE POP DUP2 ADD SWAP1 PUSH2 0x17F SWAP2 SWAP1 PUSH2 0xABB JUMP JUMPDEST SWAP1 POP PUSH1 0x7 PUSH1 0x0 SWAP1 SLOAD SWAP1 PUSH2 0x100 EXP SWAP1 DIV PUSH20 0xFFFFFFFFFFFFFFFFFFFFFFFFFFFFFFFFFFFFFFFF AND PUSH20 0xFFFFFFFFFFFFFFFFFFFFFFFFFFFFFFFFFFFFFFFF AND PUSH4 0x441A3E70 DUP4 DUP4 PUSH1 0x0 ADD MLOAD PUSH1 0x40 MLOAD DUP4 PUSH4 0xFFFFFFFF AND PUSH1 0xE0 SHL DUP2 MSTORE PUSH1 0x4 ADD PUSH2 0x1E2 SWAP3 SWAP2 SWAP1 PUSH2 0xAE8 JUMP JUMPDEST PUSH1 0x0 PUSH1 0x40 MLOAD DUP1 DUP4 SUB DUP2 PUSH1 0x0 DUP8 DUP1 EXTCODESIZE ISZERO DUP1 ISZERO PUSH2 0x1FC JUMPI PUSH1 0x0 DUP1 REVERT JUMPDEST POP GAS CALL ISZERO DUP1 ISZERO PUSH2 0x210 JUMPI RETURNDATASIZE PUSH1 0x0 DUP1 RETURNDATACOPY RETURNDATASIZE PUSH1 0x0 REVERT JUMPDEST POP POP POP POP POP POP JUMP JUMPDEST PUSH1 0x0 PUSH1 0x6 PUSH1 0x0 SWAP1 SLOAD SWAP1 PUSH2 0x100 EXP SWAP1 DIV PUSH20 0xFFFFFFFFFFFFFFFFFFFFFFFFFFFFFFFFFFFFFFFF AND PUSH20 0xFFFFFFFFFFFFFFFFFFFFFFFFFFFFFFFFFFFFFFFF AND PUSH4 0x95EA7B3 PUSH1 0x5 PUSH1 0x0 SWAP1 SLOAD SWAP1 PUSH2 0x100 EXP SWAP1 DIV PUSH20 0xFFFFFFFFFFFFFFFFFFFFFFFFFFFFFFFFFFFFFFFF AND DUP7 PUSH1 0x40 MLOAD DUP4 PUSH4 0xFFFFFFFF AND PUSH1 0xE0 SHL DUP2 MSTORE PUSH1 0x4 ADD PUSH2 0x299 SWAP3 SWAP2 SWAP1 PUSH2 0xB11 JUMP JUMPDEST PUSH1 0x20 PUSH1 0x40 MLOAD DUP1 DUP4 SUB DUP2 PUSH1 0x0 DUP8 GAS CALL ISZERO DUP1 ISZERO PUSH2 0x2B8 JUMPI RETURNDATASIZE PUSH1 0x0 DUP1 RETURNDATACOPY RETURNDATASIZE PUSH1 0x0 REVERT JUMPDEST POP POP POP POP PUSH1 0x40 MLOAD RETURNDATASIZE PUSH1 0x1F NOT PUSH1 0x1F DUP3 ADD AND DUP3 ADD DUP1 PUSH1 0x40 MSTORE POP DUP2 ADD SWAP1 PUSH2 0x2DC SWAP2 SWAP1 PUSH2 0xB72 JUMP JUMPDEST POP PUSH1 0x0 PUSH1 0x6 PUSH1 0x0 SWAP1 SLOAD SWAP1 PUSH2 0x100 EXP SWAP1 DIV PUSH20 0xFFFFFFFFFFFFFFFFFFFFFFFFFFFFFFFFFFFFFFFF AND PUSH20 0xFFFFFFFFFFFFFFFFFFFFFFFFFFFFFFFFFFFFFFFF AND PUSH4 0x23B872DD CALLER ADDRESS DUP9 PUSH1 0x40 MLOAD DUP5 PUSH4 0xFFFFFFFF AND PUSH1 0xE0 SHL DUP2 MSTORE PUSH1 0x4 ADD PUSH2 0x33E SWAP4 SWAP3 SWAP2 SWAP1 PUSH2 0xB9F JUMP JUMPDEST PUSH1 0x20 PUSH1 0x40 MLOAD DUP1 DUP4 SUB DUP2 PUSH1 0x0 DUP8 GAS CALL ISZERO DUP1 ISZERO PUSH2 0x35D JUMPI RETURNDATASIZE PUSH1 0x0 DUP1 RETURNDATACOPY RETURNDATASIZE PUSH1 0x0 REVERT JUMPDEST POP POP POP POP PUSH1 0x40 MLOAD RETURNDATASIZE PUSH1 0x1F NOT PUSH1 0x1F DUP3 ADD AND DUP3 ADD DUP1 PUSH1 0x40 MSTORE POP DUP2 ADD SWAP1 PUSH2 0x381 SWAP2 SWAP1 PUSH2 0xB72 JUMP JUMPDEST SWAP1 POP DUP1 PUSH2 0x3C3 JUMPI PUSH1 0x40 MLOAD PUSH32 0x8C379A000000000000000000000000000000000000000000000000000000000 DUP2 MSTORE PUSH1 0x4 ADD PUSH2 0x3BA SWAP1 PUSH2 0xC33 JUMP JUMPDEST PUSH1 0x40 MLOAD DUP1 SWAP2 SUB SWAP1 REVERT JUMPDEST DUP3 CALLVALUE GT PUSH2 0x405 JUMPI PUSH1 0x40 MLOAD PUSH32 0x8C379A000000000000000000000000000000000000000000000000000000000 DUP2 MSTORE PUSH1 0x4 ADD PUSH2 0x3FC SWAP1 PUSH2 0xCC5 JUMP JUMPDEST PUSH1 0x40 MLOAD DUP1 SWAP2 SUB SWAP1 REVERT JUMPDEST PUSH1 0x0 PUSH1 0x5 PUSH1 0x0 SWAP1 SLOAD SWAP1 PUSH2 0x100 EXP SWAP1 DIV PUSH20 0xFFFFFFFFFFFFFFFFFFFFFFFFFFFFFFFFFFFFFFFF AND PUSH20 0xFFFFFFFFFFFFFFFFFFFFFFFFFFFFFFFFFFFFFFFF AND PUSH4 0xF305D719 CALLVALUE PUSH1 0x2 PUSH1 0x0 SWAP1 SLOAD SWAP1 PUSH2 0x100 EXP SWAP1 DIV PUSH20 0xFFFFFFFFFFFFFFFFFFFFFFFFFFFFFFFFFFFFFFFF AND DUP10 DUP10 DUP10 CALLER TIMESTAMP PUSH1 0x40 MLOAD DUP9 PUSH4 0xFFFFFFFF AND PUSH1 0xE0 SHL DUP2 MSTORE PUSH1 0x4 ADD PUSH2 0x48F SWAP7 SWAP6 SWAP5 SWAP4 SWAP3 SWAP2 SWAP1 PUSH2 0xCE5 JUMP JUMPDEST PUSH1 0x60 PUSH1 0x40 MLOAD DUP1 DUP4 SUB DUP2 DUP6 DUP9 GAS CALL ISZERO DUP1 ISZERO PUSH2 0x4AD JUMPI RETURNDATASIZE PUSH1 0x0 DUP1 RETURNDATACOPY RETURNDATASIZE PUSH1 0x0 REVERT JUMPDEST POP POP POP POP POP PUSH1 0x40 MLOAD RETURNDATASIZE PUSH1 0x1F NOT PUSH1 0x1F DUP3 ADD AND DUP3 ADD DUP1 PUSH1 0x40 MSTORE POP DUP2 ADD SWAP1 PUSH2 0x4D2 SWAP2 SWAP1 PUSH2 0xD46 JUMP JUMPDEST POP POP SWAP1 POP DUP1 SWAP3 POP POP POP SWAP4 SWAP3 POP POP POP JUMP JUMPDEST PUSH1 0x0 PUSH1 0x2 PUSH8 0xFFFFFFFFFFFFFFFF DUP2 GT ISZERO PUSH2 0x4FF JUMPI PUSH2 0x4FE PUSH2 0x9DB JUMP JUMPDEST JUMPDEST PUSH1 0x40 MLOAD SWAP1 DUP1 DUP3 MSTORE DUP1 PUSH1 0x20 MUL PUSH1 0x20 ADD DUP3 ADD PUSH1 0x40 MSTORE DUP1 ISZERO PUSH2 0x52D JUMPI DUP2 PUSH1 0x20 ADD PUSH1 0x20 DUP3 MUL DUP1 CALLDATASIZE DUP4 CALLDATACOPY DUP1 DUP3 ADD SWAP2 POP POP SWAP1 POP JUMPDEST POP SWAP1 POP PUSH1 0x1 PUSH1 0x0 SWAP1 SLOAD SWAP1 PUSH2 0x100 EXP SWAP1 DIV PUSH20 0xFFFFFFFFFFFFFFFFFFFFFFFFFFFFFFFFFFFFFFFF AND DUP2 PUSH1 0x0 DUP2 MLOAD DUP2 LT PUSH2 0x567 JUMPI PUSH2 0x566 PUSH2 0xD99 JUMP JUMPDEST JUMPDEST PUSH1 0x20 MUL PUSH1 0x20 ADD ADD SWAP1 PUSH20 0xFFFFFFFFFFFFFFFFFFFFFFFFFFFFFFFFFFFFFFFF AND SWAP1 DUP2 PUSH20 0xFFFFFFFFFFFFFFFFFFFFFFFFFFFFFFFFFFFFFFFF AND DUP2 MSTORE POP POP PUSH1 0x2 PUSH1 0x0 SWAP1 SLOAD SWAP1 PUSH2 0x100 EXP SWAP1 DIV PUSH20 0xFFFFFFFFFFFFFFFFFFFFFFFFFFFFFFFFFFFFFFFF AND DUP2 PUSH1 0x1 DUP2 MLOAD DUP2 LT PUSH2 0x5D8 JUMPI PUSH2 0x5D7 PUSH2 0xD99 JUMP JUMPDEST JUMPDEST PUSH1 0x20 MUL PUSH1 0x20 ADD ADD SWAP1 PUSH20 0xFFFFFFFFFFFFFFFFFFFFFFFFFFFFFFFFFFFFFFFF AND SWAP1 DUP2 PUSH20 0xFFFFFFFFFFFFFFFFFFFFFFFFFFFFFFFFFFFFFFFF AND DUP2 MSTORE POP POP PUSH1 0x5 PUSH1 0x0 SWAP1 SLOAD SWAP1 PUSH2 0x100 EXP SWAP1 DIV PUSH20 0xFFFFFFFFFFFFFFFFFFFFFFFFFFFFFFFFFFFFFFFF AND PUSH20 0xFFFFFFFFFFFFFFFFFFFFFFFFFFFFFFFFFFFFFFFF AND PUSH4 0x7FF36AB5 CALLVALUE DUP5 DUP5 CALLER TIMESTAMP PUSH1 0x40 MLOAD DUP7 PUSH4 0xFFFFFFFF AND PUSH1 0xE0 SHL DUP2 MSTORE PUSH1 0x4 ADD PUSH2 0x674 SWAP5 SWAP4 SWAP3 SWAP2 SWAP1 PUSH2 0xE86 JUMP JUMPDEST PUSH1 0x0 PUSH1 0x40 MLOAD DUP1 DUP4 SUB DUP2 DUP6 DUP9 GAS CALL ISZERO DUP1 ISZERO PUSH2 0x692 JUMPI RETURNDATASIZE PUSH1 0x0 DUP1 RETURNDATACOPY RETURNDATASIZE PUSH1 0x0 REVERT JUMPDEST POP POP POP POP POP PUSH1 0x40 MLOAD RETURNDATASIZE PUSH1 0x0 DUP3 RETURNDATACOPY RETURNDATASIZE PUSH1 0x1F NOT PUSH1 0x1F DUP3 ADD AND DUP3 ADD DUP1 PUSH1 0x40 MSTORE POP DUP2 ADD SWAP1 PUSH2 0x6BC SWAP2 SWAP1 PUSH2 0xF9F JUMP JUMPDEST POP POP POP JUMP JUMPDEST DUP3 PUSH20 0xFFFFFFFFFFFFFFFFFFFFFFFFFFFFFFFFFFFFFFFF AND PUSH4 0x95EA7B3 PUSH1 0x4 PUSH1 0x0 SWAP1 SLOAD SWAP1 PUSH2 0x100 EXP SWAP1 DIV PUSH20 0xFFFFFFFFFFFFFFFFFFFFFFFFFFFFFFFFFFFFFFFF AND DUP4 PUSH1 0x40 MLOAD DUP4 PUSH4 0xFFFFFFFF AND PUSH1 0xE0 SHL DUP2 MSTORE PUSH1 0x4 ADD PUSH2 0x71E SWAP3 SWAP2 SWAP1 PUSH2 0xB11 JUMP JUMPDEST PUSH1 0x20 PUSH1 0x40 MLOAD DUP1 DUP4 SUB DUP2 PUSH1 0x0 DUP8 GAS CALL ISZERO DUP1 ISZERO PUSH2 0x73D JUMPI RETURNDATASIZE PUSH1 0x0 DUP1 RETURNDATACOPY RETURNDATASIZE PUSH1 0x0 REVERT JUMPDEST POP POP POP POP PUSH1 0x40 MLOAD RETURNDATASIZE PUSH1 0x1F NOT PUSH1 0x1F DUP3 ADD AND DUP3 ADD DUP1 PUSH1 0x40 MSTORE POP DUP2 ADD SWAP1 PUSH2 0x761 SWAP2 SWAP1 PUSH2 0xB72 JUMP JUMPDEST POP PUSH1 0x7 PUSH1 0x0 SWAP1 SLOAD SWAP1 PUSH2 0x100 EXP SWAP1 DIV PUSH20 0xFFFFFFFFFFFFFFFFFFFFFFFFFFFFFFFFFFFFFFFF AND PUSH20 0xFFFFFFFFFFFFFFFFFFFFFFFFFFFFFFFFFFFFFFFF AND PUSH4 0xE2BBB158 DUP4 DUP4 PUSH1 0x40 MLOAD DUP4 PUSH4 0xFFFFFFFF AND PUSH1 0xE0 SHL DUP2 MSTORE PUSH1 0x4 ADD PUSH2 0x7BF SWAP3 SWAP2 SWAP1 PUSH2 0xAE8 JUMP JUMPDEST PUSH1 0x0 PUSH1 0x40 MLOAD DUP1 DUP4 SUB DUP2 PUSH1 0x0 DUP8 DUP1 EXTCODESIZE ISZERO DUP1 ISZERO PUSH2 0x7D9 JUMPI PUSH1 0x0 DUP1 REVERT JUMPDEST POP GAS CALL ISZERO DUP1 ISZERO PUSH2 0x7ED JUMPI RETURNDATASIZE PUSH1 0x0 DUP1 RETURNDATACOPY RETURNDATASIZE PUSH1 0x0 REVERT JUMPDEST POP POP POP POP POP POP POP JUMP JUMPDEST PUSH1 0x0 PUSH1 0x40 MLOAD SWAP1 POP SWAP1 JUMP JUMPDEST PUSH1 0x0 DUP1 REVERT JUMPDEST PUSH1 0x0 DUP1 REVERT JUMPDEST PUSH1 0x0 DUP2 SWAP1 POP SWAP2 SWAP1 POP JUMP JUMPDEST PUSH2 0x81D DUP2 PUSH2 0x80A JUMP JUMPDEST DUP2 EQ PUSH2 0x828 JUMPI PUSH1 0x0 DUP1 REVERT JUMPDEST POP JUMP JUMPDEST PUSH1 0x0 DUP2 CALLDATALOAD SWAP1 POP PUSH2 0x83A DUP2 PUSH2 0x814 JUMP JUMPDEST SWAP3 SWAP2 POP POP JUMP JUMPDEST PUSH1 0x0 PUSH1 0x20 DUP3 DUP5 SUB SLT ISZERO PUSH2 0x856 JUMPI PUSH2 0x855 PUSH2 0x800 JUMP JUMPDEST JUMPDEST PUSH1 0x0 PUSH2 0x864 DUP5 DUP3 DUP6 ADD PUSH2 0x82B JUMP JUMPDEST SWAP2 POP POP SWAP3 SWAP2 POP POP JUMP JUMPDEST PUSH1 0x0 DUP1 PUSH1 0x0 PUSH1 0x60 DUP5 DUP7 SUB SLT ISZERO PUSH2 0x886 JUMPI PUSH2 0x885 PUSH2 0x800 JUMP JUMPDEST JUMPDEST PUSH1 0x0 PUSH2 0x894 DUP7 DUP3 DUP8 ADD PUSH2 0x82B JUMP JUMPDEST SWAP4 POP POP PUSH1 0x20 PUSH2 0x8A5 DUP7 DUP3 DUP8 ADD PUSH2 0x82B JUMP JUMPDEST SWAP3 POP POP PUSH1 0x40 PUSH2 0x8B6 DUP7 DUP3 DUP8 ADD PUSH2 0x82B JUMP JUMPDEST SWAP2 POP POP SWAP3 POP SWAP3 POP SWAP3 JUMP JUMPDEST PUSH2 0x8C9 DUP2 PUSH2 0x80A JUMP JUMPDEST DUP3 MSTORE POP POP JUMP JUMPDEST PUSH1 0x0 PUSH1 0x20 DUP3 ADD SWAP1 POP PUSH2 0x8E4 PUSH1 0x0 DUP4 ADD DUP5 PUSH2 0x8C0 JUMP JUMPDEST SWAP3 SWAP2 POP POP JUMP JUMPDEST PUSH1 0x0 PUSH20 0xFFFFFFFFFFFFFFFFFFFFFFFFFFFFFFFFFFFFFFFF DUP3 AND SWAP1 POP SWAP2 SWAP1 POP JUMP JUMPDEST PUSH1 0x0 PUSH2 0x915 DUP3 PUSH2 0x8EA JUMP JUMPDEST SWAP1 POP SWAP2 SWAP1 POP JUMP JUMPDEST PUSH2 0x925 DUP2 PUSH2 0x90A JUMP JUMPDEST DUP2 EQ PUSH2 0x930 JUMPI PUSH1 0x0 DUP1 REVERT JUMPDEST POP JUMP JUMPDEST PUSH1 0x0 DUP2 CALLDATALOAD SWAP1 POP PUSH2 0x942 DUP2 PUSH2 0x91C JUMP JUMPDEST SWAP3 SWAP2 POP POP JUMP JUMPDEST PUSH1 0x0 DUP1 PUSH1 0x0 PUSH1 0x60 DUP5 DUP7 SUB SLT ISZERO PUSH2 0x961 JUMPI PUSH2 0x960 PUSH2 0x800 JUMP JUMPDEST JUMPDEST PUSH1 0x0 PUSH2 0x96F DUP7 DUP3 DUP8 ADD PUSH2 0x933 JUMP JUMPDEST SWAP4 POP POP PUSH1 0x20 PUSH2 0x980 DUP7 DUP3 DUP8 ADD PUSH2 0x82B JUMP JUMPDEST SWAP3 POP POP PUSH1 0x40 PUSH2 0x991 DUP7 DUP3 DUP8 ADD PUSH2 0x82B JUMP JUMPDEST SWAP2 POP POP SWAP3 POP SWAP3 POP SWAP3 JUMP JUMPDEST PUSH2 0x9A4 DUP2 PUSH2 0x90A JUMP JUMPDEST DUP3 MSTORE POP POP JUMP JUMPDEST PUSH1 0x0 PUSH1 0x20 DUP3 ADD SWAP1 POP PUSH2 0x9BF PUSH1 0x0 DUP4 ADD DUP5 PUSH2 0x99B JUMP JUMPDEST SWAP3 SWAP2 POP POP JUMP JUMPDEST PUSH1 0x0 DUP1 REVERT JUMPDEST PUSH1 0x0 PUSH1 0x1F NOT PUSH1 0x1F DUP4 ADD AND SWAP1 POP SWAP2 SWAP1 POP JUMP JUMPDEST PUSH32 0x4E487B7100000000000000000000000000000000000000000000000000000000 PUSH1 0x0 MSTORE PUSH1 0x41 PUSH1 0x4 MSTORE PUSH1 0x24 PUSH1 0x0 REVERT JUMPDEST PUSH2 0xA13 DUP3 PUSH2 0x9CA JUMP JUMPDEST DUP2 ADD DUP2 DUP2 LT PUSH8 0xFFFFFFFFFFFFFFFF DUP3 GT OR ISZERO PUSH2 0xA32 JUMPI PUSH2 0xA31 PUSH2 0x9DB JUMP JUMPDEST JUMPDEST DUP1 PUSH1 0x40 MSTORE POP POP POP JUMP JUMPDEST PUSH1 0x0 PUSH2 0xA45 PUSH2 0x7F6 JUMP JUMPDEST SWAP1 POP PUSH2 0xA51 DUP3 DUP3 PUSH2 0xA0A JUMP JUMPDEST SWAP2 SWAP1 POP JUMP JUMPDEST PUSH1 0x0 DUP2 MLOAD SWAP1 POP PUSH2 0xA65 DUP2 PUSH2 0x814 JUMP JUMPDEST SWAP3 SWAP2 POP POP JUMP JUMPDEST PUSH1 0x0 PUSH1 0x40 DUP3 DUP5 SUB SLT ISZERO PUSH2 0xA81 JUMPI PUSH2 0xA80 PUSH2 0x9C5 JUMP JUMPDEST JUMPDEST PUSH2 0xA8B PUSH1 0x40 PUSH2 0xA3B JUMP JUMPDEST SWAP1 POP PUSH1 0x0 PUSH2 0xA9B DUP5 DUP3 DUP6 ADD PUSH2 0xA56 JUMP JUMPDEST PUSH1 0x0 DUP4 ADD MSTORE POP PUSH1 0x20 PUSH2 0xAAF DUP5 DUP3 DUP6 ADD PUSH2 0xA56 JUMP JUMPDEST PUSH1 0x20 DUP4 ADD MSTORE POP SWAP3 SWAP2 POP POP JUMP JUMPDEST PUSH1 0x0 PUSH1 0x40 DUP3 DUP5 SUB SLT ISZERO PUSH2 0xAD1 JUMPI PUSH2 0xAD0 PUSH2 0x800 JUMP JUMPDEST JUMPDEST PUSH1 0x0 PUSH2 0xADF DUP5 DUP3 DUP6 ADD PUSH2 0xA6B JUMP JUMPDEST SWAP2 POP POP SWAP3 SWAP2 POP POP JUMP JUMPDEST PUSH1 0x0 PUSH1 0x40 DUP3 ADD SWAP1 POP PUSH2 0xAFD PUSH1 0x0 DUP4 ADD DUP6 PUSH2 0x8C0 JUMP JUMPDEST PUSH2 0xB0A PUSH1 0x20 DUP4 ADD DUP5 PUSH2 0x8C0 JUMP JUMPDEST SWAP4 SWAP3 POP POP POP JUMP JUMPDEST PUSH1 0x0 PUSH1 0x40 DUP3 ADD SWAP1 POP PUSH2 0xB26 PUSH1 0x0 DUP4 ADD DUP6 PUSH2 0x99B JUMP JUMPDEST PUSH2 0xB33 PUSH1 0x20 DUP4 ADD DUP5 PUSH2 0x8C0 JUMP JUMPDEST SWAP4 SWAP3 POP POP POP JUMP JUMPDEST PUSH1 0x0 DUP2 ISZERO ISZERO SWAP1 POP SWAP2 SWAP1 POP JUMP JUMPDEST PUSH2 0xB4F DUP2 PUSH2 0xB3A JUMP JUMPDEST DUP2 EQ PUSH2 0xB5A JUMPI PUSH1 0x0 DUP1 REVERT JUMPDEST POP JUMP JUMPDEST PUSH1 0x0 DUP2 MLOAD SWAP1 POP PUSH2 0xB6C DUP2 PUSH2 0xB46 JUMP JUMPDEST SWAP3 SWAP2 POP POP JUMP JUMPDEST PUSH1 0x0 PUSH1 0x20 DUP3 DUP5 SUB SLT ISZERO PUSH2 0xB88 JUMPI PUSH2 0xB87 PUSH2 0x800 JUMP JUMPDEST JUMPDEST PUSH1 0x0 PUSH2 0xB96 DUP5 DUP3 DUP6 ADD PUSH2 0xB5D JUMP JUMPDEST SWAP2 POP POP SWAP3 SWAP2 POP POP JUMP JUMPDEST PUSH1 0x0 PUSH1 0x60 DUP3 ADD SWAP1 POP PUSH2 0xBB4 PUSH1 0x0 DUP4 ADD DUP7 PUSH2 0x99B JUMP JUMPDEST PUSH2 0xBC1 PUSH1 0x20 DUP4 ADD DUP6 PUSH2 0x99B JUMP JUMPDEST PUSH2 0xBCE PUSH1 0x40 DUP4 ADD DUP5 PUSH2 0x8C0 JUMP JUMPDEST SWAP5 SWAP4 POP POP POP POP JUMP JUMPDEST PUSH1 0x0 DUP3 DUP3 MSTORE PUSH1 0x20 DUP3 ADD SWAP1 POP SWAP3 SWAP2 POP POP JUMP JUMPDEST PUSH32 0x6D746F6B656E207472616E73666572206572726F722100000000000000000000 PUSH1 0x0 DUP3 ADD MSTORE POP JUMP JUMPDEST PUSH1 0x0 PUSH2 0xC1D PUSH1 0x16 DUP4 PUSH2 0xBD6 JUMP JUMPDEST SWAP2 POP PUSH2 0xC28 DUP3 PUSH2 0xBE7 JUMP JUMPDEST PUSH1 0x20 DUP3 ADD SWAP1 POP SWAP2 SWAP1 POP JUMP JUMPDEST PUSH1 0x0 PUSH1 0x20 DUP3 ADD SWAP1 POP DUP2 DUP2 SUB PUSH1 0x0 DUP4 ADD MSTORE PUSH2 0xC4C DUP2 PUSH2 0xC10 JUMP JUMPDEST SWAP1 POP SWAP2 SWAP1 POP JUMP JUMPDEST PUSH32 0x6D73672E76616C75652073686F756C642062696767676572207468616E20616D PUSH1 0x0 DUP3 ADD MSTORE PUSH32 0x6F756E744554484D696E00000000000000000000000000000000000000000000 PUSH1 0x20 DUP3 ADD MSTORE POP JUMP JUMPDEST PUSH1 0x0 PUSH2 0xCAF PUSH1 0x2A DUP4 PUSH2 0xBD6 JUMP JUMPDEST SWAP2 POP PUSH2 0xCBA DUP3 PUSH2 0xC53 JUMP JUMPDEST PUSH1 0x40 DUP3 ADD SWAP1 POP SWAP2 SWAP1 POP JUMP JUMPDEST PUSH1 0x0 PUSH1 0x20 DUP3 ADD SWAP1 POP DUP2 DUP2 SUB PUSH1 0x0 DUP4 ADD MSTORE PUSH2 0xCDE DUP2 PUSH2 0xCA2 JUMP JUMPDEST SWAP1 POP SWAP2 SWAP1 POP JUMP JUMPDEST PUSH1 0x0 PUSH1 0xC0 DUP3 ADD SWAP1 POP PUSH2 0xCFA PUSH1 0x0 DUP4 ADD DUP10 PUSH2 0x99B JUMP JUMPDEST PUSH2 0xD07 PUSH1 0x20 DUP4 ADD DUP9 PUSH2 0x8C0 JUMP JUMPDEST PUSH2 0xD14 PUSH1 0x40 DUP4 ADD DUP8 PUSH2 0x8C0 JUMP JUMPDEST PUSH2 0xD21 PUSH1 0x60 DUP4 ADD DUP7 PUSH2 0x8C0 JUMP JUMPDEST PUSH2 0xD2E PUSH1 0x80 DUP4 ADD DUP6 PUSH2 0x99B JUMP JUMPDEST PUSH2 0xD3B PUSH1 0xA0 DUP4 ADD DUP5 PUSH2 0x8C0 JUMP JUMPDEST SWAP8 SWAP7 POP POP POP POP POP POP POP JUMP JUMPDEST PUSH1 0x0 DUP1 PUSH1 0x0 PUSH1 0x60 DUP5 DUP7 SUB SLT ISZERO PUSH2 0xD5F JUMPI PUSH2 0xD5E PUSH2 0x800 JUMP JUMPDEST JUMPDEST PUSH1 0x0 PUSH2 0xD6D DUP7 DUP3 DUP8 ADD PUSH2 0xA56 JUMP JUMPDEST SWAP4 POP POP PUSH1 0x20 PUSH2 0xD7E DUP7 DUP3 DUP8 ADD PUSH2 0xA56 JUMP JUMPDEST SWAP3 POP POP PUSH1 0x40 PUSH2 0xD8F DUP7 DUP3 DUP8 ADD PUSH2 0xA56 JUMP JUMPDEST SWAP2 POP POP SWAP3 POP SWAP3 POP SWAP3 JUMP JUMPDEST PUSH32 0x4E487B7100000000000000000000000000000000000000000000000000000000 PUSH1 0x0 MSTORE PUSH1 0x32 PUSH1 0x4 MSTORE PUSH1 0x24 PUSH1 0x0 REVERT JUMPDEST PUSH1 0x0 DUP2 MLOAD SWAP1 POP SWAP2 SWAP1 POP JUMP JUMPDEST PUSH1 0x0 DUP3 DUP3 MSTORE PUSH1 0x20 DUP3 ADD SWAP1 POP SWAP3 SWAP2 POP POP JUMP JUMPDEST PUSH1 0x0 DUP2 SWAP1 POP PUSH1 0x20 DUP3 ADD SWAP1 POP SWAP2 SWAP1 POP JUMP JUMPDEST PUSH2 0xDFD DUP2 PUSH2 0x90A JUMP JUMPDEST DUP3 MSTORE POP POP JUMP JUMPDEST PUSH1 0x0 PUSH2 0xE0F DUP4 DUP4 PUSH2 0xDF4 JUMP JUMPDEST PUSH1 0x20 DUP4 ADD SWAP1 POP SWAP3 SWAP2 POP POP JUMP JUMPDEST PUSH1 0x0 PUSH1 0x20 DUP3 ADD SWAP1 POP SWAP2 SWAP1 POP JUMP JUMPDEST PUSH1 0x0 PUSH2 0xE33 DUP3 PUSH2 0xDC8 JUMP JUMPDEST PUSH2 0xE3D DUP2 DUP6 PUSH2 0xDD3 JUMP JUMPDEST SWAP4 POP PUSH2 0xE48 DUP4 PUSH2 0xDE4 JUMP JUMPDEST DUP1 PUSH1 0x0 JUMPDEST DUP4 DUP2 LT ISZERO PUSH2 0xE79 JUMPI DUP2 MLOAD PUSH2 0xE60 DUP9 DUP3 PUSH2 0xE03 JUMP JUMPDEST SWAP8 POP PUSH2 0xE6B DUP4 PUSH2 0xE1B JUMP JUMPDEST SWAP3 POP POP PUSH1 0x1 DUP2 ADD SWAP1 POP PUSH2 0xE4C JUMP JUMPDEST POP DUP6 SWAP4 POP POP POP POP SWAP3 SWAP2 POP POP JUMP JUMPDEST PUSH1 0x0 PUSH1 0x80 DUP3 ADD SWAP1 POP PUSH2 0xE9B PUSH1 0x0 DUP4 ADD DUP8 PUSH2 0x8C0 JUMP JUMPDEST DUP2 DUP2 SUB PUSH1 0x20 DUP4 ADD MSTORE PUSH2 0xEAD DUP2 DUP7 PUSH2 0xE28 JUMP JUMPDEST SWAP1 POP PUSH2 0xEBC PUSH1 0x40 DUP4 ADD DUP6 PUSH2 0x99B JUMP JUMPDEST PUSH2 0xEC9 PUSH1 0x60 DUP4 ADD DUP5 PUSH2 0x8C0 JUMP JUMPDEST SWAP6 SWAP5 POP POP POP POP POP JUMP JUMPDEST PUSH1 0x0 DUP1 REVERT JUMPDEST PUSH1 0x0 PUSH8 0xFFFFFFFFFFFFFFFF DUP3 GT ISZERO PUSH2 0xEF2 JUMPI PUSH2 0xEF1 PUSH2 0x9DB JUMP JUMPDEST JUMPDEST PUSH1 0x20 DUP3 MUL SWAP1 POP PUSH1 0x20 DUP2 ADD SWAP1 POP SWAP2 SWAP1 POP JUMP JUMPDEST PUSH1 0x0 DUP1 REVERT JUMPDEST PUSH1 0x0 PUSH2 0xF1B PUSH2 0xF16 DUP5 PUSH2 0xED7 JUMP JUMPDEST PUSH2 0xA3B JUMP JUMPDEST SWAP1 POP DUP1 DUP4 DUP3 MSTORE PUSH1 0x20 DUP3 ADD SWAP1 POP PUSH1 0x20 DUP5 MUL DUP4 ADD DUP6 DUP2 GT ISZERO PUSH2 0xF3E JUMPI PUSH2 0xF3D PUSH2 0xF03 JUMP JUMPDEST JUMPDEST DUP4 JUMPDEST DUP2 DUP2 LT ISZERO PUSH2 0xF67 JUMPI DUP1 PUSH2 0xF53 DUP9 DUP3 PUSH2 0xA56 JUMP JUMPDEST DUP5 MSTORE PUSH1 0x20 DUP5 ADD SWAP4 POP POP PUSH1 0x20 DUP2 ADD SWAP1 POP PUSH2 0xF40 JUMP JUMPDEST POP POP POP SWAP4 SWAP3 POP POP POP JUMP JUMPDEST PUSH1 0x0 DUP3 PUSH1 0x1F DUP4 ADD SLT PUSH2 0xF86 JUMPI PUSH2 0xF85 PUSH2 0xED2 JUMP JUMPDEST JUMPDEST DUP2 MLOAD PUSH2 0xF96 DUP5 DUP3 PUSH1 0x20 DUP7 ADD PUSH2 0xF08 JUMP JUMPDEST SWAP2 POP POP SWAP3 SWAP2 POP POP JUMP JUMPDEST PUSH1 0x0 PUSH1 0x20 DUP3 DUP5 SUB SLT ISZERO PUSH2 0xFB5 JUMPI PUSH2 0xFB4 PUSH2 0x800 JUMP JUMPDEST JUMPDEST PUSH1 0x0 DUP3 ADD MLOAD PUSH8 0xFFFFFFFFFFFFFFFF DUP2 GT ISZERO PUSH2 0xFD3 JUMPI PUSH2 0xFD2 PUSH2 0x805 JUMP JUMPDEST JUMPDEST PUSH2 0xFDF DUP5 DUP3 DUP6 ADD PUSH2 0xF71 JUMP JUMPDEST SWAP2 POP POP SWAP3 SWAP2 POP POP JUMP INVALID LOG2 PUSH5 0x6970667358 0x22 SLT KECCAK256 DELEGATECALL 0x2E DUP11 0xDA SWAP11 0xE PUSH7 0x12E30D8372484E PUSH19 0x5F3D8F67870CFF5A681605CBA9708919D56473 PUSH16 0x6C634300080D00330000000000000000 "
				},
				"gasEstimates": {
					"creation": {
						"codeDepositCost": "825200",
						"executionCost": "201398",
						"totalCost": "1026598"
					},
					"external": {
						"addLiquidity(uint256,uint256,uint256)": "infinite",
						"buyExactTokenByETH(uint256)": "infinite",
						"depositToMasterChef(address,uint256,uint256)": "infinite",
						"withdraw(uint256)": "infinite"
					}
				},
				"methodIdentifiers": {
					"addLiquidity(uint256,uint256,uint256)": "422f1043",
					"buyExactTokenByETH(uint256)": "a93f74e0",
					"depositToMasterChef(address,uint256,uint256)": "fc55d2bf",
					"withdraw(uint256)": "2e1a7d4d"
				}
			},
			"userdoc": {
				"kind": "user",
				"methods": {},
				"version": 1
			}
		}
	}
}