{
	"Code-hardhat-ethersJs/contracts/AAVETest.sol": {
		"AAVETest": {
			"abi": [
				{
					"inputs": [],
					"stateMutability": "nonpayable",
					"type": "constructor"
				},
				{
					"inputs": [],
					"name": "ADDRESSES_PROVIDER",
					"outputs": [
						{
							"internalType": "contract IPoolAddressesProvider",
							"name": "",
							"type": "address"
						}
					],
					"stateMutability": "view",
					"type": "function"
				},
				{
					"inputs": [],
					"name": "POOL",
					"outputs": [
						{
							"internalType": "contract IPool",
							"name": "",
							"type": "address"
						}
					],
					"stateMutability": "view",
					"type": "function"
				},
				{
					"inputs": [
						{
							"internalType": "address",
							"name": "asset",
							"type": "address"
						},
						{
							"internalType": "uint256",
							"name": "amount",
							"type": "uint256"
						},
						{
							"internalType": "uint256",
							"name": "premium",
							"type": "uint256"
						},
						{
							"internalType": "address",
							"name": "initiator",
							"type": "address"
						},
						{
							"internalType": "bytes",
							"name": "params",
							"type": "bytes"
						}
					],
					"name": "executeOperation",
					"outputs": [
						{
							"internalType": "bool",
							"name": "",
							"type": "bool"
						}
					],
					"stateMutability": "nonpayable",
					"type": "function"
				},
				{
					"inputs": [
						{
							"internalType": "uint256",
							"name": "_amount",
							"type": "uint256"
						}
					],
					"name": "testAAVE",
					"outputs": [],
					"stateMutability": "nonpayable",
					"type": "function"
				}
			],
			"devdoc": {
				"kind": "dev",
				"methods": {
					"executeOperation(address,uint256,uint256,address,bytes)": {
						"details": "Ensure that the contract can return the debt + premium, e.g., has      enough funds to repay and has approved the Pool to pull the total amount",
						"params": {
							"amount": "The amount of the flash-borrowed asset",
							"asset": "The address of the flash-borrowed asset",
							"initiator": "The address of the flashloan initiator",
							"params": "The byte-encoded params passed when initiating the flashloan",
							"premium": "The fee of the flash-borrowed asset"
						},
						"returns": {
							"_0": "True if the execution of the operation succeeds, false otherwise"
						}
					}
				},
				"version": 1
			},
			"evm": {
				"assembly": "    /* \"Code-hardhat-ethersJs/contracts/AAVETest.sol\":714:5174  contract AAVETest is IFlashLoanSimpleReceiver {... */\n  mstore(0x40, 0xc0)\n    /* \"Code-hardhat-ethersJs/contracts/AAVETest.sol\":858:900  0x7a250d5630B4cF539739dF2C5dAcb4c659F2488D */\n  0x7a250d5630b4cf539739df2c5dacb4c659f2488d\n    /* \"Code-hardhat-ethersJs/contracts/AAVETest.sol\":823:900  address UniswapV2Router02address = 0x7a250d5630B4cF539739dF2C5dAcb4c659F2488D */\n  0x00\n  dup1\n  0x0100\n  exp\n  dup2\n  sload\n  dup2\n  0xffffffffffffffffffffffffffffffffffffffff\n  mul\n  not\n  and\n  swap1\n  dup4\n  0xffffffffffffffffffffffffffffffffffffffff\n  and\n  mul\n  or\n  swap1\n  sstore\n  pop\n    /* \"Code-hardhat-ethersJs/contracts/AAVETest.sol\":940:982  0x5C69bEe701ef814a2B6a3EDD4B1652CB9cc5aA6f */\n  0x5c69bee701ef814a2b6a3edd4b1652cb9cc5aa6f\n    /* \"Code-hardhat-ethersJs/contracts/AAVETest.sol\":906:982  address UniswapV2Factoryaddress = 0x5C69bEe701ef814a2B6a3EDD4B1652CB9cc5aA6f */\n  0x01\n  exp(0x0100, 0x00)\n  dup2\n  sload\n  dup2\n  0xffffffffffffffffffffffffffffffffffffffff\n  mul\n  not\n  and\n  swap1\n  dup4\n  0xffffffffffffffffffffffffffffffffffffffff\n  and\n  mul\n  or\n  swap1\n  sstore\n  pop\n    /* \"Code-hardhat-ethersJs/contracts/AAVETest.sol\":1014:1056  0xC36442b4a4522E871399CD717aBDD847Ab11FE88 */\n  0xc36442b4a4522e871399cd717abdd847ab11fe88\n    /* \"Code-hardhat-ethersJs/contracts/AAVETest.sol\":988:1056  address UNIV3POSaddress = 0xC36442b4a4522E871399CD717aBDD847Ab11FE88 */\n  0x02\n  exp(0x0100, 0x00)\n  dup2\n  sload\n  dup2\n  0xffffffffffffffffffffffffffffffffffffffff\n  mul\n  not\n  and\n  swap1\n  dup4\n  0xffffffffffffffffffffffffffffffffffffffff\n  and\n  mul\n  or\n  swap1\n  sstore\n  pop\n    /* \"Code-hardhat-ethersJs/contracts/AAVETest.sol\":1096:1138  0x1F98431c8aD98523631AE4a59f267346ea31F984 */\n  0x1f98431c8ad98523631ae4a59f267346ea31f984\n    /* \"Code-hardhat-ethersJs/contracts/AAVETest.sol\":1062:1138  address UniswapV3Factoryaddress = 0x1F98431c8aD98523631AE4a59f267346ea31F984 */\n  0x03\n  exp(0x0100, 0x00)\n  dup2\n  sload\n  dup2\n  0xffffffffffffffffffffffffffffffffffffffff\n  mul\n  not\n  and\n  swap1\n  dup4\n  0xffffffffffffffffffffffffffffffffffffffff\n  and\n  mul\n  or\n  swap1\n  sstore\n  pop\n    /* \"Code-hardhat-ethersJs/contracts/AAVETest.sol\":1174:1216  0x68b3465833fb72A70ecDF485E0e4C7bD8665Fc45 */\n  0x68b3465833fb72a70ecdf485e0e4c7bd8665fc45\n    /* \"Code-hardhat-ethersJs/contracts/AAVETest.sol\":1144:1216  address SwapRouter02address = 0x68b3465833fb72A70ecDF485E0e4C7bD8665Fc45 */\n  0x04\n  exp(0x0100, 0x00)\n  dup2\n  sload\n  dup2\n  0xffffffffffffffffffffffffffffffffffffffff\n  mul\n  not\n  and\n  swap1\n  dup4\n  0xffffffffffffffffffffffffffffffffffffffff\n  and\n  mul\n  or\n  swap1\n  sstore\n  pop\n    /* \"Code-hardhat-ethersJs/contracts/AAVETest.sol\":1259:1301  0x8Ca302E2B04ECDb5d14Cced580A379b40e8eD8b7 */\n  0x8ca302e2b04ecdb5d14cced580a379b40e8ed8b7\n    /* \"Code-hardhat-ethersJs/contracts/AAVETest.sol\":1238:1301  address MTTaddress = 0x8Ca302E2B04ECDb5d14Cced580A379b40e8eD8b7 */\n  0x05\n  exp(0x0100, 0x00)\n  dup2\n  sload\n  dup2\n  0xffffffffffffffffffffffffffffffffffffffff\n  mul\n  not\n  and\n  swap1\n  dup4\n  0xffffffffffffffffffffffffffffffffffffffff\n  and\n  mul\n  or\n  swap1\n  sstore\n  pop\n    /* \"Code-hardhat-ethersJs/contracts/AAVETest.sol\":1329:1371  0xa36085F69e2889c224210F603D836748e7dC0088 */\n  0xa36085f69e2889c224210f603d836748e7dc0088\n    /* \"Code-hardhat-ethersJs/contracts/AAVETest.sol\":1307:1371  address Linkaddress = 0xa36085F69e2889c224210F603D836748e7dC0088 */\n  0x06\n  exp(0x0100, 0x00)\n  dup2\n  sload\n  dup2\n  0xffffffffffffffffffffffffffffffffffffffff\n  mul\n  not\n  and\n  swap1\n  dup4\n  0xffffffffffffffffffffffffffffffffffffffff\n  and\n  mul\n  or\n  swap1\n  sstore\n  pop\n    /* \"Code-hardhat-ethersJs/contracts/AAVETest.sol\":1520:1562  0x69F9e353F7411479912d2E9F3e436aE83486C17B */\n  0x69f9e353f7411479912d2e9f3e436ae83486c17b\n    /* \"Code-hardhat-ethersJs/contracts/AAVETest.sol\":1495:1562  address UV2Pairaddress = 0x69F9e353F7411479912d2E9F3e436aE83486C17B */\n  0x07\n  exp(0x0100, 0x00)\n  dup2\n  sload\n  dup2\n  0xffffffffffffffffffffffffffffffffffffffff\n  mul\n  not\n  and\n  swap1\n  dup4\n  0xffffffffffffffffffffffffffffffffffffffff\n  and\n  mul\n  or\n  swap1\n  sstore\n  pop\n    /* \"Code-hardhat-ethersJs/contracts/AAVETest.sol\":1714:1719  10961 */\n  0x2ad1\n    /* \"Code-hardhat-ethersJs/contracts/AAVETest.sol\":1693:1719  uint256 UV3tokenId = 10961 */\n  0x08\n  sstore\n    /* \"Code-hardhat-ethersJs/contracts/AAVETest.sol\":1763:1805  0x87b1f4cf9BD63f7BBD3eE1aD04E8F52540349347 */\n  0x87b1f4cf9bd63f7bbd3ee1ad04e8f52540349347\n    /* \"Code-hardhat-ethersJs/contracts/AAVETest.sol\":1736:1805  address AAVE_ATOKEN_WETH = 0x87b1f4cf9BD63f7BBD3eE1aD04E8F52540349347 */\n  0x09\n  exp(0x0100, 0x00)\n  dup2\n  sload\n  dup2\n  0xffffffffffffffffffffffffffffffffffffffff\n  mul\n  not\n  and\n  swap1\n  dup4\n  0xffffffffffffffffffffffffffffffffffffffff\n  and\n  mul\n  or\n  swap1\n  sstore\n  pop\n    /* \"Code-hardhat-ethersJs/contracts/AAVETest.sol\":1858:1900  0x88757f2f99175387aB4C6a4b3067c77A695b0349 */\n  0x88757f2f99175387ab4c6a4b3067c77a695b0349\n    /* \"Code-hardhat-ethersJs/contracts/AAVETest.sol\":1811:1900  address AAVE_LENDING_POOL_ADDRESSES_PROVIDER = 0x88757f2f99175387aB4C6a4b3067c77A695b0349 */\n  0x0a\n  exp(0x0100, 0x00)\n  dup2\n  sload\n  dup2\n  0xffffffffffffffffffffffffffffffffffffffff\n  mul\n  not\n  and\n  swap1\n  dup4\n  0xffffffffffffffffffffffffffffffffffffffff\n  and\n  mul\n  or\n  swap1\n  sstore\n  pop\n    /* \"Code-hardhat-ethersJs/contracts/AAVETest.sol\":1928:1970  0x2646FcF7F0AbB1ff279ED9845AdE04019C907EBE */\n  0x2646fcf7f0abb1ff279ed9845ade04019c907ebe\n    /* \"Code-hardhat-ethersJs/contracts/AAVETest.sol\":1906:1970  address POOLaddress = 0x2646FcF7F0AbB1ff279ED9845AdE04019C907EBE */\n  0x0b\n  exp(0x0100, 0x00)\n  dup2\n  sload\n  dup2\n  0xffffffffffffffffffffffffffffffffffffffff\n  mul\n  not\n  and\n  swap1\n  dup4\n  0xffffffffffffffffffffffffffffffffffffffff\n  and\n  mul\n  or\n  swap1\n  sstore\n  pop\n    /* \"Code-hardhat-ethersJs/contracts/AAVETest.sol\":2047:2071  UniswapV2Router02address */\n  0x00\n  dup1\n  sload\n  swap1\n  0x0100\n  exp\n  swap1\n  div\n  0xffffffffffffffffffffffffffffffffffffffff\n  and\n    /* \"Code-hardhat-ethersJs/contracts/AAVETest.sol\":1997:2072  IUniswapV2Router02 uv2router = IUniswapV2Router02(UniswapV2Router02address) */\n  0x0c\n  exp(0x0100, 0x00)\n  dup2\n  sload\n  dup2\n  0xffffffffffffffffffffffffffffffffffffffff\n  mul\n  not\n  and\n  swap1\n  dup4\n  0xffffffffffffffffffffffffffffffffffffffff\n  and\n  mul\n  or\n  swap1\n  sstore\n  pop\n    /* \"Code-hardhat-ethersJs/contracts/AAVETest.sol\":2132:2151  SwapRouter02address */\n  0x04\n  0x00\n  swap1\n  sload\n  swap1\n  0x0100\n  exp\n  swap1\n  div\n  0xffffffffffffffffffffffffffffffffffffffff\n  and\n    /* \"Code-hardhat-ethersJs/contracts/AAVETest.sol\":2092:2152  IV3SwapRouter uv3router = IV3SwapRouter(SwapRouter02address) */\n  0x0d\n  exp(0x0100, 0x00)\n  dup2\n  sload\n  dup2\n  0xffffffffffffffffffffffffffffffffffffffff\n  mul\n  not\n  and\n  swap1\n  dup4\n  0xffffffffffffffffffffffffffffffffffffffff\n  and\n  mul\n  or\n  swap1\n  sstore\n  pop\n    /* \"Code-hardhat-ethersJs/contracts/AAVETest.sol\":2255:2265  MTTaddress */\n  0x05\n  0x00\n  swap1\n  sload\n  swap1\n  0x0100\n  exp\n  swap1\n  div\n  0xffffffffffffffffffffffffffffffffffffffff\n  and\n    /* \"Code-hardhat-ethersJs/contracts/AAVETest.sol\":2235:2266  IERC20 MTT = IERC20(MTTaddress) */\n  0x0e\n  exp(0x0100, 0x00)\n  dup2\n  sload\n  dup2\n  0xffffffffffffffffffffffffffffffffffffffff\n  mul\n  not\n  and\n  swap1\n  dup4\n  0xffffffffffffffffffffffffffffffffffffffff\n  and\n  mul\n  or\n  swap1\n  sstore\n  pop\n    /* \"Code-hardhat-ethersJs/contracts/AAVETest.sol\":2293:2304  Linkaddress */\n  0x06\n  0x00\n  swap1\n  sload\n  swap1\n  0x0100\n  exp\n  swap1\n  div\n  0xffffffffffffffffffffffffffffffffffffffff\n  and\n    /* \"Code-hardhat-ethersJs/contracts/AAVETest.sol\":2272:2305  IERC20 LINK = IERC20(Linkaddress) */\n  0x0f\n  exp(0x0100, 0x00)\n  dup2\n  sload\n  dup2\n  0xffffffffffffffffffffffffffffffffffffffff\n  mul\n  not\n  and\n  swap1\n  dup4\n  0xffffffffffffffffffffffffffffffffffffffff\n  and\n  mul\n  or\n  swap1\n  sstore\n  pop\n    /* \"Code-hardhat-ethersJs/contracts/AAVETest.sol\":2440:2647  constructor() {... */\n  callvalue\n  dup1\n  iszero\n  tag_1\n  jumpi\n  0x00\n  dup1\n  revert\ntag_1:\n  pop\n    /* \"Code-hardhat-ethersJs/contracts/AAVETest.sol\":2522:2564  0xA55125A90d75a95EC00130E8E8C197dB5641Eb19 */\n  0xa55125a90d75a95ec00130e8e8c197db5641eb19\n    /* \"Code-hardhat-ethersJs/contracts/AAVETest.sol\":2465:2574  ADDRESSES_PROVIDER = IPoolAddressesProvider(... */\n  0xffffffffffffffffffffffffffffffffffffffff\n  and\n  0x80\n  dup2\n  0xffffffffffffffffffffffffffffffffffffffff\n  and\n  dup2\n  mstore\n  pop\n  pop\n    /* \"Code-hardhat-ethersJs/contracts/AAVETest.sol\":2597:2639  0x2646FcF7F0AbB1ff279ED9845AdE04019C907EBE */\n  0x2646fcf7f0abb1ff279ed9845ade04019c907ebe\n    /* \"Code-hardhat-ethersJs/contracts/AAVETest.sol\":2584:2640  POOL = IPool(0x2646FcF7F0AbB1ff279ED9845AdE04019C907EBE) */\n  0xffffffffffffffffffffffffffffffffffffffff\n  and\n  0xa0\n  dup2\n  0xffffffffffffffffffffffffffffffffffffffff\n  and\n  dup2\n  mstore\n  pop\n  pop\n    /* \"Code-hardhat-ethersJs/contracts/AAVETest.sol\":714:5174  contract AAVETest is IFlashLoanSimpleReceiver {... */\n  mload(0x80)\n  mload(0xa0)\n  codecopy(0x00, dataOffset(sub_0), dataSize(sub_0))\n  0x00\n  assignImmutable(\"0x81bca1f8ca3bb15341ff0db4294d8b3808367aadbedd8a086fff74880e3bfb1c\")\n  0x00\n  assignImmutable(\"0xddb5da11fe8d5b7c3a4ca560c7baf7210ad923a414ade61cd4fdcbb44ea2d925\")\n  return(0x00, dataSize(sub_0))\nstop\n\nsub_0: assembly {\n        /* \"Code-hardhat-ethersJs/contracts/AAVETest.sol\":714:5174  contract AAVETest is IFlashLoanSimpleReceiver {... */\n      mstore(0x40, 0x80)\n      callvalue\n      dup1\n      iszero\n      tag_1\n      jumpi\n      0x00\n      dup1\n      revert\n    tag_1:\n      pop\n      jumpi(tag_2, lt(calldatasize, 0x04))\n      shr(0xe0, calldataload(0x00))\n      dup1\n      0x0542975c\n      eq\n      tag_3\n      jumpi\n      dup1\n      0x1b11d0ff\n      eq\n      tag_4\n      jumpi\n      dup1\n      0x7535d246\n      eq\n      tag_5\n      jumpi\n      dup1\n      0xc4a50233\n      eq\n      tag_6\n      jumpi\n    tag_2:\n      0x00\n      dup1\n      revert\n        /* \"Code-hardhat-ethersJs/contracts/AAVETest.sol\":2324:2391  IPoolAddressesProvider public immutable override ADDRESSES_PROVIDER */\n    tag_3:\n      tag_7\n      tag_8\n      jump\t// in\n    tag_7:\n      mload(0x40)\n      tag_9\n      swap2\n      swap1\n      tag_10\n      jump\t// in\n    tag_9:\n      mload(0x40)\n      dup1\n      swap2\n      sub\n      swap1\n      return\n        /* \"Code-hardhat-ethersJs/contracts/AAVETest.sol\":3781:5166  function executeOperation(... */\n    tag_4:\n      tag_11\n      0x04\n      dup1\n      calldatasize\n      sub\n      dup2\n      add\n      swap1\n      tag_12\n      swap2\n      swap1\n      tag_13\n      jump\t// in\n    tag_12:\n      tag_14\n      jump\t// in\n    tag_11:\n      mload(0x40)\n      tag_15\n      swap2\n      swap1\n      tag_16\n      jump\t// in\n    tag_15:\n      mload(0x40)\n      dup1\n      swap2\n      sub\n      swap1\n      return\n        /* \"Code-hardhat-ethersJs/contracts/AAVETest.sol\":2397:2433  IPool public immutable override POOL */\n    tag_5:\n      tag_17\n      tag_18\n      jump\t// in\n    tag_17:\n      mload(0x40)\n      tag_19\n      swap2\n      swap1\n      tag_20\n      jump\t// in\n    tag_19:\n      mload(0x40)\n      dup1\n      swap2\n      sub\n      swap1\n      return\n        /* \"Code-hardhat-ethersJs/contracts/AAVETest.sol\":3147:3775  function testAAVE(uint256 _amount) public {... */\n    tag_6:\n      tag_21\n      0x04\n      dup1\n      calldatasize\n      sub\n      dup2\n      add\n      swap1\n      tag_22\n      swap2\n      swap1\n      tag_23\n      jump\t// in\n    tag_22:\n      tag_24\n      jump\t// in\n    tag_21:\n      stop\n        /* \"Code-hardhat-ethersJs/contracts/AAVETest.sol\":2324:2391  IPoolAddressesProvider public immutable override ADDRESSES_PROVIDER */\n    tag_8:\n      immutable(\"0xddb5da11fe8d5b7c3a4ca560c7baf7210ad923a414ade61cd4fdcbb44ea2d925\")\n      dup2\n      jump\t// out\n        /* \"Code-hardhat-ethersJs/contracts/AAVETest.sol\":3781:5166  function executeOperation(... */\n    tag_14:\n        /* \"Code-hardhat-ethersJs/contracts/AAVETest.sol\":4006:4010  bool */\n      0x00\n        /* \"Code-hardhat-ethersJs/contracts/AAVETest.sol\":4143:4162  uint256 amountOwing */\n      dup1\n        /* \"Code-hardhat-ethersJs/contracts/AAVETest.sol\":4173:4180  premium */\n      dup6\n        /* \"Code-hardhat-ethersJs/contracts/AAVETest.sol\":4165:4171  amount */\n      dup8\n        /* \"Code-hardhat-ethersJs/contracts/AAVETest.sol\":4165:4180  amount +premium */\n      tag_26\n      swap2\n      swap1\n      tag_27\n      jump\t// in\n    tag_26:\n        /* \"Code-hardhat-ethersJs/contracts/AAVETest.sol\":4143:4180  uint256 amountOwing = amount +premium */\n      swap1\n      pop\n        /* \"Code-hardhat-ethersJs/contracts/AAVETest.sol\":4197:4202  asset */\n      dup8\n        /* \"Code-hardhat-ethersJs/contracts/AAVETest.sol\":4190:4211  IERC20(asset).approve */\n      0xffffffffffffffffffffffffffffffffffffffff\n      and\n      0x095ea7b3\n        /* \"Code-hardhat-ethersJs/contracts/AAVETest.sol\":4220:4224  POOL */\n      immutable(\"0x81bca1f8ca3bb15341ff0db4294d8b3808367aadbedd8a086fff74880e3bfb1c\")\n        /* \"Code-hardhat-ethersJs/contracts/AAVETest.sol\":4227:4238  amountOwing */\n      dup4\n        /* \"Code-hardhat-ethersJs/contracts/AAVETest.sol\":4190:4239  IERC20(asset).approve(address(POOL), amountOwing) */\n      mload(0x40)\n      dup4\n      0xffffffff\n      and\n      0xe0\n      shl\n      dup2\n      mstore\n      0x04\n      add\n      tag_28\n      swap3\n      swap2\n      swap1\n      tag_29\n      jump\t// in\n    tag_28:\n      0x20\n      mload(0x40)\n      dup1\n      dup4\n      sub\n      dup2\n      0x00\n      dup8\n      gas\n      call\n      iszero\n      dup1\n      iszero\n      tag_31\n      jumpi\n      returndatasize\n      0x00\n      dup1\n      returndatacopy\n      revert(0x00, returndatasize)\n    tag_31:\n      pop\n      pop\n      pop\n      pop\n      mload(0x40)\n      returndatasize\n      not(0x1f)\n      0x1f\n      dup3\n      add\n      and\n      dup3\n      add\n      dup1\n      0x40\n      mstore\n      pop\n      dup2\n      add\n      swap1\n      tag_32\n      swap2\n      swap1\n      tag_33\n      jump\t// in\n    tag_32:\n      pop\n        /* \"Code-hardhat-ethersJs/contracts/AAVETest.sol\":5155:5159  true */\n      0x01\n        /* \"Code-hardhat-ethersJs/contracts/AAVETest.sol\":5148:5159  return true */\n      swap2\n      pop\n      pop\n        /* \"Code-hardhat-ethersJs/contracts/AAVETest.sol\":3781:5166  function executeOperation(... */\n      swap7\n      swap6\n      pop\n      pop\n      pop\n      pop\n      pop\n      pop\n      jump\t// out\n        /* \"Code-hardhat-ethersJs/contracts/AAVETest.sol\":2397:2433  IPool public immutable override POOL */\n    tag_18:\n      immutable(\"0x81bca1f8ca3bb15341ff0db4294d8b3808367aadbedd8a086fff74880e3bfb1c\")\n      dup2\n      jump\t// out\n        /* \"Code-hardhat-ethersJs/contracts/AAVETest.sol\":3147:3775  function testAAVE(uint256 _amount) public {... */\n    tag_24:\n        /* \"Code-hardhat-ethersJs/contracts/AAVETest.sol\":3199:3222  address receiverAddress */\n      0x00\n        /* \"Code-hardhat-ethersJs/contracts/AAVETest.sol\":3233:3237  this */\n      address\n        /* \"Code-hardhat-ethersJs/contracts/AAVETest.sol\":3199:3238  address receiverAddress = address(this) */\n      swap1\n      pop\n        /* \"Code-hardhat-ethersJs/contracts/AAVETest.sol\":3249:3262  address asset */\n      0x00\n        /* \"Code-hardhat-ethersJs/contracts/AAVETest.sol\":3265:3276  Linkaddress */\n      0x06\n      0x00\n      swap1\n      sload\n      swap1\n      0x0100\n      exp\n      swap1\n      div\n      0xffffffffffffffffffffffffffffffffffffffff\n      and\n        /* \"Code-hardhat-ethersJs/contracts/AAVETest.sol\":3249:3276  address asset = Linkaddress */\n      swap1\n      pop\n        /* \"Code-hardhat-ethersJs/contracts/AAVETest.sol\":3286:3300  uint256 amount */\n      0x00\n        /* \"Code-hardhat-ethersJs/contracts/AAVETest.sol\":3303:3310  _amount */\n      dup4\n        /* \"Code-hardhat-ethersJs/contracts/AAVETest.sol\":3286:3310  uint256 amount = _amount */\n      swap1\n      pop\n        /* \"Code-hardhat-ethersJs/contracts/AAVETest.sol\":3321:3340  bytes memory params */\n      0x00\n        /* \"Code-hardhat-ethersJs/contracts/AAVETest.sol\":3321:3345  bytes memory params = \"\" */\n      mload(0x40)\n      dup1\n      0x20\n      add\n      0x40\n      mstore\n      dup1\n      0x00\n      dup2\n      mstore\n      pop\n      swap1\n      pop\n        /* \"Code-hardhat-ethersJs/contracts/AAVETest.sol\":3355:3374  uint16 referralCode */\n      0x00\n        /* \"Code-hardhat-ethersJs/contracts/AAVETest.sol\":3388:3391  MTT */\n      0x0e\n      0x00\n      swap1\n      sload\n      swap1\n      0x0100\n      exp\n      swap1\n      div\n      0xffffffffffffffffffffffffffffffffffffffff\n      and\n        /* \"Code-hardhat-ethersJs/contracts/AAVETest.sol\":3388:3399  MTT.approve */\n      0xffffffffffffffffffffffffffffffffffffffff\n      and\n      0x095ea7b3\n        /* \"Code-hardhat-ethersJs/contracts/AAVETest.sol\":3408:3417  uv2router */\n      0x0c\n      0x00\n      swap1\n      sload\n      swap1\n      0x0100\n      exp\n      swap1\n      div\n      0xffffffffffffffffffffffffffffffffffffffff\n      and\n        /* \"Code-hardhat-ethersJs/contracts/AAVETest.sol\":3425:3452  100000000000000000000000000 */\n      0x52b7d2dcc80cd2e4000000\n        /* \"Code-hardhat-ethersJs/contracts/AAVETest.sol\":3388:3454  MTT.approve(address(uv2router), uint(100000000000000000000000000)) */\n      mload(0x40)\n      dup4\n      0xffffffff\n      and\n      0xe0\n      shl\n      dup2\n      mstore\n      0x04\n      add\n      tag_35\n      swap3\n      swap2\n      swap1\n      tag_29\n      jump\t// in\n    tag_35:\n      0x20\n      mload(0x40)\n      dup1\n      dup4\n      sub\n      dup2\n      0x00\n      dup8\n      gas\n      call\n      iszero\n      dup1\n      iszero\n      tag_37\n      jumpi\n      returndatasize\n      0x00\n      dup1\n      returndatacopy\n      revert(0x00, returndatasize)\n    tag_37:\n      pop\n      pop\n      pop\n      pop\n      mload(0x40)\n      returndatasize\n      not(0x1f)\n      0x1f\n      dup3\n      add\n      and\n      dup3\n      add\n      dup1\n      0x40\n      mstore\n      pop\n      dup2\n      add\n      swap1\n      tag_38\n      swap2\n      swap1\n      tag_33\n      jump\t// in\n    tag_38:\n      pop\n        /* \"Code-hardhat-ethersJs/contracts/AAVETest.sol\":3464:3467  MTT */\n      0x0e\n      0x00\n      swap1\n      sload\n      swap1\n      0x0100\n      exp\n      swap1\n      div\n      0xffffffffffffffffffffffffffffffffffffffff\n      and\n        /* \"Code-hardhat-ethersJs/contracts/AAVETest.sol\":3464:3475  MTT.approve */\n      0xffffffffffffffffffffffffffffffffffffffff\n      and\n      0x095ea7b3\n        /* \"Code-hardhat-ethersJs/contracts/AAVETest.sol\":3484:3493  uv3router */\n      0x0d\n      0x00\n      swap1\n      sload\n      swap1\n      0x0100\n      exp\n      swap1\n      div\n      0xffffffffffffffffffffffffffffffffffffffff\n      and\n        /* \"Code-hardhat-ethersJs/contracts/AAVETest.sol\":3501:3528  100000000000000000000000000 */\n      0x52b7d2dcc80cd2e4000000\n        /* \"Code-hardhat-ethersJs/contracts/AAVETest.sol\":3464:3530  MTT.approve(address(uv3router), uint(100000000000000000000000000)) */\n      mload(0x40)\n      dup4\n      0xffffffff\n      and\n      0xe0\n      shl\n      dup2\n      mstore\n      0x04\n      add\n      tag_39\n      swap3\n      swap2\n      swap1\n      tag_29\n      jump\t// in\n    tag_39:\n      0x20\n      mload(0x40)\n      dup1\n      dup4\n      sub\n      dup2\n      0x00\n      dup8\n      gas\n      call\n      iszero\n      dup1\n      iszero\n      tag_41\n      jumpi\n      returndatasize\n      0x00\n      dup1\n      returndatacopy\n      revert(0x00, returndatasize)\n    tag_41:\n      pop\n      pop\n      pop\n      pop\n      mload(0x40)\n      returndatasize\n      not(0x1f)\n      0x1f\n      dup3\n      add\n      and\n      dup3\n      add\n      dup1\n      0x40\n      mstore\n      pop\n      dup2\n      add\n      swap1\n      tag_42\n      swap2\n      swap1\n      tag_33\n      jump\t// in\n    tag_42:\n      pop\n        /* \"Code-hardhat-ethersJs/contracts/AAVETest.sol\":3540:3544  LINK */\n      0x0f\n      0x00\n      swap1\n      sload\n      swap1\n      0x0100\n      exp\n      swap1\n      div\n      0xffffffffffffffffffffffffffffffffffffffff\n      and\n        /* \"Code-hardhat-ethersJs/contracts/AAVETest.sol\":3540:3552  LINK.approve */\n      0xffffffffffffffffffffffffffffffffffffffff\n      and\n      0x095ea7b3\n        /* \"Code-hardhat-ethersJs/contracts/AAVETest.sol\":3561:3570  uv2router */\n      0x0c\n      0x00\n      swap1\n      sload\n      swap1\n      0x0100\n      exp\n      swap1\n      div\n      0xffffffffffffffffffffffffffffffffffffffff\n      and\n        /* \"Code-hardhat-ethersJs/contracts/AAVETest.sol\":3578:3605  100000000000000000000000000 */\n      0x52b7d2dcc80cd2e4000000\n        /* \"Code-hardhat-ethersJs/contracts/AAVETest.sol\":3540:3607  LINK.approve(address(uv2router), uint(100000000000000000000000000)) */\n      mload(0x40)\n      dup4\n      0xffffffff\n      and\n      0xe0\n      shl\n      dup2\n      mstore\n      0x04\n      add\n      tag_43\n      swap3\n      swap2\n      swap1\n      tag_29\n      jump\t// in\n    tag_43:\n      0x20\n      mload(0x40)\n      dup1\n      dup4\n      sub\n      dup2\n      0x00\n      dup8\n      gas\n      call\n      iszero\n      dup1\n      iszero\n      tag_45\n      jumpi\n      returndatasize\n      0x00\n      dup1\n      returndatacopy\n      revert(0x00, returndatasize)\n    tag_45:\n      pop\n      pop\n      pop\n      pop\n      mload(0x40)\n      returndatasize\n      not(0x1f)\n      0x1f\n      dup3\n      add\n      and\n      dup3\n      add\n      dup1\n      0x40\n      mstore\n      pop\n      dup2\n      add\n      swap1\n      tag_46\n      swap2\n      swap1\n      tag_33\n      jump\t// in\n    tag_46:\n      pop\n        /* \"Code-hardhat-ethersJs/contracts/AAVETest.sol\":3617:3621  LINK */\n      0x0f\n      0x00\n      swap1\n      sload\n      swap1\n      0x0100\n      exp\n      swap1\n      div\n      0xffffffffffffffffffffffffffffffffffffffff\n      and\n        /* \"Code-hardhat-ethersJs/contracts/AAVETest.sol\":3617:3629  LINK.approve */\n      0xffffffffffffffffffffffffffffffffffffffff\n      and\n      0x095ea7b3\n        /* \"Code-hardhat-ethersJs/contracts/AAVETest.sol\":3638:3647  uv3router */\n      0x0d\n      0x00\n      swap1\n      sload\n      swap1\n      0x0100\n      exp\n      swap1\n      div\n      0xffffffffffffffffffffffffffffffffffffffff\n      and\n        /* \"Code-hardhat-ethersJs/contracts/AAVETest.sol\":3655:3682  100000000000000000000000000 */\n      0x52b7d2dcc80cd2e4000000\n        /* \"Code-hardhat-ethersJs/contracts/AAVETest.sol\":3617:3684  LINK.approve(address(uv3router), uint(100000000000000000000000000)) */\n      mload(0x40)\n      dup4\n      0xffffffff\n      and\n      0xe0\n      shl\n      dup2\n      mstore\n      0x04\n      add\n      tag_47\n      swap3\n      swap2\n      swap1\n      tag_29\n      jump\t// in\n    tag_47:\n      0x20\n      mload(0x40)\n      dup1\n      dup4\n      sub\n      dup2\n      0x00\n      dup8\n      gas\n      call\n      iszero\n      dup1\n      iszero\n      tag_49\n      jumpi\n      returndatasize\n      0x00\n      dup1\n      returndatacopy\n      revert(0x00, returndatasize)\n    tag_49:\n      pop\n      pop\n      pop\n      pop\n      mload(0x40)\n      returndatasize\n      not(0x1f)\n      0x1f\n      dup3\n      add\n      and\n      dup3\n      add\n      dup1\n      0x40\n      mstore\n      pop\n      dup2\n      add\n      swap1\n      tag_50\n      swap2\n      swap1\n      tag_33\n      jump\t// in\n    tag_50:\n      pop\n        /* \"Code-hardhat-ethersJs/contracts/AAVETest.sol\":3694:3698  POOL */\n      immutable(\"0x81bca1f8ca3bb15341ff0db4294d8b3808367aadbedd8a086fff74880e3bfb1c\")\n        /* \"Code-hardhat-ethersJs/contracts/AAVETest.sol\":3694:3714  POOL.flashLoanSimple */\n      0xffffffffffffffffffffffffffffffffffffffff\n      and\n      0x42b0b77c\n        /* \"Code-hardhat-ethersJs/contracts/AAVETest.sol\":3715:3730  receiverAddress */\n      dup7\n        /* \"Code-hardhat-ethersJs/contracts/AAVETest.sol\":3732:3737  asset */\n      dup7\n        /* \"Code-hardhat-ethersJs/contracts/AAVETest.sol\":3739:3745  amount */\n      dup7\n        /* \"Code-hardhat-ethersJs/contracts/AAVETest.sol\":3747:3753  params */\n      dup7\n        /* \"Code-hardhat-ethersJs/contracts/AAVETest.sol\":3755:3767  referralCode */\n      dup7\n        /* \"Code-hardhat-ethersJs/contracts/AAVETest.sol\":3694:3768  POOL.flashLoanSimple(receiverAddress, asset, amount, params, referralCode) */\n      mload(0x40)\n      dup7\n      0xffffffff\n      and\n      0xe0\n      shl\n      dup2\n      mstore\n      0x04\n      add\n      tag_51\n      swap6\n      swap5\n      swap4\n      swap3\n      swap2\n      swap1\n      tag_52\n      jump\t// in\n    tag_51:\n      0x00\n      mload(0x40)\n      dup1\n      dup4\n      sub\n      dup2\n      0x00\n      dup8\n      dup1\n      extcodesize\n      iszero\n      dup1\n      iszero\n      tag_53\n      jumpi\n      0x00\n      dup1\n      revert\n    tag_53:\n      pop\n      gas\n      call\n      iszero\n      dup1\n      iszero\n      tag_55\n      jumpi\n      returndatasize\n      0x00\n      dup1\n      returndatacopy\n      revert(0x00, returndatasize)\n    tag_55:\n      pop\n      pop\n      pop\n      pop\n        /* \"Code-hardhat-ethersJs/contracts/AAVETest.sol\":3189:3775  {... */\n      pop\n      pop\n      pop\n      pop\n      pop\n        /* \"Code-hardhat-ethersJs/contracts/AAVETest.sol\":3147:3775  function testAAVE(uint256 _amount) public {... */\n      pop\n      jump\t// out\n        /* \"#utility.yul\":7:133   */\n    tag_56:\n        /* \"#utility.yul\":44:51   */\n      0x00\n        /* \"#utility.yul\":84:126   */\n      0xffffffffffffffffffffffffffffffffffffffff\n        /* \"#utility.yul\":77:82   */\n      dup3\n        /* \"#utility.yul\":73:127   */\n      and\n        /* \"#utility.yul\":62:127   */\n      swap1\n      pop\n        /* \"#utility.yul\":7:133   */\n      swap2\n      swap1\n      pop\n      jump\t// out\n        /* \"#utility.yul\":139:199   */\n    tag_57:\n        /* \"#utility.yul\":167:170   */\n      0x00\n        /* \"#utility.yul\":188:193   */\n      dup2\n        /* \"#utility.yul\":181:193   */\n      swap1\n      pop\n        /* \"#utility.yul\":139:199   */\n      swap2\n      swap1\n      pop\n      jump\t// out\n        /* \"#utility.yul\":205:347   */\n    tag_58:\n        /* \"#utility.yul\":255:264   */\n      0x00\n        /* \"#utility.yul\":288:341   */\n      tag_95\n        /* \"#utility.yul\":306:340   */\n      tag_96\n        /* \"#utility.yul\":315:339   */\n      tag_97\n        /* \"#utility.yul\":333:338   */\n      dup5\n        /* \"#utility.yul\":315:339   */\n      tag_56\n      jump\t// in\n    tag_97:\n        /* \"#utility.yul\":306:340   */\n      tag_57\n      jump\t// in\n    tag_96:\n        /* \"#utility.yul\":288:341   */\n      tag_56\n      jump\t// in\n    tag_95:\n        /* \"#utility.yul\":275:341   */\n      swap1\n      pop\n        /* \"#utility.yul\":205:347   */\n      swap2\n      swap1\n      pop\n      jump\t// out\n        /* \"#utility.yul\":353:479   */\n    tag_59:\n        /* \"#utility.yul\":403:412   */\n      0x00\n        /* \"#utility.yul\":436:473   */\n      tag_99\n        /* \"#utility.yul\":467:472   */\n      dup3\n        /* \"#utility.yul\":436:473   */\n      tag_58\n      jump\t// in\n    tag_99:\n        /* \"#utility.yul\":423:473   */\n      swap1\n      pop\n        /* \"#utility.yul\":353:479   */\n      swap2\n      swap1\n      pop\n      jump\t// out\n        /* \"#utility.yul\":485:641   */\n    tag_60:\n        /* \"#utility.yul\":565:574   */\n      0x00\n        /* \"#utility.yul\":598:635   */\n      tag_101\n        /* \"#utility.yul\":629:634   */\n      dup3\n        /* \"#utility.yul\":598:635   */\n      tag_59\n      jump\t// in\n    tag_101:\n        /* \"#utility.yul\":585:635   */\n      swap1\n      pop\n        /* \"#utility.yul\":485:641   */\n      swap2\n      swap1\n      pop\n      jump\t// out\n        /* \"#utility.yul\":647:838   */\n    tag_61:\n        /* \"#utility.yul\":764:831   */\n      tag_103\n        /* \"#utility.yul\":825:830   */\n      dup2\n        /* \"#utility.yul\":764:831   */\n      tag_60\n      jump\t// in\n    tag_103:\n        /* \"#utility.yul\":759:762   */\n      dup3\n        /* \"#utility.yul\":752:832   */\n      mstore\n        /* \"#utility.yul\":647:838   */\n      pop\n      pop\n      jump\t// out\n        /* \"#utility.yul\":844:1126   */\n    tag_10:\n        /* \"#utility.yul\":967:971   */\n      0x00\n        /* \"#utility.yul\":1005:1007   */\n      0x20\n        /* \"#utility.yul\":994:1003   */\n      dup3\n        /* \"#utility.yul\":990:1008   */\n      add\n        /* \"#utility.yul\":982:1008   */\n      swap1\n      pop\n        /* \"#utility.yul\":1018:1119   */\n      tag_105\n        /* \"#utility.yul\":1116:1117   */\n      0x00\n        /* \"#utility.yul\":1105:1114   */\n      dup4\n        /* \"#utility.yul\":1101:1118   */\n      add\n        /* \"#utility.yul\":1092:1098   */\n      dup5\n        /* \"#utility.yul\":1018:1119   */\n      tag_61\n      jump\t// in\n    tag_105:\n        /* \"#utility.yul\":844:1126   */\n      swap3\n      swap2\n      pop\n      pop\n      jump\t// out\n        /* \"#utility.yul\":1213:1330   */\n    tag_63:\n        /* \"#utility.yul\":1322:1323   */\n      0x00\n        /* \"#utility.yul\":1319:1320   */\n      dup1\n        /* \"#utility.yul\":1312:1324   */\n      revert\n        /* \"#utility.yul\":1336:1453   */\n    tag_64:\n        /* \"#utility.yul\":1445:1446   */\n      0x00\n        /* \"#utility.yul\":1442:1443   */\n      dup1\n        /* \"#utility.yul\":1435:1447   */\n      revert\n        /* \"#utility.yul\":1459:1555   */\n    tag_65:\n        /* \"#utility.yul\":1496:1503   */\n      0x00\n        /* \"#utility.yul\":1525:1549   */\n      tag_110\n        /* \"#utility.yul\":1543:1548   */\n      dup3\n        /* \"#utility.yul\":1525:1549   */\n      tag_56\n      jump\t// in\n    tag_110:\n        /* \"#utility.yul\":1514:1549   */\n      swap1\n      pop\n        /* \"#utility.yul\":1459:1555   */\n      swap2\n      swap1\n      pop\n      jump\t// out\n        /* \"#utility.yul\":1561:1683   */\n    tag_66:\n        /* \"#utility.yul\":1634:1658   */\n      tag_112\n        /* \"#utility.yul\":1652:1657   */\n      dup2\n        /* \"#utility.yul\":1634:1658   */\n      tag_65\n      jump\t// in\n    tag_112:\n        /* \"#utility.yul\":1627:1632   */\n      dup2\n        /* \"#utility.yul\":1624:1659   */\n      eq\n        /* \"#utility.yul\":1614:1677   */\n      tag_113\n      jumpi\n        /* \"#utility.yul\":1673:1674   */\n      0x00\n        /* \"#utility.yul\":1670:1671   */\n      dup1\n        /* \"#utility.yul\":1663:1675   */\n      revert\n        /* \"#utility.yul\":1614:1677   */\n    tag_113:\n        /* \"#utility.yul\":1561:1683   */\n      pop\n      jump\t// out\n        /* \"#utility.yul\":1689:1828   */\n    tag_67:\n        /* \"#utility.yul\":1735:1740   */\n      0x00\n        /* \"#utility.yul\":1773:1779   */\n      dup2\n        /* \"#utility.yul\":1760:1780   */\n      calldataload\n        /* \"#utility.yul\":1751:1780   */\n      swap1\n      pop\n        /* \"#utility.yul\":1789:1822   */\n      tag_115\n        /* \"#utility.yul\":1816:1821   */\n      dup2\n        /* \"#utility.yul\":1789:1822   */\n      tag_66\n      jump\t// in\n    tag_115:\n        /* \"#utility.yul\":1689:1828   */\n      swap3\n      swap2\n      pop\n      pop\n      jump\t// out\n        /* \"#utility.yul\":1834:1911   */\n    tag_68:\n        /* \"#utility.yul\":1871:1878   */\n      0x00\n        /* \"#utility.yul\":1900:1905   */\n      dup2\n        /* \"#utility.yul\":1889:1905   */\n      swap1\n      pop\n        /* \"#utility.yul\":1834:1911   */\n      swap2\n      swap1\n      pop\n      jump\t// out\n        /* \"#utility.yul\":1917:2039   */\n    tag_69:\n        /* \"#utility.yul\":1990:2014   */\n      tag_118\n        /* \"#utility.yul\":2008:2013   */\n      dup2\n        /* \"#utility.yul\":1990:2014   */\n      tag_68\n      jump\t// in\n    tag_118:\n        /* \"#utility.yul\":1983:1988   */\n      dup2\n        /* \"#utility.yul\":1980:2015   */\n      eq\n        /* \"#utility.yul\":1970:2033   */\n      tag_119\n      jumpi\n        /* \"#utility.yul\":2029:2030   */\n      0x00\n        /* \"#utility.yul\":2026:2027   */\n      dup1\n        /* \"#utility.yul\":2019:2031   */\n      revert\n        /* \"#utility.yul\":1970:2033   */\n    tag_119:\n        /* \"#utility.yul\":1917:2039   */\n      pop\n      jump\t// out\n        /* \"#utility.yul\":2045:2184   */\n    tag_70:\n        /* \"#utility.yul\":2091:2096   */\n      0x00\n        /* \"#utility.yul\":2129:2135   */\n      dup2\n        /* \"#utility.yul\":2116:2136   */\n      calldataload\n        /* \"#utility.yul\":2107:2136   */\n      swap1\n      pop\n        /* \"#utility.yul\":2145:2178   */\n      tag_121\n        /* \"#utility.yul\":2172:2177   */\n      dup2\n        /* \"#utility.yul\":2145:2178   */\n      tag_69\n      jump\t// in\n    tag_121:\n        /* \"#utility.yul\":2045:2184   */\n      swap3\n      swap2\n      pop\n      pop\n      jump\t// out\n        /* \"#utility.yul\":2190:2307   */\n    tag_71:\n        /* \"#utility.yul\":2299:2300   */\n      0x00\n        /* \"#utility.yul\":2296:2297   */\n      dup1\n        /* \"#utility.yul\":2289:2301   */\n      revert\n        /* \"#utility.yul\":2313:2430   */\n    tag_72:\n        /* \"#utility.yul\":2422:2423   */\n      0x00\n        /* \"#utility.yul\":2419:2420   */\n      dup1\n        /* \"#utility.yul\":2412:2424   */\n      revert\n        /* \"#utility.yul\":2436:2553   */\n    tag_73:\n        /* \"#utility.yul\":2545:2546   */\n      0x00\n        /* \"#utility.yul\":2542:2543   */\n      dup1\n        /* \"#utility.yul\":2535:2547   */\n      revert\n        /* \"#utility.yul\":2572:3124   */\n    tag_74:\n        /* \"#utility.yul\":2629:2637   */\n      0x00\n        /* \"#utility.yul\":2639:2645   */\n      dup1\n        /* \"#utility.yul\":2689:2692   */\n      dup4\n        /* \"#utility.yul\":2682:2686   */\n      0x1f\n        /* \"#utility.yul\":2674:2680   */\n      dup5\n        /* \"#utility.yul\":2670:2687   */\n      add\n        /* \"#utility.yul\":2666:2693   */\n      slt\n        /* \"#utility.yul\":2656:2778   */\n      tag_126\n      jumpi\n        /* \"#utility.yul\":2697:2776   */\n      tag_127\n      tag_71\n      jump\t// in\n    tag_127:\n        /* \"#utility.yul\":2656:2778   */\n    tag_126:\n        /* \"#utility.yul\":2810:2816   */\n      dup3\n        /* \"#utility.yul\":2797:2817   */\n      calldataload\n        /* \"#utility.yul\":2787:2817   */\n      swap1\n      pop\n        /* \"#utility.yul\":2840:2858   */\n      0xffffffffffffffff\n        /* \"#utility.yul\":2832:2838   */\n      dup2\n        /* \"#utility.yul\":2829:2859   */\n      gt\n        /* \"#utility.yul\":2826:2943   */\n      iszero\n      tag_128\n      jumpi\n        /* \"#utility.yul\":2862:2941   */\n      tag_129\n      tag_72\n      jump\t// in\n    tag_129:\n        /* \"#utility.yul\":2826:2943   */\n    tag_128:\n        /* \"#utility.yul\":2976:2980   */\n      0x20\n        /* \"#utility.yul\":2968:2974   */\n      dup4\n        /* \"#utility.yul\":2964:2981   */\n      add\n        /* \"#utility.yul\":2952:2981   */\n      swap2\n      pop\n        /* \"#utility.yul\":3030:3033   */\n      dup4\n        /* \"#utility.yul\":3022:3026   */\n      0x01\n        /* \"#utility.yul\":3014:3020   */\n      dup3\n        /* \"#utility.yul\":3010:3027   */\n      mul\n        /* \"#utility.yul\":3000:3008   */\n      dup4\n        /* \"#utility.yul\":2996:3028   */\n      add\n        /* \"#utility.yul\":2993:3034   */\n      gt\n        /* \"#utility.yul\":2990:3118   */\n      iszero\n      tag_130\n      jumpi\n        /* \"#utility.yul\":3037:3116   */\n      tag_131\n      tag_73\n      jump\t// in\n    tag_131:\n        /* \"#utility.yul\":2990:3118   */\n    tag_130:\n        /* \"#utility.yul\":2572:3124   */\n      swap3\n      pop\n      swap3\n      swap1\n      pop\n      jump\t// out\n        /* \"#utility.yul\":3130:4239   */\n    tag_13:\n        /* \"#utility.yul\":3236:3242   */\n      0x00\n        /* \"#utility.yul\":3244:3250   */\n      dup1\n        /* \"#utility.yul\":3252:3258   */\n      0x00\n        /* \"#utility.yul\":3260:3266   */\n      dup1\n        /* \"#utility.yul\":3268:3274   */\n      0x00\n        /* \"#utility.yul\":3276:3282   */\n      dup1\n        /* \"#utility.yul\":3325:3328   */\n      0xa0\n        /* \"#utility.yul\":3313:3322   */\n      dup8\n        /* \"#utility.yul\":3304:3311   */\n      dup10\n        /* \"#utility.yul\":3300:3323   */\n      sub\n        /* \"#utility.yul\":3296:3329   */\n      slt\n        /* \"#utility.yul\":3293:3413   */\n      iszero\n      tag_133\n      jumpi\n        /* \"#utility.yul\":3332:3411   */\n      tag_134\n      tag_63\n      jump\t// in\n    tag_134:\n        /* \"#utility.yul\":3293:3413   */\n    tag_133:\n        /* \"#utility.yul\":3452:3453   */\n      0x00\n        /* \"#utility.yul\":3477:3530   */\n      tag_135\n        /* \"#utility.yul\":3522:3529   */\n      dup10\n        /* \"#utility.yul\":3513:3519   */\n      dup3\n        /* \"#utility.yul\":3502:3511   */\n      dup11\n        /* \"#utility.yul\":3498:3520   */\n      add\n        /* \"#utility.yul\":3477:3530   */\n      tag_67\n      jump\t// in\n    tag_135:\n        /* \"#utility.yul\":3467:3530   */\n      swap7\n      pop\n        /* \"#utility.yul\":3423:3540   */\n      pop\n        /* \"#utility.yul\":3579:3581   */\n      0x20\n        /* \"#utility.yul\":3605:3658   */\n      tag_136\n        /* \"#utility.yul\":3650:3657   */\n      dup10\n        /* \"#utility.yul\":3641:3647   */\n      dup3\n        /* \"#utility.yul\":3630:3639   */\n      dup11\n        /* \"#utility.yul\":3626:3648   */\n      add\n        /* \"#utility.yul\":3605:3658   */\n      tag_70\n      jump\t// in\n    tag_136:\n        /* \"#utility.yul\":3595:3658   */\n      swap6\n      pop\n        /* \"#utility.yul\":3550:3668   */\n      pop\n        /* \"#utility.yul\":3707:3709   */\n      0x40\n        /* \"#utility.yul\":3733:3786   */\n      tag_137\n        /* \"#utility.yul\":3778:3785   */\n      dup10\n        /* \"#utility.yul\":3769:3775   */\n      dup3\n        /* \"#utility.yul\":3758:3767   */\n      dup11\n        /* \"#utility.yul\":3754:3776   */\n      add\n        /* \"#utility.yul\":3733:3786   */\n      tag_70\n      jump\t// in\n    tag_137:\n        /* \"#utility.yul\":3723:3786   */\n      swap5\n      pop\n        /* \"#utility.yul\":3678:3796   */\n      pop\n        /* \"#utility.yul\":3835:3837   */\n      0x60\n        /* \"#utility.yul\":3861:3914   */\n      tag_138\n        /* \"#utility.yul\":3906:3913   */\n      dup10\n        /* \"#utility.yul\":3897:3903   */\n      dup3\n        /* \"#utility.yul\":3886:3895   */\n      dup11\n        /* \"#utility.yul\":3882:3904   */\n      add\n        /* \"#utility.yul\":3861:3914   */\n      tag_67\n      jump\t// in\n    tag_138:\n        /* \"#utility.yul\":3851:3914   */\n      swap4\n      pop\n        /* \"#utility.yul\":3806:3924   */\n      pop\n        /* \"#utility.yul\":3991:3994   */\n      0x80\n        /* \"#utility.yul\":3980:3989   */\n      dup8\n        /* \"#utility.yul\":3976:3995   */\n      add\n        /* \"#utility.yul\":3963:3996   */\n      calldataload\n        /* \"#utility.yul\":4023:4041   */\n      0xffffffffffffffff\n        /* \"#utility.yul\":4015:4021   */\n      dup2\n        /* \"#utility.yul\":4012:4042   */\n      gt\n        /* \"#utility.yul\":4009:4126   */\n      iszero\n      tag_139\n      jumpi\n        /* \"#utility.yul\":4045:4124   */\n      tag_140\n      tag_64\n      jump\t// in\n    tag_140:\n        /* \"#utility.yul\":4009:4126   */\n    tag_139:\n        /* \"#utility.yul\":4158:4222   */\n      tag_141\n        /* \"#utility.yul\":4214:4221   */\n      dup10\n        /* \"#utility.yul\":4205:4211   */\n      dup3\n        /* \"#utility.yul\":4194:4203   */\n      dup11\n        /* \"#utility.yul\":4190:4212   */\n      add\n        /* \"#utility.yul\":4158:4222   */\n      tag_74\n      jump\t// in\n    tag_141:\n        /* \"#utility.yul\":4140:4222   */\n      swap3\n      pop\n      swap3\n      pop\n        /* \"#utility.yul\":3934:4232   */\n      pop\n        /* \"#utility.yul\":3130:4239   */\n      swap3\n      swap6\n      pop\n      swap3\n      swap6\n      pop\n      swap3\n      swap6\n      jump\t// out\n        /* \"#utility.yul\":4245:4335   */\n    tag_75:\n        /* \"#utility.yul\":4279:4286   */\n      0x00\n        /* \"#utility.yul\":4322:4327   */\n      dup2\n        /* \"#utility.yul\":4315:4328   */\n      iszero\n        /* \"#utility.yul\":4308:4329   */\n      iszero\n        /* \"#utility.yul\":4297:4329   */\n      swap1\n      pop\n        /* \"#utility.yul\":4245:4335   */\n      swap2\n      swap1\n      pop\n      jump\t// out\n        /* \"#utility.yul\":4341:4450   */\n    tag_76:\n        /* \"#utility.yul\":4422:4443   */\n      tag_144\n        /* \"#utility.yul\":4437:4442   */\n      dup2\n        /* \"#utility.yul\":4422:4443   */\n      tag_75\n      jump\t// in\n    tag_144:\n        /* \"#utility.yul\":4417:4420   */\n      dup3\n        /* \"#utility.yul\":4410:4444   */\n      mstore\n        /* \"#utility.yul\":4341:4450   */\n      pop\n      pop\n      jump\t// out\n        /* \"#utility.yul\":4456:4666   */\n    tag_16:\n        /* \"#utility.yul\":4543:4547   */\n      0x00\n        /* \"#utility.yul\":4581:4583   */\n      0x20\n        /* \"#utility.yul\":4570:4579   */\n      dup3\n        /* \"#utility.yul\":4566:4584   */\n      add\n        /* \"#utility.yul\":4558:4584   */\n      swap1\n      pop\n        /* \"#utility.yul\":4594:4659   */\n      tag_146\n        /* \"#utility.yul\":4656:4657   */\n      0x00\n        /* \"#utility.yul\":4645:4654   */\n      dup4\n        /* \"#utility.yul\":4641:4658   */\n      add\n        /* \"#utility.yul\":4632:4638   */\n      dup5\n        /* \"#utility.yul\":4594:4659   */\n      tag_76\n      jump\t// in\n    tag_146:\n        /* \"#utility.yul\":4456:4666   */\n      swap3\n      swap2\n      pop\n      pop\n      jump\t// out\n        /* \"#utility.yul\":4672:4811   */\n    tag_77:\n        /* \"#utility.yul\":4735:4744   */\n      0x00\n        /* \"#utility.yul\":4768:4805   */\n      tag_148\n        /* \"#utility.yul\":4799:4804   */\n      dup3\n        /* \"#utility.yul\":4768:4805   */\n      tag_59\n      jump\t// in\n    tag_148:\n        /* \"#utility.yul\":4755:4805   */\n      swap1\n      pop\n        /* \"#utility.yul\":4672:4811   */\n      swap2\n      swap1\n      pop\n      jump\t// out\n        /* \"#utility.yul\":4817:4974   */\n    tag_78:\n        /* \"#utility.yul\":4917:4967   */\n      tag_150\n        /* \"#utility.yul\":4961:4966   */\n      dup2\n        /* \"#utility.yul\":4917:4967   */\n      tag_77\n      jump\t// in\n    tag_150:\n        /* \"#utility.yul\":4912:4915   */\n      dup3\n        /* \"#utility.yul\":4905:4968   */\n      mstore\n        /* \"#utility.yul\":4817:4974   */\n      pop\n      pop\n      jump\t// out\n        /* \"#utility.yul\":4980:5228   */\n    tag_20:\n        /* \"#utility.yul\":5086:5090   */\n      0x00\n        /* \"#utility.yul\":5124:5126   */\n      0x20\n        /* \"#utility.yul\":5113:5122   */\n      dup3\n        /* \"#utility.yul\":5109:5127   */\n      add\n        /* \"#utility.yul\":5101:5127   */\n      swap1\n      pop\n        /* \"#utility.yul\":5137:5221   */\n      tag_152\n        /* \"#utility.yul\":5218:5219   */\n      0x00\n        /* \"#utility.yul\":5207:5216   */\n      dup4\n        /* \"#utility.yul\":5203:5220   */\n      add\n        /* \"#utility.yul\":5194:5200   */\n      dup5\n        /* \"#utility.yul\":5137:5221   */\n      tag_78\n      jump\t// in\n    tag_152:\n        /* \"#utility.yul\":4980:5228   */\n      swap3\n      swap2\n      pop\n      pop\n      jump\t// out\n        /* \"#utility.yul\":5234:5563   */\n    tag_23:\n        /* \"#utility.yul\":5293:5299   */\n      0x00\n        /* \"#utility.yul\":5342:5344   */\n      0x20\n        /* \"#utility.yul\":5330:5339   */\n      dup3\n        /* \"#utility.yul\":5321:5328   */\n      dup5\n        /* \"#utility.yul\":5317:5340   */\n      sub\n        /* \"#utility.yul\":5313:5345   */\n      slt\n        /* \"#utility.yul\":5310:5429   */\n      iszero\n      tag_154\n      jumpi\n        /* \"#utility.yul\":5348:5427   */\n      tag_155\n      tag_63\n      jump\t// in\n    tag_155:\n        /* \"#utility.yul\":5310:5429   */\n    tag_154:\n        /* \"#utility.yul\":5468:5469   */\n      0x00\n        /* \"#utility.yul\":5493:5546   */\n      tag_156\n        /* \"#utility.yul\":5538:5545   */\n      dup5\n        /* \"#utility.yul\":5529:5535   */\n      dup3\n        /* \"#utility.yul\":5518:5527   */\n      dup6\n        /* \"#utility.yul\":5514:5536   */\n      add\n        /* \"#utility.yul\":5493:5546   */\n      tag_70\n      jump\t// in\n    tag_156:\n        /* \"#utility.yul\":5483:5546   */\n      swap2\n      pop\n        /* \"#utility.yul\":5439:5556   */\n      pop\n        /* \"#utility.yul\":5234:5563   */\n      swap3\n      swap2\n      pop\n      pop\n      jump\t// out\n        /* \"#utility.yul\":5569:5749   */\n    tag_79:\n        /* \"#utility.yul\":5617:5694   */\n      0x4e487b7100000000000000000000000000000000000000000000000000000000\n        /* \"#utility.yul\":5614:5615   */\n      0x00\n        /* \"#utility.yul\":5607:5695   */\n      mstore\n        /* \"#utility.yul\":5714:5718   */\n      0x11\n        /* \"#utility.yul\":5711:5712   */\n      0x04\n        /* \"#utility.yul\":5704:5719   */\n      mstore\n        /* \"#utility.yul\":5738:5742   */\n      0x24\n        /* \"#utility.yul\":5735:5736   */\n      0x00\n        /* \"#utility.yul\":5728:5743   */\n      revert\n        /* \"#utility.yul\":5755:6060   */\n    tag_27:\n        /* \"#utility.yul\":5795:5798   */\n      0x00\n        /* \"#utility.yul\":5814:5834   */\n      tag_159\n        /* \"#utility.yul\":5832:5833   */\n      dup3\n        /* \"#utility.yul\":5814:5834   */\n      tag_68\n      jump\t// in\n    tag_159:\n        /* \"#utility.yul\":5809:5834   */\n      swap2\n      pop\n        /* \"#utility.yul\":5848:5868   */\n      tag_160\n        /* \"#utility.yul\":5866:5867   */\n      dup4\n        /* \"#utility.yul\":5848:5868   */\n      tag_68\n      jump\t// in\n    tag_160:\n        /* \"#utility.yul\":5843:5868   */\n      swap3\n      pop\n        /* \"#utility.yul\":6002:6003   */\n      dup3\n        /* \"#utility.yul\":5934:6000   */\n      0xffffffffffffffffffffffffffffffffffffffffffffffffffffffffffffffff\n        /* \"#utility.yul\":5930:6004   */\n      sub\n        /* \"#utility.yul\":5927:5928   */\n      dup3\n        /* \"#utility.yul\":5924:6005   */\n      gt\n        /* \"#utility.yul\":5921:6028   */\n      iszero\n      tag_161\n      jumpi\n        /* \"#utility.yul\":6008:6026   */\n      tag_162\n      tag_79\n      jump\t// in\n    tag_162:\n        /* \"#utility.yul\":5921:6028   */\n    tag_161:\n        /* \"#utility.yul\":6052:6053   */\n      dup3\n        /* \"#utility.yul\":6049:6050   */\n      dup3\n        /* \"#utility.yul\":6045:6054   */\n      add\n        /* \"#utility.yul\":6038:6054   */\n      swap1\n      pop\n        /* \"#utility.yul\":5755:6060   */\n      swap3\n      swap2\n      pop\n      pop\n      jump\t// out\n        /* \"#utility.yul\":6066:6184   */\n    tag_80:\n        /* \"#utility.yul\":6153:6177   */\n      tag_164\n        /* \"#utility.yul\":6171:6176   */\n      dup2\n        /* \"#utility.yul\":6153:6177   */\n      tag_65\n      jump\t// in\n    tag_164:\n        /* \"#utility.yul\":6148:6151   */\n      dup3\n        /* \"#utility.yul\":6141:6178   */\n      mstore\n        /* \"#utility.yul\":6066:6184   */\n      pop\n      pop\n      jump\t// out\n        /* \"#utility.yul\":6190:6308   */\n    tag_81:\n        /* \"#utility.yul\":6277:6301   */\n      tag_166\n        /* \"#utility.yul\":6295:6300   */\n      dup2\n        /* \"#utility.yul\":6277:6301   */\n      tag_68\n      jump\t// in\n    tag_166:\n        /* \"#utility.yul\":6272:6275   */\n      dup3\n        /* \"#utility.yul\":6265:6302   */\n      mstore\n        /* \"#utility.yul\":6190:6308   */\n      pop\n      pop\n      jump\t// out\n        /* \"#utility.yul\":6314:6646   */\n    tag_29:\n        /* \"#utility.yul\":6435:6439   */\n      0x00\n        /* \"#utility.yul\":6473:6475   */\n      0x40\n        /* \"#utility.yul\":6462:6471   */\n      dup3\n        /* \"#utility.yul\":6458:6476   */\n      add\n        /* \"#utility.yul\":6450:6476   */\n      swap1\n      pop\n        /* \"#utility.yul\":6486:6557   */\n      tag_168\n        /* \"#utility.yul\":6554:6555   */\n      0x00\n        /* \"#utility.yul\":6543:6552   */\n      dup4\n        /* \"#utility.yul\":6539:6556   */\n      add\n        /* \"#utility.yul\":6530:6536   */\n      dup6\n        /* \"#utility.yul\":6486:6557   */\n      tag_80\n      jump\t// in\n    tag_168:\n        /* \"#utility.yul\":6567:6639   */\n      tag_169\n        /* \"#utility.yul\":6635:6637   */\n      0x20\n        /* \"#utility.yul\":6624:6633   */\n      dup4\n        /* \"#utility.yul\":6620:6638   */\n      add\n        /* \"#utility.yul\":6611:6617   */\n      dup5\n        /* \"#utility.yul\":6567:6639   */\n      tag_81\n      jump\t// in\n    tag_169:\n        /* \"#utility.yul\":6314:6646   */\n      swap4\n      swap3\n      pop\n      pop\n      pop\n      jump\t// out\n        /* \"#utility.yul\":6652:6768   */\n    tag_82:\n        /* \"#utility.yul\":6722:6743   */\n      tag_171\n        /* \"#utility.yul\":6737:6742   */\n      dup2\n        /* \"#utility.yul\":6722:6743   */\n      tag_75\n      jump\t// in\n    tag_171:\n        /* \"#utility.yul\":6715:6720   */\n      dup2\n        /* \"#utility.yul\":6712:6744   */\n      eq\n        /* \"#utility.yul\":6702:6762   */\n      tag_172\n      jumpi\n        /* \"#utility.yul\":6758:6759   */\n      0x00\n        /* \"#utility.yul\":6755:6756   */\n      dup1\n        /* \"#utility.yul\":6748:6760   */\n      revert\n        /* \"#utility.yul\":6702:6762   */\n    tag_172:\n        /* \"#utility.yul\":6652:6768   */\n      pop\n      jump\t// out\n        /* \"#utility.yul\":6774:6911   */\n    tag_83:\n        /* \"#utility.yul\":6828:6833   */\n      0x00\n        /* \"#utility.yul\":6859:6865   */\n      dup2\n        /* \"#utility.yul\":6853:6866   */\n      mload\n        /* \"#utility.yul\":6844:6866   */\n      swap1\n      pop\n        /* \"#utility.yul\":6875:6905   */\n      tag_174\n        /* \"#utility.yul\":6899:6904   */\n      dup2\n        /* \"#utility.yul\":6875:6905   */\n      tag_82\n      jump\t// in\n    tag_174:\n        /* \"#utility.yul\":6774:6911   */\n      swap3\n      swap2\n      pop\n      pop\n      jump\t// out\n        /* \"#utility.yul\":6917:7262   */\n    tag_33:\n        /* \"#utility.yul\":6984:6990   */\n      0x00\n        /* \"#utility.yul\":7033:7035   */\n      0x20\n        /* \"#utility.yul\":7021:7030   */\n      dup3\n        /* \"#utility.yul\":7012:7019   */\n      dup5\n        /* \"#utility.yul\":7008:7031   */\n      sub\n        /* \"#utility.yul\":7004:7036   */\n      slt\n        /* \"#utility.yul\":7001:7120   */\n      iszero\n      tag_176\n      jumpi\n        /* \"#utility.yul\":7039:7118   */\n      tag_177\n      tag_63\n      jump\t// in\n    tag_177:\n        /* \"#utility.yul\":7001:7120   */\n    tag_176:\n        /* \"#utility.yul\":7159:7160   */\n      0x00\n        /* \"#utility.yul\":7184:7245   */\n      tag_178\n        /* \"#utility.yul\":7237:7244   */\n      dup5\n        /* \"#utility.yul\":7228:7234   */\n      dup3\n        /* \"#utility.yul\":7217:7226   */\n      dup6\n        /* \"#utility.yul\":7213:7235   */\n      add\n        /* \"#utility.yul\":7184:7245   */\n      tag_83\n      jump\t// in\n    tag_178:\n        /* \"#utility.yul\":7174:7245   */\n      swap2\n      pop\n        /* \"#utility.yul\":7130:7255   */\n      pop\n        /* \"#utility.yul\":6917:7262   */\n      swap3\n      swap2\n      pop\n      pop\n      jump\t// out\n        /* \"#utility.yul\":7268:7366   */\n    tag_84:\n        /* \"#utility.yul\":7319:7325   */\n      0x00\n        /* \"#utility.yul\":7353:7358   */\n      dup2\n        /* \"#utility.yul\":7347:7359   */\n      mload\n        /* \"#utility.yul\":7337:7359   */\n      swap1\n      pop\n        /* \"#utility.yul\":7268:7366   */\n      swap2\n      swap1\n      pop\n      jump\t// out\n        /* \"#utility.yul\":7372:7540   */\n    tag_85:\n        /* \"#utility.yul\":7455:7466   */\n      0x00\n        /* \"#utility.yul\":7489:7495   */\n      dup3\n        /* \"#utility.yul\":7484:7487   */\n      dup3\n        /* \"#utility.yul\":7477:7496   */\n      mstore\n        /* \"#utility.yul\":7529:7533   */\n      0x20\n        /* \"#utility.yul\":7524:7527   */\n      dup3\n        /* \"#utility.yul\":7520:7534   */\n      add\n        /* \"#utility.yul\":7505:7534   */\n      swap1\n      pop\n        /* \"#utility.yul\":7372:7540   */\n      swap3\n      swap2\n      pop\n      pop\n      jump\t// out\n        /* \"#utility.yul\":7546:7853   */\n    tag_86:\n        /* \"#utility.yul\":7614:7615   */\n      0x00\n        /* \"#utility.yul\":7624:7737   */\n    tag_182:\n        /* \"#utility.yul\":7638:7644   */\n      dup4\n        /* \"#utility.yul\":7635:7636   */\n      dup2\n        /* \"#utility.yul\":7632:7645   */\n      lt\n        /* \"#utility.yul\":7624:7737   */\n      iszero\n      tag_184\n      jumpi\n        /* \"#utility.yul\":7723:7724   */\n      dup1\n        /* \"#utility.yul\":7718:7721   */\n      dup3\n        /* \"#utility.yul\":7714:7725   */\n      add\n        /* \"#utility.yul\":7708:7726   */\n      mload\n        /* \"#utility.yul\":7704:7705   */\n      dup2\n        /* \"#utility.yul\":7699:7702   */\n      dup5\n        /* \"#utility.yul\":7695:7706   */\n      add\n        /* \"#utility.yul\":7688:7727   */\n      mstore\n        /* \"#utility.yul\":7660:7662   */\n      0x20\n        /* \"#utility.yul\":7657:7658   */\n      dup2\n        /* \"#utility.yul\":7653:7663   */\n      add\n        /* \"#utility.yul\":7648:7663   */\n      swap1\n      pop\n        /* \"#utility.yul\":7624:7737   */\n      jump(tag_182)\n    tag_184:\n        /* \"#utility.yul\":7755:7761   */\n      dup4\n        /* \"#utility.yul\":7752:7753   */\n      dup2\n        /* \"#utility.yul\":7749:7762   */\n      gt\n        /* \"#utility.yul\":7746:7847   */\n      iszero\n      tag_185\n      jumpi\n        /* \"#utility.yul\":7835:7836   */\n      0x00\n        /* \"#utility.yul\":7826:7832   */\n      dup5\n        /* \"#utility.yul\":7821:7824   */\n      dup5\n        /* \"#utility.yul\":7817:7833   */\n      add\n        /* \"#utility.yul\":7810:7837   */\n      mstore\n        /* \"#utility.yul\":7746:7847   */\n    tag_185:\n        /* \"#utility.yul\":7595:7853   */\n      pop\n        /* \"#utility.yul\":7546:7853   */\n      pop\n      pop\n      pop\n      jump\t// out\n        /* \"#utility.yul\":7859:7961   */\n    tag_87:\n        /* \"#utility.yul\":7900:7906   */\n      0x00\n        /* \"#utility.yul\":7951:7953   */\n      0x1f\n        /* \"#utility.yul\":7947:7954   */\n      not\n        /* \"#utility.yul\":7942:7944   */\n      0x1f\n        /* \"#utility.yul\":7935:7940   */\n      dup4\n        /* \"#utility.yul\":7931:7945   */\n      add\n        /* \"#utility.yul\":7927:7955   */\n      and\n        /* \"#utility.yul\":7917:7955   */\n      swap1\n      pop\n        /* \"#utility.yul\":7859:7961   */\n      swap2\n      swap1\n      pop\n      jump\t// out\n        /* \"#utility.yul\":7967:8327   */\n    tag_88:\n        /* \"#utility.yul\":8053:8056   */\n      0x00\n        /* \"#utility.yul\":8081:8119   */\n      tag_188\n        /* \"#utility.yul\":8113:8118   */\n      dup3\n        /* \"#utility.yul\":8081:8119   */\n      tag_84\n      jump\t// in\n    tag_188:\n        /* \"#utility.yul\":8135:8205   */\n      tag_189\n        /* \"#utility.yul\":8198:8204   */\n      dup2\n        /* \"#utility.yul\":8193:8196   */\n      dup6\n        /* \"#utility.yul\":8135:8205   */\n      tag_85\n      jump\t// in\n    tag_189:\n        /* \"#utility.yul\":8128:8205   */\n      swap4\n      pop\n        /* \"#utility.yul\":8214:8266   */\n      tag_190\n        /* \"#utility.yul\":8259:8265   */\n      dup2\n        /* \"#utility.yul\":8254:8257   */\n      dup6\n        /* \"#utility.yul\":8247:8251   */\n      0x20\n        /* \"#utility.yul\":8240:8245   */\n      dup7\n        /* \"#utility.yul\":8236:8252   */\n      add\n        /* \"#utility.yul\":8214:8266   */\n      tag_86\n      jump\t// in\n    tag_190:\n        /* \"#utility.yul\":8291:8320   */\n      tag_191\n        /* \"#utility.yul\":8313:8319   */\n      dup2\n        /* \"#utility.yul\":8291:8320   */\n      tag_87\n      jump\t// in\n    tag_191:\n        /* \"#utility.yul\":8286:8289   */\n      dup5\n        /* \"#utility.yul\":8282:8321   */\n      add\n        /* \"#utility.yul\":8275:8321   */\n      swap2\n      pop\n        /* \"#utility.yul\":8057:8327   */\n      pop\n        /* \"#utility.yul\":7967:8327   */\n      swap3\n      swap2\n      pop\n      pop\n      jump\t// out\n        /* \"#utility.yul\":8333:8422   */\n    tag_89:\n        /* \"#utility.yul\":8369:8376   */\n      0x00\n        /* \"#utility.yul\":8409:8415   */\n      0xffff\n        /* \"#utility.yul\":8402:8407   */\n      dup3\n        /* \"#utility.yul\":8398:8416   */\n      and\n        /* \"#utility.yul\":8387:8416   */\n      swap1\n      pop\n        /* \"#utility.yul\":8333:8422   */\n      swap2\n      swap1\n      pop\n      jump\t// out\n        /* \"#utility.yul\":8428:8543   */\n    tag_90:\n        /* \"#utility.yul\":8513:8536   */\n      tag_194\n        /* \"#utility.yul\":8530:8535   */\n      dup2\n        /* \"#utility.yul\":8513:8536   */\n      tag_89\n      jump\t// in\n    tag_194:\n        /* \"#utility.yul\":8508:8511   */\n      dup3\n        /* \"#utility.yul\":8501:8537   */\n      mstore\n        /* \"#utility.yul\":8428:8543   */\n      pop\n      pop\n      jump\t// out\n        /* \"#utility.yul\":8549:9296   */\n    tag_52:\n        /* \"#utility.yul\":8770:8774   */\n      0x00\n        /* \"#utility.yul\":8808:8811   */\n      0xa0\n        /* \"#utility.yul\":8797:8806   */\n      dup3\n        /* \"#utility.yul\":8793:8812   */\n      add\n        /* \"#utility.yul\":8785:8812   */\n      swap1\n      pop\n        /* \"#utility.yul\":8822:8893   */\n      tag_196\n        /* \"#utility.yul\":8890:8891   */\n      0x00\n        /* \"#utility.yul\":8879:8888   */\n      dup4\n        /* \"#utility.yul\":8875:8892   */\n      add\n        /* \"#utility.yul\":8866:8872   */\n      dup9\n        /* \"#utility.yul\":8822:8893   */\n      tag_80\n      jump\t// in\n    tag_196:\n        /* \"#utility.yul\":8903:8975   */\n      tag_197\n        /* \"#utility.yul\":8971:8973   */\n      0x20\n        /* \"#utility.yul\":8960:8969   */\n      dup4\n        /* \"#utility.yul\":8956:8974   */\n      add\n        /* \"#utility.yul\":8947:8953   */\n      dup8\n        /* \"#utility.yul\":8903:8975   */\n      tag_80\n      jump\t// in\n    tag_197:\n        /* \"#utility.yul\":8985:9057   */\n      tag_198\n        /* \"#utility.yul\":9053:9055   */\n      0x40\n        /* \"#utility.yul\":9042:9051   */\n      dup4\n        /* \"#utility.yul\":9038:9056   */\n      add\n        /* \"#utility.yul\":9029:9035   */\n      dup7\n        /* \"#utility.yul\":8985:9057   */\n      tag_81\n      jump\t// in\n    tag_198:\n        /* \"#utility.yul\":9104:9113   */\n      dup2\n        /* \"#utility.yul\":9098:9102   */\n      dup2\n        /* \"#utility.yul\":9094:9114   */\n      sub\n        /* \"#utility.yul\":9089:9091   */\n      0x60\n        /* \"#utility.yul\":9078:9087   */\n      dup4\n        /* \"#utility.yul\":9074:9092   */\n      add\n        /* \"#utility.yul\":9067:9115   */\n      mstore\n        /* \"#utility.yul\":9132:9208   */\n      tag_199\n        /* \"#utility.yul\":9203:9207   */\n      dup2\n        /* \"#utility.yul\":9194:9200   */\n      dup6\n        /* \"#utility.yul\":9132:9208   */\n      tag_88\n      jump\t// in\n    tag_199:\n        /* \"#utility.yul\":9124:9208   */\n      swap1\n      pop\n        /* \"#utility.yul\":9218:9289   */\n      tag_200\n        /* \"#utility.yul\":9284:9287   */\n      0x80\n        /* \"#utility.yul\":9273:9282   */\n      dup4\n        /* \"#utility.yul\":9269:9288   */\n      add\n        /* \"#utility.yul\":9260:9266   */\n      dup5\n        /* \"#utility.yul\":9218:9289   */\n      tag_90\n      jump\t// in\n    tag_200:\n        /* \"#utility.yul\":8549:9296   */\n      swap7\n      swap6\n      pop\n      pop\n      pop\n      pop\n      pop\n      pop\n      jump\t// out\n\n    auxdata: 0xa264697066735822122019621de4f64d50c8a9a9ba4e1f1b9cb8f74f02c7386f4327fd56c4e5c6da437f64736f6c634300080a0033\n}\n",
				"bytecode": {
					"linkReferences": {},
					"object": "60c0604052737a250d5630b4cf539739df2c5dacb4c659f2488d6000806101000a81548173ffffffffffffffffffffffffffffffffffffffff021916908373ffffffffffffffffffffffffffffffffffffffff160217905550735c69bee701ef814a2b6a3edd4b1652cb9cc5aa6f600160006101000a81548173ffffffffffffffffffffffffffffffffffffffff021916908373ffffffffffffffffffffffffffffffffffffffff16021790555073c36442b4a4522e871399cd717abdd847ab11fe88600260006101000a81548173ffffffffffffffffffffffffffffffffffffffff021916908373ffffffffffffffffffffffffffffffffffffffff160217905550731f98431c8ad98523631ae4a59f267346ea31f984600360006101000a81548173ffffffffffffffffffffffffffffffffffffffff021916908373ffffffffffffffffffffffffffffffffffffffff1602179055507368b3465833fb72a70ecdf485e0e4c7bd8665fc45600460006101000a81548173ffffffffffffffffffffffffffffffffffffffff021916908373ffffffffffffffffffffffffffffffffffffffff160217905550738ca302e2b04ecdb5d14cced580a379b40e8ed8b7600560006101000a81548173ffffffffffffffffffffffffffffffffffffffff021916908373ffffffffffffffffffffffffffffffffffffffff16021790555073a36085f69e2889c224210f603d836748e7dc0088600660006101000a81548173ffffffffffffffffffffffffffffffffffffffff021916908373ffffffffffffffffffffffffffffffffffffffff1602179055507369f9e353f7411479912d2e9f3e436ae83486c17b600760006101000a81548173ffffffffffffffffffffffffffffffffffffffff021916908373ffffffffffffffffffffffffffffffffffffffff160217905550612ad16008557387b1f4cf9bd63f7bbd3ee1ad04e8f52540349347600960006101000a81548173ffffffffffffffffffffffffffffffffffffffff021916908373ffffffffffffffffffffffffffffffffffffffff1602179055507388757f2f99175387ab4c6a4b3067c77a695b0349600a60006101000a81548173ffffffffffffffffffffffffffffffffffffffff021916908373ffffffffffffffffffffffffffffffffffffffff160217905550732646fcf7f0abb1ff279ed9845ade04019c907ebe600b60006101000a81548173ffffffffffffffffffffffffffffffffffffffff021916908373ffffffffffffffffffffffffffffffffffffffff16021790555060008054906101000a900473ffffffffffffffffffffffffffffffffffffffff16600c60006101000a81548173ffffffffffffffffffffffffffffffffffffffff021916908373ffffffffffffffffffffffffffffffffffffffff160217905550600460009054906101000a900473ffffffffffffffffffffffffffffffffffffffff16600d60006101000a81548173ffffffffffffffffffffffffffffffffffffffff021916908373ffffffffffffffffffffffffffffffffffffffff160217905550600560009054906101000a900473ffffffffffffffffffffffffffffffffffffffff16600e60006101000a81548173ffffffffffffffffffffffffffffffffffffffff021916908373ffffffffffffffffffffffffffffffffffffffff160217905550600660009054906101000a900473ffffffffffffffffffffffffffffffffffffffff16600f60006101000a81548173ffffffffffffffffffffffffffffffffffffffff021916908373ffffffffffffffffffffffffffffffffffffffff16021790555034801561054657600080fd5b5073a55125a90d75a95ec00130e8e8c197db5641eb1973ffffffffffffffffffffffffffffffffffffffff1660808173ffffffffffffffffffffffffffffffffffffffff1681525050732646fcf7f0abb1ff279ed9845ade04019c907ebe73ffffffffffffffffffffffffffffffffffffffff1660a08173ffffffffffffffffffffffffffffffffffffffff168152505060805160a051610b1b6106096000396000818161012c015281816101be01526105610152600060db0152610b1b6000f3fe608060405234801561001057600080fd5b506004361061004c5760003560e01c80630542975c146100515780631b11d0ff1461006f5780637535d2461461009f578063c4a50233146100bd575b600080fd5b6100596100d9565b6040516100669190610679565b60405180910390f35b61008960048036038101906100849190610777565b6100fd565b604051610096919061082c565b60405180910390f35b6100a76101bc565b6040516100b49190610868565b60405180910390f35b6100d760048036038101906100d29190610883565b6101e0565b005b7f000000000000000000000000000000000000000000000000000000000000000081565b600080858761010c91906108df565b90508773ffffffffffffffffffffffffffffffffffffffff1663095ea7b37f0000000000000000000000000000000000000000000000000000000000000000836040518363ffffffff1660e01b8152600401610169929190610953565b6020604051808303816000875af1158015610188573d6000803e3d6000fd5b505050506040513d601f19601f820116820180604052508101906101ac91906109a8565b5060019150509695505050505050565b7f000000000000000000000000000000000000000000000000000000000000000081565b60003090506000600660009054906101000a900473ffffffffffffffffffffffffffffffffffffffff169050600083905060006040518060200160405280600081525090506000600e60009054906101000a900473ffffffffffffffffffffffffffffffffffffffff1673ffffffffffffffffffffffffffffffffffffffff1663095ea7b3600c60009054906101000a900473ffffffffffffffffffffffffffffffffffffffff166a52b7d2dcc80cd2e40000006040518363ffffffff1660e01b81526004016102b1929190610953565b6020604051808303816000875af11580156102d0573d6000803e3d6000fd5b505050506040513d601f19601f820116820180604052508101906102f491906109a8565b50600e60009054906101000a900473ffffffffffffffffffffffffffffffffffffffff1673ffffffffffffffffffffffffffffffffffffffff1663095ea7b3600d60009054906101000a900473ffffffffffffffffffffffffffffffffffffffff166a52b7d2dcc80cd2e40000006040518363ffffffff1660e01b815260040161037f929190610953565b6020604051808303816000875af115801561039e573d6000803e3d6000fd5b505050506040513d601f19601f820116820180604052508101906103c291906109a8565b50600f60009054906101000a900473ffffffffffffffffffffffffffffffffffffffff1673ffffffffffffffffffffffffffffffffffffffff1663095ea7b3600c60009054906101000a900473ffffffffffffffffffffffffffffffffffffffff166a52b7d2dcc80cd2e40000006040518363ffffffff1660e01b815260040161044d929190610953565b6020604051808303816000875af115801561046c573d6000803e3d6000fd5b505050506040513d601f19601f8201168201806040525081019061049091906109a8565b50600f60009054906101000a900473ffffffffffffffffffffffffffffffffffffffff1673ffffffffffffffffffffffffffffffffffffffff1663095ea7b3600d60009054906101000a900473ffffffffffffffffffffffffffffffffffffffff166a52b7d2dcc80cd2e40000006040518363ffffffff1660e01b815260040161051b929190610953565b6020604051808303816000875af115801561053a573d6000803e3d6000fd5b505050506040513d601f19601f8201168201806040525081019061055e91906109a8565b507f000000000000000000000000000000000000000000000000000000000000000073ffffffffffffffffffffffffffffffffffffffff166342b0b77c86868686866040518663ffffffff1660e01b81526004016105c0959493929190610a8b565b600060405180830381600087803b1580156105da57600080fd5b505af11580156105ee573d6000803e3d6000fd5b50505050505050505050565b600073ffffffffffffffffffffffffffffffffffffffff82169050919050565b6000819050919050565b600061063f61063a610635846105fa565b61061a565b6105fa565b9050919050565b600061065182610624565b9050919050565b600061066382610646565b9050919050565b61067381610658565b82525050565b600060208201905061068e600083018461066a565b92915050565b600080fd5b600080fd5b60006106a9826105fa565b9050919050565b6106b98161069e565b81146106c457600080fd5b50565b6000813590506106d6816106b0565b92915050565b6000819050919050565b6106ef816106dc565b81146106fa57600080fd5b50565b60008135905061070c816106e6565b92915050565b600080fd5b600080fd5b600080fd5b60008083601f84011261073757610736610712565b5b8235905067ffffffffffffffff81111561075457610753610717565b5b6020830191508360018202830111156107705761076f61071c565b5b9250929050565b60008060008060008060a0878903121561079457610793610694565b5b60006107a289828a016106c7565b96505060206107b389828a016106fd565b95505060406107c489828a016106fd565b94505060606107d589828a016106c7565b935050608087013567ffffffffffffffff8111156107f6576107f5610699565b5b61080289828a01610721565b92509250509295509295509295565b60008115159050919050565b61082681610811565b82525050565b6000602082019050610841600083018461081d565b92915050565b600061085282610646565b9050919050565b61086281610847565b82525050565b600060208201905061087d6000830184610859565b92915050565b60006020828403121561089957610898610694565b5b60006108a7848285016106fd565b91505092915050565b7f4e487b7100000000000000000000000000000000000000000000000000000000600052601160045260246000fd5b60006108ea826106dc565b91506108f5836106dc565b9250827fffffffffffffffffffffffffffffffffffffffffffffffffffffffffffffffff0382111561092a576109296108b0565b5b828201905092915050565b61093e8161069e565b82525050565b61094d816106dc565b82525050565b60006040820190506109686000830185610935565b6109756020830184610944565b9392505050565b61098581610811565b811461099057600080fd5b50565b6000815190506109a28161097c565b92915050565b6000602082840312156109be576109bd610694565b5b60006109cc84828501610993565b91505092915050565b600081519050919050565b600082825260208201905092915050565b60005b83811015610a0f5780820151818401526020810190506109f4565b83811115610a1e576000848401525b50505050565b6000601f19601f8301169050919050565b6000610a40826109d5565b610a4a81856109e0565b9350610a5a8185602086016109f1565b610a6381610a24565b840191505092915050565b600061ffff82169050919050565b610a8581610a6e565b82525050565b600060a082019050610aa06000830188610935565b610aad6020830187610935565b610aba6040830186610944565b8181036060830152610acc8185610a35565b9050610adb6080830184610a7c565b969550505050505056fea264697066735822122019621de4f64d50c8a9a9ba4e1f1b9cb8f74f02c7386f4327fd56c4e5c6da437f64736f6c634300080a0033",
					"opcodes": "PUSH1 0xC0 PUSH1 0x40 MSTORE PUSH20 0x7A250D5630B4CF539739DF2C5DACB4C659F2488D PUSH1 0x0 DUP1 PUSH2 0x100 EXP DUP2 SLOAD DUP2 PUSH20 0xFFFFFFFFFFFFFFFFFFFFFFFFFFFFFFFFFFFFFFFF MUL NOT AND SWAP1 DUP4 PUSH20 0xFFFFFFFFFFFFFFFFFFFFFFFFFFFFFFFFFFFFFFFF AND MUL OR SWAP1 SSTORE POP PUSH20 0x5C69BEE701EF814A2B6A3EDD4B1652CB9CC5AA6F PUSH1 0x1 PUSH1 0x0 PUSH2 0x100 EXP DUP2 SLOAD DUP2 PUSH20 0xFFFFFFFFFFFFFFFFFFFFFFFFFFFFFFFFFFFFFFFF MUL NOT AND SWAP1 DUP4 PUSH20 0xFFFFFFFFFFFFFFFFFFFFFFFFFFFFFFFFFFFFFFFF AND MUL OR SWAP1 SSTORE POP PUSH20 0xC36442B4A4522E871399CD717ABDD847AB11FE88 PUSH1 0x2 PUSH1 0x0 PUSH2 0x100 EXP DUP2 SLOAD DUP2 PUSH20 0xFFFFFFFFFFFFFFFFFFFFFFFFFFFFFFFFFFFFFFFF MUL NOT AND SWAP1 DUP4 PUSH20 0xFFFFFFFFFFFFFFFFFFFFFFFFFFFFFFFFFFFFFFFF AND MUL OR SWAP1 SSTORE POP PUSH20 0x1F98431C8AD98523631AE4A59F267346EA31F984 PUSH1 0x3 PUSH1 0x0 PUSH2 0x100 EXP DUP2 SLOAD DUP2 PUSH20 0xFFFFFFFFFFFFFFFFFFFFFFFFFFFFFFFFFFFFFFFF MUL NOT AND SWAP1 DUP4 PUSH20 0xFFFFFFFFFFFFFFFFFFFFFFFFFFFFFFFFFFFFFFFF AND MUL OR SWAP1 SSTORE POP PUSH20 0x68B3465833FB72A70ECDF485E0E4C7BD8665FC45 PUSH1 0x4 PUSH1 0x0 PUSH2 0x100 EXP DUP2 SLOAD DUP2 PUSH20 0xFFFFFFFFFFFFFFFFFFFFFFFFFFFFFFFFFFFFFFFF MUL NOT AND SWAP1 DUP4 PUSH20 0xFFFFFFFFFFFFFFFFFFFFFFFFFFFFFFFFFFFFFFFF AND MUL OR SWAP1 SSTORE POP PUSH20 0x8CA302E2B04ECDB5D14CCED580A379B40E8ED8B7 PUSH1 0x5 PUSH1 0x0 PUSH2 0x100 EXP DUP2 SLOAD DUP2 PUSH20 0xFFFFFFFFFFFFFFFFFFFFFFFFFFFFFFFFFFFFFFFF MUL NOT AND SWAP1 DUP4 PUSH20 0xFFFFFFFFFFFFFFFFFFFFFFFFFFFFFFFFFFFFFFFF AND MUL OR SWAP1 SSTORE POP PUSH20 0xA36085F69E2889C224210F603D836748E7DC0088 PUSH1 0x6 PUSH1 0x0 PUSH2 0x100 EXP DUP2 SLOAD DUP2 PUSH20 0xFFFFFFFFFFFFFFFFFFFFFFFFFFFFFFFFFFFFFFFF MUL NOT AND SWAP1 DUP4 PUSH20 0xFFFFFFFFFFFFFFFFFFFFFFFFFFFFFFFFFFFFFFFF AND MUL OR SWAP1 SSTORE POP PUSH20 0x69F9E353F7411479912D2E9F3E436AE83486C17B PUSH1 0x7 PUSH1 0x0 PUSH2 0x100 EXP DUP2 SLOAD DUP2 PUSH20 0xFFFFFFFFFFFFFFFFFFFFFFFFFFFFFFFFFFFFFFFF MUL NOT AND SWAP1 DUP4 PUSH20 0xFFFFFFFFFFFFFFFFFFFFFFFFFFFFFFFFFFFFFFFF AND MUL OR SWAP1 SSTORE POP PUSH2 0x2AD1 PUSH1 0x8 SSTORE PUSH20 0x87B1F4CF9BD63F7BBD3EE1AD04E8F52540349347 PUSH1 0x9 PUSH1 0x0 PUSH2 0x100 EXP DUP2 SLOAD DUP2 PUSH20 0xFFFFFFFFFFFFFFFFFFFFFFFFFFFFFFFFFFFFFFFF MUL NOT AND SWAP1 DUP4 PUSH20 0xFFFFFFFFFFFFFFFFFFFFFFFFFFFFFFFFFFFFFFFF AND MUL OR SWAP1 SSTORE POP PUSH20 0x88757F2F99175387AB4C6A4B3067C77A695B0349 PUSH1 0xA PUSH1 0x0 PUSH2 0x100 EXP DUP2 SLOAD DUP2 PUSH20 0xFFFFFFFFFFFFFFFFFFFFFFFFFFFFFFFFFFFFFFFF MUL NOT AND SWAP1 DUP4 PUSH20 0xFFFFFFFFFFFFFFFFFFFFFFFFFFFFFFFFFFFFFFFF AND MUL OR SWAP1 SSTORE POP PUSH20 0x2646FCF7F0ABB1FF279ED9845ADE04019C907EBE PUSH1 0xB PUSH1 0x0 PUSH2 0x100 EXP DUP2 SLOAD DUP2 PUSH20 0xFFFFFFFFFFFFFFFFFFFFFFFFFFFFFFFFFFFFFFFF MUL NOT AND SWAP1 DUP4 PUSH20 0xFFFFFFFFFFFFFFFFFFFFFFFFFFFFFFFFFFFFFFFF AND MUL OR SWAP1 SSTORE POP PUSH1 0x0 DUP1 SLOAD SWAP1 PUSH2 0x100 EXP SWAP1 DIV PUSH20 0xFFFFFFFFFFFFFFFFFFFFFFFFFFFFFFFFFFFFFFFF AND PUSH1 0xC PUSH1 0x0 PUSH2 0x100 EXP DUP2 SLOAD DUP2 PUSH20 0xFFFFFFFFFFFFFFFFFFFFFFFFFFFFFFFFFFFFFFFF MUL NOT AND SWAP1 DUP4 PUSH20 0xFFFFFFFFFFFFFFFFFFFFFFFFFFFFFFFFFFFFFFFF AND MUL OR SWAP1 SSTORE POP PUSH1 0x4 PUSH1 0x0 SWAP1 SLOAD SWAP1 PUSH2 0x100 EXP SWAP1 DIV PUSH20 0xFFFFFFFFFFFFFFFFFFFFFFFFFFFFFFFFFFFFFFFF AND PUSH1 0xD PUSH1 0x0 PUSH2 0x100 EXP DUP2 SLOAD DUP2 PUSH20 0xFFFFFFFFFFFFFFFFFFFFFFFFFFFFFFFFFFFFFFFF MUL NOT AND SWAP1 DUP4 PUSH20 0xFFFFFFFFFFFFFFFFFFFFFFFFFFFFFFFFFFFFFFFF AND MUL OR SWAP1 SSTORE POP PUSH1 0x5 PUSH1 0x0 SWAP1 SLOAD SWAP1 PUSH2 0x100 EXP SWAP1 DIV PUSH20 0xFFFFFFFFFFFFFFFFFFFFFFFFFFFFFFFFFFFFFFFF AND PUSH1 0xE PUSH1 0x0 PUSH2 0x100 EXP DUP2 SLOAD DUP2 PUSH20 0xFFFFFFFFFFFFFFFFFFFFFFFFFFFFFFFFFFFFFFFF MUL NOT AND SWAP1 DUP4 PUSH20 0xFFFFFFFFFFFFFFFFFFFFFFFFFFFFFFFFFFFFFFFF AND MUL OR SWAP1 SSTORE POP PUSH1 0x6 PUSH1 0x0 SWAP1 SLOAD SWAP1 PUSH2 0x100 EXP SWAP1 DIV PUSH20 0xFFFFFFFFFFFFFFFFFFFFFFFFFFFFFFFFFFFFFFFF AND PUSH1 0xF PUSH1 0x0 PUSH2 0x100 EXP DUP2 SLOAD DUP2 PUSH20 0xFFFFFFFFFFFFFFFFFFFFFFFFFFFFFFFFFFFFFFFF MUL NOT AND SWAP1 DUP4 PUSH20 0xFFFFFFFFFFFFFFFFFFFFFFFFFFFFFFFFFFFFFFFF AND MUL OR SWAP1 SSTORE POP CALLVALUE DUP1 ISZERO PUSH2 0x546 JUMPI PUSH1 0x0 DUP1 REVERT JUMPDEST POP PUSH20 0xA55125A90D75A95EC00130E8E8C197DB5641EB19 PUSH20 0xFFFFFFFFFFFFFFFFFFFFFFFFFFFFFFFFFFFFFFFF AND PUSH1 0x80 DUP2 PUSH20 0xFFFFFFFFFFFFFFFFFFFFFFFFFFFFFFFFFFFFFFFF AND DUP2 MSTORE POP POP PUSH20 0x2646FCF7F0ABB1FF279ED9845ADE04019C907EBE PUSH20 0xFFFFFFFFFFFFFFFFFFFFFFFFFFFFFFFFFFFFFFFF AND PUSH1 0xA0 DUP2 PUSH20 0xFFFFFFFFFFFFFFFFFFFFFFFFFFFFFFFFFFFFFFFF AND DUP2 MSTORE POP POP PUSH1 0x80 MLOAD PUSH1 0xA0 MLOAD PUSH2 0xB1B PUSH2 0x609 PUSH1 0x0 CODECOPY PUSH1 0x0 DUP2 DUP2 PUSH2 0x12C ADD MSTORE DUP2 DUP2 PUSH2 0x1BE ADD MSTORE PUSH2 0x561 ADD MSTORE PUSH1 0x0 PUSH1 0xDB ADD MSTORE PUSH2 0xB1B PUSH1 0x0 RETURN INVALID PUSH1 0x80 PUSH1 0x40 MSTORE CALLVALUE DUP1 ISZERO PUSH2 0x10 JUMPI PUSH1 0x0 DUP1 REVERT JUMPDEST POP PUSH1 0x4 CALLDATASIZE LT PUSH2 0x4C JUMPI PUSH1 0x0 CALLDATALOAD PUSH1 0xE0 SHR DUP1 PUSH4 0x542975C EQ PUSH2 0x51 JUMPI DUP1 PUSH4 0x1B11D0FF EQ PUSH2 0x6F JUMPI DUP1 PUSH4 0x7535D246 EQ PUSH2 0x9F JUMPI DUP1 PUSH4 0xC4A50233 EQ PUSH2 0xBD JUMPI JUMPDEST PUSH1 0x0 DUP1 REVERT JUMPDEST PUSH2 0x59 PUSH2 0xD9 JUMP JUMPDEST PUSH1 0x40 MLOAD PUSH2 0x66 SWAP2 SWAP1 PUSH2 0x679 JUMP JUMPDEST PUSH1 0x40 MLOAD DUP1 SWAP2 SUB SWAP1 RETURN JUMPDEST PUSH2 0x89 PUSH1 0x4 DUP1 CALLDATASIZE SUB DUP2 ADD SWAP1 PUSH2 0x84 SWAP2 SWAP1 PUSH2 0x777 JUMP JUMPDEST PUSH2 0xFD JUMP JUMPDEST PUSH1 0x40 MLOAD PUSH2 0x96 SWAP2 SWAP1 PUSH2 0x82C JUMP JUMPDEST PUSH1 0x40 MLOAD DUP1 SWAP2 SUB SWAP1 RETURN JUMPDEST PUSH2 0xA7 PUSH2 0x1BC JUMP JUMPDEST PUSH1 0x40 MLOAD PUSH2 0xB4 SWAP2 SWAP1 PUSH2 0x868 JUMP JUMPDEST PUSH1 0x40 MLOAD DUP1 SWAP2 SUB SWAP1 RETURN JUMPDEST PUSH2 0xD7 PUSH1 0x4 DUP1 CALLDATASIZE SUB DUP2 ADD SWAP1 PUSH2 0xD2 SWAP2 SWAP1 PUSH2 0x883 JUMP JUMPDEST PUSH2 0x1E0 JUMP JUMPDEST STOP JUMPDEST PUSH32 0x0 DUP2 JUMP JUMPDEST PUSH1 0x0 DUP1 DUP6 DUP8 PUSH2 0x10C SWAP2 SWAP1 PUSH2 0x8DF JUMP JUMPDEST SWAP1 POP DUP8 PUSH20 0xFFFFFFFFFFFFFFFFFFFFFFFFFFFFFFFFFFFFFFFF AND PUSH4 0x95EA7B3 PUSH32 0x0 DUP4 PUSH1 0x40 MLOAD DUP4 PUSH4 0xFFFFFFFF AND PUSH1 0xE0 SHL DUP2 MSTORE PUSH1 0x4 ADD PUSH2 0x169 SWAP3 SWAP2 SWAP1 PUSH2 0x953 JUMP JUMPDEST PUSH1 0x20 PUSH1 0x40 MLOAD DUP1 DUP4 SUB DUP2 PUSH1 0x0 DUP8 GAS CALL ISZERO DUP1 ISZERO PUSH2 0x188 JUMPI RETURNDATASIZE PUSH1 0x0 DUP1 RETURNDATACOPY RETURNDATASIZE PUSH1 0x0 REVERT JUMPDEST POP POP POP POP PUSH1 0x40 MLOAD RETURNDATASIZE PUSH1 0x1F NOT PUSH1 0x1F DUP3 ADD AND DUP3 ADD DUP1 PUSH1 0x40 MSTORE POP DUP2 ADD SWAP1 PUSH2 0x1AC SWAP2 SWAP1 PUSH2 0x9A8 JUMP JUMPDEST POP PUSH1 0x1 SWAP2 POP POP SWAP7 SWAP6 POP POP POP POP POP POP JUMP JUMPDEST PUSH32 0x0 DUP2 JUMP JUMPDEST PUSH1 0x0 ADDRESS SWAP1 POP PUSH1 0x0 PUSH1 0x6 PUSH1 0x0 SWAP1 SLOAD SWAP1 PUSH2 0x100 EXP SWAP1 DIV PUSH20 0xFFFFFFFFFFFFFFFFFFFFFFFFFFFFFFFFFFFFFFFF AND SWAP1 POP PUSH1 0x0 DUP4 SWAP1 POP PUSH1 0x0 PUSH1 0x40 MLOAD DUP1 PUSH1 0x20 ADD PUSH1 0x40 MSTORE DUP1 PUSH1 0x0 DUP2 MSTORE POP SWAP1 POP PUSH1 0x0 PUSH1 0xE PUSH1 0x0 SWAP1 SLOAD SWAP1 PUSH2 0x100 EXP SWAP1 DIV PUSH20 0xFFFFFFFFFFFFFFFFFFFFFFFFFFFFFFFFFFFFFFFF AND PUSH20 0xFFFFFFFFFFFFFFFFFFFFFFFFFFFFFFFFFFFFFFFF AND PUSH4 0x95EA7B3 PUSH1 0xC PUSH1 0x0 SWAP1 SLOAD SWAP1 PUSH2 0x100 EXP SWAP1 DIV PUSH20 0xFFFFFFFFFFFFFFFFFFFFFFFFFFFFFFFFFFFFFFFF AND PUSH11 0x52B7D2DCC80CD2E4000000 PUSH1 0x40 MLOAD DUP4 PUSH4 0xFFFFFFFF AND PUSH1 0xE0 SHL DUP2 MSTORE PUSH1 0x4 ADD PUSH2 0x2B1 SWAP3 SWAP2 SWAP1 PUSH2 0x953 JUMP JUMPDEST PUSH1 0x20 PUSH1 0x40 MLOAD DUP1 DUP4 SUB DUP2 PUSH1 0x0 DUP8 GAS CALL ISZERO DUP1 ISZERO PUSH2 0x2D0 JUMPI RETURNDATASIZE PUSH1 0x0 DUP1 RETURNDATACOPY RETURNDATASIZE PUSH1 0x0 REVERT JUMPDEST POP POP POP POP PUSH1 0x40 MLOAD RETURNDATASIZE PUSH1 0x1F NOT PUSH1 0x1F DUP3 ADD AND DUP3 ADD DUP1 PUSH1 0x40 MSTORE POP DUP2 ADD SWAP1 PUSH2 0x2F4 SWAP2 SWAP1 PUSH2 0x9A8 JUMP JUMPDEST POP PUSH1 0xE PUSH1 0x0 SWAP1 SLOAD SWAP1 PUSH2 0x100 EXP SWAP1 DIV PUSH20 0xFFFFFFFFFFFFFFFFFFFFFFFFFFFFFFFFFFFFFFFF AND PUSH20 0xFFFFFFFFFFFFFFFFFFFFFFFFFFFFFFFFFFFFFFFF AND PUSH4 0x95EA7B3 PUSH1 0xD PUSH1 0x0 SWAP1 SLOAD SWAP1 PUSH2 0x100 EXP SWAP1 DIV PUSH20 0xFFFFFFFFFFFFFFFFFFFFFFFFFFFFFFFFFFFFFFFF AND PUSH11 0x52B7D2DCC80CD2E4000000 PUSH1 0x40 MLOAD DUP4 PUSH4 0xFFFFFFFF AND PUSH1 0xE0 SHL DUP2 MSTORE PUSH1 0x4 ADD PUSH2 0x37F SWAP3 SWAP2 SWAP1 PUSH2 0x953 JUMP JUMPDEST PUSH1 0x20 PUSH1 0x40 MLOAD DUP1 DUP4 SUB DUP2 PUSH1 0x0 DUP8 GAS CALL ISZERO DUP1 ISZERO PUSH2 0x39E JUMPI RETURNDATASIZE PUSH1 0x0 DUP1 RETURNDATACOPY RETURNDATASIZE PUSH1 0x0 REVERT JUMPDEST POP POP POP POP PUSH1 0x40 MLOAD RETURNDATASIZE PUSH1 0x1F NOT PUSH1 0x1F DUP3 ADD AND DUP3 ADD DUP1 PUSH1 0x40 MSTORE POP DUP2 ADD SWAP1 PUSH2 0x3C2 SWAP2 SWAP1 PUSH2 0x9A8 JUMP JUMPDEST POP PUSH1 0xF PUSH1 0x0 SWAP1 SLOAD SWAP1 PUSH2 0x100 EXP SWAP1 DIV PUSH20 0xFFFFFFFFFFFFFFFFFFFFFFFFFFFFFFFFFFFFFFFF AND PUSH20 0xFFFFFFFFFFFFFFFFFFFFFFFFFFFFFFFFFFFFFFFF AND PUSH4 0x95EA7B3 PUSH1 0xC PUSH1 0x0 SWAP1 SLOAD SWAP1 PUSH2 0x100 EXP SWAP1 DIV PUSH20 0xFFFFFFFFFFFFFFFFFFFFFFFFFFFFFFFFFFFFFFFF AND PUSH11 0x52B7D2DCC80CD2E4000000 PUSH1 0x40 MLOAD DUP4 PUSH4 0xFFFFFFFF AND PUSH1 0xE0 SHL DUP2 MSTORE PUSH1 0x4 ADD PUSH2 0x44D SWAP3 SWAP2 SWAP1 PUSH2 0x953 JUMP JUMPDEST PUSH1 0x20 PUSH1 0x40 MLOAD DUP1 DUP4 SUB DUP2 PUSH1 0x0 DUP8 GAS CALL ISZERO DUP1 ISZERO PUSH2 0x46C JUMPI RETURNDATASIZE PUSH1 0x0 DUP1 RETURNDATACOPY RETURNDATASIZE PUSH1 0x0 REVERT JUMPDEST POP POP POP POP PUSH1 0x40 MLOAD RETURNDATASIZE PUSH1 0x1F NOT PUSH1 0x1F DUP3 ADD AND DUP3 ADD DUP1 PUSH1 0x40 MSTORE POP DUP2 ADD SWAP1 PUSH2 0x490 SWAP2 SWAP1 PUSH2 0x9A8 JUMP JUMPDEST POP PUSH1 0xF PUSH1 0x0 SWAP1 SLOAD SWAP1 PUSH2 0x100 EXP SWAP1 DIV PUSH20 0xFFFFFFFFFFFFFFFFFFFFFFFFFFFFFFFFFFFFFFFF AND PUSH20 0xFFFFFFFFFFFFFFFFFFFFFFFFFFFFFFFFFFFFFFFF AND PUSH4 0x95EA7B3 PUSH1 0xD PUSH1 0x0 SWAP1 SLOAD SWAP1 PUSH2 0x100 EXP SWAP1 DIV PUSH20 0xFFFFFFFFFFFFFFFFFFFFFFFFFFFFFFFFFFFFFFFF AND PUSH11 0x52B7D2DCC80CD2E4000000 PUSH1 0x40 MLOAD DUP4 PUSH4 0xFFFFFFFF AND PUSH1 0xE0 SHL DUP2 MSTORE PUSH1 0x4 ADD PUSH2 0x51B SWAP3 SWAP2 SWAP1 PUSH2 0x953 JUMP JUMPDEST PUSH1 0x20 PUSH1 0x40 MLOAD DUP1 DUP4 SUB DUP2 PUSH1 0x0 DUP8 GAS CALL ISZERO DUP1 ISZERO PUSH2 0x53A JUMPI RETURNDATASIZE PUSH1 0x0 DUP1 RETURNDATACOPY RETURNDATASIZE PUSH1 0x0 REVERT JUMPDEST POP POP POP POP PUSH1 0x40 MLOAD RETURNDATASIZE PUSH1 0x1F NOT PUSH1 0x1F DUP3 ADD AND DUP3 ADD DUP1 PUSH1 0x40 MSTORE POP DUP2 ADD SWAP1 PUSH2 0x55E SWAP2 SWAP1 PUSH2 0x9A8 JUMP JUMPDEST POP PUSH32 0x0 PUSH20 0xFFFFFFFFFFFFFFFFFFFFFFFFFFFFFFFFFFFFFFFF AND PUSH4 0x42B0B77C DUP7 DUP7 DUP7 DUP7 DUP7 PUSH1 0x40 MLOAD DUP7 PUSH4 0xFFFFFFFF AND PUSH1 0xE0 SHL DUP2 MSTORE PUSH1 0x4 ADD PUSH2 0x5C0 SWAP6 SWAP5 SWAP4 SWAP3 SWAP2 SWAP1 PUSH2 0xA8B JUMP JUMPDEST PUSH1 0x0 PUSH1 0x40 MLOAD DUP1 DUP4 SUB DUP2 PUSH1 0x0 DUP8 DUP1 EXTCODESIZE ISZERO DUP1 ISZERO PUSH2 0x5DA JUMPI PUSH1 0x0 DUP1 REVERT JUMPDEST POP GAS CALL ISZERO DUP1 ISZERO PUSH2 0x5EE JUMPI RETURNDATASIZE PUSH1 0x0 DUP1 RETURNDATACOPY RETURNDATASIZE PUSH1 0x0 REVERT JUMPDEST POP POP POP POP POP POP POP POP POP POP JUMP JUMPDEST PUSH1 0x0 PUSH20 0xFFFFFFFFFFFFFFFFFFFFFFFFFFFFFFFFFFFFFFFF DUP3 AND SWAP1 POP SWAP2 SWAP1 POP JUMP JUMPDEST PUSH1 0x0 DUP2 SWAP1 POP SWAP2 SWAP1 POP JUMP JUMPDEST PUSH1 0x0 PUSH2 0x63F PUSH2 0x63A PUSH2 0x635 DUP5 PUSH2 0x5FA JUMP JUMPDEST PUSH2 0x61A JUMP JUMPDEST PUSH2 0x5FA JUMP JUMPDEST SWAP1 POP SWAP2 SWAP1 POP JUMP JUMPDEST PUSH1 0x0 PUSH2 0x651 DUP3 PUSH2 0x624 JUMP JUMPDEST SWAP1 POP SWAP2 SWAP1 POP JUMP JUMPDEST PUSH1 0x0 PUSH2 0x663 DUP3 PUSH2 0x646 JUMP JUMPDEST SWAP1 POP SWAP2 SWAP1 POP JUMP JUMPDEST PUSH2 0x673 DUP2 PUSH2 0x658 JUMP JUMPDEST DUP3 MSTORE POP POP JUMP JUMPDEST PUSH1 0x0 PUSH1 0x20 DUP3 ADD SWAP1 POP PUSH2 0x68E PUSH1 0x0 DUP4 ADD DUP5 PUSH2 0x66A JUMP JUMPDEST SWAP3 SWAP2 POP POP JUMP JUMPDEST PUSH1 0x0 DUP1 REVERT JUMPDEST PUSH1 0x0 DUP1 REVERT JUMPDEST PUSH1 0x0 PUSH2 0x6A9 DUP3 PUSH2 0x5FA JUMP JUMPDEST SWAP1 POP SWAP2 SWAP1 POP JUMP JUMPDEST PUSH2 0x6B9 DUP2 PUSH2 0x69E JUMP JUMPDEST DUP2 EQ PUSH2 0x6C4 JUMPI PUSH1 0x0 DUP1 REVERT JUMPDEST POP JUMP JUMPDEST PUSH1 0x0 DUP2 CALLDATALOAD SWAP1 POP PUSH2 0x6D6 DUP2 PUSH2 0x6B0 JUMP JUMPDEST SWAP3 SWAP2 POP POP JUMP JUMPDEST PUSH1 0x0 DUP2 SWAP1 POP SWAP2 SWAP1 POP JUMP JUMPDEST PUSH2 0x6EF DUP2 PUSH2 0x6DC JUMP JUMPDEST DUP2 EQ PUSH2 0x6FA JUMPI PUSH1 0x0 DUP1 REVERT JUMPDEST POP JUMP JUMPDEST PUSH1 0x0 DUP2 CALLDATALOAD SWAP1 POP PUSH2 0x70C DUP2 PUSH2 0x6E6 JUMP JUMPDEST SWAP3 SWAP2 POP POP JUMP JUMPDEST PUSH1 0x0 DUP1 REVERT JUMPDEST PUSH1 0x0 DUP1 REVERT JUMPDEST PUSH1 0x0 DUP1 REVERT JUMPDEST PUSH1 0x0 DUP1 DUP4 PUSH1 0x1F DUP5 ADD SLT PUSH2 0x737 JUMPI PUSH2 0x736 PUSH2 0x712 JUMP JUMPDEST JUMPDEST DUP3 CALLDATALOAD SWAP1 POP PUSH8 0xFFFFFFFFFFFFFFFF DUP2 GT ISZERO PUSH2 0x754 JUMPI PUSH2 0x753 PUSH2 0x717 JUMP JUMPDEST JUMPDEST PUSH1 0x20 DUP4 ADD SWAP2 POP DUP4 PUSH1 0x1 DUP3 MUL DUP4 ADD GT ISZERO PUSH2 0x770 JUMPI PUSH2 0x76F PUSH2 0x71C JUMP JUMPDEST JUMPDEST SWAP3 POP SWAP3 SWAP1 POP JUMP JUMPDEST PUSH1 0x0 DUP1 PUSH1 0x0 DUP1 PUSH1 0x0 DUP1 PUSH1 0xA0 DUP8 DUP10 SUB SLT ISZERO PUSH2 0x794 JUMPI PUSH2 0x793 PUSH2 0x694 JUMP JUMPDEST JUMPDEST PUSH1 0x0 PUSH2 0x7A2 DUP10 DUP3 DUP11 ADD PUSH2 0x6C7 JUMP JUMPDEST SWAP7 POP POP PUSH1 0x20 PUSH2 0x7B3 DUP10 DUP3 DUP11 ADD PUSH2 0x6FD JUMP JUMPDEST SWAP6 POP POP PUSH1 0x40 PUSH2 0x7C4 DUP10 DUP3 DUP11 ADD PUSH2 0x6FD JUMP JUMPDEST SWAP5 POP POP PUSH1 0x60 PUSH2 0x7D5 DUP10 DUP3 DUP11 ADD PUSH2 0x6C7 JUMP JUMPDEST SWAP4 POP POP PUSH1 0x80 DUP8 ADD CALLDATALOAD PUSH8 0xFFFFFFFFFFFFFFFF DUP2 GT ISZERO PUSH2 0x7F6 JUMPI PUSH2 0x7F5 PUSH2 0x699 JUMP JUMPDEST JUMPDEST PUSH2 0x802 DUP10 DUP3 DUP11 ADD PUSH2 0x721 JUMP JUMPDEST SWAP3 POP SWAP3 POP POP SWAP3 SWAP6 POP SWAP3 SWAP6 POP SWAP3 SWAP6 JUMP JUMPDEST PUSH1 0x0 DUP2 ISZERO ISZERO SWAP1 POP SWAP2 SWAP1 POP JUMP JUMPDEST PUSH2 0x826 DUP2 PUSH2 0x811 JUMP JUMPDEST DUP3 MSTORE POP POP JUMP JUMPDEST PUSH1 0x0 PUSH1 0x20 DUP3 ADD SWAP1 POP PUSH2 0x841 PUSH1 0x0 DUP4 ADD DUP5 PUSH2 0x81D JUMP JUMPDEST SWAP3 SWAP2 POP POP JUMP JUMPDEST PUSH1 0x0 PUSH2 0x852 DUP3 PUSH2 0x646 JUMP JUMPDEST SWAP1 POP SWAP2 SWAP1 POP JUMP JUMPDEST PUSH2 0x862 DUP2 PUSH2 0x847 JUMP JUMPDEST DUP3 MSTORE POP POP JUMP JUMPDEST PUSH1 0x0 PUSH1 0x20 DUP3 ADD SWAP1 POP PUSH2 0x87D PUSH1 0x0 DUP4 ADD DUP5 PUSH2 0x859 JUMP JUMPDEST SWAP3 SWAP2 POP POP JUMP JUMPDEST PUSH1 0x0 PUSH1 0x20 DUP3 DUP5 SUB SLT ISZERO PUSH2 0x899 JUMPI PUSH2 0x898 PUSH2 0x694 JUMP JUMPDEST JUMPDEST PUSH1 0x0 PUSH2 0x8A7 DUP5 DUP3 DUP6 ADD PUSH2 0x6FD JUMP JUMPDEST SWAP2 POP POP SWAP3 SWAP2 POP POP JUMP JUMPDEST PUSH32 0x4E487B7100000000000000000000000000000000000000000000000000000000 PUSH1 0x0 MSTORE PUSH1 0x11 PUSH1 0x4 MSTORE PUSH1 0x24 PUSH1 0x0 REVERT JUMPDEST PUSH1 0x0 PUSH2 0x8EA DUP3 PUSH2 0x6DC JUMP JUMPDEST SWAP2 POP PUSH2 0x8F5 DUP4 PUSH2 0x6DC JUMP JUMPDEST SWAP3 POP DUP3 PUSH32 0xFFFFFFFFFFFFFFFFFFFFFFFFFFFFFFFFFFFFFFFFFFFFFFFFFFFFFFFFFFFFFFFF SUB DUP3 GT ISZERO PUSH2 0x92A JUMPI PUSH2 0x929 PUSH2 0x8B0 JUMP JUMPDEST JUMPDEST DUP3 DUP3 ADD SWAP1 POP SWAP3 SWAP2 POP POP JUMP JUMPDEST PUSH2 0x93E DUP2 PUSH2 0x69E JUMP JUMPDEST DUP3 MSTORE POP POP JUMP JUMPDEST PUSH2 0x94D DUP2 PUSH2 0x6DC JUMP JUMPDEST DUP3 MSTORE POP POP JUMP JUMPDEST PUSH1 0x0 PUSH1 0x40 DUP3 ADD SWAP1 POP PUSH2 0x968 PUSH1 0x0 DUP4 ADD DUP6 PUSH2 0x935 JUMP JUMPDEST PUSH2 0x975 PUSH1 0x20 DUP4 ADD DUP5 PUSH2 0x944 JUMP JUMPDEST SWAP4 SWAP3 POP POP POP JUMP JUMPDEST PUSH2 0x985 DUP2 PUSH2 0x811 JUMP JUMPDEST DUP2 EQ PUSH2 0x990 JUMPI PUSH1 0x0 DUP1 REVERT JUMPDEST POP JUMP JUMPDEST PUSH1 0x0 DUP2 MLOAD SWAP1 POP PUSH2 0x9A2 DUP2 PUSH2 0x97C JUMP JUMPDEST SWAP3 SWAP2 POP POP JUMP JUMPDEST PUSH1 0x0 PUSH1 0x20 DUP3 DUP5 SUB SLT ISZERO PUSH2 0x9BE JUMPI PUSH2 0x9BD PUSH2 0x694 JUMP JUMPDEST JUMPDEST PUSH1 0x0 PUSH2 0x9CC DUP5 DUP3 DUP6 ADD PUSH2 0x993 JUMP JUMPDEST SWAP2 POP POP SWAP3 SWAP2 POP POP JUMP JUMPDEST PUSH1 0x0 DUP2 MLOAD SWAP1 POP SWAP2 SWAP1 POP JUMP JUMPDEST PUSH1 0x0 DUP3 DUP3 MSTORE PUSH1 0x20 DUP3 ADD SWAP1 POP SWAP3 SWAP2 POP POP JUMP JUMPDEST PUSH1 0x0 JUMPDEST DUP4 DUP2 LT ISZERO PUSH2 0xA0F JUMPI DUP1 DUP3 ADD MLOAD DUP2 DUP5 ADD MSTORE PUSH1 0x20 DUP2 ADD SWAP1 POP PUSH2 0x9F4 JUMP JUMPDEST DUP4 DUP2 GT ISZERO PUSH2 0xA1E JUMPI PUSH1 0x0 DUP5 DUP5 ADD MSTORE JUMPDEST POP POP POP POP JUMP JUMPDEST PUSH1 0x0 PUSH1 0x1F NOT PUSH1 0x1F DUP4 ADD AND SWAP1 POP SWAP2 SWAP1 POP JUMP JUMPDEST PUSH1 0x0 PUSH2 0xA40 DUP3 PUSH2 0x9D5 JUMP JUMPDEST PUSH2 0xA4A DUP2 DUP6 PUSH2 0x9E0 JUMP JUMPDEST SWAP4 POP PUSH2 0xA5A DUP2 DUP6 PUSH1 0x20 DUP7 ADD PUSH2 0x9F1 JUMP JUMPDEST PUSH2 0xA63 DUP2 PUSH2 0xA24 JUMP JUMPDEST DUP5 ADD SWAP2 POP POP SWAP3 SWAP2 POP POP JUMP JUMPDEST PUSH1 0x0 PUSH2 0xFFFF DUP3 AND SWAP1 POP SWAP2 SWAP1 POP JUMP JUMPDEST PUSH2 0xA85 DUP2 PUSH2 0xA6E JUMP JUMPDEST DUP3 MSTORE POP POP JUMP JUMPDEST PUSH1 0x0 PUSH1 0xA0 DUP3 ADD SWAP1 POP PUSH2 0xAA0 PUSH1 0x0 DUP4 ADD DUP9 PUSH2 0x935 JUMP JUMPDEST PUSH2 0xAAD PUSH1 0x20 DUP4 ADD DUP8 PUSH2 0x935 JUMP JUMPDEST PUSH2 0xABA PUSH1 0x40 DUP4 ADD DUP7 PUSH2 0x944 JUMP JUMPDEST DUP2 DUP2 SUB PUSH1 0x60 DUP4 ADD MSTORE PUSH2 0xACC DUP2 DUP6 PUSH2 0xA35 JUMP JUMPDEST SWAP1 POP PUSH2 0xADB PUSH1 0x80 DUP4 ADD DUP5 PUSH2 0xA7C JUMP JUMPDEST SWAP7 SWAP6 POP POP POP POP POP POP JUMP INVALID LOG2 PUSH5 0x6970667358 0x22 SLT KECCAK256 NOT PUSH3 0x1DE4F6 0x4D POP 0xC8 0xA9 0xA9 0xBA 0x4E 0x1F SHL SWAP13 0xB8 0xF7 0x4F MUL 0xC7 CODESIZE PUSH16 0x4327FD56C4E5C6DA437F64736F6C6343 STOP ADDMOD EXP STOP CALLER "
				},
				"gasEstimates": {
					"creation": {
						"codeDepositCost": "568600",
						"executionCost": "infinite",
						"totalCost": "infinite"
					},
					"external": {
						"ADDRESSES_PROVIDER()": "infinite",
						"POOL()": "infinite",
						"executeOperation(address,uint256,uint256,address,bytes)": "infinite",
						"testAAVE(uint256)": "infinite"
					}
				},
				"methodIdentifiers": {
					"ADDRESSES_PROVIDER()": "0542975c",
					"POOL()": "7535d246",
					"executeOperation(address,uint256,uint256,address,bytes)": "1b11d0ff",
					"testAAVE(uint256)": "c4a50233"
				}
			},
			"userdoc": {
				"kind": "user",
				"methods": {
					"executeOperation(address,uint256,uint256,address,bytes)": {
						"notice": "Executes an operation after receiving the flash-borrowed asset"
					}
				},
				"version": 1
			}
		}
	}
}