{
	"Code-hardhat-ethersJs/contracts/AAVETest.sol": {
		"AAVETest": {
			"abi": [
				{
					"inputs": [],
					"stateMutability": "nonpayable",
					"type": "constructor"
				},
				{
					"inputs": [],
					"name": "ADDRESSES_PROVIDER",
					"outputs": [
						{
							"internalType": "contract IPoolAddressesProvider",
							"name": "",
							"type": "address"
						}
					],
					"stateMutability": "view",
					"type": "function"
				},
				{
					"inputs": [],
					"name": "POOL",
					"outputs": [
						{
							"internalType": "contract IPool",
							"name": "",
							"type": "address"
						}
					],
					"stateMutability": "view",
					"type": "function"
				},
				{
					"inputs": [
						{
							"internalType": "address",
							"name": "asset",
							"type": "address"
						},
						{
							"internalType": "uint256",
							"name": "amount",
							"type": "uint256"
						},
						{
							"internalType": "uint256",
							"name": "premium",
							"type": "uint256"
						},
						{
							"internalType": "address",
							"name": "initiator",
							"type": "address"
						},
						{
							"internalType": "bytes",
							"name": "params",
							"type": "bytes"
						}
					],
					"name": "executeOperation",
					"outputs": [
						{
							"internalType": "bool",
							"name": "",
							"type": "bool"
						}
					],
					"stateMutability": "nonpayable",
					"type": "function"
				},
				{
					"inputs": [
						{
							"internalType": "address",
							"name": "asset",
							"type": "address"
						},
						{
							"internalType": "uint256",
							"name": "_amount",
							"type": "uint256"
						}
					],
					"name": "testAAVE",
					"outputs": [],
					"stateMutability": "nonpayable",
					"type": "function"
				},
				{
					"inputs": [
						{
							"internalType": "address",
							"name": "asset",
							"type": "address"
						},
						{
							"internalType": "uint256",
							"name": "amount",
							"type": "uint256"
						}
					],
					"name": "testAAVE2",
					"outputs": [],
					"stateMutability": "nonpayable",
					"type": "function"
				}
			],
			"devdoc": {
				"kind": "dev",
				"methods": {
					"executeOperation(address,uint256,uint256,address,bytes)": {
						"details": "Ensure that the contract can return the debt + premium, e.g., has      enough funds to repay and has approved the Pool to pull the total amount",
						"params": {
							"amount": "The amount of the flash-borrowed asset",
							"asset": "The address of the flash-borrowed asset",
							"initiator": "The address of the flashloan initiator",
							"params": "The byte-encoded params passed when initiating the flashloan",
							"premium": "The fee of the flash-borrowed asset"
						},
						"returns": {
							"_0": "True if the execution of the operation succeeds, false otherwise"
						}
					}
				},
				"version": 1
			},
			"evm": {
				"assembly": "    /* \"Code-hardhat-ethersJs/contracts/AAVETest.sol\":768:6548  contract AAVETest is IFlashLoanSimpleReceiver {... */\n  mstore(0x40, 0xc0)\n    /* \"Code-hardhat-ethersJs/contracts/AAVETest.sol\":916:958  0x7a250d5630B4cF539739dF2C5dAcb4c659F2488D */\n  0x7a250d5630b4cf539739df2c5dacb4c659f2488d\n    /* \"Code-hardhat-ethersJs/contracts/AAVETest.sol\":881:958  address UniswapV2Router02address = 0x7a250d5630B4cF539739dF2C5dAcb4c659F2488D */\n  0x00\n  dup1\n  0x0100\n  exp\n  dup2\n  sload\n  dup2\n  0xffffffffffffffffffffffffffffffffffffffff\n  mul\n  not\n  and\n  swap1\n  dup4\n  0xffffffffffffffffffffffffffffffffffffffff\n  and\n  mul\n  or\n  swap1\n  sstore\n  pop\n    /* \"Code-hardhat-ethersJs/contracts/AAVETest.sol\":998:1040  0x5C69bEe701ef814a2B6a3EDD4B1652CB9cc5aA6f */\n  0x5c69bee701ef814a2b6a3edd4b1652cb9cc5aa6f\n    /* \"Code-hardhat-ethersJs/contracts/AAVETest.sol\":964:1040  address UniswapV2Factoryaddress = 0x5C69bEe701ef814a2B6a3EDD4B1652CB9cc5aA6f */\n  0x01\n  exp(0x0100, 0x00)\n  dup2\n  sload\n  dup2\n  0xffffffffffffffffffffffffffffffffffffffff\n  mul\n  not\n  and\n  swap1\n  dup4\n  0xffffffffffffffffffffffffffffffffffffffff\n  and\n  mul\n  or\n  swap1\n  sstore\n  pop\n    /* \"Code-hardhat-ethersJs/contracts/AAVETest.sol\":1072:1114  0xC36442b4a4522E871399CD717aBDD847Ab11FE88 */\n  0xc36442b4a4522e871399cd717abdd847ab11fe88\n    /* \"Code-hardhat-ethersJs/contracts/AAVETest.sol\":1046:1114  address UNIV3POSaddress = 0xC36442b4a4522E871399CD717aBDD847Ab11FE88 */\n  0x02\n  exp(0x0100, 0x00)\n  dup2\n  sload\n  dup2\n  0xffffffffffffffffffffffffffffffffffffffff\n  mul\n  not\n  and\n  swap1\n  dup4\n  0xffffffffffffffffffffffffffffffffffffffff\n  and\n  mul\n  or\n  swap1\n  sstore\n  pop\n    /* \"Code-hardhat-ethersJs/contracts/AAVETest.sol\":1154:1196  0x1F98431c8aD98523631AE4a59f267346ea31F984 */\n  0x1f98431c8ad98523631ae4a59f267346ea31f984\n    /* \"Code-hardhat-ethersJs/contracts/AAVETest.sol\":1120:1196  address UniswapV3Factoryaddress = 0x1F98431c8aD98523631AE4a59f267346ea31F984 */\n  0x03\n  exp(0x0100, 0x00)\n  dup2\n  sload\n  dup2\n  0xffffffffffffffffffffffffffffffffffffffff\n  mul\n  not\n  and\n  swap1\n  dup4\n  0xffffffffffffffffffffffffffffffffffffffff\n  and\n  mul\n  or\n  swap1\n  sstore\n  pop\n    /* \"Code-hardhat-ethersJs/contracts/AAVETest.sol\":1232:1274  0x68b3465833fb72A70ecDF485E0e4C7bD8665Fc45 */\n  0x68b3465833fb72a70ecdf485e0e4c7bd8665fc45\n    /* \"Code-hardhat-ethersJs/contracts/AAVETest.sol\":1202:1274  address SwapRouter02address = 0x68b3465833fb72A70ecDF485E0e4C7bD8665Fc45 */\n  0x04\n  exp(0x0100, 0x00)\n  dup2\n  sload\n  dup2\n  0xffffffffffffffffffffffffffffffffffffffff\n  mul\n  not\n  and\n  swap1\n  dup4\n  0xffffffffffffffffffffffffffffffffffffffff\n  and\n  mul\n  or\n  swap1\n  sstore\n  pop\n    /* \"Code-hardhat-ethersJs/contracts/AAVETest.sol\":1317:1359  0xB9b56CE66C63DB98E6CDdacDF910C227294a8840 */\n  0xb9b56ce66c63db98e6cddacdf910c227294a8840\n    /* \"Code-hardhat-ethersJs/contracts/AAVETest.sol\":1296:1359  address MTTaddress = 0xB9b56CE66C63DB98E6CDdacDF910C227294a8840 */\n  0x05\n  exp(0x0100, 0x00)\n  dup2\n  sload\n  dup2\n  0xffffffffffffffffffffffffffffffffffffffff\n  mul\n  not\n  and\n  swap1\n  dup4\n  0xffffffffffffffffffffffffffffffffffffffff\n  and\n  mul\n  or\n  swap1\n  sstore\n  pop\n    /* \"Code-hardhat-ethersJs/contracts/AAVETest.sol\":1387:1429  0x953af320e2bD3041c4e56BB3a30E7f613a1f3C1A */\n  0x953af320e2bd3041c4e56bb3a30e7f613a1f3c1a\n    /* \"Code-hardhat-ethersJs/contracts/AAVETest.sol\":1365:1429  address AAVEaddress = 0x953af320e2bD3041c4e56BB3a30E7f613a1f3C1A */\n  0x06\n  exp(0x0100, 0x00)\n  dup2\n  sload\n  dup2\n  0xffffffffffffffffffffffffffffffffffffffff\n  mul\n  not\n  and\n  swap1\n  dup4\n  0xffffffffffffffffffffffffffffffffffffffff\n  and\n  mul\n  or\n  swap1\n  sstore\n  pop\n    /* \"Code-hardhat-ethersJs/contracts/AAVETest.sol\":1576:1618  0x69F9e353F7411479912d2E9F3e436aE83486C17B */\n  0x69f9e353f7411479912d2e9f3e436ae83486c17b\n    /* \"Code-hardhat-ethersJs/contracts/AAVETest.sol\":1551:1618  address UV2Pairaddress = 0x69F9e353F7411479912d2E9F3e436aE83486C17B */\n  0x07\n  exp(0x0100, 0x00)\n  dup2\n  sload\n  dup2\n  0xffffffffffffffffffffffffffffffffffffffff\n  mul\n  not\n  and\n  swap1\n  dup4\n  0xffffffffffffffffffffffffffffffffffffffff\n  and\n  mul\n  or\n  swap1\n  sstore\n  pop\n    /* \"Code-hardhat-ethersJs/contracts/AAVETest.sol\":1770:1775  10961 */\n  0x2ad1\n    /* \"Code-hardhat-ethersJs/contracts/AAVETest.sol\":1749:1775  uint256 UV3tokenId = 10961 */\n  0x08\n  sstore\n    /* \"Code-hardhat-ethersJs/contracts/AAVETest.sol\":2471:2513  0xA55125A90d75a95EC00130E8E8C197dB5641Eb19 */\n  0xa55125a90d75a95ec00130e8e8c197db5641eb19\n    /* \"Code-hardhat-ethersJs/contracts/AAVETest.sol\":2439:2513  address PoolAddressesProvider = 0xA55125A90d75a95EC00130E8E8C197dB5641Eb19 */\n  0x09\n  exp(0x0100, 0x00)\n  dup2\n  sload\n  dup2\n  0xffffffffffffffffffffffffffffffffffffffff\n  mul\n  not\n  and\n  swap1\n  dup4\n  0xffffffffffffffffffffffffffffffffffffffff\n  and\n  mul\n  or\n  swap1\n  sstore\n  pop\n    /* \"Code-hardhat-ethersJs/contracts/AAVETest.sol\":2592:2616  UniswapV2Router02address */\n  0x00\n  dup1\n  sload\n  swap1\n  0x0100\n  exp\n  swap1\n  div\n  0xffffffffffffffffffffffffffffffffffffffff\n  and\n    /* \"Code-hardhat-ethersJs/contracts/AAVETest.sol\":2542:2617  IUniswapV2Router02 uv2router = IUniswapV2Router02(UniswapV2Router02address) */\n  0x0a\n  exp(0x0100, 0x00)\n  dup2\n  sload\n  dup2\n  0xffffffffffffffffffffffffffffffffffffffff\n  mul\n  not\n  and\n  swap1\n  dup4\n  0xffffffffffffffffffffffffffffffffffffffff\n  and\n  mul\n  or\n  swap1\n  sstore\n  pop\n    /* \"Code-hardhat-ethersJs/contracts/AAVETest.sol\":2677:2696  SwapRouter02address */\n  0x04\n  0x00\n  swap1\n  sload\n  swap1\n  0x0100\n  exp\n  swap1\n  div\n  0xffffffffffffffffffffffffffffffffffffffff\n  and\n    /* \"Code-hardhat-ethersJs/contracts/AAVETest.sol\":2637:2697  IV3SwapRouter uv3router = IV3SwapRouter(SwapRouter02address) */\n  0x0b\n  exp(0x0100, 0x00)\n  dup2\n  sload\n  dup2\n  0xffffffffffffffffffffffffffffffffffffffff\n  mul\n  not\n  and\n  swap1\n  dup4\n  0xffffffffffffffffffffffffffffffffffffffff\n  and\n  mul\n  or\n  swap1\n  sstore\n  pop\n    /* \"Code-hardhat-ethersJs/contracts/AAVETest.sol\":2778:2788  MTTaddress */\n  0x05\n  0x00\n  swap1\n  sload\n  swap1\n  0x0100\n  exp\n  swap1\n  div\n  0xffffffffffffffffffffffffffffffffffffffff\n  and\n    /* \"Code-hardhat-ethersJs/contracts/AAVETest.sol\":2758:2789  IERC20 MTT = IERC20(MTTaddress) */\n  0x0c\n  exp(0x0100, 0x00)\n  dup2\n  sload\n  dup2\n  0xffffffffffffffffffffffffffffffffffffffff\n  mul\n  not\n  and\n  swap1\n  dup4\n  0xffffffffffffffffffffffffffffffffffffffff\n  and\n  mul\n  or\n  swap1\n  sstore\n  pop\n    /* \"Code-hardhat-ethersJs/contracts/AAVETest.sol\":2816:2827  AAVEaddress */\n  0x06\n  0x00\n  swap1\n  sload\n  swap1\n  0x0100\n  exp\n  swap1\n  div\n  0xffffffffffffffffffffffffffffffffffffffff\n  and\n    /* \"Code-hardhat-ethersJs/contracts/AAVETest.sol\":2795:2828  IERC20 AAVE = IERC20(AAVEaddress) */\n  0x0d\n  exp(0x0100, 0x00)\n  dup2\n  sload\n  dup2\n  0xffffffffffffffffffffffffffffffffffffffff\n  mul\n  not\n  and\n  swap1\n  dup4\n  0xffffffffffffffffffffffffffffffffffffffff\n  and\n  mul\n  or\n  swap1\n  sstore\n  pop\n    /* \"Code-hardhat-ethersJs/contracts/AAVETest.sol\":2963:3112  constructor() {... */\n  callvalue\n  dup1\n  iszero\n  tag_1\n  jumpi\n  0x00\n  dup1\n  revert\ntag_1:\n  pop\n    /* \"Code-hardhat-ethersJs/contracts/AAVETest.sol\":3031:3052  PoolAddressesProvider */\n  0x09\n  0x00\n  swap1\n  sload\n  swap1\n  0x0100\n  exp\n  swap1\n  div\n  0xffffffffffffffffffffffffffffffffffffffff\n  and\n    /* \"Code-hardhat-ethersJs/contracts/AAVETest.sol\":2987:3053  ADDRESSES_PROVIDER = IPoolAddressesProvider(PoolAddressesProvider) */\n  0xffffffffffffffffffffffffffffffffffffffff\n  and\n  0x80\n  dup2\n  0xffffffffffffffffffffffffffffffffffffffff\n  and\n  dup2\n  mstore\n  pop\n  pop\n    /* \"Code-hardhat-ethersJs/contracts/AAVETest.sol\":3076:3094  ADDRESSES_PROVIDER */\n  mload(0x80)\n    /* \"Code-hardhat-ethersJs/contracts/AAVETest.sol\":3076:3102  ADDRESSES_PROVIDER.getPool */\n  0xffffffffffffffffffffffffffffffffffffffff\n  and\n  0x026b1d5f\n    /* \"Code-hardhat-ethersJs/contracts/AAVETest.sol\":3076:3104  ADDRESSES_PROVIDER.getPool() */\n  mload(0x40)\n  dup2\n  0xffffffff\n  and\n  0xe0\n  shl\n  dup2\n  mstore\n  0x04\n  add\n  0x20\n  mload(0x40)\n  dup1\n  dup4\n  sub\n  dup2\n  dup7\n  gas\n  staticcall\n  iszero\n  dup1\n  iszero\n  tag_5\n  jumpi\n  returndatasize\n  0x00\n  dup1\n  returndatacopy\n  revert(0x00, returndatasize)\ntag_5:\n  pop\n  pop\n  pop\n  pop\n  mload(0x40)\n  returndatasize\n  not(0x1f)\n  0x1f\n  dup3\n  add\n  and\n  dup3\n  add\n  dup1\n  0x40\n  mstore\n  pop\n  dup2\n  add\n  swap1\n  tag_6\n  swap2\n  swap1\n  tag_7\n  jump\t// in\ntag_6:\n    /* \"Code-hardhat-ethersJs/contracts/AAVETest.sol\":3063:3105  POOL = IPool(ADDRESSES_PROVIDER.getPool()) */\n  0xffffffffffffffffffffffffffffffffffffffff\n  and\n  0xa0\n  dup2\n  0xffffffffffffffffffffffffffffffffffffffff\n  and\n  dup2\n  mstore\n  pop\n  pop\n    /* \"Code-hardhat-ethersJs/contracts/AAVETest.sol\":768:6548  contract AAVETest is IFlashLoanSimpleReceiver {... */\n  jump(tag_8)\n    /* \"#utility.yul\":88:205   */\ntag_10:\n    /* \"#utility.yul\":197:198   */\n  0x00\n    /* \"#utility.yul\":194:195   */\n  dup1\n    /* \"#utility.yul\":187:199   */\n  revert\n    /* \"#utility.yul\":334:460   */\ntag_12:\n    /* \"#utility.yul\":371:378   */\n  0x00\n    /* \"#utility.yul\":411:453   */\n  0xffffffffffffffffffffffffffffffffffffffff\n    /* \"#utility.yul\":404:409   */\n  dup3\n    /* \"#utility.yul\":400:454   */\n  and\n    /* \"#utility.yul\":389:454   */\n  swap1\n  pop\n    /* \"#utility.yul\":334:460   */\n  swap2\n  swap1\n  pop\n  jump\t// out\n    /* \"#utility.yul\":466:562   */\ntag_13:\n    /* \"#utility.yul\":503:510   */\n  0x00\n    /* \"#utility.yul\":532:556   */\n  tag_22\n    /* \"#utility.yul\":550:555   */\n  dup3\n    /* \"#utility.yul\":532:556   */\n  tag_12\n  jump\t// in\ntag_22:\n    /* \"#utility.yul\":521:556   */\n  swap1\n  pop\n    /* \"#utility.yul\":466:562   */\n  swap2\n  swap1\n  pop\n  jump\t// out\n    /* \"#utility.yul\":568:690   */\ntag_14:\n    /* \"#utility.yul\":641:665   */\n  tag_24\n    /* \"#utility.yul\":659:664   */\n  dup2\n    /* \"#utility.yul\":641:665   */\n  tag_13\n  jump\t// in\ntag_24:\n    /* \"#utility.yul\":634:639   */\n  dup2\n    /* \"#utility.yul\":631:666   */\n  eq\n    /* \"#utility.yul\":621:684   */\n  tag_25\n  jumpi\n    /* \"#utility.yul\":680:681   */\n  0x00\n    /* \"#utility.yul\":677:678   */\n  dup1\n    /* \"#utility.yul\":670:682   */\n  revert\n    /* \"#utility.yul\":621:684   */\ntag_25:\n    /* \"#utility.yul\":568:690   */\n  pop\n  jump\t// out\n    /* \"#utility.yul\":696:839   */\ntag_15:\n    /* \"#utility.yul\":753:758   */\n  0x00\n    /* \"#utility.yul\":784:790   */\n  dup2\n    /* \"#utility.yul\":778:791   */\n  mload\n    /* \"#utility.yul\":769:791   */\n  swap1\n  pop\n    /* \"#utility.yul\":800:833   */\n  tag_27\n    /* \"#utility.yul\":827:832   */\n  dup2\n    /* \"#utility.yul\":800:833   */\n  tag_14\n  jump\t// in\ntag_27:\n    /* \"#utility.yul\":696:839   */\n  swap3\n  swap2\n  pop\n  pop\n  jump\t// out\n    /* \"#utility.yul\":845:1196   */\ntag_7:\n    /* \"#utility.yul\":915:921   */\n  0x00\n    /* \"#utility.yul\":964:966   */\n  0x20\n    /* \"#utility.yul\":952:961   */\n  dup3\n    /* \"#utility.yul\":943:950   */\n  dup5\n    /* \"#utility.yul\":939:962   */\n  sub\n    /* \"#utility.yul\":935:967   */\n  slt\n    /* \"#utility.yul\":932:1051   */\n  iszero\n  tag_29\n  jumpi\n    /* \"#utility.yul\":970:1049   */\n  tag_30\n  tag_10\n  jump\t// in\ntag_30:\n    /* \"#utility.yul\":932:1051   */\ntag_29:\n    /* \"#utility.yul\":1090:1091   */\n  0x00\n    /* \"#utility.yul\":1115:1179   */\n  tag_31\n    /* \"#utility.yul\":1171:1178   */\n  dup5\n    /* \"#utility.yul\":1162:1168   */\n  dup3\n    /* \"#utility.yul\":1151:1160   */\n  dup6\n    /* \"#utility.yul\":1147:1169   */\n  add\n    /* \"#utility.yul\":1115:1179   */\n  tag_15\n  jump\t// in\ntag_31:\n    /* \"#utility.yul\":1105:1179   */\n  swap2\n  pop\n    /* \"#utility.yul\":1061:1189   */\n  pop\n    /* \"#utility.yul\":845:1196   */\n  swap3\n  swap2\n  pop\n  pop\n  jump\t// out\n    /* \"Code-hardhat-ethersJs/contracts/AAVETest.sol\":768:6548  contract AAVETest is IFlashLoanSimpleReceiver {... */\ntag_8:\n  mload(0x80)\n  mload(0xa0)\n  codecopy(0x00, dataOffset(sub_0), dataSize(sub_0))\n  0x00\n  assignImmutable(\"0x609b23bf287e1766014b9bd988a6787fc1221b26b44f43f150b389e5a11ebd06\")\n  0x00\n  assignImmutable(\"0x4e701ff48cddd8d9ae76d4abc76fdf8142996b98a55d862e7a02c126a31586e6\")\n  return(0x00, dataSize(sub_0))\nstop\n\nsub_0: assembly {\n        /* \"Code-hardhat-ethersJs/contracts/AAVETest.sol\":768:6548  contract AAVETest is IFlashLoanSimpleReceiver {... */\n      mstore(0x40, 0x80)\n      callvalue\n      dup1\n      iszero\n      tag_1\n      jumpi\n      0x00\n      dup1\n      revert\n    tag_1:\n      pop\n      jumpi(tag_2, lt(calldatasize, 0x04))\n      shr(0xe0, calldataload(0x00))\n      dup1\n      0x0542975c\n      eq\n      tag_3\n      jumpi\n      dup1\n      0x1b11d0ff\n      eq\n      tag_4\n      jumpi\n      dup1\n      0x7535d246\n      eq\n      tag_5\n      jumpi\n      dup1\n      0x8faab56f\n      eq\n      tag_6\n      jumpi\n      dup1\n      0xcea8fe55\n      eq\n      tag_7\n      jumpi\n    tag_2:\n      0x00\n      dup1\n      revert\n        /* \"Code-hardhat-ethersJs/contracts/AAVETest.sol\":2847:2914  IPoolAddressesProvider public immutable override ADDRESSES_PROVIDER */\n    tag_3:\n      tag_8\n      tag_9\n      jump\t// in\n    tag_8:\n      mload(0x40)\n      tag_10\n      swap2\n      swap1\n      tag_11\n      jump\t// in\n    tag_10:\n      mload(0x40)\n      dup1\n      swap2\n      sub\n      swap1\n      return\n        /* \"Code-hardhat-ethersJs/contracts/AAVETest.sol\":5151:6540  function executeOperation(... */\n    tag_4:\n      tag_12\n      0x04\n      dup1\n      calldatasize\n      sub\n      dup2\n      add\n      swap1\n      tag_13\n      swap2\n      swap1\n      tag_14\n      jump\t// in\n    tag_13:\n      tag_15\n      jump\t// in\n    tag_12:\n      mload(0x40)\n      tag_16\n      swap2\n      swap1\n      tag_17\n      jump\t// in\n    tag_16:\n      mload(0x40)\n      dup1\n      swap2\n      sub\n      swap1\n      return\n        /* \"Code-hardhat-ethersJs/contracts/AAVETest.sol\":2920:2956  IPool public immutable override POOL */\n    tag_5:\n      tag_18\n      tag_19\n      jump\t// in\n    tag_18:\n      mload(0x40)\n      tag_20\n      swap2\n      swap1\n      tag_21\n      jump\t// in\n    tag_20:\n      mload(0x40)\n      dup1\n      swap2\n      sub\n      swap1\n      return\n        /* \"Code-hardhat-ethersJs/contracts/AAVETest.sol\":4572:5145  function testAAVE2(address asset,uint256 amount) public {... */\n    tag_6:\n      tag_22\n      0x04\n      dup1\n      calldatasize\n      sub\n      dup2\n      add\n      swap1\n      tag_23\n      swap2\n      swap1\n      tag_24\n      jump\t// in\n    tag_23:\n      tag_25\n      jump\t// in\n    tag_22:\n      stop\n        /* \"Code-hardhat-ethersJs/contracts/AAVETest.sol\":3612:4566  function testAAVE(address asset,uint256 _amount) public {... */\n    tag_7:\n      tag_26\n      0x04\n      dup1\n      calldatasize\n      sub\n      dup2\n      add\n      swap1\n      tag_27\n      swap2\n      swap1\n      tag_24\n      jump\t// in\n    tag_27:\n      tag_28\n      jump\t// in\n    tag_26:\n      stop\n        /* \"Code-hardhat-ethersJs/contracts/AAVETest.sol\":2847:2914  IPoolAddressesProvider public immutable override ADDRESSES_PROVIDER */\n    tag_9:\n      immutable(\"0x4e701ff48cddd8d9ae76d4abc76fdf8142996b98a55d862e7a02c126a31586e6\")\n      dup2\n      jump\t// out\n        /* \"Code-hardhat-ethersJs/contracts/AAVETest.sol\":5151:6540  function executeOperation(... */\n    tag_15:\n        /* \"Code-hardhat-ethersJs/contracts/AAVETest.sol\":5376:5380  bool */\n      0x00\n        /* \"Code-hardhat-ethersJs/contracts/AAVETest.sol\":5513:5532  uint256 amountOwing */\n      dup1\n        /* \"Code-hardhat-ethersJs/contracts/AAVETest.sol\":5535:5554  amount.add(premium) */\n      tag_30\n        /* \"Code-hardhat-ethersJs/contracts/AAVETest.sol\":5546:5553  premium */\n      dup7\n        /* \"Code-hardhat-ethersJs/contracts/AAVETest.sol\":5535:5541  amount */\n      dup9\n        /* \"Code-hardhat-ethersJs/contracts/AAVETest.sol\":5535:5545  amount.add */\n      tag_31\n      swap1\n        /* \"Code-hardhat-ethersJs/contracts/AAVETest.sol\":5535:5554  amount.add(premium) */\n      swap2\n      swap1\n      0xffffffff\n      and\n      jump\t// in\n    tag_30:\n        /* \"Code-hardhat-ethersJs/contracts/AAVETest.sol\":5513:5554  uint256 amountOwing = amount.add(premium) */\n      swap1\n      pop\n        /* \"Code-hardhat-ethersJs/contracts/AAVETest.sol\":5571:5576  asset */\n      dup8\n        /* \"Code-hardhat-ethersJs/contracts/AAVETest.sol\":5564:5585  IERC20(asset).approve */\n      0xffffffffffffffffffffffffffffffffffffffff\n      and\n      0x095ea7b3\n        /* \"Code-hardhat-ethersJs/contracts/AAVETest.sol\":5594:5598  POOL */\n      immutable(\"0x609b23bf287e1766014b9bd988a6787fc1221b26b44f43f150b389e5a11ebd06\")\n        /* \"Code-hardhat-ethersJs/contracts/AAVETest.sol\":5601:5612  amountOwing */\n      dup4\n        /* \"Code-hardhat-ethersJs/contracts/AAVETest.sol\":5564:5613  IERC20(asset).approve(address(POOL), amountOwing) */\n      mload(0x40)\n      dup4\n      0xffffffff\n      and\n      0xe0\n      shl\n      dup2\n      mstore\n      0x04\n      add\n      tag_32\n      swap3\n      swap2\n      swap1\n      tag_33\n      jump\t// in\n    tag_32:\n      0x20\n      mload(0x40)\n      dup1\n      dup4\n      sub\n      dup2\n      0x00\n      dup8\n      gas\n      call\n      iszero\n      dup1\n      iszero\n      tag_35\n      jumpi\n      returndatasize\n      0x00\n      dup1\n      returndatacopy\n      revert(0x00, returndatasize)\n    tag_35:\n      pop\n      pop\n      pop\n      pop\n      mload(0x40)\n      returndatasize\n      not(0x1f)\n      0x1f\n      dup3\n      add\n      and\n      dup3\n      add\n      dup1\n      0x40\n      mstore\n      pop\n      dup2\n      add\n      swap1\n      tag_36\n      swap2\n      swap1\n      tag_37\n      jump\t// in\n    tag_36:\n      pop\n        /* \"Code-hardhat-ethersJs/contracts/AAVETest.sol\":6529:6533  true */\n      0x01\n        /* \"Code-hardhat-ethersJs/contracts/AAVETest.sol\":6522:6533  return true */\n      swap2\n      pop\n      pop\n        /* \"Code-hardhat-ethersJs/contracts/AAVETest.sol\":5151:6540  function executeOperation(... */\n      swap7\n      swap6\n      pop\n      pop\n      pop\n      pop\n      pop\n      pop\n      jump\t// out\n        /* \"Code-hardhat-ethersJs/contracts/AAVETest.sol\":2920:2956  IPool public immutable override POOL */\n    tag_19:\n      immutable(\"0x609b23bf287e1766014b9bd988a6787fc1221b26b44f43f150b389e5a11ebd06\")\n      dup2\n      jump\t// out\n        /* \"Code-hardhat-ethersJs/contracts/AAVETest.sol\":4572:5145  function testAAVE2(address asset,uint256 amount) public {... */\n    tag_25:\n        /* \"Code-hardhat-ethersJs/contracts/AAVETest.sol\":4638:4654  address receiver */\n      0x00\n        /* \"Code-hardhat-ethersJs/contracts/AAVETest.sol\":4665:4669  this */\n      address\n        /* \"Code-hardhat-ethersJs/contracts/AAVETest.sol\":4638:4670  address receiver = address(this) */\n      swap1\n      pop\n        /* \"Code-hardhat-ethersJs/contracts/AAVETest.sol\":4680:4699  bytes memory params */\n      0x00\n        /* \"Code-hardhat-ethersJs/contracts/AAVETest.sol\":4680:4704  bytes memory params = \"\" */\n      mload(0x40)\n      dup1\n      0x20\n      add\n      0x40\n      mstore\n      dup1\n      0x00\n      dup2\n      mstore\n      pop\n      swap1\n      pop\n        /* \"Code-hardhat-ethersJs/contracts/AAVETest.sol\":4714:4733  uint16 referralCode */\n      0x00\n        /* \"Code-hardhat-ethersJs/contracts/AAVETest.sol\":4747:4750  MTT */\n      0x0c\n      0x00\n      swap1\n      sload\n      swap1\n      0x0100\n      exp\n      swap1\n      div\n      0xffffffffffffffffffffffffffffffffffffffff\n      and\n        /* \"Code-hardhat-ethersJs/contracts/AAVETest.sol\":4747:4758  MTT.approve */\n      0xffffffffffffffffffffffffffffffffffffffff\n      and\n      0x095ea7b3\n        /* \"Code-hardhat-ethersJs/contracts/AAVETest.sol\":4767:4776  uv2router */\n      0x0a\n      0x00\n      swap1\n      sload\n      swap1\n      0x0100\n      exp\n      swap1\n      div\n      0xffffffffffffffffffffffffffffffffffffffff\n      and\n        /* \"Code-hardhat-ethersJs/contracts/AAVETest.sol\":4784:4811  100000000000000000000000000 */\n      0x52b7d2dcc80cd2e4000000\n        /* \"Code-hardhat-ethersJs/contracts/AAVETest.sol\":4747:4813  MTT.approve(address(uv2router), uint(100000000000000000000000000)) */\n      mload(0x40)\n      dup4\n      0xffffffff\n      and\n      0xe0\n      shl\n      dup2\n      mstore\n      0x04\n      add\n      tag_39\n      swap3\n      swap2\n      swap1\n      tag_33\n      jump\t// in\n    tag_39:\n      0x20\n      mload(0x40)\n      dup1\n      dup4\n      sub\n      dup2\n      0x00\n      dup8\n      gas\n      call\n      iszero\n      dup1\n      iszero\n      tag_41\n      jumpi\n      returndatasize\n      0x00\n      dup1\n      returndatacopy\n      revert(0x00, returndatasize)\n    tag_41:\n      pop\n      pop\n      pop\n      pop\n      mload(0x40)\n      returndatasize\n      not(0x1f)\n      0x1f\n      dup3\n      add\n      and\n      dup3\n      add\n      dup1\n      0x40\n      mstore\n      pop\n      dup2\n      add\n      swap1\n      tag_42\n      swap2\n      swap1\n      tag_37\n      jump\t// in\n    tag_42:\n      pop\n        /* \"Code-hardhat-ethersJs/contracts/AAVETest.sol\":4823:4826  MTT */\n      0x0c\n      0x00\n      swap1\n      sload\n      swap1\n      0x0100\n      exp\n      swap1\n      div\n      0xffffffffffffffffffffffffffffffffffffffff\n      and\n        /* \"Code-hardhat-ethersJs/contracts/AAVETest.sol\":4823:4834  MTT.approve */\n      0xffffffffffffffffffffffffffffffffffffffff\n      and\n      0x095ea7b3\n        /* \"Code-hardhat-ethersJs/contracts/AAVETest.sol\":4843:4852  uv3router */\n      0x0b\n      0x00\n      swap1\n      sload\n      swap1\n      0x0100\n      exp\n      swap1\n      div\n      0xffffffffffffffffffffffffffffffffffffffff\n      and\n        /* \"Code-hardhat-ethersJs/contracts/AAVETest.sol\":4860:4887  100000000000000000000000000 */\n      0x52b7d2dcc80cd2e4000000\n        /* \"Code-hardhat-ethersJs/contracts/AAVETest.sol\":4823:4889  MTT.approve(address(uv3router), uint(100000000000000000000000000)) */\n      mload(0x40)\n      dup4\n      0xffffffff\n      and\n      0xe0\n      shl\n      dup2\n      mstore\n      0x04\n      add\n      tag_43\n      swap3\n      swap2\n      swap1\n      tag_33\n      jump\t// in\n    tag_43:\n      0x20\n      mload(0x40)\n      dup1\n      dup4\n      sub\n      dup2\n      0x00\n      dup8\n      gas\n      call\n      iszero\n      dup1\n      iszero\n      tag_45\n      jumpi\n      returndatasize\n      0x00\n      dup1\n      returndatacopy\n      revert(0x00, returndatasize)\n    tag_45:\n      pop\n      pop\n      pop\n      pop\n      mload(0x40)\n      returndatasize\n      not(0x1f)\n      0x1f\n      dup3\n      add\n      and\n      dup3\n      add\n      dup1\n      0x40\n      mstore\n      pop\n      dup2\n      add\n      swap1\n      tag_46\n      swap2\n      swap1\n      tag_37\n      jump\t// in\n    tag_46:\n      pop\n        /* \"Code-hardhat-ethersJs/contracts/AAVETest.sol\":4906:4911  asset */\n      dup5\n        /* \"Code-hardhat-ethersJs/contracts/AAVETest.sol\":4899:4920  IERC20(asset).approve */\n      0xffffffffffffffffffffffffffffffffffffffff\n      and\n      0x095ea7b3\n        /* \"Code-hardhat-ethersJs/contracts/AAVETest.sol\":4929:4938  uv2router */\n      0x0a\n      0x00\n      swap1\n      sload\n      swap1\n      0x0100\n      exp\n      swap1\n      div\n      0xffffffffffffffffffffffffffffffffffffffff\n      and\n        /* \"Code-hardhat-ethersJs/contracts/AAVETest.sol\":4946:4973  100000000000000000000000000 */\n      0x52b7d2dcc80cd2e4000000\n        /* \"Code-hardhat-ethersJs/contracts/AAVETest.sol\":4899:4975  IERC20(asset).approve(address(uv2router), uint(100000000000000000000000000)) */\n      mload(0x40)\n      dup4\n      0xffffffff\n      and\n      0xe0\n      shl\n      dup2\n      mstore\n      0x04\n      add\n      tag_47\n      swap3\n      swap2\n      swap1\n      tag_33\n      jump\t// in\n    tag_47:\n      0x20\n      mload(0x40)\n      dup1\n      dup4\n      sub\n      dup2\n      0x00\n      dup8\n      gas\n      call\n      iszero\n      dup1\n      iszero\n      tag_49\n      jumpi\n      returndatasize\n      0x00\n      dup1\n      returndatacopy\n      revert(0x00, returndatasize)\n    tag_49:\n      pop\n      pop\n      pop\n      pop\n      mload(0x40)\n      returndatasize\n      not(0x1f)\n      0x1f\n      dup3\n      add\n      and\n      dup3\n      add\n      dup1\n      0x40\n      mstore\n      pop\n      dup2\n      add\n      swap1\n      tag_50\n      swap2\n      swap1\n      tag_37\n      jump\t// in\n    tag_50:\n      pop\n        /* \"Code-hardhat-ethersJs/contracts/AAVETest.sol\":4992:4997  asset */\n      dup5\n        /* \"Code-hardhat-ethersJs/contracts/AAVETest.sol\":4985:5006  IERC20(asset).approve */\n      0xffffffffffffffffffffffffffffffffffffffff\n      and\n      0x095ea7b3\n        /* \"Code-hardhat-ethersJs/contracts/AAVETest.sol\":5015:5024  uv3router */\n      0x0b\n      0x00\n      swap1\n      sload\n      swap1\n      0x0100\n      exp\n      swap1\n      div\n      0xffffffffffffffffffffffffffffffffffffffff\n      and\n        /* \"Code-hardhat-ethersJs/contracts/AAVETest.sol\":5032:5059  100000000000000000000000000 */\n      0x52b7d2dcc80cd2e4000000\n        /* \"Code-hardhat-ethersJs/contracts/AAVETest.sol\":4985:5061  IERC20(asset).approve(address(uv3router), uint(100000000000000000000000000)) */\n      mload(0x40)\n      dup4\n      0xffffffff\n      and\n      0xe0\n      shl\n      dup2\n      mstore\n      0x04\n      add\n      tag_51\n      swap3\n      swap2\n      swap1\n      tag_33\n      jump\t// in\n    tag_51:\n      0x20\n      mload(0x40)\n      dup1\n      dup4\n      sub\n      dup2\n      0x00\n      dup8\n      gas\n      call\n      iszero\n      dup1\n      iszero\n      tag_53\n      jumpi\n      returndatasize\n      0x00\n      dup1\n      returndatacopy\n      revert(0x00, returndatasize)\n    tag_53:\n      pop\n      pop\n      pop\n      pop\n      mload(0x40)\n      returndatasize\n      not(0x1f)\n      0x1f\n      dup3\n      add\n      and\n      dup3\n      add\n      dup1\n      0x40\n      mstore\n      pop\n      dup2\n      add\n      swap1\n      tag_54\n      swap2\n      swap1\n      tag_37\n      jump\t// in\n    tag_54:\n      pop\n        /* \"Code-hardhat-ethersJs/contracts/AAVETest.sol\":5071:5075  POOL */\n      immutable(\"0x609b23bf287e1766014b9bd988a6787fc1221b26b44f43f150b389e5a11ebd06\")\n        /* \"Code-hardhat-ethersJs/contracts/AAVETest.sol\":5071:5091  POOL.flashLoanSimple */\n      0xffffffffffffffffffffffffffffffffffffffff\n      and\n      0x42b0b77c\n        /* \"Code-hardhat-ethersJs/contracts/AAVETest.sol\":5092:5100  receiver */\n      dup5\n        /* \"Code-hardhat-ethersJs/contracts/AAVETest.sol\":5102:5107  asset */\n      dup8\n        /* \"Code-hardhat-ethersJs/contracts/AAVETest.sol\":5109:5115  amount */\n      dup8\n        /* \"Code-hardhat-ethersJs/contracts/AAVETest.sol\":5117:5123  params */\n      dup7\n        /* \"Code-hardhat-ethersJs/contracts/AAVETest.sol\":5125:5137  referralCode */\n      dup7\n        /* \"Code-hardhat-ethersJs/contracts/AAVETest.sol\":5071:5138  POOL.flashLoanSimple(receiver, asset, amount, params, referralCode) */\n      mload(0x40)\n      dup7\n      0xffffffff\n      and\n      0xe0\n      shl\n      dup2\n      mstore\n      0x04\n      add\n      tag_55\n      swap6\n      swap5\n      swap4\n      swap3\n      swap2\n      swap1\n      tag_56\n      jump\t// in\n    tag_55:\n      0x00\n      mload(0x40)\n      dup1\n      dup4\n      sub\n      dup2\n      0x00\n      dup8\n      dup1\n      extcodesize\n      iszero\n      dup1\n      iszero\n      tag_57\n      jumpi\n      0x00\n      dup1\n      revert\n    tag_57:\n      pop\n      gas\n      call\n      iszero\n      dup1\n      iszero\n      tag_59\n      jumpi\n      returndatasize\n      0x00\n      dup1\n      returndatacopy\n      revert(0x00, returndatasize)\n    tag_59:\n      pop\n      pop\n      pop\n      pop\n        /* \"Code-hardhat-ethersJs/contracts/AAVETest.sol\":4628:5145  {... */\n      pop\n      pop\n      pop\n        /* \"Code-hardhat-ethersJs/contracts/AAVETest.sol\":4572:5145  function testAAVE2(address asset,uint256 amount) public {... */\n      pop\n      pop\n      jump\t// out\n        /* \"Code-hardhat-ethersJs/contracts/AAVETest.sol\":3612:4566  function testAAVE(address asset,uint256 _amount) public {... */\n    tag_28:\n        /* \"Code-hardhat-ethersJs/contracts/AAVETest.sol\":3678:3701  address receiverAddress */\n      0x00\n        /* \"Code-hardhat-ethersJs/contracts/AAVETest.sol\":3712:3716  this */\n      address\n        /* \"Code-hardhat-ethersJs/contracts/AAVETest.sol\":3678:3717  address receiverAddress = address(this) */\n      swap1\n      pop\n        /* \"Code-hardhat-ethersJs/contracts/AAVETest.sol\":3728:3751  address[] memory assets */\n      0x00\n        /* \"Code-hardhat-ethersJs/contracts/AAVETest.sol\":3768:3769  1 */\n      0x01\n        /* \"Code-hardhat-ethersJs/contracts/AAVETest.sol\":3754:3770  new address[](1) */\n      0xffffffffffffffff\n      dup2\n      gt\n      iszero\n      tag_61\n      jumpi\n      tag_62\n      tag_63\n      jump\t// in\n    tag_62:\n    tag_61:\n      mload(0x40)\n      swap1\n      dup1\n      dup3\n      mstore\n      dup1\n      0x20\n      mul\n      0x20\n      add\n      dup3\n      add\n      0x40\n      mstore\n      dup1\n      iszero\n      tag_64\n      jumpi\n      dup2\n      0x20\n      add\n      0x20\n      dup3\n      mul\n      dup1\n      calldatasize\n      dup4\n      calldatacopy\n      dup1\n      dup3\n      add\n      swap2\n      pop\n      pop\n      swap1\n      pop\n    tag_64:\n      pop\n        /* \"Code-hardhat-ethersJs/contracts/AAVETest.sol\":3728:3770  address[] memory assets = new address[](1) */\n      swap1\n      pop\n        /* \"Code-hardhat-ethersJs/contracts/AAVETest.sol\":3792:3797  asset */\n      dup4\n        /* \"Code-hardhat-ethersJs/contracts/AAVETest.sol\":3780:3786  assets */\n      dup2\n        /* \"Code-hardhat-ethersJs/contracts/AAVETest.sol\":3787:3788  0 */\n      0x00\n        /* \"Code-hardhat-ethersJs/contracts/AAVETest.sol\":3780:3789  assets[0] */\n      dup2\n      mload\n      dup2\n      lt\n      tag_65\n      jumpi\n      tag_66\n      tag_67\n      jump\t// in\n    tag_66:\n    tag_65:\n      0x20\n      mul\n      0x20\n      add\n      add\n        /* \"Code-hardhat-ethersJs/contracts/AAVETest.sol\":3780:3797  assets[0] = asset */\n      swap1\n      0xffffffffffffffffffffffffffffffffffffffff\n      and\n      swap1\n      dup2\n      0xffffffffffffffffffffffffffffffffffffffff\n      and\n      dup2\n      mstore\n      pop\n      pop\n        /* \"Code-hardhat-ethersJs/contracts/AAVETest.sol\":3807:3831  uint256[] memory amounts */\n      0x00\n        /* \"Code-hardhat-ethersJs/contracts/AAVETest.sol\":3848:3849  1 */\n      0x01\n        /* \"Code-hardhat-ethersJs/contracts/AAVETest.sol\":3834:3850  new uint256[](1) */\n      0xffffffffffffffff\n      dup2\n      gt\n      iszero\n      tag_68\n      jumpi\n      tag_69\n      tag_63\n      jump\t// in\n    tag_69:\n    tag_68:\n      mload(0x40)\n      swap1\n      dup1\n      dup3\n      mstore\n      dup1\n      0x20\n      mul\n      0x20\n      add\n      dup3\n      add\n      0x40\n      mstore\n      dup1\n      iszero\n      tag_70\n      jumpi\n      dup2\n      0x20\n      add\n      0x20\n      dup3\n      mul\n      dup1\n      calldatasize\n      dup4\n      calldatacopy\n      dup1\n      dup3\n      add\n      swap2\n      pop\n      pop\n      swap1\n      pop\n    tag_70:\n      pop\n        /* \"Code-hardhat-ethersJs/contracts/AAVETest.sol\":3807:3850  uint256[] memory amounts = new uint256[](1) */\n      swap1\n      pop\n        /* \"Code-hardhat-ethersJs/contracts/AAVETest.sol\":3873:3880  _amount */\n      dup4\n        /* \"Code-hardhat-ethersJs/contracts/AAVETest.sol\":3860:3867  amounts */\n      dup2\n        /* \"Code-hardhat-ethersJs/contracts/AAVETest.sol\":3868:3869  0 */\n      0x00\n        /* \"Code-hardhat-ethersJs/contracts/AAVETest.sol\":3860:3870  amounts[0] */\n      dup2\n      mload\n      dup2\n      lt\n      tag_71\n      jumpi\n      tag_72\n      tag_67\n      jump\t// in\n    tag_72:\n    tag_71:\n      0x20\n      mul\n      0x20\n      add\n      add\n        /* \"Code-hardhat-ethersJs/contracts/AAVETest.sol\":3860:3880  amounts[0] = _amount */\n      dup2\n      dup2\n      mstore\n      pop\n      pop\n        /* \"Code-hardhat-ethersJs/contracts/AAVETest.sol\":3890:3924  uint256[] memory interestRateModes */\n      0x00\n        /* \"Code-hardhat-ethersJs/contracts/AAVETest.sol\":3941:3942  1 */\n      0x01\n        /* \"Code-hardhat-ethersJs/contracts/AAVETest.sol\":3927:3943  new uint256[](1) */\n      0xffffffffffffffff\n      dup2\n      gt\n      iszero\n      tag_73\n      jumpi\n      tag_74\n      tag_63\n      jump\t// in\n    tag_74:\n    tag_73:\n      mload(0x40)\n      swap1\n      dup1\n      dup3\n      mstore\n      dup1\n      0x20\n      mul\n      0x20\n      add\n      dup3\n      add\n      0x40\n      mstore\n      dup1\n      iszero\n      tag_75\n      jumpi\n      dup2\n      0x20\n      add\n      0x20\n      dup3\n      mul\n      dup1\n      calldatasize\n      dup4\n      calldatacopy\n      dup1\n      dup3\n      add\n      swap2\n      pop\n      pop\n      swap1\n      pop\n    tag_75:\n      pop\n        /* \"Code-hardhat-ethersJs/contracts/AAVETest.sol\":3890:3943  uint256[] memory interestRateModes = new uint256[](1) */\n      swap1\n      pop\n        /* \"Code-hardhat-ethersJs/contracts/AAVETest.sol\":3976:3977  0 */\n      0x00\n        /* \"Code-hardhat-ethersJs/contracts/AAVETest.sol\":3953:3970  interestRateModes */\n      dup2\n        /* \"Code-hardhat-ethersJs/contracts/AAVETest.sol\":3971:3972  0 */\n      0x00\n        /* \"Code-hardhat-ethersJs/contracts/AAVETest.sol\":3953:3973  interestRateModes[0] */\n      dup2\n      mload\n      dup2\n      lt\n      tag_76\n      jumpi\n      tag_77\n      tag_67\n      jump\t// in\n    tag_77:\n    tag_76:\n      0x20\n      mul\n      0x20\n      add\n      add\n        /* \"Code-hardhat-ethersJs/contracts/AAVETest.sol\":3953:3977  interestRateModes[0] = 0 */\n      dup2\n      dup2\n      mstore\n      pop\n      pop\n        /* \"Code-hardhat-ethersJs/contracts/AAVETest.sol\":4076:4095  bytes memory params */\n      0x00\n        /* \"Code-hardhat-ethersJs/contracts/AAVETest.sol\":4076:4100  bytes memory params = \"\" */\n      mload(0x40)\n      dup1\n      0x20\n      add\n      0x40\n      mstore\n      dup1\n      0x00\n      dup2\n      mstore\n      pop\n      swap1\n      pop\n        /* \"Code-hardhat-ethersJs/contracts/AAVETest.sol\":4110:4129  uint16 referralCode */\n      0x00\n        /* \"Code-hardhat-ethersJs/contracts/AAVETest.sol\":4143:4146  MTT */\n      0x0c\n      0x00\n      swap1\n      sload\n      swap1\n      0x0100\n      exp\n      swap1\n      div\n      0xffffffffffffffffffffffffffffffffffffffff\n      and\n        /* \"Code-hardhat-ethersJs/contracts/AAVETest.sol\":4143:4154  MTT.approve */\n      0xffffffffffffffffffffffffffffffffffffffff\n      and\n      0x095ea7b3\n        /* \"Code-hardhat-ethersJs/contracts/AAVETest.sol\":4163:4172  uv2router */\n      0x0a\n      0x00\n      swap1\n      sload\n      swap1\n      0x0100\n      exp\n      swap1\n      div\n      0xffffffffffffffffffffffffffffffffffffffff\n      and\n        /* \"Code-hardhat-ethersJs/contracts/AAVETest.sol\":4180:4207  100000000000000000000000000 */\n      0x52b7d2dcc80cd2e4000000\n        /* \"Code-hardhat-ethersJs/contracts/AAVETest.sol\":4143:4209  MTT.approve(address(uv2router), uint(100000000000000000000000000)) */\n      mload(0x40)\n      dup4\n      0xffffffff\n      and\n      0xe0\n      shl\n      dup2\n      mstore\n      0x04\n      add\n      tag_78\n      swap3\n      swap2\n      swap1\n      tag_33\n      jump\t// in\n    tag_78:\n      0x20\n      mload(0x40)\n      dup1\n      dup4\n      sub\n      dup2\n      0x00\n      dup8\n      gas\n      call\n      iszero\n      dup1\n      iszero\n      tag_80\n      jumpi\n      returndatasize\n      0x00\n      dup1\n      returndatacopy\n      revert(0x00, returndatasize)\n    tag_80:\n      pop\n      pop\n      pop\n      pop\n      mload(0x40)\n      returndatasize\n      not(0x1f)\n      0x1f\n      dup3\n      add\n      and\n      dup3\n      add\n      dup1\n      0x40\n      mstore\n      pop\n      dup2\n      add\n      swap1\n      tag_81\n      swap2\n      swap1\n      tag_37\n      jump\t// in\n    tag_81:\n      pop\n        /* \"Code-hardhat-ethersJs/contracts/AAVETest.sol\":4219:4222  MTT */\n      0x0c\n      0x00\n      swap1\n      sload\n      swap1\n      0x0100\n      exp\n      swap1\n      div\n      0xffffffffffffffffffffffffffffffffffffffff\n      and\n        /* \"Code-hardhat-ethersJs/contracts/AAVETest.sol\":4219:4230  MTT.approve */\n      0xffffffffffffffffffffffffffffffffffffffff\n      and\n      0x095ea7b3\n        /* \"Code-hardhat-ethersJs/contracts/AAVETest.sol\":4239:4248  uv3router */\n      0x0b\n      0x00\n      swap1\n      sload\n      swap1\n      0x0100\n      exp\n      swap1\n      div\n      0xffffffffffffffffffffffffffffffffffffffff\n      and\n        /* \"Code-hardhat-ethersJs/contracts/AAVETest.sol\":4256:4283  100000000000000000000000000 */\n      0x52b7d2dcc80cd2e4000000\n        /* \"Code-hardhat-ethersJs/contracts/AAVETest.sol\":4219:4285  MTT.approve(address(uv3router), uint(100000000000000000000000000)) */\n      mload(0x40)\n      dup4\n      0xffffffff\n      and\n      0xe0\n      shl\n      dup2\n      mstore\n      0x04\n      add\n      tag_82\n      swap3\n      swap2\n      swap1\n      tag_33\n      jump\t// in\n    tag_82:\n      0x20\n      mload(0x40)\n      dup1\n      dup4\n      sub\n      dup2\n      0x00\n      dup8\n      gas\n      call\n      iszero\n      dup1\n      iszero\n      tag_84\n      jumpi\n      returndatasize\n      0x00\n      dup1\n      returndatacopy\n      revert(0x00, returndatasize)\n    tag_84:\n      pop\n      pop\n      pop\n      pop\n      mload(0x40)\n      returndatasize\n      not(0x1f)\n      0x1f\n      dup3\n      add\n      and\n      dup3\n      add\n      dup1\n      0x40\n      mstore\n      pop\n      dup2\n      add\n      swap1\n      tag_85\n      swap2\n      swap1\n      tag_37\n      jump\t// in\n    tag_85:\n      pop\n        /* \"Code-hardhat-ethersJs/contracts/AAVETest.sol\":4295:4299  AAVE */\n      0x0d\n      0x00\n      swap1\n      sload\n      swap1\n      0x0100\n      exp\n      swap1\n      div\n      0xffffffffffffffffffffffffffffffffffffffff\n      and\n        /* \"Code-hardhat-ethersJs/contracts/AAVETest.sol\":4295:4307  AAVE.approve */\n      0xffffffffffffffffffffffffffffffffffffffff\n      and\n      0x095ea7b3\n        /* \"Code-hardhat-ethersJs/contracts/AAVETest.sol\":4316:4325  uv2router */\n      0x0a\n      0x00\n      swap1\n      sload\n      swap1\n      0x0100\n      exp\n      swap1\n      div\n      0xffffffffffffffffffffffffffffffffffffffff\n      and\n        /* \"Code-hardhat-ethersJs/contracts/AAVETest.sol\":4333:4360  100000000000000000000000000 */\n      0x52b7d2dcc80cd2e4000000\n        /* \"Code-hardhat-ethersJs/contracts/AAVETest.sol\":4295:4362  AAVE.approve(address(uv2router), uint(100000000000000000000000000)) */\n      mload(0x40)\n      dup4\n      0xffffffff\n      and\n      0xe0\n      shl\n      dup2\n      mstore\n      0x04\n      add\n      tag_86\n      swap3\n      swap2\n      swap1\n      tag_33\n      jump\t// in\n    tag_86:\n      0x20\n      mload(0x40)\n      dup1\n      dup4\n      sub\n      dup2\n      0x00\n      dup8\n      gas\n      call\n      iszero\n      dup1\n      iszero\n      tag_88\n      jumpi\n      returndatasize\n      0x00\n      dup1\n      returndatacopy\n      revert(0x00, returndatasize)\n    tag_88:\n      pop\n      pop\n      pop\n      pop\n      mload(0x40)\n      returndatasize\n      not(0x1f)\n      0x1f\n      dup3\n      add\n      and\n      dup3\n      add\n      dup1\n      0x40\n      mstore\n      pop\n      dup2\n      add\n      swap1\n      tag_89\n      swap2\n      swap1\n      tag_37\n      jump\t// in\n    tag_89:\n      pop\n        /* \"Code-hardhat-ethersJs/contracts/AAVETest.sol\":4372:4376  AAVE */\n      0x0d\n      0x00\n      swap1\n      sload\n      swap1\n      0x0100\n      exp\n      swap1\n      div\n      0xffffffffffffffffffffffffffffffffffffffff\n      and\n        /* \"Code-hardhat-ethersJs/contracts/AAVETest.sol\":4372:4384  AAVE.approve */\n      0xffffffffffffffffffffffffffffffffffffffff\n      and\n      0x095ea7b3\n        /* \"Code-hardhat-ethersJs/contracts/AAVETest.sol\":4393:4402  uv3router */\n      0x0b\n      0x00\n      swap1\n      sload\n      swap1\n      0x0100\n      exp\n      swap1\n      div\n      0xffffffffffffffffffffffffffffffffffffffff\n      and\n        /* \"Code-hardhat-ethersJs/contracts/AAVETest.sol\":4410:4437  100000000000000000000000000 */\n      0x52b7d2dcc80cd2e4000000\n        /* \"Code-hardhat-ethersJs/contracts/AAVETest.sol\":4372:4439  AAVE.approve(address(uv3router), uint(100000000000000000000000000)) */\n      mload(0x40)\n      dup4\n      0xffffffff\n      and\n      0xe0\n      shl\n      dup2\n      mstore\n      0x04\n      add\n      tag_90\n      swap3\n      swap2\n      swap1\n      tag_33\n      jump\t// in\n    tag_90:\n      0x20\n      mload(0x40)\n      dup1\n      dup4\n      sub\n      dup2\n      0x00\n      dup8\n      gas\n      call\n      iszero\n      dup1\n      iszero\n      tag_92\n      jumpi\n      returndatasize\n      0x00\n      dup1\n      returndatacopy\n      revert(0x00, returndatasize)\n    tag_92:\n      pop\n      pop\n      pop\n      pop\n      mload(0x40)\n      returndatasize\n      not(0x1f)\n      0x1f\n      dup3\n      add\n      and\n      dup3\n      add\n      dup1\n      0x40\n      mstore\n      pop\n      dup2\n      add\n      swap1\n      tag_93\n      swap2\n      swap1\n      tag_37\n      jump\t// in\n    tag_93:\n      pop\n        /* \"Code-hardhat-ethersJs/contracts/AAVETest.sol\":4454:4458  POOL */\n      immutable(\"0x609b23bf287e1766014b9bd988a6787fc1221b26b44f43f150b389e5a11ebd06\")\n        /* \"Code-hardhat-ethersJs/contracts/AAVETest.sol\":4454:4468  POOL.flashLoan */\n      0xffffffffffffffffffffffffffffffffffffffff\n      and\n      0xab9c4b5d\n        /* \"Code-hardhat-ethersJs/contracts/AAVETest.sol\":4469:4484  receiverAddress */\n      dup8\n        /* \"Code-hardhat-ethersJs/contracts/AAVETest.sol\":4486:4492  assets */\n      dup8\n        /* \"Code-hardhat-ethersJs/contracts/AAVETest.sol\":4494:4501  amounts */\n      dup8\n        /* \"Code-hardhat-ethersJs/contracts/AAVETest.sol\":4503:4520  interestRateModes */\n      dup8\n        /* \"Code-hardhat-ethersJs/contracts/AAVETest.sol\":4522:4537  receiverAddress */\n      dup12\n        /* \"Code-hardhat-ethersJs/contracts/AAVETest.sol\":4539:4545  params */\n      dup9\n        /* \"Code-hardhat-ethersJs/contracts/AAVETest.sol\":4546:4558  referralCode */\n      dup9\n        /* \"Code-hardhat-ethersJs/contracts/AAVETest.sol\":4454:4559  POOL.flashLoan(receiverAddress, assets, amounts, interestRateModes, receiverAddress, params,referralCode) */\n      mload(0x40)\n      dup9\n      0xffffffff\n      and\n      0xe0\n      shl\n      dup2\n      mstore\n      0x04\n      add\n      tag_94\n      swap8\n      swap7\n      swap6\n      swap5\n      swap4\n      swap3\n      swap2\n      swap1\n      tag_95\n      jump\t// in\n    tag_94:\n      0x00\n      mload(0x40)\n      dup1\n      dup4\n      sub\n      dup2\n      0x00\n      dup8\n      dup1\n      extcodesize\n      iszero\n      dup1\n      iszero\n      tag_96\n      jumpi\n      0x00\n      dup1\n      revert\n    tag_96:\n      pop\n      gas\n      call\n      iszero\n      dup1\n      iszero\n      tag_98\n      jumpi\n      returndatasize\n      0x00\n      dup1\n      returndatacopy\n      revert(0x00, returndatasize)\n    tag_98:\n      pop\n      pop\n      pop\n      pop\n        /* \"Code-hardhat-ethersJs/contracts/AAVETest.sol\":3668:4566  {... */\n      pop\n      pop\n      pop\n      pop\n      pop\n      pop\n        /* \"Code-hardhat-ethersJs/contracts/AAVETest.sol\":3612:4566  function testAAVE(address asset,uint256 _amount) public {... */\n      pop\n      pop\n      jump\t// out\n        /* \"@aave/core-v3/contracts/dependencies/openzeppelin/contracts/SafeMath.sol\":410:539  function add(uint256 x, uint256 y) internal pure returns (uint256 z) {... */\n    tag_31:\n        /* \"@aave/core-v3/contracts/dependencies/openzeppelin/contracts/SafeMath.sol\":468:477  uint256 z */\n      0x00\n        /* \"@aave/core-v3/contracts/dependencies/openzeppelin/contracts/SafeMath.sol\":526:527  x */\n      dup3\n        /* \"@aave/core-v3/contracts/dependencies/openzeppelin/contracts/SafeMath.sol\":520:521  y */\n      dup3\n        /* \"@aave/core-v3/contracts/dependencies/openzeppelin/contracts/SafeMath.sol\":516:517  x */\n      dup5\n        /* \"@aave/core-v3/contracts/dependencies/openzeppelin/contracts/SafeMath.sol\":516:521  x + y */\n      add\n        /* \"@aave/core-v3/contracts/dependencies/openzeppelin/contracts/SafeMath.sol\":512:521  z = x + y */\n      swap2\n      pop\n      dup2\n        /* \"@aave/core-v3/contracts/dependencies/openzeppelin/contracts/SafeMath.sol\":511:527  (z = x + y) >= x */\n      lt\n      iszero\n        /* \"@aave/core-v3/contracts/dependencies/openzeppelin/contracts/SafeMath.sol\":503:528  require((z = x + y) >= x) */\n      tag_100\n      jumpi\n      0x00\n      dup1\n      revert\n    tag_100:\n        /* \"@aave/core-v3/contracts/dependencies/openzeppelin/contracts/SafeMath.sol\":410:539  function add(uint256 x, uint256 y) internal pure returns (uint256 z) {... */\n      swap3\n      swap2\n      pop\n      pop\n      jump\t// out\n        /* \"#utility.yul\":7:133   */\n    tag_101:\n        /* \"#utility.yul\":44:51   */\n      0x00\n        /* \"#utility.yul\":84:126   */\n      0xffffffffffffffffffffffffffffffffffffffff\n        /* \"#utility.yul\":77:82   */\n      dup3\n        /* \"#utility.yul\":73:127   */\n      and\n        /* \"#utility.yul\":62:127   */\n      swap1\n      pop\n        /* \"#utility.yul\":7:133   */\n      swap2\n      swap1\n      pop\n      jump\t// out\n        /* \"#utility.yul\":139:199   */\n    tag_102:\n        /* \"#utility.yul\":167:170   */\n      0x00\n        /* \"#utility.yul\":188:193   */\n      dup2\n        /* \"#utility.yul\":181:193   */\n      swap1\n      pop\n        /* \"#utility.yul\":139:199   */\n      swap2\n      swap1\n      pop\n      jump\t// out\n        /* \"#utility.yul\":205:347   */\n    tag_103:\n        /* \"#utility.yul\":255:264   */\n      0x00\n        /* \"#utility.yul\":288:341   */\n      tag_153\n        /* \"#utility.yul\":306:340   */\n      tag_154\n        /* \"#utility.yul\":315:339   */\n      tag_155\n        /* \"#utility.yul\":333:338   */\n      dup5\n        /* \"#utility.yul\":315:339   */\n      tag_101\n      jump\t// in\n    tag_155:\n        /* \"#utility.yul\":306:340   */\n      tag_102\n      jump\t// in\n    tag_154:\n        /* \"#utility.yul\":288:341   */\n      tag_101\n      jump\t// in\n    tag_153:\n        /* \"#utility.yul\":275:341   */\n      swap1\n      pop\n        /* \"#utility.yul\":205:347   */\n      swap2\n      swap1\n      pop\n      jump\t// out\n        /* \"#utility.yul\":353:479   */\n    tag_104:\n        /* \"#utility.yul\":403:412   */\n      0x00\n        /* \"#utility.yul\":436:473   */\n      tag_157\n        /* \"#utility.yul\":467:472   */\n      dup3\n        /* \"#utility.yul\":436:473   */\n      tag_103\n      jump\t// in\n    tag_157:\n        /* \"#utility.yul\":423:473   */\n      swap1\n      pop\n        /* \"#utility.yul\":353:479   */\n      swap2\n      swap1\n      pop\n      jump\t// out\n        /* \"#utility.yul\":485:641   */\n    tag_105:\n        /* \"#utility.yul\":565:574   */\n      0x00\n        /* \"#utility.yul\":598:635   */\n      tag_159\n        /* \"#utility.yul\":629:634   */\n      dup3\n        /* \"#utility.yul\":598:635   */\n      tag_104\n      jump\t// in\n    tag_159:\n        /* \"#utility.yul\":585:635   */\n      swap1\n      pop\n        /* \"#utility.yul\":485:641   */\n      swap2\n      swap1\n      pop\n      jump\t// out\n        /* \"#utility.yul\":647:838   */\n    tag_106:\n        /* \"#utility.yul\":764:831   */\n      tag_161\n        /* \"#utility.yul\":825:830   */\n      dup2\n        /* \"#utility.yul\":764:831   */\n      tag_105\n      jump\t// in\n    tag_161:\n        /* \"#utility.yul\":759:762   */\n      dup3\n        /* \"#utility.yul\":752:832   */\n      mstore\n        /* \"#utility.yul\":647:838   */\n      pop\n      pop\n      jump\t// out\n        /* \"#utility.yul\":844:1126   */\n    tag_11:\n        /* \"#utility.yul\":967:971   */\n      0x00\n        /* \"#utility.yul\":1005:1007   */\n      0x20\n        /* \"#utility.yul\":994:1003   */\n      dup3\n        /* \"#utility.yul\":990:1008   */\n      add\n        /* \"#utility.yul\":982:1008   */\n      swap1\n      pop\n        /* \"#utility.yul\":1018:1119   */\n      tag_163\n        /* \"#utility.yul\":1116:1117   */\n      0x00\n        /* \"#utility.yul\":1105:1114   */\n      dup4\n        /* \"#utility.yul\":1101:1118   */\n      add\n        /* \"#utility.yul\":1092:1098   */\n      dup5\n        /* \"#utility.yul\":1018:1119   */\n      tag_106\n      jump\t// in\n    tag_163:\n        /* \"#utility.yul\":844:1126   */\n      swap3\n      swap2\n      pop\n      pop\n      jump\t// out\n        /* \"#utility.yul\":1213:1330   */\n    tag_108:\n        /* \"#utility.yul\":1322:1323   */\n      0x00\n        /* \"#utility.yul\":1319:1320   */\n      dup1\n        /* \"#utility.yul\":1312:1324   */\n      revert\n        /* \"#utility.yul\":1336:1453   */\n    tag_109:\n        /* \"#utility.yul\":1445:1446   */\n      0x00\n        /* \"#utility.yul\":1442:1443   */\n      dup1\n        /* \"#utility.yul\":1435:1447   */\n      revert\n        /* \"#utility.yul\":1459:1555   */\n    tag_110:\n        /* \"#utility.yul\":1496:1503   */\n      0x00\n        /* \"#utility.yul\":1525:1549   */\n      tag_168\n        /* \"#utility.yul\":1543:1548   */\n      dup3\n        /* \"#utility.yul\":1525:1549   */\n      tag_101\n      jump\t// in\n    tag_168:\n        /* \"#utility.yul\":1514:1549   */\n      swap1\n      pop\n        /* \"#utility.yul\":1459:1555   */\n      swap2\n      swap1\n      pop\n      jump\t// out\n        /* \"#utility.yul\":1561:1683   */\n    tag_111:\n        /* \"#utility.yul\":1634:1658   */\n      tag_170\n        /* \"#utility.yul\":1652:1657   */\n      dup2\n        /* \"#utility.yul\":1634:1658   */\n      tag_110\n      jump\t// in\n    tag_170:\n        /* \"#utility.yul\":1627:1632   */\n      dup2\n        /* \"#utility.yul\":1624:1659   */\n      eq\n        /* \"#utility.yul\":1614:1677   */\n      tag_171\n      jumpi\n        /* \"#utility.yul\":1673:1674   */\n      0x00\n        /* \"#utility.yul\":1670:1671   */\n      dup1\n        /* \"#utility.yul\":1663:1675   */\n      revert\n        /* \"#utility.yul\":1614:1677   */\n    tag_171:\n        /* \"#utility.yul\":1561:1683   */\n      pop\n      jump\t// out\n        /* \"#utility.yul\":1689:1828   */\n    tag_112:\n        /* \"#utility.yul\":1735:1740   */\n      0x00\n        /* \"#utility.yul\":1773:1779   */\n      dup2\n        /* \"#utility.yul\":1760:1780   */\n      calldataload\n        /* \"#utility.yul\":1751:1780   */\n      swap1\n      pop\n        /* \"#utility.yul\":1789:1822   */\n      tag_173\n        /* \"#utility.yul\":1816:1821   */\n      dup2\n        /* \"#utility.yul\":1789:1822   */\n      tag_111\n      jump\t// in\n    tag_173:\n        /* \"#utility.yul\":1689:1828   */\n      swap3\n      swap2\n      pop\n      pop\n      jump\t// out\n        /* \"#utility.yul\":1834:1911   */\n    tag_113:\n        /* \"#utility.yul\":1871:1878   */\n      0x00\n        /* \"#utility.yul\":1900:1905   */\n      dup2\n        /* \"#utility.yul\":1889:1905   */\n      swap1\n      pop\n        /* \"#utility.yul\":1834:1911   */\n      swap2\n      swap1\n      pop\n      jump\t// out\n        /* \"#utility.yul\":1917:2039   */\n    tag_114:\n        /* \"#utility.yul\":1990:2014   */\n      tag_176\n        /* \"#utility.yul\":2008:2013   */\n      dup2\n        /* \"#utility.yul\":1990:2014   */\n      tag_113\n      jump\t// in\n    tag_176:\n        /* \"#utility.yul\":1983:1988   */\n      dup2\n        /* \"#utility.yul\":1980:2015   */\n      eq\n        /* \"#utility.yul\":1970:2033   */\n      tag_177\n      jumpi\n        /* \"#utility.yul\":2029:2030   */\n      0x00\n        /* \"#utility.yul\":2026:2027   */\n      dup1\n        /* \"#utility.yul\":2019:2031   */\n      revert\n        /* \"#utility.yul\":1970:2033   */\n    tag_177:\n        /* \"#utility.yul\":1917:2039   */\n      pop\n      jump\t// out\n        /* \"#utility.yul\":2045:2184   */\n    tag_115:\n        /* \"#utility.yul\":2091:2096   */\n      0x00\n        /* \"#utility.yul\":2129:2135   */\n      dup2\n        /* \"#utility.yul\":2116:2136   */\n      calldataload\n        /* \"#utility.yul\":2107:2136   */\n      swap1\n      pop\n        /* \"#utility.yul\":2145:2178   */\n      tag_179\n        /* \"#utility.yul\":2172:2177   */\n      dup2\n        /* \"#utility.yul\":2145:2178   */\n      tag_114\n      jump\t// in\n    tag_179:\n        /* \"#utility.yul\":2045:2184   */\n      swap3\n      swap2\n      pop\n      pop\n      jump\t// out\n        /* \"#utility.yul\":2190:2307   */\n    tag_116:\n        /* \"#utility.yul\":2299:2300   */\n      0x00\n        /* \"#utility.yul\":2296:2297   */\n      dup1\n        /* \"#utility.yul\":2289:2301   */\n      revert\n        /* \"#utility.yul\":2313:2430   */\n    tag_117:\n        /* \"#utility.yul\":2422:2423   */\n      0x00\n        /* \"#utility.yul\":2419:2420   */\n      dup1\n        /* \"#utility.yul\":2412:2424   */\n      revert\n        /* \"#utility.yul\":2436:2553   */\n    tag_118:\n        /* \"#utility.yul\":2545:2546   */\n      0x00\n        /* \"#utility.yul\":2542:2543   */\n      dup1\n        /* \"#utility.yul\":2535:2547   */\n      revert\n        /* \"#utility.yul\":2572:3124   */\n    tag_119:\n        /* \"#utility.yul\":2629:2637   */\n      0x00\n        /* \"#utility.yul\":2639:2645   */\n      dup1\n        /* \"#utility.yul\":2689:2692   */\n      dup4\n        /* \"#utility.yul\":2682:2686   */\n      0x1f\n        /* \"#utility.yul\":2674:2680   */\n      dup5\n        /* \"#utility.yul\":2670:2687   */\n      add\n        /* \"#utility.yul\":2666:2693   */\n      slt\n        /* \"#utility.yul\":2656:2778   */\n      tag_184\n      jumpi\n        /* \"#utility.yul\":2697:2776   */\n      tag_185\n      tag_116\n      jump\t// in\n    tag_185:\n        /* \"#utility.yul\":2656:2778   */\n    tag_184:\n        /* \"#utility.yul\":2810:2816   */\n      dup3\n        /* \"#utility.yul\":2797:2817   */\n      calldataload\n        /* \"#utility.yul\":2787:2817   */\n      swap1\n      pop\n        /* \"#utility.yul\":2840:2858   */\n      0xffffffffffffffff\n        /* \"#utility.yul\":2832:2838   */\n      dup2\n        /* \"#utility.yul\":2829:2859   */\n      gt\n        /* \"#utility.yul\":2826:2943   */\n      iszero\n      tag_186\n      jumpi\n        /* \"#utility.yul\":2862:2941   */\n      tag_187\n      tag_117\n      jump\t// in\n    tag_187:\n        /* \"#utility.yul\":2826:2943   */\n    tag_186:\n        /* \"#utility.yul\":2976:2980   */\n      0x20\n        /* \"#utility.yul\":2968:2974   */\n      dup4\n        /* \"#utility.yul\":2964:2981   */\n      add\n        /* \"#utility.yul\":2952:2981   */\n      swap2\n      pop\n        /* \"#utility.yul\":3030:3033   */\n      dup4\n        /* \"#utility.yul\":3022:3026   */\n      0x01\n        /* \"#utility.yul\":3014:3020   */\n      dup3\n        /* \"#utility.yul\":3010:3027   */\n      mul\n        /* \"#utility.yul\":3000:3008   */\n      dup4\n        /* \"#utility.yul\":2996:3028   */\n      add\n        /* \"#utility.yul\":2993:3034   */\n      gt\n        /* \"#utility.yul\":2990:3118   */\n      iszero\n      tag_188\n      jumpi\n        /* \"#utility.yul\":3037:3116   */\n      tag_189\n      tag_118\n      jump\t// in\n    tag_189:\n        /* \"#utility.yul\":2990:3118   */\n    tag_188:\n        /* \"#utility.yul\":2572:3124   */\n      swap3\n      pop\n      swap3\n      swap1\n      pop\n      jump\t// out\n        /* \"#utility.yul\":3130:4239   */\n    tag_14:\n        /* \"#utility.yul\":3236:3242   */\n      0x00\n        /* \"#utility.yul\":3244:3250   */\n      dup1\n        /* \"#utility.yul\":3252:3258   */\n      0x00\n        /* \"#utility.yul\":3260:3266   */\n      dup1\n        /* \"#utility.yul\":3268:3274   */\n      0x00\n        /* \"#utility.yul\":3276:3282   */\n      dup1\n        /* \"#utility.yul\":3325:3328   */\n      0xa0\n        /* \"#utility.yul\":3313:3322   */\n      dup8\n        /* \"#utility.yul\":3304:3311   */\n      dup10\n        /* \"#utility.yul\":3300:3323   */\n      sub\n        /* \"#utility.yul\":3296:3329   */\n      slt\n        /* \"#utility.yul\":3293:3413   */\n      iszero\n      tag_191\n      jumpi\n        /* \"#utility.yul\":3332:3411   */\n      tag_192\n      tag_108\n      jump\t// in\n    tag_192:\n        /* \"#utility.yul\":3293:3413   */\n    tag_191:\n        /* \"#utility.yul\":3452:3453   */\n      0x00\n        /* \"#utility.yul\":3477:3530   */\n      tag_193\n        /* \"#utility.yul\":3522:3529   */\n      dup10\n        /* \"#utility.yul\":3513:3519   */\n      dup3\n        /* \"#utility.yul\":3502:3511   */\n      dup11\n        /* \"#utility.yul\":3498:3520   */\n      add\n        /* \"#utility.yul\":3477:3530   */\n      tag_112\n      jump\t// in\n    tag_193:\n        /* \"#utility.yul\":3467:3530   */\n      swap7\n      pop\n        /* \"#utility.yul\":3423:3540   */\n      pop\n        /* \"#utility.yul\":3579:3581   */\n      0x20\n        /* \"#utility.yul\":3605:3658   */\n      tag_194\n        /* \"#utility.yul\":3650:3657   */\n      dup10\n        /* \"#utility.yul\":3641:3647   */\n      dup3\n        /* \"#utility.yul\":3630:3639   */\n      dup11\n        /* \"#utility.yul\":3626:3648   */\n      add\n        /* \"#utility.yul\":3605:3658   */\n      tag_115\n      jump\t// in\n    tag_194:\n        /* \"#utility.yul\":3595:3658   */\n      swap6\n      pop\n        /* \"#utility.yul\":3550:3668   */\n      pop\n        /* \"#utility.yul\":3707:3709   */\n      0x40\n        /* \"#utility.yul\":3733:3786   */\n      tag_195\n        /* \"#utility.yul\":3778:3785   */\n      dup10\n        /* \"#utility.yul\":3769:3775   */\n      dup3\n        /* \"#utility.yul\":3758:3767   */\n      dup11\n        /* \"#utility.yul\":3754:3776   */\n      add\n        /* \"#utility.yul\":3733:3786   */\n      tag_115\n      jump\t// in\n    tag_195:\n        /* \"#utility.yul\":3723:3786   */\n      swap5\n      pop\n        /* \"#utility.yul\":3678:3796   */\n      pop\n        /* \"#utility.yul\":3835:3837   */\n      0x60\n        /* \"#utility.yul\":3861:3914   */\n      tag_196\n        /* \"#utility.yul\":3906:3913   */\n      dup10\n        /* \"#utility.yul\":3897:3903   */\n      dup3\n        /* \"#utility.yul\":3886:3895   */\n      dup11\n        /* \"#utility.yul\":3882:3904   */\n      add\n        /* \"#utility.yul\":3861:3914   */\n      tag_112\n      jump\t// in\n    tag_196:\n        /* \"#utility.yul\":3851:3914   */\n      swap4\n      pop\n        /* \"#utility.yul\":3806:3924   */\n      pop\n        /* \"#utility.yul\":3991:3994   */\n      0x80\n        /* \"#utility.yul\":3980:3989   */\n      dup8\n        /* \"#utility.yul\":3976:3995   */\n      add\n        /* \"#utility.yul\":3963:3996   */\n      calldataload\n        /* \"#utility.yul\":4023:4041   */\n      0xffffffffffffffff\n        /* \"#utility.yul\":4015:4021   */\n      dup2\n        /* \"#utility.yul\":4012:4042   */\n      gt\n        /* \"#utility.yul\":4009:4126   */\n      iszero\n      tag_197\n      jumpi\n        /* \"#utility.yul\":4045:4124   */\n      tag_198\n      tag_109\n      jump\t// in\n    tag_198:\n        /* \"#utility.yul\":4009:4126   */\n    tag_197:\n        /* \"#utility.yul\":4158:4222   */\n      tag_199\n        /* \"#utility.yul\":4214:4221   */\n      dup10\n        /* \"#utility.yul\":4205:4211   */\n      dup3\n        /* \"#utility.yul\":4194:4203   */\n      dup11\n        /* \"#utility.yul\":4190:4212   */\n      add\n        /* \"#utility.yul\":4158:4222   */\n      tag_119\n      jump\t// in\n    tag_199:\n        /* \"#utility.yul\":4140:4222   */\n      swap3\n      pop\n      swap3\n      pop\n        /* \"#utility.yul\":3934:4232   */\n      pop\n        /* \"#utility.yul\":3130:4239   */\n      swap3\n      swap6\n      pop\n      swap3\n      swap6\n      pop\n      swap3\n      swap6\n      jump\t// out\n        /* \"#utility.yul\":4245:4335   */\n    tag_120:\n        /* \"#utility.yul\":4279:4286   */\n      0x00\n        /* \"#utility.yul\":4322:4327   */\n      dup2\n        /* \"#utility.yul\":4315:4328   */\n      iszero\n        /* \"#utility.yul\":4308:4329   */\n      iszero\n        /* \"#utility.yul\":4297:4329   */\n      swap1\n      pop\n        /* \"#utility.yul\":4245:4335   */\n      swap2\n      swap1\n      pop\n      jump\t// out\n        /* \"#utility.yul\":4341:4450   */\n    tag_121:\n        /* \"#utility.yul\":4422:4443   */\n      tag_202\n        /* \"#utility.yul\":4437:4442   */\n      dup2\n        /* \"#utility.yul\":4422:4443   */\n      tag_120\n      jump\t// in\n    tag_202:\n        /* \"#utility.yul\":4417:4420   */\n      dup3\n        /* \"#utility.yul\":4410:4444   */\n      mstore\n        /* \"#utility.yul\":4341:4450   */\n      pop\n      pop\n      jump\t// out\n        /* \"#utility.yul\":4456:4666   */\n    tag_17:\n        /* \"#utility.yul\":4543:4547   */\n      0x00\n        /* \"#utility.yul\":4581:4583   */\n      0x20\n        /* \"#utility.yul\":4570:4579   */\n      dup3\n        /* \"#utility.yul\":4566:4584   */\n      add\n        /* \"#utility.yul\":4558:4584   */\n      swap1\n      pop\n        /* \"#utility.yul\":4594:4659   */\n      tag_204\n        /* \"#utility.yul\":4656:4657   */\n      0x00\n        /* \"#utility.yul\":4645:4654   */\n      dup4\n        /* \"#utility.yul\":4641:4658   */\n      add\n        /* \"#utility.yul\":4632:4638   */\n      dup5\n        /* \"#utility.yul\":4594:4659   */\n      tag_121\n      jump\t// in\n    tag_204:\n        /* \"#utility.yul\":4456:4666   */\n      swap3\n      swap2\n      pop\n      pop\n      jump\t// out\n        /* \"#utility.yul\":4672:4811   */\n    tag_122:\n        /* \"#utility.yul\":4735:4744   */\n      0x00\n        /* \"#utility.yul\":4768:4805   */\n      tag_206\n        /* \"#utility.yul\":4799:4804   */\n      dup3\n        /* \"#utility.yul\":4768:4805   */\n      tag_104\n      jump\t// in\n    tag_206:\n        /* \"#utility.yul\":4755:4805   */\n      swap1\n      pop\n        /* \"#utility.yul\":4672:4811   */\n      swap2\n      swap1\n      pop\n      jump\t// out\n        /* \"#utility.yul\":4817:4974   */\n    tag_123:\n        /* \"#utility.yul\":4917:4967   */\n      tag_208\n        /* \"#utility.yul\":4961:4966   */\n      dup2\n        /* \"#utility.yul\":4917:4967   */\n      tag_122\n      jump\t// in\n    tag_208:\n        /* \"#utility.yul\":4912:4915   */\n      dup3\n        /* \"#utility.yul\":4905:4968   */\n      mstore\n        /* \"#utility.yul\":4817:4974   */\n      pop\n      pop\n      jump\t// out\n        /* \"#utility.yul\":4980:5228   */\n    tag_21:\n        /* \"#utility.yul\":5086:5090   */\n      0x00\n        /* \"#utility.yul\":5124:5126   */\n      0x20\n        /* \"#utility.yul\":5113:5122   */\n      dup3\n        /* \"#utility.yul\":5109:5127   */\n      add\n        /* \"#utility.yul\":5101:5127   */\n      swap1\n      pop\n        /* \"#utility.yul\":5137:5221   */\n      tag_210\n        /* \"#utility.yul\":5218:5219   */\n      0x00\n        /* \"#utility.yul\":5207:5216   */\n      dup4\n        /* \"#utility.yul\":5203:5220   */\n      add\n        /* \"#utility.yul\":5194:5200   */\n      dup5\n        /* \"#utility.yul\":5137:5221   */\n      tag_123\n      jump\t// in\n    tag_210:\n        /* \"#utility.yul\":4980:5228   */\n      swap3\n      swap2\n      pop\n      pop\n      jump\t// out\n        /* \"#utility.yul\":5234:5708   */\n    tag_24:\n        /* \"#utility.yul\":5302:5308   */\n      0x00\n        /* \"#utility.yul\":5310:5316   */\n      dup1\n        /* \"#utility.yul\":5359:5361   */\n      0x40\n        /* \"#utility.yul\":5347:5356   */\n      dup4\n        /* \"#utility.yul\":5338:5345   */\n      dup6\n        /* \"#utility.yul\":5334:5357   */\n      sub\n        /* \"#utility.yul\":5330:5362   */\n      slt\n        /* \"#utility.yul\":5327:5446   */\n      iszero\n      tag_212\n      jumpi\n        /* \"#utility.yul\":5365:5444   */\n      tag_213\n      tag_108\n      jump\t// in\n    tag_213:\n        /* \"#utility.yul\":5327:5446   */\n    tag_212:\n        /* \"#utility.yul\":5485:5486   */\n      0x00\n        /* \"#utility.yul\":5510:5563   */\n      tag_214\n        /* \"#utility.yul\":5555:5562   */\n      dup6\n        /* \"#utility.yul\":5546:5552   */\n      dup3\n        /* \"#utility.yul\":5535:5544   */\n      dup7\n        /* \"#utility.yul\":5531:5553   */\n      add\n        /* \"#utility.yul\":5510:5563   */\n      tag_112\n      jump\t// in\n    tag_214:\n        /* \"#utility.yul\":5500:5563   */\n      swap3\n      pop\n        /* \"#utility.yul\":5456:5573   */\n      pop\n        /* \"#utility.yul\":5612:5614   */\n      0x20\n        /* \"#utility.yul\":5638:5691   */\n      tag_215\n        /* \"#utility.yul\":5683:5690   */\n      dup6\n        /* \"#utility.yul\":5674:5680   */\n      dup3\n        /* \"#utility.yul\":5663:5672   */\n      dup7\n        /* \"#utility.yul\":5659:5681   */\n      add\n        /* \"#utility.yul\":5638:5691   */\n      tag_115\n      jump\t// in\n    tag_215:\n        /* \"#utility.yul\":5628:5691   */\n      swap2\n      pop\n        /* \"#utility.yul\":5583:5701   */\n      pop\n        /* \"#utility.yul\":5234:5708   */\n      swap3\n      pop\n      swap3\n      swap1\n      pop\n      jump\t// out\n        /* \"#utility.yul\":5714:5832   */\n    tag_124:\n        /* \"#utility.yul\":5801:5825   */\n      tag_217\n        /* \"#utility.yul\":5819:5824   */\n      dup2\n        /* \"#utility.yul\":5801:5825   */\n      tag_110\n      jump\t// in\n    tag_217:\n        /* \"#utility.yul\":5796:5799   */\n      dup3\n        /* \"#utility.yul\":5789:5826   */\n      mstore\n        /* \"#utility.yul\":5714:5832   */\n      pop\n      pop\n      jump\t// out\n        /* \"#utility.yul\":5838:5956   */\n    tag_125:\n        /* \"#utility.yul\":5925:5949   */\n      tag_219\n        /* \"#utility.yul\":5943:5948   */\n      dup2\n        /* \"#utility.yul\":5925:5949   */\n      tag_113\n      jump\t// in\n    tag_219:\n        /* \"#utility.yul\":5920:5923   */\n      dup3\n        /* \"#utility.yul\":5913:5950   */\n      mstore\n        /* \"#utility.yul\":5838:5956   */\n      pop\n      pop\n      jump\t// out\n        /* \"#utility.yul\":5962:6294   */\n    tag_33:\n        /* \"#utility.yul\":6083:6087   */\n      0x00\n        /* \"#utility.yul\":6121:6123   */\n      0x40\n        /* \"#utility.yul\":6110:6119   */\n      dup3\n        /* \"#utility.yul\":6106:6124   */\n      add\n        /* \"#utility.yul\":6098:6124   */\n      swap1\n      pop\n        /* \"#utility.yul\":6134:6205   */\n      tag_221\n        /* \"#utility.yul\":6202:6203   */\n      0x00\n        /* \"#utility.yul\":6191:6200   */\n      dup4\n        /* \"#utility.yul\":6187:6204   */\n      add\n        /* \"#utility.yul\":6178:6184   */\n      dup6\n        /* \"#utility.yul\":6134:6205   */\n      tag_124\n      jump\t// in\n    tag_221:\n        /* \"#utility.yul\":6215:6287   */\n      tag_222\n        /* \"#utility.yul\":6283:6285   */\n      0x20\n        /* \"#utility.yul\":6272:6281   */\n      dup4\n        /* \"#utility.yul\":6268:6286   */\n      add\n        /* \"#utility.yul\":6259:6265   */\n      dup5\n        /* \"#utility.yul\":6215:6287   */\n      tag_125\n      jump\t// in\n    tag_222:\n        /* \"#utility.yul\":5962:6294   */\n      swap4\n      swap3\n      pop\n      pop\n      pop\n      jump\t// out\n        /* \"#utility.yul\":6300:6416   */\n    tag_126:\n        /* \"#utility.yul\":6370:6391   */\n      tag_224\n        /* \"#utility.yul\":6385:6390   */\n      dup2\n        /* \"#utility.yul\":6370:6391   */\n      tag_120\n      jump\t// in\n    tag_224:\n        /* \"#utility.yul\":6363:6368   */\n      dup2\n        /* \"#utility.yul\":6360:6392   */\n      eq\n        /* \"#utility.yul\":6350:6410   */\n      tag_225\n      jumpi\n        /* \"#utility.yul\":6406:6407   */\n      0x00\n        /* \"#utility.yul\":6403:6404   */\n      dup1\n        /* \"#utility.yul\":6396:6408   */\n      revert\n        /* \"#utility.yul\":6350:6410   */\n    tag_225:\n        /* \"#utility.yul\":6300:6416   */\n      pop\n      jump\t// out\n        /* \"#utility.yul\":6422:6559   */\n    tag_127:\n        /* \"#utility.yul\":6476:6481   */\n      0x00\n        /* \"#utility.yul\":6507:6513   */\n      dup2\n        /* \"#utility.yul\":6501:6514   */\n      mload\n        /* \"#utility.yul\":6492:6514   */\n      swap1\n      pop\n        /* \"#utility.yul\":6523:6553   */\n      tag_227\n        /* \"#utility.yul\":6547:6552   */\n      dup2\n        /* \"#utility.yul\":6523:6553   */\n      tag_126\n      jump\t// in\n    tag_227:\n        /* \"#utility.yul\":6422:6559   */\n      swap3\n      swap2\n      pop\n      pop\n      jump\t// out\n        /* \"#utility.yul\":6565:6910   */\n    tag_37:\n        /* \"#utility.yul\":6632:6638   */\n      0x00\n        /* \"#utility.yul\":6681:6683   */\n      0x20\n        /* \"#utility.yul\":6669:6678   */\n      dup3\n        /* \"#utility.yul\":6660:6667   */\n      dup5\n        /* \"#utility.yul\":6656:6679   */\n      sub\n        /* \"#utility.yul\":6652:6684   */\n      slt\n        /* \"#utility.yul\":6649:6768   */\n      iszero\n      tag_229\n      jumpi\n        /* \"#utility.yul\":6687:6766   */\n      tag_230\n      tag_108\n      jump\t// in\n    tag_230:\n        /* \"#utility.yul\":6649:6768   */\n    tag_229:\n        /* \"#utility.yul\":6807:6808   */\n      0x00\n        /* \"#utility.yul\":6832:6893   */\n      tag_231\n        /* \"#utility.yul\":6885:6892   */\n      dup5\n        /* \"#utility.yul\":6876:6882   */\n      dup3\n        /* \"#utility.yul\":6865:6874   */\n      dup6\n        /* \"#utility.yul\":6861:6883   */\n      add\n        /* \"#utility.yul\":6832:6893   */\n      tag_127\n      jump\t// in\n    tag_231:\n        /* \"#utility.yul\":6822:6893   */\n      swap2\n      pop\n        /* \"#utility.yul\":6778:6903   */\n      pop\n        /* \"#utility.yul\":6565:6910   */\n      swap3\n      swap2\n      pop\n      pop\n      jump\t// out\n        /* \"#utility.yul\":6916:7014   */\n    tag_128:\n        /* \"#utility.yul\":6967:6973   */\n      0x00\n        /* \"#utility.yul\":7001:7006   */\n      dup2\n        /* \"#utility.yul\":6995:7007   */\n      mload\n        /* \"#utility.yul\":6985:7007   */\n      swap1\n      pop\n        /* \"#utility.yul\":6916:7014   */\n      swap2\n      swap1\n      pop\n      jump\t// out\n        /* \"#utility.yul\":7020:7188   */\n    tag_129:\n        /* \"#utility.yul\":7103:7114   */\n      0x00\n        /* \"#utility.yul\":7137:7143   */\n      dup3\n        /* \"#utility.yul\":7132:7135   */\n      dup3\n        /* \"#utility.yul\":7125:7144   */\n      mstore\n        /* \"#utility.yul\":7177:7181   */\n      0x20\n        /* \"#utility.yul\":7172:7175   */\n      dup3\n        /* \"#utility.yul\":7168:7182   */\n      add\n        /* \"#utility.yul\":7153:7182   */\n      swap1\n      pop\n        /* \"#utility.yul\":7020:7188   */\n      swap3\n      swap2\n      pop\n      pop\n      jump\t// out\n        /* \"#utility.yul\":7194:7501   */\n    tag_130:\n        /* \"#utility.yul\":7262:7263   */\n      0x00\n        /* \"#utility.yul\":7272:7385   */\n    tag_235:\n        /* \"#utility.yul\":7286:7292   */\n      dup4\n        /* \"#utility.yul\":7283:7284   */\n      dup2\n        /* \"#utility.yul\":7280:7293   */\n      lt\n        /* \"#utility.yul\":7272:7385   */\n      iszero\n      tag_237\n      jumpi\n        /* \"#utility.yul\":7371:7372   */\n      dup1\n        /* \"#utility.yul\":7366:7369   */\n      dup3\n        /* \"#utility.yul\":7362:7373   */\n      add\n        /* \"#utility.yul\":7356:7374   */\n      mload\n        /* \"#utility.yul\":7352:7353   */\n      dup2\n        /* \"#utility.yul\":7347:7350   */\n      dup5\n        /* \"#utility.yul\":7343:7354   */\n      add\n        /* \"#utility.yul\":7336:7375   */\n      mstore\n        /* \"#utility.yul\":7308:7310   */\n      0x20\n        /* \"#utility.yul\":7305:7306   */\n      dup2\n        /* \"#utility.yul\":7301:7311   */\n      add\n        /* \"#utility.yul\":7296:7311   */\n      swap1\n      pop\n        /* \"#utility.yul\":7272:7385   */\n      jump(tag_235)\n    tag_237:\n        /* \"#utility.yul\":7403:7409   */\n      dup4\n        /* \"#utility.yul\":7400:7401   */\n      dup2\n        /* \"#utility.yul\":7397:7410   */\n      gt\n        /* \"#utility.yul\":7394:7495   */\n      iszero\n      tag_238\n      jumpi\n        /* \"#utility.yul\":7483:7484   */\n      0x00\n        /* \"#utility.yul\":7474:7480   */\n      dup5\n        /* \"#utility.yul\":7469:7472   */\n      dup5\n        /* \"#utility.yul\":7465:7481   */\n      add\n        /* \"#utility.yul\":7458:7485   */\n      mstore\n        /* \"#utility.yul\":7394:7495   */\n    tag_238:\n        /* \"#utility.yul\":7243:7501   */\n      pop\n        /* \"#utility.yul\":7194:7501   */\n      pop\n      pop\n      pop\n      jump\t// out\n        /* \"#utility.yul\":7507:7609   */\n    tag_131:\n        /* \"#utility.yul\":7548:7554   */\n      0x00\n        /* \"#utility.yul\":7599:7601   */\n      0x1f\n        /* \"#utility.yul\":7595:7602   */\n      not\n        /* \"#utility.yul\":7590:7592   */\n      0x1f\n        /* \"#utility.yul\":7583:7588   */\n      dup4\n        /* \"#utility.yul\":7579:7593   */\n      add\n        /* \"#utility.yul\":7575:7603   */\n      and\n        /* \"#utility.yul\":7565:7603   */\n      swap1\n      pop\n        /* \"#utility.yul\":7507:7609   */\n      swap2\n      swap1\n      pop\n      jump\t// out\n        /* \"#utility.yul\":7615:7975   */\n    tag_132:\n        /* \"#utility.yul\":7701:7704   */\n      0x00\n        /* \"#utility.yul\":7729:7767   */\n      tag_241\n        /* \"#utility.yul\":7761:7766   */\n      dup3\n        /* \"#utility.yul\":7729:7767   */\n      tag_128\n      jump\t// in\n    tag_241:\n        /* \"#utility.yul\":7783:7853   */\n      tag_242\n        /* \"#utility.yul\":7846:7852   */\n      dup2\n        /* \"#utility.yul\":7841:7844   */\n      dup6\n        /* \"#utility.yul\":7783:7853   */\n      tag_129\n      jump\t// in\n    tag_242:\n        /* \"#utility.yul\":7776:7853   */\n      swap4\n      pop\n        /* \"#utility.yul\":7862:7914   */\n      tag_243\n        /* \"#utility.yul\":7907:7913   */\n      dup2\n        /* \"#utility.yul\":7902:7905   */\n      dup6\n        /* \"#utility.yul\":7895:7899   */\n      0x20\n        /* \"#utility.yul\":7888:7893   */\n      dup7\n        /* \"#utility.yul\":7884:7900   */\n      add\n        /* \"#utility.yul\":7862:7914   */\n      tag_130\n      jump\t// in\n    tag_243:\n        /* \"#utility.yul\":7939:7968   */\n      tag_244\n        /* \"#utility.yul\":7961:7967   */\n      dup2\n        /* \"#utility.yul\":7939:7968   */\n      tag_131\n      jump\t// in\n    tag_244:\n        /* \"#utility.yul\":7934:7937   */\n      dup5\n        /* \"#utility.yul\":7930:7969   */\n      add\n        /* \"#utility.yul\":7923:7969   */\n      swap2\n      pop\n        /* \"#utility.yul\":7705:7975   */\n      pop\n        /* \"#utility.yul\":7615:7975   */\n      swap3\n      swap2\n      pop\n      pop\n      jump\t// out\n        /* \"#utility.yul\":7981:8070   */\n    tag_133:\n        /* \"#utility.yul\":8017:8024   */\n      0x00\n        /* \"#utility.yul\":8057:8063   */\n      0xffff\n        /* \"#utility.yul\":8050:8055   */\n      dup3\n        /* \"#utility.yul\":8046:8064   */\n      and\n        /* \"#utility.yul\":8035:8064   */\n      swap1\n      pop\n        /* \"#utility.yul\":7981:8070   */\n      swap2\n      swap1\n      pop\n      jump\t// out\n        /* \"#utility.yul\":8076:8191   */\n    tag_134:\n        /* \"#utility.yul\":8161:8184   */\n      tag_247\n        /* \"#utility.yul\":8178:8183   */\n      dup2\n        /* \"#utility.yul\":8161:8184   */\n      tag_133\n      jump\t// in\n    tag_247:\n        /* \"#utility.yul\":8156:8159   */\n      dup3\n        /* \"#utility.yul\":8149:8185   */\n      mstore\n        /* \"#utility.yul\":8076:8191   */\n      pop\n      pop\n      jump\t// out\n        /* \"#utility.yul\":8197:8944   */\n    tag_56:\n        /* \"#utility.yul\":8418:8422   */\n      0x00\n        /* \"#utility.yul\":8456:8459   */\n      0xa0\n        /* \"#utility.yul\":8445:8454   */\n      dup3\n        /* \"#utility.yul\":8441:8460   */\n      add\n        /* \"#utility.yul\":8433:8460   */\n      swap1\n      pop\n        /* \"#utility.yul\":8470:8541   */\n      tag_249\n        /* \"#utility.yul\":8538:8539   */\n      0x00\n        /* \"#utility.yul\":8527:8536   */\n      dup4\n        /* \"#utility.yul\":8523:8540   */\n      add\n        /* \"#utility.yul\":8514:8520   */\n      dup9\n        /* \"#utility.yul\":8470:8541   */\n      tag_124\n      jump\t// in\n    tag_249:\n        /* \"#utility.yul\":8551:8623   */\n      tag_250\n        /* \"#utility.yul\":8619:8621   */\n      0x20\n        /* \"#utility.yul\":8608:8617   */\n      dup4\n        /* \"#utility.yul\":8604:8622   */\n      add\n        /* \"#utility.yul\":8595:8601   */\n      dup8\n        /* \"#utility.yul\":8551:8623   */\n      tag_124\n      jump\t// in\n    tag_250:\n        /* \"#utility.yul\":8633:8705   */\n      tag_251\n        /* \"#utility.yul\":8701:8703   */\n      0x40\n        /* \"#utility.yul\":8690:8699   */\n      dup4\n        /* \"#utility.yul\":8686:8704   */\n      add\n        /* \"#utility.yul\":8677:8683   */\n      dup7\n        /* \"#utility.yul\":8633:8705   */\n      tag_125\n      jump\t// in\n    tag_251:\n        /* \"#utility.yul\":8752:8761   */\n      dup2\n        /* \"#utility.yul\":8746:8750   */\n      dup2\n        /* \"#utility.yul\":8742:8762   */\n      sub\n        /* \"#utility.yul\":8737:8739   */\n      0x60\n        /* \"#utility.yul\":8726:8735   */\n      dup4\n        /* \"#utility.yul\":8722:8740   */\n      add\n        /* \"#utility.yul\":8715:8763   */\n      mstore\n        /* \"#utility.yul\":8780:8856   */\n      tag_252\n        /* \"#utility.yul\":8851:8855   */\n      dup2\n        /* \"#utility.yul\":8842:8848   */\n      dup6\n        /* \"#utility.yul\":8780:8856   */\n      tag_132\n      jump\t// in\n    tag_252:\n        /* \"#utility.yul\":8772:8856   */\n      swap1\n      pop\n        /* \"#utility.yul\":8866:8937   */\n      tag_253\n        /* \"#utility.yul\":8932:8935   */\n      0x80\n        /* \"#utility.yul\":8921:8930   */\n      dup4\n        /* \"#utility.yul\":8917:8936   */\n      add\n        /* \"#utility.yul\":8908:8914   */\n      dup5\n        /* \"#utility.yul\":8866:8937   */\n      tag_134\n      jump\t// in\n    tag_253:\n        /* \"#utility.yul\":8197:8944   */\n      swap7\n      swap6\n      pop\n      pop\n      pop\n      pop\n      pop\n      pop\n      jump\t// out\n        /* \"#utility.yul\":8950:9130   */\n    tag_63:\n        /* \"#utility.yul\":8998:9075   */\n      0x4e487b7100000000000000000000000000000000000000000000000000000000\n        /* \"#utility.yul\":8995:8996   */\n      0x00\n        /* \"#utility.yul\":8988:9076   */\n      mstore\n        /* \"#utility.yul\":9095:9099   */\n      0x41\n        /* \"#utility.yul\":9092:9093   */\n      0x04\n        /* \"#utility.yul\":9085:9100   */\n      mstore\n        /* \"#utility.yul\":9119:9123   */\n      0x24\n        /* \"#utility.yul\":9116:9117   */\n      0x00\n        /* \"#utility.yul\":9109:9124   */\n      revert\n        /* \"#utility.yul\":9136:9316   */\n    tag_67:\n        /* \"#utility.yul\":9184:9261   */\n      0x4e487b7100000000000000000000000000000000000000000000000000000000\n        /* \"#utility.yul\":9181:9182   */\n      0x00\n        /* \"#utility.yul\":9174:9262   */\n      mstore\n        /* \"#utility.yul\":9281:9285   */\n      0x32\n        /* \"#utility.yul\":9278:9279   */\n      0x04\n        /* \"#utility.yul\":9271:9286   */\n      mstore\n        /* \"#utility.yul\":9305:9309   */\n      0x24\n        /* \"#utility.yul\":9302:9303   */\n      0x00\n        /* \"#utility.yul\":9295:9310   */\n      revert\n        /* \"#utility.yul\":9322:9436   */\n    tag_135:\n        /* \"#utility.yul\":9389:9395   */\n      0x00\n        /* \"#utility.yul\":9423:9428   */\n      dup2\n        /* \"#utility.yul\":9417:9429   */\n      mload\n        /* \"#utility.yul\":9407:9429   */\n      swap1\n      pop\n        /* \"#utility.yul\":9322:9436   */\n      swap2\n      swap1\n      pop\n      jump\t// out\n        /* \"#utility.yul\":9442:9626   */\n    tag_136:\n        /* \"#utility.yul\":9541:9552   */\n      0x00\n        /* \"#utility.yul\":9575:9581   */\n      dup3\n        /* \"#utility.yul\":9570:9573   */\n      dup3\n        /* \"#utility.yul\":9563:9582   */\n      mstore\n        /* \"#utility.yul\":9615:9619   */\n      0x20\n        /* \"#utility.yul\":9610:9613   */\n      dup3\n        /* \"#utility.yul\":9606:9620   */\n      add\n        /* \"#utility.yul\":9591:9620   */\n      swap1\n      pop\n        /* \"#utility.yul\":9442:9626   */\n      swap3\n      swap2\n      pop\n      pop\n      jump\t// out\n        /* \"#utility.yul\":9632:9764   */\n    tag_137:\n        /* \"#utility.yul\":9699:9703   */\n      0x00\n        /* \"#utility.yul\":9722:9725   */\n      dup2\n        /* \"#utility.yul\":9714:9725   */\n      swap1\n      pop\n        /* \"#utility.yul\":9752:9756   */\n      0x20\n        /* \"#utility.yul\":9747:9750   */\n      dup3\n        /* \"#utility.yul\":9743:9757   */\n      add\n        /* \"#utility.yul\":9735:9757   */\n      swap1\n      pop\n        /* \"#utility.yul\":9632:9764   */\n      swap2\n      swap1\n      pop\n      jump\t// out\n        /* \"#utility.yul\":9770:9878   */\n    tag_138:\n        /* \"#utility.yul\":9847:9871   */\n      tag_260\n        /* \"#utility.yul\":9865:9870   */\n      dup2\n        /* \"#utility.yul\":9847:9871   */\n      tag_110\n      jump\t// in\n    tag_260:\n        /* \"#utility.yul\":9842:9845   */\n      dup3\n        /* \"#utility.yul\":9835:9872   */\n      mstore\n        /* \"#utility.yul\":9770:9878   */\n      pop\n      pop\n      jump\t// out\n        /* \"#utility.yul\":9884:10063   */\n    tag_139:\n        /* \"#utility.yul\":9953:9963   */\n      0x00\n        /* \"#utility.yul\":9974:10020   */\n      tag_262\n        /* \"#utility.yul\":10016:10019   */\n      dup4\n        /* \"#utility.yul\":10008:10014   */\n      dup4\n        /* \"#utility.yul\":9974:10020   */\n      tag_138\n      jump\t// in\n    tag_262:\n        /* \"#utility.yul\":10052:10056   */\n      0x20\n        /* \"#utility.yul\":10047:10050   */\n      dup4\n        /* \"#utility.yul\":10043:10057   */\n      add\n        /* \"#utility.yul\":10029:10057   */\n      swap1\n      pop\n        /* \"#utility.yul\":9884:10063   */\n      swap3\n      swap2\n      pop\n      pop\n      jump\t// out\n        /* \"#utility.yul\":10069:10182   */\n    tag_140:\n        /* \"#utility.yul\":10139:10143   */\n      0x00\n        /* \"#utility.yul\":10171:10175   */\n      0x20\n        /* \"#utility.yul\":10166:10169   */\n      dup3\n        /* \"#utility.yul\":10162:10176   */\n      add\n        /* \"#utility.yul\":10154:10176   */\n      swap1\n      pop\n        /* \"#utility.yul\":10069:10182   */\n      swap2\n      swap1\n      pop\n      jump\t// out\n        /* \"#utility.yul\":10218:10950   */\n    tag_141:\n        /* \"#utility.yul\":10337:10340   */\n      0x00\n        /* \"#utility.yul\":10366:10420   */\n      tag_265\n        /* \"#utility.yul\":10414:10419   */\n      dup3\n        /* \"#utility.yul\":10366:10420   */\n      tag_135\n      jump\t// in\n    tag_265:\n        /* \"#utility.yul\":10436:10522   */\n      tag_266\n        /* \"#utility.yul\":10515:10521   */\n      dup2\n        /* \"#utility.yul\":10510:10513   */\n      dup6\n        /* \"#utility.yul\":10436:10522   */\n      tag_136\n      jump\t// in\n    tag_266:\n        /* \"#utility.yul\":10429:10522   */\n      swap4\n      pop\n        /* \"#utility.yul\":10546:10602   */\n      tag_267\n        /* \"#utility.yul\":10596:10601   */\n      dup4\n        /* \"#utility.yul\":10546:10602   */\n      tag_137\n      jump\t// in\n    tag_267:\n        /* \"#utility.yul\":10625:10632   */\n      dup1\n        /* \"#utility.yul\":10656:10657   */\n      0x00\n        /* \"#utility.yul\":10641:10925   */\n    tag_268:\n        /* \"#utility.yul\":10666:10672   */\n      dup4\n        /* \"#utility.yul\":10663:10664   */\n      dup2\n        /* \"#utility.yul\":10660:10673   */\n      lt\n        /* \"#utility.yul\":10641:10925   */\n      iszero\n      tag_270\n      jumpi\n        /* \"#utility.yul\":10742:10748   */\n      dup2\n        /* \"#utility.yul\":10736:10749   */\n      mload\n        /* \"#utility.yul\":10769:10832   */\n      tag_271\n        /* \"#utility.yul\":10828:10831   */\n      dup9\n        /* \"#utility.yul\":10813:10826   */\n      dup3\n        /* \"#utility.yul\":10769:10832   */\n      tag_139\n      jump\t// in\n    tag_271:\n        /* \"#utility.yul\":10762:10832   */\n      swap8\n      pop\n        /* \"#utility.yul\":10855:10915   */\n      tag_272\n        /* \"#utility.yul\":10908:10914   */\n      dup4\n        /* \"#utility.yul\":10855:10915   */\n      tag_140\n      jump\t// in\n    tag_272:\n        /* \"#utility.yul\":10845:10915   */\n      swap3\n      pop\n        /* \"#utility.yul\":10701:10925   */\n      pop\n        /* \"#utility.yul\":10688:10689   */\n      0x01\n        /* \"#utility.yul\":10685:10686   */\n      dup2\n        /* \"#utility.yul\":10681:10690   */\n      add\n        /* \"#utility.yul\":10676:10690   */\n      swap1\n      pop\n        /* \"#utility.yul\":10641:10925   */\n      jump(tag_268)\n    tag_270:\n        /* \"#utility.yul\":10645:10659   */\n      pop\n        /* \"#utility.yul\":10941:10944   */\n      dup6\n        /* \"#utility.yul\":10934:10944   */\n      swap4\n      pop\n        /* \"#utility.yul\":10342:10950   */\n      pop\n      pop\n      pop\n        /* \"#utility.yul\":10218:10950   */\n      swap3\n      swap2\n      pop\n      pop\n      jump\t// out\n        /* \"#utility.yul\":10956:11070   */\n    tag_142:\n        /* \"#utility.yul\":11023:11029   */\n      0x00\n        /* \"#utility.yul\":11057:11062   */\n      dup2\n        /* \"#utility.yul\":11051:11063   */\n      mload\n        /* \"#utility.yul\":11041:11063   */\n      swap1\n      pop\n        /* \"#utility.yul\":10956:11070   */\n      swap2\n      swap1\n      pop\n      jump\t// out\n        /* \"#utility.yul\":11076:11260   */\n    tag_143:\n        /* \"#utility.yul\":11175:11186   */\n      0x00\n        /* \"#utility.yul\":11209:11215   */\n      dup3\n        /* \"#utility.yul\":11204:11207   */\n      dup3\n        /* \"#utility.yul\":11197:11216   */\n      mstore\n        /* \"#utility.yul\":11249:11253   */\n      0x20\n        /* \"#utility.yul\":11244:11247   */\n      dup3\n        /* \"#utility.yul\":11240:11254   */\n      add\n        /* \"#utility.yul\":11225:11254   */\n      swap1\n      pop\n        /* \"#utility.yul\":11076:11260   */\n      swap3\n      swap2\n      pop\n      pop\n      jump\t// out\n        /* \"#utility.yul\":11266:11398   */\n    tag_144:\n        /* \"#utility.yul\":11333:11337   */\n      0x00\n        /* \"#utility.yul\":11356:11359   */\n      dup2\n        /* \"#utility.yul\":11348:11359   */\n      swap1\n      pop\n        /* \"#utility.yul\":11386:11390   */\n      0x20\n        /* \"#utility.yul\":11381:11384   */\n      dup3\n        /* \"#utility.yul\":11377:11391   */\n      add\n        /* \"#utility.yul\":11369:11391   */\n      swap1\n      pop\n        /* \"#utility.yul\":11266:11398   */\n      swap2\n      swap1\n      pop\n      jump\t// out\n        /* \"#utility.yul\":11404:11512   */\n    tag_145:\n        /* \"#utility.yul\":11481:11505   */\n      tag_277\n        /* \"#utility.yul\":11499:11504   */\n      dup2\n        /* \"#utility.yul\":11481:11505   */\n      tag_113\n      jump\t// in\n    tag_277:\n        /* \"#utility.yul\":11476:11479   */\n      dup3\n        /* \"#utility.yul\":11469:11506   */\n      mstore\n        /* \"#utility.yul\":11404:11512   */\n      pop\n      pop\n      jump\t// out\n        /* \"#utility.yul\":11518:11697   */\n    tag_146:\n        /* \"#utility.yul\":11587:11597   */\n      0x00\n        /* \"#utility.yul\":11608:11654   */\n      tag_279\n        /* \"#utility.yul\":11650:11653   */\n      dup4\n        /* \"#utility.yul\":11642:11648   */\n      dup4\n        /* \"#utility.yul\":11608:11654   */\n      tag_145\n      jump\t// in\n    tag_279:\n        /* \"#utility.yul\":11686:11690   */\n      0x20\n        /* \"#utility.yul\":11681:11684   */\n      dup4\n        /* \"#utility.yul\":11677:11691   */\n      add\n        /* \"#utility.yul\":11663:11691   */\n      swap1\n      pop\n        /* \"#utility.yul\":11518:11697   */\n      swap3\n      swap2\n      pop\n      pop\n      jump\t// out\n        /* \"#utility.yul\":11703:11816   */\n    tag_147:\n        /* \"#utility.yul\":11773:11777   */\n      0x00\n        /* \"#utility.yul\":11805:11809   */\n      0x20\n        /* \"#utility.yul\":11800:11803   */\n      dup3\n        /* \"#utility.yul\":11796:11810   */\n      add\n        /* \"#utility.yul\":11788:11810   */\n      swap1\n      pop\n        /* \"#utility.yul\":11703:11816   */\n      swap2\n      swap1\n      pop\n      jump\t// out\n        /* \"#utility.yul\":11852:12584   */\n    tag_148:\n        /* \"#utility.yul\":11971:11974   */\n      0x00\n        /* \"#utility.yul\":12000:12054   */\n      tag_282\n        /* \"#utility.yul\":12048:12053   */\n      dup3\n        /* \"#utility.yul\":12000:12054   */\n      tag_142\n      jump\t// in\n    tag_282:\n        /* \"#utility.yul\":12070:12156   */\n      tag_283\n        /* \"#utility.yul\":12149:12155   */\n      dup2\n        /* \"#utility.yul\":12144:12147   */\n      dup6\n        /* \"#utility.yul\":12070:12156   */\n      tag_143\n      jump\t// in\n    tag_283:\n        /* \"#utility.yul\":12063:12156   */\n      swap4\n      pop\n        /* \"#utility.yul\":12180:12236   */\n      tag_284\n        /* \"#utility.yul\":12230:12235   */\n      dup4\n        /* \"#utility.yul\":12180:12236   */\n      tag_144\n      jump\t// in\n    tag_284:\n        /* \"#utility.yul\":12259:12266   */\n      dup1\n        /* \"#utility.yul\":12290:12291   */\n      0x00\n        /* \"#utility.yul\":12275:12559   */\n    tag_285:\n        /* \"#utility.yul\":12300:12306   */\n      dup4\n        /* \"#utility.yul\":12297:12298   */\n      dup2\n        /* \"#utility.yul\":12294:12307   */\n      lt\n        /* \"#utility.yul\":12275:12559   */\n      iszero\n      tag_287\n      jumpi\n        /* \"#utility.yul\":12376:12382   */\n      dup2\n        /* \"#utility.yul\":12370:12383   */\n      mload\n        /* \"#utility.yul\":12403:12466   */\n      tag_288\n        /* \"#utility.yul\":12462:12465   */\n      dup9\n        /* \"#utility.yul\":12447:12460   */\n      dup3\n        /* \"#utility.yul\":12403:12466   */\n      tag_146\n      jump\t// in\n    tag_288:\n        /* \"#utility.yul\":12396:12466   */\n      swap8\n      pop\n        /* \"#utility.yul\":12489:12549   */\n      tag_289\n        /* \"#utility.yul\":12542:12548   */\n      dup4\n        /* \"#utility.yul\":12489:12549   */\n      tag_147\n      jump\t// in\n    tag_289:\n        /* \"#utility.yul\":12479:12549   */\n      swap3\n      pop\n        /* \"#utility.yul\":12335:12559   */\n      pop\n        /* \"#utility.yul\":12322:12323   */\n      0x01\n        /* \"#utility.yul\":12319:12320   */\n      dup2\n        /* \"#utility.yul\":12315:12324   */\n      add\n        /* \"#utility.yul\":12310:12324   */\n      swap1\n      pop\n        /* \"#utility.yul\":12275:12559   */\n      jump(tag_285)\n    tag_287:\n        /* \"#utility.yul\":12279:12293   */\n      pop\n        /* \"#utility.yul\":12575:12578   */\n      dup6\n        /* \"#utility.yul\":12568:12578   */\n      swap4\n      pop\n        /* \"#utility.yul\":11976:12584   */\n      pop\n      pop\n      pop\n        /* \"#utility.yul\":11852:12584   */\n      swap3\n      swap2\n      pop\n      pop\n      jump\t// out\n        /* \"#utility.yul\":12590:14012   */\n    tag_95:\n        /* \"#utility.yul\":13017:13021   */\n      0x00\n        /* \"#utility.yul\":13055:13058   */\n      0xe0\n        /* \"#utility.yul\":13044:13053   */\n      dup3\n        /* \"#utility.yul\":13040:13059   */\n      add\n        /* \"#utility.yul\":13032:13059   */\n      swap1\n      pop\n        /* \"#utility.yul\":13069:13140   */\n      tag_291\n        /* \"#utility.yul\":13137:13138   */\n      0x00\n        /* \"#utility.yul\":13126:13135   */\n      dup4\n        /* \"#utility.yul\":13122:13139   */\n      add\n        /* \"#utility.yul\":13113:13119   */\n      dup11\n        /* \"#utility.yul\":13069:13140   */\n      tag_124\n      jump\t// in\n    tag_291:\n        /* \"#utility.yul\":13187:13196   */\n      dup2\n        /* \"#utility.yul\":13181:13185   */\n      dup2\n        /* \"#utility.yul\":13177:13197   */\n      sub\n        /* \"#utility.yul\":13172:13174   */\n      0x20\n        /* \"#utility.yul\":13161:13170   */\n      dup4\n        /* \"#utility.yul\":13157:13175   */\n      add\n        /* \"#utility.yul\":13150:13198   */\n      mstore\n        /* \"#utility.yul\":13215:13323   */\n      tag_292\n        /* \"#utility.yul\":13318:13322   */\n      dup2\n        /* \"#utility.yul\":13309:13315   */\n      dup10\n        /* \"#utility.yul\":13215:13323   */\n      tag_141\n      jump\t// in\n    tag_292:\n        /* \"#utility.yul\":13207:13323   */\n      swap1\n      pop\n        /* \"#utility.yul\":13370:13379   */\n      dup2\n        /* \"#utility.yul\":13364:13368   */\n      dup2\n        /* \"#utility.yul\":13360:13380   */\n      sub\n        /* \"#utility.yul\":13355:13357   */\n      0x40\n        /* \"#utility.yul\":13344:13353   */\n      dup4\n        /* \"#utility.yul\":13340:13358   */\n      add\n        /* \"#utility.yul\":13333:13381   */\n      mstore\n        /* \"#utility.yul\":13398:13506   */\n      tag_293\n        /* \"#utility.yul\":13501:13505   */\n      dup2\n        /* \"#utility.yul\":13492:13498   */\n      dup9\n        /* \"#utility.yul\":13398:13506   */\n      tag_148\n      jump\t// in\n    tag_293:\n        /* \"#utility.yul\":13390:13506   */\n      swap1\n      pop\n        /* \"#utility.yul\":13553:13562   */\n      dup2\n        /* \"#utility.yul\":13547:13551   */\n      dup2\n        /* \"#utility.yul\":13543:13563   */\n      sub\n        /* \"#utility.yul\":13538:13540   */\n      0x60\n        /* \"#utility.yul\":13527:13536   */\n      dup4\n        /* \"#utility.yul\":13523:13541   */\n      add\n        /* \"#utility.yul\":13516:13564   */\n      mstore\n        /* \"#utility.yul\":13581:13689   */\n      tag_294\n        /* \"#utility.yul\":13684:13688   */\n      dup2\n        /* \"#utility.yul\":13675:13681   */\n      dup8\n        /* \"#utility.yul\":13581:13689   */\n      tag_148\n      jump\t// in\n    tag_294:\n        /* \"#utility.yul\":13573:13689   */\n      swap1\n      pop\n        /* \"#utility.yul\":13699:13772   */\n      tag_295\n        /* \"#utility.yul\":13767:13770   */\n      0x80\n        /* \"#utility.yul\":13756:13765   */\n      dup4\n        /* \"#utility.yul\":13752:13771   */\n      add\n        /* \"#utility.yul\":13743:13749   */\n      dup7\n        /* \"#utility.yul\":13699:13772   */\n      tag_124\n      jump\t// in\n    tag_295:\n        /* \"#utility.yul\":13820:13829   */\n      dup2\n        /* \"#utility.yul\":13814:13818   */\n      dup2\n        /* \"#utility.yul\":13810:13830   */\n      sub\n        /* \"#utility.yul\":13804:13807   */\n      0xa0\n        /* \"#utility.yul\":13793:13802   */\n      dup4\n        /* \"#utility.yul\":13789:13808   */\n      add\n        /* \"#utility.yul\":13782:13831   */\n      mstore\n        /* \"#utility.yul\":13848:13924   */\n      tag_296\n        /* \"#utility.yul\":13919:13923   */\n      dup2\n        /* \"#utility.yul\":13910:13916   */\n      dup6\n        /* \"#utility.yul\":13848:13924   */\n      tag_132\n      jump\t// in\n    tag_296:\n        /* \"#utility.yul\":13840:13924   */\n      swap1\n      pop\n        /* \"#utility.yul\":13934:14005   */\n      tag_297\n        /* \"#utility.yul\":14000:14003   */\n      0xc0\n        /* \"#utility.yul\":13989:13998   */\n      dup4\n        /* \"#utility.yul\":13985:14004   */\n      add\n        /* \"#utility.yul\":13976:13982   */\n      dup5\n        /* \"#utility.yul\":13934:14005   */\n      tag_134\n      jump\t// in\n    tag_297:\n        /* \"#utility.yul\":12590:14012   */\n      swap9\n      swap8\n      pop\n      pop\n      pop\n      pop\n      pop\n      pop\n      pop\n      pop\n      jump\t// out\n\n    auxdata: 0xa2646970667358221220557dc35bc5f86908fcdb30212705a9d9260cd9ca78226d7ff66441144451f37364736f6c634300080a0033\n}\n",
				"bytecode": {
					"linkReferences": {},
					"object": "60c0604052737a250d5630b4cf539739df2c5dacb4c659f2488d6000806101000a81548173ffffffffffffffffffffffffffffffffffffffff021916908373ffffffffffffffffffffffffffffffffffffffff160217905550735c69bee701ef814a2b6a3edd4b1652cb9cc5aa6f600160006101000a81548173ffffffffffffffffffffffffffffffffffffffff021916908373ffffffffffffffffffffffffffffffffffffffff16021790555073c36442b4a4522e871399cd717abdd847ab11fe88600260006101000a81548173ffffffffffffffffffffffffffffffffffffffff021916908373ffffffffffffffffffffffffffffffffffffffff160217905550731f98431c8ad98523631ae4a59f267346ea31f984600360006101000a81548173ffffffffffffffffffffffffffffffffffffffff021916908373ffffffffffffffffffffffffffffffffffffffff1602179055507368b3465833fb72a70ecdf485e0e4c7bd8665fc45600460006101000a81548173ffffffffffffffffffffffffffffffffffffffff021916908373ffffffffffffffffffffffffffffffffffffffff16021790555073b9b56ce66c63db98e6cddacdf910c227294a8840600560006101000a81548173ffffffffffffffffffffffffffffffffffffffff021916908373ffffffffffffffffffffffffffffffffffffffff16021790555073953af320e2bd3041c4e56bb3a30e7f613a1f3c1a600660006101000a81548173ffffffffffffffffffffffffffffffffffffffff021916908373ffffffffffffffffffffffffffffffffffffffff1602179055507369f9e353f7411479912d2e9f3e436ae83486c17b600760006101000a81548173ffffffffffffffffffffffffffffffffffffffff021916908373ffffffffffffffffffffffffffffffffffffffff160217905550612ad160085573a55125a90d75a95ec00130e8e8c197db5641eb19600960006101000a81548173ffffffffffffffffffffffffffffffffffffffff021916908373ffffffffffffffffffffffffffffffffffffffff16021790555060008054906101000a900473ffffffffffffffffffffffffffffffffffffffff16600a60006101000a81548173ffffffffffffffffffffffffffffffffffffffff021916908373ffffffffffffffffffffffffffffffffffffffff160217905550600460009054906101000a900473ffffffffffffffffffffffffffffffffffffffff16600b60006101000a81548173ffffffffffffffffffffffffffffffffffffffff021916908373ffffffffffffffffffffffffffffffffffffffff160217905550600560009054906101000a900473ffffffffffffffffffffffffffffffffffffffff16600c60006101000a81548173ffffffffffffffffffffffffffffffffffffffff021916908373ffffffffffffffffffffffffffffffffffffffff160217905550600660009054906101000a900473ffffffffffffffffffffffffffffffffffffffff16600d60006101000a81548173ffffffffffffffffffffffffffffffffffffffff021916908373ffffffffffffffffffffffffffffffffffffffff1602179055503480156200049d57600080fd5b50600960009054906101000a900473ffffffffffffffffffffffffffffffffffffffff1673ffffffffffffffffffffffffffffffffffffffff1660808173ffffffffffffffffffffffffffffffffffffffff168152505060805173ffffffffffffffffffffffffffffffffffffffff1663026b1d5f6040518163ffffffff1660e01b8152600401602060405180830381865afa15801562000542573d6000803e3d6000fd5b505050506040513d601f19601f820116820180604052508101906200056891906200060b565b73ffffffffffffffffffffffffffffffffffffffff1660a08173ffffffffffffffffffffffffffffffffffffffff16815250506200063d565b600080fd5b600073ffffffffffffffffffffffffffffffffffffffff82169050919050565b6000620005d382620005a6565b9050919050565b620005e581620005c6565b8114620005f157600080fd5b50565b6000815190506200060581620005da565b92915050565b600060208284031215620006245762000623620005a1565b5b60006200063484828501620005f4565b91505092915050565b60805160a051611255620006786000396000818161015a015281816101ec0152818161051f0152610a880152600061010201526112556000f3fe608060405234801561001057600080fd5b50600436106100575760003560e01c80630542975c1461005c5780631b11d0ff1461007a5780637535d246146100aa5780638faab56f146100c8578063cea8fe55146100e4575b600080fd5b610064610100565b6040516100719190610bc0565b60405180910390f35b610094600480360381019061008f9190610cbe565b610124565b6040516100a19190610d73565b60405180910390f35b6100b26101ea565b6040516100bf9190610daf565b60405180910390f35b6100e260048036038101906100dd9190610dca565b61020e565b005b6100fe60048036038101906100f99190610dca565b6105b7565b005b7f000000000000000000000000000000000000000000000000000000000000000081565b60008061013a8688610b2790919063ffffffff16565b90508773ffffffffffffffffffffffffffffffffffffffff1663095ea7b37f0000000000000000000000000000000000000000000000000000000000000000836040518363ffffffff1660e01b8152600401610197929190610e28565b6020604051808303816000875af11580156101b6573d6000803e3d6000fd5b505050506040513d601f19601f820116820180604052508101906101da9190610e7d565b5060019150509695505050505050565b7f000000000000000000000000000000000000000000000000000000000000000081565b600030905060006040518060200160405280600081525090506000600c60009054906101000a900473ffffffffffffffffffffffffffffffffffffffff1673ffffffffffffffffffffffffffffffffffffffff1663095ea7b3600a60009054906101000a900473ffffffffffffffffffffffffffffffffffffffff166a52b7d2dcc80cd2e40000006040518363ffffffff1660e01b81526004016102b3929190610e28565b6020604051808303816000875af11580156102d2573d6000803e3d6000fd5b505050506040513d601f19601f820116820180604052508101906102f69190610e7d565b50600c60009054906101000a900473ffffffffffffffffffffffffffffffffffffffff1673ffffffffffffffffffffffffffffffffffffffff1663095ea7b3600b60009054906101000a900473ffffffffffffffffffffffffffffffffffffffff166a52b7d2dcc80cd2e40000006040518363ffffffff1660e01b8152600401610381929190610e28565b6020604051808303816000875af11580156103a0573d6000803e3d6000fd5b505050506040513d601f19601f820116820180604052508101906103c49190610e7d565b508473ffffffffffffffffffffffffffffffffffffffff1663095ea7b3600a60009054906101000a900473ffffffffffffffffffffffffffffffffffffffff166a52b7d2dcc80cd2e40000006040518363ffffffff1660e01b815260040161042d929190610e28565b6020604051808303816000875af115801561044c573d6000803e3d6000fd5b505050506040513d601f19601f820116820180604052508101906104709190610e7d565b508473ffffffffffffffffffffffffffffffffffffffff1663095ea7b3600b60009054906101000a900473ffffffffffffffffffffffffffffffffffffffff166a52b7d2dcc80cd2e40000006040518363ffffffff1660e01b81526004016104d9929190610e28565b6020604051808303816000875af11580156104f8573d6000803e3d6000fd5b505050506040513d601f19601f8201168201806040525081019061051c9190610e7d565b507f000000000000000000000000000000000000000000000000000000000000000073ffffffffffffffffffffffffffffffffffffffff166342b0b77c84878786866040518663ffffffff1660e01b815260040161057e959493929190610f60565b600060405180830381600087803b15801561059857600080fd5b505af11580156105ac573d6000803e3d6000fd5b505050505050505050565b60003090506000600167ffffffffffffffff8111156105d9576105d8610fba565b5b6040519080825280602002602001820160405280156106075781602001602082028036833780820191505090505b509050838160008151811061061f5761061e610fe9565b5b602002602001019073ffffffffffffffffffffffffffffffffffffffff16908173ffffffffffffffffffffffffffffffffffffffff16815250506000600167ffffffffffffffff81111561067657610675610fba565b5b6040519080825280602002602001820160405280156106a45781602001602082028036833780820191505090505b50905083816000815181106106bc576106bb610fe9565b5b6020026020010181815250506000600167ffffffffffffffff8111156106e5576106e4610fba565b5b6040519080825280602002602001820160405280156107135781602001602082028036833780820191505090505b50905060008160008151811061072c5761072b610fe9565b5b60200260200101818152505060006040518060200160405280600081525090506000600c60009054906101000a900473ffffffffffffffffffffffffffffffffffffffff1673ffffffffffffffffffffffffffffffffffffffff1663095ea7b3600a60009054906101000a900473ffffffffffffffffffffffffffffffffffffffff166a52b7d2dcc80cd2e40000006040518363ffffffff1660e01b81526004016107d8929190610e28565b6020604051808303816000875af11580156107f7573d6000803e3d6000fd5b505050506040513d601f19601f8201168201806040525081019061081b9190610e7d565b50600c60009054906101000a900473ffffffffffffffffffffffffffffffffffffffff1673ffffffffffffffffffffffffffffffffffffffff1663095ea7b3600b60009054906101000a900473ffffffffffffffffffffffffffffffffffffffff166a52b7d2dcc80cd2e40000006040518363ffffffff1660e01b81526004016108a6929190610e28565b6020604051808303816000875af11580156108c5573d6000803e3d6000fd5b505050506040513d601f19601f820116820180604052508101906108e99190610e7d565b50600d60009054906101000a900473ffffffffffffffffffffffffffffffffffffffff1673ffffffffffffffffffffffffffffffffffffffff1663095ea7b3600a60009054906101000a900473ffffffffffffffffffffffffffffffffffffffff166a52b7d2dcc80cd2e40000006040518363ffffffff1660e01b8152600401610974929190610e28565b6020604051808303816000875af1158015610993573d6000803e3d6000fd5b505050506040513d601f19601f820116820180604052508101906109b79190610e7d565b50600d60009054906101000a900473ffffffffffffffffffffffffffffffffffffffff1673ffffffffffffffffffffffffffffffffffffffff1663095ea7b3600b60009054906101000a900473ffffffffffffffffffffffffffffffffffffffff166a52b7d2dcc80cd2e40000006040518363ffffffff1660e01b8152600401610a42929190610e28565b6020604051808303816000875af1158015610a61573d6000803e3d6000fd5b505050506040513d601f19601f82011682018060405250810190610a859190610e7d565b507f000000000000000000000000000000000000000000000000000000000000000073ffffffffffffffffffffffffffffffffffffffff1663ab9c4b5d878787878b88886040518863ffffffff1660e01b8152600401610aeb9796959493929190611194565b600060405180830381600087803b158015610b0557600080fd5b505af1158015610b19573d6000803e3d6000fd5b505050505050505050505050565b6000828284019150811015610b3b57600080fd5b92915050565b600073ffffffffffffffffffffffffffffffffffffffff82169050919050565b6000819050919050565b6000610b86610b81610b7c84610b41565b610b61565b610b41565b9050919050565b6000610b9882610b6b565b9050919050565b6000610baa82610b8d565b9050919050565b610bba81610b9f565b82525050565b6000602082019050610bd56000830184610bb1565b92915050565b600080fd5b600080fd5b6000610bf082610b41565b9050919050565b610c0081610be5565b8114610c0b57600080fd5b50565b600081359050610c1d81610bf7565b92915050565b6000819050919050565b610c3681610c23565b8114610c4157600080fd5b50565b600081359050610c5381610c2d565b92915050565b600080fd5b600080fd5b600080fd5b60008083601f840112610c7e57610c7d610c59565b5b8235905067ffffffffffffffff811115610c9b57610c9a610c5e565b5b602083019150836001820283011115610cb757610cb6610c63565b5b9250929050565b60008060008060008060a08789031215610cdb57610cda610bdb565b5b6000610ce989828a01610c0e565b9650506020610cfa89828a01610c44565b9550506040610d0b89828a01610c44565b9450506060610d1c89828a01610c0e565b935050608087013567ffffffffffffffff811115610d3d57610d3c610be0565b5b610d4989828a01610c68565b92509250509295509295509295565b60008115159050919050565b610d6d81610d58565b82525050565b6000602082019050610d886000830184610d64565b92915050565b6000610d9982610b8d565b9050919050565b610da981610d8e565b82525050565b6000602082019050610dc46000830184610da0565b92915050565b60008060408385031215610de157610de0610bdb565b5b6000610def85828601610c0e565b9250506020610e0085828601610c44565b9150509250929050565b610e1381610be5565b82525050565b610e2281610c23565b82525050565b6000604082019050610e3d6000830185610e0a565b610e4a6020830184610e19565b9392505050565b610e5a81610d58565b8114610e6557600080fd5b50565b600081519050610e7781610e51565b92915050565b600060208284031215610e9357610e92610bdb565b5b6000610ea184828501610e68565b91505092915050565b600081519050919050565b600082825260208201905092915050565b60005b83811015610ee4578082015181840152602081019050610ec9565b83811115610ef3576000848401525b50505050565b6000601f19601f8301169050919050565b6000610f1582610eaa565b610f1f8185610eb5565b9350610f2f818560208601610ec6565b610f3881610ef9565b840191505092915050565b600061ffff82169050919050565b610f5a81610f43565b82525050565b600060a082019050610f756000830188610e0a565b610f826020830187610e0a565b610f8f6040830186610e19565b8181036060830152610fa18185610f0a565b9050610fb06080830184610f51565b9695505050505050565b7f4e487b7100000000000000000000000000000000000000000000000000000000600052604160045260246000fd5b7f4e487b7100000000000000000000000000000000000000000000000000000000600052603260045260246000fd5b600081519050919050565b600082825260208201905092915050565b6000819050602082019050919050565b61104d81610be5565b82525050565b600061105f8383611044565b60208301905092915050565b6000602082019050919050565b600061108382611018565b61108d8185611023565b935061109883611034565b8060005b838110156110c95781516110b08882611053565b97506110bb8361106b565b92505060018101905061109c565b5085935050505092915050565b600081519050919050565b600082825260208201905092915050565b6000819050602082019050919050565b61110b81610c23565b82525050565b600061111d8383611102565b60208301905092915050565b6000602082019050919050565b6000611141826110d6565b61114b81856110e1565b9350611156836110f2565b8060005b8381101561118757815161116e8882611111565b975061117983611129565b92505060018101905061115a565b5085935050505092915050565b600060e0820190506111a9600083018a610e0a565b81810360208301526111bb8189611078565b905081810360408301526111cf8188611136565b905081810360608301526111e38187611136565b90506111f26080830186610e0a565b81810360a08301526112048185610f0a565b905061121360c0830184610f51565b9897505050505050505056fea2646970667358221220557dc35bc5f86908fcdb30212705a9d9260cd9ca78226d7ff66441144451f37364736f6c634300080a0033",
					"opcodes": "PUSH1 0xC0 PUSH1 0x40 MSTORE PUSH20 0x7A250D5630B4CF539739DF2C5DACB4C659F2488D PUSH1 0x0 DUP1 PUSH2 0x100 EXP DUP2 SLOAD DUP2 PUSH20 0xFFFFFFFFFFFFFFFFFFFFFFFFFFFFFFFFFFFFFFFF MUL NOT AND SWAP1 DUP4 PUSH20 0xFFFFFFFFFFFFFFFFFFFFFFFFFFFFFFFFFFFFFFFF AND MUL OR SWAP1 SSTORE POP PUSH20 0x5C69BEE701EF814A2B6A3EDD4B1652CB9CC5AA6F PUSH1 0x1 PUSH1 0x0 PUSH2 0x100 EXP DUP2 SLOAD DUP2 PUSH20 0xFFFFFFFFFFFFFFFFFFFFFFFFFFFFFFFFFFFFFFFF MUL NOT AND SWAP1 DUP4 PUSH20 0xFFFFFFFFFFFFFFFFFFFFFFFFFFFFFFFFFFFFFFFF AND MUL OR SWAP1 SSTORE POP PUSH20 0xC36442B4A4522E871399CD717ABDD847AB11FE88 PUSH1 0x2 PUSH1 0x0 PUSH2 0x100 EXP DUP2 SLOAD DUP2 PUSH20 0xFFFFFFFFFFFFFFFFFFFFFFFFFFFFFFFFFFFFFFFF MUL NOT AND SWAP1 DUP4 PUSH20 0xFFFFFFFFFFFFFFFFFFFFFFFFFFFFFFFFFFFFFFFF AND MUL OR SWAP1 SSTORE POP PUSH20 0x1F98431C8AD98523631AE4A59F267346EA31F984 PUSH1 0x3 PUSH1 0x0 PUSH2 0x100 EXP DUP2 SLOAD DUP2 PUSH20 0xFFFFFFFFFFFFFFFFFFFFFFFFFFFFFFFFFFFFFFFF MUL NOT AND SWAP1 DUP4 PUSH20 0xFFFFFFFFFFFFFFFFFFFFFFFFFFFFFFFFFFFFFFFF AND MUL OR SWAP1 SSTORE POP PUSH20 0x68B3465833FB72A70ECDF485E0E4C7BD8665FC45 PUSH1 0x4 PUSH1 0x0 PUSH2 0x100 EXP DUP2 SLOAD DUP2 PUSH20 0xFFFFFFFFFFFFFFFFFFFFFFFFFFFFFFFFFFFFFFFF MUL NOT AND SWAP1 DUP4 PUSH20 0xFFFFFFFFFFFFFFFFFFFFFFFFFFFFFFFFFFFFFFFF AND MUL OR SWAP1 SSTORE POP PUSH20 0xB9B56CE66C63DB98E6CDDACDF910C227294A8840 PUSH1 0x5 PUSH1 0x0 PUSH2 0x100 EXP DUP2 SLOAD DUP2 PUSH20 0xFFFFFFFFFFFFFFFFFFFFFFFFFFFFFFFFFFFFFFFF MUL NOT AND SWAP1 DUP4 PUSH20 0xFFFFFFFFFFFFFFFFFFFFFFFFFFFFFFFFFFFFFFFF AND MUL OR SWAP1 SSTORE POP PUSH20 0x953AF320E2BD3041C4E56BB3A30E7F613A1F3C1A PUSH1 0x6 PUSH1 0x0 PUSH2 0x100 EXP DUP2 SLOAD DUP2 PUSH20 0xFFFFFFFFFFFFFFFFFFFFFFFFFFFFFFFFFFFFFFFF MUL NOT AND SWAP1 DUP4 PUSH20 0xFFFFFFFFFFFFFFFFFFFFFFFFFFFFFFFFFFFFFFFF AND MUL OR SWAP1 SSTORE POP PUSH20 0x69F9E353F7411479912D2E9F3E436AE83486C17B PUSH1 0x7 PUSH1 0x0 PUSH2 0x100 EXP DUP2 SLOAD DUP2 PUSH20 0xFFFFFFFFFFFFFFFFFFFFFFFFFFFFFFFFFFFFFFFF MUL NOT AND SWAP1 DUP4 PUSH20 0xFFFFFFFFFFFFFFFFFFFFFFFFFFFFFFFFFFFFFFFF AND MUL OR SWAP1 SSTORE POP PUSH2 0x2AD1 PUSH1 0x8 SSTORE PUSH20 0xA55125A90D75A95EC00130E8E8C197DB5641EB19 PUSH1 0x9 PUSH1 0x0 PUSH2 0x100 EXP DUP2 SLOAD DUP2 PUSH20 0xFFFFFFFFFFFFFFFFFFFFFFFFFFFFFFFFFFFFFFFF MUL NOT AND SWAP1 DUP4 PUSH20 0xFFFFFFFFFFFFFFFFFFFFFFFFFFFFFFFFFFFFFFFF AND MUL OR SWAP1 SSTORE POP PUSH1 0x0 DUP1 SLOAD SWAP1 PUSH2 0x100 EXP SWAP1 DIV PUSH20 0xFFFFFFFFFFFFFFFFFFFFFFFFFFFFFFFFFFFFFFFF AND PUSH1 0xA PUSH1 0x0 PUSH2 0x100 EXP DUP2 SLOAD DUP2 PUSH20 0xFFFFFFFFFFFFFFFFFFFFFFFFFFFFFFFFFFFFFFFF MUL NOT AND SWAP1 DUP4 PUSH20 0xFFFFFFFFFFFFFFFFFFFFFFFFFFFFFFFFFFFFFFFF AND MUL OR SWAP1 SSTORE POP PUSH1 0x4 PUSH1 0x0 SWAP1 SLOAD SWAP1 PUSH2 0x100 EXP SWAP1 DIV PUSH20 0xFFFFFFFFFFFFFFFFFFFFFFFFFFFFFFFFFFFFFFFF AND PUSH1 0xB PUSH1 0x0 PUSH2 0x100 EXP DUP2 SLOAD DUP2 PUSH20 0xFFFFFFFFFFFFFFFFFFFFFFFFFFFFFFFFFFFFFFFF MUL NOT AND SWAP1 DUP4 PUSH20 0xFFFFFFFFFFFFFFFFFFFFFFFFFFFFFFFFFFFFFFFF AND MUL OR SWAP1 SSTORE POP PUSH1 0x5 PUSH1 0x0 SWAP1 SLOAD SWAP1 PUSH2 0x100 EXP SWAP1 DIV PUSH20 0xFFFFFFFFFFFFFFFFFFFFFFFFFFFFFFFFFFFFFFFF AND PUSH1 0xC PUSH1 0x0 PUSH2 0x100 EXP DUP2 SLOAD DUP2 PUSH20 0xFFFFFFFFFFFFFFFFFFFFFFFFFFFFFFFFFFFFFFFF MUL NOT AND SWAP1 DUP4 PUSH20 0xFFFFFFFFFFFFFFFFFFFFFFFFFFFFFFFFFFFFFFFF AND MUL OR SWAP1 SSTORE POP PUSH1 0x6 PUSH1 0x0 SWAP1 SLOAD SWAP1 PUSH2 0x100 EXP SWAP1 DIV PUSH20 0xFFFFFFFFFFFFFFFFFFFFFFFFFFFFFFFFFFFFFFFF AND PUSH1 0xD PUSH1 0x0 PUSH2 0x100 EXP DUP2 SLOAD DUP2 PUSH20 0xFFFFFFFFFFFFFFFFFFFFFFFFFFFFFFFFFFFFFFFF MUL NOT AND SWAP1 DUP4 PUSH20 0xFFFFFFFFFFFFFFFFFFFFFFFFFFFFFFFFFFFFFFFF AND MUL OR SWAP1 SSTORE POP CALLVALUE DUP1 ISZERO PUSH3 0x49D JUMPI PUSH1 0x0 DUP1 REVERT JUMPDEST POP PUSH1 0x9 PUSH1 0x0 SWAP1 SLOAD SWAP1 PUSH2 0x100 EXP SWAP1 DIV PUSH20 0xFFFFFFFFFFFFFFFFFFFFFFFFFFFFFFFFFFFFFFFF AND PUSH20 0xFFFFFFFFFFFFFFFFFFFFFFFFFFFFFFFFFFFFFFFF AND PUSH1 0x80 DUP2 PUSH20 0xFFFFFFFFFFFFFFFFFFFFFFFFFFFFFFFFFFFFFFFF AND DUP2 MSTORE POP POP PUSH1 0x80 MLOAD PUSH20 0xFFFFFFFFFFFFFFFFFFFFFFFFFFFFFFFFFFFFFFFF AND PUSH4 0x26B1D5F PUSH1 0x40 MLOAD DUP2 PUSH4 0xFFFFFFFF AND PUSH1 0xE0 SHL DUP2 MSTORE PUSH1 0x4 ADD PUSH1 0x20 PUSH1 0x40 MLOAD DUP1 DUP4 SUB DUP2 DUP7 GAS STATICCALL ISZERO DUP1 ISZERO PUSH3 0x542 JUMPI RETURNDATASIZE PUSH1 0x0 DUP1 RETURNDATACOPY RETURNDATASIZE PUSH1 0x0 REVERT JUMPDEST POP POP POP POP PUSH1 0x40 MLOAD RETURNDATASIZE PUSH1 0x1F NOT PUSH1 0x1F DUP3 ADD AND DUP3 ADD DUP1 PUSH1 0x40 MSTORE POP DUP2 ADD SWAP1 PUSH3 0x568 SWAP2 SWAP1 PUSH3 0x60B JUMP JUMPDEST PUSH20 0xFFFFFFFFFFFFFFFFFFFFFFFFFFFFFFFFFFFFFFFF AND PUSH1 0xA0 DUP2 PUSH20 0xFFFFFFFFFFFFFFFFFFFFFFFFFFFFFFFFFFFFFFFF AND DUP2 MSTORE POP POP PUSH3 0x63D JUMP JUMPDEST PUSH1 0x0 DUP1 REVERT JUMPDEST PUSH1 0x0 PUSH20 0xFFFFFFFFFFFFFFFFFFFFFFFFFFFFFFFFFFFFFFFF DUP3 AND SWAP1 POP SWAP2 SWAP1 POP JUMP JUMPDEST PUSH1 0x0 PUSH3 0x5D3 DUP3 PUSH3 0x5A6 JUMP JUMPDEST SWAP1 POP SWAP2 SWAP1 POP JUMP JUMPDEST PUSH3 0x5E5 DUP2 PUSH3 0x5C6 JUMP JUMPDEST DUP2 EQ PUSH3 0x5F1 JUMPI PUSH1 0x0 DUP1 REVERT JUMPDEST POP JUMP JUMPDEST PUSH1 0x0 DUP2 MLOAD SWAP1 POP PUSH3 0x605 DUP2 PUSH3 0x5DA JUMP JUMPDEST SWAP3 SWAP2 POP POP JUMP JUMPDEST PUSH1 0x0 PUSH1 0x20 DUP3 DUP5 SUB SLT ISZERO PUSH3 0x624 JUMPI PUSH3 0x623 PUSH3 0x5A1 JUMP JUMPDEST JUMPDEST PUSH1 0x0 PUSH3 0x634 DUP5 DUP3 DUP6 ADD PUSH3 0x5F4 JUMP JUMPDEST SWAP2 POP POP SWAP3 SWAP2 POP POP JUMP JUMPDEST PUSH1 0x80 MLOAD PUSH1 0xA0 MLOAD PUSH2 0x1255 PUSH3 0x678 PUSH1 0x0 CODECOPY PUSH1 0x0 DUP2 DUP2 PUSH2 0x15A ADD MSTORE DUP2 DUP2 PUSH2 0x1EC ADD MSTORE DUP2 DUP2 PUSH2 0x51F ADD MSTORE PUSH2 0xA88 ADD MSTORE PUSH1 0x0 PUSH2 0x102 ADD MSTORE PUSH2 0x1255 PUSH1 0x0 RETURN INVALID PUSH1 0x80 PUSH1 0x40 MSTORE CALLVALUE DUP1 ISZERO PUSH2 0x10 JUMPI PUSH1 0x0 DUP1 REVERT JUMPDEST POP PUSH1 0x4 CALLDATASIZE LT PUSH2 0x57 JUMPI PUSH1 0x0 CALLDATALOAD PUSH1 0xE0 SHR DUP1 PUSH4 0x542975C EQ PUSH2 0x5C JUMPI DUP1 PUSH4 0x1B11D0FF EQ PUSH2 0x7A JUMPI DUP1 PUSH4 0x7535D246 EQ PUSH2 0xAA JUMPI DUP1 PUSH4 0x8FAAB56F EQ PUSH2 0xC8 JUMPI DUP1 PUSH4 0xCEA8FE55 EQ PUSH2 0xE4 JUMPI JUMPDEST PUSH1 0x0 DUP1 REVERT JUMPDEST PUSH2 0x64 PUSH2 0x100 JUMP JUMPDEST PUSH1 0x40 MLOAD PUSH2 0x71 SWAP2 SWAP1 PUSH2 0xBC0 JUMP JUMPDEST PUSH1 0x40 MLOAD DUP1 SWAP2 SUB SWAP1 RETURN JUMPDEST PUSH2 0x94 PUSH1 0x4 DUP1 CALLDATASIZE SUB DUP2 ADD SWAP1 PUSH2 0x8F SWAP2 SWAP1 PUSH2 0xCBE JUMP JUMPDEST PUSH2 0x124 JUMP JUMPDEST PUSH1 0x40 MLOAD PUSH2 0xA1 SWAP2 SWAP1 PUSH2 0xD73 JUMP JUMPDEST PUSH1 0x40 MLOAD DUP1 SWAP2 SUB SWAP1 RETURN JUMPDEST PUSH2 0xB2 PUSH2 0x1EA JUMP JUMPDEST PUSH1 0x40 MLOAD PUSH2 0xBF SWAP2 SWAP1 PUSH2 0xDAF JUMP JUMPDEST PUSH1 0x40 MLOAD DUP1 SWAP2 SUB SWAP1 RETURN JUMPDEST PUSH2 0xE2 PUSH1 0x4 DUP1 CALLDATASIZE SUB DUP2 ADD SWAP1 PUSH2 0xDD SWAP2 SWAP1 PUSH2 0xDCA JUMP JUMPDEST PUSH2 0x20E JUMP JUMPDEST STOP JUMPDEST PUSH2 0xFE PUSH1 0x4 DUP1 CALLDATASIZE SUB DUP2 ADD SWAP1 PUSH2 0xF9 SWAP2 SWAP1 PUSH2 0xDCA JUMP JUMPDEST PUSH2 0x5B7 JUMP JUMPDEST STOP JUMPDEST PUSH32 0x0 DUP2 JUMP JUMPDEST PUSH1 0x0 DUP1 PUSH2 0x13A DUP7 DUP9 PUSH2 0xB27 SWAP1 SWAP2 SWAP1 PUSH4 0xFFFFFFFF AND JUMP JUMPDEST SWAP1 POP DUP8 PUSH20 0xFFFFFFFFFFFFFFFFFFFFFFFFFFFFFFFFFFFFFFFF AND PUSH4 0x95EA7B3 PUSH32 0x0 DUP4 PUSH1 0x40 MLOAD DUP4 PUSH4 0xFFFFFFFF AND PUSH1 0xE0 SHL DUP2 MSTORE PUSH1 0x4 ADD PUSH2 0x197 SWAP3 SWAP2 SWAP1 PUSH2 0xE28 JUMP JUMPDEST PUSH1 0x20 PUSH1 0x40 MLOAD DUP1 DUP4 SUB DUP2 PUSH1 0x0 DUP8 GAS CALL ISZERO DUP1 ISZERO PUSH2 0x1B6 JUMPI RETURNDATASIZE PUSH1 0x0 DUP1 RETURNDATACOPY RETURNDATASIZE PUSH1 0x0 REVERT JUMPDEST POP POP POP POP PUSH1 0x40 MLOAD RETURNDATASIZE PUSH1 0x1F NOT PUSH1 0x1F DUP3 ADD AND DUP3 ADD DUP1 PUSH1 0x40 MSTORE POP DUP2 ADD SWAP1 PUSH2 0x1DA SWAP2 SWAP1 PUSH2 0xE7D JUMP JUMPDEST POP PUSH1 0x1 SWAP2 POP POP SWAP7 SWAP6 POP POP POP POP POP POP JUMP JUMPDEST PUSH32 0x0 DUP2 JUMP JUMPDEST PUSH1 0x0 ADDRESS SWAP1 POP PUSH1 0x0 PUSH1 0x40 MLOAD DUP1 PUSH1 0x20 ADD PUSH1 0x40 MSTORE DUP1 PUSH1 0x0 DUP2 MSTORE POP SWAP1 POP PUSH1 0x0 PUSH1 0xC PUSH1 0x0 SWAP1 SLOAD SWAP1 PUSH2 0x100 EXP SWAP1 DIV PUSH20 0xFFFFFFFFFFFFFFFFFFFFFFFFFFFFFFFFFFFFFFFF AND PUSH20 0xFFFFFFFFFFFFFFFFFFFFFFFFFFFFFFFFFFFFFFFF AND PUSH4 0x95EA7B3 PUSH1 0xA PUSH1 0x0 SWAP1 SLOAD SWAP1 PUSH2 0x100 EXP SWAP1 DIV PUSH20 0xFFFFFFFFFFFFFFFFFFFFFFFFFFFFFFFFFFFFFFFF AND PUSH11 0x52B7D2DCC80CD2E4000000 PUSH1 0x40 MLOAD DUP4 PUSH4 0xFFFFFFFF AND PUSH1 0xE0 SHL DUP2 MSTORE PUSH1 0x4 ADD PUSH2 0x2B3 SWAP3 SWAP2 SWAP1 PUSH2 0xE28 JUMP JUMPDEST PUSH1 0x20 PUSH1 0x40 MLOAD DUP1 DUP4 SUB DUP2 PUSH1 0x0 DUP8 GAS CALL ISZERO DUP1 ISZERO PUSH2 0x2D2 JUMPI RETURNDATASIZE PUSH1 0x0 DUP1 RETURNDATACOPY RETURNDATASIZE PUSH1 0x0 REVERT JUMPDEST POP POP POP POP PUSH1 0x40 MLOAD RETURNDATASIZE PUSH1 0x1F NOT PUSH1 0x1F DUP3 ADD AND DUP3 ADD DUP1 PUSH1 0x40 MSTORE POP DUP2 ADD SWAP1 PUSH2 0x2F6 SWAP2 SWAP1 PUSH2 0xE7D JUMP JUMPDEST POP PUSH1 0xC PUSH1 0x0 SWAP1 SLOAD SWAP1 PUSH2 0x100 EXP SWAP1 DIV PUSH20 0xFFFFFFFFFFFFFFFFFFFFFFFFFFFFFFFFFFFFFFFF AND PUSH20 0xFFFFFFFFFFFFFFFFFFFFFFFFFFFFFFFFFFFFFFFF AND PUSH4 0x95EA7B3 PUSH1 0xB PUSH1 0x0 SWAP1 SLOAD SWAP1 PUSH2 0x100 EXP SWAP1 DIV PUSH20 0xFFFFFFFFFFFFFFFFFFFFFFFFFFFFFFFFFFFFFFFF AND PUSH11 0x52B7D2DCC80CD2E4000000 PUSH1 0x40 MLOAD DUP4 PUSH4 0xFFFFFFFF AND PUSH1 0xE0 SHL DUP2 MSTORE PUSH1 0x4 ADD PUSH2 0x381 SWAP3 SWAP2 SWAP1 PUSH2 0xE28 JUMP JUMPDEST PUSH1 0x20 PUSH1 0x40 MLOAD DUP1 DUP4 SUB DUP2 PUSH1 0x0 DUP8 GAS CALL ISZERO DUP1 ISZERO PUSH2 0x3A0 JUMPI RETURNDATASIZE PUSH1 0x0 DUP1 RETURNDATACOPY RETURNDATASIZE PUSH1 0x0 REVERT JUMPDEST POP POP POP POP PUSH1 0x40 MLOAD RETURNDATASIZE PUSH1 0x1F NOT PUSH1 0x1F DUP3 ADD AND DUP3 ADD DUP1 PUSH1 0x40 MSTORE POP DUP2 ADD SWAP1 PUSH2 0x3C4 SWAP2 SWAP1 PUSH2 0xE7D JUMP JUMPDEST POP DUP5 PUSH20 0xFFFFFFFFFFFFFFFFFFFFFFFFFFFFFFFFFFFFFFFF AND PUSH4 0x95EA7B3 PUSH1 0xA PUSH1 0x0 SWAP1 SLOAD SWAP1 PUSH2 0x100 EXP SWAP1 DIV PUSH20 0xFFFFFFFFFFFFFFFFFFFFFFFFFFFFFFFFFFFFFFFF AND PUSH11 0x52B7D2DCC80CD2E4000000 PUSH1 0x40 MLOAD DUP4 PUSH4 0xFFFFFFFF AND PUSH1 0xE0 SHL DUP2 MSTORE PUSH1 0x4 ADD PUSH2 0x42D SWAP3 SWAP2 SWAP1 PUSH2 0xE28 JUMP JUMPDEST PUSH1 0x20 PUSH1 0x40 MLOAD DUP1 DUP4 SUB DUP2 PUSH1 0x0 DUP8 GAS CALL ISZERO DUP1 ISZERO PUSH2 0x44C JUMPI RETURNDATASIZE PUSH1 0x0 DUP1 RETURNDATACOPY RETURNDATASIZE PUSH1 0x0 REVERT JUMPDEST POP POP POP POP PUSH1 0x40 MLOAD RETURNDATASIZE PUSH1 0x1F NOT PUSH1 0x1F DUP3 ADD AND DUP3 ADD DUP1 PUSH1 0x40 MSTORE POP DUP2 ADD SWAP1 PUSH2 0x470 SWAP2 SWAP1 PUSH2 0xE7D JUMP JUMPDEST POP DUP5 PUSH20 0xFFFFFFFFFFFFFFFFFFFFFFFFFFFFFFFFFFFFFFFF AND PUSH4 0x95EA7B3 PUSH1 0xB PUSH1 0x0 SWAP1 SLOAD SWAP1 PUSH2 0x100 EXP SWAP1 DIV PUSH20 0xFFFFFFFFFFFFFFFFFFFFFFFFFFFFFFFFFFFFFFFF AND PUSH11 0x52B7D2DCC80CD2E4000000 PUSH1 0x40 MLOAD DUP4 PUSH4 0xFFFFFFFF AND PUSH1 0xE0 SHL DUP2 MSTORE PUSH1 0x4 ADD PUSH2 0x4D9 SWAP3 SWAP2 SWAP1 PUSH2 0xE28 JUMP JUMPDEST PUSH1 0x20 PUSH1 0x40 MLOAD DUP1 DUP4 SUB DUP2 PUSH1 0x0 DUP8 GAS CALL ISZERO DUP1 ISZERO PUSH2 0x4F8 JUMPI RETURNDATASIZE PUSH1 0x0 DUP1 RETURNDATACOPY RETURNDATASIZE PUSH1 0x0 REVERT JUMPDEST POP POP POP POP PUSH1 0x40 MLOAD RETURNDATASIZE PUSH1 0x1F NOT PUSH1 0x1F DUP3 ADD AND DUP3 ADD DUP1 PUSH1 0x40 MSTORE POP DUP2 ADD SWAP1 PUSH2 0x51C SWAP2 SWAP1 PUSH2 0xE7D JUMP JUMPDEST POP PUSH32 0x0 PUSH20 0xFFFFFFFFFFFFFFFFFFFFFFFFFFFFFFFFFFFFFFFF AND PUSH4 0x42B0B77C DUP5 DUP8 DUP8 DUP7 DUP7 PUSH1 0x40 MLOAD DUP7 PUSH4 0xFFFFFFFF AND PUSH1 0xE0 SHL DUP2 MSTORE PUSH1 0x4 ADD PUSH2 0x57E SWAP6 SWAP5 SWAP4 SWAP3 SWAP2 SWAP1 PUSH2 0xF60 JUMP JUMPDEST PUSH1 0x0 PUSH1 0x40 MLOAD DUP1 DUP4 SUB DUP2 PUSH1 0x0 DUP8 DUP1 EXTCODESIZE ISZERO DUP1 ISZERO PUSH2 0x598 JUMPI PUSH1 0x0 DUP1 REVERT JUMPDEST POP GAS CALL ISZERO DUP1 ISZERO PUSH2 0x5AC JUMPI RETURNDATASIZE PUSH1 0x0 DUP1 RETURNDATACOPY RETURNDATASIZE PUSH1 0x0 REVERT JUMPDEST POP POP POP POP POP POP POP POP POP JUMP JUMPDEST PUSH1 0x0 ADDRESS SWAP1 POP PUSH1 0x0 PUSH1 0x1 PUSH8 0xFFFFFFFFFFFFFFFF DUP2 GT ISZERO PUSH2 0x5D9 JUMPI PUSH2 0x5D8 PUSH2 0xFBA JUMP JUMPDEST JUMPDEST PUSH1 0x40 MLOAD SWAP1 DUP1 DUP3 MSTORE DUP1 PUSH1 0x20 MUL PUSH1 0x20 ADD DUP3 ADD PUSH1 0x40 MSTORE DUP1 ISZERO PUSH2 0x607 JUMPI DUP2 PUSH1 0x20 ADD PUSH1 0x20 DUP3 MUL DUP1 CALLDATASIZE DUP4 CALLDATACOPY DUP1 DUP3 ADD SWAP2 POP POP SWAP1 POP JUMPDEST POP SWAP1 POP DUP4 DUP2 PUSH1 0x0 DUP2 MLOAD DUP2 LT PUSH2 0x61F JUMPI PUSH2 0x61E PUSH2 0xFE9 JUMP JUMPDEST JUMPDEST PUSH1 0x20 MUL PUSH1 0x20 ADD ADD SWAP1 PUSH20 0xFFFFFFFFFFFFFFFFFFFFFFFFFFFFFFFFFFFFFFFF AND SWAP1 DUP2 PUSH20 0xFFFFFFFFFFFFFFFFFFFFFFFFFFFFFFFFFFFFFFFF AND DUP2 MSTORE POP POP PUSH1 0x0 PUSH1 0x1 PUSH8 0xFFFFFFFFFFFFFFFF DUP2 GT ISZERO PUSH2 0x676 JUMPI PUSH2 0x675 PUSH2 0xFBA JUMP JUMPDEST JUMPDEST PUSH1 0x40 MLOAD SWAP1 DUP1 DUP3 MSTORE DUP1 PUSH1 0x20 MUL PUSH1 0x20 ADD DUP3 ADD PUSH1 0x40 MSTORE DUP1 ISZERO PUSH2 0x6A4 JUMPI DUP2 PUSH1 0x20 ADD PUSH1 0x20 DUP3 MUL DUP1 CALLDATASIZE DUP4 CALLDATACOPY DUP1 DUP3 ADD SWAP2 POP POP SWAP1 POP JUMPDEST POP SWAP1 POP DUP4 DUP2 PUSH1 0x0 DUP2 MLOAD DUP2 LT PUSH2 0x6BC JUMPI PUSH2 0x6BB PUSH2 0xFE9 JUMP JUMPDEST JUMPDEST PUSH1 0x20 MUL PUSH1 0x20 ADD ADD DUP2 DUP2 MSTORE POP POP PUSH1 0x0 PUSH1 0x1 PUSH8 0xFFFFFFFFFFFFFFFF DUP2 GT ISZERO PUSH2 0x6E5 JUMPI PUSH2 0x6E4 PUSH2 0xFBA JUMP JUMPDEST JUMPDEST PUSH1 0x40 MLOAD SWAP1 DUP1 DUP3 MSTORE DUP1 PUSH1 0x20 MUL PUSH1 0x20 ADD DUP3 ADD PUSH1 0x40 MSTORE DUP1 ISZERO PUSH2 0x713 JUMPI DUP2 PUSH1 0x20 ADD PUSH1 0x20 DUP3 MUL DUP1 CALLDATASIZE DUP4 CALLDATACOPY DUP1 DUP3 ADD SWAP2 POP POP SWAP1 POP JUMPDEST POP SWAP1 POP PUSH1 0x0 DUP2 PUSH1 0x0 DUP2 MLOAD DUP2 LT PUSH2 0x72C JUMPI PUSH2 0x72B PUSH2 0xFE9 JUMP JUMPDEST JUMPDEST PUSH1 0x20 MUL PUSH1 0x20 ADD ADD DUP2 DUP2 MSTORE POP POP PUSH1 0x0 PUSH1 0x40 MLOAD DUP1 PUSH1 0x20 ADD PUSH1 0x40 MSTORE DUP1 PUSH1 0x0 DUP2 MSTORE POP SWAP1 POP PUSH1 0x0 PUSH1 0xC PUSH1 0x0 SWAP1 SLOAD SWAP1 PUSH2 0x100 EXP SWAP1 DIV PUSH20 0xFFFFFFFFFFFFFFFFFFFFFFFFFFFFFFFFFFFFFFFF AND PUSH20 0xFFFFFFFFFFFFFFFFFFFFFFFFFFFFFFFFFFFFFFFF AND PUSH4 0x95EA7B3 PUSH1 0xA PUSH1 0x0 SWAP1 SLOAD SWAP1 PUSH2 0x100 EXP SWAP1 DIV PUSH20 0xFFFFFFFFFFFFFFFFFFFFFFFFFFFFFFFFFFFFFFFF AND PUSH11 0x52B7D2DCC80CD2E4000000 PUSH1 0x40 MLOAD DUP4 PUSH4 0xFFFFFFFF AND PUSH1 0xE0 SHL DUP2 MSTORE PUSH1 0x4 ADD PUSH2 0x7D8 SWAP3 SWAP2 SWAP1 PUSH2 0xE28 JUMP JUMPDEST PUSH1 0x20 PUSH1 0x40 MLOAD DUP1 DUP4 SUB DUP2 PUSH1 0x0 DUP8 GAS CALL ISZERO DUP1 ISZERO PUSH2 0x7F7 JUMPI RETURNDATASIZE PUSH1 0x0 DUP1 RETURNDATACOPY RETURNDATASIZE PUSH1 0x0 REVERT JUMPDEST POP POP POP POP PUSH1 0x40 MLOAD RETURNDATASIZE PUSH1 0x1F NOT PUSH1 0x1F DUP3 ADD AND DUP3 ADD DUP1 PUSH1 0x40 MSTORE POP DUP2 ADD SWAP1 PUSH2 0x81B SWAP2 SWAP1 PUSH2 0xE7D JUMP JUMPDEST POP PUSH1 0xC PUSH1 0x0 SWAP1 SLOAD SWAP1 PUSH2 0x100 EXP SWAP1 DIV PUSH20 0xFFFFFFFFFFFFFFFFFFFFFFFFFFFFFFFFFFFFFFFF AND PUSH20 0xFFFFFFFFFFFFFFFFFFFFFFFFFFFFFFFFFFFFFFFF AND PUSH4 0x95EA7B3 PUSH1 0xB PUSH1 0x0 SWAP1 SLOAD SWAP1 PUSH2 0x100 EXP SWAP1 DIV PUSH20 0xFFFFFFFFFFFFFFFFFFFFFFFFFFFFFFFFFFFFFFFF AND PUSH11 0x52B7D2DCC80CD2E4000000 PUSH1 0x40 MLOAD DUP4 PUSH4 0xFFFFFFFF AND PUSH1 0xE0 SHL DUP2 MSTORE PUSH1 0x4 ADD PUSH2 0x8A6 SWAP3 SWAP2 SWAP1 PUSH2 0xE28 JUMP JUMPDEST PUSH1 0x20 PUSH1 0x40 MLOAD DUP1 DUP4 SUB DUP2 PUSH1 0x0 DUP8 GAS CALL ISZERO DUP1 ISZERO PUSH2 0x8C5 JUMPI RETURNDATASIZE PUSH1 0x0 DUP1 RETURNDATACOPY RETURNDATASIZE PUSH1 0x0 REVERT JUMPDEST POP POP POP POP PUSH1 0x40 MLOAD RETURNDATASIZE PUSH1 0x1F NOT PUSH1 0x1F DUP3 ADD AND DUP3 ADD DUP1 PUSH1 0x40 MSTORE POP DUP2 ADD SWAP1 PUSH2 0x8E9 SWAP2 SWAP1 PUSH2 0xE7D JUMP JUMPDEST POP PUSH1 0xD PUSH1 0x0 SWAP1 SLOAD SWAP1 PUSH2 0x100 EXP SWAP1 DIV PUSH20 0xFFFFFFFFFFFFFFFFFFFFFFFFFFFFFFFFFFFFFFFF AND PUSH20 0xFFFFFFFFFFFFFFFFFFFFFFFFFFFFFFFFFFFFFFFF AND PUSH4 0x95EA7B3 PUSH1 0xA PUSH1 0x0 SWAP1 SLOAD SWAP1 PUSH2 0x100 EXP SWAP1 DIV PUSH20 0xFFFFFFFFFFFFFFFFFFFFFFFFFFFFFFFFFFFFFFFF AND PUSH11 0x52B7D2DCC80CD2E4000000 PUSH1 0x40 MLOAD DUP4 PUSH4 0xFFFFFFFF AND PUSH1 0xE0 SHL DUP2 MSTORE PUSH1 0x4 ADD PUSH2 0x974 SWAP3 SWAP2 SWAP1 PUSH2 0xE28 JUMP JUMPDEST PUSH1 0x20 PUSH1 0x40 MLOAD DUP1 DUP4 SUB DUP2 PUSH1 0x0 DUP8 GAS CALL ISZERO DUP1 ISZERO PUSH2 0x993 JUMPI RETURNDATASIZE PUSH1 0x0 DUP1 RETURNDATACOPY RETURNDATASIZE PUSH1 0x0 REVERT JUMPDEST POP POP POP POP PUSH1 0x40 MLOAD RETURNDATASIZE PUSH1 0x1F NOT PUSH1 0x1F DUP3 ADD AND DUP3 ADD DUP1 PUSH1 0x40 MSTORE POP DUP2 ADD SWAP1 PUSH2 0x9B7 SWAP2 SWAP1 PUSH2 0xE7D JUMP JUMPDEST POP PUSH1 0xD PUSH1 0x0 SWAP1 SLOAD SWAP1 PUSH2 0x100 EXP SWAP1 DIV PUSH20 0xFFFFFFFFFFFFFFFFFFFFFFFFFFFFFFFFFFFFFFFF AND PUSH20 0xFFFFFFFFFFFFFFFFFFFFFFFFFFFFFFFFFFFFFFFF AND PUSH4 0x95EA7B3 PUSH1 0xB PUSH1 0x0 SWAP1 SLOAD SWAP1 PUSH2 0x100 EXP SWAP1 DIV PUSH20 0xFFFFFFFFFFFFFFFFFFFFFFFFFFFFFFFFFFFFFFFF AND PUSH11 0x52B7D2DCC80CD2E4000000 PUSH1 0x40 MLOAD DUP4 PUSH4 0xFFFFFFFF AND PUSH1 0xE0 SHL DUP2 MSTORE PUSH1 0x4 ADD PUSH2 0xA42 SWAP3 SWAP2 SWAP1 PUSH2 0xE28 JUMP JUMPDEST PUSH1 0x20 PUSH1 0x40 MLOAD DUP1 DUP4 SUB DUP2 PUSH1 0x0 DUP8 GAS CALL ISZERO DUP1 ISZERO PUSH2 0xA61 JUMPI RETURNDATASIZE PUSH1 0x0 DUP1 RETURNDATACOPY RETURNDATASIZE PUSH1 0x0 REVERT JUMPDEST POP POP POP POP PUSH1 0x40 MLOAD RETURNDATASIZE PUSH1 0x1F NOT PUSH1 0x1F DUP3 ADD AND DUP3 ADD DUP1 PUSH1 0x40 MSTORE POP DUP2 ADD SWAP1 PUSH2 0xA85 SWAP2 SWAP1 PUSH2 0xE7D JUMP JUMPDEST POP PUSH32 0x0 PUSH20 0xFFFFFFFFFFFFFFFFFFFFFFFFFFFFFFFFFFFFFFFF AND PUSH4 0xAB9C4B5D DUP8 DUP8 DUP8 DUP8 DUP12 DUP9 DUP9 PUSH1 0x40 MLOAD DUP9 PUSH4 0xFFFFFFFF AND PUSH1 0xE0 SHL DUP2 MSTORE PUSH1 0x4 ADD PUSH2 0xAEB SWAP8 SWAP7 SWAP6 SWAP5 SWAP4 SWAP3 SWAP2 SWAP1 PUSH2 0x1194 JUMP JUMPDEST PUSH1 0x0 PUSH1 0x40 MLOAD DUP1 DUP4 SUB DUP2 PUSH1 0x0 DUP8 DUP1 EXTCODESIZE ISZERO DUP1 ISZERO PUSH2 0xB05 JUMPI PUSH1 0x0 DUP1 REVERT JUMPDEST POP GAS CALL ISZERO DUP1 ISZERO PUSH2 0xB19 JUMPI RETURNDATASIZE PUSH1 0x0 DUP1 RETURNDATACOPY RETURNDATASIZE PUSH1 0x0 REVERT JUMPDEST POP POP POP POP POP POP POP POP POP POP POP POP JUMP JUMPDEST PUSH1 0x0 DUP3 DUP3 DUP5 ADD SWAP2 POP DUP2 LT ISZERO PUSH2 0xB3B JUMPI PUSH1 0x0 DUP1 REVERT JUMPDEST SWAP3 SWAP2 POP POP JUMP JUMPDEST PUSH1 0x0 PUSH20 0xFFFFFFFFFFFFFFFFFFFFFFFFFFFFFFFFFFFFFFFF DUP3 AND SWAP1 POP SWAP2 SWAP1 POP JUMP JUMPDEST PUSH1 0x0 DUP2 SWAP1 POP SWAP2 SWAP1 POP JUMP JUMPDEST PUSH1 0x0 PUSH2 0xB86 PUSH2 0xB81 PUSH2 0xB7C DUP5 PUSH2 0xB41 JUMP JUMPDEST PUSH2 0xB61 JUMP JUMPDEST PUSH2 0xB41 JUMP JUMPDEST SWAP1 POP SWAP2 SWAP1 POP JUMP JUMPDEST PUSH1 0x0 PUSH2 0xB98 DUP3 PUSH2 0xB6B JUMP JUMPDEST SWAP1 POP SWAP2 SWAP1 POP JUMP JUMPDEST PUSH1 0x0 PUSH2 0xBAA DUP3 PUSH2 0xB8D JUMP JUMPDEST SWAP1 POP SWAP2 SWAP1 POP JUMP JUMPDEST PUSH2 0xBBA DUP2 PUSH2 0xB9F JUMP JUMPDEST DUP3 MSTORE POP POP JUMP JUMPDEST PUSH1 0x0 PUSH1 0x20 DUP3 ADD SWAP1 POP PUSH2 0xBD5 PUSH1 0x0 DUP4 ADD DUP5 PUSH2 0xBB1 JUMP JUMPDEST SWAP3 SWAP2 POP POP JUMP JUMPDEST PUSH1 0x0 DUP1 REVERT JUMPDEST PUSH1 0x0 DUP1 REVERT JUMPDEST PUSH1 0x0 PUSH2 0xBF0 DUP3 PUSH2 0xB41 JUMP JUMPDEST SWAP1 POP SWAP2 SWAP1 POP JUMP JUMPDEST PUSH2 0xC00 DUP2 PUSH2 0xBE5 JUMP JUMPDEST DUP2 EQ PUSH2 0xC0B JUMPI PUSH1 0x0 DUP1 REVERT JUMPDEST POP JUMP JUMPDEST PUSH1 0x0 DUP2 CALLDATALOAD SWAP1 POP PUSH2 0xC1D DUP2 PUSH2 0xBF7 JUMP JUMPDEST SWAP3 SWAP2 POP POP JUMP JUMPDEST PUSH1 0x0 DUP2 SWAP1 POP SWAP2 SWAP1 POP JUMP JUMPDEST PUSH2 0xC36 DUP2 PUSH2 0xC23 JUMP JUMPDEST DUP2 EQ PUSH2 0xC41 JUMPI PUSH1 0x0 DUP1 REVERT JUMPDEST POP JUMP JUMPDEST PUSH1 0x0 DUP2 CALLDATALOAD SWAP1 POP PUSH2 0xC53 DUP2 PUSH2 0xC2D JUMP JUMPDEST SWAP3 SWAP2 POP POP JUMP JUMPDEST PUSH1 0x0 DUP1 REVERT JUMPDEST PUSH1 0x0 DUP1 REVERT JUMPDEST PUSH1 0x0 DUP1 REVERT JUMPDEST PUSH1 0x0 DUP1 DUP4 PUSH1 0x1F DUP5 ADD SLT PUSH2 0xC7E JUMPI PUSH2 0xC7D PUSH2 0xC59 JUMP JUMPDEST JUMPDEST DUP3 CALLDATALOAD SWAP1 POP PUSH8 0xFFFFFFFFFFFFFFFF DUP2 GT ISZERO PUSH2 0xC9B JUMPI PUSH2 0xC9A PUSH2 0xC5E JUMP JUMPDEST JUMPDEST PUSH1 0x20 DUP4 ADD SWAP2 POP DUP4 PUSH1 0x1 DUP3 MUL DUP4 ADD GT ISZERO PUSH2 0xCB7 JUMPI PUSH2 0xCB6 PUSH2 0xC63 JUMP JUMPDEST JUMPDEST SWAP3 POP SWAP3 SWAP1 POP JUMP JUMPDEST PUSH1 0x0 DUP1 PUSH1 0x0 DUP1 PUSH1 0x0 DUP1 PUSH1 0xA0 DUP8 DUP10 SUB SLT ISZERO PUSH2 0xCDB JUMPI PUSH2 0xCDA PUSH2 0xBDB JUMP JUMPDEST JUMPDEST PUSH1 0x0 PUSH2 0xCE9 DUP10 DUP3 DUP11 ADD PUSH2 0xC0E JUMP JUMPDEST SWAP7 POP POP PUSH1 0x20 PUSH2 0xCFA DUP10 DUP3 DUP11 ADD PUSH2 0xC44 JUMP JUMPDEST SWAP6 POP POP PUSH1 0x40 PUSH2 0xD0B DUP10 DUP3 DUP11 ADD PUSH2 0xC44 JUMP JUMPDEST SWAP5 POP POP PUSH1 0x60 PUSH2 0xD1C DUP10 DUP3 DUP11 ADD PUSH2 0xC0E JUMP JUMPDEST SWAP4 POP POP PUSH1 0x80 DUP8 ADD CALLDATALOAD PUSH8 0xFFFFFFFFFFFFFFFF DUP2 GT ISZERO PUSH2 0xD3D JUMPI PUSH2 0xD3C PUSH2 0xBE0 JUMP JUMPDEST JUMPDEST PUSH2 0xD49 DUP10 DUP3 DUP11 ADD PUSH2 0xC68 JUMP JUMPDEST SWAP3 POP SWAP3 POP POP SWAP3 SWAP6 POP SWAP3 SWAP6 POP SWAP3 SWAP6 JUMP JUMPDEST PUSH1 0x0 DUP2 ISZERO ISZERO SWAP1 POP SWAP2 SWAP1 POP JUMP JUMPDEST PUSH2 0xD6D DUP2 PUSH2 0xD58 JUMP JUMPDEST DUP3 MSTORE POP POP JUMP JUMPDEST PUSH1 0x0 PUSH1 0x20 DUP3 ADD SWAP1 POP PUSH2 0xD88 PUSH1 0x0 DUP4 ADD DUP5 PUSH2 0xD64 JUMP JUMPDEST SWAP3 SWAP2 POP POP JUMP JUMPDEST PUSH1 0x0 PUSH2 0xD99 DUP3 PUSH2 0xB8D JUMP JUMPDEST SWAP1 POP SWAP2 SWAP1 POP JUMP JUMPDEST PUSH2 0xDA9 DUP2 PUSH2 0xD8E JUMP JUMPDEST DUP3 MSTORE POP POP JUMP JUMPDEST PUSH1 0x0 PUSH1 0x20 DUP3 ADD SWAP1 POP PUSH2 0xDC4 PUSH1 0x0 DUP4 ADD DUP5 PUSH2 0xDA0 JUMP JUMPDEST SWAP3 SWAP2 POP POP JUMP JUMPDEST PUSH1 0x0 DUP1 PUSH1 0x40 DUP4 DUP6 SUB SLT ISZERO PUSH2 0xDE1 JUMPI PUSH2 0xDE0 PUSH2 0xBDB JUMP JUMPDEST JUMPDEST PUSH1 0x0 PUSH2 0xDEF DUP6 DUP3 DUP7 ADD PUSH2 0xC0E JUMP JUMPDEST SWAP3 POP POP PUSH1 0x20 PUSH2 0xE00 DUP6 DUP3 DUP7 ADD PUSH2 0xC44 JUMP JUMPDEST SWAP2 POP POP SWAP3 POP SWAP3 SWAP1 POP JUMP JUMPDEST PUSH2 0xE13 DUP2 PUSH2 0xBE5 JUMP JUMPDEST DUP3 MSTORE POP POP JUMP JUMPDEST PUSH2 0xE22 DUP2 PUSH2 0xC23 JUMP JUMPDEST DUP3 MSTORE POP POP JUMP JUMPDEST PUSH1 0x0 PUSH1 0x40 DUP3 ADD SWAP1 POP PUSH2 0xE3D PUSH1 0x0 DUP4 ADD DUP6 PUSH2 0xE0A JUMP JUMPDEST PUSH2 0xE4A PUSH1 0x20 DUP4 ADD DUP5 PUSH2 0xE19 JUMP JUMPDEST SWAP4 SWAP3 POP POP POP JUMP JUMPDEST PUSH2 0xE5A DUP2 PUSH2 0xD58 JUMP JUMPDEST DUP2 EQ PUSH2 0xE65 JUMPI PUSH1 0x0 DUP1 REVERT JUMPDEST POP JUMP JUMPDEST PUSH1 0x0 DUP2 MLOAD SWAP1 POP PUSH2 0xE77 DUP2 PUSH2 0xE51 JUMP JUMPDEST SWAP3 SWAP2 POP POP JUMP JUMPDEST PUSH1 0x0 PUSH1 0x20 DUP3 DUP5 SUB SLT ISZERO PUSH2 0xE93 JUMPI PUSH2 0xE92 PUSH2 0xBDB JUMP JUMPDEST JUMPDEST PUSH1 0x0 PUSH2 0xEA1 DUP5 DUP3 DUP6 ADD PUSH2 0xE68 JUMP JUMPDEST SWAP2 POP POP SWAP3 SWAP2 POP POP JUMP JUMPDEST PUSH1 0x0 DUP2 MLOAD SWAP1 POP SWAP2 SWAP1 POP JUMP JUMPDEST PUSH1 0x0 DUP3 DUP3 MSTORE PUSH1 0x20 DUP3 ADD SWAP1 POP SWAP3 SWAP2 POP POP JUMP JUMPDEST PUSH1 0x0 JUMPDEST DUP4 DUP2 LT ISZERO PUSH2 0xEE4 JUMPI DUP1 DUP3 ADD MLOAD DUP2 DUP5 ADD MSTORE PUSH1 0x20 DUP2 ADD SWAP1 POP PUSH2 0xEC9 JUMP JUMPDEST DUP4 DUP2 GT ISZERO PUSH2 0xEF3 JUMPI PUSH1 0x0 DUP5 DUP5 ADD MSTORE JUMPDEST POP POP POP POP JUMP JUMPDEST PUSH1 0x0 PUSH1 0x1F NOT PUSH1 0x1F DUP4 ADD AND SWAP1 POP SWAP2 SWAP1 POP JUMP JUMPDEST PUSH1 0x0 PUSH2 0xF15 DUP3 PUSH2 0xEAA JUMP JUMPDEST PUSH2 0xF1F DUP2 DUP6 PUSH2 0xEB5 JUMP JUMPDEST SWAP4 POP PUSH2 0xF2F DUP2 DUP6 PUSH1 0x20 DUP7 ADD PUSH2 0xEC6 JUMP JUMPDEST PUSH2 0xF38 DUP2 PUSH2 0xEF9 JUMP JUMPDEST DUP5 ADD SWAP2 POP POP SWAP3 SWAP2 POP POP JUMP JUMPDEST PUSH1 0x0 PUSH2 0xFFFF DUP3 AND SWAP1 POP SWAP2 SWAP1 POP JUMP JUMPDEST PUSH2 0xF5A DUP2 PUSH2 0xF43 JUMP JUMPDEST DUP3 MSTORE POP POP JUMP JUMPDEST PUSH1 0x0 PUSH1 0xA0 DUP3 ADD SWAP1 POP PUSH2 0xF75 PUSH1 0x0 DUP4 ADD DUP9 PUSH2 0xE0A JUMP JUMPDEST PUSH2 0xF82 PUSH1 0x20 DUP4 ADD DUP8 PUSH2 0xE0A JUMP JUMPDEST PUSH2 0xF8F PUSH1 0x40 DUP4 ADD DUP7 PUSH2 0xE19 JUMP JUMPDEST DUP2 DUP2 SUB PUSH1 0x60 DUP4 ADD MSTORE PUSH2 0xFA1 DUP2 DUP6 PUSH2 0xF0A JUMP JUMPDEST SWAP1 POP PUSH2 0xFB0 PUSH1 0x80 DUP4 ADD DUP5 PUSH2 0xF51 JUMP JUMPDEST SWAP7 SWAP6 POP POP POP POP POP POP JUMP JUMPDEST PUSH32 0x4E487B7100000000000000000000000000000000000000000000000000000000 PUSH1 0x0 MSTORE PUSH1 0x41 PUSH1 0x4 MSTORE PUSH1 0x24 PUSH1 0x0 REVERT JUMPDEST PUSH32 0x4E487B7100000000000000000000000000000000000000000000000000000000 PUSH1 0x0 MSTORE PUSH1 0x32 PUSH1 0x4 MSTORE PUSH1 0x24 PUSH1 0x0 REVERT JUMPDEST PUSH1 0x0 DUP2 MLOAD SWAP1 POP SWAP2 SWAP1 POP JUMP JUMPDEST PUSH1 0x0 DUP3 DUP3 MSTORE PUSH1 0x20 DUP3 ADD SWAP1 POP SWAP3 SWAP2 POP POP JUMP JUMPDEST PUSH1 0x0 DUP2 SWAP1 POP PUSH1 0x20 DUP3 ADD SWAP1 POP SWAP2 SWAP1 POP JUMP JUMPDEST PUSH2 0x104D DUP2 PUSH2 0xBE5 JUMP JUMPDEST DUP3 MSTORE POP POP JUMP JUMPDEST PUSH1 0x0 PUSH2 0x105F DUP4 DUP4 PUSH2 0x1044 JUMP JUMPDEST PUSH1 0x20 DUP4 ADD SWAP1 POP SWAP3 SWAP2 POP POP JUMP JUMPDEST PUSH1 0x0 PUSH1 0x20 DUP3 ADD SWAP1 POP SWAP2 SWAP1 POP JUMP JUMPDEST PUSH1 0x0 PUSH2 0x1083 DUP3 PUSH2 0x1018 JUMP JUMPDEST PUSH2 0x108D DUP2 DUP6 PUSH2 0x1023 JUMP JUMPDEST SWAP4 POP PUSH2 0x1098 DUP4 PUSH2 0x1034 JUMP JUMPDEST DUP1 PUSH1 0x0 JUMPDEST DUP4 DUP2 LT ISZERO PUSH2 0x10C9 JUMPI DUP2 MLOAD PUSH2 0x10B0 DUP9 DUP3 PUSH2 0x1053 JUMP JUMPDEST SWAP8 POP PUSH2 0x10BB DUP4 PUSH2 0x106B JUMP JUMPDEST SWAP3 POP POP PUSH1 0x1 DUP2 ADD SWAP1 POP PUSH2 0x109C JUMP JUMPDEST POP DUP6 SWAP4 POP POP POP POP SWAP3 SWAP2 POP POP JUMP JUMPDEST PUSH1 0x0 DUP2 MLOAD SWAP1 POP SWAP2 SWAP1 POP JUMP JUMPDEST PUSH1 0x0 DUP3 DUP3 MSTORE PUSH1 0x20 DUP3 ADD SWAP1 POP SWAP3 SWAP2 POP POP JUMP JUMPDEST PUSH1 0x0 DUP2 SWAP1 POP PUSH1 0x20 DUP3 ADD SWAP1 POP SWAP2 SWAP1 POP JUMP JUMPDEST PUSH2 0x110B DUP2 PUSH2 0xC23 JUMP JUMPDEST DUP3 MSTORE POP POP JUMP JUMPDEST PUSH1 0x0 PUSH2 0x111D DUP4 DUP4 PUSH2 0x1102 JUMP JUMPDEST PUSH1 0x20 DUP4 ADD SWAP1 POP SWAP3 SWAP2 POP POP JUMP JUMPDEST PUSH1 0x0 PUSH1 0x20 DUP3 ADD SWAP1 POP SWAP2 SWAP1 POP JUMP JUMPDEST PUSH1 0x0 PUSH2 0x1141 DUP3 PUSH2 0x10D6 JUMP JUMPDEST PUSH2 0x114B DUP2 DUP6 PUSH2 0x10E1 JUMP JUMPDEST SWAP4 POP PUSH2 0x1156 DUP4 PUSH2 0x10F2 JUMP JUMPDEST DUP1 PUSH1 0x0 JUMPDEST DUP4 DUP2 LT ISZERO PUSH2 0x1187 JUMPI DUP2 MLOAD PUSH2 0x116E DUP9 DUP3 PUSH2 0x1111 JUMP JUMPDEST SWAP8 POP PUSH2 0x1179 DUP4 PUSH2 0x1129 JUMP JUMPDEST SWAP3 POP POP PUSH1 0x1 DUP2 ADD SWAP1 POP PUSH2 0x115A JUMP JUMPDEST POP DUP6 SWAP4 POP POP POP POP SWAP3 SWAP2 POP POP JUMP JUMPDEST PUSH1 0x0 PUSH1 0xE0 DUP3 ADD SWAP1 POP PUSH2 0x11A9 PUSH1 0x0 DUP4 ADD DUP11 PUSH2 0xE0A JUMP JUMPDEST DUP2 DUP2 SUB PUSH1 0x20 DUP4 ADD MSTORE PUSH2 0x11BB DUP2 DUP10 PUSH2 0x1078 JUMP JUMPDEST SWAP1 POP DUP2 DUP2 SUB PUSH1 0x40 DUP4 ADD MSTORE PUSH2 0x11CF DUP2 DUP9 PUSH2 0x1136 JUMP JUMPDEST SWAP1 POP DUP2 DUP2 SUB PUSH1 0x60 DUP4 ADD MSTORE PUSH2 0x11E3 DUP2 DUP8 PUSH2 0x1136 JUMP JUMPDEST SWAP1 POP PUSH2 0x11F2 PUSH1 0x80 DUP4 ADD DUP7 PUSH2 0xE0A JUMP JUMPDEST DUP2 DUP2 SUB PUSH1 0xA0 DUP4 ADD MSTORE PUSH2 0x1204 DUP2 DUP6 PUSH2 0xF0A JUMP JUMPDEST SWAP1 POP PUSH2 0x1213 PUSH1 0xC0 DUP4 ADD DUP5 PUSH2 0xF51 JUMP JUMPDEST SWAP9 SWAP8 POP POP POP POP POP POP POP POP JUMP INVALID LOG2 PUSH5 0x6970667358 0x22 SLT KECCAK256 SSTORE PUSH30 0xC35BC5F86908FCDB30212705A9D9260CD9CA78226D7FF66441144451F373 PUSH5 0x736F6C6343 STOP ADDMOD EXP STOP CALLER "
				},
				"gasEstimates": {
					"creation": {
						"codeDepositCost": "938600",
						"executionCost": "infinite",
						"totalCost": "infinite"
					},
					"external": {
						"ADDRESSES_PROVIDER()": "infinite",
						"POOL()": "infinite",
						"executeOperation(address,uint256,uint256,address,bytes)": "infinite",
						"testAAVE(address,uint256)": "infinite",
						"testAAVE2(address,uint256)": "infinite"
					}
				},
				"methodIdentifiers": {
					"ADDRESSES_PROVIDER()": "0542975c",
					"POOL()": "7535d246",
					"executeOperation(address,uint256,uint256,address,bytes)": "1b11d0ff",
					"testAAVE(address,uint256)": "cea8fe55",
					"testAAVE2(address,uint256)": "8faab56f"
				}
			},
			"userdoc": {
				"kind": "user",
				"methods": {
					"executeOperation(address,uint256,uint256,address,bytes)": {
						"notice": "Executes an operation after receiving the flash-borrowed asset"
					}
				},
				"version": 1
			}
		}
	}
}