{
	"Code-hardhat-ethersJs/contracts/MyTokenMarket.sol": {
		"MyTokenMarket": {
			"abi": [
				{
					"inputs": [],
					"stateMutability": "nonpayable",
					"type": "constructor"
				},
				{
					"inputs": [
						{
							"internalType": "uint256",
							"name": "amountMyTokenDesired",
							"type": "uint256"
						},
						{
							"internalType": "uint256",
							"name": "amountMyTokenMin",
							"type": "uint256"
						},
						{
							"internalType": "uint256",
							"name": "amountETHMin",
							"type": "uint256"
						}
					],
					"name": "addLiquidity",
					"outputs": [],
					"stateMutability": "payable",
					"type": "function"
				},
				{
					"inputs": [
						{
							"internalType": "uint256",
							"name": "amountOutMin",
							"type": "uint256"
						}
					],
					"name": "buyExactTokenByETH",
					"outputs": [],
					"stateMutability": "payable",
					"type": "function"
				},
				{
					"inputs": [],
					"name": "withdraw",
					"outputs": [],
					"stateMutability": "nonpayable",
					"type": "function"
				}
			],
			"devdoc": {
				"kind": "dev",
				"methods": {},
				"version": 1
			},
			"evm": {
				"assembly": "    /* \"Code-hardhat-ethersJs/contracts/MyTokenMarket.sol\":220:2287  contract MyTokenMarket{... */\n  mstore(0x40, 0x80)\n    /* \"Code-hardhat-ethersJs/contracts/MyTokenMarket.sol\":493:535  0x7a250d5630B4cF539739dF2C5dAcb4c659F2488D */\n  0x7a250d5630b4cf539739df2c5dacb4c659f2488d\n    /* \"Code-hardhat-ethersJs/contracts/MyTokenMarket.sol\":472:535  address uv2address = 0x7a250d5630B4cF539739dF2C5dAcb4c659F2488D */\n  0x00\n  dup1\n  0x0100\n  exp\n  dup2\n  sload\n  dup2\n  0xffffffffffffffffffffffffffffffffffffffff\n  mul\n  not\n  and\n  swap1\n  dup4\n  0xffffffffffffffffffffffffffffffffffffffff\n  and\n  mul\n  or\n  swap1\n  sstore\n  pop\n    /* \"Code-hardhat-ethersJs/contracts/MyTokenMarket.sol\":563:605  0xc778417E063141139Fce010982780140Aa0cD5Ab */\n  0xc778417e063141139fce010982780140aa0cd5ab\n    /* \"Code-hardhat-ethersJs/contracts/MyTokenMarket.sol\":541:605  address wethaddress = 0xc778417E063141139Fce010982780140Aa0cD5Ab */\n  0x01\n  exp(0x0100, 0x00)\n  dup2\n  sload\n  dup2\n  0xffffffffffffffffffffffffffffffffffffffff\n  mul\n  not\n  and\n  swap1\n  dup4\n  0xffffffffffffffffffffffffffffffffffffffff\n  and\n  mul\n  or\n  swap1\n  sstore\n  pop\n    /* \"Code-hardhat-ethersJs/contracts/MyTokenMarket.sol\":636:678  0xFA7b29AC82cC25D50970D7E6d842B0e6a529BAeE */\n  0xfa7b29ac82cc25d50970d7e6d842b0e6a529baee\n    /* \"Code-hardhat-ethersJs/contracts/MyTokenMarket.sol\":611:678  address mytokenaddress = 0xFA7b29AC82cC25D50970D7E6d842B0e6a529BAeE */\n  0x02\n  exp(0x0100, 0x00)\n  dup2\n  sload\n  dup2\n  0xffffffffffffffffffffffffffffffffffffffff\n  mul\n  not\n  and\n  swap1\n  dup4\n  0xffffffffffffffffffffffffffffffffffffffff\n  and\n  mul\n  or\n  swap1\n  sstore\n  pop\n    /* \"Code-hardhat-ethersJs/contracts/MyTokenMarket.sol\":707:749  0xf42A08C0EA66ee4A474336087A6C17E9EA6c9dE9 */\n  0xf42a08c0ea66ee4a474336087a6c17e9ea6c9de9\n    /* \"Code-hardhat-ethersJs/contracts/MyTokenMarket.sol\":684:749  address sushiaddress = 0xf42A08C0EA66ee4A474336087A6C17E9EA6c9dE9 */\n  0x03\n  exp(0x0100, 0x00)\n  dup2\n  sload\n  dup2\n  0xffffffffffffffffffffffffffffffffffffffff\n  mul\n  not\n  and\n  swap1\n  dup4\n  0xffffffffffffffffffffffffffffffffffffffff\n  and\n  mul\n  or\n  swap1\n  sstore\n  pop\n    /* \"Code-hardhat-ethersJs/contracts/MyTokenMarket.sol\":783:825  0xd9DFA8c6b37cfDF16668fE0465896f4A1B9b2c4F */\n  0xd9dfa8c6b37cfdf16668fe0465896f4a1b9b2c4f\n    /* \"Code-hardhat-ethersJs/contracts/MyTokenMarket.sol\":755:825  address masterchefaddress = 0xd9DFA8c6b37cfDF16668fE0465896f4A1B9b2c4F */\n  0x04\n  exp(0x0100, 0x00)\n  dup2\n  sload\n  dup2\n  0xffffffffffffffffffffffffffffffffffffffff\n  mul\n  not\n  and\n  swap1\n  dup4\n  0xffffffffffffffffffffffffffffffffffffffff\n  and\n  mul\n  or\n  swap1\n  sstore\n  pop\n    /* \"Code-hardhat-ethersJs/contracts/MyTokenMarket.sol\":881:891  uv2address */\n  0x00\n  dup1\n  sload\n  swap1\n  0x0100\n  exp\n  swap1\n  div\n  0xffffffffffffffffffffffffffffffffffffffff\n  and\n    /* \"Code-hardhat-ethersJs/contracts/MyTokenMarket.sol\":831:892  IUniswapV2Router02 uv2router = IUniswapV2Router02(uv2address) */\n  0x05\n  exp(0x0100, 0x00)\n  dup2\n  sload\n  dup2\n  0xffffffffffffffffffffffffffffffffffffffff\n  mul\n  not\n  and\n  swap1\n  dup4\n  0xffffffffffffffffffffffffffffffffffffffff\n  and\n  mul\n  or\n  swap1\n  sstore\n  pop\n    /* \"Code-hardhat-ethersJs/contracts/MyTokenMarket.sol\":921:935  mytokenaddress */\n  0x02\n  0x00\n  swap1\n  sload\n  swap1\n  0x0100\n  exp\n  swap1\n  div\n  0xffffffffffffffffffffffffffffffffffffffff\n  and\n    /* \"Code-hardhat-ethersJs/contracts/MyTokenMarket.sol\":898:936  IERC20 mtoken = IERC20(mytokenaddress) */\n  0x06\n  exp(0x0100, 0x00)\n  dup2\n  sload\n  dup2\n  0xffffffffffffffffffffffffffffffffffffffff\n  mul\n  not\n  and\n  swap1\n  dup4\n  0xffffffffffffffffffffffffffffffffffffffff\n  and\n  mul\n  or\n  swap1\n  sstore\n  pop\n    /* \"Code-hardhat-ethersJs/contracts/MyTokenMarket.sol\":979:996  masterchefaddress */\n  0x04\n  0x00\n  swap1\n  sload\n  swap1\n  0x0100\n  exp\n  swap1\n  div\n  0xffffffffffffffffffffffffffffffffffffffff\n  and\n    /* \"Code-hardhat-ethersJs/contracts/MyTokenMarket.sol\":942:997  IMasterChef masterChef = IMasterChef(masterchefaddress) */\n  0x07\n  exp(0x0100, 0x00)\n  dup2\n  sload\n  dup2\n  0xffffffffffffffffffffffffffffffffffffffff\n  mul\n  not\n  and\n  swap1\n  dup4\n  0xffffffffffffffffffffffffffffffffffffffff\n  and\n  mul\n  or\n  swap1\n  sstore\n  pop\n    /* \"Code-hardhat-ethersJs/contracts/MyTokenMarket.sol\":1003:1023  constructor(){... */\n  callvalue\n  dup1\n  iszero\n  tag_1\n  jumpi\n  0x00\n  dup1\n  revert\ntag_1:\n  pop\n    /* \"Code-hardhat-ethersJs/contracts/MyTokenMarket.sol\":220:2287  contract MyTokenMarket{... */\n  dataSize(sub_0)\n  dup1\n  dataOffset(sub_0)\n  0x00\n  codecopy\n  0x00\n  return\nstop\n\nsub_0: assembly {\n        /* \"Code-hardhat-ethersJs/contracts/MyTokenMarket.sol\":220:2287  contract MyTokenMarket{... */\n      mstore(0x40, 0x80)\n      jumpi(tag_1, lt(calldatasize, 0x04))\n      shr(0xe0, calldataload(0x00))\n      dup1\n      0x3ccfd60b\n      eq\n      tag_2\n      jumpi\n      dup1\n      0x422f1043\n      eq\n      tag_3\n      jumpi\n      dup1\n      0xa93f74e0\n      eq\n      tag_4\n      jumpi\n    tag_1:\n      0x00\n      dup1\n      revert\n        /* \"Code-hardhat-ethersJs/contracts/MyTokenMarket.sol\":2137:2283  function withdraw()public{... */\n    tag_2:\n      callvalue\n      dup1\n      iszero\n      tag_5\n      jumpi\n      0x00\n      dup1\n      revert\n    tag_5:\n      pop\n      tag_6\n      tag_7\n      jump\t// in\n    tag_6:\n      stop\n        /* \"Code-hardhat-ethersJs/contracts/MyTokenMarket.sol\":1030:1769  function addLiquidity(... */\n    tag_3:\n      tag_8\n      0x04\n      dup1\n      calldatasize\n      sub\n      dup2\n      add\n      swap1\n      tag_9\n      swap2\n      swap1\n      tag_10\n      jump\t// in\n    tag_9:\n      tag_11\n      jump\t// in\n    tag_8:\n      stop\n        /* \"Code-hardhat-ethersJs/contracts/MyTokenMarket.sol\":1776:2100  function buyExactTokenByETH(uint amountOutMin)public payable{... */\n    tag_4:\n      tag_12\n      0x04\n      dup1\n      calldatasize\n      sub\n      dup2\n      add\n      swap1\n      tag_13\n      swap2\n      swap1\n      tag_14\n      jump\t// in\n    tag_13:\n      tag_15\n      jump\t// in\n    tag_12:\n      stop\n        /* \"Code-hardhat-ethersJs/contracts/MyTokenMarket.sol\":2137:2283  function withdraw()public{... */\n    tag_7:\n        /* \"Code-hardhat-ethersJs/contracts/MyTokenMarket.sol\":2172:2208  IMasterChef.UserInfo memory userInfo */\n      0x00\n        /* \"Code-hardhat-ethersJs/contracts/MyTokenMarket.sol\":2211:2221  masterChef */\n      0x07\n      0x00\n      swap1\n      sload\n      swap1\n      0x0100\n      exp\n      swap1\n      div\n      0xffffffffffffffffffffffffffffffffffffffff\n      and\n        /* \"Code-hardhat-ethersJs/contracts/MyTokenMarket.sol\":2211:2230  masterChef.userInfo */\n      0xffffffffffffffffffffffffffffffffffffffff\n      and\n      0x1959a002\n        /* \"Code-hardhat-ethersJs/contracts/MyTokenMarket.sol\":2231:2241  msg.sender */\n      caller\n        /* \"Code-hardhat-ethersJs/contracts/MyTokenMarket.sol\":2211:2242  masterChef.userInfo(msg.sender) */\n      mload(0x40)\n      dup3\n      0xffffffff\n      and\n      0xe0\n      shl\n      dup2\n      mstore\n      0x04\n      add\n      tag_17\n      swap2\n      swap1\n      tag_18\n      jump\t// in\n    tag_17:\n      0x40\n      dup1\n      mload\n      dup1\n      dup4\n      sub\n      dup2\n      dup7\n      gas\n      staticcall\n      iszero\n      dup1\n      iszero\n      tag_20\n      jumpi\n      returndatasize\n      0x00\n      dup1\n      returndatacopy\n      revert(0x00, returndatasize)\n    tag_20:\n      pop\n      pop\n      pop\n      pop\n      mload(0x40)\n      returndatasize\n      not(0x1f)\n      0x1f\n      dup3\n      add\n      and\n      dup3\n      add\n      dup1\n      0x40\n      mstore\n      pop\n      dup2\n      add\n      swap1\n      tag_21\n      swap2\n      swap1\n      tag_22\n      jump\t// in\n    tag_21:\n        /* \"Code-hardhat-ethersJs/contracts/MyTokenMarket.sol\":2172:2242  IMasterChef.UserInfo memory userInfo = masterChef.userInfo(msg.sender) */\n      swap1\n      pop\n        /* \"Code-hardhat-ethersJs/contracts/MyTokenMarket.sol\":2252:2262  masterChef */\n      0x07\n      0x00\n      swap1\n      sload\n      swap1\n      0x0100\n      exp\n      swap1\n      div\n      0xffffffffffffffffffffffffffffffffffffffff\n      and\n        /* \"Code-hardhat-ethersJs/contracts/MyTokenMarket.sol\":2252:2271  masterChef.withdraw */\n      0xffffffffffffffffffffffffffffffffffffffff\n      and\n      0x441a3e70\n        /* \"Code-hardhat-ethersJs/contracts/MyTokenMarket.sol\":2272:2273  0 */\n      0x00\n        /* \"Code-hardhat-ethersJs/contracts/MyTokenMarket.sol\":2274:2275  0 */\n      dup1\n        /* \"Code-hardhat-ethersJs/contracts/MyTokenMarket.sol\":2252:2276  masterChef.withdraw(0,0) */\n      mload(0x40)\n      dup4\n      0xffffffff\n      and\n      0xe0\n      shl\n      dup2\n      mstore\n      0x04\n      add\n      tag_23\n      swap3\n      swap2\n      swap1\n      tag_24\n      jump\t// in\n    tag_23:\n      0x00\n      mload(0x40)\n      dup1\n      dup4\n      sub\n      dup2\n      0x00\n      dup8\n      dup1\n      extcodesize\n      iszero\n      dup1\n      iszero\n      tag_25\n      jumpi\n      0x00\n      dup1\n      revert\n    tag_25:\n      pop\n      gas\n      call\n      iszero\n      dup1\n      iszero\n      tag_27\n      jumpi\n      returndatasize\n      0x00\n      dup1\n      returndatacopy\n      revert(0x00, returndatasize)\n    tag_27:\n      pop\n      pop\n      pop\n      pop\n        /* \"Code-hardhat-ethersJs/contracts/MyTokenMarket.sol\":2162:2283  {... */\n      pop\n        /* \"Code-hardhat-ethersJs/contracts/MyTokenMarket.sol\":2137:2283  function withdraw()public{... */\n      jump\t// out\n        /* \"Code-hardhat-ethersJs/contracts/MyTokenMarket.sol\":1030:1769  function addLiquidity(... */\n    tag_11:\n        /* \"Code-hardhat-ethersJs/contracts/MyTokenMarket.sol\":1216:1222  mtoken */\n      0x06\n      0x00\n      swap1\n      sload\n      swap1\n      0x0100\n      exp\n      swap1\n      div\n      0xffffffffffffffffffffffffffffffffffffffff\n      and\n        /* \"Code-hardhat-ethersJs/contracts/MyTokenMarket.sol\":1216:1230  mtoken.approve */\n      0xffffffffffffffffffffffffffffffffffffffff\n      and\n      0x095ea7b3\n        /* \"Code-hardhat-ethersJs/contracts/MyTokenMarket.sol\":1239:1248  uv2router */\n      0x05\n      0x00\n      swap1\n      sload\n      swap1\n      0x0100\n      exp\n      swap1\n      div\n      0xffffffffffffffffffffffffffffffffffffffff\n      and\n        /* \"Code-hardhat-ethersJs/contracts/MyTokenMarket.sol\":1251:1271  amountMyTokenDesired */\n      dup6\n        /* \"Code-hardhat-ethersJs/contracts/MyTokenMarket.sol\":1216:1272  mtoken.approve(address(uv2router), amountMyTokenDesired) */\n      mload(0x40)\n      dup4\n      0xffffffff\n      and\n      0xe0\n      shl\n      dup2\n      mstore\n      0x04\n      add\n      tag_29\n      swap3\n      swap2\n      swap1\n      tag_30\n      jump\t// in\n    tag_29:\n      0x20\n      mload(0x40)\n      dup1\n      dup4\n      sub\n      dup2\n      0x00\n      dup8\n      gas\n      call\n      iszero\n      dup1\n      iszero\n      tag_32\n      jumpi\n      returndatasize\n      0x00\n      dup1\n      returndatacopy\n      revert(0x00, returndatasize)\n    tag_32:\n      pop\n      pop\n      pop\n      pop\n      mload(0x40)\n      returndatasize\n      not(0x1f)\n      0x1f\n      dup3\n      add\n      and\n      dup3\n      add\n      dup1\n      0x40\n      mstore\n      pop\n      dup2\n      add\n      swap1\n      tag_33\n      swap2\n      swap1\n      tag_34\n      jump\t// in\n    tag_33:\n      pop\n        /* \"Code-hardhat-ethersJs/contracts/MyTokenMarket.sol\":1282:1294  bool success */\n      0x00\n        /* \"Code-hardhat-ethersJs/contracts/MyTokenMarket.sol\":1297:1303  mtoken */\n      0x06\n      0x00\n      swap1\n      sload\n      swap1\n      0x0100\n      exp\n      swap1\n      div\n      0xffffffffffffffffffffffffffffffffffffffff\n      and\n        /* \"Code-hardhat-ethersJs/contracts/MyTokenMarket.sol\":1297:1316  mtoken.transferFrom */\n      0xffffffffffffffffffffffffffffffffffffffff\n      and\n      0x23b872dd\n        /* \"Code-hardhat-ethersJs/contracts/MyTokenMarket.sol\":1317:1327  msg.sender */\n      caller\n        /* \"Code-hardhat-ethersJs/contracts/MyTokenMarket.sol\":1337:1341  this */\n      address\n        /* \"Code-hardhat-ethersJs/contracts/MyTokenMarket.sol\":1344:1364  amountMyTokenDesired */\n      dup8\n        /* \"Code-hardhat-ethersJs/contracts/MyTokenMarket.sol\":1297:1365  mtoken.transferFrom(msg.sender, address(this), amountMyTokenDesired) */\n      mload(0x40)\n      dup5\n      0xffffffff\n      and\n      0xe0\n      shl\n      dup2\n      mstore\n      0x04\n      add\n      tag_35\n      swap4\n      swap3\n      swap2\n      swap1\n      tag_36\n      jump\t// in\n    tag_35:\n      0x20\n      mload(0x40)\n      dup1\n      dup4\n      sub\n      dup2\n      0x00\n      dup8\n      gas\n      call\n      iszero\n      dup1\n      iszero\n      tag_38\n      jumpi\n      returndatasize\n      0x00\n      dup1\n      returndatacopy\n      revert(0x00, returndatasize)\n    tag_38:\n      pop\n      pop\n      pop\n      pop\n      mload(0x40)\n      returndatasize\n      not(0x1f)\n      0x1f\n      dup3\n      add\n      and\n      dup3\n      add\n      dup1\n      0x40\n      mstore\n      pop\n      dup2\n      add\n      swap1\n      tag_39\n      swap2\n      swap1\n      tag_34\n      jump\t// in\n    tag_39:\n        /* \"Code-hardhat-ethersJs/contracts/MyTokenMarket.sol\":1282:1365  bool success = mtoken.transferFrom(msg.sender, address(this), amountMyTokenDesired) */\n      swap1\n      pop\n        /* \"Code-hardhat-ethersJs/contracts/MyTokenMarket.sol\":1383:1390  success */\n      dup1\n        /* \"Code-hardhat-ethersJs/contracts/MyTokenMarket.sol\":1375:1417  require(success, \"mtoken transfer error!\") */\n      tag_40\n      jumpi\n      mload(0x40)\n      0x08c379a000000000000000000000000000000000000000000000000000000000\n      dup2\n      mstore\n      0x04\n      add\n      tag_41\n      swap1\n      tag_42\n      jump\t// in\n    tag_41:\n      mload(0x40)\n      dup1\n      swap2\n      sub\n      swap1\n      revert\n    tag_40:\n        /* \"Code-hardhat-ethersJs/contracts/MyTokenMarket.sol\":1447:1459  amountETHMin */\n      dup2\n        /* \"Code-hardhat-ethersJs/contracts/MyTokenMarket.sol\":1435:1444  msg.value */\n      callvalue\n        /* \"Code-hardhat-ethersJs/contracts/MyTokenMarket.sol\":1435:1459  msg.value > amountETHMin */\n      gt\n        /* \"Code-hardhat-ethersJs/contracts/MyTokenMarket.sol\":1427:1506  require(msg.value > amountETHMin, \"msg.value should biggger than amountETHMin\") */\n      tag_43\n      jumpi\n      mload(0x40)\n      0x08c379a000000000000000000000000000000000000000000000000000000000\n      dup2\n      mstore\n      0x04\n      add\n      tag_44\n      swap1\n      tag_45\n      jump\t// in\n    tag_44:\n      mload(0x40)\n      dup1\n      swap2\n      sub\n      swap1\n      revert\n    tag_43:\n        /* \"Code-hardhat-ethersJs/contracts/MyTokenMarket.sol\":1517:1533  uint amountToken */\n      0x00\n        /* \"Code-hardhat-ethersJs/contracts/MyTokenMarket.sol\":1539:1548  uv2router */\n      0x05\n      0x00\n      swap1\n      sload\n      swap1\n      0x0100\n      exp\n      swap1\n      div\n      0xffffffffffffffffffffffffffffffffffffffff\n      and\n        /* \"Code-hardhat-ethersJs/contracts/MyTokenMarket.sol\":1539:1564  uv2router.addLiquidityETH */\n      0xffffffffffffffffffffffffffffffffffffffff\n      and\n      0xf305d719\n        /* \"Code-hardhat-ethersJs/contracts/MyTokenMarket.sol\":1572:1581  msg.value */\n      callvalue\n        /* \"Code-hardhat-ethersJs/contracts/MyTokenMarket.sol\":1584:1598  mytokenaddress */\n      0x02\n      0x00\n      swap1\n      sload\n      swap1\n      0x0100\n      exp\n      swap1\n      div\n      0xffffffffffffffffffffffffffffffffffffffff\n      and\n        /* \"Code-hardhat-ethersJs/contracts/MyTokenMarket.sol\":1600:1620  amountMyTokenDesired */\n      dup9\n        /* \"Code-hardhat-ethersJs/contracts/MyTokenMarket.sol\":1622:1638  amountMyTokenMin */\n      dup9\n        /* \"Code-hardhat-ethersJs/contracts/MyTokenMarket.sol\":1640:1652  amountETHMin */\n      dup9\n        /* \"Code-hardhat-ethersJs/contracts/MyTokenMarket.sol\":1654:1664  msg.sender */\n      caller\n        /* \"Code-hardhat-ethersJs/contracts/MyTokenMarket.sol\":1665:1680  block.timestamp */\n      timestamp\n        /* \"Code-hardhat-ethersJs/contracts/MyTokenMarket.sol\":1539:1681  uv2router.addLiquidityETH{value: msg.value}( mytokenaddress, amountMyTokenDesired, amountMyTokenMin, amountETHMin, msg.sender,block.timestamp) */\n      mload(0x40)\n      dup9\n      0xffffffff\n      and\n      0xe0\n      shl\n      dup2\n      mstore\n      0x04\n      add\n      tag_46\n      swap7\n      swap6\n      swap5\n      swap4\n      swap3\n      swap2\n      swap1\n      tag_47\n      jump\t// in\n    tag_46:\n      0x60\n      mload(0x40)\n      dup1\n      dup4\n      sub\n      dup2\n      dup6\n      dup9\n      gas\n      call\n      iszero\n      dup1\n      iszero\n      tag_49\n      jumpi\n      returndatasize\n      0x00\n      dup1\n      returndatacopy\n      revert(0x00, returndatasize)\n    tag_49:\n      pop\n      pop\n      pop\n      pop\n      pop\n      mload(0x40)\n      returndatasize\n      not(0x1f)\n      0x1f\n      dup3\n      add\n      and\n      dup3\n      add\n      dup1\n      0x40\n      mstore\n      pop\n      dup2\n      add\n      swap1\n      tag_50\n      swap2\n      swap1\n      tag_51\n      jump\t// in\n    tag_50:\n        /* \"Code-hardhat-ethersJs/contracts/MyTokenMarket.sol\":1516:1681  (uint amountToken,,) = uv2router.addLiquidityETH{value: msg.value}( mytokenaddress, amountMyTokenDesired, amountMyTokenMin, amountETHMin, msg.sender,block.timestamp) */\n      pop\n      pop\n      swap1\n      pop\n        /* \"Code-hardhat-ethersJs/contracts/MyTokenMarket.sol\":1729:1739  masterChef */\n      0x07\n      0x00\n      swap1\n      sload\n      swap1\n      0x0100\n      exp\n      swap1\n      div\n      0xffffffffffffffffffffffffffffffffffffffff\n      and\n        /* \"Code-hardhat-ethersJs/contracts/MyTokenMarket.sol\":1729:1747  masterChef.deposit */\n      0xffffffffffffffffffffffffffffffffffffffff\n      and\n      0xe2bbb158\n        /* \"Code-hardhat-ethersJs/contracts/MyTokenMarket.sol\":1748:1749  0 */\n      0x00\n        /* \"Code-hardhat-ethersJs/contracts/MyTokenMarket.sol\":1750:1761  amountToken */\n      dup4\n        /* \"Code-hardhat-ethersJs/contracts/MyTokenMarket.sol\":1729:1762  masterChef.deposit(0,amountToken) */\n      mload(0x40)\n      dup4\n      0xffffffff\n      and\n      0xe0\n      shl\n      dup2\n      mstore\n      0x04\n      add\n      tag_52\n      swap3\n      swap2\n      swap1\n      tag_53\n      jump\t// in\n    tag_52:\n      0x00\n      mload(0x40)\n      dup1\n      dup4\n      sub\n      dup2\n      0x00\n      dup8\n      dup1\n      extcodesize\n      iszero\n      dup1\n      iszero\n      tag_54\n      jumpi\n      0x00\n      dup1\n      revert\n    tag_54:\n      pop\n      gas\n      call\n      iszero\n      dup1\n      iszero\n      tag_56\n      jumpi\n      returndatasize\n      0x00\n      dup1\n      returndatacopy\n      revert(0x00, returndatasize)\n    tag_56:\n      pop\n      pop\n      pop\n      pop\n        /* \"Code-hardhat-ethersJs/contracts/MyTokenMarket.sol\":1168:1769  {... */\n      pop\n      pop\n        /* \"Code-hardhat-ethersJs/contracts/MyTokenMarket.sol\":1030:1769  function addLiquidity(... */\n      pop\n      pop\n      pop\n      jump\t// out\n        /* \"Code-hardhat-ethersJs/contracts/MyTokenMarket.sol\":1776:2100  function buyExactTokenByETH(uint amountOutMin)public payable{... */\n    tag_15:\n        /* \"Code-hardhat-ethersJs/contracts/MyTokenMarket.sol\":1850:1871  address[] memory path */\n      0x00\n        /* \"Code-hardhat-ethersJs/contracts/MyTokenMarket.sol\":1888:1889  2 */\n      0x02\n        /* \"Code-hardhat-ethersJs/contracts/MyTokenMarket.sol\":1874:1890  new address[](2) */\n      0xffffffffffffffff\n      dup2\n      gt\n      iszero\n      tag_58\n      jumpi\n      tag_59\n      tag_60\n      jump\t// in\n    tag_59:\n    tag_58:\n      mload(0x40)\n      swap1\n      dup1\n      dup3\n      mstore\n      dup1\n      0x20\n      mul\n      0x20\n      add\n      dup3\n      add\n      0x40\n      mstore\n      dup1\n      iszero\n      tag_61\n      jumpi\n      dup2\n      0x20\n      add\n      0x20\n      dup3\n      mul\n      dup1\n      calldatasize\n      dup4\n      calldatacopy\n      dup1\n      dup3\n      add\n      swap2\n      pop\n      pop\n      swap1\n      pop\n    tag_61:\n      pop\n        /* \"Code-hardhat-ethersJs/contracts/MyTokenMarket.sol\":1850:1890  address[] memory path = new address[](2) */\n      swap1\n      pop\n        /* \"Code-hardhat-ethersJs/contracts/MyTokenMarket.sol\":1922:1933  wethaddress */\n      0x01\n      0x00\n      swap1\n      sload\n      swap1\n      0x0100\n      exp\n      swap1\n      div\n      0xffffffffffffffffffffffffffffffffffffffff\n      and\n        /* \"Code-hardhat-ethersJs/contracts/MyTokenMarket.sol\":1904:1908  path */\n      dup2\n        /* \"Code-hardhat-ethersJs/contracts/MyTokenMarket.sol\":1909:1910  0 */\n      0x00\n        /* \"Code-hardhat-ethersJs/contracts/MyTokenMarket.sol\":1904:1911  path[0] */\n      dup2\n      mload\n      dup2\n      lt\n      tag_62\n      jumpi\n      tag_63\n      tag_64\n      jump\t// in\n    tag_63:\n    tag_62:\n      0x20\n      mul\n      0x20\n      add\n      add\n        /* \"Code-hardhat-ethersJs/contracts/MyTokenMarket.sol\":1904:1934  path[0] = address(wethaddress) */\n      swap1\n      0xffffffffffffffffffffffffffffffffffffffff\n      and\n      swap1\n      dup2\n      0xffffffffffffffffffffffffffffffffffffffff\n      and\n      dup2\n      mstore\n      pop\n      pop\n        /* \"Code-hardhat-ethersJs/contracts/MyTokenMarket.sol\":1966:1980  mytokenaddress */\n      0x02\n      0x00\n      swap1\n      sload\n      swap1\n      0x0100\n      exp\n      swap1\n      div\n      0xffffffffffffffffffffffffffffffffffffffff\n      and\n        /* \"Code-hardhat-ethersJs/contracts/MyTokenMarket.sol\":1948:1952  path */\n      dup2\n        /* \"Code-hardhat-ethersJs/contracts/MyTokenMarket.sol\":1953:1954  1 */\n      0x01\n        /* \"Code-hardhat-ethersJs/contracts/MyTokenMarket.sol\":1948:1955  path[1] */\n      dup2\n      mload\n      dup2\n      lt\n      tag_65\n      jumpi\n      tag_66\n      tag_64\n      jump\t// in\n    tag_66:\n    tag_65:\n      0x20\n      mul\n      0x20\n      add\n      add\n        /* \"Code-hardhat-ethersJs/contracts/MyTokenMarket.sol\":1948:1981  path[1] = address(mytokenaddress) */\n      swap1\n      0xffffffffffffffffffffffffffffffffffffffff\n      and\n      swap1\n      dup2\n      0xffffffffffffffffffffffffffffffffffffffff\n      and\n      dup2\n      mstore\n      pop\n      pop\n        /* \"Code-hardhat-ethersJs/contracts/MyTokenMarket.sol\":1995:2004  uv2router */\n      0x05\n      0x00\n      swap1\n      sload\n      swap1\n      0x0100\n      exp\n      swap1\n      div\n      0xffffffffffffffffffffffffffffffffffffffff\n      and\n        /* \"Code-hardhat-ethersJs/contracts/MyTokenMarket.sol\":1995:2026  uv2router.swapExactETHForTokens */\n      0xffffffffffffffffffffffffffffffffffffffff\n      and\n      0x7ff36ab5\n        /* \"Code-hardhat-ethersJs/contracts/MyTokenMarket.sol\":2034:2043  msg.value */\n      callvalue\n        /* \"Code-hardhat-ethersJs/contracts/MyTokenMarket.sol\":2045:2057  amountOutMin */\n      dup5\n        /* \"Code-hardhat-ethersJs/contracts/MyTokenMarket.sol\":2059:2063  path */\n      dup5\n        /* \"Code-hardhat-ethersJs/contracts/MyTokenMarket.sol\":2065:2075  msg.sender */\n      caller\n        /* \"Code-hardhat-ethersJs/contracts/MyTokenMarket.sol\":2077:2092  block.timestamp */\n      timestamp\n        /* \"Code-hardhat-ethersJs/contracts/MyTokenMarket.sol\":1995:2093  uv2router.swapExactETHForTokens{value: msg.value}(amountOutMin, path, msg.sender, block.timestamp) */\n      mload(0x40)\n      dup7\n      0xffffffff\n      and\n      0xe0\n      shl\n      dup2\n      mstore\n      0x04\n      add\n      tag_67\n      swap5\n      swap4\n      swap3\n      swap2\n      swap1\n      tag_68\n      jump\t// in\n    tag_67:\n      0x00\n      mload(0x40)\n      dup1\n      dup4\n      sub\n      dup2\n      dup6\n      dup9\n      gas\n      call\n      iszero\n      dup1\n      iszero\n      tag_70\n      jumpi\n      returndatasize\n      0x00\n      dup1\n      returndatacopy\n      revert(0x00, returndatasize)\n    tag_70:\n      pop\n      pop\n      pop\n      pop\n      pop\n      mload(0x40)\n      returndatasize\n      0x00\n      dup3\n      returndatacopy\n      returndatasize\n      not(0x1f)\n      0x1f\n      dup3\n      add\n      and\n      dup3\n      add\n      dup1\n      0x40\n      mstore\n      pop\n      dup2\n      add\n      swap1\n      tag_71\n      swap2\n      swap1\n      tag_72\n      jump\t// in\n    tag_71:\n      pop\n        /* \"Code-hardhat-ethersJs/contracts/MyTokenMarket.sol\":1836:2100  {... */\n      pop\n        /* \"Code-hardhat-ethersJs/contracts/MyTokenMarket.sol\":1776:2100  function buyExactTokenByETH(uint amountOutMin)public payable{... */\n      pop\n      jump\t// out\n        /* \"#utility.yul\":7:82   */\n    tag_73:\n        /* \"#utility.yul\":40:46   */\n      0x00\n        /* \"#utility.yul\":73:75   */\n      0x40\n        /* \"#utility.yul\":67:76   */\n      mload\n        /* \"#utility.yul\":57:76   */\n      swap1\n      pop\n        /* \"#utility.yul\":7:82   */\n      swap1\n      jump\t// out\n        /* \"#utility.yul\":88:205   */\n    tag_74:\n        /* \"#utility.yul\":197:198   */\n      0x00\n        /* \"#utility.yul\":194:195   */\n      dup1\n        /* \"#utility.yul\":187:199   */\n      revert\n        /* \"#utility.yul\":211:328   */\n    tag_75:\n        /* \"#utility.yul\":320:321   */\n      0x00\n        /* \"#utility.yul\":317:318   */\n      dup1\n        /* \"#utility.yul\":310:322   */\n      revert\n        /* \"#utility.yul\":334:411   */\n    tag_76:\n        /* \"#utility.yul\":371:378   */\n      0x00\n        /* \"#utility.yul\":400:405   */\n      dup2\n        /* \"#utility.yul\":389:405   */\n      swap1\n      pop\n        /* \"#utility.yul\":334:411   */\n      swap2\n      swap1\n      pop\n      jump\t// out\n        /* \"#utility.yul\":417:539   */\n    tag_77:\n        /* \"#utility.yul\":490:514   */\n      tag_120\n        /* \"#utility.yul\":508:513   */\n      dup2\n        /* \"#utility.yul\":490:514   */\n      tag_76\n      jump\t// in\n    tag_120:\n        /* \"#utility.yul\":483:488   */\n      dup2\n        /* \"#utility.yul\":480:515   */\n      eq\n        /* \"#utility.yul\":470:533   */\n      tag_121\n      jumpi\n        /* \"#utility.yul\":529:530   */\n      0x00\n        /* \"#utility.yul\":526:527   */\n      dup1\n        /* \"#utility.yul\":519:531   */\n      revert\n        /* \"#utility.yul\":470:533   */\n    tag_121:\n        /* \"#utility.yul\":417:539   */\n      pop\n      jump\t// out\n        /* \"#utility.yul\":545:684   */\n    tag_78:\n        /* \"#utility.yul\":591:596   */\n      0x00\n        /* \"#utility.yul\":629:635   */\n      dup2\n        /* \"#utility.yul\":616:636   */\n      calldataload\n        /* \"#utility.yul\":607:636   */\n      swap1\n      pop\n        /* \"#utility.yul\":645:678   */\n      tag_123\n        /* \"#utility.yul\":672:677   */\n      dup2\n        /* \"#utility.yul\":645:678   */\n      tag_77\n      jump\t// in\n    tag_123:\n        /* \"#utility.yul\":545:684   */\n      swap3\n      swap2\n      pop\n      pop\n      jump\t// out\n        /* \"#utility.yul\":690:1309   */\n    tag_10:\n        /* \"#utility.yul\":767:773   */\n      0x00\n        /* \"#utility.yul\":775:781   */\n      dup1\n        /* \"#utility.yul\":783:789   */\n      0x00\n        /* \"#utility.yul\":832:834   */\n      0x60\n        /* \"#utility.yul\":820:829   */\n      dup5\n        /* \"#utility.yul\":811:818   */\n      dup7\n        /* \"#utility.yul\":807:830   */\n      sub\n        /* \"#utility.yul\":803:835   */\n      slt\n        /* \"#utility.yul\":800:919   */\n      iszero\n      tag_125\n      jumpi\n        /* \"#utility.yul\":838:917   */\n      tag_126\n      tag_74\n      jump\t// in\n    tag_126:\n        /* \"#utility.yul\":800:919   */\n    tag_125:\n        /* \"#utility.yul\":958:959   */\n      0x00\n        /* \"#utility.yul\":983:1036   */\n      tag_127\n        /* \"#utility.yul\":1028:1035   */\n      dup7\n        /* \"#utility.yul\":1019:1025   */\n      dup3\n        /* \"#utility.yul\":1008:1017   */\n      dup8\n        /* \"#utility.yul\":1004:1026   */\n      add\n        /* \"#utility.yul\":983:1036   */\n      tag_78\n      jump\t// in\n    tag_127:\n        /* \"#utility.yul\":973:1036   */\n      swap4\n      pop\n        /* \"#utility.yul\":929:1046   */\n      pop\n        /* \"#utility.yul\":1085:1087   */\n      0x20\n        /* \"#utility.yul\":1111:1164   */\n      tag_128\n        /* \"#utility.yul\":1156:1163   */\n      dup7\n        /* \"#utility.yul\":1147:1153   */\n      dup3\n        /* \"#utility.yul\":1136:1145   */\n      dup8\n        /* \"#utility.yul\":1132:1154   */\n      add\n        /* \"#utility.yul\":1111:1164   */\n      tag_78\n      jump\t// in\n    tag_128:\n        /* \"#utility.yul\":1101:1164   */\n      swap3\n      pop\n        /* \"#utility.yul\":1056:1174   */\n      pop\n        /* \"#utility.yul\":1213:1215   */\n      0x40\n        /* \"#utility.yul\":1239:1292   */\n      tag_129\n        /* \"#utility.yul\":1284:1291   */\n      dup7\n        /* \"#utility.yul\":1275:1281   */\n      dup3\n        /* \"#utility.yul\":1264:1273   */\n      dup8\n        /* \"#utility.yul\":1260:1282   */\n      add\n        /* \"#utility.yul\":1239:1292   */\n      tag_78\n      jump\t// in\n    tag_129:\n        /* \"#utility.yul\":1229:1292   */\n      swap2\n      pop\n        /* \"#utility.yul\":1184:1302   */\n      pop\n        /* \"#utility.yul\":690:1309   */\n      swap3\n      pop\n      swap3\n      pop\n      swap3\n      jump\t// out\n        /* \"#utility.yul\":1315:1644   */\n    tag_14:\n        /* \"#utility.yul\":1374:1380   */\n      0x00\n        /* \"#utility.yul\":1423:1425   */\n      0x20\n        /* \"#utility.yul\":1411:1420   */\n      dup3\n        /* \"#utility.yul\":1402:1409   */\n      dup5\n        /* \"#utility.yul\":1398:1421   */\n      sub\n        /* \"#utility.yul\":1394:1426   */\n      slt\n        /* \"#utility.yul\":1391:1510   */\n      iszero\n      tag_131\n      jumpi\n        /* \"#utility.yul\":1429:1508   */\n      tag_132\n      tag_74\n      jump\t// in\n    tag_132:\n        /* \"#utility.yul\":1391:1510   */\n    tag_131:\n        /* \"#utility.yul\":1549:1550   */\n      0x00\n        /* \"#utility.yul\":1574:1627   */\n      tag_133\n        /* \"#utility.yul\":1619:1626   */\n      dup5\n        /* \"#utility.yul\":1610:1616   */\n      dup3\n        /* \"#utility.yul\":1599:1608   */\n      dup6\n        /* \"#utility.yul\":1595:1617   */\n      add\n        /* \"#utility.yul\":1574:1627   */\n      tag_78\n      jump\t// in\n    tag_133:\n        /* \"#utility.yul\":1564:1627   */\n      swap2\n      pop\n        /* \"#utility.yul\":1520:1637   */\n      pop\n        /* \"#utility.yul\":1315:1644   */\n      swap3\n      swap2\n      pop\n      pop\n      jump\t// out\n        /* \"#utility.yul\":1650:1776   */\n    tag_79:\n        /* \"#utility.yul\":1687:1694   */\n      0x00\n        /* \"#utility.yul\":1727:1769   */\n      0xffffffffffffffffffffffffffffffffffffffff\n        /* \"#utility.yul\":1720:1725   */\n      dup3\n        /* \"#utility.yul\":1716:1770   */\n      and\n        /* \"#utility.yul\":1705:1770   */\n      swap1\n      pop\n        /* \"#utility.yul\":1650:1776   */\n      swap2\n      swap1\n      pop\n      jump\t// out\n        /* \"#utility.yul\":1782:1878   */\n    tag_80:\n        /* \"#utility.yul\":1819:1826   */\n      0x00\n        /* \"#utility.yul\":1848:1872   */\n      tag_136\n        /* \"#utility.yul\":1866:1871   */\n      dup3\n        /* \"#utility.yul\":1848:1872   */\n      tag_79\n      jump\t// in\n    tag_136:\n        /* \"#utility.yul\":1837:1872   */\n      swap1\n      pop\n        /* \"#utility.yul\":1782:1878   */\n      swap2\n      swap1\n      pop\n      jump\t// out\n        /* \"#utility.yul\":1884:2002   */\n    tag_81:\n        /* \"#utility.yul\":1971:1995   */\n      tag_138\n        /* \"#utility.yul\":1989:1994   */\n      dup2\n        /* \"#utility.yul\":1971:1995   */\n      tag_80\n      jump\t// in\n    tag_138:\n        /* \"#utility.yul\":1966:1969   */\n      dup3\n        /* \"#utility.yul\":1959:1996   */\n      mstore\n        /* \"#utility.yul\":1884:2002   */\n      pop\n      pop\n      jump\t// out\n        /* \"#utility.yul\":2008:2230   */\n    tag_18:\n        /* \"#utility.yul\":2101:2105   */\n      0x00\n        /* \"#utility.yul\":2139:2141   */\n      0x20\n        /* \"#utility.yul\":2128:2137   */\n      dup3\n        /* \"#utility.yul\":2124:2142   */\n      add\n        /* \"#utility.yul\":2116:2142   */\n      swap1\n      pop\n        /* \"#utility.yul\":2152:2223   */\n      tag_140\n        /* \"#utility.yul\":2220:2221   */\n      0x00\n        /* \"#utility.yul\":2209:2218   */\n      dup4\n        /* \"#utility.yul\":2205:2222   */\n      add\n        /* \"#utility.yul\":2196:2202   */\n      dup5\n        /* \"#utility.yul\":2152:2223   */\n      tag_81\n      jump\t// in\n    tag_140:\n        /* \"#utility.yul\":2008:2230   */\n      swap3\n      swap2\n      pop\n      pop\n      jump\t// out\n        /* \"#utility.yul\":2236:2353   */\n    tag_82:\n        /* \"#utility.yul\":2345:2346   */\n      0x00\n        /* \"#utility.yul\":2342:2343   */\n      dup1\n        /* \"#utility.yul\":2335:2347   */\n      revert\n        /* \"#utility.yul\":2359:2461   */\n    tag_83:\n        /* \"#utility.yul\":2400:2406   */\n      0x00\n        /* \"#utility.yul\":2451:2453   */\n      0x1f\n        /* \"#utility.yul\":2447:2454   */\n      not\n        /* \"#utility.yul\":2442:2444   */\n      0x1f\n        /* \"#utility.yul\":2435:2440   */\n      dup4\n        /* \"#utility.yul\":2431:2445   */\n      add\n        /* \"#utility.yul\":2427:2455   */\n      and\n        /* \"#utility.yul\":2417:2455   */\n      swap1\n      pop\n        /* \"#utility.yul\":2359:2461   */\n      swap2\n      swap1\n      pop\n      jump\t// out\n        /* \"#utility.yul\":2467:2647   */\n    tag_60:\n        /* \"#utility.yul\":2515:2592   */\n      0x4e487b7100000000000000000000000000000000000000000000000000000000\n        /* \"#utility.yul\":2512:2513   */\n      0x00\n        /* \"#utility.yul\":2505:2593   */\n      mstore\n        /* \"#utility.yul\":2612:2616   */\n      0x41\n        /* \"#utility.yul\":2609:2610   */\n      0x04\n        /* \"#utility.yul\":2602:2617   */\n      mstore\n        /* \"#utility.yul\":2636:2640   */\n      0x24\n        /* \"#utility.yul\":2633:2634   */\n      0x00\n        /* \"#utility.yul\":2626:2641   */\n      revert\n        /* \"#utility.yul\":2653:2934   */\n    tag_84:\n        /* \"#utility.yul\":2736:2763   */\n      tag_145\n        /* \"#utility.yul\":2758:2762   */\n      dup3\n        /* \"#utility.yul\":2736:2763   */\n      tag_83\n      jump\t// in\n    tag_145:\n        /* \"#utility.yul\":2728:2734   */\n      dup2\n        /* \"#utility.yul\":2724:2764   */\n      add\n        /* \"#utility.yul\":2866:2872   */\n      dup2\n        /* \"#utility.yul\":2854:2864   */\n      dup2\n        /* \"#utility.yul\":2851:2873   */\n      lt\n        /* \"#utility.yul\":2830:2848   */\n      0xffffffffffffffff\n        /* \"#utility.yul\":2818:2828   */\n      dup3\n        /* \"#utility.yul\":2815:2849   */\n      gt\n        /* \"#utility.yul\":2812:2874   */\n      or\n        /* \"#utility.yul\":2809:2897   */\n      iszero\n      tag_146\n      jumpi\n        /* \"#utility.yul\":2877:2895   */\n      tag_147\n      tag_60\n      jump\t// in\n    tag_147:\n        /* \"#utility.yul\":2809:2897   */\n    tag_146:\n        /* \"#utility.yul\":2917:2927   */\n      dup1\n        /* \"#utility.yul\":2913:2915   */\n      0x40\n        /* \"#utility.yul\":2906:2928   */\n      mstore\n        /* \"#utility.yul\":2696:2934   */\n      pop\n        /* \"#utility.yul\":2653:2934   */\n      pop\n      pop\n      jump\t// out\n        /* \"#utility.yul\":2940:3069   */\n    tag_85:\n        /* \"#utility.yul\":2974:2980   */\n      0x00\n        /* \"#utility.yul\":3001:3021   */\n      tag_149\n      tag_73\n      jump\t// in\n    tag_149:\n        /* \"#utility.yul\":2991:3021   */\n      swap1\n      pop\n        /* \"#utility.yul\":3030:3063   */\n      tag_150\n        /* \"#utility.yul\":3058:3062   */\n      dup3\n        /* \"#utility.yul\":3050:3056   */\n      dup3\n        /* \"#utility.yul\":3030:3063   */\n      tag_84\n      jump\t// in\n    tag_150:\n        /* \"#utility.yul\":2940:3069   */\n      swap2\n      swap1\n      pop\n      jump\t// out\n        /* \"#utility.yul\":3198:3341   */\n    tag_87:\n        /* \"#utility.yul\":3255:3260   */\n      0x00\n        /* \"#utility.yul\":3286:3292   */\n      dup2\n        /* \"#utility.yul\":3280:3293   */\n      mload\n        /* \"#utility.yul\":3271:3293   */\n      swap1\n      pop\n        /* \"#utility.yul\":3302:3335   */\n      tag_153\n        /* \"#utility.yul\":3329:3334   */\n      dup2\n        /* \"#utility.yul\":3302:3335   */\n      tag_77\n      jump\t// in\n    tag_153:\n        /* \"#utility.yul\":3198:3341   */\n      swap3\n      swap2\n      pop\n      pop\n      jump\t// out\n        /* \"#utility.yul\":3382:3997   */\n    tag_88:\n        /* \"#utility.yul\":3467:3472   */\n      0x00\n        /* \"#utility.yul\":3511:3515   */\n      0x40\n        /* \"#utility.yul\":3499:3508   */\n      dup3\n        /* \"#utility.yul\":3494:3497   */\n      dup5\n        /* \"#utility.yul\":3490:3509   */\n      sub\n        /* \"#utility.yul\":3486:3516   */\n      slt\n        /* \"#utility.yul\":3483:3600   */\n      iszero\n      tag_155\n      jumpi\n        /* \"#utility.yul\":3519:3598   */\n      tag_156\n      tag_82\n      jump\t// in\n    tag_156:\n        /* \"#utility.yul\":3483:3600   */\n    tag_155:\n        /* \"#utility.yul\":3618:3639   */\n      tag_157\n        /* \"#utility.yul\":3634:3638   */\n      0x40\n        /* \"#utility.yul\":3618:3639   */\n      tag_85\n      jump\t// in\n    tag_157:\n        /* \"#utility.yul\":3609:3639   */\n      swap1\n      pop\n        /* \"#utility.yul\":3700:3701   */\n      0x00\n        /* \"#utility.yul\":3740:3800   */\n      tag_158\n        /* \"#utility.yul\":3796:3799   */\n      dup5\n        /* \"#utility.yul\":3787:3793   */\n      dup3\n        /* \"#utility.yul\":3776:3785   */\n      dup6\n        /* \"#utility.yul\":3772:3794   */\n      add\n        /* \"#utility.yul\":3740:3800   */\n      tag_87\n      jump\t// in\n    tag_158:\n        /* \"#utility.yul\":3733:3737   */\n      0x00\n        /* \"#utility.yul\":3726:3731   */\n      dup4\n        /* \"#utility.yul\":3722:3738   */\n      add\n        /* \"#utility.yul\":3715:3801   */\n      mstore\n        /* \"#utility.yul\":3649:3812   */\n      pop\n        /* \"#utility.yul\":3877:3879   */\n      0x20\n        /* \"#utility.yul\":3918:3978   */\n      tag_159\n        /* \"#utility.yul\":3974:3977   */\n      dup5\n        /* \"#utility.yul\":3965:3971   */\n      dup3\n        /* \"#utility.yul\":3954:3963   */\n      dup6\n        /* \"#utility.yul\":3950:3972   */\n      add\n        /* \"#utility.yul\":3918:3978   */\n      tag_87\n      jump\t// in\n    tag_159:\n        /* \"#utility.yul\":3911:3915   */\n      0x20\n        /* \"#utility.yul\":3904:3909   */\n      dup4\n        /* \"#utility.yul\":3900:3916   */\n      add\n        /* \"#utility.yul\":3893:3979   */\n      mstore\n        /* \"#utility.yul\":3822:3990   */\n      pop\n        /* \"#utility.yul\":3382:3997   */\n      swap3\n      swap2\n      pop\n      pop\n      jump\t// out\n        /* \"#utility.yul\":4003:4404   */\n    tag_22:\n        /* \"#utility.yul\":4098:4104   */\n      0x00\n        /* \"#utility.yul\":4147:4149   */\n      0x40\n        /* \"#utility.yul\":4135:4144   */\n      dup3\n        /* \"#utility.yul\":4126:4133   */\n      dup5\n        /* \"#utility.yul\":4122:4145   */\n      sub\n        /* \"#utility.yul\":4118:4150   */\n      slt\n        /* \"#utility.yul\":4115:4234   */\n      iszero\n      tag_161\n      jumpi\n        /* \"#utility.yul\":4153:4232   */\n      tag_162\n      tag_74\n      jump\t// in\n    tag_162:\n        /* \"#utility.yul\":4115:4234   */\n    tag_161:\n        /* \"#utility.yul\":4273:4274   */\n      0x00\n        /* \"#utility.yul\":4298:4387   */\n      tag_163\n        /* \"#utility.yul\":4379:4386   */\n      dup5\n        /* \"#utility.yul\":4370:4376   */\n      dup3\n        /* \"#utility.yul\":4359:4368   */\n      dup6\n        /* \"#utility.yul\":4355:4377   */\n      add\n        /* \"#utility.yul\":4298:4387   */\n      tag_88\n      jump\t// in\n    tag_163:\n        /* \"#utility.yul\":4288:4387   */\n      swap2\n      pop\n        /* \"#utility.yul\":4244:4397   */\n      pop\n        /* \"#utility.yul\":4003:4404   */\n      swap3\n      swap2\n      pop\n      pop\n      jump\t// out\n        /* \"#utility.yul\":4410:4495   */\n    tag_89:\n        /* \"#utility.yul\":4455:4462   */\n      0x00\n        /* \"#utility.yul\":4484:4489   */\n      dup2\n        /* \"#utility.yul\":4473:4489   */\n      swap1\n      pop\n        /* \"#utility.yul\":4410:4495   */\n      swap2\n      swap1\n      pop\n      jump\t// out\n        /* \"#utility.yul\":4501:4561   */\n    tag_90:\n        /* \"#utility.yul\":4529:4532   */\n      0x00\n        /* \"#utility.yul\":4550:4555   */\n      dup2\n        /* \"#utility.yul\":4543:4555   */\n      swap1\n      pop\n        /* \"#utility.yul\":4501:4561   */\n      swap2\n      swap1\n      pop\n      jump\t// out\n        /* \"#utility.yul\":4567:4725   */\n    tag_91:\n        /* \"#utility.yul\":4625:4634   */\n      0x00\n        /* \"#utility.yul\":4658:4719   */\n      tag_167\n        /* \"#utility.yul\":4676:4718   */\n      tag_168\n        /* \"#utility.yul\":4685:4717   */\n      tag_169\n        /* \"#utility.yul\":4711:4716   */\n      dup5\n        /* \"#utility.yul\":4685:4717   */\n      tag_89\n      jump\t// in\n    tag_169:\n        /* \"#utility.yul\":4676:4718   */\n      tag_90\n      jump\t// in\n    tag_168:\n        /* \"#utility.yul\":4658:4719   */\n      tag_76\n      jump\t// in\n    tag_167:\n        /* \"#utility.yul\":4645:4719   */\n      swap1\n      pop\n        /* \"#utility.yul\":4567:4725   */\n      swap2\n      swap1\n      pop\n      jump\t// out\n        /* \"#utility.yul\":4731:4878   */\n    tag_92:\n        /* \"#utility.yul\":4826:4871   */\n      tag_171\n        /* \"#utility.yul\":4865:4870   */\n      dup2\n        /* \"#utility.yul\":4826:4871   */\n      tag_91\n      jump\t// in\n    tag_171:\n        /* \"#utility.yul\":4821:4824   */\n      dup3\n        /* \"#utility.yul\":4814:4872   */\n      mstore\n        /* \"#utility.yul\":4731:4878   */\n      pop\n      pop\n      jump\t// out\n        /* \"#utility.yul\":4884:5248   */\n    tag_24:\n        /* \"#utility.yul\":5021:5025   */\n      0x00\n        /* \"#utility.yul\":5059:5061   */\n      0x40\n        /* \"#utility.yul\":5048:5057   */\n      dup3\n        /* \"#utility.yul\":5044:5062   */\n      add\n        /* \"#utility.yul\":5036:5062   */\n      swap1\n      pop\n        /* \"#utility.yul\":5072:5151   */\n      tag_173\n        /* \"#utility.yul\":5148:5149   */\n      0x00\n        /* \"#utility.yul\":5137:5146   */\n      dup4\n        /* \"#utility.yul\":5133:5150   */\n      add\n        /* \"#utility.yul\":5124:5130   */\n      dup6\n        /* \"#utility.yul\":5072:5151   */\n      tag_92\n      jump\t// in\n    tag_173:\n        /* \"#utility.yul\":5161:5241   */\n      tag_174\n        /* \"#utility.yul\":5237:5239   */\n      0x20\n        /* \"#utility.yul\":5226:5235   */\n      dup4\n        /* \"#utility.yul\":5222:5240   */\n      add\n        /* \"#utility.yul\":5213:5219   */\n      dup5\n        /* \"#utility.yul\":5161:5241   */\n      tag_92\n      jump\t// in\n    tag_174:\n        /* \"#utility.yul\":4884:5248   */\n      swap4\n      swap3\n      pop\n      pop\n      pop\n      jump\t// out\n        /* \"#utility.yul\":5254:5372   */\n    tag_93:\n        /* \"#utility.yul\":5341:5365   */\n      tag_176\n        /* \"#utility.yul\":5359:5364   */\n      dup2\n        /* \"#utility.yul\":5341:5365   */\n      tag_76\n      jump\t// in\n    tag_176:\n        /* \"#utility.yul\":5336:5339   */\n      dup3\n        /* \"#utility.yul\":5329:5366   */\n      mstore\n        /* \"#utility.yul\":5254:5372   */\n      pop\n      pop\n      jump\t// out\n        /* \"#utility.yul\":5378:5710   */\n    tag_30:\n        /* \"#utility.yul\":5499:5503   */\n      0x00\n        /* \"#utility.yul\":5537:5539   */\n      0x40\n        /* \"#utility.yul\":5526:5535   */\n      dup3\n        /* \"#utility.yul\":5522:5540   */\n      add\n        /* \"#utility.yul\":5514:5540   */\n      swap1\n      pop\n        /* \"#utility.yul\":5550:5621   */\n      tag_178\n        /* \"#utility.yul\":5618:5619   */\n      0x00\n        /* \"#utility.yul\":5607:5616   */\n      dup4\n        /* \"#utility.yul\":5603:5620   */\n      add\n        /* \"#utility.yul\":5594:5600   */\n      dup6\n        /* \"#utility.yul\":5550:5621   */\n      tag_81\n      jump\t// in\n    tag_178:\n        /* \"#utility.yul\":5631:5703   */\n      tag_179\n        /* \"#utility.yul\":5699:5701   */\n      0x20\n        /* \"#utility.yul\":5688:5697   */\n      dup4\n        /* \"#utility.yul\":5684:5702   */\n      add\n        /* \"#utility.yul\":5675:5681   */\n      dup5\n        /* \"#utility.yul\":5631:5703   */\n      tag_93\n      jump\t// in\n    tag_179:\n        /* \"#utility.yul\":5378:5710   */\n      swap4\n      swap3\n      pop\n      pop\n      pop\n      jump\t// out\n        /* \"#utility.yul\":5716:5806   */\n    tag_94:\n        /* \"#utility.yul\":5750:5757   */\n      0x00\n        /* \"#utility.yul\":5793:5798   */\n      dup2\n        /* \"#utility.yul\":5786:5799   */\n      iszero\n        /* \"#utility.yul\":5779:5800   */\n      iszero\n        /* \"#utility.yul\":5768:5800   */\n      swap1\n      pop\n        /* \"#utility.yul\":5716:5806   */\n      swap2\n      swap1\n      pop\n      jump\t// out\n        /* \"#utility.yul\":5812:5928   */\n    tag_95:\n        /* \"#utility.yul\":5882:5903   */\n      tag_182\n        /* \"#utility.yul\":5897:5902   */\n      dup2\n        /* \"#utility.yul\":5882:5903   */\n      tag_94\n      jump\t// in\n    tag_182:\n        /* \"#utility.yul\":5875:5880   */\n      dup2\n        /* \"#utility.yul\":5872:5904   */\n      eq\n        /* \"#utility.yul\":5862:5922   */\n      tag_183\n      jumpi\n        /* \"#utility.yul\":5918:5919   */\n      0x00\n        /* \"#utility.yul\":5915:5916   */\n      dup1\n        /* \"#utility.yul\":5908:5920   */\n      revert\n        /* \"#utility.yul\":5862:5922   */\n    tag_183:\n        /* \"#utility.yul\":5812:5928   */\n      pop\n      jump\t// out\n        /* \"#utility.yul\":5934:6071   */\n    tag_96:\n        /* \"#utility.yul\":5988:5993   */\n      0x00\n        /* \"#utility.yul\":6019:6025   */\n      dup2\n        /* \"#utility.yul\":6013:6026   */\n      mload\n        /* \"#utility.yul\":6004:6026   */\n      swap1\n      pop\n        /* \"#utility.yul\":6035:6065   */\n      tag_185\n        /* \"#utility.yul\":6059:6064   */\n      dup2\n        /* \"#utility.yul\":6035:6065   */\n      tag_95\n      jump\t// in\n    tag_185:\n        /* \"#utility.yul\":5934:6071   */\n      swap3\n      swap2\n      pop\n      pop\n      jump\t// out\n        /* \"#utility.yul\":6077:6422   */\n    tag_34:\n        /* \"#utility.yul\":6144:6150   */\n      0x00\n        /* \"#utility.yul\":6193:6195   */\n      0x20\n        /* \"#utility.yul\":6181:6190   */\n      dup3\n        /* \"#utility.yul\":6172:6179   */\n      dup5\n        /* \"#utility.yul\":6168:6191   */\n      sub\n        /* \"#utility.yul\":6164:6196   */\n      slt\n        /* \"#utility.yul\":6161:6280   */\n      iszero\n      tag_187\n      jumpi\n        /* \"#utility.yul\":6199:6278   */\n      tag_188\n      tag_74\n      jump\t// in\n    tag_188:\n        /* \"#utility.yul\":6161:6280   */\n    tag_187:\n        /* \"#utility.yul\":6319:6320   */\n      0x00\n        /* \"#utility.yul\":6344:6405   */\n      tag_189\n        /* \"#utility.yul\":6397:6404   */\n      dup5\n        /* \"#utility.yul\":6388:6394   */\n      dup3\n        /* \"#utility.yul\":6377:6386   */\n      dup6\n        /* \"#utility.yul\":6373:6395   */\n      add\n        /* \"#utility.yul\":6344:6405   */\n      tag_96\n      jump\t// in\n    tag_189:\n        /* \"#utility.yul\":6334:6405   */\n      swap2\n      pop\n        /* \"#utility.yul\":6290:6415   */\n      pop\n        /* \"#utility.yul\":6077:6422   */\n      swap3\n      swap2\n      pop\n      pop\n      jump\t// out\n        /* \"#utility.yul\":6428:6870   */\n    tag_36:\n        /* \"#utility.yul\":6577:6581   */\n      0x00\n        /* \"#utility.yul\":6615:6617   */\n      0x60\n        /* \"#utility.yul\":6604:6613   */\n      dup3\n        /* \"#utility.yul\":6600:6618   */\n      add\n        /* \"#utility.yul\":6592:6618   */\n      swap1\n      pop\n        /* \"#utility.yul\":6628:6699   */\n      tag_191\n        /* \"#utility.yul\":6696:6697   */\n      0x00\n        /* \"#utility.yul\":6685:6694   */\n      dup4\n        /* \"#utility.yul\":6681:6698   */\n      add\n        /* \"#utility.yul\":6672:6678   */\n      dup7\n        /* \"#utility.yul\":6628:6699   */\n      tag_81\n      jump\t// in\n    tag_191:\n        /* \"#utility.yul\":6709:6781   */\n      tag_192\n        /* \"#utility.yul\":6777:6779   */\n      0x20\n        /* \"#utility.yul\":6766:6775   */\n      dup4\n        /* \"#utility.yul\":6762:6780   */\n      add\n        /* \"#utility.yul\":6753:6759   */\n      dup6\n        /* \"#utility.yul\":6709:6781   */\n      tag_81\n      jump\t// in\n    tag_192:\n        /* \"#utility.yul\":6791:6863   */\n      tag_193\n        /* \"#utility.yul\":6859:6861   */\n      0x40\n        /* \"#utility.yul\":6848:6857   */\n      dup4\n        /* \"#utility.yul\":6844:6862   */\n      add\n        /* \"#utility.yul\":6835:6841   */\n      dup5\n        /* \"#utility.yul\":6791:6863   */\n      tag_93\n      jump\t// in\n    tag_193:\n        /* \"#utility.yul\":6428:6870   */\n      swap5\n      swap4\n      pop\n      pop\n      pop\n      pop\n      jump\t// out\n        /* \"#utility.yul\":6876:7045   */\n    tag_97:\n        /* \"#utility.yul\":6960:6971   */\n      0x00\n        /* \"#utility.yul\":6994:7000   */\n      dup3\n        /* \"#utility.yul\":6989:6992   */\n      dup3\n        /* \"#utility.yul\":6982:7001   */\n      mstore\n        /* \"#utility.yul\":7034:7038   */\n      0x20\n        /* \"#utility.yul\":7029:7032   */\n      dup3\n        /* \"#utility.yul\":7025:7039   */\n      add\n        /* \"#utility.yul\":7010:7039   */\n      swap1\n      pop\n        /* \"#utility.yul\":6876:7045   */\n      swap3\n      swap2\n      pop\n      pop\n      jump\t// out\n        /* \"#utility.yul\":7051:7223   */\n    tag_98:\n        /* \"#utility.yul\":7191:7215   */\n      0x6d746f6b656e207472616e73666572206572726f722100000000000000000000\n        /* \"#utility.yul\":7187:7188   */\n      0x00\n        /* \"#utility.yul\":7179:7185   */\n      dup3\n        /* \"#utility.yul\":7175:7189   */\n      add\n        /* \"#utility.yul\":7168:7216   */\n      mstore\n        /* \"#utility.yul\":7051:7223   */\n      pop\n      jump\t// out\n        /* \"#utility.yul\":7229:7595   */\n    tag_99:\n        /* \"#utility.yul\":7371:7374   */\n      0x00\n        /* \"#utility.yul\":7392:7459   */\n      tag_197\n        /* \"#utility.yul\":7456:7458   */\n      0x16\n        /* \"#utility.yul\":7451:7454   */\n      dup4\n        /* \"#utility.yul\":7392:7459   */\n      tag_97\n      jump\t// in\n    tag_197:\n        /* \"#utility.yul\":7385:7459   */\n      swap2\n      pop\n        /* \"#utility.yul\":7468:7561   */\n      tag_198\n        /* \"#utility.yul\":7557:7560   */\n      dup3\n        /* \"#utility.yul\":7468:7561   */\n      tag_98\n      jump\t// in\n    tag_198:\n        /* \"#utility.yul\":7586:7588   */\n      0x20\n        /* \"#utility.yul\":7581:7584   */\n      dup3\n        /* \"#utility.yul\":7577:7589   */\n      add\n        /* \"#utility.yul\":7570:7589   */\n      swap1\n      pop\n        /* \"#utility.yul\":7229:7595   */\n      swap2\n      swap1\n      pop\n      jump\t// out\n        /* \"#utility.yul\":7601:8020   */\n    tag_42:\n        /* \"#utility.yul\":7767:7771   */\n      0x00\n        /* \"#utility.yul\":7805:7807   */\n      0x20\n        /* \"#utility.yul\":7794:7803   */\n      dup3\n        /* \"#utility.yul\":7790:7808   */\n      add\n        /* \"#utility.yul\":7782:7808   */\n      swap1\n      pop\n        /* \"#utility.yul\":7854:7863   */\n      dup2\n        /* \"#utility.yul\":7848:7852   */\n      dup2\n        /* \"#utility.yul\":7844:7864   */\n      sub\n        /* \"#utility.yul\":7840:7841   */\n      0x00\n        /* \"#utility.yul\":7829:7838   */\n      dup4\n        /* \"#utility.yul\":7825:7842   */\n      add\n        /* \"#utility.yul\":7818:7865   */\n      mstore\n        /* \"#utility.yul\":7882:8013   */\n      tag_200\n        /* \"#utility.yul\":8008:8012   */\n      dup2\n        /* \"#utility.yul\":7882:8013   */\n      tag_99\n      jump\t// in\n    tag_200:\n        /* \"#utility.yul\":7874:8013   */\n      swap1\n      pop\n        /* \"#utility.yul\":7601:8020   */\n      swap2\n      swap1\n      pop\n      jump\t// out\n        /* \"#utility.yul\":8026:8255   */\n    tag_100:\n        /* \"#utility.yul\":8166:8200   */\n      0x6d73672e76616c75652073686f756c642062696767676572207468616e20616d\n        /* \"#utility.yul\":8162:8163   */\n      0x00\n        /* \"#utility.yul\":8154:8160   */\n      dup3\n        /* \"#utility.yul\":8150:8164   */\n      add\n        /* \"#utility.yul\":8143:8201   */\n      mstore\n        /* \"#utility.yul\":8235:8247   */\n      0x6f756e744554484d696e00000000000000000000000000000000000000000000\n        /* \"#utility.yul\":8230:8232   */\n      0x20\n        /* \"#utility.yul\":8222:8228   */\n      dup3\n        /* \"#utility.yul\":8218:8233   */\n      add\n        /* \"#utility.yul\":8211:8248   */\n      mstore\n        /* \"#utility.yul\":8026:8255   */\n      pop\n      jump\t// out\n        /* \"#utility.yul\":8261:8627   */\n    tag_101:\n        /* \"#utility.yul\":8403:8406   */\n      0x00\n        /* \"#utility.yul\":8424:8491   */\n      tag_203\n        /* \"#utility.yul\":8488:8490   */\n      0x2a\n        /* \"#utility.yul\":8483:8486   */\n      dup4\n        /* \"#utility.yul\":8424:8491   */\n      tag_97\n      jump\t// in\n    tag_203:\n        /* \"#utility.yul\":8417:8491   */\n      swap2\n      pop\n        /* \"#utility.yul\":8500:8593   */\n      tag_204\n        /* \"#utility.yul\":8589:8592   */\n      dup3\n        /* \"#utility.yul\":8500:8593   */\n      tag_100\n      jump\t// in\n    tag_204:\n        /* \"#utility.yul\":8618:8620   */\n      0x40\n        /* \"#utility.yul\":8613:8616   */\n      dup3\n        /* \"#utility.yul\":8609:8621   */\n      add\n        /* \"#utility.yul\":8602:8621   */\n      swap1\n      pop\n        /* \"#utility.yul\":8261:8627   */\n      swap2\n      swap1\n      pop\n      jump\t// out\n        /* \"#utility.yul\":8633:9052   */\n    tag_45:\n        /* \"#utility.yul\":8799:8803   */\n      0x00\n        /* \"#utility.yul\":8837:8839   */\n      0x20\n        /* \"#utility.yul\":8826:8835   */\n      dup3\n        /* \"#utility.yul\":8822:8840   */\n      add\n        /* \"#utility.yul\":8814:8840   */\n      swap1\n      pop\n        /* \"#utility.yul\":8886:8895   */\n      dup2\n        /* \"#utility.yul\":8880:8884   */\n      dup2\n        /* \"#utility.yul\":8876:8896   */\n      sub\n        /* \"#utility.yul\":8872:8873   */\n      0x00\n        /* \"#utility.yul\":8861:8870   */\n      dup4\n        /* \"#utility.yul\":8857:8874   */\n      add\n        /* \"#utility.yul\":8850:8897   */\n      mstore\n        /* \"#utility.yul\":8914:9045   */\n      tag_206\n        /* \"#utility.yul\":9040:9044   */\n      dup2\n        /* \"#utility.yul\":8914:9045   */\n      tag_101\n      jump\t// in\n    tag_206:\n        /* \"#utility.yul\":8906:9045   */\n      swap1\n      pop\n        /* \"#utility.yul\":8633:9052   */\n      swap2\n      swap1\n      pop\n      jump\t// out\n        /* \"#utility.yul\":9058:9833   */\n    tag_47:\n        /* \"#utility.yul\":9291:9295   */\n      0x00\n        /* \"#utility.yul\":9329:9332   */\n      0xc0\n        /* \"#utility.yul\":9318:9327   */\n      dup3\n        /* \"#utility.yul\":9314:9333   */\n      add\n        /* \"#utility.yul\":9306:9333   */\n      swap1\n      pop\n        /* \"#utility.yul\":9343:9414   */\n      tag_208\n        /* \"#utility.yul\":9411:9412   */\n      0x00\n        /* \"#utility.yul\":9400:9409   */\n      dup4\n        /* \"#utility.yul\":9396:9413   */\n      add\n        /* \"#utility.yul\":9387:9393   */\n      dup10\n        /* \"#utility.yul\":9343:9414   */\n      tag_81\n      jump\t// in\n    tag_208:\n        /* \"#utility.yul\":9424:9496   */\n      tag_209\n        /* \"#utility.yul\":9492:9494   */\n      0x20\n        /* \"#utility.yul\":9481:9490   */\n      dup4\n        /* \"#utility.yul\":9477:9495   */\n      add\n        /* \"#utility.yul\":9468:9474   */\n      dup9\n        /* \"#utility.yul\":9424:9496   */\n      tag_93\n      jump\t// in\n    tag_209:\n        /* \"#utility.yul\":9506:9578   */\n      tag_210\n        /* \"#utility.yul\":9574:9576   */\n      0x40\n        /* \"#utility.yul\":9563:9572   */\n      dup4\n        /* \"#utility.yul\":9559:9577   */\n      add\n        /* \"#utility.yul\":9550:9556   */\n      dup8\n        /* \"#utility.yul\":9506:9578   */\n      tag_93\n      jump\t// in\n    tag_210:\n        /* \"#utility.yul\":9588:9660   */\n      tag_211\n        /* \"#utility.yul\":9656:9658   */\n      0x60\n        /* \"#utility.yul\":9645:9654   */\n      dup4\n        /* \"#utility.yul\":9641:9659   */\n      add\n        /* \"#utility.yul\":9632:9638   */\n      dup7\n        /* \"#utility.yul\":9588:9660   */\n      tag_93\n      jump\t// in\n    tag_211:\n        /* \"#utility.yul\":9670:9743   */\n      tag_212\n        /* \"#utility.yul\":9738:9741   */\n      0x80\n        /* \"#utility.yul\":9727:9736   */\n      dup4\n        /* \"#utility.yul\":9723:9742   */\n      add\n        /* \"#utility.yul\":9714:9720   */\n      dup6\n        /* \"#utility.yul\":9670:9743   */\n      tag_81\n      jump\t// in\n    tag_212:\n        /* \"#utility.yul\":9753:9826   */\n      tag_213\n        /* \"#utility.yul\":9821:9824   */\n      0xa0\n        /* \"#utility.yul\":9810:9819   */\n      dup4\n        /* \"#utility.yul\":9806:9825   */\n      add\n        /* \"#utility.yul\":9797:9803   */\n      dup5\n        /* \"#utility.yul\":9753:9826   */\n      tag_93\n      jump\t// in\n    tag_213:\n        /* \"#utility.yul\":9058:9833   */\n      swap8\n      swap7\n      pop\n      pop\n      pop\n      pop\n      pop\n      pop\n      pop\n      jump\t// out\n        /* \"#utility.yul\":9839:10502   */\n    tag_51:\n        /* \"#utility.yul\":9927:9933   */\n      0x00\n        /* \"#utility.yul\":9935:9941   */\n      dup1\n        /* \"#utility.yul\":9943:9949   */\n      0x00\n        /* \"#utility.yul\":9992:9994   */\n      0x60\n        /* \"#utility.yul\":9980:9989   */\n      dup5\n        /* \"#utility.yul\":9971:9978   */\n      dup7\n        /* \"#utility.yul\":9967:9990   */\n      sub\n        /* \"#utility.yul\":9963:9995   */\n      slt\n        /* \"#utility.yul\":9960:10079   */\n      iszero\n      tag_215\n      jumpi\n        /* \"#utility.yul\":9998:10077   */\n      tag_216\n      tag_74\n      jump\t// in\n    tag_216:\n        /* \"#utility.yul\":9960:10079   */\n    tag_215:\n        /* \"#utility.yul\":10118:10119   */\n      0x00\n        /* \"#utility.yul\":10143:10207   */\n      tag_217\n        /* \"#utility.yul\":10199:10206   */\n      dup7\n        /* \"#utility.yul\":10190:10196   */\n      dup3\n        /* \"#utility.yul\":10179:10188   */\n      dup8\n        /* \"#utility.yul\":10175:10197   */\n      add\n        /* \"#utility.yul\":10143:10207   */\n      tag_87\n      jump\t// in\n    tag_217:\n        /* \"#utility.yul\":10133:10207   */\n      swap4\n      pop\n        /* \"#utility.yul\":10089:10217   */\n      pop\n        /* \"#utility.yul\":10256:10258   */\n      0x20\n        /* \"#utility.yul\":10282:10346   */\n      tag_218\n        /* \"#utility.yul\":10338:10345   */\n      dup7\n        /* \"#utility.yul\":10329:10335   */\n      dup3\n        /* \"#utility.yul\":10318:10327   */\n      dup8\n        /* \"#utility.yul\":10314:10336   */\n      add\n        /* \"#utility.yul\":10282:10346   */\n      tag_87\n      jump\t// in\n    tag_218:\n        /* \"#utility.yul\":10272:10346   */\n      swap3\n      pop\n        /* \"#utility.yul\":10227:10356   */\n      pop\n        /* \"#utility.yul\":10395:10397   */\n      0x40\n        /* \"#utility.yul\":10421:10485   */\n      tag_219\n        /* \"#utility.yul\":10477:10484   */\n      dup7\n        /* \"#utility.yul\":10468:10474   */\n      dup3\n        /* \"#utility.yul\":10457:10466   */\n      dup8\n        /* \"#utility.yul\":10453:10475   */\n      add\n        /* \"#utility.yul\":10421:10485   */\n      tag_87\n      jump\t// in\n    tag_219:\n        /* \"#utility.yul\":10411:10485   */\n      swap2\n      pop\n        /* \"#utility.yul\":10366:10495   */\n      pop\n        /* \"#utility.yul\":9839:10502   */\n      swap3\n      pop\n      swap3\n      pop\n      swap3\n      jump\t// out\n        /* \"#utility.yul\":10508:10856   */\n    tag_53:\n        /* \"#utility.yul\":10637:10641   */\n      0x00\n        /* \"#utility.yul\":10675:10677   */\n      0x40\n        /* \"#utility.yul\":10664:10673   */\n      dup3\n        /* \"#utility.yul\":10660:10678   */\n      add\n        /* \"#utility.yul\":10652:10678   */\n      swap1\n      pop\n        /* \"#utility.yul\":10688:10767   */\n      tag_221\n        /* \"#utility.yul\":10764:10765   */\n      0x00\n        /* \"#utility.yul\":10753:10762   */\n      dup4\n        /* \"#utility.yul\":10749:10766   */\n      add\n        /* \"#utility.yul\":10740:10746   */\n      dup6\n        /* \"#utility.yul\":10688:10767   */\n      tag_92\n      jump\t// in\n    tag_221:\n        /* \"#utility.yul\":10777:10849   */\n      tag_222\n        /* \"#utility.yul\":10845:10847   */\n      0x20\n        /* \"#utility.yul\":10834:10843   */\n      dup4\n        /* \"#utility.yul\":10830:10848   */\n      add\n        /* \"#utility.yul\":10821:10827   */\n      dup5\n        /* \"#utility.yul\":10777:10849   */\n      tag_93\n      jump\t// in\n    tag_222:\n        /* \"#utility.yul\":10508:10856   */\n      swap4\n      swap3\n      pop\n      pop\n      pop\n      jump\t// out\n        /* \"#utility.yul\":10862:11042   */\n    tag_64:\n        /* \"#utility.yul\":10910:10987   */\n      0x4e487b7100000000000000000000000000000000000000000000000000000000\n        /* \"#utility.yul\":10907:10908   */\n      0x00\n        /* \"#utility.yul\":10900:10988   */\n      mstore\n        /* \"#utility.yul\":11007:11011   */\n      0x32\n        /* \"#utility.yul\":11004:11005   */\n      0x04\n        /* \"#utility.yul\":10997:11012   */\n      mstore\n        /* \"#utility.yul\":11031:11035   */\n      0x24\n        /* \"#utility.yul\":11028:11029   */\n      0x00\n        /* \"#utility.yul\":11021:11036   */\n      revert\n        /* \"#utility.yul\":11048:11162   */\n    tag_102:\n        /* \"#utility.yul\":11115:11121   */\n      0x00\n        /* \"#utility.yul\":11149:11154   */\n      dup2\n        /* \"#utility.yul\":11143:11155   */\n      mload\n        /* \"#utility.yul\":11133:11155   */\n      swap1\n      pop\n        /* \"#utility.yul\":11048:11162   */\n      swap2\n      swap1\n      pop\n      jump\t// out\n        /* \"#utility.yul\":11168:11352   */\n    tag_103:\n        /* \"#utility.yul\":11267:11278   */\n      0x00\n        /* \"#utility.yul\":11301:11307   */\n      dup3\n        /* \"#utility.yul\":11296:11299   */\n      dup3\n        /* \"#utility.yul\":11289:11308   */\n      mstore\n        /* \"#utility.yul\":11341:11345   */\n      0x20\n        /* \"#utility.yul\":11336:11339   */\n      dup3\n        /* \"#utility.yul\":11332:11346   */\n      add\n        /* \"#utility.yul\":11317:11346   */\n      swap1\n      pop\n        /* \"#utility.yul\":11168:11352   */\n      swap3\n      swap2\n      pop\n      pop\n      jump\t// out\n        /* \"#utility.yul\":11358:11490   */\n    tag_104:\n        /* \"#utility.yul\":11425:11429   */\n      0x00\n        /* \"#utility.yul\":11448:11451   */\n      dup2\n        /* \"#utility.yul\":11440:11451   */\n      swap1\n      pop\n        /* \"#utility.yul\":11478:11482   */\n      0x20\n        /* \"#utility.yul\":11473:11476   */\n      dup3\n        /* \"#utility.yul\":11469:11483   */\n      add\n        /* \"#utility.yul\":11461:11483   */\n      swap1\n      pop\n        /* \"#utility.yul\":11358:11490   */\n      swap2\n      swap1\n      pop\n      jump\t// out\n        /* \"#utility.yul\":11496:11604   */\n    tag_105:\n        /* \"#utility.yul\":11573:11597   */\n      tag_228\n        /* \"#utility.yul\":11591:11596   */\n      dup2\n        /* \"#utility.yul\":11573:11597   */\n      tag_80\n      jump\t// in\n    tag_228:\n        /* \"#utility.yul\":11568:11571   */\n      dup3\n        /* \"#utility.yul\":11561:11598   */\n      mstore\n        /* \"#utility.yul\":11496:11604   */\n      pop\n      pop\n      jump\t// out\n        /* \"#utility.yul\":11610:11789   */\n    tag_106:\n        /* \"#utility.yul\":11679:11689   */\n      0x00\n        /* \"#utility.yul\":11700:11746   */\n      tag_230\n        /* \"#utility.yul\":11742:11745   */\n      dup4\n        /* \"#utility.yul\":11734:11740   */\n      dup4\n        /* \"#utility.yul\":11700:11746   */\n      tag_105\n      jump\t// in\n    tag_230:\n        /* \"#utility.yul\":11778:11782   */\n      0x20\n        /* \"#utility.yul\":11773:11776   */\n      dup4\n        /* \"#utility.yul\":11769:11783   */\n      add\n        /* \"#utility.yul\":11755:11783   */\n      swap1\n      pop\n        /* \"#utility.yul\":11610:11789   */\n      swap3\n      swap2\n      pop\n      pop\n      jump\t// out\n        /* \"#utility.yul\":11795:11908   */\n    tag_107:\n        /* \"#utility.yul\":11865:11869   */\n      0x00\n        /* \"#utility.yul\":11897:11901   */\n      0x20\n        /* \"#utility.yul\":11892:11895   */\n      dup3\n        /* \"#utility.yul\":11888:11902   */\n      add\n        /* \"#utility.yul\":11880:11902   */\n      swap1\n      pop\n        /* \"#utility.yul\":11795:11908   */\n      swap2\n      swap1\n      pop\n      jump\t// out\n        /* \"#utility.yul\":11944:12676   */\n    tag_108:\n        /* \"#utility.yul\":12063:12066   */\n      0x00\n        /* \"#utility.yul\":12092:12146   */\n      tag_233\n        /* \"#utility.yul\":12140:12145   */\n      dup3\n        /* \"#utility.yul\":12092:12146   */\n      tag_102\n      jump\t// in\n    tag_233:\n        /* \"#utility.yul\":12162:12248   */\n      tag_234\n        /* \"#utility.yul\":12241:12247   */\n      dup2\n        /* \"#utility.yul\":12236:12239   */\n      dup6\n        /* \"#utility.yul\":12162:12248   */\n      tag_103\n      jump\t// in\n    tag_234:\n        /* \"#utility.yul\":12155:12248   */\n      swap4\n      pop\n        /* \"#utility.yul\":12272:12328   */\n      tag_235\n        /* \"#utility.yul\":12322:12327   */\n      dup4\n        /* \"#utility.yul\":12272:12328   */\n      tag_104\n      jump\t// in\n    tag_235:\n        /* \"#utility.yul\":12351:12358   */\n      dup1\n        /* \"#utility.yul\":12382:12383   */\n      0x00\n        /* \"#utility.yul\":12367:12651   */\n    tag_236:\n        /* \"#utility.yul\":12392:12398   */\n      dup4\n        /* \"#utility.yul\":12389:12390   */\n      dup2\n        /* \"#utility.yul\":12386:12399   */\n      lt\n        /* \"#utility.yul\":12367:12651   */\n      iszero\n      tag_238\n      jumpi\n        /* \"#utility.yul\":12468:12474   */\n      dup2\n        /* \"#utility.yul\":12462:12475   */\n      mload\n        /* \"#utility.yul\":12495:12558   */\n      tag_239\n        /* \"#utility.yul\":12554:12557   */\n      dup9\n        /* \"#utility.yul\":12539:12552   */\n      dup3\n        /* \"#utility.yul\":12495:12558   */\n      tag_106\n      jump\t// in\n    tag_239:\n        /* \"#utility.yul\":12488:12558   */\n      swap8\n      pop\n        /* \"#utility.yul\":12581:12641   */\n      tag_240\n        /* \"#utility.yul\":12634:12640   */\n      dup4\n        /* \"#utility.yul\":12581:12641   */\n      tag_107\n      jump\t// in\n    tag_240:\n        /* \"#utility.yul\":12571:12641   */\n      swap3\n      pop\n        /* \"#utility.yul\":12427:12651   */\n      pop\n        /* \"#utility.yul\":12414:12415   */\n      0x01\n        /* \"#utility.yul\":12411:12412   */\n      dup2\n        /* \"#utility.yul\":12407:12416   */\n      add\n        /* \"#utility.yul\":12402:12416   */\n      swap1\n      pop\n        /* \"#utility.yul\":12367:12651   */\n      jump(tag_236)\n    tag_238:\n        /* \"#utility.yul\":12371:12385   */\n      pop\n        /* \"#utility.yul\":12667:12670   */\n      dup6\n        /* \"#utility.yul\":12660:12670   */\n      swap4\n      pop\n        /* \"#utility.yul\":12068:12676   */\n      pop\n      pop\n      pop\n        /* \"#utility.yul\":11944:12676   */\n      swap3\n      swap2\n      pop\n      pop\n      jump\t// out\n        /* \"#utility.yul\":12682:13386   */\n    tag_68:\n        /* \"#utility.yul\":12909:12913   */\n      0x00\n        /* \"#utility.yul\":12947:12950   */\n      0x80\n        /* \"#utility.yul\":12936:12945   */\n      dup3\n        /* \"#utility.yul\":12932:12951   */\n      add\n        /* \"#utility.yul\":12924:12951   */\n      swap1\n      pop\n        /* \"#utility.yul\":12961:13032   */\n      tag_242\n        /* \"#utility.yul\":13029:13030   */\n      0x00\n        /* \"#utility.yul\":13018:13027   */\n      dup4\n        /* \"#utility.yul\":13014:13031   */\n      add\n        /* \"#utility.yul\":13005:13011   */\n      dup8\n        /* \"#utility.yul\":12961:13032   */\n      tag_93\n      jump\t// in\n    tag_242:\n        /* \"#utility.yul\":13079:13088   */\n      dup2\n        /* \"#utility.yul\":13073:13077   */\n      dup2\n        /* \"#utility.yul\":13069:13089   */\n      sub\n        /* \"#utility.yul\":13064:13066   */\n      0x20\n        /* \"#utility.yul\":13053:13062   */\n      dup4\n        /* \"#utility.yul\":13049:13067   */\n      add\n        /* \"#utility.yul\":13042:13090   */\n      mstore\n        /* \"#utility.yul\":13107:13215   */\n      tag_243\n        /* \"#utility.yul\":13210:13214   */\n      dup2\n        /* \"#utility.yul\":13201:13207   */\n      dup7\n        /* \"#utility.yul\":13107:13215   */\n      tag_108\n      jump\t// in\n    tag_243:\n        /* \"#utility.yul\":13099:13215   */\n      swap1\n      pop\n        /* \"#utility.yul\":13225:13297   */\n      tag_244\n        /* \"#utility.yul\":13293:13295   */\n      0x40\n        /* \"#utility.yul\":13282:13291   */\n      dup4\n        /* \"#utility.yul\":13278:13296   */\n      add\n        /* \"#utility.yul\":13269:13275   */\n      dup6\n        /* \"#utility.yul\":13225:13297   */\n      tag_81\n      jump\t// in\n    tag_244:\n        /* \"#utility.yul\":13307:13379   */\n      tag_245\n        /* \"#utility.yul\":13375:13377   */\n      0x60\n        /* \"#utility.yul\":13364:13373   */\n      dup4\n        /* \"#utility.yul\":13360:13378   */\n      add\n        /* \"#utility.yul\":13351:13357   */\n      dup5\n        /* \"#utility.yul\":13307:13379   */\n      tag_93\n      jump\t// in\n    tag_245:\n        /* \"#utility.yul\":12682:13386   */\n      swap6\n      swap5\n      pop\n      pop\n      pop\n      pop\n      pop\n      jump\t// out\n        /* \"#utility.yul\":13392:13509   */\n    tag_109:\n        /* \"#utility.yul\":13501:13502   */\n      0x00\n        /* \"#utility.yul\":13498:13499   */\n      dup1\n        /* \"#utility.yul\":13491:13503   */\n      revert\n        /* \"#utility.yul\":13515:13826   */\n    tag_110:\n        /* \"#utility.yul\":13592:13596   */\n      0x00\n        /* \"#utility.yul\":13682:13700   */\n      0xffffffffffffffff\n        /* \"#utility.yul\":13674:13680   */\n      dup3\n        /* \"#utility.yul\":13671:13701   */\n      gt\n        /* \"#utility.yul\":13668:13724   */\n      iszero\n      tag_248\n      jumpi\n        /* \"#utility.yul\":13704:13722   */\n      tag_249\n      tag_60\n      jump\t// in\n    tag_249:\n        /* \"#utility.yul\":13668:13724   */\n    tag_248:\n        /* \"#utility.yul\":13754:13758   */\n      0x20\n        /* \"#utility.yul\":13746:13752   */\n      dup3\n        /* \"#utility.yul\":13742:13759   */\n      mul\n        /* \"#utility.yul\":13734:13759   */\n      swap1\n      pop\n        /* \"#utility.yul\":13814:13818   */\n      0x20\n        /* \"#utility.yul\":13808:13812   */\n      dup2\n        /* \"#utility.yul\":13804:13819   */\n      add\n        /* \"#utility.yul\":13796:13819   */\n      swap1\n      pop\n        /* \"#utility.yul\":13515:13826   */\n      swap2\n      swap1\n      pop\n      jump\t// out\n        /* \"#utility.yul\":13832:13949   */\n    tag_111:\n        /* \"#utility.yul\":13941:13942   */\n      0x00\n        /* \"#utility.yul\":13938:13939   */\n      dup1\n        /* \"#utility.yul\":13931:13943   */\n      revert\n        /* \"#utility.yul\":13972:14704   */\n    tag_112:\n        /* \"#utility.yul\":14079:14084   */\n      0x00\n        /* \"#utility.yul\":14104:14185   */\n      tag_252\n        /* \"#utility.yul\":14120:14184   */\n      tag_253\n        /* \"#utility.yul\":14177:14183   */\n      dup5\n        /* \"#utility.yul\":14120:14184   */\n      tag_110\n      jump\t// in\n    tag_253:\n        /* \"#utility.yul\":14104:14185   */\n      tag_85\n      jump\t// in\n    tag_252:\n        /* \"#utility.yul\":14095:14185   */\n      swap1\n      pop\n        /* \"#utility.yul\":14205:14210   */\n      dup1\n        /* \"#utility.yul\":14234:14240   */\n      dup4\n        /* \"#utility.yul\":14227:14232   */\n      dup3\n        /* \"#utility.yul\":14220:14241   */\n      mstore\n        /* \"#utility.yul\":14268:14272   */\n      0x20\n        /* \"#utility.yul\":14261:14266   */\n      dup3\n        /* \"#utility.yul\":14257:14273   */\n      add\n        /* \"#utility.yul\":14250:14273   */\n      swap1\n      pop\n        /* \"#utility.yul\":14321:14325   */\n      0x20\n        /* \"#utility.yul\":14313:14319   */\n      dup5\n        /* \"#utility.yul\":14309:14326   */\n      mul\n        /* \"#utility.yul\":14301:14307   */\n      dup4\n        /* \"#utility.yul\":14297:14327   */\n      add\n        /* \"#utility.yul\":14350:14353   */\n      dup6\n        /* \"#utility.yul\":14342:14348   */\n      dup2\n        /* \"#utility.yul\":14339:14354   */\n      gt\n        /* \"#utility.yul\":14336:14458   */\n      iszero\n      tag_254\n      jumpi\n        /* \"#utility.yul\":14369:14448   */\n      tag_255\n      tag_111\n      jump\t// in\n    tag_255:\n        /* \"#utility.yul\":14336:14458   */\n    tag_254:\n        /* \"#utility.yul\":14484:14490   */\n      dup4\n        /* \"#utility.yul\":14467:14698   */\n    tag_256:\n        /* \"#utility.yul\":14501:14507   */\n      dup2\n        /* \"#utility.yul\":14496:14499   */\n      dup2\n        /* \"#utility.yul\":14493:14508   */\n      lt\n        /* \"#utility.yul\":14467:14698   */\n      iszero\n      tag_258\n      jumpi\n        /* \"#utility.yul\":14576:14579   */\n      dup1\n        /* \"#utility.yul\":14605:14653   */\n      tag_259\n        /* \"#utility.yul\":14649:14652   */\n      dup9\n        /* \"#utility.yul\":14637:14647   */\n      dup3\n        /* \"#utility.yul\":14605:14653   */\n      tag_87\n      jump\t// in\n    tag_259:\n        /* \"#utility.yul\":14600:14603   */\n      dup5\n        /* \"#utility.yul\":14593:14654   */\n      mstore\n        /* \"#utility.yul\":14683:14687   */\n      0x20\n        /* \"#utility.yul\":14678:14681   */\n      dup5\n        /* \"#utility.yul\":14674:14688   */\n      add\n        /* \"#utility.yul\":14667:14688   */\n      swap4\n      pop\n        /* \"#utility.yul\":14543:14698   */\n      pop\n        /* \"#utility.yul\":14527:14531   */\n      0x20\n        /* \"#utility.yul\":14522:14525   */\n      dup2\n        /* \"#utility.yul\":14518:14532   */\n      add\n        /* \"#utility.yul\":14511:14532   */\n      swap1\n      pop\n        /* \"#utility.yul\":14467:14698   */\n      jump(tag_256)\n    tag_258:\n        /* \"#utility.yul\":14471:14492   */\n      pop\n        /* \"#utility.yul\":14085:14704   */\n      pop\n      pop\n        /* \"#utility.yul\":13972:14704   */\n      swap4\n      swap3\n      pop\n      pop\n      pop\n      jump\t// out\n        /* \"#utility.yul\":14727:15112   */\n    tag_113:\n        /* \"#utility.yul\":14809:14814   */\n      0x00\n        /* \"#utility.yul\":14858:14861   */\n      dup3\n        /* \"#utility.yul\":14851:14855   */\n      0x1f\n        /* \"#utility.yul\":14843:14849   */\n      dup4\n        /* \"#utility.yul\":14839:14856   */\n      add\n        /* \"#utility.yul\":14835:14862   */\n      slt\n        /* \"#utility.yul\":14825:14947   */\n      tag_261\n      jumpi\n        /* \"#utility.yul\":14866:14945   */\n      tag_262\n      tag_109\n      jump\t// in\n    tag_262:\n        /* \"#utility.yul\":14825:14947   */\n    tag_261:\n        /* \"#utility.yul\":14976:14982   */\n      dup2\n        /* \"#utility.yul\":14970:14983   */\n      mload\n        /* \"#utility.yul\":15001:15106   */\n      tag_263\n        /* \"#utility.yul\":15102:15105   */\n      dup5\n        /* \"#utility.yul\":15094:15100   */\n      dup3\n        /* \"#utility.yul\":15087:15091   */\n      0x20\n        /* \"#utility.yul\":15079:15085   */\n      dup7\n        /* \"#utility.yul\":15075:15092   */\n      add\n        /* \"#utility.yul\":15001:15106   */\n      tag_112\n      jump\t// in\n    tag_263:\n        /* \"#utility.yul\":14992:15106   */\n      swap2\n      pop\n        /* \"#utility.yul\":14815:15112   */\n      pop\n        /* \"#utility.yul\":14727:15112   */\n      swap3\n      swap2\n      pop\n      pop\n      jump\t// out\n        /* \"#utility.yul\":15118:15672   */\n    tag_72:\n        /* \"#utility.yul\":15213:15219   */\n      0x00\n        /* \"#utility.yul\":15262:15264   */\n      0x20\n        /* \"#utility.yul\":15250:15259   */\n      dup3\n        /* \"#utility.yul\":15241:15248   */\n      dup5\n        /* \"#utility.yul\":15237:15260   */\n      sub\n        /* \"#utility.yul\":15233:15265   */\n      slt\n        /* \"#utility.yul\":15230:15349   */\n      iszero\n      tag_265\n      jumpi\n        /* \"#utility.yul\":15268:15347   */\n      tag_266\n      tag_74\n      jump\t// in\n    tag_266:\n        /* \"#utility.yul\":15230:15349   */\n    tag_265:\n        /* \"#utility.yul\":15409:15410   */\n      0x00\n        /* \"#utility.yul\":15398:15407   */\n      dup3\n        /* \"#utility.yul\":15394:15411   */\n      add\n        /* \"#utility.yul\":15388:15412   */\n      mload\n        /* \"#utility.yul\":15439:15457   */\n      0xffffffffffffffff\n        /* \"#utility.yul\":15431:15437   */\n      dup2\n        /* \"#utility.yul\":15428:15458   */\n      gt\n        /* \"#utility.yul\":15425:15542   */\n      iszero\n      tag_267\n      jumpi\n        /* \"#utility.yul\":15461:15540   */\n      tag_268\n      tag_75\n      jump\t// in\n    tag_268:\n        /* \"#utility.yul\":15425:15542   */\n    tag_267:\n        /* \"#utility.yul\":15566:15655   */\n      tag_269\n        /* \"#utility.yul\":15647:15654   */\n      dup5\n        /* \"#utility.yul\":15638:15644   */\n      dup3\n        /* \"#utility.yul\":15627:15636   */\n      dup6\n        /* \"#utility.yul\":15623:15645   */\n      add\n        /* \"#utility.yul\":15566:15655   */\n      tag_113\n      jump\t// in\n    tag_269:\n        /* \"#utility.yul\":15556:15655   */\n      swap2\n      pop\n        /* \"#utility.yul\":15359:15665   */\n      pop\n        /* \"#utility.yul\":15118:15672   */\n      swap3\n      swap2\n      pop\n      pop\n      jump\t// out\n\n    auxdata: 0xa2646970667358221220b9829ab493949b81a00e90e6a9cf3ce9a8f0f0934759ce812e4a46a9b6ef5ea164736f6c634300080d0033\n}\n",
				"bytecode": {
					"linkReferences": {},
					"object": "6080604052737a250d5630b4cf539739df2c5dacb4c659f2488d6000806101000a81548173ffffffffffffffffffffffffffffffffffffffff021916908373ffffffffffffffffffffffffffffffffffffffff16021790555073c778417e063141139fce010982780140aa0cd5ab600160006101000a81548173ffffffffffffffffffffffffffffffffffffffff021916908373ffffffffffffffffffffffffffffffffffffffff16021790555073fa7b29ac82cc25d50970d7e6d842b0e6a529baee600260006101000a81548173ffffffffffffffffffffffffffffffffffffffff021916908373ffffffffffffffffffffffffffffffffffffffff16021790555073f42a08c0ea66ee4a474336087a6c17e9ea6c9de9600360006101000a81548173ffffffffffffffffffffffffffffffffffffffff021916908373ffffffffffffffffffffffffffffffffffffffff16021790555073d9dfa8c6b37cfdf16668fe0465896f4a1b9b2c4f600460006101000a81548173ffffffffffffffffffffffffffffffffffffffff021916908373ffffffffffffffffffffffffffffffffffffffff16021790555060008054906101000a900473ffffffffffffffffffffffffffffffffffffffff16600560006101000a81548173ffffffffffffffffffffffffffffffffffffffff021916908373ffffffffffffffffffffffffffffffffffffffff160217905550600260009054906101000a900473ffffffffffffffffffffffffffffffffffffffff16600660006101000a81548173ffffffffffffffffffffffffffffffffffffffff021916908373ffffffffffffffffffffffffffffffffffffffff160217905550600460009054906101000a900473ffffffffffffffffffffffffffffffffffffffff16600760006101000a81548173ffffffffffffffffffffffffffffffffffffffff021916908373ffffffffffffffffffffffffffffffffffffffff1602179055503480156102df57600080fd5b50610ee8806102ef6000396000f3fe6080604052600436106100345760003560e01c80633ccfd60b14610039578063422f104314610050578063a93f74e01461006c575b600080fd5b34801561004557600080fd5b5061004e610088565b005b61006a60048036038101906100659190610736565b6101ba565b005b61008660048036038101906100819190610789565b61050d565b005b6000600760009054906101000a900473ffffffffffffffffffffffffffffffffffffffff1673ffffffffffffffffffffffffffffffffffffffff16631959a002336040518263ffffffff1660e01b81526004016100e591906107f7565b6040805180830381865afa158015610101573d6000803e3d6000fd5b505050506040513d601f19601f820116820180604052508101906101259190610908565b9050600760009054906101000a900473ffffffffffffffffffffffffffffffffffffffff1673ffffffffffffffffffffffffffffffffffffffff1663441a3e706000806040518363ffffffff1660e01b815260040161018592919061097a565b600060405180830381600087803b15801561019f57600080fd5b505af11580156101b3573d6000803e3d6000fd5b5050505050565b600660009054906101000a900473ffffffffffffffffffffffffffffffffffffffff1673ffffffffffffffffffffffffffffffffffffffff1663095ea7b3600560009054906101000a900473ffffffffffffffffffffffffffffffffffffffff16856040518363ffffffff1660e01b81526004016102399291906109b2565b6020604051808303816000875af1158015610258573d6000803e3d6000fd5b505050506040513d601f19601f8201168201806040525081019061027c9190610a13565b506000600660009054906101000a900473ffffffffffffffffffffffffffffffffffffffff1673ffffffffffffffffffffffffffffffffffffffff166323b872dd3330876040518463ffffffff1660e01b81526004016102de93929190610a40565b6020604051808303816000875af11580156102fd573d6000803e3d6000fd5b505050506040513d601f19601f820116820180604052508101906103219190610a13565b905080610363576040517f08c379a000000000000000000000000000000000000000000000000000000000815260040161035a90610ad4565b60405180910390fd5b8134116103a5576040517f08c379a000000000000000000000000000000000000000000000000000000000815260040161039c90610b66565b60405180910390fd5b6000600560009054906101000a900473ffffffffffffffffffffffffffffffffffffffff1673ffffffffffffffffffffffffffffffffffffffff1663f305d71934600260009054906101000a900473ffffffffffffffffffffffffffffffffffffffff1688888833426040518863ffffffff1660e01b815260040161042f96959493929190610b86565b60606040518083038185885af115801561044d573d6000803e3d6000fd5b50505050506040513d601f19601f820116820180604052508101906104729190610be7565b50509050600760009054906101000a900473ffffffffffffffffffffffffffffffffffffffff1673ffffffffffffffffffffffffffffffffffffffff1663e2bbb1586000836040518363ffffffff1660e01b81526004016104d4929190610c3a565b600060405180830381600087803b1580156104ee57600080fd5b505af1158015610502573d6000803e3d6000fd5b505050505050505050565b6000600267ffffffffffffffff81111561052a57610529610828565b5b6040519080825280602002602001820160405280156105585781602001602082028036833780820191505090505b509050600160009054906101000a900473ffffffffffffffffffffffffffffffffffffffff168160008151811061059257610591610c63565b5b602002602001019073ffffffffffffffffffffffffffffffffffffffff16908173ffffffffffffffffffffffffffffffffffffffff1681525050600260009054906101000a900473ffffffffffffffffffffffffffffffffffffffff168160018151811061060357610602610c63565b5b602002602001019073ffffffffffffffffffffffffffffffffffffffff16908173ffffffffffffffffffffffffffffffffffffffff1681525050600560009054906101000a900473ffffffffffffffffffffffffffffffffffffffff1673ffffffffffffffffffffffffffffffffffffffff16637ff36ab534848433426040518663ffffffff1660e01b815260040161069f9493929190610d50565b60006040518083038185885af11580156106bd573d6000803e3d6000fd5b50505050506040513d6000823e3d601f19601f820116820180604052508101906106e79190610e69565b505050565b6000604051905090565b600080fd5b600080fd5b6000819050919050565b61071381610700565b811461071e57600080fd5b50565b6000813590506107308161070a565b92915050565b60008060006060848603121561074f5761074e6106f6565b5b600061075d86828701610721565b935050602061076e86828701610721565b925050604061077f86828701610721565b9150509250925092565b60006020828403121561079f5761079e6106f6565b5b60006107ad84828501610721565b91505092915050565b600073ffffffffffffffffffffffffffffffffffffffff82169050919050565b60006107e1826107b6565b9050919050565b6107f1816107d6565b82525050565b600060208201905061080c60008301846107e8565b92915050565b600080fd5b6000601f19601f8301169050919050565b7f4e487b7100000000000000000000000000000000000000000000000000000000600052604160045260246000fd5b61086082610817565b810181811067ffffffffffffffff8211171561087f5761087e610828565b5b80604052505050565b60006108926106ec565b905061089e8282610857565b919050565b6000815190506108b28161070a565b92915050565b6000604082840312156108ce576108cd610812565b5b6108d86040610888565b905060006108e8848285016108a3565b60008301525060206108fc848285016108a3565b60208301525092915050565b60006040828403121561091e5761091d6106f6565b5b600061092c848285016108b8565b91505092915050565b6000819050919050565b6000819050919050565b600061096461095f61095a84610935565b61093f565b610700565b9050919050565b61097481610949565b82525050565b600060408201905061098f600083018561096b565b61099c602083018461096b565b9392505050565b6109ac81610700565b82525050565b60006040820190506109c760008301856107e8565b6109d460208301846109a3565b9392505050565b60008115159050919050565b6109f0816109db565b81146109fb57600080fd5b50565b600081519050610a0d816109e7565b92915050565b600060208284031215610a2957610a286106f6565b5b6000610a37848285016109fe565b91505092915050565b6000606082019050610a5560008301866107e8565b610a6260208301856107e8565b610a6f60408301846109a3565b949350505050565b600082825260208201905092915050565b7f6d746f6b656e207472616e73666572206572726f722100000000000000000000600082015250565b6000610abe601683610a77565b9150610ac982610a88565b602082019050919050565b60006020820190508181036000830152610aed81610ab1565b9050919050565b7f6d73672e76616c75652073686f756c642062696767676572207468616e20616d60008201527f6f756e744554484d696e00000000000000000000000000000000000000000000602082015250565b6000610b50602a83610a77565b9150610b5b82610af4565b604082019050919050565b60006020820190508181036000830152610b7f81610b43565b9050919050565b600060c082019050610b9b60008301896107e8565b610ba860208301886109a3565b610bb560408301876109a3565b610bc260608301866109a3565b610bcf60808301856107e8565b610bdc60a08301846109a3565b979650505050505050565b600080600060608486031215610c0057610bff6106f6565b5b6000610c0e868287016108a3565b9350506020610c1f868287016108a3565b9250506040610c30868287016108a3565b9150509250925092565b6000604082019050610c4f600083018561096b565b610c5c60208301846109a3565b9392505050565b7f4e487b7100000000000000000000000000000000000000000000000000000000600052603260045260246000fd5b600081519050919050565b600082825260208201905092915050565b6000819050602082019050919050565b610cc7816107d6565b82525050565b6000610cd98383610cbe565b60208301905092915050565b6000602082019050919050565b6000610cfd82610c92565b610d078185610c9d565b9350610d1283610cae565b8060005b83811015610d43578151610d2a8882610ccd565b9750610d3583610ce5565b925050600181019050610d16565b5085935050505092915050565b6000608082019050610d6560008301876109a3565b8181036020830152610d778186610cf2565b9050610d8660408301856107e8565b610d9360608301846109a3565b95945050505050565b600080fd5b600067ffffffffffffffff821115610dbc57610dbb610828565b5b602082029050602081019050919050565b600080fd5b6000610de5610de084610da1565b610888565b90508083825260208201905060208402830185811115610e0857610e07610dcd565b5b835b81811015610e315780610e1d88826108a3565b845260208401935050602081019050610e0a565b5050509392505050565b600082601f830112610e5057610e4f610d9c565b5b8151610e60848260208601610dd2565b91505092915050565b600060208284031215610e7f57610e7e6106f6565b5b600082015167ffffffffffffffff811115610e9d57610e9c6106fb565b5b610ea984828501610e3b565b9150509291505056fea2646970667358221220b9829ab493949b81a00e90e6a9cf3ce9a8f0f0934759ce812e4a46a9b6ef5ea164736f6c634300080d0033",
					"opcodes": "PUSH1 0x80 PUSH1 0x40 MSTORE PUSH20 0x7A250D5630B4CF539739DF2C5DACB4C659F2488D PUSH1 0x0 DUP1 PUSH2 0x100 EXP DUP2 SLOAD DUP2 PUSH20 0xFFFFFFFFFFFFFFFFFFFFFFFFFFFFFFFFFFFFFFFF MUL NOT AND SWAP1 DUP4 PUSH20 0xFFFFFFFFFFFFFFFFFFFFFFFFFFFFFFFFFFFFFFFF AND MUL OR SWAP1 SSTORE POP PUSH20 0xC778417E063141139FCE010982780140AA0CD5AB PUSH1 0x1 PUSH1 0x0 PUSH2 0x100 EXP DUP2 SLOAD DUP2 PUSH20 0xFFFFFFFFFFFFFFFFFFFFFFFFFFFFFFFFFFFFFFFF MUL NOT AND SWAP1 DUP4 PUSH20 0xFFFFFFFFFFFFFFFFFFFFFFFFFFFFFFFFFFFFFFFF AND MUL OR SWAP1 SSTORE POP PUSH20 0xFA7B29AC82CC25D50970D7E6D842B0E6A529BAEE PUSH1 0x2 PUSH1 0x0 PUSH2 0x100 EXP DUP2 SLOAD DUP2 PUSH20 0xFFFFFFFFFFFFFFFFFFFFFFFFFFFFFFFFFFFFFFFF MUL NOT AND SWAP1 DUP4 PUSH20 0xFFFFFFFFFFFFFFFFFFFFFFFFFFFFFFFFFFFFFFFF AND MUL OR SWAP1 SSTORE POP PUSH20 0xF42A08C0EA66EE4A474336087A6C17E9EA6C9DE9 PUSH1 0x3 PUSH1 0x0 PUSH2 0x100 EXP DUP2 SLOAD DUP2 PUSH20 0xFFFFFFFFFFFFFFFFFFFFFFFFFFFFFFFFFFFFFFFF MUL NOT AND SWAP1 DUP4 PUSH20 0xFFFFFFFFFFFFFFFFFFFFFFFFFFFFFFFFFFFFFFFF AND MUL OR SWAP1 SSTORE POP PUSH20 0xD9DFA8C6B37CFDF16668FE0465896F4A1B9B2C4F PUSH1 0x4 PUSH1 0x0 PUSH2 0x100 EXP DUP2 SLOAD DUP2 PUSH20 0xFFFFFFFFFFFFFFFFFFFFFFFFFFFFFFFFFFFFFFFF MUL NOT AND SWAP1 DUP4 PUSH20 0xFFFFFFFFFFFFFFFFFFFFFFFFFFFFFFFFFFFFFFFF AND MUL OR SWAP1 SSTORE POP PUSH1 0x0 DUP1 SLOAD SWAP1 PUSH2 0x100 EXP SWAP1 DIV PUSH20 0xFFFFFFFFFFFFFFFFFFFFFFFFFFFFFFFFFFFFFFFF AND PUSH1 0x5 PUSH1 0x0 PUSH2 0x100 EXP DUP2 SLOAD DUP2 PUSH20 0xFFFFFFFFFFFFFFFFFFFFFFFFFFFFFFFFFFFFFFFF MUL NOT AND SWAP1 DUP4 PUSH20 0xFFFFFFFFFFFFFFFFFFFFFFFFFFFFFFFFFFFFFFFF AND MUL OR SWAP1 SSTORE POP PUSH1 0x2 PUSH1 0x0 SWAP1 SLOAD SWAP1 PUSH2 0x100 EXP SWAP1 DIV PUSH20 0xFFFFFFFFFFFFFFFFFFFFFFFFFFFFFFFFFFFFFFFF AND PUSH1 0x6 PUSH1 0x0 PUSH2 0x100 EXP DUP2 SLOAD DUP2 PUSH20 0xFFFFFFFFFFFFFFFFFFFFFFFFFFFFFFFFFFFFFFFF MUL NOT AND SWAP1 DUP4 PUSH20 0xFFFFFFFFFFFFFFFFFFFFFFFFFFFFFFFFFFFFFFFF AND MUL OR SWAP1 SSTORE POP PUSH1 0x4 PUSH1 0x0 SWAP1 SLOAD SWAP1 PUSH2 0x100 EXP SWAP1 DIV PUSH20 0xFFFFFFFFFFFFFFFFFFFFFFFFFFFFFFFFFFFFFFFF AND PUSH1 0x7 PUSH1 0x0 PUSH2 0x100 EXP DUP2 SLOAD DUP2 PUSH20 0xFFFFFFFFFFFFFFFFFFFFFFFFFFFFFFFFFFFFFFFF MUL NOT AND SWAP1 DUP4 PUSH20 0xFFFFFFFFFFFFFFFFFFFFFFFFFFFFFFFFFFFFFFFF AND MUL OR SWAP1 SSTORE POP CALLVALUE DUP1 ISZERO PUSH2 0x2DF JUMPI PUSH1 0x0 DUP1 REVERT JUMPDEST POP PUSH2 0xEE8 DUP1 PUSH2 0x2EF PUSH1 0x0 CODECOPY PUSH1 0x0 RETURN INVALID PUSH1 0x80 PUSH1 0x40 MSTORE PUSH1 0x4 CALLDATASIZE LT PUSH2 0x34 JUMPI PUSH1 0x0 CALLDATALOAD PUSH1 0xE0 SHR DUP1 PUSH4 0x3CCFD60B EQ PUSH2 0x39 JUMPI DUP1 PUSH4 0x422F1043 EQ PUSH2 0x50 JUMPI DUP1 PUSH4 0xA93F74E0 EQ PUSH2 0x6C JUMPI JUMPDEST PUSH1 0x0 DUP1 REVERT JUMPDEST CALLVALUE DUP1 ISZERO PUSH2 0x45 JUMPI PUSH1 0x0 DUP1 REVERT JUMPDEST POP PUSH2 0x4E PUSH2 0x88 JUMP JUMPDEST STOP JUMPDEST PUSH2 0x6A PUSH1 0x4 DUP1 CALLDATASIZE SUB DUP2 ADD SWAP1 PUSH2 0x65 SWAP2 SWAP1 PUSH2 0x736 JUMP JUMPDEST PUSH2 0x1BA JUMP JUMPDEST STOP JUMPDEST PUSH2 0x86 PUSH1 0x4 DUP1 CALLDATASIZE SUB DUP2 ADD SWAP1 PUSH2 0x81 SWAP2 SWAP1 PUSH2 0x789 JUMP JUMPDEST PUSH2 0x50D JUMP JUMPDEST STOP JUMPDEST PUSH1 0x0 PUSH1 0x7 PUSH1 0x0 SWAP1 SLOAD SWAP1 PUSH2 0x100 EXP SWAP1 DIV PUSH20 0xFFFFFFFFFFFFFFFFFFFFFFFFFFFFFFFFFFFFFFFF AND PUSH20 0xFFFFFFFFFFFFFFFFFFFFFFFFFFFFFFFFFFFFFFFF AND PUSH4 0x1959A002 CALLER PUSH1 0x40 MLOAD DUP3 PUSH4 0xFFFFFFFF AND PUSH1 0xE0 SHL DUP2 MSTORE PUSH1 0x4 ADD PUSH2 0xE5 SWAP2 SWAP1 PUSH2 0x7F7 JUMP JUMPDEST PUSH1 0x40 DUP1 MLOAD DUP1 DUP4 SUB DUP2 DUP7 GAS STATICCALL ISZERO DUP1 ISZERO PUSH2 0x101 JUMPI RETURNDATASIZE PUSH1 0x0 DUP1 RETURNDATACOPY RETURNDATASIZE PUSH1 0x0 REVERT JUMPDEST POP POP POP POP PUSH1 0x40 MLOAD RETURNDATASIZE PUSH1 0x1F NOT PUSH1 0x1F DUP3 ADD AND DUP3 ADD DUP1 PUSH1 0x40 MSTORE POP DUP2 ADD SWAP1 PUSH2 0x125 SWAP2 SWAP1 PUSH2 0x908 JUMP JUMPDEST SWAP1 POP PUSH1 0x7 PUSH1 0x0 SWAP1 SLOAD SWAP1 PUSH2 0x100 EXP SWAP1 DIV PUSH20 0xFFFFFFFFFFFFFFFFFFFFFFFFFFFFFFFFFFFFFFFF AND PUSH20 0xFFFFFFFFFFFFFFFFFFFFFFFFFFFFFFFFFFFFFFFF AND PUSH4 0x441A3E70 PUSH1 0x0 DUP1 PUSH1 0x40 MLOAD DUP4 PUSH4 0xFFFFFFFF AND PUSH1 0xE0 SHL DUP2 MSTORE PUSH1 0x4 ADD PUSH2 0x185 SWAP3 SWAP2 SWAP1 PUSH2 0x97A JUMP JUMPDEST PUSH1 0x0 PUSH1 0x40 MLOAD DUP1 DUP4 SUB DUP2 PUSH1 0x0 DUP8 DUP1 EXTCODESIZE ISZERO DUP1 ISZERO PUSH2 0x19F JUMPI PUSH1 0x0 DUP1 REVERT JUMPDEST POP GAS CALL ISZERO DUP1 ISZERO PUSH2 0x1B3 JUMPI RETURNDATASIZE PUSH1 0x0 DUP1 RETURNDATACOPY RETURNDATASIZE PUSH1 0x0 REVERT JUMPDEST POP POP POP POP POP JUMP JUMPDEST PUSH1 0x6 PUSH1 0x0 SWAP1 SLOAD SWAP1 PUSH2 0x100 EXP SWAP1 DIV PUSH20 0xFFFFFFFFFFFFFFFFFFFFFFFFFFFFFFFFFFFFFFFF AND PUSH20 0xFFFFFFFFFFFFFFFFFFFFFFFFFFFFFFFFFFFFFFFF AND PUSH4 0x95EA7B3 PUSH1 0x5 PUSH1 0x0 SWAP1 SLOAD SWAP1 PUSH2 0x100 EXP SWAP1 DIV PUSH20 0xFFFFFFFFFFFFFFFFFFFFFFFFFFFFFFFFFFFFFFFF AND DUP6 PUSH1 0x40 MLOAD DUP4 PUSH4 0xFFFFFFFF AND PUSH1 0xE0 SHL DUP2 MSTORE PUSH1 0x4 ADD PUSH2 0x239 SWAP3 SWAP2 SWAP1 PUSH2 0x9B2 JUMP JUMPDEST PUSH1 0x20 PUSH1 0x40 MLOAD DUP1 DUP4 SUB DUP2 PUSH1 0x0 DUP8 GAS CALL ISZERO DUP1 ISZERO PUSH2 0x258 JUMPI RETURNDATASIZE PUSH1 0x0 DUP1 RETURNDATACOPY RETURNDATASIZE PUSH1 0x0 REVERT JUMPDEST POP POP POP POP PUSH1 0x40 MLOAD RETURNDATASIZE PUSH1 0x1F NOT PUSH1 0x1F DUP3 ADD AND DUP3 ADD DUP1 PUSH1 0x40 MSTORE POP DUP2 ADD SWAP1 PUSH2 0x27C SWAP2 SWAP1 PUSH2 0xA13 JUMP JUMPDEST POP PUSH1 0x0 PUSH1 0x6 PUSH1 0x0 SWAP1 SLOAD SWAP1 PUSH2 0x100 EXP SWAP1 DIV PUSH20 0xFFFFFFFFFFFFFFFFFFFFFFFFFFFFFFFFFFFFFFFF AND PUSH20 0xFFFFFFFFFFFFFFFFFFFFFFFFFFFFFFFFFFFFFFFF AND PUSH4 0x23B872DD CALLER ADDRESS DUP8 PUSH1 0x40 MLOAD DUP5 PUSH4 0xFFFFFFFF AND PUSH1 0xE0 SHL DUP2 MSTORE PUSH1 0x4 ADD PUSH2 0x2DE SWAP4 SWAP3 SWAP2 SWAP1 PUSH2 0xA40 JUMP JUMPDEST PUSH1 0x20 PUSH1 0x40 MLOAD DUP1 DUP4 SUB DUP2 PUSH1 0x0 DUP8 GAS CALL ISZERO DUP1 ISZERO PUSH2 0x2FD JUMPI RETURNDATASIZE PUSH1 0x0 DUP1 RETURNDATACOPY RETURNDATASIZE PUSH1 0x0 REVERT JUMPDEST POP POP POP POP PUSH1 0x40 MLOAD RETURNDATASIZE PUSH1 0x1F NOT PUSH1 0x1F DUP3 ADD AND DUP3 ADD DUP1 PUSH1 0x40 MSTORE POP DUP2 ADD SWAP1 PUSH2 0x321 SWAP2 SWAP1 PUSH2 0xA13 JUMP JUMPDEST SWAP1 POP DUP1 PUSH2 0x363 JUMPI PUSH1 0x40 MLOAD PUSH32 0x8C379A000000000000000000000000000000000000000000000000000000000 DUP2 MSTORE PUSH1 0x4 ADD PUSH2 0x35A SWAP1 PUSH2 0xAD4 JUMP JUMPDEST PUSH1 0x40 MLOAD DUP1 SWAP2 SUB SWAP1 REVERT JUMPDEST DUP2 CALLVALUE GT PUSH2 0x3A5 JUMPI PUSH1 0x40 MLOAD PUSH32 0x8C379A000000000000000000000000000000000000000000000000000000000 DUP2 MSTORE PUSH1 0x4 ADD PUSH2 0x39C SWAP1 PUSH2 0xB66 JUMP JUMPDEST PUSH1 0x40 MLOAD DUP1 SWAP2 SUB SWAP1 REVERT JUMPDEST PUSH1 0x0 PUSH1 0x5 PUSH1 0x0 SWAP1 SLOAD SWAP1 PUSH2 0x100 EXP SWAP1 DIV PUSH20 0xFFFFFFFFFFFFFFFFFFFFFFFFFFFFFFFFFFFFFFFF AND PUSH20 0xFFFFFFFFFFFFFFFFFFFFFFFFFFFFFFFFFFFFFFFF AND PUSH4 0xF305D719 CALLVALUE PUSH1 0x2 PUSH1 0x0 SWAP1 SLOAD SWAP1 PUSH2 0x100 EXP SWAP1 DIV PUSH20 0xFFFFFFFFFFFFFFFFFFFFFFFFFFFFFFFFFFFFFFFF AND DUP9 DUP9 DUP9 CALLER TIMESTAMP PUSH1 0x40 MLOAD DUP9 PUSH4 0xFFFFFFFF AND PUSH1 0xE0 SHL DUP2 MSTORE PUSH1 0x4 ADD PUSH2 0x42F SWAP7 SWAP6 SWAP5 SWAP4 SWAP3 SWAP2 SWAP1 PUSH2 0xB86 JUMP JUMPDEST PUSH1 0x60 PUSH1 0x40 MLOAD DUP1 DUP4 SUB DUP2 DUP6 DUP9 GAS CALL ISZERO DUP1 ISZERO PUSH2 0x44D JUMPI RETURNDATASIZE PUSH1 0x0 DUP1 RETURNDATACOPY RETURNDATASIZE PUSH1 0x0 REVERT JUMPDEST POP POP POP POP POP PUSH1 0x40 MLOAD RETURNDATASIZE PUSH1 0x1F NOT PUSH1 0x1F DUP3 ADD AND DUP3 ADD DUP1 PUSH1 0x40 MSTORE POP DUP2 ADD SWAP1 PUSH2 0x472 SWAP2 SWAP1 PUSH2 0xBE7 JUMP JUMPDEST POP POP SWAP1 POP PUSH1 0x7 PUSH1 0x0 SWAP1 SLOAD SWAP1 PUSH2 0x100 EXP SWAP1 DIV PUSH20 0xFFFFFFFFFFFFFFFFFFFFFFFFFFFFFFFFFFFFFFFF AND PUSH20 0xFFFFFFFFFFFFFFFFFFFFFFFFFFFFFFFFFFFFFFFF AND PUSH4 0xE2BBB158 PUSH1 0x0 DUP4 PUSH1 0x40 MLOAD DUP4 PUSH4 0xFFFFFFFF AND PUSH1 0xE0 SHL DUP2 MSTORE PUSH1 0x4 ADD PUSH2 0x4D4 SWAP3 SWAP2 SWAP1 PUSH2 0xC3A JUMP JUMPDEST PUSH1 0x0 PUSH1 0x40 MLOAD DUP1 DUP4 SUB DUP2 PUSH1 0x0 DUP8 DUP1 EXTCODESIZE ISZERO DUP1 ISZERO PUSH2 0x4EE JUMPI PUSH1 0x0 DUP1 REVERT JUMPDEST POP GAS CALL ISZERO DUP1 ISZERO PUSH2 0x502 JUMPI RETURNDATASIZE PUSH1 0x0 DUP1 RETURNDATACOPY RETURNDATASIZE PUSH1 0x0 REVERT JUMPDEST POP POP POP POP POP POP POP POP POP JUMP JUMPDEST PUSH1 0x0 PUSH1 0x2 PUSH8 0xFFFFFFFFFFFFFFFF DUP2 GT ISZERO PUSH2 0x52A JUMPI PUSH2 0x529 PUSH2 0x828 JUMP JUMPDEST JUMPDEST PUSH1 0x40 MLOAD SWAP1 DUP1 DUP3 MSTORE DUP1 PUSH1 0x20 MUL PUSH1 0x20 ADD DUP3 ADD PUSH1 0x40 MSTORE DUP1 ISZERO PUSH2 0x558 JUMPI DUP2 PUSH1 0x20 ADD PUSH1 0x20 DUP3 MUL DUP1 CALLDATASIZE DUP4 CALLDATACOPY DUP1 DUP3 ADD SWAP2 POP POP SWAP1 POP JUMPDEST POP SWAP1 POP PUSH1 0x1 PUSH1 0x0 SWAP1 SLOAD SWAP1 PUSH2 0x100 EXP SWAP1 DIV PUSH20 0xFFFFFFFFFFFFFFFFFFFFFFFFFFFFFFFFFFFFFFFF AND DUP2 PUSH1 0x0 DUP2 MLOAD DUP2 LT PUSH2 0x592 JUMPI PUSH2 0x591 PUSH2 0xC63 JUMP JUMPDEST JUMPDEST PUSH1 0x20 MUL PUSH1 0x20 ADD ADD SWAP1 PUSH20 0xFFFFFFFFFFFFFFFFFFFFFFFFFFFFFFFFFFFFFFFF AND SWAP1 DUP2 PUSH20 0xFFFFFFFFFFFFFFFFFFFFFFFFFFFFFFFFFFFFFFFF AND DUP2 MSTORE POP POP PUSH1 0x2 PUSH1 0x0 SWAP1 SLOAD SWAP1 PUSH2 0x100 EXP SWAP1 DIV PUSH20 0xFFFFFFFFFFFFFFFFFFFFFFFFFFFFFFFFFFFFFFFF AND DUP2 PUSH1 0x1 DUP2 MLOAD DUP2 LT PUSH2 0x603 JUMPI PUSH2 0x602 PUSH2 0xC63 JUMP JUMPDEST JUMPDEST PUSH1 0x20 MUL PUSH1 0x20 ADD ADD SWAP1 PUSH20 0xFFFFFFFFFFFFFFFFFFFFFFFFFFFFFFFFFFFFFFFF AND SWAP1 DUP2 PUSH20 0xFFFFFFFFFFFFFFFFFFFFFFFFFFFFFFFFFFFFFFFF AND DUP2 MSTORE POP POP PUSH1 0x5 PUSH1 0x0 SWAP1 SLOAD SWAP1 PUSH2 0x100 EXP SWAP1 DIV PUSH20 0xFFFFFFFFFFFFFFFFFFFFFFFFFFFFFFFFFFFFFFFF AND PUSH20 0xFFFFFFFFFFFFFFFFFFFFFFFFFFFFFFFFFFFFFFFF AND PUSH4 0x7FF36AB5 CALLVALUE DUP5 DUP5 CALLER TIMESTAMP PUSH1 0x40 MLOAD DUP7 PUSH4 0xFFFFFFFF AND PUSH1 0xE0 SHL DUP2 MSTORE PUSH1 0x4 ADD PUSH2 0x69F SWAP5 SWAP4 SWAP3 SWAP2 SWAP1 PUSH2 0xD50 JUMP JUMPDEST PUSH1 0x0 PUSH1 0x40 MLOAD DUP1 DUP4 SUB DUP2 DUP6 DUP9 GAS CALL ISZERO DUP1 ISZERO PUSH2 0x6BD JUMPI RETURNDATASIZE PUSH1 0x0 DUP1 RETURNDATACOPY RETURNDATASIZE PUSH1 0x0 REVERT JUMPDEST POP POP POP POP POP PUSH1 0x40 MLOAD RETURNDATASIZE PUSH1 0x0 DUP3 RETURNDATACOPY RETURNDATASIZE PUSH1 0x1F NOT PUSH1 0x1F DUP3 ADD AND DUP3 ADD DUP1 PUSH1 0x40 MSTORE POP DUP2 ADD SWAP1 PUSH2 0x6E7 SWAP2 SWAP1 PUSH2 0xE69 JUMP JUMPDEST POP POP POP JUMP JUMPDEST PUSH1 0x0 PUSH1 0x40 MLOAD SWAP1 POP SWAP1 JUMP JUMPDEST PUSH1 0x0 DUP1 REVERT JUMPDEST PUSH1 0x0 DUP1 REVERT JUMPDEST PUSH1 0x0 DUP2 SWAP1 POP SWAP2 SWAP1 POP JUMP JUMPDEST PUSH2 0x713 DUP2 PUSH2 0x700 JUMP JUMPDEST DUP2 EQ PUSH2 0x71E JUMPI PUSH1 0x0 DUP1 REVERT JUMPDEST POP JUMP JUMPDEST PUSH1 0x0 DUP2 CALLDATALOAD SWAP1 POP PUSH2 0x730 DUP2 PUSH2 0x70A JUMP JUMPDEST SWAP3 SWAP2 POP POP JUMP JUMPDEST PUSH1 0x0 DUP1 PUSH1 0x0 PUSH1 0x60 DUP5 DUP7 SUB SLT ISZERO PUSH2 0x74F JUMPI PUSH2 0x74E PUSH2 0x6F6 JUMP JUMPDEST JUMPDEST PUSH1 0x0 PUSH2 0x75D DUP7 DUP3 DUP8 ADD PUSH2 0x721 JUMP JUMPDEST SWAP4 POP POP PUSH1 0x20 PUSH2 0x76E DUP7 DUP3 DUP8 ADD PUSH2 0x721 JUMP JUMPDEST SWAP3 POP POP PUSH1 0x40 PUSH2 0x77F DUP7 DUP3 DUP8 ADD PUSH2 0x721 JUMP JUMPDEST SWAP2 POP POP SWAP3 POP SWAP3 POP SWAP3 JUMP JUMPDEST PUSH1 0x0 PUSH1 0x20 DUP3 DUP5 SUB SLT ISZERO PUSH2 0x79F JUMPI PUSH2 0x79E PUSH2 0x6F6 JUMP JUMPDEST JUMPDEST PUSH1 0x0 PUSH2 0x7AD DUP5 DUP3 DUP6 ADD PUSH2 0x721 JUMP JUMPDEST SWAP2 POP POP SWAP3 SWAP2 POP POP JUMP JUMPDEST PUSH1 0x0 PUSH20 0xFFFFFFFFFFFFFFFFFFFFFFFFFFFFFFFFFFFFFFFF DUP3 AND SWAP1 POP SWAP2 SWAP1 POP JUMP JUMPDEST PUSH1 0x0 PUSH2 0x7E1 DUP3 PUSH2 0x7B6 JUMP JUMPDEST SWAP1 POP SWAP2 SWAP1 POP JUMP JUMPDEST PUSH2 0x7F1 DUP2 PUSH2 0x7D6 JUMP JUMPDEST DUP3 MSTORE POP POP JUMP JUMPDEST PUSH1 0x0 PUSH1 0x20 DUP3 ADD SWAP1 POP PUSH2 0x80C PUSH1 0x0 DUP4 ADD DUP5 PUSH2 0x7E8 JUMP JUMPDEST SWAP3 SWAP2 POP POP JUMP JUMPDEST PUSH1 0x0 DUP1 REVERT JUMPDEST PUSH1 0x0 PUSH1 0x1F NOT PUSH1 0x1F DUP4 ADD AND SWAP1 POP SWAP2 SWAP1 POP JUMP JUMPDEST PUSH32 0x4E487B7100000000000000000000000000000000000000000000000000000000 PUSH1 0x0 MSTORE PUSH1 0x41 PUSH1 0x4 MSTORE PUSH1 0x24 PUSH1 0x0 REVERT JUMPDEST PUSH2 0x860 DUP3 PUSH2 0x817 JUMP JUMPDEST DUP2 ADD DUP2 DUP2 LT PUSH8 0xFFFFFFFFFFFFFFFF DUP3 GT OR ISZERO PUSH2 0x87F JUMPI PUSH2 0x87E PUSH2 0x828 JUMP JUMPDEST JUMPDEST DUP1 PUSH1 0x40 MSTORE POP POP POP JUMP JUMPDEST PUSH1 0x0 PUSH2 0x892 PUSH2 0x6EC JUMP JUMPDEST SWAP1 POP PUSH2 0x89E DUP3 DUP3 PUSH2 0x857 JUMP JUMPDEST SWAP2 SWAP1 POP JUMP JUMPDEST PUSH1 0x0 DUP2 MLOAD SWAP1 POP PUSH2 0x8B2 DUP2 PUSH2 0x70A JUMP JUMPDEST SWAP3 SWAP2 POP POP JUMP JUMPDEST PUSH1 0x0 PUSH1 0x40 DUP3 DUP5 SUB SLT ISZERO PUSH2 0x8CE JUMPI PUSH2 0x8CD PUSH2 0x812 JUMP JUMPDEST JUMPDEST PUSH2 0x8D8 PUSH1 0x40 PUSH2 0x888 JUMP JUMPDEST SWAP1 POP PUSH1 0x0 PUSH2 0x8E8 DUP5 DUP3 DUP6 ADD PUSH2 0x8A3 JUMP JUMPDEST PUSH1 0x0 DUP4 ADD MSTORE POP PUSH1 0x20 PUSH2 0x8FC DUP5 DUP3 DUP6 ADD PUSH2 0x8A3 JUMP JUMPDEST PUSH1 0x20 DUP4 ADD MSTORE POP SWAP3 SWAP2 POP POP JUMP JUMPDEST PUSH1 0x0 PUSH1 0x40 DUP3 DUP5 SUB SLT ISZERO PUSH2 0x91E JUMPI PUSH2 0x91D PUSH2 0x6F6 JUMP JUMPDEST JUMPDEST PUSH1 0x0 PUSH2 0x92C DUP5 DUP3 DUP6 ADD PUSH2 0x8B8 JUMP JUMPDEST SWAP2 POP POP SWAP3 SWAP2 POP POP JUMP JUMPDEST PUSH1 0x0 DUP2 SWAP1 POP SWAP2 SWAP1 POP JUMP JUMPDEST PUSH1 0x0 DUP2 SWAP1 POP SWAP2 SWAP1 POP JUMP JUMPDEST PUSH1 0x0 PUSH2 0x964 PUSH2 0x95F PUSH2 0x95A DUP5 PUSH2 0x935 JUMP JUMPDEST PUSH2 0x93F JUMP JUMPDEST PUSH2 0x700 JUMP JUMPDEST SWAP1 POP SWAP2 SWAP1 POP JUMP JUMPDEST PUSH2 0x974 DUP2 PUSH2 0x949 JUMP JUMPDEST DUP3 MSTORE POP POP JUMP JUMPDEST PUSH1 0x0 PUSH1 0x40 DUP3 ADD SWAP1 POP PUSH2 0x98F PUSH1 0x0 DUP4 ADD DUP6 PUSH2 0x96B JUMP JUMPDEST PUSH2 0x99C PUSH1 0x20 DUP4 ADD DUP5 PUSH2 0x96B JUMP JUMPDEST SWAP4 SWAP3 POP POP POP JUMP JUMPDEST PUSH2 0x9AC DUP2 PUSH2 0x700 JUMP JUMPDEST DUP3 MSTORE POP POP JUMP JUMPDEST PUSH1 0x0 PUSH1 0x40 DUP3 ADD SWAP1 POP PUSH2 0x9C7 PUSH1 0x0 DUP4 ADD DUP6 PUSH2 0x7E8 JUMP JUMPDEST PUSH2 0x9D4 PUSH1 0x20 DUP4 ADD DUP5 PUSH2 0x9A3 JUMP JUMPDEST SWAP4 SWAP3 POP POP POP JUMP JUMPDEST PUSH1 0x0 DUP2 ISZERO ISZERO SWAP1 POP SWAP2 SWAP1 POP JUMP JUMPDEST PUSH2 0x9F0 DUP2 PUSH2 0x9DB JUMP JUMPDEST DUP2 EQ PUSH2 0x9FB JUMPI PUSH1 0x0 DUP1 REVERT JUMPDEST POP JUMP JUMPDEST PUSH1 0x0 DUP2 MLOAD SWAP1 POP PUSH2 0xA0D DUP2 PUSH2 0x9E7 JUMP JUMPDEST SWAP3 SWAP2 POP POP JUMP JUMPDEST PUSH1 0x0 PUSH1 0x20 DUP3 DUP5 SUB SLT ISZERO PUSH2 0xA29 JUMPI PUSH2 0xA28 PUSH2 0x6F6 JUMP JUMPDEST JUMPDEST PUSH1 0x0 PUSH2 0xA37 DUP5 DUP3 DUP6 ADD PUSH2 0x9FE JUMP JUMPDEST SWAP2 POP POP SWAP3 SWAP2 POP POP JUMP JUMPDEST PUSH1 0x0 PUSH1 0x60 DUP3 ADD SWAP1 POP PUSH2 0xA55 PUSH1 0x0 DUP4 ADD DUP7 PUSH2 0x7E8 JUMP JUMPDEST PUSH2 0xA62 PUSH1 0x20 DUP4 ADD DUP6 PUSH2 0x7E8 JUMP JUMPDEST PUSH2 0xA6F PUSH1 0x40 DUP4 ADD DUP5 PUSH2 0x9A3 JUMP JUMPDEST SWAP5 SWAP4 POP POP POP POP JUMP JUMPDEST PUSH1 0x0 DUP3 DUP3 MSTORE PUSH1 0x20 DUP3 ADD SWAP1 POP SWAP3 SWAP2 POP POP JUMP JUMPDEST PUSH32 0x6D746F6B656E207472616E73666572206572726F722100000000000000000000 PUSH1 0x0 DUP3 ADD MSTORE POP JUMP JUMPDEST PUSH1 0x0 PUSH2 0xABE PUSH1 0x16 DUP4 PUSH2 0xA77 JUMP JUMPDEST SWAP2 POP PUSH2 0xAC9 DUP3 PUSH2 0xA88 JUMP JUMPDEST PUSH1 0x20 DUP3 ADD SWAP1 POP SWAP2 SWAP1 POP JUMP JUMPDEST PUSH1 0x0 PUSH1 0x20 DUP3 ADD SWAP1 POP DUP2 DUP2 SUB PUSH1 0x0 DUP4 ADD MSTORE PUSH2 0xAED DUP2 PUSH2 0xAB1 JUMP JUMPDEST SWAP1 POP SWAP2 SWAP1 POP JUMP JUMPDEST PUSH32 0x6D73672E76616C75652073686F756C642062696767676572207468616E20616D PUSH1 0x0 DUP3 ADD MSTORE PUSH32 0x6F756E744554484D696E00000000000000000000000000000000000000000000 PUSH1 0x20 DUP3 ADD MSTORE POP JUMP JUMPDEST PUSH1 0x0 PUSH2 0xB50 PUSH1 0x2A DUP4 PUSH2 0xA77 JUMP JUMPDEST SWAP2 POP PUSH2 0xB5B DUP3 PUSH2 0xAF4 JUMP JUMPDEST PUSH1 0x40 DUP3 ADD SWAP1 POP SWAP2 SWAP1 POP JUMP JUMPDEST PUSH1 0x0 PUSH1 0x20 DUP3 ADD SWAP1 POP DUP2 DUP2 SUB PUSH1 0x0 DUP4 ADD MSTORE PUSH2 0xB7F DUP2 PUSH2 0xB43 JUMP JUMPDEST SWAP1 POP SWAP2 SWAP1 POP JUMP JUMPDEST PUSH1 0x0 PUSH1 0xC0 DUP3 ADD SWAP1 POP PUSH2 0xB9B PUSH1 0x0 DUP4 ADD DUP10 PUSH2 0x7E8 JUMP JUMPDEST PUSH2 0xBA8 PUSH1 0x20 DUP4 ADD DUP9 PUSH2 0x9A3 JUMP JUMPDEST PUSH2 0xBB5 PUSH1 0x40 DUP4 ADD DUP8 PUSH2 0x9A3 JUMP JUMPDEST PUSH2 0xBC2 PUSH1 0x60 DUP4 ADD DUP7 PUSH2 0x9A3 JUMP JUMPDEST PUSH2 0xBCF PUSH1 0x80 DUP4 ADD DUP6 PUSH2 0x7E8 JUMP JUMPDEST PUSH2 0xBDC PUSH1 0xA0 DUP4 ADD DUP5 PUSH2 0x9A3 JUMP JUMPDEST SWAP8 SWAP7 POP POP POP POP POP POP POP JUMP JUMPDEST PUSH1 0x0 DUP1 PUSH1 0x0 PUSH1 0x60 DUP5 DUP7 SUB SLT ISZERO PUSH2 0xC00 JUMPI PUSH2 0xBFF PUSH2 0x6F6 JUMP JUMPDEST JUMPDEST PUSH1 0x0 PUSH2 0xC0E DUP7 DUP3 DUP8 ADD PUSH2 0x8A3 JUMP JUMPDEST SWAP4 POP POP PUSH1 0x20 PUSH2 0xC1F DUP7 DUP3 DUP8 ADD PUSH2 0x8A3 JUMP JUMPDEST SWAP3 POP POP PUSH1 0x40 PUSH2 0xC30 DUP7 DUP3 DUP8 ADD PUSH2 0x8A3 JUMP JUMPDEST SWAP2 POP POP SWAP3 POP SWAP3 POP SWAP3 JUMP JUMPDEST PUSH1 0x0 PUSH1 0x40 DUP3 ADD SWAP1 POP PUSH2 0xC4F PUSH1 0x0 DUP4 ADD DUP6 PUSH2 0x96B JUMP JUMPDEST PUSH2 0xC5C PUSH1 0x20 DUP4 ADD DUP5 PUSH2 0x9A3 JUMP JUMPDEST SWAP4 SWAP3 POP POP POP JUMP JUMPDEST PUSH32 0x4E487B7100000000000000000000000000000000000000000000000000000000 PUSH1 0x0 MSTORE PUSH1 0x32 PUSH1 0x4 MSTORE PUSH1 0x24 PUSH1 0x0 REVERT JUMPDEST PUSH1 0x0 DUP2 MLOAD SWAP1 POP SWAP2 SWAP1 POP JUMP JUMPDEST PUSH1 0x0 DUP3 DUP3 MSTORE PUSH1 0x20 DUP3 ADD SWAP1 POP SWAP3 SWAP2 POP POP JUMP JUMPDEST PUSH1 0x0 DUP2 SWAP1 POP PUSH1 0x20 DUP3 ADD SWAP1 POP SWAP2 SWAP1 POP JUMP JUMPDEST PUSH2 0xCC7 DUP2 PUSH2 0x7D6 JUMP JUMPDEST DUP3 MSTORE POP POP JUMP JUMPDEST PUSH1 0x0 PUSH2 0xCD9 DUP4 DUP4 PUSH2 0xCBE JUMP JUMPDEST PUSH1 0x20 DUP4 ADD SWAP1 POP SWAP3 SWAP2 POP POP JUMP JUMPDEST PUSH1 0x0 PUSH1 0x20 DUP3 ADD SWAP1 POP SWAP2 SWAP1 POP JUMP JUMPDEST PUSH1 0x0 PUSH2 0xCFD DUP3 PUSH2 0xC92 JUMP JUMPDEST PUSH2 0xD07 DUP2 DUP6 PUSH2 0xC9D JUMP JUMPDEST SWAP4 POP PUSH2 0xD12 DUP4 PUSH2 0xCAE JUMP JUMPDEST DUP1 PUSH1 0x0 JUMPDEST DUP4 DUP2 LT ISZERO PUSH2 0xD43 JUMPI DUP2 MLOAD PUSH2 0xD2A DUP9 DUP3 PUSH2 0xCCD JUMP JUMPDEST SWAP8 POP PUSH2 0xD35 DUP4 PUSH2 0xCE5 JUMP JUMPDEST SWAP3 POP POP PUSH1 0x1 DUP2 ADD SWAP1 POP PUSH2 0xD16 JUMP JUMPDEST POP DUP6 SWAP4 POP POP POP POP SWAP3 SWAP2 POP POP JUMP JUMPDEST PUSH1 0x0 PUSH1 0x80 DUP3 ADD SWAP1 POP PUSH2 0xD65 PUSH1 0x0 DUP4 ADD DUP8 PUSH2 0x9A3 JUMP JUMPDEST DUP2 DUP2 SUB PUSH1 0x20 DUP4 ADD MSTORE PUSH2 0xD77 DUP2 DUP7 PUSH2 0xCF2 JUMP JUMPDEST SWAP1 POP PUSH2 0xD86 PUSH1 0x40 DUP4 ADD DUP6 PUSH2 0x7E8 JUMP JUMPDEST PUSH2 0xD93 PUSH1 0x60 DUP4 ADD DUP5 PUSH2 0x9A3 JUMP JUMPDEST SWAP6 SWAP5 POP POP POP POP POP JUMP JUMPDEST PUSH1 0x0 DUP1 REVERT JUMPDEST PUSH1 0x0 PUSH8 0xFFFFFFFFFFFFFFFF DUP3 GT ISZERO PUSH2 0xDBC JUMPI PUSH2 0xDBB PUSH2 0x828 JUMP JUMPDEST JUMPDEST PUSH1 0x20 DUP3 MUL SWAP1 POP PUSH1 0x20 DUP2 ADD SWAP1 POP SWAP2 SWAP1 POP JUMP JUMPDEST PUSH1 0x0 DUP1 REVERT JUMPDEST PUSH1 0x0 PUSH2 0xDE5 PUSH2 0xDE0 DUP5 PUSH2 0xDA1 JUMP JUMPDEST PUSH2 0x888 JUMP JUMPDEST SWAP1 POP DUP1 DUP4 DUP3 MSTORE PUSH1 0x20 DUP3 ADD SWAP1 POP PUSH1 0x20 DUP5 MUL DUP4 ADD DUP6 DUP2 GT ISZERO PUSH2 0xE08 JUMPI PUSH2 0xE07 PUSH2 0xDCD JUMP JUMPDEST JUMPDEST DUP4 JUMPDEST DUP2 DUP2 LT ISZERO PUSH2 0xE31 JUMPI DUP1 PUSH2 0xE1D DUP9 DUP3 PUSH2 0x8A3 JUMP JUMPDEST DUP5 MSTORE PUSH1 0x20 DUP5 ADD SWAP4 POP POP PUSH1 0x20 DUP2 ADD SWAP1 POP PUSH2 0xE0A JUMP JUMPDEST POP POP POP SWAP4 SWAP3 POP POP POP JUMP JUMPDEST PUSH1 0x0 DUP3 PUSH1 0x1F DUP4 ADD SLT PUSH2 0xE50 JUMPI PUSH2 0xE4F PUSH2 0xD9C JUMP JUMPDEST JUMPDEST DUP2 MLOAD PUSH2 0xE60 DUP5 DUP3 PUSH1 0x20 DUP7 ADD PUSH2 0xDD2 JUMP JUMPDEST SWAP2 POP POP SWAP3 SWAP2 POP POP JUMP JUMPDEST PUSH1 0x0 PUSH1 0x20 DUP3 DUP5 SUB SLT ISZERO PUSH2 0xE7F JUMPI PUSH2 0xE7E PUSH2 0x6F6 JUMP JUMPDEST JUMPDEST PUSH1 0x0 DUP3 ADD MLOAD PUSH8 0xFFFFFFFFFFFFFFFF DUP2 GT ISZERO PUSH2 0xE9D JUMPI PUSH2 0xE9C PUSH2 0x6FB JUMP JUMPDEST JUMPDEST PUSH2 0xEA9 DUP5 DUP3 DUP6 ADD PUSH2 0xE3B JUMP JUMPDEST SWAP2 POP POP SWAP3 SWAP2 POP POP JUMP INVALID LOG2 PUSH5 0x6970667358 0x22 SLT KECCAK256 0xB9 DUP3 SWAP11 0xB4 SWAP4 SWAP5 SWAP12 DUP2 LOG0 0xE SWAP1 0xE6 0xA9 0xCF EXTCODECOPY 0xE9 0xA8 CREATE CREATE SWAP4 SELFBALANCE MSIZE 0xCE DUP2 0x2E 0x4A CHAINID 0xA9 0xB6 0xEF 0x5E LOG1 PUSH5 0x736F6C6343 STOP ADDMOD 0xD STOP CALLER "
				},
				"gasEstimates": {
					"creation": {
						"codeDepositCost": "763200",
						"executionCost": "201340",
						"totalCost": "964540"
					},
					"external": {
						"addLiquidity(uint256,uint256,uint256)": "infinite",
						"buyExactTokenByETH(uint256)": "infinite",
						"withdraw()": "infinite"
					}
				},
				"methodIdentifiers": {
					"addLiquidity(uint256,uint256,uint256)": "422f1043",
					"buyExactTokenByETH(uint256)": "a93f74e0",
					"withdraw()": "3ccfd60b"
				}
			},
			"userdoc": {
				"kind": "user",
				"methods": {},
				"version": 1
			}
		}
	}
}