{
	"Code-hardhat-ethersJs/contracts/MyTokenMarket.sol": {
		"MyTokenMarket": {
			"abi": [
				{
					"inputs": [],
					"stateMutability": "nonpayable",
					"type": "constructor"
				},
				{
					"inputs": [
						{
							"internalType": "uint256",
							"name": "amountMyTokenDesired",
							"type": "uint256"
						}
					],
					"name": "addLiquidity",
					"outputs": [
						{
							"internalType": "uint256",
							"name": "amountOfLp",
							"type": "uint256"
						}
					],
					"stateMutability": "payable",
					"type": "function"
				},
				{
					"inputs": [
						{
							"internalType": "uint256",
							"name": "amountOutMin",
							"type": "uint256"
						}
					],
					"name": "buyExactTokenByETH",
					"outputs": [],
					"stateMutability": "payable",
					"type": "function"
				},
				{
					"inputs": [
						{
							"internalType": "uint256",
							"name": "pid",
							"type": "uint256"
						},
						{
							"internalType": "uint256",
							"name": "amount",
							"type": "uint256"
						}
					],
					"name": "depositToMasterChef",
					"outputs": [],
					"stateMutability": "nonpayable",
					"type": "function"
				},
				{
					"inputs": [
						{
							"internalType": "uint256",
							"name": "pid",
							"type": "uint256"
						}
					],
					"name": "withdraw",
					"outputs": [],
					"stateMutability": "nonpayable",
					"type": "function"
				}
			],
			"devdoc": {
				"kind": "dev",
				"methods": {},
				"version": 1
			},
			"evm": {
				"assembly": "    /* \"Code-hardhat-ethersJs/contracts/MyTokenMarket.sol\":264:3198  contract MyTokenMarket{... */\n  mstore(0x40, 0x80)\n    /* \"Code-hardhat-ethersJs/contracts/MyTokenMarket.sol\":537:579  0x7a250d5630B4cF539739dF2C5dAcb4c659F2488D */\n  0x7a250d5630b4cf539739df2c5dacb4c659f2488d\n    /* \"Code-hardhat-ethersJs/contracts/MyTokenMarket.sol\":516:579  address uv2address = 0x7a250d5630B4cF539739dF2C5dAcb4c659F2488D */\n  0x00\n  dup1\n  0x0100\n  exp\n  dup2\n  sload\n  dup2\n  0xffffffffffffffffffffffffffffffffffffffff\n  mul\n  not\n  and\n  swap1\n  dup4\n  0xffffffffffffffffffffffffffffffffffffffff\n  and\n  mul\n  or\n  swap1\n  sstore\n  pop\n    /* \"Code-hardhat-ethersJs/contracts/MyTokenMarket.sol\":607:649  0xc778417E063141139Fce010982780140Aa0cD5Ab */\n  0xc778417e063141139fce010982780140aa0cd5ab\n    /* \"Code-hardhat-ethersJs/contracts/MyTokenMarket.sol\":585:649  address wethaddress = 0xc778417E063141139Fce010982780140Aa0cD5Ab */\n  0x01\n  exp(0x0100, 0x00)\n  dup2\n  sload\n  dup2\n  0xffffffffffffffffffffffffffffffffffffffff\n  mul\n  not\n  and\n  swap1\n  dup4\n  0xffffffffffffffffffffffffffffffffffffffff\n  and\n  mul\n  or\n  swap1\n  sstore\n  pop\n    /* \"Code-hardhat-ethersJs/contracts/MyTokenMarket.sol\":680:722  0x549F978C19a5AC86D906052639E317B57724ef44 */\n  0x549f978c19a5ac86d906052639e317b57724ef44\n    /* \"Code-hardhat-ethersJs/contracts/MyTokenMarket.sol\":655:722  address mytokenaddress = 0x549F978C19a5AC86D906052639E317B57724ef44 */\n  0x02\n  exp(0x0100, 0x00)\n  dup2\n  sload\n  dup2\n  0xffffffffffffffffffffffffffffffffffffffff\n  mul\n  not\n  and\n  swap1\n  dup4\n  0xffffffffffffffffffffffffffffffffffffffff\n  and\n  mul\n  or\n  swap1\n  sstore\n  pop\n    /* \"Code-hardhat-ethersJs/contracts/MyTokenMarket.sol\":751:793  0xf42A08C0EA66ee4A474336087A6C17E9EA6c9dE9 */\n  0xf42a08c0ea66ee4a474336087a6c17e9ea6c9de9\n    /* \"Code-hardhat-ethersJs/contracts/MyTokenMarket.sol\":728:793  address sushiaddress = 0xf42A08C0EA66ee4A474336087A6C17E9EA6c9dE9 */\n  0x03\n  exp(0x0100, 0x00)\n  dup2\n  sload\n  dup2\n  0xffffffffffffffffffffffffffffffffffffffff\n  mul\n  not\n  and\n  swap1\n  dup4\n  0xffffffffffffffffffffffffffffffffffffffff\n  and\n  mul\n  or\n  swap1\n  sstore\n  pop\n    /* \"Code-hardhat-ethersJs/contracts/MyTokenMarket.sol\":827:869  0xd9DFA8c6b37cfDF16668fE0465896f4A1B9b2c4F */\n  0xd9dfa8c6b37cfdf16668fe0465896f4a1b9b2c4f\n    /* \"Code-hardhat-ethersJs/contracts/MyTokenMarket.sol\":799:869  address masterchefaddress = 0xd9DFA8c6b37cfDF16668fE0465896f4A1B9b2c4F */\n  0x04\n  exp(0x0100, 0x00)\n  dup2\n  sload\n  dup2\n  0xffffffffffffffffffffffffffffffffffffffff\n  mul\n  not\n  and\n  swap1\n  dup4\n  0xffffffffffffffffffffffffffffffffffffffff\n  and\n  mul\n  or\n  swap1\n  sstore\n  pop\n    /* \"Code-hardhat-ethersJs/contracts/MyTokenMarket.sol\":925:935  uv2address */\n  0x00\n  dup1\n  sload\n  swap1\n  0x0100\n  exp\n  swap1\n  div\n  0xffffffffffffffffffffffffffffffffffffffff\n  and\n    /* \"Code-hardhat-ethersJs/contracts/MyTokenMarket.sol\":875:936  IUniswapV2Router02 uv2router = IUniswapV2Router02(uv2address) */\n  0x05\n  exp(0x0100, 0x00)\n  dup2\n  sload\n  dup2\n  0xffffffffffffffffffffffffffffffffffffffff\n  mul\n  not\n  and\n  swap1\n  dup4\n  0xffffffffffffffffffffffffffffffffffffffff\n  and\n  mul\n  or\n  swap1\n  sstore\n  pop\n    /* \"Code-hardhat-ethersJs/contracts/MyTokenMarket.sol\":965:979  mytokenaddress */\n  0x02\n  0x00\n  swap1\n  sload\n  swap1\n  0x0100\n  exp\n  swap1\n  div\n  0xffffffffffffffffffffffffffffffffffffffff\n  and\n    /* \"Code-hardhat-ethersJs/contracts/MyTokenMarket.sol\":942:980  IERC20 mtoken = IERC20(mytokenaddress) */\n  0x06\n  exp(0x0100, 0x00)\n  dup2\n  sload\n  dup2\n  0xffffffffffffffffffffffffffffffffffffffff\n  mul\n  not\n  and\n  swap1\n  dup4\n  0xffffffffffffffffffffffffffffffffffffffff\n  and\n  mul\n  or\n  swap1\n  sstore\n  pop\n    /* \"Code-hardhat-ethersJs/contracts/MyTokenMarket.sol\":1023:1040  masterchefaddress */\n  0x04\n  0x00\n  swap1\n  sload\n  swap1\n  0x0100\n  exp\n  swap1\n  div\n  0xffffffffffffffffffffffffffffffffffffffff\n  and\n    /* \"Code-hardhat-ethersJs/contracts/MyTokenMarket.sol\":986:1041  IMasterChef masterChef = IMasterChef(masterchefaddress) */\n  0x07\n  exp(0x0100, 0x00)\n  dup2\n  sload\n  dup2\n  0xffffffffffffffffffffffffffffffffffffffff\n  mul\n  not\n  and\n  swap1\n  dup4\n  0xffffffffffffffffffffffffffffffffffffffff\n  and\n  mul\n  or\n  swap1\n  sstore\n  pop\n    /* \"Code-hardhat-ethersJs/contracts/MyTokenMarket.sol\":1047:1067  constructor(){... */\n  callvalue\n  dup1\n  iszero\n  tag_1\n  jumpi\n  0x00\n  dup1\n  revert\ntag_1:\n  pop\n    /* \"Code-hardhat-ethersJs/contracts/MyTokenMarket.sol\":264:3198  contract MyTokenMarket{... */\n  dataSize(sub_0)\n  dup1\n  dataOffset(sub_0)\n  0x00\n  codecopy\n  0x00\n  return\nstop\n\nsub_0: assembly {\n        /* \"Code-hardhat-ethersJs/contracts/MyTokenMarket.sol\":264:3198  contract MyTokenMarket{... */\n      mstore(0x40, 0x80)\n      jumpi(tag_1, lt(calldatasize, 0x04))\n      shr(0xe0, calldataload(0x00))\n      dup1\n      0x2e1a7d4d\n      eq\n      tag_2\n      jumpi\n      dup1\n      0x51c6590a\n      eq\n      tag_3\n      jumpi\n      dup1\n      0x881e7a97\n      eq\n      tag_4\n      jumpi\n      dup1\n      0xa93f74e0\n      eq\n      tag_5\n      jumpi\n    tag_1:\n      0x00\n      dup1\n      revert\n        /* \"Code-hardhat-ethersJs/contracts/MyTokenMarket.sol\":2858:3194  function withdraw(uint256 pid)public{... */\n    tag_2:\n      callvalue\n      dup1\n      iszero\n      tag_6\n      jumpi\n      0x00\n      dup1\n      revert\n    tag_6:\n      pop\n      tag_7\n      0x04\n      dup1\n      calldatasize\n      sub\n      dup2\n      add\n      swap1\n      tag_8\n      swap2\n      swap1\n      tag_9\n      jump\t// in\n    tag_8:\n      tag_10\n      jump\t// in\n    tag_7:\n      stop\n        /* \"Code-hardhat-ethersJs/contracts/MyTokenMarket.sol\":1555:2095  function addLiquidity(... */\n    tag_3:\n      tag_11\n      0x04\n      dup1\n      calldatasize\n      sub\n      dup2\n      add\n      swap1\n      tag_12\n      swap2\n      swap1\n      tag_9\n      jump\t// in\n    tag_12:\n      tag_13\n      jump\t// in\n    tag_11:\n      mload(0x40)\n      tag_14\n      swap2\n      swap1\n      tag_15\n      jump\t// in\n    tag_14:\n      mload(0x40)\n      dup1\n      swap2\n      sub\n      swap1\n      return\n        /* \"Code-hardhat-ethersJs/contracts/MyTokenMarket.sol\":2346:2520  function depositToMasterChef(uint256 pid, uint256 amount)public{... */\n    tag_4:\n      callvalue\n      dup1\n      iszero\n      tag_16\n      jumpi\n      0x00\n      dup1\n      revert\n    tag_16:\n      pop\n      tag_17\n      0x04\n      dup1\n      calldatasize\n      sub\n      dup2\n      add\n      swap1\n      tag_18\n      swap2\n      swap1\n      tag_19\n      jump\t// in\n    tag_18:\n      tag_20\n      jump\t// in\n    tag_17:\n      stop\n        /* \"Code-hardhat-ethersJs/contracts/MyTokenMarket.sol\":2527:2851  function buyExactTokenByETH(uint amountOutMin)public payable{... */\n    tag_5:\n      tag_21\n      0x04\n      dup1\n      calldatasize\n      sub\n      dup2\n      add\n      swap1\n      tag_22\n      swap2\n      swap1\n      tag_9\n      jump\t// in\n    tag_22:\n      tag_23\n      jump\t// in\n    tag_21:\n      stop\n        /* \"Code-hardhat-ethersJs/contracts/MyTokenMarket.sol\":2858:3194  function withdraw(uint256 pid)public{... */\n    tag_10:\n        /* \"Code-hardhat-ethersJs/contracts/MyTokenMarket.sol\":2904:2940  IMasterChef.UserInfo memory userInfo */\n      0x00\n        /* \"Code-hardhat-ethersJs/contracts/MyTokenMarket.sol\":2943:2953  masterChef */\n      0x07\n      0x00\n      swap1\n      sload\n      swap1\n      0x0100\n      exp\n      swap1\n      div\n      0xffffffffffffffffffffffffffffffffffffffff\n      and\n        /* \"Code-hardhat-ethersJs/contracts/MyTokenMarket.sol\":2943:2962  masterChef.userInfo */\n      0xffffffffffffffffffffffffffffffffffffffff\n      and\n      0x1959a002\n        /* \"Code-hardhat-ethersJs/contracts/MyTokenMarket.sol\":2963:2973  msg.sender */\n      caller\n        /* \"Code-hardhat-ethersJs/contracts/MyTokenMarket.sol\":2943:2974  masterChef.userInfo(msg.sender) */\n      mload(0x40)\n      dup3\n      0xffffffff\n      and\n      0xe0\n      shl\n      dup2\n      mstore\n      0x04\n      add\n      tag_25\n      swap2\n      swap1\n      tag_26\n      jump\t// in\n    tag_25:\n      0x40\n      dup1\n      mload\n      dup1\n      dup4\n      sub\n      dup2\n      dup7\n      gas\n      staticcall\n      iszero\n      dup1\n      iszero\n      tag_28\n      jumpi\n      returndatasize\n      0x00\n      dup1\n      returndatacopy\n      revert(0x00, returndatasize)\n    tag_28:\n      pop\n      pop\n      pop\n      pop\n      mload(0x40)\n      returndatasize\n      not(0x1f)\n      0x1f\n      dup3\n      add\n      and\n      dup3\n      add\n      dup1\n      0x40\n      mstore\n      pop\n      dup2\n      add\n      swap1\n      tag_29\n      swap2\n      swap1\n      tag_30\n      jump\t// in\n    tag_29:\n        /* \"Code-hardhat-ethersJs/contracts/MyTokenMarket.sol\":2904:2974  IMasterChef.UserInfo memory userInfo = masterChef.userInfo(msg.sender) */\n      swap1\n      pop\n        /* \"Code-hardhat-ethersJs/contracts/MyTokenMarket.sol\":2984:3020  IMasterChef.PoolInfo memory poolInfo */\n      0x00\n        /* \"Code-hardhat-ethersJs/contracts/MyTokenMarket.sol\":3023:3033  masterChef */\n      0x07\n      0x00\n      swap1\n      sload\n      swap1\n      0x0100\n      exp\n      swap1\n      div\n      0xffffffffffffffffffffffffffffffffffffffff\n      and\n        /* \"Code-hardhat-ethersJs/contracts/MyTokenMarket.sol\":3023:3042  masterChef.poolInfo */\n      0xffffffffffffffffffffffffffffffffffffffff\n      and\n      0x1526fe27\n        /* \"Code-hardhat-ethersJs/contracts/MyTokenMarket.sol\":3043:3046  pid */\n      dup5\n        /* \"Code-hardhat-ethersJs/contracts/MyTokenMarket.sol\":3023:3047  masterChef.poolInfo(pid) */\n      mload(0x40)\n      dup3\n      0xffffffff\n      and\n      0xe0\n      shl\n      dup2\n      mstore\n      0x04\n      add\n      tag_31\n      swap2\n      swap1\n      tag_15\n      jump\t// in\n    tag_31:\n      0x80\n      mload(0x40)\n      dup1\n      dup4\n      sub\n      dup2\n      dup7\n      gas\n      staticcall\n      iszero\n      dup1\n      iszero\n      tag_33\n      jumpi\n      returndatasize\n      0x00\n      dup1\n      returndatacopy\n      revert(0x00, returndatasize)\n    tag_33:\n      pop\n      pop\n      pop\n      pop\n      mload(0x40)\n      returndatasize\n      not(0x1f)\n      0x1f\n      dup3\n      add\n      and\n      dup3\n      add\n      dup1\n      0x40\n      mstore\n      pop\n      dup2\n      add\n      swap1\n      tag_34\n      swap2\n      swap1\n      tag_35\n      jump\t// in\n    tag_34:\n        /* \"Code-hardhat-ethersJs/contracts/MyTokenMarket.sol\":2984:3047  IMasterChef.PoolInfo memory poolInfo = masterChef.poolInfo(pid) */\n      swap1\n      pop\n        /* \"Code-hardhat-ethersJs/contracts/MyTokenMarket.sol\":3057:3067  masterChef */\n      0x07\n      0x00\n      swap1\n      sload\n      swap1\n      0x0100\n      exp\n      swap1\n      div\n      0xffffffffffffffffffffffffffffffffffffffff\n      and\n        /* \"Code-hardhat-ethersJs/contracts/MyTokenMarket.sol\":3057:3076  masterChef.withdraw */\n      0xffffffffffffffffffffffffffffffffffffffff\n      and\n      0x441a3e70\n        /* \"Code-hardhat-ethersJs/contracts/MyTokenMarket.sol\":3077:3080  pid */\n      dup5\n        /* \"Code-hardhat-ethersJs/contracts/MyTokenMarket.sol\":3081:3089  userInfo */\n      dup5\n        /* \"Code-hardhat-ethersJs/contracts/MyTokenMarket.sol\":3081:3096  userInfo.amount */\n      0x00\n      add\n      mload\n        /* \"Code-hardhat-ethersJs/contracts/MyTokenMarket.sol\":3057:3097  masterChef.withdraw(pid,userInfo.amount) */\n      mload(0x40)\n      dup4\n      0xffffffff\n      and\n      0xe0\n      shl\n      dup2\n      mstore\n      0x04\n      add\n      tag_36\n      swap3\n      swap2\n      swap1\n      tag_37\n      jump\t// in\n    tag_36:\n      0x00\n      mload(0x40)\n      dup1\n      dup4\n      sub\n      dup2\n      0x00\n      dup8\n      dup1\n      extcodesize\n      iszero\n      dup1\n      iszero\n      tag_38\n      jumpi\n      0x00\n      dup1\n      revert\n    tag_38:\n      pop\n      gas\n      call\n      iszero\n      dup1\n      iszero\n      tag_40\n      jumpi\n      returndatasize\n      0x00\n      dup1\n      returndatacopy\n      revert(0x00, returndatasize)\n    tag_40:\n      pop\n      pop\n      pop\n      pop\n        /* \"Code-hardhat-ethersJs/contracts/MyTokenMarket.sol\":3114:3122  poolInfo */\n      dup1\n        /* \"Code-hardhat-ethersJs/contracts/MyTokenMarket.sol\":3114:3130  poolInfo.lpToken */\n      0x00\n      add\n      mload\n        /* \"Code-hardhat-ethersJs/contracts/MyTokenMarket.sol\":3107:3144  IERC20(poolInfo.lpToken).transferFrom */\n      0xffffffffffffffffffffffffffffffffffffffff\n      and\n      0x23b872dd\n        /* \"Code-hardhat-ethersJs/contracts/MyTokenMarket.sol\":3153:3157  this */\n      address\n        /* \"Code-hardhat-ethersJs/contracts/MyTokenMarket.sol\":3160:3170  msg.sender */\n      caller\n        /* \"Code-hardhat-ethersJs/contracts/MyTokenMarket.sol\":3171:3179  userInfo */\n      dup6\n        /* \"Code-hardhat-ethersJs/contracts/MyTokenMarket.sol\":3171:3186  userInfo.amount */\n      0x00\n      add\n      mload\n        /* \"Code-hardhat-ethersJs/contracts/MyTokenMarket.sol\":3107:3187  IERC20(poolInfo.lpToken).transferFrom(address(this), msg.sender,userInfo.amount) */\n      mload(0x40)\n      dup5\n      0xffffffff\n      and\n      0xe0\n      shl\n      dup2\n      mstore\n      0x04\n      add\n      tag_41\n      swap4\n      swap3\n      swap2\n      swap1\n      tag_42\n      jump\t// in\n    tag_41:\n      0x20\n      mload(0x40)\n      dup1\n      dup4\n      sub\n      dup2\n      0x00\n      dup8\n      gas\n      call\n      iszero\n      dup1\n      iszero\n      tag_44\n      jumpi\n      returndatasize\n      0x00\n      dup1\n      returndatacopy\n      revert(0x00, returndatasize)\n    tag_44:\n      pop\n      pop\n      pop\n      pop\n      mload(0x40)\n      returndatasize\n      not(0x1f)\n      0x1f\n      dup3\n      add\n      and\n      dup3\n      add\n      dup1\n      0x40\n      mstore\n      pop\n      dup2\n      add\n      swap1\n      tag_45\n      swap2\n      swap1\n      tag_46\n      jump\t// in\n    tag_45:\n      pop\n        /* \"Code-hardhat-ethersJs/contracts/MyTokenMarket.sol\":2894:3194  {... */\n      pop\n      pop\n        /* \"Code-hardhat-ethersJs/contracts/MyTokenMarket.sol\":2858:3194  function withdraw(uint256 pid)public{... */\n      pop\n      jump\t// out\n        /* \"Code-hardhat-ethersJs/contracts/MyTokenMarket.sol\":1555:2095  function addLiquidity(... */\n    tag_13:\n        /* \"Code-hardhat-ethersJs/contracts/MyTokenMarket.sol\":1643:1661  uint256 amountOfLp */\n      0x00\n        /* \"Code-hardhat-ethersJs/contracts/MyTokenMarket.sol\":1710:1716  mtoken */\n      0x06\n      0x00\n      swap1\n      sload\n      swap1\n      0x0100\n      exp\n      swap1\n      div\n      0xffffffffffffffffffffffffffffffffffffffff\n      and\n        /* \"Code-hardhat-ethersJs/contracts/MyTokenMarket.sol\":1710:1724  mtoken.approve */\n      0xffffffffffffffffffffffffffffffffffffffff\n      and\n      0x095ea7b3\n        /* \"Code-hardhat-ethersJs/contracts/MyTokenMarket.sol\":1733:1742  uv2router */\n      0x05\n      0x00\n      swap1\n      sload\n      swap1\n      0x0100\n      exp\n      swap1\n      div\n      0xffffffffffffffffffffffffffffffffffffffff\n      and\n        /* \"Code-hardhat-ethersJs/contracts/MyTokenMarket.sol\":1745:1765  amountMyTokenDesired */\n      dup5\n        /* \"Code-hardhat-ethersJs/contracts/MyTokenMarket.sol\":1710:1766  mtoken.approve(address(uv2router), amountMyTokenDesired) */\n      mload(0x40)\n      dup4\n      0xffffffff\n      and\n      0xe0\n      shl\n      dup2\n      mstore\n      0x04\n      add\n      tag_48\n      swap3\n      swap2\n      swap1\n      tag_49\n      jump\t// in\n    tag_48:\n      0x20\n      mload(0x40)\n      dup1\n      dup4\n      sub\n      dup2\n      0x00\n      dup8\n      gas\n      call\n      iszero\n      dup1\n      iszero\n      tag_51\n      jumpi\n      returndatasize\n      0x00\n      dup1\n      returndatacopy\n      revert(0x00, returndatasize)\n    tag_51:\n      pop\n      pop\n      pop\n      pop\n      mload(0x40)\n      returndatasize\n      not(0x1f)\n      0x1f\n      dup3\n      add\n      and\n      dup3\n      add\n      dup1\n      0x40\n      mstore\n      pop\n      dup2\n      add\n      swap1\n      tag_52\n      swap2\n      swap1\n      tag_46\n      jump\t// in\n    tag_52:\n      pop\n        /* \"Code-hardhat-ethersJs/contracts/MyTokenMarket.sol\":1776:1788  bool success */\n      0x00\n        /* \"Code-hardhat-ethersJs/contracts/MyTokenMarket.sol\":1791:1797  mtoken */\n      0x06\n      0x00\n      swap1\n      sload\n      swap1\n      0x0100\n      exp\n      swap1\n      div\n      0xffffffffffffffffffffffffffffffffffffffff\n      and\n        /* \"Code-hardhat-ethersJs/contracts/MyTokenMarket.sol\":1791:1810  mtoken.transferFrom */\n      0xffffffffffffffffffffffffffffffffffffffff\n      and\n      0x23b872dd\n        /* \"Code-hardhat-ethersJs/contracts/MyTokenMarket.sol\":1811:1821  msg.sender */\n      caller\n        /* \"Code-hardhat-ethersJs/contracts/MyTokenMarket.sol\":1831:1835  this */\n      address\n        /* \"Code-hardhat-ethersJs/contracts/MyTokenMarket.sol\":1838:1858  amountMyTokenDesired */\n      dup7\n        /* \"Code-hardhat-ethersJs/contracts/MyTokenMarket.sol\":1791:1859  mtoken.transferFrom(msg.sender, address(this), amountMyTokenDesired) */\n      mload(0x40)\n      dup5\n      0xffffffff\n      and\n      0xe0\n      shl\n      dup2\n      mstore\n      0x04\n      add\n      tag_53\n      swap4\n      swap3\n      swap2\n      swap1\n      tag_42\n      jump\t// in\n    tag_53:\n      0x20\n      mload(0x40)\n      dup1\n      dup4\n      sub\n      dup2\n      0x00\n      dup8\n      gas\n      call\n      iszero\n      dup1\n      iszero\n      tag_55\n      jumpi\n      returndatasize\n      0x00\n      dup1\n      returndatacopy\n      revert(0x00, returndatasize)\n    tag_55:\n      pop\n      pop\n      pop\n      pop\n      mload(0x40)\n      returndatasize\n      not(0x1f)\n      0x1f\n      dup3\n      add\n      and\n      dup3\n      add\n      dup1\n      0x40\n      mstore\n      pop\n      dup2\n      add\n      swap1\n      tag_56\n      swap2\n      swap1\n      tag_46\n      jump\t// in\n    tag_56:\n        /* \"Code-hardhat-ethersJs/contracts/MyTokenMarket.sol\":1776:1859  bool success = mtoken.transferFrom(msg.sender, address(this), amountMyTokenDesired) */\n      swap1\n      pop\n        /* \"Code-hardhat-ethersJs/contracts/MyTokenMarket.sol\":1877:1884  success */\n      dup1\n        /* \"Code-hardhat-ethersJs/contracts/MyTokenMarket.sol\":1869:1911  require(success, \"mtoken transfer error!\") */\n      tag_57\n      jumpi\n      mload(0x40)\n      0x08c379a000000000000000000000000000000000000000000000000000000000\n      dup2\n      mstore\n      0x04\n      add\n      tag_58\n      swap1\n      tag_59\n      jump\t// in\n    tag_58:\n      mload(0x40)\n      dup1\n      swap2\n      sub\n      swap1\n      revert\n    tag_57:\n        /* \"Code-hardhat-ethersJs/contracts/MyTokenMarket.sol\":1922:1938  uint amountToken */\n      0x00\n        /* \"Code-hardhat-ethersJs/contracts/MyTokenMarket.sol\":1944:1953  uv2router */\n      0x05\n      0x00\n      swap1\n      sload\n      swap1\n      0x0100\n      exp\n      swap1\n      div\n      0xffffffffffffffffffffffffffffffffffffffff\n      and\n        /* \"Code-hardhat-ethersJs/contracts/MyTokenMarket.sol\":1944:1969  uv2router.addLiquidityETH */\n      0xffffffffffffffffffffffffffffffffffffffff\n      and\n      0xf305d719\n        /* \"Code-hardhat-ethersJs/contracts/MyTokenMarket.sol\":1977:1986  msg.value */\n      callvalue\n        /* \"Code-hardhat-ethersJs/contracts/MyTokenMarket.sol\":1989:2003  mytokenaddress */\n      0x02\n      0x00\n      swap1\n      sload\n      swap1\n      0x0100\n      exp\n      swap1\n      div\n      0xffffffffffffffffffffffffffffffffffffffff\n      and\n        /* \"Code-hardhat-ethersJs/contracts/MyTokenMarket.sol\":2005:2025  amountMyTokenDesired */\n      dup8\n        /* \"Code-hardhat-ethersJs/contracts/MyTokenMarket.sol\":2027:2028  0 */\n      0x00\n        /* \"Code-hardhat-ethersJs/contracts/MyTokenMarket.sol\":2030:2031  0 */\n      dup1\n        /* \"Code-hardhat-ethersJs/contracts/MyTokenMarket.sol\":2033:2043  msg.sender */\n      caller\n        /* \"Code-hardhat-ethersJs/contracts/MyTokenMarket.sol\":2044:2059  block.timestamp */\n      timestamp\n        /* \"Code-hardhat-ethersJs/contracts/MyTokenMarket.sol\":1944:2060  uv2router.addLiquidityETH{value: msg.value}( mytokenaddress, amountMyTokenDesired, 0, 0, msg.sender,block.timestamp) */\n      mload(0x40)\n      dup9\n      0xffffffff\n      and\n      0xe0\n      shl\n      dup2\n      mstore\n      0x04\n      add\n      tag_60\n      swap7\n      swap6\n      swap5\n      swap4\n      swap3\n      swap2\n      swap1\n      tag_61\n      jump\t// in\n    tag_60:\n      0x60\n      mload(0x40)\n      dup1\n      dup4\n      sub\n      dup2\n      dup6\n      dup9\n      gas\n      call\n      iszero\n      dup1\n      iszero\n      tag_63\n      jumpi\n      returndatasize\n      0x00\n      dup1\n      returndatacopy\n      revert(0x00, returndatasize)\n    tag_63:\n      pop\n      pop\n      pop\n      pop\n      pop\n      mload(0x40)\n      returndatasize\n      not(0x1f)\n      0x1f\n      dup3\n      add\n      and\n      dup3\n      add\n      dup1\n      0x40\n      mstore\n      pop\n      dup2\n      add\n      swap1\n      tag_64\n      swap2\n      swap1\n      tag_65\n      jump\t// in\n    tag_64:\n        /* \"Code-hardhat-ethersJs/contracts/MyTokenMarket.sol\":1921:2060  (uint amountToken,,) = uv2router.addLiquidityETH{value: msg.value}( mytokenaddress, amountMyTokenDesired, 0, 0, msg.sender,block.timestamp) */\n      pop\n      pop\n      swap1\n      pop\n        /* \"Code-hardhat-ethersJs/contracts/MyTokenMarket.sol\":2077:2088  amountToken */\n      dup1\n        /* \"Code-hardhat-ethersJs/contracts/MyTokenMarket.sol\":2070:2088  return amountToken */\n      swap3\n      pop\n      pop\n      pop\n        /* \"Code-hardhat-ethersJs/contracts/MyTokenMarket.sol\":1555:2095  function addLiquidity(... */\n      swap2\n      swap1\n      pop\n      jump\t// out\n        /* \"Code-hardhat-ethersJs/contracts/MyTokenMarket.sol\":2346:2520  function depositToMasterChef(uint256 pid, uint256 amount)public{... */\n    tag_20:\n        /* \"Code-hardhat-ethersJs/contracts/MyTokenMarket.sol\":2483:2493  masterChef */\n      0x07\n      0x00\n      swap1\n      sload\n      swap1\n      0x0100\n      exp\n      swap1\n      div\n      0xffffffffffffffffffffffffffffffffffffffff\n      and\n        /* \"Code-hardhat-ethersJs/contracts/MyTokenMarket.sol\":2483:2501  masterChef.deposit */\n      0xffffffffffffffffffffffffffffffffffffffff\n      and\n      0xe2bbb158\n        /* \"Code-hardhat-ethersJs/contracts/MyTokenMarket.sol\":2502:2505  pid */\n      dup4\n        /* \"Code-hardhat-ethersJs/contracts/MyTokenMarket.sol\":2506:2512  amount */\n      dup4\n        /* \"Code-hardhat-ethersJs/contracts/MyTokenMarket.sol\":2483:2513  masterChef.deposit(pid,amount) */\n      mload(0x40)\n      dup4\n      0xffffffff\n      and\n      0xe0\n      shl\n      dup2\n      mstore\n      0x04\n      add\n      tag_67\n      swap3\n      swap2\n      swap1\n      tag_37\n      jump\t// in\n    tag_67:\n      0x00\n      mload(0x40)\n      dup1\n      dup4\n      sub\n      dup2\n      0x00\n      dup8\n      dup1\n      extcodesize\n      iszero\n      dup1\n      iszero\n      tag_68\n      jumpi\n      0x00\n      dup1\n      revert\n    tag_68:\n      pop\n      gas\n      call\n      iszero\n      dup1\n      iszero\n      tag_70\n      jumpi\n      returndatasize\n      0x00\n      dup1\n      returndatacopy\n      revert(0x00, returndatasize)\n    tag_70:\n      pop\n      pop\n      pop\n      pop\n        /* \"Code-hardhat-ethersJs/contracts/MyTokenMarket.sol\":2346:2520  function depositToMasterChef(uint256 pid, uint256 amount)public{... */\n      pop\n      pop\n      jump\t// out\n        /* \"Code-hardhat-ethersJs/contracts/MyTokenMarket.sol\":2527:2851  function buyExactTokenByETH(uint amountOutMin)public payable{... */\n    tag_23:\n        /* \"Code-hardhat-ethersJs/contracts/MyTokenMarket.sol\":2601:2622  address[] memory path */\n      0x00\n        /* \"Code-hardhat-ethersJs/contracts/MyTokenMarket.sol\":2639:2640  2 */\n      0x02\n        /* \"Code-hardhat-ethersJs/contracts/MyTokenMarket.sol\":2625:2641  new address[](2) */\n      0xffffffffffffffff\n      dup2\n      gt\n      iszero\n      tag_72\n      jumpi\n      tag_73\n      tag_74\n      jump\t// in\n    tag_73:\n    tag_72:\n      mload(0x40)\n      swap1\n      dup1\n      dup3\n      mstore\n      dup1\n      0x20\n      mul\n      0x20\n      add\n      dup3\n      add\n      0x40\n      mstore\n      dup1\n      iszero\n      tag_75\n      jumpi\n      dup2\n      0x20\n      add\n      0x20\n      dup3\n      mul\n      dup1\n      calldatasize\n      dup4\n      calldatacopy\n      dup1\n      dup3\n      add\n      swap2\n      pop\n      pop\n      swap1\n      pop\n    tag_75:\n      pop\n        /* \"Code-hardhat-ethersJs/contracts/MyTokenMarket.sol\":2601:2641  address[] memory path = new address[](2) */\n      swap1\n      pop\n        /* \"Code-hardhat-ethersJs/contracts/MyTokenMarket.sol\":2673:2684  wethaddress */\n      0x01\n      0x00\n      swap1\n      sload\n      swap1\n      0x0100\n      exp\n      swap1\n      div\n      0xffffffffffffffffffffffffffffffffffffffff\n      and\n        /* \"Code-hardhat-ethersJs/contracts/MyTokenMarket.sol\":2655:2659  path */\n      dup2\n        /* \"Code-hardhat-ethersJs/contracts/MyTokenMarket.sol\":2660:2661  0 */\n      0x00\n        /* \"Code-hardhat-ethersJs/contracts/MyTokenMarket.sol\":2655:2662  path[0] */\n      dup2\n      mload\n      dup2\n      lt\n      tag_76\n      jumpi\n      tag_77\n      tag_78\n      jump\t// in\n    tag_77:\n    tag_76:\n      0x20\n      mul\n      0x20\n      add\n      add\n        /* \"Code-hardhat-ethersJs/contracts/MyTokenMarket.sol\":2655:2685  path[0] = address(wethaddress) */\n      swap1\n      0xffffffffffffffffffffffffffffffffffffffff\n      and\n      swap1\n      dup2\n      0xffffffffffffffffffffffffffffffffffffffff\n      and\n      dup2\n      mstore\n      pop\n      pop\n        /* \"Code-hardhat-ethersJs/contracts/MyTokenMarket.sol\":2717:2731  mytokenaddress */\n      0x02\n      0x00\n      swap1\n      sload\n      swap1\n      0x0100\n      exp\n      swap1\n      div\n      0xffffffffffffffffffffffffffffffffffffffff\n      and\n        /* \"Code-hardhat-ethersJs/contracts/MyTokenMarket.sol\":2699:2703  path */\n      dup2\n        /* \"Code-hardhat-ethersJs/contracts/MyTokenMarket.sol\":2704:2705  1 */\n      0x01\n        /* \"Code-hardhat-ethersJs/contracts/MyTokenMarket.sol\":2699:2706  path[1] */\n      dup2\n      mload\n      dup2\n      lt\n      tag_79\n      jumpi\n      tag_80\n      tag_78\n      jump\t// in\n    tag_80:\n    tag_79:\n      0x20\n      mul\n      0x20\n      add\n      add\n        /* \"Code-hardhat-ethersJs/contracts/MyTokenMarket.sol\":2699:2732  path[1] = address(mytokenaddress) */\n      swap1\n      0xffffffffffffffffffffffffffffffffffffffff\n      and\n      swap1\n      dup2\n      0xffffffffffffffffffffffffffffffffffffffff\n      and\n      dup2\n      mstore\n      pop\n      pop\n        /* \"Code-hardhat-ethersJs/contracts/MyTokenMarket.sol\":2746:2755  uv2router */\n      0x05\n      0x00\n      swap1\n      sload\n      swap1\n      0x0100\n      exp\n      swap1\n      div\n      0xffffffffffffffffffffffffffffffffffffffff\n      and\n        /* \"Code-hardhat-ethersJs/contracts/MyTokenMarket.sol\":2746:2777  uv2router.swapExactETHForTokens */\n      0xffffffffffffffffffffffffffffffffffffffff\n      and\n      0x7ff36ab5\n        /* \"Code-hardhat-ethersJs/contracts/MyTokenMarket.sol\":2785:2794  msg.value */\n      callvalue\n        /* \"Code-hardhat-ethersJs/contracts/MyTokenMarket.sol\":2796:2808  amountOutMin */\n      dup5\n        /* \"Code-hardhat-ethersJs/contracts/MyTokenMarket.sol\":2810:2814  path */\n      dup5\n        /* \"Code-hardhat-ethersJs/contracts/MyTokenMarket.sol\":2816:2826  msg.sender */\n      caller\n        /* \"Code-hardhat-ethersJs/contracts/MyTokenMarket.sol\":2828:2843  block.timestamp */\n      timestamp\n        /* \"Code-hardhat-ethersJs/contracts/MyTokenMarket.sol\":2746:2844  uv2router.swapExactETHForTokens{value: msg.value}(amountOutMin, path, msg.sender, block.timestamp) */\n      mload(0x40)\n      dup7\n      0xffffffff\n      and\n      0xe0\n      shl\n      dup2\n      mstore\n      0x04\n      add\n      tag_81\n      swap5\n      swap4\n      swap3\n      swap2\n      swap1\n      tag_82\n      jump\t// in\n    tag_81:\n      0x00\n      mload(0x40)\n      dup1\n      dup4\n      sub\n      dup2\n      dup6\n      dup9\n      gas\n      call\n      iszero\n      dup1\n      iszero\n      tag_84\n      jumpi\n      returndatasize\n      0x00\n      dup1\n      returndatacopy\n      revert(0x00, returndatasize)\n    tag_84:\n      pop\n      pop\n      pop\n      pop\n      pop\n      mload(0x40)\n      returndatasize\n      0x00\n      dup3\n      returndatacopy\n      returndatasize\n      not(0x1f)\n      0x1f\n      dup3\n      add\n      and\n      dup3\n      add\n      dup1\n      0x40\n      mstore\n      pop\n      dup2\n      add\n      swap1\n      tag_85\n      swap2\n      swap1\n      tag_86\n      jump\t// in\n    tag_85:\n      pop\n        /* \"Code-hardhat-ethersJs/contracts/MyTokenMarket.sol\":2587:2851  {... */\n      pop\n        /* \"Code-hardhat-ethersJs/contracts/MyTokenMarket.sol\":2527:2851  function buyExactTokenByETH(uint amountOutMin)public payable{... */\n      pop\n      jump\t// out\n        /* \"#utility.yul\":7:82   */\n    tag_87:\n        /* \"#utility.yul\":40:46   */\n      0x00\n        /* \"#utility.yul\":73:75   */\n      0x40\n        /* \"#utility.yul\":67:76   */\n      mload\n        /* \"#utility.yul\":57:76   */\n      swap1\n      pop\n        /* \"#utility.yul\":7:82   */\n      swap1\n      jump\t// out\n        /* \"#utility.yul\":88:205   */\n    tag_88:\n        /* \"#utility.yul\":197:198   */\n      0x00\n        /* \"#utility.yul\":194:195   */\n      dup1\n        /* \"#utility.yul\":187:199   */\n      revert\n        /* \"#utility.yul\":211:328   */\n    tag_89:\n        /* \"#utility.yul\":320:321   */\n      0x00\n        /* \"#utility.yul\":317:318   */\n      dup1\n        /* \"#utility.yul\":310:322   */\n      revert\n        /* \"#utility.yul\":334:411   */\n    tag_90:\n        /* \"#utility.yul\":371:378   */\n      0x00\n        /* \"#utility.yul\":400:405   */\n      dup2\n        /* \"#utility.yul\":389:405   */\n      swap1\n      pop\n        /* \"#utility.yul\":334:411   */\n      swap2\n      swap1\n      pop\n      jump\t// out\n        /* \"#utility.yul\":417:539   */\n    tag_91:\n        /* \"#utility.yul\":490:514   */\n      tag_136\n        /* \"#utility.yul\":508:513   */\n      dup2\n        /* \"#utility.yul\":490:514   */\n      tag_90\n      jump\t// in\n    tag_136:\n        /* \"#utility.yul\":483:488   */\n      dup2\n        /* \"#utility.yul\":480:515   */\n      eq\n        /* \"#utility.yul\":470:533   */\n      tag_137\n      jumpi\n        /* \"#utility.yul\":529:530   */\n      0x00\n        /* \"#utility.yul\":526:527   */\n      dup1\n        /* \"#utility.yul\":519:531   */\n      revert\n        /* \"#utility.yul\":470:533   */\n    tag_137:\n        /* \"#utility.yul\":417:539   */\n      pop\n      jump\t// out\n        /* \"#utility.yul\":545:684   */\n    tag_92:\n        /* \"#utility.yul\":591:596   */\n      0x00\n        /* \"#utility.yul\":629:635   */\n      dup2\n        /* \"#utility.yul\":616:636   */\n      calldataload\n        /* \"#utility.yul\":607:636   */\n      swap1\n      pop\n        /* \"#utility.yul\":645:678   */\n      tag_139\n        /* \"#utility.yul\":672:677   */\n      dup2\n        /* \"#utility.yul\":645:678   */\n      tag_91\n      jump\t// in\n    tag_139:\n        /* \"#utility.yul\":545:684   */\n      swap3\n      swap2\n      pop\n      pop\n      jump\t// out\n        /* \"#utility.yul\":690:1019   */\n    tag_9:\n        /* \"#utility.yul\":749:755   */\n      0x00\n        /* \"#utility.yul\":798:800   */\n      0x20\n        /* \"#utility.yul\":786:795   */\n      dup3\n        /* \"#utility.yul\":777:784   */\n      dup5\n        /* \"#utility.yul\":773:796   */\n      sub\n        /* \"#utility.yul\":769:801   */\n      slt\n        /* \"#utility.yul\":766:885   */\n      iszero\n      tag_141\n      jumpi\n        /* \"#utility.yul\":804:883   */\n      tag_142\n      tag_88\n      jump\t// in\n    tag_142:\n        /* \"#utility.yul\":766:885   */\n    tag_141:\n        /* \"#utility.yul\":924:925   */\n      0x00\n        /* \"#utility.yul\":949:1002   */\n      tag_143\n        /* \"#utility.yul\":994:1001   */\n      dup5\n        /* \"#utility.yul\":985:991   */\n      dup3\n        /* \"#utility.yul\":974:983   */\n      dup6\n        /* \"#utility.yul\":970:992   */\n      add\n        /* \"#utility.yul\":949:1002   */\n      tag_92\n      jump\t// in\n    tag_143:\n        /* \"#utility.yul\":939:1002   */\n      swap2\n      pop\n        /* \"#utility.yul\":895:1012   */\n      pop\n        /* \"#utility.yul\":690:1019   */\n      swap3\n      swap2\n      pop\n      pop\n      jump\t// out\n        /* \"#utility.yul\":1025:1143   */\n    tag_93:\n        /* \"#utility.yul\":1112:1136   */\n      tag_145\n        /* \"#utility.yul\":1130:1135   */\n      dup2\n        /* \"#utility.yul\":1112:1136   */\n      tag_90\n      jump\t// in\n    tag_145:\n        /* \"#utility.yul\":1107:1110   */\n      dup3\n        /* \"#utility.yul\":1100:1137   */\n      mstore\n        /* \"#utility.yul\":1025:1143   */\n      pop\n      pop\n      jump\t// out\n        /* \"#utility.yul\":1149:1371   */\n    tag_15:\n        /* \"#utility.yul\":1242:1246   */\n      0x00\n        /* \"#utility.yul\":1280:1282   */\n      0x20\n        /* \"#utility.yul\":1269:1278   */\n      dup3\n        /* \"#utility.yul\":1265:1283   */\n      add\n        /* \"#utility.yul\":1257:1283   */\n      swap1\n      pop\n        /* \"#utility.yul\":1293:1364   */\n      tag_147\n        /* \"#utility.yul\":1361:1362   */\n      0x00\n        /* \"#utility.yul\":1350:1359   */\n      dup4\n        /* \"#utility.yul\":1346:1363   */\n      add\n        /* \"#utility.yul\":1337:1343   */\n      dup5\n        /* \"#utility.yul\":1293:1364   */\n      tag_93\n      jump\t// in\n    tag_147:\n        /* \"#utility.yul\":1149:1371   */\n      swap3\n      swap2\n      pop\n      pop\n      jump\t// out\n        /* \"#utility.yul\":1377:1851   */\n    tag_19:\n        /* \"#utility.yul\":1445:1451   */\n      0x00\n        /* \"#utility.yul\":1453:1459   */\n      dup1\n        /* \"#utility.yul\":1502:1504   */\n      0x40\n        /* \"#utility.yul\":1490:1499   */\n      dup4\n        /* \"#utility.yul\":1481:1488   */\n      dup6\n        /* \"#utility.yul\":1477:1500   */\n      sub\n        /* \"#utility.yul\":1473:1505   */\n      slt\n        /* \"#utility.yul\":1470:1589   */\n      iszero\n      tag_149\n      jumpi\n        /* \"#utility.yul\":1508:1587   */\n      tag_150\n      tag_88\n      jump\t// in\n    tag_150:\n        /* \"#utility.yul\":1470:1589   */\n    tag_149:\n        /* \"#utility.yul\":1628:1629   */\n      0x00\n        /* \"#utility.yul\":1653:1706   */\n      tag_151\n        /* \"#utility.yul\":1698:1705   */\n      dup6\n        /* \"#utility.yul\":1689:1695   */\n      dup3\n        /* \"#utility.yul\":1678:1687   */\n      dup7\n        /* \"#utility.yul\":1674:1696   */\n      add\n        /* \"#utility.yul\":1653:1706   */\n      tag_92\n      jump\t// in\n    tag_151:\n        /* \"#utility.yul\":1643:1706   */\n      swap3\n      pop\n        /* \"#utility.yul\":1599:1716   */\n      pop\n        /* \"#utility.yul\":1755:1757   */\n      0x20\n        /* \"#utility.yul\":1781:1834   */\n      tag_152\n        /* \"#utility.yul\":1826:1833   */\n      dup6\n        /* \"#utility.yul\":1817:1823   */\n      dup3\n        /* \"#utility.yul\":1806:1815   */\n      dup7\n        /* \"#utility.yul\":1802:1824   */\n      add\n        /* \"#utility.yul\":1781:1834   */\n      tag_92\n      jump\t// in\n    tag_152:\n        /* \"#utility.yul\":1771:1834   */\n      swap2\n      pop\n        /* \"#utility.yul\":1726:1844   */\n      pop\n        /* \"#utility.yul\":1377:1851   */\n      swap3\n      pop\n      swap3\n      swap1\n      pop\n      jump\t// out\n        /* \"#utility.yul\":1857:1983   */\n    tag_94:\n        /* \"#utility.yul\":1894:1901   */\n      0x00\n        /* \"#utility.yul\":1934:1976   */\n      0xffffffffffffffffffffffffffffffffffffffff\n        /* \"#utility.yul\":1927:1932   */\n      dup3\n        /* \"#utility.yul\":1923:1977   */\n      and\n        /* \"#utility.yul\":1912:1977   */\n      swap1\n      pop\n        /* \"#utility.yul\":1857:1983   */\n      swap2\n      swap1\n      pop\n      jump\t// out\n        /* \"#utility.yul\":1989:2085   */\n    tag_95:\n        /* \"#utility.yul\":2026:2033   */\n      0x00\n        /* \"#utility.yul\":2055:2079   */\n      tag_155\n        /* \"#utility.yul\":2073:2078   */\n      dup3\n        /* \"#utility.yul\":2055:2079   */\n      tag_94\n      jump\t// in\n    tag_155:\n        /* \"#utility.yul\":2044:2079   */\n      swap1\n      pop\n        /* \"#utility.yul\":1989:2085   */\n      swap2\n      swap1\n      pop\n      jump\t// out\n        /* \"#utility.yul\":2091:2209   */\n    tag_96:\n        /* \"#utility.yul\":2178:2202   */\n      tag_157\n        /* \"#utility.yul\":2196:2201   */\n      dup2\n        /* \"#utility.yul\":2178:2202   */\n      tag_95\n      jump\t// in\n    tag_157:\n        /* \"#utility.yul\":2173:2176   */\n      dup3\n        /* \"#utility.yul\":2166:2203   */\n      mstore\n        /* \"#utility.yul\":2091:2209   */\n      pop\n      pop\n      jump\t// out\n        /* \"#utility.yul\":2215:2437   */\n    tag_26:\n        /* \"#utility.yul\":2308:2312   */\n      0x00\n        /* \"#utility.yul\":2346:2348   */\n      0x20\n        /* \"#utility.yul\":2335:2344   */\n      dup3\n        /* \"#utility.yul\":2331:2349   */\n      add\n        /* \"#utility.yul\":2323:2349   */\n      swap1\n      pop\n        /* \"#utility.yul\":2359:2430   */\n      tag_159\n        /* \"#utility.yul\":2427:2428   */\n      0x00\n        /* \"#utility.yul\":2416:2425   */\n      dup4\n        /* \"#utility.yul\":2412:2429   */\n      add\n        /* \"#utility.yul\":2403:2409   */\n      dup5\n        /* \"#utility.yul\":2359:2430   */\n      tag_96\n      jump\t// in\n    tag_159:\n        /* \"#utility.yul\":2215:2437   */\n      swap3\n      swap2\n      pop\n      pop\n      jump\t// out\n        /* \"#utility.yul\":2443:2560   */\n    tag_97:\n        /* \"#utility.yul\":2552:2553   */\n      0x00\n        /* \"#utility.yul\":2549:2550   */\n      dup1\n        /* \"#utility.yul\":2542:2554   */\n      revert\n        /* \"#utility.yul\":2566:2668   */\n    tag_98:\n        /* \"#utility.yul\":2607:2613   */\n      0x00\n        /* \"#utility.yul\":2658:2660   */\n      0x1f\n        /* \"#utility.yul\":2654:2661   */\n      not\n        /* \"#utility.yul\":2649:2651   */\n      0x1f\n        /* \"#utility.yul\":2642:2647   */\n      dup4\n        /* \"#utility.yul\":2638:2652   */\n      add\n        /* \"#utility.yul\":2634:2662   */\n      and\n        /* \"#utility.yul\":2624:2662   */\n      swap1\n      pop\n        /* \"#utility.yul\":2566:2668   */\n      swap2\n      swap1\n      pop\n      jump\t// out\n        /* \"#utility.yul\":2674:2854   */\n    tag_74:\n        /* \"#utility.yul\":2722:2799   */\n      0x4e487b7100000000000000000000000000000000000000000000000000000000\n        /* \"#utility.yul\":2719:2720   */\n      0x00\n        /* \"#utility.yul\":2712:2800   */\n      mstore\n        /* \"#utility.yul\":2819:2823   */\n      0x41\n        /* \"#utility.yul\":2816:2817   */\n      0x04\n        /* \"#utility.yul\":2809:2824   */\n      mstore\n        /* \"#utility.yul\":2843:2847   */\n      0x24\n        /* \"#utility.yul\":2840:2841   */\n      0x00\n        /* \"#utility.yul\":2833:2848   */\n      revert\n        /* \"#utility.yul\":2860:3141   */\n    tag_99:\n        /* \"#utility.yul\":2943:2970   */\n      tag_164\n        /* \"#utility.yul\":2965:2969   */\n      dup3\n        /* \"#utility.yul\":2943:2970   */\n      tag_98\n      jump\t// in\n    tag_164:\n        /* \"#utility.yul\":2935:2941   */\n      dup2\n        /* \"#utility.yul\":2931:2971   */\n      add\n        /* \"#utility.yul\":3073:3079   */\n      dup2\n        /* \"#utility.yul\":3061:3071   */\n      dup2\n        /* \"#utility.yul\":3058:3080   */\n      lt\n        /* \"#utility.yul\":3037:3055   */\n      0xffffffffffffffff\n        /* \"#utility.yul\":3025:3035   */\n      dup3\n        /* \"#utility.yul\":3022:3056   */\n      gt\n        /* \"#utility.yul\":3019:3081   */\n      or\n        /* \"#utility.yul\":3016:3104   */\n      iszero\n      tag_165\n      jumpi\n        /* \"#utility.yul\":3084:3102   */\n      tag_166\n      tag_74\n      jump\t// in\n    tag_166:\n        /* \"#utility.yul\":3016:3104   */\n    tag_165:\n        /* \"#utility.yul\":3124:3134   */\n      dup1\n        /* \"#utility.yul\":3120:3122   */\n      0x40\n        /* \"#utility.yul\":3113:3135   */\n      mstore\n        /* \"#utility.yul\":2903:3141   */\n      pop\n        /* \"#utility.yul\":2860:3141   */\n      pop\n      pop\n      jump\t// out\n        /* \"#utility.yul\":3147:3276   */\n    tag_100:\n        /* \"#utility.yul\":3181:3187   */\n      0x00\n        /* \"#utility.yul\":3208:3228   */\n      tag_168\n      tag_87\n      jump\t// in\n    tag_168:\n        /* \"#utility.yul\":3198:3228   */\n      swap1\n      pop\n        /* \"#utility.yul\":3237:3270   */\n      tag_169\n        /* \"#utility.yul\":3265:3269   */\n      dup3\n        /* \"#utility.yul\":3257:3263   */\n      dup3\n        /* \"#utility.yul\":3237:3270   */\n      tag_99\n      jump\t// in\n    tag_169:\n        /* \"#utility.yul\":3147:3276   */\n      swap2\n      swap1\n      pop\n      jump\t// out\n        /* \"#utility.yul\":3405:3548   */\n    tag_102:\n        /* \"#utility.yul\":3462:3467   */\n      0x00\n        /* \"#utility.yul\":3493:3499   */\n      dup2\n        /* \"#utility.yul\":3487:3500   */\n      mload\n        /* \"#utility.yul\":3478:3500   */\n      swap1\n      pop\n        /* \"#utility.yul\":3509:3542   */\n      tag_172\n        /* \"#utility.yul\":3536:3541   */\n      dup2\n        /* \"#utility.yul\":3509:3542   */\n      tag_91\n      jump\t// in\n    tag_172:\n        /* \"#utility.yul\":3405:3548   */\n      swap3\n      swap2\n      pop\n      pop\n      jump\t// out\n        /* \"#utility.yul\":3589:4204   */\n    tag_103:\n        /* \"#utility.yul\":3674:3679   */\n      0x00\n        /* \"#utility.yul\":3718:3722   */\n      0x40\n        /* \"#utility.yul\":3706:3715   */\n      dup3\n        /* \"#utility.yul\":3701:3704   */\n      dup5\n        /* \"#utility.yul\":3697:3716   */\n      sub\n        /* \"#utility.yul\":3693:3723   */\n      slt\n        /* \"#utility.yul\":3690:3807   */\n      iszero\n      tag_174\n      jumpi\n        /* \"#utility.yul\":3726:3805   */\n      tag_175\n      tag_97\n      jump\t// in\n    tag_175:\n        /* \"#utility.yul\":3690:3807   */\n    tag_174:\n        /* \"#utility.yul\":3825:3846   */\n      tag_176\n        /* \"#utility.yul\":3841:3845   */\n      0x40\n        /* \"#utility.yul\":3825:3846   */\n      tag_100\n      jump\t// in\n    tag_176:\n        /* \"#utility.yul\":3816:3846   */\n      swap1\n      pop\n        /* \"#utility.yul\":3907:3908   */\n      0x00\n        /* \"#utility.yul\":3947:4007   */\n      tag_177\n        /* \"#utility.yul\":4003:4006   */\n      dup5\n        /* \"#utility.yul\":3994:4000   */\n      dup3\n        /* \"#utility.yul\":3983:3992   */\n      dup6\n        /* \"#utility.yul\":3979:4001   */\n      add\n        /* \"#utility.yul\":3947:4007   */\n      tag_102\n      jump\t// in\n    tag_177:\n        /* \"#utility.yul\":3940:3944   */\n      0x00\n        /* \"#utility.yul\":3933:3938   */\n      dup4\n        /* \"#utility.yul\":3929:3945   */\n      add\n        /* \"#utility.yul\":3922:4008   */\n      mstore\n        /* \"#utility.yul\":3856:4019   */\n      pop\n        /* \"#utility.yul\":4084:4086   */\n      0x20\n        /* \"#utility.yul\":4125:4185   */\n      tag_178\n        /* \"#utility.yul\":4181:4184   */\n      dup5\n        /* \"#utility.yul\":4172:4178   */\n      dup3\n        /* \"#utility.yul\":4161:4170   */\n      dup6\n        /* \"#utility.yul\":4157:4179   */\n      add\n        /* \"#utility.yul\":4125:4185   */\n      tag_102\n      jump\t// in\n    tag_178:\n        /* \"#utility.yul\":4118:4122   */\n      0x20\n        /* \"#utility.yul\":4111:4116   */\n      dup4\n        /* \"#utility.yul\":4107:4123   */\n      add\n        /* \"#utility.yul\":4100:4186   */\n      mstore\n        /* \"#utility.yul\":4029:4197   */\n      pop\n        /* \"#utility.yul\":3589:4204   */\n      swap3\n      swap2\n      pop\n      pop\n      jump\t// out\n        /* \"#utility.yul\":4210:4611   */\n    tag_30:\n        /* \"#utility.yul\":4305:4311   */\n      0x00\n        /* \"#utility.yul\":4354:4356   */\n      0x40\n        /* \"#utility.yul\":4342:4351   */\n      dup3\n        /* \"#utility.yul\":4333:4340   */\n      dup5\n        /* \"#utility.yul\":4329:4352   */\n      sub\n        /* \"#utility.yul\":4325:4357   */\n      slt\n        /* \"#utility.yul\":4322:4441   */\n      iszero\n      tag_180\n      jumpi\n        /* \"#utility.yul\":4360:4439   */\n      tag_181\n      tag_88\n      jump\t// in\n    tag_181:\n        /* \"#utility.yul\":4322:4441   */\n    tag_180:\n        /* \"#utility.yul\":4480:4481   */\n      0x00\n        /* \"#utility.yul\":4505:4594   */\n      tag_182\n        /* \"#utility.yul\":4586:4593   */\n      dup5\n        /* \"#utility.yul\":4577:4583   */\n      dup3\n        /* \"#utility.yul\":4566:4575   */\n      dup6\n        /* \"#utility.yul\":4562:4584   */\n      add\n        /* \"#utility.yul\":4505:4594   */\n      tag_103\n      jump\t// in\n    tag_182:\n        /* \"#utility.yul\":4495:4594   */\n      swap2\n      pop\n        /* \"#utility.yul\":4451:4604   */\n      pop\n        /* \"#utility.yul\":4210:4611   */\n      swap3\n      swap2\n      pop\n      pop\n      jump\t// out\n        /* \"#utility.yul\":4617:4726   */\n    tag_104:\n        /* \"#utility.yul\":4667:4674   */\n      0x00\n        /* \"#utility.yul\":4696:4720   */\n      tag_184\n        /* \"#utility.yul\":4714:4719   */\n      dup3\n        /* \"#utility.yul\":4696:4720   */\n      tag_95\n      jump\t// in\n    tag_184:\n        /* \"#utility.yul\":4685:4720   */\n      swap1\n      pop\n        /* \"#utility.yul\":4617:4726   */\n      swap2\n      swap1\n      pop\n      jump\t// out\n        /* \"#utility.yul\":4732:4880   */\n    tag_105:\n        /* \"#utility.yul\":4818:4855   */\n      tag_186\n        /* \"#utility.yul\":4849:4854   */\n      dup2\n        /* \"#utility.yul\":4818:4855   */\n      tag_104\n      jump\t// in\n    tag_186:\n        /* \"#utility.yul\":4811:4816   */\n      dup2\n        /* \"#utility.yul\":4808:4856   */\n      eq\n        /* \"#utility.yul\":4798:4874   */\n      tag_187\n      jumpi\n        /* \"#utility.yul\":4870:4871   */\n      0x00\n        /* \"#utility.yul\":4867:4868   */\n      dup1\n        /* \"#utility.yul\":4860:4872   */\n      revert\n        /* \"#utility.yul\":4798:4874   */\n    tag_187:\n        /* \"#utility.yul\":4732:4880   */\n      pop\n      jump\t// out\n        /* \"#utility.yul\":4886:5055   */\n    tag_106:\n        /* \"#utility.yul\":4956:4961   */\n      0x00\n        /* \"#utility.yul\":4987:4993   */\n      dup2\n        /* \"#utility.yul\":4981:4994   */\n      mload\n        /* \"#utility.yul\":4972:4994   */\n      swap1\n      pop\n        /* \"#utility.yul\":5003:5049   */\n      tag_189\n        /* \"#utility.yul\":5043:5048   */\n      dup2\n        /* \"#utility.yul\":5003:5049   */\n      tag_105\n      jump\t// in\n    tag_189:\n        /* \"#utility.yul\":4886:5055   */\n      swap3\n      swap2\n      pop\n      pop\n      jump\t// out\n        /* \"#utility.yul\":5096:6092   */\n    tag_107:\n        /* \"#utility.yul\":5181:5186   */\n      0x00\n        /* \"#utility.yul\":5225:5229   */\n      0x80\n        /* \"#utility.yul\":5213:5222   */\n      dup3\n        /* \"#utility.yul\":5208:5211   */\n      dup5\n        /* \"#utility.yul\":5204:5223   */\n      sub\n        /* \"#utility.yul\":5200:5230   */\n      slt\n        /* \"#utility.yul\":5197:5314   */\n      iszero\n      tag_191\n      jumpi\n        /* \"#utility.yul\":5233:5312   */\n      tag_192\n      tag_97\n      jump\t// in\n    tag_192:\n        /* \"#utility.yul\":5197:5314   */\n    tag_191:\n        /* \"#utility.yul\":5332:5353   */\n      tag_193\n        /* \"#utility.yul\":5348:5352   */\n      0x80\n        /* \"#utility.yul\":5332:5353   */\n      tag_100\n      jump\t// in\n    tag_193:\n        /* \"#utility.yul\":5323:5353   */\n      swap1\n      pop\n        /* \"#utility.yul\":5415:5416   */\n      0x00\n        /* \"#utility.yul\":5455:5528   */\n      tag_194\n        /* \"#utility.yul\":5524:5527   */\n      dup5\n        /* \"#utility.yul\":5515:5521   */\n      dup3\n        /* \"#utility.yul\":5504:5513   */\n      dup6\n        /* \"#utility.yul\":5500:5522   */\n      add\n        /* \"#utility.yul\":5455:5528   */\n      tag_106\n      jump\t// in\n    tag_194:\n        /* \"#utility.yul\":5448:5452   */\n      0x00\n        /* \"#utility.yul\":5441:5446   */\n      dup4\n        /* \"#utility.yul\":5437:5453   */\n      add\n        /* \"#utility.yul\":5430:5529   */\n      mstore\n        /* \"#utility.yul\":5363:5540   */\n      pop\n        /* \"#utility.yul\":5605:5607   */\n      0x20\n        /* \"#utility.yul\":5646:5706   */\n      tag_195\n        /* \"#utility.yul\":5702:5705   */\n      dup5\n        /* \"#utility.yul\":5693:5699   */\n      dup3\n        /* \"#utility.yul\":5682:5691   */\n      dup6\n        /* \"#utility.yul\":5678:5700   */\n      add\n        /* \"#utility.yul\":5646:5706   */\n      tag_102\n      jump\t// in\n    tag_195:\n        /* \"#utility.yul\":5639:5643   */\n      0x20\n        /* \"#utility.yul\":5632:5637   */\n      dup4\n        /* \"#utility.yul\":5628:5644   */\n      add\n        /* \"#utility.yul\":5621:5707   */\n      mstore\n        /* \"#utility.yul\":5550:5718   */\n      pop\n        /* \"#utility.yul\":5788:5790   */\n      0x40\n        /* \"#utility.yul\":5829:5889   */\n      tag_196\n        /* \"#utility.yul\":5885:5888   */\n      dup5\n        /* \"#utility.yul\":5876:5882   */\n      dup3\n        /* \"#utility.yul\":5865:5874   */\n      dup6\n        /* \"#utility.yul\":5861:5883   */\n      add\n        /* \"#utility.yul\":5829:5889   */\n      tag_102\n      jump\t// in\n    tag_196:\n        /* \"#utility.yul\":5822:5826   */\n      0x40\n        /* \"#utility.yul\":5815:5820   */\n      dup4\n        /* \"#utility.yul\":5811:5827   */\n      add\n        /* \"#utility.yul\":5804:5890   */\n      mstore\n        /* \"#utility.yul\":5728:5901   */\n      pop\n        /* \"#utility.yul\":5972:5974   */\n      0x60\n        /* \"#utility.yul\":6013:6073   */\n      tag_197\n        /* \"#utility.yul\":6069:6072   */\n      dup5\n        /* \"#utility.yul\":6060:6066   */\n      dup3\n        /* \"#utility.yul\":6049:6058   */\n      dup6\n        /* \"#utility.yul\":6045:6067   */\n      add\n        /* \"#utility.yul\":6013:6073   */\n      tag_102\n      jump\t// in\n    tag_197:\n        /* \"#utility.yul\":6006:6010   */\n      0x60\n        /* \"#utility.yul\":5999:6004   */\n      dup4\n        /* \"#utility.yul\":5995:6011   */\n      add\n        /* \"#utility.yul\":5988:6074   */\n      mstore\n        /* \"#utility.yul\":5911:6085   */\n      pop\n        /* \"#utility.yul\":5096:6092   */\n      swap3\n      swap2\n      pop\n      pop\n      jump\t// out\n        /* \"#utility.yul\":6098:6500   */\n    tag_35:\n        /* \"#utility.yul\":6193:6199   */\n      0x00\n        /* \"#utility.yul\":6242:6245   */\n      0x80\n        /* \"#utility.yul\":6230:6239   */\n      dup3\n        /* \"#utility.yul\":6221:6228   */\n      dup5\n        /* \"#utility.yul\":6217:6240   */\n      sub\n        /* \"#utility.yul\":6213:6246   */\n      slt\n        /* \"#utility.yul\":6210:6330   */\n      iszero\n      tag_199\n      jumpi\n        /* \"#utility.yul\":6249:6328   */\n      tag_200\n      tag_88\n      jump\t// in\n    tag_200:\n        /* \"#utility.yul\":6210:6330   */\n    tag_199:\n        /* \"#utility.yul\":6369:6370   */\n      0x00\n        /* \"#utility.yul\":6394:6483   */\n      tag_201\n        /* \"#utility.yul\":6475:6482   */\n      dup5\n        /* \"#utility.yul\":6466:6472   */\n      dup3\n        /* \"#utility.yul\":6455:6464   */\n      dup6\n        /* \"#utility.yul\":6451:6473   */\n      add\n        /* \"#utility.yul\":6394:6483   */\n      tag_107\n      jump\t// in\n    tag_201:\n        /* \"#utility.yul\":6384:6483   */\n      swap2\n      pop\n        /* \"#utility.yul\":6340:6493   */\n      pop\n        /* \"#utility.yul\":6098:6500   */\n      swap3\n      swap2\n      pop\n      pop\n      jump\t// out\n        /* \"#utility.yul\":6506:6838   */\n    tag_37:\n        /* \"#utility.yul\":6627:6631   */\n      0x00\n        /* \"#utility.yul\":6665:6667   */\n      0x40\n        /* \"#utility.yul\":6654:6663   */\n      dup3\n        /* \"#utility.yul\":6650:6668   */\n      add\n        /* \"#utility.yul\":6642:6668   */\n      swap1\n      pop\n        /* \"#utility.yul\":6678:6749   */\n      tag_203\n        /* \"#utility.yul\":6746:6747   */\n      0x00\n        /* \"#utility.yul\":6735:6744   */\n      dup4\n        /* \"#utility.yul\":6731:6748   */\n      add\n        /* \"#utility.yul\":6722:6728   */\n      dup6\n        /* \"#utility.yul\":6678:6749   */\n      tag_93\n      jump\t// in\n    tag_203:\n        /* \"#utility.yul\":6759:6831   */\n      tag_204\n        /* \"#utility.yul\":6827:6829   */\n      0x20\n        /* \"#utility.yul\":6816:6825   */\n      dup4\n        /* \"#utility.yul\":6812:6830   */\n      add\n        /* \"#utility.yul\":6803:6809   */\n      dup5\n        /* \"#utility.yul\":6759:6831   */\n      tag_93\n      jump\t// in\n    tag_204:\n        /* \"#utility.yul\":6506:6838   */\n      swap4\n      swap3\n      pop\n      pop\n      pop\n      jump\t// out\n        /* \"#utility.yul\":6844:7286   */\n    tag_42:\n        /* \"#utility.yul\":6993:6997   */\n      0x00\n        /* \"#utility.yul\":7031:7033   */\n      0x60\n        /* \"#utility.yul\":7020:7029   */\n      dup3\n        /* \"#utility.yul\":7016:7034   */\n      add\n        /* \"#utility.yul\":7008:7034   */\n      swap1\n      pop\n        /* \"#utility.yul\":7044:7115   */\n      tag_206\n        /* \"#utility.yul\":7112:7113   */\n      0x00\n        /* \"#utility.yul\":7101:7110   */\n      dup4\n        /* \"#utility.yul\":7097:7114   */\n      add\n        /* \"#utility.yul\":7088:7094   */\n      dup7\n        /* \"#utility.yul\":7044:7115   */\n      tag_96\n      jump\t// in\n    tag_206:\n        /* \"#utility.yul\":7125:7197   */\n      tag_207\n        /* \"#utility.yul\":7193:7195   */\n      0x20\n        /* \"#utility.yul\":7182:7191   */\n      dup4\n        /* \"#utility.yul\":7178:7196   */\n      add\n        /* \"#utility.yul\":7169:7175   */\n      dup6\n        /* \"#utility.yul\":7125:7197   */\n      tag_96\n      jump\t// in\n    tag_207:\n        /* \"#utility.yul\":7207:7279   */\n      tag_208\n        /* \"#utility.yul\":7275:7277   */\n      0x40\n        /* \"#utility.yul\":7264:7273   */\n      dup4\n        /* \"#utility.yul\":7260:7278   */\n      add\n        /* \"#utility.yul\":7251:7257   */\n      dup5\n        /* \"#utility.yul\":7207:7279   */\n      tag_93\n      jump\t// in\n    tag_208:\n        /* \"#utility.yul\":6844:7286   */\n      swap5\n      swap4\n      pop\n      pop\n      pop\n      pop\n      jump\t// out\n        /* \"#utility.yul\":7292:7382   */\n    tag_108:\n        /* \"#utility.yul\":7326:7333   */\n      0x00\n        /* \"#utility.yul\":7369:7374   */\n      dup2\n        /* \"#utility.yul\":7362:7375   */\n      iszero\n        /* \"#utility.yul\":7355:7376   */\n      iszero\n        /* \"#utility.yul\":7344:7376   */\n      swap1\n      pop\n        /* \"#utility.yul\":7292:7382   */\n      swap2\n      swap1\n      pop\n      jump\t// out\n        /* \"#utility.yul\":7388:7504   */\n    tag_109:\n        /* \"#utility.yul\":7458:7479   */\n      tag_211\n        /* \"#utility.yul\":7473:7478   */\n      dup2\n        /* \"#utility.yul\":7458:7479   */\n      tag_108\n      jump\t// in\n    tag_211:\n        /* \"#utility.yul\":7451:7456   */\n      dup2\n        /* \"#utility.yul\":7448:7480   */\n      eq\n        /* \"#utility.yul\":7438:7498   */\n      tag_212\n      jumpi\n        /* \"#utility.yul\":7494:7495   */\n      0x00\n        /* \"#utility.yul\":7491:7492   */\n      dup1\n        /* \"#utility.yul\":7484:7496   */\n      revert\n        /* \"#utility.yul\":7438:7498   */\n    tag_212:\n        /* \"#utility.yul\":7388:7504   */\n      pop\n      jump\t// out\n        /* \"#utility.yul\":7510:7647   */\n    tag_110:\n        /* \"#utility.yul\":7564:7569   */\n      0x00\n        /* \"#utility.yul\":7595:7601   */\n      dup2\n        /* \"#utility.yul\":7589:7602   */\n      mload\n        /* \"#utility.yul\":7580:7602   */\n      swap1\n      pop\n        /* \"#utility.yul\":7611:7641   */\n      tag_214\n        /* \"#utility.yul\":7635:7640   */\n      dup2\n        /* \"#utility.yul\":7611:7641   */\n      tag_109\n      jump\t// in\n    tag_214:\n        /* \"#utility.yul\":7510:7647   */\n      swap3\n      swap2\n      pop\n      pop\n      jump\t// out\n        /* \"#utility.yul\":7653:7998   */\n    tag_46:\n        /* \"#utility.yul\":7720:7726   */\n      0x00\n        /* \"#utility.yul\":7769:7771   */\n      0x20\n        /* \"#utility.yul\":7757:7766   */\n      dup3\n        /* \"#utility.yul\":7748:7755   */\n      dup5\n        /* \"#utility.yul\":7744:7767   */\n      sub\n        /* \"#utility.yul\":7740:7772   */\n      slt\n        /* \"#utility.yul\":7737:7856   */\n      iszero\n      tag_216\n      jumpi\n        /* \"#utility.yul\":7775:7854   */\n      tag_217\n      tag_88\n      jump\t// in\n    tag_217:\n        /* \"#utility.yul\":7737:7856   */\n    tag_216:\n        /* \"#utility.yul\":7895:7896   */\n      0x00\n        /* \"#utility.yul\":7920:7981   */\n      tag_218\n        /* \"#utility.yul\":7973:7980   */\n      dup5\n        /* \"#utility.yul\":7964:7970   */\n      dup3\n        /* \"#utility.yul\":7953:7962   */\n      dup6\n        /* \"#utility.yul\":7949:7971   */\n      add\n        /* \"#utility.yul\":7920:7981   */\n      tag_110\n      jump\t// in\n    tag_218:\n        /* \"#utility.yul\":7910:7981   */\n      swap2\n      pop\n        /* \"#utility.yul\":7866:7991   */\n      pop\n        /* \"#utility.yul\":7653:7998   */\n      swap3\n      swap2\n      pop\n      pop\n      jump\t// out\n        /* \"#utility.yul\":8004:8336   */\n    tag_49:\n        /* \"#utility.yul\":8125:8129   */\n      0x00\n        /* \"#utility.yul\":8163:8165   */\n      0x40\n        /* \"#utility.yul\":8152:8161   */\n      dup3\n        /* \"#utility.yul\":8148:8166   */\n      add\n        /* \"#utility.yul\":8140:8166   */\n      swap1\n      pop\n        /* \"#utility.yul\":8176:8247   */\n      tag_220\n        /* \"#utility.yul\":8244:8245   */\n      0x00\n        /* \"#utility.yul\":8233:8242   */\n      dup4\n        /* \"#utility.yul\":8229:8246   */\n      add\n        /* \"#utility.yul\":8220:8226   */\n      dup6\n        /* \"#utility.yul\":8176:8247   */\n      tag_96\n      jump\t// in\n    tag_220:\n        /* \"#utility.yul\":8257:8329   */\n      tag_221\n        /* \"#utility.yul\":8325:8327   */\n      0x20\n        /* \"#utility.yul\":8314:8323   */\n      dup4\n        /* \"#utility.yul\":8310:8328   */\n      add\n        /* \"#utility.yul\":8301:8307   */\n      dup5\n        /* \"#utility.yul\":8257:8329   */\n      tag_93\n      jump\t// in\n    tag_221:\n        /* \"#utility.yul\":8004:8336   */\n      swap4\n      swap3\n      pop\n      pop\n      pop\n      jump\t// out\n        /* \"#utility.yul\":8342:8511   */\n    tag_111:\n        /* \"#utility.yul\":8426:8437   */\n      0x00\n        /* \"#utility.yul\":8460:8466   */\n      dup3\n        /* \"#utility.yul\":8455:8458   */\n      dup3\n        /* \"#utility.yul\":8448:8467   */\n      mstore\n        /* \"#utility.yul\":8500:8504   */\n      0x20\n        /* \"#utility.yul\":8495:8498   */\n      dup3\n        /* \"#utility.yul\":8491:8505   */\n      add\n        /* \"#utility.yul\":8476:8505   */\n      swap1\n      pop\n        /* \"#utility.yul\":8342:8511   */\n      swap3\n      swap2\n      pop\n      pop\n      jump\t// out\n        /* \"#utility.yul\":8517:8689   */\n    tag_112:\n        /* \"#utility.yul\":8657:8681   */\n      0x6d746f6b656e207472616e73666572206572726f722100000000000000000000\n        /* \"#utility.yul\":8653:8654   */\n      0x00\n        /* \"#utility.yul\":8645:8651   */\n      dup3\n        /* \"#utility.yul\":8641:8655   */\n      add\n        /* \"#utility.yul\":8634:8682   */\n      mstore\n        /* \"#utility.yul\":8517:8689   */\n      pop\n      jump\t// out\n        /* \"#utility.yul\":8695:9061   */\n    tag_113:\n        /* \"#utility.yul\":8837:8840   */\n      0x00\n        /* \"#utility.yul\":8858:8925   */\n      tag_225\n        /* \"#utility.yul\":8922:8924   */\n      0x16\n        /* \"#utility.yul\":8917:8920   */\n      dup4\n        /* \"#utility.yul\":8858:8925   */\n      tag_111\n      jump\t// in\n    tag_225:\n        /* \"#utility.yul\":8851:8925   */\n      swap2\n      pop\n        /* \"#utility.yul\":8934:9027   */\n      tag_226\n        /* \"#utility.yul\":9023:9026   */\n      dup3\n        /* \"#utility.yul\":8934:9027   */\n      tag_112\n      jump\t// in\n    tag_226:\n        /* \"#utility.yul\":9052:9054   */\n      0x20\n        /* \"#utility.yul\":9047:9050   */\n      dup3\n        /* \"#utility.yul\":9043:9055   */\n      add\n        /* \"#utility.yul\":9036:9055   */\n      swap1\n      pop\n        /* \"#utility.yul\":8695:9061   */\n      swap2\n      swap1\n      pop\n      jump\t// out\n        /* \"#utility.yul\":9067:9486   */\n    tag_59:\n        /* \"#utility.yul\":9233:9237   */\n      0x00\n        /* \"#utility.yul\":9271:9273   */\n      0x20\n        /* \"#utility.yul\":9260:9269   */\n      dup3\n        /* \"#utility.yul\":9256:9274   */\n      add\n        /* \"#utility.yul\":9248:9274   */\n      swap1\n      pop\n        /* \"#utility.yul\":9320:9329   */\n      dup2\n        /* \"#utility.yul\":9314:9318   */\n      dup2\n        /* \"#utility.yul\":9310:9330   */\n      sub\n        /* \"#utility.yul\":9306:9307   */\n      0x00\n        /* \"#utility.yul\":9295:9304   */\n      dup4\n        /* \"#utility.yul\":9291:9308   */\n      add\n        /* \"#utility.yul\":9284:9331   */\n      mstore\n        /* \"#utility.yul\":9348:9479   */\n      tag_228\n        /* \"#utility.yul\":9474:9478   */\n      dup2\n        /* \"#utility.yul\":9348:9479   */\n      tag_113\n      jump\t// in\n    tag_228:\n        /* \"#utility.yul\":9340:9479   */\n      swap1\n      pop\n        /* \"#utility.yul\":9067:9486   */\n      swap2\n      swap1\n      pop\n      jump\t// out\n        /* \"#utility.yul\":9492:9577   */\n    tag_114:\n        /* \"#utility.yul\":9537:9544   */\n      0x00\n        /* \"#utility.yul\":9566:9571   */\n      dup2\n        /* \"#utility.yul\":9555:9571   */\n      swap1\n      pop\n        /* \"#utility.yul\":9492:9577   */\n      swap2\n      swap1\n      pop\n      jump\t// out\n        /* \"#utility.yul\":9583:9643   */\n    tag_115:\n        /* \"#utility.yul\":9611:9614   */\n      0x00\n        /* \"#utility.yul\":9632:9637   */\n      dup2\n        /* \"#utility.yul\":9625:9637   */\n      swap1\n      pop\n        /* \"#utility.yul\":9583:9643   */\n      swap2\n      swap1\n      pop\n      jump\t// out\n        /* \"#utility.yul\":9649:9807   */\n    tag_116:\n        /* \"#utility.yul\":9707:9716   */\n      0x00\n        /* \"#utility.yul\":9740:9801   */\n      tag_232\n        /* \"#utility.yul\":9758:9800   */\n      tag_233\n        /* \"#utility.yul\":9767:9799   */\n      tag_234\n        /* \"#utility.yul\":9793:9798   */\n      dup5\n        /* \"#utility.yul\":9767:9799   */\n      tag_114\n      jump\t// in\n    tag_234:\n        /* \"#utility.yul\":9758:9800   */\n      tag_115\n      jump\t// in\n    tag_233:\n        /* \"#utility.yul\":9740:9801   */\n      tag_90\n      jump\t// in\n    tag_232:\n        /* \"#utility.yul\":9727:9801   */\n      swap1\n      pop\n        /* \"#utility.yul\":9649:9807   */\n      swap2\n      swap1\n      pop\n      jump\t// out\n        /* \"#utility.yul\":9813:9960   */\n    tag_117:\n        /* \"#utility.yul\":9908:9953   */\n      tag_236\n        /* \"#utility.yul\":9947:9952   */\n      dup2\n        /* \"#utility.yul\":9908:9953   */\n      tag_116\n      jump\t// in\n    tag_236:\n        /* \"#utility.yul\":9903:9906   */\n      dup3\n        /* \"#utility.yul\":9896:9954   */\n      mstore\n        /* \"#utility.yul\":9813:9960   */\n      pop\n      pop\n      jump\t// out\n        /* \"#utility.yul\":9966:10773   */\n    tag_61:\n        /* \"#utility.yul\":10215:10219   */\n      0x00\n        /* \"#utility.yul\":10253:10256   */\n      0xc0\n        /* \"#utility.yul\":10242:10251   */\n      dup3\n        /* \"#utility.yul\":10238:10257   */\n      add\n        /* \"#utility.yul\":10230:10257   */\n      swap1\n      pop\n        /* \"#utility.yul\":10267:10338   */\n      tag_238\n        /* \"#utility.yul\":10335:10336   */\n      0x00\n        /* \"#utility.yul\":10324:10333   */\n      dup4\n        /* \"#utility.yul\":10320:10337   */\n      add\n        /* \"#utility.yul\":10311:10317   */\n      dup10\n        /* \"#utility.yul\":10267:10338   */\n      tag_96\n      jump\t// in\n    tag_238:\n        /* \"#utility.yul\":10348:10420   */\n      tag_239\n        /* \"#utility.yul\":10416:10418   */\n      0x20\n        /* \"#utility.yul\":10405:10414   */\n      dup4\n        /* \"#utility.yul\":10401:10419   */\n      add\n        /* \"#utility.yul\":10392:10398   */\n      dup9\n        /* \"#utility.yul\":10348:10420   */\n      tag_93\n      jump\t// in\n    tag_239:\n        /* \"#utility.yul\":10430:10510   */\n      tag_240\n        /* \"#utility.yul\":10506:10508   */\n      0x40\n        /* \"#utility.yul\":10495:10504   */\n      dup4\n        /* \"#utility.yul\":10491:10509   */\n      add\n        /* \"#utility.yul\":10482:10488   */\n      dup8\n        /* \"#utility.yul\":10430:10510   */\n      tag_117\n      jump\t// in\n    tag_240:\n        /* \"#utility.yul\":10520:10600   */\n      tag_241\n        /* \"#utility.yul\":10596:10598   */\n      0x60\n        /* \"#utility.yul\":10585:10594   */\n      dup4\n        /* \"#utility.yul\":10581:10599   */\n      add\n        /* \"#utility.yul\":10572:10578   */\n      dup7\n        /* \"#utility.yul\":10520:10600   */\n      tag_117\n      jump\t// in\n    tag_241:\n        /* \"#utility.yul\":10610:10683   */\n      tag_242\n        /* \"#utility.yul\":10678:10681   */\n      0x80\n        /* \"#utility.yul\":10667:10676   */\n      dup4\n        /* \"#utility.yul\":10663:10682   */\n      add\n        /* \"#utility.yul\":10654:10660   */\n      dup6\n        /* \"#utility.yul\":10610:10683   */\n      tag_96\n      jump\t// in\n    tag_242:\n        /* \"#utility.yul\":10693:10766   */\n      tag_243\n        /* \"#utility.yul\":10761:10764   */\n      0xa0\n        /* \"#utility.yul\":10750:10759   */\n      dup4\n        /* \"#utility.yul\":10746:10765   */\n      add\n        /* \"#utility.yul\":10737:10743   */\n      dup5\n        /* \"#utility.yul\":10693:10766   */\n      tag_93\n      jump\t// in\n    tag_243:\n        /* \"#utility.yul\":9966:10773   */\n      swap8\n      swap7\n      pop\n      pop\n      pop\n      pop\n      pop\n      pop\n      pop\n      jump\t// out\n        /* \"#utility.yul\":10779:11442   */\n    tag_65:\n        /* \"#utility.yul\":10867:10873   */\n      0x00\n        /* \"#utility.yul\":10875:10881   */\n      dup1\n        /* \"#utility.yul\":10883:10889   */\n      0x00\n        /* \"#utility.yul\":10932:10934   */\n      0x60\n        /* \"#utility.yul\":10920:10929   */\n      dup5\n        /* \"#utility.yul\":10911:10918   */\n      dup7\n        /* \"#utility.yul\":10907:10930   */\n      sub\n        /* \"#utility.yul\":10903:10935   */\n      slt\n        /* \"#utility.yul\":10900:11019   */\n      iszero\n      tag_245\n      jumpi\n        /* \"#utility.yul\":10938:11017   */\n      tag_246\n      tag_88\n      jump\t// in\n    tag_246:\n        /* \"#utility.yul\":10900:11019   */\n    tag_245:\n        /* \"#utility.yul\":11058:11059   */\n      0x00\n        /* \"#utility.yul\":11083:11147   */\n      tag_247\n        /* \"#utility.yul\":11139:11146   */\n      dup7\n        /* \"#utility.yul\":11130:11136   */\n      dup3\n        /* \"#utility.yul\":11119:11128   */\n      dup8\n        /* \"#utility.yul\":11115:11137   */\n      add\n        /* \"#utility.yul\":11083:11147   */\n      tag_102\n      jump\t// in\n    tag_247:\n        /* \"#utility.yul\":11073:11147   */\n      swap4\n      pop\n        /* \"#utility.yul\":11029:11157   */\n      pop\n        /* \"#utility.yul\":11196:11198   */\n      0x20\n        /* \"#utility.yul\":11222:11286   */\n      tag_248\n        /* \"#utility.yul\":11278:11285   */\n      dup7\n        /* \"#utility.yul\":11269:11275   */\n      dup3\n        /* \"#utility.yul\":11258:11267   */\n      dup8\n        /* \"#utility.yul\":11254:11276   */\n      add\n        /* \"#utility.yul\":11222:11286   */\n      tag_102\n      jump\t// in\n    tag_248:\n        /* \"#utility.yul\":11212:11286   */\n      swap3\n      pop\n        /* \"#utility.yul\":11167:11296   */\n      pop\n        /* \"#utility.yul\":11335:11337   */\n      0x40\n        /* \"#utility.yul\":11361:11425   */\n      tag_249\n        /* \"#utility.yul\":11417:11424   */\n      dup7\n        /* \"#utility.yul\":11408:11414   */\n      dup3\n        /* \"#utility.yul\":11397:11406   */\n      dup8\n        /* \"#utility.yul\":11393:11415   */\n      add\n        /* \"#utility.yul\":11361:11425   */\n      tag_102\n      jump\t// in\n    tag_249:\n        /* \"#utility.yul\":11351:11425   */\n      swap2\n      pop\n        /* \"#utility.yul\":11306:11435   */\n      pop\n        /* \"#utility.yul\":10779:11442   */\n      swap3\n      pop\n      swap3\n      pop\n      swap3\n      jump\t// out\n        /* \"#utility.yul\":11448:11628   */\n    tag_78:\n        /* \"#utility.yul\":11496:11573   */\n      0x4e487b7100000000000000000000000000000000000000000000000000000000\n        /* \"#utility.yul\":11493:11494   */\n      0x00\n        /* \"#utility.yul\":11486:11574   */\n      mstore\n        /* \"#utility.yul\":11593:11597   */\n      0x32\n        /* \"#utility.yul\":11590:11591   */\n      0x04\n        /* \"#utility.yul\":11583:11598   */\n      mstore\n        /* \"#utility.yul\":11617:11621   */\n      0x24\n        /* \"#utility.yul\":11614:11615   */\n      0x00\n        /* \"#utility.yul\":11607:11622   */\n      revert\n        /* \"#utility.yul\":11634:11748   */\n    tag_118:\n        /* \"#utility.yul\":11701:11707   */\n      0x00\n        /* \"#utility.yul\":11735:11740   */\n      dup2\n        /* \"#utility.yul\":11729:11741   */\n      mload\n        /* \"#utility.yul\":11719:11741   */\n      swap1\n      pop\n        /* \"#utility.yul\":11634:11748   */\n      swap2\n      swap1\n      pop\n      jump\t// out\n        /* \"#utility.yul\":11754:11938   */\n    tag_119:\n        /* \"#utility.yul\":11853:11864   */\n      0x00\n        /* \"#utility.yul\":11887:11893   */\n      dup3\n        /* \"#utility.yul\":11882:11885   */\n      dup3\n        /* \"#utility.yul\":11875:11894   */\n      mstore\n        /* \"#utility.yul\":11927:11931   */\n      0x20\n        /* \"#utility.yul\":11922:11925   */\n      dup3\n        /* \"#utility.yul\":11918:11932   */\n      add\n        /* \"#utility.yul\":11903:11932   */\n      swap1\n      pop\n        /* \"#utility.yul\":11754:11938   */\n      swap3\n      swap2\n      pop\n      pop\n      jump\t// out\n        /* \"#utility.yul\":11944:12076   */\n    tag_120:\n        /* \"#utility.yul\":12011:12015   */\n      0x00\n        /* \"#utility.yul\":12034:12037   */\n      dup2\n        /* \"#utility.yul\":12026:12037   */\n      swap1\n      pop\n        /* \"#utility.yul\":12064:12068   */\n      0x20\n        /* \"#utility.yul\":12059:12062   */\n      dup3\n        /* \"#utility.yul\":12055:12069   */\n      add\n        /* \"#utility.yul\":12047:12069   */\n      swap1\n      pop\n        /* \"#utility.yul\":11944:12076   */\n      swap2\n      swap1\n      pop\n      jump\t// out\n        /* \"#utility.yul\":12082:12190   */\n    tag_121:\n        /* \"#utility.yul\":12159:12183   */\n      tag_255\n        /* \"#utility.yul\":12177:12182   */\n      dup2\n        /* \"#utility.yul\":12159:12183   */\n      tag_95\n      jump\t// in\n    tag_255:\n        /* \"#utility.yul\":12154:12157   */\n      dup3\n        /* \"#utility.yul\":12147:12184   */\n      mstore\n        /* \"#utility.yul\":12082:12190   */\n      pop\n      pop\n      jump\t// out\n        /* \"#utility.yul\":12196:12375   */\n    tag_122:\n        /* \"#utility.yul\":12265:12275   */\n      0x00\n        /* \"#utility.yul\":12286:12332   */\n      tag_257\n        /* \"#utility.yul\":12328:12331   */\n      dup4\n        /* \"#utility.yul\":12320:12326   */\n      dup4\n        /* \"#utility.yul\":12286:12332   */\n      tag_121\n      jump\t// in\n    tag_257:\n        /* \"#utility.yul\":12364:12368   */\n      0x20\n        /* \"#utility.yul\":12359:12362   */\n      dup4\n        /* \"#utility.yul\":12355:12369   */\n      add\n        /* \"#utility.yul\":12341:12369   */\n      swap1\n      pop\n        /* \"#utility.yul\":12196:12375   */\n      swap3\n      swap2\n      pop\n      pop\n      jump\t// out\n        /* \"#utility.yul\":12381:12494   */\n    tag_123:\n        /* \"#utility.yul\":12451:12455   */\n      0x00\n        /* \"#utility.yul\":12483:12487   */\n      0x20\n        /* \"#utility.yul\":12478:12481   */\n      dup3\n        /* \"#utility.yul\":12474:12488   */\n      add\n        /* \"#utility.yul\":12466:12488   */\n      swap1\n      pop\n        /* \"#utility.yul\":12381:12494   */\n      swap2\n      swap1\n      pop\n      jump\t// out\n        /* \"#utility.yul\":12530:13262   */\n    tag_124:\n        /* \"#utility.yul\":12649:12652   */\n      0x00\n        /* \"#utility.yul\":12678:12732   */\n      tag_260\n        /* \"#utility.yul\":12726:12731   */\n      dup3\n        /* \"#utility.yul\":12678:12732   */\n      tag_118\n      jump\t// in\n    tag_260:\n        /* \"#utility.yul\":12748:12834   */\n      tag_261\n        /* \"#utility.yul\":12827:12833   */\n      dup2\n        /* \"#utility.yul\":12822:12825   */\n      dup6\n        /* \"#utility.yul\":12748:12834   */\n      tag_119\n      jump\t// in\n    tag_261:\n        /* \"#utility.yul\":12741:12834   */\n      swap4\n      pop\n        /* \"#utility.yul\":12858:12914   */\n      tag_262\n        /* \"#utility.yul\":12908:12913   */\n      dup4\n        /* \"#utility.yul\":12858:12914   */\n      tag_120\n      jump\t// in\n    tag_262:\n        /* \"#utility.yul\":12937:12944   */\n      dup1\n        /* \"#utility.yul\":12968:12969   */\n      0x00\n        /* \"#utility.yul\":12953:13237   */\n    tag_263:\n        /* \"#utility.yul\":12978:12984   */\n      dup4\n        /* \"#utility.yul\":12975:12976   */\n      dup2\n        /* \"#utility.yul\":12972:12985   */\n      lt\n        /* \"#utility.yul\":12953:13237   */\n      iszero\n      tag_265\n      jumpi\n        /* \"#utility.yul\":13054:13060   */\n      dup2\n        /* \"#utility.yul\":13048:13061   */\n      mload\n        /* \"#utility.yul\":13081:13144   */\n      tag_266\n        /* \"#utility.yul\":13140:13143   */\n      dup9\n        /* \"#utility.yul\":13125:13138   */\n      dup3\n        /* \"#utility.yul\":13081:13144   */\n      tag_122\n      jump\t// in\n    tag_266:\n        /* \"#utility.yul\":13074:13144   */\n      swap8\n      pop\n        /* \"#utility.yul\":13167:13227   */\n      tag_267\n        /* \"#utility.yul\":13220:13226   */\n      dup4\n        /* \"#utility.yul\":13167:13227   */\n      tag_123\n      jump\t// in\n    tag_267:\n        /* \"#utility.yul\":13157:13227   */\n      swap3\n      pop\n        /* \"#utility.yul\":13013:13237   */\n      pop\n        /* \"#utility.yul\":13000:13001   */\n      0x01\n        /* \"#utility.yul\":12997:12998   */\n      dup2\n        /* \"#utility.yul\":12993:13002   */\n      add\n        /* \"#utility.yul\":12988:13002   */\n      swap1\n      pop\n        /* \"#utility.yul\":12953:13237   */\n      jump(tag_263)\n    tag_265:\n        /* \"#utility.yul\":12957:12971   */\n      pop\n        /* \"#utility.yul\":13253:13256   */\n      dup6\n        /* \"#utility.yul\":13246:13256   */\n      swap4\n      pop\n        /* \"#utility.yul\":12654:13262   */\n      pop\n      pop\n      pop\n        /* \"#utility.yul\":12530:13262   */\n      swap3\n      swap2\n      pop\n      pop\n      jump\t// out\n        /* \"#utility.yul\":13268:13972   */\n    tag_82:\n        /* \"#utility.yul\":13495:13499   */\n      0x00\n        /* \"#utility.yul\":13533:13536   */\n      0x80\n        /* \"#utility.yul\":13522:13531   */\n      dup3\n        /* \"#utility.yul\":13518:13537   */\n      add\n        /* \"#utility.yul\":13510:13537   */\n      swap1\n      pop\n        /* \"#utility.yul\":13547:13618   */\n      tag_269\n        /* \"#utility.yul\":13615:13616   */\n      0x00\n        /* \"#utility.yul\":13604:13613   */\n      dup4\n        /* \"#utility.yul\":13600:13617   */\n      add\n        /* \"#utility.yul\":13591:13597   */\n      dup8\n        /* \"#utility.yul\":13547:13618   */\n      tag_93\n      jump\t// in\n    tag_269:\n        /* \"#utility.yul\":13665:13674   */\n      dup2\n        /* \"#utility.yul\":13659:13663   */\n      dup2\n        /* \"#utility.yul\":13655:13675   */\n      sub\n        /* \"#utility.yul\":13650:13652   */\n      0x20\n        /* \"#utility.yul\":13639:13648   */\n      dup4\n        /* \"#utility.yul\":13635:13653   */\n      add\n        /* \"#utility.yul\":13628:13676   */\n      mstore\n        /* \"#utility.yul\":13693:13801   */\n      tag_270\n        /* \"#utility.yul\":13796:13800   */\n      dup2\n        /* \"#utility.yul\":13787:13793   */\n      dup7\n        /* \"#utility.yul\":13693:13801   */\n      tag_124\n      jump\t// in\n    tag_270:\n        /* \"#utility.yul\":13685:13801   */\n      swap1\n      pop\n        /* \"#utility.yul\":13811:13883   */\n      tag_271\n        /* \"#utility.yul\":13879:13881   */\n      0x40\n        /* \"#utility.yul\":13868:13877   */\n      dup4\n        /* \"#utility.yul\":13864:13882   */\n      add\n        /* \"#utility.yul\":13855:13861   */\n      dup6\n        /* \"#utility.yul\":13811:13883   */\n      tag_96\n      jump\t// in\n    tag_271:\n        /* \"#utility.yul\":13893:13965   */\n      tag_272\n        /* \"#utility.yul\":13961:13963   */\n      0x60\n        /* \"#utility.yul\":13950:13959   */\n      dup4\n        /* \"#utility.yul\":13946:13964   */\n      add\n        /* \"#utility.yul\":13937:13943   */\n      dup5\n        /* \"#utility.yul\":13893:13965   */\n      tag_93\n      jump\t// in\n    tag_272:\n        /* \"#utility.yul\":13268:13972   */\n      swap6\n      swap5\n      pop\n      pop\n      pop\n      pop\n      pop\n      jump\t// out\n        /* \"#utility.yul\":13978:14095   */\n    tag_125:\n        /* \"#utility.yul\":14087:14088   */\n      0x00\n        /* \"#utility.yul\":14084:14085   */\n      dup1\n        /* \"#utility.yul\":14077:14089   */\n      revert\n        /* \"#utility.yul\":14101:14412   */\n    tag_126:\n        /* \"#utility.yul\":14178:14182   */\n      0x00\n        /* \"#utility.yul\":14268:14286   */\n      0xffffffffffffffff\n        /* \"#utility.yul\":14260:14266   */\n      dup3\n        /* \"#utility.yul\":14257:14287   */\n      gt\n        /* \"#utility.yul\":14254:14310   */\n      iszero\n      tag_275\n      jumpi\n        /* \"#utility.yul\":14290:14308   */\n      tag_276\n      tag_74\n      jump\t// in\n    tag_276:\n        /* \"#utility.yul\":14254:14310   */\n    tag_275:\n        /* \"#utility.yul\":14340:14344   */\n      0x20\n        /* \"#utility.yul\":14332:14338   */\n      dup3\n        /* \"#utility.yul\":14328:14345   */\n      mul\n        /* \"#utility.yul\":14320:14345   */\n      swap1\n      pop\n        /* \"#utility.yul\":14400:14404   */\n      0x20\n        /* \"#utility.yul\":14394:14398   */\n      dup2\n        /* \"#utility.yul\":14390:14405   */\n      add\n        /* \"#utility.yul\":14382:14405   */\n      swap1\n      pop\n        /* \"#utility.yul\":14101:14412   */\n      swap2\n      swap1\n      pop\n      jump\t// out\n        /* \"#utility.yul\":14418:14535   */\n    tag_127:\n        /* \"#utility.yul\":14527:14528   */\n      0x00\n        /* \"#utility.yul\":14524:14525   */\n      dup1\n        /* \"#utility.yul\":14517:14529   */\n      revert\n        /* \"#utility.yul\":14558:15290   */\n    tag_128:\n        /* \"#utility.yul\":14665:14670   */\n      0x00\n        /* \"#utility.yul\":14690:14771   */\n      tag_279\n        /* \"#utility.yul\":14706:14770   */\n      tag_280\n        /* \"#utility.yul\":14763:14769   */\n      dup5\n        /* \"#utility.yul\":14706:14770   */\n      tag_126\n      jump\t// in\n    tag_280:\n        /* \"#utility.yul\":14690:14771   */\n      tag_100\n      jump\t// in\n    tag_279:\n        /* \"#utility.yul\":14681:14771   */\n      swap1\n      pop\n        /* \"#utility.yul\":14791:14796   */\n      dup1\n        /* \"#utility.yul\":14820:14826   */\n      dup4\n        /* \"#utility.yul\":14813:14818   */\n      dup3\n        /* \"#utility.yul\":14806:14827   */\n      mstore\n        /* \"#utility.yul\":14854:14858   */\n      0x20\n        /* \"#utility.yul\":14847:14852   */\n      dup3\n        /* \"#utility.yul\":14843:14859   */\n      add\n        /* \"#utility.yul\":14836:14859   */\n      swap1\n      pop\n        /* \"#utility.yul\":14907:14911   */\n      0x20\n        /* \"#utility.yul\":14899:14905   */\n      dup5\n        /* \"#utility.yul\":14895:14912   */\n      mul\n        /* \"#utility.yul\":14887:14893   */\n      dup4\n        /* \"#utility.yul\":14883:14913   */\n      add\n        /* \"#utility.yul\":14936:14939   */\n      dup6\n        /* \"#utility.yul\":14928:14934   */\n      dup2\n        /* \"#utility.yul\":14925:14940   */\n      gt\n        /* \"#utility.yul\":14922:15044   */\n      iszero\n      tag_281\n      jumpi\n        /* \"#utility.yul\":14955:15034   */\n      tag_282\n      tag_127\n      jump\t// in\n    tag_282:\n        /* \"#utility.yul\":14922:15044   */\n    tag_281:\n        /* \"#utility.yul\":15070:15076   */\n      dup4\n        /* \"#utility.yul\":15053:15284   */\n    tag_283:\n        /* \"#utility.yul\":15087:15093   */\n      dup2\n        /* \"#utility.yul\":15082:15085   */\n      dup2\n        /* \"#utility.yul\":15079:15094   */\n      lt\n        /* \"#utility.yul\":15053:15284   */\n      iszero\n      tag_285\n      jumpi\n        /* \"#utility.yul\":15162:15165   */\n      dup1\n        /* \"#utility.yul\":15191:15239   */\n      tag_286\n        /* \"#utility.yul\":15235:15238   */\n      dup9\n        /* \"#utility.yul\":15223:15233   */\n      dup3\n        /* \"#utility.yul\":15191:15239   */\n      tag_102\n      jump\t// in\n    tag_286:\n        /* \"#utility.yul\":15186:15189   */\n      dup5\n        /* \"#utility.yul\":15179:15240   */\n      mstore\n        /* \"#utility.yul\":15269:15273   */\n      0x20\n        /* \"#utility.yul\":15264:15267   */\n      dup5\n        /* \"#utility.yul\":15260:15274   */\n      add\n        /* \"#utility.yul\":15253:15274   */\n      swap4\n      pop\n        /* \"#utility.yul\":15129:15284   */\n      pop\n        /* \"#utility.yul\":15113:15117   */\n      0x20\n        /* \"#utility.yul\":15108:15111   */\n      dup2\n        /* \"#utility.yul\":15104:15118   */\n      add\n        /* \"#utility.yul\":15097:15118   */\n      swap1\n      pop\n        /* \"#utility.yul\":15053:15284   */\n      jump(tag_283)\n    tag_285:\n        /* \"#utility.yul\":15057:15078   */\n      pop\n        /* \"#utility.yul\":14671:15290   */\n      pop\n      pop\n        /* \"#utility.yul\":14558:15290   */\n      swap4\n      swap3\n      pop\n      pop\n      pop\n      jump\t// out\n        /* \"#utility.yul\":15313:15698   */\n    tag_129:\n        /* \"#utility.yul\":15395:15400   */\n      0x00\n        /* \"#utility.yul\":15444:15447   */\n      dup3\n        /* \"#utility.yul\":15437:15441   */\n      0x1f\n        /* \"#utility.yul\":15429:15435   */\n      dup4\n        /* \"#utility.yul\":15425:15442   */\n      add\n        /* \"#utility.yul\":15421:15448   */\n      slt\n        /* \"#utility.yul\":15411:15533   */\n      tag_288\n      jumpi\n        /* \"#utility.yul\":15452:15531   */\n      tag_289\n      tag_125\n      jump\t// in\n    tag_289:\n        /* \"#utility.yul\":15411:15533   */\n    tag_288:\n        /* \"#utility.yul\":15562:15568   */\n      dup2\n        /* \"#utility.yul\":15556:15569   */\n      mload\n        /* \"#utility.yul\":15587:15692   */\n      tag_290\n        /* \"#utility.yul\":15688:15691   */\n      dup5\n        /* \"#utility.yul\":15680:15686   */\n      dup3\n        /* \"#utility.yul\":15673:15677   */\n      0x20\n        /* \"#utility.yul\":15665:15671   */\n      dup7\n        /* \"#utility.yul\":15661:15678   */\n      add\n        /* \"#utility.yul\":15587:15692   */\n      tag_128\n      jump\t// in\n    tag_290:\n        /* \"#utility.yul\":15578:15692   */\n      swap2\n      pop\n        /* \"#utility.yul\":15401:15698   */\n      pop\n        /* \"#utility.yul\":15313:15698   */\n      swap3\n      swap2\n      pop\n      pop\n      jump\t// out\n        /* \"#utility.yul\":15704:16258   */\n    tag_86:\n        /* \"#utility.yul\":15799:15805   */\n      0x00\n        /* \"#utility.yul\":15848:15850   */\n      0x20\n        /* \"#utility.yul\":15836:15845   */\n      dup3\n        /* \"#utility.yul\":15827:15834   */\n      dup5\n        /* \"#utility.yul\":15823:15846   */\n      sub\n        /* \"#utility.yul\":15819:15851   */\n      slt\n        /* \"#utility.yul\":15816:15935   */\n      iszero\n      tag_292\n      jumpi\n        /* \"#utility.yul\":15854:15933   */\n      tag_293\n      tag_88\n      jump\t// in\n    tag_293:\n        /* \"#utility.yul\":15816:15935   */\n    tag_292:\n        /* \"#utility.yul\":15995:15996   */\n      0x00\n        /* \"#utility.yul\":15984:15993   */\n      dup3\n        /* \"#utility.yul\":15980:15997   */\n      add\n        /* \"#utility.yul\":15974:15998   */\n      mload\n        /* \"#utility.yul\":16025:16043   */\n      0xffffffffffffffff\n        /* \"#utility.yul\":16017:16023   */\n      dup2\n        /* \"#utility.yul\":16014:16044   */\n      gt\n        /* \"#utility.yul\":16011:16128   */\n      iszero\n      tag_294\n      jumpi\n        /* \"#utility.yul\":16047:16126   */\n      tag_295\n      tag_89\n      jump\t// in\n    tag_295:\n        /* \"#utility.yul\":16011:16128   */\n    tag_294:\n        /* \"#utility.yul\":16152:16241   */\n      tag_296\n        /* \"#utility.yul\":16233:16240   */\n      dup5\n        /* \"#utility.yul\":16224:16230   */\n      dup3\n        /* \"#utility.yul\":16213:16222   */\n      dup6\n        /* \"#utility.yul\":16209:16231   */\n      add\n        /* \"#utility.yul\":16152:16241   */\n      tag_129\n      jump\t// in\n    tag_296:\n        /* \"#utility.yul\":16142:16241   */\n      swap2\n      pop\n        /* \"#utility.yul\":15945:16251   */\n      pop\n        /* \"#utility.yul\":15704:16258   */\n      swap3\n      swap2\n      pop\n      pop\n      jump\t// out\n\n    auxdata: 0xa2646970667358221220cb1922efefa4d8a85216d21bfdc893c4aaea35421dcf8050b7f591f1331a347b64736f6c634300080d0033\n}\n",
				"bytecode": {
					"linkReferences": {},
					"object": "6080604052737a250d5630b4cf539739df2c5dacb4c659f2488d6000806101000a81548173ffffffffffffffffffffffffffffffffffffffff021916908373ffffffffffffffffffffffffffffffffffffffff16021790555073c778417e063141139fce010982780140aa0cd5ab600160006101000a81548173ffffffffffffffffffffffffffffffffffffffff021916908373ffffffffffffffffffffffffffffffffffffffff16021790555073549f978c19a5ac86d906052639e317b57724ef44600260006101000a81548173ffffffffffffffffffffffffffffffffffffffff021916908373ffffffffffffffffffffffffffffffffffffffff16021790555073f42a08c0ea66ee4a474336087a6c17e9ea6c9de9600360006101000a81548173ffffffffffffffffffffffffffffffffffffffff021916908373ffffffffffffffffffffffffffffffffffffffff16021790555073d9dfa8c6b37cfdf16668fe0465896f4a1b9b2c4f600460006101000a81548173ffffffffffffffffffffffffffffffffffffffff021916908373ffffffffffffffffffffffffffffffffffffffff16021790555060008054906101000a900473ffffffffffffffffffffffffffffffffffffffff16600560006101000a81548173ffffffffffffffffffffffffffffffffffffffff021916908373ffffffffffffffffffffffffffffffffffffffff160217905550600260009054906101000a900473ffffffffffffffffffffffffffffffffffffffff16600660006101000a81548173ffffffffffffffffffffffffffffffffffffffff021916908373ffffffffffffffffffffffffffffffffffffffff160217905550600460009054906101000a900473ffffffffffffffffffffffffffffffffffffffff16600760006101000a81548173ffffffffffffffffffffffffffffffffffffffff021916908373ffffffffffffffffffffffffffffffffffffffff1602179055503480156102df57600080fd5b50611067806102ef6000396000f3fe60806040526004361061003f5760003560e01c80632e1a7d4d1461004457806351c6590a1461006d578063881e7a971461009d578063a93f74e0146100c6575b600080fd5b34801561005057600080fd5b5061006b60048036038101906100669190610885565b6100e2565b005b61008760048036038101906100829190610885565b610342565b60405161009491906108c1565b60405180910390f35b3480156100a957600080fd5b506100c460048036038101906100bf91906108dc565b6105c9565b005b6100e060048036038101906100db9190610885565b61065c565b005b6000600760009054906101000a900473ffffffffffffffffffffffffffffffffffffffff1673ffffffffffffffffffffffffffffffffffffffff16631959a002336040518263ffffffff1660e01b815260040161013f919061095d565b6040805180830381865afa15801561015b573d6000803e3d6000fd5b505050506040513d601f19601f8201168201806040525081019061017f9190610a6e565b90506000600760009054906101000a900473ffffffffffffffffffffffffffffffffffffffff1673ffffffffffffffffffffffffffffffffffffffff16631526fe27846040518263ffffffff1660e01b81526004016101de91906108c1565b608060405180830381865afa1580156101fb573d6000803e3d6000fd5b505050506040513d601f19601f8201168201806040525081019061021f9190610b51565b9050600760009054906101000a900473ffffffffffffffffffffffffffffffffffffffff1673ffffffffffffffffffffffffffffffffffffffff1663441a3e708484600001516040518363ffffffff1660e01b8152600401610282929190610b7e565b600060405180830381600087803b15801561029c57600080fd5b505af11580156102b0573d6000803e3d6000fd5b50505050806000015173ffffffffffffffffffffffffffffffffffffffff166323b872dd303385600001516040518463ffffffff1660e01b81526004016102f993929190610ba7565b6020604051808303816000875af1158015610318573d6000803e3d6000fd5b505050506040513d601f19601f8201168201806040525081019061033c9190610c16565b50505050565b6000600660009054906101000a900473ffffffffffffffffffffffffffffffffffffffff1673ffffffffffffffffffffffffffffffffffffffff1663095ea7b3600560009054906101000a900473ffffffffffffffffffffffffffffffffffffffff16846040518363ffffffff1660e01b81526004016103c3929190610c43565b6020604051808303816000875af11580156103e2573d6000803e3d6000fd5b505050506040513d601f19601f820116820180604052508101906104069190610c16565b506000600660009054906101000a900473ffffffffffffffffffffffffffffffffffffffff1673ffffffffffffffffffffffffffffffffffffffff166323b872dd3330866040518463ffffffff1660e01b815260040161046893929190610ba7565b6020604051808303816000875af1158015610487573d6000803e3d6000fd5b505050506040513d601f19601f820116820180604052508101906104ab9190610c16565b9050806104ed576040517f08c379a00000000000000000000000000000000000000000000000000000000081526004016104e490610cc9565b60405180910390fd5b6000600560009054906101000a900473ffffffffffffffffffffffffffffffffffffffff1673ffffffffffffffffffffffffffffffffffffffff1663f305d71934600260009054906101000a900473ffffffffffffffffffffffffffffffffffffffff168760008033426040518863ffffffff1660e01b815260040161057896959493929190610d2e565b60606040518083038185885af1158015610596573d6000803e3d6000fd5b50505050506040513d601f19601f820116820180604052508101906105bb9190610d8f565b505090508092505050919050565b600760009054906101000a900473ffffffffffffffffffffffffffffffffffffffff1673ffffffffffffffffffffffffffffffffffffffff1663e2bbb15883836040518363ffffffff1660e01b8152600401610626929190610b7e565b600060405180830381600087803b15801561064057600080fd5b505af1158015610654573d6000803e3d6000fd5b505050505050565b6000600267ffffffffffffffff8111156106795761067861098e565b5b6040519080825280602002602001820160405280156106a75781602001602082028036833780820191505090505b509050600160009054906101000a900473ffffffffffffffffffffffffffffffffffffffff16816000815181106106e1576106e0610de2565b5b602002602001019073ffffffffffffffffffffffffffffffffffffffff16908173ffffffffffffffffffffffffffffffffffffffff1681525050600260009054906101000a900473ffffffffffffffffffffffffffffffffffffffff168160018151811061075257610751610de2565b5b602002602001019073ffffffffffffffffffffffffffffffffffffffff16908173ffffffffffffffffffffffffffffffffffffffff1681525050600560009054906101000a900473ffffffffffffffffffffffffffffffffffffffff1673ffffffffffffffffffffffffffffffffffffffff16637ff36ab534848433426040518663ffffffff1660e01b81526004016107ee9493929190610ecf565b60006040518083038185885af115801561080c573d6000803e3d6000fd5b50505050506040513d6000823e3d601f19601f820116820180604052508101906108369190610fe8565b505050565b6000604051905090565b600080fd5b600080fd5b6000819050919050565b6108628161084f565b811461086d57600080fd5b50565b60008135905061087f81610859565b92915050565b60006020828403121561089b5761089a610845565b5b60006108a984828501610870565b91505092915050565b6108bb8161084f565b82525050565b60006020820190506108d660008301846108b2565b92915050565b600080604083850312156108f3576108f2610845565b5b600061090185828601610870565b925050602061091285828601610870565b9150509250929050565b600073ffffffffffffffffffffffffffffffffffffffff82169050919050565b60006109478261091c565b9050919050565b6109578161093c565b82525050565b6000602082019050610972600083018461094e565b92915050565b600080fd5b6000601f19601f8301169050919050565b7f4e487b7100000000000000000000000000000000000000000000000000000000600052604160045260246000fd5b6109c68261097d565b810181811067ffffffffffffffff821117156109e5576109e461098e565b5b80604052505050565b60006109f861083b565b9050610a0482826109bd565b919050565b600081519050610a1881610859565b92915050565b600060408284031215610a3457610a33610978565b5b610a3e60406109ee565b90506000610a4e84828501610a09565b6000830152506020610a6284828501610a09565b60208301525092915050565b600060408284031215610a8457610a83610845565b5b6000610a9284828501610a1e565b91505092915050565b6000610aa68261093c565b9050919050565b610ab681610a9b565b8114610ac157600080fd5b50565b600081519050610ad381610aad565b92915050565b600060808284031215610aef57610aee610978565b5b610af960806109ee565b90506000610b0984828501610ac4565b6000830152506020610b1d84828501610a09565b6020830152506040610b3184828501610a09565b6040830152506060610b4584828501610a09565b60608301525092915050565b600060808284031215610b6757610b66610845565b5b6000610b7584828501610ad9565b91505092915050565b6000604082019050610b9360008301856108b2565b610ba060208301846108b2565b9392505050565b6000606082019050610bbc600083018661094e565b610bc9602083018561094e565b610bd660408301846108b2565b949350505050565b60008115159050919050565b610bf381610bde565b8114610bfe57600080fd5b50565b600081519050610c1081610bea565b92915050565b600060208284031215610c2c57610c2b610845565b5b6000610c3a84828501610c01565b91505092915050565b6000604082019050610c58600083018561094e565b610c6560208301846108b2565b9392505050565b600082825260208201905092915050565b7f6d746f6b656e207472616e73666572206572726f722100000000000000000000600082015250565b6000610cb3601683610c6c565b9150610cbe82610c7d565b602082019050919050565b60006020820190508181036000830152610ce281610ca6565b9050919050565b6000819050919050565b6000819050919050565b6000610d18610d13610d0e84610ce9565b610cf3565b61084f565b9050919050565b610d2881610cfd565b82525050565b600060c082019050610d43600083018961094e565b610d5060208301886108b2565b610d5d6040830187610d1f565b610d6a6060830186610d1f565b610d77608083018561094e565b610d8460a08301846108b2565b979650505050505050565b600080600060608486031215610da857610da7610845565b5b6000610db686828701610a09565b9350506020610dc786828701610a09565b9250506040610dd886828701610a09565b9150509250925092565b7f4e487b7100000000000000000000000000000000000000000000000000000000600052603260045260246000fd5b600081519050919050565b600082825260208201905092915050565b6000819050602082019050919050565b610e468161093c565b82525050565b6000610e588383610e3d565b60208301905092915050565b6000602082019050919050565b6000610e7c82610e11565b610e868185610e1c565b9350610e9183610e2d565b8060005b83811015610ec2578151610ea98882610e4c565b9750610eb483610e64565b925050600181019050610e95565b5085935050505092915050565b6000608082019050610ee460008301876108b2565b8181036020830152610ef68186610e71565b9050610f05604083018561094e565b610f1260608301846108b2565b95945050505050565b600080fd5b600067ffffffffffffffff821115610f3b57610f3a61098e565b5b602082029050602081019050919050565b600080fd5b6000610f64610f5f84610f20565b6109ee565b90508083825260208201905060208402830185811115610f8757610f86610f4c565b5b835b81811015610fb05780610f9c8882610a09565b845260208401935050602081019050610f89565b5050509392505050565b600082601f830112610fcf57610fce610f1b565b5b8151610fdf848260208601610f51565b91505092915050565b600060208284031215610ffe57610ffd610845565b5b600082015167ffffffffffffffff81111561101c5761101b61084a565b5b61102884828501610fba565b9150509291505056fea2646970667358221220cb1922efefa4d8a85216d21bfdc893c4aaea35421dcf8050b7f591f1331a347b64736f6c634300080d0033",
					"opcodes": "PUSH1 0x80 PUSH1 0x40 MSTORE PUSH20 0x7A250D5630B4CF539739DF2C5DACB4C659F2488D PUSH1 0x0 DUP1 PUSH2 0x100 EXP DUP2 SLOAD DUP2 PUSH20 0xFFFFFFFFFFFFFFFFFFFFFFFFFFFFFFFFFFFFFFFF MUL NOT AND SWAP1 DUP4 PUSH20 0xFFFFFFFFFFFFFFFFFFFFFFFFFFFFFFFFFFFFFFFF AND MUL OR SWAP1 SSTORE POP PUSH20 0xC778417E063141139FCE010982780140AA0CD5AB PUSH1 0x1 PUSH1 0x0 PUSH2 0x100 EXP DUP2 SLOAD DUP2 PUSH20 0xFFFFFFFFFFFFFFFFFFFFFFFFFFFFFFFFFFFFFFFF MUL NOT AND SWAP1 DUP4 PUSH20 0xFFFFFFFFFFFFFFFFFFFFFFFFFFFFFFFFFFFFFFFF AND MUL OR SWAP1 SSTORE POP PUSH20 0x549F978C19A5AC86D906052639E317B57724EF44 PUSH1 0x2 PUSH1 0x0 PUSH2 0x100 EXP DUP2 SLOAD DUP2 PUSH20 0xFFFFFFFFFFFFFFFFFFFFFFFFFFFFFFFFFFFFFFFF MUL NOT AND SWAP1 DUP4 PUSH20 0xFFFFFFFFFFFFFFFFFFFFFFFFFFFFFFFFFFFFFFFF AND MUL OR SWAP1 SSTORE POP PUSH20 0xF42A08C0EA66EE4A474336087A6C17E9EA6C9DE9 PUSH1 0x3 PUSH1 0x0 PUSH2 0x100 EXP DUP2 SLOAD DUP2 PUSH20 0xFFFFFFFFFFFFFFFFFFFFFFFFFFFFFFFFFFFFFFFF MUL NOT AND SWAP1 DUP4 PUSH20 0xFFFFFFFFFFFFFFFFFFFFFFFFFFFFFFFFFFFFFFFF AND MUL OR SWAP1 SSTORE POP PUSH20 0xD9DFA8C6B37CFDF16668FE0465896F4A1B9B2C4F PUSH1 0x4 PUSH1 0x0 PUSH2 0x100 EXP DUP2 SLOAD DUP2 PUSH20 0xFFFFFFFFFFFFFFFFFFFFFFFFFFFFFFFFFFFFFFFF MUL NOT AND SWAP1 DUP4 PUSH20 0xFFFFFFFFFFFFFFFFFFFFFFFFFFFFFFFFFFFFFFFF AND MUL OR SWAP1 SSTORE POP PUSH1 0x0 DUP1 SLOAD SWAP1 PUSH2 0x100 EXP SWAP1 DIV PUSH20 0xFFFFFFFFFFFFFFFFFFFFFFFFFFFFFFFFFFFFFFFF AND PUSH1 0x5 PUSH1 0x0 PUSH2 0x100 EXP DUP2 SLOAD DUP2 PUSH20 0xFFFFFFFFFFFFFFFFFFFFFFFFFFFFFFFFFFFFFFFF MUL NOT AND SWAP1 DUP4 PUSH20 0xFFFFFFFFFFFFFFFFFFFFFFFFFFFFFFFFFFFFFFFF AND MUL OR SWAP1 SSTORE POP PUSH1 0x2 PUSH1 0x0 SWAP1 SLOAD SWAP1 PUSH2 0x100 EXP SWAP1 DIV PUSH20 0xFFFFFFFFFFFFFFFFFFFFFFFFFFFFFFFFFFFFFFFF AND PUSH1 0x6 PUSH1 0x0 PUSH2 0x100 EXP DUP2 SLOAD DUP2 PUSH20 0xFFFFFFFFFFFFFFFFFFFFFFFFFFFFFFFFFFFFFFFF MUL NOT AND SWAP1 DUP4 PUSH20 0xFFFFFFFFFFFFFFFFFFFFFFFFFFFFFFFFFFFFFFFF AND MUL OR SWAP1 SSTORE POP PUSH1 0x4 PUSH1 0x0 SWAP1 SLOAD SWAP1 PUSH2 0x100 EXP SWAP1 DIV PUSH20 0xFFFFFFFFFFFFFFFFFFFFFFFFFFFFFFFFFFFFFFFF AND PUSH1 0x7 PUSH1 0x0 PUSH2 0x100 EXP DUP2 SLOAD DUP2 PUSH20 0xFFFFFFFFFFFFFFFFFFFFFFFFFFFFFFFFFFFFFFFF MUL NOT AND SWAP1 DUP4 PUSH20 0xFFFFFFFFFFFFFFFFFFFFFFFFFFFFFFFFFFFFFFFF AND MUL OR SWAP1 SSTORE POP CALLVALUE DUP1 ISZERO PUSH2 0x2DF JUMPI PUSH1 0x0 DUP1 REVERT JUMPDEST POP PUSH2 0x1067 DUP1 PUSH2 0x2EF PUSH1 0x0 CODECOPY PUSH1 0x0 RETURN INVALID PUSH1 0x80 PUSH1 0x40 MSTORE PUSH1 0x4 CALLDATASIZE LT PUSH2 0x3F JUMPI PUSH1 0x0 CALLDATALOAD PUSH1 0xE0 SHR DUP1 PUSH4 0x2E1A7D4D EQ PUSH2 0x44 JUMPI DUP1 PUSH4 0x51C6590A EQ PUSH2 0x6D JUMPI DUP1 PUSH4 0x881E7A97 EQ PUSH2 0x9D JUMPI DUP1 PUSH4 0xA93F74E0 EQ PUSH2 0xC6 JUMPI JUMPDEST PUSH1 0x0 DUP1 REVERT JUMPDEST CALLVALUE DUP1 ISZERO PUSH2 0x50 JUMPI PUSH1 0x0 DUP1 REVERT JUMPDEST POP PUSH2 0x6B PUSH1 0x4 DUP1 CALLDATASIZE SUB DUP2 ADD SWAP1 PUSH2 0x66 SWAP2 SWAP1 PUSH2 0x885 JUMP JUMPDEST PUSH2 0xE2 JUMP JUMPDEST STOP JUMPDEST PUSH2 0x87 PUSH1 0x4 DUP1 CALLDATASIZE SUB DUP2 ADD SWAP1 PUSH2 0x82 SWAP2 SWAP1 PUSH2 0x885 JUMP JUMPDEST PUSH2 0x342 JUMP JUMPDEST PUSH1 0x40 MLOAD PUSH2 0x94 SWAP2 SWAP1 PUSH2 0x8C1 JUMP JUMPDEST PUSH1 0x40 MLOAD DUP1 SWAP2 SUB SWAP1 RETURN JUMPDEST CALLVALUE DUP1 ISZERO PUSH2 0xA9 JUMPI PUSH1 0x0 DUP1 REVERT JUMPDEST POP PUSH2 0xC4 PUSH1 0x4 DUP1 CALLDATASIZE SUB DUP2 ADD SWAP1 PUSH2 0xBF SWAP2 SWAP1 PUSH2 0x8DC JUMP JUMPDEST PUSH2 0x5C9 JUMP JUMPDEST STOP JUMPDEST PUSH2 0xE0 PUSH1 0x4 DUP1 CALLDATASIZE SUB DUP2 ADD SWAP1 PUSH2 0xDB SWAP2 SWAP1 PUSH2 0x885 JUMP JUMPDEST PUSH2 0x65C JUMP JUMPDEST STOP JUMPDEST PUSH1 0x0 PUSH1 0x7 PUSH1 0x0 SWAP1 SLOAD SWAP1 PUSH2 0x100 EXP SWAP1 DIV PUSH20 0xFFFFFFFFFFFFFFFFFFFFFFFFFFFFFFFFFFFFFFFF AND PUSH20 0xFFFFFFFFFFFFFFFFFFFFFFFFFFFFFFFFFFFFFFFF AND PUSH4 0x1959A002 CALLER PUSH1 0x40 MLOAD DUP3 PUSH4 0xFFFFFFFF AND PUSH1 0xE0 SHL DUP2 MSTORE PUSH1 0x4 ADD PUSH2 0x13F SWAP2 SWAP1 PUSH2 0x95D JUMP JUMPDEST PUSH1 0x40 DUP1 MLOAD DUP1 DUP4 SUB DUP2 DUP7 GAS STATICCALL ISZERO DUP1 ISZERO PUSH2 0x15B JUMPI RETURNDATASIZE PUSH1 0x0 DUP1 RETURNDATACOPY RETURNDATASIZE PUSH1 0x0 REVERT JUMPDEST POP POP POP POP PUSH1 0x40 MLOAD RETURNDATASIZE PUSH1 0x1F NOT PUSH1 0x1F DUP3 ADD AND DUP3 ADD DUP1 PUSH1 0x40 MSTORE POP DUP2 ADD SWAP1 PUSH2 0x17F SWAP2 SWAP1 PUSH2 0xA6E JUMP JUMPDEST SWAP1 POP PUSH1 0x0 PUSH1 0x7 PUSH1 0x0 SWAP1 SLOAD SWAP1 PUSH2 0x100 EXP SWAP1 DIV PUSH20 0xFFFFFFFFFFFFFFFFFFFFFFFFFFFFFFFFFFFFFFFF AND PUSH20 0xFFFFFFFFFFFFFFFFFFFFFFFFFFFFFFFFFFFFFFFF AND PUSH4 0x1526FE27 DUP5 PUSH1 0x40 MLOAD DUP3 PUSH4 0xFFFFFFFF AND PUSH1 0xE0 SHL DUP2 MSTORE PUSH1 0x4 ADD PUSH2 0x1DE SWAP2 SWAP1 PUSH2 0x8C1 JUMP JUMPDEST PUSH1 0x80 PUSH1 0x40 MLOAD DUP1 DUP4 SUB DUP2 DUP7 GAS STATICCALL ISZERO DUP1 ISZERO PUSH2 0x1FB JUMPI RETURNDATASIZE PUSH1 0x0 DUP1 RETURNDATACOPY RETURNDATASIZE PUSH1 0x0 REVERT JUMPDEST POP POP POP POP PUSH1 0x40 MLOAD RETURNDATASIZE PUSH1 0x1F NOT PUSH1 0x1F DUP3 ADD AND DUP3 ADD DUP1 PUSH1 0x40 MSTORE POP DUP2 ADD SWAP1 PUSH2 0x21F SWAP2 SWAP1 PUSH2 0xB51 JUMP JUMPDEST SWAP1 POP PUSH1 0x7 PUSH1 0x0 SWAP1 SLOAD SWAP1 PUSH2 0x100 EXP SWAP1 DIV PUSH20 0xFFFFFFFFFFFFFFFFFFFFFFFFFFFFFFFFFFFFFFFF AND PUSH20 0xFFFFFFFFFFFFFFFFFFFFFFFFFFFFFFFFFFFFFFFF AND PUSH4 0x441A3E70 DUP5 DUP5 PUSH1 0x0 ADD MLOAD PUSH1 0x40 MLOAD DUP4 PUSH4 0xFFFFFFFF AND PUSH1 0xE0 SHL DUP2 MSTORE PUSH1 0x4 ADD PUSH2 0x282 SWAP3 SWAP2 SWAP1 PUSH2 0xB7E JUMP JUMPDEST PUSH1 0x0 PUSH1 0x40 MLOAD DUP1 DUP4 SUB DUP2 PUSH1 0x0 DUP8 DUP1 EXTCODESIZE ISZERO DUP1 ISZERO PUSH2 0x29C JUMPI PUSH1 0x0 DUP1 REVERT JUMPDEST POP GAS CALL ISZERO DUP1 ISZERO PUSH2 0x2B0 JUMPI RETURNDATASIZE PUSH1 0x0 DUP1 RETURNDATACOPY RETURNDATASIZE PUSH1 0x0 REVERT JUMPDEST POP POP POP POP DUP1 PUSH1 0x0 ADD MLOAD PUSH20 0xFFFFFFFFFFFFFFFFFFFFFFFFFFFFFFFFFFFFFFFF AND PUSH4 0x23B872DD ADDRESS CALLER DUP6 PUSH1 0x0 ADD MLOAD PUSH1 0x40 MLOAD DUP5 PUSH4 0xFFFFFFFF AND PUSH1 0xE0 SHL DUP2 MSTORE PUSH1 0x4 ADD PUSH2 0x2F9 SWAP4 SWAP3 SWAP2 SWAP1 PUSH2 0xBA7 JUMP JUMPDEST PUSH1 0x20 PUSH1 0x40 MLOAD DUP1 DUP4 SUB DUP2 PUSH1 0x0 DUP8 GAS CALL ISZERO DUP1 ISZERO PUSH2 0x318 JUMPI RETURNDATASIZE PUSH1 0x0 DUP1 RETURNDATACOPY RETURNDATASIZE PUSH1 0x0 REVERT JUMPDEST POP POP POP POP PUSH1 0x40 MLOAD RETURNDATASIZE PUSH1 0x1F NOT PUSH1 0x1F DUP3 ADD AND DUP3 ADD DUP1 PUSH1 0x40 MSTORE POP DUP2 ADD SWAP1 PUSH2 0x33C SWAP2 SWAP1 PUSH2 0xC16 JUMP JUMPDEST POP POP POP POP JUMP JUMPDEST PUSH1 0x0 PUSH1 0x6 PUSH1 0x0 SWAP1 SLOAD SWAP1 PUSH2 0x100 EXP SWAP1 DIV PUSH20 0xFFFFFFFFFFFFFFFFFFFFFFFFFFFFFFFFFFFFFFFF AND PUSH20 0xFFFFFFFFFFFFFFFFFFFFFFFFFFFFFFFFFFFFFFFF AND PUSH4 0x95EA7B3 PUSH1 0x5 PUSH1 0x0 SWAP1 SLOAD SWAP1 PUSH2 0x100 EXP SWAP1 DIV PUSH20 0xFFFFFFFFFFFFFFFFFFFFFFFFFFFFFFFFFFFFFFFF AND DUP5 PUSH1 0x40 MLOAD DUP4 PUSH4 0xFFFFFFFF AND PUSH1 0xE0 SHL DUP2 MSTORE PUSH1 0x4 ADD PUSH2 0x3C3 SWAP3 SWAP2 SWAP1 PUSH2 0xC43 JUMP JUMPDEST PUSH1 0x20 PUSH1 0x40 MLOAD DUP1 DUP4 SUB DUP2 PUSH1 0x0 DUP8 GAS CALL ISZERO DUP1 ISZERO PUSH2 0x3E2 JUMPI RETURNDATASIZE PUSH1 0x0 DUP1 RETURNDATACOPY RETURNDATASIZE PUSH1 0x0 REVERT JUMPDEST POP POP POP POP PUSH1 0x40 MLOAD RETURNDATASIZE PUSH1 0x1F NOT PUSH1 0x1F DUP3 ADD AND DUP3 ADD DUP1 PUSH1 0x40 MSTORE POP DUP2 ADD SWAP1 PUSH2 0x406 SWAP2 SWAP1 PUSH2 0xC16 JUMP JUMPDEST POP PUSH1 0x0 PUSH1 0x6 PUSH1 0x0 SWAP1 SLOAD SWAP1 PUSH2 0x100 EXP SWAP1 DIV PUSH20 0xFFFFFFFFFFFFFFFFFFFFFFFFFFFFFFFFFFFFFFFF AND PUSH20 0xFFFFFFFFFFFFFFFFFFFFFFFFFFFFFFFFFFFFFFFF AND PUSH4 0x23B872DD CALLER ADDRESS DUP7 PUSH1 0x40 MLOAD DUP5 PUSH4 0xFFFFFFFF AND PUSH1 0xE0 SHL DUP2 MSTORE PUSH1 0x4 ADD PUSH2 0x468 SWAP4 SWAP3 SWAP2 SWAP1 PUSH2 0xBA7 JUMP JUMPDEST PUSH1 0x20 PUSH1 0x40 MLOAD DUP1 DUP4 SUB DUP2 PUSH1 0x0 DUP8 GAS CALL ISZERO DUP1 ISZERO PUSH2 0x487 JUMPI RETURNDATASIZE PUSH1 0x0 DUP1 RETURNDATACOPY RETURNDATASIZE PUSH1 0x0 REVERT JUMPDEST POP POP POP POP PUSH1 0x40 MLOAD RETURNDATASIZE PUSH1 0x1F NOT PUSH1 0x1F DUP3 ADD AND DUP3 ADD DUP1 PUSH1 0x40 MSTORE POP DUP2 ADD SWAP1 PUSH2 0x4AB SWAP2 SWAP1 PUSH2 0xC16 JUMP JUMPDEST SWAP1 POP DUP1 PUSH2 0x4ED JUMPI PUSH1 0x40 MLOAD PUSH32 0x8C379A000000000000000000000000000000000000000000000000000000000 DUP2 MSTORE PUSH1 0x4 ADD PUSH2 0x4E4 SWAP1 PUSH2 0xCC9 JUMP JUMPDEST PUSH1 0x40 MLOAD DUP1 SWAP2 SUB SWAP1 REVERT JUMPDEST PUSH1 0x0 PUSH1 0x5 PUSH1 0x0 SWAP1 SLOAD SWAP1 PUSH2 0x100 EXP SWAP1 DIV PUSH20 0xFFFFFFFFFFFFFFFFFFFFFFFFFFFFFFFFFFFFFFFF AND PUSH20 0xFFFFFFFFFFFFFFFFFFFFFFFFFFFFFFFFFFFFFFFF AND PUSH4 0xF305D719 CALLVALUE PUSH1 0x2 PUSH1 0x0 SWAP1 SLOAD SWAP1 PUSH2 0x100 EXP SWAP1 DIV PUSH20 0xFFFFFFFFFFFFFFFFFFFFFFFFFFFFFFFFFFFFFFFF AND DUP8 PUSH1 0x0 DUP1 CALLER TIMESTAMP PUSH1 0x40 MLOAD DUP9 PUSH4 0xFFFFFFFF AND PUSH1 0xE0 SHL DUP2 MSTORE PUSH1 0x4 ADD PUSH2 0x578 SWAP7 SWAP6 SWAP5 SWAP4 SWAP3 SWAP2 SWAP1 PUSH2 0xD2E JUMP JUMPDEST PUSH1 0x60 PUSH1 0x40 MLOAD DUP1 DUP4 SUB DUP2 DUP6 DUP9 GAS CALL ISZERO DUP1 ISZERO PUSH2 0x596 JUMPI RETURNDATASIZE PUSH1 0x0 DUP1 RETURNDATACOPY RETURNDATASIZE PUSH1 0x0 REVERT JUMPDEST POP POP POP POP POP PUSH1 0x40 MLOAD RETURNDATASIZE PUSH1 0x1F NOT PUSH1 0x1F DUP3 ADD AND DUP3 ADD DUP1 PUSH1 0x40 MSTORE POP DUP2 ADD SWAP1 PUSH2 0x5BB SWAP2 SWAP1 PUSH2 0xD8F JUMP JUMPDEST POP POP SWAP1 POP DUP1 SWAP3 POP POP POP SWAP2 SWAP1 POP JUMP JUMPDEST PUSH1 0x7 PUSH1 0x0 SWAP1 SLOAD SWAP1 PUSH2 0x100 EXP SWAP1 DIV PUSH20 0xFFFFFFFFFFFFFFFFFFFFFFFFFFFFFFFFFFFFFFFF AND PUSH20 0xFFFFFFFFFFFFFFFFFFFFFFFFFFFFFFFFFFFFFFFF AND PUSH4 0xE2BBB158 DUP4 DUP4 PUSH1 0x40 MLOAD DUP4 PUSH4 0xFFFFFFFF AND PUSH1 0xE0 SHL DUP2 MSTORE PUSH1 0x4 ADD PUSH2 0x626 SWAP3 SWAP2 SWAP1 PUSH2 0xB7E JUMP JUMPDEST PUSH1 0x0 PUSH1 0x40 MLOAD DUP1 DUP4 SUB DUP2 PUSH1 0x0 DUP8 DUP1 EXTCODESIZE ISZERO DUP1 ISZERO PUSH2 0x640 JUMPI PUSH1 0x0 DUP1 REVERT JUMPDEST POP GAS CALL ISZERO DUP1 ISZERO PUSH2 0x654 JUMPI RETURNDATASIZE PUSH1 0x0 DUP1 RETURNDATACOPY RETURNDATASIZE PUSH1 0x0 REVERT JUMPDEST POP POP POP POP POP POP JUMP JUMPDEST PUSH1 0x0 PUSH1 0x2 PUSH8 0xFFFFFFFFFFFFFFFF DUP2 GT ISZERO PUSH2 0x679 JUMPI PUSH2 0x678 PUSH2 0x98E JUMP JUMPDEST JUMPDEST PUSH1 0x40 MLOAD SWAP1 DUP1 DUP3 MSTORE DUP1 PUSH1 0x20 MUL PUSH1 0x20 ADD DUP3 ADD PUSH1 0x40 MSTORE DUP1 ISZERO PUSH2 0x6A7 JUMPI DUP2 PUSH1 0x20 ADD PUSH1 0x20 DUP3 MUL DUP1 CALLDATASIZE DUP4 CALLDATACOPY DUP1 DUP3 ADD SWAP2 POP POP SWAP1 POP JUMPDEST POP SWAP1 POP PUSH1 0x1 PUSH1 0x0 SWAP1 SLOAD SWAP1 PUSH2 0x100 EXP SWAP1 DIV PUSH20 0xFFFFFFFFFFFFFFFFFFFFFFFFFFFFFFFFFFFFFFFF AND DUP2 PUSH1 0x0 DUP2 MLOAD DUP2 LT PUSH2 0x6E1 JUMPI PUSH2 0x6E0 PUSH2 0xDE2 JUMP JUMPDEST JUMPDEST PUSH1 0x20 MUL PUSH1 0x20 ADD ADD SWAP1 PUSH20 0xFFFFFFFFFFFFFFFFFFFFFFFFFFFFFFFFFFFFFFFF AND SWAP1 DUP2 PUSH20 0xFFFFFFFFFFFFFFFFFFFFFFFFFFFFFFFFFFFFFFFF AND DUP2 MSTORE POP POP PUSH1 0x2 PUSH1 0x0 SWAP1 SLOAD SWAP1 PUSH2 0x100 EXP SWAP1 DIV PUSH20 0xFFFFFFFFFFFFFFFFFFFFFFFFFFFFFFFFFFFFFFFF AND DUP2 PUSH1 0x1 DUP2 MLOAD DUP2 LT PUSH2 0x752 JUMPI PUSH2 0x751 PUSH2 0xDE2 JUMP JUMPDEST JUMPDEST PUSH1 0x20 MUL PUSH1 0x20 ADD ADD SWAP1 PUSH20 0xFFFFFFFFFFFFFFFFFFFFFFFFFFFFFFFFFFFFFFFF AND SWAP1 DUP2 PUSH20 0xFFFFFFFFFFFFFFFFFFFFFFFFFFFFFFFFFFFFFFFF AND DUP2 MSTORE POP POP PUSH1 0x5 PUSH1 0x0 SWAP1 SLOAD SWAP1 PUSH2 0x100 EXP SWAP1 DIV PUSH20 0xFFFFFFFFFFFFFFFFFFFFFFFFFFFFFFFFFFFFFFFF AND PUSH20 0xFFFFFFFFFFFFFFFFFFFFFFFFFFFFFFFFFFFFFFFF AND PUSH4 0x7FF36AB5 CALLVALUE DUP5 DUP5 CALLER TIMESTAMP PUSH1 0x40 MLOAD DUP7 PUSH4 0xFFFFFFFF AND PUSH1 0xE0 SHL DUP2 MSTORE PUSH1 0x4 ADD PUSH2 0x7EE SWAP5 SWAP4 SWAP3 SWAP2 SWAP1 PUSH2 0xECF JUMP JUMPDEST PUSH1 0x0 PUSH1 0x40 MLOAD DUP1 DUP4 SUB DUP2 DUP6 DUP9 GAS CALL ISZERO DUP1 ISZERO PUSH2 0x80C JUMPI RETURNDATASIZE PUSH1 0x0 DUP1 RETURNDATACOPY RETURNDATASIZE PUSH1 0x0 REVERT JUMPDEST POP POP POP POP POP PUSH1 0x40 MLOAD RETURNDATASIZE PUSH1 0x0 DUP3 RETURNDATACOPY RETURNDATASIZE PUSH1 0x1F NOT PUSH1 0x1F DUP3 ADD AND DUP3 ADD DUP1 PUSH1 0x40 MSTORE POP DUP2 ADD SWAP1 PUSH2 0x836 SWAP2 SWAP1 PUSH2 0xFE8 JUMP JUMPDEST POP POP POP JUMP JUMPDEST PUSH1 0x0 PUSH1 0x40 MLOAD SWAP1 POP SWAP1 JUMP JUMPDEST PUSH1 0x0 DUP1 REVERT JUMPDEST PUSH1 0x0 DUP1 REVERT JUMPDEST PUSH1 0x0 DUP2 SWAP1 POP SWAP2 SWAP1 POP JUMP JUMPDEST PUSH2 0x862 DUP2 PUSH2 0x84F JUMP JUMPDEST DUP2 EQ PUSH2 0x86D JUMPI PUSH1 0x0 DUP1 REVERT JUMPDEST POP JUMP JUMPDEST PUSH1 0x0 DUP2 CALLDATALOAD SWAP1 POP PUSH2 0x87F DUP2 PUSH2 0x859 JUMP JUMPDEST SWAP3 SWAP2 POP POP JUMP JUMPDEST PUSH1 0x0 PUSH1 0x20 DUP3 DUP5 SUB SLT ISZERO PUSH2 0x89B JUMPI PUSH2 0x89A PUSH2 0x845 JUMP JUMPDEST JUMPDEST PUSH1 0x0 PUSH2 0x8A9 DUP5 DUP3 DUP6 ADD PUSH2 0x870 JUMP JUMPDEST SWAP2 POP POP SWAP3 SWAP2 POP POP JUMP JUMPDEST PUSH2 0x8BB DUP2 PUSH2 0x84F JUMP JUMPDEST DUP3 MSTORE POP POP JUMP JUMPDEST PUSH1 0x0 PUSH1 0x20 DUP3 ADD SWAP1 POP PUSH2 0x8D6 PUSH1 0x0 DUP4 ADD DUP5 PUSH2 0x8B2 JUMP JUMPDEST SWAP3 SWAP2 POP POP JUMP JUMPDEST PUSH1 0x0 DUP1 PUSH1 0x40 DUP4 DUP6 SUB SLT ISZERO PUSH2 0x8F3 JUMPI PUSH2 0x8F2 PUSH2 0x845 JUMP JUMPDEST JUMPDEST PUSH1 0x0 PUSH2 0x901 DUP6 DUP3 DUP7 ADD PUSH2 0x870 JUMP JUMPDEST SWAP3 POP POP PUSH1 0x20 PUSH2 0x912 DUP6 DUP3 DUP7 ADD PUSH2 0x870 JUMP JUMPDEST SWAP2 POP POP SWAP3 POP SWAP3 SWAP1 POP JUMP JUMPDEST PUSH1 0x0 PUSH20 0xFFFFFFFFFFFFFFFFFFFFFFFFFFFFFFFFFFFFFFFF DUP3 AND SWAP1 POP SWAP2 SWAP1 POP JUMP JUMPDEST PUSH1 0x0 PUSH2 0x947 DUP3 PUSH2 0x91C JUMP JUMPDEST SWAP1 POP SWAP2 SWAP1 POP JUMP JUMPDEST PUSH2 0x957 DUP2 PUSH2 0x93C JUMP JUMPDEST DUP3 MSTORE POP POP JUMP JUMPDEST PUSH1 0x0 PUSH1 0x20 DUP3 ADD SWAP1 POP PUSH2 0x972 PUSH1 0x0 DUP4 ADD DUP5 PUSH2 0x94E JUMP JUMPDEST SWAP3 SWAP2 POP POP JUMP JUMPDEST PUSH1 0x0 DUP1 REVERT JUMPDEST PUSH1 0x0 PUSH1 0x1F NOT PUSH1 0x1F DUP4 ADD AND SWAP1 POP SWAP2 SWAP1 POP JUMP JUMPDEST PUSH32 0x4E487B7100000000000000000000000000000000000000000000000000000000 PUSH1 0x0 MSTORE PUSH1 0x41 PUSH1 0x4 MSTORE PUSH1 0x24 PUSH1 0x0 REVERT JUMPDEST PUSH2 0x9C6 DUP3 PUSH2 0x97D JUMP JUMPDEST DUP2 ADD DUP2 DUP2 LT PUSH8 0xFFFFFFFFFFFFFFFF DUP3 GT OR ISZERO PUSH2 0x9E5 JUMPI PUSH2 0x9E4 PUSH2 0x98E JUMP JUMPDEST JUMPDEST DUP1 PUSH1 0x40 MSTORE POP POP POP JUMP JUMPDEST PUSH1 0x0 PUSH2 0x9F8 PUSH2 0x83B JUMP JUMPDEST SWAP1 POP PUSH2 0xA04 DUP3 DUP3 PUSH2 0x9BD JUMP JUMPDEST SWAP2 SWAP1 POP JUMP JUMPDEST PUSH1 0x0 DUP2 MLOAD SWAP1 POP PUSH2 0xA18 DUP2 PUSH2 0x859 JUMP JUMPDEST SWAP3 SWAP2 POP POP JUMP JUMPDEST PUSH1 0x0 PUSH1 0x40 DUP3 DUP5 SUB SLT ISZERO PUSH2 0xA34 JUMPI PUSH2 0xA33 PUSH2 0x978 JUMP JUMPDEST JUMPDEST PUSH2 0xA3E PUSH1 0x40 PUSH2 0x9EE JUMP JUMPDEST SWAP1 POP PUSH1 0x0 PUSH2 0xA4E DUP5 DUP3 DUP6 ADD PUSH2 0xA09 JUMP JUMPDEST PUSH1 0x0 DUP4 ADD MSTORE POP PUSH1 0x20 PUSH2 0xA62 DUP5 DUP3 DUP6 ADD PUSH2 0xA09 JUMP JUMPDEST PUSH1 0x20 DUP4 ADD MSTORE POP SWAP3 SWAP2 POP POP JUMP JUMPDEST PUSH1 0x0 PUSH1 0x40 DUP3 DUP5 SUB SLT ISZERO PUSH2 0xA84 JUMPI PUSH2 0xA83 PUSH2 0x845 JUMP JUMPDEST JUMPDEST PUSH1 0x0 PUSH2 0xA92 DUP5 DUP3 DUP6 ADD PUSH2 0xA1E JUMP JUMPDEST SWAP2 POP POP SWAP3 SWAP2 POP POP JUMP JUMPDEST PUSH1 0x0 PUSH2 0xAA6 DUP3 PUSH2 0x93C JUMP JUMPDEST SWAP1 POP SWAP2 SWAP1 POP JUMP JUMPDEST PUSH2 0xAB6 DUP2 PUSH2 0xA9B JUMP JUMPDEST DUP2 EQ PUSH2 0xAC1 JUMPI PUSH1 0x0 DUP1 REVERT JUMPDEST POP JUMP JUMPDEST PUSH1 0x0 DUP2 MLOAD SWAP1 POP PUSH2 0xAD3 DUP2 PUSH2 0xAAD JUMP JUMPDEST SWAP3 SWAP2 POP POP JUMP JUMPDEST PUSH1 0x0 PUSH1 0x80 DUP3 DUP5 SUB SLT ISZERO PUSH2 0xAEF JUMPI PUSH2 0xAEE PUSH2 0x978 JUMP JUMPDEST JUMPDEST PUSH2 0xAF9 PUSH1 0x80 PUSH2 0x9EE JUMP JUMPDEST SWAP1 POP PUSH1 0x0 PUSH2 0xB09 DUP5 DUP3 DUP6 ADD PUSH2 0xAC4 JUMP JUMPDEST PUSH1 0x0 DUP4 ADD MSTORE POP PUSH1 0x20 PUSH2 0xB1D DUP5 DUP3 DUP6 ADD PUSH2 0xA09 JUMP JUMPDEST PUSH1 0x20 DUP4 ADD MSTORE POP PUSH1 0x40 PUSH2 0xB31 DUP5 DUP3 DUP6 ADD PUSH2 0xA09 JUMP JUMPDEST PUSH1 0x40 DUP4 ADD MSTORE POP PUSH1 0x60 PUSH2 0xB45 DUP5 DUP3 DUP6 ADD PUSH2 0xA09 JUMP JUMPDEST PUSH1 0x60 DUP4 ADD MSTORE POP SWAP3 SWAP2 POP POP JUMP JUMPDEST PUSH1 0x0 PUSH1 0x80 DUP3 DUP5 SUB SLT ISZERO PUSH2 0xB67 JUMPI PUSH2 0xB66 PUSH2 0x845 JUMP JUMPDEST JUMPDEST PUSH1 0x0 PUSH2 0xB75 DUP5 DUP3 DUP6 ADD PUSH2 0xAD9 JUMP JUMPDEST SWAP2 POP POP SWAP3 SWAP2 POP POP JUMP JUMPDEST PUSH1 0x0 PUSH1 0x40 DUP3 ADD SWAP1 POP PUSH2 0xB93 PUSH1 0x0 DUP4 ADD DUP6 PUSH2 0x8B2 JUMP JUMPDEST PUSH2 0xBA0 PUSH1 0x20 DUP4 ADD DUP5 PUSH2 0x8B2 JUMP JUMPDEST SWAP4 SWAP3 POP POP POP JUMP JUMPDEST PUSH1 0x0 PUSH1 0x60 DUP3 ADD SWAP1 POP PUSH2 0xBBC PUSH1 0x0 DUP4 ADD DUP7 PUSH2 0x94E JUMP JUMPDEST PUSH2 0xBC9 PUSH1 0x20 DUP4 ADD DUP6 PUSH2 0x94E JUMP JUMPDEST PUSH2 0xBD6 PUSH1 0x40 DUP4 ADD DUP5 PUSH2 0x8B2 JUMP JUMPDEST SWAP5 SWAP4 POP POP POP POP JUMP JUMPDEST PUSH1 0x0 DUP2 ISZERO ISZERO SWAP1 POP SWAP2 SWAP1 POP JUMP JUMPDEST PUSH2 0xBF3 DUP2 PUSH2 0xBDE JUMP JUMPDEST DUP2 EQ PUSH2 0xBFE JUMPI PUSH1 0x0 DUP1 REVERT JUMPDEST POP JUMP JUMPDEST PUSH1 0x0 DUP2 MLOAD SWAP1 POP PUSH2 0xC10 DUP2 PUSH2 0xBEA JUMP JUMPDEST SWAP3 SWAP2 POP POP JUMP JUMPDEST PUSH1 0x0 PUSH1 0x20 DUP3 DUP5 SUB SLT ISZERO PUSH2 0xC2C JUMPI PUSH2 0xC2B PUSH2 0x845 JUMP JUMPDEST JUMPDEST PUSH1 0x0 PUSH2 0xC3A DUP5 DUP3 DUP6 ADD PUSH2 0xC01 JUMP JUMPDEST SWAP2 POP POP SWAP3 SWAP2 POP POP JUMP JUMPDEST PUSH1 0x0 PUSH1 0x40 DUP3 ADD SWAP1 POP PUSH2 0xC58 PUSH1 0x0 DUP4 ADD DUP6 PUSH2 0x94E JUMP JUMPDEST PUSH2 0xC65 PUSH1 0x20 DUP4 ADD DUP5 PUSH2 0x8B2 JUMP JUMPDEST SWAP4 SWAP3 POP POP POP JUMP JUMPDEST PUSH1 0x0 DUP3 DUP3 MSTORE PUSH1 0x20 DUP3 ADD SWAP1 POP SWAP3 SWAP2 POP POP JUMP JUMPDEST PUSH32 0x6D746F6B656E207472616E73666572206572726F722100000000000000000000 PUSH1 0x0 DUP3 ADD MSTORE POP JUMP JUMPDEST PUSH1 0x0 PUSH2 0xCB3 PUSH1 0x16 DUP4 PUSH2 0xC6C JUMP JUMPDEST SWAP2 POP PUSH2 0xCBE DUP3 PUSH2 0xC7D JUMP JUMPDEST PUSH1 0x20 DUP3 ADD SWAP1 POP SWAP2 SWAP1 POP JUMP JUMPDEST PUSH1 0x0 PUSH1 0x20 DUP3 ADD SWAP1 POP DUP2 DUP2 SUB PUSH1 0x0 DUP4 ADD MSTORE PUSH2 0xCE2 DUP2 PUSH2 0xCA6 JUMP JUMPDEST SWAP1 POP SWAP2 SWAP1 POP JUMP JUMPDEST PUSH1 0x0 DUP2 SWAP1 POP SWAP2 SWAP1 POP JUMP JUMPDEST PUSH1 0x0 DUP2 SWAP1 POP SWAP2 SWAP1 POP JUMP JUMPDEST PUSH1 0x0 PUSH2 0xD18 PUSH2 0xD13 PUSH2 0xD0E DUP5 PUSH2 0xCE9 JUMP JUMPDEST PUSH2 0xCF3 JUMP JUMPDEST PUSH2 0x84F JUMP JUMPDEST SWAP1 POP SWAP2 SWAP1 POP JUMP JUMPDEST PUSH2 0xD28 DUP2 PUSH2 0xCFD JUMP JUMPDEST DUP3 MSTORE POP POP JUMP JUMPDEST PUSH1 0x0 PUSH1 0xC0 DUP3 ADD SWAP1 POP PUSH2 0xD43 PUSH1 0x0 DUP4 ADD DUP10 PUSH2 0x94E JUMP JUMPDEST PUSH2 0xD50 PUSH1 0x20 DUP4 ADD DUP9 PUSH2 0x8B2 JUMP JUMPDEST PUSH2 0xD5D PUSH1 0x40 DUP4 ADD DUP8 PUSH2 0xD1F JUMP JUMPDEST PUSH2 0xD6A PUSH1 0x60 DUP4 ADD DUP7 PUSH2 0xD1F JUMP JUMPDEST PUSH2 0xD77 PUSH1 0x80 DUP4 ADD DUP6 PUSH2 0x94E JUMP JUMPDEST PUSH2 0xD84 PUSH1 0xA0 DUP4 ADD DUP5 PUSH2 0x8B2 JUMP JUMPDEST SWAP8 SWAP7 POP POP POP POP POP POP POP JUMP JUMPDEST PUSH1 0x0 DUP1 PUSH1 0x0 PUSH1 0x60 DUP5 DUP7 SUB SLT ISZERO PUSH2 0xDA8 JUMPI PUSH2 0xDA7 PUSH2 0x845 JUMP JUMPDEST JUMPDEST PUSH1 0x0 PUSH2 0xDB6 DUP7 DUP3 DUP8 ADD PUSH2 0xA09 JUMP JUMPDEST SWAP4 POP POP PUSH1 0x20 PUSH2 0xDC7 DUP7 DUP3 DUP8 ADD PUSH2 0xA09 JUMP JUMPDEST SWAP3 POP POP PUSH1 0x40 PUSH2 0xDD8 DUP7 DUP3 DUP8 ADD PUSH2 0xA09 JUMP JUMPDEST SWAP2 POP POP SWAP3 POP SWAP3 POP SWAP3 JUMP JUMPDEST PUSH32 0x4E487B7100000000000000000000000000000000000000000000000000000000 PUSH1 0x0 MSTORE PUSH1 0x32 PUSH1 0x4 MSTORE PUSH1 0x24 PUSH1 0x0 REVERT JUMPDEST PUSH1 0x0 DUP2 MLOAD SWAP1 POP SWAP2 SWAP1 POP JUMP JUMPDEST PUSH1 0x0 DUP3 DUP3 MSTORE PUSH1 0x20 DUP3 ADD SWAP1 POP SWAP3 SWAP2 POP POP JUMP JUMPDEST PUSH1 0x0 DUP2 SWAP1 POP PUSH1 0x20 DUP3 ADD SWAP1 POP SWAP2 SWAP1 POP JUMP JUMPDEST PUSH2 0xE46 DUP2 PUSH2 0x93C JUMP JUMPDEST DUP3 MSTORE POP POP JUMP JUMPDEST PUSH1 0x0 PUSH2 0xE58 DUP4 DUP4 PUSH2 0xE3D JUMP JUMPDEST PUSH1 0x20 DUP4 ADD SWAP1 POP SWAP3 SWAP2 POP POP JUMP JUMPDEST PUSH1 0x0 PUSH1 0x20 DUP3 ADD SWAP1 POP SWAP2 SWAP1 POP JUMP JUMPDEST PUSH1 0x0 PUSH2 0xE7C DUP3 PUSH2 0xE11 JUMP JUMPDEST PUSH2 0xE86 DUP2 DUP6 PUSH2 0xE1C JUMP JUMPDEST SWAP4 POP PUSH2 0xE91 DUP4 PUSH2 0xE2D JUMP JUMPDEST DUP1 PUSH1 0x0 JUMPDEST DUP4 DUP2 LT ISZERO PUSH2 0xEC2 JUMPI DUP2 MLOAD PUSH2 0xEA9 DUP9 DUP3 PUSH2 0xE4C JUMP JUMPDEST SWAP8 POP PUSH2 0xEB4 DUP4 PUSH2 0xE64 JUMP JUMPDEST SWAP3 POP POP PUSH1 0x1 DUP2 ADD SWAP1 POP PUSH2 0xE95 JUMP JUMPDEST POP DUP6 SWAP4 POP POP POP POP SWAP3 SWAP2 POP POP JUMP JUMPDEST PUSH1 0x0 PUSH1 0x80 DUP3 ADD SWAP1 POP PUSH2 0xEE4 PUSH1 0x0 DUP4 ADD DUP8 PUSH2 0x8B2 JUMP JUMPDEST DUP2 DUP2 SUB PUSH1 0x20 DUP4 ADD MSTORE PUSH2 0xEF6 DUP2 DUP7 PUSH2 0xE71 JUMP JUMPDEST SWAP1 POP PUSH2 0xF05 PUSH1 0x40 DUP4 ADD DUP6 PUSH2 0x94E JUMP JUMPDEST PUSH2 0xF12 PUSH1 0x60 DUP4 ADD DUP5 PUSH2 0x8B2 JUMP JUMPDEST SWAP6 SWAP5 POP POP POP POP POP JUMP JUMPDEST PUSH1 0x0 DUP1 REVERT JUMPDEST PUSH1 0x0 PUSH8 0xFFFFFFFFFFFFFFFF DUP3 GT ISZERO PUSH2 0xF3B JUMPI PUSH2 0xF3A PUSH2 0x98E JUMP JUMPDEST JUMPDEST PUSH1 0x20 DUP3 MUL SWAP1 POP PUSH1 0x20 DUP2 ADD SWAP1 POP SWAP2 SWAP1 POP JUMP JUMPDEST PUSH1 0x0 DUP1 REVERT JUMPDEST PUSH1 0x0 PUSH2 0xF64 PUSH2 0xF5F DUP5 PUSH2 0xF20 JUMP JUMPDEST PUSH2 0x9EE JUMP JUMPDEST SWAP1 POP DUP1 DUP4 DUP3 MSTORE PUSH1 0x20 DUP3 ADD SWAP1 POP PUSH1 0x20 DUP5 MUL DUP4 ADD DUP6 DUP2 GT ISZERO PUSH2 0xF87 JUMPI PUSH2 0xF86 PUSH2 0xF4C JUMP JUMPDEST JUMPDEST DUP4 JUMPDEST DUP2 DUP2 LT ISZERO PUSH2 0xFB0 JUMPI DUP1 PUSH2 0xF9C DUP9 DUP3 PUSH2 0xA09 JUMP JUMPDEST DUP5 MSTORE PUSH1 0x20 DUP5 ADD SWAP4 POP POP PUSH1 0x20 DUP2 ADD SWAP1 POP PUSH2 0xF89 JUMP JUMPDEST POP POP POP SWAP4 SWAP3 POP POP POP JUMP JUMPDEST PUSH1 0x0 DUP3 PUSH1 0x1F DUP4 ADD SLT PUSH2 0xFCF JUMPI PUSH2 0xFCE PUSH2 0xF1B JUMP JUMPDEST JUMPDEST DUP2 MLOAD PUSH2 0xFDF DUP5 DUP3 PUSH1 0x20 DUP7 ADD PUSH2 0xF51 JUMP JUMPDEST SWAP2 POP POP SWAP3 SWAP2 POP POP JUMP JUMPDEST PUSH1 0x0 PUSH1 0x20 DUP3 DUP5 SUB SLT ISZERO PUSH2 0xFFE JUMPI PUSH2 0xFFD PUSH2 0x845 JUMP JUMPDEST JUMPDEST PUSH1 0x0 DUP3 ADD MLOAD PUSH8 0xFFFFFFFFFFFFFFFF DUP2 GT ISZERO PUSH2 0x101C JUMPI PUSH2 0x101B PUSH2 0x84A JUMP JUMPDEST JUMPDEST PUSH2 0x1028 DUP5 DUP3 DUP6 ADD PUSH2 0xFBA JUMP JUMPDEST SWAP2 POP POP SWAP3 SWAP2 POP POP JUMP INVALID LOG2 PUSH5 0x6970667358 0x22 SLT KECCAK256 0xCB NOT 0x22 0xEF 0xEF LOG4 0xD8 0xA8 MSTORE AND 0xD2 SHL REVERT 0xC8 SWAP4 0xC4 0xAA 0xEA CALLDATALOAD TIMESTAMP SAR 0xCF DUP1 POP 0xB7 CREATE2 SWAP2 CALL CALLER BYTE CALLVALUE PUSH28 0x64736F6C634300080D00330000000000000000000000000000000000 "
				},
				"gasEstimates": {
					"creation": {
						"codeDepositCost": "839800",
						"executionCost": "201418",
						"totalCost": "1041218"
					},
					"external": {
						"addLiquidity(uint256)": "infinite",
						"buyExactTokenByETH(uint256)": "infinite",
						"depositToMasterChef(uint256,uint256)": "infinite",
						"withdraw(uint256)": "infinite"
					}
				},
				"methodIdentifiers": {
					"addLiquidity(uint256)": "51c6590a",
					"buyExactTokenByETH(uint256)": "a93f74e0",
					"depositToMasterChef(uint256,uint256)": "881e7a97",
					"withdraw(uint256)": "2e1a7d4d"
				}
			},
			"userdoc": {
				"kind": "user",
				"methods": {},
				"version": 1
			}
		}
	}
}