{
	"Code-hardhat-ethersJs/contracts/MyTokenMarket.sol": {
		"MyTokenMarket": {
			"abi": [
				{
					"inputs": [],
					"stateMutability": "nonpayable",
					"type": "constructor"
				},
				{
					"inputs": [
						{
							"internalType": "uint256",
							"name": "amountMyTokenDesired",
							"type": "uint256"
						}
					],
					"name": "addLiquidity",
					"outputs": [
						{
							"internalType": "uint256",
							"name": "amountOfLp",
							"type": "uint256"
						}
					],
					"stateMutability": "payable",
					"type": "function"
				},
				{
					"inputs": [
						{
							"internalType": "uint256",
							"name": "amountOutMin",
							"type": "uint256"
						}
					],
					"name": "buyExactTokenByETH",
					"outputs": [],
					"stateMutability": "payable",
					"type": "function"
				},
				{
					"inputs": [
						{
							"internalType": "address",
							"name": "lpAddress",
							"type": "address"
						},
						{
							"internalType": "uint256",
							"name": "pid",
							"type": "uint256"
						},
						{
							"internalType": "uint256",
							"name": "amount",
							"type": "uint256"
						}
					],
					"name": "depositToMasterChef",
					"outputs": [],
					"stateMutability": "nonpayable",
					"type": "function"
				},
				{
					"inputs": [
						{
							"internalType": "uint256",
							"name": "pid",
							"type": "uint256"
						}
					],
					"name": "withdraw",
					"outputs": [],
					"stateMutability": "nonpayable",
					"type": "function"
				}
			],
			"devdoc": {
				"kind": "dev",
				"methods": {},
				"version": 1
			},
			"evm": {
				"assembly": "    /* \"Code-hardhat-ethersJs/contracts/MyTokenMarket.sol\":264:2471  contract MyTokenMarket{... */\n  mstore(0x40, 0x80)\n    /* \"Code-hardhat-ethersJs/contracts/MyTokenMarket.sol\":537:579  0x7a250d5630B4cF539739dF2C5dAcb4c659F2488D */\n  0x7a250d5630b4cf539739df2c5dacb4c659f2488d\n    /* \"Code-hardhat-ethersJs/contracts/MyTokenMarket.sol\":516:579  address uv2address = 0x7a250d5630B4cF539739dF2C5dAcb4c659F2488D */\n  0x00\n  dup1\n  0x0100\n  exp\n  dup2\n  sload\n  dup2\n  0xffffffffffffffffffffffffffffffffffffffff\n  mul\n  not\n  and\n  swap1\n  dup4\n  0xffffffffffffffffffffffffffffffffffffffff\n  and\n  mul\n  or\n  swap1\n  sstore\n  pop\n    /* \"Code-hardhat-ethersJs/contracts/MyTokenMarket.sol\":607:649  0xc778417E063141139Fce010982780140Aa0cD5Ab */\n  0xc778417e063141139fce010982780140aa0cd5ab\n    /* \"Code-hardhat-ethersJs/contracts/MyTokenMarket.sol\":585:649  address wethaddress = 0xc778417E063141139Fce010982780140Aa0cD5Ab */\n  0x01\n  exp(0x0100, 0x00)\n  dup2\n  sload\n  dup2\n  0xffffffffffffffffffffffffffffffffffffffff\n  mul\n  not\n  and\n  swap1\n  dup4\n  0xffffffffffffffffffffffffffffffffffffffff\n  and\n  mul\n  or\n  swap1\n  sstore\n  pop\n    /* \"Code-hardhat-ethersJs/contracts/MyTokenMarket.sol\":680:722  0x549F978C19a5AC86D906052639E317B57724ef44 */\n  0x549f978c19a5ac86d906052639e317b57724ef44\n    /* \"Code-hardhat-ethersJs/contracts/MyTokenMarket.sol\":655:722  address mytokenaddress = 0x549F978C19a5AC86D906052639E317B57724ef44 */\n  0x02\n  exp(0x0100, 0x00)\n  dup2\n  sload\n  dup2\n  0xffffffffffffffffffffffffffffffffffffffff\n  mul\n  not\n  and\n  swap1\n  dup4\n  0xffffffffffffffffffffffffffffffffffffffff\n  and\n  mul\n  or\n  swap1\n  sstore\n  pop\n    /* \"Code-hardhat-ethersJs/contracts/MyTokenMarket.sol\":751:793  0xf42A08C0EA66ee4A474336087A6C17E9EA6c9dE9 */\n  0xf42a08c0ea66ee4a474336087a6c17e9ea6c9de9\n    /* \"Code-hardhat-ethersJs/contracts/MyTokenMarket.sol\":728:793  address sushiaddress = 0xf42A08C0EA66ee4A474336087A6C17E9EA6c9dE9 */\n  0x03\n  exp(0x0100, 0x00)\n  dup2\n  sload\n  dup2\n  0xffffffffffffffffffffffffffffffffffffffff\n  mul\n  not\n  and\n  swap1\n  dup4\n  0xffffffffffffffffffffffffffffffffffffffff\n  and\n  mul\n  or\n  swap1\n  sstore\n  pop\n    /* \"Code-hardhat-ethersJs/contracts/MyTokenMarket.sol\":827:869  0xd9DFA8c6b37cfDF16668fE0465896f4A1B9b2c4F */\n  0xd9dfa8c6b37cfdf16668fe0465896f4a1b9b2c4f\n    /* \"Code-hardhat-ethersJs/contracts/MyTokenMarket.sol\":799:869  address masterchefaddress = 0xd9DFA8c6b37cfDF16668fE0465896f4A1B9b2c4F */\n  0x04\n  exp(0x0100, 0x00)\n  dup2\n  sload\n  dup2\n  0xffffffffffffffffffffffffffffffffffffffff\n  mul\n  not\n  and\n  swap1\n  dup4\n  0xffffffffffffffffffffffffffffffffffffffff\n  and\n  mul\n  or\n  swap1\n  sstore\n  pop\n    /* \"Code-hardhat-ethersJs/contracts/MyTokenMarket.sol\":925:935  uv2address */\n  0x00\n  dup1\n  sload\n  swap1\n  0x0100\n  exp\n  swap1\n  div\n  0xffffffffffffffffffffffffffffffffffffffff\n  and\n    /* \"Code-hardhat-ethersJs/contracts/MyTokenMarket.sol\":875:936  IUniswapV2Router02 uv2router = IUniswapV2Router02(uv2address) */\n  0x05\n  exp(0x0100, 0x00)\n  dup2\n  sload\n  dup2\n  0xffffffffffffffffffffffffffffffffffffffff\n  mul\n  not\n  and\n  swap1\n  dup4\n  0xffffffffffffffffffffffffffffffffffffffff\n  and\n  mul\n  or\n  swap1\n  sstore\n  pop\n    /* \"Code-hardhat-ethersJs/contracts/MyTokenMarket.sol\":965:979  mytokenaddress */\n  0x02\n  0x00\n  swap1\n  sload\n  swap1\n  0x0100\n  exp\n  swap1\n  div\n  0xffffffffffffffffffffffffffffffffffffffff\n  and\n    /* \"Code-hardhat-ethersJs/contracts/MyTokenMarket.sol\":942:980  IERC20 mtoken = IERC20(mytokenaddress) */\n  0x06\n  exp(0x0100, 0x00)\n  dup2\n  sload\n  dup2\n  0xffffffffffffffffffffffffffffffffffffffff\n  mul\n  not\n  and\n  swap1\n  dup4\n  0xffffffffffffffffffffffffffffffffffffffff\n  and\n  mul\n  or\n  swap1\n  sstore\n  pop\n    /* \"Code-hardhat-ethersJs/contracts/MyTokenMarket.sol\":1023:1040  masterchefaddress */\n  0x04\n  0x00\n  swap1\n  sload\n  swap1\n  0x0100\n  exp\n  swap1\n  div\n  0xffffffffffffffffffffffffffffffffffffffff\n  and\n    /* \"Code-hardhat-ethersJs/contracts/MyTokenMarket.sol\":986:1041  IMasterChef masterChef = IMasterChef(masterchefaddress) */\n  0x07\n  exp(0x0100, 0x00)\n  dup2\n  sload\n  dup2\n  0xffffffffffffffffffffffffffffffffffffffff\n  mul\n  not\n  and\n  swap1\n  dup4\n  0xffffffffffffffffffffffffffffffffffffffff\n  and\n  mul\n  or\n  swap1\n  sstore\n  pop\n    /* \"Code-hardhat-ethersJs/contracts/MyTokenMarket.sol\":1047:1067  constructor(){... */\n  callvalue\n  dup1\n  iszero\n  tag_1\n  jumpi\n  0x00\n  dup1\n  revert\ntag_1:\n  pop\n    /* \"Code-hardhat-ethersJs/contracts/MyTokenMarket.sol\":264:2471  contract MyTokenMarket{... */\n  dataSize(sub_0)\n  dup1\n  dataOffset(sub_0)\n  0x00\n  codecopy\n  0x00\n  return\nstop\n\nsub_0: assembly {\n        /* \"Code-hardhat-ethersJs/contracts/MyTokenMarket.sol\":264:2471  contract MyTokenMarket{... */\n      mstore(0x40, 0x80)\n      jumpi(tag_1, lt(calldatasize, 0x04))\n      shr(0xe0, calldataload(0x00))\n      dup1\n      0x2e1a7d4d\n      eq\n      tag_2\n      jumpi\n      dup1\n      0x51c6590a\n      eq\n      tag_3\n      jumpi\n      dup1\n      0xa93f74e0\n      eq\n      tag_4\n      jumpi\n      dup1\n      0xfc55d2bf\n      eq\n      tag_5\n      jumpi\n    tag_1:\n      0x00\n      dup1\n      revert\n        /* \"Code-hardhat-ethersJs/contracts/MyTokenMarket.sol\":2294:2467  function withdraw(uint256 pid)public{... */\n    tag_2:\n      callvalue\n      dup1\n      iszero\n      tag_6\n      jumpi\n      0x00\n      dup1\n      revert\n    tag_6:\n      pop\n      tag_7\n      0x04\n      dup1\n      calldatasize\n      sub\n      dup2\n      add\n      swap1\n      tag_8\n      swap2\n      swap1\n      tag_9\n      jump\t// in\n    tag_8:\n      tag_10\n      jump\t// in\n    tag_7:\n      stop\n        /* \"Code-hardhat-ethersJs/contracts/MyTokenMarket.sol\":1074:1692  function addLiquidity(... */\n    tag_3:\n      tag_11\n      0x04\n      dup1\n      calldatasize\n      sub\n      dup2\n      add\n      swap1\n      tag_12\n      swap2\n      swap1\n      tag_9\n      jump\t// in\n    tag_12:\n      tag_13\n      jump\t// in\n    tag_11:\n      mload(0x40)\n      tag_14\n      swap2\n      swap1\n      tag_15\n      jump\t// in\n    tag_14:\n      mload(0x40)\n      dup1\n      swap2\n      sub\n      swap1\n      return\n        /* \"Code-hardhat-ethersJs/contracts/MyTokenMarket.sol\":1933:2257  function buyExactTokenByETH(uint amountOutMin)public payable{... */\n    tag_4:\n      tag_16\n      0x04\n      dup1\n      calldatasize\n      sub\n      dup2\n      add\n      swap1\n      tag_17\n      swap2\n      swap1\n      tag_9\n      jump\t// in\n    tag_17:\n      tag_18\n      jump\t// in\n    tag_16:\n      stop\n        /* \"Code-hardhat-ethersJs/contracts/MyTokenMarket.sol\":1698:1926  function depositToMasterChef(address lpAddress,uint256 pid, uint256 amount)public{... */\n    tag_5:\n      callvalue\n      dup1\n      iszero\n      tag_19\n      jumpi\n      0x00\n      dup1\n      revert\n    tag_19:\n      pop\n      tag_20\n      0x04\n      dup1\n      calldatasize\n      sub\n      dup2\n      add\n      swap1\n      tag_21\n      swap2\n      swap1\n      tag_22\n      jump\t// in\n    tag_21:\n      tag_23\n      jump\t// in\n    tag_20:\n      stop\n        /* \"Code-hardhat-ethersJs/contracts/MyTokenMarket.sol\":2294:2467  function withdraw(uint256 pid)public{... */\n    tag_10:\n        /* \"Code-hardhat-ethersJs/contracts/MyTokenMarket.sol\":2340:2376  IMasterChef.UserInfo memory userInfo */\n      0x00\n        /* \"Code-hardhat-ethersJs/contracts/MyTokenMarket.sol\":2379:2389  masterChef */\n      0x07\n      0x00\n      swap1\n      sload\n      swap1\n      0x0100\n      exp\n      swap1\n      div\n      0xffffffffffffffffffffffffffffffffffffffff\n      and\n        /* \"Code-hardhat-ethersJs/contracts/MyTokenMarket.sol\":2379:2398  masterChef.userInfo */\n      0xffffffffffffffffffffffffffffffffffffffff\n      and\n      0x1959a002\n        /* \"Code-hardhat-ethersJs/contracts/MyTokenMarket.sol\":2399:2409  msg.sender */\n      caller\n        /* \"Code-hardhat-ethersJs/contracts/MyTokenMarket.sol\":2379:2410  masterChef.userInfo(msg.sender) */\n      mload(0x40)\n      dup3\n      0xffffffff\n      and\n      0xe0\n      shl\n      dup2\n      mstore\n      0x04\n      add\n      tag_25\n      swap2\n      swap1\n      tag_26\n      jump\t// in\n    tag_25:\n      0x40\n      dup1\n      mload\n      dup1\n      dup4\n      sub\n      dup2\n      dup7\n      gas\n      staticcall\n      iszero\n      dup1\n      iszero\n      tag_28\n      jumpi\n      returndatasize\n      0x00\n      dup1\n      returndatacopy\n      revert(0x00, returndatasize)\n    tag_28:\n      pop\n      pop\n      pop\n      pop\n      mload(0x40)\n      returndatasize\n      not(0x1f)\n      0x1f\n      dup3\n      add\n      and\n      dup3\n      add\n      dup1\n      0x40\n      mstore\n      pop\n      dup2\n      add\n      swap1\n      tag_29\n      swap2\n      swap1\n      tag_30\n      jump\t// in\n    tag_29:\n        /* \"Code-hardhat-ethersJs/contracts/MyTokenMarket.sol\":2340:2410  IMasterChef.UserInfo memory userInfo = masterChef.userInfo(msg.sender) */\n      swap1\n      pop\n        /* \"Code-hardhat-ethersJs/contracts/MyTokenMarket.sol\":2420:2430  masterChef */\n      0x07\n      0x00\n      swap1\n      sload\n      swap1\n      0x0100\n      exp\n      swap1\n      div\n      0xffffffffffffffffffffffffffffffffffffffff\n      and\n        /* \"Code-hardhat-ethersJs/contracts/MyTokenMarket.sol\":2420:2439  masterChef.withdraw */\n      0xffffffffffffffffffffffffffffffffffffffff\n      and\n      0x441a3e70\n        /* \"Code-hardhat-ethersJs/contracts/MyTokenMarket.sol\":2440:2443  pid */\n      dup4\n        /* \"Code-hardhat-ethersJs/contracts/MyTokenMarket.sol\":2444:2452  userInfo */\n      dup4\n        /* \"Code-hardhat-ethersJs/contracts/MyTokenMarket.sol\":2444:2459  userInfo.amount */\n      0x00\n      add\n      mload\n        /* \"Code-hardhat-ethersJs/contracts/MyTokenMarket.sol\":2420:2460  masterChef.withdraw(pid,userInfo.amount) */\n      mload(0x40)\n      dup4\n      0xffffffff\n      and\n      0xe0\n      shl\n      dup2\n      mstore\n      0x04\n      add\n      tag_31\n      swap3\n      swap2\n      swap1\n      tag_32\n      jump\t// in\n    tag_31:\n      0x00\n      mload(0x40)\n      dup1\n      dup4\n      sub\n      dup2\n      0x00\n      dup8\n      dup1\n      extcodesize\n      iszero\n      dup1\n      iszero\n      tag_33\n      jumpi\n      0x00\n      dup1\n      revert\n    tag_33:\n      pop\n      gas\n      call\n      iszero\n      dup1\n      iszero\n      tag_35\n      jumpi\n      returndatasize\n      0x00\n      dup1\n      returndatacopy\n      revert(0x00, returndatasize)\n    tag_35:\n      pop\n      pop\n      pop\n      pop\n        /* \"Code-hardhat-ethersJs/contracts/MyTokenMarket.sol\":2330:2467  {... */\n      pop\n        /* \"Code-hardhat-ethersJs/contracts/MyTokenMarket.sol\":2294:2467  function withdraw(uint256 pid)public{... */\n      pop\n      jump\t// out\n        /* \"Code-hardhat-ethersJs/contracts/MyTokenMarket.sol\":1074:1692  function addLiquidity(... */\n    tag_13:\n        /* \"Code-hardhat-ethersJs/contracts/MyTokenMarket.sol\":1162:1180  uint256 amountOfLp */\n      0x00\n        /* \"Code-hardhat-ethersJs/contracts/MyTokenMarket.sol\":1229:1235  mtoken */\n      0x06\n      0x00\n      swap1\n      sload\n      swap1\n      0x0100\n      exp\n      swap1\n      div\n      0xffffffffffffffffffffffffffffffffffffffff\n      and\n        /* \"Code-hardhat-ethersJs/contracts/MyTokenMarket.sol\":1229:1243  mtoken.approve */\n      0xffffffffffffffffffffffffffffffffffffffff\n      and\n      0x095ea7b3\n        /* \"Code-hardhat-ethersJs/contracts/MyTokenMarket.sol\":1252:1261  uv2router */\n      0x05\n      0x00\n      swap1\n      sload\n      swap1\n      0x0100\n      exp\n      swap1\n      div\n      0xffffffffffffffffffffffffffffffffffffffff\n      and\n        /* \"Code-hardhat-ethersJs/contracts/MyTokenMarket.sol\":1264:1284  amountMyTokenDesired */\n      dup5\n        /* \"Code-hardhat-ethersJs/contracts/MyTokenMarket.sol\":1229:1285  mtoken.approve(address(uv2router), amountMyTokenDesired) */\n      mload(0x40)\n      dup4\n      0xffffffff\n      and\n      0xe0\n      shl\n      dup2\n      mstore\n      0x04\n      add\n      tag_37\n      swap3\n      swap2\n      swap1\n      tag_38\n      jump\t// in\n    tag_37:\n      0x20\n      mload(0x40)\n      dup1\n      dup4\n      sub\n      dup2\n      0x00\n      dup8\n      gas\n      call\n      iszero\n      dup1\n      iszero\n      tag_40\n      jumpi\n      returndatasize\n      0x00\n      dup1\n      returndatacopy\n      revert(0x00, returndatasize)\n    tag_40:\n      pop\n      pop\n      pop\n      pop\n      mload(0x40)\n      returndatasize\n      not(0x1f)\n      0x1f\n      dup3\n      add\n      and\n      dup3\n      add\n      dup1\n      0x40\n      mstore\n      pop\n      dup2\n      add\n      swap1\n      tag_41\n      swap2\n      swap1\n      tag_42\n      jump\t// in\n    tag_41:\n      pop\n        /* \"Code-hardhat-ethersJs/contracts/MyTokenMarket.sol\":1295:1307  bool success */\n      0x00\n        /* \"Code-hardhat-ethersJs/contracts/MyTokenMarket.sol\":1310:1316  mtoken */\n      0x06\n      0x00\n      swap1\n      sload\n      swap1\n      0x0100\n      exp\n      swap1\n      div\n      0xffffffffffffffffffffffffffffffffffffffff\n      and\n        /* \"Code-hardhat-ethersJs/contracts/MyTokenMarket.sol\":1310:1329  mtoken.transferFrom */\n      0xffffffffffffffffffffffffffffffffffffffff\n      and\n      0x23b872dd\n        /* \"Code-hardhat-ethersJs/contracts/MyTokenMarket.sol\":1330:1340  msg.sender */\n      caller\n        /* \"Code-hardhat-ethersJs/contracts/MyTokenMarket.sol\":1350:1354  this */\n      address\n        /* \"Code-hardhat-ethersJs/contracts/MyTokenMarket.sol\":1357:1377  amountMyTokenDesired */\n      dup7\n        /* \"Code-hardhat-ethersJs/contracts/MyTokenMarket.sol\":1310:1378  mtoken.transferFrom(msg.sender, address(this), amountMyTokenDesired) */\n      mload(0x40)\n      dup5\n      0xffffffff\n      and\n      0xe0\n      shl\n      dup2\n      mstore\n      0x04\n      add\n      tag_43\n      swap4\n      swap3\n      swap2\n      swap1\n      tag_44\n      jump\t// in\n    tag_43:\n      0x20\n      mload(0x40)\n      dup1\n      dup4\n      sub\n      dup2\n      0x00\n      dup8\n      gas\n      call\n      iszero\n      dup1\n      iszero\n      tag_46\n      jumpi\n      returndatasize\n      0x00\n      dup1\n      returndatacopy\n      revert(0x00, returndatasize)\n    tag_46:\n      pop\n      pop\n      pop\n      pop\n      mload(0x40)\n      returndatasize\n      not(0x1f)\n      0x1f\n      dup3\n      add\n      and\n      dup3\n      add\n      dup1\n      0x40\n      mstore\n      pop\n      dup2\n      add\n      swap1\n      tag_47\n      swap2\n      swap1\n      tag_42\n      jump\t// in\n    tag_47:\n        /* \"Code-hardhat-ethersJs/contracts/MyTokenMarket.sol\":1295:1378  bool success = mtoken.transferFrom(msg.sender, address(this), amountMyTokenDesired) */\n      swap1\n      pop\n        /* \"Code-hardhat-ethersJs/contracts/MyTokenMarket.sol\":1396:1403  success */\n      dup1\n        /* \"Code-hardhat-ethersJs/contracts/MyTokenMarket.sol\":1388:1430  require(success, \"mtoken transfer error!\") */\n      tag_48\n      jumpi\n      mload(0x40)\n      0x08c379a000000000000000000000000000000000000000000000000000000000\n      dup2\n      mstore\n      0x04\n      add\n      tag_49\n      swap1\n      tag_50\n      jump\t// in\n    tag_49:\n      mload(0x40)\n      dup1\n      swap2\n      sub\n      swap1\n      revert\n    tag_48:\n        /* \"Code-hardhat-ethersJs/contracts/MyTokenMarket.sol\":1460:1461  0 */\n      0x00\n        /* \"Code-hardhat-ethersJs/contracts/MyTokenMarket.sol\":1448:1457  msg.value */\n      callvalue\n        /* \"Code-hardhat-ethersJs/contracts/MyTokenMarket.sol\":1448:1461  msg.value > 0 */\n      gt\n        /* \"Code-hardhat-ethersJs/contracts/MyTokenMarket.sol\":1440:1508  require(msg.value > 0, \"msg.value should biggger than amountETHMin\") */\n      tag_51\n      jumpi\n      mload(0x40)\n      0x08c379a000000000000000000000000000000000000000000000000000000000\n      dup2\n      mstore\n      0x04\n      add\n      tag_52\n      swap1\n      tag_53\n      jump\t// in\n    tag_52:\n      mload(0x40)\n      dup1\n      swap2\n      sub\n      swap1\n      revert\n    tag_51:\n        /* \"Code-hardhat-ethersJs/contracts/MyTokenMarket.sol\":1519:1535  uint amountToken */\n      0x00\n        /* \"Code-hardhat-ethersJs/contracts/MyTokenMarket.sol\":1541:1550  uv2router */\n      0x05\n      0x00\n      swap1\n      sload\n      swap1\n      0x0100\n      exp\n      swap1\n      div\n      0xffffffffffffffffffffffffffffffffffffffff\n      and\n        /* \"Code-hardhat-ethersJs/contracts/MyTokenMarket.sol\":1541:1566  uv2router.addLiquidityETH */\n      0xffffffffffffffffffffffffffffffffffffffff\n      and\n      0xf305d719\n        /* \"Code-hardhat-ethersJs/contracts/MyTokenMarket.sol\":1574:1583  msg.value */\n      callvalue\n        /* \"Code-hardhat-ethersJs/contracts/MyTokenMarket.sol\":1586:1600  mytokenaddress */\n      0x02\n      0x00\n      swap1\n      sload\n      swap1\n      0x0100\n      exp\n      swap1\n      div\n      0xffffffffffffffffffffffffffffffffffffffff\n      and\n        /* \"Code-hardhat-ethersJs/contracts/MyTokenMarket.sol\":1602:1622  amountMyTokenDesired */\n      dup8\n        /* \"Code-hardhat-ethersJs/contracts/MyTokenMarket.sol\":1624:1625  0 */\n      0x00\n        /* \"Code-hardhat-ethersJs/contracts/MyTokenMarket.sol\":1627:1628  0 */\n      dup1\n        /* \"Code-hardhat-ethersJs/contracts/MyTokenMarket.sol\":1630:1640  msg.sender */\n      caller\n        /* \"Code-hardhat-ethersJs/contracts/MyTokenMarket.sol\":1641:1656  block.timestamp */\n      timestamp\n        /* \"Code-hardhat-ethersJs/contracts/MyTokenMarket.sol\":1541:1657  uv2router.addLiquidityETH{value: msg.value}( mytokenaddress, amountMyTokenDesired, 0, 0, msg.sender,block.timestamp) */\n      mload(0x40)\n      dup9\n      0xffffffff\n      and\n      0xe0\n      shl\n      dup2\n      mstore\n      0x04\n      add\n      tag_54\n      swap7\n      swap6\n      swap5\n      swap4\n      swap3\n      swap2\n      swap1\n      tag_55\n      jump\t// in\n    tag_54:\n      0x60\n      mload(0x40)\n      dup1\n      dup4\n      sub\n      dup2\n      dup6\n      dup9\n      gas\n      call\n      iszero\n      dup1\n      iszero\n      tag_57\n      jumpi\n      returndatasize\n      0x00\n      dup1\n      returndatacopy\n      revert(0x00, returndatasize)\n    tag_57:\n      pop\n      pop\n      pop\n      pop\n      pop\n      mload(0x40)\n      returndatasize\n      not(0x1f)\n      0x1f\n      dup3\n      add\n      and\n      dup3\n      add\n      dup1\n      0x40\n      mstore\n      pop\n      dup2\n      add\n      swap1\n      tag_58\n      swap2\n      swap1\n      tag_59\n      jump\t// in\n    tag_58:\n        /* \"Code-hardhat-ethersJs/contracts/MyTokenMarket.sol\":1518:1657  (uint amountToken,,) = uv2router.addLiquidityETH{value: msg.value}( mytokenaddress, amountMyTokenDesired, 0, 0, msg.sender,block.timestamp) */\n      pop\n      pop\n      swap1\n      pop\n        /* \"Code-hardhat-ethersJs/contracts/MyTokenMarket.sol\":1674:1685  amountToken */\n      dup1\n        /* \"Code-hardhat-ethersJs/contracts/MyTokenMarket.sol\":1667:1685  return amountToken */\n      swap3\n      pop\n      pop\n      pop\n        /* \"Code-hardhat-ethersJs/contracts/MyTokenMarket.sol\":1074:1692  function addLiquidity(... */\n      swap2\n      swap1\n      pop\n      jump\t// out\n        /* \"Code-hardhat-ethersJs/contracts/MyTokenMarket.sol\":1933:2257  function buyExactTokenByETH(uint amountOutMin)public payable{... */\n    tag_18:\n        /* \"Code-hardhat-ethersJs/contracts/MyTokenMarket.sol\":2007:2028  address[] memory path */\n      0x00\n        /* \"Code-hardhat-ethersJs/contracts/MyTokenMarket.sol\":2045:2046  2 */\n      0x02\n        /* \"Code-hardhat-ethersJs/contracts/MyTokenMarket.sol\":2031:2047  new address[](2) */\n      0xffffffffffffffff\n      dup2\n      gt\n      iszero\n      tag_61\n      jumpi\n      tag_62\n      tag_63\n      jump\t// in\n    tag_62:\n    tag_61:\n      mload(0x40)\n      swap1\n      dup1\n      dup3\n      mstore\n      dup1\n      0x20\n      mul\n      0x20\n      add\n      dup3\n      add\n      0x40\n      mstore\n      dup1\n      iszero\n      tag_64\n      jumpi\n      dup2\n      0x20\n      add\n      0x20\n      dup3\n      mul\n      dup1\n      calldatasize\n      dup4\n      calldatacopy\n      dup1\n      dup3\n      add\n      swap2\n      pop\n      pop\n      swap1\n      pop\n    tag_64:\n      pop\n        /* \"Code-hardhat-ethersJs/contracts/MyTokenMarket.sol\":2007:2047  address[] memory path = new address[](2) */\n      swap1\n      pop\n        /* \"Code-hardhat-ethersJs/contracts/MyTokenMarket.sol\":2079:2090  wethaddress */\n      0x01\n      0x00\n      swap1\n      sload\n      swap1\n      0x0100\n      exp\n      swap1\n      div\n      0xffffffffffffffffffffffffffffffffffffffff\n      and\n        /* \"Code-hardhat-ethersJs/contracts/MyTokenMarket.sol\":2061:2065  path */\n      dup2\n        /* \"Code-hardhat-ethersJs/contracts/MyTokenMarket.sol\":2066:2067  0 */\n      0x00\n        /* \"Code-hardhat-ethersJs/contracts/MyTokenMarket.sol\":2061:2068  path[0] */\n      dup2\n      mload\n      dup2\n      lt\n      tag_65\n      jumpi\n      tag_66\n      tag_67\n      jump\t// in\n    tag_66:\n    tag_65:\n      0x20\n      mul\n      0x20\n      add\n      add\n        /* \"Code-hardhat-ethersJs/contracts/MyTokenMarket.sol\":2061:2091  path[0] = address(wethaddress) */\n      swap1\n      0xffffffffffffffffffffffffffffffffffffffff\n      and\n      swap1\n      dup2\n      0xffffffffffffffffffffffffffffffffffffffff\n      and\n      dup2\n      mstore\n      pop\n      pop\n        /* \"Code-hardhat-ethersJs/contracts/MyTokenMarket.sol\":2123:2137  mytokenaddress */\n      0x02\n      0x00\n      swap1\n      sload\n      swap1\n      0x0100\n      exp\n      swap1\n      div\n      0xffffffffffffffffffffffffffffffffffffffff\n      and\n        /* \"Code-hardhat-ethersJs/contracts/MyTokenMarket.sol\":2105:2109  path */\n      dup2\n        /* \"Code-hardhat-ethersJs/contracts/MyTokenMarket.sol\":2110:2111  1 */\n      0x01\n        /* \"Code-hardhat-ethersJs/contracts/MyTokenMarket.sol\":2105:2112  path[1] */\n      dup2\n      mload\n      dup2\n      lt\n      tag_68\n      jumpi\n      tag_69\n      tag_67\n      jump\t// in\n    tag_69:\n    tag_68:\n      0x20\n      mul\n      0x20\n      add\n      add\n        /* \"Code-hardhat-ethersJs/contracts/MyTokenMarket.sol\":2105:2138  path[1] = address(mytokenaddress) */\n      swap1\n      0xffffffffffffffffffffffffffffffffffffffff\n      and\n      swap1\n      dup2\n      0xffffffffffffffffffffffffffffffffffffffff\n      and\n      dup2\n      mstore\n      pop\n      pop\n        /* \"Code-hardhat-ethersJs/contracts/MyTokenMarket.sol\":2152:2161  uv2router */\n      0x05\n      0x00\n      swap1\n      sload\n      swap1\n      0x0100\n      exp\n      swap1\n      div\n      0xffffffffffffffffffffffffffffffffffffffff\n      and\n        /* \"Code-hardhat-ethersJs/contracts/MyTokenMarket.sol\":2152:2183  uv2router.swapExactETHForTokens */\n      0xffffffffffffffffffffffffffffffffffffffff\n      and\n      0x7ff36ab5\n        /* \"Code-hardhat-ethersJs/contracts/MyTokenMarket.sol\":2191:2200  msg.value */\n      callvalue\n        /* \"Code-hardhat-ethersJs/contracts/MyTokenMarket.sol\":2202:2214  amountOutMin */\n      dup5\n        /* \"Code-hardhat-ethersJs/contracts/MyTokenMarket.sol\":2216:2220  path */\n      dup5\n        /* \"Code-hardhat-ethersJs/contracts/MyTokenMarket.sol\":2222:2232  msg.sender */\n      caller\n        /* \"Code-hardhat-ethersJs/contracts/MyTokenMarket.sol\":2234:2249  block.timestamp */\n      timestamp\n        /* \"Code-hardhat-ethersJs/contracts/MyTokenMarket.sol\":2152:2250  uv2router.swapExactETHForTokens{value: msg.value}(amountOutMin, path, msg.sender, block.timestamp) */\n      mload(0x40)\n      dup7\n      0xffffffff\n      and\n      0xe0\n      shl\n      dup2\n      mstore\n      0x04\n      add\n      tag_70\n      swap5\n      swap4\n      swap3\n      swap2\n      swap1\n      tag_71\n      jump\t// in\n    tag_70:\n      0x00\n      mload(0x40)\n      dup1\n      dup4\n      sub\n      dup2\n      dup6\n      dup9\n      gas\n      call\n      iszero\n      dup1\n      iszero\n      tag_73\n      jumpi\n      returndatasize\n      0x00\n      dup1\n      returndatacopy\n      revert(0x00, returndatasize)\n    tag_73:\n      pop\n      pop\n      pop\n      pop\n      pop\n      mload(0x40)\n      returndatasize\n      0x00\n      dup3\n      returndatacopy\n      returndatasize\n      not(0x1f)\n      0x1f\n      dup3\n      add\n      and\n      dup3\n      add\n      dup1\n      0x40\n      mstore\n      pop\n      dup2\n      add\n      swap1\n      tag_74\n      swap2\n      swap1\n      tag_75\n      jump\t// in\n    tag_74:\n      pop\n        /* \"Code-hardhat-ethersJs/contracts/MyTokenMarket.sol\":1993:2257  {... */\n      pop\n        /* \"Code-hardhat-ethersJs/contracts/MyTokenMarket.sol\":1933:2257  function buyExactTokenByETH(uint amountOutMin)public payable{... */\n      pop\n      jump\t// out\n        /* \"Code-hardhat-ethersJs/contracts/MyTokenMarket.sol\":1698:1926  function depositToMasterChef(address lpAddress,uint256 pid, uint256 amount)public{... */\n    tag_23:\n        /* \"Code-hardhat-ethersJs/contracts/MyTokenMarket.sol\":1834:1843  lpAddress */\n      dup3\n        /* \"Code-hardhat-ethersJs/contracts/MyTokenMarket.sol\":1827:1852  IERC20(lpAddress).approve */\n      0xffffffffffffffffffffffffffffffffffffffff\n      and\n      0x095ea7b3\n        /* \"Code-hardhat-ethersJs/contracts/MyTokenMarket.sol\":1853:1870  masterchefaddress */\n      0x04\n      0x00\n      swap1\n      sload\n      swap1\n      0x0100\n      exp\n      swap1\n      div\n      0xffffffffffffffffffffffffffffffffffffffff\n      and\n        /* \"Code-hardhat-ethersJs/contracts/MyTokenMarket.sol\":1872:1878  amount */\n      dup4\n        /* \"Code-hardhat-ethersJs/contracts/MyTokenMarket.sol\":1827:1879  IERC20(lpAddress).approve(masterchefaddress, amount) */\n      mload(0x40)\n      dup4\n      0xffffffff\n      and\n      0xe0\n      shl\n      dup2\n      mstore\n      0x04\n      add\n      tag_77\n      swap3\n      swap2\n      swap1\n      tag_38\n      jump\t// in\n    tag_77:\n      0x20\n      mload(0x40)\n      dup1\n      dup4\n      sub\n      dup2\n      0x00\n      dup8\n      gas\n      call\n      iszero\n      dup1\n      iszero\n      tag_79\n      jumpi\n      returndatasize\n      0x00\n      dup1\n      returndatacopy\n      revert(0x00, returndatasize)\n    tag_79:\n      pop\n      pop\n      pop\n      pop\n      mload(0x40)\n      returndatasize\n      not(0x1f)\n      0x1f\n      dup3\n      add\n      and\n      dup3\n      add\n      dup1\n      0x40\n      mstore\n      pop\n      dup2\n      add\n      swap1\n      tag_80\n      swap2\n      swap1\n      tag_42\n      jump\t// in\n    tag_80:\n      pop\n        /* \"Code-hardhat-ethersJs/contracts/MyTokenMarket.sol\":1889:1899  masterChef */\n      0x07\n      0x00\n      swap1\n      sload\n      swap1\n      0x0100\n      exp\n      swap1\n      div\n      0xffffffffffffffffffffffffffffffffffffffff\n      and\n        /* \"Code-hardhat-ethersJs/contracts/MyTokenMarket.sol\":1889:1907  masterChef.deposit */\n      0xffffffffffffffffffffffffffffffffffffffff\n      and\n      0xe2bbb158\n        /* \"Code-hardhat-ethersJs/contracts/MyTokenMarket.sol\":1908:1911  pid */\n      dup4\n        /* \"Code-hardhat-ethersJs/contracts/MyTokenMarket.sol\":1912:1918  amount */\n      dup4\n        /* \"Code-hardhat-ethersJs/contracts/MyTokenMarket.sol\":1889:1919  masterChef.deposit(pid,amount) */\n      mload(0x40)\n      dup4\n      0xffffffff\n      and\n      0xe0\n      shl\n      dup2\n      mstore\n      0x04\n      add\n      tag_81\n      swap3\n      swap2\n      swap1\n      tag_32\n      jump\t// in\n    tag_81:\n      0x00\n      mload(0x40)\n      dup1\n      dup4\n      sub\n      dup2\n      0x00\n      dup8\n      dup1\n      extcodesize\n      iszero\n      dup1\n      iszero\n      tag_82\n      jumpi\n      0x00\n      dup1\n      revert\n    tag_82:\n      pop\n      gas\n      call\n      iszero\n      dup1\n      iszero\n      tag_84\n      jumpi\n      returndatasize\n      0x00\n      dup1\n      returndatacopy\n      revert(0x00, returndatasize)\n    tag_84:\n      pop\n      pop\n      pop\n      pop\n        /* \"Code-hardhat-ethersJs/contracts/MyTokenMarket.sol\":1698:1926  function depositToMasterChef(address lpAddress,uint256 pid, uint256 amount)public{... */\n      pop\n      pop\n      pop\n      jump\t// out\n        /* \"#utility.yul\":7:82   */\n    tag_85:\n        /* \"#utility.yul\":40:46   */\n      0x00\n        /* \"#utility.yul\":73:75   */\n      0x40\n        /* \"#utility.yul\":67:76   */\n      mload\n        /* \"#utility.yul\":57:76   */\n      swap1\n      pop\n        /* \"#utility.yul\":7:82   */\n      swap1\n      jump\t// out\n        /* \"#utility.yul\":88:205   */\n    tag_86:\n        /* \"#utility.yul\":197:198   */\n      0x00\n        /* \"#utility.yul\":194:195   */\n      dup1\n        /* \"#utility.yul\":187:199   */\n      revert\n        /* \"#utility.yul\":211:328   */\n    tag_87:\n        /* \"#utility.yul\":320:321   */\n      0x00\n        /* \"#utility.yul\":317:318   */\n      dup1\n        /* \"#utility.yul\":310:322   */\n      revert\n        /* \"#utility.yul\":334:411   */\n    tag_88:\n        /* \"#utility.yul\":371:378   */\n      0x00\n        /* \"#utility.yul\":400:405   */\n      dup2\n        /* \"#utility.yul\":389:405   */\n      swap1\n      pop\n        /* \"#utility.yul\":334:411   */\n      swap2\n      swap1\n      pop\n      jump\t// out\n        /* \"#utility.yul\":417:539   */\n    tag_89:\n        /* \"#utility.yul\":490:514   */\n      tag_134\n        /* \"#utility.yul\":508:513   */\n      dup2\n        /* \"#utility.yul\":490:514   */\n      tag_88\n      jump\t// in\n    tag_134:\n        /* \"#utility.yul\":483:488   */\n      dup2\n        /* \"#utility.yul\":480:515   */\n      eq\n        /* \"#utility.yul\":470:533   */\n      tag_135\n      jumpi\n        /* \"#utility.yul\":529:530   */\n      0x00\n        /* \"#utility.yul\":526:527   */\n      dup1\n        /* \"#utility.yul\":519:531   */\n      revert\n        /* \"#utility.yul\":470:533   */\n    tag_135:\n        /* \"#utility.yul\":417:539   */\n      pop\n      jump\t// out\n        /* \"#utility.yul\":545:684   */\n    tag_90:\n        /* \"#utility.yul\":591:596   */\n      0x00\n        /* \"#utility.yul\":629:635   */\n      dup2\n        /* \"#utility.yul\":616:636   */\n      calldataload\n        /* \"#utility.yul\":607:636   */\n      swap1\n      pop\n        /* \"#utility.yul\":645:678   */\n      tag_137\n        /* \"#utility.yul\":672:677   */\n      dup2\n        /* \"#utility.yul\":645:678   */\n      tag_89\n      jump\t// in\n    tag_137:\n        /* \"#utility.yul\":545:684   */\n      swap3\n      swap2\n      pop\n      pop\n      jump\t// out\n        /* \"#utility.yul\":690:1019   */\n    tag_9:\n        /* \"#utility.yul\":749:755   */\n      0x00\n        /* \"#utility.yul\":798:800   */\n      0x20\n        /* \"#utility.yul\":786:795   */\n      dup3\n        /* \"#utility.yul\":777:784   */\n      dup5\n        /* \"#utility.yul\":773:796   */\n      sub\n        /* \"#utility.yul\":769:801   */\n      slt\n        /* \"#utility.yul\":766:885   */\n      iszero\n      tag_139\n      jumpi\n        /* \"#utility.yul\":804:883   */\n      tag_140\n      tag_86\n      jump\t// in\n    tag_140:\n        /* \"#utility.yul\":766:885   */\n    tag_139:\n        /* \"#utility.yul\":924:925   */\n      0x00\n        /* \"#utility.yul\":949:1002   */\n      tag_141\n        /* \"#utility.yul\":994:1001   */\n      dup5\n        /* \"#utility.yul\":985:991   */\n      dup3\n        /* \"#utility.yul\":974:983   */\n      dup6\n        /* \"#utility.yul\":970:992   */\n      add\n        /* \"#utility.yul\":949:1002   */\n      tag_90\n      jump\t// in\n    tag_141:\n        /* \"#utility.yul\":939:1002   */\n      swap2\n      pop\n        /* \"#utility.yul\":895:1012   */\n      pop\n        /* \"#utility.yul\":690:1019   */\n      swap3\n      swap2\n      pop\n      pop\n      jump\t// out\n        /* \"#utility.yul\":1025:1143   */\n    tag_91:\n        /* \"#utility.yul\":1112:1136   */\n      tag_143\n        /* \"#utility.yul\":1130:1135   */\n      dup2\n        /* \"#utility.yul\":1112:1136   */\n      tag_88\n      jump\t// in\n    tag_143:\n        /* \"#utility.yul\":1107:1110   */\n      dup3\n        /* \"#utility.yul\":1100:1137   */\n      mstore\n        /* \"#utility.yul\":1025:1143   */\n      pop\n      pop\n      jump\t// out\n        /* \"#utility.yul\":1149:1371   */\n    tag_15:\n        /* \"#utility.yul\":1242:1246   */\n      0x00\n        /* \"#utility.yul\":1280:1282   */\n      0x20\n        /* \"#utility.yul\":1269:1278   */\n      dup3\n        /* \"#utility.yul\":1265:1283   */\n      add\n        /* \"#utility.yul\":1257:1283   */\n      swap1\n      pop\n        /* \"#utility.yul\":1293:1364   */\n      tag_145\n        /* \"#utility.yul\":1361:1362   */\n      0x00\n        /* \"#utility.yul\":1350:1359   */\n      dup4\n        /* \"#utility.yul\":1346:1363   */\n      add\n        /* \"#utility.yul\":1337:1343   */\n      dup5\n        /* \"#utility.yul\":1293:1364   */\n      tag_91\n      jump\t// in\n    tag_145:\n        /* \"#utility.yul\":1149:1371   */\n      swap3\n      swap2\n      pop\n      pop\n      jump\t// out\n        /* \"#utility.yul\":1377:1503   */\n    tag_92:\n        /* \"#utility.yul\":1414:1421   */\n      0x00\n        /* \"#utility.yul\":1454:1496   */\n      0xffffffffffffffffffffffffffffffffffffffff\n        /* \"#utility.yul\":1447:1452   */\n      dup3\n        /* \"#utility.yul\":1443:1497   */\n      and\n        /* \"#utility.yul\":1432:1497   */\n      swap1\n      pop\n        /* \"#utility.yul\":1377:1503   */\n      swap2\n      swap1\n      pop\n      jump\t// out\n        /* \"#utility.yul\":1509:1605   */\n    tag_93:\n        /* \"#utility.yul\":1546:1553   */\n      0x00\n        /* \"#utility.yul\":1575:1599   */\n      tag_148\n        /* \"#utility.yul\":1593:1598   */\n      dup3\n        /* \"#utility.yul\":1575:1599   */\n      tag_92\n      jump\t// in\n    tag_148:\n        /* \"#utility.yul\":1564:1599   */\n      swap1\n      pop\n        /* \"#utility.yul\":1509:1605   */\n      swap2\n      swap1\n      pop\n      jump\t// out\n        /* \"#utility.yul\":1611:1733   */\n    tag_94:\n        /* \"#utility.yul\":1684:1708   */\n      tag_150\n        /* \"#utility.yul\":1702:1707   */\n      dup2\n        /* \"#utility.yul\":1684:1708   */\n      tag_93\n      jump\t// in\n    tag_150:\n        /* \"#utility.yul\":1677:1682   */\n      dup2\n        /* \"#utility.yul\":1674:1709   */\n      eq\n        /* \"#utility.yul\":1664:1727   */\n      tag_151\n      jumpi\n        /* \"#utility.yul\":1723:1724   */\n      0x00\n        /* \"#utility.yul\":1720:1721   */\n      dup1\n        /* \"#utility.yul\":1713:1725   */\n      revert\n        /* \"#utility.yul\":1664:1727   */\n    tag_151:\n        /* \"#utility.yul\":1611:1733   */\n      pop\n      jump\t// out\n        /* \"#utility.yul\":1739:1878   */\n    tag_95:\n        /* \"#utility.yul\":1785:1790   */\n      0x00\n        /* \"#utility.yul\":1823:1829   */\n      dup2\n        /* \"#utility.yul\":1810:1830   */\n      calldataload\n        /* \"#utility.yul\":1801:1830   */\n      swap1\n      pop\n        /* \"#utility.yul\":1839:1872   */\n      tag_153\n        /* \"#utility.yul\":1866:1871   */\n      dup2\n        /* \"#utility.yul\":1839:1872   */\n      tag_94\n      jump\t// in\n    tag_153:\n        /* \"#utility.yul\":1739:1878   */\n      swap3\n      swap2\n      pop\n      pop\n      jump\t// out\n        /* \"#utility.yul\":1884:2503   */\n    tag_22:\n        /* \"#utility.yul\":1961:1967   */\n      0x00\n        /* \"#utility.yul\":1969:1975   */\n      dup1\n        /* \"#utility.yul\":1977:1983   */\n      0x00\n        /* \"#utility.yul\":2026:2028   */\n      0x60\n        /* \"#utility.yul\":2014:2023   */\n      dup5\n        /* \"#utility.yul\":2005:2012   */\n      dup7\n        /* \"#utility.yul\":2001:2024   */\n      sub\n        /* \"#utility.yul\":1997:2029   */\n      slt\n        /* \"#utility.yul\":1994:2113   */\n      iszero\n      tag_155\n      jumpi\n        /* \"#utility.yul\":2032:2111   */\n      tag_156\n      tag_86\n      jump\t// in\n    tag_156:\n        /* \"#utility.yul\":1994:2113   */\n    tag_155:\n        /* \"#utility.yul\":2152:2153   */\n      0x00\n        /* \"#utility.yul\":2177:2230   */\n      tag_157\n        /* \"#utility.yul\":2222:2229   */\n      dup7\n        /* \"#utility.yul\":2213:2219   */\n      dup3\n        /* \"#utility.yul\":2202:2211   */\n      dup8\n        /* \"#utility.yul\":2198:2220   */\n      add\n        /* \"#utility.yul\":2177:2230   */\n      tag_95\n      jump\t// in\n    tag_157:\n        /* \"#utility.yul\":2167:2230   */\n      swap4\n      pop\n        /* \"#utility.yul\":2123:2240   */\n      pop\n        /* \"#utility.yul\":2279:2281   */\n      0x20\n        /* \"#utility.yul\":2305:2358   */\n      tag_158\n        /* \"#utility.yul\":2350:2357   */\n      dup7\n        /* \"#utility.yul\":2341:2347   */\n      dup3\n        /* \"#utility.yul\":2330:2339   */\n      dup8\n        /* \"#utility.yul\":2326:2348   */\n      add\n        /* \"#utility.yul\":2305:2358   */\n      tag_90\n      jump\t// in\n    tag_158:\n        /* \"#utility.yul\":2295:2358   */\n      swap3\n      pop\n        /* \"#utility.yul\":2250:2368   */\n      pop\n        /* \"#utility.yul\":2407:2409   */\n      0x40\n        /* \"#utility.yul\":2433:2486   */\n      tag_159\n        /* \"#utility.yul\":2478:2485   */\n      dup7\n        /* \"#utility.yul\":2469:2475   */\n      dup3\n        /* \"#utility.yul\":2458:2467   */\n      dup8\n        /* \"#utility.yul\":2454:2476   */\n      add\n        /* \"#utility.yul\":2433:2486   */\n      tag_90\n      jump\t// in\n    tag_159:\n        /* \"#utility.yul\":2423:2486   */\n      swap2\n      pop\n        /* \"#utility.yul\":2378:2496   */\n      pop\n        /* \"#utility.yul\":1884:2503   */\n      swap3\n      pop\n      swap3\n      pop\n      swap3\n      jump\t// out\n        /* \"#utility.yul\":2509:2627   */\n    tag_96:\n        /* \"#utility.yul\":2596:2620   */\n      tag_161\n        /* \"#utility.yul\":2614:2619   */\n      dup2\n        /* \"#utility.yul\":2596:2620   */\n      tag_93\n      jump\t// in\n    tag_161:\n        /* \"#utility.yul\":2591:2594   */\n      dup3\n        /* \"#utility.yul\":2584:2621   */\n      mstore\n        /* \"#utility.yul\":2509:2627   */\n      pop\n      pop\n      jump\t// out\n        /* \"#utility.yul\":2633:2855   */\n    tag_26:\n        /* \"#utility.yul\":2726:2730   */\n      0x00\n        /* \"#utility.yul\":2764:2766   */\n      0x20\n        /* \"#utility.yul\":2753:2762   */\n      dup3\n        /* \"#utility.yul\":2749:2767   */\n      add\n        /* \"#utility.yul\":2741:2767   */\n      swap1\n      pop\n        /* \"#utility.yul\":2777:2848   */\n      tag_163\n        /* \"#utility.yul\":2845:2846   */\n      0x00\n        /* \"#utility.yul\":2834:2843   */\n      dup4\n        /* \"#utility.yul\":2830:2847   */\n      add\n        /* \"#utility.yul\":2821:2827   */\n      dup5\n        /* \"#utility.yul\":2777:2848   */\n      tag_96\n      jump\t// in\n    tag_163:\n        /* \"#utility.yul\":2633:2855   */\n      swap3\n      swap2\n      pop\n      pop\n      jump\t// out\n        /* \"#utility.yul\":2861:2978   */\n    tag_97:\n        /* \"#utility.yul\":2970:2971   */\n      0x00\n        /* \"#utility.yul\":2967:2968   */\n      dup1\n        /* \"#utility.yul\":2960:2972   */\n      revert\n        /* \"#utility.yul\":2984:3086   */\n    tag_98:\n        /* \"#utility.yul\":3025:3031   */\n      0x00\n        /* \"#utility.yul\":3076:3078   */\n      0x1f\n        /* \"#utility.yul\":3072:3079   */\n      not\n        /* \"#utility.yul\":3067:3069   */\n      0x1f\n        /* \"#utility.yul\":3060:3065   */\n      dup4\n        /* \"#utility.yul\":3056:3070   */\n      add\n        /* \"#utility.yul\":3052:3080   */\n      and\n        /* \"#utility.yul\":3042:3080   */\n      swap1\n      pop\n        /* \"#utility.yul\":2984:3086   */\n      swap2\n      swap1\n      pop\n      jump\t// out\n        /* \"#utility.yul\":3092:3272   */\n    tag_63:\n        /* \"#utility.yul\":3140:3217   */\n      0x4e487b7100000000000000000000000000000000000000000000000000000000\n        /* \"#utility.yul\":3137:3138   */\n      0x00\n        /* \"#utility.yul\":3130:3218   */\n      mstore\n        /* \"#utility.yul\":3237:3241   */\n      0x41\n        /* \"#utility.yul\":3234:3235   */\n      0x04\n        /* \"#utility.yul\":3227:3242   */\n      mstore\n        /* \"#utility.yul\":3261:3265   */\n      0x24\n        /* \"#utility.yul\":3258:3259   */\n      0x00\n        /* \"#utility.yul\":3251:3266   */\n      revert\n        /* \"#utility.yul\":3278:3559   */\n    tag_99:\n        /* \"#utility.yul\":3361:3388   */\n      tag_168\n        /* \"#utility.yul\":3383:3387   */\n      dup3\n        /* \"#utility.yul\":3361:3388   */\n      tag_98\n      jump\t// in\n    tag_168:\n        /* \"#utility.yul\":3353:3359   */\n      dup2\n        /* \"#utility.yul\":3349:3389   */\n      add\n        /* \"#utility.yul\":3491:3497   */\n      dup2\n        /* \"#utility.yul\":3479:3489   */\n      dup2\n        /* \"#utility.yul\":3476:3498   */\n      lt\n        /* \"#utility.yul\":3455:3473   */\n      0xffffffffffffffff\n        /* \"#utility.yul\":3443:3453   */\n      dup3\n        /* \"#utility.yul\":3440:3474   */\n      gt\n        /* \"#utility.yul\":3437:3499   */\n      or\n        /* \"#utility.yul\":3434:3522   */\n      iszero\n      tag_169\n      jumpi\n        /* \"#utility.yul\":3502:3520   */\n      tag_170\n      tag_63\n      jump\t// in\n    tag_170:\n        /* \"#utility.yul\":3434:3522   */\n    tag_169:\n        /* \"#utility.yul\":3542:3552   */\n      dup1\n        /* \"#utility.yul\":3538:3540   */\n      0x40\n        /* \"#utility.yul\":3531:3553   */\n      mstore\n        /* \"#utility.yul\":3321:3559   */\n      pop\n        /* \"#utility.yul\":3278:3559   */\n      pop\n      pop\n      jump\t// out\n        /* \"#utility.yul\":3565:3694   */\n    tag_100:\n        /* \"#utility.yul\":3599:3605   */\n      0x00\n        /* \"#utility.yul\":3626:3646   */\n      tag_172\n      tag_85\n      jump\t// in\n    tag_172:\n        /* \"#utility.yul\":3616:3646   */\n      swap1\n      pop\n        /* \"#utility.yul\":3655:3688   */\n      tag_173\n        /* \"#utility.yul\":3683:3687   */\n      dup3\n        /* \"#utility.yul\":3675:3681   */\n      dup3\n        /* \"#utility.yul\":3655:3688   */\n      tag_99\n      jump\t// in\n    tag_173:\n        /* \"#utility.yul\":3565:3694   */\n      swap2\n      swap1\n      pop\n      jump\t// out\n        /* \"#utility.yul\":3823:3966   */\n    tag_102:\n        /* \"#utility.yul\":3880:3885   */\n      0x00\n        /* \"#utility.yul\":3911:3917   */\n      dup2\n        /* \"#utility.yul\":3905:3918   */\n      mload\n        /* \"#utility.yul\":3896:3918   */\n      swap1\n      pop\n        /* \"#utility.yul\":3927:3960   */\n      tag_176\n        /* \"#utility.yul\":3954:3959   */\n      dup2\n        /* \"#utility.yul\":3927:3960   */\n      tag_89\n      jump\t// in\n    tag_176:\n        /* \"#utility.yul\":3823:3966   */\n      swap3\n      swap2\n      pop\n      pop\n      jump\t// out\n        /* \"#utility.yul\":4007:4622   */\n    tag_103:\n        /* \"#utility.yul\":4092:4097   */\n      0x00\n        /* \"#utility.yul\":4136:4140   */\n      0x40\n        /* \"#utility.yul\":4124:4133   */\n      dup3\n        /* \"#utility.yul\":4119:4122   */\n      dup5\n        /* \"#utility.yul\":4115:4134   */\n      sub\n        /* \"#utility.yul\":4111:4141   */\n      slt\n        /* \"#utility.yul\":4108:4225   */\n      iszero\n      tag_178\n      jumpi\n        /* \"#utility.yul\":4144:4223   */\n      tag_179\n      tag_97\n      jump\t// in\n    tag_179:\n        /* \"#utility.yul\":4108:4225   */\n    tag_178:\n        /* \"#utility.yul\":4243:4264   */\n      tag_180\n        /* \"#utility.yul\":4259:4263   */\n      0x40\n        /* \"#utility.yul\":4243:4264   */\n      tag_100\n      jump\t// in\n    tag_180:\n        /* \"#utility.yul\":4234:4264   */\n      swap1\n      pop\n        /* \"#utility.yul\":4325:4326   */\n      0x00\n        /* \"#utility.yul\":4365:4425   */\n      tag_181\n        /* \"#utility.yul\":4421:4424   */\n      dup5\n        /* \"#utility.yul\":4412:4418   */\n      dup3\n        /* \"#utility.yul\":4401:4410   */\n      dup6\n        /* \"#utility.yul\":4397:4419   */\n      add\n        /* \"#utility.yul\":4365:4425   */\n      tag_102\n      jump\t// in\n    tag_181:\n        /* \"#utility.yul\":4358:4362   */\n      0x00\n        /* \"#utility.yul\":4351:4356   */\n      dup4\n        /* \"#utility.yul\":4347:4363   */\n      add\n        /* \"#utility.yul\":4340:4426   */\n      mstore\n        /* \"#utility.yul\":4274:4437   */\n      pop\n        /* \"#utility.yul\":4502:4504   */\n      0x20\n        /* \"#utility.yul\":4543:4603   */\n      tag_182\n        /* \"#utility.yul\":4599:4602   */\n      dup5\n        /* \"#utility.yul\":4590:4596   */\n      dup3\n        /* \"#utility.yul\":4579:4588   */\n      dup6\n        /* \"#utility.yul\":4575:4597   */\n      add\n        /* \"#utility.yul\":4543:4603   */\n      tag_102\n      jump\t// in\n    tag_182:\n        /* \"#utility.yul\":4536:4540   */\n      0x20\n        /* \"#utility.yul\":4529:4534   */\n      dup4\n        /* \"#utility.yul\":4525:4541   */\n      add\n        /* \"#utility.yul\":4518:4604   */\n      mstore\n        /* \"#utility.yul\":4447:4615   */\n      pop\n        /* \"#utility.yul\":4007:4622   */\n      swap3\n      swap2\n      pop\n      pop\n      jump\t// out\n        /* \"#utility.yul\":4628:5029   */\n    tag_30:\n        /* \"#utility.yul\":4723:4729   */\n      0x00\n        /* \"#utility.yul\":4772:4774   */\n      0x40\n        /* \"#utility.yul\":4760:4769   */\n      dup3\n        /* \"#utility.yul\":4751:4758   */\n      dup5\n        /* \"#utility.yul\":4747:4770   */\n      sub\n        /* \"#utility.yul\":4743:4775   */\n      slt\n        /* \"#utility.yul\":4740:4859   */\n      iszero\n      tag_184\n      jumpi\n        /* \"#utility.yul\":4778:4857   */\n      tag_185\n      tag_86\n      jump\t// in\n    tag_185:\n        /* \"#utility.yul\":4740:4859   */\n    tag_184:\n        /* \"#utility.yul\":4898:4899   */\n      0x00\n        /* \"#utility.yul\":4923:5012   */\n      tag_186\n        /* \"#utility.yul\":5004:5011   */\n      dup5\n        /* \"#utility.yul\":4995:5001   */\n      dup3\n        /* \"#utility.yul\":4984:4993   */\n      dup6\n        /* \"#utility.yul\":4980:5002   */\n      add\n        /* \"#utility.yul\":4923:5012   */\n      tag_103\n      jump\t// in\n    tag_186:\n        /* \"#utility.yul\":4913:5012   */\n      swap2\n      pop\n        /* \"#utility.yul\":4869:5022   */\n      pop\n        /* \"#utility.yul\":4628:5029   */\n      swap3\n      swap2\n      pop\n      pop\n      jump\t// out\n        /* \"#utility.yul\":5035:5367   */\n    tag_32:\n        /* \"#utility.yul\":5156:5160   */\n      0x00\n        /* \"#utility.yul\":5194:5196   */\n      0x40\n        /* \"#utility.yul\":5183:5192   */\n      dup3\n        /* \"#utility.yul\":5179:5197   */\n      add\n        /* \"#utility.yul\":5171:5197   */\n      swap1\n      pop\n        /* \"#utility.yul\":5207:5278   */\n      tag_188\n        /* \"#utility.yul\":5275:5276   */\n      0x00\n        /* \"#utility.yul\":5264:5273   */\n      dup4\n        /* \"#utility.yul\":5260:5277   */\n      add\n        /* \"#utility.yul\":5251:5257   */\n      dup6\n        /* \"#utility.yul\":5207:5278   */\n      tag_91\n      jump\t// in\n    tag_188:\n        /* \"#utility.yul\":5288:5360   */\n      tag_189\n        /* \"#utility.yul\":5356:5358   */\n      0x20\n        /* \"#utility.yul\":5345:5354   */\n      dup4\n        /* \"#utility.yul\":5341:5359   */\n      add\n        /* \"#utility.yul\":5332:5338   */\n      dup5\n        /* \"#utility.yul\":5288:5360   */\n      tag_91\n      jump\t// in\n    tag_189:\n        /* \"#utility.yul\":5035:5367   */\n      swap4\n      swap3\n      pop\n      pop\n      pop\n      jump\t// out\n        /* \"#utility.yul\":5373:5705   */\n    tag_38:\n        /* \"#utility.yul\":5494:5498   */\n      0x00\n        /* \"#utility.yul\":5532:5534   */\n      0x40\n        /* \"#utility.yul\":5521:5530   */\n      dup3\n        /* \"#utility.yul\":5517:5535   */\n      add\n        /* \"#utility.yul\":5509:5535   */\n      swap1\n      pop\n        /* \"#utility.yul\":5545:5616   */\n      tag_191\n        /* \"#utility.yul\":5613:5614   */\n      0x00\n        /* \"#utility.yul\":5602:5611   */\n      dup4\n        /* \"#utility.yul\":5598:5615   */\n      add\n        /* \"#utility.yul\":5589:5595   */\n      dup6\n        /* \"#utility.yul\":5545:5616   */\n      tag_96\n      jump\t// in\n    tag_191:\n        /* \"#utility.yul\":5626:5698   */\n      tag_192\n        /* \"#utility.yul\":5694:5696   */\n      0x20\n        /* \"#utility.yul\":5683:5692   */\n      dup4\n        /* \"#utility.yul\":5679:5697   */\n      add\n        /* \"#utility.yul\":5670:5676   */\n      dup5\n        /* \"#utility.yul\":5626:5698   */\n      tag_91\n      jump\t// in\n    tag_192:\n        /* \"#utility.yul\":5373:5705   */\n      swap4\n      swap3\n      pop\n      pop\n      pop\n      jump\t// out\n        /* \"#utility.yul\":5711:5801   */\n    tag_104:\n        /* \"#utility.yul\":5745:5752   */\n      0x00\n        /* \"#utility.yul\":5788:5793   */\n      dup2\n        /* \"#utility.yul\":5781:5794   */\n      iszero\n        /* \"#utility.yul\":5774:5795   */\n      iszero\n        /* \"#utility.yul\":5763:5795   */\n      swap1\n      pop\n        /* \"#utility.yul\":5711:5801   */\n      swap2\n      swap1\n      pop\n      jump\t// out\n        /* \"#utility.yul\":5807:5923   */\n    tag_105:\n        /* \"#utility.yul\":5877:5898   */\n      tag_195\n        /* \"#utility.yul\":5892:5897   */\n      dup2\n        /* \"#utility.yul\":5877:5898   */\n      tag_104\n      jump\t// in\n    tag_195:\n        /* \"#utility.yul\":5870:5875   */\n      dup2\n        /* \"#utility.yul\":5867:5899   */\n      eq\n        /* \"#utility.yul\":5857:5917   */\n      tag_196\n      jumpi\n        /* \"#utility.yul\":5913:5914   */\n      0x00\n        /* \"#utility.yul\":5910:5911   */\n      dup1\n        /* \"#utility.yul\":5903:5915   */\n      revert\n        /* \"#utility.yul\":5857:5917   */\n    tag_196:\n        /* \"#utility.yul\":5807:5923   */\n      pop\n      jump\t// out\n        /* \"#utility.yul\":5929:6066   */\n    tag_106:\n        /* \"#utility.yul\":5983:5988   */\n      0x00\n        /* \"#utility.yul\":6014:6020   */\n      dup2\n        /* \"#utility.yul\":6008:6021   */\n      mload\n        /* \"#utility.yul\":5999:6021   */\n      swap1\n      pop\n        /* \"#utility.yul\":6030:6060   */\n      tag_198\n        /* \"#utility.yul\":6054:6059   */\n      dup2\n        /* \"#utility.yul\":6030:6060   */\n      tag_105\n      jump\t// in\n    tag_198:\n        /* \"#utility.yul\":5929:6066   */\n      swap3\n      swap2\n      pop\n      pop\n      jump\t// out\n        /* \"#utility.yul\":6072:6417   */\n    tag_42:\n        /* \"#utility.yul\":6139:6145   */\n      0x00\n        /* \"#utility.yul\":6188:6190   */\n      0x20\n        /* \"#utility.yul\":6176:6185   */\n      dup3\n        /* \"#utility.yul\":6167:6174   */\n      dup5\n        /* \"#utility.yul\":6163:6186   */\n      sub\n        /* \"#utility.yul\":6159:6191   */\n      slt\n        /* \"#utility.yul\":6156:6275   */\n      iszero\n      tag_200\n      jumpi\n        /* \"#utility.yul\":6194:6273   */\n      tag_201\n      tag_86\n      jump\t// in\n    tag_201:\n        /* \"#utility.yul\":6156:6275   */\n    tag_200:\n        /* \"#utility.yul\":6314:6315   */\n      0x00\n        /* \"#utility.yul\":6339:6400   */\n      tag_202\n        /* \"#utility.yul\":6392:6399   */\n      dup5\n        /* \"#utility.yul\":6383:6389   */\n      dup3\n        /* \"#utility.yul\":6372:6381   */\n      dup6\n        /* \"#utility.yul\":6368:6390   */\n      add\n        /* \"#utility.yul\":6339:6400   */\n      tag_106\n      jump\t// in\n    tag_202:\n        /* \"#utility.yul\":6329:6400   */\n      swap2\n      pop\n        /* \"#utility.yul\":6285:6410   */\n      pop\n        /* \"#utility.yul\":6072:6417   */\n      swap3\n      swap2\n      pop\n      pop\n      jump\t// out\n        /* \"#utility.yul\":6423:6865   */\n    tag_44:\n        /* \"#utility.yul\":6572:6576   */\n      0x00\n        /* \"#utility.yul\":6610:6612   */\n      0x60\n        /* \"#utility.yul\":6599:6608   */\n      dup3\n        /* \"#utility.yul\":6595:6613   */\n      add\n        /* \"#utility.yul\":6587:6613   */\n      swap1\n      pop\n        /* \"#utility.yul\":6623:6694   */\n      tag_204\n        /* \"#utility.yul\":6691:6692   */\n      0x00\n        /* \"#utility.yul\":6680:6689   */\n      dup4\n        /* \"#utility.yul\":6676:6693   */\n      add\n        /* \"#utility.yul\":6667:6673   */\n      dup7\n        /* \"#utility.yul\":6623:6694   */\n      tag_96\n      jump\t// in\n    tag_204:\n        /* \"#utility.yul\":6704:6776   */\n      tag_205\n        /* \"#utility.yul\":6772:6774   */\n      0x20\n        /* \"#utility.yul\":6761:6770   */\n      dup4\n        /* \"#utility.yul\":6757:6775   */\n      add\n        /* \"#utility.yul\":6748:6754   */\n      dup6\n        /* \"#utility.yul\":6704:6776   */\n      tag_96\n      jump\t// in\n    tag_205:\n        /* \"#utility.yul\":6786:6858   */\n      tag_206\n        /* \"#utility.yul\":6854:6856   */\n      0x40\n        /* \"#utility.yul\":6843:6852   */\n      dup4\n        /* \"#utility.yul\":6839:6857   */\n      add\n        /* \"#utility.yul\":6830:6836   */\n      dup5\n        /* \"#utility.yul\":6786:6858   */\n      tag_91\n      jump\t// in\n    tag_206:\n        /* \"#utility.yul\":6423:6865   */\n      swap5\n      swap4\n      pop\n      pop\n      pop\n      pop\n      jump\t// out\n        /* \"#utility.yul\":6871:7040   */\n    tag_107:\n        /* \"#utility.yul\":6955:6966   */\n      0x00\n        /* \"#utility.yul\":6989:6995   */\n      dup3\n        /* \"#utility.yul\":6984:6987   */\n      dup3\n        /* \"#utility.yul\":6977:6996   */\n      mstore\n        /* \"#utility.yul\":7029:7033   */\n      0x20\n        /* \"#utility.yul\":7024:7027   */\n      dup3\n        /* \"#utility.yul\":7020:7034   */\n      add\n        /* \"#utility.yul\":7005:7034   */\n      swap1\n      pop\n        /* \"#utility.yul\":6871:7040   */\n      swap3\n      swap2\n      pop\n      pop\n      jump\t// out\n        /* \"#utility.yul\":7046:7218   */\n    tag_108:\n        /* \"#utility.yul\":7186:7210   */\n      0x6d746f6b656e207472616e73666572206572726f722100000000000000000000\n        /* \"#utility.yul\":7182:7183   */\n      0x00\n        /* \"#utility.yul\":7174:7180   */\n      dup3\n        /* \"#utility.yul\":7170:7184   */\n      add\n        /* \"#utility.yul\":7163:7211   */\n      mstore\n        /* \"#utility.yul\":7046:7218   */\n      pop\n      jump\t// out\n        /* \"#utility.yul\":7224:7590   */\n    tag_109:\n        /* \"#utility.yul\":7366:7369   */\n      0x00\n        /* \"#utility.yul\":7387:7454   */\n      tag_210\n        /* \"#utility.yul\":7451:7453   */\n      0x16\n        /* \"#utility.yul\":7446:7449   */\n      dup4\n        /* \"#utility.yul\":7387:7454   */\n      tag_107\n      jump\t// in\n    tag_210:\n        /* \"#utility.yul\":7380:7454   */\n      swap2\n      pop\n        /* \"#utility.yul\":7463:7556   */\n      tag_211\n        /* \"#utility.yul\":7552:7555   */\n      dup3\n        /* \"#utility.yul\":7463:7556   */\n      tag_108\n      jump\t// in\n    tag_211:\n        /* \"#utility.yul\":7581:7583   */\n      0x20\n        /* \"#utility.yul\":7576:7579   */\n      dup3\n        /* \"#utility.yul\":7572:7584   */\n      add\n        /* \"#utility.yul\":7565:7584   */\n      swap1\n      pop\n        /* \"#utility.yul\":7224:7590   */\n      swap2\n      swap1\n      pop\n      jump\t// out\n        /* \"#utility.yul\":7596:8015   */\n    tag_50:\n        /* \"#utility.yul\":7762:7766   */\n      0x00\n        /* \"#utility.yul\":7800:7802   */\n      0x20\n        /* \"#utility.yul\":7789:7798   */\n      dup3\n        /* \"#utility.yul\":7785:7803   */\n      add\n        /* \"#utility.yul\":7777:7803   */\n      swap1\n      pop\n        /* \"#utility.yul\":7849:7858   */\n      dup2\n        /* \"#utility.yul\":7843:7847   */\n      dup2\n        /* \"#utility.yul\":7839:7859   */\n      sub\n        /* \"#utility.yul\":7835:7836   */\n      0x00\n        /* \"#utility.yul\":7824:7833   */\n      dup4\n        /* \"#utility.yul\":7820:7837   */\n      add\n        /* \"#utility.yul\":7813:7860   */\n      mstore\n        /* \"#utility.yul\":7877:8008   */\n      tag_213\n        /* \"#utility.yul\":8003:8007   */\n      dup2\n        /* \"#utility.yul\":7877:8008   */\n      tag_109\n      jump\t// in\n    tag_213:\n        /* \"#utility.yul\":7869:8008   */\n      swap1\n      pop\n        /* \"#utility.yul\":7596:8015   */\n      swap2\n      swap1\n      pop\n      jump\t// out\n        /* \"#utility.yul\":8021:8250   */\n    tag_110:\n        /* \"#utility.yul\":8161:8195   */\n      0x6d73672e76616c75652073686f756c642062696767676572207468616e20616d\n        /* \"#utility.yul\":8157:8158   */\n      0x00\n        /* \"#utility.yul\":8149:8155   */\n      dup3\n        /* \"#utility.yul\":8145:8159   */\n      add\n        /* \"#utility.yul\":8138:8196   */\n      mstore\n        /* \"#utility.yul\":8230:8242   */\n      0x6f756e744554484d696e00000000000000000000000000000000000000000000\n        /* \"#utility.yul\":8225:8227   */\n      0x20\n        /* \"#utility.yul\":8217:8223   */\n      dup3\n        /* \"#utility.yul\":8213:8228   */\n      add\n        /* \"#utility.yul\":8206:8243   */\n      mstore\n        /* \"#utility.yul\":8021:8250   */\n      pop\n      jump\t// out\n        /* \"#utility.yul\":8256:8622   */\n    tag_111:\n        /* \"#utility.yul\":8398:8401   */\n      0x00\n        /* \"#utility.yul\":8419:8486   */\n      tag_216\n        /* \"#utility.yul\":8483:8485   */\n      0x2a\n        /* \"#utility.yul\":8478:8481   */\n      dup4\n        /* \"#utility.yul\":8419:8486   */\n      tag_107\n      jump\t// in\n    tag_216:\n        /* \"#utility.yul\":8412:8486   */\n      swap2\n      pop\n        /* \"#utility.yul\":8495:8588   */\n      tag_217\n        /* \"#utility.yul\":8584:8587   */\n      dup3\n        /* \"#utility.yul\":8495:8588   */\n      tag_110\n      jump\t// in\n    tag_217:\n        /* \"#utility.yul\":8613:8615   */\n      0x40\n        /* \"#utility.yul\":8608:8611   */\n      dup3\n        /* \"#utility.yul\":8604:8616   */\n      add\n        /* \"#utility.yul\":8597:8616   */\n      swap1\n      pop\n        /* \"#utility.yul\":8256:8622   */\n      swap2\n      swap1\n      pop\n      jump\t// out\n        /* \"#utility.yul\":8628:9047   */\n    tag_53:\n        /* \"#utility.yul\":8794:8798   */\n      0x00\n        /* \"#utility.yul\":8832:8834   */\n      0x20\n        /* \"#utility.yul\":8821:8830   */\n      dup3\n        /* \"#utility.yul\":8817:8835   */\n      add\n        /* \"#utility.yul\":8809:8835   */\n      swap1\n      pop\n        /* \"#utility.yul\":8881:8890   */\n      dup2\n        /* \"#utility.yul\":8875:8879   */\n      dup2\n        /* \"#utility.yul\":8871:8891   */\n      sub\n        /* \"#utility.yul\":8867:8868   */\n      0x00\n        /* \"#utility.yul\":8856:8865   */\n      dup4\n        /* \"#utility.yul\":8852:8869   */\n      add\n        /* \"#utility.yul\":8845:8892   */\n      mstore\n        /* \"#utility.yul\":8909:9040   */\n      tag_219\n        /* \"#utility.yul\":9035:9039   */\n      dup2\n        /* \"#utility.yul\":8909:9040   */\n      tag_111\n      jump\t// in\n    tag_219:\n        /* \"#utility.yul\":8901:9040   */\n      swap1\n      pop\n        /* \"#utility.yul\":8628:9047   */\n      swap2\n      swap1\n      pop\n      jump\t// out\n        /* \"#utility.yul\":9053:9138   */\n    tag_112:\n        /* \"#utility.yul\":9098:9105   */\n      0x00\n        /* \"#utility.yul\":9127:9132   */\n      dup2\n        /* \"#utility.yul\":9116:9132   */\n      swap1\n      pop\n        /* \"#utility.yul\":9053:9138   */\n      swap2\n      swap1\n      pop\n      jump\t// out\n        /* \"#utility.yul\":9144:9204   */\n    tag_113:\n        /* \"#utility.yul\":9172:9175   */\n      0x00\n        /* \"#utility.yul\":9193:9198   */\n      dup2\n        /* \"#utility.yul\":9186:9198   */\n      swap1\n      pop\n        /* \"#utility.yul\":9144:9204   */\n      swap2\n      swap1\n      pop\n      jump\t// out\n        /* \"#utility.yul\":9210:9368   */\n    tag_114:\n        /* \"#utility.yul\":9268:9277   */\n      0x00\n        /* \"#utility.yul\":9301:9362   */\n      tag_223\n        /* \"#utility.yul\":9319:9361   */\n      tag_224\n        /* \"#utility.yul\":9328:9360   */\n      tag_225\n        /* \"#utility.yul\":9354:9359   */\n      dup5\n        /* \"#utility.yul\":9328:9360   */\n      tag_112\n      jump\t// in\n    tag_225:\n        /* \"#utility.yul\":9319:9361   */\n      tag_113\n      jump\t// in\n    tag_224:\n        /* \"#utility.yul\":9301:9362   */\n      tag_88\n      jump\t// in\n    tag_223:\n        /* \"#utility.yul\":9288:9362   */\n      swap1\n      pop\n        /* \"#utility.yul\":9210:9368   */\n      swap2\n      swap1\n      pop\n      jump\t// out\n        /* \"#utility.yul\":9374:9521   */\n    tag_115:\n        /* \"#utility.yul\":9469:9514   */\n      tag_227\n        /* \"#utility.yul\":9508:9513   */\n      dup2\n        /* \"#utility.yul\":9469:9514   */\n      tag_114\n      jump\t// in\n    tag_227:\n        /* \"#utility.yul\":9464:9467   */\n      dup3\n        /* \"#utility.yul\":9457:9515   */\n      mstore\n        /* \"#utility.yul\":9374:9521   */\n      pop\n      pop\n      jump\t// out\n        /* \"#utility.yul\":9527:10334   */\n    tag_55:\n        /* \"#utility.yul\":9776:9780   */\n      0x00\n        /* \"#utility.yul\":9814:9817   */\n      0xc0\n        /* \"#utility.yul\":9803:9812   */\n      dup3\n        /* \"#utility.yul\":9799:9818   */\n      add\n        /* \"#utility.yul\":9791:9818   */\n      swap1\n      pop\n        /* \"#utility.yul\":9828:9899   */\n      tag_229\n        /* \"#utility.yul\":9896:9897   */\n      0x00\n        /* \"#utility.yul\":9885:9894   */\n      dup4\n        /* \"#utility.yul\":9881:9898   */\n      add\n        /* \"#utility.yul\":9872:9878   */\n      dup10\n        /* \"#utility.yul\":9828:9899   */\n      tag_96\n      jump\t// in\n    tag_229:\n        /* \"#utility.yul\":9909:9981   */\n      tag_230\n        /* \"#utility.yul\":9977:9979   */\n      0x20\n        /* \"#utility.yul\":9966:9975   */\n      dup4\n        /* \"#utility.yul\":9962:9980   */\n      add\n        /* \"#utility.yul\":9953:9959   */\n      dup9\n        /* \"#utility.yul\":9909:9981   */\n      tag_91\n      jump\t// in\n    tag_230:\n        /* \"#utility.yul\":9991:10071   */\n      tag_231\n        /* \"#utility.yul\":10067:10069   */\n      0x40\n        /* \"#utility.yul\":10056:10065   */\n      dup4\n        /* \"#utility.yul\":10052:10070   */\n      add\n        /* \"#utility.yul\":10043:10049   */\n      dup8\n        /* \"#utility.yul\":9991:10071   */\n      tag_115\n      jump\t// in\n    tag_231:\n        /* \"#utility.yul\":10081:10161   */\n      tag_232\n        /* \"#utility.yul\":10157:10159   */\n      0x60\n        /* \"#utility.yul\":10146:10155   */\n      dup4\n        /* \"#utility.yul\":10142:10160   */\n      add\n        /* \"#utility.yul\":10133:10139   */\n      dup7\n        /* \"#utility.yul\":10081:10161   */\n      tag_115\n      jump\t// in\n    tag_232:\n        /* \"#utility.yul\":10171:10244   */\n      tag_233\n        /* \"#utility.yul\":10239:10242   */\n      0x80\n        /* \"#utility.yul\":10228:10237   */\n      dup4\n        /* \"#utility.yul\":10224:10243   */\n      add\n        /* \"#utility.yul\":10215:10221   */\n      dup6\n        /* \"#utility.yul\":10171:10244   */\n      tag_96\n      jump\t// in\n    tag_233:\n        /* \"#utility.yul\":10254:10327   */\n      tag_234\n        /* \"#utility.yul\":10322:10325   */\n      0xa0\n        /* \"#utility.yul\":10311:10320   */\n      dup4\n        /* \"#utility.yul\":10307:10326   */\n      add\n        /* \"#utility.yul\":10298:10304   */\n      dup5\n        /* \"#utility.yul\":10254:10327   */\n      tag_91\n      jump\t// in\n    tag_234:\n        /* \"#utility.yul\":9527:10334   */\n      swap8\n      swap7\n      pop\n      pop\n      pop\n      pop\n      pop\n      pop\n      pop\n      jump\t// out\n        /* \"#utility.yul\":10340:11003   */\n    tag_59:\n        /* \"#utility.yul\":10428:10434   */\n      0x00\n        /* \"#utility.yul\":10436:10442   */\n      dup1\n        /* \"#utility.yul\":10444:10450   */\n      0x00\n        /* \"#utility.yul\":10493:10495   */\n      0x60\n        /* \"#utility.yul\":10481:10490   */\n      dup5\n        /* \"#utility.yul\":10472:10479   */\n      dup7\n        /* \"#utility.yul\":10468:10491   */\n      sub\n        /* \"#utility.yul\":10464:10496   */\n      slt\n        /* \"#utility.yul\":10461:10580   */\n      iszero\n      tag_236\n      jumpi\n        /* \"#utility.yul\":10499:10578   */\n      tag_237\n      tag_86\n      jump\t// in\n    tag_237:\n        /* \"#utility.yul\":10461:10580   */\n    tag_236:\n        /* \"#utility.yul\":10619:10620   */\n      0x00\n        /* \"#utility.yul\":10644:10708   */\n      tag_238\n        /* \"#utility.yul\":10700:10707   */\n      dup7\n        /* \"#utility.yul\":10691:10697   */\n      dup3\n        /* \"#utility.yul\":10680:10689   */\n      dup8\n        /* \"#utility.yul\":10676:10698   */\n      add\n        /* \"#utility.yul\":10644:10708   */\n      tag_102\n      jump\t// in\n    tag_238:\n        /* \"#utility.yul\":10634:10708   */\n      swap4\n      pop\n        /* \"#utility.yul\":10590:10718   */\n      pop\n        /* \"#utility.yul\":10757:10759   */\n      0x20\n        /* \"#utility.yul\":10783:10847   */\n      tag_239\n        /* \"#utility.yul\":10839:10846   */\n      dup7\n        /* \"#utility.yul\":10830:10836   */\n      dup3\n        /* \"#utility.yul\":10819:10828   */\n      dup8\n        /* \"#utility.yul\":10815:10837   */\n      add\n        /* \"#utility.yul\":10783:10847   */\n      tag_102\n      jump\t// in\n    tag_239:\n        /* \"#utility.yul\":10773:10847   */\n      swap3\n      pop\n        /* \"#utility.yul\":10728:10857   */\n      pop\n        /* \"#utility.yul\":10896:10898   */\n      0x40\n        /* \"#utility.yul\":10922:10986   */\n      tag_240\n        /* \"#utility.yul\":10978:10985   */\n      dup7\n        /* \"#utility.yul\":10969:10975   */\n      dup3\n        /* \"#utility.yul\":10958:10967   */\n      dup8\n        /* \"#utility.yul\":10954:10976   */\n      add\n        /* \"#utility.yul\":10922:10986   */\n      tag_102\n      jump\t// in\n    tag_240:\n        /* \"#utility.yul\":10912:10986   */\n      swap2\n      pop\n        /* \"#utility.yul\":10867:10996   */\n      pop\n        /* \"#utility.yul\":10340:11003   */\n      swap3\n      pop\n      swap3\n      pop\n      swap3\n      jump\t// out\n        /* \"#utility.yul\":11009:11189   */\n    tag_67:\n        /* \"#utility.yul\":11057:11134   */\n      0x4e487b7100000000000000000000000000000000000000000000000000000000\n        /* \"#utility.yul\":11054:11055   */\n      0x00\n        /* \"#utility.yul\":11047:11135   */\n      mstore\n        /* \"#utility.yul\":11154:11158   */\n      0x32\n        /* \"#utility.yul\":11151:11152   */\n      0x04\n        /* \"#utility.yul\":11144:11159   */\n      mstore\n        /* \"#utility.yul\":11178:11182   */\n      0x24\n        /* \"#utility.yul\":11175:11176   */\n      0x00\n        /* \"#utility.yul\":11168:11183   */\n      revert\n        /* \"#utility.yul\":11195:11309   */\n    tag_116:\n        /* \"#utility.yul\":11262:11268   */\n      0x00\n        /* \"#utility.yul\":11296:11301   */\n      dup2\n        /* \"#utility.yul\":11290:11302   */\n      mload\n        /* \"#utility.yul\":11280:11302   */\n      swap1\n      pop\n        /* \"#utility.yul\":11195:11309   */\n      swap2\n      swap1\n      pop\n      jump\t// out\n        /* \"#utility.yul\":11315:11499   */\n    tag_117:\n        /* \"#utility.yul\":11414:11425   */\n      0x00\n        /* \"#utility.yul\":11448:11454   */\n      dup3\n        /* \"#utility.yul\":11443:11446   */\n      dup3\n        /* \"#utility.yul\":11436:11455   */\n      mstore\n        /* \"#utility.yul\":11488:11492   */\n      0x20\n        /* \"#utility.yul\":11483:11486   */\n      dup3\n        /* \"#utility.yul\":11479:11493   */\n      add\n        /* \"#utility.yul\":11464:11493   */\n      swap1\n      pop\n        /* \"#utility.yul\":11315:11499   */\n      swap3\n      swap2\n      pop\n      pop\n      jump\t// out\n        /* \"#utility.yul\":11505:11637   */\n    tag_118:\n        /* \"#utility.yul\":11572:11576   */\n      0x00\n        /* \"#utility.yul\":11595:11598   */\n      dup2\n        /* \"#utility.yul\":11587:11598   */\n      swap1\n      pop\n        /* \"#utility.yul\":11625:11629   */\n      0x20\n        /* \"#utility.yul\":11620:11623   */\n      dup3\n        /* \"#utility.yul\":11616:11630   */\n      add\n        /* \"#utility.yul\":11608:11630   */\n      swap1\n      pop\n        /* \"#utility.yul\":11505:11637   */\n      swap2\n      swap1\n      pop\n      jump\t// out\n        /* \"#utility.yul\":11643:11751   */\n    tag_119:\n        /* \"#utility.yul\":11720:11744   */\n      tag_246\n        /* \"#utility.yul\":11738:11743   */\n      dup2\n        /* \"#utility.yul\":11720:11744   */\n      tag_93\n      jump\t// in\n    tag_246:\n        /* \"#utility.yul\":11715:11718   */\n      dup3\n        /* \"#utility.yul\":11708:11745   */\n      mstore\n        /* \"#utility.yul\":11643:11751   */\n      pop\n      pop\n      jump\t// out\n        /* \"#utility.yul\":11757:11936   */\n    tag_120:\n        /* \"#utility.yul\":11826:11836   */\n      0x00\n        /* \"#utility.yul\":11847:11893   */\n      tag_248\n        /* \"#utility.yul\":11889:11892   */\n      dup4\n        /* \"#utility.yul\":11881:11887   */\n      dup4\n        /* \"#utility.yul\":11847:11893   */\n      tag_119\n      jump\t// in\n    tag_248:\n        /* \"#utility.yul\":11925:11929   */\n      0x20\n        /* \"#utility.yul\":11920:11923   */\n      dup4\n        /* \"#utility.yul\":11916:11930   */\n      add\n        /* \"#utility.yul\":11902:11930   */\n      swap1\n      pop\n        /* \"#utility.yul\":11757:11936   */\n      swap3\n      swap2\n      pop\n      pop\n      jump\t// out\n        /* \"#utility.yul\":11942:12055   */\n    tag_121:\n        /* \"#utility.yul\":12012:12016   */\n      0x00\n        /* \"#utility.yul\":12044:12048   */\n      0x20\n        /* \"#utility.yul\":12039:12042   */\n      dup3\n        /* \"#utility.yul\":12035:12049   */\n      add\n        /* \"#utility.yul\":12027:12049   */\n      swap1\n      pop\n        /* \"#utility.yul\":11942:12055   */\n      swap2\n      swap1\n      pop\n      jump\t// out\n        /* \"#utility.yul\":12091:12823   */\n    tag_122:\n        /* \"#utility.yul\":12210:12213   */\n      0x00\n        /* \"#utility.yul\":12239:12293   */\n      tag_251\n        /* \"#utility.yul\":12287:12292   */\n      dup3\n        /* \"#utility.yul\":12239:12293   */\n      tag_116\n      jump\t// in\n    tag_251:\n        /* \"#utility.yul\":12309:12395   */\n      tag_252\n        /* \"#utility.yul\":12388:12394   */\n      dup2\n        /* \"#utility.yul\":12383:12386   */\n      dup6\n        /* \"#utility.yul\":12309:12395   */\n      tag_117\n      jump\t// in\n    tag_252:\n        /* \"#utility.yul\":12302:12395   */\n      swap4\n      pop\n        /* \"#utility.yul\":12419:12475   */\n      tag_253\n        /* \"#utility.yul\":12469:12474   */\n      dup4\n        /* \"#utility.yul\":12419:12475   */\n      tag_118\n      jump\t// in\n    tag_253:\n        /* \"#utility.yul\":12498:12505   */\n      dup1\n        /* \"#utility.yul\":12529:12530   */\n      0x00\n        /* \"#utility.yul\":12514:12798   */\n    tag_254:\n        /* \"#utility.yul\":12539:12545   */\n      dup4\n        /* \"#utility.yul\":12536:12537   */\n      dup2\n        /* \"#utility.yul\":12533:12546   */\n      lt\n        /* \"#utility.yul\":12514:12798   */\n      iszero\n      tag_256\n      jumpi\n        /* \"#utility.yul\":12615:12621   */\n      dup2\n        /* \"#utility.yul\":12609:12622   */\n      mload\n        /* \"#utility.yul\":12642:12705   */\n      tag_257\n        /* \"#utility.yul\":12701:12704   */\n      dup9\n        /* \"#utility.yul\":12686:12699   */\n      dup3\n        /* \"#utility.yul\":12642:12705   */\n      tag_120\n      jump\t// in\n    tag_257:\n        /* \"#utility.yul\":12635:12705   */\n      swap8\n      pop\n        /* \"#utility.yul\":12728:12788   */\n      tag_258\n        /* \"#utility.yul\":12781:12787   */\n      dup4\n        /* \"#utility.yul\":12728:12788   */\n      tag_121\n      jump\t// in\n    tag_258:\n        /* \"#utility.yul\":12718:12788   */\n      swap3\n      pop\n        /* \"#utility.yul\":12574:12798   */\n      pop\n        /* \"#utility.yul\":12561:12562   */\n      0x01\n        /* \"#utility.yul\":12558:12559   */\n      dup2\n        /* \"#utility.yul\":12554:12563   */\n      add\n        /* \"#utility.yul\":12549:12563   */\n      swap1\n      pop\n        /* \"#utility.yul\":12514:12798   */\n      jump(tag_254)\n    tag_256:\n        /* \"#utility.yul\":12518:12532   */\n      pop\n        /* \"#utility.yul\":12814:12817   */\n      dup6\n        /* \"#utility.yul\":12807:12817   */\n      swap4\n      pop\n        /* \"#utility.yul\":12215:12823   */\n      pop\n      pop\n      pop\n        /* \"#utility.yul\":12091:12823   */\n      swap3\n      swap2\n      pop\n      pop\n      jump\t// out\n        /* \"#utility.yul\":12829:13533   */\n    tag_71:\n        /* \"#utility.yul\":13056:13060   */\n      0x00\n        /* \"#utility.yul\":13094:13097   */\n      0x80\n        /* \"#utility.yul\":13083:13092   */\n      dup3\n        /* \"#utility.yul\":13079:13098   */\n      add\n        /* \"#utility.yul\":13071:13098   */\n      swap1\n      pop\n        /* \"#utility.yul\":13108:13179   */\n      tag_260\n        /* \"#utility.yul\":13176:13177   */\n      0x00\n        /* \"#utility.yul\":13165:13174   */\n      dup4\n        /* \"#utility.yul\":13161:13178   */\n      add\n        /* \"#utility.yul\":13152:13158   */\n      dup8\n        /* \"#utility.yul\":13108:13179   */\n      tag_91\n      jump\t// in\n    tag_260:\n        /* \"#utility.yul\":13226:13235   */\n      dup2\n        /* \"#utility.yul\":13220:13224   */\n      dup2\n        /* \"#utility.yul\":13216:13236   */\n      sub\n        /* \"#utility.yul\":13211:13213   */\n      0x20\n        /* \"#utility.yul\":13200:13209   */\n      dup4\n        /* \"#utility.yul\":13196:13214   */\n      add\n        /* \"#utility.yul\":13189:13237   */\n      mstore\n        /* \"#utility.yul\":13254:13362   */\n      tag_261\n        /* \"#utility.yul\":13357:13361   */\n      dup2\n        /* \"#utility.yul\":13348:13354   */\n      dup7\n        /* \"#utility.yul\":13254:13362   */\n      tag_122\n      jump\t// in\n    tag_261:\n        /* \"#utility.yul\":13246:13362   */\n      swap1\n      pop\n        /* \"#utility.yul\":13372:13444   */\n      tag_262\n        /* \"#utility.yul\":13440:13442   */\n      0x40\n        /* \"#utility.yul\":13429:13438   */\n      dup4\n        /* \"#utility.yul\":13425:13443   */\n      add\n        /* \"#utility.yul\":13416:13422   */\n      dup6\n        /* \"#utility.yul\":13372:13444   */\n      tag_96\n      jump\t// in\n    tag_262:\n        /* \"#utility.yul\":13454:13526   */\n      tag_263\n        /* \"#utility.yul\":13522:13524   */\n      0x60\n        /* \"#utility.yul\":13511:13520   */\n      dup4\n        /* \"#utility.yul\":13507:13525   */\n      add\n        /* \"#utility.yul\":13498:13504   */\n      dup5\n        /* \"#utility.yul\":13454:13526   */\n      tag_91\n      jump\t// in\n    tag_263:\n        /* \"#utility.yul\":12829:13533   */\n      swap6\n      swap5\n      pop\n      pop\n      pop\n      pop\n      pop\n      jump\t// out\n        /* \"#utility.yul\":13539:13656   */\n    tag_123:\n        /* \"#utility.yul\":13648:13649   */\n      0x00\n        /* \"#utility.yul\":13645:13646   */\n      dup1\n        /* \"#utility.yul\":13638:13650   */\n      revert\n        /* \"#utility.yul\":13662:13973   */\n    tag_124:\n        /* \"#utility.yul\":13739:13743   */\n      0x00\n        /* \"#utility.yul\":13829:13847   */\n      0xffffffffffffffff\n        /* \"#utility.yul\":13821:13827   */\n      dup3\n        /* \"#utility.yul\":13818:13848   */\n      gt\n        /* \"#utility.yul\":13815:13871   */\n      iszero\n      tag_266\n      jumpi\n        /* \"#utility.yul\":13851:13869   */\n      tag_267\n      tag_63\n      jump\t// in\n    tag_267:\n        /* \"#utility.yul\":13815:13871   */\n    tag_266:\n        /* \"#utility.yul\":13901:13905   */\n      0x20\n        /* \"#utility.yul\":13893:13899   */\n      dup3\n        /* \"#utility.yul\":13889:13906   */\n      mul\n        /* \"#utility.yul\":13881:13906   */\n      swap1\n      pop\n        /* \"#utility.yul\":13961:13965   */\n      0x20\n        /* \"#utility.yul\":13955:13959   */\n      dup2\n        /* \"#utility.yul\":13951:13966   */\n      add\n        /* \"#utility.yul\":13943:13966   */\n      swap1\n      pop\n        /* \"#utility.yul\":13662:13973   */\n      swap2\n      swap1\n      pop\n      jump\t// out\n        /* \"#utility.yul\":13979:14096   */\n    tag_125:\n        /* \"#utility.yul\":14088:14089   */\n      0x00\n        /* \"#utility.yul\":14085:14086   */\n      dup1\n        /* \"#utility.yul\":14078:14090   */\n      revert\n        /* \"#utility.yul\":14119:14851   */\n    tag_126:\n        /* \"#utility.yul\":14226:14231   */\n      0x00\n        /* \"#utility.yul\":14251:14332   */\n      tag_270\n        /* \"#utility.yul\":14267:14331   */\n      tag_271\n        /* \"#utility.yul\":14324:14330   */\n      dup5\n        /* \"#utility.yul\":14267:14331   */\n      tag_124\n      jump\t// in\n    tag_271:\n        /* \"#utility.yul\":14251:14332   */\n      tag_100\n      jump\t// in\n    tag_270:\n        /* \"#utility.yul\":14242:14332   */\n      swap1\n      pop\n        /* \"#utility.yul\":14352:14357   */\n      dup1\n        /* \"#utility.yul\":14381:14387   */\n      dup4\n        /* \"#utility.yul\":14374:14379   */\n      dup3\n        /* \"#utility.yul\":14367:14388   */\n      mstore\n        /* \"#utility.yul\":14415:14419   */\n      0x20\n        /* \"#utility.yul\":14408:14413   */\n      dup3\n        /* \"#utility.yul\":14404:14420   */\n      add\n        /* \"#utility.yul\":14397:14420   */\n      swap1\n      pop\n        /* \"#utility.yul\":14468:14472   */\n      0x20\n        /* \"#utility.yul\":14460:14466   */\n      dup5\n        /* \"#utility.yul\":14456:14473   */\n      mul\n        /* \"#utility.yul\":14448:14454   */\n      dup4\n        /* \"#utility.yul\":14444:14474   */\n      add\n        /* \"#utility.yul\":14497:14500   */\n      dup6\n        /* \"#utility.yul\":14489:14495   */\n      dup2\n        /* \"#utility.yul\":14486:14501   */\n      gt\n        /* \"#utility.yul\":14483:14605   */\n      iszero\n      tag_272\n      jumpi\n        /* \"#utility.yul\":14516:14595   */\n      tag_273\n      tag_125\n      jump\t// in\n    tag_273:\n        /* \"#utility.yul\":14483:14605   */\n    tag_272:\n        /* \"#utility.yul\":14631:14637   */\n      dup4\n        /* \"#utility.yul\":14614:14845   */\n    tag_274:\n        /* \"#utility.yul\":14648:14654   */\n      dup2\n        /* \"#utility.yul\":14643:14646   */\n      dup2\n        /* \"#utility.yul\":14640:14655   */\n      lt\n        /* \"#utility.yul\":14614:14845   */\n      iszero\n      tag_276\n      jumpi\n        /* \"#utility.yul\":14723:14726   */\n      dup1\n        /* \"#utility.yul\":14752:14800   */\n      tag_277\n        /* \"#utility.yul\":14796:14799   */\n      dup9\n        /* \"#utility.yul\":14784:14794   */\n      dup3\n        /* \"#utility.yul\":14752:14800   */\n      tag_102\n      jump\t// in\n    tag_277:\n        /* \"#utility.yul\":14747:14750   */\n      dup5\n        /* \"#utility.yul\":14740:14801   */\n      mstore\n        /* \"#utility.yul\":14830:14834   */\n      0x20\n        /* \"#utility.yul\":14825:14828   */\n      dup5\n        /* \"#utility.yul\":14821:14835   */\n      add\n        /* \"#utility.yul\":14814:14835   */\n      swap4\n      pop\n        /* \"#utility.yul\":14690:14845   */\n      pop\n        /* \"#utility.yul\":14674:14678   */\n      0x20\n        /* \"#utility.yul\":14669:14672   */\n      dup2\n        /* \"#utility.yul\":14665:14679   */\n      add\n        /* \"#utility.yul\":14658:14679   */\n      swap1\n      pop\n        /* \"#utility.yul\":14614:14845   */\n      jump(tag_274)\n    tag_276:\n        /* \"#utility.yul\":14618:14639   */\n      pop\n        /* \"#utility.yul\":14232:14851   */\n      pop\n      pop\n        /* \"#utility.yul\":14119:14851   */\n      swap4\n      swap3\n      pop\n      pop\n      pop\n      jump\t// out\n        /* \"#utility.yul\":14874:15259   */\n    tag_127:\n        /* \"#utility.yul\":14956:14961   */\n      0x00\n        /* \"#utility.yul\":15005:15008   */\n      dup3\n        /* \"#utility.yul\":14998:15002   */\n      0x1f\n        /* \"#utility.yul\":14990:14996   */\n      dup4\n        /* \"#utility.yul\":14986:15003   */\n      add\n        /* \"#utility.yul\":14982:15009   */\n      slt\n        /* \"#utility.yul\":14972:15094   */\n      tag_279\n      jumpi\n        /* \"#utility.yul\":15013:15092   */\n      tag_280\n      tag_123\n      jump\t// in\n    tag_280:\n        /* \"#utility.yul\":14972:15094   */\n    tag_279:\n        /* \"#utility.yul\":15123:15129   */\n      dup2\n        /* \"#utility.yul\":15117:15130   */\n      mload\n        /* \"#utility.yul\":15148:15253   */\n      tag_281\n        /* \"#utility.yul\":15249:15252   */\n      dup5\n        /* \"#utility.yul\":15241:15247   */\n      dup3\n        /* \"#utility.yul\":15234:15238   */\n      0x20\n        /* \"#utility.yul\":15226:15232   */\n      dup7\n        /* \"#utility.yul\":15222:15239   */\n      add\n        /* \"#utility.yul\":15148:15253   */\n      tag_126\n      jump\t// in\n    tag_281:\n        /* \"#utility.yul\":15139:15253   */\n      swap2\n      pop\n        /* \"#utility.yul\":14962:15259   */\n      pop\n        /* \"#utility.yul\":14874:15259   */\n      swap3\n      swap2\n      pop\n      pop\n      jump\t// out\n        /* \"#utility.yul\":15265:15819   */\n    tag_75:\n        /* \"#utility.yul\":15360:15366   */\n      0x00\n        /* \"#utility.yul\":15409:15411   */\n      0x20\n        /* \"#utility.yul\":15397:15406   */\n      dup3\n        /* \"#utility.yul\":15388:15395   */\n      dup5\n        /* \"#utility.yul\":15384:15407   */\n      sub\n        /* \"#utility.yul\":15380:15412   */\n      slt\n        /* \"#utility.yul\":15377:15496   */\n      iszero\n      tag_283\n      jumpi\n        /* \"#utility.yul\":15415:15494   */\n      tag_284\n      tag_86\n      jump\t// in\n    tag_284:\n        /* \"#utility.yul\":15377:15496   */\n    tag_283:\n        /* \"#utility.yul\":15556:15557   */\n      0x00\n        /* \"#utility.yul\":15545:15554   */\n      dup3\n        /* \"#utility.yul\":15541:15558   */\n      add\n        /* \"#utility.yul\":15535:15559   */\n      mload\n        /* \"#utility.yul\":15586:15604   */\n      0xffffffffffffffff\n        /* \"#utility.yul\":15578:15584   */\n      dup2\n        /* \"#utility.yul\":15575:15605   */\n      gt\n        /* \"#utility.yul\":15572:15689   */\n      iszero\n      tag_285\n      jumpi\n        /* \"#utility.yul\":15608:15687   */\n      tag_286\n      tag_87\n      jump\t// in\n    tag_286:\n        /* \"#utility.yul\":15572:15689   */\n    tag_285:\n        /* \"#utility.yul\":15713:15802   */\n      tag_287\n        /* \"#utility.yul\":15794:15801   */\n      dup5\n        /* \"#utility.yul\":15785:15791   */\n      dup3\n        /* \"#utility.yul\":15774:15783   */\n      dup6\n        /* \"#utility.yul\":15770:15792   */\n      add\n        /* \"#utility.yul\":15713:15802   */\n      tag_127\n      jump\t// in\n    tag_287:\n        /* \"#utility.yul\":15703:15802   */\n      swap2\n      pop\n        /* \"#utility.yul\":15506:15812   */\n      pop\n        /* \"#utility.yul\":15265:15819   */\n      swap3\n      swap2\n      pop\n      pop\n      jump\t// out\n\n    auxdata: 0xa26469706673582212209810812f64afae841b9279ac9719b552ec546c26b48ea3e0b3e73737c03b7e8c64736f6c634300080d0033\n}\n",
				"bytecode": {
					"linkReferences": {},
					"object": "6080604052737a250d5630b4cf539739df2c5dacb4c659f2488d6000806101000a81548173ffffffffffffffffffffffffffffffffffffffff021916908373ffffffffffffffffffffffffffffffffffffffff16021790555073c778417e063141139fce010982780140aa0cd5ab600160006101000a81548173ffffffffffffffffffffffffffffffffffffffff021916908373ffffffffffffffffffffffffffffffffffffffff16021790555073549f978c19a5ac86d906052639e317b57724ef44600260006101000a81548173ffffffffffffffffffffffffffffffffffffffff021916908373ffffffffffffffffffffffffffffffffffffffff16021790555073f42a08c0ea66ee4a474336087a6c17e9ea6c9de9600360006101000a81548173ffffffffffffffffffffffffffffffffffffffff021916908373ffffffffffffffffffffffffffffffffffffffff16021790555073d9dfa8c6b37cfdf16668fe0465896f4a1b9b2c4f600460006101000a81548173ffffffffffffffffffffffffffffffffffffffff021916908373ffffffffffffffffffffffffffffffffffffffff16021790555060008054906101000a900473ffffffffffffffffffffffffffffffffffffffff16600560006101000a81548173ffffffffffffffffffffffffffffffffffffffff021916908373ffffffffffffffffffffffffffffffffffffffff160217905550600260009054906101000a900473ffffffffffffffffffffffffffffffffffffffff16600660006101000a81548173ffffffffffffffffffffffffffffffffffffffff021916908373ffffffffffffffffffffffffffffffffffffffff160217905550600460009054906101000a900473ffffffffffffffffffffffffffffffffffffffff16600760006101000a81548173ffffffffffffffffffffffffffffffffffffffff021916908373ffffffffffffffffffffffffffffffffffffffff1602179055503480156102df57600080fd5b50611010806102ef6000396000f3fe60806040526004361061003f5760003560e01c80632e1a7d4d1461004457806351c6590a1461006d578063a93f74e01461009d578063fc55d2bf146100b9575b600080fd5b34801561005057600080fd5b5061006b60048036038101906100669190610840565b6100e2565b005b61008760048036038101906100829190610840565b610218565b604051610094919061087c565b60405180910390f35b6100b760048036038101906100b29190610840565b6104e2565b005b3480156100c557600080fd5b506100e060048036038101906100db91906108f5565b6106c1565b005b6000600760009054906101000a900473ffffffffffffffffffffffffffffffffffffffff1673ffffffffffffffffffffffffffffffffffffffff16631959a002336040518263ffffffff1660e01b815260040161013f9190610957565b6040805180830381865afa15801561015b573d6000803e3d6000fd5b505050506040513d601f19601f8201168201806040525081019061017f9190610a68565b9050600760009054906101000a900473ffffffffffffffffffffffffffffffffffffffff1673ffffffffffffffffffffffffffffffffffffffff1663441a3e708383600001516040518363ffffffff1660e01b81526004016101e2929190610a95565b600060405180830381600087803b1580156101fc57600080fd5b505af1158015610210573d6000803e3d6000fd5b505050505050565b6000600660009054906101000a900473ffffffffffffffffffffffffffffffffffffffff1673ffffffffffffffffffffffffffffffffffffffff1663095ea7b3600560009054906101000a900473ffffffffffffffffffffffffffffffffffffffff16846040518363ffffffff1660e01b8152600401610299929190610abe565b6020604051808303816000875af11580156102b8573d6000803e3d6000fd5b505050506040513d601f19601f820116820180604052508101906102dc9190610b1f565b506000600660009054906101000a900473ffffffffffffffffffffffffffffffffffffffff1673ffffffffffffffffffffffffffffffffffffffff166323b872dd3330866040518463ffffffff1660e01b815260040161033e93929190610b4c565b6020604051808303816000875af115801561035d573d6000803e3d6000fd5b505050506040513d601f19601f820116820180604052508101906103819190610b1f565b9050806103c3576040517f08c379a00000000000000000000000000000000000000000000000000000000081526004016103ba90610be0565b60405180910390fd5b60003411610406576040517f08c379a00000000000000000000000000000000000000000000000000000000081526004016103fd90610c72565b60405180910390fd5b6000600560009054906101000a900473ffffffffffffffffffffffffffffffffffffffff1673ffffffffffffffffffffffffffffffffffffffff1663f305d71934600260009054906101000a900473ffffffffffffffffffffffffffffffffffffffff168760008033426040518863ffffffff1660e01b815260040161049196959493929190610cd7565b60606040518083038185885af11580156104af573d6000803e3d6000fd5b50505050506040513d601f19601f820116820180604052508101906104d49190610d38565b505090508092505050919050565b6000600267ffffffffffffffff8111156104ff576104fe610988565b5b60405190808252806020026020018201604052801561052d5781602001602082028036833780820191505090505b509050600160009054906101000a900473ffffffffffffffffffffffffffffffffffffffff168160008151811061056757610566610d8b565b5b602002602001019073ffffffffffffffffffffffffffffffffffffffff16908173ffffffffffffffffffffffffffffffffffffffff1681525050600260009054906101000a900473ffffffffffffffffffffffffffffffffffffffff16816001815181106105d8576105d7610d8b565b5b602002602001019073ffffffffffffffffffffffffffffffffffffffff16908173ffffffffffffffffffffffffffffffffffffffff1681525050600560009054906101000a900473ffffffffffffffffffffffffffffffffffffffff1673ffffffffffffffffffffffffffffffffffffffff16637ff36ab534848433426040518663ffffffff1660e01b81526004016106749493929190610e78565b60006040518083038185885af1158015610692573d6000803e3d6000fd5b50505050506040513d6000823e3d601f19601f820116820180604052508101906106bc9190610f91565b505050565b8273ffffffffffffffffffffffffffffffffffffffff1663095ea7b3600460009054906101000a900473ffffffffffffffffffffffffffffffffffffffff16836040518363ffffffff1660e01b815260040161071e929190610abe565b6020604051808303816000875af115801561073d573d6000803e3d6000fd5b505050506040513d601f19601f820116820180604052508101906107619190610b1f565b50600760009054906101000a900473ffffffffffffffffffffffffffffffffffffffff1673ffffffffffffffffffffffffffffffffffffffff1663e2bbb15883836040518363ffffffff1660e01b81526004016107bf929190610a95565b600060405180830381600087803b1580156107d957600080fd5b505af11580156107ed573d6000803e3d6000fd5b50505050505050565b6000604051905090565b600080fd5b600080fd5b6000819050919050565b61081d8161080a565b811461082857600080fd5b50565b60008135905061083a81610814565b92915050565b60006020828403121561085657610855610800565b5b60006108648482850161082b565b91505092915050565b6108768161080a565b82525050565b6000602082019050610891600083018461086d565b92915050565b600073ffffffffffffffffffffffffffffffffffffffff82169050919050565b60006108c282610897565b9050919050565b6108d2816108b7565b81146108dd57600080fd5b50565b6000813590506108ef816108c9565b92915050565b60008060006060848603121561090e5761090d610800565b5b600061091c868287016108e0565b935050602061092d8682870161082b565b925050604061093e8682870161082b565b9150509250925092565b610951816108b7565b82525050565b600060208201905061096c6000830184610948565b92915050565b600080fd5b6000601f19601f8301169050919050565b7f4e487b7100000000000000000000000000000000000000000000000000000000600052604160045260246000fd5b6109c082610977565b810181811067ffffffffffffffff821117156109df576109de610988565b5b80604052505050565b60006109f26107f6565b90506109fe82826109b7565b919050565b600081519050610a1281610814565b92915050565b600060408284031215610a2e57610a2d610972565b5b610a3860406109e8565b90506000610a4884828501610a03565b6000830152506020610a5c84828501610a03565b60208301525092915050565b600060408284031215610a7e57610a7d610800565b5b6000610a8c84828501610a18565b91505092915050565b6000604082019050610aaa600083018561086d565b610ab7602083018461086d565b9392505050565b6000604082019050610ad36000830185610948565b610ae0602083018461086d565b9392505050565b60008115159050919050565b610afc81610ae7565b8114610b0757600080fd5b50565b600081519050610b1981610af3565b92915050565b600060208284031215610b3557610b34610800565b5b6000610b4384828501610b0a565b91505092915050565b6000606082019050610b616000830186610948565b610b6e6020830185610948565b610b7b604083018461086d565b949350505050565b600082825260208201905092915050565b7f6d746f6b656e207472616e73666572206572726f722100000000000000000000600082015250565b6000610bca601683610b83565b9150610bd582610b94565b602082019050919050565b60006020820190508181036000830152610bf981610bbd565b9050919050565b7f6d73672e76616c75652073686f756c642062696767676572207468616e20616d60008201527f6f756e744554484d696e00000000000000000000000000000000000000000000602082015250565b6000610c5c602a83610b83565b9150610c6782610c00565b604082019050919050565b60006020820190508181036000830152610c8b81610c4f565b9050919050565b6000819050919050565b6000819050919050565b6000610cc1610cbc610cb784610c92565b610c9c565b61080a565b9050919050565b610cd181610ca6565b82525050565b600060c082019050610cec6000830189610948565b610cf9602083018861086d565b610d066040830187610cc8565b610d136060830186610cc8565b610d206080830185610948565b610d2d60a083018461086d565b979650505050505050565b600080600060608486031215610d5157610d50610800565b5b6000610d5f86828701610a03565b9350506020610d7086828701610a03565b9250506040610d8186828701610a03565b9150509250925092565b7f4e487b7100000000000000000000000000000000000000000000000000000000600052603260045260246000fd5b600081519050919050565b600082825260208201905092915050565b6000819050602082019050919050565b610def816108b7565b82525050565b6000610e018383610de6565b60208301905092915050565b6000602082019050919050565b6000610e2582610dba565b610e2f8185610dc5565b9350610e3a83610dd6565b8060005b83811015610e6b578151610e528882610df5565b9750610e5d83610e0d565b925050600181019050610e3e565b5085935050505092915050565b6000608082019050610e8d600083018761086d565b8181036020830152610e9f8186610e1a565b9050610eae6040830185610948565b610ebb606083018461086d565b95945050505050565b600080fd5b600067ffffffffffffffff821115610ee457610ee3610988565b5b602082029050602081019050919050565b600080fd5b6000610f0d610f0884610ec9565b6109e8565b90508083825260208201905060208402830185811115610f3057610f2f610ef5565b5b835b81811015610f595780610f458882610a03565b845260208401935050602081019050610f32565b5050509392505050565b600082601f830112610f7857610f77610ec4565b5b8151610f88848260208601610efa565b91505092915050565b600060208284031215610fa757610fa6610800565b5b600082015167ffffffffffffffff811115610fc557610fc4610805565b5b610fd184828501610f63565b9150509291505056fea26469706673582212209810812f64afae841b9279ac9719b552ec546c26b48ea3e0b3e73737c03b7e8c64736f6c634300080d0033",
					"opcodes": "PUSH1 0x80 PUSH1 0x40 MSTORE PUSH20 0x7A250D5630B4CF539739DF2C5DACB4C659F2488D PUSH1 0x0 DUP1 PUSH2 0x100 EXP DUP2 SLOAD DUP2 PUSH20 0xFFFFFFFFFFFFFFFFFFFFFFFFFFFFFFFFFFFFFFFF MUL NOT AND SWAP1 DUP4 PUSH20 0xFFFFFFFFFFFFFFFFFFFFFFFFFFFFFFFFFFFFFFFF AND MUL OR SWAP1 SSTORE POP PUSH20 0xC778417E063141139FCE010982780140AA0CD5AB PUSH1 0x1 PUSH1 0x0 PUSH2 0x100 EXP DUP2 SLOAD DUP2 PUSH20 0xFFFFFFFFFFFFFFFFFFFFFFFFFFFFFFFFFFFFFFFF MUL NOT AND SWAP1 DUP4 PUSH20 0xFFFFFFFFFFFFFFFFFFFFFFFFFFFFFFFFFFFFFFFF AND MUL OR SWAP1 SSTORE POP PUSH20 0x549F978C19A5AC86D906052639E317B57724EF44 PUSH1 0x2 PUSH1 0x0 PUSH2 0x100 EXP DUP2 SLOAD DUP2 PUSH20 0xFFFFFFFFFFFFFFFFFFFFFFFFFFFFFFFFFFFFFFFF MUL NOT AND SWAP1 DUP4 PUSH20 0xFFFFFFFFFFFFFFFFFFFFFFFFFFFFFFFFFFFFFFFF AND MUL OR SWAP1 SSTORE POP PUSH20 0xF42A08C0EA66EE4A474336087A6C17E9EA6C9DE9 PUSH1 0x3 PUSH1 0x0 PUSH2 0x100 EXP DUP2 SLOAD DUP2 PUSH20 0xFFFFFFFFFFFFFFFFFFFFFFFFFFFFFFFFFFFFFFFF MUL NOT AND SWAP1 DUP4 PUSH20 0xFFFFFFFFFFFFFFFFFFFFFFFFFFFFFFFFFFFFFFFF AND MUL OR SWAP1 SSTORE POP PUSH20 0xD9DFA8C6B37CFDF16668FE0465896F4A1B9B2C4F PUSH1 0x4 PUSH1 0x0 PUSH2 0x100 EXP DUP2 SLOAD DUP2 PUSH20 0xFFFFFFFFFFFFFFFFFFFFFFFFFFFFFFFFFFFFFFFF MUL NOT AND SWAP1 DUP4 PUSH20 0xFFFFFFFFFFFFFFFFFFFFFFFFFFFFFFFFFFFFFFFF AND MUL OR SWAP1 SSTORE POP PUSH1 0x0 DUP1 SLOAD SWAP1 PUSH2 0x100 EXP SWAP1 DIV PUSH20 0xFFFFFFFFFFFFFFFFFFFFFFFFFFFFFFFFFFFFFFFF AND PUSH1 0x5 PUSH1 0x0 PUSH2 0x100 EXP DUP2 SLOAD DUP2 PUSH20 0xFFFFFFFFFFFFFFFFFFFFFFFFFFFFFFFFFFFFFFFF MUL NOT AND SWAP1 DUP4 PUSH20 0xFFFFFFFFFFFFFFFFFFFFFFFFFFFFFFFFFFFFFFFF AND MUL OR SWAP1 SSTORE POP PUSH1 0x2 PUSH1 0x0 SWAP1 SLOAD SWAP1 PUSH2 0x100 EXP SWAP1 DIV PUSH20 0xFFFFFFFFFFFFFFFFFFFFFFFFFFFFFFFFFFFFFFFF AND PUSH1 0x6 PUSH1 0x0 PUSH2 0x100 EXP DUP2 SLOAD DUP2 PUSH20 0xFFFFFFFFFFFFFFFFFFFFFFFFFFFFFFFFFFFFFFFF MUL NOT AND SWAP1 DUP4 PUSH20 0xFFFFFFFFFFFFFFFFFFFFFFFFFFFFFFFFFFFFFFFF AND MUL OR SWAP1 SSTORE POP PUSH1 0x4 PUSH1 0x0 SWAP1 SLOAD SWAP1 PUSH2 0x100 EXP SWAP1 DIV PUSH20 0xFFFFFFFFFFFFFFFFFFFFFFFFFFFFFFFFFFFFFFFF AND PUSH1 0x7 PUSH1 0x0 PUSH2 0x100 EXP DUP2 SLOAD DUP2 PUSH20 0xFFFFFFFFFFFFFFFFFFFFFFFFFFFFFFFFFFFFFFFF MUL NOT AND SWAP1 DUP4 PUSH20 0xFFFFFFFFFFFFFFFFFFFFFFFFFFFFFFFFFFFFFFFF AND MUL OR SWAP1 SSTORE POP CALLVALUE DUP1 ISZERO PUSH2 0x2DF JUMPI PUSH1 0x0 DUP1 REVERT JUMPDEST POP PUSH2 0x1010 DUP1 PUSH2 0x2EF PUSH1 0x0 CODECOPY PUSH1 0x0 RETURN INVALID PUSH1 0x80 PUSH1 0x40 MSTORE PUSH1 0x4 CALLDATASIZE LT PUSH2 0x3F JUMPI PUSH1 0x0 CALLDATALOAD PUSH1 0xE0 SHR DUP1 PUSH4 0x2E1A7D4D EQ PUSH2 0x44 JUMPI DUP1 PUSH4 0x51C6590A EQ PUSH2 0x6D JUMPI DUP1 PUSH4 0xA93F74E0 EQ PUSH2 0x9D JUMPI DUP1 PUSH4 0xFC55D2BF EQ PUSH2 0xB9 JUMPI JUMPDEST PUSH1 0x0 DUP1 REVERT JUMPDEST CALLVALUE DUP1 ISZERO PUSH2 0x50 JUMPI PUSH1 0x0 DUP1 REVERT JUMPDEST POP PUSH2 0x6B PUSH1 0x4 DUP1 CALLDATASIZE SUB DUP2 ADD SWAP1 PUSH2 0x66 SWAP2 SWAP1 PUSH2 0x840 JUMP JUMPDEST PUSH2 0xE2 JUMP JUMPDEST STOP JUMPDEST PUSH2 0x87 PUSH1 0x4 DUP1 CALLDATASIZE SUB DUP2 ADD SWAP1 PUSH2 0x82 SWAP2 SWAP1 PUSH2 0x840 JUMP JUMPDEST PUSH2 0x218 JUMP JUMPDEST PUSH1 0x40 MLOAD PUSH2 0x94 SWAP2 SWAP1 PUSH2 0x87C JUMP JUMPDEST PUSH1 0x40 MLOAD DUP1 SWAP2 SUB SWAP1 RETURN JUMPDEST PUSH2 0xB7 PUSH1 0x4 DUP1 CALLDATASIZE SUB DUP2 ADD SWAP1 PUSH2 0xB2 SWAP2 SWAP1 PUSH2 0x840 JUMP JUMPDEST PUSH2 0x4E2 JUMP JUMPDEST STOP JUMPDEST CALLVALUE DUP1 ISZERO PUSH2 0xC5 JUMPI PUSH1 0x0 DUP1 REVERT JUMPDEST POP PUSH2 0xE0 PUSH1 0x4 DUP1 CALLDATASIZE SUB DUP2 ADD SWAP1 PUSH2 0xDB SWAP2 SWAP1 PUSH2 0x8F5 JUMP JUMPDEST PUSH2 0x6C1 JUMP JUMPDEST STOP JUMPDEST PUSH1 0x0 PUSH1 0x7 PUSH1 0x0 SWAP1 SLOAD SWAP1 PUSH2 0x100 EXP SWAP1 DIV PUSH20 0xFFFFFFFFFFFFFFFFFFFFFFFFFFFFFFFFFFFFFFFF AND PUSH20 0xFFFFFFFFFFFFFFFFFFFFFFFFFFFFFFFFFFFFFFFF AND PUSH4 0x1959A002 CALLER PUSH1 0x40 MLOAD DUP3 PUSH4 0xFFFFFFFF AND PUSH1 0xE0 SHL DUP2 MSTORE PUSH1 0x4 ADD PUSH2 0x13F SWAP2 SWAP1 PUSH2 0x957 JUMP JUMPDEST PUSH1 0x40 DUP1 MLOAD DUP1 DUP4 SUB DUP2 DUP7 GAS STATICCALL ISZERO DUP1 ISZERO PUSH2 0x15B JUMPI RETURNDATASIZE PUSH1 0x0 DUP1 RETURNDATACOPY RETURNDATASIZE PUSH1 0x0 REVERT JUMPDEST POP POP POP POP PUSH1 0x40 MLOAD RETURNDATASIZE PUSH1 0x1F NOT PUSH1 0x1F DUP3 ADD AND DUP3 ADD DUP1 PUSH1 0x40 MSTORE POP DUP2 ADD SWAP1 PUSH2 0x17F SWAP2 SWAP1 PUSH2 0xA68 JUMP JUMPDEST SWAP1 POP PUSH1 0x7 PUSH1 0x0 SWAP1 SLOAD SWAP1 PUSH2 0x100 EXP SWAP1 DIV PUSH20 0xFFFFFFFFFFFFFFFFFFFFFFFFFFFFFFFFFFFFFFFF AND PUSH20 0xFFFFFFFFFFFFFFFFFFFFFFFFFFFFFFFFFFFFFFFF AND PUSH4 0x441A3E70 DUP4 DUP4 PUSH1 0x0 ADD MLOAD PUSH1 0x40 MLOAD DUP4 PUSH4 0xFFFFFFFF AND PUSH1 0xE0 SHL DUP2 MSTORE PUSH1 0x4 ADD PUSH2 0x1E2 SWAP3 SWAP2 SWAP1 PUSH2 0xA95 JUMP JUMPDEST PUSH1 0x0 PUSH1 0x40 MLOAD DUP1 DUP4 SUB DUP2 PUSH1 0x0 DUP8 DUP1 EXTCODESIZE ISZERO DUP1 ISZERO PUSH2 0x1FC JUMPI PUSH1 0x0 DUP1 REVERT JUMPDEST POP GAS CALL ISZERO DUP1 ISZERO PUSH2 0x210 JUMPI RETURNDATASIZE PUSH1 0x0 DUP1 RETURNDATACOPY RETURNDATASIZE PUSH1 0x0 REVERT JUMPDEST POP POP POP POP POP POP JUMP JUMPDEST PUSH1 0x0 PUSH1 0x6 PUSH1 0x0 SWAP1 SLOAD SWAP1 PUSH2 0x100 EXP SWAP1 DIV PUSH20 0xFFFFFFFFFFFFFFFFFFFFFFFFFFFFFFFFFFFFFFFF AND PUSH20 0xFFFFFFFFFFFFFFFFFFFFFFFFFFFFFFFFFFFFFFFF AND PUSH4 0x95EA7B3 PUSH1 0x5 PUSH1 0x0 SWAP1 SLOAD SWAP1 PUSH2 0x100 EXP SWAP1 DIV PUSH20 0xFFFFFFFFFFFFFFFFFFFFFFFFFFFFFFFFFFFFFFFF AND DUP5 PUSH1 0x40 MLOAD DUP4 PUSH4 0xFFFFFFFF AND PUSH1 0xE0 SHL DUP2 MSTORE PUSH1 0x4 ADD PUSH2 0x299 SWAP3 SWAP2 SWAP1 PUSH2 0xABE JUMP JUMPDEST PUSH1 0x20 PUSH1 0x40 MLOAD DUP1 DUP4 SUB DUP2 PUSH1 0x0 DUP8 GAS CALL ISZERO DUP1 ISZERO PUSH2 0x2B8 JUMPI RETURNDATASIZE PUSH1 0x0 DUP1 RETURNDATACOPY RETURNDATASIZE PUSH1 0x0 REVERT JUMPDEST POP POP POP POP PUSH1 0x40 MLOAD RETURNDATASIZE PUSH1 0x1F NOT PUSH1 0x1F DUP3 ADD AND DUP3 ADD DUP1 PUSH1 0x40 MSTORE POP DUP2 ADD SWAP1 PUSH2 0x2DC SWAP2 SWAP1 PUSH2 0xB1F JUMP JUMPDEST POP PUSH1 0x0 PUSH1 0x6 PUSH1 0x0 SWAP1 SLOAD SWAP1 PUSH2 0x100 EXP SWAP1 DIV PUSH20 0xFFFFFFFFFFFFFFFFFFFFFFFFFFFFFFFFFFFFFFFF AND PUSH20 0xFFFFFFFFFFFFFFFFFFFFFFFFFFFFFFFFFFFFFFFF AND PUSH4 0x23B872DD CALLER ADDRESS DUP7 PUSH1 0x40 MLOAD DUP5 PUSH4 0xFFFFFFFF AND PUSH1 0xE0 SHL DUP2 MSTORE PUSH1 0x4 ADD PUSH2 0x33E SWAP4 SWAP3 SWAP2 SWAP1 PUSH2 0xB4C JUMP JUMPDEST PUSH1 0x20 PUSH1 0x40 MLOAD DUP1 DUP4 SUB DUP2 PUSH1 0x0 DUP8 GAS CALL ISZERO DUP1 ISZERO PUSH2 0x35D JUMPI RETURNDATASIZE PUSH1 0x0 DUP1 RETURNDATACOPY RETURNDATASIZE PUSH1 0x0 REVERT JUMPDEST POP POP POP POP PUSH1 0x40 MLOAD RETURNDATASIZE PUSH1 0x1F NOT PUSH1 0x1F DUP3 ADD AND DUP3 ADD DUP1 PUSH1 0x40 MSTORE POP DUP2 ADD SWAP1 PUSH2 0x381 SWAP2 SWAP1 PUSH2 0xB1F JUMP JUMPDEST SWAP1 POP DUP1 PUSH2 0x3C3 JUMPI PUSH1 0x40 MLOAD PUSH32 0x8C379A000000000000000000000000000000000000000000000000000000000 DUP2 MSTORE PUSH1 0x4 ADD PUSH2 0x3BA SWAP1 PUSH2 0xBE0 JUMP JUMPDEST PUSH1 0x40 MLOAD DUP1 SWAP2 SUB SWAP1 REVERT JUMPDEST PUSH1 0x0 CALLVALUE GT PUSH2 0x406 JUMPI PUSH1 0x40 MLOAD PUSH32 0x8C379A000000000000000000000000000000000000000000000000000000000 DUP2 MSTORE PUSH1 0x4 ADD PUSH2 0x3FD SWAP1 PUSH2 0xC72 JUMP JUMPDEST PUSH1 0x40 MLOAD DUP1 SWAP2 SUB SWAP1 REVERT JUMPDEST PUSH1 0x0 PUSH1 0x5 PUSH1 0x0 SWAP1 SLOAD SWAP1 PUSH2 0x100 EXP SWAP1 DIV PUSH20 0xFFFFFFFFFFFFFFFFFFFFFFFFFFFFFFFFFFFFFFFF AND PUSH20 0xFFFFFFFFFFFFFFFFFFFFFFFFFFFFFFFFFFFFFFFF AND PUSH4 0xF305D719 CALLVALUE PUSH1 0x2 PUSH1 0x0 SWAP1 SLOAD SWAP1 PUSH2 0x100 EXP SWAP1 DIV PUSH20 0xFFFFFFFFFFFFFFFFFFFFFFFFFFFFFFFFFFFFFFFF AND DUP8 PUSH1 0x0 DUP1 CALLER TIMESTAMP PUSH1 0x40 MLOAD DUP9 PUSH4 0xFFFFFFFF AND PUSH1 0xE0 SHL DUP2 MSTORE PUSH1 0x4 ADD PUSH2 0x491 SWAP7 SWAP6 SWAP5 SWAP4 SWAP3 SWAP2 SWAP1 PUSH2 0xCD7 JUMP JUMPDEST PUSH1 0x60 PUSH1 0x40 MLOAD DUP1 DUP4 SUB DUP2 DUP6 DUP9 GAS CALL ISZERO DUP1 ISZERO PUSH2 0x4AF JUMPI RETURNDATASIZE PUSH1 0x0 DUP1 RETURNDATACOPY RETURNDATASIZE PUSH1 0x0 REVERT JUMPDEST POP POP POP POP POP PUSH1 0x40 MLOAD RETURNDATASIZE PUSH1 0x1F NOT PUSH1 0x1F DUP3 ADD AND DUP3 ADD DUP1 PUSH1 0x40 MSTORE POP DUP2 ADD SWAP1 PUSH2 0x4D4 SWAP2 SWAP1 PUSH2 0xD38 JUMP JUMPDEST POP POP SWAP1 POP DUP1 SWAP3 POP POP POP SWAP2 SWAP1 POP JUMP JUMPDEST PUSH1 0x0 PUSH1 0x2 PUSH8 0xFFFFFFFFFFFFFFFF DUP2 GT ISZERO PUSH2 0x4FF JUMPI PUSH2 0x4FE PUSH2 0x988 JUMP JUMPDEST JUMPDEST PUSH1 0x40 MLOAD SWAP1 DUP1 DUP3 MSTORE DUP1 PUSH1 0x20 MUL PUSH1 0x20 ADD DUP3 ADD PUSH1 0x40 MSTORE DUP1 ISZERO PUSH2 0x52D JUMPI DUP2 PUSH1 0x20 ADD PUSH1 0x20 DUP3 MUL DUP1 CALLDATASIZE DUP4 CALLDATACOPY DUP1 DUP3 ADD SWAP2 POP POP SWAP1 POP JUMPDEST POP SWAP1 POP PUSH1 0x1 PUSH1 0x0 SWAP1 SLOAD SWAP1 PUSH2 0x100 EXP SWAP1 DIV PUSH20 0xFFFFFFFFFFFFFFFFFFFFFFFFFFFFFFFFFFFFFFFF AND DUP2 PUSH1 0x0 DUP2 MLOAD DUP2 LT PUSH2 0x567 JUMPI PUSH2 0x566 PUSH2 0xD8B JUMP JUMPDEST JUMPDEST PUSH1 0x20 MUL PUSH1 0x20 ADD ADD SWAP1 PUSH20 0xFFFFFFFFFFFFFFFFFFFFFFFFFFFFFFFFFFFFFFFF AND SWAP1 DUP2 PUSH20 0xFFFFFFFFFFFFFFFFFFFFFFFFFFFFFFFFFFFFFFFF AND DUP2 MSTORE POP POP PUSH1 0x2 PUSH1 0x0 SWAP1 SLOAD SWAP1 PUSH2 0x100 EXP SWAP1 DIV PUSH20 0xFFFFFFFFFFFFFFFFFFFFFFFFFFFFFFFFFFFFFFFF AND DUP2 PUSH1 0x1 DUP2 MLOAD DUP2 LT PUSH2 0x5D8 JUMPI PUSH2 0x5D7 PUSH2 0xD8B JUMP JUMPDEST JUMPDEST PUSH1 0x20 MUL PUSH1 0x20 ADD ADD SWAP1 PUSH20 0xFFFFFFFFFFFFFFFFFFFFFFFFFFFFFFFFFFFFFFFF AND SWAP1 DUP2 PUSH20 0xFFFFFFFFFFFFFFFFFFFFFFFFFFFFFFFFFFFFFFFF AND DUP2 MSTORE POP POP PUSH1 0x5 PUSH1 0x0 SWAP1 SLOAD SWAP1 PUSH2 0x100 EXP SWAP1 DIV PUSH20 0xFFFFFFFFFFFFFFFFFFFFFFFFFFFFFFFFFFFFFFFF AND PUSH20 0xFFFFFFFFFFFFFFFFFFFFFFFFFFFFFFFFFFFFFFFF AND PUSH4 0x7FF36AB5 CALLVALUE DUP5 DUP5 CALLER TIMESTAMP PUSH1 0x40 MLOAD DUP7 PUSH4 0xFFFFFFFF AND PUSH1 0xE0 SHL DUP2 MSTORE PUSH1 0x4 ADD PUSH2 0x674 SWAP5 SWAP4 SWAP3 SWAP2 SWAP1 PUSH2 0xE78 JUMP JUMPDEST PUSH1 0x0 PUSH1 0x40 MLOAD DUP1 DUP4 SUB DUP2 DUP6 DUP9 GAS CALL ISZERO DUP1 ISZERO PUSH2 0x692 JUMPI RETURNDATASIZE PUSH1 0x0 DUP1 RETURNDATACOPY RETURNDATASIZE PUSH1 0x0 REVERT JUMPDEST POP POP POP POP POP PUSH1 0x40 MLOAD RETURNDATASIZE PUSH1 0x0 DUP3 RETURNDATACOPY RETURNDATASIZE PUSH1 0x1F NOT PUSH1 0x1F DUP3 ADD AND DUP3 ADD DUP1 PUSH1 0x40 MSTORE POP DUP2 ADD SWAP1 PUSH2 0x6BC SWAP2 SWAP1 PUSH2 0xF91 JUMP JUMPDEST POP POP POP JUMP JUMPDEST DUP3 PUSH20 0xFFFFFFFFFFFFFFFFFFFFFFFFFFFFFFFFFFFFFFFF AND PUSH4 0x95EA7B3 PUSH1 0x4 PUSH1 0x0 SWAP1 SLOAD SWAP1 PUSH2 0x100 EXP SWAP1 DIV PUSH20 0xFFFFFFFFFFFFFFFFFFFFFFFFFFFFFFFFFFFFFFFF AND DUP4 PUSH1 0x40 MLOAD DUP4 PUSH4 0xFFFFFFFF AND PUSH1 0xE0 SHL DUP2 MSTORE PUSH1 0x4 ADD PUSH2 0x71E SWAP3 SWAP2 SWAP1 PUSH2 0xABE JUMP JUMPDEST PUSH1 0x20 PUSH1 0x40 MLOAD DUP1 DUP4 SUB DUP2 PUSH1 0x0 DUP8 GAS CALL ISZERO DUP1 ISZERO PUSH2 0x73D JUMPI RETURNDATASIZE PUSH1 0x0 DUP1 RETURNDATACOPY RETURNDATASIZE PUSH1 0x0 REVERT JUMPDEST POP POP POP POP PUSH1 0x40 MLOAD RETURNDATASIZE PUSH1 0x1F NOT PUSH1 0x1F DUP3 ADD AND DUP3 ADD DUP1 PUSH1 0x40 MSTORE POP DUP2 ADD SWAP1 PUSH2 0x761 SWAP2 SWAP1 PUSH2 0xB1F JUMP JUMPDEST POP PUSH1 0x7 PUSH1 0x0 SWAP1 SLOAD SWAP1 PUSH2 0x100 EXP SWAP1 DIV PUSH20 0xFFFFFFFFFFFFFFFFFFFFFFFFFFFFFFFFFFFFFFFF AND PUSH20 0xFFFFFFFFFFFFFFFFFFFFFFFFFFFFFFFFFFFFFFFF AND PUSH4 0xE2BBB158 DUP4 DUP4 PUSH1 0x40 MLOAD DUP4 PUSH4 0xFFFFFFFF AND PUSH1 0xE0 SHL DUP2 MSTORE PUSH1 0x4 ADD PUSH2 0x7BF SWAP3 SWAP2 SWAP1 PUSH2 0xA95 JUMP JUMPDEST PUSH1 0x0 PUSH1 0x40 MLOAD DUP1 DUP4 SUB DUP2 PUSH1 0x0 DUP8 DUP1 EXTCODESIZE ISZERO DUP1 ISZERO PUSH2 0x7D9 JUMPI PUSH1 0x0 DUP1 REVERT JUMPDEST POP GAS CALL ISZERO DUP1 ISZERO PUSH2 0x7ED JUMPI RETURNDATASIZE PUSH1 0x0 DUP1 RETURNDATACOPY RETURNDATASIZE PUSH1 0x0 REVERT JUMPDEST POP POP POP POP POP POP POP JUMP JUMPDEST PUSH1 0x0 PUSH1 0x40 MLOAD SWAP1 POP SWAP1 JUMP JUMPDEST PUSH1 0x0 DUP1 REVERT JUMPDEST PUSH1 0x0 DUP1 REVERT JUMPDEST PUSH1 0x0 DUP2 SWAP1 POP SWAP2 SWAP1 POP JUMP JUMPDEST PUSH2 0x81D DUP2 PUSH2 0x80A JUMP JUMPDEST DUP2 EQ PUSH2 0x828 JUMPI PUSH1 0x0 DUP1 REVERT JUMPDEST POP JUMP JUMPDEST PUSH1 0x0 DUP2 CALLDATALOAD SWAP1 POP PUSH2 0x83A DUP2 PUSH2 0x814 JUMP JUMPDEST SWAP3 SWAP2 POP POP JUMP JUMPDEST PUSH1 0x0 PUSH1 0x20 DUP3 DUP5 SUB SLT ISZERO PUSH2 0x856 JUMPI PUSH2 0x855 PUSH2 0x800 JUMP JUMPDEST JUMPDEST PUSH1 0x0 PUSH2 0x864 DUP5 DUP3 DUP6 ADD PUSH2 0x82B JUMP JUMPDEST SWAP2 POP POP SWAP3 SWAP2 POP POP JUMP JUMPDEST PUSH2 0x876 DUP2 PUSH2 0x80A JUMP JUMPDEST DUP3 MSTORE POP POP JUMP JUMPDEST PUSH1 0x0 PUSH1 0x20 DUP3 ADD SWAP1 POP PUSH2 0x891 PUSH1 0x0 DUP4 ADD DUP5 PUSH2 0x86D JUMP JUMPDEST SWAP3 SWAP2 POP POP JUMP JUMPDEST PUSH1 0x0 PUSH20 0xFFFFFFFFFFFFFFFFFFFFFFFFFFFFFFFFFFFFFFFF DUP3 AND SWAP1 POP SWAP2 SWAP1 POP JUMP JUMPDEST PUSH1 0x0 PUSH2 0x8C2 DUP3 PUSH2 0x897 JUMP JUMPDEST SWAP1 POP SWAP2 SWAP1 POP JUMP JUMPDEST PUSH2 0x8D2 DUP2 PUSH2 0x8B7 JUMP JUMPDEST DUP2 EQ PUSH2 0x8DD JUMPI PUSH1 0x0 DUP1 REVERT JUMPDEST POP JUMP JUMPDEST PUSH1 0x0 DUP2 CALLDATALOAD SWAP1 POP PUSH2 0x8EF DUP2 PUSH2 0x8C9 JUMP JUMPDEST SWAP3 SWAP2 POP POP JUMP JUMPDEST PUSH1 0x0 DUP1 PUSH1 0x0 PUSH1 0x60 DUP5 DUP7 SUB SLT ISZERO PUSH2 0x90E JUMPI PUSH2 0x90D PUSH2 0x800 JUMP JUMPDEST JUMPDEST PUSH1 0x0 PUSH2 0x91C DUP7 DUP3 DUP8 ADD PUSH2 0x8E0 JUMP JUMPDEST SWAP4 POP POP PUSH1 0x20 PUSH2 0x92D DUP7 DUP3 DUP8 ADD PUSH2 0x82B JUMP JUMPDEST SWAP3 POP POP PUSH1 0x40 PUSH2 0x93E DUP7 DUP3 DUP8 ADD PUSH2 0x82B JUMP JUMPDEST SWAP2 POP POP SWAP3 POP SWAP3 POP SWAP3 JUMP JUMPDEST PUSH2 0x951 DUP2 PUSH2 0x8B7 JUMP JUMPDEST DUP3 MSTORE POP POP JUMP JUMPDEST PUSH1 0x0 PUSH1 0x20 DUP3 ADD SWAP1 POP PUSH2 0x96C PUSH1 0x0 DUP4 ADD DUP5 PUSH2 0x948 JUMP JUMPDEST SWAP3 SWAP2 POP POP JUMP JUMPDEST PUSH1 0x0 DUP1 REVERT JUMPDEST PUSH1 0x0 PUSH1 0x1F NOT PUSH1 0x1F DUP4 ADD AND SWAP1 POP SWAP2 SWAP1 POP JUMP JUMPDEST PUSH32 0x4E487B7100000000000000000000000000000000000000000000000000000000 PUSH1 0x0 MSTORE PUSH1 0x41 PUSH1 0x4 MSTORE PUSH1 0x24 PUSH1 0x0 REVERT JUMPDEST PUSH2 0x9C0 DUP3 PUSH2 0x977 JUMP JUMPDEST DUP2 ADD DUP2 DUP2 LT PUSH8 0xFFFFFFFFFFFFFFFF DUP3 GT OR ISZERO PUSH2 0x9DF JUMPI PUSH2 0x9DE PUSH2 0x988 JUMP JUMPDEST JUMPDEST DUP1 PUSH1 0x40 MSTORE POP POP POP JUMP JUMPDEST PUSH1 0x0 PUSH2 0x9F2 PUSH2 0x7F6 JUMP JUMPDEST SWAP1 POP PUSH2 0x9FE DUP3 DUP3 PUSH2 0x9B7 JUMP JUMPDEST SWAP2 SWAP1 POP JUMP JUMPDEST PUSH1 0x0 DUP2 MLOAD SWAP1 POP PUSH2 0xA12 DUP2 PUSH2 0x814 JUMP JUMPDEST SWAP3 SWAP2 POP POP JUMP JUMPDEST PUSH1 0x0 PUSH1 0x40 DUP3 DUP5 SUB SLT ISZERO PUSH2 0xA2E JUMPI PUSH2 0xA2D PUSH2 0x972 JUMP JUMPDEST JUMPDEST PUSH2 0xA38 PUSH1 0x40 PUSH2 0x9E8 JUMP JUMPDEST SWAP1 POP PUSH1 0x0 PUSH2 0xA48 DUP5 DUP3 DUP6 ADD PUSH2 0xA03 JUMP JUMPDEST PUSH1 0x0 DUP4 ADD MSTORE POP PUSH1 0x20 PUSH2 0xA5C DUP5 DUP3 DUP6 ADD PUSH2 0xA03 JUMP JUMPDEST PUSH1 0x20 DUP4 ADD MSTORE POP SWAP3 SWAP2 POP POP JUMP JUMPDEST PUSH1 0x0 PUSH1 0x40 DUP3 DUP5 SUB SLT ISZERO PUSH2 0xA7E JUMPI PUSH2 0xA7D PUSH2 0x800 JUMP JUMPDEST JUMPDEST PUSH1 0x0 PUSH2 0xA8C DUP5 DUP3 DUP6 ADD PUSH2 0xA18 JUMP JUMPDEST SWAP2 POP POP SWAP3 SWAP2 POP POP JUMP JUMPDEST PUSH1 0x0 PUSH1 0x40 DUP3 ADD SWAP1 POP PUSH2 0xAAA PUSH1 0x0 DUP4 ADD DUP6 PUSH2 0x86D JUMP JUMPDEST PUSH2 0xAB7 PUSH1 0x20 DUP4 ADD DUP5 PUSH2 0x86D JUMP JUMPDEST SWAP4 SWAP3 POP POP POP JUMP JUMPDEST PUSH1 0x0 PUSH1 0x40 DUP3 ADD SWAP1 POP PUSH2 0xAD3 PUSH1 0x0 DUP4 ADD DUP6 PUSH2 0x948 JUMP JUMPDEST PUSH2 0xAE0 PUSH1 0x20 DUP4 ADD DUP5 PUSH2 0x86D JUMP JUMPDEST SWAP4 SWAP3 POP POP POP JUMP JUMPDEST PUSH1 0x0 DUP2 ISZERO ISZERO SWAP1 POP SWAP2 SWAP1 POP JUMP JUMPDEST PUSH2 0xAFC DUP2 PUSH2 0xAE7 JUMP JUMPDEST DUP2 EQ PUSH2 0xB07 JUMPI PUSH1 0x0 DUP1 REVERT JUMPDEST POP JUMP JUMPDEST PUSH1 0x0 DUP2 MLOAD SWAP1 POP PUSH2 0xB19 DUP2 PUSH2 0xAF3 JUMP JUMPDEST SWAP3 SWAP2 POP POP JUMP JUMPDEST PUSH1 0x0 PUSH1 0x20 DUP3 DUP5 SUB SLT ISZERO PUSH2 0xB35 JUMPI PUSH2 0xB34 PUSH2 0x800 JUMP JUMPDEST JUMPDEST PUSH1 0x0 PUSH2 0xB43 DUP5 DUP3 DUP6 ADD PUSH2 0xB0A JUMP JUMPDEST SWAP2 POP POP SWAP3 SWAP2 POP POP JUMP JUMPDEST PUSH1 0x0 PUSH1 0x60 DUP3 ADD SWAP1 POP PUSH2 0xB61 PUSH1 0x0 DUP4 ADD DUP7 PUSH2 0x948 JUMP JUMPDEST PUSH2 0xB6E PUSH1 0x20 DUP4 ADD DUP6 PUSH2 0x948 JUMP JUMPDEST PUSH2 0xB7B PUSH1 0x40 DUP4 ADD DUP5 PUSH2 0x86D JUMP JUMPDEST SWAP5 SWAP4 POP POP POP POP JUMP JUMPDEST PUSH1 0x0 DUP3 DUP3 MSTORE PUSH1 0x20 DUP3 ADD SWAP1 POP SWAP3 SWAP2 POP POP JUMP JUMPDEST PUSH32 0x6D746F6B656E207472616E73666572206572726F722100000000000000000000 PUSH1 0x0 DUP3 ADD MSTORE POP JUMP JUMPDEST PUSH1 0x0 PUSH2 0xBCA PUSH1 0x16 DUP4 PUSH2 0xB83 JUMP JUMPDEST SWAP2 POP PUSH2 0xBD5 DUP3 PUSH2 0xB94 JUMP JUMPDEST PUSH1 0x20 DUP3 ADD SWAP1 POP SWAP2 SWAP1 POP JUMP JUMPDEST PUSH1 0x0 PUSH1 0x20 DUP3 ADD SWAP1 POP DUP2 DUP2 SUB PUSH1 0x0 DUP4 ADD MSTORE PUSH2 0xBF9 DUP2 PUSH2 0xBBD JUMP JUMPDEST SWAP1 POP SWAP2 SWAP1 POP JUMP JUMPDEST PUSH32 0x6D73672E76616C75652073686F756C642062696767676572207468616E20616D PUSH1 0x0 DUP3 ADD MSTORE PUSH32 0x6F756E744554484D696E00000000000000000000000000000000000000000000 PUSH1 0x20 DUP3 ADD MSTORE POP JUMP JUMPDEST PUSH1 0x0 PUSH2 0xC5C PUSH1 0x2A DUP4 PUSH2 0xB83 JUMP JUMPDEST SWAP2 POP PUSH2 0xC67 DUP3 PUSH2 0xC00 JUMP JUMPDEST PUSH1 0x40 DUP3 ADD SWAP1 POP SWAP2 SWAP1 POP JUMP JUMPDEST PUSH1 0x0 PUSH1 0x20 DUP3 ADD SWAP1 POP DUP2 DUP2 SUB PUSH1 0x0 DUP4 ADD MSTORE PUSH2 0xC8B DUP2 PUSH2 0xC4F JUMP JUMPDEST SWAP1 POP SWAP2 SWAP1 POP JUMP JUMPDEST PUSH1 0x0 DUP2 SWAP1 POP SWAP2 SWAP1 POP JUMP JUMPDEST PUSH1 0x0 DUP2 SWAP1 POP SWAP2 SWAP1 POP JUMP JUMPDEST PUSH1 0x0 PUSH2 0xCC1 PUSH2 0xCBC PUSH2 0xCB7 DUP5 PUSH2 0xC92 JUMP JUMPDEST PUSH2 0xC9C JUMP JUMPDEST PUSH2 0x80A JUMP JUMPDEST SWAP1 POP SWAP2 SWAP1 POP JUMP JUMPDEST PUSH2 0xCD1 DUP2 PUSH2 0xCA6 JUMP JUMPDEST DUP3 MSTORE POP POP JUMP JUMPDEST PUSH1 0x0 PUSH1 0xC0 DUP3 ADD SWAP1 POP PUSH2 0xCEC PUSH1 0x0 DUP4 ADD DUP10 PUSH2 0x948 JUMP JUMPDEST PUSH2 0xCF9 PUSH1 0x20 DUP4 ADD DUP9 PUSH2 0x86D JUMP JUMPDEST PUSH2 0xD06 PUSH1 0x40 DUP4 ADD DUP8 PUSH2 0xCC8 JUMP JUMPDEST PUSH2 0xD13 PUSH1 0x60 DUP4 ADD DUP7 PUSH2 0xCC8 JUMP JUMPDEST PUSH2 0xD20 PUSH1 0x80 DUP4 ADD DUP6 PUSH2 0x948 JUMP JUMPDEST PUSH2 0xD2D PUSH1 0xA0 DUP4 ADD DUP5 PUSH2 0x86D JUMP JUMPDEST SWAP8 SWAP7 POP POP POP POP POP POP POP JUMP JUMPDEST PUSH1 0x0 DUP1 PUSH1 0x0 PUSH1 0x60 DUP5 DUP7 SUB SLT ISZERO PUSH2 0xD51 JUMPI PUSH2 0xD50 PUSH2 0x800 JUMP JUMPDEST JUMPDEST PUSH1 0x0 PUSH2 0xD5F DUP7 DUP3 DUP8 ADD PUSH2 0xA03 JUMP JUMPDEST SWAP4 POP POP PUSH1 0x20 PUSH2 0xD70 DUP7 DUP3 DUP8 ADD PUSH2 0xA03 JUMP JUMPDEST SWAP3 POP POP PUSH1 0x40 PUSH2 0xD81 DUP7 DUP3 DUP8 ADD PUSH2 0xA03 JUMP JUMPDEST SWAP2 POP POP SWAP3 POP SWAP3 POP SWAP3 JUMP JUMPDEST PUSH32 0x4E487B7100000000000000000000000000000000000000000000000000000000 PUSH1 0x0 MSTORE PUSH1 0x32 PUSH1 0x4 MSTORE PUSH1 0x24 PUSH1 0x0 REVERT JUMPDEST PUSH1 0x0 DUP2 MLOAD SWAP1 POP SWAP2 SWAP1 POP JUMP JUMPDEST PUSH1 0x0 DUP3 DUP3 MSTORE PUSH1 0x20 DUP3 ADD SWAP1 POP SWAP3 SWAP2 POP POP JUMP JUMPDEST PUSH1 0x0 DUP2 SWAP1 POP PUSH1 0x20 DUP3 ADD SWAP1 POP SWAP2 SWAP1 POP JUMP JUMPDEST PUSH2 0xDEF DUP2 PUSH2 0x8B7 JUMP JUMPDEST DUP3 MSTORE POP POP JUMP JUMPDEST PUSH1 0x0 PUSH2 0xE01 DUP4 DUP4 PUSH2 0xDE6 JUMP JUMPDEST PUSH1 0x20 DUP4 ADD SWAP1 POP SWAP3 SWAP2 POP POP JUMP JUMPDEST PUSH1 0x0 PUSH1 0x20 DUP3 ADD SWAP1 POP SWAP2 SWAP1 POP JUMP JUMPDEST PUSH1 0x0 PUSH2 0xE25 DUP3 PUSH2 0xDBA JUMP JUMPDEST PUSH2 0xE2F DUP2 DUP6 PUSH2 0xDC5 JUMP JUMPDEST SWAP4 POP PUSH2 0xE3A DUP4 PUSH2 0xDD6 JUMP JUMPDEST DUP1 PUSH1 0x0 JUMPDEST DUP4 DUP2 LT ISZERO PUSH2 0xE6B JUMPI DUP2 MLOAD PUSH2 0xE52 DUP9 DUP3 PUSH2 0xDF5 JUMP JUMPDEST SWAP8 POP PUSH2 0xE5D DUP4 PUSH2 0xE0D JUMP JUMPDEST SWAP3 POP POP PUSH1 0x1 DUP2 ADD SWAP1 POP PUSH2 0xE3E JUMP JUMPDEST POP DUP6 SWAP4 POP POP POP POP SWAP3 SWAP2 POP POP JUMP JUMPDEST PUSH1 0x0 PUSH1 0x80 DUP3 ADD SWAP1 POP PUSH2 0xE8D PUSH1 0x0 DUP4 ADD DUP8 PUSH2 0x86D JUMP JUMPDEST DUP2 DUP2 SUB PUSH1 0x20 DUP4 ADD MSTORE PUSH2 0xE9F DUP2 DUP7 PUSH2 0xE1A JUMP JUMPDEST SWAP1 POP PUSH2 0xEAE PUSH1 0x40 DUP4 ADD DUP6 PUSH2 0x948 JUMP JUMPDEST PUSH2 0xEBB PUSH1 0x60 DUP4 ADD DUP5 PUSH2 0x86D JUMP JUMPDEST SWAP6 SWAP5 POP POP POP POP POP JUMP JUMPDEST PUSH1 0x0 DUP1 REVERT JUMPDEST PUSH1 0x0 PUSH8 0xFFFFFFFFFFFFFFFF DUP3 GT ISZERO PUSH2 0xEE4 JUMPI PUSH2 0xEE3 PUSH2 0x988 JUMP JUMPDEST JUMPDEST PUSH1 0x20 DUP3 MUL SWAP1 POP PUSH1 0x20 DUP2 ADD SWAP1 POP SWAP2 SWAP1 POP JUMP JUMPDEST PUSH1 0x0 DUP1 REVERT JUMPDEST PUSH1 0x0 PUSH2 0xF0D PUSH2 0xF08 DUP5 PUSH2 0xEC9 JUMP JUMPDEST PUSH2 0x9E8 JUMP JUMPDEST SWAP1 POP DUP1 DUP4 DUP3 MSTORE PUSH1 0x20 DUP3 ADD SWAP1 POP PUSH1 0x20 DUP5 MUL DUP4 ADD DUP6 DUP2 GT ISZERO PUSH2 0xF30 JUMPI PUSH2 0xF2F PUSH2 0xEF5 JUMP JUMPDEST JUMPDEST DUP4 JUMPDEST DUP2 DUP2 LT ISZERO PUSH2 0xF59 JUMPI DUP1 PUSH2 0xF45 DUP9 DUP3 PUSH2 0xA03 JUMP JUMPDEST DUP5 MSTORE PUSH1 0x20 DUP5 ADD SWAP4 POP POP PUSH1 0x20 DUP2 ADD SWAP1 POP PUSH2 0xF32 JUMP JUMPDEST POP POP POP SWAP4 SWAP3 POP POP POP JUMP JUMPDEST PUSH1 0x0 DUP3 PUSH1 0x1F DUP4 ADD SLT PUSH2 0xF78 JUMPI PUSH2 0xF77 PUSH2 0xEC4 JUMP JUMPDEST JUMPDEST DUP2 MLOAD PUSH2 0xF88 DUP5 DUP3 PUSH1 0x20 DUP7 ADD PUSH2 0xEFA JUMP JUMPDEST SWAP2 POP POP SWAP3 SWAP2 POP POP JUMP JUMPDEST PUSH1 0x0 PUSH1 0x20 DUP3 DUP5 SUB SLT ISZERO PUSH2 0xFA7 JUMPI PUSH2 0xFA6 PUSH2 0x800 JUMP JUMPDEST JUMPDEST PUSH1 0x0 DUP3 ADD MLOAD PUSH8 0xFFFFFFFFFFFFFFFF DUP2 GT ISZERO PUSH2 0xFC5 JUMPI PUSH2 0xFC4 PUSH2 0x805 JUMP JUMPDEST JUMPDEST PUSH2 0xFD1 DUP5 DUP3 DUP6 ADD PUSH2 0xF63 JUMP JUMPDEST SWAP2 POP POP SWAP3 SWAP2 POP POP JUMP INVALID LOG2 PUSH5 0x6970667358 0x22 SLT KECCAK256 SWAP9 LT DUP2 0x2F PUSH5 0xAFAE841B92 PUSH26 0xAC9719B552EC546C26B48EA3E0B3E73737C03B7E8C64736F6C63 NUMBER STOP ADDMOD 0xD STOP CALLER "
				},
				"gasEstimates": {
					"creation": {
						"codeDepositCost": "822400",
						"executionCost": "201398",
						"totalCost": "1023798"
					},
					"external": {
						"addLiquidity(uint256)": "infinite",
						"buyExactTokenByETH(uint256)": "infinite",
						"depositToMasterChef(address,uint256,uint256)": "infinite",
						"withdraw(uint256)": "infinite"
					}
				},
				"methodIdentifiers": {
					"addLiquidity(uint256)": "51c6590a",
					"buyExactTokenByETH(uint256)": "a93f74e0",
					"depositToMasterChef(address,uint256,uint256)": "fc55d2bf",
					"withdraw(uint256)": "2e1a7d4d"
				}
			},
			"userdoc": {
				"kind": "user",
				"methods": {},
				"version": 1
			}
		}
	}
}