{
	"Code-hardhat-ethersJs/contracts/MyTokenMarket.sol": {
		"MyTokenMarket": {
			"abi": [
				{
					"inputs": [],
					"stateMutability": "nonpayable",
					"type": "constructor"
				},
				{
					"inputs": [
						{
							"internalType": "uint256",
							"name": "amountMyTokenDesired",
							"type": "uint256"
						},
						{
							"internalType": "uint256",
							"name": "amountMyTokenMin",
							"type": "uint256"
						},
						{
							"internalType": "uint256",
							"name": "amountETHMin",
							"type": "uint256"
						}
					],
					"name": "addLiquidity",
					"outputs": [],
					"stateMutability": "payable",
					"type": "function"
				},
				{
					"inputs": [
						{
							"internalType": "uint256",
							"name": "amountOutMin",
							"type": "uint256"
						}
					],
					"name": "buyExactTokenByETH",
					"outputs": [],
					"stateMutability": "payable",
					"type": "function"
				},
				{
					"inputs": [
						{
							"internalType": "uint256",
							"name": "pid",
							"type": "uint256"
						}
					],
					"name": "withdraw",
					"outputs": [],
					"stateMutability": "nonpayable",
					"type": "function"
				}
			],
			"devdoc": {
				"kind": "dev",
				"methods": {},
				"version": 1
			},
			"evm": {
				"assembly": "    /* \"Code-hardhat-ethersJs/contracts/MyTokenMarket.sol\":220:2314  contract MyTokenMarket{... */\n  mstore(0x40, 0x80)\n    /* \"Code-hardhat-ethersJs/contracts/MyTokenMarket.sol\":493:535  0x7a250d5630B4cF539739dF2C5dAcb4c659F2488D */\n  0x7a250d5630b4cf539739df2c5dacb4c659f2488d\n    /* \"Code-hardhat-ethersJs/contracts/MyTokenMarket.sol\":472:535  address uv2address = 0x7a250d5630B4cF539739dF2C5dAcb4c659F2488D */\n  0x00\n  dup1\n  0x0100\n  exp\n  dup2\n  sload\n  dup2\n  0xffffffffffffffffffffffffffffffffffffffff\n  mul\n  not\n  and\n  swap1\n  dup4\n  0xffffffffffffffffffffffffffffffffffffffff\n  and\n  mul\n  or\n  swap1\n  sstore\n  pop\n    /* \"Code-hardhat-ethersJs/contracts/MyTokenMarket.sol\":563:605  0xc778417E063141139Fce010982780140Aa0cD5Ab */\n  0xc778417e063141139fce010982780140aa0cd5ab\n    /* \"Code-hardhat-ethersJs/contracts/MyTokenMarket.sol\":541:605  address wethaddress = 0xc778417E063141139Fce010982780140Aa0cD5Ab */\n  0x01\n  exp(0x0100, 0x00)\n  dup2\n  sload\n  dup2\n  0xffffffffffffffffffffffffffffffffffffffff\n  mul\n  not\n  and\n  swap1\n  dup4\n  0xffffffffffffffffffffffffffffffffffffffff\n  and\n  mul\n  or\n  swap1\n  sstore\n  pop\n    /* \"Code-hardhat-ethersJs/contracts/MyTokenMarket.sol\":636:678  0xFA7b29AC82cC25D50970D7E6d842B0e6a529BAeE */\n  0xfa7b29ac82cc25d50970d7e6d842b0e6a529baee\n    /* \"Code-hardhat-ethersJs/contracts/MyTokenMarket.sol\":611:678  address mytokenaddress = 0xFA7b29AC82cC25D50970D7E6d842B0e6a529BAeE */\n  0x02\n  exp(0x0100, 0x00)\n  dup2\n  sload\n  dup2\n  0xffffffffffffffffffffffffffffffffffffffff\n  mul\n  not\n  and\n  swap1\n  dup4\n  0xffffffffffffffffffffffffffffffffffffffff\n  and\n  mul\n  or\n  swap1\n  sstore\n  pop\n    /* \"Code-hardhat-ethersJs/contracts/MyTokenMarket.sol\":707:749  0xf42A08C0EA66ee4A474336087A6C17E9EA6c9dE9 */\n  0xf42a08c0ea66ee4a474336087a6c17e9ea6c9de9\n    /* \"Code-hardhat-ethersJs/contracts/MyTokenMarket.sol\":684:749  address sushiaddress = 0xf42A08C0EA66ee4A474336087A6C17E9EA6c9dE9 */\n  0x03\n  exp(0x0100, 0x00)\n  dup2\n  sload\n  dup2\n  0xffffffffffffffffffffffffffffffffffffffff\n  mul\n  not\n  and\n  swap1\n  dup4\n  0xffffffffffffffffffffffffffffffffffffffff\n  and\n  mul\n  or\n  swap1\n  sstore\n  pop\n    /* \"Code-hardhat-ethersJs/contracts/MyTokenMarket.sol\":783:825  0xd9DFA8c6b37cfDF16668fE0465896f4A1B9b2c4F */\n  0xd9dfa8c6b37cfdf16668fe0465896f4a1b9b2c4f\n    /* \"Code-hardhat-ethersJs/contracts/MyTokenMarket.sol\":755:825  address masterchefaddress = 0xd9DFA8c6b37cfDF16668fE0465896f4A1B9b2c4F */\n  0x04\n  exp(0x0100, 0x00)\n  dup2\n  sload\n  dup2\n  0xffffffffffffffffffffffffffffffffffffffff\n  mul\n  not\n  and\n  swap1\n  dup4\n  0xffffffffffffffffffffffffffffffffffffffff\n  and\n  mul\n  or\n  swap1\n  sstore\n  pop\n    /* \"Code-hardhat-ethersJs/contracts/MyTokenMarket.sol\":881:891  uv2address */\n  0x00\n  dup1\n  sload\n  swap1\n  0x0100\n  exp\n  swap1\n  div\n  0xffffffffffffffffffffffffffffffffffffffff\n  and\n    /* \"Code-hardhat-ethersJs/contracts/MyTokenMarket.sol\":831:892  IUniswapV2Router02 uv2router = IUniswapV2Router02(uv2address) */\n  0x05\n  exp(0x0100, 0x00)\n  dup2\n  sload\n  dup2\n  0xffffffffffffffffffffffffffffffffffffffff\n  mul\n  not\n  and\n  swap1\n  dup4\n  0xffffffffffffffffffffffffffffffffffffffff\n  and\n  mul\n  or\n  swap1\n  sstore\n  pop\n    /* \"Code-hardhat-ethersJs/contracts/MyTokenMarket.sol\":921:935  mytokenaddress */\n  0x02\n  0x00\n  swap1\n  sload\n  swap1\n  0x0100\n  exp\n  swap1\n  div\n  0xffffffffffffffffffffffffffffffffffffffff\n  and\n    /* \"Code-hardhat-ethersJs/contracts/MyTokenMarket.sol\":898:936  IERC20 mtoken = IERC20(mytokenaddress) */\n  0x06\n  exp(0x0100, 0x00)\n  dup2\n  sload\n  dup2\n  0xffffffffffffffffffffffffffffffffffffffff\n  mul\n  not\n  and\n  swap1\n  dup4\n  0xffffffffffffffffffffffffffffffffffffffff\n  and\n  mul\n  or\n  swap1\n  sstore\n  pop\n    /* \"Code-hardhat-ethersJs/contracts/MyTokenMarket.sol\":979:996  masterchefaddress */\n  0x04\n  0x00\n  swap1\n  sload\n  swap1\n  0x0100\n  exp\n  swap1\n  div\n  0xffffffffffffffffffffffffffffffffffffffff\n  and\n    /* \"Code-hardhat-ethersJs/contracts/MyTokenMarket.sol\":942:997  IMasterChef masterChef = IMasterChef(masterchefaddress) */\n  0x07\n  exp(0x0100, 0x00)\n  dup2\n  sload\n  dup2\n  0xffffffffffffffffffffffffffffffffffffffff\n  mul\n  not\n  and\n  swap1\n  dup4\n  0xffffffffffffffffffffffffffffffffffffffff\n  and\n  mul\n  or\n  swap1\n  sstore\n  pop\n    /* \"Code-hardhat-ethersJs/contracts/MyTokenMarket.sol\":1003:1023  constructor(){... */\n  callvalue\n  dup1\n  iszero\n  tag_1\n  jumpi\n  0x00\n  dup1\n  revert\ntag_1:\n  pop\n    /* \"Code-hardhat-ethersJs/contracts/MyTokenMarket.sol\":220:2314  contract MyTokenMarket{... */\n  dataSize(sub_0)\n  dup1\n  dataOffset(sub_0)\n  0x00\n  codecopy\n  0x00\n  return\nstop\n\nsub_0: assembly {\n        /* \"Code-hardhat-ethersJs/contracts/MyTokenMarket.sol\":220:2314  contract MyTokenMarket{... */\n      mstore(0x40, 0x80)\n      jumpi(tag_1, lt(calldatasize, 0x04))\n      shr(0xe0, calldataload(0x00))\n      dup1\n      0x2e1a7d4d\n      eq\n      tag_2\n      jumpi\n      dup1\n      0x422f1043\n      eq\n      tag_3\n      jumpi\n      dup1\n      0xa93f74e0\n      eq\n      tag_4\n      jumpi\n    tag_1:\n      0x00\n      dup1\n      revert\n        /* \"Code-hardhat-ethersJs/contracts/MyTokenMarket.sol\":2137:2310  function withdraw(uint256 pid)public{... */\n    tag_2:\n      callvalue\n      dup1\n      iszero\n      tag_5\n      jumpi\n      0x00\n      dup1\n      revert\n    tag_5:\n      pop\n      tag_6\n      0x04\n      dup1\n      calldatasize\n      sub\n      dup2\n      add\n      swap1\n      tag_7\n      swap2\n      swap1\n      tag_8\n      jump\t// in\n    tag_7:\n      tag_9\n      jump\t// in\n    tag_6:\n      stop\n        /* \"Code-hardhat-ethersJs/contracts/MyTokenMarket.sol\":1030:1769  function addLiquidity(... */\n    tag_3:\n      tag_10\n      0x04\n      dup1\n      calldatasize\n      sub\n      dup2\n      add\n      swap1\n      tag_11\n      swap2\n      swap1\n      tag_12\n      jump\t// in\n    tag_11:\n      tag_13\n      jump\t// in\n    tag_10:\n      stop\n        /* \"Code-hardhat-ethersJs/contracts/MyTokenMarket.sol\":1776:2100  function buyExactTokenByETH(uint amountOutMin)public payable{... */\n    tag_4:\n      tag_14\n      0x04\n      dup1\n      calldatasize\n      sub\n      dup2\n      add\n      swap1\n      tag_15\n      swap2\n      swap1\n      tag_8\n      jump\t// in\n    tag_15:\n      tag_16\n      jump\t// in\n    tag_14:\n      stop\n        /* \"Code-hardhat-ethersJs/contracts/MyTokenMarket.sol\":2137:2310  function withdraw(uint256 pid)public{... */\n    tag_9:\n        /* \"Code-hardhat-ethersJs/contracts/MyTokenMarket.sol\":2183:2219  IMasterChef.UserInfo memory userInfo */\n      0x00\n        /* \"Code-hardhat-ethersJs/contracts/MyTokenMarket.sol\":2222:2232  masterChef */\n      0x07\n      0x00\n      swap1\n      sload\n      swap1\n      0x0100\n      exp\n      swap1\n      div\n      0xffffffffffffffffffffffffffffffffffffffff\n      and\n        /* \"Code-hardhat-ethersJs/contracts/MyTokenMarket.sol\":2222:2241  masterChef.userInfo */\n      0xffffffffffffffffffffffffffffffffffffffff\n      and\n      0x1959a002\n        /* \"Code-hardhat-ethersJs/contracts/MyTokenMarket.sol\":2242:2252  msg.sender */\n      caller\n        /* \"Code-hardhat-ethersJs/contracts/MyTokenMarket.sol\":2222:2253  masterChef.userInfo(msg.sender) */\n      mload(0x40)\n      dup3\n      0xffffffff\n      and\n      0xe0\n      shl\n      dup2\n      mstore\n      0x04\n      add\n      tag_18\n      swap2\n      swap1\n      tag_19\n      jump\t// in\n    tag_18:\n      0x40\n      dup1\n      mload\n      dup1\n      dup4\n      sub\n      dup2\n      dup7\n      gas\n      staticcall\n      iszero\n      dup1\n      iszero\n      tag_21\n      jumpi\n      returndatasize\n      0x00\n      dup1\n      returndatacopy\n      revert(0x00, returndatasize)\n    tag_21:\n      pop\n      pop\n      pop\n      pop\n      mload(0x40)\n      returndatasize\n      not(0x1f)\n      0x1f\n      dup3\n      add\n      and\n      dup3\n      add\n      dup1\n      0x40\n      mstore\n      pop\n      dup2\n      add\n      swap1\n      tag_22\n      swap2\n      swap1\n      tag_23\n      jump\t// in\n    tag_22:\n        /* \"Code-hardhat-ethersJs/contracts/MyTokenMarket.sol\":2183:2253  IMasterChef.UserInfo memory userInfo = masterChef.userInfo(msg.sender) */\n      swap1\n      pop\n        /* \"Code-hardhat-ethersJs/contracts/MyTokenMarket.sol\":2263:2273  masterChef */\n      0x07\n      0x00\n      swap1\n      sload\n      swap1\n      0x0100\n      exp\n      swap1\n      div\n      0xffffffffffffffffffffffffffffffffffffffff\n      and\n        /* \"Code-hardhat-ethersJs/contracts/MyTokenMarket.sol\":2263:2282  masterChef.withdraw */\n      0xffffffffffffffffffffffffffffffffffffffff\n      and\n      0x441a3e70\n        /* \"Code-hardhat-ethersJs/contracts/MyTokenMarket.sol\":2283:2286  pid */\n      dup4\n        /* \"Code-hardhat-ethersJs/contracts/MyTokenMarket.sol\":2287:2295  userInfo */\n      dup4\n        /* \"Code-hardhat-ethersJs/contracts/MyTokenMarket.sol\":2287:2302  userInfo.amount */\n      0x00\n      add\n      mload\n        /* \"Code-hardhat-ethersJs/contracts/MyTokenMarket.sol\":2263:2303  masterChef.withdraw(pid,userInfo.amount) */\n      mload(0x40)\n      dup4\n      0xffffffff\n      and\n      0xe0\n      shl\n      dup2\n      mstore\n      0x04\n      add\n      tag_24\n      swap3\n      swap2\n      swap1\n      tag_25\n      jump\t// in\n    tag_24:\n      0x00\n      mload(0x40)\n      dup1\n      dup4\n      sub\n      dup2\n      0x00\n      dup8\n      dup1\n      extcodesize\n      iszero\n      dup1\n      iszero\n      tag_26\n      jumpi\n      0x00\n      dup1\n      revert\n    tag_26:\n      pop\n      gas\n      call\n      iszero\n      dup1\n      iszero\n      tag_28\n      jumpi\n      returndatasize\n      0x00\n      dup1\n      returndatacopy\n      revert(0x00, returndatasize)\n    tag_28:\n      pop\n      pop\n      pop\n      pop\n        /* \"Code-hardhat-ethersJs/contracts/MyTokenMarket.sol\":2173:2310  {... */\n      pop\n        /* \"Code-hardhat-ethersJs/contracts/MyTokenMarket.sol\":2137:2310  function withdraw(uint256 pid)public{... */\n      pop\n      jump\t// out\n        /* \"Code-hardhat-ethersJs/contracts/MyTokenMarket.sol\":1030:1769  function addLiquidity(... */\n    tag_13:\n        /* \"Code-hardhat-ethersJs/contracts/MyTokenMarket.sol\":1216:1222  mtoken */\n      0x06\n      0x00\n      swap1\n      sload\n      swap1\n      0x0100\n      exp\n      swap1\n      div\n      0xffffffffffffffffffffffffffffffffffffffff\n      and\n        /* \"Code-hardhat-ethersJs/contracts/MyTokenMarket.sol\":1216:1230  mtoken.approve */\n      0xffffffffffffffffffffffffffffffffffffffff\n      and\n      0x095ea7b3\n        /* \"Code-hardhat-ethersJs/contracts/MyTokenMarket.sol\":1239:1248  uv2router */\n      0x05\n      0x00\n      swap1\n      sload\n      swap1\n      0x0100\n      exp\n      swap1\n      div\n      0xffffffffffffffffffffffffffffffffffffffff\n      and\n        /* \"Code-hardhat-ethersJs/contracts/MyTokenMarket.sol\":1251:1271  amountMyTokenDesired */\n      dup6\n        /* \"Code-hardhat-ethersJs/contracts/MyTokenMarket.sol\":1216:1272  mtoken.approve(address(uv2router), amountMyTokenDesired) */\n      mload(0x40)\n      dup4\n      0xffffffff\n      and\n      0xe0\n      shl\n      dup2\n      mstore\n      0x04\n      add\n      tag_30\n      swap3\n      swap2\n      swap1\n      tag_31\n      jump\t// in\n    tag_30:\n      0x20\n      mload(0x40)\n      dup1\n      dup4\n      sub\n      dup2\n      0x00\n      dup8\n      gas\n      call\n      iszero\n      dup1\n      iszero\n      tag_33\n      jumpi\n      returndatasize\n      0x00\n      dup1\n      returndatacopy\n      revert(0x00, returndatasize)\n    tag_33:\n      pop\n      pop\n      pop\n      pop\n      mload(0x40)\n      returndatasize\n      not(0x1f)\n      0x1f\n      dup3\n      add\n      and\n      dup3\n      add\n      dup1\n      0x40\n      mstore\n      pop\n      dup2\n      add\n      swap1\n      tag_34\n      swap2\n      swap1\n      tag_35\n      jump\t// in\n    tag_34:\n      pop\n        /* \"Code-hardhat-ethersJs/contracts/MyTokenMarket.sol\":1282:1294  bool success */\n      0x00\n        /* \"Code-hardhat-ethersJs/contracts/MyTokenMarket.sol\":1297:1303  mtoken */\n      0x06\n      0x00\n      swap1\n      sload\n      swap1\n      0x0100\n      exp\n      swap1\n      div\n      0xffffffffffffffffffffffffffffffffffffffff\n      and\n        /* \"Code-hardhat-ethersJs/contracts/MyTokenMarket.sol\":1297:1316  mtoken.transferFrom */\n      0xffffffffffffffffffffffffffffffffffffffff\n      and\n      0x23b872dd\n        /* \"Code-hardhat-ethersJs/contracts/MyTokenMarket.sol\":1317:1327  msg.sender */\n      caller\n        /* \"Code-hardhat-ethersJs/contracts/MyTokenMarket.sol\":1337:1341  this */\n      address\n        /* \"Code-hardhat-ethersJs/contracts/MyTokenMarket.sol\":1344:1364  amountMyTokenDesired */\n      dup8\n        /* \"Code-hardhat-ethersJs/contracts/MyTokenMarket.sol\":1297:1365  mtoken.transferFrom(msg.sender, address(this), amountMyTokenDesired) */\n      mload(0x40)\n      dup5\n      0xffffffff\n      and\n      0xe0\n      shl\n      dup2\n      mstore\n      0x04\n      add\n      tag_36\n      swap4\n      swap3\n      swap2\n      swap1\n      tag_37\n      jump\t// in\n    tag_36:\n      0x20\n      mload(0x40)\n      dup1\n      dup4\n      sub\n      dup2\n      0x00\n      dup8\n      gas\n      call\n      iszero\n      dup1\n      iszero\n      tag_39\n      jumpi\n      returndatasize\n      0x00\n      dup1\n      returndatacopy\n      revert(0x00, returndatasize)\n    tag_39:\n      pop\n      pop\n      pop\n      pop\n      mload(0x40)\n      returndatasize\n      not(0x1f)\n      0x1f\n      dup3\n      add\n      and\n      dup3\n      add\n      dup1\n      0x40\n      mstore\n      pop\n      dup2\n      add\n      swap1\n      tag_40\n      swap2\n      swap1\n      tag_35\n      jump\t// in\n    tag_40:\n        /* \"Code-hardhat-ethersJs/contracts/MyTokenMarket.sol\":1282:1365  bool success = mtoken.transferFrom(msg.sender, address(this), amountMyTokenDesired) */\n      swap1\n      pop\n        /* \"Code-hardhat-ethersJs/contracts/MyTokenMarket.sol\":1383:1390  success */\n      dup1\n        /* \"Code-hardhat-ethersJs/contracts/MyTokenMarket.sol\":1375:1417  require(success, \"mtoken transfer error!\") */\n      tag_41\n      jumpi\n      mload(0x40)\n      0x08c379a000000000000000000000000000000000000000000000000000000000\n      dup2\n      mstore\n      0x04\n      add\n      tag_42\n      swap1\n      tag_43\n      jump\t// in\n    tag_42:\n      mload(0x40)\n      dup1\n      swap2\n      sub\n      swap1\n      revert\n    tag_41:\n        /* \"Code-hardhat-ethersJs/contracts/MyTokenMarket.sol\":1447:1459  amountETHMin */\n      dup2\n        /* \"Code-hardhat-ethersJs/contracts/MyTokenMarket.sol\":1435:1444  msg.value */\n      callvalue\n        /* \"Code-hardhat-ethersJs/contracts/MyTokenMarket.sol\":1435:1459  msg.value > amountETHMin */\n      gt\n        /* \"Code-hardhat-ethersJs/contracts/MyTokenMarket.sol\":1427:1506  require(msg.value > amountETHMin, \"msg.value should biggger than amountETHMin\") */\n      tag_44\n      jumpi\n      mload(0x40)\n      0x08c379a000000000000000000000000000000000000000000000000000000000\n      dup2\n      mstore\n      0x04\n      add\n      tag_45\n      swap1\n      tag_46\n      jump\t// in\n    tag_45:\n      mload(0x40)\n      dup1\n      swap2\n      sub\n      swap1\n      revert\n    tag_44:\n        /* \"Code-hardhat-ethersJs/contracts/MyTokenMarket.sol\":1517:1533  uint amountToken */\n      0x00\n        /* \"Code-hardhat-ethersJs/contracts/MyTokenMarket.sol\":1539:1548  uv2router */\n      0x05\n      0x00\n      swap1\n      sload\n      swap1\n      0x0100\n      exp\n      swap1\n      div\n      0xffffffffffffffffffffffffffffffffffffffff\n      and\n        /* \"Code-hardhat-ethersJs/contracts/MyTokenMarket.sol\":1539:1564  uv2router.addLiquidityETH */\n      0xffffffffffffffffffffffffffffffffffffffff\n      and\n      0xf305d719\n        /* \"Code-hardhat-ethersJs/contracts/MyTokenMarket.sol\":1572:1581  msg.value */\n      callvalue\n        /* \"Code-hardhat-ethersJs/contracts/MyTokenMarket.sol\":1584:1598  mytokenaddress */\n      0x02\n      0x00\n      swap1\n      sload\n      swap1\n      0x0100\n      exp\n      swap1\n      div\n      0xffffffffffffffffffffffffffffffffffffffff\n      and\n        /* \"Code-hardhat-ethersJs/contracts/MyTokenMarket.sol\":1600:1620  amountMyTokenDesired */\n      dup9\n        /* \"Code-hardhat-ethersJs/contracts/MyTokenMarket.sol\":1622:1638  amountMyTokenMin */\n      dup9\n        /* \"Code-hardhat-ethersJs/contracts/MyTokenMarket.sol\":1640:1652  amountETHMin */\n      dup9\n        /* \"Code-hardhat-ethersJs/contracts/MyTokenMarket.sol\":1654:1664  msg.sender */\n      caller\n        /* \"Code-hardhat-ethersJs/contracts/MyTokenMarket.sol\":1665:1680  block.timestamp */\n      timestamp\n        /* \"Code-hardhat-ethersJs/contracts/MyTokenMarket.sol\":1539:1681  uv2router.addLiquidityETH{value: msg.value}( mytokenaddress, amountMyTokenDesired, amountMyTokenMin, amountETHMin, msg.sender,block.timestamp) */\n      mload(0x40)\n      dup9\n      0xffffffff\n      and\n      0xe0\n      shl\n      dup2\n      mstore\n      0x04\n      add\n      tag_47\n      swap7\n      swap6\n      swap5\n      swap4\n      swap3\n      swap2\n      swap1\n      tag_48\n      jump\t// in\n    tag_47:\n      0x60\n      mload(0x40)\n      dup1\n      dup4\n      sub\n      dup2\n      dup6\n      dup9\n      gas\n      call\n      iszero\n      dup1\n      iszero\n      tag_50\n      jumpi\n      returndatasize\n      0x00\n      dup1\n      returndatacopy\n      revert(0x00, returndatasize)\n    tag_50:\n      pop\n      pop\n      pop\n      pop\n      pop\n      mload(0x40)\n      returndatasize\n      not(0x1f)\n      0x1f\n      dup3\n      add\n      and\n      dup3\n      add\n      dup1\n      0x40\n      mstore\n      pop\n      dup2\n      add\n      swap1\n      tag_51\n      swap2\n      swap1\n      tag_52\n      jump\t// in\n    tag_51:\n        /* \"Code-hardhat-ethersJs/contracts/MyTokenMarket.sol\":1516:1681  (uint amountToken,,) = uv2router.addLiquidityETH{value: msg.value}( mytokenaddress, amountMyTokenDesired, amountMyTokenMin, amountETHMin, msg.sender,block.timestamp) */\n      pop\n      pop\n      swap1\n      pop\n        /* \"Code-hardhat-ethersJs/contracts/MyTokenMarket.sol\":1729:1739  masterChef */\n      0x07\n      0x00\n      swap1\n      sload\n      swap1\n      0x0100\n      exp\n      swap1\n      div\n      0xffffffffffffffffffffffffffffffffffffffff\n      and\n        /* \"Code-hardhat-ethersJs/contracts/MyTokenMarket.sol\":1729:1747  masterChef.deposit */\n      0xffffffffffffffffffffffffffffffffffffffff\n      and\n      0xe2bbb158\n        /* \"Code-hardhat-ethersJs/contracts/MyTokenMarket.sol\":1748:1749  0 */\n      0x00\n        /* \"Code-hardhat-ethersJs/contracts/MyTokenMarket.sol\":1750:1761  amountToken */\n      dup4\n        /* \"Code-hardhat-ethersJs/contracts/MyTokenMarket.sol\":1729:1762  masterChef.deposit(0,amountToken) */\n      mload(0x40)\n      dup4\n      0xffffffff\n      and\n      0xe0\n      shl\n      dup2\n      mstore\n      0x04\n      add\n      tag_53\n      swap3\n      swap2\n      swap1\n      tag_54\n      jump\t// in\n    tag_53:\n      0x00\n      mload(0x40)\n      dup1\n      dup4\n      sub\n      dup2\n      0x00\n      dup8\n      dup1\n      extcodesize\n      iszero\n      dup1\n      iszero\n      tag_55\n      jumpi\n      0x00\n      dup1\n      revert\n    tag_55:\n      pop\n      gas\n      call\n      iszero\n      dup1\n      iszero\n      tag_57\n      jumpi\n      returndatasize\n      0x00\n      dup1\n      returndatacopy\n      revert(0x00, returndatasize)\n    tag_57:\n      pop\n      pop\n      pop\n      pop\n        /* \"Code-hardhat-ethersJs/contracts/MyTokenMarket.sol\":1168:1769  {... */\n      pop\n      pop\n        /* \"Code-hardhat-ethersJs/contracts/MyTokenMarket.sol\":1030:1769  function addLiquidity(... */\n      pop\n      pop\n      pop\n      jump\t// out\n        /* \"Code-hardhat-ethersJs/contracts/MyTokenMarket.sol\":1776:2100  function buyExactTokenByETH(uint amountOutMin)public payable{... */\n    tag_16:\n        /* \"Code-hardhat-ethersJs/contracts/MyTokenMarket.sol\":1850:1871  address[] memory path */\n      0x00\n        /* \"Code-hardhat-ethersJs/contracts/MyTokenMarket.sol\":1888:1889  2 */\n      0x02\n        /* \"Code-hardhat-ethersJs/contracts/MyTokenMarket.sol\":1874:1890  new address[](2) */\n      0xffffffffffffffff\n      dup2\n      gt\n      iszero\n      tag_59\n      jumpi\n      tag_60\n      tag_61\n      jump\t// in\n    tag_60:\n    tag_59:\n      mload(0x40)\n      swap1\n      dup1\n      dup3\n      mstore\n      dup1\n      0x20\n      mul\n      0x20\n      add\n      dup3\n      add\n      0x40\n      mstore\n      dup1\n      iszero\n      tag_62\n      jumpi\n      dup2\n      0x20\n      add\n      0x20\n      dup3\n      mul\n      dup1\n      calldatasize\n      dup4\n      calldatacopy\n      dup1\n      dup3\n      add\n      swap2\n      pop\n      pop\n      swap1\n      pop\n    tag_62:\n      pop\n        /* \"Code-hardhat-ethersJs/contracts/MyTokenMarket.sol\":1850:1890  address[] memory path = new address[](2) */\n      swap1\n      pop\n        /* \"Code-hardhat-ethersJs/contracts/MyTokenMarket.sol\":1922:1933  wethaddress */\n      0x01\n      0x00\n      swap1\n      sload\n      swap1\n      0x0100\n      exp\n      swap1\n      div\n      0xffffffffffffffffffffffffffffffffffffffff\n      and\n        /* \"Code-hardhat-ethersJs/contracts/MyTokenMarket.sol\":1904:1908  path */\n      dup2\n        /* \"Code-hardhat-ethersJs/contracts/MyTokenMarket.sol\":1909:1910  0 */\n      0x00\n        /* \"Code-hardhat-ethersJs/contracts/MyTokenMarket.sol\":1904:1911  path[0] */\n      dup2\n      mload\n      dup2\n      lt\n      tag_63\n      jumpi\n      tag_64\n      tag_65\n      jump\t// in\n    tag_64:\n    tag_63:\n      0x20\n      mul\n      0x20\n      add\n      add\n        /* \"Code-hardhat-ethersJs/contracts/MyTokenMarket.sol\":1904:1934  path[0] = address(wethaddress) */\n      swap1\n      0xffffffffffffffffffffffffffffffffffffffff\n      and\n      swap1\n      dup2\n      0xffffffffffffffffffffffffffffffffffffffff\n      and\n      dup2\n      mstore\n      pop\n      pop\n        /* \"Code-hardhat-ethersJs/contracts/MyTokenMarket.sol\":1966:1980  mytokenaddress */\n      0x02\n      0x00\n      swap1\n      sload\n      swap1\n      0x0100\n      exp\n      swap1\n      div\n      0xffffffffffffffffffffffffffffffffffffffff\n      and\n        /* \"Code-hardhat-ethersJs/contracts/MyTokenMarket.sol\":1948:1952  path */\n      dup2\n        /* \"Code-hardhat-ethersJs/contracts/MyTokenMarket.sol\":1953:1954  1 */\n      0x01\n        /* \"Code-hardhat-ethersJs/contracts/MyTokenMarket.sol\":1948:1955  path[1] */\n      dup2\n      mload\n      dup2\n      lt\n      tag_66\n      jumpi\n      tag_67\n      tag_65\n      jump\t// in\n    tag_67:\n    tag_66:\n      0x20\n      mul\n      0x20\n      add\n      add\n        /* \"Code-hardhat-ethersJs/contracts/MyTokenMarket.sol\":1948:1981  path[1] = address(mytokenaddress) */\n      swap1\n      0xffffffffffffffffffffffffffffffffffffffff\n      and\n      swap1\n      dup2\n      0xffffffffffffffffffffffffffffffffffffffff\n      and\n      dup2\n      mstore\n      pop\n      pop\n        /* \"Code-hardhat-ethersJs/contracts/MyTokenMarket.sol\":1995:2004  uv2router */\n      0x05\n      0x00\n      swap1\n      sload\n      swap1\n      0x0100\n      exp\n      swap1\n      div\n      0xffffffffffffffffffffffffffffffffffffffff\n      and\n        /* \"Code-hardhat-ethersJs/contracts/MyTokenMarket.sol\":1995:2026  uv2router.swapExactETHForTokens */\n      0xffffffffffffffffffffffffffffffffffffffff\n      and\n      0x7ff36ab5\n        /* \"Code-hardhat-ethersJs/contracts/MyTokenMarket.sol\":2034:2043  msg.value */\n      callvalue\n        /* \"Code-hardhat-ethersJs/contracts/MyTokenMarket.sol\":2045:2057  amountOutMin */\n      dup5\n        /* \"Code-hardhat-ethersJs/contracts/MyTokenMarket.sol\":2059:2063  path */\n      dup5\n        /* \"Code-hardhat-ethersJs/contracts/MyTokenMarket.sol\":2065:2075  msg.sender */\n      caller\n        /* \"Code-hardhat-ethersJs/contracts/MyTokenMarket.sol\":2077:2092  block.timestamp */\n      timestamp\n        /* \"Code-hardhat-ethersJs/contracts/MyTokenMarket.sol\":1995:2093  uv2router.swapExactETHForTokens{value: msg.value}(amountOutMin, path, msg.sender, block.timestamp) */\n      mload(0x40)\n      dup7\n      0xffffffff\n      and\n      0xe0\n      shl\n      dup2\n      mstore\n      0x04\n      add\n      tag_68\n      swap5\n      swap4\n      swap3\n      swap2\n      swap1\n      tag_69\n      jump\t// in\n    tag_68:\n      0x00\n      mload(0x40)\n      dup1\n      dup4\n      sub\n      dup2\n      dup6\n      dup9\n      gas\n      call\n      iszero\n      dup1\n      iszero\n      tag_71\n      jumpi\n      returndatasize\n      0x00\n      dup1\n      returndatacopy\n      revert(0x00, returndatasize)\n    tag_71:\n      pop\n      pop\n      pop\n      pop\n      pop\n      mload(0x40)\n      returndatasize\n      0x00\n      dup3\n      returndatacopy\n      returndatasize\n      not(0x1f)\n      0x1f\n      dup3\n      add\n      and\n      dup3\n      add\n      dup1\n      0x40\n      mstore\n      pop\n      dup2\n      add\n      swap1\n      tag_72\n      swap2\n      swap1\n      tag_73\n      jump\t// in\n    tag_72:\n      pop\n        /* \"Code-hardhat-ethersJs/contracts/MyTokenMarket.sol\":1836:2100  {... */\n      pop\n        /* \"Code-hardhat-ethersJs/contracts/MyTokenMarket.sol\":1776:2100  function buyExactTokenByETH(uint amountOutMin)public payable{... */\n      pop\n      jump\t// out\n        /* \"#utility.yul\":7:82   */\n    tag_74:\n        /* \"#utility.yul\":40:46   */\n      0x00\n        /* \"#utility.yul\":73:75   */\n      0x40\n        /* \"#utility.yul\":67:76   */\n      mload\n        /* \"#utility.yul\":57:76   */\n      swap1\n      pop\n        /* \"#utility.yul\":7:82   */\n      swap1\n      jump\t// out\n        /* \"#utility.yul\":88:205   */\n    tag_75:\n        /* \"#utility.yul\":197:198   */\n      0x00\n        /* \"#utility.yul\":194:195   */\n      dup1\n        /* \"#utility.yul\":187:199   */\n      revert\n        /* \"#utility.yul\":211:328   */\n    tag_76:\n        /* \"#utility.yul\":320:321   */\n      0x00\n        /* \"#utility.yul\":317:318   */\n      dup1\n        /* \"#utility.yul\":310:322   */\n      revert\n        /* \"#utility.yul\":334:411   */\n    tag_77:\n        /* \"#utility.yul\":371:378   */\n      0x00\n        /* \"#utility.yul\":400:405   */\n      dup2\n        /* \"#utility.yul\":389:405   */\n      swap1\n      pop\n        /* \"#utility.yul\":334:411   */\n      swap2\n      swap1\n      pop\n      jump\t// out\n        /* \"#utility.yul\":417:539   */\n    tag_78:\n        /* \"#utility.yul\":490:514   */\n      tag_121\n        /* \"#utility.yul\":508:513   */\n      dup2\n        /* \"#utility.yul\":490:514   */\n      tag_77\n      jump\t// in\n    tag_121:\n        /* \"#utility.yul\":483:488   */\n      dup2\n        /* \"#utility.yul\":480:515   */\n      eq\n        /* \"#utility.yul\":470:533   */\n      tag_122\n      jumpi\n        /* \"#utility.yul\":529:530   */\n      0x00\n        /* \"#utility.yul\":526:527   */\n      dup1\n        /* \"#utility.yul\":519:531   */\n      revert\n        /* \"#utility.yul\":470:533   */\n    tag_122:\n        /* \"#utility.yul\":417:539   */\n      pop\n      jump\t// out\n        /* \"#utility.yul\":545:684   */\n    tag_79:\n        /* \"#utility.yul\":591:596   */\n      0x00\n        /* \"#utility.yul\":629:635   */\n      dup2\n        /* \"#utility.yul\":616:636   */\n      calldataload\n        /* \"#utility.yul\":607:636   */\n      swap1\n      pop\n        /* \"#utility.yul\":645:678   */\n      tag_124\n        /* \"#utility.yul\":672:677   */\n      dup2\n        /* \"#utility.yul\":645:678   */\n      tag_78\n      jump\t// in\n    tag_124:\n        /* \"#utility.yul\":545:684   */\n      swap3\n      swap2\n      pop\n      pop\n      jump\t// out\n        /* \"#utility.yul\":690:1019   */\n    tag_8:\n        /* \"#utility.yul\":749:755   */\n      0x00\n        /* \"#utility.yul\":798:800   */\n      0x20\n        /* \"#utility.yul\":786:795   */\n      dup3\n        /* \"#utility.yul\":777:784   */\n      dup5\n        /* \"#utility.yul\":773:796   */\n      sub\n        /* \"#utility.yul\":769:801   */\n      slt\n        /* \"#utility.yul\":766:885   */\n      iszero\n      tag_126\n      jumpi\n        /* \"#utility.yul\":804:883   */\n      tag_127\n      tag_75\n      jump\t// in\n    tag_127:\n        /* \"#utility.yul\":766:885   */\n    tag_126:\n        /* \"#utility.yul\":924:925   */\n      0x00\n        /* \"#utility.yul\":949:1002   */\n      tag_128\n        /* \"#utility.yul\":994:1001   */\n      dup5\n        /* \"#utility.yul\":985:991   */\n      dup3\n        /* \"#utility.yul\":974:983   */\n      dup6\n        /* \"#utility.yul\":970:992   */\n      add\n        /* \"#utility.yul\":949:1002   */\n      tag_79\n      jump\t// in\n    tag_128:\n        /* \"#utility.yul\":939:1002   */\n      swap2\n      pop\n        /* \"#utility.yul\":895:1012   */\n      pop\n        /* \"#utility.yul\":690:1019   */\n      swap3\n      swap2\n      pop\n      pop\n      jump\t// out\n        /* \"#utility.yul\":1025:1644   */\n    tag_12:\n        /* \"#utility.yul\":1102:1108   */\n      0x00\n        /* \"#utility.yul\":1110:1116   */\n      dup1\n        /* \"#utility.yul\":1118:1124   */\n      0x00\n        /* \"#utility.yul\":1167:1169   */\n      0x60\n        /* \"#utility.yul\":1155:1164   */\n      dup5\n        /* \"#utility.yul\":1146:1153   */\n      dup7\n        /* \"#utility.yul\":1142:1165   */\n      sub\n        /* \"#utility.yul\":1138:1170   */\n      slt\n        /* \"#utility.yul\":1135:1254   */\n      iszero\n      tag_130\n      jumpi\n        /* \"#utility.yul\":1173:1252   */\n      tag_131\n      tag_75\n      jump\t// in\n    tag_131:\n        /* \"#utility.yul\":1135:1254   */\n    tag_130:\n        /* \"#utility.yul\":1293:1294   */\n      0x00\n        /* \"#utility.yul\":1318:1371   */\n      tag_132\n        /* \"#utility.yul\":1363:1370   */\n      dup7\n        /* \"#utility.yul\":1354:1360   */\n      dup3\n        /* \"#utility.yul\":1343:1352   */\n      dup8\n        /* \"#utility.yul\":1339:1361   */\n      add\n        /* \"#utility.yul\":1318:1371   */\n      tag_79\n      jump\t// in\n    tag_132:\n        /* \"#utility.yul\":1308:1371   */\n      swap4\n      pop\n        /* \"#utility.yul\":1264:1381   */\n      pop\n        /* \"#utility.yul\":1420:1422   */\n      0x20\n        /* \"#utility.yul\":1446:1499   */\n      tag_133\n        /* \"#utility.yul\":1491:1498   */\n      dup7\n        /* \"#utility.yul\":1482:1488   */\n      dup3\n        /* \"#utility.yul\":1471:1480   */\n      dup8\n        /* \"#utility.yul\":1467:1489   */\n      add\n        /* \"#utility.yul\":1446:1499   */\n      tag_79\n      jump\t// in\n    tag_133:\n        /* \"#utility.yul\":1436:1499   */\n      swap3\n      pop\n        /* \"#utility.yul\":1391:1509   */\n      pop\n        /* \"#utility.yul\":1548:1550   */\n      0x40\n        /* \"#utility.yul\":1574:1627   */\n      tag_134\n        /* \"#utility.yul\":1619:1626   */\n      dup7\n        /* \"#utility.yul\":1610:1616   */\n      dup3\n        /* \"#utility.yul\":1599:1608   */\n      dup8\n        /* \"#utility.yul\":1595:1617   */\n      add\n        /* \"#utility.yul\":1574:1627   */\n      tag_79\n      jump\t// in\n    tag_134:\n        /* \"#utility.yul\":1564:1627   */\n      swap2\n      pop\n        /* \"#utility.yul\":1519:1637   */\n      pop\n        /* \"#utility.yul\":1025:1644   */\n      swap3\n      pop\n      swap3\n      pop\n      swap3\n      jump\t// out\n        /* \"#utility.yul\":1650:1776   */\n    tag_80:\n        /* \"#utility.yul\":1687:1694   */\n      0x00\n        /* \"#utility.yul\":1727:1769   */\n      0xffffffffffffffffffffffffffffffffffffffff\n        /* \"#utility.yul\":1720:1725   */\n      dup3\n        /* \"#utility.yul\":1716:1770   */\n      and\n        /* \"#utility.yul\":1705:1770   */\n      swap1\n      pop\n        /* \"#utility.yul\":1650:1776   */\n      swap2\n      swap1\n      pop\n      jump\t// out\n        /* \"#utility.yul\":1782:1878   */\n    tag_81:\n        /* \"#utility.yul\":1819:1826   */\n      0x00\n        /* \"#utility.yul\":1848:1872   */\n      tag_137\n        /* \"#utility.yul\":1866:1871   */\n      dup3\n        /* \"#utility.yul\":1848:1872   */\n      tag_80\n      jump\t// in\n    tag_137:\n        /* \"#utility.yul\":1837:1872   */\n      swap1\n      pop\n        /* \"#utility.yul\":1782:1878   */\n      swap2\n      swap1\n      pop\n      jump\t// out\n        /* \"#utility.yul\":1884:2002   */\n    tag_82:\n        /* \"#utility.yul\":1971:1995   */\n      tag_139\n        /* \"#utility.yul\":1989:1994   */\n      dup2\n        /* \"#utility.yul\":1971:1995   */\n      tag_81\n      jump\t// in\n    tag_139:\n        /* \"#utility.yul\":1966:1969   */\n      dup3\n        /* \"#utility.yul\":1959:1996   */\n      mstore\n        /* \"#utility.yul\":1884:2002   */\n      pop\n      pop\n      jump\t// out\n        /* \"#utility.yul\":2008:2230   */\n    tag_19:\n        /* \"#utility.yul\":2101:2105   */\n      0x00\n        /* \"#utility.yul\":2139:2141   */\n      0x20\n        /* \"#utility.yul\":2128:2137   */\n      dup3\n        /* \"#utility.yul\":2124:2142   */\n      add\n        /* \"#utility.yul\":2116:2142   */\n      swap1\n      pop\n        /* \"#utility.yul\":2152:2223   */\n      tag_141\n        /* \"#utility.yul\":2220:2221   */\n      0x00\n        /* \"#utility.yul\":2209:2218   */\n      dup4\n        /* \"#utility.yul\":2205:2222   */\n      add\n        /* \"#utility.yul\":2196:2202   */\n      dup5\n        /* \"#utility.yul\":2152:2223   */\n      tag_82\n      jump\t// in\n    tag_141:\n        /* \"#utility.yul\":2008:2230   */\n      swap3\n      swap2\n      pop\n      pop\n      jump\t// out\n        /* \"#utility.yul\":2236:2353   */\n    tag_83:\n        /* \"#utility.yul\":2345:2346   */\n      0x00\n        /* \"#utility.yul\":2342:2343   */\n      dup1\n        /* \"#utility.yul\":2335:2347   */\n      revert\n        /* \"#utility.yul\":2359:2461   */\n    tag_84:\n        /* \"#utility.yul\":2400:2406   */\n      0x00\n        /* \"#utility.yul\":2451:2453   */\n      0x1f\n        /* \"#utility.yul\":2447:2454   */\n      not\n        /* \"#utility.yul\":2442:2444   */\n      0x1f\n        /* \"#utility.yul\":2435:2440   */\n      dup4\n        /* \"#utility.yul\":2431:2445   */\n      add\n        /* \"#utility.yul\":2427:2455   */\n      and\n        /* \"#utility.yul\":2417:2455   */\n      swap1\n      pop\n        /* \"#utility.yul\":2359:2461   */\n      swap2\n      swap1\n      pop\n      jump\t// out\n        /* \"#utility.yul\":2467:2647   */\n    tag_61:\n        /* \"#utility.yul\":2515:2592   */\n      0x4e487b7100000000000000000000000000000000000000000000000000000000\n        /* \"#utility.yul\":2512:2513   */\n      0x00\n        /* \"#utility.yul\":2505:2593   */\n      mstore\n        /* \"#utility.yul\":2612:2616   */\n      0x41\n        /* \"#utility.yul\":2609:2610   */\n      0x04\n        /* \"#utility.yul\":2602:2617   */\n      mstore\n        /* \"#utility.yul\":2636:2640   */\n      0x24\n        /* \"#utility.yul\":2633:2634   */\n      0x00\n        /* \"#utility.yul\":2626:2641   */\n      revert\n        /* \"#utility.yul\":2653:2934   */\n    tag_85:\n        /* \"#utility.yul\":2736:2763   */\n      tag_146\n        /* \"#utility.yul\":2758:2762   */\n      dup3\n        /* \"#utility.yul\":2736:2763   */\n      tag_84\n      jump\t// in\n    tag_146:\n        /* \"#utility.yul\":2728:2734   */\n      dup2\n        /* \"#utility.yul\":2724:2764   */\n      add\n        /* \"#utility.yul\":2866:2872   */\n      dup2\n        /* \"#utility.yul\":2854:2864   */\n      dup2\n        /* \"#utility.yul\":2851:2873   */\n      lt\n        /* \"#utility.yul\":2830:2848   */\n      0xffffffffffffffff\n        /* \"#utility.yul\":2818:2828   */\n      dup3\n        /* \"#utility.yul\":2815:2849   */\n      gt\n        /* \"#utility.yul\":2812:2874   */\n      or\n        /* \"#utility.yul\":2809:2897   */\n      iszero\n      tag_147\n      jumpi\n        /* \"#utility.yul\":2877:2895   */\n      tag_148\n      tag_61\n      jump\t// in\n    tag_148:\n        /* \"#utility.yul\":2809:2897   */\n    tag_147:\n        /* \"#utility.yul\":2917:2927   */\n      dup1\n        /* \"#utility.yul\":2913:2915   */\n      0x40\n        /* \"#utility.yul\":2906:2928   */\n      mstore\n        /* \"#utility.yul\":2696:2934   */\n      pop\n        /* \"#utility.yul\":2653:2934   */\n      pop\n      pop\n      jump\t// out\n        /* \"#utility.yul\":2940:3069   */\n    tag_86:\n        /* \"#utility.yul\":2974:2980   */\n      0x00\n        /* \"#utility.yul\":3001:3021   */\n      tag_150\n      tag_74\n      jump\t// in\n    tag_150:\n        /* \"#utility.yul\":2991:3021   */\n      swap1\n      pop\n        /* \"#utility.yul\":3030:3063   */\n      tag_151\n        /* \"#utility.yul\":3058:3062   */\n      dup3\n        /* \"#utility.yul\":3050:3056   */\n      dup3\n        /* \"#utility.yul\":3030:3063   */\n      tag_85\n      jump\t// in\n    tag_151:\n        /* \"#utility.yul\":2940:3069   */\n      swap2\n      swap1\n      pop\n      jump\t// out\n        /* \"#utility.yul\":3198:3341   */\n    tag_88:\n        /* \"#utility.yul\":3255:3260   */\n      0x00\n        /* \"#utility.yul\":3286:3292   */\n      dup2\n        /* \"#utility.yul\":3280:3293   */\n      mload\n        /* \"#utility.yul\":3271:3293   */\n      swap1\n      pop\n        /* \"#utility.yul\":3302:3335   */\n      tag_154\n        /* \"#utility.yul\":3329:3334   */\n      dup2\n        /* \"#utility.yul\":3302:3335   */\n      tag_78\n      jump\t// in\n    tag_154:\n        /* \"#utility.yul\":3198:3341   */\n      swap3\n      swap2\n      pop\n      pop\n      jump\t// out\n        /* \"#utility.yul\":3382:3997   */\n    tag_89:\n        /* \"#utility.yul\":3467:3472   */\n      0x00\n        /* \"#utility.yul\":3511:3515   */\n      0x40\n        /* \"#utility.yul\":3499:3508   */\n      dup3\n        /* \"#utility.yul\":3494:3497   */\n      dup5\n        /* \"#utility.yul\":3490:3509   */\n      sub\n        /* \"#utility.yul\":3486:3516   */\n      slt\n        /* \"#utility.yul\":3483:3600   */\n      iszero\n      tag_156\n      jumpi\n        /* \"#utility.yul\":3519:3598   */\n      tag_157\n      tag_83\n      jump\t// in\n    tag_157:\n        /* \"#utility.yul\":3483:3600   */\n    tag_156:\n        /* \"#utility.yul\":3618:3639   */\n      tag_158\n        /* \"#utility.yul\":3634:3638   */\n      0x40\n        /* \"#utility.yul\":3618:3639   */\n      tag_86\n      jump\t// in\n    tag_158:\n        /* \"#utility.yul\":3609:3639   */\n      swap1\n      pop\n        /* \"#utility.yul\":3700:3701   */\n      0x00\n        /* \"#utility.yul\":3740:3800   */\n      tag_159\n        /* \"#utility.yul\":3796:3799   */\n      dup5\n        /* \"#utility.yul\":3787:3793   */\n      dup3\n        /* \"#utility.yul\":3776:3785   */\n      dup6\n        /* \"#utility.yul\":3772:3794   */\n      add\n        /* \"#utility.yul\":3740:3800   */\n      tag_88\n      jump\t// in\n    tag_159:\n        /* \"#utility.yul\":3733:3737   */\n      0x00\n        /* \"#utility.yul\":3726:3731   */\n      dup4\n        /* \"#utility.yul\":3722:3738   */\n      add\n        /* \"#utility.yul\":3715:3801   */\n      mstore\n        /* \"#utility.yul\":3649:3812   */\n      pop\n        /* \"#utility.yul\":3877:3879   */\n      0x20\n        /* \"#utility.yul\":3918:3978   */\n      tag_160\n        /* \"#utility.yul\":3974:3977   */\n      dup5\n        /* \"#utility.yul\":3965:3971   */\n      dup3\n        /* \"#utility.yul\":3954:3963   */\n      dup6\n        /* \"#utility.yul\":3950:3972   */\n      add\n        /* \"#utility.yul\":3918:3978   */\n      tag_88\n      jump\t// in\n    tag_160:\n        /* \"#utility.yul\":3911:3915   */\n      0x20\n        /* \"#utility.yul\":3904:3909   */\n      dup4\n        /* \"#utility.yul\":3900:3916   */\n      add\n        /* \"#utility.yul\":3893:3979   */\n      mstore\n        /* \"#utility.yul\":3822:3990   */\n      pop\n        /* \"#utility.yul\":3382:3997   */\n      swap3\n      swap2\n      pop\n      pop\n      jump\t// out\n        /* \"#utility.yul\":4003:4404   */\n    tag_23:\n        /* \"#utility.yul\":4098:4104   */\n      0x00\n        /* \"#utility.yul\":4147:4149   */\n      0x40\n        /* \"#utility.yul\":4135:4144   */\n      dup3\n        /* \"#utility.yul\":4126:4133   */\n      dup5\n        /* \"#utility.yul\":4122:4145   */\n      sub\n        /* \"#utility.yul\":4118:4150   */\n      slt\n        /* \"#utility.yul\":4115:4234   */\n      iszero\n      tag_162\n      jumpi\n        /* \"#utility.yul\":4153:4232   */\n      tag_163\n      tag_75\n      jump\t// in\n    tag_163:\n        /* \"#utility.yul\":4115:4234   */\n    tag_162:\n        /* \"#utility.yul\":4273:4274   */\n      0x00\n        /* \"#utility.yul\":4298:4387   */\n      tag_164\n        /* \"#utility.yul\":4379:4386   */\n      dup5\n        /* \"#utility.yul\":4370:4376   */\n      dup3\n        /* \"#utility.yul\":4359:4368   */\n      dup6\n        /* \"#utility.yul\":4355:4377   */\n      add\n        /* \"#utility.yul\":4298:4387   */\n      tag_89\n      jump\t// in\n    tag_164:\n        /* \"#utility.yul\":4288:4387   */\n      swap2\n      pop\n        /* \"#utility.yul\":4244:4397   */\n      pop\n        /* \"#utility.yul\":4003:4404   */\n      swap3\n      swap2\n      pop\n      pop\n      jump\t// out\n        /* \"#utility.yul\":4410:4528   */\n    tag_90:\n        /* \"#utility.yul\":4497:4521   */\n      tag_166\n        /* \"#utility.yul\":4515:4520   */\n      dup2\n        /* \"#utility.yul\":4497:4521   */\n      tag_77\n      jump\t// in\n    tag_166:\n        /* \"#utility.yul\":4492:4495   */\n      dup3\n        /* \"#utility.yul\":4485:4522   */\n      mstore\n        /* \"#utility.yul\":4410:4528   */\n      pop\n      pop\n      jump\t// out\n        /* \"#utility.yul\":4534:4866   */\n    tag_25:\n        /* \"#utility.yul\":4655:4659   */\n      0x00\n        /* \"#utility.yul\":4693:4695   */\n      0x40\n        /* \"#utility.yul\":4682:4691   */\n      dup3\n        /* \"#utility.yul\":4678:4696   */\n      add\n        /* \"#utility.yul\":4670:4696   */\n      swap1\n      pop\n        /* \"#utility.yul\":4706:4777   */\n      tag_168\n        /* \"#utility.yul\":4774:4775   */\n      0x00\n        /* \"#utility.yul\":4763:4772   */\n      dup4\n        /* \"#utility.yul\":4759:4776   */\n      add\n        /* \"#utility.yul\":4750:4756   */\n      dup6\n        /* \"#utility.yul\":4706:4777   */\n      tag_90\n      jump\t// in\n    tag_168:\n        /* \"#utility.yul\":4787:4859   */\n      tag_169\n        /* \"#utility.yul\":4855:4857   */\n      0x20\n        /* \"#utility.yul\":4844:4853   */\n      dup4\n        /* \"#utility.yul\":4840:4858   */\n      add\n        /* \"#utility.yul\":4831:4837   */\n      dup5\n        /* \"#utility.yul\":4787:4859   */\n      tag_90\n      jump\t// in\n    tag_169:\n        /* \"#utility.yul\":4534:4866   */\n      swap4\n      swap3\n      pop\n      pop\n      pop\n      jump\t// out\n        /* \"#utility.yul\":4872:5204   */\n    tag_31:\n        /* \"#utility.yul\":4993:4997   */\n      0x00\n        /* \"#utility.yul\":5031:5033   */\n      0x40\n        /* \"#utility.yul\":5020:5029   */\n      dup3\n        /* \"#utility.yul\":5016:5034   */\n      add\n        /* \"#utility.yul\":5008:5034   */\n      swap1\n      pop\n        /* \"#utility.yul\":5044:5115   */\n      tag_171\n        /* \"#utility.yul\":5112:5113   */\n      0x00\n        /* \"#utility.yul\":5101:5110   */\n      dup4\n        /* \"#utility.yul\":5097:5114   */\n      add\n        /* \"#utility.yul\":5088:5094   */\n      dup6\n        /* \"#utility.yul\":5044:5115   */\n      tag_82\n      jump\t// in\n    tag_171:\n        /* \"#utility.yul\":5125:5197   */\n      tag_172\n        /* \"#utility.yul\":5193:5195   */\n      0x20\n        /* \"#utility.yul\":5182:5191   */\n      dup4\n        /* \"#utility.yul\":5178:5196   */\n      add\n        /* \"#utility.yul\":5169:5175   */\n      dup5\n        /* \"#utility.yul\":5125:5197   */\n      tag_90\n      jump\t// in\n    tag_172:\n        /* \"#utility.yul\":4872:5204   */\n      swap4\n      swap3\n      pop\n      pop\n      pop\n      jump\t// out\n        /* \"#utility.yul\":5210:5300   */\n    tag_91:\n        /* \"#utility.yul\":5244:5251   */\n      0x00\n        /* \"#utility.yul\":5287:5292   */\n      dup2\n        /* \"#utility.yul\":5280:5293   */\n      iszero\n        /* \"#utility.yul\":5273:5294   */\n      iszero\n        /* \"#utility.yul\":5262:5294   */\n      swap1\n      pop\n        /* \"#utility.yul\":5210:5300   */\n      swap2\n      swap1\n      pop\n      jump\t// out\n        /* \"#utility.yul\":5306:5422   */\n    tag_92:\n        /* \"#utility.yul\":5376:5397   */\n      tag_175\n        /* \"#utility.yul\":5391:5396   */\n      dup2\n        /* \"#utility.yul\":5376:5397   */\n      tag_91\n      jump\t// in\n    tag_175:\n        /* \"#utility.yul\":5369:5374   */\n      dup2\n        /* \"#utility.yul\":5366:5398   */\n      eq\n        /* \"#utility.yul\":5356:5416   */\n      tag_176\n      jumpi\n        /* \"#utility.yul\":5412:5413   */\n      0x00\n        /* \"#utility.yul\":5409:5410   */\n      dup1\n        /* \"#utility.yul\":5402:5414   */\n      revert\n        /* \"#utility.yul\":5356:5416   */\n    tag_176:\n        /* \"#utility.yul\":5306:5422   */\n      pop\n      jump\t// out\n        /* \"#utility.yul\":5428:5565   */\n    tag_93:\n        /* \"#utility.yul\":5482:5487   */\n      0x00\n        /* \"#utility.yul\":5513:5519   */\n      dup2\n        /* \"#utility.yul\":5507:5520   */\n      mload\n        /* \"#utility.yul\":5498:5520   */\n      swap1\n      pop\n        /* \"#utility.yul\":5529:5559   */\n      tag_178\n        /* \"#utility.yul\":5553:5558   */\n      dup2\n        /* \"#utility.yul\":5529:5559   */\n      tag_92\n      jump\t// in\n    tag_178:\n        /* \"#utility.yul\":5428:5565   */\n      swap3\n      swap2\n      pop\n      pop\n      jump\t// out\n        /* \"#utility.yul\":5571:5916   */\n    tag_35:\n        /* \"#utility.yul\":5638:5644   */\n      0x00\n        /* \"#utility.yul\":5687:5689   */\n      0x20\n        /* \"#utility.yul\":5675:5684   */\n      dup3\n        /* \"#utility.yul\":5666:5673   */\n      dup5\n        /* \"#utility.yul\":5662:5685   */\n      sub\n        /* \"#utility.yul\":5658:5690   */\n      slt\n        /* \"#utility.yul\":5655:5774   */\n      iszero\n      tag_180\n      jumpi\n        /* \"#utility.yul\":5693:5772   */\n      tag_181\n      tag_75\n      jump\t// in\n    tag_181:\n        /* \"#utility.yul\":5655:5774   */\n    tag_180:\n        /* \"#utility.yul\":5813:5814   */\n      0x00\n        /* \"#utility.yul\":5838:5899   */\n      tag_182\n        /* \"#utility.yul\":5891:5898   */\n      dup5\n        /* \"#utility.yul\":5882:5888   */\n      dup3\n        /* \"#utility.yul\":5871:5880   */\n      dup6\n        /* \"#utility.yul\":5867:5889   */\n      add\n        /* \"#utility.yul\":5838:5899   */\n      tag_93\n      jump\t// in\n    tag_182:\n        /* \"#utility.yul\":5828:5899   */\n      swap2\n      pop\n        /* \"#utility.yul\":5784:5909   */\n      pop\n        /* \"#utility.yul\":5571:5916   */\n      swap3\n      swap2\n      pop\n      pop\n      jump\t// out\n        /* \"#utility.yul\":5922:6364   */\n    tag_37:\n        /* \"#utility.yul\":6071:6075   */\n      0x00\n        /* \"#utility.yul\":6109:6111   */\n      0x60\n        /* \"#utility.yul\":6098:6107   */\n      dup3\n        /* \"#utility.yul\":6094:6112   */\n      add\n        /* \"#utility.yul\":6086:6112   */\n      swap1\n      pop\n        /* \"#utility.yul\":6122:6193   */\n      tag_184\n        /* \"#utility.yul\":6190:6191   */\n      0x00\n        /* \"#utility.yul\":6179:6188   */\n      dup4\n        /* \"#utility.yul\":6175:6192   */\n      add\n        /* \"#utility.yul\":6166:6172   */\n      dup7\n        /* \"#utility.yul\":6122:6193   */\n      tag_82\n      jump\t// in\n    tag_184:\n        /* \"#utility.yul\":6203:6275   */\n      tag_185\n        /* \"#utility.yul\":6271:6273   */\n      0x20\n        /* \"#utility.yul\":6260:6269   */\n      dup4\n        /* \"#utility.yul\":6256:6274   */\n      add\n        /* \"#utility.yul\":6247:6253   */\n      dup6\n        /* \"#utility.yul\":6203:6275   */\n      tag_82\n      jump\t// in\n    tag_185:\n        /* \"#utility.yul\":6285:6357   */\n      tag_186\n        /* \"#utility.yul\":6353:6355   */\n      0x40\n        /* \"#utility.yul\":6342:6351   */\n      dup4\n        /* \"#utility.yul\":6338:6356   */\n      add\n        /* \"#utility.yul\":6329:6335   */\n      dup5\n        /* \"#utility.yul\":6285:6357   */\n      tag_90\n      jump\t// in\n    tag_186:\n        /* \"#utility.yul\":5922:6364   */\n      swap5\n      swap4\n      pop\n      pop\n      pop\n      pop\n      jump\t// out\n        /* \"#utility.yul\":6370:6539   */\n    tag_94:\n        /* \"#utility.yul\":6454:6465   */\n      0x00\n        /* \"#utility.yul\":6488:6494   */\n      dup3\n        /* \"#utility.yul\":6483:6486   */\n      dup3\n        /* \"#utility.yul\":6476:6495   */\n      mstore\n        /* \"#utility.yul\":6528:6532   */\n      0x20\n        /* \"#utility.yul\":6523:6526   */\n      dup3\n        /* \"#utility.yul\":6519:6533   */\n      add\n        /* \"#utility.yul\":6504:6533   */\n      swap1\n      pop\n        /* \"#utility.yul\":6370:6539   */\n      swap3\n      swap2\n      pop\n      pop\n      jump\t// out\n        /* \"#utility.yul\":6545:6717   */\n    tag_95:\n        /* \"#utility.yul\":6685:6709   */\n      0x6d746f6b656e207472616e73666572206572726f722100000000000000000000\n        /* \"#utility.yul\":6681:6682   */\n      0x00\n        /* \"#utility.yul\":6673:6679   */\n      dup3\n        /* \"#utility.yul\":6669:6683   */\n      add\n        /* \"#utility.yul\":6662:6710   */\n      mstore\n        /* \"#utility.yul\":6545:6717   */\n      pop\n      jump\t// out\n        /* \"#utility.yul\":6723:7089   */\n    tag_96:\n        /* \"#utility.yul\":6865:6868   */\n      0x00\n        /* \"#utility.yul\":6886:6953   */\n      tag_190\n        /* \"#utility.yul\":6950:6952   */\n      0x16\n        /* \"#utility.yul\":6945:6948   */\n      dup4\n        /* \"#utility.yul\":6886:6953   */\n      tag_94\n      jump\t// in\n    tag_190:\n        /* \"#utility.yul\":6879:6953   */\n      swap2\n      pop\n        /* \"#utility.yul\":6962:7055   */\n      tag_191\n        /* \"#utility.yul\":7051:7054   */\n      dup3\n        /* \"#utility.yul\":6962:7055   */\n      tag_95\n      jump\t// in\n    tag_191:\n        /* \"#utility.yul\":7080:7082   */\n      0x20\n        /* \"#utility.yul\":7075:7078   */\n      dup3\n        /* \"#utility.yul\":7071:7083   */\n      add\n        /* \"#utility.yul\":7064:7083   */\n      swap1\n      pop\n        /* \"#utility.yul\":6723:7089   */\n      swap2\n      swap1\n      pop\n      jump\t// out\n        /* \"#utility.yul\":7095:7514   */\n    tag_43:\n        /* \"#utility.yul\":7261:7265   */\n      0x00\n        /* \"#utility.yul\":7299:7301   */\n      0x20\n        /* \"#utility.yul\":7288:7297   */\n      dup3\n        /* \"#utility.yul\":7284:7302   */\n      add\n        /* \"#utility.yul\":7276:7302   */\n      swap1\n      pop\n        /* \"#utility.yul\":7348:7357   */\n      dup2\n        /* \"#utility.yul\":7342:7346   */\n      dup2\n        /* \"#utility.yul\":7338:7358   */\n      sub\n        /* \"#utility.yul\":7334:7335   */\n      0x00\n        /* \"#utility.yul\":7323:7332   */\n      dup4\n        /* \"#utility.yul\":7319:7336   */\n      add\n        /* \"#utility.yul\":7312:7359   */\n      mstore\n        /* \"#utility.yul\":7376:7507   */\n      tag_193\n        /* \"#utility.yul\":7502:7506   */\n      dup2\n        /* \"#utility.yul\":7376:7507   */\n      tag_96\n      jump\t// in\n    tag_193:\n        /* \"#utility.yul\":7368:7507   */\n      swap1\n      pop\n        /* \"#utility.yul\":7095:7514   */\n      swap2\n      swap1\n      pop\n      jump\t// out\n        /* \"#utility.yul\":7520:7749   */\n    tag_97:\n        /* \"#utility.yul\":7660:7694   */\n      0x6d73672e76616c75652073686f756c642062696767676572207468616e20616d\n        /* \"#utility.yul\":7656:7657   */\n      0x00\n        /* \"#utility.yul\":7648:7654   */\n      dup3\n        /* \"#utility.yul\":7644:7658   */\n      add\n        /* \"#utility.yul\":7637:7695   */\n      mstore\n        /* \"#utility.yul\":7729:7741   */\n      0x6f756e744554484d696e00000000000000000000000000000000000000000000\n        /* \"#utility.yul\":7724:7726   */\n      0x20\n        /* \"#utility.yul\":7716:7722   */\n      dup3\n        /* \"#utility.yul\":7712:7727   */\n      add\n        /* \"#utility.yul\":7705:7742   */\n      mstore\n        /* \"#utility.yul\":7520:7749   */\n      pop\n      jump\t// out\n        /* \"#utility.yul\":7755:8121   */\n    tag_98:\n        /* \"#utility.yul\":7897:7900   */\n      0x00\n        /* \"#utility.yul\":7918:7985   */\n      tag_196\n        /* \"#utility.yul\":7982:7984   */\n      0x2a\n        /* \"#utility.yul\":7977:7980   */\n      dup4\n        /* \"#utility.yul\":7918:7985   */\n      tag_94\n      jump\t// in\n    tag_196:\n        /* \"#utility.yul\":7911:7985   */\n      swap2\n      pop\n        /* \"#utility.yul\":7994:8087   */\n      tag_197\n        /* \"#utility.yul\":8083:8086   */\n      dup3\n        /* \"#utility.yul\":7994:8087   */\n      tag_97\n      jump\t// in\n    tag_197:\n        /* \"#utility.yul\":8112:8114   */\n      0x40\n        /* \"#utility.yul\":8107:8110   */\n      dup3\n        /* \"#utility.yul\":8103:8115   */\n      add\n        /* \"#utility.yul\":8096:8115   */\n      swap1\n      pop\n        /* \"#utility.yul\":7755:8121   */\n      swap2\n      swap1\n      pop\n      jump\t// out\n        /* \"#utility.yul\":8127:8546   */\n    tag_46:\n        /* \"#utility.yul\":8293:8297   */\n      0x00\n        /* \"#utility.yul\":8331:8333   */\n      0x20\n        /* \"#utility.yul\":8320:8329   */\n      dup3\n        /* \"#utility.yul\":8316:8334   */\n      add\n        /* \"#utility.yul\":8308:8334   */\n      swap1\n      pop\n        /* \"#utility.yul\":8380:8389   */\n      dup2\n        /* \"#utility.yul\":8374:8378   */\n      dup2\n        /* \"#utility.yul\":8370:8390   */\n      sub\n        /* \"#utility.yul\":8366:8367   */\n      0x00\n        /* \"#utility.yul\":8355:8364   */\n      dup4\n        /* \"#utility.yul\":8351:8368   */\n      add\n        /* \"#utility.yul\":8344:8391   */\n      mstore\n        /* \"#utility.yul\":8408:8539   */\n      tag_199\n        /* \"#utility.yul\":8534:8538   */\n      dup2\n        /* \"#utility.yul\":8408:8539   */\n      tag_98\n      jump\t// in\n    tag_199:\n        /* \"#utility.yul\":8400:8539   */\n      swap1\n      pop\n        /* \"#utility.yul\":8127:8546   */\n      swap2\n      swap1\n      pop\n      jump\t// out\n        /* \"#utility.yul\":8552:9327   */\n    tag_48:\n        /* \"#utility.yul\":8785:8789   */\n      0x00\n        /* \"#utility.yul\":8823:8826   */\n      0xc0\n        /* \"#utility.yul\":8812:8821   */\n      dup3\n        /* \"#utility.yul\":8808:8827   */\n      add\n        /* \"#utility.yul\":8800:8827   */\n      swap1\n      pop\n        /* \"#utility.yul\":8837:8908   */\n      tag_201\n        /* \"#utility.yul\":8905:8906   */\n      0x00\n        /* \"#utility.yul\":8894:8903   */\n      dup4\n        /* \"#utility.yul\":8890:8907   */\n      add\n        /* \"#utility.yul\":8881:8887   */\n      dup10\n        /* \"#utility.yul\":8837:8908   */\n      tag_82\n      jump\t// in\n    tag_201:\n        /* \"#utility.yul\":8918:8990   */\n      tag_202\n        /* \"#utility.yul\":8986:8988   */\n      0x20\n        /* \"#utility.yul\":8975:8984   */\n      dup4\n        /* \"#utility.yul\":8971:8989   */\n      add\n        /* \"#utility.yul\":8962:8968   */\n      dup9\n        /* \"#utility.yul\":8918:8990   */\n      tag_90\n      jump\t// in\n    tag_202:\n        /* \"#utility.yul\":9000:9072   */\n      tag_203\n        /* \"#utility.yul\":9068:9070   */\n      0x40\n        /* \"#utility.yul\":9057:9066   */\n      dup4\n        /* \"#utility.yul\":9053:9071   */\n      add\n        /* \"#utility.yul\":9044:9050   */\n      dup8\n        /* \"#utility.yul\":9000:9072   */\n      tag_90\n      jump\t// in\n    tag_203:\n        /* \"#utility.yul\":9082:9154   */\n      tag_204\n        /* \"#utility.yul\":9150:9152   */\n      0x60\n        /* \"#utility.yul\":9139:9148   */\n      dup4\n        /* \"#utility.yul\":9135:9153   */\n      add\n        /* \"#utility.yul\":9126:9132   */\n      dup7\n        /* \"#utility.yul\":9082:9154   */\n      tag_90\n      jump\t// in\n    tag_204:\n        /* \"#utility.yul\":9164:9237   */\n      tag_205\n        /* \"#utility.yul\":9232:9235   */\n      0x80\n        /* \"#utility.yul\":9221:9230   */\n      dup4\n        /* \"#utility.yul\":9217:9236   */\n      add\n        /* \"#utility.yul\":9208:9214   */\n      dup6\n        /* \"#utility.yul\":9164:9237   */\n      tag_82\n      jump\t// in\n    tag_205:\n        /* \"#utility.yul\":9247:9320   */\n      tag_206\n        /* \"#utility.yul\":9315:9318   */\n      0xa0\n        /* \"#utility.yul\":9304:9313   */\n      dup4\n        /* \"#utility.yul\":9300:9319   */\n      add\n        /* \"#utility.yul\":9291:9297   */\n      dup5\n        /* \"#utility.yul\":9247:9320   */\n      tag_90\n      jump\t// in\n    tag_206:\n        /* \"#utility.yul\":8552:9327   */\n      swap8\n      swap7\n      pop\n      pop\n      pop\n      pop\n      pop\n      pop\n      pop\n      jump\t// out\n        /* \"#utility.yul\":9333:9996   */\n    tag_52:\n        /* \"#utility.yul\":9421:9427   */\n      0x00\n        /* \"#utility.yul\":9429:9435   */\n      dup1\n        /* \"#utility.yul\":9437:9443   */\n      0x00\n        /* \"#utility.yul\":9486:9488   */\n      0x60\n        /* \"#utility.yul\":9474:9483   */\n      dup5\n        /* \"#utility.yul\":9465:9472   */\n      dup7\n        /* \"#utility.yul\":9461:9484   */\n      sub\n        /* \"#utility.yul\":9457:9489   */\n      slt\n        /* \"#utility.yul\":9454:9573   */\n      iszero\n      tag_208\n      jumpi\n        /* \"#utility.yul\":9492:9571   */\n      tag_209\n      tag_75\n      jump\t// in\n    tag_209:\n        /* \"#utility.yul\":9454:9573   */\n    tag_208:\n        /* \"#utility.yul\":9612:9613   */\n      0x00\n        /* \"#utility.yul\":9637:9701   */\n      tag_210\n        /* \"#utility.yul\":9693:9700   */\n      dup7\n        /* \"#utility.yul\":9684:9690   */\n      dup3\n        /* \"#utility.yul\":9673:9682   */\n      dup8\n        /* \"#utility.yul\":9669:9691   */\n      add\n        /* \"#utility.yul\":9637:9701   */\n      tag_88\n      jump\t// in\n    tag_210:\n        /* \"#utility.yul\":9627:9701   */\n      swap4\n      pop\n        /* \"#utility.yul\":9583:9711   */\n      pop\n        /* \"#utility.yul\":9750:9752   */\n      0x20\n        /* \"#utility.yul\":9776:9840   */\n      tag_211\n        /* \"#utility.yul\":9832:9839   */\n      dup7\n        /* \"#utility.yul\":9823:9829   */\n      dup3\n        /* \"#utility.yul\":9812:9821   */\n      dup8\n        /* \"#utility.yul\":9808:9830   */\n      add\n        /* \"#utility.yul\":9776:9840   */\n      tag_88\n      jump\t// in\n    tag_211:\n        /* \"#utility.yul\":9766:9840   */\n      swap3\n      pop\n        /* \"#utility.yul\":9721:9850   */\n      pop\n        /* \"#utility.yul\":9889:9891   */\n      0x40\n        /* \"#utility.yul\":9915:9979   */\n      tag_212\n        /* \"#utility.yul\":9971:9978   */\n      dup7\n        /* \"#utility.yul\":9962:9968   */\n      dup3\n        /* \"#utility.yul\":9951:9960   */\n      dup8\n        /* \"#utility.yul\":9947:9969   */\n      add\n        /* \"#utility.yul\":9915:9979   */\n      tag_88\n      jump\t// in\n    tag_212:\n        /* \"#utility.yul\":9905:9979   */\n      swap2\n      pop\n        /* \"#utility.yul\":9860:9989   */\n      pop\n        /* \"#utility.yul\":9333:9996   */\n      swap3\n      pop\n      swap3\n      pop\n      swap3\n      jump\t// out\n        /* \"#utility.yul\":10002:10087   */\n    tag_99:\n        /* \"#utility.yul\":10047:10054   */\n      0x00\n        /* \"#utility.yul\":10076:10081   */\n      dup2\n        /* \"#utility.yul\":10065:10081   */\n      swap1\n      pop\n        /* \"#utility.yul\":10002:10087   */\n      swap2\n      swap1\n      pop\n      jump\t// out\n        /* \"#utility.yul\":10093:10153   */\n    tag_100:\n        /* \"#utility.yul\":10121:10124   */\n      0x00\n        /* \"#utility.yul\":10142:10147   */\n      dup2\n        /* \"#utility.yul\":10135:10147   */\n      swap1\n      pop\n        /* \"#utility.yul\":10093:10153   */\n      swap2\n      swap1\n      pop\n      jump\t// out\n        /* \"#utility.yul\":10159:10317   */\n    tag_101:\n        /* \"#utility.yul\":10217:10226   */\n      0x00\n        /* \"#utility.yul\":10250:10311   */\n      tag_216\n        /* \"#utility.yul\":10268:10310   */\n      tag_217\n        /* \"#utility.yul\":10277:10309   */\n      tag_218\n        /* \"#utility.yul\":10303:10308   */\n      dup5\n        /* \"#utility.yul\":10277:10309   */\n      tag_99\n      jump\t// in\n    tag_218:\n        /* \"#utility.yul\":10268:10310   */\n      tag_100\n      jump\t// in\n    tag_217:\n        /* \"#utility.yul\":10250:10311   */\n      tag_77\n      jump\t// in\n    tag_216:\n        /* \"#utility.yul\":10237:10311   */\n      swap1\n      pop\n        /* \"#utility.yul\":10159:10317   */\n      swap2\n      swap1\n      pop\n      jump\t// out\n        /* \"#utility.yul\":10323:10470   */\n    tag_102:\n        /* \"#utility.yul\":10418:10463   */\n      tag_220\n        /* \"#utility.yul\":10457:10462   */\n      dup2\n        /* \"#utility.yul\":10418:10463   */\n      tag_101\n      jump\t// in\n    tag_220:\n        /* \"#utility.yul\":10413:10416   */\n      dup3\n        /* \"#utility.yul\":10406:10464   */\n      mstore\n        /* \"#utility.yul\":10323:10470   */\n      pop\n      pop\n      jump\t// out\n        /* \"#utility.yul\":10476:10824   */\n    tag_54:\n        /* \"#utility.yul\":10605:10609   */\n      0x00\n        /* \"#utility.yul\":10643:10645   */\n      0x40\n        /* \"#utility.yul\":10632:10641   */\n      dup3\n        /* \"#utility.yul\":10628:10646   */\n      add\n        /* \"#utility.yul\":10620:10646   */\n      swap1\n      pop\n        /* \"#utility.yul\":10656:10735   */\n      tag_222\n        /* \"#utility.yul\":10732:10733   */\n      0x00\n        /* \"#utility.yul\":10721:10730   */\n      dup4\n        /* \"#utility.yul\":10717:10734   */\n      add\n        /* \"#utility.yul\":10708:10714   */\n      dup6\n        /* \"#utility.yul\":10656:10735   */\n      tag_102\n      jump\t// in\n    tag_222:\n        /* \"#utility.yul\":10745:10817   */\n      tag_223\n        /* \"#utility.yul\":10813:10815   */\n      0x20\n        /* \"#utility.yul\":10802:10811   */\n      dup4\n        /* \"#utility.yul\":10798:10816   */\n      add\n        /* \"#utility.yul\":10789:10795   */\n      dup5\n        /* \"#utility.yul\":10745:10817   */\n      tag_90\n      jump\t// in\n    tag_223:\n        /* \"#utility.yul\":10476:10824   */\n      swap4\n      swap3\n      pop\n      pop\n      pop\n      jump\t// out\n        /* \"#utility.yul\":10830:11010   */\n    tag_65:\n        /* \"#utility.yul\":10878:10955   */\n      0x4e487b7100000000000000000000000000000000000000000000000000000000\n        /* \"#utility.yul\":10875:10876   */\n      0x00\n        /* \"#utility.yul\":10868:10956   */\n      mstore\n        /* \"#utility.yul\":10975:10979   */\n      0x32\n        /* \"#utility.yul\":10972:10973   */\n      0x04\n        /* \"#utility.yul\":10965:10980   */\n      mstore\n        /* \"#utility.yul\":10999:11003   */\n      0x24\n        /* \"#utility.yul\":10996:10997   */\n      0x00\n        /* \"#utility.yul\":10989:11004   */\n      revert\n        /* \"#utility.yul\":11016:11130   */\n    tag_103:\n        /* \"#utility.yul\":11083:11089   */\n      0x00\n        /* \"#utility.yul\":11117:11122   */\n      dup2\n        /* \"#utility.yul\":11111:11123   */\n      mload\n        /* \"#utility.yul\":11101:11123   */\n      swap1\n      pop\n        /* \"#utility.yul\":11016:11130   */\n      swap2\n      swap1\n      pop\n      jump\t// out\n        /* \"#utility.yul\":11136:11320   */\n    tag_104:\n        /* \"#utility.yul\":11235:11246   */\n      0x00\n        /* \"#utility.yul\":11269:11275   */\n      dup3\n        /* \"#utility.yul\":11264:11267   */\n      dup3\n        /* \"#utility.yul\":11257:11276   */\n      mstore\n        /* \"#utility.yul\":11309:11313   */\n      0x20\n        /* \"#utility.yul\":11304:11307   */\n      dup3\n        /* \"#utility.yul\":11300:11314   */\n      add\n        /* \"#utility.yul\":11285:11314   */\n      swap1\n      pop\n        /* \"#utility.yul\":11136:11320   */\n      swap3\n      swap2\n      pop\n      pop\n      jump\t// out\n        /* \"#utility.yul\":11326:11458   */\n    tag_105:\n        /* \"#utility.yul\":11393:11397   */\n      0x00\n        /* \"#utility.yul\":11416:11419   */\n      dup2\n        /* \"#utility.yul\":11408:11419   */\n      swap1\n      pop\n        /* \"#utility.yul\":11446:11450   */\n      0x20\n        /* \"#utility.yul\":11441:11444   */\n      dup3\n        /* \"#utility.yul\":11437:11451   */\n      add\n        /* \"#utility.yul\":11429:11451   */\n      swap1\n      pop\n        /* \"#utility.yul\":11326:11458   */\n      swap2\n      swap1\n      pop\n      jump\t// out\n        /* \"#utility.yul\":11464:11572   */\n    tag_106:\n        /* \"#utility.yul\":11541:11565   */\n      tag_229\n        /* \"#utility.yul\":11559:11564   */\n      dup2\n        /* \"#utility.yul\":11541:11565   */\n      tag_81\n      jump\t// in\n    tag_229:\n        /* \"#utility.yul\":11536:11539   */\n      dup3\n        /* \"#utility.yul\":11529:11566   */\n      mstore\n        /* \"#utility.yul\":11464:11572   */\n      pop\n      pop\n      jump\t// out\n        /* \"#utility.yul\":11578:11757   */\n    tag_107:\n        /* \"#utility.yul\":11647:11657   */\n      0x00\n        /* \"#utility.yul\":11668:11714   */\n      tag_231\n        /* \"#utility.yul\":11710:11713   */\n      dup4\n        /* \"#utility.yul\":11702:11708   */\n      dup4\n        /* \"#utility.yul\":11668:11714   */\n      tag_106\n      jump\t// in\n    tag_231:\n        /* \"#utility.yul\":11746:11750   */\n      0x20\n        /* \"#utility.yul\":11741:11744   */\n      dup4\n        /* \"#utility.yul\":11737:11751   */\n      add\n        /* \"#utility.yul\":11723:11751   */\n      swap1\n      pop\n        /* \"#utility.yul\":11578:11757   */\n      swap3\n      swap2\n      pop\n      pop\n      jump\t// out\n        /* \"#utility.yul\":11763:11876   */\n    tag_108:\n        /* \"#utility.yul\":11833:11837   */\n      0x00\n        /* \"#utility.yul\":11865:11869   */\n      0x20\n        /* \"#utility.yul\":11860:11863   */\n      dup3\n        /* \"#utility.yul\":11856:11870   */\n      add\n        /* \"#utility.yul\":11848:11870   */\n      swap1\n      pop\n        /* \"#utility.yul\":11763:11876   */\n      swap2\n      swap1\n      pop\n      jump\t// out\n        /* \"#utility.yul\":11912:12644   */\n    tag_109:\n        /* \"#utility.yul\":12031:12034   */\n      0x00\n        /* \"#utility.yul\":12060:12114   */\n      tag_234\n        /* \"#utility.yul\":12108:12113   */\n      dup3\n        /* \"#utility.yul\":12060:12114   */\n      tag_103\n      jump\t// in\n    tag_234:\n        /* \"#utility.yul\":12130:12216   */\n      tag_235\n        /* \"#utility.yul\":12209:12215   */\n      dup2\n        /* \"#utility.yul\":12204:12207   */\n      dup6\n        /* \"#utility.yul\":12130:12216   */\n      tag_104\n      jump\t// in\n    tag_235:\n        /* \"#utility.yul\":12123:12216   */\n      swap4\n      pop\n        /* \"#utility.yul\":12240:12296   */\n      tag_236\n        /* \"#utility.yul\":12290:12295   */\n      dup4\n        /* \"#utility.yul\":12240:12296   */\n      tag_105\n      jump\t// in\n    tag_236:\n        /* \"#utility.yul\":12319:12326   */\n      dup1\n        /* \"#utility.yul\":12350:12351   */\n      0x00\n        /* \"#utility.yul\":12335:12619   */\n    tag_237:\n        /* \"#utility.yul\":12360:12366   */\n      dup4\n        /* \"#utility.yul\":12357:12358   */\n      dup2\n        /* \"#utility.yul\":12354:12367   */\n      lt\n        /* \"#utility.yul\":12335:12619   */\n      iszero\n      tag_239\n      jumpi\n        /* \"#utility.yul\":12436:12442   */\n      dup2\n        /* \"#utility.yul\":12430:12443   */\n      mload\n        /* \"#utility.yul\":12463:12526   */\n      tag_240\n        /* \"#utility.yul\":12522:12525   */\n      dup9\n        /* \"#utility.yul\":12507:12520   */\n      dup3\n        /* \"#utility.yul\":12463:12526   */\n      tag_107\n      jump\t// in\n    tag_240:\n        /* \"#utility.yul\":12456:12526   */\n      swap8\n      pop\n        /* \"#utility.yul\":12549:12609   */\n      tag_241\n        /* \"#utility.yul\":12602:12608   */\n      dup4\n        /* \"#utility.yul\":12549:12609   */\n      tag_108\n      jump\t// in\n    tag_241:\n        /* \"#utility.yul\":12539:12609   */\n      swap3\n      pop\n        /* \"#utility.yul\":12395:12619   */\n      pop\n        /* \"#utility.yul\":12382:12383   */\n      0x01\n        /* \"#utility.yul\":12379:12380   */\n      dup2\n        /* \"#utility.yul\":12375:12384   */\n      add\n        /* \"#utility.yul\":12370:12384   */\n      swap1\n      pop\n        /* \"#utility.yul\":12335:12619   */\n      jump(tag_237)\n    tag_239:\n        /* \"#utility.yul\":12339:12353   */\n      pop\n        /* \"#utility.yul\":12635:12638   */\n      dup6\n        /* \"#utility.yul\":12628:12638   */\n      swap4\n      pop\n        /* \"#utility.yul\":12036:12644   */\n      pop\n      pop\n      pop\n        /* \"#utility.yul\":11912:12644   */\n      swap3\n      swap2\n      pop\n      pop\n      jump\t// out\n        /* \"#utility.yul\":12650:13354   */\n    tag_69:\n        /* \"#utility.yul\":12877:12881   */\n      0x00\n        /* \"#utility.yul\":12915:12918   */\n      0x80\n        /* \"#utility.yul\":12904:12913   */\n      dup3\n        /* \"#utility.yul\":12900:12919   */\n      add\n        /* \"#utility.yul\":12892:12919   */\n      swap1\n      pop\n        /* \"#utility.yul\":12929:13000   */\n      tag_243\n        /* \"#utility.yul\":12997:12998   */\n      0x00\n        /* \"#utility.yul\":12986:12995   */\n      dup4\n        /* \"#utility.yul\":12982:12999   */\n      add\n        /* \"#utility.yul\":12973:12979   */\n      dup8\n        /* \"#utility.yul\":12929:13000   */\n      tag_90\n      jump\t// in\n    tag_243:\n        /* \"#utility.yul\":13047:13056   */\n      dup2\n        /* \"#utility.yul\":13041:13045   */\n      dup2\n        /* \"#utility.yul\":13037:13057   */\n      sub\n        /* \"#utility.yul\":13032:13034   */\n      0x20\n        /* \"#utility.yul\":13021:13030   */\n      dup4\n        /* \"#utility.yul\":13017:13035   */\n      add\n        /* \"#utility.yul\":13010:13058   */\n      mstore\n        /* \"#utility.yul\":13075:13183   */\n      tag_244\n        /* \"#utility.yul\":13178:13182   */\n      dup2\n        /* \"#utility.yul\":13169:13175   */\n      dup7\n        /* \"#utility.yul\":13075:13183   */\n      tag_109\n      jump\t// in\n    tag_244:\n        /* \"#utility.yul\":13067:13183   */\n      swap1\n      pop\n        /* \"#utility.yul\":13193:13265   */\n      tag_245\n        /* \"#utility.yul\":13261:13263   */\n      0x40\n        /* \"#utility.yul\":13250:13259   */\n      dup4\n        /* \"#utility.yul\":13246:13264   */\n      add\n        /* \"#utility.yul\":13237:13243   */\n      dup6\n        /* \"#utility.yul\":13193:13265   */\n      tag_82\n      jump\t// in\n    tag_245:\n        /* \"#utility.yul\":13275:13347   */\n      tag_246\n        /* \"#utility.yul\":13343:13345   */\n      0x60\n        /* \"#utility.yul\":13332:13341   */\n      dup4\n        /* \"#utility.yul\":13328:13346   */\n      add\n        /* \"#utility.yul\":13319:13325   */\n      dup5\n        /* \"#utility.yul\":13275:13347   */\n      tag_90\n      jump\t// in\n    tag_246:\n        /* \"#utility.yul\":12650:13354   */\n      swap6\n      swap5\n      pop\n      pop\n      pop\n      pop\n      pop\n      jump\t// out\n        /* \"#utility.yul\":13360:13477   */\n    tag_110:\n        /* \"#utility.yul\":13469:13470   */\n      0x00\n        /* \"#utility.yul\":13466:13467   */\n      dup1\n        /* \"#utility.yul\":13459:13471   */\n      revert\n        /* \"#utility.yul\":13483:13794   */\n    tag_111:\n        /* \"#utility.yul\":13560:13564   */\n      0x00\n        /* \"#utility.yul\":13650:13668   */\n      0xffffffffffffffff\n        /* \"#utility.yul\":13642:13648   */\n      dup3\n        /* \"#utility.yul\":13639:13669   */\n      gt\n        /* \"#utility.yul\":13636:13692   */\n      iszero\n      tag_249\n      jumpi\n        /* \"#utility.yul\":13672:13690   */\n      tag_250\n      tag_61\n      jump\t// in\n    tag_250:\n        /* \"#utility.yul\":13636:13692   */\n    tag_249:\n        /* \"#utility.yul\":13722:13726   */\n      0x20\n        /* \"#utility.yul\":13714:13720   */\n      dup3\n        /* \"#utility.yul\":13710:13727   */\n      mul\n        /* \"#utility.yul\":13702:13727   */\n      swap1\n      pop\n        /* \"#utility.yul\":13782:13786   */\n      0x20\n        /* \"#utility.yul\":13776:13780   */\n      dup2\n        /* \"#utility.yul\":13772:13787   */\n      add\n        /* \"#utility.yul\":13764:13787   */\n      swap1\n      pop\n        /* \"#utility.yul\":13483:13794   */\n      swap2\n      swap1\n      pop\n      jump\t// out\n        /* \"#utility.yul\":13800:13917   */\n    tag_112:\n        /* \"#utility.yul\":13909:13910   */\n      0x00\n        /* \"#utility.yul\":13906:13907   */\n      dup1\n        /* \"#utility.yul\":13899:13911   */\n      revert\n        /* \"#utility.yul\":13940:14672   */\n    tag_113:\n        /* \"#utility.yul\":14047:14052   */\n      0x00\n        /* \"#utility.yul\":14072:14153   */\n      tag_253\n        /* \"#utility.yul\":14088:14152   */\n      tag_254\n        /* \"#utility.yul\":14145:14151   */\n      dup5\n        /* \"#utility.yul\":14088:14152   */\n      tag_111\n      jump\t// in\n    tag_254:\n        /* \"#utility.yul\":14072:14153   */\n      tag_86\n      jump\t// in\n    tag_253:\n        /* \"#utility.yul\":14063:14153   */\n      swap1\n      pop\n        /* \"#utility.yul\":14173:14178   */\n      dup1\n        /* \"#utility.yul\":14202:14208   */\n      dup4\n        /* \"#utility.yul\":14195:14200   */\n      dup3\n        /* \"#utility.yul\":14188:14209   */\n      mstore\n        /* \"#utility.yul\":14236:14240   */\n      0x20\n        /* \"#utility.yul\":14229:14234   */\n      dup3\n        /* \"#utility.yul\":14225:14241   */\n      add\n        /* \"#utility.yul\":14218:14241   */\n      swap1\n      pop\n        /* \"#utility.yul\":14289:14293   */\n      0x20\n        /* \"#utility.yul\":14281:14287   */\n      dup5\n        /* \"#utility.yul\":14277:14294   */\n      mul\n        /* \"#utility.yul\":14269:14275   */\n      dup4\n        /* \"#utility.yul\":14265:14295   */\n      add\n        /* \"#utility.yul\":14318:14321   */\n      dup6\n        /* \"#utility.yul\":14310:14316   */\n      dup2\n        /* \"#utility.yul\":14307:14322   */\n      gt\n        /* \"#utility.yul\":14304:14426   */\n      iszero\n      tag_255\n      jumpi\n        /* \"#utility.yul\":14337:14416   */\n      tag_256\n      tag_112\n      jump\t// in\n    tag_256:\n        /* \"#utility.yul\":14304:14426   */\n    tag_255:\n        /* \"#utility.yul\":14452:14458   */\n      dup4\n        /* \"#utility.yul\":14435:14666   */\n    tag_257:\n        /* \"#utility.yul\":14469:14475   */\n      dup2\n        /* \"#utility.yul\":14464:14467   */\n      dup2\n        /* \"#utility.yul\":14461:14476   */\n      lt\n        /* \"#utility.yul\":14435:14666   */\n      iszero\n      tag_259\n      jumpi\n        /* \"#utility.yul\":14544:14547   */\n      dup1\n        /* \"#utility.yul\":14573:14621   */\n      tag_260\n        /* \"#utility.yul\":14617:14620   */\n      dup9\n        /* \"#utility.yul\":14605:14615   */\n      dup3\n        /* \"#utility.yul\":14573:14621   */\n      tag_88\n      jump\t// in\n    tag_260:\n        /* \"#utility.yul\":14568:14571   */\n      dup5\n        /* \"#utility.yul\":14561:14622   */\n      mstore\n        /* \"#utility.yul\":14651:14655   */\n      0x20\n        /* \"#utility.yul\":14646:14649   */\n      dup5\n        /* \"#utility.yul\":14642:14656   */\n      add\n        /* \"#utility.yul\":14635:14656   */\n      swap4\n      pop\n        /* \"#utility.yul\":14511:14666   */\n      pop\n        /* \"#utility.yul\":14495:14499   */\n      0x20\n        /* \"#utility.yul\":14490:14493   */\n      dup2\n        /* \"#utility.yul\":14486:14500   */\n      add\n        /* \"#utility.yul\":14479:14500   */\n      swap1\n      pop\n        /* \"#utility.yul\":14435:14666   */\n      jump(tag_257)\n    tag_259:\n        /* \"#utility.yul\":14439:14460   */\n      pop\n        /* \"#utility.yul\":14053:14672   */\n      pop\n      pop\n        /* \"#utility.yul\":13940:14672   */\n      swap4\n      swap3\n      pop\n      pop\n      pop\n      jump\t// out\n        /* \"#utility.yul\":14695:15080   */\n    tag_114:\n        /* \"#utility.yul\":14777:14782   */\n      0x00\n        /* \"#utility.yul\":14826:14829   */\n      dup3\n        /* \"#utility.yul\":14819:14823   */\n      0x1f\n        /* \"#utility.yul\":14811:14817   */\n      dup4\n        /* \"#utility.yul\":14807:14824   */\n      add\n        /* \"#utility.yul\":14803:14830   */\n      slt\n        /* \"#utility.yul\":14793:14915   */\n      tag_262\n      jumpi\n        /* \"#utility.yul\":14834:14913   */\n      tag_263\n      tag_110\n      jump\t// in\n    tag_263:\n        /* \"#utility.yul\":14793:14915   */\n    tag_262:\n        /* \"#utility.yul\":14944:14950   */\n      dup2\n        /* \"#utility.yul\":14938:14951   */\n      mload\n        /* \"#utility.yul\":14969:15074   */\n      tag_264\n        /* \"#utility.yul\":15070:15073   */\n      dup5\n        /* \"#utility.yul\":15062:15068   */\n      dup3\n        /* \"#utility.yul\":15055:15059   */\n      0x20\n        /* \"#utility.yul\":15047:15053   */\n      dup7\n        /* \"#utility.yul\":15043:15060   */\n      add\n        /* \"#utility.yul\":14969:15074   */\n      tag_113\n      jump\t// in\n    tag_264:\n        /* \"#utility.yul\":14960:15074   */\n      swap2\n      pop\n        /* \"#utility.yul\":14783:15080   */\n      pop\n        /* \"#utility.yul\":14695:15080   */\n      swap3\n      swap2\n      pop\n      pop\n      jump\t// out\n        /* \"#utility.yul\":15086:15640   */\n    tag_73:\n        /* \"#utility.yul\":15181:15187   */\n      0x00\n        /* \"#utility.yul\":15230:15232   */\n      0x20\n        /* \"#utility.yul\":15218:15227   */\n      dup3\n        /* \"#utility.yul\":15209:15216   */\n      dup5\n        /* \"#utility.yul\":15205:15228   */\n      sub\n        /* \"#utility.yul\":15201:15233   */\n      slt\n        /* \"#utility.yul\":15198:15317   */\n      iszero\n      tag_266\n      jumpi\n        /* \"#utility.yul\":15236:15315   */\n      tag_267\n      tag_75\n      jump\t// in\n    tag_267:\n        /* \"#utility.yul\":15198:15317   */\n    tag_266:\n        /* \"#utility.yul\":15377:15378   */\n      0x00\n        /* \"#utility.yul\":15366:15375   */\n      dup3\n        /* \"#utility.yul\":15362:15379   */\n      add\n        /* \"#utility.yul\":15356:15380   */\n      mload\n        /* \"#utility.yul\":15407:15425   */\n      0xffffffffffffffff\n        /* \"#utility.yul\":15399:15405   */\n      dup2\n        /* \"#utility.yul\":15396:15426   */\n      gt\n        /* \"#utility.yul\":15393:15510   */\n      iszero\n      tag_268\n      jumpi\n        /* \"#utility.yul\":15429:15508   */\n      tag_269\n      tag_76\n      jump\t// in\n    tag_269:\n        /* \"#utility.yul\":15393:15510   */\n    tag_268:\n        /* \"#utility.yul\":15534:15623   */\n      tag_270\n        /* \"#utility.yul\":15615:15622   */\n      dup5\n        /* \"#utility.yul\":15606:15612   */\n      dup3\n        /* \"#utility.yul\":15595:15604   */\n      dup6\n        /* \"#utility.yul\":15591:15613   */\n      add\n        /* \"#utility.yul\":15534:15623   */\n      tag_114\n      jump\t// in\n    tag_270:\n        /* \"#utility.yul\":15524:15623   */\n      swap2\n      pop\n        /* \"#utility.yul\":15327:15633   */\n      pop\n        /* \"#utility.yul\":15086:15640   */\n      swap3\n      swap2\n      pop\n      pop\n      jump\t// out\n\n    auxdata: 0xa264697066735822122056d284b022078c007da0caaabd368db3fe72061b2151515c7cb6e173ec2aaeb264736f6c634300080d0033\n}\n",
				"bytecode": {
					"linkReferences": {},
					"object": "6080604052737a250d5630b4cf539739df2c5dacb4c659f2488d6000806101000a81548173ffffffffffffffffffffffffffffffffffffffff021916908373ffffffffffffffffffffffffffffffffffffffff16021790555073c778417e063141139fce010982780140aa0cd5ab600160006101000a81548173ffffffffffffffffffffffffffffffffffffffff021916908373ffffffffffffffffffffffffffffffffffffffff16021790555073fa7b29ac82cc25d50970d7e6d842b0e6a529baee600260006101000a81548173ffffffffffffffffffffffffffffffffffffffff021916908373ffffffffffffffffffffffffffffffffffffffff16021790555073f42a08c0ea66ee4a474336087a6c17e9ea6c9de9600360006101000a81548173ffffffffffffffffffffffffffffffffffffffff021916908373ffffffffffffffffffffffffffffffffffffffff16021790555073d9dfa8c6b37cfdf16668fe0465896f4a1b9b2c4f600460006101000a81548173ffffffffffffffffffffffffffffffffffffffff021916908373ffffffffffffffffffffffffffffffffffffffff16021790555060008054906101000a900473ffffffffffffffffffffffffffffffffffffffff16600560006101000a81548173ffffffffffffffffffffffffffffffffffffffff021916908373ffffffffffffffffffffffffffffffffffffffff160217905550600260009054906101000a900473ffffffffffffffffffffffffffffffffffffffff16600660006101000a81548173ffffffffffffffffffffffffffffffffffffffff021916908373ffffffffffffffffffffffffffffffffffffffff160217905550600460009054906101000a900473ffffffffffffffffffffffffffffffffffffffff16600760006101000a81548173ffffffffffffffffffffffffffffffffffffffff021916908373ffffffffffffffffffffffffffffffffffffffff1602179055503480156102df57600080fd5b50610efe806102ef6000396000f3fe6080604052600436106100345760003560e01c80632e1a7d4d14610039578063422f104314610062578063a93f74e01461007e575b600080fd5b34801561004557600080fd5b50610060600480360381019061005b919061074c565b61009a565b005b61007c60048036038101906100779190610779565b6101d0565b005b6100986004803603810190610093919061074c565b610523565b005b6000600760009054906101000a900473ffffffffffffffffffffffffffffffffffffffff1673ffffffffffffffffffffffffffffffffffffffff16631959a002336040518263ffffffff1660e01b81526004016100f7919061080d565b6040805180830381865afa158015610113573d6000803e3d6000fd5b505050506040513d601f19601f82011682018060405250810190610137919061091e565b9050600760009054906101000a900473ffffffffffffffffffffffffffffffffffffffff1673ffffffffffffffffffffffffffffffffffffffff1663441a3e708383600001516040518363ffffffff1660e01b815260040161019a92919061095a565b600060405180830381600087803b1580156101b457600080fd5b505af11580156101c8573d6000803e3d6000fd5b505050505050565b600660009054906101000a900473ffffffffffffffffffffffffffffffffffffffff1673ffffffffffffffffffffffffffffffffffffffff1663095ea7b3600560009054906101000a900473ffffffffffffffffffffffffffffffffffffffff16856040518363ffffffff1660e01b815260040161024f929190610983565b6020604051808303816000875af115801561026e573d6000803e3d6000fd5b505050506040513d601f19601f8201168201806040525081019061029291906109e4565b506000600660009054906101000a900473ffffffffffffffffffffffffffffffffffffffff1673ffffffffffffffffffffffffffffffffffffffff166323b872dd3330876040518463ffffffff1660e01b81526004016102f493929190610a11565b6020604051808303816000875af1158015610313573d6000803e3d6000fd5b505050506040513d601f19601f8201168201806040525081019061033791906109e4565b905080610379576040517f08c379a000000000000000000000000000000000000000000000000000000000815260040161037090610aa5565b60405180910390fd5b8134116103bb576040517f08c379a00000000000000000000000000000000000000000000000000000000081526004016103b290610b37565b60405180910390fd5b6000600560009054906101000a900473ffffffffffffffffffffffffffffffffffffffff1673ffffffffffffffffffffffffffffffffffffffff1663f305d71934600260009054906101000a900473ffffffffffffffffffffffffffffffffffffffff1688888833426040518863ffffffff1660e01b815260040161044596959493929190610b57565b60606040518083038185885af1158015610463573d6000803e3d6000fd5b50505050506040513d601f19601f820116820180604052508101906104889190610bb8565b50509050600760009054906101000a900473ffffffffffffffffffffffffffffffffffffffff1673ffffffffffffffffffffffffffffffffffffffff1663e2bbb1586000836040518363ffffffff1660e01b81526004016104ea929190610c50565b600060405180830381600087803b15801561050457600080fd5b505af1158015610518573d6000803e3d6000fd5b505050505050505050565b6000600267ffffffffffffffff8111156105405761053f61083e565b5b60405190808252806020026020018201604052801561056e5781602001602082028036833780820191505090505b509050600160009054906101000a900473ffffffffffffffffffffffffffffffffffffffff16816000815181106105a8576105a7610c79565b5b602002602001019073ffffffffffffffffffffffffffffffffffffffff16908173ffffffffffffffffffffffffffffffffffffffff1681525050600260009054906101000a900473ffffffffffffffffffffffffffffffffffffffff168160018151811061061957610618610c79565b5b602002602001019073ffffffffffffffffffffffffffffffffffffffff16908173ffffffffffffffffffffffffffffffffffffffff1681525050600560009054906101000a900473ffffffffffffffffffffffffffffffffffffffff1673ffffffffffffffffffffffffffffffffffffffff16637ff36ab534848433426040518663ffffffff1660e01b81526004016106b59493929190610d66565b60006040518083038185885af11580156106d3573d6000803e3d6000fd5b50505050506040513d6000823e3d601f19601f820116820180604052508101906106fd9190610e7f565b505050565b6000604051905090565b600080fd5b600080fd5b6000819050919050565b61072981610716565b811461073457600080fd5b50565b60008135905061074681610720565b92915050565b6000602082840312156107625761076161070c565b5b600061077084828501610737565b91505092915050565b6000806000606084860312156107925761079161070c565b5b60006107a086828701610737565b93505060206107b186828701610737565b92505060406107c286828701610737565b9150509250925092565b600073ffffffffffffffffffffffffffffffffffffffff82169050919050565b60006107f7826107cc565b9050919050565b610807816107ec565b82525050565b600060208201905061082260008301846107fe565b92915050565b600080fd5b6000601f19601f8301169050919050565b7f4e487b7100000000000000000000000000000000000000000000000000000000600052604160045260246000fd5b6108768261082d565b810181811067ffffffffffffffff821117156108955761089461083e565b5b80604052505050565b60006108a8610702565b90506108b4828261086d565b919050565b6000815190506108c881610720565b92915050565b6000604082840312156108e4576108e3610828565b5b6108ee604061089e565b905060006108fe848285016108b9565b6000830152506020610912848285016108b9565b60208301525092915050565b6000604082840312156109345761093361070c565b5b6000610942848285016108ce565b91505092915050565b61095481610716565b82525050565b600060408201905061096f600083018561094b565b61097c602083018461094b565b9392505050565b600060408201905061099860008301856107fe565b6109a5602083018461094b565b9392505050565b60008115159050919050565b6109c1816109ac565b81146109cc57600080fd5b50565b6000815190506109de816109b8565b92915050565b6000602082840312156109fa576109f961070c565b5b6000610a08848285016109cf565b91505092915050565b6000606082019050610a2660008301866107fe565b610a3360208301856107fe565b610a40604083018461094b565b949350505050565b600082825260208201905092915050565b7f6d746f6b656e207472616e73666572206572726f722100000000000000000000600082015250565b6000610a8f601683610a48565b9150610a9a82610a59565b602082019050919050565b60006020820190508181036000830152610abe81610a82565b9050919050565b7f6d73672e76616c75652073686f756c642062696767676572207468616e20616d60008201527f6f756e744554484d696e00000000000000000000000000000000000000000000602082015250565b6000610b21602a83610a48565b9150610b2c82610ac5565b604082019050919050565b60006020820190508181036000830152610b5081610b14565b9050919050565b600060c082019050610b6c60008301896107fe565b610b79602083018861094b565b610b86604083018761094b565b610b93606083018661094b565b610ba060808301856107fe565b610bad60a083018461094b565b979650505050505050565b600080600060608486031215610bd157610bd061070c565b5b6000610bdf868287016108b9565b9350506020610bf0868287016108b9565b9250506040610c01868287016108b9565b9150509250925092565b6000819050919050565b6000819050919050565b6000610c3a610c35610c3084610c0b565b610c15565b610716565b9050919050565b610c4a81610c1f565b82525050565b6000604082019050610c656000830185610c41565b610c72602083018461094b565b9392505050565b7f4e487b7100000000000000000000000000000000000000000000000000000000600052603260045260246000fd5b600081519050919050565b600082825260208201905092915050565b6000819050602082019050919050565b610cdd816107ec565b82525050565b6000610cef8383610cd4565b60208301905092915050565b6000602082019050919050565b6000610d1382610ca8565b610d1d8185610cb3565b9350610d2883610cc4565b8060005b83811015610d59578151610d408882610ce3565b9750610d4b83610cfb565b925050600181019050610d2c565b5085935050505092915050565b6000608082019050610d7b600083018761094b565b8181036020830152610d8d8186610d08565b9050610d9c60408301856107fe565b610da9606083018461094b565b95945050505050565b600080fd5b600067ffffffffffffffff821115610dd257610dd161083e565b5b602082029050602081019050919050565b600080fd5b6000610dfb610df684610db7565b61089e565b90508083825260208201905060208402830185811115610e1e57610e1d610de3565b5b835b81811015610e475780610e3388826108b9565b845260208401935050602081019050610e20565b5050509392505050565b600082601f830112610e6657610e65610db2565b5b8151610e76848260208601610de8565b91505092915050565b600060208284031215610e9557610e9461070c565b5b600082015167ffffffffffffffff811115610eb357610eb2610711565b5b610ebf84828501610e51565b9150509291505056fea264697066735822122056d284b022078c007da0caaabd368db3fe72061b2151515c7cb6e173ec2aaeb264736f6c634300080d0033",
					"opcodes": "PUSH1 0x80 PUSH1 0x40 MSTORE PUSH20 0x7A250D5630B4CF539739DF2C5DACB4C659F2488D PUSH1 0x0 DUP1 PUSH2 0x100 EXP DUP2 SLOAD DUP2 PUSH20 0xFFFFFFFFFFFFFFFFFFFFFFFFFFFFFFFFFFFFFFFF MUL NOT AND SWAP1 DUP4 PUSH20 0xFFFFFFFFFFFFFFFFFFFFFFFFFFFFFFFFFFFFFFFF AND MUL OR SWAP1 SSTORE POP PUSH20 0xC778417E063141139FCE010982780140AA0CD5AB PUSH1 0x1 PUSH1 0x0 PUSH2 0x100 EXP DUP2 SLOAD DUP2 PUSH20 0xFFFFFFFFFFFFFFFFFFFFFFFFFFFFFFFFFFFFFFFF MUL NOT AND SWAP1 DUP4 PUSH20 0xFFFFFFFFFFFFFFFFFFFFFFFFFFFFFFFFFFFFFFFF AND MUL OR SWAP1 SSTORE POP PUSH20 0xFA7B29AC82CC25D50970D7E6D842B0E6A529BAEE PUSH1 0x2 PUSH1 0x0 PUSH2 0x100 EXP DUP2 SLOAD DUP2 PUSH20 0xFFFFFFFFFFFFFFFFFFFFFFFFFFFFFFFFFFFFFFFF MUL NOT AND SWAP1 DUP4 PUSH20 0xFFFFFFFFFFFFFFFFFFFFFFFFFFFFFFFFFFFFFFFF AND MUL OR SWAP1 SSTORE POP PUSH20 0xF42A08C0EA66EE4A474336087A6C17E9EA6C9DE9 PUSH1 0x3 PUSH1 0x0 PUSH2 0x100 EXP DUP2 SLOAD DUP2 PUSH20 0xFFFFFFFFFFFFFFFFFFFFFFFFFFFFFFFFFFFFFFFF MUL NOT AND SWAP1 DUP4 PUSH20 0xFFFFFFFFFFFFFFFFFFFFFFFFFFFFFFFFFFFFFFFF AND MUL OR SWAP1 SSTORE POP PUSH20 0xD9DFA8C6B37CFDF16668FE0465896F4A1B9B2C4F PUSH1 0x4 PUSH1 0x0 PUSH2 0x100 EXP DUP2 SLOAD DUP2 PUSH20 0xFFFFFFFFFFFFFFFFFFFFFFFFFFFFFFFFFFFFFFFF MUL NOT AND SWAP1 DUP4 PUSH20 0xFFFFFFFFFFFFFFFFFFFFFFFFFFFFFFFFFFFFFFFF AND MUL OR SWAP1 SSTORE POP PUSH1 0x0 DUP1 SLOAD SWAP1 PUSH2 0x100 EXP SWAP1 DIV PUSH20 0xFFFFFFFFFFFFFFFFFFFFFFFFFFFFFFFFFFFFFFFF AND PUSH1 0x5 PUSH1 0x0 PUSH2 0x100 EXP DUP2 SLOAD DUP2 PUSH20 0xFFFFFFFFFFFFFFFFFFFFFFFFFFFFFFFFFFFFFFFF MUL NOT AND SWAP1 DUP4 PUSH20 0xFFFFFFFFFFFFFFFFFFFFFFFFFFFFFFFFFFFFFFFF AND MUL OR SWAP1 SSTORE POP PUSH1 0x2 PUSH1 0x0 SWAP1 SLOAD SWAP1 PUSH2 0x100 EXP SWAP1 DIV PUSH20 0xFFFFFFFFFFFFFFFFFFFFFFFFFFFFFFFFFFFFFFFF AND PUSH1 0x6 PUSH1 0x0 PUSH2 0x100 EXP DUP2 SLOAD DUP2 PUSH20 0xFFFFFFFFFFFFFFFFFFFFFFFFFFFFFFFFFFFFFFFF MUL NOT AND SWAP1 DUP4 PUSH20 0xFFFFFFFFFFFFFFFFFFFFFFFFFFFFFFFFFFFFFFFF AND MUL OR SWAP1 SSTORE POP PUSH1 0x4 PUSH1 0x0 SWAP1 SLOAD SWAP1 PUSH2 0x100 EXP SWAP1 DIV PUSH20 0xFFFFFFFFFFFFFFFFFFFFFFFFFFFFFFFFFFFFFFFF AND PUSH1 0x7 PUSH1 0x0 PUSH2 0x100 EXP DUP2 SLOAD DUP2 PUSH20 0xFFFFFFFFFFFFFFFFFFFFFFFFFFFFFFFFFFFFFFFF MUL NOT AND SWAP1 DUP4 PUSH20 0xFFFFFFFFFFFFFFFFFFFFFFFFFFFFFFFFFFFFFFFF AND MUL OR SWAP1 SSTORE POP CALLVALUE DUP1 ISZERO PUSH2 0x2DF JUMPI PUSH1 0x0 DUP1 REVERT JUMPDEST POP PUSH2 0xEFE DUP1 PUSH2 0x2EF PUSH1 0x0 CODECOPY PUSH1 0x0 RETURN INVALID PUSH1 0x80 PUSH1 0x40 MSTORE PUSH1 0x4 CALLDATASIZE LT PUSH2 0x34 JUMPI PUSH1 0x0 CALLDATALOAD PUSH1 0xE0 SHR DUP1 PUSH4 0x2E1A7D4D EQ PUSH2 0x39 JUMPI DUP1 PUSH4 0x422F1043 EQ PUSH2 0x62 JUMPI DUP1 PUSH4 0xA93F74E0 EQ PUSH2 0x7E JUMPI JUMPDEST PUSH1 0x0 DUP1 REVERT JUMPDEST CALLVALUE DUP1 ISZERO PUSH2 0x45 JUMPI PUSH1 0x0 DUP1 REVERT JUMPDEST POP PUSH2 0x60 PUSH1 0x4 DUP1 CALLDATASIZE SUB DUP2 ADD SWAP1 PUSH2 0x5B SWAP2 SWAP1 PUSH2 0x74C JUMP JUMPDEST PUSH2 0x9A JUMP JUMPDEST STOP JUMPDEST PUSH2 0x7C PUSH1 0x4 DUP1 CALLDATASIZE SUB DUP2 ADD SWAP1 PUSH2 0x77 SWAP2 SWAP1 PUSH2 0x779 JUMP JUMPDEST PUSH2 0x1D0 JUMP JUMPDEST STOP JUMPDEST PUSH2 0x98 PUSH1 0x4 DUP1 CALLDATASIZE SUB DUP2 ADD SWAP1 PUSH2 0x93 SWAP2 SWAP1 PUSH2 0x74C JUMP JUMPDEST PUSH2 0x523 JUMP JUMPDEST STOP JUMPDEST PUSH1 0x0 PUSH1 0x7 PUSH1 0x0 SWAP1 SLOAD SWAP1 PUSH2 0x100 EXP SWAP1 DIV PUSH20 0xFFFFFFFFFFFFFFFFFFFFFFFFFFFFFFFFFFFFFFFF AND PUSH20 0xFFFFFFFFFFFFFFFFFFFFFFFFFFFFFFFFFFFFFFFF AND PUSH4 0x1959A002 CALLER PUSH1 0x40 MLOAD DUP3 PUSH4 0xFFFFFFFF AND PUSH1 0xE0 SHL DUP2 MSTORE PUSH1 0x4 ADD PUSH2 0xF7 SWAP2 SWAP1 PUSH2 0x80D JUMP JUMPDEST PUSH1 0x40 DUP1 MLOAD DUP1 DUP4 SUB DUP2 DUP7 GAS STATICCALL ISZERO DUP1 ISZERO PUSH2 0x113 JUMPI RETURNDATASIZE PUSH1 0x0 DUP1 RETURNDATACOPY RETURNDATASIZE PUSH1 0x0 REVERT JUMPDEST POP POP POP POP PUSH1 0x40 MLOAD RETURNDATASIZE PUSH1 0x1F NOT PUSH1 0x1F DUP3 ADD AND DUP3 ADD DUP1 PUSH1 0x40 MSTORE POP DUP2 ADD SWAP1 PUSH2 0x137 SWAP2 SWAP1 PUSH2 0x91E JUMP JUMPDEST SWAP1 POP PUSH1 0x7 PUSH1 0x0 SWAP1 SLOAD SWAP1 PUSH2 0x100 EXP SWAP1 DIV PUSH20 0xFFFFFFFFFFFFFFFFFFFFFFFFFFFFFFFFFFFFFFFF AND PUSH20 0xFFFFFFFFFFFFFFFFFFFFFFFFFFFFFFFFFFFFFFFF AND PUSH4 0x441A3E70 DUP4 DUP4 PUSH1 0x0 ADD MLOAD PUSH1 0x40 MLOAD DUP4 PUSH4 0xFFFFFFFF AND PUSH1 0xE0 SHL DUP2 MSTORE PUSH1 0x4 ADD PUSH2 0x19A SWAP3 SWAP2 SWAP1 PUSH2 0x95A JUMP JUMPDEST PUSH1 0x0 PUSH1 0x40 MLOAD DUP1 DUP4 SUB DUP2 PUSH1 0x0 DUP8 DUP1 EXTCODESIZE ISZERO DUP1 ISZERO PUSH2 0x1B4 JUMPI PUSH1 0x0 DUP1 REVERT JUMPDEST POP GAS CALL ISZERO DUP1 ISZERO PUSH2 0x1C8 JUMPI RETURNDATASIZE PUSH1 0x0 DUP1 RETURNDATACOPY RETURNDATASIZE PUSH1 0x0 REVERT JUMPDEST POP POP POP POP POP POP JUMP JUMPDEST PUSH1 0x6 PUSH1 0x0 SWAP1 SLOAD SWAP1 PUSH2 0x100 EXP SWAP1 DIV PUSH20 0xFFFFFFFFFFFFFFFFFFFFFFFFFFFFFFFFFFFFFFFF AND PUSH20 0xFFFFFFFFFFFFFFFFFFFFFFFFFFFFFFFFFFFFFFFF AND PUSH4 0x95EA7B3 PUSH1 0x5 PUSH1 0x0 SWAP1 SLOAD SWAP1 PUSH2 0x100 EXP SWAP1 DIV PUSH20 0xFFFFFFFFFFFFFFFFFFFFFFFFFFFFFFFFFFFFFFFF AND DUP6 PUSH1 0x40 MLOAD DUP4 PUSH4 0xFFFFFFFF AND PUSH1 0xE0 SHL DUP2 MSTORE PUSH1 0x4 ADD PUSH2 0x24F SWAP3 SWAP2 SWAP1 PUSH2 0x983 JUMP JUMPDEST PUSH1 0x20 PUSH1 0x40 MLOAD DUP1 DUP4 SUB DUP2 PUSH1 0x0 DUP8 GAS CALL ISZERO DUP1 ISZERO PUSH2 0x26E JUMPI RETURNDATASIZE PUSH1 0x0 DUP1 RETURNDATACOPY RETURNDATASIZE PUSH1 0x0 REVERT JUMPDEST POP POP POP POP PUSH1 0x40 MLOAD RETURNDATASIZE PUSH1 0x1F NOT PUSH1 0x1F DUP3 ADD AND DUP3 ADD DUP1 PUSH1 0x40 MSTORE POP DUP2 ADD SWAP1 PUSH2 0x292 SWAP2 SWAP1 PUSH2 0x9E4 JUMP JUMPDEST POP PUSH1 0x0 PUSH1 0x6 PUSH1 0x0 SWAP1 SLOAD SWAP1 PUSH2 0x100 EXP SWAP1 DIV PUSH20 0xFFFFFFFFFFFFFFFFFFFFFFFFFFFFFFFFFFFFFFFF AND PUSH20 0xFFFFFFFFFFFFFFFFFFFFFFFFFFFFFFFFFFFFFFFF AND PUSH4 0x23B872DD CALLER ADDRESS DUP8 PUSH1 0x40 MLOAD DUP5 PUSH4 0xFFFFFFFF AND PUSH1 0xE0 SHL DUP2 MSTORE PUSH1 0x4 ADD PUSH2 0x2F4 SWAP4 SWAP3 SWAP2 SWAP1 PUSH2 0xA11 JUMP JUMPDEST PUSH1 0x20 PUSH1 0x40 MLOAD DUP1 DUP4 SUB DUP2 PUSH1 0x0 DUP8 GAS CALL ISZERO DUP1 ISZERO PUSH2 0x313 JUMPI RETURNDATASIZE PUSH1 0x0 DUP1 RETURNDATACOPY RETURNDATASIZE PUSH1 0x0 REVERT JUMPDEST POP POP POP POP PUSH1 0x40 MLOAD RETURNDATASIZE PUSH1 0x1F NOT PUSH1 0x1F DUP3 ADD AND DUP3 ADD DUP1 PUSH1 0x40 MSTORE POP DUP2 ADD SWAP1 PUSH2 0x337 SWAP2 SWAP1 PUSH2 0x9E4 JUMP JUMPDEST SWAP1 POP DUP1 PUSH2 0x379 JUMPI PUSH1 0x40 MLOAD PUSH32 0x8C379A000000000000000000000000000000000000000000000000000000000 DUP2 MSTORE PUSH1 0x4 ADD PUSH2 0x370 SWAP1 PUSH2 0xAA5 JUMP JUMPDEST PUSH1 0x40 MLOAD DUP1 SWAP2 SUB SWAP1 REVERT JUMPDEST DUP2 CALLVALUE GT PUSH2 0x3BB JUMPI PUSH1 0x40 MLOAD PUSH32 0x8C379A000000000000000000000000000000000000000000000000000000000 DUP2 MSTORE PUSH1 0x4 ADD PUSH2 0x3B2 SWAP1 PUSH2 0xB37 JUMP JUMPDEST PUSH1 0x40 MLOAD DUP1 SWAP2 SUB SWAP1 REVERT JUMPDEST PUSH1 0x0 PUSH1 0x5 PUSH1 0x0 SWAP1 SLOAD SWAP1 PUSH2 0x100 EXP SWAP1 DIV PUSH20 0xFFFFFFFFFFFFFFFFFFFFFFFFFFFFFFFFFFFFFFFF AND PUSH20 0xFFFFFFFFFFFFFFFFFFFFFFFFFFFFFFFFFFFFFFFF AND PUSH4 0xF305D719 CALLVALUE PUSH1 0x2 PUSH1 0x0 SWAP1 SLOAD SWAP1 PUSH2 0x100 EXP SWAP1 DIV PUSH20 0xFFFFFFFFFFFFFFFFFFFFFFFFFFFFFFFFFFFFFFFF AND DUP9 DUP9 DUP9 CALLER TIMESTAMP PUSH1 0x40 MLOAD DUP9 PUSH4 0xFFFFFFFF AND PUSH1 0xE0 SHL DUP2 MSTORE PUSH1 0x4 ADD PUSH2 0x445 SWAP7 SWAP6 SWAP5 SWAP4 SWAP3 SWAP2 SWAP1 PUSH2 0xB57 JUMP JUMPDEST PUSH1 0x60 PUSH1 0x40 MLOAD DUP1 DUP4 SUB DUP2 DUP6 DUP9 GAS CALL ISZERO DUP1 ISZERO PUSH2 0x463 JUMPI RETURNDATASIZE PUSH1 0x0 DUP1 RETURNDATACOPY RETURNDATASIZE PUSH1 0x0 REVERT JUMPDEST POP POP POP POP POP PUSH1 0x40 MLOAD RETURNDATASIZE PUSH1 0x1F NOT PUSH1 0x1F DUP3 ADD AND DUP3 ADD DUP1 PUSH1 0x40 MSTORE POP DUP2 ADD SWAP1 PUSH2 0x488 SWAP2 SWAP1 PUSH2 0xBB8 JUMP JUMPDEST POP POP SWAP1 POP PUSH1 0x7 PUSH1 0x0 SWAP1 SLOAD SWAP1 PUSH2 0x100 EXP SWAP1 DIV PUSH20 0xFFFFFFFFFFFFFFFFFFFFFFFFFFFFFFFFFFFFFFFF AND PUSH20 0xFFFFFFFFFFFFFFFFFFFFFFFFFFFFFFFFFFFFFFFF AND PUSH4 0xE2BBB158 PUSH1 0x0 DUP4 PUSH1 0x40 MLOAD DUP4 PUSH4 0xFFFFFFFF AND PUSH1 0xE0 SHL DUP2 MSTORE PUSH1 0x4 ADD PUSH2 0x4EA SWAP3 SWAP2 SWAP1 PUSH2 0xC50 JUMP JUMPDEST PUSH1 0x0 PUSH1 0x40 MLOAD DUP1 DUP4 SUB DUP2 PUSH1 0x0 DUP8 DUP1 EXTCODESIZE ISZERO DUP1 ISZERO PUSH2 0x504 JUMPI PUSH1 0x0 DUP1 REVERT JUMPDEST POP GAS CALL ISZERO DUP1 ISZERO PUSH2 0x518 JUMPI RETURNDATASIZE PUSH1 0x0 DUP1 RETURNDATACOPY RETURNDATASIZE PUSH1 0x0 REVERT JUMPDEST POP POP POP POP POP POP POP POP POP JUMP JUMPDEST PUSH1 0x0 PUSH1 0x2 PUSH8 0xFFFFFFFFFFFFFFFF DUP2 GT ISZERO PUSH2 0x540 JUMPI PUSH2 0x53F PUSH2 0x83E JUMP JUMPDEST JUMPDEST PUSH1 0x40 MLOAD SWAP1 DUP1 DUP3 MSTORE DUP1 PUSH1 0x20 MUL PUSH1 0x20 ADD DUP3 ADD PUSH1 0x40 MSTORE DUP1 ISZERO PUSH2 0x56E JUMPI DUP2 PUSH1 0x20 ADD PUSH1 0x20 DUP3 MUL DUP1 CALLDATASIZE DUP4 CALLDATACOPY DUP1 DUP3 ADD SWAP2 POP POP SWAP1 POP JUMPDEST POP SWAP1 POP PUSH1 0x1 PUSH1 0x0 SWAP1 SLOAD SWAP1 PUSH2 0x100 EXP SWAP1 DIV PUSH20 0xFFFFFFFFFFFFFFFFFFFFFFFFFFFFFFFFFFFFFFFF AND DUP2 PUSH1 0x0 DUP2 MLOAD DUP2 LT PUSH2 0x5A8 JUMPI PUSH2 0x5A7 PUSH2 0xC79 JUMP JUMPDEST JUMPDEST PUSH1 0x20 MUL PUSH1 0x20 ADD ADD SWAP1 PUSH20 0xFFFFFFFFFFFFFFFFFFFFFFFFFFFFFFFFFFFFFFFF AND SWAP1 DUP2 PUSH20 0xFFFFFFFFFFFFFFFFFFFFFFFFFFFFFFFFFFFFFFFF AND DUP2 MSTORE POP POP PUSH1 0x2 PUSH1 0x0 SWAP1 SLOAD SWAP1 PUSH2 0x100 EXP SWAP1 DIV PUSH20 0xFFFFFFFFFFFFFFFFFFFFFFFFFFFFFFFFFFFFFFFF AND DUP2 PUSH1 0x1 DUP2 MLOAD DUP2 LT PUSH2 0x619 JUMPI PUSH2 0x618 PUSH2 0xC79 JUMP JUMPDEST JUMPDEST PUSH1 0x20 MUL PUSH1 0x20 ADD ADD SWAP1 PUSH20 0xFFFFFFFFFFFFFFFFFFFFFFFFFFFFFFFFFFFFFFFF AND SWAP1 DUP2 PUSH20 0xFFFFFFFFFFFFFFFFFFFFFFFFFFFFFFFFFFFFFFFF AND DUP2 MSTORE POP POP PUSH1 0x5 PUSH1 0x0 SWAP1 SLOAD SWAP1 PUSH2 0x100 EXP SWAP1 DIV PUSH20 0xFFFFFFFFFFFFFFFFFFFFFFFFFFFFFFFFFFFFFFFF AND PUSH20 0xFFFFFFFFFFFFFFFFFFFFFFFFFFFFFFFFFFFFFFFF AND PUSH4 0x7FF36AB5 CALLVALUE DUP5 DUP5 CALLER TIMESTAMP PUSH1 0x40 MLOAD DUP7 PUSH4 0xFFFFFFFF AND PUSH1 0xE0 SHL DUP2 MSTORE PUSH1 0x4 ADD PUSH2 0x6B5 SWAP5 SWAP4 SWAP3 SWAP2 SWAP1 PUSH2 0xD66 JUMP JUMPDEST PUSH1 0x0 PUSH1 0x40 MLOAD DUP1 DUP4 SUB DUP2 DUP6 DUP9 GAS CALL ISZERO DUP1 ISZERO PUSH2 0x6D3 JUMPI RETURNDATASIZE PUSH1 0x0 DUP1 RETURNDATACOPY RETURNDATASIZE PUSH1 0x0 REVERT JUMPDEST POP POP POP POP POP PUSH1 0x40 MLOAD RETURNDATASIZE PUSH1 0x0 DUP3 RETURNDATACOPY RETURNDATASIZE PUSH1 0x1F NOT PUSH1 0x1F DUP3 ADD AND DUP3 ADD DUP1 PUSH1 0x40 MSTORE POP DUP2 ADD SWAP1 PUSH2 0x6FD SWAP2 SWAP1 PUSH2 0xE7F JUMP JUMPDEST POP POP POP JUMP JUMPDEST PUSH1 0x0 PUSH1 0x40 MLOAD SWAP1 POP SWAP1 JUMP JUMPDEST PUSH1 0x0 DUP1 REVERT JUMPDEST PUSH1 0x0 DUP1 REVERT JUMPDEST PUSH1 0x0 DUP2 SWAP1 POP SWAP2 SWAP1 POP JUMP JUMPDEST PUSH2 0x729 DUP2 PUSH2 0x716 JUMP JUMPDEST DUP2 EQ PUSH2 0x734 JUMPI PUSH1 0x0 DUP1 REVERT JUMPDEST POP JUMP JUMPDEST PUSH1 0x0 DUP2 CALLDATALOAD SWAP1 POP PUSH2 0x746 DUP2 PUSH2 0x720 JUMP JUMPDEST SWAP3 SWAP2 POP POP JUMP JUMPDEST PUSH1 0x0 PUSH1 0x20 DUP3 DUP5 SUB SLT ISZERO PUSH2 0x762 JUMPI PUSH2 0x761 PUSH2 0x70C JUMP JUMPDEST JUMPDEST PUSH1 0x0 PUSH2 0x770 DUP5 DUP3 DUP6 ADD PUSH2 0x737 JUMP JUMPDEST SWAP2 POP POP SWAP3 SWAP2 POP POP JUMP JUMPDEST PUSH1 0x0 DUP1 PUSH1 0x0 PUSH1 0x60 DUP5 DUP7 SUB SLT ISZERO PUSH2 0x792 JUMPI PUSH2 0x791 PUSH2 0x70C JUMP JUMPDEST JUMPDEST PUSH1 0x0 PUSH2 0x7A0 DUP7 DUP3 DUP8 ADD PUSH2 0x737 JUMP JUMPDEST SWAP4 POP POP PUSH1 0x20 PUSH2 0x7B1 DUP7 DUP3 DUP8 ADD PUSH2 0x737 JUMP JUMPDEST SWAP3 POP POP PUSH1 0x40 PUSH2 0x7C2 DUP7 DUP3 DUP8 ADD PUSH2 0x737 JUMP JUMPDEST SWAP2 POP POP SWAP3 POP SWAP3 POP SWAP3 JUMP JUMPDEST PUSH1 0x0 PUSH20 0xFFFFFFFFFFFFFFFFFFFFFFFFFFFFFFFFFFFFFFFF DUP3 AND SWAP1 POP SWAP2 SWAP1 POP JUMP JUMPDEST PUSH1 0x0 PUSH2 0x7F7 DUP3 PUSH2 0x7CC JUMP JUMPDEST SWAP1 POP SWAP2 SWAP1 POP JUMP JUMPDEST PUSH2 0x807 DUP2 PUSH2 0x7EC JUMP JUMPDEST DUP3 MSTORE POP POP JUMP JUMPDEST PUSH1 0x0 PUSH1 0x20 DUP3 ADD SWAP1 POP PUSH2 0x822 PUSH1 0x0 DUP4 ADD DUP5 PUSH2 0x7FE JUMP JUMPDEST SWAP3 SWAP2 POP POP JUMP JUMPDEST PUSH1 0x0 DUP1 REVERT JUMPDEST PUSH1 0x0 PUSH1 0x1F NOT PUSH1 0x1F DUP4 ADD AND SWAP1 POP SWAP2 SWAP1 POP JUMP JUMPDEST PUSH32 0x4E487B7100000000000000000000000000000000000000000000000000000000 PUSH1 0x0 MSTORE PUSH1 0x41 PUSH1 0x4 MSTORE PUSH1 0x24 PUSH1 0x0 REVERT JUMPDEST PUSH2 0x876 DUP3 PUSH2 0x82D JUMP JUMPDEST DUP2 ADD DUP2 DUP2 LT PUSH8 0xFFFFFFFFFFFFFFFF DUP3 GT OR ISZERO PUSH2 0x895 JUMPI PUSH2 0x894 PUSH2 0x83E JUMP JUMPDEST JUMPDEST DUP1 PUSH1 0x40 MSTORE POP POP POP JUMP JUMPDEST PUSH1 0x0 PUSH2 0x8A8 PUSH2 0x702 JUMP JUMPDEST SWAP1 POP PUSH2 0x8B4 DUP3 DUP3 PUSH2 0x86D JUMP JUMPDEST SWAP2 SWAP1 POP JUMP JUMPDEST PUSH1 0x0 DUP2 MLOAD SWAP1 POP PUSH2 0x8C8 DUP2 PUSH2 0x720 JUMP JUMPDEST SWAP3 SWAP2 POP POP JUMP JUMPDEST PUSH1 0x0 PUSH1 0x40 DUP3 DUP5 SUB SLT ISZERO PUSH2 0x8E4 JUMPI PUSH2 0x8E3 PUSH2 0x828 JUMP JUMPDEST JUMPDEST PUSH2 0x8EE PUSH1 0x40 PUSH2 0x89E JUMP JUMPDEST SWAP1 POP PUSH1 0x0 PUSH2 0x8FE DUP5 DUP3 DUP6 ADD PUSH2 0x8B9 JUMP JUMPDEST PUSH1 0x0 DUP4 ADD MSTORE POP PUSH1 0x20 PUSH2 0x912 DUP5 DUP3 DUP6 ADD PUSH2 0x8B9 JUMP JUMPDEST PUSH1 0x20 DUP4 ADD MSTORE POP SWAP3 SWAP2 POP POP JUMP JUMPDEST PUSH1 0x0 PUSH1 0x40 DUP3 DUP5 SUB SLT ISZERO PUSH2 0x934 JUMPI PUSH2 0x933 PUSH2 0x70C JUMP JUMPDEST JUMPDEST PUSH1 0x0 PUSH2 0x942 DUP5 DUP3 DUP6 ADD PUSH2 0x8CE JUMP JUMPDEST SWAP2 POP POP SWAP3 SWAP2 POP POP JUMP JUMPDEST PUSH2 0x954 DUP2 PUSH2 0x716 JUMP JUMPDEST DUP3 MSTORE POP POP JUMP JUMPDEST PUSH1 0x0 PUSH1 0x40 DUP3 ADD SWAP1 POP PUSH2 0x96F PUSH1 0x0 DUP4 ADD DUP6 PUSH2 0x94B JUMP JUMPDEST PUSH2 0x97C PUSH1 0x20 DUP4 ADD DUP5 PUSH2 0x94B JUMP JUMPDEST SWAP4 SWAP3 POP POP POP JUMP JUMPDEST PUSH1 0x0 PUSH1 0x40 DUP3 ADD SWAP1 POP PUSH2 0x998 PUSH1 0x0 DUP4 ADD DUP6 PUSH2 0x7FE JUMP JUMPDEST PUSH2 0x9A5 PUSH1 0x20 DUP4 ADD DUP5 PUSH2 0x94B JUMP JUMPDEST SWAP4 SWAP3 POP POP POP JUMP JUMPDEST PUSH1 0x0 DUP2 ISZERO ISZERO SWAP1 POP SWAP2 SWAP1 POP JUMP JUMPDEST PUSH2 0x9C1 DUP2 PUSH2 0x9AC JUMP JUMPDEST DUP2 EQ PUSH2 0x9CC JUMPI PUSH1 0x0 DUP1 REVERT JUMPDEST POP JUMP JUMPDEST PUSH1 0x0 DUP2 MLOAD SWAP1 POP PUSH2 0x9DE DUP2 PUSH2 0x9B8 JUMP JUMPDEST SWAP3 SWAP2 POP POP JUMP JUMPDEST PUSH1 0x0 PUSH1 0x20 DUP3 DUP5 SUB SLT ISZERO PUSH2 0x9FA JUMPI PUSH2 0x9F9 PUSH2 0x70C JUMP JUMPDEST JUMPDEST PUSH1 0x0 PUSH2 0xA08 DUP5 DUP3 DUP6 ADD PUSH2 0x9CF JUMP JUMPDEST SWAP2 POP POP SWAP3 SWAP2 POP POP JUMP JUMPDEST PUSH1 0x0 PUSH1 0x60 DUP3 ADD SWAP1 POP PUSH2 0xA26 PUSH1 0x0 DUP4 ADD DUP7 PUSH2 0x7FE JUMP JUMPDEST PUSH2 0xA33 PUSH1 0x20 DUP4 ADD DUP6 PUSH2 0x7FE JUMP JUMPDEST PUSH2 0xA40 PUSH1 0x40 DUP4 ADD DUP5 PUSH2 0x94B JUMP JUMPDEST SWAP5 SWAP4 POP POP POP POP JUMP JUMPDEST PUSH1 0x0 DUP3 DUP3 MSTORE PUSH1 0x20 DUP3 ADD SWAP1 POP SWAP3 SWAP2 POP POP JUMP JUMPDEST PUSH32 0x6D746F6B656E207472616E73666572206572726F722100000000000000000000 PUSH1 0x0 DUP3 ADD MSTORE POP JUMP JUMPDEST PUSH1 0x0 PUSH2 0xA8F PUSH1 0x16 DUP4 PUSH2 0xA48 JUMP JUMPDEST SWAP2 POP PUSH2 0xA9A DUP3 PUSH2 0xA59 JUMP JUMPDEST PUSH1 0x20 DUP3 ADD SWAP1 POP SWAP2 SWAP1 POP JUMP JUMPDEST PUSH1 0x0 PUSH1 0x20 DUP3 ADD SWAP1 POP DUP2 DUP2 SUB PUSH1 0x0 DUP4 ADD MSTORE PUSH2 0xABE DUP2 PUSH2 0xA82 JUMP JUMPDEST SWAP1 POP SWAP2 SWAP1 POP JUMP JUMPDEST PUSH32 0x6D73672E76616C75652073686F756C642062696767676572207468616E20616D PUSH1 0x0 DUP3 ADD MSTORE PUSH32 0x6F756E744554484D696E00000000000000000000000000000000000000000000 PUSH1 0x20 DUP3 ADD MSTORE POP JUMP JUMPDEST PUSH1 0x0 PUSH2 0xB21 PUSH1 0x2A DUP4 PUSH2 0xA48 JUMP JUMPDEST SWAP2 POP PUSH2 0xB2C DUP3 PUSH2 0xAC5 JUMP JUMPDEST PUSH1 0x40 DUP3 ADD SWAP1 POP SWAP2 SWAP1 POP JUMP JUMPDEST PUSH1 0x0 PUSH1 0x20 DUP3 ADD SWAP1 POP DUP2 DUP2 SUB PUSH1 0x0 DUP4 ADD MSTORE PUSH2 0xB50 DUP2 PUSH2 0xB14 JUMP JUMPDEST SWAP1 POP SWAP2 SWAP1 POP JUMP JUMPDEST PUSH1 0x0 PUSH1 0xC0 DUP3 ADD SWAP1 POP PUSH2 0xB6C PUSH1 0x0 DUP4 ADD DUP10 PUSH2 0x7FE JUMP JUMPDEST PUSH2 0xB79 PUSH1 0x20 DUP4 ADD DUP9 PUSH2 0x94B JUMP JUMPDEST PUSH2 0xB86 PUSH1 0x40 DUP4 ADD DUP8 PUSH2 0x94B JUMP JUMPDEST PUSH2 0xB93 PUSH1 0x60 DUP4 ADD DUP7 PUSH2 0x94B JUMP JUMPDEST PUSH2 0xBA0 PUSH1 0x80 DUP4 ADD DUP6 PUSH2 0x7FE JUMP JUMPDEST PUSH2 0xBAD PUSH1 0xA0 DUP4 ADD DUP5 PUSH2 0x94B JUMP JUMPDEST SWAP8 SWAP7 POP POP POP POP POP POP POP JUMP JUMPDEST PUSH1 0x0 DUP1 PUSH1 0x0 PUSH1 0x60 DUP5 DUP7 SUB SLT ISZERO PUSH2 0xBD1 JUMPI PUSH2 0xBD0 PUSH2 0x70C JUMP JUMPDEST JUMPDEST PUSH1 0x0 PUSH2 0xBDF DUP7 DUP3 DUP8 ADD PUSH2 0x8B9 JUMP JUMPDEST SWAP4 POP POP PUSH1 0x20 PUSH2 0xBF0 DUP7 DUP3 DUP8 ADD PUSH2 0x8B9 JUMP JUMPDEST SWAP3 POP POP PUSH1 0x40 PUSH2 0xC01 DUP7 DUP3 DUP8 ADD PUSH2 0x8B9 JUMP JUMPDEST SWAP2 POP POP SWAP3 POP SWAP3 POP SWAP3 JUMP JUMPDEST PUSH1 0x0 DUP2 SWAP1 POP SWAP2 SWAP1 POP JUMP JUMPDEST PUSH1 0x0 DUP2 SWAP1 POP SWAP2 SWAP1 POP JUMP JUMPDEST PUSH1 0x0 PUSH2 0xC3A PUSH2 0xC35 PUSH2 0xC30 DUP5 PUSH2 0xC0B JUMP JUMPDEST PUSH2 0xC15 JUMP JUMPDEST PUSH2 0x716 JUMP JUMPDEST SWAP1 POP SWAP2 SWAP1 POP JUMP JUMPDEST PUSH2 0xC4A DUP2 PUSH2 0xC1F JUMP JUMPDEST DUP3 MSTORE POP POP JUMP JUMPDEST PUSH1 0x0 PUSH1 0x40 DUP3 ADD SWAP1 POP PUSH2 0xC65 PUSH1 0x0 DUP4 ADD DUP6 PUSH2 0xC41 JUMP JUMPDEST PUSH2 0xC72 PUSH1 0x20 DUP4 ADD DUP5 PUSH2 0x94B JUMP JUMPDEST SWAP4 SWAP3 POP POP POP JUMP JUMPDEST PUSH32 0x4E487B7100000000000000000000000000000000000000000000000000000000 PUSH1 0x0 MSTORE PUSH1 0x32 PUSH1 0x4 MSTORE PUSH1 0x24 PUSH1 0x0 REVERT JUMPDEST PUSH1 0x0 DUP2 MLOAD SWAP1 POP SWAP2 SWAP1 POP JUMP JUMPDEST PUSH1 0x0 DUP3 DUP3 MSTORE PUSH1 0x20 DUP3 ADD SWAP1 POP SWAP3 SWAP2 POP POP JUMP JUMPDEST PUSH1 0x0 DUP2 SWAP1 POP PUSH1 0x20 DUP3 ADD SWAP1 POP SWAP2 SWAP1 POP JUMP JUMPDEST PUSH2 0xCDD DUP2 PUSH2 0x7EC JUMP JUMPDEST DUP3 MSTORE POP POP JUMP JUMPDEST PUSH1 0x0 PUSH2 0xCEF DUP4 DUP4 PUSH2 0xCD4 JUMP JUMPDEST PUSH1 0x20 DUP4 ADD SWAP1 POP SWAP3 SWAP2 POP POP JUMP JUMPDEST PUSH1 0x0 PUSH1 0x20 DUP3 ADD SWAP1 POP SWAP2 SWAP1 POP JUMP JUMPDEST PUSH1 0x0 PUSH2 0xD13 DUP3 PUSH2 0xCA8 JUMP JUMPDEST PUSH2 0xD1D DUP2 DUP6 PUSH2 0xCB3 JUMP JUMPDEST SWAP4 POP PUSH2 0xD28 DUP4 PUSH2 0xCC4 JUMP JUMPDEST DUP1 PUSH1 0x0 JUMPDEST DUP4 DUP2 LT ISZERO PUSH2 0xD59 JUMPI DUP2 MLOAD PUSH2 0xD40 DUP9 DUP3 PUSH2 0xCE3 JUMP JUMPDEST SWAP8 POP PUSH2 0xD4B DUP4 PUSH2 0xCFB JUMP JUMPDEST SWAP3 POP POP PUSH1 0x1 DUP2 ADD SWAP1 POP PUSH2 0xD2C JUMP JUMPDEST POP DUP6 SWAP4 POP POP POP POP SWAP3 SWAP2 POP POP JUMP JUMPDEST PUSH1 0x0 PUSH1 0x80 DUP3 ADD SWAP1 POP PUSH2 0xD7B PUSH1 0x0 DUP4 ADD DUP8 PUSH2 0x94B JUMP JUMPDEST DUP2 DUP2 SUB PUSH1 0x20 DUP4 ADD MSTORE PUSH2 0xD8D DUP2 DUP7 PUSH2 0xD08 JUMP JUMPDEST SWAP1 POP PUSH2 0xD9C PUSH1 0x40 DUP4 ADD DUP6 PUSH2 0x7FE JUMP JUMPDEST PUSH2 0xDA9 PUSH1 0x60 DUP4 ADD DUP5 PUSH2 0x94B JUMP JUMPDEST SWAP6 SWAP5 POP POP POP POP POP JUMP JUMPDEST PUSH1 0x0 DUP1 REVERT JUMPDEST PUSH1 0x0 PUSH8 0xFFFFFFFFFFFFFFFF DUP3 GT ISZERO PUSH2 0xDD2 JUMPI PUSH2 0xDD1 PUSH2 0x83E JUMP JUMPDEST JUMPDEST PUSH1 0x20 DUP3 MUL SWAP1 POP PUSH1 0x20 DUP2 ADD SWAP1 POP SWAP2 SWAP1 POP JUMP JUMPDEST PUSH1 0x0 DUP1 REVERT JUMPDEST PUSH1 0x0 PUSH2 0xDFB PUSH2 0xDF6 DUP5 PUSH2 0xDB7 JUMP JUMPDEST PUSH2 0x89E JUMP JUMPDEST SWAP1 POP DUP1 DUP4 DUP3 MSTORE PUSH1 0x20 DUP3 ADD SWAP1 POP PUSH1 0x20 DUP5 MUL DUP4 ADD DUP6 DUP2 GT ISZERO PUSH2 0xE1E JUMPI PUSH2 0xE1D PUSH2 0xDE3 JUMP JUMPDEST JUMPDEST DUP4 JUMPDEST DUP2 DUP2 LT ISZERO PUSH2 0xE47 JUMPI DUP1 PUSH2 0xE33 DUP9 DUP3 PUSH2 0x8B9 JUMP JUMPDEST DUP5 MSTORE PUSH1 0x20 DUP5 ADD SWAP4 POP POP PUSH1 0x20 DUP2 ADD SWAP1 POP PUSH2 0xE20 JUMP JUMPDEST POP POP POP SWAP4 SWAP3 POP POP POP JUMP JUMPDEST PUSH1 0x0 DUP3 PUSH1 0x1F DUP4 ADD SLT PUSH2 0xE66 JUMPI PUSH2 0xE65 PUSH2 0xDB2 JUMP JUMPDEST JUMPDEST DUP2 MLOAD PUSH2 0xE76 DUP5 DUP3 PUSH1 0x20 DUP7 ADD PUSH2 0xDE8 JUMP JUMPDEST SWAP2 POP POP SWAP3 SWAP2 POP POP JUMP JUMPDEST PUSH1 0x0 PUSH1 0x20 DUP3 DUP5 SUB SLT ISZERO PUSH2 0xE95 JUMPI PUSH2 0xE94 PUSH2 0x70C JUMP JUMPDEST JUMPDEST PUSH1 0x0 DUP3 ADD MLOAD PUSH8 0xFFFFFFFFFFFFFFFF DUP2 GT ISZERO PUSH2 0xEB3 JUMPI PUSH2 0xEB2 PUSH2 0x711 JUMP JUMPDEST JUMPDEST PUSH2 0xEBF DUP5 DUP3 DUP6 ADD PUSH2 0xE51 JUMP JUMPDEST SWAP2 POP POP SWAP3 SWAP2 POP POP JUMP INVALID LOG2 PUSH5 0x6970667358 0x22 SLT KECCAK256 JUMP 0xD2 DUP5 0xB0 0x22 SMOD DUP13 STOP PUSH30 0xA0CAAABD368DB3FE72061B2151515C7CB6E173EC2AAEB264736F6C634300 ADDMOD 0xD STOP CALLER "
				},
				"gasEstimates": {
					"creation": {
						"codeDepositCost": "767600",
						"executionCost": "201340",
						"totalCost": "968940"
					},
					"external": {
						"addLiquidity(uint256,uint256,uint256)": "infinite",
						"buyExactTokenByETH(uint256)": "infinite",
						"withdraw(uint256)": "infinite"
					}
				},
				"methodIdentifiers": {
					"addLiquidity(uint256,uint256,uint256)": "422f1043",
					"buyExactTokenByETH(uint256)": "a93f74e0",
					"withdraw(uint256)": "2e1a7d4d"
				}
			},
			"userdoc": {
				"kind": "user",
				"methods": {},
				"version": 1
			}
		}
	}
}