{
	"data": {
		"bytecode": {
			"linkReferences": {},
			"object": "60e06040523480156200001157600080fd5b506040516200560b3803806200560b833981810160405281019062000037919062000196565b336000806101000a81548173ffffffffffffffffffffffffffffffffffffffff021916908373ffffffffffffffffffffffffffffffffffffffff1602179055503373ffffffffffffffffffffffffffffffffffffffff16600073ffffffffffffffffffffffffffffffffffffffff167f8be0079c531659141344cd1fd0a4f28419497f9722a3daafe3b4186f6b6457e060405160405180910390a38273ffffffffffffffffffffffffffffffffffffffff1660808173ffffffffffffffffffffffffffffffffffffffff1660601b815250508173ffffffffffffffffffffffffffffffffffffffff1660a08173ffffffffffffffffffffffffffffffffffffffff1660601b815250508060c08181525050505050620002a0565b600081519050620001628162000252565b92915050565b60008151905062000179816200026c565b92915050565b600081519050620001908162000286565b92915050565b600080600060608486031215620001ac57600080fd5b6000620001bc8682870162000168565b9350506020620001cf8682870162000151565b9250506040620001e2868287016200017f565b9150509250925092565b6000620001f98262000228565b9050919050565b60006200020d82620001ec565b9050919050565b60006200022182620001ec565b9050919050565b600073ffffffffffffffffffffffffffffffffffffffff82169050919050565b6000819050919050565b6200025d8162000200565b81146200026957600080fd5b50565b620002778162000214565b81146200028357600080fd5b50565b620002918162000248565b81146200029d57600080fd5b50565b60805160601c60a05160601c60c051615306620003056000398061142e5280611d7852806122055280612c3d525080610d98528061282a5280612e6d52508061136052806113f25280611d3c5280612b605280612c0152806132c052506153066000f3fe6080604052600436106101d85760003560e01c806361621aaa11610102578063ab560e1011610095578063d1abb90711610064578063d1abb90714610695578063d2423b51146106be578063e30c3978146106ef578063edd8b1701461071a576101d8565b8063ab560e10146105d9578063ab7de09814610604578063b0bcf42a1461062d578063c346253d14610658576101d8565b806388bba42f116100d157806388bba42f1461051e5780638da5cb5b146105475780638dbdbe6d1461057257806393f1a40b1461059b576101d8565b806361621aaa1461046257806378ed5d1f1461048d5780637c516e94146104ca5780637cd07e47146104f3576101d8565b806319ab453c1161017a5780634e71e0c8116101495780634e71e0c8146103ce5780634f70b15a146103e557806351eb05a6146103fc57806357a5b58c14610439576101d8565b806319ab453c1461032a57806323cf3118146103535780632f940c701461037c578063454b0608146103a5576101d8565b80631526fe27116101b65780631526fe271461025a57806317caf6f11461029957806318fccc76146102c4578063195426ec146102ed576101d8565b8063078dfbe7146101dd578063081e3eda146102065780630ad58d2f14610231575b600080fd5b3480156101e957600080fd5b5061020460048036038101906101ff9190613c2f565b610745565b005b34801561021257600080fd5b5061021b610999565b6040516102289190614c65565b60405180910390f35b34801561023d57600080fd5b5061025860048036038101906102539190613fb8565b6109a6565b005b34801561026657600080fd5b50610281600480360381019061027c9190613edb565b610c3a565b60405161029093929190614c2e565b60405180910390f35b3480156102a557600080fd5b506102ae610cb1565b6040516102bb9190614c65565b60405180910390f35b3480156102d057600080fd5b506102eb60048036038101906102e69190613f2d565b610cb7565b005b3480156102f957600080fd5b50610314600480360381019061030f9190613f2d565b610f1d565b6040516103219190614c65565b60405180910390f35b34801561033657600080fd5b50610351600480360381019061034c9190613d44565b611244565b005b34801561035f57600080fd5b5061037a60048036038101906103759190613e48565b6114cd565b005b34801561038857600080fd5b506103a3600480360381019061039e9190613f2d565b61159f565b005b3480156103b157600080fd5b506103cc60048036038101906103c79190613edb565b6117c4565b005b3480156103da57600080fd5b506103e3611ba6565b005b3480156103f157600080fd5b506103fa611d3a565b005b34801561040857600080fd5b50610423600480360381019061041e9190613edb565b611dea565b6040516104309190614c13565b60405180910390f35b34801561044557600080fd5b50610460600480360381019061045b9190613cd6565b6121c3565b005b34801561046e57600080fd5b50610477612203565b6040516104849190614c65565b60405180910390f35b34801561049957600080fd5b506104b460048036038101906104af9190613edb565b612227565b6040516104c19190614985565b60405180910390f35b3480156104d657600080fd5b506104f160048036038101906104ec9190613d96565b612263565b005b3480156104ff57600080fd5b506105086122e4565b60405161051591906149bb565b60405180910390f35b34801561052a57600080fd5b5061054560048036038101906105409190614007565b61230a565b005b34801561055357600080fd5b5061055c61253d565b6040516105699190614849565b60405180910390f35b34801561057e57600080fd5b5061059960048036038101906105949190613fb8565b612561565b005b3480156105a757600080fd5b506105c260048036038101906105bd9190613f2d565b6127f7565b6040516105d0929190614df5565b60405180910390f35b3480156105e557600080fd5b506105ee612828565b6040516105fb9190614985565b60405180910390f35b34801561061057600080fd5b5061062b60048036038101906106269190613f69565b61284c565b005b34801561063957600080fd5b50610642612b5c565b60405161064f9190614c65565b60405180910390f35b34801561066457600080fd5b5061067f600480360381019061067a9190613edb565b612cf1565b60405161068c91906149d6565b60405180910390f35b3480156106a157600080fd5b506106bc60048036038101906106b79190613fb8565b612d2d565b005b6106d860048036038101906106d39190613c7e565b6130ba565b6040516106e692919061494e565b60405180910390f35b3480156106fb57600080fd5b50610704613298565b6040516107119190614849565b60405180910390f35b34801561072657600080fd5b5061072f6132be565b60405161073c91906149a0565b60405180910390f35b60008054906101000a900473ffffffffffffffffffffffffffffffffffffffff1673ffffffffffffffffffffffffffffffffffffffff163373ffffffffffffffffffffffffffffffffffffffff16146107d3576040517f08c379a00000000000000000000000000000000000000000000000000000000081526004016107ca90614b33565b60405180910390fd5b811561095257600073ffffffffffffffffffffffffffffffffffffffff168373ffffffffffffffffffffffffffffffffffffffff161415806108125750805b610851576040517f08c379a000000000000000000000000000000000000000000000000000000000815260040161084890614ab3565b60405180910390fd5b8273ffffffffffffffffffffffffffffffffffffffff1660008054906101000a900473ffffffffffffffffffffffffffffffffffffffff1673ffffffffffffffffffffffffffffffffffffffff167f8be0079c531659141344cd1fd0a4f28419497f9722a3daafe3b4186f6b6457e060405160405180910390a3826000806101000a81548173ffffffffffffffffffffffffffffffffffffffff021916908373ffffffffffffffffffffffffffffffffffffffff1602179055506000600160006101000a81548173ffffffffffffffffffffffffffffffffffffffff021916908373ffffffffffffffffffffffffffffffffffffffff160217905550610994565b82600160006101000a81548173ffffffffffffffffffffffffffffffffffffffff021916908373ffffffffffffffffffffffffffffffffffffffff1602179055505b505050565b6000600380549050905090565b6109ae6139a5565b6109b784611dea565b905060006006600086815260200190815260200160002060003373ffffffffffffffffffffffffffffffffffffffff1673ffffffffffffffffffffffffffffffffffffffff1681526020019081526020016000209050610a5a64e8d4a51000610a3f84600001516fffffffffffffffffffffffffffffffff16876132e290919063ffffffff16565b81610a4657fe5b04826001015461334490919063ffffffff16565b8160010181905550610a798482600001546133bc90919063ffffffff16565b8160000181905550600060058681548110610a9057fe5b9060005260206000200160009054906101000a900473ffffffffffffffffffffffffffffffffffffffff169050600073ffffffffffffffffffffffffffffffffffffffff168173ffffffffffffffffffffffffffffffffffffffff1614610b6a578073ffffffffffffffffffffffffffffffffffffffff16638bf63742873387600087600001546040518663ffffffff1660e01b8152600401610b37959493929190614cd3565b600060405180830381600087803b158015610b5157600080fd5b505af1158015610b65573d6000803e3d6000fd5b505050505b610bcc848660048981548110610b7c57fe5b9060005260206000200160009054906101000a900473ffffffffffffffffffffffffffffffffffffffff1673ffffffffffffffffffffffffffffffffffffffff1661340c9092919063ffffffff16565b8373ffffffffffffffffffffffffffffffffffffffff16863373ffffffffffffffffffffffffffffffffffffffff167f8166bf25f8a2b7ed3c85049207da4358d16edbed977d23fa2ee6f0dde3ec213288604051610c2a9190614c65565b60405180910390a4505050505050565b60038181548110610c4757fe5b906000526020600020016000915090508060000160009054906101000a90046fffffffffffffffffffffffffffffffff16908060000160109054906101000a900467ffffffffffffffff16908060000160189054906101000a900467ffffffffffffffff16905083565b60075481565b610cbf6139a5565b610cc883611dea565b905060006006600085815260200190815260200160002060003373ffffffffffffffffffffffffffffffffffffffff1673ffffffffffffffffffffffffffffffffffffffff1681526020019081526020016000209050600064e8d4a51000610d5384600001516fffffffffffffffffffffffffffffffff1684600001546132e290919063ffffffff16565b81610d5a57fe5b0490506000610d7e610d7984600101548461334490919063ffffffff16565b613562565b905081836001018190555060008114610ddd57610ddc85827f000000000000000000000000000000000000000000000000000000000000000073ffffffffffffffffffffffffffffffffffffffff1661340c9092919063ffffffff16565b5b600060058781548110610dec57fe5b9060005260206000200160009054906101000a900473ffffffffffffffffffffffffffffffffffffffff169050600073ffffffffffffffffffffffffffffffffffffffff168173ffffffffffffffffffffffffffffffffffffffff1614610ec5578073ffffffffffffffffffffffffffffffffffffffff16638bf637428833898689600001546040518663ffffffff1660e01b8152600401610e92959493929190614d26565b600060405180830381600087803b158015610eac57600080fd5b505af1158015610ec0573d6000803e3d6000fd5b505050505b863373ffffffffffffffffffffffffffffffffffffffff167f71bab65ced2e5750775a0613be067df48ef06cf92a496ebf7663ae066092495484604051610f0c9190614c65565b60405180910390a350505050505050565b6000610f276139a5565b60038481548110610f3457fe5b906000526020600020016040518060600160405290816000820160009054906101000a90046fffffffffffffffffffffffffffffffff166fffffffffffffffffffffffffffffffff166fffffffffffffffffffffffffffffffff1681526020016000820160109054906101000a900467ffffffffffffffff1667ffffffffffffffff1667ffffffffffffffff1681526020016000820160189054906101000a900467ffffffffffffffff1667ffffffffffffffff1667ffffffffffffffff1681525050905060006006600086815260200190815260200160002060008573ffffffffffffffffffffffffffffffffffffffff1673ffffffffffffffffffffffffffffffffffffffff1681526020019081526020016000209050600082600001516fffffffffffffffffffffffffffffffff16905060006004878154811061107757fe5b9060005260206000200160009054906101000a900473ffffffffffffffffffffffffffffffffffffffff1673ffffffffffffffffffffffffffffffffffffffff166370a08231306040518263ffffffff1660e01b81526004016110da9190614849565b60206040518083038186803b1580156110f257600080fd5b505afa158015611106573d6000803e3d6000fd5b505050506040513d601f19601f8201168201806040525081019061112a9190613f04565b9050836020015167ffffffffffffffff164311801561114a575060008114155b156111f5576000611172856020015167ffffffffffffffff16436133bc90919063ffffffff16565b905060006007546111b3876040015167ffffffffffffffff166111a5611196612b5c565b866132e290919063ffffffff16565b6132e290919063ffffffff16565b816111ba57fe5b0490506111f0836111d964e8d4a51000846132e290919063ffffffff16565b816111e057fe5b04856135af90919063ffffffff16565b935050505b611238611233846001015464e8d4a5100061121d8688600001546132e290919063ffffffff16565b8161122457fe5b0461334490919063ffffffff16565b613562565b94505050505092915050565b60008173ffffffffffffffffffffffffffffffffffffffff166370a08231336040518263ffffffff1660e01b815260040161127f9190614864565b60206040518083038186803b15801561129757600080fd5b505afa1580156112ab573d6000803e3d6000fd5b505050506040513d601f19601f820116820180604052508101906112cf9190613f04565b90506000811415611315576040517f08c379a000000000000000000000000000000000000000000000000000000000815260040161130c90614a53565b60405180910390fd5b6113423330838573ffffffffffffffffffffffffffffffffffffffff166135ff909392919063ffffffff16565b8173ffffffffffffffffffffffffffffffffffffffff1663095ea7b37f0000000000000000000000000000000000000000000000000000000000000000836040518363ffffffff1660e01b815260040161139d929190614925565b602060405180830381600087803b1580156113b757600080fd5b505af11580156113cb573d6000803e3d6000fd5b505050506040513d601f19601f820116820180604052508101906113ef9190613d1b565b507f000000000000000000000000000000000000000000000000000000000000000073ffffffffffffffffffffffffffffffffffffffff1663e2bbb1587f0000000000000000000000000000000000000000000000000000000000000000836040518363ffffffff1660e01b815260040161146b929190614e47565b600060405180830381600087803b15801561148557600080fd5b505af1158015611499573d6000803e3d6000fd5b505050507f98a9bd3b7a617581fc53b1e2992534e0e0cb5091c9d44aa1a7fc978f706caa8360405160405180910390a15050565b60008054906101000a900473ffffffffffffffffffffffffffffffffffffffff1673ffffffffffffffffffffffffffffffffffffffff163373ffffffffffffffffffffffffffffffffffffffff161461155b576040517f08c379a000000000000000000000000000000000000000000000000000000000815260040161155290614b33565b60405180910390fd5b80600260006101000a81548173ffffffffffffffffffffffffffffffffffffffff021916908373ffffffffffffffffffffffffffffffffffffffff16021790555050565b60006006600084815260200190815260200160002060003373ffffffffffffffffffffffffffffffffffffffff1673ffffffffffffffffffffffffffffffffffffffff1681526020019081526020016000209050600081600001549050600082600001819055506000826001018190555060006005858154811061161f57fe5b9060005260206000200160009054906101000a900473ffffffffffffffffffffffffffffffffffffffff169050600073ffffffffffffffffffffffffffffffffffffffff168173ffffffffffffffffffffffffffffffffffffffff16146116f5578073ffffffffffffffffffffffffffffffffffffffff16638bf637428633876000806040518663ffffffff1660e01b81526004016116c2959493929190614c80565b600060405180830381600087803b1580156116dc57600080fd5b505af11580156116f0573d6000803e3d6000fd5b505050505b61175784836004888154811061170757fe5b9060005260206000200160009054906101000a900473ffffffffffffffffffffffffffffffffffffffff1673ffffffffffffffffffffffffffffffffffffffff1661340c9092919063ffffffff16565b8373ffffffffffffffffffffffffffffffffffffffff16853373ffffffffffffffffffffffffffffffffffffffff167f2cac5e20e1541d836381527a43f651851e302817b71dc8e810284e69210c1c6b856040516117b59190614c65565b60405180910390a45050505050565b600073ffffffffffffffffffffffffffffffffffffffff16600260009054906101000a900473ffffffffffffffffffffffffffffffffffffffff1673ffffffffffffffffffffffffffffffffffffffff161415611856576040517f08c379a000000000000000000000000000000000000000000000000000000000815260040161184d90614b93565b60405180910390fd5b60006004828154811061186557fe5b9060005260206000200160009054906101000a900473ffffffffffffffffffffffffffffffffffffffff16905060008173ffffffffffffffffffffffffffffffffffffffff166370a08231306040518263ffffffff1660e01b81526004016118cd9190614849565b60206040518083038186803b1580156118e557600080fd5b505afa1580156118f9573d6000803e3d6000fd5b505050506040513d601f19601f8201168201806040525081019061191d9190613f04565b90508173ffffffffffffffffffffffffffffffffffffffff1663095ea7b3600260009054906101000a900473ffffffffffffffffffffffffffffffffffffffff16836040518363ffffffff1660e01b815260040161197c929190614925565b602060405180830381600087803b15801561199657600080fd5b505af11580156119aa573d6000803e3d6000fd5b505050506040513d601f19601f820116820180604052508101906119ce9190613d1b565b506000600260009054906101000a900473ffffffffffffffffffffffffffffffffffffffff1673ffffffffffffffffffffffffffffffffffffffff1663ce5494bb846040518263ffffffff1660e01b8152600401611a2c9190614985565b602060405180830381600087803b158015611a4657600080fd5b505af1158015611a5a573d6000803e3d6000fd5b505050506040513d601f19601f82011682018060405250810190611a7e9190613d6d565b90508073ffffffffffffffffffffffffffffffffffffffff166370a08231306040518263ffffffff1660e01b8152600401611ab99190614849565b60206040518083038186803b158015611ad157600080fd5b505afa158015611ae5573d6000803e3d6000fd5b505050506040513d601f19601f82011682018060405250810190611b099190613f04565b8214611b4a576040517f08c379a0000000000000000000000000000000000000000000000000000000008152600401611b4190614ad3565b60405180910390fd5b8060048581548110611b5857fe5b9060005260206000200160006101000a81548173ffffffffffffffffffffffffffffffffffffffff021916908373ffffffffffffffffffffffffffffffffffffffff16021790555050505050565b6000600160009054906101000a900473ffffffffffffffffffffffffffffffffffffffff1690508073ffffffffffffffffffffffffffffffffffffffff163373ffffffffffffffffffffffffffffffffffffffff1614611c3b576040517f08c379a0000000000000000000000000000000000000000000000000000000008152600401611c3290614b53565b60405180910390fd5b8073ffffffffffffffffffffffffffffffffffffffff1660008054906101000a900473ffffffffffffffffffffffffffffffffffffffff1673ffffffffffffffffffffffffffffffffffffffff167f8be0079c531659141344cd1fd0a4f28419497f9722a3daafe3b4186f6b6457e060405160405180910390a3806000806101000a81548173ffffffffffffffffffffffffffffffffffffffff021916908373ffffffffffffffffffffffffffffffffffffffff1602179055506000600160006101000a81548173ffffffffffffffffffffffffffffffffffffffff021916908373ffffffffffffffffffffffffffffffffffffffff16021790555050565b7f000000000000000000000000000000000000000000000000000000000000000073ffffffffffffffffffffffffffffffffffffffff1663e2bbb1587f000000000000000000000000000000000000000000000000000000000000000060006040518363ffffffff1660e01b8152600401611db6929190614e1e565b600060405180830381600087803b158015611dd057600080fd5b505af1158015611de4573d6000803e3d6000fd5b50505050565b611df26139a5565b60038281548110611dff57fe5b906000526020600020016040518060600160405290816000820160009054906101000a90046fffffffffffffffffffffffffffffffff166fffffffffffffffffffffffffffffffff166fffffffffffffffffffffffffffffffff1681526020016000820160109054906101000a900467ffffffffffffffff1667ffffffffffffffff1667ffffffffffffffff1681526020016000820160189054906101000a900467ffffffffffffffff1667ffffffffffffffff1667ffffffffffffffff16815250509050806020015167ffffffffffffffff164311156121be57600060048381548110611ee957fe5b9060005260206000200160009054906101000a900473ffffffffffffffffffffffffffffffffffffffff1673ffffffffffffffffffffffffffffffffffffffff166370a08231306040518263ffffffff1660e01b8152600401611f4c9190614849565b60206040518083038186803b158015611f6457600080fd5b505afa158015611f78573d6000803e3d6000fd5b505050506040513d601f19601f82011682018060405250810190611f9c9190613f04565b90506000811115612098576000611fca836020015167ffffffffffffffff16436133bc90919063ffffffff16565b9050600060075461200b856040015167ffffffffffffffff16611ffd611fee612b5c565b866132e290919063ffffffff16565b6132e290919063ffffffff16565b8161201257fe5b0490506120666120418461203464e8d4a51000856132e290919063ffffffff16565b8161203b57fe5b04613758565b85600001516fffffffffffffffffffffffffffffffff166137d790919063ffffffff16565b84600001906fffffffffffffffffffffffffffffffff1690816fffffffffffffffffffffffffffffffff168152505050505b6120a14361384b565b826020019067ffffffffffffffff16908167ffffffffffffffff168152505081600384815481106120ce57fe5b9060005260206000200160008201518160000160006101000a8154816fffffffffffffffffffffffffffffffff02191690836fffffffffffffffffffffffffffffffff16021790555060208201518160000160106101000a81548167ffffffffffffffff021916908367ffffffffffffffff16021790555060408201518160000160186101000a81548167ffffffffffffffff021916908367ffffffffffffffff160217905550905050827f0fc9545022a542541ad085d091fb09a2ab36fee366a4576ab63714ea907ad35383602001518385600001516040516121b493929190614e70565b60405180910390a2505b919050565b600082829050905060005b818110156121fd576121f18484838181106121e557fe5b90506020020135611dea565b508060010190506121ce565b50505050565b7f000000000000000000000000000000000000000000000000000000000000000081565b6004818154811061223457fe5b906000526020600020016000915054906101000a900473ffffffffffffffffffffffffffffffffffffffff1681565b8773ffffffffffffffffffffffffffffffffffffffff1663d505accf888888888888886040518863ffffffff1660e01b81526004016122a897969594939291906148b6565b600060405180830381600087803b1580156122c257600080fd5b505af11580156122d6573d6000803e3d6000fd5b505050505050505050505050565b600260009054906101000a900473ffffffffffffffffffffffffffffffffffffffff1681565b60008054906101000a900473ffffffffffffffffffffffffffffffffffffffff1673ffffffffffffffffffffffffffffffffffffffff163373ffffffffffffffffffffffffffffffffffffffff1614612398576040517f08c379a000000000000000000000000000000000000000000000000000000000815260040161238f90614b33565b60405180910390fd5b6123f7836123e9600387815481106123ac57fe5b9060005260206000200160000160189054906101000a900467ffffffffffffffff1667ffffffffffffffff166007546133bc90919063ffffffff16565b6135af90919063ffffffff16565b6007819055506124068361384b565b6003858154811061241357fe5b9060005260206000200160000160186101000a81548167ffffffffffffffff021916908367ffffffffffffffff16021790555080156124a357816005858154811061245a57fe5b9060005260206000200160006101000a81548173ffffffffffffffffffffffffffffffffffffffff021916908373ffffffffffffffffffffffffffffffffffffffff1602179055505b806124e557600584815481106124b557fe5b9060005260206000200160009054906101000a900473ffffffffffffffffffffffffffffffffffffffff166124e7565b815b73ffffffffffffffffffffffffffffffffffffffff16847f95895a6ab1df54420d241b55243258a33e61b2194db66c1179ec521aae8e1865858460405161252f929190614dcc565b60405180910390a350505050565b60008054906101000a900473ffffffffffffffffffffffffffffffffffffffff1681565b6125696139a5565b61257284611dea565b905060006006600086815260200190815260200160002060008473ffffffffffffffffffffffffffffffffffffffff1673ffffffffffffffffffffffffffffffffffffffff16815260200190815260200160002090506125df8482600001546135af90919063ffffffff16565b816000018190555061263464e8d4a5100061261984600001516fffffffffffffffffffffffffffffffff16876132e290919063ffffffff16565b8161262057fe5b0482600101546138c290919063ffffffff16565b816001018190555060006005868154811061264b57fe5b9060005260206000200160009054906101000a900473ffffffffffffffffffffffffffffffffffffffff169050600073ffffffffffffffffffffffffffffffffffffffff168173ffffffffffffffffffffffffffffffffffffffff1614612725578073ffffffffffffffffffffffffffffffffffffffff16638bf63742878687600087600001546040518663ffffffff1660e01b81526004016126f2959493929190614d79565b600060405180830381600087803b15801561270c57600080fd5b505af1158015612720573d6000803e3d6000fd5b505050505b61278933308760048a8154811061273857fe5b9060005260206000200160009054906101000a900473ffffffffffffffffffffffffffffffffffffffff1673ffffffffffffffffffffffffffffffffffffffff166135ff909392919063ffffffff16565b8373ffffffffffffffffffffffffffffffffffffffff16863373ffffffffffffffffffffffffffffffffffffffff167f02d7e648dd130fc184d383e55bb126ac4c9c60e8f94bf05acdf557ba2d540b47886040516127e79190614c65565b60405180910390a4505050505050565b6006602052816000526040600020602052806000526040600020600091509150508060000154908060010154905082565b7f000000000000000000000000000000000000000000000000000000000000000081565b60008054906101000a900473ffffffffffffffffffffffffffffffffffffffff1673ffffffffffffffffffffffffffffffffffffffff163373ffffffffffffffffffffffffffffffffffffffff16146128da576040517f08c379a00000000000000000000000000000000000000000000000000000000081526004016128d190614b33565b60405180910390fd5b60004390506128f4846007546135af90919063ffffffff16565b6007819055506004839080600181540180825580915050600190039060005260206000200160009091909190916101000a81548173ffffffffffffffffffffffffffffffffffffffff021916908373ffffffffffffffffffffffffffffffffffffffff1602179055506005829080600181540180825580915050600190039060005260206000200160009091909190916101000a81548173ffffffffffffffffffffffffffffffffffffffff021916908373ffffffffffffffffffffffffffffffffffffffff1602179055506003604051806060016040528060006fffffffffffffffffffffffffffffffff1681526020016129ef8461384b565b67ffffffffffffffff168152602001612a078761384b565b67ffffffffffffffff168152509080600181540180825580915050600190039060005260206000200160009091909190915060008201518160000160006101000a8154816fffffffffffffffffffffffffffffffff02191690836fffffffffffffffffffffffffffffffff16021790555060208201518160000160106101000a81548167ffffffffffffffff021916908367ffffffffffffffff16021790555060408201518160000160186101000a81548167ffffffffffffffff021916908367ffffffffffffffff16021790555050508173ffffffffffffffffffffffffffffffffffffffff168373ffffffffffffffffffffffffffffffffffffffff16612b1f60016004805490506133bc90919063ffffffff16565b7f81ee0f8c5c46e2cb41984886f77a84181724abb86c32a5f6de539b07509d45e587604051612b4e9190614c65565b60405180910390a450505050565b60007f000000000000000000000000000000000000000000000000000000000000000073ffffffffffffffffffffffffffffffffffffffff166317caf6f16040518163ffffffff1660e01b815260040160206040518083038186803b158015612bc457600080fd5b505afa158015612bd8573d6000803e3d6000fd5b505050506040513d601f19601f82011682018060405250810190612bfc9190613f04565b612ce47f000000000000000000000000000000000000000000000000000000000000000073ffffffffffffffffffffffffffffffffffffffff16631526fe277f00000000000000000000000000000000000000000000000000000000000000006040518263ffffffff1660e01b8152600401612c789190614c65565b60806040518083038186803b158015612c9057600080fd5b505afa158015612ca4573d6000803e3d6000fd5b505050506040513d601f19601f82011682018060405250810190612cc89190613eb2565b6020015168056bc75e2d631000006132e290919063ffffffff16565b81612ceb57fe5b04905090565b60058181548110612cfe57fe5b906000526020600020016000915054906101000a900473ffffffffffffffffffffffffffffffffffffffff1681565b612d356139a5565b612d3e84611dea565b905060006006600086815260200190815260200160002060003373ffffffffffffffffffffffffffffffffffffffff1673ffffffffffffffffffffffffffffffffffffffff1681526020019081526020016000209050600064e8d4a51000612dc984600001516fffffffffffffffffffffffffffffffff1684600001546132e290919063ffffffff16565b81612dd057fe5b0490506000612df4612def84600101548461334490919063ffffffff16565b613562565b9050612e3f64e8d4a51000612e2886600001516fffffffffffffffffffffffffffffffff16896132e290919063ffffffff16565b81612e2f57fe5b048361334490919063ffffffff16565b8360010181905550612e5e8684600001546133bc90919063ffffffff16565b8360000181905550612eb185827f000000000000000000000000000000000000000000000000000000000000000073ffffffffffffffffffffffffffffffffffffffff1661340c9092919063ffffffff16565b600060058881548110612ec057fe5b9060005260206000200160009054906101000a900473ffffffffffffffffffffffffffffffffffffffff169050600073ffffffffffffffffffffffffffffffffffffffff168173ffffffffffffffffffffffffffffffffffffffff1614612f99578073ffffffffffffffffffffffffffffffffffffffff16638bf637428933898689600001546040518663ffffffff1660e01b8152600401612f66959493929190614d26565b600060405180830381600087803b158015612f8057600080fd5b505af1158015612f94573d6000803e3d6000fd5b505050505b612ffb868860048b81548110612fab57fe5b9060005260206000200160009054906101000a900473ffffffffffffffffffffffffffffffffffffffff1673ffffffffffffffffffffffffffffffffffffffff1661340c9092919063ffffffff16565b8573ffffffffffffffffffffffffffffffffffffffff16883373ffffffffffffffffffffffffffffffffffffffff167f8166bf25f8a2b7ed3c85049207da4358d16edbed977d23fa2ee6f0dde3ec21328a6040516130599190614c65565b60405180910390a4873373ffffffffffffffffffffffffffffffffffffffff167f71bab65ced2e5750775a0613be067df48ef06cf92a496ebf7663ae0660924954846040516130a89190614c65565b60405180910390a35050505050505050565b6060808484905067ffffffffffffffff811180156130d757600080fd5b506040519080825280602002602001820160405280156131065781602001602082028036833780820191505090505b5091508484905067ffffffffffffffff8111801561312357600080fd5b5060405190808252806020026020018201604052801561315757816020015b60608152602001906001900390816131425790505b50905060005b8585905081101561328f57600060603073ffffffffffffffffffffffffffffffffffffffff1688888581811061318f57fe5b90506020028101906131a19190614ea7565b6040516131af929190614819565b600060405180830381855af49150503d80600081146131ea576040519150601f19603f3d011682016040523d82523d6000602084013e6131ef565b606091505b509150915081806131fe575085155b6132078261393a565b90613248576040517f08c379a000000000000000000000000000000000000000000000000000000000815260040161323f91906149f1565b60405180910390fd5b508185848151811061325657fe5b6020026020010190151590811515815250508084848151811061327557fe5b60200260200101819052505050808060010191505061315d565b50935093915050565b600160009054906101000a900473ffffffffffffffffffffffffffffffffffffffff1681565b7f000000000000000000000000000000000000000000000000000000000000000081565b6000808214806132ff57508282838502925082816132fc57fe5b04145b61333e576040517f08c379a000000000000000000000000000000000000000000000000000000000815260040161333590614bf3565b60405180910390fd5b92915050565b60008082840390506000831215801561335d5750838113155b80613373575060008312801561337257508381135b5b6133b2576040517f08c379a00000000000000000000000000000000000000000000000000000000081526004016133a990614bb3565b60405180910390fd5b8091505092915050565b6000828284039150811115613406576040517f08c379a00000000000000000000000000000000000000000000000000000000081526004016133fd90614a13565b60405180910390fd5b92915050565b600060608473ffffffffffffffffffffffffffffffffffffffff1663a9059cbb60e01b8585604051602401613442929190614925565b604051602081830303815290604052907bffffffffffffffffffffffffffffffffffffffffffffffffffffffff19166020820180517bffffffffffffffffffffffffffffffffffffffffffffffffffffffff83818316178352505050506040516134ac9190614832565b6000604051808303816000865af19150503d80600081146134e9576040519150601f19603f3d011682016040523d82523d6000602084013e6134ee565b606091505b509150915081801561351c575060008151148061351b57508080602001905181019061351a9190613d1b565b5b5b61355b576040517f08c379a000000000000000000000000000000000000000000000000000000000815260040161355290614a73565b60405180910390fd5b5050505050565b6000808212156135a7576040517f08c379a000000000000000000000000000000000000000000000000000000000815260040161359e90614a33565b60405180910390fd5b819050919050565b60008182840191508110156135f9576040517f08c379a00000000000000000000000000000000000000000000000000000000081526004016135f090614b13565b60405180910390fd5b92915050565b600060608573ffffffffffffffffffffffffffffffffffffffff166323b872dd60e01b8686866040516024016136379392919061487f565b604051602081830303815290604052907bffffffffffffffffffffffffffffffffffffffffffffffffffffffff19166020820180517bffffffffffffffffffffffffffffffffffffffffffffffffffffffff83818316178352505050506040516136a19190614832565b6000604051808303816000865af19150503d80600081146136de576040519150601f19603f3d011682016040523d82523d6000602084013e6136e3565b606091505b5091509150818015613711575060008151148061371057508080602001905181019061370f9190613d1b565b5b5b613750576040517f08c379a000000000000000000000000000000000000000000000000000000000815260040161374790614bd3565b60405180910390fd5b505050505050565b60007fffffffffffffffffffffffffffffffffffffffffffffffffffffffffffffffff6fffffffffffffffffffffffffffffffff168211156137cf576040517f08c379a00000000000000000000000000000000000000000000000000000000081526004016137c690614af3565b60405180910390fd5b819050919050565b6000816fffffffffffffffffffffffffffffffff168284019150816fffffffffffffffffffffffffffffffff161015613845576040517f08c379a000000000000000000000000000000000000000000000000000000000815260040161383c90614b13565b60405180910390fd5b92915050565b60007fffffffffffffffffffffffffffffffffffffffffffffffffffffffffffffffff67ffffffffffffffff168211156138ba576040517f08c379a00000000000000000000000000000000000000000000000000000000081526004016138b190614b73565b60405180910390fd5b819050919050565b6000808284019050600083121580156138db5750838112155b806138f157506000831280156138f057508381125b5b613930576040517f08c379a000000000000000000000000000000000000000000000000000000000815260040161392790614a93565b60405180910390fd5b8091505092915050565b6060604482511015613983576040518060400160405280601d81526020017f5472616e73616374696f6e2072657665727465642073696c656e746c7900000081525090506139a0565b6004820191508180602001905181019061399d9190613e71565b90505b919050565b604051806060016040528060006fffffffffffffffffffffffffffffffff168152602001600067ffffffffffffffff168152602001600067ffffffffffffffff1681525090565b6000813590506139fb81615218565b92915050565b60008083601f840112613a1357600080fd5b8235905067ffffffffffffffff811115613a2c57600080fd5b602083019150836020820283011115613a4457600080fd5b9250929050565b60008083601f840112613a5d57600080fd5b8235905067ffffffffffffffff811115613a7657600080fd5b602083019150836020820283011115613a8e57600080fd5b9250929050565b600081359050613aa48161522f565b92915050565b600081519050613ab98161522f565b92915050565b600081359050613ace81615246565b92915050565b600081359050613ae38161525d565b92915050565b600081519050613af88161525d565b92915050565b600081359050613b0d81615274565b92915050565b600081359050613b228161528b565b92915050565b600082601f830112613b3957600080fd5b8151613b4c613b4782614f2b565b614efe565b91508082526020830160208301858383011115613b6857600080fd5b613b738382846151d4565b50505092915050565b600060808284031215613b8e57600080fd5b613b986080614efe565b90506000613ba884828501613ae9565b6000830152506020613bbc84828501613c05565b6020830152506040613bd084828501613c05565b6040830152506060613be484828501613c05565b60608301525092915050565b600081359050613bff816152a2565b92915050565b600081519050613c14816152a2565b92915050565b600081359050613c29816152b9565b92915050565b600080600060608486031215613c4457600080fd5b6000613c52868287016139ec565b9350506020613c6386828701613a95565b9250506040613c7486828701613a95565b9150509250925092565b600080600060408486031215613c9357600080fd5b600084013567ffffffffffffffff811115613cad57600080fd5b613cb986828701613a01565b93509350506020613ccc86828701613a95565b9150509250925092565b60008060208385031215613ce957600080fd5b600083013567ffffffffffffffff811115613d0357600080fd5b613d0f85828601613a4b565b92509250509250929050565b600060208284031215613d2d57600080fd5b6000613d3b84828501613aaa565b91505092915050565b600060208284031215613d5657600080fd5b6000613d6484828501613ad4565b91505092915050565b600060208284031215613d7f57600080fd5b6000613d8d84828501613ae9565b91505092915050565b600080600080600080600080610100898b031215613db357600080fd5b6000613dc18b828c01613ad4565b9850506020613dd28b828c016139ec565b9750506040613de38b828c016139ec565b9650506060613df48b828c01613bf0565b9550506080613e058b828c01613bf0565b94505060a0613e168b828c01613c1a565b93505060c0613e278b828c01613abf565b92505060e0613e388b828c01613abf565b9150509295985092959890939650565b600060208284031215613e5a57600080fd5b6000613e6884828501613afe565b91505092915050565b600060208284031215613e8357600080fd5b600082015167ffffffffffffffff811115613e9d57600080fd5b613ea984828501613b28565b91505092915050565b600060808284031215613ec457600080fd5b6000613ed284828501613b7c565b91505092915050565b600060208284031215613eed57600080fd5b6000613efb84828501613bf0565b91505092915050565b600060208284031215613f1657600080fd5b6000613f2484828501613c05565b91505092915050565b60008060408385031215613f4057600080fd5b6000613f4e85828601613bf0565b9250506020613f5f858286016139ec565b9150509250929050565b600080600060608486031215613f7e57600080fd5b6000613f8c86828701613bf0565b9350506020613f9d86828701613ad4565b9250506040613fae86828701613b13565b9150509250925092565b600080600060608486031215613fcd57600080fd5b6000613fdb86828701613bf0565b9350506020613fec86828701613bf0565b9250506040613ffd868287016139ec565b9150509250925092565b6000806000806080858703121561401d57600080fd5b600061402b87828801613bf0565b945050602061403c87828801613bf0565b935050604061404d87828801613b13565b925050606061405e87828801613a95565b91505092959194509250565b60006140768383614187565b60208301905092915050565b600061408e83836141d9565b905092915050565b61409f816150db565b82525050565b6140ae8161500c565b82525050565b60006140bf82614f77565b6140c98185614fbd565b93506140d483614f57565b8060005b838110156141055781516140ec888261406a565b97506140f783614fa3565b9250506001810190506140d8565b5085935050505092915050565b600061411d82614f82565b6141278185614fce565b93508360208202850161413985614f67565b8060005b8581101561417557848403895281516141568582614082565b945061416183614fb0565b925060208a0199505060018101905061413d565b50829750879550505050505092915050565b6141908161501e565b82525050565b61419f8161501e565b82525050565b6141ae8161502a565b82525050565b60006141c08385614ff0565b93506141cd8385846151c5565b82840190509392505050565b60006141e482614f8d565b6141ee8185614fdf565b93506141fe8185602086016151d4565b61420781615207565b840191505092915050565b600061421d82614f8d565b6142278185614ff0565b93506142378185602086016151d4565b80840191505092915050565b61424c816150ed565b82525050565b61425b81615111565b82525050565b61426a81615135565b82525050565b61427981615159565b82525050565b6142888161506a565b82525050565b6142978161517d565b82525050565b60006142a882614f98565b6142b28185614ffb565b93506142c28185602086016151d4565b6142cb81615207565b840191505092915050565b60006142e3601583614ffb565b91507f426f72696e674d6174683a20556e646572666c6f7700000000000000000000006000830152602082019050919050565b6000614323600b83614ffb565b91507f496e7465676572203c20300000000000000000000000000000000000000000006000830152602082019050919050565b6000614363602383614ffb565b91507f4d61737465724368656656323a2042616c616e6365206d75737420657863656560008301527f64203000000000000000000000000000000000000000000000000000000000006020830152604082019050919050565b60006143c9601c83614ffb565b91507f426f72696e6745524332303a205472616e73666572206661696c6564000000006000830152602082019050919050565b6000614409602183614ffb565b91507f5369676e6564536166654d6174683a206164646974696f6e206f766572666c6f60008301527f77000000000000000000000000000000000000000000000000000000000000006020830152604082019050919050565b600061446f601583614ffb565b91507f4f776e61626c653a207a65726f206164647265737300000000000000000000006000830152602082019050919050565b60006144af602983614ffb565b91507f4d61737465724368656656323a206d696772617465642062616c616e6365206d60008301527f757374206d6174636800000000000000000000000000000000000000000000006020830152604082019050919050565b6000614515601c83614ffb565b91507f426f72696e674d6174683a2075696e74313238204f766572666c6f77000000006000830152602082019050919050565b6000614555601883614ffb565b91507f426f72696e674d6174683a20416464204f766572666c6f7700000000000000006000830152602082019050919050565b6000614595602083614ffb565b91507f4f776e61626c653a2063616c6c6572206973206e6f7420746865206f776e65726000830152602082019050919050565b60006145d5602083614ffb565b91507f4f776e61626c653a2063616c6c657220213d2070656e64696e67206f776e65726000830152602082019050919050565b6000614615601b83614ffb565b91507f426f72696e674d6174683a2075696e743634204f766572666c6f7700000000006000830152602082019050919050565b6000614655601d83614ffb565b91507f4d61737465724368656656323a206e6f206d69677261746f72207365740000006000830152602082019050919050565b6000614695602483614ffb565b91507f5369676e6564536166654d6174683a207375627472616374696f6e206f76657260008301527f666c6f77000000000000000000000000000000000000000000000000000000006020830152604082019050919050565b60006146fb602083614ffb565b91507f426f72696e6745524332303a205472616e7366657246726f6d206661696c65646000830152602082019050919050565b600061473b601883614ffb565b91507f426f72696e674d6174683a204d756c204f766572666c6f7700000000000000006000830152602082019050919050565b60608201600082015161478460008501826147b0565b50602082015161479760208501826147ec565b5060408201516147aa60408501826147ec565b50505050565b6147b981615074565b82525050565b6147c881615074565b82525050565b6147d78161518f565b82525050565b6147e6816150b0565b82525050565b6147f5816150ba565b82525050565b614804816150ba565b82525050565b614813816150ce565b82525050565b60006148268284866141b4565b91508190509392505050565b600061483e8284614212565b915081905092915050565b600060208201905061485e60008301846140a5565b92915050565b60006020820190506148796000830184614096565b92915050565b600060608201905061489460008301866140a5565b6148a160208301856140a5565b6148ae60408301846147dd565b949350505050565b600060e0820190506148cb600083018a6140a5565b6148d860208301896140a5565b6148e560408301886147dd565b6148f260608301876147dd565b6148ff608083018661480a565b61490c60a08301856141a5565b61491960c08301846141a5565b98975050505050505050565b600060408201905061493a60008301856140a5565b61494760208301846147dd565b9392505050565b6000604082019050818103600083015261496881856140b4565b9050818103602083015261497c8184614112565b90509392505050565b600060208201905061499a6000830184614243565b92915050565b60006020820190506149b56000830184614252565b92915050565b60006020820190506149d06000830184614261565b92915050565b60006020820190506149eb6000830184614270565b92915050565b60006020820190508181036000830152614a0b818461429d565b905092915050565b60006020820190508181036000830152614a2c816142d6565b9050919050565b60006020820190508181036000830152614a4c81614316565b9050919050565b60006020820190508181036000830152614a6c81614356565b9050919050565b60006020820190508181036000830152614a8c816143bc565b9050919050565b60006020820190508181036000830152614aac816143fc565b9050919050565b60006020820190508181036000830152614acc81614462565b9050919050565b60006020820190508181036000830152614aec816144a2565b9050919050565b60006020820190508181036000830152614b0c81614508565b9050919050565b60006020820190508181036000830152614b2c81614548565b9050919050565b60006020820190508181036000830152614b4c81614588565b9050919050565b60006020820190508181036000830152614b6c816145c8565b9050919050565b60006020820190508181036000830152614b8c81614608565b9050919050565b60006020820190508181036000830152614bac81614648565b9050919050565b60006020820190508181036000830152614bcc81614688565b9050919050565b60006020820190508181036000830152614bec816146ee565b9050919050565b60006020820190508181036000830152614c0c8161472e565b9050919050565b6000606082019050614c28600083018461476e565b92915050565b6000606082019050614c4360008301866147bf565b614c5060208301856147fb565b614c5d60408301846147fb565b949350505050565b6000602082019050614c7a60008301846147dd565b92915050565b600060a082019050614c9560008301886147dd565b614ca26020830187614096565b614caf60408301866140a5565b614cbc606083018561428e565b614cc9608083018461428e565b9695505050505050565b600060a082019050614ce860008301886147dd565b614cf56020830187614096565b614d0260408301866140a5565b614d0f606083018561428e565b614d1c60808301846147dd565b9695505050505050565b600060a082019050614d3b60008301886147dd565b614d486020830187614096565b614d5560408301866140a5565b614d6260608301856147dd565b614d6f60808301846147dd565b9695505050505050565b600060a082019050614d8e60008301886147dd565b614d9b60208301876140a5565b614da860408301866140a5565b614db5606083018561428e565b614dc260808301846147dd565b9695505050505050565b6000604082019050614de160008301856147dd565b614dee6020830184614196565b9392505050565b6000604082019050614e0a60008301856147dd565b614e17602083018461427f565b9392505050565b6000604082019050614e3360008301856147dd565b614e40602083018461428e565b9392505050565b6000604082019050614e5c60008301856147dd565b614e6960208301846147dd565b9392505050565b6000606082019050614e8560008301866147fb565b614e9260208301856147dd565b614e9f60408301846147ce565b949350505050565b60008083356001602003843603038112614ec057600080fd5b80840192508235915067ffffffffffffffff821115614ede57600080fd5b602083019250600182023603831315614ef657600080fd5b509250929050565b6000604051905081810181811067ffffffffffffffff82111715614f2157600080fd5b8060405250919050565b600067ffffffffffffffff821115614f4257600080fd5b601f19601f8301169050602081019050919050565b6000819050602082019050919050565b6000819050602082019050919050565b600081519050919050565b600081519050919050565b600081519050919050565b600081519050919050565b6000602082019050919050565b6000602082019050919050565b600082825260208201905092915050565b600082825260208201905092915050565b600082825260208201905092915050565b600081905092915050565b600082825260208201905092915050565b600061501782615090565b9050919050565b60008115159050919050565b6000819050919050565b600061503f8261500c565b9050919050565b60006150518261500c565b9050919050565b60006150638261500c565b9050919050565b6000819050919050565b60006fffffffffffffffffffffffffffffffff82169050919050565b600073ffffffffffffffffffffffffffffffffffffffff82169050919050565b6000819050919050565b600067ffffffffffffffff82169050919050565b600060ff82169050919050565b60006150e6826151a1565b9050919050565b60006150f8826150ff565b9050919050565b600061510a82615090565b9050919050565b600061511c82615123565b9050919050565b600061512e82615090565b9050919050565b600061514082615147565b9050919050565b600061515282615090565b9050919050565b60006151648261516b565b9050919050565b600061517682615090565b9050919050565b6000615188826150b0565b9050919050565b600061519a82615074565b9050919050565b60006151ac826151b3565b9050919050565b60006151be82615090565b9050919050565b82818337600083830152505050565b60005b838110156151f25780820151818401526020810190506151d7565b83811115615201576000848401525b50505050565b6000601f19601f8301169050919050565b6152218161500c565b811461522c57600080fd5b50565b6152388161501e565b811461524357600080fd5b50565b61524f8161502a565b811461525a57600080fd5b50565b61526681615034565b811461527157600080fd5b50565b61527d81615046565b811461528857600080fd5b50565b61529481615058565b811461529f57600080fd5b50565b6152ab816150b0565b81146152b657600080fd5b50565b6152c2816150ce565b81146152cd57600080fd5b5056fea2646970667358221220ce8618536cb247968c02e55c93ca6498cb1968193f5c7624e2b742485232effc64736f6c634300060c0033",
			"opcodes": "PUSH1 0xE0 PUSH1 0x40 MSTORE CALLVALUE DUP1 ISZERO PUSH3 0x11 JUMPI PUSH1 0x0 DUP1 REVERT JUMPDEST POP PUSH1 0x40 MLOAD PUSH3 0x560B CODESIZE SUB DUP1 PUSH3 0x560B DUP4 CODECOPY DUP2 DUP2 ADD PUSH1 0x40 MSTORE DUP2 ADD SWAP1 PUSH3 0x37 SWAP2 SWAP1 PUSH3 0x196 JUMP JUMPDEST CALLER PUSH1 0x0 DUP1 PUSH2 0x100 EXP DUP2 SLOAD DUP2 PUSH20 0xFFFFFFFFFFFFFFFFFFFFFFFFFFFFFFFFFFFFFFFF MUL NOT AND SWAP1 DUP4 PUSH20 0xFFFFFFFFFFFFFFFFFFFFFFFFFFFFFFFFFFFFFFFF AND MUL OR SWAP1 SSTORE POP CALLER PUSH20 0xFFFFFFFFFFFFFFFFFFFFFFFFFFFFFFFFFFFFFFFF AND PUSH1 0x0 PUSH20 0xFFFFFFFFFFFFFFFFFFFFFFFFFFFFFFFFFFFFFFFF AND PUSH32 0x8BE0079C531659141344CD1FD0A4F28419497F9722A3DAAFE3B4186F6B6457E0 PUSH1 0x40 MLOAD PUSH1 0x40 MLOAD DUP1 SWAP2 SUB SWAP1 LOG3 DUP3 PUSH20 0xFFFFFFFFFFFFFFFFFFFFFFFFFFFFFFFFFFFFFFFF AND PUSH1 0x80 DUP2 PUSH20 0xFFFFFFFFFFFFFFFFFFFFFFFFFFFFFFFFFFFFFFFF AND PUSH1 0x60 SHL DUP2 MSTORE POP POP DUP2 PUSH20 0xFFFFFFFFFFFFFFFFFFFFFFFFFFFFFFFFFFFFFFFF AND PUSH1 0xA0 DUP2 PUSH20 0xFFFFFFFFFFFFFFFFFFFFFFFFFFFFFFFFFFFFFFFF AND PUSH1 0x60 SHL DUP2 MSTORE POP POP DUP1 PUSH1 0xC0 DUP2 DUP2 MSTORE POP POP POP POP POP PUSH3 0x2A0 JUMP JUMPDEST PUSH1 0x0 DUP2 MLOAD SWAP1 POP PUSH3 0x162 DUP2 PUSH3 0x252 JUMP JUMPDEST SWAP3 SWAP2 POP POP JUMP JUMPDEST PUSH1 0x0 DUP2 MLOAD SWAP1 POP PUSH3 0x179 DUP2 PUSH3 0x26C JUMP JUMPDEST SWAP3 SWAP2 POP POP JUMP JUMPDEST PUSH1 0x0 DUP2 MLOAD SWAP1 POP PUSH3 0x190 DUP2 PUSH3 0x286 JUMP JUMPDEST SWAP3 SWAP2 POP POP JUMP JUMPDEST PUSH1 0x0 DUP1 PUSH1 0x0 PUSH1 0x60 DUP5 DUP7 SUB SLT ISZERO PUSH3 0x1AC JUMPI PUSH1 0x0 DUP1 REVERT JUMPDEST PUSH1 0x0 PUSH3 0x1BC DUP7 DUP3 DUP8 ADD PUSH3 0x168 JUMP JUMPDEST SWAP4 POP POP PUSH1 0x20 PUSH3 0x1CF DUP7 DUP3 DUP8 ADD PUSH3 0x151 JUMP JUMPDEST SWAP3 POP POP PUSH1 0x40 PUSH3 0x1E2 DUP7 DUP3 DUP8 ADD PUSH3 0x17F JUMP JUMPDEST SWAP2 POP POP SWAP3 POP SWAP3 POP SWAP3 JUMP JUMPDEST PUSH1 0x0 PUSH3 0x1F9 DUP3 PUSH3 0x228 JUMP JUMPDEST SWAP1 POP SWAP2 SWAP1 POP JUMP JUMPDEST PUSH1 0x0 PUSH3 0x20D DUP3 PUSH3 0x1EC JUMP JUMPDEST SWAP1 POP SWAP2 SWAP1 POP JUMP JUMPDEST PUSH1 0x0 PUSH3 0x221 DUP3 PUSH3 0x1EC JUMP JUMPDEST SWAP1 POP SWAP2 SWAP1 POP JUMP JUMPDEST PUSH1 0x0 PUSH20 0xFFFFFFFFFFFFFFFFFFFFFFFFFFFFFFFFFFFFFFFF DUP3 AND SWAP1 POP SWAP2 SWAP1 POP JUMP JUMPDEST PUSH1 0x0 DUP2 SWAP1 POP SWAP2 SWAP1 POP JUMP JUMPDEST PUSH3 0x25D DUP2 PUSH3 0x200 JUMP JUMPDEST DUP2 EQ PUSH3 0x269 JUMPI PUSH1 0x0 DUP1 REVERT JUMPDEST POP JUMP JUMPDEST PUSH3 0x277 DUP2 PUSH3 0x214 JUMP JUMPDEST DUP2 EQ PUSH3 0x283 JUMPI PUSH1 0x0 DUP1 REVERT JUMPDEST POP JUMP JUMPDEST PUSH3 0x291 DUP2 PUSH3 0x248 JUMP JUMPDEST DUP2 EQ PUSH3 0x29D JUMPI PUSH1 0x0 DUP1 REVERT JUMPDEST POP JUMP JUMPDEST PUSH1 0x80 MLOAD PUSH1 0x60 SHR PUSH1 0xA0 MLOAD PUSH1 0x60 SHR PUSH1 0xC0 MLOAD PUSH2 0x5306 PUSH3 0x305 PUSH1 0x0 CODECOPY DUP1 PUSH2 0x142E MSTORE DUP1 PUSH2 0x1D78 MSTORE DUP1 PUSH2 0x2205 MSTORE DUP1 PUSH2 0x2C3D MSTORE POP DUP1 PUSH2 0xD98 MSTORE DUP1 PUSH2 0x282A MSTORE DUP1 PUSH2 0x2E6D MSTORE POP DUP1 PUSH2 0x1360 MSTORE DUP1 PUSH2 0x13F2 MSTORE DUP1 PUSH2 0x1D3C MSTORE DUP1 PUSH2 0x2B60 MSTORE DUP1 PUSH2 0x2C01 MSTORE DUP1 PUSH2 0x32C0 MSTORE POP PUSH2 0x5306 PUSH1 0x0 RETURN INVALID PUSH1 0x80 PUSH1 0x40 MSTORE PUSH1 0x4 CALLDATASIZE LT PUSH2 0x1D8 JUMPI PUSH1 0x0 CALLDATALOAD PUSH1 0xE0 SHR DUP1 PUSH4 0x61621AAA GT PUSH2 0x102 JUMPI DUP1 PUSH4 0xAB560E10 GT PUSH2 0x95 JUMPI DUP1 PUSH4 0xD1ABB907 GT PUSH2 0x64 JUMPI DUP1 PUSH4 0xD1ABB907 EQ PUSH2 0x695 JUMPI DUP1 PUSH4 0xD2423B51 EQ PUSH2 0x6BE JUMPI DUP1 PUSH4 0xE30C3978 EQ PUSH2 0x6EF JUMPI DUP1 PUSH4 0xEDD8B170 EQ PUSH2 0x71A JUMPI PUSH2 0x1D8 JUMP JUMPDEST DUP1 PUSH4 0xAB560E10 EQ PUSH2 0x5D9 JUMPI DUP1 PUSH4 0xAB7DE098 EQ PUSH2 0x604 JUMPI DUP1 PUSH4 0xB0BCF42A EQ PUSH2 0x62D JUMPI DUP1 PUSH4 0xC346253D EQ PUSH2 0x658 JUMPI PUSH2 0x1D8 JUMP JUMPDEST DUP1 PUSH4 0x88BBA42F GT PUSH2 0xD1 JUMPI DUP1 PUSH4 0x88BBA42F EQ PUSH2 0x51E JUMPI DUP1 PUSH4 0x8DA5CB5B EQ PUSH2 0x547 JUMPI DUP1 PUSH4 0x8DBDBE6D EQ PUSH2 0x572 JUMPI DUP1 PUSH4 0x93F1A40B EQ PUSH2 0x59B JUMPI PUSH2 0x1D8 JUMP JUMPDEST DUP1 PUSH4 0x61621AAA EQ PUSH2 0x462 JUMPI DUP1 PUSH4 0x78ED5D1F EQ PUSH2 0x48D JUMPI DUP1 PUSH4 0x7C516E94 EQ PUSH2 0x4CA JUMPI DUP1 PUSH4 0x7CD07E47 EQ PUSH2 0x4F3 JUMPI PUSH2 0x1D8 JUMP JUMPDEST DUP1 PUSH4 0x19AB453C GT PUSH2 0x17A JUMPI DUP1 PUSH4 0x4E71E0C8 GT PUSH2 0x149 JUMPI DUP1 PUSH4 0x4E71E0C8 EQ PUSH2 0x3CE JUMPI DUP1 PUSH4 0x4F70B15A EQ PUSH2 0x3E5 JUMPI DUP1 PUSH4 0x51EB05A6 EQ PUSH2 0x3FC JUMPI DUP1 PUSH4 0x57A5B58C EQ PUSH2 0x439 JUMPI PUSH2 0x1D8 JUMP JUMPDEST DUP1 PUSH4 0x19AB453C EQ PUSH2 0x32A JUMPI DUP1 PUSH4 0x23CF3118 EQ PUSH2 0x353 JUMPI DUP1 PUSH4 0x2F940C70 EQ PUSH2 0x37C JUMPI DUP1 PUSH4 0x454B0608 EQ PUSH2 0x3A5 JUMPI PUSH2 0x1D8 JUMP JUMPDEST DUP1 PUSH4 0x1526FE27 GT PUSH2 0x1B6 JUMPI DUP1 PUSH4 0x1526FE27 EQ PUSH2 0x25A JUMPI DUP1 PUSH4 0x17CAF6F1 EQ PUSH2 0x299 JUMPI DUP1 PUSH4 0x18FCCC76 EQ PUSH2 0x2C4 JUMPI DUP1 PUSH4 0x195426EC EQ PUSH2 0x2ED JUMPI PUSH2 0x1D8 JUMP JUMPDEST DUP1 PUSH4 0x78DFBE7 EQ PUSH2 0x1DD JUMPI DUP1 PUSH4 0x81E3EDA EQ PUSH2 0x206 JUMPI DUP1 PUSH4 0xAD58D2F EQ PUSH2 0x231 JUMPI JUMPDEST PUSH1 0x0 DUP1 REVERT JUMPDEST CALLVALUE DUP1 ISZERO PUSH2 0x1E9 JUMPI PUSH1 0x0 DUP1 REVERT JUMPDEST POP PUSH2 0x204 PUSH1 0x4 DUP1 CALLDATASIZE SUB DUP2 ADD SWAP1 PUSH2 0x1FF SWAP2 SWAP1 PUSH2 0x3C2F JUMP JUMPDEST PUSH2 0x745 JUMP JUMPDEST STOP JUMPDEST CALLVALUE DUP1 ISZERO PUSH2 0x212 JUMPI PUSH1 0x0 DUP1 REVERT JUMPDEST POP PUSH2 0x21B PUSH2 0x999 JUMP JUMPDEST PUSH1 0x40 MLOAD PUSH2 0x228 SWAP2 SWAP1 PUSH2 0x4C65 JUMP JUMPDEST PUSH1 0x40 MLOAD DUP1 SWAP2 SUB SWAP1 RETURN JUMPDEST CALLVALUE DUP1 ISZERO PUSH2 0x23D JUMPI PUSH1 0x0 DUP1 REVERT JUMPDEST POP PUSH2 0x258 PUSH1 0x4 DUP1 CALLDATASIZE SUB DUP2 ADD SWAP1 PUSH2 0x253 SWAP2 SWAP1 PUSH2 0x3FB8 JUMP JUMPDEST PUSH2 0x9A6 JUMP JUMPDEST STOP JUMPDEST CALLVALUE DUP1 ISZERO PUSH2 0x266 JUMPI PUSH1 0x0 DUP1 REVERT JUMPDEST POP PUSH2 0x281 PUSH1 0x4 DUP1 CALLDATASIZE SUB DUP2 ADD SWAP1 PUSH2 0x27C SWAP2 SWAP1 PUSH2 0x3EDB JUMP JUMPDEST PUSH2 0xC3A JUMP JUMPDEST PUSH1 0x40 MLOAD PUSH2 0x290 SWAP4 SWAP3 SWAP2 SWAP1 PUSH2 0x4C2E JUMP JUMPDEST PUSH1 0x40 MLOAD DUP1 SWAP2 SUB SWAP1 RETURN JUMPDEST CALLVALUE DUP1 ISZERO PUSH2 0x2A5 JUMPI PUSH1 0x0 DUP1 REVERT JUMPDEST POP PUSH2 0x2AE PUSH2 0xCB1 JUMP JUMPDEST PUSH1 0x40 MLOAD PUSH2 0x2BB SWAP2 SWAP1 PUSH2 0x4C65 JUMP JUMPDEST PUSH1 0x40 MLOAD DUP1 SWAP2 SUB SWAP1 RETURN JUMPDEST CALLVALUE DUP1 ISZERO PUSH2 0x2D0 JUMPI PUSH1 0x0 DUP1 REVERT JUMPDEST POP PUSH2 0x2EB PUSH1 0x4 DUP1 CALLDATASIZE SUB DUP2 ADD SWAP1 PUSH2 0x2E6 SWAP2 SWAP1 PUSH2 0x3F2D JUMP JUMPDEST PUSH2 0xCB7 JUMP JUMPDEST STOP JUMPDEST CALLVALUE DUP1 ISZERO PUSH2 0x2F9 JUMPI PUSH1 0x0 DUP1 REVERT JUMPDEST POP PUSH2 0x314 PUSH1 0x4 DUP1 CALLDATASIZE SUB DUP2 ADD SWAP1 PUSH2 0x30F SWAP2 SWAP1 PUSH2 0x3F2D JUMP JUMPDEST PUSH2 0xF1D JUMP JUMPDEST PUSH1 0x40 MLOAD PUSH2 0x321 SWAP2 SWAP1 PUSH2 0x4C65 JUMP JUMPDEST PUSH1 0x40 MLOAD DUP1 SWAP2 SUB SWAP1 RETURN JUMPDEST CALLVALUE DUP1 ISZERO PUSH2 0x336 JUMPI PUSH1 0x0 DUP1 REVERT JUMPDEST POP PUSH2 0x351 PUSH1 0x4 DUP1 CALLDATASIZE SUB DUP2 ADD SWAP1 PUSH2 0x34C SWAP2 SWAP1 PUSH2 0x3D44 JUMP JUMPDEST PUSH2 0x1244 JUMP JUMPDEST STOP JUMPDEST CALLVALUE DUP1 ISZERO PUSH2 0x35F JUMPI PUSH1 0x0 DUP1 REVERT JUMPDEST POP PUSH2 0x37A PUSH1 0x4 DUP1 CALLDATASIZE SUB DUP2 ADD SWAP1 PUSH2 0x375 SWAP2 SWAP1 PUSH2 0x3E48 JUMP JUMPDEST PUSH2 0x14CD JUMP JUMPDEST STOP JUMPDEST CALLVALUE DUP1 ISZERO PUSH2 0x388 JUMPI PUSH1 0x0 DUP1 REVERT JUMPDEST POP PUSH2 0x3A3 PUSH1 0x4 DUP1 CALLDATASIZE SUB DUP2 ADD SWAP1 PUSH2 0x39E SWAP2 SWAP1 PUSH2 0x3F2D JUMP JUMPDEST PUSH2 0x159F JUMP JUMPDEST STOP JUMPDEST CALLVALUE DUP1 ISZERO PUSH2 0x3B1 JUMPI PUSH1 0x0 DUP1 REVERT JUMPDEST POP PUSH2 0x3CC PUSH1 0x4 DUP1 CALLDATASIZE SUB DUP2 ADD SWAP1 PUSH2 0x3C7 SWAP2 SWAP1 PUSH2 0x3EDB JUMP JUMPDEST PUSH2 0x17C4 JUMP JUMPDEST STOP JUMPDEST CALLVALUE DUP1 ISZERO PUSH2 0x3DA JUMPI PUSH1 0x0 DUP1 REVERT JUMPDEST POP PUSH2 0x3E3 PUSH2 0x1BA6 JUMP JUMPDEST STOP JUMPDEST CALLVALUE DUP1 ISZERO PUSH2 0x3F1 JUMPI PUSH1 0x0 DUP1 REVERT JUMPDEST POP PUSH2 0x3FA PUSH2 0x1D3A JUMP JUMPDEST STOP JUMPDEST CALLVALUE DUP1 ISZERO PUSH2 0x408 JUMPI PUSH1 0x0 DUP1 REVERT JUMPDEST POP PUSH2 0x423 PUSH1 0x4 DUP1 CALLDATASIZE SUB DUP2 ADD SWAP1 PUSH2 0x41E SWAP2 SWAP1 PUSH2 0x3EDB JUMP JUMPDEST PUSH2 0x1DEA JUMP JUMPDEST PUSH1 0x40 MLOAD PUSH2 0x430 SWAP2 SWAP1 PUSH2 0x4C13 JUMP JUMPDEST PUSH1 0x40 MLOAD DUP1 SWAP2 SUB SWAP1 RETURN JUMPDEST CALLVALUE DUP1 ISZERO PUSH2 0x445 JUMPI PUSH1 0x0 DUP1 REVERT JUMPDEST POP PUSH2 0x460 PUSH1 0x4 DUP1 CALLDATASIZE SUB DUP2 ADD SWAP1 PUSH2 0x45B SWAP2 SWAP1 PUSH2 0x3CD6 JUMP JUMPDEST PUSH2 0x21C3 JUMP JUMPDEST STOP JUMPDEST CALLVALUE DUP1 ISZERO PUSH2 0x46E JUMPI PUSH1 0x0 DUP1 REVERT JUMPDEST POP PUSH2 0x477 PUSH2 0x2203 JUMP JUMPDEST PUSH1 0x40 MLOAD PUSH2 0x484 SWAP2 SWAP1 PUSH2 0x4C65 JUMP JUMPDEST PUSH1 0x40 MLOAD DUP1 SWAP2 SUB SWAP1 RETURN JUMPDEST CALLVALUE DUP1 ISZERO PUSH2 0x499 JUMPI PUSH1 0x0 DUP1 REVERT JUMPDEST POP PUSH2 0x4B4 PUSH1 0x4 DUP1 CALLDATASIZE SUB DUP2 ADD SWAP1 PUSH2 0x4AF SWAP2 SWAP1 PUSH2 0x3EDB JUMP JUMPDEST PUSH2 0x2227 JUMP JUMPDEST PUSH1 0x40 MLOAD PUSH2 0x4C1 SWAP2 SWAP1 PUSH2 0x4985 JUMP JUMPDEST PUSH1 0x40 MLOAD DUP1 SWAP2 SUB SWAP1 RETURN JUMPDEST CALLVALUE DUP1 ISZERO PUSH2 0x4D6 JUMPI PUSH1 0x0 DUP1 REVERT JUMPDEST POP PUSH2 0x4F1 PUSH1 0x4 DUP1 CALLDATASIZE SUB DUP2 ADD SWAP1 PUSH2 0x4EC SWAP2 SWAP1 PUSH2 0x3D96 JUMP JUMPDEST PUSH2 0x2263 JUMP JUMPDEST STOP JUMPDEST CALLVALUE DUP1 ISZERO PUSH2 0x4FF JUMPI PUSH1 0x0 DUP1 REVERT JUMPDEST POP PUSH2 0x508 PUSH2 0x22E4 JUMP JUMPDEST PUSH1 0x40 MLOAD PUSH2 0x515 SWAP2 SWAP1 PUSH2 0x49BB JUMP JUMPDEST PUSH1 0x40 MLOAD DUP1 SWAP2 SUB SWAP1 RETURN JUMPDEST CALLVALUE DUP1 ISZERO PUSH2 0x52A JUMPI PUSH1 0x0 DUP1 REVERT JUMPDEST POP PUSH2 0x545 PUSH1 0x4 DUP1 CALLDATASIZE SUB DUP2 ADD SWAP1 PUSH2 0x540 SWAP2 SWAP1 PUSH2 0x4007 JUMP JUMPDEST PUSH2 0x230A JUMP JUMPDEST STOP JUMPDEST CALLVALUE DUP1 ISZERO PUSH2 0x553 JUMPI PUSH1 0x0 DUP1 REVERT JUMPDEST POP PUSH2 0x55C PUSH2 0x253D JUMP JUMPDEST PUSH1 0x40 MLOAD PUSH2 0x569 SWAP2 SWAP1 PUSH2 0x4849 JUMP JUMPDEST PUSH1 0x40 MLOAD DUP1 SWAP2 SUB SWAP1 RETURN JUMPDEST CALLVALUE DUP1 ISZERO PUSH2 0x57E JUMPI PUSH1 0x0 DUP1 REVERT JUMPDEST POP PUSH2 0x599 PUSH1 0x4 DUP1 CALLDATASIZE SUB DUP2 ADD SWAP1 PUSH2 0x594 SWAP2 SWAP1 PUSH2 0x3FB8 JUMP JUMPDEST PUSH2 0x2561 JUMP JUMPDEST STOP JUMPDEST CALLVALUE DUP1 ISZERO PUSH2 0x5A7 JUMPI PUSH1 0x0 DUP1 REVERT JUMPDEST POP PUSH2 0x5C2 PUSH1 0x4 DUP1 CALLDATASIZE SUB DUP2 ADD SWAP1 PUSH2 0x5BD SWAP2 SWAP1 PUSH2 0x3F2D JUMP JUMPDEST PUSH2 0x27F7 JUMP JUMPDEST PUSH1 0x40 MLOAD PUSH2 0x5D0 SWAP3 SWAP2 SWAP1 PUSH2 0x4DF5 JUMP JUMPDEST PUSH1 0x40 MLOAD DUP1 SWAP2 SUB SWAP1 RETURN JUMPDEST CALLVALUE DUP1 ISZERO PUSH2 0x5E5 JUMPI PUSH1 0x0 DUP1 REVERT JUMPDEST POP PUSH2 0x5EE PUSH2 0x2828 JUMP JUMPDEST PUSH1 0x40 MLOAD PUSH2 0x5FB SWAP2 SWAP1 PUSH2 0x4985 JUMP JUMPDEST PUSH1 0x40 MLOAD DUP1 SWAP2 SUB SWAP1 RETURN JUMPDEST CALLVALUE DUP1 ISZERO PUSH2 0x610 JUMPI PUSH1 0x0 DUP1 REVERT JUMPDEST POP PUSH2 0x62B PUSH1 0x4 DUP1 CALLDATASIZE SUB DUP2 ADD SWAP1 PUSH2 0x626 SWAP2 SWAP1 PUSH2 0x3F69 JUMP JUMPDEST PUSH2 0x284C JUMP JUMPDEST STOP JUMPDEST CALLVALUE DUP1 ISZERO PUSH2 0x639 JUMPI PUSH1 0x0 DUP1 REVERT JUMPDEST POP PUSH2 0x642 PUSH2 0x2B5C JUMP JUMPDEST PUSH1 0x40 MLOAD PUSH2 0x64F SWAP2 SWAP1 PUSH2 0x4C65 JUMP JUMPDEST PUSH1 0x40 MLOAD DUP1 SWAP2 SUB SWAP1 RETURN JUMPDEST CALLVALUE DUP1 ISZERO PUSH2 0x664 JUMPI PUSH1 0x0 DUP1 REVERT JUMPDEST POP PUSH2 0x67F PUSH1 0x4 DUP1 CALLDATASIZE SUB DUP2 ADD SWAP1 PUSH2 0x67A SWAP2 SWAP1 PUSH2 0x3EDB JUMP JUMPDEST PUSH2 0x2CF1 JUMP JUMPDEST PUSH1 0x40 MLOAD PUSH2 0x68C SWAP2 SWAP1 PUSH2 0x49D6 JUMP JUMPDEST PUSH1 0x40 MLOAD DUP1 SWAP2 SUB SWAP1 RETURN JUMPDEST CALLVALUE DUP1 ISZERO PUSH2 0x6A1 JUMPI PUSH1 0x0 DUP1 REVERT JUMPDEST POP PUSH2 0x6BC PUSH1 0x4 DUP1 CALLDATASIZE SUB DUP2 ADD SWAP1 PUSH2 0x6B7 SWAP2 SWAP1 PUSH2 0x3FB8 JUMP JUMPDEST PUSH2 0x2D2D JUMP JUMPDEST STOP JUMPDEST PUSH2 0x6D8 PUSH1 0x4 DUP1 CALLDATASIZE SUB DUP2 ADD SWAP1 PUSH2 0x6D3 SWAP2 SWAP1 PUSH2 0x3C7E JUMP JUMPDEST PUSH2 0x30BA JUMP JUMPDEST PUSH1 0x40 MLOAD PUSH2 0x6E6 SWAP3 SWAP2 SWAP1 PUSH2 0x494E JUMP JUMPDEST PUSH1 0x40 MLOAD DUP1 SWAP2 SUB SWAP1 RETURN JUMPDEST CALLVALUE DUP1 ISZERO PUSH2 0x6FB JUMPI PUSH1 0x0 DUP1 REVERT JUMPDEST POP PUSH2 0x704 PUSH2 0x3298 JUMP JUMPDEST PUSH1 0x40 MLOAD PUSH2 0x711 SWAP2 SWAP1 PUSH2 0x4849 JUMP JUMPDEST PUSH1 0x40 MLOAD DUP1 SWAP2 SUB SWAP1 RETURN JUMPDEST CALLVALUE DUP1 ISZERO PUSH2 0x726 JUMPI PUSH1 0x0 DUP1 REVERT JUMPDEST POP PUSH2 0x72F PUSH2 0x32BE JUMP JUMPDEST PUSH1 0x40 MLOAD PUSH2 0x73C SWAP2 SWAP1 PUSH2 0x49A0 JUMP JUMPDEST PUSH1 0x40 MLOAD DUP1 SWAP2 SUB SWAP1 RETURN JUMPDEST PUSH1 0x0 DUP1 SLOAD SWAP1 PUSH2 0x100 EXP SWAP1 DIV PUSH20 0xFFFFFFFFFFFFFFFFFFFFFFFFFFFFFFFFFFFFFFFF AND PUSH20 0xFFFFFFFFFFFFFFFFFFFFFFFFFFFFFFFFFFFFFFFF AND CALLER PUSH20 0xFFFFFFFFFFFFFFFFFFFFFFFFFFFFFFFFFFFFFFFF AND EQ PUSH2 0x7D3 JUMPI PUSH1 0x40 MLOAD PUSH32 0x8C379A000000000000000000000000000000000000000000000000000000000 DUP2 MSTORE PUSH1 0x4 ADD PUSH2 0x7CA SWAP1 PUSH2 0x4B33 JUMP JUMPDEST PUSH1 0x40 MLOAD DUP1 SWAP2 SUB SWAP1 REVERT JUMPDEST DUP2 ISZERO PUSH2 0x952 JUMPI PUSH1 0x0 PUSH20 0xFFFFFFFFFFFFFFFFFFFFFFFFFFFFFFFFFFFFFFFF AND DUP4 PUSH20 0xFFFFFFFFFFFFFFFFFFFFFFFFFFFFFFFFFFFFFFFF AND EQ ISZERO DUP1 PUSH2 0x812 JUMPI POP DUP1 JUMPDEST PUSH2 0x851 JUMPI PUSH1 0x40 MLOAD PUSH32 0x8C379A000000000000000000000000000000000000000000000000000000000 DUP2 MSTORE PUSH1 0x4 ADD PUSH2 0x848 SWAP1 PUSH2 0x4AB3 JUMP JUMPDEST PUSH1 0x40 MLOAD DUP1 SWAP2 SUB SWAP1 REVERT JUMPDEST DUP3 PUSH20 0xFFFFFFFFFFFFFFFFFFFFFFFFFFFFFFFFFFFFFFFF AND PUSH1 0x0 DUP1 SLOAD SWAP1 PUSH2 0x100 EXP SWAP1 DIV PUSH20 0xFFFFFFFFFFFFFFFFFFFFFFFFFFFFFFFFFFFFFFFF AND PUSH20 0xFFFFFFFFFFFFFFFFFFFFFFFFFFFFFFFFFFFFFFFF AND PUSH32 0x8BE0079C531659141344CD1FD0A4F28419497F9722A3DAAFE3B4186F6B6457E0 PUSH1 0x40 MLOAD PUSH1 0x40 MLOAD DUP1 SWAP2 SUB SWAP1 LOG3 DUP3 PUSH1 0x0 DUP1 PUSH2 0x100 EXP DUP2 SLOAD DUP2 PUSH20 0xFFFFFFFFFFFFFFFFFFFFFFFFFFFFFFFFFFFFFFFF MUL NOT AND SWAP1 DUP4 PUSH20 0xFFFFFFFFFFFFFFFFFFFFFFFFFFFFFFFFFFFFFFFF AND MUL OR SWAP1 SSTORE POP PUSH1 0x0 PUSH1 0x1 PUSH1 0x0 PUSH2 0x100 EXP DUP2 SLOAD DUP2 PUSH20 0xFFFFFFFFFFFFFFFFFFFFFFFFFFFFFFFFFFFFFFFF MUL NOT AND SWAP1 DUP4 PUSH20 0xFFFFFFFFFFFFFFFFFFFFFFFFFFFFFFFFFFFFFFFF AND MUL OR SWAP1 SSTORE POP PUSH2 0x994 JUMP JUMPDEST DUP3 PUSH1 0x1 PUSH1 0x0 PUSH2 0x100 EXP DUP2 SLOAD DUP2 PUSH20 0xFFFFFFFFFFFFFFFFFFFFFFFFFFFFFFFFFFFFFFFF MUL NOT AND SWAP1 DUP4 PUSH20 0xFFFFFFFFFFFFFFFFFFFFFFFFFFFFFFFFFFFFFFFF AND MUL OR SWAP1 SSTORE POP JUMPDEST POP POP POP JUMP JUMPDEST PUSH1 0x0 PUSH1 0x3 DUP1 SLOAD SWAP1 POP SWAP1 POP SWAP1 JUMP JUMPDEST PUSH2 0x9AE PUSH2 0x39A5 JUMP JUMPDEST PUSH2 0x9B7 DUP5 PUSH2 0x1DEA JUMP JUMPDEST SWAP1 POP PUSH1 0x0 PUSH1 0x6 PUSH1 0x0 DUP7 DUP2 MSTORE PUSH1 0x20 ADD SWAP1 DUP2 MSTORE PUSH1 0x20 ADD PUSH1 0x0 KECCAK256 PUSH1 0x0 CALLER PUSH20 0xFFFFFFFFFFFFFFFFFFFFFFFFFFFFFFFFFFFFFFFF AND PUSH20 0xFFFFFFFFFFFFFFFFFFFFFFFFFFFFFFFFFFFFFFFF AND DUP2 MSTORE PUSH1 0x20 ADD SWAP1 DUP2 MSTORE PUSH1 0x20 ADD PUSH1 0x0 KECCAK256 SWAP1 POP PUSH2 0xA5A PUSH5 0xE8D4A51000 PUSH2 0xA3F DUP5 PUSH1 0x0 ADD MLOAD PUSH16 0xFFFFFFFFFFFFFFFFFFFFFFFFFFFFFFFF AND DUP8 PUSH2 0x32E2 SWAP1 SWAP2 SWAP1 PUSH4 0xFFFFFFFF AND JUMP JUMPDEST DUP2 PUSH2 0xA46 JUMPI INVALID JUMPDEST DIV DUP3 PUSH1 0x1 ADD SLOAD PUSH2 0x3344 SWAP1 SWAP2 SWAP1 PUSH4 0xFFFFFFFF AND JUMP JUMPDEST DUP2 PUSH1 0x1 ADD DUP2 SWAP1 SSTORE POP PUSH2 0xA79 DUP5 DUP3 PUSH1 0x0 ADD SLOAD PUSH2 0x33BC SWAP1 SWAP2 SWAP1 PUSH4 0xFFFFFFFF AND JUMP JUMPDEST DUP2 PUSH1 0x0 ADD DUP2 SWAP1 SSTORE POP PUSH1 0x0 PUSH1 0x5 DUP7 DUP2 SLOAD DUP2 LT PUSH2 0xA90 JUMPI INVALID JUMPDEST SWAP1 PUSH1 0x0 MSTORE PUSH1 0x20 PUSH1 0x0 KECCAK256 ADD PUSH1 0x0 SWAP1 SLOAD SWAP1 PUSH2 0x100 EXP SWAP1 DIV PUSH20 0xFFFFFFFFFFFFFFFFFFFFFFFFFFFFFFFFFFFFFFFF AND SWAP1 POP PUSH1 0x0 PUSH20 0xFFFFFFFFFFFFFFFFFFFFFFFFFFFFFFFFFFFFFFFF AND DUP2 PUSH20 0xFFFFFFFFFFFFFFFFFFFFFFFFFFFFFFFFFFFFFFFF AND EQ PUSH2 0xB6A JUMPI DUP1 PUSH20 0xFFFFFFFFFFFFFFFFFFFFFFFFFFFFFFFFFFFFFFFF AND PUSH4 0x8BF63742 DUP8 CALLER DUP8 PUSH1 0x0 DUP8 PUSH1 0x0 ADD SLOAD PUSH1 0x40 MLOAD DUP7 PUSH4 0xFFFFFFFF AND PUSH1 0xE0 SHL DUP2 MSTORE PUSH1 0x4 ADD PUSH2 0xB37 SWAP6 SWAP5 SWAP4 SWAP3 SWAP2 SWAP1 PUSH2 0x4CD3 JUMP JUMPDEST PUSH1 0x0 PUSH1 0x40 MLOAD DUP1 DUP4 SUB DUP2 PUSH1 0x0 DUP8 DUP1 EXTCODESIZE ISZERO DUP1 ISZERO PUSH2 0xB51 JUMPI PUSH1 0x0 DUP1 REVERT JUMPDEST POP GAS CALL ISZERO DUP1 ISZERO PUSH2 0xB65 JUMPI RETURNDATASIZE PUSH1 0x0 DUP1 RETURNDATACOPY RETURNDATASIZE PUSH1 0x0 REVERT JUMPDEST POP POP POP POP JUMPDEST PUSH2 0xBCC DUP5 DUP7 PUSH1 0x4 DUP10 DUP2 SLOAD DUP2 LT PUSH2 0xB7C JUMPI INVALID JUMPDEST SWAP1 PUSH1 0x0 MSTORE PUSH1 0x20 PUSH1 0x0 KECCAK256 ADD PUSH1 0x0 SWAP1 SLOAD SWAP1 PUSH2 0x100 EXP SWAP1 DIV PUSH20 0xFFFFFFFFFFFFFFFFFFFFFFFFFFFFFFFFFFFFFFFF AND PUSH20 0xFFFFFFFFFFFFFFFFFFFFFFFFFFFFFFFFFFFFFFFF AND PUSH2 0x340C SWAP1 SWAP3 SWAP2 SWAP1 PUSH4 0xFFFFFFFF AND JUMP JUMPDEST DUP4 PUSH20 0xFFFFFFFFFFFFFFFFFFFFFFFFFFFFFFFFFFFFFFFF AND DUP7 CALLER PUSH20 0xFFFFFFFFFFFFFFFFFFFFFFFFFFFFFFFFFFFFFFFF AND PUSH32 0x8166BF25F8A2B7ED3C85049207DA4358D16EDBED977D23FA2EE6F0DDE3EC2132 DUP9 PUSH1 0x40 MLOAD PUSH2 0xC2A SWAP2 SWAP1 PUSH2 0x4C65 JUMP JUMPDEST PUSH1 0x40 MLOAD DUP1 SWAP2 SUB SWAP1 LOG4 POP POP POP POP POP POP JUMP JUMPDEST PUSH1 0x3 DUP2 DUP2 SLOAD DUP2 LT PUSH2 0xC47 JUMPI INVALID JUMPDEST SWAP1 PUSH1 0x0 MSTORE PUSH1 0x20 PUSH1 0x0 KECCAK256 ADD PUSH1 0x0 SWAP2 POP SWAP1 POP DUP1 PUSH1 0x0 ADD PUSH1 0x0 SWAP1 SLOAD SWAP1 PUSH2 0x100 EXP SWAP1 DIV PUSH16 0xFFFFFFFFFFFFFFFFFFFFFFFFFFFFFFFF AND SWAP1 DUP1 PUSH1 0x0 ADD PUSH1 0x10 SWAP1 SLOAD SWAP1 PUSH2 0x100 EXP SWAP1 DIV PUSH8 0xFFFFFFFFFFFFFFFF AND SWAP1 DUP1 PUSH1 0x0 ADD PUSH1 0x18 SWAP1 SLOAD SWAP1 PUSH2 0x100 EXP SWAP1 DIV PUSH8 0xFFFFFFFFFFFFFFFF AND SWAP1 POP DUP4 JUMP JUMPDEST PUSH1 0x7 SLOAD DUP2 JUMP JUMPDEST PUSH2 0xCBF PUSH2 0x39A5 JUMP JUMPDEST PUSH2 0xCC8 DUP4 PUSH2 0x1DEA JUMP JUMPDEST SWAP1 POP PUSH1 0x0 PUSH1 0x6 PUSH1 0x0 DUP6 DUP2 MSTORE PUSH1 0x20 ADD SWAP1 DUP2 MSTORE PUSH1 0x20 ADD PUSH1 0x0 KECCAK256 PUSH1 0x0 CALLER PUSH20 0xFFFFFFFFFFFFFFFFFFFFFFFFFFFFFFFFFFFFFFFF AND PUSH20 0xFFFFFFFFFFFFFFFFFFFFFFFFFFFFFFFFFFFFFFFF AND DUP2 MSTORE PUSH1 0x20 ADD SWAP1 DUP2 MSTORE PUSH1 0x20 ADD PUSH1 0x0 KECCAK256 SWAP1 POP PUSH1 0x0 PUSH5 0xE8D4A51000 PUSH2 0xD53 DUP5 PUSH1 0x0 ADD MLOAD PUSH16 0xFFFFFFFFFFFFFFFFFFFFFFFFFFFFFFFF AND DUP5 PUSH1 0x0 ADD SLOAD PUSH2 0x32E2 SWAP1 SWAP2 SWAP1 PUSH4 0xFFFFFFFF AND JUMP JUMPDEST DUP2 PUSH2 0xD5A JUMPI INVALID JUMPDEST DIV SWAP1 POP PUSH1 0x0 PUSH2 0xD7E PUSH2 0xD79 DUP5 PUSH1 0x1 ADD SLOAD DUP5 PUSH2 0x3344 SWAP1 SWAP2 SWAP1 PUSH4 0xFFFFFFFF AND JUMP JUMPDEST PUSH2 0x3562 JUMP JUMPDEST SWAP1 POP DUP2 DUP4 PUSH1 0x1 ADD DUP2 SWAP1 SSTORE POP PUSH1 0x0 DUP2 EQ PUSH2 0xDDD JUMPI PUSH2 0xDDC DUP6 DUP3 PUSH32 0x0 PUSH20 0xFFFFFFFFFFFFFFFFFFFFFFFFFFFFFFFFFFFFFFFF AND PUSH2 0x340C SWAP1 SWAP3 SWAP2 SWAP1 PUSH4 0xFFFFFFFF AND JUMP JUMPDEST JUMPDEST PUSH1 0x0 PUSH1 0x5 DUP8 DUP2 SLOAD DUP2 LT PUSH2 0xDEC JUMPI INVALID JUMPDEST SWAP1 PUSH1 0x0 MSTORE PUSH1 0x20 PUSH1 0x0 KECCAK256 ADD PUSH1 0x0 SWAP1 SLOAD SWAP1 PUSH2 0x100 EXP SWAP1 DIV PUSH20 0xFFFFFFFFFFFFFFFFFFFFFFFFFFFFFFFFFFFFFFFF AND SWAP1 POP PUSH1 0x0 PUSH20 0xFFFFFFFFFFFFFFFFFFFFFFFFFFFFFFFFFFFFFFFF AND DUP2 PUSH20 0xFFFFFFFFFFFFFFFFFFFFFFFFFFFFFFFFFFFFFFFF AND EQ PUSH2 0xEC5 JUMPI DUP1 PUSH20 0xFFFFFFFFFFFFFFFFFFFFFFFFFFFFFFFFFFFFFFFF AND PUSH4 0x8BF63742 DUP9 CALLER DUP10 DUP7 DUP10 PUSH1 0x0 ADD SLOAD PUSH1 0x40 MLOAD DUP7 PUSH4 0xFFFFFFFF AND PUSH1 0xE0 SHL DUP2 MSTORE PUSH1 0x4 ADD PUSH2 0xE92 SWAP6 SWAP5 SWAP4 SWAP3 SWAP2 SWAP1 PUSH2 0x4D26 JUMP JUMPDEST PUSH1 0x0 PUSH1 0x40 MLOAD DUP1 DUP4 SUB DUP2 PUSH1 0x0 DUP8 DUP1 EXTCODESIZE ISZERO DUP1 ISZERO PUSH2 0xEAC JUMPI PUSH1 0x0 DUP1 REVERT JUMPDEST POP GAS CALL ISZERO DUP1 ISZERO PUSH2 0xEC0 JUMPI RETURNDATASIZE PUSH1 0x0 DUP1 RETURNDATACOPY RETURNDATASIZE PUSH1 0x0 REVERT JUMPDEST POP POP POP POP JUMPDEST DUP7 CALLER PUSH20 0xFFFFFFFFFFFFFFFFFFFFFFFFFFFFFFFFFFFFFFFF AND PUSH32 0x71BAB65CED2E5750775A0613BE067DF48EF06CF92A496EBF7663AE0660924954 DUP5 PUSH1 0x40 MLOAD PUSH2 0xF0C SWAP2 SWAP1 PUSH2 0x4C65 JUMP JUMPDEST PUSH1 0x40 MLOAD DUP1 SWAP2 SUB SWAP1 LOG3 POP POP POP POP POP POP POP JUMP JUMPDEST PUSH1 0x0 PUSH2 0xF27 PUSH2 0x39A5 JUMP JUMPDEST PUSH1 0x3 DUP5 DUP2 SLOAD DUP2 LT PUSH2 0xF34 JUMPI INVALID JUMPDEST SWAP1 PUSH1 0x0 MSTORE PUSH1 0x20 PUSH1 0x0 KECCAK256 ADD PUSH1 0x40 MLOAD DUP1 PUSH1 0x60 ADD PUSH1 0x40 MSTORE SWAP1 DUP2 PUSH1 0x0 DUP3 ADD PUSH1 0x0 SWAP1 SLOAD SWAP1 PUSH2 0x100 EXP SWAP1 DIV PUSH16 0xFFFFFFFFFFFFFFFFFFFFFFFFFFFFFFFF AND PUSH16 0xFFFFFFFFFFFFFFFFFFFFFFFFFFFFFFFF AND PUSH16 0xFFFFFFFFFFFFFFFFFFFFFFFFFFFFFFFF AND DUP2 MSTORE PUSH1 0x20 ADD PUSH1 0x0 DUP3 ADD PUSH1 0x10 SWAP1 SLOAD SWAP1 PUSH2 0x100 EXP SWAP1 DIV PUSH8 0xFFFFFFFFFFFFFFFF AND PUSH8 0xFFFFFFFFFFFFFFFF AND PUSH8 0xFFFFFFFFFFFFFFFF AND DUP2 MSTORE PUSH1 0x20 ADD PUSH1 0x0 DUP3 ADD PUSH1 0x18 SWAP1 SLOAD SWAP1 PUSH2 0x100 EXP SWAP1 DIV PUSH8 0xFFFFFFFFFFFFFFFF AND PUSH8 0xFFFFFFFFFFFFFFFF AND PUSH8 0xFFFFFFFFFFFFFFFF AND DUP2 MSTORE POP POP SWAP1 POP PUSH1 0x0 PUSH1 0x6 PUSH1 0x0 DUP7 DUP2 MSTORE PUSH1 0x20 ADD SWAP1 DUP2 MSTORE PUSH1 0x20 ADD PUSH1 0x0 KECCAK256 PUSH1 0x0 DUP6 PUSH20 0xFFFFFFFFFFFFFFFFFFFFFFFFFFFFFFFFFFFFFFFF AND PUSH20 0xFFFFFFFFFFFFFFFFFFFFFFFFFFFFFFFFFFFFFFFF AND DUP2 MSTORE PUSH1 0x20 ADD SWAP1 DUP2 MSTORE PUSH1 0x20 ADD PUSH1 0x0 KECCAK256 SWAP1 POP PUSH1 0x0 DUP3 PUSH1 0x0 ADD MLOAD PUSH16 0xFFFFFFFFFFFFFFFFFFFFFFFFFFFFFFFF AND SWAP1 POP PUSH1 0x0 PUSH1 0x4 DUP8 DUP2 SLOAD DUP2 LT PUSH2 0x1077 JUMPI INVALID JUMPDEST SWAP1 PUSH1 0x0 MSTORE PUSH1 0x20 PUSH1 0x0 KECCAK256 ADD PUSH1 0x0 SWAP1 SLOAD SWAP1 PUSH2 0x100 EXP SWAP1 DIV PUSH20 0xFFFFFFFFFFFFFFFFFFFFFFFFFFFFFFFFFFFFFFFF AND PUSH20 0xFFFFFFFFFFFFFFFFFFFFFFFFFFFFFFFFFFFFFFFF AND PUSH4 0x70A08231 ADDRESS PUSH1 0x40 MLOAD DUP3 PUSH4 0xFFFFFFFF AND PUSH1 0xE0 SHL DUP2 MSTORE PUSH1 0x4 ADD PUSH2 0x10DA SWAP2 SWAP1 PUSH2 0x4849 JUMP JUMPDEST PUSH1 0x20 PUSH1 0x40 MLOAD DUP1 DUP4 SUB DUP2 DUP7 DUP1 EXTCODESIZE ISZERO DUP1 ISZERO PUSH2 0x10F2 JUMPI PUSH1 0x0 DUP1 REVERT JUMPDEST POP GAS STATICCALL ISZERO DUP1 ISZERO PUSH2 0x1106 JUMPI RETURNDATASIZE PUSH1 0x0 DUP1 RETURNDATACOPY RETURNDATASIZE PUSH1 0x0 REVERT JUMPDEST POP POP POP POP PUSH1 0x40 MLOAD RETURNDATASIZE PUSH1 0x1F NOT PUSH1 0x1F DUP3 ADD AND DUP3 ADD DUP1 PUSH1 0x40 MSTORE POP DUP2 ADD SWAP1 PUSH2 0x112A SWAP2 SWAP1 PUSH2 0x3F04 JUMP JUMPDEST SWAP1 POP DUP4 PUSH1 0x20 ADD MLOAD PUSH8 0xFFFFFFFFFFFFFFFF AND NUMBER GT DUP1 ISZERO PUSH2 0x114A JUMPI POP PUSH1 0x0 DUP2 EQ ISZERO JUMPDEST ISZERO PUSH2 0x11F5 JUMPI PUSH1 0x0 PUSH2 0x1172 DUP6 PUSH1 0x20 ADD MLOAD PUSH8 0xFFFFFFFFFFFFFFFF AND NUMBER PUSH2 0x33BC SWAP1 SWAP2 SWAP1 PUSH4 0xFFFFFFFF AND JUMP JUMPDEST SWAP1 POP PUSH1 0x0 PUSH1 0x7 SLOAD PUSH2 0x11B3 DUP8 PUSH1 0x40 ADD MLOAD PUSH8 0xFFFFFFFFFFFFFFFF AND PUSH2 0x11A5 PUSH2 0x1196 PUSH2 0x2B5C JUMP JUMPDEST DUP7 PUSH2 0x32E2 SWAP1 SWAP2 SWAP1 PUSH4 0xFFFFFFFF AND JUMP JUMPDEST PUSH2 0x32E2 SWAP1 SWAP2 SWAP1 PUSH4 0xFFFFFFFF AND JUMP JUMPDEST DUP2 PUSH2 0x11BA JUMPI INVALID JUMPDEST DIV SWAP1 POP PUSH2 0x11F0 DUP4 PUSH2 0x11D9 PUSH5 0xE8D4A51000 DUP5 PUSH2 0x32E2 SWAP1 SWAP2 SWAP1 PUSH4 0xFFFFFFFF AND JUMP JUMPDEST DUP2 PUSH2 0x11E0 JUMPI INVALID JUMPDEST DIV DUP6 PUSH2 0x35AF SWAP1 SWAP2 SWAP1 PUSH4 0xFFFFFFFF AND JUMP JUMPDEST SWAP4 POP POP POP JUMPDEST PUSH2 0x1238 PUSH2 0x1233 DUP5 PUSH1 0x1 ADD SLOAD PUSH5 0xE8D4A51000 PUSH2 0x121D DUP7 DUP9 PUSH1 0x0 ADD SLOAD PUSH2 0x32E2 SWAP1 SWAP2 SWAP1 PUSH4 0xFFFFFFFF AND JUMP JUMPDEST DUP2 PUSH2 0x1224 JUMPI INVALID JUMPDEST DIV PUSH2 0x3344 SWAP1 SWAP2 SWAP1 PUSH4 0xFFFFFFFF AND JUMP JUMPDEST PUSH2 0x3562 JUMP JUMPDEST SWAP5 POP POP POP POP POP SWAP3 SWAP2 POP POP JUMP JUMPDEST PUSH1 0x0 DUP2 PUSH20 0xFFFFFFFFFFFFFFFFFFFFFFFFFFFFFFFFFFFFFFFF AND PUSH4 0x70A08231 CALLER PUSH1 0x40 MLOAD DUP3 PUSH4 0xFFFFFFFF AND PUSH1 0xE0 SHL DUP2 MSTORE PUSH1 0x4 ADD PUSH2 0x127F SWAP2 SWAP1 PUSH2 0x4864 JUMP JUMPDEST PUSH1 0x20 PUSH1 0x40 MLOAD DUP1 DUP4 SUB DUP2 DUP7 DUP1 EXTCODESIZE ISZERO DUP1 ISZERO PUSH2 0x1297 JUMPI PUSH1 0x0 DUP1 REVERT JUMPDEST POP GAS STATICCALL ISZERO DUP1 ISZERO PUSH2 0x12AB JUMPI RETURNDATASIZE PUSH1 0x0 DUP1 RETURNDATACOPY RETURNDATASIZE PUSH1 0x0 REVERT JUMPDEST POP POP POP POP PUSH1 0x40 MLOAD RETURNDATASIZE PUSH1 0x1F NOT PUSH1 0x1F DUP3 ADD AND DUP3 ADD DUP1 PUSH1 0x40 MSTORE POP DUP2 ADD SWAP1 PUSH2 0x12CF SWAP2 SWAP1 PUSH2 0x3F04 JUMP JUMPDEST SWAP1 POP PUSH1 0x0 DUP2 EQ ISZERO PUSH2 0x1315 JUMPI PUSH1 0x40 MLOAD PUSH32 0x8C379A000000000000000000000000000000000000000000000000000000000 DUP2 MSTORE PUSH1 0x4 ADD PUSH2 0x130C SWAP1 PUSH2 0x4A53 JUMP JUMPDEST PUSH1 0x40 MLOAD DUP1 SWAP2 SUB SWAP1 REVERT JUMPDEST PUSH2 0x1342 CALLER ADDRESS DUP4 DUP6 PUSH20 0xFFFFFFFFFFFFFFFFFFFFFFFFFFFFFFFFFFFFFFFF AND PUSH2 0x35FF SWAP1 SWAP4 SWAP3 SWAP2 SWAP1 PUSH4 0xFFFFFFFF AND JUMP JUMPDEST DUP2 PUSH20 0xFFFFFFFFFFFFFFFFFFFFFFFFFFFFFFFFFFFFFFFF AND PUSH4 0x95EA7B3 PUSH32 0x0 DUP4 PUSH1 0x40 MLOAD DUP4 PUSH4 0xFFFFFFFF AND PUSH1 0xE0 SHL DUP2 MSTORE PUSH1 0x4 ADD PUSH2 0x139D SWAP3 SWAP2 SWAP1 PUSH2 0x4925 JUMP JUMPDEST PUSH1 0x20 PUSH1 0x40 MLOAD DUP1 DUP4 SUB DUP2 PUSH1 0x0 DUP8 DUP1 EXTCODESIZE ISZERO DUP1 ISZERO PUSH2 0x13B7 JUMPI PUSH1 0x0 DUP1 REVERT JUMPDEST POP GAS CALL ISZERO DUP1 ISZERO PUSH2 0x13CB JUMPI RETURNDATASIZE PUSH1 0x0 DUP1 RETURNDATACOPY RETURNDATASIZE PUSH1 0x0 REVERT JUMPDEST POP POP POP POP PUSH1 0x40 MLOAD RETURNDATASIZE PUSH1 0x1F NOT PUSH1 0x1F DUP3 ADD AND DUP3 ADD DUP1 PUSH1 0x40 MSTORE POP DUP2 ADD SWAP1 PUSH2 0x13EF SWAP2 SWAP1 PUSH2 0x3D1B JUMP JUMPDEST POP PUSH32 0x0 PUSH20 0xFFFFFFFFFFFFFFFFFFFFFFFFFFFFFFFFFFFFFFFF AND PUSH4 0xE2BBB158 PUSH32 0x0 DUP4 PUSH1 0x40 MLOAD DUP4 PUSH4 0xFFFFFFFF AND PUSH1 0xE0 SHL DUP2 MSTORE PUSH1 0x4 ADD PUSH2 0x146B SWAP3 SWAP2 SWAP1 PUSH2 0x4E47 JUMP JUMPDEST PUSH1 0x0 PUSH1 0x40 MLOAD DUP1 DUP4 SUB DUP2 PUSH1 0x0 DUP8 DUP1 EXTCODESIZE ISZERO DUP1 ISZERO PUSH2 0x1485 JUMPI PUSH1 0x0 DUP1 REVERT JUMPDEST POP GAS CALL ISZERO DUP1 ISZERO PUSH2 0x1499 JUMPI RETURNDATASIZE PUSH1 0x0 DUP1 RETURNDATACOPY RETURNDATASIZE PUSH1 0x0 REVERT JUMPDEST POP POP POP POP PUSH32 0x98A9BD3B7A617581FC53B1E2992534E0E0CB5091C9D44AA1A7FC978F706CAA83 PUSH1 0x40 MLOAD PUSH1 0x40 MLOAD DUP1 SWAP2 SUB SWAP1 LOG1 POP POP JUMP JUMPDEST PUSH1 0x0 DUP1 SLOAD SWAP1 PUSH2 0x100 EXP SWAP1 DIV PUSH20 0xFFFFFFFFFFFFFFFFFFFFFFFFFFFFFFFFFFFFFFFF AND PUSH20 0xFFFFFFFFFFFFFFFFFFFFFFFFFFFFFFFFFFFFFFFF AND CALLER PUSH20 0xFFFFFFFFFFFFFFFFFFFFFFFFFFFFFFFFFFFFFFFF AND EQ PUSH2 0x155B JUMPI PUSH1 0x40 MLOAD PUSH32 0x8C379A000000000000000000000000000000000000000000000000000000000 DUP2 MSTORE PUSH1 0x4 ADD PUSH2 0x1552 SWAP1 PUSH2 0x4B33 JUMP JUMPDEST PUSH1 0x40 MLOAD DUP1 SWAP2 SUB SWAP1 REVERT JUMPDEST DUP1 PUSH1 0x2 PUSH1 0x0 PUSH2 0x100 EXP DUP2 SLOAD DUP2 PUSH20 0xFFFFFFFFFFFFFFFFFFFFFFFFFFFFFFFFFFFFFFFF MUL NOT AND SWAP1 DUP4 PUSH20 0xFFFFFFFFFFFFFFFFFFFFFFFFFFFFFFFFFFFFFFFF AND MUL OR SWAP1 SSTORE POP POP JUMP JUMPDEST PUSH1 0x0 PUSH1 0x6 PUSH1 0x0 DUP5 DUP2 MSTORE PUSH1 0x20 ADD SWAP1 DUP2 MSTORE PUSH1 0x20 ADD PUSH1 0x0 KECCAK256 PUSH1 0x0 CALLER PUSH20 0xFFFFFFFFFFFFFFFFFFFFFFFFFFFFFFFFFFFFFFFF AND PUSH20 0xFFFFFFFFFFFFFFFFFFFFFFFFFFFFFFFFFFFFFFFF AND DUP2 MSTORE PUSH1 0x20 ADD SWAP1 DUP2 MSTORE PUSH1 0x20 ADD PUSH1 0x0 KECCAK256 SWAP1 POP PUSH1 0x0 DUP2 PUSH1 0x0 ADD SLOAD SWAP1 POP PUSH1 0x0 DUP3 PUSH1 0x0 ADD DUP2 SWAP1 SSTORE POP PUSH1 0x0 DUP3 PUSH1 0x1 ADD DUP2 SWAP1 SSTORE POP PUSH1 0x0 PUSH1 0x5 DUP6 DUP2 SLOAD DUP2 LT PUSH2 0x161F JUMPI INVALID JUMPDEST SWAP1 PUSH1 0x0 MSTORE PUSH1 0x20 PUSH1 0x0 KECCAK256 ADD PUSH1 0x0 SWAP1 SLOAD SWAP1 PUSH2 0x100 EXP SWAP1 DIV PUSH20 0xFFFFFFFFFFFFFFFFFFFFFFFFFFFFFFFFFFFFFFFF AND SWAP1 POP PUSH1 0x0 PUSH20 0xFFFFFFFFFFFFFFFFFFFFFFFFFFFFFFFFFFFFFFFF AND DUP2 PUSH20 0xFFFFFFFFFFFFFFFFFFFFFFFFFFFFFFFFFFFFFFFF AND EQ PUSH2 0x16F5 JUMPI DUP1 PUSH20 0xFFFFFFFFFFFFFFFFFFFFFFFFFFFFFFFFFFFFFFFF AND PUSH4 0x8BF63742 DUP7 CALLER DUP8 PUSH1 0x0 DUP1 PUSH1 0x40 MLOAD DUP7 PUSH4 0xFFFFFFFF AND PUSH1 0xE0 SHL DUP2 MSTORE PUSH1 0x4 ADD PUSH2 0x16C2 SWAP6 SWAP5 SWAP4 SWAP3 SWAP2 SWAP1 PUSH2 0x4C80 JUMP JUMPDEST PUSH1 0x0 PUSH1 0x40 MLOAD DUP1 DUP4 SUB DUP2 PUSH1 0x0 DUP8 DUP1 EXTCODESIZE ISZERO DUP1 ISZERO PUSH2 0x16DC JUMPI PUSH1 0x0 DUP1 REVERT JUMPDEST POP GAS CALL ISZERO DUP1 ISZERO PUSH2 0x16F0 JUMPI RETURNDATASIZE PUSH1 0x0 DUP1 RETURNDATACOPY RETURNDATASIZE PUSH1 0x0 REVERT JUMPDEST POP POP POP POP JUMPDEST PUSH2 0x1757 DUP5 DUP4 PUSH1 0x4 DUP9 DUP2 SLOAD DUP2 LT PUSH2 0x1707 JUMPI INVALID JUMPDEST SWAP1 PUSH1 0x0 MSTORE PUSH1 0x20 PUSH1 0x0 KECCAK256 ADD PUSH1 0x0 SWAP1 SLOAD SWAP1 PUSH2 0x100 EXP SWAP1 DIV PUSH20 0xFFFFFFFFFFFFFFFFFFFFFFFFFFFFFFFFFFFFFFFF AND PUSH20 0xFFFFFFFFFFFFFFFFFFFFFFFFFFFFFFFFFFFFFFFF AND PUSH2 0x340C SWAP1 SWAP3 SWAP2 SWAP1 PUSH4 0xFFFFFFFF AND JUMP JUMPDEST DUP4 PUSH20 0xFFFFFFFFFFFFFFFFFFFFFFFFFFFFFFFFFFFFFFFF AND DUP6 CALLER PUSH20 0xFFFFFFFFFFFFFFFFFFFFFFFFFFFFFFFFFFFFFFFF AND PUSH32 0x2CAC5E20E1541D836381527A43F651851E302817B71DC8E810284E69210C1C6B DUP6 PUSH1 0x40 MLOAD PUSH2 0x17B5 SWAP2 SWAP1 PUSH2 0x4C65 JUMP JUMPDEST PUSH1 0x40 MLOAD DUP1 SWAP2 SUB SWAP1 LOG4 POP POP POP POP POP JUMP JUMPDEST PUSH1 0x0 PUSH20 0xFFFFFFFFFFFFFFFFFFFFFFFFFFFFFFFFFFFFFFFF AND PUSH1 0x2 PUSH1 0x0 SWAP1 SLOAD SWAP1 PUSH2 0x100 EXP SWAP1 DIV PUSH20 0xFFFFFFFFFFFFFFFFFFFFFFFFFFFFFFFFFFFFFFFF AND PUSH20 0xFFFFFFFFFFFFFFFFFFFFFFFFFFFFFFFFFFFFFFFF AND EQ ISZERO PUSH2 0x1856 JUMPI PUSH1 0x40 MLOAD PUSH32 0x8C379A000000000000000000000000000000000000000000000000000000000 DUP2 MSTORE PUSH1 0x4 ADD PUSH2 0x184D SWAP1 PUSH2 0x4B93 JUMP JUMPDEST PUSH1 0x40 MLOAD DUP1 SWAP2 SUB SWAP1 REVERT JUMPDEST PUSH1 0x0 PUSH1 0x4 DUP3 DUP2 SLOAD DUP2 LT PUSH2 0x1865 JUMPI INVALID JUMPDEST SWAP1 PUSH1 0x0 MSTORE PUSH1 0x20 PUSH1 0x0 KECCAK256 ADD PUSH1 0x0 SWAP1 SLOAD SWAP1 PUSH2 0x100 EXP SWAP1 DIV PUSH20 0xFFFFFFFFFFFFFFFFFFFFFFFFFFFFFFFFFFFFFFFF AND SWAP1 POP PUSH1 0x0 DUP2 PUSH20 0xFFFFFFFFFFFFFFFFFFFFFFFFFFFFFFFFFFFFFFFF AND PUSH4 0x70A08231 ADDRESS PUSH1 0x40 MLOAD DUP3 PUSH4 0xFFFFFFFF AND PUSH1 0xE0 SHL DUP2 MSTORE PUSH1 0x4 ADD PUSH2 0x18CD SWAP2 SWAP1 PUSH2 0x4849 JUMP JUMPDEST PUSH1 0x20 PUSH1 0x40 MLOAD DUP1 DUP4 SUB DUP2 DUP7 DUP1 EXTCODESIZE ISZERO DUP1 ISZERO PUSH2 0x18E5 JUMPI PUSH1 0x0 DUP1 REVERT JUMPDEST POP GAS STATICCALL ISZERO DUP1 ISZERO PUSH2 0x18F9 JUMPI RETURNDATASIZE PUSH1 0x0 DUP1 RETURNDATACOPY RETURNDATASIZE PUSH1 0x0 REVERT JUMPDEST POP POP POP POP PUSH1 0x40 MLOAD RETURNDATASIZE PUSH1 0x1F NOT PUSH1 0x1F DUP3 ADD AND DUP3 ADD DUP1 PUSH1 0x40 MSTORE POP DUP2 ADD SWAP1 PUSH2 0x191D SWAP2 SWAP1 PUSH2 0x3F04 JUMP JUMPDEST SWAP1 POP DUP2 PUSH20 0xFFFFFFFFFFFFFFFFFFFFFFFFFFFFFFFFFFFFFFFF AND PUSH4 0x95EA7B3 PUSH1 0x2 PUSH1 0x0 SWAP1 SLOAD SWAP1 PUSH2 0x100 EXP SWAP1 DIV PUSH20 0xFFFFFFFFFFFFFFFFFFFFFFFFFFFFFFFFFFFFFFFF AND DUP4 PUSH1 0x40 MLOAD DUP4 PUSH4 0xFFFFFFFF AND PUSH1 0xE0 SHL DUP2 MSTORE PUSH1 0x4 ADD PUSH2 0x197C SWAP3 SWAP2 SWAP1 PUSH2 0x4925 JUMP JUMPDEST PUSH1 0x20 PUSH1 0x40 MLOAD DUP1 DUP4 SUB DUP2 PUSH1 0x0 DUP8 DUP1 EXTCODESIZE ISZERO DUP1 ISZERO PUSH2 0x1996 JUMPI PUSH1 0x0 DUP1 REVERT JUMPDEST POP GAS CALL ISZERO DUP1 ISZERO PUSH2 0x19AA JUMPI RETURNDATASIZE PUSH1 0x0 DUP1 RETURNDATACOPY RETURNDATASIZE PUSH1 0x0 REVERT JUMPDEST POP POP POP POP PUSH1 0x40 MLOAD RETURNDATASIZE PUSH1 0x1F NOT PUSH1 0x1F DUP3 ADD AND DUP3 ADD DUP1 PUSH1 0x40 MSTORE POP DUP2 ADD SWAP1 PUSH2 0x19CE SWAP2 SWAP1 PUSH2 0x3D1B JUMP JUMPDEST POP PUSH1 0x0 PUSH1 0x2 PUSH1 0x0 SWAP1 SLOAD SWAP1 PUSH2 0x100 EXP SWAP1 DIV PUSH20 0xFFFFFFFFFFFFFFFFFFFFFFFFFFFFFFFFFFFFFFFF AND PUSH20 0xFFFFFFFFFFFFFFFFFFFFFFFFFFFFFFFFFFFFFFFF AND PUSH4 0xCE5494BB DUP5 PUSH1 0x40 MLOAD DUP3 PUSH4 0xFFFFFFFF AND PUSH1 0xE0 SHL DUP2 MSTORE PUSH1 0x4 ADD PUSH2 0x1A2C SWAP2 SWAP1 PUSH2 0x4985 JUMP JUMPDEST PUSH1 0x20 PUSH1 0x40 MLOAD DUP1 DUP4 SUB DUP2 PUSH1 0x0 DUP8 DUP1 EXTCODESIZE ISZERO DUP1 ISZERO PUSH2 0x1A46 JUMPI PUSH1 0x0 DUP1 REVERT JUMPDEST POP GAS CALL ISZERO DUP1 ISZERO PUSH2 0x1A5A JUMPI RETURNDATASIZE PUSH1 0x0 DUP1 RETURNDATACOPY RETURNDATASIZE PUSH1 0x0 REVERT JUMPDEST POP POP POP POP PUSH1 0x40 MLOAD RETURNDATASIZE PUSH1 0x1F NOT PUSH1 0x1F DUP3 ADD AND DUP3 ADD DUP1 PUSH1 0x40 MSTORE POP DUP2 ADD SWAP1 PUSH2 0x1A7E SWAP2 SWAP1 PUSH2 0x3D6D JUMP JUMPDEST SWAP1 POP DUP1 PUSH20 0xFFFFFFFFFFFFFFFFFFFFFFFFFFFFFFFFFFFFFFFF AND PUSH4 0x70A08231 ADDRESS PUSH1 0x40 MLOAD DUP3 PUSH4 0xFFFFFFFF AND PUSH1 0xE0 SHL DUP2 MSTORE PUSH1 0x4 ADD PUSH2 0x1AB9 SWAP2 SWAP1 PUSH2 0x4849 JUMP JUMPDEST PUSH1 0x20 PUSH1 0x40 MLOAD DUP1 DUP4 SUB DUP2 DUP7 DUP1 EXTCODESIZE ISZERO DUP1 ISZERO PUSH2 0x1AD1 JUMPI PUSH1 0x0 DUP1 REVERT JUMPDEST POP GAS STATICCALL ISZERO DUP1 ISZERO PUSH2 0x1AE5 JUMPI RETURNDATASIZE PUSH1 0x0 DUP1 RETURNDATACOPY RETURNDATASIZE PUSH1 0x0 REVERT JUMPDEST POP POP POP POP PUSH1 0x40 MLOAD RETURNDATASIZE PUSH1 0x1F NOT PUSH1 0x1F DUP3 ADD AND DUP3 ADD DUP1 PUSH1 0x40 MSTORE POP DUP2 ADD SWAP1 PUSH2 0x1B09 SWAP2 SWAP1 PUSH2 0x3F04 JUMP JUMPDEST DUP3 EQ PUSH2 0x1B4A JUMPI PUSH1 0x40 MLOAD PUSH32 0x8C379A000000000000000000000000000000000000000000000000000000000 DUP2 MSTORE PUSH1 0x4 ADD PUSH2 0x1B41 SWAP1 PUSH2 0x4AD3 JUMP JUMPDEST PUSH1 0x40 MLOAD DUP1 SWAP2 SUB SWAP1 REVERT JUMPDEST DUP1 PUSH1 0x4 DUP6 DUP2 SLOAD DUP2 LT PUSH2 0x1B58 JUMPI INVALID JUMPDEST SWAP1 PUSH1 0x0 MSTORE PUSH1 0x20 PUSH1 0x0 KECCAK256 ADD PUSH1 0x0 PUSH2 0x100 EXP DUP2 SLOAD DUP2 PUSH20 0xFFFFFFFFFFFFFFFFFFFFFFFFFFFFFFFFFFFFFFFF MUL NOT AND SWAP1 DUP4 PUSH20 0xFFFFFFFFFFFFFFFFFFFFFFFFFFFFFFFFFFFFFFFF AND MUL OR SWAP1 SSTORE POP POP POP POP POP JUMP JUMPDEST PUSH1 0x0 PUSH1 0x1 PUSH1 0x0 SWAP1 SLOAD SWAP1 PUSH2 0x100 EXP SWAP1 DIV PUSH20 0xFFFFFFFFFFFFFFFFFFFFFFFFFFFFFFFFFFFFFFFF AND SWAP1 POP DUP1 PUSH20 0xFFFFFFFFFFFFFFFFFFFFFFFFFFFFFFFFFFFFFFFF AND CALLER PUSH20 0xFFFFFFFFFFFFFFFFFFFFFFFFFFFFFFFFFFFFFFFF AND EQ PUSH2 0x1C3B JUMPI PUSH1 0x40 MLOAD PUSH32 0x8C379A000000000000000000000000000000000000000000000000000000000 DUP2 MSTORE PUSH1 0x4 ADD PUSH2 0x1C32 SWAP1 PUSH2 0x4B53 JUMP JUMPDEST PUSH1 0x40 MLOAD DUP1 SWAP2 SUB SWAP1 REVERT JUMPDEST DUP1 PUSH20 0xFFFFFFFFFFFFFFFFFFFFFFFFFFFFFFFFFFFFFFFF AND PUSH1 0x0 DUP1 SLOAD SWAP1 PUSH2 0x100 EXP SWAP1 DIV PUSH20 0xFFFFFFFFFFFFFFFFFFFFFFFFFFFFFFFFFFFFFFFF AND PUSH20 0xFFFFFFFFFFFFFFFFFFFFFFFFFFFFFFFFFFFFFFFF AND PUSH32 0x8BE0079C531659141344CD1FD0A4F28419497F9722A3DAAFE3B4186F6B6457E0 PUSH1 0x40 MLOAD PUSH1 0x40 MLOAD DUP1 SWAP2 SUB SWAP1 LOG3 DUP1 PUSH1 0x0 DUP1 PUSH2 0x100 EXP DUP2 SLOAD DUP2 PUSH20 0xFFFFFFFFFFFFFFFFFFFFFFFFFFFFFFFFFFFFFFFF MUL NOT AND SWAP1 DUP4 PUSH20 0xFFFFFFFFFFFFFFFFFFFFFFFFFFFFFFFFFFFFFFFF AND MUL OR SWAP1 SSTORE POP PUSH1 0x0 PUSH1 0x1 PUSH1 0x0 PUSH2 0x100 EXP DUP2 SLOAD DUP2 PUSH20 0xFFFFFFFFFFFFFFFFFFFFFFFFFFFFFFFFFFFFFFFF MUL NOT AND SWAP1 DUP4 PUSH20 0xFFFFFFFFFFFFFFFFFFFFFFFFFFFFFFFFFFFFFFFF AND MUL OR SWAP1 SSTORE POP POP JUMP JUMPDEST PUSH32 0x0 PUSH20 0xFFFFFFFFFFFFFFFFFFFFFFFFFFFFFFFFFFFFFFFF AND PUSH4 0xE2BBB158 PUSH32 0x0 PUSH1 0x0 PUSH1 0x40 MLOAD DUP4 PUSH4 0xFFFFFFFF AND PUSH1 0xE0 SHL DUP2 MSTORE PUSH1 0x4 ADD PUSH2 0x1DB6 SWAP3 SWAP2 SWAP1 PUSH2 0x4E1E JUMP JUMPDEST PUSH1 0x0 PUSH1 0x40 MLOAD DUP1 DUP4 SUB DUP2 PUSH1 0x0 DUP8 DUP1 EXTCODESIZE ISZERO DUP1 ISZERO PUSH2 0x1DD0 JUMPI PUSH1 0x0 DUP1 REVERT JUMPDEST POP GAS CALL ISZERO DUP1 ISZERO PUSH2 0x1DE4 JUMPI RETURNDATASIZE PUSH1 0x0 DUP1 RETURNDATACOPY RETURNDATASIZE PUSH1 0x0 REVERT JUMPDEST POP POP POP POP JUMP JUMPDEST PUSH2 0x1DF2 PUSH2 0x39A5 JUMP JUMPDEST PUSH1 0x3 DUP3 DUP2 SLOAD DUP2 LT PUSH2 0x1DFF JUMPI INVALID JUMPDEST SWAP1 PUSH1 0x0 MSTORE PUSH1 0x20 PUSH1 0x0 KECCAK256 ADD PUSH1 0x40 MLOAD DUP1 PUSH1 0x60 ADD PUSH1 0x40 MSTORE SWAP1 DUP2 PUSH1 0x0 DUP3 ADD PUSH1 0x0 SWAP1 SLOAD SWAP1 PUSH2 0x100 EXP SWAP1 DIV PUSH16 0xFFFFFFFFFFFFFFFFFFFFFFFFFFFFFFFF AND PUSH16 0xFFFFFFFFFFFFFFFFFFFFFFFFFFFFFFFF AND PUSH16 0xFFFFFFFFFFFFFFFFFFFFFFFFFFFFFFFF AND DUP2 MSTORE PUSH1 0x20 ADD PUSH1 0x0 DUP3 ADD PUSH1 0x10 SWAP1 SLOAD SWAP1 PUSH2 0x100 EXP SWAP1 DIV PUSH8 0xFFFFFFFFFFFFFFFF AND PUSH8 0xFFFFFFFFFFFFFFFF AND PUSH8 0xFFFFFFFFFFFFFFFF AND DUP2 MSTORE PUSH1 0x20 ADD PUSH1 0x0 DUP3 ADD PUSH1 0x18 SWAP1 SLOAD SWAP1 PUSH2 0x100 EXP SWAP1 DIV PUSH8 0xFFFFFFFFFFFFFFFF AND PUSH8 0xFFFFFFFFFFFFFFFF AND PUSH8 0xFFFFFFFFFFFFFFFF AND DUP2 MSTORE POP POP SWAP1 POP DUP1 PUSH1 0x20 ADD MLOAD PUSH8 0xFFFFFFFFFFFFFFFF AND NUMBER GT ISZERO PUSH2 0x21BE JUMPI PUSH1 0x0 PUSH1 0x4 DUP4 DUP2 SLOAD DUP2 LT PUSH2 0x1EE9 JUMPI INVALID JUMPDEST SWAP1 PUSH1 0x0 MSTORE PUSH1 0x20 PUSH1 0x0 KECCAK256 ADD PUSH1 0x0 SWAP1 SLOAD SWAP1 PUSH2 0x100 EXP SWAP1 DIV PUSH20 0xFFFFFFFFFFFFFFFFFFFFFFFFFFFFFFFFFFFFFFFF AND PUSH20 0xFFFFFFFFFFFFFFFFFFFFFFFFFFFFFFFFFFFFFFFF AND PUSH4 0x70A08231 ADDRESS PUSH1 0x40 MLOAD DUP3 PUSH4 0xFFFFFFFF AND PUSH1 0xE0 SHL DUP2 MSTORE PUSH1 0x4 ADD PUSH2 0x1F4C SWAP2 SWAP1 PUSH2 0x4849 JUMP JUMPDEST PUSH1 0x20 PUSH1 0x40 MLOAD DUP1 DUP4 SUB DUP2 DUP7 DUP1 EXTCODESIZE ISZERO DUP1 ISZERO PUSH2 0x1F64 JUMPI PUSH1 0x0 DUP1 REVERT JUMPDEST POP GAS STATICCALL ISZERO DUP1 ISZERO PUSH2 0x1F78 JUMPI RETURNDATASIZE PUSH1 0x0 DUP1 RETURNDATACOPY RETURNDATASIZE PUSH1 0x0 REVERT JUMPDEST POP POP POP POP PUSH1 0x40 MLOAD RETURNDATASIZE PUSH1 0x1F NOT PUSH1 0x1F DUP3 ADD AND DUP3 ADD DUP1 PUSH1 0x40 MSTORE POP DUP2 ADD SWAP1 PUSH2 0x1F9C SWAP2 SWAP1 PUSH2 0x3F04 JUMP JUMPDEST SWAP1 POP PUSH1 0x0 DUP2 GT ISZERO PUSH2 0x2098 JUMPI PUSH1 0x0 PUSH2 0x1FCA DUP4 PUSH1 0x20 ADD MLOAD PUSH8 0xFFFFFFFFFFFFFFFF AND NUMBER PUSH2 0x33BC SWAP1 SWAP2 SWAP1 PUSH4 0xFFFFFFFF AND JUMP JUMPDEST SWAP1 POP PUSH1 0x0 PUSH1 0x7 SLOAD PUSH2 0x200B DUP6 PUSH1 0x40 ADD MLOAD PUSH8 0xFFFFFFFFFFFFFFFF AND PUSH2 0x1FFD PUSH2 0x1FEE PUSH2 0x2B5C JUMP JUMPDEST DUP7 PUSH2 0x32E2 SWAP1 SWAP2 SWAP1 PUSH4 0xFFFFFFFF AND JUMP JUMPDEST PUSH2 0x32E2 SWAP1 SWAP2 SWAP1 PUSH4 0xFFFFFFFF AND JUMP JUMPDEST DUP2 PUSH2 0x2012 JUMPI INVALID JUMPDEST DIV SWAP1 POP PUSH2 0x2066 PUSH2 0x2041 DUP5 PUSH2 0x2034 PUSH5 0xE8D4A51000 DUP6 PUSH2 0x32E2 SWAP1 SWAP2 SWAP1 PUSH4 0xFFFFFFFF AND JUMP JUMPDEST DUP2 PUSH2 0x203B JUMPI INVALID JUMPDEST DIV PUSH2 0x3758 JUMP JUMPDEST DUP6 PUSH1 0x0 ADD MLOAD PUSH16 0xFFFFFFFFFFFFFFFFFFFFFFFFFFFFFFFF AND PUSH2 0x37D7 SWAP1 SWAP2 SWAP1 PUSH4 0xFFFFFFFF AND JUMP JUMPDEST DUP5 PUSH1 0x0 ADD SWAP1 PUSH16 0xFFFFFFFFFFFFFFFFFFFFFFFFFFFFFFFF AND SWAP1 DUP2 PUSH16 0xFFFFFFFFFFFFFFFFFFFFFFFFFFFFFFFF AND DUP2 MSTORE POP POP POP POP JUMPDEST PUSH2 0x20A1 NUMBER PUSH2 0x384B JUMP JUMPDEST DUP3 PUSH1 0x20 ADD SWAP1 PUSH8 0xFFFFFFFFFFFFFFFF AND SWAP1 DUP2 PUSH8 0xFFFFFFFFFFFFFFFF AND DUP2 MSTORE POP POP DUP2 PUSH1 0x3 DUP5 DUP2 SLOAD DUP2 LT PUSH2 0x20CE JUMPI INVALID JUMPDEST SWAP1 PUSH1 0x0 MSTORE PUSH1 0x20 PUSH1 0x0 KECCAK256 ADD PUSH1 0x0 DUP3 ADD MLOAD DUP2 PUSH1 0x0 ADD PUSH1 0x0 PUSH2 0x100 EXP DUP2 SLOAD DUP2 PUSH16 0xFFFFFFFFFFFFFFFFFFFFFFFFFFFFFFFF MUL NOT AND SWAP1 DUP4 PUSH16 0xFFFFFFFFFFFFFFFFFFFFFFFFFFFFFFFF AND MUL OR SWAP1 SSTORE POP PUSH1 0x20 DUP3 ADD MLOAD DUP2 PUSH1 0x0 ADD PUSH1 0x10 PUSH2 0x100 EXP DUP2 SLOAD DUP2 PUSH8 0xFFFFFFFFFFFFFFFF MUL NOT AND SWAP1 DUP4 PUSH8 0xFFFFFFFFFFFFFFFF AND MUL OR SWAP1 SSTORE POP PUSH1 0x40 DUP3 ADD MLOAD DUP2 PUSH1 0x0 ADD PUSH1 0x18 PUSH2 0x100 EXP DUP2 SLOAD DUP2 PUSH8 0xFFFFFFFFFFFFFFFF MUL NOT AND SWAP1 DUP4 PUSH8 0xFFFFFFFFFFFFFFFF AND MUL OR SWAP1 SSTORE POP SWAP1 POP POP DUP3 PUSH32 0xFC9545022A542541AD085D091FB09A2AB36FEE366A4576AB63714EA907AD353 DUP4 PUSH1 0x20 ADD MLOAD DUP4 DUP6 PUSH1 0x0 ADD MLOAD PUSH1 0x40 MLOAD PUSH2 0x21B4 SWAP4 SWAP3 SWAP2 SWAP1 PUSH2 0x4E70 JUMP JUMPDEST PUSH1 0x40 MLOAD DUP1 SWAP2 SUB SWAP1 LOG2 POP JUMPDEST SWAP2 SWAP1 POP JUMP JUMPDEST PUSH1 0x0 DUP3 DUP3 SWAP1 POP SWAP1 POP PUSH1 0x0 JUMPDEST DUP2 DUP2 LT ISZERO PUSH2 0x21FD JUMPI PUSH2 0x21F1 DUP5 DUP5 DUP4 DUP2 DUP2 LT PUSH2 0x21E5 JUMPI INVALID JUMPDEST SWAP1 POP PUSH1 0x20 MUL ADD CALLDATALOAD PUSH2 0x1DEA JUMP JUMPDEST POP DUP1 PUSH1 0x1 ADD SWAP1 POP PUSH2 0x21CE JUMP JUMPDEST POP POP POP POP JUMP JUMPDEST PUSH32 0x0 DUP2 JUMP JUMPDEST PUSH1 0x4 DUP2 DUP2 SLOAD DUP2 LT PUSH2 0x2234 JUMPI INVALID JUMPDEST SWAP1 PUSH1 0x0 MSTORE PUSH1 0x20 PUSH1 0x0 KECCAK256 ADD PUSH1 0x0 SWAP2 POP SLOAD SWAP1 PUSH2 0x100 EXP SWAP1 DIV PUSH20 0xFFFFFFFFFFFFFFFFFFFFFFFFFFFFFFFFFFFFFFFF AND DUP2 JUMP JUMPDEST DUP8 PUSH20 0xFFFFFFFFFFFFFFFFFFFFFFFFFFFFFFFFFFFFFFFF AND PUSH4 0xD505ACCF DUP9 DUP9 DUP9 DUP9 DUP9 DUP9 DUP9 PUSH1 0x40 MLOAD DUP9 PUSH4 0xFFFFFFFF AND PUSH1 0xE0 SHL DUP2 MSTORE PUSH1 0x4 ADD PUSH2 0x22A8 SWAP8 SWAP7 SWAP6 SWAP5 SWAP4 SWAP3 SWAP2 SWAP1 PUSH2 0x48B6 JUMP JUMPDEST PUSH1 0x0 PUSH1 0x40 MLOAD DUP1 DUP4 SUB DUP2 PUSH1 0x0 DUP8 DUP1 EXTCODESIZE ISZERO DUP1 ISZERO PUSH2 0x22C2 JUMPI PUSH1 0x0 DUP1 REVERT JUMPDEST POP GAS CALL ISZERO DUP1 ISZERO PUSH2 0x22D6 JUMPI RETURNDATASIZE PUSH1 0x0 DUP1 RETURNDATACOPY RETURNDATASIZE PUSH1 0x0 REVERT JUMPDEST POP POP POP POP POP POP POP POP POP POP POP POP JUMP JUMPDEST PUSH1 0x2 PUSH1 0x0 SWAP1 SLOAD SWAP1 PUSH2 0x100 EXP SWAP1 DIV PUSH20 0xFFFFFFFFFFFFFFFFFFFFFFFFFFFFFFFFFFFFFFFF AND DUP2 JUMP JUMPDEST PUSH1 0x0 DUP1 SLOAD SWAP1 PUSH2 0x100 EXP SWAP1 DIV PUSH20 0xFFFFFFFFFFFFFFFFFFFFFFFFFFFFFFFFFFFFFFFF AND PUSH20 0xFFFFFFFFFFFFFFFFFFFFFFFFFFFFFFFFFFFFFFFF AND CALLER PUSH20 0xFFFFFFFFFFFFFFFFFFFFFFFFFFFFFFFFFFFFFFFF AND EQ PUSH2 0x2398 JUMPI PUSH1 0x40 MLOAD PUSH32 0x8C379A000000000000000000000000000000000000000000000000000000000 DUP2 MSTORE PUSH1 0x4 ADD PUSH2 0x238F SWAP1 PUSH2 0x4B33 JUMP JUMPDEST PUSH1 0x40 MLOAD DUP1 SWAP2 SUB SWAP1 REVERT JUMPDEST PUSH2 0x23F7 DUP4 PUSH2 0x23E9 PUSH1 0x3 DUP8 DUP2 SLOAD DUP2 LT PUSH2 0x23AC JUMPI INVALID JUMPDEST SWAP1 PUSH1 0x0 MSTORE PUSH1 0x20 PUSH1 0x0 KECCAK256 ADD PUSH1 0x0 ADD PUSH1 0x18 SWAP1 SLOAD SWAP1 PUSH2 0x100 EXP SWAP1 DIV PUSH8 0xFFFFFFFFFFFFFFFF AND PUSH8 0xFFFFFFFFFFFFFFFF AND PUSH1 0x7 SLOAD PUSH2 0x33BC SWAP1 SWAP2 SWAP1 PUSH4 0xFFFFFFFF AND JUMP JUMPDEST PUSH2 0x35AF SWAP1 SWAP2 SWAP1 PUSH4 0xFFFFFFFF AND JUMP JUMPDEST PUSH1 0x7 DUP2 SWAP1 SSTORE POP PUSH2 0x2406 DUP4 PUSH2 0x384B JUMP JUMPDEST PUSH1 0x3 DUP6 DUP2 SLOAD DUP2 LT PUSH2 0x2413 JUMPI INVALID JUMPDEST SWAP1 PUSH1 0x0 MSTORE PUSH1 0x20 PUSH1 0x0 KECCAK256 ADD PUSH1 0x0 ADD PUSH1 0x18 PUSH2 0x100 EXP DUP2 SLOAD DUP2 PUSH8 0xFFFFFFFFFFFFFFFF MUL NOT AND SWAP1 DUP4 PUSH8 0xFFFFFFFFFFFFFFFF AND MUL OR SWAP1 SSTORE POP DUP1 ISZERO PUSH2 0x24A3 JUMPI DUP2 PUSH1 0x5 DUP6 DUP2 SLOAD DUP2 LT PUSH2 0x245A JUMPI INVALID JUMPDEST SWAP1 PUSH1 0x0 MSTORE PUSH1 0x20 PUSH1 0x0 KECCAK256 ADD PUSH1 0x0 PUSH2 0x100 EXP DUP2 SLOAD DUP2 PUSH20 0xFFFFFFFFFFFFFFFFFFFFFFFFFFFFFFFFFFFFFFFF MUL NOT AND SWAP1 DUP4 PUSH20 0xFFFFFFFFFFFFFFFFFFFFFFFFFFFFFFFFFFFFFFFF AND MUL OR SWAP1 SSTORE POP JUMPDEST DUP1 PUSH2 0x24E5 JUMPI PUSH1 0x5 DUP5 DUP2 SLOAD DUP2 LT PUSH2 0x24B5 JUMPI INVALID JUMPDEST SWAP1 PUSH1 0x0 MSTORE PUSH1 0x20 PUSH1 0x0 KECCAK256 ADD PUSH1 0x0 SWAP1 SLOAD SWAP1 PUSH2 0x100 EXP SWAP1 DIV PUSH20 0xFFFFFFFFFFFFFFFFFFFFFFFFFFFFFFFFFFFFFFFF AND PUSH2 0x24E7 JUMP JUMPDEST DUP2 JUMPDEST PUSH20 0xFFFFFFFFFFFFFFFFFFFFFFFFFFFFFFFFFFFFFFFF AND DUP5 PUSH32 0x95895A6AB1DF54420D241B55243258A33E61B2194DB66C1179EC521AAE8E1865 DUP6 DUP5 PUSH1 0x40 MLOAD PUSH2 0x252F SWAP3 SWAP2 SWAP1 PUSH2 0x4DCC JUMP JUMPDEST PUSH1 0x40 MLOAD DUP1 SWAP2 SUB SWAP1 LOG3 POP POP POP POP JUMP JUMPDEST PUSH1 0x0 DUP1 SLOAD SWAP1 PUSH2 0x100 EXP SWAP1 DIV PUSH20 0xFFFFFFFFFFFFFFFFFFFFFFFFFFFFFFFFFFFFFFFF AND DUP2 JUMP JUMPDEST PUSH2 0x2569 PUSH2 0x39A5 JUMP JUMPDEST PUSH2 0x2572 DUP5 PUSH2 0x1DEA JUMP JUMPDEST SWAP1 POP PUSH1 0x0 PUSH1 0x6 PUSH1 0x0 DUP7 DUP2 MSTORE PUSH1 0x20 ADD SWAP1 DUP2 MSTORE PUSH1 0x20 ADD PUSH1 0x0 KECCAK256 PUSH1 0x0 DUP5 PUSH20 0xFFFFFFFFFFFFFFFFFFFFFFFFFFFFFFFFFFFFFFFF AND PUSH20 0xFFFFFFFFFFFFFFFFFFFFFFFFFFFFFFFFFFFFFFFF AND DUP2 MSTORE PUSH1 0x20 ADD SWAP1 DUP2 MSTORE PUSH1 0x20 ADD PUSH1 0x0 KECCAK256 SWAP1 POP PUSH2 0x25DF DUP5 DUP3 PUSH1 0x0 ADD SLOAD PUSH2 0x35AF SWAP1 SWAP2 SWAP1 PUSH4 0xFFFFFFFF AND JUMP JUMPDEST DUP2 PUSH1 0x0 ADD DUP2 SWAP1 SSTORE POP PUSH2 0x2634 PUSH5 0xE8D4A51000 PUSH2 0x2619 DUP5 PUSH1 0x0 ADD MLOAD PUSH16 0xFFFFFFFFFFFFFFFFFFFFFFFFFFFFFFFF AND DUP8 PUSH2 0x32E2 SWAP1 SWAP2 SWAP1 PUSH4 0xFFFFFFFF AND JUMP JUMPDEST DUP2 PUSH2 0x2620 JUMPI INVALID JUMPDEST DIV DUP3 PUSH1 0x1 ADD SLOAD PUSH2 0x38C2 SWAP1 SWAP2 SWAP1 PUSH4 0xFFFFFFFF AND JUMP JUMPDEST DUP2 PUSH1 0x1 ADD DUP2 SWAP1 SSTORE POP PUSH1 0x0 PUSH1 0x5 DUP7 DUP2 SLOAD DUP2 LT PUSH2 0x264B JUMPI INVALID JUMPDEST SWAP1 PUSH1 0x0 MSTORE PUSH1 0x20 PUSH1 0x0 KECCAK256 ADD PUSH1 0x0 SWAP1 SLOAD SWAP1 PUSH2 0x100 EXP SWAP1 DIV PUSH20 0xFFFFFFFFFFFFFFFFFFFFFFFFFFFFFFFFFFFFFFFF AND SWAP1 POP PUSH1 0x0 PUSH20 0xFFFFFFFFFFFFFFFFFFFFFFFFFFFFFFFFFFFFFFFF AND DUP2 PUSH20 0xFFFFFFFFFFFFFFFFFFFFFFFFFFFFFFFFFFFFFFFF AND EQ PUSH2 0x2725 JUMPI DUP1 PUSH20 0xFFFFFFFFFFFFFFFFFFFFFFFFFFFFFFFFFFFFFFFF AND PUSH4 0x8BF63742 DUP8 DUP7 DUP8 PUSH1 0x0 DUP8 PUSH1 0x0 ADD SLOAD PUSH1 0x40 MLOAD DUP7 PUSH4 0xFFFFFFFF AND PUSH1 0xE0 SHL DUP2 MSTORE PUSH1 0x4 ADD PUSH2 0x26F2 SWAP6 SWAP5 SWAP4 SWAP3 SWAP2 SWAP1 PUSH2 0x4D79 JUMP JUMPDEST PUSH1 0x0 PUSH1 0x40 MLOAD DUP1 DUP4 SUB DUP2 PUSH1 0x0 DUP8 DUP1 EXTCODESIZE ISZERO DUP1 ISZERO PUSH2 0x270C JUMPI PUSH1 0x0 DUP1 REVERT JUMPDEST POP GAS CALL ISZERO DUP1 ISZERO PUSH2 0x2720 JUMPI RETURNDATASIZE PUSH1 0x0 DUP1 RETURNDATACOPY RETURNDATASIZE PUSH1 0x0 REVERT JUMPDEST POP POP POP POP JUMPDEST PUSH2 0x2789 CALLER ADDRESS DUP8 PUSH1 0x4 DUP11 DUP2 SLOAD DUP2 LT PUSH2 0x2738 JUMPI INVALID JUMPDEST SWAP1 PUSH1 0x0 MSTORE PUSH1 0x20 PUSH1 0x0 KECCAK256 ADD PUSH1 0x0 SWAP1 SLOAD SWAP1 PUSH2 0x100 EXP SWAP1 DIV PUSH20 0xFFFFFFFFFFFFFFFFFFFFFFFFFFFFFFFFFFFFFFFF AND PUSH20 0xFFFFFFFFFFFFFFFFFFFFFFFFFFFFFFFFFFFFFFFF AND PUSH2 0x35FF SWAP1 SWAP4 SWAP3 SWAP2 SWAP1 PUSH4 0xFFFFFFFF AND JUMP JUMPDEST DUP4 PUSH20 0xFFFFFFFFFFFFFFFFFFFFFFFFFFFFFFFFFFFFFFFF AND DUP7 CALLER PUSH20 0xFFFFFFFFFFFFFFFFFFFFFFFFFFFFFFFFFFFFFFFF AND PUSH32 0x2D7E648DD130FC184D383E55BB126AC4C9C60E8F94BF05ACDF557BA2D540B47 DUP9 PUSH1 0x40 MLOAD PUSH2 0x27E7 SWAP2 SWAP1 PUSH2 0x4C65 JUMP JUMPDEST PUSH1 0x40 MLOAD DUP1 SWAP2 SUB SWAP1 LOG4 POP POP POP POP POP POP JUMP JUMPDEST PUSH1 0x6 PUSH1 0x20 MSTORE DUP2 PUSH1 0x0 MSTORE PUSH1 0x40 PUSH1 0x0 KECCAK256 PUSH1 0x20 MSTORE DUP1 PUSH1 0x0 MSTORE PUSH1 0x40 PUSH1 0x0 KECCAK256 PUSH1 0x0 SWAP2 POP SWAP2 POP POP DUP1 PUSH1 0x0 ADD SLOAD SWAP1 DUP1 PUSH1 0x1 ADD SLOAD SWAP1 POP DUP3 JUMP JUMPDEST PUSH32 0x0 DUP2 JUMP JUMPDEST PUSH1 0x0 DUP1 SLOAD SWAP1 PUSH2 0x100 EXP SWAP1 DIV PUSH20 0xFFFFFFFFFFFFFFFFFFFFFFFFFFFFFFFFFFFFFFFF AND PUSH20 0xFFFFFFFFFFFFFFFFFFFFFFFFFFFFFFFFFFFFFFFF AND CALLER PUSH20 0xFFFFFFFFFFFFFFFFFFFFFFFFFFFFFFFFFFFFFFFF AND EQ PUSH2 0x28DA JUMPI PUSH1 0x40 MLOAD PUSH32 0x8C379A000000000000000000000000000000000000000000000000000000000 DUP2 MSTORE PUSH1 0x4 ADD PUSH2 0x28D1 SWAP1 PUSH2 0x4B33 JUMP JUMPDEST PUSH1 0x40 MLOAD DUP1 SWAP2 SUB SWAP1 REVERT JUMPDEST PUSH1 0x0 NUMBER SWAP1 POP PUSH2 0x28F4 DUP5 PUSH1 0x7 SLOAD PUSH2 0x35AF SWAP1 SWAP2 SWAP1 PUSH4 0xFFFFFFFF AND JUMP JUMPDEST PUSH1 0x7 DUP2 SWAP1 SSTORE POP PUSH1 0x4 DUP4 SWAP1 DUP1 PUSH1 0x1 DUP2 SLOAD ADD DUP1 DUP3 SSTORE DUP1 SWAP2 POP POP PUSH1 0x1 SWAP1 SUB SWAP1 PUSH1 0x0 MSTORE PUSH1 0x20 PUSH1 0x0 KECCAK256 ADD PUSH1 0x0 SWAP1 SWAP2 SWAP1 SWAP2 SWAP1 SWAP2 PUSH2 0x100 EXP DUP2 SLOAD DUP2 PUSH20 0xFFFFFFFFFFFFFFFFFFFFFFFFFFFFFFFFFFFFFFFF MUL NOT AND SWAP1 DUP4 PUSH20 0xFFFFFFFFFFFFFFFFFFFFFFFFFFFFFFFFFFFFFFFF AND MUL OR SWAP1 SSTORE POP PUSH1 0x5 DUP3 SWAP1 DUP1 PUSH1 0x1 DUP2 SLOAD ADD DUP1 DUP3 SSTORE DUP1 SWAP2 POP POP PUSH1 0x1 SWAP1 SUB SWAP1 PUSH1 0x0 MSTORE PUSH1 0x20 PUSH1 0x0 KECCAK256 ADD PUSH1 0x0 SWAP1 SWAP2 SWAP1 SWAP2 SWAP1 SWAP2 PUSH2 0x100 EXP DUP2 SLOAD DUP2 PUSH20 0xFFFFFFFFFFFFFFFFFFFFFFFFFFFFFFFFFFFFFFFF MUL NOT AND SWAP1 DUP4 PUSH20 0xFFFFFFFFFFFFFFFFFFFFFFFFFFFFFFFFFFFFFFFF AND MUL OR SWAP1 SSTORE POP PUSH1 0x3 PUSH1 0x40 MLOAD DUP1 PUSH1 0x60 ADD PUSH1 0x40 MSTORE DUP1 PUSH1 0x0 PUSH16 0xFFFFFFFFFFFFFFFFFFFFFFFFFFFFFFFF AND DUP2 MSTORE PUSH1 0x20 ADD PUSH2 0x29EF DUP5 PUSH2 0x384B JUMP JUMPDEST PUSH8 0xFFFFFFFFFFFFFFFF AND DUP2 MSTORE PUSH1 0x20 ADD PUSH2 0x2A07 DUP8 PUSH2 0x384B JUMP JUMPDEST PUSH8 0xFFFFFFFFFFFFFFFF AND DUP2 MSTORE POP SWAP1 DUP1 PUSH1 0x1 DUP2 SLOAD ADD DUP1 DUP3 SSTORE DUP1 SWAP2 POP POP PUSH1 0x1 SWAP1 SUB SWAP1 PUSH1 0x0 MSTORE PUSH1 0x20 PUSH1 0x0 KECCAK256 ADD PUSH1 0x0 SWAP1 SWAP2 SWAP1 SWAP2 SWAP1 SWAP2 POP PUSH1 0x0 DUP3 ADD MLOAD DUP2 PUSH1 0x0 ADD PUSH1 0x0 PUSH2 0x100 EXP DUP2 SLOAD DUP2 PUSH16 0xFFFFFFFFFFFFFFFFFFFFFFFFFFFFFFFF MUL NOT AND SWAP1 DUP4 PUSH16 0xFFFFFFFFFFFFFFFFFFFFFFFFFFFFFFFF AND MUL OR SWAP1 SSTORE POP PUSH1 0x20 DUP3 ADD MLOAD DUP2 PUSH1 0x0 ADD PUSH1 0x10 PUSH2 0x100 EXP DUP2 SLOAD DUP2 PUSH8 0xFFFFFFFFFFFFFFFF MUL NOT AND SWAP1 DUP4 PUSH8 0xFFFFFFFFFFFFFFFF AND MUL OR SWAP1 SSTORE POP PUSH1 0x40 DUP3 ADD MLOAD DUP2 PUSH1 0x0 ADD PUSH1 0x18 PUSH2 0x100 EXP DUP2 SLOAD DUP2 PUSH8 0xFFFFFFFFFFFFFFFF MUL NOT AND SWAP1 DUP4 PUSH8 0xFFFFFFFFFFFFFFFF AND MUL OR SWAP1 SSTORE POP POP POP DUP2 PUSH20 0xFFFFFFFFFFFFFFFFFFFFFFFFFFFFFFFFFFFFFFFF AND DUP4 PUSH20 0xFFFFFFFFFFFFFFFFFFFFFFFFFFFFFFFFFFFFFFFF AND PUSH2 0x2B1F PUSH1 0x1 PUSH1 0x4 DUP1 SLOAD SWAP1 POP PUSH2 0x33BC SWAP1 SWAP2 SWAP1 PUSH4 0xFFFFFFFF AND JUMP JUMPDEST PUSH32 0x81EE0F8C5C46E2CB41984886F77A84181724ABB86C32A5F6DE539B07509D45E5 DUP8 PUSH1 0x40 MLOAD PUSH2 0x2B4E SWAP2 SWAP1 PUSH2 0x4C65 JUMP JUMPDEST PUSH1 0x40 MLOAD DUP1 SWAP2 SUB SWAP1 LOG4 POP POP POP POP JUMP JUMPDEST PUSH1 0x0 PUSH32 0x0 PUSH20 0xFFFFFFFFFFFFFFFFFFFFFFFFFFFFFFFFFFFFFFFF AND PUSH4 0x17CAF6F1 PUSH1 0x40 MLOAD DUP2 PUSH4 0xFFFFFFFF AND PUSH1 0xE0 SHL DUP2 MSTORE PUSH1 0x4 ADD PUSH1 0x20 PUSH1 0x40 MLOAD DUP1 DUP4 SUB DUP2 DUP7 DUP1 EXTCODESIZE ISZERO DUP1 ISZERO PUSH2 0x2BC4 JUMPI PUSH1 0x0 DUP1 REVERT JUMPDEST POP GAS STATICCALL ISZERO DUP1 ISZERO PUSH2 0x2BD8 JUMPI RETURNDATASIZE PUSH1 0x0 DUP1 RETURNDATACOPY RETURNDATASIZE PUSH1 0x0 REVERT JUMPDEST POP POP POP POP PUSH1 0x40 MLOAD RETURNDATASIZE PUSH1 0x1F NOT PUSH1 0x1F DUP3 ADD AND DUP3 ADD DUP1 PUSH1 0x40 MSTORE POP DUP2 ADD SWAP1 PUSH2 0x2BFC SWAP2 SWAP1 PUSH2 0x3F04 JUMP JUMPDEST PUSH2 0x2CE4 PUSH32 0x0 PUSH20 0xFFFFFFFFFFFFFFFFFFFFFFFFFFFFFFFFFFFFFFFF AND PUSH4 0x1526FE27 PUSH32 0x0 PUSH1 0x40 MLOAD DUP3 PUSH4 0xFFFFFFFF AND PUSH1 0xE0 SHL DUP2 MSTORE PUSH1 0x4 ADD PUSH2 0x2C78 SWAP2 SWAP1 PUSH2 0x4C65 JUMP JUMPDEST PUSH1 0x80 PUSH1 0x40 MLOAD DUP1 DUP4 SUB DUP2 DUP7 DUP1 EXTCODESIZE ISZERO DUP1 ISZERO PUSH2 0x2C90 JUMPI PUSH1 0x0 DUP1 REVERT JUMPDEST POP GAS STATICCALL ISZERO DUP1 ISZERO PUSH2 0x2CA4 JUMPI RETURNDATASIZE PUSH1 0x0 DUP1 RETURNDATACOPY RETURNDATASIZE PUSH1 0x0 REVERT JUMPDEST POP POP POP POP PUSH1 0x40 MLOAD RETURNDATASIZE PUSH1 0x1F NOT PUSH1 0x1F DUP3 ADD AND DUP3 ADD DUP1 PUSH1 0x40 MSTORE POP DUP2 ADD SWAP1 PUSH2 0x2CC8 SWAP2 SWAP1 PUSH2 0x3EB2 JUMP JUMPDEST PUSH1 0x20 ADD MLOAD PUSH9 0x56BC75E2D63100000 PUSH2 0x32E2 SWAP1 SWAP2 SWAP1 PUSH4 0xFFFFFFFF AND JUMP JUMPDEST DUP2 PUSH2 0x2CEB JUMPI INVALID JUMPDEST DIV SWAP1 POP SWAP1 JUMP JUMPDEST PUSH1 0x5 DUP2 DUP2 SLOAD DUP2 LT PUSH2 0x2CFE JUMPI INVALID JUMPDEST SWAP1 PUSH1 0x0 MSTORE PUSH1 0x20 PUSH1 0x0 KECCAK256 ADD PUSH1 0x0 SWAP2 POP SLOAD SWAP1 PUSH2 0x100 EXP SWAP1 DIV PUSH20 0xFFFFFFFFFFFFFFFFFFFFFFFFFFFFFFFFFFFFFFFF AND DUP2 JUMP JUMPDEST PUSH2 0x2D35 PUSH2 0x39A5 JUMP JUMPDEST PUSH2 0x2D3E DUP5 PUSH2 0x1DEA JUMP JUMPDEST SWAP1 POP PUSH1 0x0 PUSH1 0x6 PUSH1 0x0 DUP7 DUP2 MSTORE PUSH1 0x20 ADD SWAP1 DUP2 MSTORE PUSH1 0x20 ADD PUSH1 0x0 KECCAK256 PUSH1 0x0 CALLER PUSH20 0xFFFFFFFFFFFFFFFFFFFFFFFFFFFFFFFFFFFFFFFF AND PUSH20 0xFFFFFFFFFFFFFFFFFFFFFFFFFFFFFFFFFFFFFFFF AND DUP2 MSTORE PUSH1 0x20 ADD SWAP1 DUP2 MSTORE PUSH1 0x20 ADD PUSH1 0x0 KECCAK256 SWAP1 POP PUSH1 0x0 PUSH5 0xE8D4A51000 PUSH2 0x2DC9 DUP5 PUSH1 0x0 ADD MLOAD PUSH16 0xFFFFFFFFFFFFFFFFFFFFFFFFFFFFFFFF AND DUP5 PUSH1 0x0 ADD SLOAD PUSH2 0x32E2 SWAP1 SWAP2 SWAP1 PUSH4 0xFFFFFFFF AND JUMP JUMPDEST DUP2 PUSH2 0x2DD0 JUMPI INVALID JUMPDEST DIV SWAP1 POP PUSH1 0x0 PUSH2 0x2DF4 PUSH2 0x2DEF DUP5 PUSH1 0x1 ADD SLOAD DUP5 PUSH2 0x3344 SWAP1 SWAP2 SWAP1 PUSH4 0xFFFFFFFF AND JUMP JUMPDEST PUSH2 0x3562 JUMP JUMPDEST SWAP1 POP PUSH2 0x2E3F PUSH5 0xE8D4A51000 PUSH2 0x2E28 DUP7 PUSH1 0x0 ADD MLOAD PUSH16 0xFFFFFFFFFFFFFFFFFFFFFFFFFFFFFFFF AND DUP10 PUSH2 0x32E2 SWAP1 SWAP2 SWAP1 PUSH4 0xFFFFFFFF AND JUMP JUMPDEST DUP2 PUSH2 0x2E2F JUMPI INVALID JUMPDEST DIV DUP4 PUSH2 0x3344 SWAP1 SWAP2 SWAP1 PUSH4 0xFFFFFFFF AND JUMP JUMPDEST DUP4 PUSH1 0x1 ADD DUP2 SWAP1 SSTORE POP PUSH2 0x2E5E DUP7 DUP5 PUSH1 0x0 ADD SLOAD PUSH2 0x33BC SWAP1 SWAP2 SWAP1 PUSH4 0xFFFFFFFF AND JUMP JUMPDEST DUP4 PUSH1 0x0 ADD DUP2 SWAP1 SSTORE POP PUSH2 0x2EB1 DUP6 DUP3 PUSH32 0x0 PUSH20 0xFFFFFFFFFFFFFFFFFFFFFFFFFFFFFFFFFFFFFFFF AND PUSH2 0x340C SWAP1 SWAP3 SWAP2 SWAP1 PUSH4 0xFFFFFFFF AND JUMP JUMPDEST PUSH1 0x0 PUSH1 0x5 DUP9 DUP2 SLOAD DUP2 LT PUSH2 0x2EC0 JUMPI INVALID JUMPDEST SWAP1 PUSH1 0x0 MSTORE PUSH1 0x20 PUSH1 0x0 KECCAK256 ADD PUSH1 0x0 SWAP1 SLOAD SWAP1 PUSH2 0x100 EXP SWAP1 DIV PUSH20 0xFFFFFFFFFFFFFFFFFFFFFFFFFFFFFFFFFFFFFFFF AND SWAP1 POP PUSH1 0x0 PUSH20 0xFFFFFFFFFFFFFFFFFFFFFFFFFFFFFFFFFFFFFFFF AND DUP2 PUSH20 0xFFFFFFFFFFFFFFFFFFFFFFFFFFFFFFFFFFFFFFFF AND EQ PUSH2 0x2F99 JUMPI DUP1 PUSH20 0xFFFFFFFFFFFFFFFFFFFFFFFFFFFFFFFFFFFFFFFF AND PUSH4 0x8BF63742 DUP10 CALLER DUP10 DUP7 DUP10 PUSH1 0x0 ADD SLOAD PUSH1 0x40 MLOAD DUP7 PUSH4 0xFFFFFFFF AND PUSH1 0xE0 SHL DUP2 MSTORE PUSH1 0x4 ADD PUSH2 0x2F66 SWAP6 SWAP5 SWAP4 SWAP3 SWAP2 SWAP1 PUSH2 0x4D26 JUMP JUMPDEST PUSH1 0x0 PUSH1 0x40 MLOAD DUP1 DUP4 SUB DUP2 PUSH1 0x0 DUP8 DUP1 EXTCODESIZE ISZERO DUP1 ISZERO PUSH2 0x2F80 JUMPI PUSH1 0x0 DUP1 REVERT JUMPDEST POP GAS CALL ISZERO DUP1 ISZERO PUSH2 0x2F94 JUMPI RETURNDATASIZE PUSH1 0x0 DUP1 RETURNDATACOPY RETURNDATASIZE PUSH1 0x0 REVERT JUMPDEST POP POP POP POP JUMPDEST PUSH2 0x2FFB DUP7 DUP9 PUSH1 0x4 DUP12 DUP2 SLOAD DUP2 LT PUSH2 0x2FAB JUMPI INVALID JUMPDEST SWAP1 PUSH1 0x0 MSTORE PUSH1 0x20 PUSH1 0x0 KECCAK256 ADD PUSH1 0x0 SWAP1 SLOAD SWAP1 PUSH2 0x100 EXP SWAP1 DIV PUSH20 0xFFFFFFFFFFFFFFFFFFFFFFFFFFFFFFFFFFFFFFFF AND PUSH20 0xFFFFFFFFFFFFFFFFFFFFFFFFFFFFFFFFFFFFFFFF AND PUSH2 0x340C SWAP1 SWAP3 SWAP2 SWAP1 PUSH4 0xFFFFFFFF AND JUMP JUMPDEST DUP6 PUSH20 0xFFFFFFFFFFFFFFFFFFFFFFFFFFFFFFFFFFFFFFFF AND DUP9 CALLER PUSH20 0xFFFFFFFFFFFFFFFFFFFFFFFFFFFFFFFFFFFFFFFF AND PUSH32 0x8166BF25F8A2B7ED3C85049207DA4358D16EDBED977D23FA2EE6F0DDE3EC2132 DUP11 PUSH1 0x40 MLOAD PUSH2 0x3059 SWAP2 SWAP1 PUSH2 0x4C65 JUMP JUMPDEST PUSH1 0x40 MLOAD DUP1 SWAP2 SUB SWAP1 LOG4 DUP8 CALLER PUSH20 0xFFFFFFFFFFFFFFFFFFFFFFFFFFFFFFFFFFFFFFFF AND PUSH32 0x71BAB65CED2E5750775A0613BE067DF48EF06CF92A496EBF7663AE0660924954 DUP5 PUSH1 0x40 MLOAD PUSH2 0x30A8 SWAP2 SWAP1 PUSH2 0x4C65 JUMP JUMPDEST PUSH1 0x40 MLOAD DUP1 SWAP2 SUB SWAP1 LOG3 POP POP POP POP POP POP POP POP JUMP JUMPDEST PUSH1 0x60 DUP1 DUP5 DUP5 SWAP1 POP PUSH8 0xFFFFFFFFFFFFFFFF DUP2 GT DUP1 ISZERO PUSH2 0x30D7 JUMPI PUSH1 0x0 DUP1 REVERT JUMPDEST POP PUSH1 0x40 MLOAD SWAP1 DUP1 DUP3 MSTORE DUP1 PUSH1 0x20 MUL PUSH1 0x20 ADD DUP3 ADD PUSH1 0x40 MSTORE DUP1 ISZERO PUSH2 0x3106 JUMPI DUP2 PUSH1 0x20 ADD PUSH1 0x20 DUP3 MUL DUP1 CALLDATASIZE DUP4 CALLDATACOPY DUP1 DUP3 ADD SWAP2 POP POP SWAP1 POP JUMPDEST POP SWAP2 POP DUP5 DUP5 SWAP1 POP PUSH8 0xFFFFFFFFFFFFFFFF DUP2 GT DUP1 ISZERO PUSH2 0x3123 JUMPI PUSH1 0x0 DUP1 REVERT JUMPDEST POP PUSH1 0x40 MLOAD SWAP1 DUP1 DUP3 MSTORE DUP1 PUSH1 0x20 MUL PUSH1 0x20 ADD DUP3 ADD PUSH1 0x40 MSTORE DUP1 ISZERO PUSH2 0x3157 JUMPI DUP2 PUSH1 0x20 ADD JUMPDEST PUSH1 0x60 DUP2 MSTORE PUSH1 0x20 ADD SWAP1 PUSH1 0x1 SWAP1 SUB SWAP1 DUP2 PUSH2 0x3142 JUMPI SWAP1 POP JUMPDEST POP SWAP1 POP PUSH1 0x0 JUMPDEST DUP6 DUP6 SWAP1 POP DUP2 LT ISZERO PUSH2 0x328F JUMPI PUSH1 0x0 PUSH1 0x60 ADDRESS PUSH20 0xFFFFFFFFFFFFFFFFFFFFFFFFFFFFFFFFFFFFFFFF AND DUP9 DUP9 DUP6 DUP2 DUP2 LT PUSH2 0x318F JUMPI INVALID JUMPDEST SWAP1 POP PUSH1 0x20 MUL DUP2 ADD SWAP1 PUSH2 0x31A1 SWAP2 SWAP1 PUSH2 0x4EA7 JUMP JUMPDEST PUSH1 0x40 MLOAD PUSH2 0x31AF SWAP3 SWAP2 SWAP1 PUSH2 0x4819 JUMP JUMPDEST PUSH1 0x0 PUSH1 0x40 MLOAD DUP1 DUP4 SUB DUP2 DUP6 GAS DELEGATECALL SWAP2 POP POP RETURNDATASIZE DUP1 PUSH1 0x0 DUP2 EQ PUSH2 0x31EA JUMPI PUSH1 0x40 MLOAD SWAP2 POP PUSH1 0x1F NOT PUSH1 0x3F RETURNDATASIZE ADD AND DUP3 ADD PUSH1 0x40 MSTORE RETURNDATASIZE DUP3 MSTORE RETURNDATASIZE PUSH1 0x0 PUSH1 0x20 DUP5 ADD RETURNDATACOPY PUSH2 0x31EF JUMP JUMPDEST PUSH1 0x60 SWAP2 POP JUMPDEST POP SWAP2 POP SWAP2 POP DUP2 DUP1 PUSH2 0x31FE JUMPI POP DUP6 ISZERO JUMPDEST PUSH2 0x3207 DUP3 PUSH2 0x393A JUMP JUMPDEST SWAP1 PUSH2 0x3248 JUMPI PUSH1 0x40 MLOAD PUSH32 0x8C379A000000000000000000000000000000000000000000000000000000000 DUP2 MSTORE PUSH1 0x4 ADD PUSH2 0x323F SWAP2 SWAP1 PUSH2 0x49F1 JUMP JUMPDEST PUSH1 0x40 MLOAD DUP1 SWAP2 SUB SWAP1 REVERT JUMPDEST POP DUP2 DUP6 DUP5 DUP2 MLOAD DUP2 LT PUSH2 0x3256 JUMPI INVALID JUMPDEST PUSH1 0x20 MUL PUSH1 0x20 ADD ADD SWAP1 ISZERO ISZERO SWAP1 DUP2 ISZERO ISZERO DUP2 MSTORE POP POP DUP1 DUP5 DUP5 DUP2 MLOAD DUP2 LT PUSH2 0x3275 JUMPI INVALID JUMPDEST PUSH1 0x20 MUL PUSH1 0x20 ADD ADD DUP2 SWAP1 MSTORE POP POP POP DUP1 DUP1 PUSH1 0x1 ADD SWAP2 POP POP PUSH2 0x315D JUMP JUMPDEST POP SWAP4 POP SWAP4 SWAP2 POP POP JUMP JUMPDEST PUSH1 0x1 PUSH1 0x0 SWAP1 SLOAD SWAP1 PUSH2 0x100 EXP SWAP1 DIV PUSH20 0xFFFFFFFFFFFFFFFFFFFFFFFFFFFFFFFFFFFFFFFF AND DUP2 JUMP JUMPDEST PUSH32 0x0 DUP2 JUMP JUMPDEST PUSH1 0x0 DUP1 DUP3 EQ DUP1 PUSH2 0x32FF JUMPI POP DUP3 DUP3 DUP4 DUP6 MUL SWAP3 POP DUP3 DUP2 PUSH2 0x32FC JUMPI INVALID JUMPDEST DIV EQ JUMPDEST PUSH2 0x333E JUMPI PUSH1 0x40 MLOAD PUSH32 0x8C379A000000000000000000000000000000000000000000000000000000000 DUP2 MSTORE PUSH1 0x4 ADD PUSH2 0x3335 SWAP1 PUSH2 0x4BF3 JUMP JUMPDEST PUSH1 0x40 MLOAD DUP1 SWAP2 SUB SWAP1 REVERT JUMPDEST SWAP3 SWAP2 POP POP JUMP JUMPDEST PUSH1 0x0 DUP1 DUP3 DUP5 SUB SWAP1 POP PUSH1 0x0 DUP4 SLT ISZERO DUP1 ISZERO PUSH2 0x335D JUMPI POP DUP4 DUP2 SGT ISZERO JUMPDEST DUP1 PUSH2 0x3373 JUMPI POP PUSH1 0x0 DUP4 SLT DUP1 ISZERO PUSH2 0x3372 JUMPI POP DUP4 DUP2 SGT JUMPDEST JUMPDEST PUSH2 0x33B2 JUMPI PUSH1 0x40 MLOAD PUSH32 0x8C379A000000000000000000000000000000000000000000000000000000000 DUP2 MSTORE PUSH1 0x4 ADD PUSH2 0x33A9 SWAP1 PUSH2 0x4BB3 JUMP JUMPDEST PUSH1 0x40 MLOAD DUP1 SWAP2 SUB SWAP1 REVERT JUMPDEST DUP1 SWAP2 POP POP SWAP3 SWAP2 POP POP JUMP JUMPDEST PUSH1 0x0 DUP3 DUP3 DUP5 SUB SWAP2 POP DUP2 GT ISZERO PUSH2 0x3406 JUMPI PUSH1 0x40 MLOAD PUSH32 0x8C379A000000000000000000000000000000000000000000000000000000000 DUP2 MSTORE PUSH1 0x4 ADD PUSH2 0x33FD SWAP1 PUSH2 0x4A13 JUMP JUMPDEST PUSH1 0x40 MLOAD DUP1 SWAP2 SUB SWAP1 REVERT JUMPDEST SWAP3 SWAP2 POP POP JUMP JUMPDEST PUSH1 0x0 PUSH1 0x60 DUP5 PUSH20 0xFFFFFFFFFFFFFFFFFFFFFFFFFFFFFFFFFFFFFFFF AND PUSH4 0xA9059CBB PUSH1 0xE0 SHL DUP6 DUP6 PUSH1 0x40 MLOAD PUSH1 0x24 ADD PUSH2 0x3442 SWAP3 SWAP2 SWAP1 PUSH2 0x4925 JUMP JUMPDEST PUSH1 0x40 MLOAD PUSH1 0x20 DUP2 DUP4 SUB SUB DUP2 MSTORE SWAP1 PUSH1 0x40 MSTORE SWAP1 PUSH28 0xFFFFFFFFFFFFFFFFFFFFFFFFFFFFFFFFFFFFFFFFFFFFFFFFFFFFFFFF NOT AND PUSH1 0x20 DUP3 ADD DUP1 MLOAD PUSH28 0xFFFFFFFFFFFFFFFFFFFFFFFFFFFFFFFFFFFFFFFFFFFFFFFFFFFFFFFF DUP4 DUP2 DUP4 AND OR DUP4 MSTORE POP POP POP POP PUSH1 0x40 MLOAD PUSH2 0x34AC SWAP2 SWAP1 PUSH2 0x4832 JUMP JUMPDEST PUSH1 0x0 PUSH1 0x40 MLOAD DUP1 DUP4 SUB DUP2 PUSH1 0x0 DUP7 GAS CALL SWAP2 POP POP RETURNDATASIZE DUP1 PUSH1 0x0 DUP2 EQ PUSH2 0x34E9 JUMPI PUSH1 0x40 MLOAD SWAP2 POP PUSH1 0x1F NOT PUSH1 0x3F RETURNDATASIZE ADD AND DUP3 ADD PUSH1 0x40 MSTORE RETURNDATASIZE DUP3 MSTORE RETURNDATASIZE PUSH1 0x0 PUSH1 0x20 DUP5 ADD RETURNDATACOPY PUSH2 0x34EE JUMP JUMPDEST PUSH1 0x60 SWAP2 POP JUMPDEST POP SWAP2 POP SWAP2 POP DUP2 DUP1 ISZERO PUSH2 0x351C JUMPI POP PUSH1 0x0 DUP2 MLOAD EQ DUP1 PUSH2 0x351B JUMPI POP DUP1 DUP1 PUSH1 0x20 ADD SWAP1 MLOAD DUP2 ADD SWAP1 PUSH2 0x351A SWAP2 SWAP1 PUSH2 0x3D1B JUMP JUMPDEST JUMPDEST JUMPDEST PUSH2 0x355B JUMPI PUSH1 0x40 MLOAD PUSH32 0x8C379A000000000000000000000000000000000000000000000000000000000 DUP2 MSTORE PUSH1 0x4 ADD PUSH2 0x3552 SWAP1 PUSH2 0x4A73 JUMP JUMPDEST PUSH1 0x40 MLOAD DUP1 SWAP2 SUB SWAP1 REVERT JUMPDEST POP POP POP POP POP JUMP JUMPDEST PUSH1 0x0 DUP1 DUP3 SLT ISZERO PUSH2 0x35A7 JUMPI PUSH1 0x40 MLOAD PUSH32 0x8C379A000000000000000000000000000000000000000000000000000000000 DUP2 MSTORE PUSH1 0x4 ADD PUSH2 0x359E SWAP1 PUSH2 0x4A33 JUMP JUMPDEST PUSH1 0x40 MLOAD DUP1 SWAP2 SUB SWAP1 REVERT JUMPDEST DUP2 SWAP1 POP SWAP2 SWAP1 POP JUMP JUMPDEST PUSH1 0x0 DUP2 DUP3 DUP5 ADD SWAP2 POP DUP2 LT ISZERO PUSH2 0x35F9 JUMPI PUSH1 0x40 MLOAD PUSH32 0x8C379A000000000000000000000000000000000000000000000000000000000 DUP2 MSTORE PUSH1 0x4 ADD PUSH2 0x35F0 SWAP1 PUSH2 0x4B13 JUMP JUMPDEST PUSH1 0x40 MLOAD DUP1 SWAP2 SUB SWAP1 REVERT JUMPDEST SWAP3 SWAP2 POP POP JUMP JUMPDEST PUSH1 0x0 PUSH1 0x60 DUP6 PUSH20 0xFFFFFFFFFFFFFFFFFFFFFFFFFFFFFFFFFFFFFFFF AND PUSH4 0x23B872DD PUSH1 0xE0 SHL DUP7 DUP7 DUP7 PUSH1 0x40 MLOAD PUSH1 0x24 ADD PUSH2 0x3637 SWAP4 SWAP3 SWAP2 SWAP1 PUSH2 0x487F JUMP JUMPDEST PUSH1 0x40 MLOAD PUSH1 0x20 DUP2 DUP4 SUB SUB DUP2 MSTORE SWAP1 PUSH1 0x40 MSTORE SWAP1 PUSH28 0xFFFFFFFFFFFFFFFFFFFFFFFFFFFFFFFFFFFFFFFFFFFFFFFFFFFFFFFF NOT AND PUSH1 0x20 DUP3 ADD DUP1 MLOAD PUSH28 0xFFFFFFFFFFFFFFFFFFFFFFFFFFFFFFFFFFFFFFFFFFFFFFFFFFFFFFFF DUP4 DUP2 DUP4 AND OR DUP4 MSTORE POP POP POP POP PUSH1 0x40 MLOAD PUSH2 0x36A1 SWAP2 SWAP1 PUSH2 0x4832 JUMP JUMPDEST PUSH1 0x0 PUSH1 0x40 MLOAD DUP1 DUP4 SUB DUP2 PUSH1 0x0 DUP7 GAS CALL SWAP2 POP POP RETURNDATASIZE DUP1 PUSH1 0x0 DUP2 EQ PUSH2 0x36DE JUMPI PUSH1 0x40 MLOAD SWAP2 POP PUSH1 0x1F NOT PUSH1 0x3F RETURNDATASIZE ADD AND DUP3 ADD PUSH1 0x40 MSTORE RETURNDATASIZE DUP3 MSTORE RETURNDATASIZE PUSH1 0x0 PUSH1 0x20 DUP5 ADD RETURNDATACOPY PUSH2 0x36E3 JUMP JUMPDEST PUSH1 0x60 SWAP2 POP JUMPDEST POP SWAP2 POP SWAP2 POP DUP2 DUP1 ISZERO PUSH2 0x3711 JUMPI POP PUSH1 0x0 DUP2 MLOAD EQ DUP1 PUSH2 0x3710 JUMPI POP DUP1 DUP1 PUSH1 0x20 ADD SWAP1 MLOAD DUP2 ADD SWAP1 PUSH2 0x370F SWAP2 SWAP1 PUSH2 0x3D1B JUMP JUMPDEST JUMPDEST JUMPDEST PUSH2 0x3750 JUMPI PUSH1 0x40 MLOAD PUSH32 0x8C379A000000000000000000000000000000000000000000000000000000000 DUP2 MSTORE PUSH1 0x4 ADD PUSH2 0x3747 SWAP1 PUSH2 0x4BD3 JUMP JUMPDEST PUSH1 0x40 MLOAD DUP1 SWAP2 SUB SWAP1 REVERT JUMPDEST POP POP POP POP POP POP JUMP JUMPDEST PUSH1 0x0 PUSH32 0xFFFFFFFFFFFFFFFFFFFFFFFFFFFFFFFFFFFFFFFFFFFFFFFFFFFFFFFFFFFFFFFF PUSH16 0xFFFFFFFFFFFFFFFFFFFFFFFFFFFFFFFF AND DUP3 GT ISZERO PUSH2 0x37CF JUMPI PUSH1 0x40 MLOAD PUSH32 0x8C379A000000000000000000000000000000000000000000000000000000000 DUP2 MSTORE PUSH1 0x4 ADD PUSH2 0x37C6 SWAP1 PUSH2 0x4AF3 JUMP JUMPDEST PUSH1 0x40 MLOAD DUP1 SWAP2 SUB SWAP1 REVERT JUMPDEST DUP2 SWAP1 POP SWAP2 SWAP1 POP JUMP JUMPDEST PUSH1 0x0 DUP2 PUSH16 0xFFFFFFFFFFFFFFFFFFFFFFFFFFFFFFFF AND DUP3 DUP5 ADD SWAP2 POP DUP2 PUSH16 0xFFFFFFFFFFFFFFFFFFFFFFFFFFFFFFFF AND LT ISZERO PUSH2 0x3845 JUMPI PUSH1 0x40 MLOAD PUSH32 0x8C379A000000000000000000000000000000000000000000000000000000000 DUP2 MSTORE PUSH1 0x4 ADD PUSH2 0x383C SWAP1 PUSH2 0x4B13 JUMP JUMPDEST PUSH1 0x40 MLOAD DUP1 SWAP2 SUB SWAP1 REVERT JUMPDEST SWAP3 SWAP2 POP POP JUMP JUMPDEST PUSH1 0x0 PUSH32 0xFFFFFFFFFFFFFFFFFFFFFFFFFFFFFFFFFFFFFFFFFFFFFFFFFFFFFFFFFFFFFFFF PUSH8 0xFFFFFFFFFFFFFFFF AND DUP3 GT ISZERO PUSH2 0x38BA JUMPI PUSH1 0x40 MLOAD PUSH32 0x8C379A000000000000000000000000000000000000000000000000000000000 DUP2 MSTORE PUSH1 0x4 ADD PUSH2 0x38B1 SWAP1 PUSH2 0x4B73 JUMP JUMPDEST PUSH1 0x40 MLOAD DUP1 SWAP2 SUB SWAP1 REVERT JUMPDEST DUP2 SWAP1 POP SWAP2 SWAP1 POP JUMP JUMPDEST PUSH1 0x0 DUP1 DUP3 DUP5 ADD SWAP1 POP PUSH1 0x0 DUP4 SLT ISZERO DUP1 ISZERO PUSH2 0x38DB JUMPI POP DUP4 DUP2 SLT ISZERO JUMPDEST DUP1 PUSH2 0x38F1 JUMPI POP PUSH1 0x0 DUP4 SLT DUP1 ISZERO PUSH2 0x38F0 JUMPI POP DUP4 DUP2 SLT JUMPDEST JUMPDEST PUSH2 0x3930 JUMPI PUSH1 0x40 MLOAD PUSH32 0x8C379A000000000000000000000000000000000000000000000000000000000 DUP2 MSTORE PUSH1 0x4 ADD PUSH2 0x3927 SWAP1 PUSH2 0x4A93 JUMP JUMPDEST PUSH1 0x40 MLOAD DUP1 SWAP2 SUB SWAP1 REVERT JUMPDEST DUP1 SWAP2 POP POP SWAP3 SWAP2 POP POP JUMP JUMPDEST PUSH1 0x60 PUSH1 0x44 DUP3 MLOAD LT ISZERO PUSH2 0x3983 JUMPI PUSH1 0x40 MLOAD DUP1 PUSH1 0x40 ADD PUSH1 0x40 MSTORE DUP1 PUSH1 0x1D DUP2 MSTORE PUSH1 0x20 ADD PUSH32 0x5472616E73616374696F6E2072657665727465642073696C656E746C79000000 DUP2 MSTORE POP SWAP1 POP PUSH2 0x39A0 JUMP JUMPDEST PUSH1 0x4 DUP3 ADD SWAP2 POP DUP2 DUP1 PUSH1 0x20 ADD SWAP1 MLOAD DUP2 ADD SWAP1 PUSH2 0x399D SWAP2 SWAP1 PUSH2 0x3E71 JUMP JUMPDEST SWAP1 POP JUMPDEST SWAP2 SWAP1 POP JUMP JUMPDEST PUSH1 0x40 MLOAD DUP1 PUSH1 0x60 ADD PUSH1 0x40 MSTORE DUP1 PUSH1 0x0 PUSH16 0xFFFFFFFFFFFFFFFFFFFFFFFFFFFFFFFF AND DUP2 MSTORE PUSH1 0x20 ADD PUSH1 0x0 PUSH8 0xFFFFFFFFFFFFFFFF AND DUP2 MSTORE PUSH1 0x20 ADD PUSH1 0x0 PUSH8 0xFFFFFFFFFFFFFFFF AND DUP2 MSTORE POP SWAP1 JUMP JUMPDEST PUSH1 0x0 DUP2 CALLDATALOAD SWAP1 POP PUSH2 0x39FB DUP2 PUSH2 0x5218 JUMP JUMPDEST SWAP3 SWAP2 POP POP JUMP JUMPDEST PUSH1 0x0 DUP1 DUP4 PUSH1 0x1F DUP5 ADD SLT PUSH2 0x3A13 JUMPI PUSH1 0x0 DUP1 REVERT JUMPDEST DUP3 CALLDATALOAD SWAP1 POP PUSH8 0xFFFFFFFFFFFFFFFF DUP2 GT ISZERO PUSH2 0x3A2C JUMPI PUSH1 0x0 DUP1 REVERT JUMPDEST PUSH1 0x20 DUP4 ADD SWAP2 POP DUP4 PUSH1 0x20 DUP3 MUL DUP4 ADD GT ISZERO PUSH2 0x3A44 JUMPI PUSH1 0x0 DUP1 REVERT JUMPDEST SWAP3 POP SWAP3 SWAP1 POP JUMP JUMPDEST PUSH1 0x0 DUP1 DUP4 PUSH1 0x1F DUP5 ADD SLT PUSH2 0x3A5D JUMPI PUSH1 0x0 DUP1 REVERT JUMPDEST DUP3 CALLDATALOAD SWAP1 POP PUSH8 0xFFFFFFFFFFFFFFFF DUP2 GT ISZERO PUSH2 0x3A76 JUMPI PUSH1 0x0 DUP1 REVERT JUMPDEST PUSH1 0x20 DUP4 ADD SWAP2 POP DUP4 PUSH1 0x20 DUP3 MUL DUP4 ADD GT ISZERO PUSH2 0x3A8E JUMPI PUSH1 0x0 DUP1 REVERT JUMPDEST SWAP3 POP SWAP3 SWAP1 POP JUMP JUMPDEST PUSH1 0x0 DUP2 CALLDATALOAD SWAP1 POP PUSH2 0x3AA4 DUP2 PUSH2 0x522F JUMP JUMPDEST SWAP3 SWAP2 POP POP JUMP JUMPDEST PUSH1 0x0 DUP2 MLOAD SWAP1 POP PUSH2 0x3AB9 DUP2 PUSH2 0x522F JUMP JUMPDEST SWAP3 SWAP2 POP POP JUMP JUMPDEST PUSH1 0x0 DUP2 CALLDATALOAD SWAP1 POP PUSH2 0x3ACE DUP2 PUSH2 0x5246 JUMP JUMPDEST SWAP3 SWAP2 POP POP JUMP JUMPDEST PUSH1 0x0 DUP2 CALLDATALOAD SWAP1 POP PUSH2 0x3AE3 DUP2 PUSH2 0x525D JUMP JUMPDEST SWAP3 SWAP2 POP POP JUMP JUMPDEST PUSH1 0x0 DUP2 MLOAD SWAP1 POP PUSH2 0x3AF8 DUP2 PUSH2 0x525D JUMP JUMPDEST SWAP3 SWAP2 POP POP JUMP JUMPDEST PUSH1 0x0 DUP2 CALLDATALOAD SWAP1 POP PUSH2 0x3B0D DUP2 PUSH2 0x5274 JUMP JUMPDEST SWAP3 SWAP2 POP POP JUMP JUMPDEST PUSH1 0x0 DUP2 CALLDATALOAD SWAP1 POP PUSH2 0x3B22 DUP2 PUSH2 0x528B JUMP JUMPDEST SWAP3 SWAP2 POP POP JUMP JUMPDEST PUSH1 0x0 DUP3 PUSH1 0x1F DUP4 ADD SLT PUSH2 0x3B39 JUMPI PUSH1 0x0 DUP1 REVERT JUMPDEST DUP2 MLOAD PUSH2 0x3B4C PUSH2 0x3B47 DUP3 PUSH2 0x4F2B JUMP JUMPDEST PUSH2 0x4EFE JUMP JUMPDEST SWAP2 POP DUP1 DUP3 MSTORE PUSH1 0x20 DUP4 ADD PUSH1 0x20 DUP4 ADD DUP6 DUP4 DUP4 ADD GT ISZERO PUSH2 0x3B68 JUMPI PUSH1 0x0 DUP1 REVERT JUMPDEST PUSH2 0x3B73 DUP4 DUP3 DUP5 PUSH2 0x51D4 JUMP JUMPDEST POP POP POP SWAP3 SWAP2 POP POP JUMP JUMPDEST PUSH1 0x0 PUSH1 0x80 DUP3 DUP5 SUB SLT ISZERO PUSH2 0x3B8E JUMPI PUSH1 0x0 DUP1 REVERT JUMPDEST PUSH2 0x3B98 PUSH1 0x80 PUSH2 0x4EFE JUMP JUMPDEST SWAP1 POP PUSH1 0x0 PUSH2 0x3BA8 DUP5 DUP3 DUP6 ADD PUSH2 0x3AE9 JUMP JUMPDEST PUSH1 0x0 DUP4 ADD MSTORE POP PUSH1 0x20 PUSH2 0x3BBC DUP5 DUP3 DUP6 ADD PUSH2 0x3C05 JUMP JUMPDEST PUSH1 0x20 DUP4 ADD MSTORE POP PUSH1 0x40 PUSH2 0x3BD0 DUP5 DUP3 DUP6 ADD PUSH2 0x3C05 JUMP JUMPDEST PUSH1 0x40 DUP4 ADD MSTORE POP PUSH1 0x60 PUSH2 0x3BE4 DUP5 DUP3 DUP6 ADD PUSH2 0x3C05 JUMP JUMPDEST PUSH1 0x60 DUP4 ADD MSTORE POP SWAP3 SWAP2 POP POP JUMP JUMPDEST PUSH1 0x0 DUP2 CALLDATALOAD SWAP1 POP PUSH2 0x3BFF DUP2 PUSH2 0x52A2 JUMP JUMPDEST SWAP3 SWAP2 POP POP JUMP JUMPDEST PUSH1 0x0 DUP2 MLOAD SWAP1 POP PUSH2 0x3C14 DUP2 PUSH2 0x52A2 JUMP JUMPDEST SWAP3 SWAP2 POP POP JUMP JUMPDEST PUSH1 0x0 DUP2 CALLDATALOAD SWAP1 POP PUSH2 0x3C29 DUP2 PUSH2 0x52B9 JUMP JUMPDEST SWAP3 SWAP2 POP POP JUMP JUMPDEST PUSH1 0x0 DUP1 PUSH1 0x0 PUSH1 0x60 DUP5 DUP7 SUB SLT ISZERO PUSH2 0x3C44 JUMPI PUSH1 0x0 DUP1 REVERT JUMPDEST PUSH1 0x0 PUSH2 0x3C52 DUP7 DUP3 DUP8 ADD PUSH2 0x39EC JUMP JUMPDEST SWAP4 POP POP PUSH1 0x20 PUSH2 0x3C63 DUP7 DUP3 DUP8 ADD PUSH2 0x3A95 JUMP JUMPDEST SWAP3 POP POP PUSH1 0x40 PUSH2 0x3C74 DUP7 DUP3 DUP8 ADD PUSH2 0x3A95 JUMP JUMPDEST SWAP2 POP POP SWAP3 POP SWAP3 POP SWAP3 JUMP JUMPDEST PUSH1 0x0 DUP1 PUSH1 0x0 PUSH1 0x40 DUP5 DUP7 SUB SLT ISZERO PUSH2 0x3C93 JUMPI PUSH1 0x0 DUP1 REVERT JUMPDEST PUSH1 0x0 DUP5 ADD CALLDATALOAD PUSH8 0xFFFFFFFFFFFFFFFF DUP2 GT ISZERO PUSH2 0x3CAD JUMPI PUSH1 0x0 DUP1 REVERT JUMPDEST PUSH2 0x3CB9 DUP7 DUP3 DUP8 ADD PUSH2 0x3A01 JUMP JUMPDEST SWAP4 POP SWAP4 POP POP PUSH1 0x20 PUSH2 0x3CCC DUP7 DUP3 DUP8 ADD PUSH2 0x3A95 JUMP JUMPDEST SWAP2 POP POP SWAP3 POP SWAP3 POP SWAP3 JUMP JUMPDEST PUSH1 0x0 DUP1 PUSH1 0x20 DUP4 DUP6 SUB SLT ISZERO PUSH2 0x3CE9 JUMPI PUSH1 0x0 DUP1 REVERT JUMPDEST PUSH1 0x0 DUP4 ADD CALLDATALOAD PUSH8 0xFFFFFFFFFFFFFFFF DUP2 GT ISZERO PUSH2 0x3D03 JUMPI PUSH1 0x0 DUP1 REVERT JUMPDEST PUSH2 0x3D0F DUP6 DUP3 DUP7 ADD PUSH2 0x3A4B JUMP JUMPDEST SWAP3 POP SWAP3 POP POP SWAP3 POP SWAP3 SWAP1 POP JUMP JUMPDEST PUSH1 0x0 PUSH1 0x20 DUP3 DUP5 SUB SLT ISZERO PUSH2 0x3D2D JUMPI PUSH1 0x0 DUP1 REVERT JUMPDEST PUSH1 0x0 PUSH2 0x3D3B DUP5 DUP3 DUP6 ADD PUSH2 0x3AAA JUMP JUMPDEST SWAP2 POP POP SWAP3 SWAP2 POP POP JUMP JUMPDEST PUSH1 0x0 PUSH1 0x20 DUP3 DUP5 SUB SLT ISZERO PUSH2 0x3D56 JUMPI PUSH1 0x0 DUP1 REVERT JUMPDEST PUSH1 0x0 PUSH2 0x3D64 DUP5 DUP3 DUP6 ADD PUSH2 0x3AD4 JUMP JUMPDEST SWAP2 POP POP SWAP3 SWAP2 POP POP JUMP JUMPDEST PUSH1 0x0 PUSH1 0x20 DUP3 DUP5 SUB SLT ISZERO PUSH2 0x3D7F JUMPI PUSH1 0x0 DUP1 REVERT JUMPDEST PUSH1 0x0 PUSH2 0x3D8D DUP5 DUP3 DUP6 ADD PUSH2 0x3AE9 JUMP JUMPDEST SWAP2 POP POP SWAP3 SWAP2 POP POP JUMP JUMPDEST PUSH1 0x0 DUP1 PUSH1 0x0 DUP1 PUSH1 0x0 DUP1 PUSH1 0x0 DUP1 PUSH2 0x100 DUP10 DUP12 SUB SLT ISZERO PUSH2 0x3DB3 JUMPI PUSH1 0x0 DUP1 REVERT JUMPDEST PUSH1 0x0 PUSH2 0x3DC1 DUP12 DUP3 DUP13 ADD PUSH2 0x3AD4 JUMP JUMPDEST SWAP9 POP POP PUSH1 0x20 PUSH2 0x3DD2 DUP12 DUP3 DUP13 ADD PUSH2 0x39EC JUMP JUMPDEST SWAP8 POP POP PUSH1 0x40 PUSH2 0x3DE3 DUP12 DUP3 DUP13 ADD PUSH2 0x39EC JUMP JUMPDEST SWAP7 POP POP PUSH1 0x60 PUSH2 0x3DF4 DUP12 DUP3 DUP13 ADD PUSH2 0x3BF0 JUMP JUMPDEST SWAP6 POP POP PUSH1 0x80 PUSH2 0x3E05 DUP12 DUP3 DUP13 ADD PUSH2 0x3BF0 JUMP JUMPDEST SWAP5 POP POP PUSH1 0xA0 PUSH2 0x3E16 DUP12 DUP3 DUP13 ADD PUSH2 0x3C1A JUMP JUMPDEST SWAP4 POP POP PUSH1 0xC0 PUSH2 0x3E27 DUP12 DUP3 DUP13 ADD PUSH2 0x3ABF JUMP JUMPDEST SWAP3 POP POP PUSH1 0xE0 PUSH2 0x3E38 DUP12 DUP3 DUP13 ADD PUSH2 0x3ABF JUMP JUMPDEST SWAP2 POP POP SWAP3 SWAP6 SWAP9 POP SWAP3 SWAP6 SWAP9 SWAP1 SWAP4 SWAP7 POP JUMP JUMPDEST PUSH1 0x0 PUSH1 0x20 DUP3 DUP5 SUB SLT ISZERO PUSH2 0x3E5A JUMPI PUSH1 0x0 DUP1 REVERT JUMPDEST PUSH1 0x0 PUSH2 0x3E68 DUP5 DUP3 DUP6 ADD PUSH2 0x3AFE JUMP JUMPDEST SWAP2 POP POP SWAP3 SWAP2 POP POP JUMP JUMPDEST PUSH1 0x0 PUSH1 0x20 DUP3 DUP5 SUB SLT ISZERO PUSH2 0x3E83 JUMPI PUSH1 0x0 DUP1 REVERT JUMPDEST PUSH1 0x0 DUP3 ADD MLOAD PUSH8 0xFFFFFFFFFFFFFFFF DUP2 GT ISZERO PUSH2 0x3E9D JUMPI PUSH1 0x0 DUP1 REVERT JUMPDEST PUSH2 0x3EA9 DUP5 DUP3 DUP6 ADD PUSH2 0x3B28 JUMP JUMPDEST SWAP2 POP POP SWAP3 SWAP2 POP POP JUMP JUMPDEST PUSH1 0x0 PUSH1 0x80 DUP3 DUP5 SUB SLT ISZERO PUSH2 0x3EC4 JUMPI PUSH1 0x0 DUP1 REVERT JUMPDEST PUSH1 0x0 PUSH2 0x3ED2 DUP5 DUP3 DUP6 ADD PUSH2 0x3B7C JUMP JUMPDEST SWAP2 POP POP SWAP3 SWAP2 POP POP JUMP JUMPDEST PUSH1 0x0 PUSH1 0x20 DUP3 DUP5 SUB SLT ISZERO PUSH2 0x3EED JUMPI PUSH1 0x0 DUP1 REVERT JUMPDEST PUSH1 0x0 PUSH2 0x3EFB DUP5 DUP3 DUP6 ADD PUSH2 0x3BF0 JUMP JUMPDEST SWAP2 POP POP SWAP3 SWAP2 POP POP JUMP JUMPDEST PUSH1 0x0 PUSH1 0x20 DUP3 DUP5 SUB SLT ISZERO PUSH2 0x3F16 JUMPI PUSH1 0x0 DUP1 REVERT JUMPDEST PUSH1 0x0 PUSH2 0x3F24 DUP5 DUP3 DUP6 ADD PUSH2 0x3C05 JUMP JUMPDEST SWAP2 POP POP SWAP3 SWAP2 POP POP JUMP JUMPDEST PUSH1 0x0 DUP1 PUSH1 0x40 DUP4 DUP6 SUB SLT ISZERO PUSH2 0x3F40 JUMPI PUSH1 0x0 DUP1 REVERT JUMPDEST PUSH1 0x0 PUSH2 0x3F4E DUP6 DUP3 DUP7 ADD PUSH2 0x3BF0 JUMP JUMPDEST SWAP3 POP POP PUSH1 0x20 PUSH2 0x3F5F DUP6 DUP3 DUP7 ADD PUSH2 0x39EC JUMP JUMPDEST SWAP2 POP POP SWAP3 POP SWAP3 SWAP1 POP JUMP JUMPDEST PUSH1 0x0 DUP1 PUSH1 0x0 PUSH1 0x60 DUP5 DUP7 SUB SLT ISZERO PUSH2 0x3F7E JUMPI PUSH1 0x0 DUP1 REVERT JUMPDEST PUSH1 0x0 PUSH2 0x3F8C DUP7 DUP3 DUP8 ADD PUSH2 0x3BF0 JUMP JUMPDEST SWAP4 POP POP PUSH1 0x20 PUSH2 0x3F9D DUP7 DUP3 DUP8 ADD PUSH2 0x3AD4 JUMP JUMPDEST SWAP3 POP POP PUSH1 0x40 PUSH2 0x3FAE DUP7 DUP3 DUP8 ADD PUSH2 0x3B13 JUMP JUMPDEST SWAP2 POP POP SWAP3 POP SWAP3 POP SWAP3 JUMP JUMPDEST PUSH1 0x0 DUP1 PUSH1 0x0 PUSH1 0x60 DUP5 DUP7 SUB SLT ISZERO PUSH2 0x3FCD JUMPI PUSH1 0x0 DUP1 REVERT JUMPDEST PUSH1 0x0 PUSH2 0x3FDB DUP7 DUP3 DUP8 ADD PUSH2 0x3BF0 JUMP JUMPDEST SWAP4 POP POP PUSH1 0x20 PUSH2 0x3FEC DUP7 DUP3 DUP8 ADD PUSH2 0x3BF0 JUMP JUMPDEST SWAP3 POP POP PUSH1 0x40 PUSH2 0x3FFD DUP7 DUP3 DUP8 ADD PUSH2 0x39EC JUMP JUMPDEST SWAP2 POP POP SWAP3 POP SWAP3 POP SWAP3 JUMP JUMPDEST PUSH1 0x0 DUP1 PUSH1 0x0 DUP1 PUSH1 0x80 DUP6 DUP8 SUB SLT ISZERO PUSH2 0x401D JUMPI PUSH1 0x0 DUP1 REVERT JUMPDEST PUSH1 0x0 PUSH2 0x402B DUP8 DUP3 DUP9 ADD PUSH2 0x3BF0 JUMP JUMPDEST SWAP5 POP POP PUSH1 0x20 PUSH2 0x403C DUP8 DUP3 DUP9 ADD PUSH2 0x3BF0 JUMP JUMPDEST SWAP4 POP POP PUSH1 0x40 PUSH2 0x404D DUP8 DUP3 DUP9 ADD PUSH2 0x3B13 JUMP JUMPDEST SWAP3 POP POP PUSH1 0x60 PUSH2 0x405E DUP8 DUP3 DUP9 ADD PUSH2 0x3A95 JUMP JUMPDEST SWAP2 POP POP SWAP3 SWAP6 SWAP2 SWAP5 POP SWAP3 POP JUMP JUMPDEST PUSH1 0x0 PUSH2 0x4076 DUP4 DUP4 PUSH2 0x4187 JUMP JUMPDEST PUSH1 0x20 DUP4 ADD SWAP1 POP SWAP3 SWAP2 POP POP JUMP JUMPDEST PUSH1 0x0 PUSH2 0x408E DUP4 DUP4 PUSH2 0x41D9 JUMP JUMPDEST SWAP1 POP SWAP3 SWAP2 POP POP JUMP JUMPDEST PUSH2 0x409F DUP2 PUSH2 0x50DB JUMP JUMPDEST DUP3 MSTORE POP POP JUMP JUMPDEST PUSH2 0x40AE DUP2 PUSH2 0x500C JUMP JUMPDEST DUP3 MSTORE POP POP JUMP JUMPDEST PUSH1 0x0 PUSH2 0x40BF DUP3 PUSH2 0x4F77 JUMP JUMPDEST PUSH2 0x40C9 DUP2 DUP6 PUSH2 0x4FBD JUMP JUMPDEST SWAP4 POP PUSH2 0x40D4 DUP4 PUSH2 0x4F57 JUMP JUMPDEST DUP1 PUSH1 0x0 JUMPDEST DUP4 DUP2 LT ISZERO PUSH2 0x4105 JUMPI DUP2 MLOAD PUSH2 0x40EC DUP9 DUP3 PUSH2 0x406A JUMP JUMPDEST SWAP8 POP PUSH2 0x40F7 DUP4 PUSH2 0x4FA3 JUMP JUMPDEST SWAP3 POP POP PUSH1 0x1 DUP2 ADD SWAP1 POP PUSH2 0x40D8 JUMP JUMPDEST POP DUP6 SWAP4 POP POP POP POP SWAP3 SWAP2 POP POP JUMP JUMPDEST PUSH1 0x0 PUSH2 0x411D DUP3 PUSH2 0x4F82 JUMP JUMPDEST PUSH2 0x4127 DUP2 DUP6 PUSH2 0x4FCE JUMP JUMPDEST SWAP4 POP DUP4 PUSH1 0x20 DUP3 MUL DUP6 ADD PUSH2 0x4139 DUP6 PUSH2 0x4F67 JUMP JUMPDEST DUP1 PUSH1 0x0 JUMPDEST DUP6 DUP2 LT ISZERO PUSH2 0x4175 JUMPI DUP5 DUP5 SUB DUP10 MSTORE DUP2 MLOAD PUSH2 0x4156 DUP6 DUP3 PUSH2 0x4082 JUMP JUMPDEST SWAP5 POP PUSH2 0x4161 DUP4 PUSH2 0x4FB0 JUMP JUMPDEST SWAP3 POP PUSH1 0x20 DUP11 ADD SWAP10 POP POP PUSH1 0x1 DUP2 ADD SWAP1 POP PUSH2 0x413D JUMP JUMPDEST POP DUP3 SWAP8 POP DUP8 SWAP6 POP POP POP POP POP POP SWAP3 SWAP2 POP POP JUMP JUMPDEST PUSH2 0x4190 DUP2 PUSH2 0x501E JUMP JUMPDEST DUP3 MSTORE POP POP JUMP JUMPDEST PUSH2 0x419F DUP2 PUSH2 0x501E JUMP JUMPDEST DUP3 MSTORE POP POP JUMP JUMPDEST PUSH2 0x41AE DUP2 PUSH2 0x502A JUMP JUMPDEST DUP3 MSTORE POP POP JUMP JUMPDEST PUSH1 0x0 PUSH2 0x41C0 DUP4 DUP6 PUSH2 0x4FF0 JUMP JUMPDEST SWAP4 POP PUSH2 0x41CD DUP4 DUP6 DUP5 PUSH2 0x51C5 JUMP JUMPDEST DUP3 DUP5 ADD SWAP1 POP SWAP4 SWAP3 POP POP POP JUMP JUMPDEST PUSH1 0x0 PUSH2 0x41E4 DUP3 PUSH2 0x4F8D JUMP JUMPDEST PUSH2 0x41EE DUP2 DUP6 PUSH2 0x4FDF JUMP JUMPDEST SWAP4 POP PUSH2 0x41FE DUP2 DUP6 PUSH1 0x20 DUP7 ADD PUSH2 0x51D4 JUMP JUMPDEST PUSH2 0x4207 DUP2 PUSH2 0x5207 JUMP JUMPDEST DUP5 ADD SWAP2 POP POP SWAP3 SWAP2 POP POP JUMP JUMPDEST PUSH1 0x0 PUSH2 0x421D DUP3 PUSH2 0x4F8D JUMP JUMPDEST PUSH2 0x4227 DUP2 DUP6 PUSH2 0x4FF0 JUMP JUMPDEST SWAP4 POP PUSH2 0x4237 DUP2 DUP6 PUSH1 0x20 DUP7 ADD PUSH2 0x51D4 JUMP JUMPDEST DUP1 DUP5 ADD SWAP2 POP POP SWAP3 SWAP2 POP POP JUMP JUMPDEST PUSH2 0x424C DUP2 PUSH2 0x50ED JUMP JUMPDEST DUP3 MSTORE POP POP JUMP JUMPDEST PUSH2 0x425B DUP2 PUSH2 0x5111 JUMP JUMPDEST DUP3 MSTORE POP POP JUMP JUMPDEST PUSH2 0x426A DUP2 PUSH2 0x5135 JUMP JUMPDEST DUP3 MSTORE POP POP JUMP JUMPDEST PUSH2 0x4279 DUP2 PUSH2 0x5159 JUMP JUMPDEST DUP3 MSTORE POP POP JUMP JUMPDEST PUSH2 0x4288 DUP2 PUSH2 0x506A JUMP JUMPDEST DUP3 MSTORE POP POP JUMP JUMPDEST PUSH2 0x4297 DUP2 PUSH2 0x517D JUMP JUMPDEST DUP3 MSTORE POP POP JUMP JUMPDEST PUSH1 0x0 PUSH2 0x42A8 DUP3 PUSH2 0x4F98 JUMP JUMPDEST PUSH2 0x42B2 DUP2 DUP6 PUSH2 0x4FFB JUMP JUMPDEST SWAP4 POP PUSH2 0x42C2 DUP2 DUP6 PUSH1 0x20 DUP7 ADD PUSH2 0x51D4 JUMP JUMPDEST PUSH2 0x42CB DUP2 PUSH2 0x5207 JUMP JUMPDEST DUP5 ADD SWAP2 POP POP SWAP3 SWAP2 POP POP JUMP JUMPDEST PUSH1 0x0 PUSH2 0x42E3 PUSH1 0x15 DUP4 PUSH2 0x4FFB JUMP JUMPDEST SWAP2 POP PUSH32 0x426F72696E674D6174683A20556E646572666C6F770000000000000000000000 PUSH1 0x0 DUP4 ADD MSTORE PUSH1 0x20 DUP3 ADD SWAP1 POP SWAP2 SWAP1 POP JUMP JUMPDEST PUSH1 0x0 PUSH2 0x4323 PUSH1 0xB DUP4 PUSH2 0x4FFB JUMP JUMPDEST SWAP2 POP PUSH32 0x496E7465676572203C2030000000000000000000000000000000000000000000 PUSH1 0x0 DUP4 ADD MSTORE PUSH1 0x20 DUP3 ADD SWAP1 POP SWAP2 SWAP1 POP JUMP JUMPDEST PUSH1 0x0 PUSH2 0x4363 PUSH1 0x23 DUP4 PUSH2 0x4FFB JUMP JUMPDEST SWAP2 POP PUSH32 0x4D61737465724368656656323A2042616C616E6365206D757374206578636565 PUSH1 0x0 DUP4 ADD MSTORE PUSH32 0x6420300000000000000000000000000000000000000000000000000000000000 PUSH1 0x20 DUP4 ADD MSTORE PUSH1 0x40 DUP3 ADD SWAP1 POP SWAP2 SWAP1 POP JUMP JUMPDEST PUSH1 0x0 PUSH2 0x43C9 PUSH1 0x1C DUP4 PUSH2 0x4FFB JUMP JUMPDEST SWAP2 POP PUSH32 0x426F72696E6745524332303A205472616E73666572206661696C656400000000 PUSH1 0x0 DUP4 ADD MSTORE PUSH1 0x20 DUP3 ADD SWAP1 POP SWAP2 SWAP1 POP JUMP JUMPDEST PUSH1 0x0 PUSH2 0x4409 PUSH1 0x21 DUP4 PUSH2 0x4FFB JUMP JUMPDEST SWAP2 POP PUSH32 0x5369676E6564536166654D6174683A206164646974696F6E206F766572666C6F PUSH1 0x0 DUP4 ADD MSTORE PUSH32 0x7700000000000000000000000000000000000000000000000000000000000000 PUSH1 0x20 DUP4 ADD MSTORE PUSH1 0x40 DUP3 ADD SWAP1 POP SWAP2 SWAP1 POP JUMP JUMPDEST PUSH1 0x0 PUSH2 0x446F PUSH1 0x15 DUP4 PUSH2 0x4FFB JUMP JUMPDEST SWAP2 POP PUSH32 0x4F776E61626C653A207A65726F20616464726573730000000000000000000000 PUSH1 0x0 DUP4 ADD MSTORE PUSH1 0x20 DUP3 ADD SWAP1 POP SWAP2 SWAP1 POP JUMP JUMPDEST PUSH1 0x0 PUSH2 0x44AF PUSH1 0x29 DUP4 PUSH2 0x4FFB JUMP JUMPDEST SWAP2 POP PUSH32 0x4D61737465724368656656323A206D696772617465642062616C616E6365206D PUSH1 0x0 DUP4 ADD MSTORE PUSH32 0x757374206D617463680000000000000000000000000000000000000000000000 PUSH1 0x20 DUP4 ADD MSTORE PUSH1 0x40 DUP3 ADD SWAP1 POP SWAP2 SWAP1 POP JUMP JUMPDEST PUSH1 0x0 PUSH2 0x4515 PUSH1 0x1C DUP4 PUSH2 0x4FFB JUMP JUMPDEST SWAP2 POP PUSH32 0x426F72696E674D6174683A2075696E74313238204F766572666C6F7700000000 PUSH1 0x0 DUP4 ADD MSTORE PUSH1 0x20 DUP3 ADD SWAP1 POP SWAP2 SWAP1 POP JUMP JUMPDEST PUSH1 0x0 PUSH2 0x4555 PUSH1 0x18 DUP4 PUSH2 0x4FFB JUMP JUMPDEST SWAP2 POP PUSH32 0x426F72696E674D6174683A20416464204F766572666C6F770000000000000000 PUSH1 0x0 DUP4 ADD MSTORE PUSH1 0x20 DUP3 ADD SWAP1 POP SWAP2 SWAP1 POP JUMP JUMPDEST PUSH1 0x0 PUSH2 0x4595 PUSH1 0x20 DUP4 PUSH2 0x4FFB JUMP JUMPDEST SWAP2 POP PUSH32 0x4F776E61626C653A2063616C6C6572206973206E6F7420746865206F776E6572 PUSH1 0x0 DUP4 ADD MSTORE PUSH1 0x20 DUP3 ADD SWAP1 POP SWAP2 SWAP1 POP JUMP JUMPDEST PUSH1 0x0 PUSH2 0x45D5 PUSH1 0x20 DUP4 PUSH2 0x4FFB JUMP JUMPDEST SWAP2 POP PUSH32 0x4F776E61626C653A2063616C6C657220213D2070656E64696E67206F776E6572 PUSH1 0x0 DUP4 ADD MSTORE PUSH1 0x20 DUP3 ADD SWAP1 POP SWAP2 SWAP1 POP JUMP JUMPDEST PUSH1 0x0 PUSH2 0x4615 PUSH1 0x1B DUP4 PUSH2 0x4FFB JUMP JUMPDEST SWAP2 POP PUSH32 0x426F72696E674D6174683A2075696E743634204F766572666C6F770000000000 PUSH1 0x0 DUP4 ADD MSTORE PUSH1 0x20 DUP3 ADD SWAP1 POP SWAP2 SWAP1 POP JUMP JUMPDEST PUSH1 0x0 PUSH2 0x4655 PUSH1 0x1D DUP4 PUSH2 0x4FFB JUMP JUMPDEST SWAP2 POP PUSH32 0x4D61737465724368656656323A206E6F206D69677261746F7220736574000000 PUSH1 0x0 DUP4 ADD MSTORE PUSH1 0x20 DUP3 ADD SWAP1 POP SWAP2 SWAP1 POP JUMP JUMPDEST PUSH1 0x0 PUSH2 0x4695 PUSH1 0x24 DUP4 PUSH2 0x4FFB JUMP JUMPDEST SWAP2 POP PUSH32 0x5369676E6564536166654D6174683A207375627472616374696F6E206F766572 PUSH1 0x0 DUP4 ADD MSTORE PUSH32 0x666C6F7700000000000000000000000000000000000000000000000000000000 PUSH1 0x20 DUP4 ADD MSTORE PUSH1 0x40 DUP3 ADD SWAP1 POP SWAP2 SWAP1 POP JUMP JUMPDEST PUSH1 0x0 PUSH2 0x46FB PUSH1 0x20 DUP4 PUSH2 0x4FFB JUMP JUMPDEST SWAP2 POP PUSH32 0x426F72696E6745524332303A205472616E7366657246726F6D206661696C6564 PUSH1 0x0 DUP4 ADD MSTORE PUSH1 0x20 DUP3 ADD SWAP1 POP SWAP2 SWAP1 POP JUMP JUMPDEST PUSH1 0x0 PUSH2 0x473B PUSH1 0x18 DUP4 PUSH2 0x4FFB JUMP JUMPDEST SWAP2 POP PUSH32 0x426F72696E674D6174683A204D756C204F766572666C6F770000000000000000 PUSH1 0x0 DUP4 ADD MSTORE PUSH1 0x20 DUP3 ADD SWAP1 POP SWAP2 SWAP1 POP JUMP JUMPDEST PUSH1 0x60 DUP3 ADD PUSH1 0x0 DUP3 ADD MLOAD PUSH2 0x4784 PUSH1 0x0 DUP6 ADD DUP3 PUSH2 0x47B0 JUMP JUMPDEST POP PUSH1 0x20 DUP3 ADD MLOAD PUSH2 0x4797 PUSH1 0x20 DUP6 ADD DUP3 PUSH2 0x47EC JUMP JUMPDEST POP PUSH1 0x40 DUP3 ADD MLOAD PUSH2 0x47AA PUSH1 0x40 DUP6 ADD DUP3 PUSH2 0x47EC JUMP JUMPDEST POP POP POP POP JUMP JUMPDEST PUSH2 0x47B9 DUP2 PUSH2 0x5074 JUMP JUMPDEST DUP3 MSTORE POP POP JUMP JUMPDEST PUSH2 0x47C8 DUP2 PUSH2 0x5074 JUMP JUMPDEST DUP3 MSTORE POP POP JUMP JUMPDEST PUSH2 0x47D7 DUP2 PUSH2 0x518F JUMP JUMPDEST DUP3 MSTORE POP POP JUMP JUMPDEST PUSH2 0x47E6 DUP2 PUSH2 0x50B0 JUMP JUMPDEST DUP3 MSTORE POP POP JUMP JUMPDEST PUSH2 0x47F5 DUP2 PUSH2 0x50BA JUMP JUMPDEST DUP3 MSTORE POP POP JUMP JUMPDEST PUSH2 0x4804 DUP2 PUSH2 0x50BA JUMP JUMPDEST DUP3 MSTORE POP POP JUMP JUMPDEST PUSH2 0x4813 DUP2 PUSH2 0x50CE JUMP JUMPDEST DUP3 MSTORE POP POP JUMP JUMPDEST PUSH1 0x0 PUSH2 0x4826 DUP3 DUP5 DUP7 PUSH2 0x41B4 JUMP JUMPDEST SWAP2 POP DUP2 SWAP1 POP SWAP4 SWAP3 POP POP POP JUMP JUMPDEST PUSH1 0x0 PUSH2 0x483E DUP3 DUP5 PUSH2 0x4212 JUMP JUMPDEST SWAP2 POP DUP2 SWAP1 POP SWAP3 SWAP2 POP POP JUMP JUMPDEST PUSH1 0x0 PUSH1 0x20 DUP3 ADD SWAP1 POP PUSH2 0x485E PUSH1 0x0 DUP4 ADD DUP5 PUSH2 0x40A5 JUMP JUMPDEST SWAP3 SWAP2 POP POP JUMP JUMPDEST PUSH1 0x0 PUSH1 0x20 DUP3 ADD SWAP1 POP PUSH2 0x4879 PUSH1 0x0 DUP4 ADD DUP5 PUSH2 0x4096 JUMP JUMPDEST SWAP3 SWAP2 POP POP JUMP JUMPDEST PUSH1 0x0 PUSH1 0x60 DUP3 ADD SWAP1 POP PUSH2 0x4894 PUSH1 0x0 DUP4 ADD DUP7 PUSH2 0x40A5 JUMP JUMPDEST PUSH2 0x48A1 PUSH1 0x20 DUP4 ADD DUP6 PUSH2 0x40A5 JUMP JUMPDEST PUSH2 0x48AE PUSH1 0x40 DUP4 ADD DUP5 PUSH2 0x47DD JUMP JUMPDEST SWAP5 SWAP4 POP POP POP POP JUMP JUMPDEST PUSH1 0x0 PUSH1 0xE0 DUP3 ADD SWAP1 POP PUSH2 0x48CB PUSH1 0x0 DUP4 ADD DUP11 PUSH2 0x40A5 JUMP JUMPDEST PUSH2 0x48D8 PUSH1 0x20 DUP4 ADD DUP10 PUSH2 0x40A5 JUMP JUMPDEST PUSH2 0x48E5 PUSH1 0x40 DUP4 ADD DUP9 PUSH2 0x47DD JUMP JUMPDEST PUSH2 0x48F2 PUSH1 0x60 DUP4 ADD DUP8 PUSH2 0x47DD JUMP JUMPDEST PUSH2 0x48FF PUSH1 0x80 DUP4 ADD DUP7 PUSH2 0x480A JUMP JUMPDEST PUSH2 0x490C PUSH1 0xA0 DUP4 ADD DUP6 PUSH2 0x41A5 JUMP JUMPDEST PUSH2 0x4919 PUSH1 0xC0 DUP4 ADD DUP5 PUSH2 0x41A5 JUMP JUMPDEST SWAP9 SWAP8 POP POP POP POP POP POP POP POP JUMP JUMPDEST PUSH1 0x0 PUSH1 0x40 DUP3 ADD SWAP1 POP PUSH2 0x493A PUSH1 0x0 DUP4 ADD DUP6 PUSH2 0x40A5 JUMP JUMPDEST PUSH2 0x4947 PUSH1 0x20 DUP4 ADD DUP5 PUSH2 0x47DD JUMP JUMPDEST SWAP4 SWAP3 POP POP POP JUMP JUMPDEST PUSH1 0x0 PUSH1 0x40 DUP3 ADD SWAP1 POP DUP2 DUP2 SUB PUSH1 0x0 DUP4 ADD MSTORE PUSH2 0x4968 DUP2 DUP6 PUSH2 0x40B4 JUMP JUMPDEST SWAP1 POP DUP2 DUP2 SUB PUSH1 0x20 DUP4 ADD MSTORE PUSH2 0x497C DUP2 DUP5 PUSH2 0x4112 JUMP JUMPDEST SWAP1 POP SWAP4 SWAP3 POP POP POP JUMP JUMPDEST PUSH1 0x0 PUSH1 0x20 DUP3 ADD SWAP1 POP PUSH2 0x499A PUSH1 0x0 DUP4 ADD DUP5 PUSH2 0x4243 JUMP JUMPDEST SWAP3 SWAP2 POP POP JUMP JUMPDEST PUSH1 0x0 PUSH1 0x20 DUP3 ADD SWAP1 POP PUSH2 0x49B5 PUSH1 0x0 DUP4 ADD DUP5 PUSH2 0x4252 JUMP JUMPDEST SWAP3 SWAP2 POP POP JUMP JUMPDEST PUSH1 0x0 PUSH1 0x20 DUP3 ADD SWAP1 POP PUSH2 0x49D0 PUSH1 0x0 DUP4 ADD DUP5 PUSH2 0x4261 JUMP JUMPDEST SWAP3 SWAP2 POP POP JUMP JUMPDEST PUSH1 0x0 PUSH1 0x20 DUP3 ADD SWAP1 POP PUSH2 0x49EB PUSH1 0x0 DUP4 ADD DUP5 PUSH2 0x4270 JUMP JUMPDEST SWAP3 SWAP2 POP POP JUMP JUMPDEST PUSH1 0x0 PUSH1 0x20 DUP3 ADD SWAP1 POP DUP2 DUP2 SUB PUSH1 0x0 DUP4 ADD MSTORE PUSH2 0x4A0B DUP2 DUP5 PUSH2 0x429D JUMP JUMPDEST SWAP1 POP SWAP3 SWAP2 POP POP JUMP JUMPDEST PUSH1 0x0 PUSH1 0x20 DUP3 ADD SWAP1 POP DUP2 DUP2 SUB PUSH1 0x0 DUP4 ADD MSTORE PUSH2 0x4A2C DUP2 PUSH2 0x42D6 JUMP JUMPDEST SWAP1 POP SWAP2 SWAP1 POP JUMP JUMPDEST PUSH1 0x0 PUSH1 0x20 DUP3 ADD SWAP1 POP DUP2 DUP2 SUB PUSH1 0x0 DUP4 ADD MSTORE PUSH2 0x4A4C DUP2 PUSH2 0x4316 JUMP JUMPDEST SWAP1 POP SWAP2 SWAP1 POP JUMP JUMPDEST PUSH1 0x0 PUSH1 0x20 DUP3 ADD SWAP1 POP DUP2 DUP2 SUB PUSH1 0x0 DUP4 ADD MSTORE PUSH2 0x4A6C DUP2 PUSH2 0x4356 JUMP JUMPDEST SWAP1 POP SWAP2 SWAP1 POP JUMP JUMPDEST PUSH1 0x0 PUSH1 0x20 DUP3 ADD SWAP1 POP DUP2 DUP2 SUB PUSH1 0x0 DUP4 ADD MSTORE PUSH2 0x4A8C DUP2 PUSH2 0x43BC JUMP JUMPDEST SWAP1 POP SWAP2 SWAP1 POP JUMP JUMPDEST PUSH1 0x0 PUSH1 0x20 DUP3 ADD SWAP1 POP DUP2 DUP2 SUB PUSH1 0x0 DUP4 ADD MSTORE PUSH2 0x4AAC DUP2 PUSH2 0x43FC JUMP JUMPDEST SWAP1 POP SWAP2 SWAP1 POP JUMP JUMPDEST PUSH1 0x0 PUSH1 0x20 DUP3 ADD SWAP1 POP DUP2 DUP2 SUB PUSH1 0x0 DUP4 ADD MSTORE PUSH2 0x4ACC DUP2 PUSH2 0x4462 JUMP JUMPDEST SWAP1 POP SWAP2 SWAP1 POP JUMP JUMPDEST PUSH1 0x0 PUSH1 0x20 DUP3 ADD SWAP1 POP DUP2 DUP2 SUB PUSH1 0x0 DUP4 ADD MSTORE PUSH2 0x4AEC DUP2 PUSH2 0x44A2 JUMP JUMPDEST SWAP1 POP SWAP2 SWAP1 POP JUMP JUMPDEST PUSH1 0x0 PUSH1 0x20 DUP3 ADD SWAP1 POP DUP2 DUP2 SUB PUSH1 0x0 DUP4 ADD MSTORE PUSH2 0x4B0C DUP2 PUSH2 0x4508 JUMP JUMPDEST SWAP1 POP SWAP2 SWAP1 POP JUMP JUMPDEST PUSH1 0x0 PUSH1 0x20 DUP3 ADD SWAP1 POP DUP2 DUP2 SUB PUSH1 0x0 DUP4 ADD MSTORE PUSH2 0x4B2C DUP2 PUSH2 0x4548 JUMP JUMPDEST SWAP1 POP SWAP2 SWAP1 POP JUMP JUMPDEST PUSH1 0x0 PUSH1 0x20 DUP3 ADD SWAP1 POP DUP2 DUP2 SUB PUSH1 0x0 DUP4 ADD MSTORE PUSH2 0x4B4C DUP2 PUSH2 0x4588 JUMP JUMPDEST SWAP1 POP SWAP2 SWAP1 POP JUMP JUMPDEST PUSH1 0x0 PUSH1 0x20 DUP3 ADD SWAP1 POP DUP2 DUP2 SUB PUSH1 0x0 DUP4 ADD MSTORE PUSH2 0x4B6C DUP2 PUSH2 0x45C8 JUMP JUMPDEST SWAP1 POP SWAP2 SWAP1 POP JUMP JUMPDEST PUSH1 0x0 PUSH1 0x20 DUP3 ADD SWAP1 POP DUP2 DUP2 SUB PUSH1 0x0 DUP4 ADD MSTORE PUSH2 0x4B8C DUP2 PUSH2 0x4608 JUMP JUMPDEST SWAP1 POP SWAP2 SWAP1 POP JUMP JUMPDEST PUSH1 0x0 PUSH1 0x20 DUP3 ADD SWAP1 POP DUP2 DUP2 SUB PUSH1 0x0 DUP4 ADD MSTORE PUSH2 0x4BAC DUP2 PUSH2 0x4648 JUMP JUMPDEST SWAP1 POP SWAP2 SWAP1 POP JUMP JUMPDEST PUSH1 0x0 PUSH1 0x20 DUP3 ADD SWAP1 POP DUP2 DUP2 SUB PUSH1 0x0 DUP4 ADD MSTORE PUSH2 0x4BCC DUP2 PUSH2 0x4688 JUMP JUMPDEST SWAP1 POP SWAP2 SWAP1 POP JUMP JUMPDEST PUSH1 0x0 PUSH1 0x20 DUP3 ADD SWAP1 POP DUP2 DUP2 SUB PUSH1 0x0 DUP4 ADD MSTORE PUSH2 0x4BEC DUP2 PUSH2 0x46EE JUMP JUMPDEST SWAP1 POP SWAP2 SWAP1 POP JUMP JUMPDEST PUSH1 0x0 PUSH1 0x20 DUP3 ADD SWAP1 POP DUP2 DUP2 SUB PUSH1 0x0 DUP4 ADD MSTORE PUSH2 0x4C0C DUP2 PUSH2 0x472E JUMP JUMPDEST SWAP1 POP SWAP2 SWAP1 POP JUMP JUMPDEST PUSH1 0x0 PUSH1 0x60 DUP3 ADD SWAP1 POP PUSH2 0x4C28 PUSH1 0x0 DUP4 ADD DUP5 PUSH2 0x476E JUMP JUMPDEST SWAP3 SWAP2 POP POP JUMP JUMPDEST PUSH1 0x0 PUSH1 0x60 DUP3 ADD SWAP1 POP PUSH2 0x4C43 PUSH1 0x0 DUP4 ADD DUP7 PUSH2 0x47BF JUMP JUMPDEST PUSH2 0x4C50 PUSH1 0x20 DUP4 ADD DUP6 PUSH2 0x47FB JUMP JUMPDEST PUSH2 0x4C5D PUSH1 0x40 DUP4 ADD DUP5 PUSH2 0x47FB JUMP JUMPDEST SWAP5 SWAP4 POP POP POP POP JUMP JUMPDEST PUSH1 0x0 PUSH1 0x20 DUP3 ADD SWAP1 POP PUSH2 0x4C7A PUSH1 0x0 DUP4 ADD DUP5 PUSH2 0x47DD JUMP JUMPDEST SWAP3 SWAP2 POP POP JUMP JUMPDEST PUSH1 0x0 PUSH1 0xA0 DUP3 ADD SWAP1 POP PUSH2 0x4C95 PUSH1 0x0 DUP4 ADD DUP9 PUSH2 0x47DD JUMP JUMPDEST PUSH2 0x4CA2 PUSH1 0x20 DUP4 ADD DUP8 PUSH2 0x4096 JUMP JUMPDEST PUSH2 0x4CAF PUSH1 0x40 DUP4 ADD DUP7 PUSH2 0x40A5 JUMP JUMPDEST PUSH2 0x4CBC PUSH1 0x60 DUP4 ADD DUP6 PUSH2 0x428E JUMP JUMPDEST PUSH2 0x4CC9 PUSH1 0x80 DUP4 ADD DUP5 PUSH2 0x428E JUMP JUMPDEST SWAP7 SWAP6 POP POP POP POP POP POP JUMP JUMPDEST PUSH1 0x0 PUSH1 0xA0 DUP3 ADD SWAP1 POP PUSH2 0x4CE8 PUSH1 0x0 DUP4 ADD DUP9 PUSH2 0x47DD JUMP JUMPDEST PUSH2 0x4CF5 PUSH1 0x20 DUP4 ADD DUP8 PUSH2 0x4096 JUMP JUMPDEST PUSH2 0x4D02 PUSH1 0x40 DUP4 ADD DUP7 PUSH2 0x40A5 JUMP JUMPDEST PUSH2 0x4D0F PUSH1 0x60 DUP4 ADD DUP6 PUSH2 0x428E JUMP JUMPDEST PUSH2 0x4D1C PUSH1 0x80 DUP4 ADD DUP5 PUSH2 0x47DD JUMP JUMPDEST SWAP7 SWAP6 POP POP POP POP POP POP JUMP JUMPDEST PUSH1 0x0 PUSH1 0xA0 DUP3 ADD SWAP1 POP PUSH2 0x4D3B PUSH1 0x0 DUP4 ADD DUP9 PUSH2 0x47DD JUMP JUMPDEST PUSH2 0x4D48 PUSH1 0x20 DUP4 ADD DUP8 PUSH2 0x4096 JUMP JUMPDEST PUSH2 0x4D55 PUSH1 0x40 DUP4 ADD DUP7 PUSH2 0x40A5 JUMP JUMPDEST PUSH2 0x4D62 PUSH1 0x60 DUP4 ADD DUP6 PUSH2 0x47DD JUMP JUMPDEST PUSH2 0x4D6F PUSH1 0x80 DUP4 ADD DUP5 PUSH2 0x47DD JUMP JUMPDEST SWAP7 SWAP6 POP POP POP POP POP POP JUMP JUMPDEST PUSH1 0x0 PUSH1 0xA0 DUP3 ADD SWAP1 POP PUSH2 0x4D8E PUSH1 0x0 DUP4 ADD DUP9 PUSH2 0x47DD JUMP JUMPDEST PUSH2 0x4D9B PUSH1 0x20 DUP4 ADD DUP8 PUSH2 0x40A5 JUMP JUMPDEST PUSH2 0x4DA8 PUSH1 0x40 DUP4 ADD DUP7 PUSH2 0x40A5 JUMP JUMPDEST PUSH2 0x4DB5 PUSH1 0x60 DUP4 ADD DUP6 PUSH2 0x428E JUMP JUMPDEST PUSH2 0x4DC2 PUSH1 0x80 DUP4 ADD DUP5 PUSH2 0x47DD JUMP JUMPDEST SWAP7 SWAP6 POP POP POP POP POP POP JUMP JUMPDEST PUSH1 0x0 PUSH1 0x40 DUP3 ADD SWAP1 POP PUSH2 0x4DE1 PUSH1 0x0 DUP4 ADD DUP6 PUSH2 0x47DD JUMP JUMPDEST PUSH2 0x4DEE PUSH1 0x20 DUP4 ADD DUP5 PUSH2 0x4196 JUMP JUMPDEST SWAP4 SWAP3 POP POP POP JUMP JUMPDEST PUSH1 0x0 PUSH1 0x40 DUP3 ADD SWAP1 POP PUSH2 0x4E0A PUSH1 0x0 DUP4 ADD DUP6 PUSH2 0x47DD JUMP JUMPDEST PUSH2 0x4E17 PUSH1 0x20 DUP4 ADD DUP5 PUSH2 0x427F JUMP JUMPDEST SWAP4 SWAP3 POP POP POP JUMP JUMPDEST PUSH1 0x0 PUSH1 0x40 DUP3 ADD SWAP1 POP PUSH2 0x4E33 PUSH1 0x0 DUP4 ADD DUP6 PUSH2 0x47DD JUMP JUMPDEST PUSH2 0x4E40 PUSH1 0x20 DUP4 ADD DUP5 PUSH2 0x428E JUMP JUMPDEST SWAP4 SWAP3 POP POP POP JUMP JUMPDEST PUSH1 0x0 PUSH1 0x40 DUP3 ADD SWAP1 POP PUSH2 0x4E5C PUSH1 0x0 DUP4 ADD DUP6 PUSH2 0x47DD JUMP JUMPDEST PUSH2 0x4E69 PUSH1 0x20 DUP4 ADD DUP5 PUSH2 0x47DD JUMP JUMPDEST SWAP4 SWAP3 POP POP POP JUMP JUMPDEST PUSH1 0x0 PUSH1 0x60 DUP3 ADD SWAP1 POP PUSH2 0x4E85 PUSH1 0x0 DUP4 ADD DUP7 PUSH2 0x47FB JUMP JUMPDEST PUSH2 0x4E92 PUSH1 0x20 DUP4 ADD DUP6 PUSH2 0x47DD JUMP JUMPDEST PUSH2 0x4E9F PUSH1 0x40 DUP4 ADD DUP5 PUSH2 0x47CE JUMP JUMPDEST SWAP5 SWAP4 POP POP POP POP JUMP JUMPDEST PUSH1 0x0 DUP1 DUP4 CALLDATALOAD PUSH1 0x1 PUSH1 0x20 SUB DUP5 CALLDATASIZE SUB SUB DUP2 SLT PUSH2 0x4EC0 JUMPI PUSH1 0x0 DUP1 REVERT JUMPDEST DUP1 DUP5 ADD SWAP3 POP DUP3 CALLDATALOAD SWAP2 POP PUSH8 0xFFFFFFFFFFFFFFFF DUP3 GT ISZERO PUSH2 0x4EDE JUMPI PUSH1 0x0 DUP1 REVERT JUMPDEST PUSH1 0x20 DUP4 ADD SWAP3 POP PUSH1 0x1 DUP3 MUL CALLDATASIZE SUB DUP4 SGT ISZERO PUSH2 0x4EF6 JUMPI PUSH1 0x0 DUP1 REVERT JUMPDEST POP SWAP3 POP SWAP3 SWAP1 POP JUMP JUMPDEST PUSH1 0x0 PUSH1 0x40 MLOAD SWAP1 POP DUP2 DUP2 ADD DUP2 DUP2 LT PUSH8 0xFFFFFFFFFFFFFFFF DUP3 GT OR ISZERO PUSH2 0x4F21 JUMPI PUSH1 0x0 DUP1 REVERT JUMPDEST DUP1 PUSH1 0x40 MSTORE POP SWAP2 SWAP1 POP JUMP JUMPDEST PUSH1 0x0 PUSH8 0xFFFFFFFFFFFFFFFF DUP3 GT ISZERO PUSH2 0x4F42 JUMPI PUSH1 0x0 DUP1 REVERT JUMPDEST PUSH1 0x1F NOT PUSH1 0x1F DUP4 ADD AND SWAP1 POP PUSH1 0x20 DUP2 ADD SWAP1 POP SWAP2 SWAP1 POP JUMP JUMPDEST PUSH1 0x0 DUP2 SWAP1 POP PUSH1 0x20 DUP3 ADD SWAP1 POP SWAP2 SWAP1 POP JUMP JUMPDEST PUSH1 0x0 DUP2 SWAP1 POP PUSH1 0x20 DUP3 ADD SWAP1 POP SWAP2 SWAP1 POP JUMP JUMPDEST PUSH1 0x0 DUP2 MLOAD SWAP1 POP SWAP2 SWAP1 POP JUMP JUMPDEST PUSH1 0x0 DUP2 MLOAD SWAP1 POP SWAP2 SWAP1 POP JUMP JUMPDEST PUSH1 0x0 DUP2 MLOAD SWAP1 POP SWAP2 SWAP1 POP JUMP JUMPDEST PUSH1 0x0 DUP2 MLOAD SWAP1 POP SWAP2 SWAP1 POP JUMP JUMPDEST PUSH1 0x0 PUSH1 0x20 DUP3 ADD SWAP1 POP SWAP2 SWAP1 POP JUMP JUMPDEST PUSH1 0x0 PUSH1 0x20 DUP3 ADD SWAP1 POP SWAP2 SWAP1 POP JUMP JUMPDEST PUSH1 0x0 DUP3 DUP3 MSTORE PUSH1 0x20 DUP3 ADD SWAP1 POP SWAP3 SWAP2 POP POP JUMP JUMPDEST PUSH1 0x0 DUP3 DUP3 MSTORE PUSH1 0x20 DUP3 ADD SWAP1 POP SWAP3 SWAP2 POP POP JUMP JUMPDEST PUSH1 0x0 DUP3 DUP3 MSTORE PUSH1 0x20 DUP3 ADD SWAP1 POP SWAP3 SWAP2 POP POP JUMP JUMPDEST PUSH1 0x0 DUP2 SWAP1 POP SWAP3 SWAP2 POP POP JUMP JUMPDEST PUSH1 0x0 DUP3 DUP3 MSTORE PUSH1 0x20 DUP3 ADD SWAP1 POP SWAP3 SWAP2 POP POP JUMP JUMPDEST PUSH1 0x0 PUSH2 0x5017 DUP3 PUSH2 0x5090 JUMP JUMPDEST SWAP1 POP SWAP2 SWAP1 POP JUMP JUMPDEST PUSH1 0x0 DUP2 ISZERO ISZERO SWAP1 POP SWAP2 SWAP1 POP JUMP JUMPDEST PUSH1 0x0 DUP2 SWAP1 POP SWAP2 SWAP1 POP JUMP JUMPDEST PUSH1 0x0 PUSH2 0x503F DUP3 PUSH2 0x500C JUMP JUMPDEST SWAP1 POP SWAP2 SWAP1 POP JUMP JUMPDEST PUSH1 0x0 PUSH2 0x5051 DUP3 PUSH2 0x500C JUMP JUMPDEST SWAP1 POP SWAP2 SWAP1 POP JUMP JUMPDEST PUSH1 0x0 PUSH2 0x5063 DUP3 PUSH2 0x500C JUMP JUMPDEST SWAP1 POP SWAP2 SWAP1 POP JUMP JUMPDEST PUSH1 0x0 DUP2 SWAP1 POP SWAP2 SWAP1 POP JUMP JUMPDEST PUSH1 0x0 PUSH16 0xFFFFFFFFFFFFFFFFFFFFFFFFFFFFFFFF DUP3 AND SWAP1 POP SWAP2 SWAP1 POP JUMP JUMPDEST PUSH1 0x0 PUSH20 0xFFFFFFFFFFFFFFFFFFFFFFFFFFFFFFFFFFFFFFFF DUP3 AND SWAP1 POP SWAP2 SWAP1 POP JUMP JUMPDEST PUSH1 0x0 DUP2 SWAP1 POP SWAP2 SWAP1 POP JUMP JUMPDEST PUSH1 0x0 PUSH8 0xFFFFFFFFFFFFFFFF DUP3 AND SWAP1 POP SWAP2 SWAP1 POP JUMP JUMPDEST PUSH1 0x0 PUSH1 0xFF DUP3 AND SWAP1 POP SWAP2 SWAP1 POP JUMP JUMPDEST PUSH1 0x0 PUSH2 0x50E6 DUP3 PUSH2 0x51A1 JUMP JUMPDEST SWAP1 POP SWAP2 SWAP1 POP JUMP JUMPDEST PUSH1 0x0 PUSH2 0x50F8 DUP3 PUSH2 0x50FF JUMP JUMPDEST SWAP1 POP SWAP2 SWAP1 POP JUMP JUMPDEST PUSH1 0x0 PUSH2 0x510A DUP3 PUSH2 0x5090 JUMP JUMPDEST SWAP1 POP SWAP2 SWAP1 POP JUMP JUMPDEST PUSH1 0x0 PUSH2 0x511C DUP3 PUSH2 0x5123 JUMP JUMPDEST SWAP1 POP SWAP2 SWAP1 POP JUMP JUMPDEST PUSH1 0x0 PUSH2 0x512E DUP3 PUSH2 0x5090 JUMP JUMPDEST SWAP1 POP SWAP2 SWAP1 POP JUMP JUMPDEST PUSH1 0x0 PUSH2 0x5140 DUP3 PUSH2 0x5147 JUMP JUMPDEST SWAP1 POP SWAP2 SWAP1 POP JUMP JUMPDEST PUSH1 0x0 PUSH2 0x5152 DUP3 PUSH2 0x5090 JUMP JUMPDEST SWAP1 POP SWAP2 SWAP1 POP JUMP JUMPDEST PUSH1 0x0 PUSH2 0x5164 DUP3 PUSH2 0x516B JUMP JUMPDEST SWAP1 POP SWAP2 SWAP1 POP JUMP JUMPDEST PUSH1 0x0 PUSH2 0x5176 DUP3 PUSH2 0x5090 JUMP JUMPDEST SWAP1 POP SWAP2 SWAP1 POP JUMP JUMPDEST PUSH1 0x0 PUSH2 0x5188 DUP3 PUSH2 0x50B0 JUMP JUMPDEST SWAP1 POP SWAP2 SWAP1 POP JUMP JUMPDEST PUSH1 0x0 PUSH2 0x519A DUP3 PUSH2 0x5074 JUMP JUMPDEST SWAP1 POP SWAP2 SWAP1 POP JUMP JUMPDEST PUSH1 0x0 PUSH2 0x51AC DUP3 PUSH2 0x51B3 JUMP JUMPDEST SWAP1 POP SWAP2 SWAP1 POP JUMP JUMPDEST PUSH1 0x0 PUSH2 0x51BE DUP3 PUSH2 0x5090 JUMP JUMPDEST SWAP1 POP SWAP2 SWAP1 POP JUMP JUMPDEST DUP3 DUP2 DUP4 CALLDATACOPY PUSH1 0x0 DUP4 DUP4 ADD MSTORE POP POP POP JUMP JUMPDEST PUSH1 0x0 JUMPDEST DUP4 DUP2 LT ISZERO PUSH2 0x51F2 JUMPI DUP1 DUP3 ADD MLOAD DUP2 DUP5 ADD MSTORE PUSH1 0x20 DUP2 ADD SWAP1 POP PUSH2 0x51D7 JUMP JUMPDEST DUP4 DUP2 GT ISZERO PUSH2 0x5201 JUMPI PUSH1 0x0 DUP5 DUP5 ADD MSTORE JUMPDEST POP POP POP POP JUMP JUMPDEST PUSH1 0x0 PUSH1 0x1F NOT PUSH1 0x1F DUP4 ADD AND SWAP1 POP SWAP2 SWAP1 POP JUMP JUMPDEST PUSH2 0x5221 DUP2 PUSH2 0x500C JUMP JUMPDEST DUP2 EQ PUSH2 0x522C JUMPI PUSH1 0x0 DUP1 REVERT JUMPDEST POP JUMP JUMPDEST PUSH2 0x5238 DUP2 PUSH2 0x501E JUMP JUMPDEST DUP2 EQ PUSH2 0x5243 JUMPI PUSH1 0x0 DUP1 REVERT JUMPDEST POP JUMP JUMPDEST PUSH2 0x524F DUP2 PUSH2 0x502A JUMP JUMPDEST DUP2 EQ PUSH2 0x525A JUMPI PUSH1 0x0 DUP1 REVERT JUMPDEST POP JUMP JUMPDEST PUSH2 0x5266 DUP2 PUSH2 0x5034 JUMP JUMPDEST DUP2 EQ PUSH2 0x5271 JUMPI PUSH1 0x0 DUP1 REVERT JUMPDEST POP JUMP JUMPDEST PUSH2 0x527D DUP2 PUSH2 0x5046 JUMP JUMPDEST DUP2 EQ PUSH2 0x5288 JUMPI PUSH1 0x0 DUP1 REVERT JUMPDEST POP JUMP JUMPDEST PUSH2 0x5294 DUP2 PUSH2 0x5058 JUMP JUMPDEST DUP2 EQ PUSH2 0x529F JUMPI PUSH1 0x0 DUP1 REVERT JUMPDEST POP JUMP JUMPDEST PUSH2 0x52AB DUP2 PUSH2 0x50B0 JUMP JUMPDEST DUP2 EQ PUSH2 0x52B6 JUMPI PUSH1 0x0 DUP1 REVERT JUMPDEST POP JUMP JUMPDEST PUSH2 0x52C2 DUP2 PUSH2 0x50CE JUMP JUMPDEST DUP2 EQ PUSH2 0x52CD JUMPI PUSH1 0x0 DUP1 REVERT JUMPDEST POP JUMP INVALID LOG2 PUSH5 0x6970667358 0x22 SLT KECCAK256 0xCE DUP7 XOR MSTORE8 PUSH13 0xB247968C02E55C93CA6498CB19 PUSH9 0x193F5C7624E2B74248 MSTORE ORIGIN 0xEF 0xFC PUSH5 0x736F6C6343 STOP MOD 0xC STOP CALLER "
		},
		"gasEstimates": {
			"creation": {
				"codeDepositCost": "4250800",
				"executionCost": "infinite",
				"totalCost": "infinite"
			},
			"external": {
				"MASTER_CHEF()": "infinite",
				"MASTER_PID()": "infinite",
				"SUSHI()": "infinite",
				"add(uint256,address,address)": "infinite",
				"batch(bytes[],bool)": "infinite",
				"claimOwnership()": "45184",
				"deposit(uint256,uint256,address)": "infinite",
				"emergencyWithdraw(uint256,address)": "infinite",
				"harvest(uint256,address)": "infinite",
				"harvestFromMasterChef()": "infinite",
				"init(address)": "infinite",
				"lpToken(uint256)": "2467",
				"massUpdatePools(uint256[])": "infinite",
				"migrate(uint256)": "infinite",
				"migrator()": "1369",
				"owner()": "1278",
				"pendingOwner()": "1302",
				"pendingSushi(uint256,address)": "infinite",
				"permitToken(address,address,address,uint256,uint256,uint8,bytes32,bytes32)": "infinite",
				"poolInfo(uint256)": "infinite",
				"poolLength()": "1214",
				"rewarder(uint256)": "2510",
				"set(uint256,uint256,address,bool)": "infinite",
				"setMigrator(address)": "22300",
				"sushiPerBlock()": "infinite",
				"totalAllocPoint()": "1197",
				"transferOwnership(address,bool,bool)": "infinite",
				"updatePool(uint256)": "infinite",
				"userInfo(uint256,address)": "infinite",
				"withdraw(uint256,uint256,address)": "infinite",
				"withdrawAndHarvest(uint256,uint256,address)": "infinite"
			}
		},
		"methodIdentifiers": {
			"MASTER_CHEF()": "edd8b170",
			"MASTER_PID()": "61621aaa",
			"SUSHI()": "ab560e10",
			"add(uint256,address,address)": "ab7de098",
			"batch(bytes[],bool)": "d2423b51",
			"claimOwnership()": "4e71e0c8",
			"deposit(uint256,uint256,address)": "8dbdbe6d",
			"emergencyWithdraw(uint256,address)": "2f940c70",
			"harvest(uint256,address)": "18fccc76",
			"harvestFromMasterChef()": "4f70b15a",
			"init(address)": "19ab453c",
			"lpToken(uint256)": "78ed5d1f",
			"massUpdatePools(uint256[])": "57a5b58c",
			"migrate(uint256)": "454b0608",
			"migrator()": "7cd07e47",
			"owner()": "8da5cb5b",
			"pendingOwner()": "e30c3978",
			"pendingSushi(uint256,address)": "195426ec",
			"permitToken(address,address,address,uint256,uint256,uint8,bytes32,bytes32)": "7c516e94",
			"poolInfo(uint256)": "1526fe27",
			"poolLength()": "081e3eda",
			"rewarder(uint256)": "c346253d",
			"set(uint256,uint256,address,bool)": "88bba42f",
			"setMigrator(address)": "23cf3118",
			"sushiPerBlock()": "b0bcf42a",
			"totalAllocPoint()": "17caf6f1",
			"transferOwnership(address,bool,bool)": "078dfbe7",
			"updatePool(uint256)": "51eb05a6",
			"userInfo(uint256,address)": "93f1a40b",
			"withdraw(uint256,uint256,address)": "0ad58d2f",
			"withdrawAndHarvest(uint256,uint256,address)": "d1abb907"
		}
	},
	"abi": [
		{
			"inputs": [
				{
					"internalType": "contract IMasterChef",
					"name": "_MASTER_CHEF",
					"type": "address"
				},
				{
					"internalType": "contract IERC20",
					"name": "_sushi",
					"type": "address"
				},
				{
					"internalType": "uint256",
					"name": "_MASTER_PID",
					"type": "uint256"
				}
			],
			"stateMutability": "nonpayable",
			"type": "constructor"
		},
		{
			"anonymous": false,
			"inputs": [
				{
					"indexed": true,
					"internalType": "address",
					"name": "user",
					"type": "address"
				},
				{
					"indexed": true,
					"internalType": "uint256",
					"name": "pid",
					"type": "uint256"
				},
				{
					"indexed": false,
					"internalType": "uint256",
					"name": "amount",
					"type": "uint256"
				},
				{
					"indexed": true,
					"internalType": "address",
					"name": "to",
					"type": "address"
				}
			],
			"name": "Deposit",
			"type": "event"
		},
		{
			"anonymous": false,
			"inputs": [
				{
					"indexed": true,
					"internalType": "address",
					"name": "user",
					"type": "address"
				},
				{
					"indexed": true,
					"internalType": "uint256",
					"name": "pid",
					"type": "uint256"
				},
				{
					"indexed": false,
					"internalType": "uint256",
					"name": "amount",
					"type": "uint256"
				},
				{
					"indexed": true,
					"internalType": "address",
					"name": "to",
					"type": "address"
				}
			],
			"name": "EmergencyWithdraw",
			"type": "event"
		},
		{
			"anonymous": false,
			"inputs": [
				{
					"indexed": true,
					"internalType": "address",
					"name": "user",
					"type": "address"
				},
				{
					"indexed": true,
					"internalType": "uint256",
					"name": "pid",
					"type": "uint256"
				},
				{
					"indexed": false,
					"internalType": "uint256",
					"name": "amount",
					"type": "uint256"
				}
			],
			"name": "Harvest",
			"type": "event"
		},
		{
			"anonymous": false,
			"inputs": [],
			"name": "LogInit",
			"type": "event"
		},
		{
			"anonymous": false,
			"inputs": [
				{
					"indexed": true,
					"internalType": "uint256",
					"name": "pid",
					"type": "uint256"
				},
				{
					"indexed": false,
					"internalType": "uint256",
					"name": "allocPoint",
					"type": "uint256"
				},
				{
					"indexed": true,
					"internalType": "contract IERC20",
					"name": "lpToken",
					"type": "address"
				},
				{
					"indexed": true,
					"internalType": "contract IRewarder",
					"name": "rewarder",
					"type": "address"
				}
			],
			"name": "LogPoolAddition",
			"type": "event"
		},
		{
			"anonymous": false,
			"inputs": [
				{
					"indexed": true,
					"internalType": "uint256",
					"name": "pid",
					"type": "uint256"
				},
				{
					"indexed": false,
					"internalType": "uint256",
					"name": "allocPoint",
					"type": "uint256"
				},
				{
					"indexed": true,
					"internalType": "contract IRewarder",
					"name": "rewarder",
					"type": "address"
				},
				{
					"indexed": false,
					"internalType": "bool",
					"name": "overwrite",
					"type": "bool"
				}
			],
			"name": "LogSetPool",
			"type": "event"
		},
		{
			"anonymous": false,
			"inputs": [
				{
					"indexed": true,
					"internalType": "uint256",
					"name": "pid",
					"type": "uint256"
				},
				{
					"indexed": false,
					"internalType": "uint64",
					"name": "lastRewardBlock",
					"type": "uint64"
				},
				{
					"indexed": false,
					"internalType": "uint256",
					"name": "lpSupply",
					"type": "uint256"
				},
				{
					"indexed": false,
					"internalType": "uint256",
					"name": "accSushiPerShare",
					"type": "uint256"
				}
			],
			"name": "LogUpdatePool",
			"type": "event"
		},
		{
			"anonymous": false,
			"inputs": [
				{
					"indexed": true,
					"internalType": "address",
					"name": "previousOwner",
					"type": "address"
				},
				{
					"indexed": true,
					"internalType": "address",
					"name": "newOwner",
					"type": "address"
				}
			],
			"name": "OwnershipTransferred",
			"type": "event"
		},
		{
			"anonymous": false,
			"inputs": [
				{
					"indexed": true,
					"internalType": "address",
					"name": "user",
					"type": "address"
				},
				{
					"indexed": true,
					"internalType": "uint256",
					"name": "pid",
					"type": "uint256"
				},
				{
					"indexed": false,
					"internalType": "uint256",
					"name": "amount",
					"type": "uint256"
				},
				{
					"indexed": true,
					"internalType": "address",
					"name": "to",
					"type": "address"
				}
			],
			"name": "Withdraw",
			"type": "event"
		},
		{
			"inputs": [],
			"name": "MASTER_CHEF",
			"outputs": [
				{
					"internalType": "contract IMasterChef",
					"name": "",
					"type": "address"
				}
			],
			"stateMutability": "view",
			"type": "function"
		},
		{
			"inputs": [],
			"name": "MASTER_PID",
			"outputs": [
				{
					"internalType": "uint256",
					"name": "",
					"type": "uint256"
				}
			],
			"stateMutability": "view",
			"type": "function"
		},
		{
			"inputs": [],
			"name": "SUSHI",
			"outputs": [
				{
					"internalType": "contract IERC20",
					"name": "",
					"type": "address"
				}
			],
			"stateMutability": "view",
			"type": "function"
		},
		{
			"inputs": [
				{
					"internalType": "uint256",
					"name": "allocPoint",
					"type": "uint256"
				},
				{
					"internalType": "contract IERC20",
					"name": "_lpToken",
					"type": "address"
				},
				{
					"internalType": "contract IRewarder",
					"name": "_rewarder",
					"type": "address"
				}
			],
			"name": "add",
			"outputs": [],
			"stateMutability": "nonpayable",
			"type": "function"
		},
		{
			"inputs": [
				{
					"internalType": "bytes[]",
					"name": "calls",
					"type": "bytes[]"
				},
				{
					"internalType": "bool",
					"name": "revertOnFail",
					"type": "bool"
				}
			],
			"name": "batch",
			"outputs": [
				{
					"internalType": "bool[]",
					"name": "successes",
					"type": "bool[]"
				},
				{
					"internalType": "bytes[]",
					"name": "results",
					"type": "bytes[]"
				}
			],
			"stateMutability": "payable",
			"type": "function"
		},
		{
			"inputs": [],
			"name": "claimOwnership",
			"outputs": [],
			"stateMutability": "nonpayable",
			"type": "function"
		},
		{
			"inputs": [
				{
					"internalType": "uint256",
					"name": "pid",
					"type": "uint256"
				},
				{
					"internalType": "uint256",
					"name": "amount",
					"type": "uint256"
				},
				{
					"internalType": "address",
					"name": "to",
					"type": "address"
				}
			],
			"name": "deposit",
			"outputs": [],
			"stateMutability": "nonpayable",
			"type": "function"
		},
		{
			"inputs": [
				{
					"internalType": "uint256",
					"name": "pid",
					"type": "uint256"
				},
				{
					"internalType": "address",
					"name": "to",
					"type": "address"
				}
			],
			"name": "emergencyWithdraw",
			"outputs": [],
			"stateMutability": "nonpayable",
			"type": "function"
		},
		{
			"inputs": [
				{
					"internalType": "uint256",
					"name": "pid",
					"type": "uint256"
				},
				{
					"internalType": "address",
					"name": "to",
					"type": "address"
				}
			],
			"name": "harvest",
			"outputs": [],
			"stateMutability": "nonpayable",
			"type": "function"
		},
		{
			"inputs": [],
			"name": "harvestFromMasterChef",
			"outputs": [],
			"stateMutability": "nonpayable",
			"type": "function"
		},
		{
			"inputs": [
				{
					"internalType": "contract IERC20",
					"name": "dummyToken",
					"type": "address"
				}
			],
			"name": "init",
			"outputs": [],
			"stateMutability": "nonpayable",
			"type": "function"
		},
		{
			"inputs": [
				{
					"internalType": "uint256",
					"name": "",
					"type": "uint256"
				}
			],
			"name": "lpToken",
			"outputs": [
				{
					"internalType": "contract IERC20",
					"name": "",
					"type": "address"
				}
			],
			"stateMutability": "view",
			"type": "function"
		},
		{
			"inputs": [
				{
					"internalType": "uint256[]",
					"name": "pids",
					"type": "uint256[]"
				}
			],
			"name": "massUpdatePools",
			"outputs": [],
			"stateMutability": "nonpayable",
			"type": "function"
		},
		{
			"inputs": [
				{
					"internalType": "uint256",
					"name": "_pid",
					"type": "uint256"
				}
			],
			"name": "migrate",
			"outputs": [],
			"stateMutability": "nonpayable",
			"type": "function"
		},
		{
			"inputs": [],
			"name": "migrator",
			"outputs": [
				{
					"internalType": "contract IMigratorChef",
					"name": "",
					"type": "address"
				}
			],
			"stateMutability": "view",
			"type": "function"
		},
		{
			"inputs": [],
			"name": "owner",
			"outputs": [
				{
					"internalType": "address",
					"name": "",
					"type": "address"
				}
			],
			"stateMutability": "view",
			"type": "function"
		},
		{
			"inputs": [],
			"name": "pendingOwner",
			"outputs": [
				{
					"internalType": "address",
					"name": "",
					"type": "address"
				}
			],
			"stateMutability": "view",
			"type": "function"
		},
		{
			"inputs": [
				{
					"internalType": "uint256",
					"name": "_pid",
					"type": "uint256"
				},
				{
					"internalType": "address",
					"name": "_user",
					"type": "address"
				}
			],
			"name": "pendingSushi",
			"outputs": [
				{
					"internalType": "uint256",
					"name": "pending",
					"type": "uint256"
				}
			],
			"stateMutability": "view",
			"type": "function"
		},
		{
			"inputs": [
				{
					"internalType": "contract IERC20",
					"name": "token",
					"type": "address"
				},
				{
					"internalType": "address",
					"name": "from",
					"type": "address"
				},
				{
					"internalType": "address",
					"name": "to",
					"type": "address"
				},
				{
					"internalType": "uint256",
					"name": "amount",
					"type": "uint256"
				},
				{
					"internalType": "uint256",
					"name": "deadline",
					"type": "uint256"
				},
				{
					"internalType": "uint8",
					"name": "v",
					"type": "uint8"
				},
				{
					"internalType": "bytes32",
					"name": "r",
					"type": "bytes32"
				},
				{
					"internalType": "bytes32",
					"name": "s",
					"type": "bytes32"
				}
			],
			"name": "permitToken",
			"outputs": [],
			"stateMutability": "nonpayable",
			"type": "function"
		},
		{
			"inputs": [
				{
					"internalType": "uint256",
					"name": "",
					"type": "uint256"
				}
			],
			"name": "poolInfo",
			"outputs": [
				{
					"internalType": "uint128",
					"name": "accSushiPerShare",
					"type": "uint128"
				},
				{
					"internalType": "uint64",
					"name": "lastRewardBlock",
					"type": "uint64"
				},
				{
					"internalType": "uint64",
					"name": "allocPoint",
					"type": "uint64"
				}
			],
			"stateMutability": "view",
			"type": "function"
		},
		{
			"inputs": [],
			"name": "poolLength",
			"outputs": [
				{
					"internalType": "uint256",
					"name": "pools",
					"type": "uint256"
				}
			],
			"stateMutability": "view",
			"type": "function"
		},
		{
			"inputs": [
				{
					"internalType": "uint256",
					"name": "",
					"type": "uint256"
				}
			],
			"name": "rewarder",
			"outputs": [
				{
					"internalType": "contract IRewarder",
					"name": "",
					"type": "address"
				}
			],
			"stateMutability": "view",
			"type": "function"
		},
		{
			"inputs": [
				{
					"internalType": "uint256",
					"name": "_pid",
					"type": "uint256"
				},
				{
					"internalType": "uint256",
					"name": "_allocPoint",
					"type": "uint256"
				},
				{
					"internalType": "contract IRewarder",
					"name": "_rewarder",
					"type": "address"
				},
				{
					"internalType": "bool",
					"name": "overwrite",
					"type": "bool"
				}
			],
			"name": "set",
			"outputs": [],
			"stateMutability": "nonpayable",
			"type": "function"
		},
		{
			"inputs": [
				{
					"internalType": "contract IMigratorChef",
					"name": "_migrator",
					"type": "address"
				}
			],
			"name": "setMigrator",
			"outputs": [],
			"stateMutability": "nonpayable",
			"type": "function"
		},
		{
			"inputs": [],
			"name": "sushiPerBlock",
			"outputs": [
				{
					"internalType": "uint256",
					"name": "amount",
					"type": "uint256"
				}
			],
			"stateMutability": "view",
			"type": "function"
		},
		{
			"inputs": [],
			"name": "totalAllocPoint",
			"outputs": [
				{
					"internalType": "uint256",
					"name": "",
					"type": "uint256"
				}
			],
			"stateMutability": "view",
			"type": "function"
		},
		{
			"inputs": [
				{
					"internalType": "address",
					"name": "newOwner",
					"type": "address"
				},
				{
					"internalType": "bool",
					"name": "direct",
					"type": "bool"
				},
				{
					"internalType": "bool",
					"name": "renounce",
					"type": "bool"
				}
			],
			"name": "transferOwnership",
			"outputs": [],
			"stateMutability": "nonpayable",
			"type": "function"
		},
		{
			"inputs": [
				{
					"internalType": "uint256",
					"name": "pid",
					"type": "uint256"
				}
			],
			"name": "updatePool",
			"outputs": [
				{
					"components": [
						{
							"internalType": "uint128",
							"name": "accSushiPerShare",
							"type": "uint128"
						},
						{
							"internalType": "uint64",
							"name": "lastRewardBlock",
							"type": "uint64"
						},
						{
							"internalType": "uint64",
							"name": "allocPoint",
							"type": "uint64"
						}
					],
					"internalType": "struct MasterChefV2.PoolInfo",
					"name": "pool",
					"type": "tuple"
				}
			],
			"stateMutability": "nonpayable",
			"type": "function"
		},
		{
			"inputs": [
				{
					"internalType": "uint256",
					"name": "",
					"type": "uint256"
				},
				{
					"internalType": "address",
					"name": "",
					"type": "address"
				}
			],
			"name": "userInfo",
			"outputs": [
				{
					"internalType": "uint256",
					"name": "amount",
					"type": "uint256"
				},
				{
					"internalType": "int256",
					"name": "rewardDebt",
					"type": "int256"
				}
			],
			"stateMutability": "view",
			"type": "function"
		},
		{
			"inputs": [
				{
					"internalType": "uint256",
					"name": "pid",
					"type": "uint256"
				},
				{
					"internalType": "uint256",
					"name": "amount",
					"type": "uint256"
				},
				{
					"internalType": "address",
					"name": "to",
					"type": "address"
				}
			],
			"name": "withdraw",
			"outputs": [],
			"stateMutability": "nonpayable",
			"type": "function"
		},
		{
			"inputs": [
				{
					"internalType": "uint256",
					"name": "pid",
					"type": "uint256"
				},
				{
					"internalType": "uint256",
					"name": "amount",
					"type": "uint256"
				},
				{
					"internalType": "address",
					"name": "to",
					"type": "address"
				}
			],
			"name": "withdrawAndHarvest",
			"outputs": [],
			"stateMutability": "nonpayable",
			"type": "function"
		}
	]
}