{
	"data": {
		"bytecode": {
			"linkReferences": {},
			"object": "608060405260405162004969380380620049698339818101604052810190620000299190620001c7565b620000496200003d6200009160201b60201c565b6200009960201b60201c565b80600960006101000a81548173ffffffffffffffffffffffffffffffffffffffff021916908373ffffffffffffffffffffffffffffffffffffffff16021790555050620001f9565b600033905090565b60008060009054906101000a900473ffffffffffffffffffffffffffffffffffffffff169050816000806101000a81548173ffffffffffffffffffffffffffffffffffffffff021916908373ffffffffffffffffffffffffffffffffffffffff1602179055508173ffffffffffffffffffffffffffffffffffffffff168173ffffffffffffffffffffffffffffffffffffffff167f8be0079c531659141344cd1fd0a4f28419497f9722a3daafe3b4186f6b6457e060405160405180910390a35050565b600080fd5b600073ffffffffffffffffffffffffffffffffffffffff82169050919050565b60006200018f8262000162565b9050919050565b620001a18162000182565b8114620001ad57600080fd5b50565b600081519050620001c18162000196565b92915050565b600060208284031215620001e057620001df6200015d565b5b6000620001f084828501620001b0565b91505092915050565b61476080620002096000396000f3fe6080604052600436106101395760003560e01c80638da5cb5b116100ab578063c41559bb1161006f578063c41559bb14610443578063c7140e4e14610480578063cdc1d792146104a9578063e80bdaeb146104e6578063ec3f91ef14610523578063f2fde38b1461054c57610196565b80638da5cb5b1461035e57806395b6f7a3146103895780639a20cc81146103c6578063ac30777314610403578063b8f1eb6c1461041a57610196565b80632f745c59116100fd5780632f745c591461028057806346f41b9d146102bd5780634f4a1ff0146102d9578063715018a6146102f55780637df4a6361461030c5780638a6d26921461033557610196565b806305b7cdd3146101985780630ac2d17b146101b45780631619b920146101f15780632852cc471461021a5780632c86c8a51461024357610196565b366101965734600660003373ffffffffffffffffffffffffffffffffffffffff1673ffffffffffffffffffffffffffffffffffffffff168152602001908152602001600020600082825461018d919061352d565b92505081905550005b005b6101b260048036038101906101ad91906135c3565b610575565b005b3480156101c057600080fd5b506101db60048036038101906101d69190613603565b610ac1565b6040516101e8919061375f565b60405180910390f35b3480156101fd57600080fd5b5061021860048036038101906102139190613603565b610bb6565b005b34801561022657600080fd5b50610241600480360381019061023c9190613603565b610fca565b005b34801561024f57600080fd5b5061026a600480360381019061026591906137a6565b61121f565b60405161027791906137e2565b60405180910390f35b34801561028c57600080fd5b506102a760048036038101906102a291906137fd565b6112c9565b6040516102b491906137e2565b60405180910390f35b6102d760048036038101906102d29190613603565b611376565b005b6102f360048036038101906102ee91906135c3565b611822565b005b34801561030157600080fd5b5061030a611e57565b005b34801561031857600080fd5b50610333600480360381019061032e919061383d565b611edf565b005b34801561034157600080fd5b5061035c600480360381019061035791906135c3565b61218c565b005b34801561036a57600080fd5b50610373612304565b604051610380919061389f565b60405180910390f35b34801561039557600080fd5b506103b060048036038101906103ab9190613603565b61232d565b6040516103bd9190613953565b60405180910390f35b3480156103d257600080fd5b506103ed60048036038101906103e89190613603565b6123dd565b6040516103fa919061375f565b60405180910390f35b34801561040f57600080fd5b506104186124bf565b005b34801561042657600080fd5b50610441600480360381019061043c9190613603565b612686565b005b34801561044f57600080fd5b5061046a600480360381019061046591906137a6565b6129b6565b60405161047791906137e2565b60405180910390f35b34801561048c57600080fd5b506104a760048036038101906104a291906135c3565b612a04565b005b3480156104b557600080fd5b506104d060048036038101906104cb9190613603565b612ae9565b6040516104dd919061389f565b60405180910390f35b3480156104f257600080fd5b5061050d60048036038101906105089190613603565b612b93565b60405161051a9190613a24565b60405180910390f35b34801561052f57600080fd5b5061054a600480360381019061054591906135c3565b612c04565b005b34801561055857600080fd5b50610573600480360381019061056e91906137a6565b613246565b005b803410156105b8576040517f08c379a00000000000000000000000000000000000000000000000000000000081526004016105af90613ab8565b60405180910390fd5b6000806004600085815260200190815260200160002054905060008111156106b4576000600260008381526020019081526020016000206040518060a001604052908160008201548152602001600182015481526020016002820160009054906101000a900473ffffffffffffffffffffffffffffffffffffffff1673ffffffffffffffffffffffffffffffffffffffff1673ffffffffffffffffffffffffffffffffffffffff168152602001600382015481526020016004820160009054906101000a900460ff16600281111561069357610692613680565b5b60028111156106a5576106a4613680565b5b81525050905080606001519250505b60006005600086815260200190815260200160002054905060006007600087815260200190815260200160002060009054906101000a900460ff1690506000600281111561070557610704613680565b5b81600281111561071857610717613680565b5b14156107a757838511610760576040517f08c379a000000000000000000000000000000000000000000000000000000000815260040161075790613b70565b60405180910390fd5b8185116107a2576040517f08c379a000000000000000000000000000000000000000000000000000000000815260040161079990613c28565b60405180910390fd5b6108e4565b600160028111156107bb576107ba613680565b5b8160028111156107ce576107cd613680565b5b141561085e57838511610816576040517f08c379a000000000000000000000000000000000000000000000000000000000815260040161080d90613d06565b60405180910390fd5b81851115610859576040517f08c379a000000000000000000000000000000000000000000000000000000000815260040161085090613dbe565b60405180910390fd5b6108e3565b8385116108a0576040517f08c379a000000000000000000000000000000000000000000000000000000000815260040161089790613e76565b60405180910390fd5b8185106108e2576040517f08c379a00000000000000000000000000000000000000000000000000000000081526004016108d990613f2e565b60405180910390fd5b5b5b6000600360008881526020019081526020016000209050610905600161333e565b60006109116001613354565b905060006040518060a001604052808381526020018a81526020013373ffffffffffffffffffffffffffffffffffffffff1681526020018981526020016000600281111561096257610961613680565b5b81525090508060026000848152602001908152602001600020600082015181600001556020820151816001015560408201518160020160006101000a81548173ffffffffffffffffffffffffffffffffffffffff021916908373ffffffffffffffffffffffffffffffffffffffff1602179055506060820151816003015560808201518160040160006101000a81548160ff02191690836002811115610a0b57610a0a613680565b5b02179055509050508282908060018154018082558091505060019003906000526020600020016000909190919091505582600360008b8152602001908152602001600020908054610a5d92919061342e565b5081600460008b8152602001908152602001600020819055507f0f08f736bdcdf115ba3e0c936ae075a4df78ede609d99818acb853135ad26119828a338b6000604051610aae959493929190613f5d565b60405180910390a1505050505050505050565b610ac9613480565b600060046000848152602001908152602001600020549050600260008281526020019081526020016000206040518060a001604052908160008201548152602001600182015481526020016002820160009054906101000a900473ffffffffffffffffffffffffffffffffffffffff1673ffffffffffffffffffffffffffffffffffffffff1673ffffffffffffffffffffffffffffffffffffffff168152602001600382015481526020016004820160009054906101000a900460ff166002811115610b9857610b97613680565b5b6002811115610baa57610ba9613680565b5b81525050915050919050565b8060006008600083815260200190815260200160002060009054906101000a900473ffffffffffffffffffffffffffffffffffffffff1690508073ffffffffffffffffffffffffffffffffffffffff163373ffffffffffffffffffffffffffffffffffffffff1614610c2757600080fd5b600960009054906101000a900473ffffffffffffffffffffffffffffffffffffffff1673ffffffffffffffffffffffffffffffffffffffff166323b872dd3033866040518463ffffffff1660e01b8152600401610c8693929190613fb0565b600060405180830381600087803b158015610ca057600080fd5b505af1158015610cb4573d6000803e3d6000fd5b50505050600060036000858152602001908152602001600020805480602002602001604051908101604052809291908181526020018280548015610d1757602002820191906000526020600020905b815481526020019060010190808311610d03575b5050505050905060005b8151811015610f70576000828281518110610d3f57610d3e613fe7565b5b602002602001015190506000600260008381526020019081526020016000206040518060a001604052908160008201548152602001600182015481526020016002820160009054906101000a900473ffffffffffffffffffffffffffffffffffffffff1673ffffffffffffffffffffffffffffffffffffffff1673ffffffffffffffffffffffffffffffffffffffff168152602001600382015481526020016004820160009054906101000a900460ff166002811115610e0257610e01613680565b5b6002811115610e1457610e13613680565b5b81525050905060006002811115610e2e57610e2d613680565b5b81608001516002811115610e4557610e44613680565b5b14610e85576040517f08c379a0000000000000000000000000000000000000000000000000000000008152600401610e7c90614062565b60405180910390fd5b600281608001906002811115610e9e57610e9d613680565b5b90816002811115610eb257610eb1613680565b5b81525050806060015160066000836040015173ffffffffffffffffffffffffffffffffffffffff1673ffffffffffffffffffffffffffffffffffffffff1681526020019081526020016000206000828254610f0d919061352d565b925050819055507f5b166b4d0498ff8c4719999cb6154c5d197e6f020f9fbfcf9d347f84576cfab7816000015182602001518360400151604051610f5393929190614082565b60405180910390a150508080610f68906140b9565b915050610d21565b5060006008600086815260200190815260200160002060006101000a81548173ffffffffffffffffffffffffffffffffffffffff021916908373ffffffffffffffffffffffffffffffffffffffff16021790555050505050565b60006002600083815260200190815260200160002090508060020160009054906101000a900473ffffffffffffffffffffffffffffffffffffffff1673ffffffffffffffffffffffffffffffffffffffff163373ffffffffffffffffffffffffffffffffffffffff1614611073576040517f08c379a000000000000000000000000000000000000000000000000000000000815260040161106a90614174565b60405180910390fd5b818160000154146110b9576040517f08c379a00000000000000000000000000000000000000000000000000000000081526004016110b0906141e0565b60405180910390fd5b600060028111156110cd576110cc613680565b5b8160040160009054906101000a900460ff1660028111156110f1576110f0613680565b5b14611131576040517f08c379a000000000000000000000000000000000000000000000000000000000815260040161112890614062565b60405180910390fd5b60028160040160006101000a81548160ff0219169083600281111561115957611158613680565b5b02179055508060030154600660008360020160009054906101000a900473ffffffffffffffffffffffffffffffffffffffff1673ffffffffffffffffffffffffffffffffffffffff1673ffffffffffffffffffffffffffffffffffffffff16815260200190815260200160002060008282546111d5919061352d565b925050819055507f5b166b4d0498ff8c4719999cb6154c5d197e6f020f9fbfcf9d347f84576cfab78282600101543360405161121393929190614082565b60405180910390a15050565b600080600960009054906101000a900473ffffffffffffffffffffffffffffffffffffffff1673ffffffffffffffffffffffffffffffffffffffff166370a08231846040518263ffffffff1660e01b815260040161127d919061389f565b602060405180830381865afa15801561129a573d6000803e3d6000fd5b505050506040513d601f19601f820116820180604052508101906112be9190614215565b905080915050919050565b600080600960009054906101000a900473ffffffffffffffffffffffffffffffffffffffff1673ffffffffffffffffffffffffffffffffffffffff16632f745c5985856040518363ffffffff1660e01b8152600401611329929190614242565b602060405180830381865afa158015611346573d6000803e3d6000fd5b505050506040513d601f19601f8201168201806040525081019061136a9190614215565b90508091505092915050565b60006007600083815260200190815260200160002060009054906101000a900460ff1690506002808111156113ae576113ad613680565b5b8160028111156113c1576113c0613680565b5b146113cb57600080fd5b600060056000848152602001908152602001600020549050803410156113f057600080fd5b60006008600085815260200190815260200160002060009054906101000a900473ffffffffffffffffffffffffffffffffffffffff16905034600660008373ffffffffffffffffffffffffffffffffffffffff1673ffffffffffffffffffffffffffffffffffffffff1681526020019081526020016000206000828254611477919061352d565b92505081905550600960009054906101000a900473ffffffffffffffffffffffffffffffffffffffff1673ffffffffffffffffffffffffffffffffffffffff166323b872dd3033876040518463ffffffff1660e01b81526004016114dd93929190613fb0565b600060405180830381600087803b1580156114f757600080fd5b505af115801561150b573d6000803e3d6000fd5b5050505060006003600086815260200190815260200160002080548060200260200160405190810160405280929190818152602001828054801561156e57602002820191906000526020600020905b81548152602001906001019080831161155a575b5050505050905060005b81518110156117c757600082828151811061159657611595613fe7565b5b602002602001015190506000600260008381526020019081526020016000206040518060a001604052908160008201548152602001600182015481526020016002820160009054906101000a900473ffffffffffffffffffffffffffffffffffffffff1673ffffffffffffffffffffffffffffffffffffffff1673ffffffffffffffffffffffffffffffffffffffff168152602001600382015481526020016004820160009054906101000a900460ff16600281111561165957611658613680565b5b600281111561166b5761166a613680565b5b8152505090506000600281111561168557611684613680565b5b8160800151600281111561169c5761169b613680565b5b146116dc576040517f08c379a00000000000000000000000000000000000000000000000000000000081526004016116d390614062565b60405180910390fd5b6002816080019060028111156116f5576116f4613680565b5b9081600281111561170957611708613680565b5b81525050806060015160066000836040015173ffffffffffffffffffffffffffffffffffffffff1673ffffffffffffffffffffffffffffffffffffffff1681526020019081526020016000206000828254611764919061352d565b925050819055507f5b166b4d0498ff8c4719999cb6154c5d197e6f020f9fbfcf9d347f84576cfab78160000151826020015183604001516040516117aa93929190614082565b60405180910390a1505080806117bf906140b9565b915050611578565b5060006008600087815260200190815260200160002060006101000a81548173ffffffffffffffffffffffffffffffffffffffff021916908373ffffffffffffffffffffffffffffffffffffffff1602179055505050505050565b8034600660003373ffffffffffffffffffffffffffffffffffffffff1673ffffffffffffffffffffffffffffffffffffffff1681526020019081526020016000205461186e919061352d565b10156118af576040517f08c379a00000000000000000000000000000000000000000000000000000000081526004016118a690613ab8565b60405180910390fd5b6000806004600085815260200190815260200160002054905060008111156119ab576000600260008381526020019081526020016000206040518060a001604052908160008201548152602001600182015481526020016002820160009054906101000a900473ffffffffffffffffffffffffffffffffffffffff1673ffffffffffffffffffffffffffffffffffffffff1673ffffffffffffffffffffffffffffffffffffffff168152602001600382015481526020016004820160009054906101000a900460ff16600281111561198a57611989613680565b5b600281111561199c5761199b613680565b5b81525050905080606001519250505b60006005600086815260200190815260200160002054905060006007600087815260200190815260200160002060009054906101000a900460ff169050600060028111156119fc576119fb613680565b5b816002811115611a0f57611a0e613680565b5b1415611a9e57838511611a57576040517f08c379a0000000000000000000000000000000000000000000000000000000008152600401611a4e90613b70565b60405180910390fd5b818511611a99576040517f08c379a0000000000000000000000000000000000000000000000000000000008152600401611a9090613c28565b60405180910390fd5b611bdb565b60016002811115611ab257611ab1613680565b5b816002811115611ac557611ac4613680565b5b1415611b5557838511611b0d576040517f08c379a0000000000000000000000000000000000000000000000000000000008152600401611b0490613d06565b60405180910390fd5b81851115611b50576040517f08c379a0000000000000000000000000000000000000000000000000000000008152600401611b4790613dbe565b60405180910390fd5b611bda565b838511611b97576040517f08c379a0000000000000000000000000000000000000000000000000000000008152600401611b8e90613e76565b60405180910390fd5b818510611bd9576040517f08c379a0000000000000000000000000000000000000000000000000000000008152600401611bd090613f2e565b60405180910390fd5b5b5b60008534600660003373ffffffffffffffffffffffffffffffffffffffff1673ffffffffffffffffffffffffffffffffffffffff16815260200190815260200160002054611c29919061352d565b611c33919061426b565b905080600660003373ffffffffffffffffffffffffffffffffffffffff1673ffffffffffffffffffffffffffffffffffffffff168152602001908152602001600020819055506000600360008981526020019081526020016000209050611c9a600161333e565b6000611ca66001613354565b905060006040518060a001604052808381526020018b81526020013373ffffffffffffffffffffffffffffffffffffffff1681526020018a815260200160006002811115611cf757611cf6613680565b5b81525090508060026000848152602001908152602001600020600082015181600001556020820151816001015560408201518160020160006101000a81548173ffffffffffffffffffffffffffffffffffffffff021916908373ffffffffffffffffffffffffffffffffffffffff1602179055506060820151816003015560808201518160040160006101000a81548160ff02191690836002811115611da057611d9f613680565b5b02179055509050508282908060018154018082558091505060019003906000526020600020016000909190919091505582600360008c8152602001908152602001600020908054611df292919061342e565b5081600460008c8152602001908152602001600020819055507f0f08f736bdcdf115ba3e0c936ae075a4df78ede609d99818acb853135ad26119828b338c6000604051611e43959493929190613f5d565b60405180910390a150505050505050505050565b611e5f613362565b73ffffffffffffffffffffffffffffffffffffffff16611e7d612304565b73ffffffffffffffffffffffffffffffffffffffff1614611ed3576040517f08c379a0000000000000000000000000000000000000000000000000000000008152600401611eca906142eb565b60405180910390fd5b611edd600061336a565b565b826000600960009054906101000a900473ffffffffffffffffffffffffffffffffffffffff1673ffffffffffffffffffffffffffffffffffffffff16636352211e836040518263ffffffff1660e01b8152600401611f3d91906137e2565b602060405180830381865afa158015611f5a573d6000803e3d6000fd5b505050506040513d601f19601f82011682018060405250810190611f7e9190614320565b90508073ffffffffffffffffffffffffffffffffffffffff163373ffffffffffffffffffffffffffffffffffffffff1614611fb857600080fd5b600960009054906101000a900473ffffffffffffffffffffffffffffffffffffffff1673ffffffffffffffffffffffffffffffffffffffff166323b872dd3330886040518463ffffffff1660e01b815260040161201793929190613fb0565b600060405180830381600087803b15801561203157600080fd5b505af1158015612045573d6000803e3d6000fd5b50505050336008600087815260200190815260200160002060006101000a81548173ffffffffffffffffffffffffffffffffffffffff021916908373ffffffffffffffffffffffffffffffffffffffff16021790555060008314156120e55760006007600087815260200190815260200160002060006101000a81548160ff021916908360028111156120db576120da613680565b5b021790555061216d565b600183141561212f5760016007600087815260200190815260200160002060006101000a81548160ff0219169083600281111561212557612124613680565b5b021790555061216c565b60026007600087815260200190815260200160002060006101000a81548160ff0219169083600281111561216657612165613680565b5b02179055505b5b8360056000878152602001908152602001600020819055505050505050565b8160006008600083815260200190815260200160002060009054906101000a900473ffffffffffffffffffffffffffffffffffffffff1690508073ffffffffffffffffffffffffffffffffffffffff163373ffffffffffffffffffffffffffffffffffffffff16146121fd57600080fd5b60006007600086815260200190815260200160002060009054906101000a900460ff1690506001600281111561223657612235613680565b5b81600281111561224957612248613680565b5b14612289576040517f08c379a0000000000000000000000000000000000000000000000000000000008152600401612280906143bf565b60405180910390fd5b600060056000878152602001908152602001600020549050808511156122e4576040517f08c379a00000000000000000000000000000000000000000000000000000000081526004016122db90614477565b60405180910390fd5b846005600088815260200190815260200160002081905550505050505050565b60008060009054906101000a900473ffffffffffffffffffffffffffffffffffffffff16905090565b60606000600960009054906101000a900473ffffffffffffffffffffffffffffffffffffffff1673ffffffffffffffffffffffffffffffffffffffff1663c87b56dd846040518263ffffffff1660e01b815260040161238c91906137e2565b600060405180830381865afa1580156123a9573d6000803e3d6000fd5b505050506040513d6000823e3d601f19601f820116820180604052508101906123d291906145bd565b905080915050919050565b6123e5613480565b6000600260008481526020019081526020016000206040518060a001604052908160008201548152602001600182015481526020016002820160009054906101000a900473ffffffffffffffffffffffffffffffffffffffff1673ffffffffffffffffffffffffffffffffffffffff1673ffffffffffffffffffffffffffffffffffffffff168152602001600382015481526020016004820160009054906101000a900460ff16600281111561249e5761249d613680565b5b60028111156124b0576124af613680565b5b81525050905080915050919050565b6000600660003373ffffffffffffffffffffffffffffffffffffffff1673ffffffffffffffffffffffffffffffffffffffff1681526020019081526020016000205411612541576040517f08c379a000000000000000000000000000000000000000000000000000000000815260040161253890614678565b60405180910390fd5b3373ffffffffffffffffffffffffffffffffffffffff166108fc600660003373ffffffffffffffffffffffffffffffffffffffff1673ffffffffffffffffffffffffffffffffffffffff168152602001908152602001600020549081150290604051600060405180830381858888f193505050501580156125c6573d6000803e3d6000fd5b506000600660003373ffffffffffffffffffffffffffffffffffffffff1673ffffffffffffffffffffffffffffffffffffffff168152602001908152602001600020819055507f4f0554190111f93f8c2ccef2cc41473f187d7f29ff5a5c308ca41f9dfe4e989a33600660003373ffffffffffffffffffffffffffffffffffffffff1673ffffffffffffffffffffffffffffffffffffffff1681526020019081526020016000205460405161267c929190614242565b60405180910390a1565b8060006008600083815260200190815260200160002060009054906101000a900473ffffffffffffffffffffffffffffffffffffffff1690508073ffffffffffffffffffffffffffffffffffffffff163373ffffffffffffffffffffffffffffffffffffffff16146126f757600080fd5b60006003600085815260200190815260200160002080548060200260200160405190810160405280929190818152602001828054801561275657602002820191906000526020600020905b815481526020019060010190808311612742575b5050505050905060005b81518110156129af57600082828151811061277e5761277d613fe7565b5b602002602001015190506000600260008381526020019081526020016000206040518060a001604052908160008201548152602001600182015481526020016002820160009054906101000a900473ffffffffffffffffffffffffffffffffffffffff1673ffffffffffffffffffffffffffffffffffffffff1673ffffffffffffffffffffffffffffffffffffffff168152602001600382015481526020016004820160009054906101000a900460ff16600281111561284157612840613680565b5b600281111561285357612852613680565b5b8152505090506000600281111561286d5761286c613680565b5b8160800151600281111561288457612883613680565b5b146128c4576040517f08c379a00000000000000000000000000000000000000000000000000000000081526004016128bb90614062565b60405180910390fd5b6002816080019060028111156128dd576128dc613680565b5b908160028111156128f1576128f0613680565b5b81525050806060015160066000836040015173ffffffffffffffffffffffffffffffffffffffff1673ffffffffffffffffffffffffffffffffffffffff168152602001908152602001600020600082825461294c919061352d565b925050819055507f5b166b4d0498ff8c4719999cb6154c5d197e6f020f9fbfcf9d347f84576cfab781600001518260200151836040015160405161299293929190614082565b60405180910390a1505080806129a7906140b9565b915050612760565b5050505050565b600080600660008473ffffffffffffffffffffffffffffffffffffffff1673ffffffffffffffffffffffffffffffffffffffff16815260200190815260200160002054905080915050919050565b8160006008600083815260200190815260200160002060009054906101000a900473ffffffffffffffffffffffffffffffffffffffff1690508073ffffffffffffffffffffffffffffffffffffffff163373ffffffffffffffffffffffffffffffffffffffff1614612a7557600080fd5b60006007600086815260200190815260200160002060009054906101000a900460ff169050600280811115612aad57612aac613680565b5b816002811115612ac057612abf613680565b5b14612aca57600080fd5b8360056000878152602001908152602001600020819055505050505050565b600080600960009054906101000a900473ffffffffffffffffffffffffffffffffffffffff1673ffffffffffffffffffffffffffffffffffffffff16636352211e846040518263ffffffff1660e01b8152600401612b4791906137e2565b602060405180830381865afa158015612b64573d6000803e3d6000fd5b505050506040513d601f19601f82011682018060405250810190612b889190614320565b905080915050919050565b6060600060036000848152602001908152602001600020805480602002602001604051908101604052809291908181526020018280548015612bf457602002820191906000526020600020905b815481526020019060010190808311612be0575b5050505050905080915050919050565b8060006008600083815260200190815260200160002060009054906101000a900473ffffffffffffffffffffffffffffffffffffffff1690508073ffffffffffffffffffffffffffffffffffffffff163373ffffffffffffffffffffffffffffffffffffffff1614612c7557600080fd5b600060026000868152602001908152602001600020905084816000015414612cd2576040517f08c379a0000000000000000000000000000000000000000000000000000000008152600401612cc9906141e0565b60405180910390fd5b60006002811115612ce657612ce5613680565b5b8160040160009054906101000a900460ff166002811115612d0a57612d09613680565b5b14612d4a576040517f08c379a0000000000000000000000000000000000000000000000000000000008152600401612d4190614062565b60405180910390fd5b600960009054906101000a900473ffffffffffffffffffffffffffffffffffffffff1673ffffffffffffffffffffffffffffffffffffffff166323b872dd308360020160009054906101000a900473ffffffffffffffffffffffffffffffffffffffff1684600101546040518463ffffffff1660e01b8152600401612dd193929190613fb0565b600060405180830381600087803b158015612deb57600080fd5b505af1158015612dff573d6000803e3d6000fd5b5050505060018160040160006101000a81548160ff02191690836002811115612e2b57612e2a613680565b5b021790555060006008600086815260200190815260200160002060009054906101000a900473ffffffffffffffffffffffffffffffffffffffff1690508160030154600660008373ffffffffffffffffffffffffffffffffffffffff1673ffffffffffffffffffffffffffffffffffffffff1681526020019081526020016000206000828254612ebb919061352d565b92505081905550600060036000878152602001908152602001600020805480602002602001604051908101604052809291908181526020018280548015612f2157602002820191906000526020600020905b815481526020019060010190808311612f0d575b5050505050905060005b8151811015613186576000828281518110612f4957612f48613fe7565b5b602002602001015190506000600260008381526020019081526020016000206040518060a001604052908160008201548152602001600182015481526020016002820160009054906101000a900473ffffffffffffffffffffffffffffffffffffffff1673ffffffffffffffffffffffffffffffffffffffff1673ffffffffffffffffffffffffffffffffffffffff168152602001600382015481526020016004820160009054906101000a900460ff16600281111561300c5761300b613680565b5b600281111561301e5761301d613680565b5b81525050905089816000015114613171576000600281111561304357613042613680565b5b8160800151600281111561305a57613059613680565b5b1461309a576040517f08c379a000000000000000000000000000000000000000000000000000000000815260040161309190614062565b60405180910390fd5b6002816080019060028111156130b3576130b2613680565b5b908160028111156130c7576130c6613680565b5b81525050806060015160066000836040015173ffffffffffffffffffffffffffffffffffffffff1673ffffffffffffffffffffffffffffffffffffffff1681526020019081526020016000206000828254613122919061352d565b925050819055507f5b166b4d0498ff8c4719999cb6154c5d197e6f020f9fbfcf9d347f84576cfab781600001518260200151836040015160405161316893929190614082565b60405180910390a15b5050808061317e906140b9565b915050612f2b565b5060006008600088815260200190815260200160002060006101000a81548173ffffffffffffffffffffffffffffffffffffffff021916908373ffffffffffffffffffffffffffffffffffffffff1602179055507fd9157c065213ada613694e84b1e27fe2efd62d85c6b82bd6c842a4999491e72a8784600101548560020160009054906101000a900473ffffffffffffffffffffffffffffffffffffffff1660405161323593929190614082565b60405180910390a150505050505050565b61324e613362565b73ffffffffffffffffffffffffffffffffffffffff1661326c612304565b73ffffffffffffffffffffffffffffffffffffffff16146132c2576040517f08c379a00000000000000000000000000000000000000000000000000000000081526004016132b9906142eb565b60405180910390fd5b600073ffffffffffffffffffffffffffffffffffffffff168173ffffffffffffffffffffffffffffffffffffffff161415613332576040517f08c379a00000000000000000000000000000000000000000000000000000000081526004016133299061470a565b60405180910390fd5b61333b8161336a565b50565b6001816000016000828254019250508190555050565b600081600001549050919050565b600033905090565b60008060009054906101000a900473ffffffffffffffffffffffffffffffffffffffff169050816000806101000a81548173ffffffffffffffffffffffffffffffffffffffff021916908373ffffffffffffffffffffffffffffffffffffffff1602179055508173ffffffffffffffffffffffffffffffffffffffff168173ffffffffffffffffffffffffffffffffffffffff167f8be0079c531659141344cd1fd0a4f28419497f9722a3daafe3b4186f6b6457e060405160405180910390a35050565b82805482825590600052602060002090810192821561346f5760005260206000209182015b8281111561346e578254825591600101919060010190613453565b5b50905061347c91906134d7565b5090565b6040518060a001604052806000815260200160008152602001600073ffffffffffffffffffffffffffffffffffffffff16815260200160008152602001600060028111156134d1576134d0613680565b5b81525090565b5b808211156134f05760008160009055506001016134d8565b5090565b6000819050919050565b7f4e487b7100000000000000000000000000000000000000000000000000000000600052601160045260246000fd5b6000613538826134f4565b9150613543836134f4565b9250827fffffffffffffffffffffffffffffffffffffffffffffffffffffffffffffffff03821115613578576135776134fe565b5b828201905092915050565b6000604051905090565b600080fd5b600080fd5b6135a0816134f4565b81146135ab57600080fd5b50565b6000813590506135bd81613597565b92915050565b600080604083850312156135da576135d961358d565b5b60006135e8858286016135ae565b92505060206135f9858286016135ae565b9150509250929050565b6000602082840312156136195761361861358d565b5b6000613627848285016135ae565b91505092915050565b613639816134f4565b82525050565b600073ffffffffffffffffffffffffffffffffffffffff82169050919050565b600061366a8261363f565b9050919050565b61367a8161365f565b82525050565b7f4e487b7100000000000000000000000000000000000000000000000000000000600052602160045260246000fd5b600381106136c0576136bf613680565b5b50565b60008190506136d1826136af565b919050565b60006136e1826136c3565b9050919050565b6136f1816136d6565b82525050565b60a08201600082015161370d6000850182613630565b5060208201516137206020850182613630565b5060408201516137336040850182613671565b5060608201516137466060850182613630565b50608082015161375960808501826136e8565b50505050565b600060a08201905061377460008301846136f7565b92915050565b6137838161365f565b811461378e57600080fd5b50565b6000813590506137a08161377a565b92915050565b6000602082840312156137bc576137bb61358d565b5b60006137ca84828501613791565b91505092915050565b6137dc816134f4565b82525050565b60006020820190506137f760008301846137d3565b92915050565b600080604083850312156138145761381361358d565b5b600061382285828601613791565b9250506020613833858286016135ae565b9150509250929050565b6000806000606084860312156138565761385561358d565b5b6000613864868287016135ae565b9350506020613875868287016135ae565b9250506040613886868287016135ae565b9150509250925092565b6138998161365f565b82525050565b60006020820190506138b46000830184613890565b92915050565b600081519050919050565b600082825260208201905092915050565b60005b838110156138f45780820151818401526020810190506138d9565b83811115613903576000848401525b50505050565b6000601f19601f8301169050919050565b6000613925826138ba565b61392f81856138c5565b935061393f8185602086016138d6565b61394881613909565b840191505092915050565b6000602082019050818103600083015261396d818461391a565b905092915050565b600081519050919050565b600082825260208201905092915050565b6000819050602082019050919050565b60006139ad8383613630565b60208301905092915050565b6000602082019050919050565b60006139d182613975565b6139db8185613980565b93506139e683613991565b8060005b83811015613a175781516139fe88826139a1565b9750613a09836139b9565b9250506001810190506139ea565b5085935050505092915050565b60006020820190508181036000830152613a3e81846139c6565b905092915050565b7f5468652045544820616d6f756e742073686f756c64206d61746368207769746860008201527f20746865206f6666657220507269636500000000000000000000000000000000602082015250565b6000613aa26030836138c5565b9150613aad82613a46565b604082019050919050565b60006020820190508181036000830152613ad181613a95565b9050919050565b7f546865206e65772070726963652073686f756c64206265206c6172676765722060008201527f7468616e2063757272656e742062657374206f6666657220707269636520666f60208201527f722041756374696f6e73547970652e456e676c616e6400000000000000000000604082015250565b6000613b5a6056836138c5565b9150613b6582613ad8565b606082019050919050565b60006020820190508181036000830152613b8981613b4d565b9050919050565b7f546865206e65772070726963652073686f756c64206265206c6172676765722060008201527f7468616e20737461727420707269636520666f722041756374696f6e7354797060208201527f652e456e676c616e640000000000000000000000000000000000000000000000604082015250565b6000613c126049836138c5565b9150613c1d82613b90565b606082019050919050565b60006020820190508181036000830152613c4181613c05565b9050919050565b7f546865206e65772070726963652073686f756c64206265206c6573736572207460008201527f68616e2f657175616c20746f2063757272656e742062657374206f666665722060208201527f707269636520666f722041756374696f6e73547970652e4e65746865726c616e60408201527f6473000000000000000000000000000000000000000000000000000000000000606082015250565b6000613cf06062836138c5565b9150613cfb82613c48565b608082019050919050565b60006020820190508181036000830152613d1f81613ce3565b9050919050565b7f546865206e65772070726963652073686f756c64206265206c65737365722f6560008201527f7175616c207468616e20737461727420707269636520666f722041756374696f60208201527f6e73547970652e4e65746865726c616e64730000000000000000000000000000604082015250565b6000613da86052836138c5565b9150613db382613d26565b606082019050919050565b60006020820190508181036000830152613dd781613d9b565b9050919050565b7f546865206e65772070726963652073686f756c64206265206c6172676765722060008201527f7468616e2063757272656e742062657374206f6666657220707269636520666f60208201527f722041756374696f6e73547970652e53696d706c650000000000000000000000604082015250565b6000613e606055836138c5565b9150613e6b82613dde565b606082019050919050565b60006020820190508181036000830152613e8f81613e53565b9050919050565b7f546865206e65772070726963652073686f756c64206265206c6573736572207460008201527f68616e20737461727420707269636520666f722041756374696f6e735479706560208201527f2e53696d706c6500000000000000000000000000000000000000000000000000604082015250565b6000613f186047836138c5565b9150613f2382613e96565b606082019050919050565b60006020820190508181036000830152613f4781613f0b565b9050919050565b613f57816136d6565b82525050565b600060a082019050613f7260008301886137d3565b613f7f60208301876137d3565b613f8c6040830186613890565b613f9960608301856137d3565b613fa66080830184613f4e565b9695505050505050565b6000606082019050613fc56000830186613890565b613fd26020830185613890565b613fdf60408301846137d3565b949350505050565b7f4e487b7100000000000000000000000000000000000000000000000000000000600052603260045260246000fd5b7f4f66666572207374617475732073686f756c6420626520617661696c61626c65600082015250565b600061404c6020836138c5565b915061405782614016565b602082019050919050565b6000602082019050818103600083015261407b8161403f565b9050919050565b600060608201905061409760008301866137d3565b6140a460208301856137d3565b6140b16040830184613890565b949350505050565b60006140c4826134f4565b91507fffffffffffffffffffffffffffffffffffffffffffffffffffffffffffffffff8214156140f7576140f66134fe565b5b600182019050919050565b7f6d73672e73656e6465722073686f756c64206265206f776e6572206f6620746860008201527f6973206f66666572000000000000000000000000000000000000000000000000602082015250565b600061415e6028836138c5565b915061416982614102565b604082019050919050565b6000602082019050818103600083015261418d81614151565b9050919050565b7f546865206f66666572206d757374206578697374000000000000000000000000600082015250565b60006141ca6014836138c5565b91506141d582614194565b602082019050919050565b600060208201905081810360008301526141f9816141bd565b9050919050565b60008151905061420f81613597565b92915050565b60006020828403121561422b5761422a61358d565b5b600061423984828501614200565b91505092915050565b60006040820190506142576000830185613890565b61426460208301846137d3565b9392505050565b6000614276826134f4565b9150614281836134f4565b925082821015614294576142936134fe565b5b828203905092915050565b7f4f776e61626c653a2063616c6c6572206973206e6f7420746865206f776e6572600082015250565b60006142d56020836138c5565b91506142e08261429f565b602082019050919050565b60006020820190508181036000830152614304816142c8565b9050919050565b60008151905061431a8161377a565b92915050565b6000602082840312156143365761433561358d565b5b60006143448482850161430b565b91505092915050565b7f41756374696f6e73547970652073686f756c64206265204e65746865726c616e60008201527f6473000000000000000000000000000000000000000000000000000000000000602082015250565b60006143a96022836138c5565b91506143b48261434d565b604082019050919050565b600060208201905081810360008301526143d88161439c565b9050919050565b7f546865206e65772070726963652073686f756c64206265206c6573736572207460008201527f68616e2063757272656e74206265737420707269636520676976656e2062792060208201527f6f776e6572206f66206e66740000000000000000000000000000000000000000604082015250565b6000614461604c836138c5565b915061446c826143df565b606082019050919050565b6000602082019050818103600083015261449081614454565b9050919050565b600080fd5b600080fd5b7f4e487b7100000000000000000000000000000000000000000000000000000000600052604160045260246000fd5b6144d982613909565b810181811067ffffffffffffffff821117156144f8576144f76144a1565b5b80604052505050565b600061450b613583565b905061451782826144d0565b919050565b600067ffffffffffffffff821115614537576145366144a1565b5b61454082613909565b9050602081019050919050565b600061456061455b8461451c565b614501565b90508281526020810184848401111561457c5761457b61449c565b5b6145878482856138d6565b509392505050565b600082601f8301126145a4576145a3614497565b5b81516145b484826020860161454d565b91505092915050565b6000602082840312156145d3576145d261358d565b5b600082015167ffffffffffffffff8111156145f1576145f0613592565b5b6145fd8482850161458f565b91505092915050565b7f54686973207573657220686173206e6f2066756e647320746f20626520636c6160008201527f696d656400000000000000000000000000000000000000000000000000000000602082015250565b60006146626024836138c5565b915061466d82614606565b604082019050919050565b6000602082019050818103600083015261469181614655565b9050919050565b7f4f776e61626c653a206e6577206f776e657220697320746865207a65726f206160008201527f6464726573730000000000000000000000000000000000000000000000000000602082015250565b60006146f46026836138c5565b91506146ff82614698565b604082019050919050565b60006020820190508181036000830152614723816146e7565b905091905056fea264697066735822122036547ac229ce5ac774cf2fc943aa086d742805418ce229ff8f0f61974d58b0b164736f6c634300080c0033",
			"opcodes": "PUSH1 0x80 PUSH1 0x40 MSTORE PUSH1 0x40 MLOAD PUSH3 0x4969 CODESIZE SUB DUP1 PUSH3 0x4969 DUP4 CODECOPY DUP2 DUP2 ADD PUSH1 0x40 MSTORE DUP2 ADD SWAP1 PUSH3 0x29 SWAP2 SWAP1 PUSH3 0x1C7 JUMP JUMPDEST PUSH3 0x49 PUSH3 0x3D PUSH3 0x91 PUSH1 0x20 SHL PUSH1 0x20 SHR JUMP JUMPDEST PUSH3 0x99 PUSH1 0x20 SHL PUSH1 0x20 SHR JUMP JUMPDEST DUP1 PUSH1 0x9 PUSH1 0x0 PUSH2 0x100 EXP DUP2 SLOAD DUP2 PUSH20 0xFFFFFFFFFFFFFFFFFFFFFFFFFFFFFFFFFFFFFFFF MUL NOT AND SWAP1 DUP4 PUSH20 0xFFFFFFFFFFFFFFFFFFFFFFFFFFFFFFFFFFFFFFFF AND MUL OR SWAP1 SSTORE POP POP PUSH3 0x1F9 JUMP JUMPDEST PUSH1 0x0 CALLER SWAP1 POP SWAP1 JUMP JUMPDEST PUSH1 0x0 DUP1 PUSH1 0x0 SWAP1 SLOAD SWAP1 PUSH2 0x100 EXP SWAP1 DIV PUSH20 0xFFFFFFFFFFFFFFFFFFFFFFFFFFFFFFFFFFFFFFFF AND SWAP1 POP DUP2 PUSH1 0x0 DUP1 PUSH2 0x100 EXP DUP2 SLOAD DUP2 PUSH20 0xFFFFFFFFFFFFFFFFFFFFFFFFFFFFFFFFFFFFFFFF MUL NOT AND SWAP1 DUP4 PUSH20 0xFFFFFFFFFFFFFFFFFFFFFFFFFFFFFFFFFFFFFFFF AND MUL OR SWAP1 SSTORE POP DUP2 PUSH20 0xFFFFFFFFFFFFFFFFFFFFFFFFFFFFFFFFFFFFFFFF AND DUP2 PUSH20 0xFFFFFFFFFFFFFFFFFFFFFFFFFFFFFFFFFFFFFFFF AND PUSH32 0x8BE0079C531659141344CD1FD0A4F28419497F9722A3DAAFE3B4186F6B6457E0 PUSH1 0x40 MLOAD PUSH1 0x40 MLOAD DUP1 SWAP2 SUB SWAP1 LOG3 POP POP JUMP JUMPDEST PUSH1 0x0 DUP1 REVERT JUMPDEST PUSH1 0x0 PUSH20 0xFFFFFFFFFFFFFFFFFFFFFFFFFFFFFFFFFFFFFFFF DUP3 AND SWAP1 POP SWAP2 SWAP1 POP JUMP JUMPDEST PUSH1 0x0 PUSH3 0x18F DUP3 PUSH3 0x162 JUMP JUMPDEST SWAP1 POP SWAP2 SWAP1 POP JUMP JUMPDEST PUSH3 0x1A1 DUP2 PUSH3 0x182 JUMP JUMPDEST DUP2 EQ PUSH3 0x1AD JUMPI PUSH1 0x0 DUP1 REVERT JUMPDEST POP JUMP JUMPDEST PUSH1 0x0 DUP2 MLOAD SWAP1 POP PUSH3 0x1C1 DUP2 PUSH3 0x196 JUMP JUMPDEST SWAP3 SWAP2 POP POP JUMP JUMPDEST PUSH1 0x0 PUSH1 0x20 DUP3 DUP5 SUB SLT ISZERO PUSH3 0x1E0 JUMPI PUSH3 0x1DF PUSH3 0x15D JUMP JUMPDEST JUMPDEST PUSH1 0x0 PUSH3 0x1F0 DUP5 DUP3 DUP6 ADD PUSH3 0x1B0 JUMP JUMPDEST SWAP2 POP POP SWAP3 SWAP2 POP POP JUMP JUMPDEST PUSH2 0x4760 DUP1 PUSH3 0x209 PUSH1 0x0 CODECOPY PUSH1 0x0 RETURN INVALID PUSH1 0x80 PUSH1 0x40 MSTORE PUSH1 0x4 CALLDATASIZE LT PUSH2 0x139 JUMPI PUSH1 0x0 CALLDATALOAD PUSH1 0xE0 SHR DUP1 PUSH4 0x8DA5CB5B GT PUSH2 0xAB JUMPI DUP1 PUSH4 0xC41559BB GT PUSH2 0x6F JUMPI DUP1 PUSH4 0xC41559BB EQ PUSH2 0x443 JUMPI DUP1 PUSH4 0xC7140E4E EQ PUSH2 0x480 JUMPI DUP1 PUSH4 0xCDC1D792 EQ PUSH2 0x4A9 JUMPI DUP1 PUSH4 0xE80BDAEB EQ PUSH2 0x4E6 JUMPI DUP1 PUSH4 0xEC3F91EF EQ PUSH2 0x523 JUMPI DUP1 PUSH4 0xF2FDE38B EQ PUSH2 0x54C JUMPI PUSH2 0x196 JUMP JUMPDEST DUP1 PUSH4 0x8DA5CB5B EQ PUSH2 0x35E JUMPI DUP1 PUSH4 0x95B6F7A3 EQ PUSH2 0x389 JUMPI DUP1 PUSH4 0x9A20CC81 EQ PUSH2 0x3C6 JUMPI DUP1 PUSH4 0xAC307773 EQ PUSH2 0x403 JUMPI DUP1 PUSH4 0xB8F1EB6C EQ PUSH2 0x41A JUMPI PUSH2 0x196 JUMP JUMPDEST DUP1 PUSH4 0x2F745C59 GT PUSH2 0xFD JUMPI DUP1 PUSH4 0x2F745C59 EQ PUSH2 0x280 JUMPI DUP1 PUSH4 0x46F41B9D EQ PUSH2 0x2BD JUMPI DUP1 PUSH4 0x4F4A1FF0 EQ PUSH2 0x2D9 JUMPI DUP1 PUSH4 0x715018A6 EQ PUSH2 0x2F5 JUMPI DUP1 PUSH4 0x7DF4A636 EQ PUSH2 0x30C JUMPI DUP1 PUSH4 0x8A6D2692 EQ PUSH2 0x335 JUMPI PUSH2 0x196 JUMP JUMPDEST DUP1 PUSH4 0x5B7CDD3 EQ PUSH2 0x198 JUMPI DUP1 PUSH4 0xAC2D17B EQ PUSH2 0x1B4 JUMPI DUP1 PUSH4 0x1619B920 EQ PUSH2 0x1F1 JUMPI DUP1 PUSH4 0x2852CC47 EQ PUSH2 0x21A JUMPI DUP1 PUSH4 0x2C86C8A5 EQ PUSH2 0x243 JUMPI PUSH2 0x196 JUMP JUMPDEST CALLDATASIZE PUSH2 0x196 JUMPI CALLVALUE PUSH1 0x6 PUSH1 0x0 CALLER PUSH20 0xFFFFFFFFFFFFFFFFFFFFFFFFFFFFFFFFFFFFFFFF AND PUSH20 0xFFFFFFFFFFFFFFFFFFFFFFFFFFFFFFFFFFFFFFFF AND DUP2 MSTORE PUSH1 0x20 ADD SWAP1 DUP2 MSTORE PUSH1 0x20 ADD PUSH1 0x0 KECCAK256 PUSH1 0x0 DUP3 DUP3 SLOAD PUSH2 0x18D SWAP2 SWAP1 PUSH2 0x352D JUMP JUMPDEST SWAP3 POP POP DUP2 SWAP1 SSTORE POP STOP JUMPDEST STOP JUMPDEST PUSH2 0x1B2 PUSH1 0x4 DUP1 CALLDATASIZE SUB DUP2 ADD SWAP1 PUSH2 0x1AD SWAP2 SWAP1 PUSH2 0x35C3 JUMP JUMPDEST PUSH2 0x575 JUMP JUMPDEST STOP JUMPDEST CALLVALUE DUP1 ISZERO PUSH2 0x1C0 JUMPI PUSH1 0x0 DUP1 REVERT JUMPDEST POP PUSH2 0x1DB PUSH1 0x4 DUP1 CALLDATASIZE SUB DUP2 ADD SWAP1 PUSH2 0x1D6 SWAP2 SWAP1 PUSH2 0x3603 JUMP JUMPDEST PUSH2 0xAC1 JUMP JUMPDEST PUSH1 0x40 MLOAD PUSH2 0x1E8 SWAP2 SWAP1 PUSH2 0x375F JUMP JUMPDEST PUSH1 0x40 MLOAD DUP1 SWAP2 SUB SWAP1 RETURN JUMPDEST CALLVALUE DUP1 ISZERO PUSH2 0x1FD JUMPI PUSH1 0x0 DUP1 REVERT JUMPDEST POP PUSH2 0x218 PUSH1 0x4 DUP1 CALLDATASIZE SUB DUP2 ADD SWAP1 PUSH2 0x213 SWAP2 SWAP1 PUSH2 0x3603 JUMP JUMPDEST PUSH2 0xBB6 JUMP JUMPDEST STOP JUMPDEST CALLVALUE DUP1 ISZERO PUSH2 0x226 JUMPI PUSH1 0x0 DUP1 REVERT JUMPDEST POP PUSH2 0x241 PUSH1 0x4 DUP1 CALLDATASIZE SUB DUP2 ADD SWAP1 PUSH2 0x23C SWAP2 SWAP1 PUSH2 0x3603 JUMP JUMPDEST PUSH2 0xFCA JUMP JUMPDEST STOP JUMPDEST CALLVALUE DUP1 ISZERO PUSH2 0x24F JUMPI PUSH1 0x0 DUP1 REVERT JUMPDEST POP PUSH2 0x26A PUSH1 0x4 DUP1 CALLDATASIZE SUB DUP2 ADD SWAP1 PUSH2 0x265 SWAP2 SWAP1 PUSH2 0x37A6 JUMP JUMPDEST PUSH2 0x121F JUMP JUMPDEST PUSH1 0x40 MLOAD PUSH2 0x277 SWAP2 SWAP1 PUSH2 0x37E2 JUMP JUMPDEST PUSH1 0x40 MLOAD DUP1 SWAP2 SUB SWAP1 RETURN JUMPDEST CALLVALUE DUP1 ISZERO PUSH2 0x28C JUMPI PUSH1 0x0 DUP1 REVERT JUMPDEST POP PUSH2 0x2A7 PUSH1 0x4 DUP1 CALLDATASIZE SUB DUP2 ADD SWAP1 PUSH2 0x2A2 SWAP2 SWAP1 PUSH2 0x37FD JUMP JUMPDEST PUSH2 0x12C9 JUMP JUMPDEST PUSH1 0x40 MLOAD PUSH2 0x2B4 SWAP2 SWAP1 PUSH2 0x37E2 JUMP JUMPDEST PUSH1 0x40 MLOAD DUP1 SWAP2 SUB SWAP1 RETURN JUMPDEST PUSH2 0x2D7 PUSH1 0x4 DUP1 CALLDATASIZE SUB DUP2 ADD SWAP1 PUSH2 0x2D2 SWAP2 SWAP1 PUSH2 0x3603 JUMP JUMPDEST PUSH2 0x1376 JUMP JUMPDEST STOP JUMPDEST PUSH2 0x2F3 PUSH1 0x4 DUP1 CALLDATASIZE SUB DUP2 ADD SWAP1 PUSH2 0x2EE SWAP2 SWAP1 PUSH2 0x35C3 JUMP JUMPDEST PUSH2 0x1822 JUMP JUMPDEST STOP JUMPDEST CALLVALUE DUP1 ISZERO PUSH2 0x301 JUMPI PUSH1 0x0 DUP1 REVERT JUMPDEST POP PUSH2 0x30A PUSH2 0x1E57 JUMP JUMPDEST STOP JUMPDEST CALLVALUE DUP1 ISZERO PUSH2 0x318 JUMPI PUSH1 0x0 DUP1 REVERT JUMPDEST POP PUSH2 0x333 PUSH1 0x4 DUP1 CALLDATASIZE SUB DUP2 ADD SWAP1 PUSH2 0x32E SWAP2 SWAP1 PUSH2 0x383D JUMP JUMPDEST PUSH2 0x1EDF JUMP JUMPDEST STOP JUMPDEST CALLVALUE DUP1 ISZERO PUSH2 0x341 JUMPI PUSH1 0x0 DUP1 REVERT JUMPDEST POP PUSH2 0x35C PUSH1 0x4 DUP1 CALLDATASIZE SUB DUP2 ADD SWAP1 PUSH2 0x357 SWAP2 SWAP1 PUSH2 0x35C3 JUMP JUMPDEST PUSH2 0x218C JUMP JUMPDEST STOP JUMPDEST CALLVALUE DUP1 ISZERO PUSH2 0x36A JUMPI PUSH1 0x0 DUP1 REVERT JUMPDEST POP PUSH2 0x373 PUSH2 0x2304 JUMP JUMPDEST PUSH1 0x40 MLOAD PUSH2 0x380 SWAP2 SWAP1 PUSH2 0x389F JUMP JUMPDEST PUSH1 0x40 MLOAD DUP1 SWAP2 SUB SWAP1 RETURN JUMPDEST CALLVALUE DUP1 ISZERO PUSH2 0x395 JUMPI PUSH1 0x0 DUP1 REVERT JUMPDEST POP PUSH2 0x3B0 PUSH1 0x4 DUP1 CALLDATASIZE SUB DUP2 ADD SWAP1 PUSH2 0x3AB SWAP2 SWAP1 PUSH2 0x3603 JUMP JUMPDEST PUSH2 0x232D JUMP JUMPDEST PUSH1 0x40 MLOAD PUSH2 0x3BD SWAP2 SWAP1 PUSH2 0x3953 JUMP JUMPDEST PUSH1 0x40 MLOAD DUP1 SWAP2 SUB SWAP1 RETURN JUMPDEST CALLVALUE DUP1 ISZERO PUSH2 0x3D2 JUMPI PUSH1 0x0 DUP1 REVERT JUMPDEST POP PUSH2 0x3ED PUSH1 0x4 DUP1 CALLDATASIZE SUB DUP2 ADD SWAP1 PUSH2 0x3E8 SWAP2 SWAP1 PUSH2 0x3603 JUMP JUMPDEST PUSH2 0x23DD JUMP JUMPDEST PUSH1 0x40 MLOAD PUSH2 0x3FA SWAP2 SWAP1 PUSH2 0x375F JUMP JUMPDEST PUSH1 0x40 MLOAD DUP1 SWAP2 SUB SWAP1 RETURN JUMPDEST CALLVALUE DUP1 ISZERO PUSH2 0x40F JUMPI PUSH1 0x0 DUP1 REVERT JUMPDEST POP PUSH2 0x418 PUSH2 0x24BF JUMP JUMPDEST STOP JUMPDEST CALLVALUE DUP1 ISZERO PUSH2 0x426 JUMPI PUSH1 0x0 DUP1 REVERT JUMPDEST POP PUSH2 0x441 PUSH1 0x4 DUP1 CALLDATASIZE SUB DUP2 ADD SWAP1 PUSH2 0x43C SWAP2 SWAP1 PUSH2 0x3603 JUMP JUMPDEST PUSH2 0x2686 JUMP JUMPDEST STOP JUMPDEST CALLVALUE DUP1 ISZERO PUSH2 0x44F JUMPI PUSH1 0x0 DUP1 REVERT JUMPDEST POP PUSH2 0x46A PUSH1 0x4 DUP1 CALLDATASIZE SUB DUP2 ADD SWAP1 PUSH2 0x465 SWAP2 SWAP1 PUSH2 0x37A6 JUMP JUMPDEST PUSH2 0x29B6 JUMP JUMPDEST PUSH1 0x40 MLOAD PUSH2 0x477 SWAP2 SWAP1 PUSH2 0x37E2 JUMP JUMPDEST PUSH1 0x40 MLOAD DUP1 SWAP2 SUB SWAP1 RETURN JUMPDEST CALLVALUE DUP1 ISZERO PUSH2 0x48C JUMPI PUSH1 0x0 DUP1 REVERT JUMPDEST POP PUSH2 0x4A7 PUSH1 0x4 DUP1 CALLDATASIZE SUB DUP2 ADD SWAP1 PUSH2 0x4A2 SWAP2 SWAP1 PUSH2 0x35C3 JUMP JUMPDEST PUSH2 0x2A04 JUMP JUMPDEST STOP JUMPDEST CALLVALUE DUP1 ISZERO PUSH2 0x4B5 JUMPI PUSH1 0x0 DUP1 REVERT JUMPDEST POP PUSH2 0x4D0 PUSH1 0x4 DUP1 CALLDATASIZE SUB DUP2 ADD SWAP1 PUSH2 0x4CB SWAP2 SWAP1 PUSH2 0x3603 JUMP JUMPDEST PUSH2 0x2AE9 JUMP JUMPDEST PUSH1 0x40 MLOAD PUSH2 0x4DD SWAP2 SWAP1 PUSH2 0x389F JUMP JUMPDEST PUSH1 0x40 MLOAD DUP1 SWAP2 SUB SWAP1 RETURN JUMPDEST CALLVALUE DUP1 ISZERO PUSH2 0x4F2 JUMPI PUSH1 0x0 DUP1 REVERT JUMPDEST POP PUSH2 0x50D PUSH1 0x4 DUP1 CALLDATASIZE SUB DUP2 ADD SWAP1 PUSH2 0x508 SWAP2 SWAP1 PUSH2 0x3603 JUMP JUMPDEST PUSH2 0x2B93 JUMP JUMPDEST PUSH1 0x40 MLOAD PUSH2 0x51A SWAP2 SWAP1 PUSH2 0x3A24 JUMP JUMPDEST PUSH1 0x40 MLOAD DUP1 SWAP2 SUB SWAP1 RETURN JUMPDEST CALLVALUE DUP1 ISZERO PUSH2 0x52F JUMPI PUSH1 0x0 DUP1 REVERT JUMPDEST POP PUSH2 0x54A PUSH1 0x4 DUP1 CALLDATASIZE SUB DUP2 ADD SWAP1 PUSH2 0x545 SWAP2 SWAP1 PUSH2 0x35C3 JUMP JUMPDEST PUSH2 0x2C04 JUMP JUMPDEST STOP JUMPDEST CALLVALUE DUP1 ISZERO PUSH2 0x558 JUMPI PUSH1 0x0 DUP1 REVERT JUMPDEST POP PUSH2 0x573 PUSH1 0x4 DUP1 CALLDATASIZE SUB DUP2 ADD SWAP1 PUSH2 0x56E SWAP2 SWAP1 PUSH2 0x37A6 JUMP JUMPDEST PUSH2 0x3246 JUMP JUMPDEST STOP JUMPDEST DUP1 CALLVALUE LT ISZERO PUSH2 0x5B8 JUMPI PUSH1 0x40 MLOAD PUSH32 0x8C379A000000000000000000000000000000000000000000000000000000000 DUP2 MSTORE PUSH1 0x4 ADD PUSH2 0x5AF SWAP1 PUSH2 0x3AB8 JUMP JUMPDEST PUSH1 0x40 MLOAD DUP1 SWAP2 SUB SWAP1 REVERT JUMPDEST PUSH1 0x0 DUP1 PUSH1 0x4 PUSH1 0x0 DUP6 DUP2 MSTORE PUSH1 0x20 ADD SWAP1 DUP2 MSTORE PUSH1 0x20 ADD PUSH1 0x0 KECCAK256 SLOAD SWAP1 POP PUSH1 0x0 DUP2 GT ISZERO PUSH2 0x6B4 JUMPI PUSH1 0x0 PUSH1 0x2 PUSH1 0x0 DUP4 DUP2 MSTORE PUSH1 0x20 ADD SWAP1 DUP2 MSTORE PUSH1 0x20 ADD PUSH1 0x0 KECCAK256 PUSH1 0x40 MLOAD DUP1 PUSH1 0xA0 ADD PUSH1 0x40 MSTORE SWAP1 DUP2 PUSH1 0x0 DUP3 ADD SLOAD DUP2 MSTORE PUSH1 0x20 ADD PUSH1 0x1 DUP3 ADD SLOAD DUP2 MSTORE PUSH1 0x20 ADD PUSH1 0x2 DUP3 ADD PUSH1 0x0 SWAP1 SLOAD SWAP1 PUSH2 0x100 EXP SWAP1 DIV PUSH20 0xFFFFFFFFFFFFFFFFFFFFFFFFFFFFFFFFFFFFFFFF AND PUSH20 0xFFFFFFFFFFFFFFFFFFFFFFFFFFFFFFFFFFFFFFFF AND PUSH20 0xFFFFFFFFFFFFFFFFFFFFFFFFFFFFFFFFFFFFFFFF AND DUP2 MSTORE PUSH1 0x20 ADD PUSH1 0x3 DUP3 ADD SLOAD DUP2 MSTORE PUSH1 0x20 ADD PUSH1 0x4 DUP3 ADD PUSH1 0x0 SWAP1 SLOAD SWAP1 PUSH2 0x100 EXP SWAP1 DIV PUSH1 0xFF AND PUSH1 0x2 DUP2 GT ISZERO PUSH2 0x693 JUMPI PUSH2 0x692 PUSH2 0x3680 JUMP JUMPDEST JUMPDEST PUSH1 0x2 DUP2 GT ISZERO PUSH2 0x6A5 JUMPI PUSH2 0x6A4 PUSH2 0x3680 JUMP JUMPDEST JUMPDEST DUP2 MSTORE POP POP SWAP1 POP DUP1 PUSH1 0x60 ADD MLOAD SWAP3 POP POP JUMPDEST PUSH1 0x0 PUSH1 0x5 PUSH1 0x0 DUP7 DUP2 MSTORE PUSH1 0x20 ADD SWAP1 DUP2 MSTORE PUSH1 0x20 ADD PUSH1 0x0 KECCAK256 SLOAD SWAP1 POP PUSH1 0x0 PUSH1 0x7 PUSH1 0x0 DUP8 DUP2 MSTORE PUSH1 0x20 ADD SWAP1 DUP2 MSTORE PUSH1 0x20 ADD PUSH1 0x0 KECCAK256 PUSH1 0x0 SWAP1 SLOAD SWAP1 PUSH2 0x100 EXP SWAP1 DIV PUSH1 0xFF AND SWAP1 POP PUSH1 0x0 PUSH1 0x2 DUP2 GT ISZERO PUSH2 0x705 JUMPI PUSH2 0x704 PUSH2 0x3680 JUMP JUMPDEST JUMPDEST DUP2 PUSH1 0x2 DUP2 GT ISZERO PUSH2 0x718 JUMPI PUSH2 0x717 PUSH2 0x3680 JUMP JUMPDEST JUMPDEST EQ ISZERO PUSH2 0x7A7 JUMPI DUP4 DUP6 GT PUSH2 0x760 JUMPI PUSH1 0x40 MLOAD PUSH32 0x8C379A000000000000000000000000000000000000000000000000000000000 DUP2 MSTORE PUSH1 0x4 ADD PUSH2 0x757 SWAP1 PUSH2 0x3B70 JUMP JUMPDEST PUSH1 0x40 MLOAD DUP1 SWAP2 SUB SWAP1 REVERT JUMPDEST DUP2 DUP6 GT PUSH2 0x7A2 JUMPI PUSH1 0x40 MLOAD PUSH32 0x8C379A000000000000000000000000000000000000000000000000000000000 DUP2 MSTORE PUSH1 0x4 ADD PUSH2 0x799 SWAP1 PUSH2 0x3C28 JUMP JUMPDEST PUSH1 0x40 MLOAD DUP1 SWAP2 SUB SWAP1 REVERT JUMPDEST PUSH2 0x8E4 JUMP JUMPDEST PUSH1 0x1 PUSH1 0x2 DUP2 GT ISZERO PUSH2 0x7BB JUMPI PUSH2 0x7BA PUSH2 0x3680 JUMP JUMPDEST JUMPDEST DUP2 PUSH1 0x2 DUP2 GT ISZERO PUSH2 0x7CE JUMPI PUSH2 0x7CD PUSH2 0x3680 JUMP JUMPDEST JUMPDEST EQ ISZERO PUSH2 0x85E JUMPI DUP4 DUP6 GT PUSH2 0x816 JUMPI PUSH1 0x40 MLOAD PUSH32 0x8C379A000000000000000000000000000000000000000000000000000000000 DUP2 MSTORE PUSH1 0x4 ADD PUSH2 0x80D SWAP1 PUSH2 0x3D06 JUMP JUMPDEST PUSH1 0x40 MLOAD DUP1 SWAP2 SUB SWAP1 REVERT JUMPDEST DUP2 DUP6 GT ISZERO PUSH2 0x859 JUMPI PUSH1 0x40 MLOAD PUSH32 0x8C379A000000000000000000000000000000000000000000000000000000000 DUP2 MSTORE PUSH1 0x4 ADD PUSH2 0x850 SWAP1 PUSH2 0x3DBE JUMP JUMPDEST PUSH1 0x40 MLOAD DUP1 SWAP2 SUB SWAP1 REVERT JUMPDEST PUSH2 0x8E3 JUMP JUMPDEST DUP4 DUP6 GT PUSH2 0x8A0 JUMPI PUSH1 0x40 MLOAD PUSH32 0x8C379A000000000000000000000000000000000000000000000000000000000 DUP2 MSTORE PUSH1 0x4 ADD PUSH2 0x897 SWAP1 PUSH2 0x3E76 JUMP JUMPDEST PUSH1 0x40 MLOAD DUP1 SWAP2 SUB SWAP1 REVERT JUMPDEST DUP2 DUP6 LT PUSH2 0x8E2 JUMPI PUSH1 0x40 MLOAD PUSH32 0x8C379A000000000000000000000000000000000000000000000000000000000 DUP2 MSTORE PUSH1 0x4 ADD PUSH2 0x8D9 SWAP1 PUSH2 0x3F2E JUMP JUMPDEST PUSH1 0x40 MLOAD DUP1 SWAP2 SUB SWAP1 REVERT JUMPDEST JUMPDEST JUMPDEST PUSH1 0x0 PUSH1 0x3 PUSH1 0x0 DUP9 DUP2 MSTORE PUSH1 0x20 ADD SWAP1 DUP2 MSTORE PUSH1 0x20 ADD PUSH1 0x0 KECCAK256 SWAP1 POP PUSH2 0x905 PUSH1 0x1 PUSH2 0x333E JUMP JUMPDEST PUSH1 0x0 PUSH2 0x911 PUSH1 0x1 PUSH2 0x3354 JUMP JUMPDEST SWAP1 POP PUSH1 0x0 PUSH1 0x40 MLOAD DUP1 PUSH1 0xA0 ADD PUSH1 0x40 MSTORE DUP1 DUP4 DUP2 MSTORE PUSH1 0x20 ADD DUP11 DUP2 MSTORE PUSH1 0x20 ADD CALLER PUSH20 0xFFFFFFFFFFFFFFFFFFFFFFFFFFFFFFFFFFFFFFFF AND DUP2 MSTORE PUSH1 0x20 ADD DUP10 DUP2 MSTORE PUSH1 0x20 ADD PUSH1 0x0 PUSH1 0x2 DUP2 GT ISZERO PUSH2 0x962 JUMPI PUSH2 0x961 PUSH2 0x3680 JUMP JUMPDEST JUMPDEST DUP2 MSTORE POP SWAP1 POP DUP1 PUSH1 0x2 PUSH1 0x0 DUP5 DUP2 MSTORE PUSH1 0x20 ADD SWAP1 DUP2 MSTORE PUSH1 0x20 ADD PUSH1 0x0 KECCAK256 PUSH1 0x0 DUP3 ADD MLOAD DUP2 PUSH1 0x0 ADD SSTORE PUSH1 0x20 DUP3 ADD MLOAD DUP2 PUSH1 0x1 ADD SSTORE PUSH1 0x40 DUP3 ADD MLOAD DUP2 PUSH1 0x2 ADD PUSH1 0x0 PUSH2 0x100 EXP DUP2 SLOAD DUP2 PUSH20 0xFFFFFFFFFFFFFFFFFFFFFFFFFFFFFFFFFFFFFFFF MUL NOT AND SWAP1 DUP4 PUSH20 0xFFFFFFFFFFFFFFFFFFFFFFFFFFFFFFFFFFFFFFFF AND MUL OR SWAP1 SSTORE POP PUSH1 0x60 DUP3 ADD MLOAD DUP2 PUSH1 0x3 ADD SSTORE PUSH1 0x80 DUP3 ADD MLOAD DUP2 PUSH1 0x4 ADD PUSH1 0x0 PUSH2 0x100 EXP DUP2 SLOAD DUP2 PUSH1 0xFF MUL NOT AND SWAP1 DUP4 PUSH1 0x2 DUP2 GT ISZERO PUSH2 0xA0B JUMPI PUSH2 0xA0A PUSH2 0x3680 JUMP JUMPDEST JUMPDEST MUL OR SWAP1 SSTORE POP SWAP1 POP POP DUP3 DUP3 SWAP1 DUP1 PUSH1 0x1 DUP2 SLOAD ADD DUP1 DUP3 SSTORE DUP1 SWAP2 POP POP PUSH1 0x1 SWAP1 SUB SWAP1 PUSH1 0x0 MSTORE PUSH1 0x20 PUSH1 0x0 KECCAK256 ADD PUSH1 0x0 SWAP1 SWAP2 SWAP1 SWAP2 SWAP1 SWAP2 POP SSTORE DUP3 PUSH1 0x3 PUSH1 0x0 DUP12 DUP2 MSTORE PUSH1 0x20 ADD SWAP1 DUP2 MSTORE PUSH1 0x20 ADD PUSH1 0x0 KECCAK256 SWAP1 DUP1 SLOAD PUSH2 0xA5D SWAP3 SWAP2 SWAP1 PUSH2 0x342E JUMP JUMPDEST POP DUP2 PUSH1 0x4 PUSH1 0x0 DUP12 DUP2 MSTORE PUSH1 0x20 ADD SWAP1 DUP2 MSTORE PUSH1 0x20 ADD PUSH1 0x0 KECCAK256 DUP2 SWAP1 SSTORE POP PUSH32 0xF08F736BDCDF115BA3E0C936AE075A4DF78EDE609D99818ACB853135AD26119 DUP3 DUP11 CALLER DUP12 PUSH1 0x0 PUSH1 0x40 MLOAD PUSH2 0xAAE SWAP6 SWAP5 SWAP4 SWAP3 SWAP2 SWAP1 PUSH2 0x3F5D JUMP JUMPDEST PUSH1 0x40 MLOAD DUP1 SWAP2 SUB SWAP1 LOG1 POP POP POP POP POP POP POP POP POP JUMP JUMPDEST PUSH2 0xAC9 PUSH2 0x3480 JUMP JUMPDEST PUSH1 0x0 PUSH1 0x4 PUSH1 0x0 DUP5 DUP2 MSTORE PUSH1 0x20 ADD SWAP1 DUP2 MSTORE PUSH1 0x20 ADD PUSH1 0x0 KECCAK256 SLOAD SWAP1 POP PUSH1 0x2 PUSH1 0x0 DUP3 DUP2 MSTORE PUSH1 0x20 ADD SWAP1 DUP2 MSTORE PUSH1 0x20 ADD PUSH1 0x0 KECCAK256 PUSH1 0x40 MLOAD DUP1 PUSH1 0xA0 ADD PUSH1 0x40 MSTORE SWAP1 DUP2 PUSH1 0x0 DUP3 ADD SLOAD DUP2 MSTORE PUSH1 0x20 ADD PUSH1 0x1 DUP3 ADD SLOAD DUP2 MSTORE PUSH1 0x20 ADD PUSH1 0x2 DUP3 ADD PUSH1 0x0 SWAP1 SLOAD SWAP1 PUSH2 0x100 EXP SWAP1 DIV PUSH20 0xFFFFFFFFFFFFFFFFFFFFFFFFFFFFFFFFFFFFFFFF AND PUSH20 0xFFFFFFFFFFFFFFFFFFFFFFFFFFFFFFFFFFFFFFFF AND PUSH20 0xFFFFFFFFFFFFFFFFFFFFFFFFFFFFFFFFFFFFFFFF AND DUP2 MSTORE PUSH1 0x20 ADD PUSH1 0x3 DUP3 ADD SLOAD DUP2 MSTORE PUSH1 0x20 ADD PUSH1 0x4 DUP3 ADD PUSH1 0x0 SWAP1 SLOAD SWAP1 PUSH2 0x100 EXP SWAP1 DIV PUSH1 0xFF AND PUSH1 0x2 DUP2 GT ISZERO PUSH2 0xB98 JUMPI PUSH2 0xB97 PUSH2 0x3680 JUMP JUMPDEST JUMPDEST PUSH1 0x2 DUP2 GT ISZERO PUSH2 0xBAA JUMPI PUSH2 0xBA9 PUSH2 0x3680 JUMP JUMPDEST JUMPDEST DUP2 MSTORE POP POP SWAP2 POP POP SWAP2 SWAP1 POP JUMP JUMPDEST DUP1 PUSH1 0x0 PUSH1 0x8 PUSH1 0x0 DUP4 DUP2 MSTORE PUSH1 0x20 ADD SWAP1 DUP2 MSTORE PUSH1 0x20 ADD PUSH1 0x0 KECCAK256 PUSH1 0x0 SWAP1 SLOAD SWAP1 PUSH2 0x100 EXP SWAP1 DIV PUSH20 0xFFFFFFFFFFFFFFFFFFFFFFFFFFFFFFFFFFFFFFFF AND SWAP1 POP DUP1 PUSH20 0xFFFFFFFFFFFFFFFFFFFFFFFFFFFFFFFFFFFFFFFF AND CALLER PUSH20 0xFFFFFFFFFFFFFFFFFFFFFFFFFFFFFFFFFFFFFFFF AND EQ PUSH2 0xC27 JUMPI PUSH1 0x0 DUP1 REVERT JUMPDEST PUSH1 0x9 PUSH1 0x0 SWAP1 SLOAD SWAP1 PUSH2 0x100 EXP SWAP1 DIV PUSH20 0xFFFFFFFFFFFFFFFFFFFFFFFFFFFFFFFFFFFFFFFF AND PUSH20 0xFFFFFFFFFFFFFFFFFFFFFFFFFFFFFFFFFFFFFFFF AND PUSH4 0x23B872DD ADDRESS CALLER DUP7 PUSH1 0x40 MLOAD DUP5 PUSH4 0xFFFFFFFF AND PUSH1 0xE0 SHL DUP2 MSTORE PUSH1 0x4 ADD PUSH2 0xC86 SWAP4 SWAP3 SWAP2 SWAP1 PUSH2 0x3FB0 JUMP JUMPDEST PUSH1 0x0 PUSH1 0x40 MLOAD DUP1 DUP4 SUB DUP2 PUSH1 0x0 DUP8 DUP1 EXTCODESIZE ISZERO DUP1 ISZERO PUSH2 0xCA0 JUMPI PUSH1 0x0 DUP1 REVERT JUMPDEST POP GAS CALL ISZERO DUP1 ISZERO PUSH2 0xCB4 JUMPI RETURNDATASIZE PUSH1 0x0 DUP1 RETURNDATACOPY RETURNDATASIZE PUSH1 0x0 REVERT JUMPDEST POP POP POP POP PUSH1 0x0 PUSH1 0x3 PUSH1 0x0 DUP6 DUP2 MSTORE PUSH1 0x20 ADD SWAP1 DUP2 MSTORE PUSH1 0x20 ADD PUSH1 0x0 KECCAK256 DUP1 SLOAD DUP1 PUSH1 0x20 MUL PUSH1 0x20 ADD PUSH1 0x40 MLOAD SWAP1 DUP2 ADD PUSH1 0x40 MSTORE DUP1 SWAP3 SWAP2 SWAP1 DUP2 DUP2 MSTORE PUSH1 0x20 ADD DUP3 DUP1 SLOAD DUP1 ISZERO PUSH2 0xD17 JUMPI PUSH1 0x20 MUL DUP3 ADD SWAP2 SWAP1 PUSH1 0x0 MSTORE PUSH1 0x20 PUSH1 0x0 KECCAK256 SWAP1 JUMPDEST DUP2 SLOAD DUP2 MSTORE PUSH1 0x20 ADD SWAP1 PUSH1 0x1 ADD SWAP1 DUP1 DUP4 GT PUSH2 0xD03 JUMPI JUMPDEST POP POP POP POP POP SWAP1 POP PUSH1 0x0 JUMPDEST DUP2 MLOAD DUP2 LT ISZERO PUSH2 0xF70 JUMPI PUSH1 0x0 DUP3 DUP3 DUP2 MLOAD DUP2 LT PUSH2 0xD3F JUMPI PUSH2 0xD3E PUSH2 0x3FE7 JUMP JUMPDEST JUMPDEST PUSH1 0x20 MUL PUSH1 0x20 ADD ADD MLOAD SWAP1 POP PUSH1 0x0 PUSH1 0x2 PUSH1 0x0 DUP4 DUP2 MSTORE PUSH1 0x20 ADD SWAP1 DUP2 MSTORE PUSH1 0x20 ADD PUSH1 0x0 KECCAK256 PUSH1 0x40 MLOAD DUP1 PUSH1 0xA0 ADD PUSH1 0x40 MSTORE SWAP1 DUP2 PUSH1 0x0 DUP3 ADD SLOAD DUP2 MSTORE PUSH1 0x20 ADD PUSH1 0x1 DUP3 ADD SLOAD DUP2 MSTORE PUSH1 0x20 ADD PUSH1 0x2 DUP3 ADD PUSH1 0x0 SWAP1 SLOAD SWAP1 PUSH2 0x100 EXP SWAP1 DIV PUSH20 0xFFFFFFFFFFFFFFFFFFFFFFFFFFFFFFFFFFFFFFFF AND PUSH20 0xFFFFFFFFFFFFFFFFFFFFFFFFFFFFFFFFFFFFFFFF AND PUSH20 0xFFFFFFFFFFFFFFFFFFFFFFFFFFFFFFFFFFFFFFFF AND DUP2 MSTORE PUSH1 0x20 ADD PUSH1 0x3 DUP3 ADD SLOAD DUP2 MSTORE PUSH1 0x20 ADD PUSH1 0x4 DUP3 ADD PUSH1 0x0 SWAP1 SLOAD SWAP1 PUSH2 0x100 EXP SWAP1 DIV PUSH1 0xFF AND PUSH1 0x2 DUP2 GT ISZERO PUSH2 0xE02 JUMPI PUSH2 0xE01 PUSH2 0x3680 JUMP JUMPDEST JUMPDEST PUSH1 0x2 DUP2 GT ISZERO PUSH2 0xE14 JUMPI PUSH2 0xE13 PUSH2 0x3680 JUMP JUMPDEST JUMPDEST DUP2 MSTORE POP POP SWAP1 POP PUSH1 0x0 PUSH1 0x2 DUP2 GT ISZERO PUSH2 0xE2E JUMPI PUSH2 0xE2D PUSH2 0x3680 JUMP JUMPDEST JUMPDEST DUP2 PUSH1 0x80 ADD MLOAD PUSH1 0x2 DUP2 GT ISZERO PUSH2 0xE45 JUMPI PUSH2 0xE44 PUSH2 0x3680 JUMP JUMPDEST JUMPDEST EQ PUSH2 0xE85 JUMPI PUSH1 0x40 MLOAD PUSH32 0x8C379A000000000000000000000000000000000000000000000000000000000 DUP2 MSTORE PUSH1 0x4 ADD PUSH2 0xE7C SWAP1 PUSH2 0x4062 JUMP JUMPDEST PUSH1 0x40 MLOAD DUP1 SWAP2 SUB SWAP1 REVERT JUMPDEST PUSH1 0x2 DUP2 PUSH1 0x80 ADD SWAP1 PUSH1 0x2 DUP2 GT ISZERO PUSH2 0xE9E JUMPI PUSH2 0xE9D PUSH2 0x3680 JUMP JUMPDEST JUMPDEST SWAP1 DUP2 PUSH1 0x2 DUP2 GT ISZERO PUSH2 0xEB2 JUMPI PUSH2 0xEB1 PUSH2 0x3680 JUMP JUMPDEST JUMPDEST DUP2 MSTORE POP POP DUP1 PUSH1 0x60 ADD MLOAD PUSH1 0x6 PUSH1 0x0 DUP4 PUSH1 0x40 ADD MLOAD PUSH20 0xFFFFFFFFFFFFFFFFFFFFFFFFFFFFFFFFFFFFFFFF AND PUSH20 0xFFFFFFFFFFFFFFFFFFFFFFFFFFFFFFFFFFFFFFFF AND DUP2 MSTORE PUSH1 0x20 ADD SWAP1 DUP2 MSTORE PUSH1 0x20 ADD PUSH1 0x0 KECCAK256 PUSH1 0x0 DUP3 DUP3 SLOAD PUSH2 0xF0D SWAP2 SWAP1 PUSH2 0x352D JUMP JUMPDEST SWAP3 POP POP DUP2 SWAP1 SSTORE POP PUSH32 0x5B166B4D0498FF8C4719999CB6154C5D197E6F020F9FBFCF9D347F84576CFAB7 DUP2 PUSH1 0x0 ADD MLOAD DUP3 PUSH1 0x20 ADD MLOAD DUP4 PUSH1 0x40 ADD MLOAD PUSH1 0x40 MLOAD PUSH2 0xF53 SWAP4 SWAP3 SWAP2 SWAP1 PUSH2 0x4082 JUMP JUMPDEST PUSH1 0x40 MLOAD DUP1 SWAP2 SUB SWAP1 LOG1 POP POP DUP1 DUP1 PUSH2 0xF68 SWAP1 PUSH2 0x40B9 JUMP JUMPDEST SWAP2 POP POP PUSH2 0xD21 JUMP JUMPDEST POP PUSH1 0x0 PUSH1 0x8 PUSH1 0x0 DUP7 DUP2 MSTORE PUSH1 0x20 ADD SWAP1 DUP2 MSTORE PUSH1 0x20 ADD PUSH1 0x0 KECCAK256 PUSH1 0x0 PUSH2 0x100 EXP DUP2 SLOAD DUP2 PUSH20 0xFFFFFFFFFFFFFFFFFFFFFFFFFFFFFFFFFFFFFFFF MUL NOT AND SWAP1 DUP4 PUSH20 0xFFFFFFFFFFFFFFFFFFFFFFFFFFFFFFFFFFFFFFFF AND MUL OR SWAP1 SSTORE POP POP POP POP POP JUMP JUMPDEST PUSH1 0x0 PUSH1 0x2 PUSH1 0x0 DUP4 DUP2 MSTORE PUSH1 0x20 ADD SWAP1 DUP2 MSTORE PUSH1 0x20 ADD PUSH1 0x0 KECCAK256 SWAP1 POP DUP1 PUSH1 0x2 ADD PUSH1 0x0 SWAP1 SLOAD SWAP1 PUSH2 0x100 EXP SWAP1 DIV PUSH20 0xFFFFFFFFFFFFFFFFFFFFFFFFFFFFFFFFFFFFFFFF AND PUSH20 0xFFFFFFFFFFFFFFFFFFFFFFFFFFFFFFFFFFFFFFFF AND CALLER PUSH20 0xFFFFFFFFFFFFFFFFFFFFFFFFFFFFFFFFFFFFFFFF AND EQ PUSH2 0x1073 JUMPI PUSH1 0x40 MLOAD PUSH32 0x8C379A000000000000000000000000000000000000000000000000000000000 DUP2 MSTORE PUSH1 0x4 ADD PUSH2 0x106A SWAP1 PUSH2 0x4174 JUMP JUMPDEST PUSH1 0x40 MLOAD DUP1 SWAP2 SUB SWAP1 REVERT JUMPDEST DUP2 DUP2 PUSH1 0x0 ADD SLOAD EQ PUSH2 0x10B9 JUMPI PUSH1 0x40 MLOAD PUSH32 0x8C379A000000000000000000000000000000000000000000000000000000000 DUP2 MSTORE PUSH1 0x4 ADD PUSH2 0x10B0 SWAP1 PUSH2 0x41E0 JUMP JUMPDEST PUSH1 0x40 MLOAD DUP1 SWAP2 SUB SWAP1 REVERT JUMPDEST PUSH1 0x0 PUSH1 0x2 DUP2 GT ISZERO PUSH2 0x10CD JUMPI PUSH2 0x10CC PUSH2 0x3680 JUMP JUMPDEST JUMPDEST DUP2 PUSH1 0x4 ADD PUSH1 0x0 SWAP1 SLOAD SWAP1 PUSH2 0x100 EXP SWAP1 DIV PUSH1 0xFF AND PUSH1 0x2 DUP2 GT ISZERO PUSH2 0x10F1 JUMPI PUSH2 0x10F0 PUSH2 0x3680 JUMP JUMPDEST JUMPDEST EQ PUSH2 0x1131 JUMPI PUSH1 0x40 MLOAD PUSH32 0x8C379A000000000000000000000000000000000000000000000000000000000 DUP2 MSTORE PUSH1 0x4 ADD PUSH2 0x1128 SWAP1 PUSH2 0x4062 JUMP JUMPDEST PUSH1 0x40 MLOAD DUP1 SWAP2 SUB SWAP1 REVERT JUMPDEST PUSH1 0x2 DUP2 PUSH1 0x4 ADD PUSH1 0x0 PUSH2 0x100 EXP DUP2 SLOAD DUP2 PUSH1 0xFF MUL NOT AND SWAP1 DUP4 PUSH1 0x2 DUP2 GT ISZERO PUSH2 0x1159 JUMPI PUSH2 0x1158 PUSH2 0x3680 JUMP JUMPDEST JUMPDEST MUL OR SWAP1 SSTORE POP DUP1 PUSH1 0x3 ADD SLOAD PUSH1 0x6 PUSH1 0x0 DUP4 PUSH1 0x2 ADD PUSH1 0x0 SWAP1 SLOAD SWAP1 PUSH2 0x100 EXP SWAP1 DIV PUSH20 0xFFFFFFFFFFFFFFFFFFFFFFFFFFFFFFFFFFFFFFFF AND PUSH20 0xFFFFFFFFFFFFFFFFFFFFFFFFFFFFFFFFFFFFFFFF AND PUSH20 0xFFFFFFFFFFFFFFFFFFFFFFFFFFFFFFFFFFFFFFFF AND DUP2 MSTORE PUSH1 0x20 ADD SWAP1 DUP2 MSTORE PUSH1 0x20 ADD PUSH1 0x0 KECCAK256 PUSH1 0x0 DUP3 DUP3 SLOAD PUSH2 0x11D5 SWAP2 SWAP1 PUSH2 0x352D JUMP JUMPDEST SWAP3 POP POP DUP2 SWAP1 SSTORE POP PUSH32 0x5B166B4D0498FF8C4719999CB6154C5D197E6F020F9FBFCF9D347F84576CFAB7 DUP3 DUP3 PUSH1 0x1 ADD SLOAD CALLER PUSH1 0x40 MLOAD PUSH2 0x1213 SWAP4 SWAP3 SWAP2 SWAP1 PUSH2 0x4082 JUMP JUMPDEST PUSH1 0x40 MLOAD DUP1 SWAP2 SUB SWAP1 LOG1 POP POP JUMP JUMPDEST PUSH1 0x0 DUP1 PUSH1 0x9 PUSH1 0x0 SWAP1 SLOAD SWAP1 PUSH2 0x100 EXP SWAP1 DIV PUSH20 0xFFFFFFFFFFFFFFFFFFFFFFFFFFFFFFFFFFFFFFFF AND PUSH20 0xFFFFFFFFFFFFFFFFFFFFFFFFFFFFFFFFFFFFFFFF AND PUSH4 0x70A08231 DUP5 PUSH1 0x40 MLOAD DUP3 PUSH4 0xFFFFFFFF AND PUSH1 0xE0 SHL DUP2 MSTORE PUSH1 0x4 ADD PUSH2 0x127D SWAP2 SWAP1 PUSH2 0x389F JUMP JUMPDEST PUSH1 0x20 PUSH1 0x40 MLOAD DUP1 DUP4 SUB DUP2 DUP7 GAS STATICCALL ISZERO DUP1 ISZERO PUSH2 0x129A JUMPI RETURNDATASIZE PUSH1 0x0 DUP1 RETURNDATACOPY RETURNDATASIZE PUSH1 0x0 REVERT JUMPDEST POP POP POP POP PUSH1 0x40 MLOAD RETURNDATASIZE PUSH1 0x1F NOT PUSH1 0x1F DUP3 ADD AND DUP3 ADD DUP1 PUSH1 0x40 MSTORE POP DUP2 ADD SWAP1 PUSH2 0x12BE SWAP2 SWAP1 PUSH2 0x4215 JUMP JUMPDEST SWAP1 POP DUP1 SWAP2 POP POP SWAP2 SWAP1 POP JUMP JUMPDEST PUSH1 0x0 DUP1 PUSH1 0x9 PUSH1 0x0 SWAP1 SLOAD SWAP1 PUSH2 0x100 EXP SWAP1 DIV PUSH20 0xFFFFFFFFFFFFFFFFFFFFFFFFFFFFFFFFFFFFFFFF AND PUSH20 0xFFFFFFFFFFFFFFFFFFFFFFFFFFFFFFFFFFFFFFFF AND PUSH4 0x2F745C59 DUP6 DUP6 PUSH1 0x40 MLOAD DUP4 PUSH4 0xFFFFFFFF AND PUSH1 0xE0 SHL DUP2 MSTORE PUSH1 0x4 ADD PUSH2 0x1329 SWAP3 SWAP2 SWAP1 PUSH2 0x4242 JUMP JUMPDEST PUSH1 0x20 PUSH1 0x40 MLOAD DUP1 DUP4 SUB DUP2 DUP7 GAS STATICCALL ISZERO DUP1 ISZERO PUSH2 0x1346 JUMPI RETURNDATASIZE PUSH1 0x0 DUP1 RETURNDATACOPY RETURNDATASIZE PUSH1 0x0 REVERT JUMPDEST POP POP POP POP PUSH1 0x40 MLOAD RETURNDATASIZE PUSH1 0x1F NOT PUSH1 0x1F DUP3 ADD AND DUP3 ADD DUP1 PUSH1 0x40 MSTORE POP DUP2 ADD SWAP1 PUSH2 0x136A SWAP2 SWAP1 PUSH2 0x4215 JUMP JUMPDEST SWAP1 POP DUP1 SWAP2 POP POP SWAP3 SWAP2 POP POP JUMP JUMPDEST PUSH1 0x0 PUSH1 0x7 PUSH1 0x0 DUP4 DUP2 MSTORE PUSH1 0x20 ADD SWAP1 DUP2 MSTORE PUSH1 0x20 ADD PUSH1 0x0 KECCAK256 PUSH1 0x0 SWAP1 SLOAD SWAP1 PUSH2 0x100 EXP SWAP1 DIV PUSH1 0xFF AND SWAP1 POP PUSH1 0x2 DUP1 DUP2 GT ISZERO PUSH2 0x13AE JUMPI PUSH2 0x13AD PUSH2 0x3680 JUMP JUMPDEST JUMPDEST DUP2 PUSH1 0x2 DUP2 GT ISZERO PUSH2 0x13C1 JUMPI PUSH2 0x13C0 PUSH2 0x3680 JUMP JUMPDEST JUMPDEST EQ PUSH2 0x13CB JUMPI PUSH1 0x0 DUP1 REVERT JUMPDEST PUSH1 0x0 PUSH1 0x5 PUSH1 0x0 DUP5 DUP2 MSTORE PUSH1 0x20 ADD SWAP1 DUP2 MSTORE PUSH1 0x20 ADD PUSH1 0x0 KECCAK256 SLOAD SWAP1 POP DUP1 CALLVALUE LT ISZERO PUSH2 0x13F0 JUMPI PUSH1 0x0 DUP1 REVERT JUMPDEST PUSH1 0x0 PUSH1 0x8 PUSH1 0x0 DUP6 DUP2 MSTORE PUSH1 0x20 ADD SWAP1 DUP2 MSTORE PUSH1 0x20 ADD PUSH1 0x0 KECCAK256 PUSH1 0x0 SWAP1 SLOAD SWAP1 PUSH2 0x100 EXP SWAP1 DIV PUSH20 0xFFFFFFFFFFFFFFFFFFFFFFFFFFFFFFFFFFFFFFFF AND SWAP1 POP CALLVALUE PUSH1 0x6 PUSH1 0x0 DUP4 PUSH20 0xFFFFFFFFFFFFFFFFFFFFFFFFFFFFFFFFFFFFFFFF AND PUSH20 0xFFFFFFFFFFFFFFFFFFFFFFFFFFFFFFFFFFFFFFFF AND DUP2 MSTORE PUSH1 0x20 ADD SWAP1 DUP2 MSTORE PUSH1 0x20 ADD PUSH1 0x0 KECCAK256 PUSH1 0x0 DUP3 DUP3 SLOAD PUSH2 0x1477 SWAP2 SWAP1 PUSH2 0x352D JUMP JUMPDEST SWAP3 POP POP DUP2 SWAP1 SSTORE POP PUSH1 0x9 PUSH1 0x0 SWAP1 SLOAD SWAP1 PUSH2 0x100 EXP SWAP1 DIV PUSH20 0xFFFFFFFFFFFFFFFFFFFFFFFFFFFFFFFFFFFFFFFF AND PUSH20 0xFFFFFFFFFFFFFFFFFFFFFFFFFFFFFFFFFFFFFFFF AND PUSH4 0x23B872DD ADDRESS CALLER DUP8 PUSH1 0x40 MLOAD DUP5 PUSH4 0xFFFFFFFF AND PUSH1 0xE0 SHL DUP2 MSTORE PUSH1 0x4 ADD PUSH2 0x14DD SWAP4 SWAP3 SWAP2 SWAP1 PUSH2 0x3FB0 JUMP JUMPDEST PUSH1 0x0 PUSH1 0x40 MLOAD DUP1 DUP4 SUB DUP2 PUSH1 0x0 DUP8 DUP1 EXTCODESIZE ISZERO DUP1 ISZERO PUSH2 0x14F7 JUMPI PUSH1 0x0 DUP1 REVERT JUMPDEST POP GAS CALL ISZERO DUP1 ISZERO PUSH2 0x150B JUMPI RETURNDATASIZE PUSH1 0x0 DUP1 RETURNDATACOPY RETURNDATASIZE PUSH1 0x0 REVERT JUMPDEST POP POP POP POP PUSH1 0x0 PUSH1 0x3 PUSH1 0x0 DUP7 DUP2 MSTORE PUSH1 0x20 ADD SWAP1 DUP2 MSTORE PUSH1 0x20 ADD PUSH1 0x0 KECCAK256 DUP1 SLOAD DUP1 PUSH1 0x20 MUL PUSH1 0x20 ADD PUSH1 0x40 MLOAD SWAP1 DUP2 ADD PUSH1 0x40 MSTORE DUP1 SWAP3 SWAP2 SWAP1 DUP2 DUP2 MSTORE PUSH1 0x20 ADD DUP3 DUP1 SLOAD DUP1 ISZERO PUSH2 0x156E JUMPI PUSH1 0x20 MUL DUP3 ADD SWAP2 SWAP1 PUSH1 0x0 MSTORE PUSH1 0x20 PUSH1 0x0 KECCAK256 SWAP1 JUMPDEST DUP2 SLOAD DUP2 MSTORE PUSH1 0x20 ADD SWAP1 PUSH1 0x1 ADD SWAP1 DUP1 DUP4 GT PUSH2 0x155A JUMPI JUMPDEST POP POP POP POP POP SWAP1 POP PUSH1 0x0 JUMPDEST DUP2 MLOAD DUP2 LT ISZERO PUSH2 0x17C7 JUMPI PUSH1 0x0 DUP3 DUP3 DUP2 MLOAD DUP2 LT PUSH2 0x1596 JUMPI PUSH2 0x1595 PUSH2 0x3FE7 JUMP JUMPDEST JUMPDEST PUSH1 0x20 MUL PUSH1 0x20 ADD ADD MLOAD SWAP1 POP PUSH1 0x0 PUSH1 0x2 PUSH1 0x0 DUP4 DUP2 MSTORE PUSH1 0x20 ADD SWAP1 DUP2 MSTORE PUSH1 0x20 ADD PUSH1 0x0 KECCAK256 PUSH1 0x40 MLOAD DUP1 PUSH1 0xA0 ADD PUSH1 0x40 MSTORE SWAP1 DUP2 PUSH1 0x0 DUP3 ADD SLOAD DUP2 MSTORE PUSH1 0x20 ADD PUSH1 0x1 DUP3 ADD SLOAD DUP2 MSTORE PUSH1 0x20 ADD PUSH1 0x2 DUP3 ADD PUSH1 0x0 SWAP1 SLOAD SWAP1 PUSH2 0x100 EXP SWAP1 DIV PUSH20 0xFFFFFFFFFFFFFFFFFFFFFFFFFFFFFFFFFFFFFFFF AND PUSH20 0xFFFFFFFFFFFFFFFFFFFFFFFFFFFFFFFFFFFFFFFF AND PUSH20 0xFFFFFFFFFFFFFFFFFFFFFFFFFFFFFFFFFFFFFFFF AND DUP2 MSTORE PUSH1 0x20 ADD PUSH1 0x3 DUP3 ADD SLOAD DUP2 MSTORE PUSH1 0x20 ADD PUSH1 0x4 DUP3 ADD PUSH1 0x0 SWAP1 SLOAD SWAP1 PUSH2 0x100 EXP SWAP1 DIV PUSH1 0xFF AND PUSH1 0x2 DUP2 GT ISZERO PUSH2 0x1659 JUMPI PUSH2 0x1658 PUSH2 0x3680 JUMP JUMPDEST JUMPDEST PUSH1 0x2 DUP2 GT ISZERO PUSH2 0x166B JUMPI PUSH2 0x166A PUSH2 0x3680 JUMP JUMPDEST JUMPDEST DUP2 MSTORE POP POP SWAP1 POP PUSH1 0x0 PUSH1 0x2 DUP2 GT ISZERO PUSH2 0x1685 JUMPI PUSH2 0x1684 PUSH2 0x3680 JUMP JUMPDEST JUMPDEST DUP2 PUSH1 0x80 ADD MLOAD PUSH1 0x2 DUP2 GT ISZERO PUSH2 0x169C JUMPI PUSH2 0x169B PUSH2 0x3680 JUMP JUMPDEST JUMPDEST EQ PUSH2 0x16DC JUMPI PUSH1 0x40 MLOAD PUSH32 0x8C379A000000000000000000000000000000000000000000000000000000000 DUP2 MSTORE PUSH1 0x4 ADD PUSH2 0x16D3 SWAP1 PUSH2 0x4062 JUMP JUMPDEST PUSH1 0x40 MLOAD DUP1 SWAP2 SUB SWAP1 REVERT JUMPDEST PUSH1 0x2 DUP2 PUSH1 0x80 ADD SWAP1 PUSH1 0x2 DUP2 GT ISZERO PUSH2 0x16F5 JUMPI PUSH2 0x16F4 PUSH2 0x3680 JUMP JUMPDEST JUMPDEST SWAP1 DUP2 PUSH1 0x2 DUP2 GT ISZERO PUSH2 0x1709 JUMPI PUSH2 0x1708 PUSH2 0x3680 JUMP JUMPDEST JUMPDEST DUP2 MSTORE POP POP DUP1 PUSH1 0x60 ADD MLOAD PUSH1 0x6 PUSH1 0x0 DUP4 PUSH1 0x40 ADD MLOAD PUSH20 0xFFFFFFFFFFFFFFFFFFFFFFFFFFFFFFFFFFFFFFFF AND PUSH20 0xFFFFFFFFFFFFFFFFFFFFFFFFFFFFFFFFFFFFFFFF AND DUP2 MSTORE PUSH1 0x20 ADD SWAP1 DUP2 MSTORE PUSH1 0x20 ADD PUSH1 0x0 KECCAK256 PUSH1 0x0 DUP3 DUP3 SLOAD PUSH2 0x1764 SWAP2 SWAP1 PUSH2 0x352D JUMP JUMPDEST SWAP3 POP POP DUP2 SWAP1 SSTORE POP PUSH32 0x5B166B4D0498FF8C4719999CB6154C5D197E6F020F9FBFCF9D347F84576CFAB7 DUP2 PUSH1 0x0 ADD MLOAD DUP3 PUSH1 0x20 ADD MLOAD DUP4 PUSH1 0x40 ADD MLOAD PUSH1 0x40 MLOAD PUSH2 0x17AA SWAP4 SWAP3 SWAP2 SWAP1 PUSH2 0x4082 JUMP JUMPDEST PUSH1 0x40 MLOAD DUP1 SWAP2 SUB SWAP1 LOG1 POP POP DUP1 DUP1 PUSH2 0x17BF SWAP1 PUSH2 0x40B9 JUMP JUMPDEST SWAP2 POP POP PUSH2 0x1578 JUMP JUMPDEST POP PUSH1 0x0 PUSH1 0x8 PUSH1 0x0 DUP8 DUP2 MSTORE PUSH1 0x20 ADD SWAP1 DUP2 MSTORE PUSH1 0x20 ADD PUSH1 0x0 KECCAK256 PUSH1 0x0 PUSH2 0x100 EXP DUP2 SLOAD DUP2 PUSH20 0xFFFFFFFFFFFFFFFFFFFFFFFFFFFFFFFFFFFFFFFF MUL NOT AND SWAP1 DUP4 PUSH20 0xFFFFFFFFFFFFFFFFFFFFFFFFFFFFFFFFFFFFFFFF AND MUL OR SWAP1 SSTORE POP POP POP POP POP POP JUMP JUMPDEST DUP1 CALLVALUE PUSH1 0x6 PUSH1 0x0 CALLER PUSH20 0xFFFFFFFFFFFFFFFFFFFFFFFFFFFFFFFFFFFFFFFF AND PUSH20 0xFFFFFFFFFFFFFFFFFFFFFFFFFFFFFFFFFFFFFFFF AND DUP2 MSTORE PUSH1 0x20 ADD SWAP1 DUP2 MSTORE PUSH1 0x20 ADD PUSH1 0x0 KECCAK256 SLOAD PUSH2 0x186E SWAP2 SWAP1 PUSH2 0x352D JUMP JUMPDEST LT ISZERO PUSH2 0x18AF JUMPI PUSH1 0x40 MLOAD PUSH32 0x8C379A000000000000000000000000000000000000000000000000000000000 DUP2 MSTORE PUSH1 0x4 ADD PUSH2 0x18A6 SWAP1 PUSH2 0x3AB8 JUMP JUMPDEST PUSH1 0x40 MLOAD DUP1 SWAP2 SUB SWAP1 REVERT JUMPDEST PUSH1 0x0 DUP1 PUSH1 0x4 PUSH1 0x0 DUP6 DUP2 MSTORE PUSH1 0x20 ADD SWAP1 DUP2 MSTORE PUSH1 0x20 ADD PUSH1 0x0 KECCAK256 SLOAD SWAP1 POP PUSH1 0x0 DUP2 GT ISZERO PUSH2 0x19AB JUMPI PUSH1 0x0 PUSH1 0x2 PUSH1 0x0 DUP4 DUP2 MSTORE PUSH1 0x20 ADD SWAP1 DUP2 MSTORE PUSH1 0x20 ADD PUSH1 0x0 KECCAK256 PUSH1 0x40 MLOAD DUP1 PUSH1 0xA0 ADD PUSH1 0x40 MSTORE SWAP1 DUP2 PUSH1 0x0 DUP3 ADD SLOAD DUP2 MSTORE PUSH1 0x20 ADD PUSH1 0x1 DUP3 ADD SLOAD DUP2 MSTORE PUSH1 0x20 ADD PUSH1 0x2 DUP3 ADD PUSH1 0x0 SWAP1 SLOAD SWAP1 PUSH2 0x100 EXP SWAP1 DIV PUSH20 0xFFFFFFFFFFFFFFFFFFFFFFFFFFFFFFFFFFFFFFFF AND PUSH20 0xFFFFFFFFFFFFFFFFFFFFFFFFFFFFFFFFFFFFFFFF AND PUSH20 0xFFFFFFFFFFFFFFFFFFFFFFFFFFFFFFFFFFFFFFFF AND DUP2 MSTORE PUSH1 0x20 ADD PUSH1 0x3 DUP3 ADD SLOAD DUP2 MSTORE PUSH1 0x20 ADD PUSH1 0x4 DUP3 ADD PUSH1 0x0 SWAP1 SLOAD SWAP1 PUSH2 0x100 EXP SWAP1 DIV PUSH1 0xFF AND PUSH1 0x2 DUP2 GT ISZERO PUSH2 0x198A JUMPI PUSH2 0x1989 PUSH2 0x3680 JUMP JUMPDEST JUMPDEST PUSH1 0x2 DUP2 GT ISZERO PUSH2 0x199C JUMPI PUSH2 0x199B PUSH2 0x3680 JUMP JUMPDEST JUMPDEST DUP2 MSTORE POP POP SWAP1 POP DUP1 PUSH1 0x60 ADD MLOAD SWAP3 POP POP JUMPDEST PUSH1 0x0 PUSH1 0x5 PUSH1 0x0 DUP7 DUP2 MSTORE PUSH1 0x20 ADD SWAP1 DUP2 MSTORE PUSH1 0x20 ADD PUSH1 0x0 KECCAK256 SLOAD SWAP1 POP PUSH1 0x0 PUSH1 0x7 PUSH1 0x0 DUP8 DUP2 MSTORE PUSH1 0x20 ADD SWAP1 DUP2 MSTORE PUSH1 0x20 ADD PUSH1 0x0 KECCAK256 PUSH1 0x0 SWAP1 SLOAD SWAP1 PUSH2 0x100 EXP SWAP1 DIV PUSH1 0xFF AND SWAP1 POP PUSH1 0x0 PUSH1 0x2 DUP2 GT ISZERO PUSH2 0x19FC JUMPI PUSH2 0x19FB PUSH2 0x3680 JUMP JUMPDEST JUMPDEST DUP2 PUSH1 0x2 DUP2 GT ISZERO PUSH2 0x1A0F JUMPI PUSH2 0x1A0E PUSH2 0x3680 JUMP JUMPDEST JUMPDEST EQ ISZERO PUSH2 0x1A9E JUMPI DUP4 DUP6 GT PUSH2 0x1A57 JUMPI PUSH1 0x40 MLOAD PUSH32 0x8C379A000000000000000000000000000000000000000000000000000000000 DUP2 MSTORE PUSH1 0x4 ADD PUSH2 0x1A4E SWAP1 PUSH2 0x3B70 JUMP JUMPDEST PUSH1 0x40 MLOAD DUP1 SWAP2 SUB SWAP1 REVERT JUMPDEST DUP2 DUP6 GT PUSH2 0x1A99 JUMPI PUSH1 0x40 MLOAD PUSH32 0x8C379A000000000000000000000000000000000000000000000000000000000 DUP2 MSTORE PUSH1 0x4 ADD PUSH2 0x1A90 SWAP1 PUSH2 0x3C28 JUMP JUMPDEST PUSH1 0x40 MLOAD DUP1 SWAP2 SUB SWAP1 REVERT JUMPDEST PUSH2 0x1BDB JUMP JUMPDEST PUSH1 0x1 PUSH1 0x2 DUP2 GT ISZERO PUSH2 0x1AB2 JUMPI PUSH2 0x1AB1 PUSH2 0x3680 JUMP JUMPDEST JUMPDEST DUP2 PUSH1 0x2 DUP2 GT ISZERO PUSH2 0x1AC5 JUMPI PUSH2 0x1AC4 PUSH2 0x3680 JUMP JUMPDEST JUMPDEST EQ ISZERO PUSH2 0x1B55 JUMPI DUP4 DUP6 GT PUSH2 0x1B0D JUMPI PUSH1 0x40 MLOAD PUSH32 0x8C379A000000000000000000000000000000000000000000000000000000000 DUP2 MSTORE PUSH1 0x4 ADD PUSH2 0x1B04 SWAP1 PUSH2 0x3D06 JUMP JUMPDEST PUSH1 0x40 MLOAD DUP1 SWAP2 SUB SWAP1 REVERT JUMPDEST DUP2 DUP6 GT ISZERO PUSH2 0x1B50 JUMPI PUSH1 0x40 MLOAD PUSH32 0x8C379A000000000000000000000000000000000000000000000000000000000 DUP2 MSTORE PUSH1 0x4 ADD PUSH2 0x1B47 SWAP1 PUSH2 0x3DBE JUMP JUMPDEST PUSH1 0x40 MLOAD DUP1 SWAP2 SUB SWAP1 REVERT JUMPDEST PUSH2 0x1BDA JUMP JUMPDEST DUP4 DUP6 GT PUSH2 0x1B97 JUMPI PUSH1 0x40 MLOAD PUSH32 0x8C379A000000000000000000000000000000000000000000000000000000000 DUP2 MSTORE PUSH1 0x4 ADD PUSH2 0x1B8E SWAP1 PUSH2 0x3E76 JUMP JUMPDEST PUSH1 0x40 MLOAD DUP1 SWAP2 SUB SWAP1 REVERT JUMPDEST DUP2 DUP6 LT PUSH2 0x1BD9 JUMPI PUSH1 0x40 MLOAD PUSH32 0x8C379A000000000000000000000000000000000000000000000000000000000 DUP2 MSTORE PUSH1 0x4 ADD PUSH2 0x1BD0 SWAP1 PUSH2 0x3F2E JUMP JUMPDEST PUSH1 0x40 MLOAD DUP1 SWAP2 SUB SWAP1 REVERT JUMPDEST JUMPDEST JUMPDEST PUSH1 0x0 DUP6 CALLVALUE PUSH1 0x6 PUSH1 0x0 CALLER PUSH20 0xFFFFFFFFFFFFFFFFFFFFFFFFFFFFFFFFFFFFFFFF AND PUSH20 0xFFFFFFFFFFFFFFFFFFFFFFFFFFFFFFFFFFFFFFFF AND DUP2 MSTORE PUSH1 0x20 ADD SWAP1 DUP2 MSTORE PUSH1 0x20 ADD PUSH1 0x0 KECCAK256 SLOAD PUSH2 0x1C29 SWAP2 SWAP1 PUSH2 0x352D JUMP JUMPDEST PUSH2 0x1C33 SWAP2 SWAP1 PUSH2 0x426B JUMP JUMPDEST SWAP1 POP DUP1 PUSH1 0x6 PUSH1 0x0 CALLER PUSH20 0xFFFFFFFFFFFFFFFFFFFFFFFFFFFFFFFFFFFFFFFF AND PUSH20 0xFFFFFFFFFFFFFFFFFFFFFFFFFFFFFFFFFFFFFFFF AND DUP2 MSTORE PUSH1 0x20 ADD SWAP1 DUP2 MSTORE PUSH1 0x20 ADD PUSH1 0x0 KECCAK256 DUP2 SWAP1 SSTORE POP PUSH1 0x0 PUSH1 0x3 PUSH1 0x0 DUP10 DUP2 MSTORE PUSH1 0x20 ADD SWAP1 DUP2 MSTORE PUSH1 0x20 ADD PUSH1 0x0 KECCAK256 SWAP1 POP PUSH2 0x1C9A PUSH1 0x1 PUSH2 0x333E JUMP JUMPDEST PUSH1 0x0 PUSH2 0x1CA6 PUSH1 0x1 PUSH2 0x3354 JUMP JUMPDEST SWAP1 POP PUSH1 0x0 PUSH1 0x40 MLOAD DUP1 PUSH1 0xA0 ADD PUSH1 0x40 MSTORE DUP1 DUP4 DUP2 MSTORE PUSH1 0x20 ADD DUP12 DUP2 MSTORE PUSH1 0x20 ADD CALLER PUSH20 0xFFFFFFFFFFFFFFFFFFFFFFFFFFFFFFFFFFFFFFFF AND DUP2 MSTORE PUSH1 0x20 ADD DUP11 DUP2 MSTORE PUSH1 0x20 ADD PUSH1 0x0 PUSH1 0x2 DUP2 GT ISZERO PUSH2 0x1CF7 JUMPI PUSH2 0x1CF6 PUSH2 0x3680 JUMP JUMPDEST JUMPDEST DUP2 MSTORE POP SWAP1 POP DUP1 PUSH1 0x2 PUSH1 0x0 DUP5 DUP2 MSTORE PUSH1 0x20 ADD SWAP1 DUP2 MSTORE PUSH1 0x20 ADD PUSH1 0x0 KECCAK256 PUSH1 0x0 DUP3 ADD MLOAD DUP2 PUSH1 0x0 ADD SSTORE PUSH1 0x20 DUP3 ADD MLOAD DUP2 PUSH1 0x1 ADD SSTORE PUSH1 0x40 DUP3 ADD MLOAD DUP2 PUSH1 0x2 ADD PUSH1 0x0 PUSH2 0x100 EXP DUP2 SLOAD DUP2 PUSH20 0xFFFFFFFFFFFFFFFFFFFFFFFFFFFFFFFFFFFFFFFF MUL NOT AND SWAP1 DUP4 PUSH20 0xFFFFFFFFFFFFFFFFFFFFFFFFFFFFFFFFFFFFFFFF AND MUL OR SWAP1 SSTORE POP PUSH1 0x60 DUP3 ADD MLOAD DUP2 PUSH1 0x3 ADD SSTORE PUSH1 0x80 DUP3 ADD MLOAD DUP2 PUSH1 0x4 ADD PUSH1 0x0 PUSH2 0x100 EXP DUP2 SLOAD DUP2 PUSH1 0xFF MUL NOT AND SWAP1 DUP4 PUSH1 0x2 DUP2 GT ISZERO PUSH2 0x1DA0 JUMPI PUSH2 0x1D9F PUSH2 0x3680 JUMP JUMPDEST JUMPDEST MUL OR SWAP1 SSTORE POP SWAP1 POP POP DUP3 DUP3 SWAP1 DUP1 PUSH1 0x1 DUP2 SLOAD ADD DUP1 DUP3 SSTORE DUP1 SWAP2 POP POP PUSH1 0x1 SWAP1 SUB SWAP1 PUSH1 0x0 MSTORE PUSH1 0x20 PUSH1 0x0 KECCAK256 ADD PUSH1 0x0 SWAP1 SWAP2 SWAP1 SWAP2 SWAP1 SWAP2 POP SSTORE DUP3 PUSH1 0x3 PUSH1 0x0 DUP13 DUP2 MSTORE PUSH1 0x20 ADD SWAP1 DUP2 MSTORE PUSH1 0x20 ADD PUSH1 0x0 KECCAK256 SWAP1 DUP1 SLOAD PUSH2 0x1DF2 SWAP3 SWAP2 SWAP1 PUSH2 0x342E JUMP JUMPDEST POP DUP2 PUSH1 0x4 PUSH1 0x0 DUP13 DUP2 MSTORE PUSH1 0x20 ADD SWAP1 DUP2 MSTORE PUSH1 0x20 ADD PUSH1 0x0 KECCAK256 DUP2 SWAP1 SSTORE POP PUSH32 0xF08F736BDCDF115BA3E0C936AE075A4DF78EDE609D99818ACB853135AD26119 DUP3 DUP12 CALLER DUP13 PUSH1 0x0 PUSH1 0x40 MLOAD PUSH2 0x1E43 SWAP6 SWAP5 SWAP4 SWAP3 SWAP2 SWAP1 PUSH2 0x3F5D JUMP JUMPDEST PUSH1 0x40 MLOAD DUP1 SWAP2 SUB SWAP1 LOG1 POP POP POP POP POP POP POP POP POP POP JUMP JUMPDEST PUSH2 0x1E5F PUSH2 0x3362 JUMP JUMPDEST PUSH20 0xFFFFFFFFFFFFFFFFFFFFFFFFFFFFFFFFFFFFFFFF AND PUSH2 0x1E7D PUSH2 0x2304 JUMP JUMPDEST PUSH20 0xFFFFFFFFFFFFFFFFFFFFFFFFFFFFFFFFFFFFFFFF AND EQ PUSH2 0x1ED3 JUMPI PUSH1 0x40 MLOAD PUSH32 0x8C379A000000000000000000000000000000000000000000000000000000000 DUP2 MSTORE PUSH1 0x4 ADD PUSH2 0x1ECA SWAP1 PUSH2 0x42EB JUMP JUMPDEST PUSH1 0x40 MLOAD DUP1 SWAP2 SUB SWAP1 REVERT JUMPDEST PUSH2 0x1EDD PUSH1 0x0 PUSH2 0x336A JUMP JUMPDEST JUMP JUMPDEST DUP3 PUSH1 0x0 PUSH1 0x9 PUSH1 0x0 SWAP1 SLOAD SWAP1 PUSH2 0x100 EXP SWAP1 DIV PUSH20 0xFFFFFFFFFFFFFFFFFFFFFFFFFFFFFFFFFFFFFFFF AND PUSH20 0xFFFFFFFFFFFFFFFFFFFFFFFFFFFFFFFFFFFFFFFF AND PUSH4 0x6352211E DUP4 PUSH1 0x40 MLOAD DUP3 PUSH4 0xFFFFFFFF AND PUSH1 0xE0 SHL DUP2 MSTORE PUSH1 0x4 ADD PUSH2 0x1F3D SWAP2 SWAP1 PUSH2 0x37E2 JUMP JUMPDEST PUSH1 0x20 PUSH1 0x40 MLOAD DUP1 DUP4 SUB DUP2 DUP7 GAS STATICCALL ISZERO DUP1 ISZERO PUSH2 0x1F5A JUMPI RETURNDATASIZE PUSH1 0x0 DUP1 RETURNDATACOPY RETURNDATASIZE PUSH1 0x0 REVERT JUMPDEST POP POP POP POP PUSH1 0x40 MLOAD RETURNDATASIZE PUSH1 0x1F NOT PUSH1 0x1F DUP3 ADD AND DUP3 ADD DUP1 PUSH1 0x40 MSTORE POP DUP2 ADD SWAP1 PUSH2 0x1F7E SWAP2 SWAP1 PUSH2 0x4320 JUMP JUMPDEST SWAP1 POP DUP1 PUSH20 0xFFFFFFFFFFFFFFFFFFFFFFFFFFFFFFFFFFFFFFFF AND CALLER PUSH20 0xFFFFFFFFFFFFFFFFFFFFFFFFFFFFFFFFFFFFFFFF AND EQ PUSH2 0x1FB8 JUMPI PUSH1 0x0 DUP1 REVERT JUMPDEST PUSH1 0x9 PUSH1 0x0 SWAP1 SLOAD SWAP1 PUSH2 0x100 EXP SWAP1 DIV PUSH20 0xFFFFFFFFFFFFFFFFFFFFFFFFFFFFFFFFFFFFFFFF AND PUSH20 0xFFFFFFFFFFFFFFFFFFFFFFFFFFFFFFFFFFFFFFFF AND PUSH4 0x23B872DD CALLER ADDRESS DUP9 PUSH1 0x40 MLOAD DUP5 PUSH4 0xFFFFFFFF AND PUSH1 0xE0 SHL DUP2 MSTORE PUSH1 0x4 ADD PUSH2 0x2017 SWAP4 SWAP3 SWAP2 SWAP1 PUSH2 0x3FB0 JUMP JUMPDEST PUSH1 0x0 PUSH1 0x40 MLOAD DUP1 DUP4 SUB DUP2 PUSH1 0x0 DUP8 DUP1 EXTCODESIZE ISZERO DUP1 ISZERO PUSH2 0x2031 JUMPI PUSH1 0x0 DUP1 REVERT JUMPDEST POP GAS CALL ISZERO DUP1 ISZERO PUSH2 0x2045 JUMPI RETURNDATASIZE PUSH1 0x0 DUP1 RETURNDATACOPY RETURNDATASIZE PUSH1 0x0 REVERT JUMPDEST POP POP POP POP CALLER PUSH1 0x8 PUSH1 0x0 DUP8 DUP2 MSTORE PUSH1 0x20 ADD SWAP1 DUP2 MSTORE PUSH1 0x20 ADD PUSH1 0x0 KECCAK256 PUSH1 0x0 PUSH2 0x100 EXP DUP2 SLOAD DUP2 PUSH20 0xFFFFFFFFFFFFFFFFFFFFFFFFFFFFFFFFFFFFFFFF MUL NOT AND SWAP1 DUP4 PUSH20 0xFFFFFFFFFFFFFFFFFFFFFFFFFFFFFFFFFFFFFFFF AND MUL OR SWAP1 SSTORE POP PUSH1 0x0 DUP4 EQ ISZERO PUSH2 0x20E5 JUMPI PUSH1 0x0 PUSH1 0x7 PUSH1 0x0 DUP8 DUP2 MSTORE PUSH1 0x20 ADD SWAP1 DUP2 MSTORE PUSH1 0x20 ADD PUSH1 0x0 KECCAK256 PUSH1 0x0 PUSH2 0x100 EXP DUP2 SLOAD DUP2 PUSH1 0xFF MUL NOT AND SWAP1 DUP4 PUSH1 0x2 DUP2 GT ISZERO PUSH2 0x20DB JUMPI PUSH2 0x20DA PUSH2 0x3680 JUMP JUMPDEST JUMPDEST MUL OR SWAP1 SSTORE POP PUSH2 0x216D JUMP JUMPDEST PUSH1 0x1 DUP4 EQ ISZERO PUSH2 0x212F JUMPI PUSH1 0x1 PUSH1 0x7 PUSH1 0x0 DUP8 DUP2 MSTORE PUSH1 0x20 ADD SWAP1 DUP2 MSTORE PUSH1 0x20 ADD PUSH1 0x0 KECCAK256 PUSH1 0x0 PUSH2 0x100 EXP DUP2 SLOAD DUP2 PUSH1 0xFF MUL NOT AND SWAP1 DUP4 PUSH1 0x2 DUP2 GT ISZERO PUSH2 0x2125 JUMPI PUSH2 0x2124 PUSH2 0x3680 JUMP JUMPDEST JUMPDEST MUL OR SWAP1 SSTORE POP PUSH2 0x216C JUMP JUMPDEST PUSH1 0x2 PUSH1 0x7 PUSH1 0x0 DUP8 DUP2 MSTORE PUSH1 0x20 ADD SWAP1 DUP2 MSTORE PUSH1 0x20 ADD PUSH1 0x0 KECCAK256 PUSH1 0x0 PUSH2 0x100 EXP DUP2 SLOAD DUP2 PUSH1 0xFF MUL NOT AND SWAP1 DUP4 PUSH1 0x2 DUP2 GT ISZERO PUSH2 0x2166 JUMPI PUSH2 0x2165 PUSH2 0x3680 JUMP JUMPDEST JUMPDEST MUL OR SWAP1 SSTORE POP JUMPDEST JUMPDEST DUP4 PUSH1 0x5 PUSH1 0x0 DUP8 DUP2 MSTORE PUSH1 0x20 ADD SWAP1 DUP2 MSTORE PUSH1 0x20 ADD PUSH1 0x0 KECCAK256 DUP2 SWAP1 SSTORE POP POP POP POP POP POP JUMP JUMPDEST DUP2 PUSH1 0x0 PUSH1 0x8 PUSH1 0x0 DUP4 DUP2 MSTORE PUSH1 0x20 ADD SWAP1 DUP2 MSTORE PUSH1 0x20 ADD PUSH1 0x0 KECCAK256 PUSH1 0x0 SWAP1 SLOAD SWAP1 PUSH2 0x100 EXP SWAP1 DIV PUSH20 0xFFFFFFFFFFFFFFFFFFFFFFFFFFFFFFFFFFFFFFFF AND SWAP1 POP DUP1 PUSH20 0xFFFFFFFFFFFFFFFFFFFFFFFFFFFFFFFFFFFFFFFF AND CALLER PUSH20 0xFFFFFFFFFFFFFFFFFFFFFFFFFFFFFFFFFFFFFFFF AND EQ PUSH2 0x21FD JUMPI PUSH1 0x0 DUP1 REVERT JUMPDEST PUSH1 0x0 PUSH1 0x7 PUSH1 0x0 DUP7 DUP2 MSTORE PUSH1 0x20 ADD SWAP1 DUP2 MSTORE PUSH1 0x20 ADD PUSH1 0x0 KECCAK256 PUSH1 0x0 SWAP1 SLOAD SWAP1 PUSH2 0x100 EXP SWAP1 DIV PUSH1 0xFF AND SWAP1 POP PUSH1 0x1 PUSH1 0x2 DUP2 GT ISZERO PUSH2 0x2236 JUMPI PUSH2 0x2235 PUSH2 0x3680 JUMP JUMPDEST JUMPDEST DUP2 PUSH1 0x2 DUP2 GT ISZERO PUSH2 0x2249 JUMPI PUSH2 0x2248 PUSH2 0x3680 JUMP JUMPDEST JUMPDEST EQ PUSH2 0x2289 JUMPI PUSH1 0x40 MLOAD PUSH32 0x8C379A000000000000000000000000000000000000000000000000000000000 DUP2 MSTORE PUSH1 0x4 ADD PUSH2 0x2280 SWAP1 PUSH2 0x43BF JUMP JUMPDEST PUSH1 0x40 MLOAD DUP1 SWAP2 SUB SWAP1 REVERT JUMPDEST PUSH1 0x0 PUSH1 0x5 PUSH1 0x0 DUP8 DUP2 MSTORE PUSH1 0x20 ADD SWAP1 DUP2 MSTORE PUSH1 0x20 ADD PUSH1 0x0 KECCAK256 SLOAD SWAP1 POP DUP1 DUP6 GT ISZERO PUSH2 0x22E4 JUMPI PUSH1 0x40 MLOAD PUSH32 0x8C379A000000000000000000000000000000000000000000000000000000000 DUP2 MSTORE PUSH1 0x4 ADD PUSH2 0x22DB SWAP1 PUSH2 0x4477 JUMP JUMPDEST PUSH1 0x40 MLOAD DUP1 SWAP2 SUB SWAP1 REVERT JUMPDEST DUP5 PUSH1 0x5 PUSH1 0x0 DUP9 DUP2 MSTORE PUSH1 0x20 ADD SWAP1 DUP2 MSTORE PUSH1 0x20 ADD PUSH1 0x0 KECCAK256 DUP2 SWAP1 SSTORE POP POP POP POP POP POP POP JUMP JUMPDEST PUSH1 0x0 DUP1 PUSH1 0x0 SWAP1 SLOAD SWAP1 PUSH2 0x100 EXP SWAP1 DIV PUSH20 0xFFFFFFFFFFFFFFFFFFFFFFFFFFFFFFFFFFFFFFFF AND SWAP1 POP SWAP1 JUMP JUMPDEST PUSH1 0x60 PUSH1 0x0 PUSH1 0x9 PUSH1 0x0 SWAP1 SLOAD SWAP1 PUSH2 0x100 EXP SWAP1 DIV PUSH20 0xFFFFFFFFFFFFFFFFFFFFFFFFFFFFFFFFFFFFFFFF AND PUSH20 0xFFFFFFFFFFFFFFFFFFFFFFFFFFFFFFFFFFFFFFFF AND PUSH4 0xC87B56DD DUP5 PUSH1 0x40 MLOAD DUP3 PUSH4 0xFFFFFFFF AND PUSH1 0xE0 SHL DUP2 MSTORE PUSH1 0x4 ADD PUSH2 0x238C SWAP2 SWAP1 PUSH2 0x37E2 JUMP JUMPDEST PUSH1 0x0 PUSH1 0x40 MLOAD DUP1 DUP4 SUB DUP2 DUP7 GAS STATICCALL ISZERO DUP1 ISZERO PUSH2 0x23A9 JUMPI RETURNDATASIZE PUSH1 0x0 DUP1 RETURNDATACOPY RETURNDATASIZE PUSH1 0x0 REVERT JUMPDEST POP POP POP POP PUSH1 0x40 MLOAD RETURNDATASIZE PUSH1 0x0 DUP3 RETURNDATACOPY RETURNDATASIZE PUSH1 0x1F NOT PUSH1 0x1F DUP3 ADD AND DUP3 ADD DUP1 PUSH1 0x40 MSTORE POP DUP2 ADD SWAP1 PUSH2 0x23D2 SWAP2 SWAP1 PUSH2 0x45BD JUMP JUMPDEST SWAP1 POP DUP1 SWAP2 POP POP SWAP2 SWAP1 POP JUMP JUMPDEST PUSH2 0x23E5 PUSH2 0x3480 JUMP JUMPDEST PUSH1 0x0 PUSH1 0x2 PUSH1 0x0 DUP5 DUP2 MSTORE PUSH1 0x20 ADD SWAP1 DUP2 MSTORE PUSH1 0x20 ADD PUSH1 0x0 KECCAK256 PUSH1 0x40 MLOAD DUP1 PUSH1 0xA0 ADD PUSH1 0x40 MSTORE SWAP1 DUP2 PUSH1 0x0 DUP3 ADD SLOAD DUP2 MSTORE PUSH1 0x20 ADD PUSH1 0x1 DUP3 ADD SLOAD DUP2 MSTORE PUSH1 0x20 ADD PUSH1 0x2 DUP3 ADD PUSH1 0x0 SWAP1 SLOAD SWAP1 PUSH2 0x100 EXP SWAP1 DIV PUSH20 0xFFFFFFFFFFFFFFFFFFFFFFFFFFFFFFFFFFFFFFFF AND PUSH20 0xFFFFFFFFFFFFFFFFFFFFFFFFFFFFFFFFFFFFFFFF AND PUSH20 0xFFFFFFFFFFFFFFFFFFFFFFFFFFFFFFFFFFFFFFFF AND DUP2 MSTORE PUSH1 0x20 ADD PUSH1 0x3 DUP3 ADD SLOAD DUP2 MSTORE PUSH1 0x20 ADD PUSH1 0x4 DUP3 ADD PUSH1 0x0 SWAP1 SLOAD SWAP1 PUSH2 0x100 EXP SWAP1 DIV PUSH1 0xFF AND PUSH1 0x2 DUP2 GT ISZERO PUSH2 0x249E JUMPI PUSH2 0x249D PUSH2 0x3680 JUMP JUMPDEST JUMPDEST PUSH1 0x2 DUP2 GT ISZERO PUSH2 0x24B0 JUMPI PUSH2 0x24AF PUSH2 0x3680 JUMP JUMPDEST JUMPDEST DUP2 MSTORE POP POP SWAP1 POP DUP1 SWAP2 POP POP SWAP2 SWAP1 POP JUMP JUMPDEST PUSH1 0x0 PUSH1 0x6 PUSH1 0x0 CALLER PUSH20 0xFFFFFFFFFFFFFFFFFFFFFFFFFFFFFFFFFFFFFFFF AND PUSH20 0xFFFFFFFFFFFFFFFFFFFFFFFFFFFFFFFFFFFFFFFF AND DUP2 MSTORE PUSH1 0x20 ADD SWAP1 DUP2 MSTORE PUSH1 0x20 ADD PUSH1 0x0 KECCAK256 SLOAD GT PUSH2 0x2541 JUMPI PUSH1 0x40 MLOAD PUSH32 0x8C379A000000000000000000000000000000000000000000000000000000000 DUP2 MSTORE PUSH1 0x4 ADD PUSH2 0x2538 SWAP1 PUSH2 0x4678 JUMP JUMPDEST PUSH1 0x40 MLOAD DUP1 SWAP2 SUB SWAP1 REVERT JUMPDEST CALLER PUSH20 0xFFFFFFFFFFFFFFFFFFFFFFFFFFFFFFFFFFFFFFFF AND PUSH2 0x8FC PUSH1 0x6 PUSH1 0x0 CALLER PUSH20 0xFFFFFFFFFFFFFFFFFFFFFFFFFFFFFFFFFFFFFFFF AND PUSH20 0xFFFFFFFFFFFFFFFFFFFFFFFFFFFFFFFFFFFFFFFF AND DUP2 MSTORE PUSH1 0x20 ADD SWAP1 DUP2 MSTORE PUSH1 0x20 ADD PUSH1 0x0 KECCAK256 SLOAD SWAP1 DUP2 ISZERO MUL SWAP1 PUSH1 0x40 MLOAD PUSH1 0x0 PUSH1 0x40 MLOAD DUP1 DUP4 SUB DUP2 DUP6 DUP9 DUP9 CALL SWAP4 POP POP POP POP ISZERO DUP1 ISZERO PUSH2 0x25C6 JUMPI RETURNDATASIZE PUSH1 0x0 DUP1 RETURNDATACOPY RETURNDATASIZE PUSH1 0x0 REVERT JUMPDEST POP PUSH1 0x0 PUSH1 0x6 PUSH1 0x0 CALLER PUSH20 0xFFFFFFFFFFFFFFFFFFFFFFFFFFFFFFFFFFFFFFFF AND PUSH20 0xFFFFFFFFFFFFFFFFFFFFFFFFFFFFFFFFFFFFFFFF AND DUP2 MSTORE PUSH1 0x20 ADD SWAP1 DUP2 MSTORE PUSH1 0x20 ADD PUSH1 0x0 KECCAK256 DUP2 SWAP1 SSTORE POP PUSH32 0x4F0554190111F93F8C2CCEF2CC41473F187D7F29FF5A5C308CA41F9DFE4E989A CALLER PUSH1 0x6 PUSH1 0x0 CALLER PUSH20 0xFFFFFFFFFFFFFFFFFFFFFFFFFFFFFFFFFFFFFFFF AND PUSH20 0xFFFFFFFFFFFFFFFFFFFFFFFFFFFFFFFFFFFFFFFF AND DUP2 MSTORE PUSH1 0x20 ADD SWAP1 DUP2 MSTORE PUSH1 0x20 ADD PUSH1 0x0 KECCAK256 SLOAD PUSH1 0x40 MLOAD PUSH2 0x267C SWAP3 SWAP2 SWAP1 PUSH2 0x4242 JUMP JUMPDEST PUSH1 0x40 MLOAD DUP1 SWAP2 SUB SWAP1 LOG1 JUMP JUMPDEST DUP1 PUSH1 0x0 PUSH1 0x8 PUSH1 0x0 DUP4 DUP2 MSTORE PUSH1 0x20 ADD SWAP1 DUP2 MSTORE PUSH1 0x20 ADD PUSH1 0x0 KECCAK256 PUSH1 0x0 SWAP1 SLOAD SWAP1 PUSH2 0x100 EXP SWAP1 DIV PUSH20 0xFFFFFFFFFFFFFFFFFFFFFFFFFFFFFFFFFFFFFFFF AND SWAP1 POP DUP1 PUSH20 0xFFFFFFFFFFFFFFFFFFFFFFFFFFFFFFFFFFFFFFFF AND CALLER PUSH20 0xFFFFFFFFFFFFFFFFFFFFFFFFFFFFFFFFFFFFFFFF AND EQ PUSH2 0x26F7 JUMPI PUSH1 0x0 DUP1 REVERT JUMPDEST PUSH1 0x0 PUSH1 0x3 PUSH1 0x0 DUP6 DUP2 MSTORE PUSH1 0x20 ADD SWAP1 DUP2 MSTORE PUSH1 0x20 ADD PUSH1 0x0 KECCAK256 DUP1 SLOAD DUP1 PUSH1 0x20 MUL PUSH1 0x20 ADD PUSH1 0x40 MLOAD SWAP1 DUP2 ADD PUSH1 0x40 MSTORE DUP1 SWAP3 SWAP2 SWAP1 DUP2 DUP2 MSTORE PUSH1 0x20 ADD DUP3 DUP1 SLOAD DUP1 ISZERO PUSH2 0x2756 JUMPI PUSH1 0x20 MUL DUP3 ADD SWAP2 SWAP1 PUSH1 0x0 MSTORE PUSH1 0x20 PUSH1 0x0 KECCAK256 SWAP1 JUMPDEST DUP2 SLOAD DUP2 MSTORE PUSH1 0x20 ADD SWAP1 PUSH1 0x1 ADD SWAP1 DUP1 DUP4 GT PUSH2 0x2742 JUMPI JUMPDEST POP POP POP POP POP SWAP1 POP PUSH1 0x0 JUMPDEST DUP2 MLOAD DUP2 LT ISZERO PUSH2 0x29AF JUMPI PUSH1 0x0 DUP3 DUP3 DUP2 MLOAD DUP2 LT PUSH2 0x277E JUMPI PUSH2 0x277D PUSH2 0x3FE7 JUMP JUMPDEST JUMPDEST PUSH1 0x20 MUL PUSH1 0x20 ADD ADD MLOAD SWAP1 POP PUSH1 0x0 PUSH1 0x2 PUSH1 0x0 DUP4 DUP2 MSTORE PUSH1 0x20 ADD SWAP1 DUP2 MSTORE PUSH1 0x20 ADD PUSH1 0x0 KECCAK256 PUSH1 0x40 MLOAD DUP1 PUSH1 0xA0 ADD PUSH1 0x40 MSTORE SWAP1 DUP2 PUSH1 0x0 DUP3 ADD SLOAD DUP2 MSTORE PUSH1 0x20 ADD PUSH1 0x1 DUP3 ADD SLOAD DUP2 MSTORE PUSH1 0x20 ADD PUSH1 0x2 DUP3 ADD PUSH1 0x0 SWAP1 SLOAD SWAP1 PUSH2 0x100 EXP SWAP1 DIV PUSH20 0xFFFFFFFFFFFFFFFFFFFFFFFFFFFFFFFFFFFFFFFF AND PUSH20 0xFFFFFFFFFFFFFFFFFFFFFFFFFFFFFFFFFFFFFFFF AND PUSH20 0xFFFFFFFFFFFFFFFFFFFFFFFFFFFFFFFFFFFFFFFF AND DUP2 MSTORE PUSH1 0x20 ADD PUSH1 0x3 DUP3 ADD SLOAD DUP2 MSTORE PUSH1 0x20 ADD PUSH1 0x4 DUP3 ADD PUSH1 0x0 SWAP1 SLOAD SWAP1 PUSH2 0x100 EXP SWAP1 DIV PUSH1 0xFF AND PUSH1 0x2 DUP2 GT ISZERO PUSH2 0x2841 JUMPI PUSH2 0x2840 PUSH2 0x3680 JUMP JUMPDEST JUMPDEST PUSH1 0x2 DUP2 GT ISZERO PUSH2 0x2853 JUMPI PUSH2 0x2852 PUSH2 0x3680 JUMP JUMPDEST JUMPDEST DUP2 MSTORE POP POP SWAP1 POP PUSH1 0x0 PUSH1 0x2 DUP2 GT ISZERO PUSH2 0x286D JUMPI PUSH2 0x286C PUSH2 0x3680 JUMP JUMPDEST JUMPDEST DUP2 PUSH1 0x80 ADD MLOAD PUSH1 0x2 DUP2 GT ISZERO PUSH2 0x2884 JUMPI PUSH2 0x2883 PUSH2 0x3680 JUMP JUMPDEST JUMPDEST EQ PUSH2 0x28C4 JUMPI PUSH1 0x40 MLOAD PUSH32 0x8C379A000000000000000000000000000000000000000000000000000000000 DUP2 MSTORE PUSH1 0x4 ADD PUSH2 0x28BB SWAP1 PUSH2 0x4062 JUMP JUMPDEST PUSH1 0x40 MLOAD DUP1 SWAP2 SUB SWAP1 REVERT JUMPDEST PUSH1 0x2 DUP2 PUSH1 0x80 ADD SWAP1 PUSH1 0x2 DUP2 GT ISZERO PUSH2 0x28DD JUMPI PUSH2 0x28DC PUSH2 0x3680 JUMP JUMPDEST JUMPDEST SWAP1 DUP2 PUSH1 0x2 DUP2 GT ISZERO PUSH2 0x28F1 JUMPI PUSH2 0x28F0 PUSH2 0x3680 JUMP JUMPDEST JUMPDEST DUP2 MSTORE POP POP DUP1 PUSH1 0x60 ADD MLOAD PUSH1 0x6 PUSH1 0x0 DUP4 PUSH1 0x40 ADD MLOAD PUSH20 0xFFFFFFFFFFFFFFFFFFFFFFFFFFFFFFFFFFFFFFFF AND PUSH20 0xFFFFFFFFFFFFFFFFFFFFFFFFFFFFFFFFFFFFFFFF AND DUP2 MSTORE PUSH1 0x20 ADD SWAP1 DUP2 MSTORE PUSH1 0x20 ADD PUSH1 0x0 KECCAK256 PUSH1 0x0 DUP3 DUP3 SLOAD PUSH2 0x294C SWAP2 SWAP1 PUSH2 0x352D JUMP JUMPDEST SWAP3 POP POP DUP2 SWAP1 SSTORE POP PUSH32 0x5B166B4D0498FF8C4719999CB6154C5D197E6F020F9FBFCF9D347F84576CFAB7 DUP2 PUSH1 0x0 ADD MLOAD DUP3 PUSH1 0x20 ADD MLOAD DUP4 PUSH1 0x40 ADD MLOAD PUSH1 0x40 MLOAD PUSH2 0x2992 SWAP4 SWAP3 SWAP2 SWAP1 PUSH2 0x4082 JUMP JUMPDEST PUSH1 0x40 MLOAD DUP1 SWAP2 SUB SWAP1 LOG1 POP POP DUP1 DUP1 PUSH2 0x29A7 SWAP1 PUSH2 0x40B9 JUMP JUMPDEST SWAP2 POP POP PUSH2 0x2760 JUMP JUMPDEST POP POP POP POP POP JUMP JUMPDEST PUSH1 0x0 DUP1 PUSH1 0x6 PUSH1 0x0 DUP5 PUSH20 0xFFFFFFFFFFFFFFFFFFFFFFFFFFFFFFFFFFFFFFFF AND PUSH20 0xFFFFFFFFFFFFFFFFFFFFFFFFFFFFFFFFFFFFFFFF AND DUP2 MSTORE PUSH1 0x20 ADD SWAP1 DUP2 MSTORE PUSH1 0x20 ADD PUSH1 0x0 KECCAK256 SLOAD SWAP1 POP DUP1 SWAP2 POP POP SWAP2 SWAP1 POP JUMP JUMPDEST DUP2 PUSH1 0x0 PUSH1 0x8 PUSH1 0x0 DUP4 DUP2 MSTORE PUSH1 0x20 ADD SWAP1 DUP2 MSTORE PUSH1 0x20 ADD PUSH1 0x0 KECCAK256 PUSH1 0x0 SWAP1 SLOAD SWAP1 PUSH2 0x100 EXP SWAP1 DIV PUSH20 0xFFFFFFFFFFFFFFFFFFFFFFFFFFFFFFFFFFFFFFFF AND SWAP1 POP DUP1 PUSH20 0xFFFFFFFFFFFFFFFFFFFFFFFFFFFFFFFFFFFFFFFF AND CALLER PUSH20 0xFFFFFFFFFFFFFFFFFFFFFFFFFFFFFFFFFFFFFFFF AND EQ PUSH2 0x2A75 JUMPI PUSH1 0x0 DUP1 REVERT JUMPDEST PUSH1 0x0 PUSH1 0x7 PUSH1 0x0 DUP7 DUP2 MSTORE PUSH1 0x20 ADD SWAP1 DUP2 MSTORE PUSH1 0x20 ADD PUSH1 0x0 KECCAK256 PUSH1 0x0 SWAP1 SLOAD SWAP1 PUSH2 0x100 EXP SWAP1 DIV PUSH1 0xFF AND SWAP1 POP PUSH1 0x2 DUP1 DUP2 GT ISZERO PUSH2 0x2AAD JUMPI PUSH2 0x2AAC PUSH2 0x3680 JUMP JUMPDEST JUMPDEST DUP2 PUSH1 0x2 DUP2 GT ISZERO PUSH2 0x2AC0 JUMPI PUSH2 0x2ABF PUSH2 0x3680 JUMP JUMPDEST JUMPDEST EQ PUSH2 0x2ACA JUMPI PUSH1 0x0 DUP1 REVERT JUMPDEST DUP4 PUSH1 0x5 PUSH1 0x0 DUP8 DUP2 MSTORE PUSH1 0x20 ADD SWAP1 DUP2 MSTORE PUSH1 0x20 ADD PUSH1 0x0 KECCAK256 DUP2 SWAP1 SSTORE POP POP POP POP POP POP JUMP JUMPDEST PUSH1 0x0 DUP1 PUSH1 0x9 PUSH1 0x0 SWAP1 SLOAD SWAP1 PUSH2 0x100 EXP SWAP1 DIV PUSH20 0xFFFFFFFFFFFFFFFFFFFFFFFFFFFFFFFFFFFFFFFF AND PUSH20 0xFFFFFFFFFFFFFFFFFFFFFFFFFFFFFFFFFFFFFFFF AND PUSH4 0x6352211E DUP5 PUSH1 0x40 MLOAD DUP3 PUSH4 0xFFFFFFFF AND PUSH1 0xE0 SHL DUP2 MSTORE PUSH1 0x4 ADD PUSH2 0x2B47 SWAP2 SWAP1 PUSH2 0x37E2 JUMP JUMPDEST PUSH1 0x20 PUSH1 0x40 MLOAD DUP1 DUP4 SUB DUP2 DUP7 GAS STATICCALL ISZERO DUP1 ISZERO PUSH2 0x2B64 JUMPI RETURNDATASIZE PUSH1 0x0 DUP1 RETURNDATACOPY RETURNDATASIZE PUSH1 0x0 REVERT JUMPDEST POP POP POP POP PUSH1 0x40 MLOAD RETURNDATASIZE PUSH1 0x1F NOT PUSH1 0x1F DUP3 ADD AND DUP3 ADD DUP1 PUSH1 0x40 MSTORE POP DUP2 ADD SWAP1 PUSH2 0x2B88 SWAP2 SWAP1 PUSH2 0x4320 JUMP JUMPDEST SWAP1 POP DUP1 SWAP2 POP POP SWAP2 SWAP1 POP JUMP JUMPDEST PUSH1 0x60 PUSH1 0x0 PUSH1 0x3 PUSH1 0x0 DUP5 DUP2 MSTORE PUSH1 0x20 ADD SWAP1 DUP2 MSTORE PUSH1 0x20 ADD PUSH1 0x0 KECCAK256 DUP1 SLOAD DUP1 PUSH1 0x20 MUL PUSH1 0x20 ADD PUSH1 0x40 MLOAD SWAP1 DUP2 ADD PUSH1 0x40 MSTORE DUP1 SWAP3 SWAP2 SWAP1 DUP2 DUP2 MSTORE PUSH1 0x20 ADD DUP3 DUP1 SLOAD DUP1 ISZERO PUSH2 0x2BF4 JUMPI PUSH1 0x20 MUL DUP3 ADD SWAP2 SWAP1 PUSH1 0x0 MSTORE PUSH1 0x20 PUSH1 0x0 KECCAK256 SWAP1 JUMPDEST DUP2 SLOAD DUP2 MSTORE PUSH1 0x20 ADD SWAP1 PUSH1 0x1 ADD SWAP1 DUP1 DUP4 GT PUSH2 0x2BE0 JUMPI JUMPDEST POP POP POP POP POP SWAP1 POP DUP1 SWAP2 POP POP SWAP2 SWAP1 POP JUMP JUMPDEST DUP1 PUSH1 0x0 PUSH1 0x8 PUSH1 0x0 DUP4 DUP2 MSTORE PUSH1 0x20 ADD SWAP1 DUP2 MSTORE PUSH1 0x20 ADD PUSH1 0x0 KECCAK256 PUSH1 0x0 SWAP1 SLOAD SWAP1 PUSH2 0x100 EXP SWAP1 DIV PUSH20 0xFFFFFFFFFFFFFFFFFFFFFFFFFFFFFFFFFFFFFFFF AND SWAP1 POP DUP1 PUSH20 0xFFFFFFFFFFFFFFFFFFFFFFFFFFFFFFFFFFFFFFFF AND CALLER PUSH20 0xFFFFFFFFFFFFFFFFFFFFFFFFFFFFFFFFFFFFFFFF AND EQ PUSH2 0x2C75 JUMPI PUSH1 0x0 DUP1 REVERT JUMPDEST PUSH1 0x0 PUSH1 0x2 PUSH1 0x0 DUP7 DUP2 MSTORE PUSH1 0x20 ADD SWAP1 DUP2 MSTORE PUSH1 0x20 ADD PUSH1 0x0 KECCAK256 SWAP1 POP DUP5 DUP2 PUSH1 0x0 ADD SLOAD EQ PUSH2 0x2CD2 JUMPI PUSH1 0x40 MLOAD PUSH32 0x8C379A000000000000000000000000000000000000000000000000000000000 DUP2 MSTORE PUSH1 0x4 ADD PUSH2 0x2CC9 SWAP1 PUSH2 0x41E0 JUMP JUMPDEST PUSH1 0x40 MLOAD DUP1 SWAP2 SUB SWAP1 REVERT JUMPDEST PUSH1 0x0 PUSH1 0x2 DUP2 GT ISZERO PUSH2 0x2CE6 JUMPI PUSH2 0x2CE5 PUSH2 0x3680 JUMP JUMPDEST JUMPDEST DUP2 PUSH1 0x4 ADD PUSH1 0x0 SWAP1 SLOAD SWAP1 PUSH2 0x100 EXP SWAP1 DIV PUSH1 0xFF AND PUSH1 0x2 DUP2 GT ISZERO PUSH2 0x2D0A JUMPI PUSH2 0x2D09 PUSH2 0x3680 JUMP JUMPDEST JUMPDEST EQ PUSH2 0x2D4A JUMPI PUSH1 0x40 MLOAD PUSH32 0x8C379A000000000000000000000000000000000000000000000000000000000 DUP2 MSTORE PUSH1 0x4 ADD PUSH2 0x2D41 SWAP1 PUSH2 0x4062 JUMP JUMPDEST PUSH1 0x40 MLOAD DUP1 SWAP2 SUB SWAP1 REVERT JUMPDEST PUSH1 0x9 PUSH1 0x0 SWAP1 SLOAD SWAP1 PUSH2 0x100 EXP SWAP1 DIV PUSH20 0xFFFFFFFFFFFFFFFFFFFFFFFFFFFFFFFFFFFFFFFF AND PUSH20 0xFFFFFFFFFFFFFFFFFFFFFFFFFFFFFFFFFFFFFFFF AND PUSH4 0x23B872DD ADDRESS DUP4 PUSH1 0x2 ADD PUSH1 0x0 SWAP1 SLOAD SWAP1 PUSH2 0x100 EXP SWAP1 DIV PUSH20 0xFFFFFFFFFFFFFFFFFFFFFFFFFFFFFFFFFFFFFFFF AND DUP5 PUSH1 0x1 ADD SLOAD PUSH1 0x40 MLOAD DUP5 PUSH4 0xFFFFFFFF AND PUSH1 0xE0 SHL DUP2 MSTORE PUSH1 0x4 ADD PUSH2 0x2DD1 SWAP4 SWAP3 SWAP2 SWAP1 PUSH2 0x3FB0 JUMP JUMPDEST PUSH1 0x0 PUSH1 0x40 MLOAD DUP1 DUP4 SUB DUP2 PUSH1 0x0 DUP8 DUP1 EXTCODESIZE ISZERO DUP1 ISZERO PUSH2 0x2DEB JUMPI PUSH1 0x0 DUP1 REVERT JUMPDEST POP GAS CALL ISZERO DUP1 ISZERO PUSH2 0x2DFF JUMPI RETURNDATASIZE PUSH1 0x0 DUP1 RETURNDATACOPY RETURNDATASIZE PUSH1 0x0 REVERT JUMPDEST POP POP POP POP PUSH1 0x1 DUP2 PUSH1 0x4 ADD PUSH1 0x0 PUSH2 0x100 EXP DUP2 SLOAD DUP2 PUSH1 0xFF MUL NOT AND SWAP1 DUP4 PUSH1 0x2 DUP2 GT ISZERO PUSH2 0x2E2B JUMPI PUSH2 0x2E2A PUSH2 0x3680 JUMP JUMPDEST JUMPDEST MUL OR SWAP1 SSTORE POP PUSH1 0x0 PUSH1 0x8 PUSH1 0x0 DUP7 DUP2 MSTORE PUSH1 0x20 ADD SWAP1 DUP2 MSTORE PUSH1 0x20 ADD PUSH1 0x0 KECCAK256 PUSH1 0x0 SWAP1 SLOAD SWAP1 PUSH2 0x100 EXP SWAP1 DIV PUSH20 0xFFFFFFFFFFFFFFFFFFFFFFFFFFFFFFFFFFFFFFFF AND SWAP1 POP DUP2 PUSH1 0x3 ADD SLOAD PUSH1 0x6 PUSH1 0x0 DUP4 PUSH20 0xFFFFFFFFFFFFFFFFFFFFFFFFFFFFFFFFFFFFFFFF AND PUSH20 0xFFFFFFFFFFFFFFFFFFFFFFFFFFFFFFFFFFFFFFFF AND DUP2 MSTORE PUSH1 0x20 ADD SWAP1 DUP2 MSTORE PUSH1 0x20 ADD PUSH1 0x0 KECCAK256 PUSH1 0x0 DUP3 DUP3 SLOAD PUSH2 0x2EBB SWAP2 SWAP1 PUSH2 0x352D JUMP JUMPDEST SWAP3 POP POP DUP2 SWAP1 SSTORE POP PUSH1 0x0 PUSH1 0x3 PUSH1 0x0 DUP8 DUP2 MSTORE PUSH1 0x20 ADD SWAP1 DUP2 MSTORE PUSH1 0x20 ADD PUSH1 0x0 KECCAK256 DUP1 SLOAD DUP1 PUSH1 0x20 MUL PUSH1 0x20 ADD PUSH1 0x40 MLOAD SWAP1 DUP2 ADD PUSH1 0x40 MSTORE DUP1 SWAP3 SWAP2 SWAP1 DUP2 DUP2 MSTORE PUSH1 0x20 ADD DUP3 DUP1 SLOAD DUP1 ISZERO PUSH2 0x2F21 JUMPI PUSH1 0x20 MUL DUP3 ADD SWAP2 SWAP1 PUSH1 0x0 MSTORE PUSH1 0x20 PUSH1 0x0 KECCAK256 SWAP1 JUMPDEST DUP2 SLOAD DUP2 MSTORE PUSH1 0x20 ADD SWAP1 PUSH1 0x1 ADD SWAP1 DUP1 DUP4 GT PUSH2 0x2F0D JUMPI JUMPDEST POP POP POP POP POP SWAP1 POP PUSH1 0x0 JUMPDEST DUP2 MLOAD DUP2 LT ISZERO PUSH2 0x3186 JUMPI PUSH1 0x0 DUP3 DUP3 DUP2 MLOAD DUP2 LT PUSH2 0x2F49 JUMPI PUSH2 0x2F48 PUSH2 0x3FE7 JUMP JUMPDEST JUMPDEST PUSH1 0x20 MUL PUSH1 0x20 ADD ADD MLOAD SWAP1 POP PUSH1 0x0 PUSH1 0x2 PUSH1 0x0 DUP4 DUP2 MSTORE PUSH1 0x20 ADD SWAP1 DUP2 MSTORE PUSH1 0x20 ADD PUSH1 0x0 KECCAK256 PUSH1 0x40 MLOAD DUP1 PUSH1 0xA0 ADD PUSH1 0x40 MSTORE SWAP1 DUP2 PUSH1 0x0 DUP3 ADD SLOAD DUP2 MSTORE PUSH1 0x20 ADD PUSH1 0x1 DUP3 ADD SLOAD DUP2 MSTORE PUSH1 0x20 ADD PUSH1 0x2 DUP3 ADD PUSH1 0x0 SWAP1 SLOAD SWAP1 PUSH2 0x100 EXP SWAP1 DIV PUSH20 0xFFFFFFFFFFFFFFFFFFFFFFFFFFFFFFFFFFFFFFFF AND PUSH20 0xFFFFFFFFFFFFFFFFFFFFFFFFFFFFFFFFFFFFFFFF AND PUSH20 0xFFFFFFFFFFFFFFFFFFFFFFFFFFFFFFFFFFFFFFFF AND DUP2 MSTORE PUSH1 0x20 ADD PUSH1 0x3 DUP3 ADD SLOAD DUP2 MSTORE PUSH1 0x20 ADD PUSH1 0x4 DUP3 ADD PUSH1 0x0 SWAP1 SLOAD SWAP1 PUSH2 0x100 EXP SWAP1 DIV PUSH1 0xFF AND PUSH1 0x2 DUP2 GT ISZERO PUSH2 0x300C JUMPI PUSH2 0x300B PUSH2 0x3680 JUMP JUMPDEST JUMPDEST PUSH1 0x2 DUP2 GT ISZERO PUSH2 0x301E JUMPI PUSH2 0x301D PUSH2 0x3680 JUMP JUMPDEST JUMPDEST DUP2 MSTORE POP POP SWAP1 POP DUP10 DUP2 PUSH1 0x0 ADD MLOAD EQ PUSH2 0x3171 JUMPI PUSH1 0x0 PUSH1 0x2 DUP2 GT ISZERO PUSH2 0x3043 JUMPI PUSH2 0x3042 PUSH2 0x3680 JUMP JUMPDEST JUMPDEST DUP2 PUSH1 0x80 ADD MLOAD PUSH1 0x2 DUP2 GT ISZERO PUSH2 0x305A JUMPI PUSH2 0x3059 PUSH2 0x3680 JUMP JUMPDEST JUMPDEST EQ PUSH2 0x309A JUMPI PUSH1 0x40 MLOAD PUSH32 0x8C379A000000000000000000000000000000000000000000000000000000000 DUP2 MSTORE PUSH1 0x4 ADD PUSH2 0x3091 SWAP1 PUSH2 0x4062 JUMP JUMPDEST PUSH1 0x40 MLOAD DUP1 SWAP2 SUB SWAP1 REVERT JUMPDEST PUSH1 0x2 DUP2 PUSH1 0x80 ADD SWAP1 PUSH1 0x2 DUP2 GT ISZERO PUSH2 0x30B3 JUMPI PUSH2 0x30B2 PUSH2 0x3680 JUMP JUMPDEST JUMPDEST SWAP1 DUP2 PUSH1 0x2 DUP2 GT ISZERO PUSH2 0x30C7 JUMPI PUSH2 0x30C6 PUSH2 0x3680 JUMP JUMPDEST JUMPDEST DUP2 MSTORE POP POP DUP1 PUSH1 0x60 ADD MLOAD PUSH1 0x6 PUSH1 0x0 DUP4 PUSH1 0x40 ADD MLOAD PUSH20 0xFFFFFFFFFFFFFFFFFFFFFFFFFFFFFFFFFFFFFFFF AND PUSH20 0xFFFFFFFFFFFFFFFFFFFFFFFFFFFFFFFFFFFFFFFF AND DUP2 MSTORE PUSH1 0x20 ADD SWAP1 DUP2 MSTORE PUSH1 0x20 ADD PUSH1 0x0 KECCAK256 PUSH1 0x0 DUP3 DUP3 SLOAD PUSH2 0x3122 SWAP2 SWAP1 PUSH2 0x352D JUMP JUMPDEST SWAP3 POP POP DUP2 SWAP1 SSTORE POP PUSH32 0x5B166B4D0498FF8C4719999CB6154C5D197E6F020F9FBFCF9D347F84576CFAB7 DUP2 PUSH1 0x0 ADD MLOAD DUP3 PUSH1 0x20 ADD MLOAD DUP4 PUSH1 0x40 ADD MLOAD PUSH1 0x40 MLOAD PUSH2 0x3168 SWAP4 SWAP3 SWAP2 SWAP1 PUSH2 0x4082 JUMP JUMPDEST PUSH1 0x40 MLOAD DUP1 SWAP2 SUB SWAP1 LOG1 JUMPDEST POP POP DUP1 DUP1 PUSH2 0x317E SWAP1 PUSH2 0x40B9 JUMP JUMPDEST SWAP2 POP POP PUSH2 0x2F2B JUMP JUMPDEST POP PUSH1 0x0 PUSH1 0x8 PUSH1 0x0 DUP9 DUP2 MSTORE PUSH1 0x20 ADD SWAP1 DUP2 MSTORE PUSH1 0x20 ADD PUSH1 0x0 KECCAK256 PUSH1 0x0 PUSH2 0x100 EXP DUP2 SLOAD DUP2 PUSH20 0xFFFFFFFFFFFFFFFFFFFFFFFFFFFFFFFFFFFFFFFF MUL NOT AND SWAP1 DUP4 PUSH20 0xFFFFFFFFFFFFFFFFFFFFFFFFFFFFFFFFFFFFFFFF AND MUL OR SWAP1 SSTORE POP PUSH32 0xD9157C065213ADA613694E84B1E27FE2EFD62D85C6B82BD6C842A4999491E72A DUP8 DUP5 PUSH1 0x1 ADD SLOAD DUP6 PUSH1 0x2 ADD PUSH1 0x0 SWAP1 SLOAD SWAP1 PUSH2 0x100 EXP SWAP1 DIV PUSH20 0xFFFFFFFFFFFFFFFFFFFFFFFFFFFFFFFFFFFFFFFF AND PUSH1 0x40 MLOAD PUSH2 0x3235 SWAP4 SWAP3 SWAP2 SWAP1 PUSH2 0x4082 JUMP JUMPDEST PUSH1 0x40 MLOAD DUP1 SWAP2 SUB SWAP1 LOG1 POP POP POP POP POP POP POP JUMP JUMPDEST PUSH2 0x324E PUSH2 0x3362 JUMP JUMPDEST PUSH20 0xFFFFFFFFFFFFFFFFFFFFFFFFFFFFFFFFFFFFFFFF AND PUSH2 0x326C PUSH2 0x2304 JUMP JUMPDEST PUSH20 0xFFFFFFFFFFFFFFFFFFFFFFFFFFFFFFFFFFFFFFFF AND EQ PUSH2 0x32C2 JUMPI PUSH1 0x40 MLOAD PUSH32 0x8C379A000000000000000000000000000000000000000000000000000000000 DUP2 MSTORE PUSH1 0x4 ADD PUSH2 0x32B9 SWAP1 PUSH2 0x42EB JUMP JUMPDEST PUSH1 0x40 MLOAD DUP1 SWAP2 SUB SWAP1 REVERT JUMPDEST PUSH1 0x0 PUSH20 0xFFFFFFFFFFFFFFFFFFFFFFFFFFFFFFFFFFFFFFFF AND DUP2 PUSH20 0xFFFFFFFFFFFFFFFFFFFFFFFFFFFFFFFFFFFFFFFF AND EQ ISZERO PUSH2 0x3332 JUMPI PUSH1 0x40 MLOAD PUSH32 0x8C379A000000000000000000000000000000000000000000000000000000000 DUP2 MSTORE PUSH1 0x4 ADD PUSH2 0x3329 SWAP1 PUSH2 0x470A JUMP JUMPDEST PUSH1 0x40 MLOAD DUP1 SWAP2 SUB SWAP1 REVERT JUMPDEST PUSH2 0x333B DUP2 PUSH2 0x336A JUMP JUMPDEST POP JUMP JUMPDEST PUSH1 0x1 DUP2 PUSH1 0x0 ADD PUSH1 0x0 DUP3 DUP3 SLOAD ADD SWAP3 POP POP DUP2 SWAP1 SSTORE POP POP JUMP JUMPDEST PUSH1 0x0 DUP2 PUSH1 0x0 ADD SLOAD SWAP1 POP SWAP2 SWAP1 POP JUMP JUMPDEST PUSH1 0x0 CALLER SWAP1 POP SWAP1 JUMP JUMPDEST PUSH1 0x0 DUP1 PUSH1 0x0 SWAP1 SLOAD SWAP1 PUSH2 0x100 EXP SWAP1 DIV PUSH20 0xFFFFFFFFFFFFFFFFFFFFFFFFFFFFFFFFFFFFFFFF AND SWAP1 POP DUP2 PUSH1 0x0 DUP1 PUSH2 0x100 EXP DUP2 SLOAD DUP2 PUSH20 0xFFFFFFFFFFFFFFFFFFFFFFFFFFFFFFFFFFFFFFFF MUL NOT AND SWAP1 DUP4 PUSH20 0xFFFFFFFFFFFFFFFFFFFFFFFFFFFFFFFFFFFFFFFF AND MUL OR SWAP1 SSTORE POP DUP2 PUSH20 0xFFFFFFFFFFFFFFFFFFFFFFFFFFFFFFFFFFFFFFFF AND DUP2 PUSH20 0xFFFFFFFFFFFFFFFFFFFFFFFFFFFFFFFFFFFFFFFF AND PUSH32 0x8BE0079C531659141344CD1FD0A4F28419497F9722A3DAAFE3B4186F6B6457E0 PUSH1 0x40 MLOAD PUSH1 0x40 MLOAD DUP1 SWAP2 SUB SWAP1 LOG3 POP POP JUMP JUMPDEST DUP3 DUP1 SLOAD DUP3 DUP3 SSTORE SWAP1 PUSH1 0x0 MSTORE PUSH1 0x20 PUSH1 0x0 KECCAK256 SWAP1 DUP2 ADD SWAP3 DUP3 ISZERO PUSH2 0x346F JUMPI PUSH1 0x0 MSTORE PUSH1 0x20 PUSH1 0x0 KECCAK256 SWAP2 DUP3 ADD JUMPDEST DUP3 DUP2 GT ISZERO PUSH2 0x346E JUMPI DUP3 SLOAD DUP3 SSTORE SWAP2 PUSH1 0x1 ADD SWAP2 SWAP1 PUSH1 0x1 ADD SWAP1 PUSH2 0x3453 JUMP JUMPDEST JUMPDEST POP SWAP1 POP PUSH2 0x347C SWAP2 SWAP1 PUSH2 0x34D7 JUMP JUMPDEST POP SWAP1 JUMP JUMPDEST PUSH1 0x40 MLOAD DUP1 PUSH1 0xA0 ADD PUSH1 0x40 MSTORE DUP1 PUSH1 0x0 DUP2 MSTORE PUSH1 0x20 ADD PUSH1 0x0 DUP2 MSTORE PUSH1 0x20 ADD PUSH1 0x0 PUSH20 0xFFFFFFFFFFFFFFFFFFFFFFFFFFFFFFFFFFFFFFFF AND DUP2 MSTORE PUSH1 0x20 ADD PUSH1 0x0 DUP2 MSTORE PUSH1 0x20 ADD PUSH1 0x0 PUSH1 0x2 DUP2 GT ISZERO PUSH2 0x34D1 JUMPI PUSH2 0x34D0 PUSH2 0x3680 JUMP JUMPDEST JUMPDEST DUP2 MSTORE POP SWAP1 JUMP JUMPDEST JUMPDEST DUP1 DUP3 GT ISZERO PUSH2 0x34F0 JUMPI PUSH1 0x0 DUP2 PUSH1 0x0 SWAP1 SSTORE POP PUSH1 0x1 ADD PUSH2 0x34D8 JUMP JUMPDEST POP SWAP1 JUMP JUMPDEST PUSH1 0x0 DUP2 SWAP1 POP SWAP2 SWAP1 POP JUMP JUMPDEST PUSH32 0x4E487B7100000000000000000000000000000000000000000000000000000000 PUSH1 0x0 MSTORE PUSH1 0x11 PUSH1 0x4 MSTORE PUSH1 0x24 PUSH1 0x0 REVERT JUMPDEST PUSH1 0x0 PUSH2 0x3538 DUP3 PUSH2 0x34F4 JUMP JUMPDEST SWAP2 POP PUSH2 0x3543 DUP4 PUSH2 0x34F4 JUMP JUMPDEST SWAP3 POP DUP3 PUSH32 0xFFFFFFFFFFFFFFFFFFFFFFFFFFFFFFFFFFFFFFFFFFFFFFFFFFFFFFFFFFFFFFFF SUB DUP3 GT ISZERO PUSH2 0x3578 JUMPI PUSH2 0x3577 PUSH2 0x34FE JUMP JUMPDEST JUMPDEST DUP3 DUP3 ADD SWAP1 POP SWAP3 SWAP2 POP POP JUMP JUMPDEST PUSH1 0x0 PUSH1 0x40 MLOAD SWAP1 POP SWAP1 JUMP JUMPDEST PUSH1 0x0 DUP1 REVERT JUMPDEST PUSH1 0x0 DUP1 REVERT JUMPDEST PUSH2 0x35A0 DUP2 PUSH2 0x34F4 JUMP JUMPDEST DUP2 EQ PUSH2 0x35AB JUMPI PUSH1 0x0 DUP1 REVERT JUMPDEST POP JUMP JUMPDEST PUSH1 0x0 DUP2 CALLDATALOAD SWAP1 POP PUSH2 0x35BD DUP2 PUSH2 0x3597 JUMP JUMPDEST SWAP3 SWAP2 POP POP JUMP JUMPDEST PUSH1 0x0 DUP1 PUSH1 0x40 DUP4 DUP6 SUB SLT ISZERO PUSH2 0x35DA JUMPI PUSH2 0x35D9 PUSH2 0x358D JUMP JUMPDEST JUMPDEST PUSH1 0x0 PUSH2 0x35E8 DUP6 DUP3 DUP7 ADD PUSH2 0x35AE JUMP JUMPDEST SWAP3 POP POP PUSH1 0x20 PUSH2 0x35F9 DUP6 DUP3 DUP7 ADD PUSH2 0x35AE JUMP JUMPDEST SWAP2 POP POP SWAP3 POP SWAP3 SWAP1 POP JUMP JUMPDEST PUSH1 0x0 PUSH1 0x20 DUP3 DUP5 SUB SLT ISZERO PUSH2 0x3619 JUMPI PUSH2 0x3618 PUSH2 0x358D JUMP JUMPDEST JUMPDEST PUSH1 0x0 PUSH2 0x3627 DUP5 DUP3 DUP6 ADD PUSH2 0x35AE JUMP JUMPDEST SWAP2 POP POP SWAP3 SWAP2 POP POP JUMP JUMPDEST PUSH2 0x3639 DUP2 PUSH2 0x34F4 JUMP JUMPDEST DUP3 MSTORE POP POP JUMP JUMPDEST PUSH1 0x0 PUSH20 0xFFFFFFFFFFFFFFFFFFFFFFFFFFFFFFFFFFFFFFFF DUP3 AND SWAP1 POP SWAP2 SWAP1 POP JUMP JUMPDEST PUSH1 0x0 PUSH2 0x366A DUP3 PUSH2 0x363F JUMP JUMPDEST SWAP1 POP SWAP2 SWAP1 POP JUMP JUMPDEST PUSH2 0x367A DUP2 PUSH2 0x365F JUMP JUMPDEST DUP3 MSTORE POP POP JUMP JUMPDEST PUSH32 0x4E487B7100000000000000000000000000000000000000000000000000000000 PUSH1 0x0 MSTORE PUSH1 0x21 PUSH1 0x4 MSTORE PUSH1 0x24 PUSH1 0x0 REVERT JUMPDEST PUSH1 0x3 DUP2 LT PUSH2 0x36C0 JUMPI PUSH2 0x36BF PUSH2 0x3680 JUMP JUMPDEST JUMPDEST POP JUMP JUMPDEST PUSH1 0x0 DUP2 SWAP1 POP PUSH2 0x36D1 DUP3 PUSH2 0x36AF JUMP JUMPDEST SWAP2 SWAP1 POP JUMP JUMPDEST PUSH1 0x0 PUSH2 0x36E1 DUP3 PUSH2 0x36C3 JUMP JUMPDEST SWAP1 POP SWAP2 SWAP1 POP JUMP JUMPDEST PUSH2 0x36F1 DUP2 PUSH2 0x36D6 JUMP JUMPDEST DUP3 MSTORE POP POP JUMP JUMPDEST PUSH1 0xA0 DUP3 ADD PUSH1 0x0 DUP3 ADD MLOAD PUSH2 0x370D PUSH1 0x0 DUP6 ADD DUP3 PUSH2 0x3630 JUMP JUMPDEST POP PUSH1 0x20 DUP3 ADD MLOAD PUSH2 0x3720 PUSH1 0x20 DUP6 ADD DUP3 PUSH2 0x3630 JUMP JUMPDEST POP PUSH1 0x40 DUP3 ADD MLOAD PUSH2 0x3733 PUSH1 0x40 DUP6 ADD DUP3 PUSH2 0x3671 JUMP JUMPDEST POP PUSH1 0x60 DUP3 ADD MLOAD PUSH2 0x3746 PUSH1 0x60 DUP6 ADD DUP3 PUSH2 0x3630 JUMP JUMPDEST POP PUSH1 0x80 DUP3 ADD MLOAD PUSH2 0x3759 PUSH1 0x80 DUP6 ADD DUP3 PUSH2 0x36E8 JUMP JUMPDEST POP POP POP POP JUMP JUMPDEST PUSH1 0x0 PUSH1 0xA0 DUP3 ADD SWAP1 POP PUSH2 0x3774 PUSH1 0x0 DUP4 ADD DUP5 PUSH2 0x36F7 JUMP JUMPDEST SWAP3 SWAP2 POP POP JUMP JUMPDEST PUSH2 0x3783 DUP2 PUSH2 0x365F JUMP JUMPDEST DUP2 EQ PUSH2 0x378E JUMPI PUSH1 0x0 DUP1 REVERT JUMPDEST POP JUMP JUMPDEST PUSH1 0x0 DUP2 CALLDATALOAD SWAP1 POP PUSH2 0x37A0 DUP2 PUSH2 0x377A JUMP JUMPDEST SWAP3 SWAP2 POP POP JUMP JUMPDEST PUSH1 0x0 PUSH1 0x20 DUP3 DUP5 SUB SLT ISZERO PUSH2 0x37BC JUMPI PUSH2 0x37BB PUSH2 0x358D JUMP JUMPDEST JUMPDEST PUSH1 0x0 PUSH2 0x37CA DUP5 DUP3 DUP6 ADD PUSH2 0x3791 JUMP JUMPDEST SWAP2 POP POP SWAP3 SWAP2 POP POP JUMP JUMPDEST PUSH2 0x37DC DUP2 PUSH2 0x34F4 JUMP JUMPDEST DUP3 MSTORE POP POP JUMP JUMPDEST PUSH1 0x0 PUSH1 0x20 DUP3 ADD SWAP1 POP PUSH2 0x37F7 PUSH1 0x0 DUP4 ADD DUP5 PUSH2 0x37D3 JUMP JUMPDEST SWAP3 SWAP2 POP POP JUMP JUMPDEST PUSH1 0x0 DUP1 PUSH1 0x40 DUP4 DUP6 SUB SLT ISZERO PUSH2 0x3814 JUMPI PUSH2 0x3813 PUSH2 0x358D JUMP JUMPDEST JUMPDEST PUSH1 0x0 PUSH2 0x3822 DUP6 DUP3 DUP7 ADD PUSH2 0x3791 JUMP JUMPDEST SWAP3 POP POP PUSH1 0x20 PUSH2 0x3833 DUP6 DUP3 DUP7 ADD PUSH2 0x35AE JUMP JUMPDEST SWAP2 POP POP SWAP3 POP SWAP3 SWAP1 POP JUMP JUMPDEST PUSH1 0x0 DUP1 PUSH1 0x0 PUSH1 0x60 DUP5 DUP7 SUB SLT ISZERO PUSH2 0x3856 JUMPI PUSH2 0x3855 PUSH2 0x358D JUMP JUMPDEST JUMPDEST PUSH1 0x0 PUSH2 0x3864 DUP7 DUP3 DUP8 ADD PUSH2 0x35AE JUMP JUMPDEST SWAP4 POP POP PUSH1 0x20 PUSH2 0x3875 DUP7 DUP3 DUP8 ADD PUSH2 0x35AE JUMP JUMPDEST SWAP3 POP POP PUSH1 0x40 PUSH2 0x3886 DUP7 DUP3 DUP8 ADD PUSH2 0x35AE JUMP JUMPDEST SWAP2 POP POP SWAP3 POP SWAP3 POP SWAP3 JUMP JUMPDEST PUSH2 0x3899 DUP2 PUSH2 0x365F JUMP JUMPDEST DUP3 MSTORE POP POP JUMP JUMPDEST PUSH1 0x0 PUSH1 0x20 DUP3 ADD SWAP1 POP PUSH2 0x38B4 PUSH1 0x0 DUP4 ADD DUP5 PUSH2 0x3890 JUMP JUMPDEST SWAP3 SWAP2 POP POP JUMP JUMPDEST PUSH1 0x0 DUP2 MLOAD SWAP1 POP SWAP2 SWAP1 POP JUMP JUMPDEST PUSH1 0x0 DUP3 DUP3 MSTORE PUSH1 0x20 DUP3 ADD SWAP1 POP SWAP3 SWAP2 POP POP JUMP JUMPDEST PUSH1 0x0 JUMPDEST DUP4 DUP2 LT ISZERO PUSH2 0x38F4 JUMPI DUP1 DUP3 ADD MLOAD DUP2 DUP5 ADD MSTORE PUSH1 0x20 DUP2 ADD SWAP1 POP PUSH2 0x38D9 JUMP JUMPDEST DUP4 DUP2 GT ISZERO PUSH2 0x3903 JUMPI PUSH1 0x0 DUP5 DUP5 ADD MSTORE JUMPDEST POP POP POP POP JUMP JUMPDEST PUSH1 0x0 PUSH1 0x1F NOT PUSH1 0x1F DUP4 ADD AND SWAP1 POP SWAP2 SWAP1 POP JUMP JUMPDEST PUSH1 0x0 PUSH2 0x3925 DUP3 PUSH2 0x38BA JUMP JUMPDEST PUSH2 0x392F DUP2 DUP6 PUSH2 0x38C5 JUMP JUMPDEST SWAP4 POP PUSH2 0x393F DUP2 DUP6 PUSH1 0x20 DUP7 ADD PUSH2 0x38D6 JUMP JUMPDEST PUSH2 0x3948 DUP2 PUSH2 0x3909 JUMP JUMPDEST DUP5 ADD SWAP2 POP POP SWAP3 SWAP2 POP POP JUMP JUMPDEST PUSH1 0x0 PUSH1 0x20 DUP3 ADD SWAP1 POP DUP2 DUP2 SUB PUSH1 0x0 DUP4 ADD MSTORE PUSH2 0x396D DUP2 DUP5 PUSH2 0x391A JUMP JUMPDEST SWAP1 POP SWAP3 SWAP2 POP POP JUMP JUMPDEST PUSH1 0x0 DUP2 MLOAD SWAP1 POP SWAP2 SWAP1 POP JUMP JUMPDEST PUSH1 0x0 DUP3 DUP3 MSTORE PUSH1 0x20 DUP3 ADD SWAP1 POP SWAP3 SWAP2 POP POP JUMP JUMPDEST PUSH1 0x0 DUP2 SWAP1 POP PUSH1 0x20 DUP3 ADD SWAP1 POP SWAP2 SWAP1 POP JUMP JUMPDEST PUSH1 0x0 PUSH2 0x39AD DUP4 DUP4 PUSH2 0x3630 JUMP JUMPDEST PUSH1 0x20 DUP4 ADD SWAP1 POP SWAP3 SWAP2 POP POP JUMP JUMPDEST PUSH1 0x0 PUSH1 0x20 DUP3 ADD SWAP1 POP SWAP2 SWAP1 POP JUMP JUMPDEST PUSH1 0x0 PUSH2 0x39D1 DUP3 PUSH2 0x3975 JUMP JUMPDEST PUSH2 0x39DB DUP2 DUP6 PUSH2 0x3980 JUMP JUMPDEST SWAP4 POP PUSH2 0x39E6 DUP4 PUSH2 0x3991 JUMP JUMPDEST DUP1 PUSH1 0x0 JUMPDEST DUP4 DUP2 LT ISZERO PUSH2 0x3A17 JUMPI DUP2 MLOAD PUSH2 0x39FE DUP9 DUP3 PUSH2 0x39A1 JUMP JUMPDEST SWAP8 POP PUSH2 0x3A09 DUP4 PUSH2 0x39B9 JUMP JUMPDEST SWAP3 POP POP PUSH1 0x1 DUP2 ADD SWAP1 POP PUSH2 0x39EA JUMP JUMPDEST POP DUP6 SWAP4 POP POP POP POP SWAP3 SWAP2 POP POP JUMP JUMPDEST PUSH1 0x0 PUSH1 0x20 DUP3 ADD SWAP1 POP DUP2 DUP2 SUB PUSH1 0x0 DUP4 ADD MSTORE PUSH2 0x3A3E DUP2 DUP5 PUSH2 0x39C6 JUMP JUMPDEST SWAP1 POP SWAP3 SWAP2 POP POP JUMP JUMPDEST PUSH32 0x5468652045544820616D6F756E742073686F756C64206D617463682077697468 PUSH1 0x0 DUP3 ADD MSTORE PUSH32 0x20746865206F6666657220507269636500000000000000000000000000000000 PUSH1 0x20 DUP3 ADD MSTORE POP JUMP JUMPDEST PUSH1 0x0 PUSH2 0x3AA2 PUSH1 0x30 DUP4 PUSH2 0x38C5 JUMP JUMPDEST SWAP2 POP PUSH2 0x3AAD DUP3 PUSH2 0x3A46 JUMP JUMPDEST PUSH1 0x40 DUP3 ADD SWAP1 POP SWAP2 SWAP1 POP JUMP JUMPDEST PUSH1 0x0 PUSH1 0x20 DUP3 ADD SWAP1 POP DUP2 DUP2 SUB PUSH1 0x0 DUP4 ADD MSTORE PUSH2 0x3AD1 DUP2 PUSH2 0x3A95 JUMP JUMPDEST SWAP1 POP SWAP2 SWAP1 POP JUMP JUMPDEST PUSH32 0x546865206E65772070726963652073686F756C64206265206C61726767657220 PUSH1 0x0 DUP3 ADD MSTORE PUSH32 0x7468616E2063757272656E742062657374206F6666657220707269636520666F PUSH1 0x20 DUP3 ADD MSTORE PUSH32 0x722041756374696F6E73547970652E456E676C616E6400000000000000000000 PUSH1 0x40 DUP3 ADD MSTORE POP JUMP JUMPDEST PUSH1 0x0 PUSH2 0x3B5A PUSH1 0x56 DUP4 PUSH2 0x38C5 JUMP JUMPDEST SWAP2 POP PUSH2 0x3B65 DUP3 PUSH2 0x3AD8 JUMP JUMPDEST PUSH1 0x60 DUP3 ADD SWAP1 POP SWAP2 SWAP1 POP JUMP JUMPDEST PUSH1 0x0 PUSH1 0x20 DUP3 ADD SWAP1 POP DUP2 DUP2 SUB PUSH1 0x0 DUP4 ADD MSTORE PUSH2 0x3B89 DUP2 PUSH2 0x3B4D JUMP JUMPDEST SWAP1 POP SWAP2 SWAP1 POP JUMP JUMPDEST PUSH32 0x546865206E65772070726963652073686F756C64206265206C61726767657220 PUSH1 0x0 DUP3 ADD MSTORE PUSH32 0x7468616E20737461727420707269636520666F722041756374696F6E73547970 PUSH1 0x20 DUP3 ADD MSTORE PUSH32 0x652E456E676C616E640000000000000000000000000000000000000000000000 PUSH1 0x40 DUP3 ADD MSTORE POP JUMP JUMPDEST PUSH1 0x0 PUSH2 0x3C12 PUSH1 0x49 DUP4 PUSH2 0x38C5 JUMP JUMPDEST SWAP2 POP PUSH2 0x3C1D DUP3 PUSH2 0x3B90 JUMP JUMPDEST PUSH1 0x60 DUP3 ADD SWAP1 POP SWAP2 SWAP1 POP JUMP JUMPDEST PUSH1 0x0 PUSH1 0x20 DUP3 ADD SWAP1 POP DUP2 DUP2 SUB PUSH1 0x0 DUP4 ADD MSTORE PUSH2 0x3C41 DUP2 PUSH2 0x3C05 JUMP JUMPDEST SWAP1 POP SWAP2 SWAP1 POP JUMP JUMPDEST PUSH32 0x546865206E65772070726963652073686F756C64206265206C65737365722074 PUSH1 0x0 DUP3 ADD MSTORE PUSH32 0x68616E2F657175616C20746F2063757272656E742062657374206F6666657220 PUSH1 0x20 DUP3 ADD MSTORE PUSH32 0x707269636520666F722041756374696F6E73547970652E4E65746865726C616E PUSH1 0x40 DUP3 ADD MSTORE PUSH32 0x6473000000000000000000000000000000000000000000000000000000000000 PUSH1 0x60 DUP3 ADD MSTORE POP JUMP JUMPDEST PUSH1 0x0 PUSH2 0x3CF0 PUSH1 0x62 DUP4 PUSH2 0x38C5 JUMP JUMPDEST SWAP2 POP PUSH2 0x3CFB DUP3 PUSH2 0x3C48 JUMP JUMPDEST PUSH1 0x80 DUP3 ADD SWAP1 POP SWAP2 SWAP1 POP JUMP JUMPDEST PUSH1 0x0 PUSH1 0x20 DUP3 ADD SWAP1 POP DUP2 DUP2 SUB PUSH1 0x0 DUP4 ADD MSTORE PUSH2 0x3D1F DUP2 PUSH2 0x3CE3 JUMP JUMPDEST SWAP1 POP SWAP2 SWAP1 POP JUMP JUMPDEST PUSH32 0x546865206E65772070726963652073686F756C64206265206C65737365722F65 PUSH1 0x0 DUP3 ADD MSTORE PUSH32 0x7175616C207468616E20737461727420707269636520666F722041756374696F PUSH1 0x20 DUP3 ADD MSTORE PUSH32 0x6E73547970652E4E65746865726C616E64730000000000000000000000000000 PUSH1 0x40 DUP3 ADD MSTORE POP JUMP JUMPDEST PUSH1 0x0 PUSH2 0x3DA8 PUSH1 0x52 DUP4 PUSH2 0x38C5 JUMP JUMPDEST SWAP2 POP PUSH2 0x3DB3 DUP3 PUSH2 0x3D26 JUMP JUMPDEST PUSH1 0x60 DUP3 ADD SWAP1 POP SWAP2 SWAP1 POP JUMP JUMPDEST PUSH1 0x0 PUSH1 0x20 DUP3 ADD SWAP1 POP DUP2 DUP2 SUB PUSH1 0x0 DUP4 ADD MSTORE PUSH2 0x3DD7 DUP2 PUSH2 0x3D9B JUMP JUMPDEST SWAP1 POP SWAP2 SWAP1 POP JUMP JUMPDEST PUSH32 0x546865206E65772070726963652073686F756C64206265206C61726767657220 PUSH1 0x0 DUP3 ADD MSTORE PUSH32 0x7468616E2063757272656E742062657374206F6666657220707269636520666F PUSH1 0x20 DUP3 ADD MSTORE PUSH32 0x722041756374696F6E73547970652E53696D706C650000000000000000000000 PUSH1 0x40 DUP3 ADD MSTORE POP JUMP JUMPDEST PUSH1 0x0 PUSH2 0x3E60 PUSH1 0x55 DUP4 PUSH2 0x38C5 JUMP JUMPDEST SWAP2 POP PUSH2 0x3E6B DUP3 PUSH2 0x3DDE JUMP JUMPDEST PUSH1 0x60 DUP3 ADD SWAP1 POP SWAP2 SWAP1 POP JUMP JUMPDEST PUSH1 0x0 PUSH1 0x20 DUP3 ADD SWAP1 POP DUP2 DUP2 SUB PUSH1 0x0 DUP4 ADD MSTORE PUSH2 0x3E8F DUP2 PUSH2 0x3E53 JUMP JUMPDEST SWAP1 POP SWAP2 SWAP1 POP JUMP JUMPDEST PUSH32 0x546865206E65772070726963652073686F756C64206265206C65737365722074 PUSH1 0x0 DUP3 ADD MSTORE PUSH32 0x68616E20737461727420707269636520666F722041756374696F6E7354797065 PUSH1 0x20 DUP3 ADD MSTORE PUSH32 0x2E53696D706C6500000000000000000000000000000000000000000000000000 PUSH1 0x40 DUP3 ADD MSTORE POP JUMP JUMPDEST PUSH1 0x0 PUSH2 0x3F18 PUSH1 0x47 DUP4 PUSH2 0x38C5 JUMP JUMPDEST SWAP2 POP PUSH2 0x3F23 DUP3 PUSH2 0x3E96 JUMP JUMPDEST PUSH1 0x60 DUP3 ADD SWAP1 POP SWAP2 SWAP1 POP JUMP JUMPDEST PUSH1 0x0 PUSH1 0x20 DUP3 ADD SWAP1 POP DUP2 DUP2 SUB PUSH1 0x0 DUP4 ADD MSTORE PUSH2 0x3F47 DUP2 PUSH2 0x3F0B JUMP JUMPDEST SWAP1 POP SWAP2 SWAP1 POP JUMP JUMPDEST PUSH2 0x3F57 DUP2 PUSH2 0x36D6 JUMP JUMPDEST DUP3 MSTORE POP POP JUMP JUMPDEST PUSH1 0x0 PUSH1 0xA0 DUP3 ADD SWAP1 POP PUSH2 0x3F72 PUSH1 0x0 DUP4 ADD DUP9 PUSH2 0x37D3 JUMP JUMPDEST PUSH2 0x3F7F PUSH1 0x20 DUP4 ADD DUP8 PUSH2 0x37D3 JUMP JUMPDEST PUSH2 0x3F8C PUSH1 0x40 DUP4 ADD DUP7 PUSH2 0x3890 JUMP JUMPDEST PUSH2 0x3F99 PUSH1 0x60 DUP4 ADD DUP6 PUSH2 0x37D3 JUMP JUMPDEST PUSH2 0x3FA6 PUSH1 0x80 DUP4 ADD DUP5 PUSH2 0x3F4E JUMP JUMPDEST SWAP7 SWAP6 POP POP POP POP POP POP JUMP JUMPDEST PUSH1 0x0 PUSH1 0x60 DUP3 ADD SWAP1 POP PUSH2 0x3FC5 PUSH1 0x0 DUP4 ADD DUP7 PUSH2 0x3890 JUMP JUMPDEST PUSH2 0x3FD2 PUSH1 0x20 DUP4 ADD DUP6 PUSH2 0x3890 JUMP JUMPDEST PUSH2 0x3FDF PUSH1 0x40 DUP4 ADD DUP5 PUSH2 0x37D3 JUMP JUMPDEST SWAP5 SWAP4 POP POP POP POP JUMP JUMPDEST PUSH32 0x4E487B7100000000000000000000000000000000000000000000000000000000 PUSH1 0x0 MSTORE PUSH1 0x32 PUSH1 0x4 MSTORE PUSH1 0x24 PUSH1 0x0 REVERT JUMPDEST PUSH32 0x4F66666572207374617475732073686F756C6420626520617661696C61626C65 PUSH1 0x0 DUP3 ADD MSTORE POP JUMP JUMPDEST PUSH1 0x0 PUSH2 0x404C PUSH1 0x20 DUP4 PUSH2 0x38C5 JUMP JUMPDEST SWAP2 POP PUSH2 0x4057 DUP3 PUSH2 0x4016 JUMP JUMPDEST PUSH1 0x20 DUP3 ADD SWAP1 POP SWAP2 SWAP1 POP JUMP JUMPDEST PUSH1 0x0 PUSH1 0x20 DUP3 ADD SWAP1 POP DUP2 DUP2 SUB PUSH1 0x0 DUP4 ADD MSTORE PUSH2 0x407B DUP2 PUSH2 0x403F JUMP JUMPDEST SWAP1 POP SWAP2 SWAP1 POP JUMP JUMPDEST PUSH1 0x0 PUSH1 0x60 DUP3 ADD SWAP1 POP PUSH2 0x4097 PUSH1 0x0 DUP4 ADD DUP7 PUSH2 0x37D3 JUMP JUMPDEST PUSH2 0x40A4 PUSH1 0x20 DUP4 ADD DUP6 PUSH2 0x37D3 JUMP JUMPDEST PUSH2 0x40B1 PUSH1 0x40 DUP4 ADD DUP5 PUSH2 0x3890 JUMP JUMPDEST SWAP5 SWAP4 POP POP POP POP JUMP JUMPDEST PUSH1 0x0 PUSH2 0x40C4 DUP3 PUSH2 0x34F4 JUMP JUMPDEST SWAP2 POP PUSH32 0xFFFFFFFFFFFFFFFFFFFFFFFFFFFFFFFFFFFFFFFFFFFFFFFFFFFFFFFFFFFFFFFF DUP3 EQ ISZERO PUSH2 0x40F7 JUMPI PUSH2 0x40F6 PUSH2 0x34FE JUMP JUMPDEST JUMPDEST PUSH1 0x1 DUP3 ADD SWAP1 POP SWAP2 SWAP1 POP JUMP JUMPDEST PUSH32 0x6D73672E73656E6465722073686F756C64206265206F776E6572206F66207468 PUSH1 0x0 DUP3 ADD MSTORE PUSH32 0x6973206F66666572000000000000000000000000000000000000000000000000 PUSH1 0x20 DUP3 ADD MSTORE POP JUMP JUMPDEST PUSH1 0x0 PUSH2 0x415E PUSH1 0x28 DUP4 PUSH2 0x38C5 JUMP JUMPDEST SWAP2 POP PUSH2 0x4169 DUP3 PUSH2 0x4102 JUMP JUMPDEST PUSH1 0x40 DUP3 ADD SWAP1 POP SWAP2 SWAP1 POP JUMP JUMPDEST PUSH1 0x0 PUSH1 0x20 DUP3 ADD SWAP1 POP DUP2 DUP2 SUB PUSH1 0x0 DUP4 ADD MSTORE PUSH2 0x418D DUP2 PUSH2 0x4151 JUMP JUMPDEST SWAP1 POP SWAP2 SWAP1 POP JUMP JUMPDEST PUSH32 0x546865206F66666572206D757374206578697374000000000000000000000000 PUSH1 0x0 DUP3 ADD MSTORE POP JUMP JUMPDEST PUSH1 0x0 PUSH2 0x41CA PUSH1 0x14 DUP4 PUSH2 0x38C5 JUMP JUMPDEST SWAP2 POP PUSH2 0x41D5 DUP3 PUSH2 0x4194 JUMP JUMPDEST PUSH1 0x20 DUP3 ADD SWAP1 POP SWAP2 SWAP1 POP JUMP JUMPDEST PUSH1 0x0 PUSH1 0x20 DUP3 ADD SWAP1 POP DUP2 DUP2 SUB PUSH1 0x0 DUP4 ADD MSTORE PUSH2 0x41F9 DUP2 PUSH2 0x41BD JUMP JUMPDEST SWAP1 POP SWAP2 SWAP1 POP JUMP JUMPDEST PUSH1 0x0 DUP2 MLOAD SWAP1 POP PUSH2 0x420F DUP2 PUSH2 0x3597 JUMP JUMPDEST SWAP3 SWAP2 POP POP JUMP JUMPDEST PUSH1 0x0 PUSH1 0x20 DUP3 DUP5 SUB SLT ISZERO PUSH2 0x422B JUMPI PUSH2 0x422A PUSH2 0x358D JUMP JUMPDEST JUMPDEST PUSH1 0x0 PUSH2 0x4239 DUP5 DUP3 DUP6 ADD PUSH2 0x4200 JUMP JUMPDEST SWAP2 POP POP SWAP3 SWAP2 POP POP JUMP JUMPDEST PUSH1 0x0 PUSH1 0x40 DUP3 ADD SWAP1 POP PUSH2 0x4257 PUSH1 0x0 DUP4 ADD DUP6 PUSH2 0x3890 JUMP JUMPDEST PUSH2 0x4264 PUSH1 0x20 DUP4 ADD DUP5 PUSH2 0x37D3 JUMP JUMPDEST SWAP4 SWAP3 POP POP POP JUMP JUMPDEST PUSH1 0x0 PUSH2 0x4276 DUP3 PUSH2 0x34F4 JUMP JUMPDEST SWAP2 POP PUSH2 0x4281 DUP4 PUSH2 0x34F4 JUMP JUMPDEST SWAP3 POP DUP3 DUP3 LT ISZERO PUSH2 0x4294 JUMPI PUSH2 0x4293 PUSH2 0x34FE JUMP JUMPDEST JUMPDEST DUP3 DUP3 SUB SWAP1 POP SWAP3 SWAP2 POP POP JUMP JUMPDEST PUSH32 0x4F776E61626C653A2063616C6C6572206973206E6F7420746865206F776E6572 PUSH1 0x0 DUP3 ADD MSTORE POP JUMP JUMPDEST PUSH1 0x0 PUSH2 0x42D5 PUSH1 0x20 DUP4 PUSH2 0x38C5 JUMP JUMPDEST SWAP2 POP PUSH2 0x42E0 DUP3 PUSH2 0x429F JUMP JUMPDEST PUSH1 0x20 DUP3 ADD SWAP1 POP SWAP2 SWAP1 POP JUMP JUMPDEST PUSH1 0x0 PUSH1 0x20 DUP3 ADD SWAP1 POP DUP2 DUP2 SUB PUSH1 0x0 DUP4 ADD MSTORE PUSH2 0x4304 DUP2 PUSH2 0x42C8 JUMP JUMPDEST SWAP1 POP SWAP2 SWAP1 POP JUMP JUMPDEST PUSH1 0x0 DUP2 MLOAD SWAP1 POP PUSH2 0x431A DUP2 PUSH2 0x377A JUMP JUMPDEST SWAP3 SWAP2 POP POP JUMP JUMPDEST PUSH1 0x0 PUSH1 0x20 DUP3 DUP5 SUB SLT ISZERO PUSH2 0x4336 JUMPI PUSH2 0x4335 PUSH2 0x358D JUMP JUMPDEST JUMPDEST PUSH1 0x0 PUSH2 0x4344 DUP5 DUP3 DUP6 ADD PUSH2 0x430B JUMP JUMPDEST SWAP2 POP POP SWAP3 SWAP2 POP POP JUMP JUMPDEST PUSH32 0x41756374696F6E73547970652073686F756C64206265204E65746865726C616E PUSH1 0x0 DUP3 ADD MSTORE PUSH32 0x6473000000000000000000000000000000000000000000000000000000000000 PUSH1 0x20 DUP3 ADD MSTORE POP JUMP JUMPDEST PUSH1 0x0 PUSH2 0x43A9 PUSH1 0x22 DUP4 PUSH2 0x38C5 JUMP JUMPDEST SWAP2 POP PUSH2 0x43B4 DUP3 PUSH2 0x434D JUMP JUMPDEST PUSH1 0x40 DUP3 ADD SWAP1 POP SWAP2 SWAP1 POP JUMP JUMPDEST PUSH1 0x0 PUSH1 0x20 DUP3 ADD SWAP1 POP DUP2 DUP2 SUB PUSH1 0x0 DUP4 ADD MSTORE PUSH2 0x43D8 DUP2 PUSH2 0x439C JUMP JUMPDEST SWAP1 POP SWAP2 SWAP1 POP JUMP JUMPDEST PUSH32 0x546865206E65772070726963652073686F756C64206265206C65737365722074 PUSH1 0x0 DUP3 ADD MSTORE PUSH32 0x68616E2063757272656E74206265737420707269636520676976656E20627920 PUSH1 0x20 DUP3 ADD MSTORE PUSH32 0x6F776E6572206F66206E66740000000000000000000000000000000000000000 PUSH1 0x40 DUP3 ADD MSTORE POP JUMP JUMPDEST PUSH1 0x0 PUSH2 0x4461 PUSH1 0x4C DUP4 PUSH2 0x38C5 JUMP JUMPDEST SWAP2 POP PUSH2 0x446C DUP3 PUSH2 0x43DF JUMP JUMPDEST PUSH1 0x60 DUP3 ADD SWAP1 POP SWAP2 SWAP1 POP JUMP JUMPDEST PUSH1 0x0 PUSH1 0x20 DUP3 ADD SWAP1 POP DUP2 DUP2 SUB PUSH1 0x0 DUP4 ADD MSTORE PUSH2 0x4490 DUP2 PUSH2 0x4454 JUMP JUMPDEST SWAP1 POP SWAP2 SWAP1 POP JUMP JUMPDEST PUSH1 0x0 DUP1 REVERT JUMPDEST PUSH1 0x0 DUP1 REVERT JUMPDEST PUSH32 0x4E487B7100000000000000000000000000000000000000000000000000000000 PUSH1 0x0 MSTORE PUSH1 0x41 PUSH1 0x4 MSTORE PUSH1 0x24 PUSH1 0x0 REVERT JUMPDEST PUSH2 0x44D9 DUP3 PUSH2 0x3909 JUMP JUMPDEST DUP2 ADD DUP2 DUP2 LT PUSH8 0xFFFFFFFFFFFFFFFF DUP3 GT OR ISZERO PUSH2 0x44F8 JUMPI PUSH2 0x44F7 PUSH2 0x44A1 JUMP JUMPDEST JUMPDEST DUP1 PUSH1 0x40 MSTORE POP POP POP JUMP JUMPDEST PUSH1 0x0 PUSH2 0x450B PUSH2 0x3583 JUMP JUMPDEST SWAP1 POP PUSH2 0x4517 DUP3 DUP3 PUSH2 0x44D0 JUMP JUMPDEST SWAP2 SWAP1 POP JUMP JUMPDEST PUSH1 0x0 PUSH8 0xFFFFFFFFFFFFFFFF DUP3 GT ISZERO PUSH2 0x4537 JUMPI PUSH2 0x4536 PUSH2 0x44A1 JUMP JUMPDEST JUMPDEST PUSH2 0x4540 DUP3 PUSH2 0x3909 JUMP JUMPDEST SWAP1 POP PUSH1 0x20 DUP2 ADD SWAP1 POP SWAP2 SWAP1 POP JUMP JUMPDEST PUSH1 0x0 PUSH2 0x4560 PUSH2 0x455B DUP5 PUSH2 0x451C JUMP JUMPDEST PUSH2 0x4501 JUMP JUMPDEST SWAP1 POP DUP3 DUP2 MSTORE PUSH1 0x20 DUP2 ADD DUP5 DUP5 DUP5 ADD GT ISZERO PUSH2 0x457C JUMPI PUSH2 0x457B PUSH2 0x449C JUMP JUMPDEST JUMPDEST PUSH2 0x4587 DUP5 DUP3 DUP6 PUSH2 0x38D6 JUMP JUMPDEST POP SWAP4 SWAP3 POP POP POP JUMP JUMPDEST PUSH1 0x0 DUP3 PUSH1 0x1F DUP4 ADD SLT PUSH2 0x45A4 JUMPI PUSH2 0x45A3 PUSH2 0x4497 JUMP JUMPDEST JUMPDEST DUP2 MLOAD PUSH2 0x45B4 DUP5 DUP3 PUSH1 0x20 DUP7 ADD PUSH2 0x454D JUMP JUMPDEST SWAP2 POP POP SWAP3 SWAP2 POP POP JUMP JUMPDEST PUSH1 0x0 PUSH1 0x20 DUP3 DUP5 SUB SLT ISZERO PUSH2 0x45D3 JUMPI PUSH2 0x45D2 PUSH2 0x358D JUMP JUMPDEST JUMPDEST PUSH1 0x0 DUP3 ADD MLOAD PUSH8 0xFFFFFFFFFFFFFFFF DUP2 GT ISZERO PUSH2 0x45F1 JUMPI PUSH2 0x45F0 PUSH2 0x3592 JUMP JUMPDEST JUMPDEST PUSH2 0x45FD DUP5 DUP3 DUP6 ADD PUSH2 0x458F JUMP JUMPDEST SWAP2 POP POP SWAP3 SWAP2 POP POP JUMP JUMPDEST PUSH32 0x54686973207573657220686173206E6F2066756E647320746F20626520636C61 PUSH1 0x0 DUP3 ADD MSTORE PUSH32 0x696D656400000000000000000000000000000000000000000000000000000000 PUSH1 0x20 DUP3 ADD MSTORE POP JUMP JUMPDEST PUSH1 0x0 PUSH2 0x4662 PUSH1 0x24 DUP4 PUSH2 0x38C5 JUMP JUMPDEST SWAP2 POP PUSH2 0x466D DUP3 PUSH2 0x4606 JUMP JUMPDEST PUSH1 0x40 DUP3 ADD SWAP1 POP SWAP2 SWAP1 POP JUMP JUMPDEST PUSH1 0x0 PUSH1 0x20 DUP3 ADD SWAP1 POP DUP2 DUP2 SUB PUSH1 0x0 DUP4 ADD MSTORE PUSH2 0x4691 DUP2 PUSH2 0x4655 JUMP JUMPDEST SWAP1 POP SWAP2 SWAP1 POP JUMP JUMPDEST PUSH32 0x4F776E61626C653A206E6577206F776E657220697320746865207A65726F2061 PUSH1 0x0 DUP3 ADD MSTORE PUSH32 0x6464726573730000000000000000000000000000000000000000000000000000 PUSH1 0x20 DUP3 ADD MSTORE POP JUMP JUMPDEST PUSH1 0x0 PUSH2 0x46F4 PUSH1 0x26 DUP4 PUSH2 0x38C5 JUMP JUMPDEST SWAP2 POP PUSH2 0x46FF DUP3 PUSH2 0x4698 JUMP JUMPDEST PUSH1 0x40 DUP3 ADD SWAP1 POP SWAP2 SWAP1 POP JUMP JUMPDEST PUSH1 0x0 PUSH1 0x20 DUP3 ADD SWAP1 POP DUP2 DUP2 SUB PUSH1 0x0 DUP4 ADD MSTORE PUSH2 0x4723 DUP2 PUSH2 0x46E7 JUMP JUMPDEST SWAP1 POP SWAP2 SWAP1 POP JUMP INVALID LOG2 PUSH5 0x6970667358 0x22 SLT KECCAK256 CALLDATASIZE SLOAD PUSH27 0xC229CE5AC774CF2FC943AA086D742805418CE229FF8F0F61974D58 0xB0 0xB1 PUSH5 0x736F6C6343 STOP ADDMOD 0xC STOP CALLER "
		},
		"gasEstimates": {
			"creation": {
				"codeDepositCost": "3654400",
				"executionCost": "infinite",
				"totalCost": "infinite"
			},
			"external": {
				"": "219",
				"ETHbalanceOf(address)": "2876",
				"NFTbalanceOf(address)": "infinite",
				"addNFTToSellList(uint256,uint256,uint256)": "infinite",
				"bestOfferOfNFTId(uint256)": "infinite",
				"cancelAllOfferAndWithdrawFromSellList(uint256)": "infinite",
				"cancelOwnOffer(uint256)": "infinite",
				"changePriceForSimpleAuctionsType(uint256,uint256)": "infinite",
				"claimFunds()": "infinite",
				"decreasePriceForNetherlandsAuctionsType(uint256,uint256)": "infinite",
				"fillOfferByNFTOwner(uint256,uint256)": "infinite",
				"makeOffer(uint256,uint256)": "infinite",
				"makeOfferWithUserFundsAndEther(uint256,uint256)": "infinite",
				"offerDataOfOfferId(uint256)": "infinite",
				"offerIdsOfNFTId(uint256)": "infinite",
				"owner()": "2545",
				"ownerOfNFTId(uint256)": "infinite",
				"rejectAllOffers(uint256)": "infinite",
				"renounceOwnership()": "30463",
				"simpleBuyNFT(uint256)": "infinite",
				"tokenOfOwnerByIndex(address,uint256)": "infinite",
				"tokenURIOfNFTId(uint256)": "infinite",
				"transferOwnership(address)": "30855"
			}
		},
		"methodIdentifiers": {
			"ETHbalanceOf(address)": "c41559bb",
			"NFTbalanceOf(address)": "2c86c8a5",
			"addNFTToSellList(uint256,uint256,uint256)": "7df4a636",
			"bestOfferOfNFTId(uint256)": "0ac2d17b",
			"cancelAllOfferAndWithdrawFromSellList(uint256)": "1619b920",
			"cancelOwnOffer(uint256)": "2852cc47",
			"changePriceForSimpleAuctionsType(uint256,uint256)": "c7140e4e",
			"claimFunds()": "ac307773",
			"decreasePriceForNetherlandsAuctionsType(uint256,uint256)": "8a6d2692",
			"fillOfferByNFTOwner(uint256,uint256)": "ec3f91ef",
			"makeOffer(uint256,uint256)": "05b7cdd3",
			"makeOfferWithUserFundsAndEther(uint256,uint256)": "4f4a1ff0",
			"offerDataOfOfferId(uint256)": "9a20cc81",
			"offerIdsOfNFTId(uint256)": "e80bdaeb",
			"owner()": "8da5cb5b",
			"ownerOfNFTId(uint256)": "cdc1d792",
			"rejectAllOffers(uint256)": "b8f1eb6c",
			"renounceOwnership()": "715018a6",
			"simpleBuyNFT(uint256)": "46f41b9d",
			"tokenOfOwnerByIndex(address,uint256)": "2f745c59",
			"tokenURIOfNFTId(uint256)": "95b6f7a3",
			"transferOwnership(address)": "f2fde38b"
		}
	},
	"abi": [
		{
			"inputs": [
				{
					"internalType": "address",
					"name": "_oneRingNFT",
					"type": "address"
				}
			],
			"stateMutability": "payable",
			"type": "constructor"
		},
		{
			"anonymous": false,
			"inputs": [
				{
					"indexed": false,
					"internalType": "address",
					"name": "user",
					"type": "address"
				},
				{
					"indexed": false,
					"internalType": "uint256",
					"name": "amount",
					"type": "uint256"
				}
			],
			"name": "ClaimFunds",
			"type": "event"
		},
		{
			"anonymous": false,
			"inputs": [
				{
					"indexed": false,
					"internalType": "uint256",
					"name": "offerId",
					"type": "uint256"
				},
				{
					"indexed": false,
					"internalType": "uint256",
					"name": "tokenId",
					"type": "uint256"
				},
				{
					"indexed": false,
					"internalType": "address",
					"name": "user",
					"type": "address"
				},
				{
					"indexed": false,
					"internalType": "uint256",
					"name": "price",
					"type": "uint256"
				},
				{
					"indexed": false,
					"internalType": "enum OneRingNFTMarketplace.OfferStatus",
					"name": "offerstatus",
					"type": "uint8"
				}
			],
			"name": "Offer",
			"type": "event"
		},
		{
			"anonymous": false,
			"inputs": [
				{
					"indexed": false,
					"internalType": "uint256",
					"name": "offerId",
					"type": "uint256"
				},
				{
					"indexed": false,
					"internalType": "uint256",
					"name": "tokenId",
					"type": "uint256"
				},
				{
					"indexed": false,
					"internalType": "address",
					"name": "owner",
					"type": "address"
				}
			],
			"name": "OfferCancelled",
			"type": "event"
		},
		{
			"anonymous": false,
			"inputs": [
				{
					"indexed": false,
					"internalType": "uint256",
					"name": "offerId",
					"type": "uint256"
				},
				{
					"indexed": false,
					"internalType": "uint256",
					"name": "tokenId",
					"type": "uint256"
				},
				{
					"indexed": false,
					"internalType": "address",
					"name": "newOwner",
					"type": "address"
				}
			],
			"name": "OfferFilled",
			"type": "event"
		},
		{
			"anonymous": false,
			"inputs": [
				{
					"indexed": true,
					"internalType": "address",
					"name": "previousOwner",
					"type": "address"
				},
				{
					"indexed": true,
					"internalType": "address",
					"name": "newOwner",
					"type": "address"
				}
			],
			"name": "OwnershipTransferred",
			"type": "event"
		},
		{
			"stateMutability": "payable",
			"type": "fallback"
		},
		{
			"inputs": [
				{
					"internalType": "address",
					"name": "_owner",
					"type": "address"
				}
			],
			"name": "ETHbalanceOf",
			"outputs": [
				{
					"internalType": "uint256",
					"name": "",
					"type": "uint256"
				}
			],
			"stateMutability": "view",
			"type": "function"
		},
		{
			"inputs": [
				{
					"internalType": "address",
					"name": "_owner",
					"type": "address"
				}
			],
			"name": "NFTbalanceOf",
			"outputs": [
				{
					"internalType": "uint256",
					"name": "",
					"type": "uint256"
				}
			],
			"stateMutability": "view",
			"type": "function"
		},
		{
			"inputs": [
				{
					"internalType": "uint256",
					"name": "_tokenId",
					"type": "uint256"
				},
				{
					"internalType": "uint256",
					"name": "_price",
					"type": "uint256"
				},
				{
					"internalType": "uint256",
					"name": "_typeNum",
					"type": "uint256"
				}
			],
			"name": "addNFTToSellList",
			"outputs": [],
			"stateMutability": "nonpayable",
			"type": "function"
		},
		{
			"inputs": [
				{
					"internalType": "uint256",
					"name": "_tokenId",
					"type": "uint256"
				}
			],
			"name": "bestOfferOfNFTId",
			"outputs": [
				{
					"components": [
						{
							"internalType": "uint256",
							"name": "offerId",
							"type": "uint256"
						},
						{
							"internalType": "uint256",
							"name": "tokenId",
							"type": "uint256"
						},
						{
							"internalType": "address",
							"name": "user",
							"type": "address"
						},
						{
							"internalType": "uint256",
							"name": "price",
							"type": "uint256"
						},
						{
							"internalType": "enum OneRingNFTMarketplace.OfferStatus",
							"name": "offerstatus",
							"type": "uint8"
						}
					],
					"internalType": "struct OneRingNFTMarketplace._Offer",
					"name": "",
					"type": "tuple"
				}
			],
			"stateMutability": "view",
			"type": "function"
		},
		{
			"inputs": [
				{
					"internalType": "uint256",
					"name": "_tokenId",
					"type": "uint256"
				}
			],
			"name": "cancelAllOfferAndWithdrawFromSellList",
			"outputs": [],
			"stateMutability": "nonpayable",
			"type": "function"
		},
		{
			"inputs": [
				{
					"internalType": "uint256",
					"name": "_offerId",
					"type": "uint256"
				}
			],
			"name": "cancelOwnOffer",
			"outputs": [],
			"stateMutability": "nonpayable",
			"type": "function"
		},
		{
			"inputs": [
				{
					"internalType": "uint256",
					"name": "_tokenId",
					"type": "uint256"
				},
				{
					"internalType": "uint256",
					"name": "_price",
					"type": "uint256"
				}
			],
			"name": "changePriceForSimpleAuctionsType",
			"outputs": [],
			"stateMutability": "nonpayable",
			"type": "function"
		},
		{
			"inputs": [],
			"name": "claimFunds",
			"outputs": [],
			"stateMutability": "nonpayable",
			"type": "function"
		},
		{
			"inputs": [
				{
					"internalType": "uint256",
					"name": "_tokenId",
					"type": "uint256"
				},
				{
					"internalType": "uint256",
					"name": "_price",
					"type": "uint256"
				}
			],
			"name": "decreasePriceForNetherlandsAuctionsType",
			"outputs": [],
			"stateMutability": "nonpayable",
			"type": "function"
		},
		{
			"inputs": [
				{
					"internalType": "uint256",
					"name": "_offerId",
					"type": "uint256"
				},
				{
					"internalType": "uint256",
					"name": "_tokenId",
					"type": "uint256"
				}
			],
			"name": "fillOfferByNFTOwner",
			"outputs": [],
			"stateMutability": "nonpayable",
			"type": "function"
		},
		{
			"inputs": [
				{
					"internalType": "uint256",
					"name": "_tokenId",
					"type": "uint256"
				},
				{
					"internalType": "uint256",
					"name": "_price",
					"type": "uint256"
				}
			],
			"name": "makeOffer",
			"outputs": [],
			"stateMutability": "payable",
			"type": "function"
		},
		{
			"inputs": [
				{
					"internalType": "uint256",
					"name": "_tokenId",
					"type": "uint256"
				},
				{
					"internalType": "uint256",
					"name": "_price",
					"type": "uint256"
				}
			],
			"name": "makeOfferWithUserFundsAndEther",
			"outputs": [],
			"stateMutability": "payable",
			"type": "function"
		},
		{
			"inputs": [
				{
					"internalType": "uint256",
					"name": "_Offerid",
					"type": "uint256"
				}
			],
			"name": "offerDataOfOfferId",
			"outputs": [
				{
					"components": [
						{
							"internalType": "uint256",
							"name": "offerId",
							"type": "uint256"
						},
						{
							"internalType": "uint256",
							"name": "tokenId",
							"type": "uint256"
						},
						{
							"internalType": "address",
							"name": "user",
							"type": "address"
						},
						{
							"internalType": "uint256",
							"name": "price",
							"type": "uint256"
						},
						{
							"internalType": "enum OneRingNFTMarketplace.OfferStatus",
							"name": "offerstatus",
							"type": "uint8"
						}
					],
					"internalType": "struct OneRingNFTMarketplace._Offer",
					"name": "",
					"type": "tuple"
				}
			],
			"stateMutability": "view",
			"type": "function"
		},
		{
			"inputs": [
				{
					"internalType": "uint256",
					"name": "_tokenId",
					"type": "uint256"
				}
			],
			"name": "offerIdsOfNFTId",
			"outputs": [
				{
					"internalType": "uint256[]",
					"name": "",
					"type": "uint256[]"
				}
			],
			"stateMutability": "view",
			"type": "function"
		},
		{
			"inputs": [],
			"name": "owner",
			"outputs": [
				{
					"internalType": "address",
					"name": "",
					"type": "address"
				}
			],
			"stateMutability": "view",
			"type": "function"
		},
		{
			"inputs": [
				{
					"internalType": "uint256",
					"name": "_tokenId",
					"type": "uint256"
				}
			],
			"name": "ownerOfNFTId",
			"outputs": [
				{
					"internalType": "address",
					"name": "",
					"type": "address"
				}
			],
			"stateMutability": "view",
			"type": "function"
		},
		{
			"inputs": [
				{
					"internalType": "uint256",
					"name": "_tokenId",
					"type": "uint256"
				}
			],
			"name": "rejectAllOffers",
			"outputs": [],
			"stateMutability": "nonpayable",
			"type": "function"
		},
		{
			"inputs": [],
			"name": "renounceOwnership",
			"outputs": [],
			"stateMutability": "nonpayable",
			"type": "function"
		},
		{
			"inputs": [
				{
					"internalType": "uint256",
					"name": "_tokenId",
					"type": "uint256"
				}
			],
			"name": "simpleBuyNFT",
			"outputs": [],
			"stateMutability": "payable",
			"type": "function"
		},
		{
			"inputs": [
				{
					"internalType": "address",
					"name": "_owner",
					"type": "address"
				},
				{
					"internalType": "uint256",
					"name": "_index",
					"type": "uint256"
				}
			],
			"name": "tokenOfOwnerByIndex",
			"outputs": [
				{
					"internalType": "uint256",
					"name": "",
					"type": "uint256"
				}
			],
			"stateMutability": "view",
			"type": "function"
		},
		{
			"inputs": [
				{
					"internalType": "uint256",
					"name": "_tokenId",
					"type": "uint256"
				}
			],
			"name": "tokenURIOfNFTId",
			"outputs": [
				{
					"internalType": "string",
					"name": "",
					"type": "string"
				}
			],
			"stateMutability": "view",
			"type": "function"
		},
		{
			"inputs": [
				{
					"internalType": "address",
					"name": "newOwner",
					"type": "address"
				}
			],
			"name": "transferOwnership",
			"outputs": [],
			"stateMutability": "nonpayable",
			"type": "function"
		},
		{
			"stateMutability": "payable",
			"type": "receive"
		}
	]
}